{
	"1127/util/CommonUtil.sol": {
		"CommonUtil": {
			"abi": [
				{
					"inputs": [
						{
							"internalType": "string",
							"name": "_contract",
							"type": "string"
						},
						{
							"internalType": "string",
							"name": "_function",
							"type": "string"
						},
						{
							"internalType": "string",
							"name": "_msg",
							"type": "string"
						}
					],
					"name": "error",
					"outputs": [
						{
							"internalType": "string",
							"name": "",
							"type": "string"
						}
					],
					"stateMutability": "pure",
					"type": "function"
				},
				{
					"inputs": [
						{
							"internalType": "string",
							"name": "_a",
							"type": "string"
						},
						{
							"internalType": "string",
							"name": "_b",
							"type": "string"
						}
					],
					"name": "strConcat",
					"outputs": [
						{
							"internalType": "string",
							"name": "",
							"type": "string"
						}
					],
					"stateMutability": "pure",
					"type": "function"
				},
				{
					"inputs": [
						{
							"internalType": "string",
							"name": "str",
							"type": "string"
						}
					],
					"name": "stringToBytes32",
					"outputs": [
						{
							"internalType": "bytes32",
							"name": "",
							"type": "bytes32"
						}
					],
					"stateMutability": "pure",
					"type": "function"
				},
				{
					"inputs": [
						{
							"internalType": "string",
							"name": "_group",
							"type": "string"
						},
						{
							"internalType": "uint256",
							"name": "id",
							"type": "uint256"
						}
					],
					"name": "toAssetIndex",
					"outputs": [
						{
							"internalType": "string",
							"name": "",
							"type": "string"
						}
					],
					"stateMutability": "pure",
					"type": "function"
				},
				{
					"inputs": [
						{
							"internalType": "string",
							"name": "str",
							"type": "string"
						}
					],
					"name": "toRole",
					"outputs": [
						{
							"internalType": "bytes32",
							"name": "",
							"type": "bytes32"
						}
					],
					"stateMutability": "pure",
					"type": "function"
				}
			],
			"devdoc": {
				"kind": "dev",
				"methods": {},
				"version": 1
			},
			"evm": {
				"assembly": "    /* \"1127/util/CommonUtil.sol\":150:2402  contract CommonUtil  {... */\n  mstore(0x40, 0x80)\n  callvalue\n  dup1\n  iszero\n  tag_1\n  jumpi\n  0x00\n  dup1\n  revert\ntag_1:\n  pop\n  dataSize(sub_0)\n  dup1\n  dataOffset(sub_0)\n  0x00\n  codecopy\n  0x00\n  return\nstop\n\nsub_0: assembly {\n        /* \"1127/util/CommonUtil.sol\":150:2402  contract CommonUtil  {... */\n      mstore(0x40, 0x80)\n      callvalue\n      dup1\n      iszero\n      tag_1\n      jumpi\n      0x00\n      dup1\n      revert\n    tag_1:\n      pop\n      jumpi(tag_2, lt(calldatasize, 0x04))\n      shr(0xe0, calldataload(0x00))\n      dup1\n      0x609f7070\n      eq\n      tag_3\n      jumpi\n      dup1\n      0x60e01594\n      eq\n      tag_4\n      jumpi\n      dup1\n      0xa1f7ed1a\n      eq\n      tag_5\n      jumpi\n      dup1\n      0xcfb51928\n      eq\n      tag_6\n      jumpi\n      dup1\n      0xff74927b\n      eq\n      tag_7\n      jumpi\n    tag_2:\n      0x00\n      dup1\n      revert\n        /* \"1127/util/CommonUtil.sol\":662:1012  function error(... */\n    tag_3:\n      tag_8\n      0x04\n      dup1\n      calldatasize\n      sub\n      dup2\n      add\n      swap1\n      tag_9\n      swap2\n      swap1\n      tag_10\n      jump\t// in\n    tag_9:\n      tag_11\n      jump\t// in\n    tag_8:\n      mload(0x40)\n      tag_12\n      swap2\n      swap1\n      tag_13\n      jump\t// in\n    tag_12:\n      mload(0x40)\n      dup1\n      swap2\n      sub\n      swap1\n      return\n        /* \"1127/util/CommonUtil.sol\":307:416  function toRole(string memory str) public pure returns (bytes32) {... */\n    tag_4:\n      tag_14\n      0x04\n      dup1\n      calldatasize\n      sub\n      dup2\n      add\n      swap1\n      tag_15\n      swap2\n      swap1\n      tag_16\n      jump\t// in\n    tag_15:\n      tag_17\n      jump\t// in\n    tag_14:\n      mload(0x40)\n      tag_18\n      swap2\n      swap1\n      tag_19\n      jump\t// in\n    tag_18:\n      mload(0x40)\n      dup1\n      swap2\n      sub\n      swap1\n      return\n        /* \"1127/util/CommonUtil.sol\":482:651  function toAssetIndex(string memory _group,uint256 id) public pure returns (string memory){... */\n    tag_5:\n      tag_20\n      0x04\n      dup1\n      calldatasize\n      sub\n      dup2\n      add\n      swap1\n      tag_21\n      swap2\n      swap1\n      tag_22\n      jump\t// in\n    tag_21:\n      tag_23\n      jump\t// in\n    tag_20:\n      mload(0x40)\n      tag_24\n      swap2\n      swap1\n      tag_13\n      jump\t// in\n    tag_24:\n      mload(0x40)\n      dup1\n      swap2\n      sub\n      swap1\n      return\n        /* \"1127/util/CommonUtil.sol\":1055:1185  function stringToBytes32(string memory str) public pure returns (bytes32) {... */\n    tag_6:\n      tag_25\n      0x04\n      dup1\n      calldatasize\n      sub\n      dup2\n      add\n      swap1\n      tag_26\n      swap2\n      swap1\n      tag_16\n      jump\t// in\n    tag_26:\n      tag_27\n      jump\t// in\n    tag_25:\n      mload(0x40)\n      tag_28\n      swap2\n      swap1\n      tag_19\n      jump\t// in\n    tag_28:\n      mload(0x40)\n      dup1\n      swap2\n      sub\n      swap1\n      return\n        /* \"1127/util/CommonUtil.sol\":1192:1688  function strConcat(string memory _a, string memory _b)... */\n    tag_7:\n      tag_29\n      0x04\n      dup1\n      calldatasize\n      sub\n      dup2\n      add\n      swap1\n      tag_30\n      swap2\n      swap1\n      tag_31\n      jump\t// in\n    tag_30:\n      tag_32\n      jump\t// in\n    tag_29:\n      mload(0x40)\n      tag_33\n      swap2\n      swap1\n      tag_13\n      jump\t// in\n    tag_33:\n      mload(0x40)\n      dup1\n      swap2\n      sub\n      swap1\n      return\n        /* \"1127/util/CommonUtil.sol\":662:1012  function error(... */\n    tag_11:\n        /* \"1127/util/CommonUtil.sol\":798:811  string memory */\n      0x60\n        /* \"1127/util/CommonUtil.sol\":829:1005  strConcat(... */\n      tag_35\n        /* \"1127/util/CommonUtil.sol\":848:956  strConcat(... */\n      tag_36\n        /* \"1127/util/CommonUtil.sol\":867:901  strConcat(\"Contract: \", _contract) */\n      tag_37\n      mload(0x40)\n      dup1\n      0x40\n      add\n      0x40\n      mstore\n      dup1\n      0x0a\n      dup2\n      mstore\n      0x20\n      add\n      0x436f6e74726163743a2000000000000000000000000000000000000000000000\n      dup2\n      mstore\n      pop\n        /* \"1127/util/CommonUtil.sol\":891:900  _contract */\n      dup8\n        /* \"1127/util/CommonUtil.sol\":867:876  strConcat */\n      tag_32\n        /* \"1127/util/CommonUtil.sol\":867:901  strConcat(\"Contract: \", _contract) */\n      jump\t// in\n    tag_37:\n        /* \"1127/util/CommonUtil.sol\":911:946  strConcat(\",Function: \", _function) */\n      tag_38\n      mload(0x40)\n      dup1\n      0x40\n      add\n      0x40\n      mstore\n      dup1\n      0x0b\n      dup2\n      mstore\n      0x20\n      add\n      0x2c46756e6374696f6e3a20000000000000000000000000000000000000000000\n      dup2\n      mstore\n      pop\n        /* \"1127/util/CommonUtil.sol\":936:945  _function */\n      dup8\n        /* \"1127/util/CommonUtil.sol\":911:920  strConcat */\n      tag_32\n        /* \"1127/util/CommonUtil.sol\":911:946  strConcat(\",Function: \", _function) */\n      jump\t// in\n    tag_38:\n        /* \"1127/util/CommonUtil.sol\":848:857  strConcat */\n      tag_32\n        /* \"1127/util/CommonUtil.sol\":848:956  strConcat(... */\n      jump\t// in\n    tag_36:\n        /* \"1127/util/CommonUtil.sol\":966:995  strConcat(\",Message: \", _msg) */\n      tag_39\n      mload(0x40)\n      dup1\n      0x40\n      add\n      0x40\n      mstore\n      dup1\n      0x0a\n      dup2\n      mstore\n      0x20\n      add\n      0x2c4d6573736167653a2000000000000000000000000000000000000000000000\n      dup2\n      mstore\n      pop\n        /* \"1127/util/CommonUtil.sol\":990:994  _msg */\n      dup6\n        /* \"1127/util/CommonUtil.sol\":966:975  strConcat */\n      tag_32\n        /* \"1127/util/CommonUtil.sol\":966:995  strConcat(\",Message: \", _msg) */\n      jump\t// in\n    tag_39:\n        /* \"1127/util/CommonUtil.sol\":829:838  strConcat */\n      tag_32\n        /* \"1127/util/CommonUtil.sol\":829:1005  strConcat(... */\n      jump\t// in\n    tag_35:\n        /* \"1127/util/CommonUtil.sol\":822:1005  return strConcat(... */\n      swap1\n      pop\n        /* \"1127/util/CommonUtil.sol\":662:1012  function error(... */\n      swap4\n      swap3\n      pop\n      pop\n      pop\n      jump\t// out\n        /* \"1127/util/CommonUtil.sol\":307:416  function toRole(string memory str) public pure returns (bytes32) {... */\n    tag_17:\n        /* \"1127/util/CommonUtil.sol\":363:370  bytes32 */\n      0x00\n        /* \"1127/util/CommonUtil.sol\":389:409  stringToBytes32(str) */\n      tag_41\n        /* \"1127/util/CommonUtil.sol\":405:408  str */\n      dup3\n        /* \"1127/util/CommonUtil.sol\":389:404  stringToBytes32 */\n      tag_27\n        /* \"1127/util/CommonUtil.sol\":389:409  stringToBytes32(str) */\n      jump\t// in\n    tag_41:\n        /* \"1127/util/CommonUtil.sol\":382:409  return stringToBytes32(str) */\n      swap1\n      pop\n        /* \"1127/util/CommonUtil.sol\":307:416  function toRole(string memory str) public pure returns (bytes32) {... */\n      swap2\n      swap1\n      pop\n      jump\t// out\n        /* \"1127/util/CommonUtil.sol\":482:651  function toAssetIndex(string memory _group,uint256 id) public pure returns (string memory){... */\n    tag_23:\n        /* \"1127/util/CommonUtil.sol\":558:571  string memory */\n      0x60\n        /* \"1127/util/CommonUtil.sol\":598:644  strConcat(strConcat(_group, \":\"),toString(id)) */\n      tag_43\n        /* \"1127/util/CommonUtil.sol\":608:630  strConcat(_group, \":\") */\n      tag_44\n        /* \"1127/util/CommonUtil.sol\":618:624  _group */\n      dup5\n        /* \"1127/util/CommonUtil.sol\":608:630  strConcat(_group, \":\") */\n      mload(0x40)\n      dup1\n      0x40\n      add\n      0x40\n      mstore\n      dup1\n      0x01\n      dup2\n      mstore\n      0x20\n      add\n      0x3a00000000000000000000000000000000000000000000000000000000000000\n      dup2\n      mstore\n      pop\n        /* \"1127/util/CommonUtil.sol\":608:617  strConcat */\n      tag_32\n        /* \"1127/util/CommonUtil.sol\":608:630  strConcat(_group, \":\") */\n      jump\t// in\n    tag_44:\n        /* \"1127/util/CommonUtil.sol\":631:643  toString(id) */\n      tag_45\n        /* \"1127/util/CommonUtil.sol\":640:642  id */\n      dup5\n        /* \"1127/util/CommonUtil.sol\":631:639  toString */\n      tag_46\n        /* \"1127/util/CommonUtil.sol\":631:643  toString(id) */\n      jump\t// in\n    tag_45:\n        /* \"1127/util/CommonUtil.sol\":598:607  strConcat */\n      tag_32\n        /* \"1127/util/CommonUtil.sol\":598:644  strConcat(strConcat(_group, \":\"),toString(id)) */\n      jump\t// in\n    tag_43:\n        /* \"1127/util/CommonUtil.sol\":591:644  return strConcat(strConcat(_group, \":\"),toString(id)) */\n      swap1\n      pop\n        /* \"1127/util/CommonUtil.sol\":482:651  function toAssetIndex(string memory _group,uint256 id) public pure returns (string memory){... */\n      swap3\n      swap2\n      pop\n      pop\n      jump\t// out\n        /* \"1127/util/CommonUtil.sol\":1055:1185  function stringToBytes32(string memory str) public pure returns (bytes32) {... */\n    tag_27:\n        /* \"1127/util/CommonUtil.sol\":1120:1127  bytes32 */\n      0x00\n        /* \"1127/util/CommonUtil.sol\":1173:1176  str */\n      dup2\n        /* \"1127/util/CommonUtil.sol\":1156:1177  abi.encodePacked(str) */\n      add(0x20, mload(0x40))\n      tag_48\n      swap2\n      swap1\n      tag_49\n      jump\t// in\n    tag_48:\n      mload(0x40)\n      0x20\n      dup2\n      dup4\n      sub\n      sub\n      dup2\n      mstore\n      swap1\n      0x40\n      mstore\n        /* \"1127/util/CommonUtil.sol\":1146:1178  keccak256(abi.encodePacked(str)) */\n      dup1\n      mload\n      swap1\n      0x20\n      add\n      keccak256\n        /* \"1127/util/CommonUtil.sol\":1139:1178  return keccak256(abi.encodePacked(str)) */\n      swap1\n      pop\n        /* \"1127/util/CommonUtil.sol\":1055:1185  function stringToBytes32(string memory str) public pure returns (bytes32) {... */\n      swap2\n      swap1\n      pop\n      jump\t// out\n        /* \"1127/util/CommonUtil.sol\":1192:1688  function strConcat(string memory _a, string memory _b)... */\n    tag_32:\n        /* \"1127/util/CommonUtil.sol\":1292:1305  string memory */\n      0x60\n        /* \"1127/util/CommonUtil.sol\":1321:1337  bytes memory _ba */\n      0x00\n        /* \"1127/util/CommonUtil.sol\":1346:1348  _a */\n      dup4\n        /* \"1127/util/CommonUtil.sol\":1321:1349  bytes memory _ba = bytes(_a) */\n      swap1\n      pop\n        /* \"1127/util/CommonUtil.sol\":1359:1375  bytes memory _bb */\n      0x00\n        /* \"1127/util/CommonUtil.sol\":1384:1386  _b */\n      dup4\n        /* \"1127/util/CommonUtil.sol\":1359:1387  bytes memory _bb = bytes(_b) */\n      swap1\n      pop\n        /* \"1127/util/CommonUtil.sol\":1397:1414  string memory ret */\n      0x00\n        /* \"1127/util/CommonUtil.sol\":1441:1444  _bb */\n      dup2\n        /* \"1127/util/CommonUtil.sol\":1441:1451  _bb.length */\n      mload\n        /* \"1127/util/CommonUtil.sol\":1428:1431  _ba */\n      dup4\n        /* \"1127/util/CommonUtil.sol\":1428:1438  _ba.length */\n      mload\n        /* \"1127/util/CommonUtil.sol\":1428:1451  _ba.length + _bb.length */\n      tag_51\n      swap2\n      swap1\n      tag_52\n      jump\t// in\n    tag_51:\n        /* \"1127/util/CommonUtil.sol\":1417:1452  new string(_ba.length + _bb.length) */\n      0xffffffffffffffff\n      dup2\n      gt\n      iszero\n      tag_53\n      jumpi\n      tag_54\n      tag_55\n      jump\t// in\n    tag_54:\n    tag_53:\n      mload(0x40)\n      swap1\n      dup1\n      dup3\n      mstore\n      dup1\n      0x1f\n      add\n      not(0x1f)\n      and\n      0x20\n      add\n      dup3\n      add\n      0x40\n      mstore\n      dup1\n      iszero\n      tag_56\n      jumpi\n      dup2\n      0x20\n      add\n      0x01\n      dup3\n      mul\n      dup1\n      calldatasize\n      dup4\n      calldatacopy\n      dup1\n      dup3\n      add\n      swap2\n      pop\n      pop\n      swap1\n      pop\n    tag_56:\n      pop\n        /* \"1127/util/CommonUtil.sol\":1397:1452  string memory ret = new string(_ba.length + _bb.length) */\n      swap1\n      pop\n        /* \"1127/util/CommonUtil.sol\":1462:1479  bytes memory bret */\n      0x00\n        /* \"1127/util/CommonUtil.sol\":1488:1491  ret */\n      dup2\n        /* \"1127/util/CommonUtil.sol\":1462:1492  bytes memory bret = bytes(ret) */\n      swap1\n      pop\n        /* \"1127/util/CommonUtil.sol\":1502:1511  uint256 k */\n      0x00\n        /* \"1127/util/CommonUtil.sol\":1530:1539  uint256 i */\n      dup1\n        /* \"1127/util/CommonUtil.sol\":1525:1584  for (uint256 i = 0; i < _ba.length; i++) bret[k++] = _ba[i] */\n    tag_57:\n        /* \"1127/util/CommonUtil.sol\":1549:1552  _ba */\n      dup6\n        /* \"1127/util/CommonUtil.sol\":1549:1559  _ba.length */\n      mload\n        /* \"1127/util/CommonUtil.sol\":1545:1546  i */\n      dup2\n        /* \"1127/util/CommonUtil.sol\":1545:1559  i < _ba.length */\n      lt\n        /* \"1127/util/CommonUtil.sol\":1525:1584  for (uint256 i = 0; i < _ba.length; i++) bret[k++] = _ba[i] */\n      iszero\n      tag_58\n      jumpi\n        /* \"1127/util/CommonUtil.sol\":1578:1581  _ba */\n      dup6\n        /* \"1127/util/CommonUtil.sol\":1582:1583  i */\n      dup2\n        /* \"1127/util/CommonUtil.sol\":1578:1584  _ba[i] */\n      dup2\n      mload\n      dup2\n      lt\n      tag_60\n      jumpi\n      tag_61\n      tag_62\n      jump\t// in\n    tag_61:\n    tag_60:\n      0x20\n      add\n      add\n      mload\n      0xf8\n      shr\n      0xf8\n      shl\n        /* \"1127/util/CommonUtil.sol\":1566:1570  bret */\n      dup4\n        /* \"1127/util/CommonUtil.sol\":1571:1574  k++ */\n      dup4\n      dup1\n      tag_63\n      swap1\n      tag_64\n      jump\t// in\n    tag_63:\n      swap5\n      pop\n        /* \"1127/util/CommonUtil.sol\":1566:1575  bret[k++] */\n      dup2\n      mload\n      dup2\n      lt\n      tag_65\n      jumpi\n      tag_66\n      tag_62\n      jump\t// in\n    tag_66:\n    tag_65:\n      0x20\n      add\n      add\n        /* \"1127/util/CommonUtil.sol\":1566:1584  bret[k++] = _ba[i] */\n      swap1\n      not(0xffffffffffffffffffffffffffffffffffffffffffffffffffffffffffffff)\n      and\n      swap1\n      dup2\n      0x00\n      byte\n      swap1\n      mstore8\n      pop\n        /* \"1127/util/CommonUtil.sol\":1561:1564  i++ */\n      dup1\n      dup1\n      tag_67\n      swap1\n      tag_64\n      jump\t// in\n    tag_67:\n      swap2\n      pop\n      pop\n        /* \"1127/util/CommonUtil.sol\":1525:1584  for (uint256 i = 0; i < _ba.length; i++) bret[k++] = _ba[i] */\n      jump(tag_57)\n    tag_58:\n      pop\n        /* \"1127/util/CommonUtil.sol\":1599:1608  uint256 i */\n      0x00\n        /* \"1127/util/CommonUtil.sol\":1594:1653  for (uint256 i = 0; i < _bb.length; i++) bret[k++] = _bb[i] */\n    tag_68:\n        /* \"1127/util/CommonUtil.sol\":1618:1621  _bb */\n      dup5\n        /* \"1127/util/CommonUtil.sol\":1618:1628  _bb.length */\n      mload\n        /* \"1127/util/CommonUtil.sol\":1614:1615  i */\n      dup2\n        /* \"1127/util/CommonUtil.sol\":1614:1628  i < _bb.length */\n      lt\n        /* \"1127/util/CommonUtil.sol\":1594:1653  for (uint256 i = 0; i < _bb.length; i++) bret[k++] = _bb[i] */\n      iszero\n      tag_69\n      jumpi\n        /* \"1127/util/CommonUtil.sol\":1647:1650  _bb */\n      dup5\n        /* \"1127/util/CommonUtil.sol\":1651:1652  i */\n      dup2\n        /* \"1127/util/CommonUtil.sol\":1647:1653  _bb[i] */\n      dup2\n      mload\n      dup2\n      lt\n      tag_71\n      jumpi\n      tag_72\n      tag_62\n      jump\t// in\n    tag_72:\n    tag_71:\n      0x20\n      add\n      add\n      mload\n      0xf8\n      shr\n      0xf8\n      shl\n        /* \"1127/util/CommonUtil.sol\":1635:1639  bret */\n      dup4\n        /* \"1127/util/CommonUtil.sol\":1640:1643  k++ */\n      dup4\n      dup1\n      tag_73\n      swap1\n      tag_64\n      jump\t// in\n    tag_73:\n      swap5\n      pop\n        /* \"1127/util/CommonUtil.sol\":1635:1644  bret[k++] */\n      dup2\n      mload\n      dup2\n      lt\n      tag_74\n      jumpi\n      tag_75\n      tag_62\n      jump\t// in\n    tag_75:\n    tag_74:\n      0x20\n      add\n      add\n        /* \"1127/util/CommonUtil.sol\":1635:1653  bret[k++] = _bb[i] */\n      swap1\n      not(0xffffffffffffffffffffffffffffffffffffffffffffffffffffffffffffff)\n      and\n      swap1\n      dup2\n      0x00\n      byte\n      swap1\n      mstore8\n      pop\n        /* \"1127/util/CommonUtil.sol\":1630:1633  i++ */\n      dup1\n      dup1\n      tag_76\n      swap1\n      tag_64\n      jump\t// in\n    tag_76:\n      swap2\n      pop\n      pop\n        /* \"1127/util/CommonUtil.sol\":1594:1653  for (uint256 i = 0; i < _bb.length; i++) bret[k++] = _bb[i] */\n      jump(tag_68)\n    tag_69:\n      pop\n        /* \"1127/util/CommonUtil.sol\":1677:1680  ret */\n      dup3\n        /* \"1127/util/CommonUtil.sol\":1663:1681  return string(ret) */\n      swap6\n      pop\n      pop\n      pop\n      pop\n      pop\n      pop\n        /* \"1127/util/CommonUtil.sol\":1192:1688  function strConcat(string memory _a, string memory _b)... */\n      swap3\n      swap2\n      pop\n      pop\n      jump\t// out\n        /* \"1127/util/CommonUtil.sol\":1696:2394  function toString(uint256 value) internal pure returns (string memory) {... */\n    tag_46:\n        /* \"1127/util/CommonUtil.sol\":1752:1765  string memory */\n      0x60\n        /* \"1127/util/CommonUtil.sol\":1801:1815  uint256 length */\n      0x00\n        /* \"1127/util/CommonUtil.sol\":1838:1839  1 */\n      0x01\n        /* \"1127/util/CommonUtil.sol\":1818:1835  Math.log10(value) */\n      tag_78\n        /* \"1127/util/CommonUtil.sol\":1829:1834  value */\n      dup5\n        /* \"1127/util/CommonUtil.sol\":1818:1828  Math.log10 */\n      tag_79\n        /* \"1127/util/CommonUtil.sol\":1818:1835  Math.log10(value) */\n      jump\t// in\n    tag_78:\n        /* \"1127/util/CommonUtil.sol\":1818:1839  Math.log10(value) + 1 */\n      add\n        /* \"1127/util/CommonUtil.sol\":1801:1839  uint256 length = Math.log10(value) + 1 */\n      swap1\n      pop\n        /* \"1127/util/CommonUtil.sol\":1853:1873  string memory buffer */\n      0x00\n        /* \"1127/util/CommonUtil.sol\":1887:1893  length */\n      dup2\n        /* \"1127/util/CommonUtil.sol\":1876:1894  new string(length) */\n      0xffffffffffffffff\n      dup2\n      gt\n      iszero\n      tag_80\n      jumpi\n      tag_81\n      tag_55\n      jump\t// in\n    tag_81:\n    tag_80:\n      mload(0x40)\n      swap1\n      dup1\n      dup3\n      mstore\n      dup1\n      0x1f\n      add\n      not(0x1f)\n      and\n      0x20\n      add\n      dup3\n      add\n      0x40\n      mstore\n      dup1\n      iszero\n      tag_82\n      jumpi\n      dup2\n      0x20\n      add\n      0x01\n      dup3\n      mul\n      dup1\n      calldatasize\n      dup4\n      calldatacopy\n      dup1\n      dup3\n      add\n      swap2\n      pop\n      pop\n      swap1\n      pop\n    tag_82:\n      pop\n        /* \"1127/util/CommonUtil.sol\":1853:1894  string memory buffer = new string(length) */\n      swap1\n      pop\n        /* \"1127/util/CommonUtil.sol\":1908:1919  uint256 ptr */\n      0x00\n        /* \"1127/util/CommonUtil.sol\":2034:2040  length */\n      dup3\n        /* \"1127/util/CommonUtil.sol\":2030:2032  32 */\n      0x20\n        /* \"1127/util/CommonUtil.sol\":2026:2041  add(32, length) */\n      add\n        /* \"1127/util/CommonUtil.sol\":2018:2024  buffer */\n      dup3\n        /* \"1127/util/CommonUtil.sol\":2014:2042  add(buffer, add(32, length)) */\n      add\n        /* \"1127/util/CommonUtil.sol\":2007:2042  ptr := add(buffer, add(32, length)) */\n      swap1\n      pop\n        /* \"1127/util/CommonUtil.sol\":2069:2351  while (true) {... */\n    tag_83:\n        /* \"1127/util/CommonUtil.sol\":2076:2080  true */\n      0x01\n        /* \"1127/util/CommonUtil.sol\":2069:2351  while (true) {... */\n      iszero\n      tag_84\n      jumpi\n        /* \"1127/util/CommonUtil.sol\":2100:2105  ptr-- */\n      dup1\n      dup1\n      0x01\n      swap1\n      sub\n      swap2\n      pop\n      pop\n        /* \"1127/util/CommonUtil.sol\":2239:2249  HEX_DIGITS */\n      0x3031323334353637383961626364656600000000000000000000000000000000\n        /* \"1127/util/CommonUtil.sol\":2234:2236  10 */\n      0x0a\n        /* \"1127/util/CommonUtil.sol\":2227:2232  value */\n      dup7\n        /* \"1127/util/CommonUtil.sol\":2223:2237  mod(value, 10) */\n      mod\n        /* \"1127/util/CommonUtil.sol\":2218:2250  byte(mod(value, 10), HEX_DIGITS) */\n      byte\n        /* \"1127/util/CommonUtil.sol\":2213:2216  ptr */\n      dup2\n        /* \"1127/util/CommonUtil.sol\":2205:2251  mstore8(ptr, byte(mod(value, 10), HEX_DIGITS)) */\n      mstore8\n        /* \"1127/util/CommonUtil.sol\":2295:2297  10 */\n      0x0a\n        /* \"1127/util/CommonUtil.sol\":2286:2297  value /= 10 */\n      dup6\n      dup2\n      tag_85\n      jumpi\n      tag_86\n      tag_87\n      jump\t// in\n    tag_86:\n    tag_85:\n      div\n      swap5\n      pop\n        /* \"1127/util/CommonUtil.sol\":2328:2329  0 */\n      0x00\n        /* \"1127/util/CommonUtil.sol\":2319:2324  value */\n      dup6\n        /* \"1127/util/CommonUtil.sol\":2319:2329  value == 0 */\n      eq\n        /* \"1127/util/CommonUtil.sol\":2315:2336  if (value == 0) break */\n      iszero\n      tag_88\n      jumpi\n        /* \"1127/util/CommonUtil.sol\":2331:2336  break */\n      jump(tag_84)\n        /* \"1127/util/CommonUtil.sol\":2315:2336  if (value == 0) break */\n    tag_88:\n        /* \"1127/util/CommonUtil.sol\":2069:2351  while (true) {... */\n      jump(tag_83)\n    tag_84:\n        /* \"1127/util/CommonUtil.sol\":2371:2377  buffer */\n      dup2\n        /* \"1127/util/CommonUtil.sol\":2364:2377  return buffer */\n      swap4\n      pop\n      pop\n      pop\n      pop\n        /* \"1127/util/CommonUtil.sol\":1696:2394  function toString(uint256 value) internal pure returns (string memory) {... */\n      swap2\n      swap1\n      pop\n      jump\t// out\n        /* \"1127/util/Math.sol\":12461:13409  function log10(uint256 value) internal pure returns (uint256) {... */\n    tag_79:\n        /* \"1127/util/Math.sol\":12514:12521  uint256 */\n      0x00\n        /* \"1127/util/Math.sol\":12534:12548  uint256 result */\n      dup1\n        /* \"1127/util/Math.sol\":12551:12552  0 */\n      0x00\n        /* \"1127/util/Math.sol\":12534:12552  uint256 result = 0 */\n      swap1\n      pop\n        /* \"1127/util/Math.sol\":12601:12609  10 ** 64 */\n      0x184f03e93ff9f4daa797ed6e38ed64bf6a1f010000000000000000\n        /* \"1127/util/Math.sol\":12592:12597  value */\n      dup4\n        /* \"1127/util/Math.sol\":12592:12609  value >= 10 ** 64 */\n      lt\n        /* \"1127/util/Math.sol\":12588:12694  if (value >= 10 ** 64) {... */\n      tag_90\n      jumpi\n        /* \"1127/util/Math.sol\":12639:12647  10 ** 64 */\n      0x184f03e93ff9f4daa797ed6e38ed64bf6a1f010000000000000000\n        /* \"1127/util/Math.sol\":12630:12647  value /= 10 ** 64 */\n      dup4\n      dup2\n      tag_91\n      jumpi\n      tag_92\n      tag_87\n      jump\t// in\n    tag_92:\n    tag_91:\n      div\n      swap3\n      pop\n        /* \"1127/util/Math.sol\":12676:12678  64 */\n      0x40\n        /* \"1127/util/Math.sol\":12666:12678  result += 64 */\n      dup2\n      add\n      swap1\n      pop\n        /* \"1127/util/Math.sol\":12588:12694  if (value >= 10 ** 64) {... */\n    tag_90:\n        /* \"1127/util/Math.sol\":12721:12729  10 ** 32 */\n      0x04ee2d6d415b85acef8100000000\n        /* \"1127/util/Math.sol\":12712:12717  value */\n      dup4\n        /* \"1127/util/Math.sol\":12712:12729  value >= 10 ** 32 */\n      lt\n        /* \"1127/util/Math.sol\":12708:12814  if (value >= 10 ** 32) {... */\n      tag_93\n      jumpi\n        /* \"1127/util/Math.sol\":12759:12767  10 ** 32 */\n      0x04ee2d6d415b85acef8100000000\n        /* \"1127/util/Math.sol\":12750:12767  value /= 10 ** 32 */\n      dup4\n      dup2\n      tag_94\n      jumpi\n      tag_95\n      tag_87\n      jump\t// in\n    tag_95:\n    tag_94:\n      div\n      swap3\n      pop\n        /* \"1127/util/Math.sol\":12796:12798  32 */\n      0x20\n        /* \"1127/util/Math.sol\":12786:12798  result += 32 */\n      dup2\n      add\n      swap1\n      pop\n        /* \"1127/util/Math.sol\":12708:12814  if (value >= 10 ** 32) {... */\n    tag_93:\n        /* \"1127/util/Math.sol\":12841:12849  10 ** 16 */\n      0x2386f26fc10000\n        /* \"1127/util/Math.sol\":12832:12837  value */\n      dup4\n        /* \"1127/util/Math.sol\":12832:12849  value >= 10 ** 16 */\n      lt\n        /* \"1127/util/Math.sol\":12828:12934  if (value >= 10 ** 16) {... */\n      tag_96\n      jumpi\n        /* \"1127/util/Math.sol\":12879:12887  10 ** 16 */\n      0x2386f26fc10000\n        /* \"1127/util/Math.sol\":12870:12887  value /= 10 ** 16 */\n      dup4\n      dup2\n      tag_97\n      jumpi\n      tag_98\n      tag_87\n      jump\t// in\n    tag_98:\n    tag_97:\n      div\n      swap3\n      pop\n        /* \"1127/util/Math.sol\":12916:12918  16 */\n      0x10\n        /* \"1127/util/Math.sol\":12906:12918  result += 16 */\n      dup2\n      add\n      swap1\n      pop\n        /* \"1127/util/Math.sol\":12828:12934  if (value >= 10 ** 16) {... */\n    tag_96:\n        /* \"1127/util/Math.sol\":12961:12968  10 ** 8 */\n      0x05f5e100\n        /* \"1127/util/Math.sol\":12952:12957  value */\n      dup4\n        /* \"1127/util/Math.sol\":12952:12968  value >= 10 ** 8 */\n      lt\n        /* \"1127/util/Math.sol\":12948:13051  if (value >= 10 ** 8) {... */\n      tag_99\n      jumpi\n        /* \"1127/util/Math.sol\":12998:13005  10 ** 8 */\n      0x05f5e100\n        /* \"1127/util/Math.sol\":12989:13005  value /= 10 ** 8 */\n      dup4\n      dup2\n      tag_100\n      jumpi\n      tag_101\n      tag_87\n      jump\t// in\n    tag_101:\n    tag_100:\n      div\n      swap3\n      pop\n        /* \"1127/util/Math.sol\":13034:13035  8 */\n      0x08\n        /* \"1127/util/Math.sol\":13024:13035  result += 8 */\n      dup2\n      add\n      swap1\n      pop\n        /* \"1127/util/Math.sol\":12948:13051  if (value >= 10 ** 8) {... */\n    tag_99:\n        /* \"1127/util/Math.sol\":13078:13085  10 ** 4 */\n      0x2710\n        /* \"1127/util/Math.sol\":13069:13074  value */\n      dup4\n        /* \"1127/util/Math.sol\":13069:13085  value >= 10 ** 4 */\n      lt\n        /* \"1127/util/Math.sol\":13065:13168  if (value >= 10 ** 4) {... */\n      tag_102\n      jumpi\n        /* \"1127/util/Math.sol\":13115:13122  10 ** 4 */\n      0x2710\n        /* \"1127/util/Math.sol\":13106:13122  value /= 10 ** 4 */\n      dup4\n      dup2\n      tag_103\n      jumpi\n      tag_104\n      tag_87\n      jump\t// in\n    tag_104:\n    tag_103:\n      div\n      swap3\n      pop\n        /* \"1127/util/Math.sol\":13151:13152  4 */\n      0x04\n        /* \"1127/util/Math.sol\":13141:13152  result += 4 */\n      dup2\n      add\n      swap1\n      pop\n        /* \"1127/util/Math.sol\":13065:13168  if (value >= 10 ** 4) {... */\n    tag_102:\n        /* \"1127/util/Math.sol\":13195:13202  10 ** 2 */\n      0x64\n        /* \"1127/util/Math.sol\":13186:13191  value */\n      dup4\n        /* \"1127/util/Math.sol\":13186:13202  value >= 10 ** 2 */\n      lt\n        /* \"1127/util/Math.sol\":13182:13285  if (value >= 10 ** 2) {... */\n      tag_105\n      jumpi\n        /* \"1127/util/Math.sol\":13232:13239  10 ** 2 */\n      0x64\n        /* \"1127/util/Math.sol\":13223:13239  value /= 10 ** 2 */\n      dup4\n      dup2\n      tag_106\n      jumpi\n      tag_107\n      tag_87\n      jump\t// in\n    tag_107:\n    tag_106:\n      div\n      swap3\n      pop\n        /* \"1127/util/Math.sol\":13268:13269  2 */\n      0x02\n        /* \"1127/util/Math.sol\":13258:13269  result += 2 */\n      dup2\n      add\n      swap1\n      pop\n        /* \"1127/util/Math.sol\":13182:13285  if (value >= 10 ** 2) {... */\n    tag_105:\n        /* \"1127/util/Math.sol\":13312:13319  10 ** 1 */\n      0x0a\n        /* \"1127/util/Math.sol\":13303:13308  value */\n      dup4\n        /* \"1127/util/Math.sol\":13303:13319  value >= 10 ** 1 */\n      lt\n        /* \"1127/util/Math.sol\":13299:13367  if (value >= 10 ** 1) {... */\n      tag_108\n      jumpi\n        /* \"1127/util/Math.sol\":13350:13351  1 */\n      0x01\n        /* \"1127/util/Math.sol\":13340:13351  result += 1 */\n      dup2\n      add\n      swap1\n      pop\n        /* \"1127/util/Math.sol\":13299:13367  if (value >= 10 ** 1) {... */\n    tag_108:\n        /* \"1127/util/Math.sol\":13395:13401  result */\n      dup1\n        /* \"1127/util/Math.sol\":13388:13401  return result */\n      swap2\n      pop\n      pop\n        /* \"1127/util/Math.sol\":12461:13409  function log10(uint256 value) internal pure returns (uint256) {... */\n      swap2\n      swap1\n      pop\n      jump\t// out\n        /* \"#utility.yul\":7:82   */\n    tag_109:\n        /* \"#utility.yul\":40:46   */\n      0x00\n        /* \"#utility.yul\":73:75   */\n      0x40\n        /* \"#utility.yul\":67:76   */\n      mload\n        /* \"#utility.yul\":57:76   */\n      swap1\n      pop\n        /* \"#utility.yul\":7:82   */\n      swap1\n      jump\t// out\n        /* \"#utility.yul\":88:205   */\n    tag_110:\n        /* \"#utility.yul\":197:198   */\n      0x00\n        /* \"#utility.yul\":194:195   */\n      dup1\n        /* \"#utility.yul\":187:199   */\n      revert\n        /* \"#utility.yul\":211:328   */\n    tag_111:\n        /* \"#utility.yul\":320:321   */\n      0x00\n        /* \"#utility.yul\":317:318   */\n      dup1\n        /* \"#utility.yul\":310:322   */\n      revert\n        /* \"#utility.yul\":334:451   */\n    tag_112:\n        /* \"#utility.yul\":443:444   */\n      0x00\n        /* \"#utility.yul\":440:441   */\n      dup1\n        /* \"#utility.yul\":433:445   */\n      revert\n        /* \"#utility.yul\":457:574   */\n    tag_113:\n        /* \"#utility.yul\":566:567   */\n      0x00\n        /* \"#utility.yul\":563:564   */\n      dup1\n        /* \"#utility.yul\":556:568   */\n      revert\n        /* \"#utility.yul\":580:682   */\n    tag_114:\n        /* \"#utility.yul\":621:627   */\n      0x00\n        /* \"#utility.yul\":672:674   */\n      0x1f\n        /* \"#utility.yul\":668:675   */\n      not\n        /* \"#utility.yul\":663:665   */\n      0x1f\n        /* \"#utility.yul\":656:661   */\n      dup4\n        /* \"#utility.yul\":652:666   */\n      add\n        /* \"#utility.yul\":648:676   */\n      and\n        /* \"#utility.yul\":638:676   */\n      swap1\n      pop\n        /* \"#utility.yul\":580:682   */\n      swap2\n      swap1\n      pop\n      jump\t// out\n        /* \"#utility.yul\":688:868   */\n    tag_55:\n        /* \"#utility.yul\":736:813   */\n      0x4e487b7100000000000000000000000000000000000000000000000000000000\n        /* \"#utility.yul\":733:734   */\n      0x00\n        /* \"#utility.yul\":726:814   */\n      mstore\n        /* \"#utility.yul\":833:837   */\n      0x41\n        /* \"#utility.yul\":830:831   */\n      0x04\n        /* \"#utility.yul\":823:838   */\n      mstore\n        /* \"#utility.yul\":857:861   */\n      0x24\n        /* \"#utility.yul\":854:855   */\n      0x00\n        /* \"#utility.yul\":847:862   */\n      revert\n        /* \"#utility.yul\":874:1155   */\n    tag_115:\n        /* \"#utility.yul\":957:984   */\n      tag_142\n        /* \"#utility.yul\":979:983   */\n      dup3\n        /* \"#utility.yul\":957:984   */\n      tag_114\n      jump\t// in\n    tag_142:\n        /* \"#utility.yul\":949:955   */\n      dup2\n        /* \"#utility.yul\":945:985   */\n      add\n        /* \"#utility.yul\":1087:1093   */\n      dup2\n        /* \"#utility.yul\":1075:1085   */\n      dup2\n        /* \"#utility.yul\":1072:1094   */\n      lt\n        /* \"#utility.yul\":1051:1069   */\n      0xffffffffffffffff\n        /* \"#utility.yul\":1039:1049   */\n      dup3\n        /* \"#utility.yul\":1036:1070   */\n      gt\n        /* \"#utility.yul\":1033:1095   */\n      or\n        /* \"#utility.yul\":1030:1118   */\n      iszero\n      tag_143\n      jumpi\n        /* \"#utility.yul\":1098:1116   */\n      tag_144\n      tag_55\n      jump\t// in\n    tag_144:\n        /* \"#utility.yul\":1030:1118   */\n    tag_143:\n        /* \"#utility.yul\":1138:1148   */\n      dup1\n        /* \"#utility.yul\":1134:1136   */\n      0x40\n        /* \"#utility.yul\":1127:1149   */\n      mstore\n        /* \"#utility.yul\":917:1155   */\n      pop\n        /* \"#utility.yul\":874:1155   */\n      pop\n      pop\n      jump\t// out\n        /* \"#utility.yul\":1161:1290   */\n    tag_116:\n        /* \"#utility.yul\":1195:1201   */\n      0x00\n        /* \"#utility.yul\":1222:1242   */\n      tag_146\n      tag_109\n      jump\t// in\n    tag_146:\n        /* \"#utility.yul\":1212:1242   */\n      swap1\n      pop\n        /* \"#utility.yul\":1251:1284   */\n      tag_147\n        /* \"#utility.yul\":1279:1283   */\n      dup3\n        /* \"#utility.yul\":1271:1277   */\n      dup3\n        /* \"#utility.yul\":1251:1284   */\n      tag_115\n      jump\t// in\n    tag_147:\n        /* \"#utility.yul\":1161:1290   */\n      swap2\n      swap1\n      pop\n      jump\t// out\n        /* \"#utility.yul\":1296:1604   */\n    tag_117:\n        /* \"#utility.yul\":1358:1362   */\n      0x00\n        /* \"#utility.yul\":1448:1466   */\n      0xffffffffffffffff\n        /* \"#utility.yul\":1440:1446   */\n      dup3\n        /* \"#utility.yul\":1437:1467   */\n      gt\n        /* \"#utility.yul\":1434:1490   */\n      iszero\n      tag_149\n      jumpi\n        /* \"#utility.yul\":1470:1488   */\n      tag_150\n      tag_55\n      jump\t// in\n    tag_150:\n        /* \"#utility.yul\":1434:1490   */\n    tag_149:\n        /* \"#utility.yul\":1508:1537   */\n      tag_151\n        /* \"#utility.yul\":1530:1536   */\n      dup3\n        /* \"#utility.yul\":1508:1537   */\n      tag_114\n      jump\t// in\n    tag_151:\n        /* \"#utility.yul\":1500:1537   */\n      swap1\n      pop\n        /* \"#utility.yul\":1592:1596   */\n      0x20\n        /* \"#utility.yul\":1586:1590   */\n      dup2\n        /* \"#utility.yul\":1582:1597   */\n      add\n        /* \"#utility.yul\":1574:1597   */\n      swap1\n      pop\n        /* \"#utility.yul\":1296:1604   */\n      swap2\n      swap1\n      pop\n      jump\t// out\n        /* \"#utility.yul\":1610:1764   */\n    tag_118:\n        /* \"#utility.yul\":1694:1700   */\n      dup3\n        /* \"#utility.yul\":1689:1692   */\n      dup2\n        /* \"#utility.yul\":1684:1687   */\n      dup4\n        /* \"#utility.yul\":1671:1701   */\n      calldatacopy\n        /* \"#utility.yul\":1756:1757   */\n      0x00\n        /* \"#utility.yul\":1747:1753   */\n      dup4\n        /* \"#utility.yul\":1742:1745   */\n      dup4\n        /* \"#utility.yul\":1738:1754   */\n      add\n        /* \"#utility.yul\":1731:1758   */\n      mstore\n        /* \"#utility.yul\":1610:1764   */\n      pop\n      pop\n      pop\n      jump\t// out\n        /* \"#utility.yul\":1770:2182   */\n    tag_119:\n        /* \"#utility.yul\":1848:1853   */\n      0x00\n        /* \"#utility.yul\":1873:1939   */\n      tag_154\n        /* \"#utility.yul\":1889:1938   */\n      tag_155\n        /* \"#utility.yul\":1931:1937   */\n      dup5\n        /* \"#utility.yul\":1889:1938   */\n      tag_117\n      jump\t// in\n    tag_155:\n        /* \"#utility.yul\":1873:1939   */\n      tag_116\n      jump\t// in\n    tag_154:\n        /* \"#utility.yul\":1864:1939   */\n      swap1\n      pop\n        /* \"#utility.yul\":1962:1968   */\n      dup3\n        /* \"#utility.yul\":1955:1960   */\n      dup2\n        /* \"#utility.yul\":1948:1969   */\n      mstore\n        /* \"#utility.yul\":2000:2004   */\n      0x20\n        /* \"#utility.yul\":1993:1998   */\n      dup2\n        /* \"#utility.yul\":1989:2005   */\n      add\n        /* \"#utility.yul\":2038:2041   */\n      dup5\n        /* \"#utility.yul\":2029:2035   */\n      dup5\n        /* \"#utility.yul\":2024:2027   */\n      dup5\n        /* \"#utility.yul\":2020:2036   */\n      add\n        /* \"#utility.yul\":2017:2042   */\n      gt\n        /* \"#utility.yul\":2014:2126   */\n      iszero\n      tag_156\n      jumpi\n        /* \"#utility.yul\":2045:2124   */\n      tag_157\n      tag_113\n      jump\t// in\n    tag_157:\n        /* \"#utility.yul\":2014:2126   */\n    tag_156:\n        /* \"#utility.yul\":2135:2176   */\n      tag_158\n        /* \"#utility.yul\":2169:2175   */\n      dup5\n        /* \"#utility.yul\":2164:2167   */\n      dup3\n        /* \"#utility.yul\":2159:2162   */\n      dup6\n        /* \"#utility.yul\":2135:2176   */\n      tag_118\n      jump\t// in\n    tag_158:\n        /* \"#utility.yul\":1854:2182   */\n      pop\n        /* \"#utility.yul\":1770:2182   */\n      swap4\n      swap3\n      pop\n      pop\n      pop\n      jump\t// out\n        /* \"#utility.yul\":2202:2542   */\n    tag_120:\n        /* \"#utility.yul\":2258:2263   */\n      0x00\n        /* \"#utility.yul\":2307:2310   */\n      dup3\n        /* \"#utility.yul\":2300:2304   */\n      0x1f\n        /* \"#utility.yul\":2292:2298   */\n      dup4\n        /* \"#utility.yul\":2288:2305   */\n      add\n        /* \"#utility.yul\":2284:2311   */\n      slt\n        /* \"#utility.yul\":2274:2396   */\n      tag_160\n      jumpi\n        /* \"#utility.yul\":2315:2394   */\n      tag_161\n      tag_112\n      jump\t// in\n    tag_161:\n        /* \"#utility.yul\":2274:2396   */\n    tag_160:\n        /* \"#utility.yul\":2432:2438   */\n      dup2\n        /* \"#utility.yul\":2419:2439   */\n      calldataload\n        /* \"#utility.yul\":2457:2536   */\n      tag_162\n        /* \"#utility.yul\":2532:2535   */\n      dup5\n        /* \"#utility.yul\":2524:2530   */\n      dup3\n        /* \"#utility.yul\":2517:2521   */\n      0x20\n        /* \"#utility.yul\":2509:2515   */\n      dup7\n        /* \"#utility.yul\":2505:2522   */\n      add\n        /* \"#utility.yul\":2457:2536   */\n      tag_119\n      jump\t// in\n    tag_162:\n        /* \"#utility.yul\":2448:2536   */\n      swap2\n      pop\n        /* \"#utility.yul\":2264:2542   */\n      pop\n        /* \"#utility.yul\":2202:2542   */\n      swap3\n      swap2\n      pop\n      pop\n      jump\t// out\n        /* \"#utility.yul\":2548:3707   */\n    tag_10:\n        /* \"#utility.yul\":2655:2661   */\n      0x00\n        /* \"#utility.yul\":2663:2669   */\n      dup1\n        /* \"#utility.yul\":2671:2677   */\n      0x00\n        /* \"#utility.yul\":2720:2722   */\n      0x60\n        /* \"#utility.yul\":2708:2717   */\n      dup5\n        /* \"#utility.yul\":2699:2706   */\n      dup7\n        /* \"#utility.yul\":2695:2718   */\n      sub\n        /* \"#utility.yul\":2691:2723   */\n      slt\n        /* \"#utility.yul\":2688:2807   */\n      iszero\n      tag_164\n      jumpi\n        /* \"#utility.yul\":2726:2805   */\n      tag_165\n      tag_110\n      jump\t// in\n    tag_165:\n        /* \"#utility.yul\":2688:2807   */\n    tag_164:\n        /* \"#utility.yul\":2874:2875   */\n      0x00\n        /* \"#utility.yul\":2863:2872   */\n      dup5\n        /* \"#utility.yul\":2859:2876   */\n      add\n        /* \"#utility.yul\":2846:2877   */\n      calldataload\n        /* \"#utility.yul\":2904:2922   */\n      0xffffffffffffffff\n        /* \"#utility.yul\":2896:2902   */\n      dup2\n        /* \"#utility.yul\":2893:2923   */\n      gt\n        /* \"#utility.yul\":2890:3007   */\n      iszero\n      tag_166\n      jumpi\n        /* \"#utility.yul\":2926:3005   */\n      tag_167\n      tag_111\n      jump\t// in\n    tag_167:\n        /* \"#utility.yul\":2890:3007   */\n    tag_166:\n        /* \"#utility.yul\":3031:3094   */\n      tag_168\n        /* \"#utility.yul\":3086:3093   */\n      dup7\n        /* \"#utility.yul\":3077:3083   */\n      dup3\n        /* \"#utility.yul\":3066:3075   */\n      dup8\n        /* \"#utility.yul\":3062:3084   */\n      add\n        /* \"#utility.yul\":3031:3094   */\n      tag_120\n      jump\t// in\n    tag_168:\n        /* \"#utility.yul\":3021:3094   */\n      swap4\n      pop\n        /* \"#utility.yul\":2817:3104   */\n      pop\n        /* \"#utility.yul\":3171:3173   */\n      0x20\n        /* \"#utility.yul\":3160:3169   */\n      dup5\n        /* \"#utility.yul\":3156:3174   */\n      add\n        /* \"#utility.yul\":3143:3175   */\n      calldataload\n        /* \"#utility.yul\":3202:3220   */\n      0xffffffffffffffff\n        /* \"#utility.yul\":3194:3200   */\n      dup2\n        /* \"#utility.yul\":3191:3221   */\n      gt\n        /* \"#utility.yul\":3188:3305   */\n      iszero\n      tag_169\n      jumpi\n        /* \"#utility.yul\":3224:3303   */\n      tag_170\n      tag_111\n      jump\t// in\n    tag_170:\n        /* \"#utility.yul\":3188:3305   */\n    tag_169:\n        /* \"#utility.yul\":3329:3392   */\n      tag_171\n        /* \"#utility.yul\":3384:3391   */\n      dup7\n        /* \"#utility.yul\":3375:3381   */\n      dup3\n        /* \"#utility.yul\":3364:3373   */\n      dup8\n        /* \"#utility.yul\":3360:3382   */\n      add\n        /* \"#utility.yul\":3329:3392   */\n      tag_120\n      jump\t// in\n    tag_171:\n        /* \"#utility.yul\":3319:3392   */\n      swap3\n      pop\n        /* \"#utility.yul\":3114:3402   */\n      pop\n        /* \"#utility.yul\":3469:3471   */\n      0x40\n        /* \"#utility.yul\":3458:3467   */\n      dup5\n        /* \"#utility.yul\":3454:3472   */\n      add\n        /* \"#utility.yul\":3441:3473   */\n      calldataload\n        /* \"#utility.yul\":3500:3518   */\n      0xffffffffffffffff\n        /* \"#utility.yul\":3492:3498   */\n      dup2\n        /* \"#utility.yul\":3489:3519   */\n      gt\n        /* \"#utility.yul\":3486:3603   */\n      iszero\n      tag_172\n      jumpi\n        /* \"#utility.yul\":3522:3601   */\n      tag_173\n      tag_111\n      jump\t// in\n    tag_173:\n        /* \"#utility.yul\":3486:3603   */\n    tag_172:\n        /* \"#utility.yul\":3627:3690   */\n      tag_174\n        /* \"#utility.yul\":3682:3689   */\n      dup7\n        /* \"#utility.yul\":3673:3679   */\n      dup3\n        /* \"#utility.yul\":3662:3671   */\n      dup8\n        /* \"#utility.yul\":3658:3680   */\n      add\n        /* \"#utility.yul\":3627:3690   */\n      tag_120\n      jump\t// in\n    tag_174:\n        /* \"#utility.yul\":3617:3690   */\n      swap2\n      pop\n        /* \"#utility.yul\":3412:3700   */\n      pop\n        /* \"#utility.yul\":2548:3707   */\n      swap3\n      pop\n      swap3\n      pop\n      swap3\n      jump\t// out\n        /* \"#utility.yul\":3713:3812   */\n    tag_121:\n        /* \"#utility.yul\":3765:3771   */\n      0x00\n        /* \"#utility.yul\":3799:3804   */\n      dup2\n        /* \"#utility.yul\":3793:3805   */\n      mload\n        /* \"#utility.yul\":3783:3805   */\n      swap1\n      pop\n        /* \"#utility.yul\":3713:3812   */\n      swap2\n      swap1\n      pop\n      jump\t// out\n        /* \"#utility.yul\":3818:3987   */\n    tag_122:\n        /* \"#utility.yul\":3902:3913   */\n      0x00\n        /* \"#utility.yul\":3936:3942   */\n      dup3\n        /* \"#utility.yul\":3931:3934   */\n      dup3\n        /* \"#utility.yul\":3924:3943   */\n      mstore\n        /* \"#utility.yul\":3976:3980   */\n      0x20\n        /* \"#utility.yul\":3971:3974   */\n      dup3\n        /* \"#utility.yul\":3967:3981   */\n      add\n        /* \"#utility.yul\":3952:3981   */\n      swap1\n      pop\n        /* \"#utility.yul\":3818:3987   */\n      swap3\n      swap2\n      pop\n      pop\n      jump\t// out\n        /* \"#utility.yul\":3993:4300   */\n    tag_123:\n        /* \"#utility.yul\":4061:4062   */\n      0x00\n        /* \"#utility.yul\":4071:4184   */\n    tag_178:\n        /* \"#utility.yul\":4085:4091   */\n      dup4\n        /* \"#utility.yul\":4082:4083   */\n      dup2\n        /* \"#utility.yul\":4079:4092   */\n      lt\n        /* \"#utility.yul\":4071:4184   */\n      iszero\n      tag_180\n      jumpi\n        /* \"#utility.yul\":4170:4171   */\n      dup1\n        /* \"#utility.yul\":4165:4168   */\n      dup3\n        /* \"#utility.yul\":4161:4172   */\n      add\n        /* \"#utility.yul\":4155:4173   */\n      mload\n        /* \"#utility.yul\":4151:4152   */\n      dup2\n        /* \"#utility.yul\":4146:4149   */\n      dup5\n        /* \"#utility.yul\":4142:4153   */\n      add\n        /* \"#utility.yul\":4135:4174   */\n      mstore\n        /* \"#utility.yul\":4107:4109   */\n      0x20\n        /* \"#utility.yul\":4104:4105   */\n      dup2\n        /* \"#utility.yul\":4100:4110   */\n      add\n        /* \"#utility.yul\":4095:4110   */\n      swap1\n      pop\n        /* \"#utility.yul\":4071:4184   */\n      jump(tag_178)\n    tag_180:\n        /* \"#utility.yul\":4202:4208   */\n      dup4\n        /* \"#utility.yul\":4199:4200   */\n      dup2\n        /* \"#utility.yul\":4196:4209   */\n      gt\n        /* \"#utility.yul\":4193:4294   */\n      iszero\n      tag_181\n      jumpi\n        /* \"#utility.yul\":4282:4283   */\n      0x00\n        /* \"#utility.yul\":4273:4279   */\n      dup5\n        /* \"#utility.yul\":4268:4271   */\n      dup5\n        /* \"#utility.yul\":4264:4280   */\n      add\n        /* \"#utility.yul\":4257:4284   */\n      mstore\n        /* \"#utility.yul\":4193:4294   */\n    tag_181:\n        /* \"#utility.yul\":4042:4300   */\n      pop\n        /* \"#utility.yul\":3993:4300   */\n      pop\n      pop\n      pop\n      jump\t// out\n        /* \"#utility.yul\":4306:4670   */\n    tag_124:\n        /* \"#utility.yul\":4394:4397   */\n      0x00\n        /* \"#utility.yul\":4422:4461   */\n      tag_183\n        /* \"#utility.yul\":4455:4460   */\n      dup3\n        /* \"#utility.yul\":4422:4461   */\n      tag_121\n      jump\t// in\n    tag_183:\n        /* \"#utility.yul\":4477:4548   */\n      tag_184\n        /* \"#utility.yul\":4541:4547   */\n      dup2\n        /* \"#utility.yul\":4536:4539   */\n      dup6\n        /* \"#utility.yul\":4477:4548   */\n      tag_122\n      jump\t// in\n    tag_184:\n        /* \"#utility.yul\":4470:4548   */\n      swap4\n      pop\n        /* \"#utility.yul\":4557:4609   */\n      tag_185\n        /* \"#utility.yul\":4602:4608   */\n      dup2\n        /* \"#utility.yul\":4597:4600   */\n      dup6\n        /* \"#utility.yul\":4590:4594   */\n      0x20\n        /* \"#utility.yul\":4583:4588   */\n      dup7\n        /* \"#utility.yul\":4579:4595   */\n      add\n        /* \"#utility.yul\":4557:4609   */\n      tag_123\n      jump\t// in\n    tag_185:\n        /* \"#utility.yul\":4634:4663   */\n      tag_186\n        /* \"#utility.yul\":4656:4662   */\n      dup2\n        /* \"#utility.yul\":4634:4663   */\n      tag_114\n      jump\t// in\n    tag_186:\n        /* \"#utility.yul\":4629:4632   */\n      dup5\n        /* \"#utility.yul\":4625:4664   */\n      add\n        /* \"#utility.yul\":4618:4664   */\n      swap2\n      pop\n        /* \"#utility.yul\":4398:4670   */\n      pop\n        /* \"#utility.yul\":4306:4670   */\n      swap3\n      swap2\n      pop\n      pop\n      jump\t// out\n        /* \"#utility.yul\":4676:4989   */\n    tag_13:\n        /* \"#utility.yul\":4789:4793   */\n      0x00\n        /* \"#utility.yul\":4827:4829   */\n      0x20\n        /* \"#utility.yul\":4816:4825   */\n      dup3\n        /* \"#utility.yul\":4812:4830   */\n      add\n        /* \"#utility.yul\":4804:4830   */\n      swap1\n      pop\n        /* \"#utility.yul\":4876:4885   */\n      dup2\n        /* \"#utility.yul\":4870:4874   */\n      dup2\n        /* \"#utility.yul\":4866:4886   */\n      sub\n        /* \"#utility.yul\":4862:4863   */\n      0x00\n        /* \"#utility.yul\":4851:4860   */\n      dup4\n        /* \"#utility.yul\":4847:4864   */\n      add\n        /* \"#utility.yul\":4840:4887   */\n      mstore\n        /* \"#utility.yul\":4904:4982   */\n      tag_188\n        /* \"#utility.yul\":4977:4981   */\n      dup2\n        /* \"#utility.yul\":4968:4974   */\n      dup5\n        /* \"#utility.yul\":4904:4982   */\n      tag_124\n      jump\t// in\n    tag_188:\n        /* \"#utility.yul\":4896:4982   */\n      swap1\n      pop\n        /* \"#utility.yul\":4676:4989   */\n      swap3\n      swap2\n      pop\n      pop\n      jump\t// out\n        /* \"#utility.yul\":4995:5504   */\n    tag_16:\n        /* \"#utility.yul\":5064:5070   */\n      0x00\n        /* \"#utility.yul\":5113:5115   */\n      0x20\n        /* \"#utility.yul\":5101:5110   */\n      dup3\n        /* \"#utility.yul\":5092:5099   */\n      dup5\n        /* \"#utility.yul\":5088:5111   */\n      sub\n        /* \"#utility.yul\":5084:5116   */\n      slt\n        /* \"#utility.yul\":5081:5200   */\n      iszero\n      tag_190\n      jumpi\n        /* \"#utility.yul\":5119:5198   */\n      tag_191\n      tag_110\n      jump\t// in\n    tag_191:\n        /* \"#utility.yul\":5081:5200   */\n    tag_190:\n        /* \"#utility.yul\":5267:5268   */\n      0x00\n        /* \"#utility.yul\":5256:5265   */\n      dup3\n        /* \"#utility.yul\":5252:5269   */\n      add\n        /* \"#utility.yul\":5239:5270   */\n      calldataload\n        /* \"#utility.yul\":5297:5315   */\n      0xffffffffffffffff\n        /* \"#utility.yul\":5289:5295   */\n      dup2\n        /* \"#utility.yul\":5286:5316   */\n      gt\n        /* \"#utility.yul\":5283:5400   */\n      iszero\n      tag_192\n      jumpi\n        /* \"#utility.yul\":5319:5398   */\n      tag_193\n      tag_111\n      jump\t// in\n    tag_193:\n        /* \"#utility.yul\":5283:5400   */\n    tag_192:\n        /* \"#utility.yul\":5424:5487   */\n      tag_194\n        /* \"#utility.yul\":5479:5486   */\n      dup5\n        /* \"#utility.yul\":5470:5476   */\n      dup3\n        /* \"#utility.yul\":5459:5468   */\n      dup6\n        /* \"#utility.yul\":5455:5477   */\n      add\n        /* \"#utility.yul\":5424:5487   */\n      tag_120\n      jump\t// in\n    tag_194:\n        /* \"#utility.yul\":5414:5487   */\n      swap2\n      pop\n        /* \"#utility.yul\":5210:5497   */\n      pop\n        /* \"#utility.yul\":4995:5504   */\n      swap3\n      swap2\n      pop\n      pop\n      jump\t// out\n        /* \"#utility.yul\":5510:5587   */\n    tag_125:\n        /* \"#utility.yul\":5547:5554   */\n      0x00\n        /* \"#utility.yul\":5576:5581   */\n      dup2\n        /* \"#utility.yul\":5565:5581   */\n      swap1\n      pop\n        /* \"#utility.yul\":5510:5587   */\n      swap2\n      swap1\n      pop\n      jump\t// out\n        /* \"#utility.yul\":5593:5711   */\n    tag_126:\n        /* \"#utility.yul\":5680:5704   */\n      tag_197\n        /* \"#utility.yul\":5698:5703   */\n      dup2\n        /* \"#utility.yul\":5680:5704   */\n      tag_125\n      jump\t// in\n    tag_197:\n        /* \"#utility.yul\":5675:5678   */\n      dup3\n        /* \"#utility.yul\":5668:5705   */\n      mstore\n        /* \"#utility.yul\":5593:5711   */\n      pop\n      pop\n      jump\t// out\n        /* \"#utility.yul\":5717:5939   */\n    tag_19:\n        /* \"#utility.yul\":5810:5814   */\n      0x00\n        /* \"#utility.yul\":5848:5850   */\n      0x20\n        /* \"#utility.yul\":5837:5846   */\n      dup3\n        /* \"#utility.yul\":5833:5851   */\n      add\n        /* \"#utility.yul\":5825:5851   */\n      swap1\n      pop\n        /* \"#utility.yul\":5861:5932   */\n      tag_199\n        /* \"#utility.yul\":5929:5930   */\n      0x00\n        /* \"#utility.yul\":5918:5927   */\n      dup4\n        /* \"#utility.yul\":5914:5931   */\n      add\n        /* \"#utility.yul\":5905:5911   */\n      dup5\n        /* \"#utility.yul\":5861:5932   */\n      tag_126\n      jump\t// in\n    tag_199:\n        /* \"#utility.yul\":5717:5939   */\n      swap3\n      swap2\n      pop\n      pop\n      jump\t// out\n        /* \"#utility.yul\":5945:6022   */\n    tag_127:\n        /* \"#utility.yul\":5982:5989   */\n      0x00\n        /* \"#utility.yul\":6011:6016   */\n      dup2\n        /* \"#utility.yul\":6000:6016   */\n      swap1\n      pop\n        /* \"#utility.yul\":5945:6022   */\n      swap2\n      swap1\n      pop\n      jump\t// out\n        /* \"#utility.yul\":6028:6150   */\n    tag_128:\n        /* \"#utility.yul\":6101:6125   */\n      tag_202\n        /* \"#utility.yul\":6119:6124   */\n      dup2\n        /* \"#utility.yul\":6101:6125   */\n      tag_127\n      jump\t// in\n    tag_202:\n        /* \"#utility.yul\":6094:6099   */\n      dup2\n        /* \"#utility.yul\":6091:6126   */\n      eq\n        /* \"#utility.yul\":6081:6144   */\n      tag_203\n      jumpi\n        /* \"#utility.yul\":6140:6141   */\n      0x00\n        /* \"#utility.yul\":6137:6138   */\n      dup1\n        /* \"#utility.yul\":6130:6142   */\n      revert\n        /* \"#utility.yul\":6081:6144   */\n    tag_203:\n        /* \"#utility.yul\":6028:6150   */\n      pop\n      jump\t// out\n        /* \"#utility.yul\":6156:6295   */\n    tag_129:\n        /* \"#utility.yul\":6202:6207   */\n      0x00\n        /* \"#utility.yul\":6240:6246   */\n      dup2\n        /* \"#utility.yul\":6227:6247   */\n      calldataload\n        /* \"#utility.yul\":6218:6247   */\n      swap1\n      pop\n        /* \"#utility.yul\":6256:6289   */\n      tag_205\n        /* \"#utility.yul\":6283:6288   */\n      dup2\n        /* \"#utility.yul\":6256:6289   */\n      tag_128\n      jump\t// in\n    tag_205:\n        /* \"#utility.yul\":6156:6295   */\n      swap3\n      swap2\n      pop\n      pop\n      jump\t// out\n        /* \"#utility.yul\":6301:6955   */\n    tag_22:\n        /* \"#utility.yul\":6379:6385   */\n      0x00\n        /* \"#utility.yul\":6387:6393   */\n      dup1\n        /* \"#utility.yul\":6436:6438   */\n      0x40\n        /* \"#utility.yul\":6424:6433   */\n      dup4\n        /* \"#utility.yul\":6415:6422   */\n      dup6\n        /* \"#utility.yul\":6411:6434   */\n      sub\n        /* \"#utility.yul\":6407:6439   */\n      slt\n        /* \"#utility.yul\":6404:6523   */\n      iszero\n      tag_207\n      jumpi\n        /* \"#utility.yul\":6442:6521   */\n      tag_208\n      tag_110\n      jump\t// in\n    tag_208:\n        /* \"#utility.yul\":6404:6523   */\n    tag_207:\n        /* \"#utility.yul\":6590:6591   */\n      0x00\n        /* \"#utility.yul\":6579:6588   */\n      dup4\n        /* \"#utility.yul\":6575:6592   */\n      add\n        /* \"#utility.yul\":6562:6593   */\n      calldataload\n        /* \"#utility.yul\":6620:6638   */\n      0xffffffffffffffff\n        /* \"#utility.yul\":6612:6618   */\n      dup2\n        /* \"#utility.yul\":6609:6639   */\n      gt\n        /* \"#utility.yul\":6606:6723   */\n      iszero\n      tag_209\n      jumpi\n        /* \"#utility.yul\":6642:6721   */\n      tag_210\n      tag_111\n      jump\t// in\n    tag_210:\n        /* \"#utility.yul\":6606:6723   */\n    tag_209:\n        /* \"#utility.yul\":6747:6810   */\n      tag_211\n        /* \"#utility.yul\":6802:6809   */\n      dup6\n        /* \"#utility.yul\":6793:6799   */\n      dup3\n        /* \"#utility.yul\":6782:6791   */\n      dup7\n        /* \"#utility.yul\":6778:6800   */\n      add\n        /* \"#utility.yul\":6747:6810   */\n      tag_120\n      jump\t// in\n    tag_211:\n        /* \"#utility.yul\":6737:6810   */\n      swap3\n      pop\n        /* \"#utility.yul\":6533:6820   */\n      pop\n        /* \"#utility.yul\":6859:6861   */\n      0x20\n        /* \"#utility.yul\":6885:6938   */\n      tag_212\n        /* \"#utility.yul\":6930:6937   */\n      dup6\n        /* \"#utility.yul\":6921:6927   */\n      dup3\n        /* \"#utility.yul\":6910:6919   */\n      dup7\n        /* \"#utility.yul\":6906:6928   */\n      add\n        /* \"#utility.yul\":6885:6938   */\n      tag_129\n      jump\t// in\n    tag_212:\n        /* \"#utility.yul\":6875:6938   */\n      swap2\n      pop\n        /* \"#utility.yul\":6830:6948   */\n      pop\n        /* \"#utility.yul\":6301:6955   */\n      swap3\n      pop\n      swap3\n      swap1\n      pop\n      jump\t// out\n        /* \"#utility.yul\":6961:7795   */\n    tag_31:\n        /* \"#utility.yul\":7049:7055   */\n      0x00\n        /* \"#utility.yul\":7057:7063   */\n      dup1\n        /* \"#utility.yul\":7106:7108   */\n      0x40\n        /* \"#utility.yul\":7094:7103   */\n      dup4\n        /* \"#utility.yul\":7085:7092   */\n      dup6\n        /* \"#utility.yul\":7081:7104   */\n      sub\n        /* \"#utility.yul\":7077:7109   */\n      slt\n        /* \"#utility.yul\":7074:7193   */\n      iszero\n      tag_214\n      jumpi\n        /* \"#utility.yul\":7112:7191   */\n      tag_215\n      tag_110\n      jump\t// in\n    tag_215:\n        /* \"#utility.yul\":7074:7193   */\n    tag_214:\n        /* \"#utility.yul\":7260:7261   */\n      0x00\n        /* \"#utility.yul\":7249:7258   */\n      dup4\n        /* \"#utility.yul\":7245:7262   */\n      add\n        /* \"#utility.yul\":7232:7263   */\n      calldataload\n        /* \"#utility.yul\":7290:7308   */\n      0xffffffffffffffff\n        /* \"#utility.yul\":7282:7288   */\n      dup2\n        /* \"#utility.yul\":7279:7309   */\n      gt\n        /* \"#utility.yul\":7276:7393   */\n      iszero\n      tag_216\n      jumpi\n        /* \"#utility.yul\":7312:7391   */\n      tag_217\n      tag_111\n      jump\t// in\n    tag_217:\n        /* \"#utility.yul\":7276:7393   */\n    tag_216:\n        /* \"#utility.yul\":7417:7480   */\n      tag_218\n        /* \"#utility.yul\":7472:7479   */\n      dup6\n        /* \"#utility.yul\":7463:7469   */\n      dup3\n        /* \"#utility.yul\":7452:7461   */\n      dup7\n        /* \"#utility.yul\":7448:7470   */\n      add\n        /* \"#utility.yul\":7417:7480   */\n      tag_120\n      jump\t// in\n    tag_218:\n        /* \"#utility.yul\":7407:7480   */\n      swap3\n      pop\n        /* \"#utility.yul\":7203:7490   */\n      pop\n        /* \"#utility.yul\":7557:7559   */\n      0x20\n        /* \"#utility.yul\":7546:7555   */\n      dup4\n        /* \"#utility.yul\":7542:7560   */\n      add\n        /* \"#utility.yul\":7529:7561   */\n      calldataload\n        /* \"#utility.yul\":7588:7606   */\n      0xffffffffffffffff\n        /* \"#utility.yul\":7580:7586   */\n      dup2\n        /* \"#utility.yul\":7577:7607   */\n      gt\n        /* \"#utility.yul\":7574:7691   */\n      iszero\n      tag_219\n      jumpi\n        /* \"#utility.yul\":7610:7689   */\n      tag_220\n      tag_111\n      jump\t// in\n    tag_220:\n        /* \"#utility.yul\":7574:7691   */\n    tag_219:\n        /* \"#utility.yul\":7715:7778   */\n      tag_221\n        /* \"#utility.yul\":7770:7777   */\n      dup6\n        /* \"#utility.yul\":7761:7767   */\n      dup3\n        /* \"#utility.yul\":7750:7759   */\n      dup7\n        /* \"#utility.yul\":7746:7768   */\n      add\n        /* \"#utility.yul\":7715:7778   */\n      tag_120\n      jump\t// in\n    tag_221:\n        /* \"#utility.yul\":7705:7778   */\n      swap2\n      pop\n        /* \"#utility.yul\":7500:7788   */\n      pop\n        /* \"#utility.yul\":6961:7795   */\n      swap3\n      pop\n      swap3\n      swap1\n      pop\n      jump\t// out\n        /* \"#utility.yul\":7801:7949   */\n    tag_130:\n        /* \"#utility.yul\":7903:7914   */\n      0x00\n        /* \"#utility.yul\":7940:7943   */\n      dup2\n        /* \"#utility.yul\":7925:7943   */\n      swap1\n      pop\n        /* \"#utility.yul\":7801:7949   */\n      swap3\n      swap2\n      pop\n      pop\n      jump\t// out\n        /* \"#utility.yul\":7955:8332   */\n    tag_131:\n        /* \"#utility.yul\":8061:8064   */\n      0x00\n        /* \"#utility.yul\":8089:8128   */\n      tag_224\n        /* \"#utility.yul\":8122:8127   */\n      dup3\n        /* \"#utility.yul\":8089:8128   */\n      tag_121\n      jump\t// in\n    tag_224:\n        /* \"#utility.yul\":8144:8233   */\n      tag_225\n        /* \"#utility.yul\":8226:8232   */\n      dup2\n        /* \"#utility.yul\":8221:8224   */\n      dup6\n        /* \"#utility.yul\":8144:8233   */\n      tag_130\n      jump\t// in\n    tag_225:\n        /* \"#utility.yul\":8137:8233   */\n      swap4\n      pop\n        /* \"#utility.yul\":8242:8294   */\n      tag_226\n        /* \"#utility.yul\":8287:8293   */\n      dup2\n        /* \"#utility.yul\":8282:8285   */\n      dup6\n        /* \"#utility.yul\":8275:8279   */\n      0x20\n        /* \"#utility.yul\":8268:8273   */\n      dup7\n        /* \"#utility.yul\":8264:8280   */\n      add\n        /* \"#utility.yul\":8242:8294   */\n      tag_123\n      jump\t// in\n    tag_226:\n        /* \"#utility.yul\":8319:8325   */\n      dup1\n        /* \"#utility.yul\":8314:8317   */\n      dup5\n        /* \"#utility.yul\":8310:8326   */\n      add\n        /* \"#utility.yul\":8303:8326   */\n      swap2\n      pop\n        /* \"#utility.yul\":8065:8332   */\n      pop\n        /* \"#utility.yul\":7955:8332   */\n      swap3\n      swap2\n      pop\n      pop\n      jump\t// out\n        /* \"#utility.yul\":8338:8613   */\n    tag_49:\n        /* \"#utility.yul\":8470:8473   */\n      0x00\n        /* \"#utility.yul\":8492:8587   */\n      tag_228\n        /* \"#utility.yul\":8583:8586   */\n      dup3\n        /* \"#utility.yul\":8574:8580   */\n      dup5\n        /* \"#utility.yul\":8492:8587   */\n      tag_131\n      jump\t// in\n    tag_228:\n        /* \"#utility.yul\":8485:8587   */\n      swap2\n      pop\n        /* \"#utility.yul\":8604:8607   */\n      dup2\n        /* \"#utility.yul\":8597:8607   */\n      swap1\n      pop\n        /* \"#utility.yul\":8338:8613   */\n      swap3\n      swap2\n      pop\n      pop\n      jump\t// out\n        /* \"#utility.yul\":8619:8799   */\n    tag_132:\n        /* \"#utility.yul\":8667:8744   */\n      0x4e487b7100000000000000000000000000000000000000000000000000000000\n        /* \"#utility.yul\":8664:8665   */\n      0x00\n        /* \"#utility.yul\":8657:8745   */\n      mstore\n        /* \"#utility.yul\":8764:8768   */\n      0x11\n        /* \"#utility.yul\":8761:8762   */\n      0x04\n        /* \"#utility.yul\":8754:8769   */\n      mstore\n        /* \"#utility.yul\":8788:8792   */\n      0x24\n        /* \"#utility.yul\":8785:8786   */\n      0x00\n        /* \"#utility.yul\":8778:8793   */\n      revert\n        /* \"#utility.yul\":8805:9110   */\n    tag_52:\n        /* \"#utility.yul\":8845:8848   */\n      0x00\n        /* \"#utility.yul\":8864:8884   */\n      tag_231\n        /* \"#utility.yul\":8882:8883   */\n      dup3\n        /* \"#utility.yul\":8864:8884   */\n      tag_127\n      jump\t// in\n    tag_231:\n        /* \"#utility.yul\":8859:8884   */\n      swap2\n      pop\n        /* \"#utility.yul\":8898:8918   */\n      tag_232\n        /* \"#utility.yul\":8916:8917   */\n      dup4\n        /* \"#utility.yul\":8898:8918   */\n      tag_127\n      jump\t// in\n    tag_232:\n        /* \"#utility.yul\":8893:8918   */\n      swap3\n      pop\n        /* \"#utility.yul\":9052:9053   */\n      dup3\n        /* \"#utility.yul\":8984:9050   */\n      0xffffffffffffffffffffffffffffffffffffffffffffffffffffffffffffffff\n        /* \"#utility.yul\":8980:9054   */\n      sub\n        /* \"#utility.yul\":8977:8978   */\n      dup3\n        /* \"#utility.yul\":8974:9055   */\n      gt\n        /* \"#utility.yul\":8971:9078   */\n      iszero\n      tag_233\n      jumpi\n        /* \"#utility.yul\":9058:9076   */\n      tag_234\n      tag_132\n      jump\t// in\n    tag_234:\n        /* \"#utility.yul\":8971:9078   */\n    tag_233:\n        /* \"#utility.yul\":9102:9103   */\n      dup3\n        /* \"#utility.yul\":9099:9100   */\n      dup3\n        /* \"#utility.yul\":9095:9104   */\n      add\n        /* \"#utility.yul\":9088:9104   */\n      swap1\n      pop\n        /* \"#utility.yul\":8805:9110   */\n      swap3\n      swap2\n      pop\n      pop\n      jump\t// out\n        /* \"#utility.yul\":9116:9296   */\n    tag_62:\n        /* \"#utility.yul\":9164:9241   */\n      0x4e487b7100000000000000000000000000000000000000000000000000000000\n        /* \"#utility.yul\":9161:9162   */\n      0x00\n        /* \"#utility.yul\":9154:9242   */\n      mstore\n        /* \"#utility.yul\":9261:9265   */\n      0x32\n        /* \"#utility.yul\":9258:9259   */\n      0x04\n        /* \"#utility.yul\":9251:9266   */\n      mstore\n        /* \"#utility.yul\":9285:9289   */\n      0x24\n        /* \"#utility.yul\":9282:9283   */\n      0x00\n        /* \"#utility.yul\":9275:9290   */\n      revert\n        /* \"#utility.yul\":9302:9535   */\n    tag_64:\n        /* \"#utility.yul\":9341:9344   */\n      0x00\n        /* \"#utility.yul\":9364:9388   */\n      tag_237\n        /* \"#utility.yul\":9382:9387   */\n      dup3\n        /* \"#utility.yul\":9364:9388   */\n      tag_127\n      jump\t// in\n    tag_237:\n        /* \"#utility.yul\":9355:9388   */\n      swap2\n      pop\n        /* \"#utility.yul\":9410:9476   */\n      0xffffffffffffffffffffffffffffffffffffffffffffffffffffffffffffffff\n        /* \"#utility.yul\":9403:9408   */\n      dup3\n        /* \"#utility.yul\":9400:9477   */\n      eq\n        /* \"#utility.yul\":9397:9500   */\n      iszero\n      tag_238\n      jumpi\n        /* \"#utility.yul\":9480:9498   */\n      tag_239\n      tag_132\n      jump\t// in\n    tag_239:\n        /* \"#utility.yul\":9397:9500   */\n    tag_238:\n        /* \"#utility.yul\":9527:9528   */\n      0x01\n        /* \"#utility.yul\":9520:9525   */\n      dup3\n        /* \"#utility.yul\":9516:9529   */\n      add\n        /* \"#utility.yul\":9509:9529   */\n      swap1\n      pop\n        /* \"#utility.yul\":9302:9535   */\n      swap2\n      swap1\n      pop\n      jump\t// out\n        /* \"#utility.yul\":9541:9721   */\n    tag_87:\n        /* \"#utility.yul\":9589:9666   */\n      0x4e487b7100000000000000000000000000000000000000000000000000000000\n        /* \"#utility.yul\":9586:9587   */\n      0x00\n        /* \"#utility.yul\":9579:9667   */\n      mstore\n        /* \"#utility.yul\":9686:9690   */\n      0x12\n        /* \"#utility.yul\":9683:9684   */\n      0x04\n        /* \"#utility.yul\":9676:9691   */\n      mstore\n        /* \"#utility.yul\":9710:9714   */\n      0x24\n        /* \"#utility.yul\":9707:9708   */\n      0x00\n        /* \"#utility.yul\":9700:9715   */\n      revert\n\n    auxdata: 0xa264697066735822122000ba1c0c45364f92a5e4240fdfc1caca6a067417e14b11044a4bd1f879e1321064736f6c634300080b0033\n}\n",
				"bytecode": {
					"linkReferences": {},
					"object": "608060405234801561001057600080fd5b50610c68806100206000396000f3fe608060405234801561001057600080fd5b50600436106100575760003560e01c8063609f70701461005c57806360e015941461008c578063a1f7ed1a146100bc578063cfb51928146100ec578063ff74927b1461011c575b600080fd5b610076600480360381019061007191906107db565b61014c565b604051610083919061090a565b60405180910390f35b6100a660048036038101906100a1919061092c565b610224565b6040516100b3919061098e565b60405180910390f35b6100d660048036038101906100d191906109df565b610236565b6040516100e3919061090a565b60405180910390f35b6101066004803603810190610101919061092c565b610290565b604051610113919061098e565b60405180910390f35b61013660048036038101906101319190610a3b565b6102c0565b604051610143919061090a565b60405180910390f35b606061021b6101d76101936040518060400160405280600a81526020017f436f6e74726163743a2000000000000000000000000000000000000000000000815250876102c0565b6101d26040518060400160405280600b81526020017f2c46756e6374696f6e3a20000000000000000000000000000000000000000000815250876102c0565b6102c0565b6102166040518060400160405280600a81526020017f2c4d6573736167653a2000000000000000000000000000000000000000000000815250856102c0565b6102c0565b90509392505050565b600061022f82610290565b9050919050565b606061028861027a846040518060400160405280600181526020017f3a000000000000000000000000000000000000000000000000000000000000008152506102c0565b61028384610456565b6102c0565b905092915050565b6000816040516020016102a39190610aef565b604051602081830303815290604052805190602001209050919050565b6060600083905060008390506000815183516102dc9190610b35565b67ffffffffffffffff8111156102f5576102f46106b0565b5b6040519080825280601f01601f1916602001820160405280156103275781602001600182028036833780820191505090505b50905060008190506000805b85518110156103bb5785818151811061034f5761034e610b8b565b5b602001015160f81c60f81b83838061036690610bba565b94508151811061037957610378610b8b565b5b60200101907effffffffffffffffffffffffffffffffffffffffffffffffffffffffffffff1916908160001a90535080806103b390610bba565b915050610333565b5060005b8451811015610447578481815181106103db576103da610b8b565b5b602001015160f81c60f81b8383806103f290610bba565b94508151811061040557610404610b8b565b5b60200101907effffffffffffffffffffffffffffffffffffffffffffffffffffffffffffff1916908160001a905350808061043f90610bba565b9150506103bf565b50829550505050505092915050565b6060600060016104658461052e565b01905060008167ffffffffffffffff811115610484576104836106b0565b5b6040519080825280601f01601f1916602001820160405280156104b65781602001600182028036833780820191505090505b509050600082602001820190505b600115610523578080600190039150507f3031323334353637383961626364656600000000000000000000000000000000600a86061a8153600a858161050d5761050c610c03565b5b049450600085141561051e57610523565b6104c4565b819350505050919050565b600080600090507a184f03e93ff9f4daa797ed6e38ed64bf6a1f010000000000000000831061058c577a184f03e93ff9f4daa797ed6e38ed64bf6a1f010000000000000000838161058257610581610c03565b5b0492506040810190505b6d04ee2d6d415b85acef810000000083106105c9576d04ee2d6d415b85acef810000000083816105bf576105be610c03565b5b0492506020810190505b662386f26fc1000083106105f857662386f26fc1000083816105ee576105ed610c03565b5b0492506010810190505b6305f5e1008310610621576305f5e100838161061757610616610c03565b5b0492506008810190505b612710831061064657612710838161063c5761063b610c03565b5b0492506004810190505b60648310610669576064838161065f5761065e610c03565b5b0492506002810190505b600a8310610678576001810190505b80915050919050565b6000604051905090565b600080fd5b600080fd5b600080fd5b600080fd5b6000601f19601f8301169050919050565b7f4e487b7100000000000000000000000000000000000000000000000000000000600052604160045260246000fd5b6106e88261069f565b810181811067ffffffffffffffff82111715610707576107066106b0565b5b80604052505050565b600061071a610681565b905061072682826106df565b919050565b600067ffffffffffffffff821115610746576107456106b0565b5b61074f8261069f565b9050602081019050919050565b82818337600083830152505050565b600061077e6107798461072b565b610710565b90508281526020810184848401111561079a5761079961069a565b5b6107a584828561075c565b509392505050565b600082601f8301126107c2576107c1610695565b5b81356107d284826020860161076b565b91505092915050565b6000806000606084860312156107f4576107f361068b565b5b600084013567ffffffffffffffff81111561081257610811610690565b5b61081e868287016107ad565b935050602084013567ffffffffffffffff81111561083f5761083e610690565b5b61084b868287016107ad565b925050604084013567ffffffffffffffff81111561086c5761086b610690565b5b610878868287016107ad565b9150509250925092565b600081519050919050565b600082825260208201905092915050565b60005b838110156108bc5780820151818401526020810190506108a1565b838111156108cb576000848401525b50505050565b60006108dc82610882565b6108e6818561088d565b93506108f681856020860161089e565b6108ff8161069f565b840191505092915050565b6000602082019050818103600083015261092481846108d1565b905092915050565b6000602082840312156109425761094161068b565b5b600082013567ffffffffffffffff8111156109605761095f610690565b5b61096c848285016107ad565b91505092915050565b6000819050919050565b61098881610975565b82525050565b60006020820190506109a3600083018461097f565b92915050565b6000819050919050565b6109bc816109a9565b81146109c757600080fd5b50565b6000813590506109d9816109b3565b92915050565b600080604083850312156109f6576109f561068b565b5b600083013567ffffffffffffffff811115610a1457610a13610690565b5b610a20858286016107ad565b9250506020610a31858286016109ca565b9150509250929050565b60008060408385031215610a5257610a5161068b565b5b600083013567ffffffffffffffff811115610a7057610a6f610690565b5b610a7c858286016107ad565b925050602083013567ffffffffffffffff811115610a9d57610a9c610690565b5b610aa9858286016107ad565b9150509250929050565b600081905092915050565b6000610ac982610882565b610ad38185610ab3565b9350610ae381856020860161089e565b80840191505092915050565b6000610afb8284610abe565b915081905092915050565b7f4e487b7100000000000000000000000000000000000000000000000000000000600052601160045260246000fd5b6000610b40826109a9565b9150610b4b836109a9565b9250827fffffffffffffffffffffffffffffffffffffffffffffffffffffffffffffffff03821115610b8057610b7f610b06565b5b828201905092915050565b7f4e487b7100000000000000000000000000000000000000000000000000000000600052603260045260246000fd5b6000610bc5826109a9565b91507fffffffffffffffffffffffffffffffffffffffffffffffffffffffffffffffff821415610bf857610bf7610b06565b5b600182019050919050565b7f4e487b7100000000000000000000000000000000000000000000000000000000600052601260045260246000fdfea264697066735822122000ba1c0c45364f92a5e4240fdfc1caca6a067417e14b11044a4bd1f879e1321064736f6c634300080b0033",
					"opcodes": "PUSH1 0x80 PUSH1 0x40 MSTORE CALLVALUE DUP1 ISZERO PUSH2 0x10 JUMPI PUSH1 0x0 DUP1 REVERT JUMPDEST POP PUSH2 0xC68 DUP1 PUSH2 0x20 PUSH1 0x0 CODECOPY PUSH1 0x0 RETURN INVALID PUSH1 0x80 PUSH1 0x40 MSTORE CALLVALUE DUP1 ISZERO PUSH2 0x10 JUMPI PUSH1 0x0 DUP1 REVERT JUMPDEST POP PUSH1 0x4 CALLDATASIZE LT PUSH2 0x57 JUMPI PUSH1 0x0 CALLDATALOAD PUSH1 0xE0 SHR DUP1 PUSH4 0x609F7070 EQ PUSH2 0x5C JUMPI DUP1 PUSH4 0x60E01594 EQ PUSH2 0x8C JUMPI DUP1 PUSH4 0xA1F7ED1A EQ PUSH2 0xBC JUMPI DUP1 PUSH4 0xCFB51928 EQ PUSH2 0xEC JUMPI DUP1 PUSH4 0xFF74927B EQ PUSH2 0x11C JUMPI JUMPDEST PUSH1 0x0 DUP1 REVERT JUMPDEST PUSH2 0x76 PUSH1 0x4 DUP1 CALLDATASIZE SUB DUP2 ADD SWAP1 PUSH2 0x71 SWAP2 SWAP1 PUSH2 0x7DB JUMP JUMPDEST PUSH2 0x14C JUMP JUMPDEST PUSH1 0x40 MLOAD PUSH2 0x83 SWAP2 SWAP1 PUSH2 0x90A JUMP JUMPDEST PUSH1 0x40 MLOAD DUP1 SWAP2 SUB SWAP1 RETURN JUMPDEST PUSH2 0xA6 PUSH1 0x4 DUP1 CALLDATASIZE SUB DUP2 ADD SWAP1 PUSH2 0xA1 SWAP2 SWAP1 PUSH2 0x92C JUMP JUMPDEST PUSH2 0x224 JUMP JUMPDEST PUSH1 0x40 MLOAD PUSH2 0xB3 SWAP2 SWAP1 PUSH2 0x98E JUMP JUMPDEST PUSH1 0x40 MLOAD DUP1 SWAP2 SUB SWAP1 RETURN JUMPDEST PUSH2 0xD6 PUSH1 0x4 DUP1 CALLDATASIZE SUB DUP2 ADD SWAP1 PUSH2 0xD1 SWAP2 SWAP1 PUSH2 0x9DF JUMP JUMPDEST PUSH2 0x236 JUMP JUMPDEST PUSH1 0x40 MLOAD PUSH2 0xE3 SWAP2 SWAP1 PUSH2 0x90A JUMP JUMPDEST PUSH1 0x40 MLOAD DUP1 SWAP2 SUB SWAP1 RETURN JUMPDEST PUSH2 0x106 PUSH1 0x4 DUP1 CALLDATASIZE SUB DUP2 ADD SWAP1 PUSH2 0x101 SWAP2 SWAP1 PUSH2 0x92C JUMP JUMPDEST PUSH2 0x290 JUMP JUMPDEST PUSH1 0x40 MLOAD PUSH2 0x113 SWAP2 SWAP1 PUSH2 0x98E JUMP JUMPDEST PUSH1 0x40 MLOAD DUP1 SWAP2 SUB SWAP1 RETURN JUMPDEST PUSH2 0x136 PUSH1 0x4 DUP1 CALLDATASIZE SUB DUP2 ADD SWAP1 PUSH2 0x131 SWAP2 SWAP1 PUSH2 0xA3B JUMP JUMPDEST PUSH2 0x2C0 JUMP JUMPDEST PUSH1 0x40 MLOAD PUSH2 0x143 SWAP2 SWAP1 PUSH2 0x90A JUMP JUMPDEST PUSH1 0x40 MLOAD DUP1 SWAP2 SUB SWAP1 RETURN JUMPDEST PUSH1 0x60 PUSH2 0x21B PUSH2 0x1D7 PUSH2 0x193 PUSH1 0x40 MLOAD DUP1 PUSH1 0x40 ADD PUSH1 0x40 MSTORE DUP1 PUSH1 0xA DUP2 MSTORE PUSH1 0x20 ADD PUSH32 0x436F6E74726163743A2000000000000000000000000000000000000000000000 DUP2 MSTORE POP DUP8 PUSH2 0x2C0 JUMP JUMPDEST PUSH2 0x1D2 PUSH1 0x40 MLOAD DUP1 PUSH1 0x40 ADD PUSH1 0x40 MSTORE DUP1 PUSH1 0xB DUP2 MSTORE PUSH1 0x20 ADD PUSH32 0x2C46756E6374696F6E3A20000000000000000000000000000000000000000000 DUP2 MSTORE POP DUP8 PUSH2 0x2C0 JUMP JUMPDEST PUSH2 0x2C0 JUMP JUMPDEST PUSH2 0x216 PUSH1 0x40 MLOAD DUP1 PUSH1 0x40 ADD PUSH1 0x40 MSTORE DUP1 PUSH1 0xA DUP2 MSTORE PUSH1 0x20 ADD PUSH32 0x2C4D6573736167653A2000000000000000000000000000000000000000000000 DUP2 MSTORE POP DUP6 PUSH2 0x2C0 JUMP JUMPDEST PUSH2 0x2C0 JUMP JUMPDEST SWAP1 POP SWAP4 SWAP3 POP POP POP JUMP JUMPDEST PUSH1 0x0 PUSH2 0x22F DUP3 PUSH2 0x290 JUMP JUMPDEST SWAP1 POP SWAP2 SWAP1 POP JUMP JUMPDEST PUSH1 0x60 PUSH2 0x288 PUSH2 0x27A DUP5 PUSH1 0x40 MLOAD DUP1 PUSH1 0x40 ADD PUSH1 0x40 MSTORE DUP1 PUSH1 0x1 DUP2 MSTORE PUSH1 0x20 ADD PUSH32 0x3A00000000000000000000000000000000000000000000000000000000000000 DUP2 MSTORE POP PUSH2 0x2C0 JUMP JUMPDEST PUSH2 0x283 DUP5 PUSH2 0x456 JUMP JUMPDEST PUSH2 0x2C0 JUMP JUMPDEST SWAP1 POP SWAP3 SWAP2 POP POP JUMP JUMPDEST PUSH1 0x0 DUP2 PUSH1 0x40 MLOAD PUSH1 0x20 ADD PUSH2 0x2A3 SWAP2 SWAP1 PUSH2 0xAEF JUMP JUMPDEST PUSH1 0x40 MLOAD PUSH1 0x20 DUP2 DUP4 SUB SUB DUP2 MSTORE SWAP1 PUSH1 0x40 MSTORE DUP1 MLOAD SWAP1 PUSH1 0x20 ADD KECCAK256 SWAP1 POP SWAP2 SWAP1 POP JUMP JUMPDEST PUSH1 0x60 PUSH1 0x0 DUP4 SWAP1 POP PUSH1 0x0 DUP4 SWAP1 POP PUSH1 0x0 DUP2 MLOAD DUP4 MLOAD PUSH2 0x2DC SWAP2 SWAP1 PUSH2 0xB35 JUMP JUMPDEST PUSH8 0xFFFFFFFFFFFFFFFF DUP2 GT ISZERO PUSH2 0x2F5 JUMPI PUSH2 0x2F4 PUSH2 0x6B0 JUMP JUMPDEST JUMPDEST PUSH1 0x40 MLOAD SWAP1 DUP1 DUP3 MSTORE DUP1 PUSH1 0x1F ADD PUSH1 0x1F NOT AND PUSH1 0x20 ADD DUP3 ADD PUSH1 0x40 MSTORE DUP1 ISZERO PUSH2 0x327 JUMPI DUP2 PUSH1 0x20 ADD PUSH1 0x1 DUP3 MUL DUP1 CALLDATASIZE DUP4 CALLDATACOPY DUP1 DUP3 ADD SWAP2 POP POP SWAP1 POP JUMPDEST POP SWAP1 POP PUSH1 0x0 DUP2 SWAP1 POP PUSH1 0x0 DUP1 JUMPDEST DUP6 MLOAD DUP2 LT ISZERO PUSH2 0x3BB JUMPI DUP6 DUP2 DUP2 MLOAD DUP2 LT PUSH2 0x34F JUMPI PUSH2 0x34E PUSH2 0xB8B JUMP JUMPDEST JUMPDEST PUSH1 0x20 ADD ADD MLOAD PUSH1 0xF8 SHR PUSH1 0xF8 SHL DUP4 DUP4 DUP1 PUSH2 0x366 SWAP1 PUSH2 0xBBA JUMP JUMPDEST SWAP5 POP DUP2 MLOAD DUP2 LT PUSH2 0x379 JUMPI PUSH2 0x378 PUSH2 0xB8B JUMP JUMPDEST JUMPDEST PUSH1 0x20 ADD ADD SWAP1 PUSH31 0xFFFFFFFFFFFFFFFFFFFFFFFFFFFFFFFFFFFFFFFFFFFFFFFFFFFFFFFFFFFFFF NOT AND SWAP1 DUP2 PUSH1 0x0 BYTE SWAP1 MSTORE8 POP DUP1 DUP1 PUSH2 0x3B3 SWAP1 PUSH2 0xBBA JUMP JUMPDEST SWAP2 POP POP PUSH2 0x333 JUMP JUMPDEST POP PUSH1 0x0 JUMPDEST DUP5 MLOAD DUP2 LT ISZERO PUSH2 0x447 JUMPI DUP5 DUP2 DUP2 MLOAD DUP2 LT PUSH2 0x3DB JUMPI PUSH2 0x3DA PUSH2 0xB8B JUMP JUMPDEST JUMPDEST PUSH1 0x20 ADD ADD MLOAD PUSH1 0xF8 SHR PUSH1 0xF8 SHL DUP4 DUP4 DUP1 PUSH2 0x3F2 SWAP1 PUSH2 0xBBA JUMP JUMPDEST SWAP5 POP DUP2 MLOAD DUP2 LT PUSH2 0x405 JUMPI PUSH2 0x404 PUSH2 0xB8B JUMP JUMPDEST JUMPDEST PUSH1 0x20 ADD ADD SWAP1 PUSH31 0xFFFFFFFFFFFFFFFFFFFFFFFFFFFFFFFFFFFFFFFFFFFFFFFFFFFFFFFFFFFFFF NOT AND SWAP1 DUP2 PUSH1 0x0 BYTE SWAP1 MSTORE8 POP DUP1 DUP1 PUSH2 0x43F SWAP1 PUSH2 0xBBA JUMP JUMPDEST SWAP2 POP POP PUSH2 0x3BF JUMP JUMPDEST POP DUP3 SWAP6 POP POP POP POP POP POP SWAP3 SWAP2 POP POP JUMP JUMPDEST PUSH1 0x60 PUSH1 0x0 PUSH1 0x1 PUSH2 0x465 DUP5 PUSH2 0x52E JUMP JUMPDEST ADD SWAP1 POP PUSH1 0x0 DUP2 PUSH8 0xFFFFFFFFFFFFFFFF DUP2 GT ISZERO PUSH2 0x484 JUMPI PUSH2 0x483 PUSH2 0x6B0 JUMP JUMPDEST JUMPDEST PUSH1 0x40 MLOAD SWAP1 DUP1 DUP3 MSTORE DUP1 PUSH1 0x1F ADD PUSH1 0x1F NOT AND PUSH1 0x20 ADD DUP3 ADD PUSH1 0x40 MSTORE DUP1 ISZERO PUSH2 0x4B6 JUMPI DUP2 PUSH1 0x20 ADD PUSH1 0x1 DUP3 MUL DUP1 CALLDATASIZE DUP4 CALLDATACOPY DUP1 DUP3 ADD SWAP2 POP POP SWAP1 POP JUMPDEST POP SWAP1 POP PUSH1 0x0 DUP3 PUSH1 0x20 ADD DUP3 ADD SWAP1 POP JUMPDEST PUSH1 0x1 ISZERO PUSH2 0x523 JUMPI DUP1 DUP1 PUSH1 0x1 SWAP1 SUB SWAP2 POP POP PUSH32 0x3031323334353637383961626364656600000000000000000000000000000000 PUSH1 0xA DUP7 MOD BYTE DUP2 MSTORE8 PUSH1 0xA DUP6 DUP2 PUSH2 0x50D JUMPI PUSH2 0x50C PUSH2 0xC03 JUMP JUMPDEST JUMPDEST DIV SWAP5 POP PUSH1 0x0 DUP6 EQ ISZERO PUSH2 0x51E JUMPI PUSH2 0x523 JUMP JUMPDEST PUSH2 0x4C4 JUMP JUMPDEST DUP2 SWAP4 POP POP POP POP SWAP2 SWAP1 POP JUMP JUMPDEST PUSH1 0x0 DUP1 PUSH1 0x0 SWAP1 POP PUSH27 0x184F03E93FF9F4DAA797ED6E38ED64BF6A1F010000000000000000 DUP4 LT PUSH2 0x58C JUMPI PUSH27 0x184F03E93FF9F4DAA797ED6E38ED64BF6A1F010000000000000000 DUP4 DUP2 PUSH2 0x582 JUMPI PUSH2 0x581 PUSH2 0xC03 JUMP JUMPDEST JUMPDEST DIV SWAP3 POP PUSH1 0x40 DUP2 ADD SWAP1 POP JUMPDEST PUSH14 0x4EE2D6D415B85ACEF8100000000 DUP4 LT PUSH2 0x5C9 JUMPI PUSH14 0x4EE2D6D415B85ACEF8100000000 DUP4 DUP2 PUSH2 0x5BF JUMPI PUSH2 0x5BE PUSH2 0xC03 JUMP JUMPDEST JUMPDEST DIV SWAP3 POP PUSH1 0x20 DUP2 ADD SWAP1 POP JUMPDEST PUSH7 0x2386F26FC10000 DUP4 LT PUSH2 0x5F8 JUMPI PUSH7 0x2386F26FC10000 DUP4 DUP2 PUSH2 0x5EE JUMPI PUSH2 0x5ED PUSH2 0xC03 JUMP JUMPDEST JUMPDEST DIV SWAP3 POP PUSH1 0x10 DUP2 ADD SWAP1 POP JUMPDEST PUSH4 0x5F5E100 DUP4 LT PUSH2 0x621 JUMPI PUSH4 0x5F5E100 DUP4 DUP2 PUSH2 0x617 JUMPI PUSH2 0x616 PUSH2 0xC03 JUMP JUMPDEST JUMPDEST DIV SWAP3 POP PUSH1 0x8 DUP2 ADD SWAP1 POP JUMPDEST PUSH2 0x2710 DUP4 LT PUSH2 0x646 JUMPI PUSH2 0x2710 DUP4 DUP2 PUSH2 0x63C JUMPI PUSH2 0x63B PUSH2 0xC03 JUMP JUMPDEST JUMPDEST DIV SWAP3 POP PUSH1 0x4 DUP2 ADD SWAP1 POP JUMPDEST PUSH1 0x64 DUP4 LT PUSH2 0x669 JUMPI PUSH1 0x64 DUP4 DUP2 PUSH2 0x65F JUMPI PUSH2 0x65E PUSH2 0xC03 JUMP JUMPDEST JUMPDEST DIV SWAP3 POP PUSH1 0x2 DUP2 ADD SWAP1 POP JUMPDEST PUSH1 0xA DUP4 LT PUSH2 0x678 JUMPI PUSH1 0x1 DUP2 ADD SWAP1 POP JUMPDEST DUP1 SWAP2 POP POP SWAP2 SWAP1 POP JUMP JUMPDEST PUSH1 0x0 PUSH1 0x40 MLOAD SWAP1 POP SWAP1 JUMP JUMPDEST PUSH1 0x0 DUP1 REVERT JUMPDEST PUSH1 0x0 DUP1 REVERT JUMPDEST PUSH1 0x0 DUP1 REVERT JUMPDEST PUSH1 0x0 DUP1 REVERT JUMPDEST PUSH1 0x0 PUSH1 0x1F NOT PUSH1 0x1F DUP4 ADD AND SWAP1 POP SWAP2 SWAP1 POP JUMP JUMPDEST PUSH32 0x4E487B7100000000000000000000000000000000000000000000000000000000 PUSH1 0x0 MSTORE PUSH1 0x41 PUSH1 0x4 MSTORE PUSH1 0x24 PUSH1 0x0 REVERT JUMPDEST PUSH2 0x6E8 DUP3 PUSH2 0x69F JUMP JUMPDEST DUP2 ADD DUP2 DUP2 LT PUSH8 0xFFFFFFFFFFFFFFFF DUP3 GT OR ISZERO PUSH2 0x707 JUMPI PUSH2 0x706 PUSH2 0x6B0 JUMP JUMPDEST JUMPDEST DUP1 PUSH1 0x40 MSTORE POP POP POP JUMP JUMPDEST PUSH1 0x0 PUSH2 0x71A PUSH2 0x681 JUMP JUMPDEST SWAP1 POP PUSH2 0x726 DUP3 DUP3 PUSH2 0x6DF JUMP JUMPDEST SWAP2 SWAP1 POP JUMP JUMPDEST PUSH1 0x0 PUSH8 0xFFFFFFFFFFFFFFFF DUP3 GT ISZERO PUSH2 0x746 JUMPI PUSH2 0x745 PUSH2 0x6B0 JUMP JUMPDEST JUMPDEST PUSH2 0x74F DUP3 PUSH2 0x69F JUMP JUMPDEST SWAP1 POP PUSH1 0x20 DUP2 ADD SWAP1 POP SWAP2 SWAP1 POP JUMP JUMPDEST DUP3 DUP2 DUP4 CALLDATACOPY PUSH1 0x0 DUP4 DUP4 ADD MSTORE POP POP POP JUMP JUMPDEST PUSH1 0x0 PUSH2 0x77E PUSH2 0x779 DUP5 PUSH2 0x72B JUMP JUMPDEST PUSH2 0x710 JUMP JUMPDEST SWAP1 POP DUP3 DUP2 MSTORE PUSH1 0x20 DUP2 ADD DUP5 DUP5 DUP5 ADD GT ISZERO PUSH2 0x79A JUMPI PUSH2 0x799 PUSH2 0x69A JUMP JUMPDEST JUMPDEST PUSH2 0x7A5 DUP5 DUP3 DUP6 PUSH2 0x75C JUMP JUMPDEST POP SWAP4 SWAP3 POP POP POP JUMP JUMPDEST PUSH1 0x0 DUP3 PUSH1 0x1F DUP4 ADD SLT PUSH2 0x7C2 JUMPI PUSH2 0x7C1 PUSH2 0x695 JUMP JUMPDEST JUMPDEST DUP2 CALLDATALOAD PUSH2 0x7D2 DUP5 DUP3 PUSH1 0x20 DUP7 ADD PUSH2 0x76B JUMP JUMPDEST SWAP2 POP POP SWAP3 SWAP2 POP POP JUMP JUMPDEST PUSH1 0x0 DUP1 PUSH1 0x0 PUSH1 0x60 DUP5 DUP7 SUB SLT ISZERO PUSH2 0x7F4 JUMPI PUSH2 0x7F3 PUSH2 0x68B JUMP JUMPDEST JUMPDEST PUSH1 0x0 DUP5 ADD CALLDATALOAD PUSH8 0xFFFFFFFFFFFFFFFF DUP2 GT ISZERO PUSH2 0x812 JUMPI PUSH2 0x811 PUSH2 0x690 JUMP JUMPDEST JUMPDEST PUSH2 0x81E DUP7 DUP3 DUP8 ADD PUSH2 0x7AD JUMP JUMPDEST SWAP4 POP POP PUSH1 0x20 DUP5 ADD CALLDATALOAD PUSH8 0xFFFFFFFFFFFFFFFF DUP2 GT ISZERO PUSH2 0x83F JUMPI PUSH2 0x83E PUSH2 0x690 JUMP JUMPDEST JUMPDEST PUSH2 0x84B DUP7 DUP3 DUP8 ADD PUSH2 0x7AD JUMP JUMPDEST SWAP3 POP POP PUSH1 0x40 DUP5 ADD CALLDATALOAD PUSH8 0xFFFFFFFFFFFFFFFF DUP2 GT ISZERO PUSH2 0x86C JUMPI PUSH2 0x86B PUSH2 0x690 JUMP JUMPDEST JUMPDEST PUSH2 0x878 DUP7 DUP3 DUP8 ADD PUSH2 0x7AD JUMP JUMPDEST SWAP2 POP POP SWAP3 POP SWAP3 POP SWAP3 JUMP JUMPDEST PUSH1 0x0 DUP2 MLOAD SWAP1 POP SWAP2 SWAP1 POP JUMP JUMPDEST PUSH1 0x0 DUP3 DUP3 MSTORE PUSH1 0x20 DUP3 ADD SWAP1 POP SWAP3 SWAP2 POP POP JUMP JUMPDEST PUSH1 0x0 JUMPDEST DUP4 DUP2 LT ISZERO PUSH2 0x8BC JUMPI DUP1 DUP3 ADD MLOAD DUP2 DUP5 ADD MSTORE PUSH1 0x20 DUP2 ADD SWAP1 POP PUSH2 0x8A1 JUMP JUMPDEST DUP4 DUP2 GT ISZERO PUSH2 0x8CB JUMPI PUSH1 0x0 DUP5 DUP5 ADD MSTORE JUMPDEST POP POP POP POP JUMP JUMPDEST PUSH1 0x0 PUSH2 0x8DC DUP3 PUSH2 0x882 JUMP JUMPDEST PUSH2 0x8E6 DUP2 DUP6 PUSH2 0x88D JUMP JUMPDEST SWAP4 POP PUSH2 0x8F6 DUP2 DUP6 PUSH1 0x20 DUP7 ADD PUSH2 0x89E JUMP JUMPDEST PUSH2 0x8FF DUP2 PUSH2 0x69F JUMP JUMPDEST DUP5 ADD SWAP2 POP POP SWAP3 SWAP2 POP POP JUMP JUMPDEST PUSH1 0x0 PUSH1 0x20 DUP3 ADD SWAP1 POP DUP2 DUP2 SUB PUSH1 0x0 DUP4 ADD MSTORE PUSH2 0x924 DUP2 DUP5 PUSH2 0x8D1 JUMP JUMPDEST SWAP1 POP SWAP3 SWAP2 POP POP JUMP JUMPDEST PUSH1 0x0 PUSH1 0x20 DUP3 DUP5 SUB SLT ISZERO PUSH2 0x942 JUMPI PUSH2 0x941 PUSH2 0x68B JUMP JUMPDEST JUMPDEST PUSH1 0x0 DUP3 ADD CALLDATALOAD PUSH8 0xFFFFFFFFFFFFFFFF DUP2 GT ISZERO PUSH2 0x960 JUMPI PUSH2 0x95F PUSH2 0x690 JUMP JUMPDEST JUMPDEST PUSH2 0x96C DUP5 DUP3 DUP6 ADD PUSH2 0x7AD JUMP JUMPDEST SWAP2 POP POP SWAP3 SWAP2 POP POP JUMP JUMPDEST PUSH1 0x0 DUP2 SWAP1 POP SWAP2 SWAP1 POP JUMP JUMPDEST PUSH2 0x988 DUP2 PUSH2 0x975 JUMP JUMPDEST DUP3 MSTORE POP POP JUMP JUMPDEST PUSH1 0x0 PUSH1 0x20 DUP3 ADD SWAP1 POP PUSH2 0x9A3 PUSH1 0x0 DUP4 ADD DUP5 PUSH2 0x97F JUMP JUMPDEST SWAP3 SWAP2 POP POP JUMP JUMPDEST PUSH1 0x0 DUP2 SWAP1 POP SWAP2 SWAP1 POP JUMP JUMPDEST PUSH2 0x9BC DUP2 PUSH2 0x9A9 JUMP JUMPDEST DUP2 EQ PUSH2 0x9C7 JUMPI PUSH1 0x0 DUP1 REVERT JUMPDEST POP JUMP JUMPDEST PUSH1 0x0 DUP2 CALLDATALOAD SWAP1 POP PUSH2 0x9D9 DUP2 PUSH2 0x9B3 JUMP JUMPDEST SWAP3 SWAP2 POP POP JUMP JUMPDEST PUSH1 0x0 DUP1 PUSH1 0x40 DUP4 DUP6 SUB SLT ISZERO PUSH2 0x9F6 JUMPI PUSH2 0x9F5 PUSH2 0x68B JUMP JUMPDEST JUMPDEST PUSH1 0x0 DUP4 ADD CALLDATALOAD PUSH8 0xFFFFFFFFFFFFFFFF DUP2 GT ISZERO PUSH2 0xA14 JUMPI PUSH2 0xA13 PUSH2 0x690 JUMP JUMPDEST JUMPDEST PUSH2 0xA20 DUP6 DUP3 DUP7 ADD PUSH2 0x7AD JUMP JUMPDEST SWAP3 POP POP PUSH1 0x20 PUSH2 0xA31 DUP6 DUP3 DUP7 ADD PUSH2 0x9CA JUMP JUMPDEST SWAP2 POP POP SWAP3 POP SWAP3 SWAP1 POP JUMP JUMPDEST PUSH1 0x0 DUP1 PUSH1 0x40 DUP4 DUP6 SUB SLT ISZERO PUSH2 0xA52 JUMPI PUSH2 0xA51 PUSH2 0x68B JUMP JUMPDEST JUMPDEST PUSH1 0x0 DUP4 ADD CALLDATALOAD PUSH8 0xFFFFFFFFFFFFFFFF DUP2 GT ISZERO PUSH2 0xA70 JUMPI PUSH2 0xA6F PUSH2 0x690 JUMP JUMPDEST JUMPDEST PUSH2 0xA7C DUP6 DUP3 DUP7 ADD PUSH2 0x7AD JUMP JUMPDEST SWAP3 POP POP PUSH1 0x20 DUP4 ADD CALLDATALOAD PUSH8 0xFFFFFFFFFFFFFFFF DUP2 GT ISZERO PUSH2 0xA9D JUMPI PUSH2 0xA9C PUSH2 0x690 JUMP JUMPDEST JUMPDEST PUSH2 0xAA9 DUP6 DUP3 DUP7 ADD PUSH2 0x7AD JUMP JUMPDEST SWAP2 POP POP SWAP3 POP SWAP3 SWAP1 POP JUMP JUMPDEST PUSH1 0x0 DUP2 SWAP1 POP SWAP3 SWAP2 POP POP JUMP JUMPDEST PUSH1 0x0 PUSH2 0xAC9 DUP3 PUSH2 0x882 JUMP JUMPDEST PUSH2 0xAD3 DUP2 DUP6 PUSH2 0xAB3 JUMP JUMPDEST SWAP4 POP PUSH2 0xAE3 DUP2 DUP6 PUSH1 0x20 DUP7 ADD PUSH2 0x89E JUMP JUMPDEST DUP1 DUP5 ADD SWAP2 POP POP SWAP3 SWAP2 POP POP JUMP JUMPDEST PUSH1 0x0 PUSH2 0xAFB DUP3 DUP5 PUSH2 0xABE JUMP JUMPDEST SWAP2 POP DUP2 SWAP1 POP SWAP3 SWAP2 POP POP JUMP JUMPDEST PUSH32 0x4E487B7100000000000000000000000000000000000000000000000000000000 PUSH1 0x0 MSTORE PUSH1 0x11 PUSH1 0x4 MSTORE PUSH1 0x24 PUSH1 0x0 REVERT JUMPDEST PUSH1 0x0 PUSH2 0xB40 DUP3 PUSH2 0x9A9 JUMP JUMPDEST SWAP2 POP PUSH2 0xB4B DUP4 PUSH2 0x9A9 JUMP JUMPDEST SWAP3 POP DUP3 PUSH32 0xFFFFFFFFFFFFFFFFFFFFFFFFFFFFFFFFFFFFFFFFFFFFFFFFFFFFFFFFFFFFFFFF SUB DUP3 GT ISZERO PUSH2 0xB80 JUMPI PUSH2 0xB7F PUSH2 0xB06 JUMP JUMPDEST JUMPDEST DUP3 DUP3 ADD SWAP1 POP SWAP3 SWAP2 POP POP JUMP JUMPDEST PUSH32 0x4E487B7100000000000000000000000000000000000000000000000000000000 PUSH1 0x0 MSTORE PUSH1 0x32 PUSH1 0x4 MSTORE PUSH1 0x24 PUSH1 0x0 REVERT JUMPDEST PUSH1 0x0 PUSH2 0xBC5 DUP3 PUSH2 0x9A9 JUMP JUMPDEST SWAP2 POP PUSH32 0xFFFFFFFFFFFFFFFFFFFFFFFFFFFFFFFFFFFFFFFFFFFFFFFFFFFFFFFFFFFFFFFF DUP3 EQ ISZERO PUSH2 0xBF8 JUMPI PUSH2 0xBF7 PUSH2 0xB06 JUMP JUMPDEST JUMPDEST PUSH1 0x1 DUP3 ADD SWAP1 POP SWAP2 SWAP1 POP JUMP JUMPDEST PUSH32 0x4E487B7100000000000000000000000000000000000000000000000000000000 PUSH1 0x0 MSTORE PUSH1 0x12 PUSH1 0x4 MSTORE PUSH1 0x24 PUSH1 0x0 REVERT INVALID LOG2 PUSH5 0x6970667358 0x22 SLT KECCAK256 STOP 0xBA SHR 0xC GASLIMIT CALLDATASIZE 0x4F SWAP3 0xA5 0xE4 0x24 0xF 0xDF 0xC1 0xCA 0xCA PUSH11 0x67417E14B11044A4BD1F8 PUSH26 0xE1321064736F6C634300080B0033000000000000000000000000 "
				},
				"gasEstimates": {
					"creation": {
						"codeDepositCost": "635200",
						"executionCost": "670",
						"totalCost": "635870"
					},
					"external": {
						"error(string,string,string)": "infinite",
						"strConcat(string,string)": "infinite",
						"stringToBytes32(string)": "infinite",
						"toAssetIndex(string,uint256)": "infinite",
						"toRole(string)": "infinite"
					},
					"internal": {
						"toString(uint256)": "infinite"
					}
				},
				"methodIdentifiers": {
					"error(string,string,string)": "609f7070",
					"strConcat(string,string)": "ff74927b",
					"stringToBytes32(string)": "cfb51928",
					"toAssetIndex(string,uint256)": "a1f7ed1a",
					"toRole(string)": "60e01594"
				}
			},
			"storageLayout": {
				"storage": [],
				"types": null
			},
			"userdoc": {
				"kind": "user",
				"methods": {
					"stringToBytes32(string)": {
						"notice": "通用工具区*"
					},
					"toRole(string)": {
						"notice": "业务工具区*"
					}
				},
				"version": 1
			}
		}
	}
}