{
	"1127/util/BytesUtil.sol": {
		"CommonUtil": {
			"abi": [
				{
					"inputs": [
						{
							"internalType": "string",
							"name": "_contract",
							"type": "string"
						},
						{
							"internalType": "string",
							"name": "_function",
							"type": "string"
						},
						{
							"internalType": "string",
							"name": "_msg",
							"type": "string"
						}
					],
					"name": "error",
					"outputs": [
						{
							"internalType": "string",
							"name": "",
							"type": "string"
						}
					],
					"stateMutability": "pure",
					"type": "function"
				},
				{
					"inputs": [
						{
							"internalType": "string",
							"name": "_a",
							"type": "string"
						},
						{
							"internalType": "string",
							"name": "_b",
							"type": "string"
						}
					],
					"name": "strConcat",
					"outputs": [
						{
							"internalType": "string",
							"name": "",
							"type": "string"
						}
					],
					"stateMutability": "pure",
					"type": "function"
				},
				{
					"inputs": [
						{
							"internalType": "string",
							"name": "str",
							"type": "string"
						}
					],
					"name": "stringToBytes32",
					"outputs": [
						{
							"internalType": "bytes32",
							"name": "",
							"type": "bytes32"
						}
					],
					"stateMutability": "pure",
					"type": "function"
				},
				{
					"inputs": [
						{
							"internalType": "string",
							"name": "str",
							"type": "string"
						}
					],
					"name": "toRole",
					"outputs": [
						{
							"internalType": "bytes32",
							"name": "",
							"type": "bytes32"
						}
					],
					"stateMutability": "pure",
					"type": "function"
				}
			],
			"devdoc": {
				"kind": "dev",
				"methods": {},
				"version": 1
			},
			"evm": {
				"assembly": "    /* \"1127/util/BytesUtil.sol\":57:1188  contract CommonUtil {... */\n  mstore(0x40, 0x80)\n  callvalue\n  dup1\n  iszero\n  tag_1\n  jumpi\n  0x00\n  dup1\n  revert\ntag_1:\n  pop\n  dataSize(sub_0)\n  dup1\n  dataOffset(sub_0)\n  0x00\n  codecopy\n  0x00\n  return\nstop\n\nsub_0: assembly {\n        /* \"1127/util/BytesUtil.sol\":57:1188  contract CommonUtil {... */\n      mstore(0x40, 0x80)\n      callvalue\n      dup1\n      iszero\n      tag_1\n      jumpi\n      0x00\n      dup1\n      revert\n    tag_1:\n      pop\n      jumpi(tag_2, lt(calldatasize, 0x04))\n      shr(0xe0, calldataload(0x00))\n      dup1\n      0x609f7070\n      eq\n      tag_3\n      jumpi\n      dup1\n      0x60e01594\n      eq\n      tag_4\n      jumpi\n      dup1\n      0xcfb51928\n      eq\n      tag_5\n      jumpi\n      dup1\n      0xff74927b\n      eq\n      tag_6\n      jumpi\n    tag_2:\n      0x00\n      dup1\n      revert\n        /* \"1127/util/BytesUtil.sol\":334:684  function error(... */\n    tag_3:\n      tag_7\n      0x04\n      dup1\n      calldatasize\n      sub\n      dup2\n      add\n      swap1\n      tag_8\n      swap2\n      swap1\n      tag_9\n      jump\t// in\n    tag_8:\n      tag_10\n      jump\t// in\n    tag_7:\n      mload(0x40)\n      tag_11\n      swap2\n      swap1\n      tag_12\n      jump\t// in\n    tag_11:\n      mload(0x40)\n      dup1\n      swap2\n      sub\n      swap1\n      return\n        /* \"1127/util/BytesUtil.sol\":83:192  function toRole(string memory str) public pure returns (bytes32) {... */\n    tag_4:\n      tag_13\n      0x04\n      dup1\n      calldatasize\n      sub\n      dup2\n      add\n      swap1\n      tag_14\n      swap2\n      swap1\n      tag_15\n      jump\t// in\n    tag_14:\n      tag_16\n      jump\t// in\n    tag_13:\n      mload(0x40)\n      tag_17\n      swap2\n      swap1\n      tag_18\n      jump\t// in\n    tag_17:\n      mload(0x40)\n      dup1\n      swap2\n      sub\n      swap1\n      return\n        /* \"1127/util/BytesUtil.sol\":198:328  function stringToBytes32(string memory str) public pure returns (bytes32) {... */\n    tag_5:\n      tag_19\n      0x04\n      dup1\n      calldatasize\n      sub\n      dup2\n      add\n      swap1\n      tag_20\n      swap2\n      swap1\n      tag_15\n      jump\t// in\n    tag_20:\n      tag_21\n      jump\t// in\n    tag_19:\n      mload(0x40)\n      tag_22\n      swap2\n      swap1\n      tag_18\n      jump\t// in\n    tag_22:\n      mload(0x40)\n      dup1\n      swap2\n      sub\n      swap1\n      return\n        /* \"1127/util/BytesUtil.sol\":690:1186  function strConcat(string memory _a, string memory _b)... */\n    tag_6:\n      tag_23\n      0x04\n      dup1\n      calldatasize\n      sub\n      dup2\n      add\n      swap1\n      tag_24\n      swap2\n      swap1\n      tag_25\n      jump\t// in\n    tag_24:\n      tag_26\n      jump\t// in\n    tag_23:\n      mload(0x40)\n      tag_27\n      swap2\n      swap1\n      tag_12\n      jump\t// in\n    tag_27:\n      mload(0x40)\n      dup1\n      swap2\n      sub\n      swap1\n      return\n        /* \"1127/util/BytesUtil.sol\":334:684  function error(... */\n    tag_10:\n        /* \"1127/util/BytesUtil.sol\":470:483  string memory */\n      0x60\n        /* \"1127/util/BytesUtil.sol\":501:677  strConcat(... */\n      tag_29\n        /* \"1127/util/BytesUtil.sol\":520:628  strConcat(... */\n      tag_30\n        /* \"1127/util/BytesUtil.sol\":539:573  strConcat(\"Contract: \", _contract) */\n      tag_31\n      mload(0x40)\n      dup1\n      0x40\n      add\n      0x40\n      mstore\n      dup1\n      0x0a\n      dup2\n      mstore\n      0x20\n      add\n      0x436f6e74726163743a2000000000000000000000000000000000000000000000\n      dup2\n      mstore\n      pop\n        /* \"1127/util/BytesUtil.sol\":563:572  _contract */\n      dup8\n        /* \"1127/util/BytesUtil.sol\":539:548  strConcat */\n      tag_26\n        /* \"1127/util/BytesUtil.sol\":539:573  strConcat(\"Contract: \", _contract) */\n      jump\t// in\n    tag_31:\n        /* \"1127/util/BytesUtil.sol\":583:618  strConcat(\",Function: \", _function) */\n      tag_32\n      mload(0x40)\n      dup1\n      0x40\n      add\n      0x40\n      mstore\n      dup1\n      0x0b\n      dup2\n      mstore\n      0x20\n      add\n      0x2c46756e6374696f6e3a20000000000000000000000000000000000000000000\n      dup2\n      mstore\n      pop\n        /* \"1127/util/BytesUtil.sol\":608:617  _function */\n      dup8\n        /* \"1127/util/BytesUtil.sol\":583:592  strConcat */\n      tag_26\n        /* \"1127/util/BytesUtil.sol\":583:618  strConcat(\",Function: \", _function) */\n      jump\t// in\n    tag_32:\n        /* \"1127/util/BytesUtil.sol\":520:529  strConcat */\n      tag_26\n        /* \"1127/util/BytesUtil.sol\":520:628  strConcat(... */\n      jump\t// in\n    tag_30:\n        /* \"1127/util/BytesUtil.sol\":638:667  strConcat(\",Message: \", _msg) */\n      tag_33\n      mload(0x40)\n      dup1\n      0x40\n      add\n      0x40\n      mstore\n      dup1\n      0x0a\n      dup2\n      mstore\n      0x20\n      add\n      0x2c4d6573736167653a2000000000000000000000000000000000000000000000\n      dup2\n      mstore\n      pop\n        /* \"1127/util/BytesUtil.sol\":662:666  _msg */\n      dup6\n        /* \"1127/util/BytesUtil.sol\":638:647  strConcat */\n      tag_26\n        /* \"1127/util/BytesUtil.sol\":638:667  strConcat(\",Message: \", _msg) */\n      jump\t// in\n    tag_33:\n        /* \"1127/util/BytesUtil.sol\":501:510  strConcat */\n      tag_26\n        /* \"1127/util/BytesUtil.sol\":501:677  strConcat(... */\n      jump\t// in\n    tag_29:\n        /* \"1127/util/BytesUtil.sol\":494:677  return strConcat(... */\n      swap1\n      pop\n        /* \"1127/util/BytesUtil.sol\":334:684  function error(... */\n      swap4\n      swap3\n      pop\n      pop\n      pop\n      jump\t// out\n        /* \"1127/util/BytesUtil.sol\":83:192  function toRole(string memory str) public pure returns (bytes32) {... */\n    tag_16:\n        /* \"1127/util/BytesUtil.sol\":139:146  bytes32 */\n      0x00\n        /* \"1127/util/BytesUtil.sol\":165:185  stringToBytes32(str) */\n      tag_35\n        /* \"1127/util/BytesUtil.sol\":181:184  str */\n      dup3\n        /* \"1127/util/BytesUtil.sol\":165:180  stringToBytes32 */\n      tag_21\n        /* \"1127/util/BytesUtil.sol\":165:185  stringToBytes32(str) */\n      jump\t// in\n    tag_35:\n        /* \"1127/util/BytesUtil.sol\":158:185  return stringToBytes32(str) */\n      swap1\n      pop\n        /* \"1127/util/BytesUtil.sol\":83:192  function toRole(string memory str) public pure returns (bytes32) {... */\n      swap2\n      swap1\n      pop\n      jump\t// out\n        /* \"1127/util/BytesUtil.sol\":198:328  function stringToBytes32(string memory str) public pure returns (bytes32) {... */\n    tag_21:\n        /* \"1127/util/BytesUtil.sol\":263:270  bytes32 */\n      0x00\n        /* \"1127/util/BytesUtil.sol\":316:319  str */\n      dup2\n        /* \"1127/util/BytesUtil.sol\":299:320  abi.encodePacked(str) */\n      add(0x20, mload(0x40))\n      tag_37\n      swap2\n      swap1\n      tag_38\n      jump\t// in\n    tag_37:\n      mload(0x40)\n      0x20\n      dup2\n      dup4\n      sub\n      sub\n      dup2\n      mstore\n      swap1\n      0x40\n      mstore\n        /* \"1127/util/BytesUtil.sol\":289:321  keccak256(abi.encodePacked(str)) */\n      dup1\n      mload\n      swap1\n      0x20\n      add\n      keccak256\n        /* \"1127/util/BytesUtil.sol\":282:321  return keccak256(abi.encodePacked(str)) */\n      swap1\n      pop\n        /* \"1127/util/BytesUtil.sol\":198:328  function stringToBytes32(string memory str) public pure returns (bytes32) {... */\n      swap2\n      swap1\n      pop\n      jump\t// out\n        /* \"1127/util/BytesUtil.sol\":690:1186  function strConcat(string memory _a, string memory _b)... */\n    tag_26:\n        /* \"1127/util/BytesUtil.sol\":790:803  string memory */\n      0x60\n        /* \"1127/util/BytesUtil.sol\":819:835  bytes memory _ba */\n      0x00\n        /* \"1127/util/BytesUtil.sol\":844:846  _a */\n      dup4\n        /* \"1127/util/BytesUtil.sol\":819:847  bytes memory _ba = bytes(_a) */\n      swap1\n      pop\n        /* \"1127/util/BytesUtil.sol\":857:873  bytes memory _bb */\n      0x00\n        /* \"1127/util/BytesUtil.sol\":882:884  _b */\n      dup4\n        /* \"1127/util/BytesUtil.sol\":857:885  bytes memory _bb = bytes(_b) */\n      swap1\n      pop\n        /* \"1127/util/BytesUtil.sol\":895:912  string memory ret */\n      0x00\n        /* \"1127/util/BytesUtil.sol\":939:942  _bb */\n      dup2\n        /* \"1127/util/BytesUtil.sol\":939:949  _bb.length */\n      mload\n        /* \"1127/util/BytesUtil.sol\":926:929  _ba */\n      dup4\n        /* \"1127/util/BytesUtil.sol\":926:936  _ba.length */\n      mload\n        /* \"1127/util/BytesUtil.sol\":926:949  _ba.length + _bb.length */\n      tag_40\n      swap2\n      swap1\n      tag_41\n      jump\t// in\n    tag_40:\n        /* \"1127/util/BytesUtil.sol\":915:950  new string(_ba.length + _bb.length) */\n      0xffffffffffffffff\n      dup2\n      gt\n      iszero\n      tag_42\n      jumpi\n      tag_43\n      tag_44\n      jump\t// in\n    tag_43:\n    tag_42:\n      mload(0x40)\n      swap1\n      dup1\n      dup3\n      mstore\n      dup1\n      0x1f\n      add\n      not(0x1f)\n      and\n      0x20\n      add\n      dup3\n      add\n      0x40\n      mstore\n      dup1\n      iszero\n      tag_45\n      jumpi\n      dup2\n      0x20\n      add\n      0x01\n      dup3\n      mul\n      dup1\n      calldatasize\n      dup4\n      calldatacopy\n      dup1\n      dup3\n      add\n      swap2\n      pop\n      pop\n      swap1\n      pop\n    tag_45:\n      pop\n        /* \"1127/util/BytesUtil.sol\":895:950  string memory ret = new string(_ba.length + _bb.length) */\n      swap1\n      pop\n        /* \"1127/util/BytesUtil.sol\":960:977  bytes memory bret */\n      0x00\n        /* \"1127/util/BytesUtil.sol\":986:989  ret */\n      dup2\n        /* \"1127/util/BytesUtil.sol\":960:990  bytes memory bret = bytes(ret) */\n      swap1\n      pop\n        /* \"1127/util/BytesUtil.sol\":1000:1009  uint256 k */\n      0x00\n        /* \"1127/util/BytesUtil.sol\":1028:1037  uint256 i */\n      dup1\n        /* \"1127/util/BytesUtil.sol\":1023:1082  for (uint256 i = 0; i < _ba.length; i++) bret[k++] = _ba[i] */\n    tag_46:\n        /* \"1127/util/BytesUtil.sol\":1047:1050  _ba */\n      dup6\n        /* \"1127/util/BytesUtil.sol\":1047:1057  _ba.length */\n      mload\n        /* \"1127/util/BytesUtil.sol\":1043:1044  i */\n      dup2\n        /* \"1127/util/BytesUtil.sol\":1043:1057  i < _ba.length */\n      lt\n        /* \"1127/util/BytesUtil.sol\":1023:1082  for (uint256 i = 0; i < _ba.length; i++) bret[k++] = _ba[i] */\n      iszero\n      tag_47\n      jumpi\n        /* \"1127/util/BytesUtil.sol\":1076:1079  _ba */\n      dup6\n        /* \"1127/util/BytesUtil.sol\":1080:1081  i */\n      dup2\n        /* \"1127/util/BytesUtil.sol\":1076:1082  _ba[i] */\n      dup2\n      mload\n      dup2\n      lt\n      tag_49\n      jumpi\n      tag_50\n      tag_51\n      jump\t// in\n    tag_50:\n    tag_49:\n      0x20\n      add\n      add\n      mload\n      0xf8\n      shr\n      0xf8\n      shl\n        /* \"1127/util/BytesUtil.sol\":1064:1068  bret */\n      dup4\n        /* \"1127/util/BytesUtil.sol\":1069:1072  k++ */\n      dup4\n      dup1\n      tag_52\n      swap1\n      tag_53\n      jump\t// in\n    tag_52:\n      swap5\n      pop\n        /* \"1127/util/BytesUtil.sol\":1064:1073  bret[k++] */\n      dup2\n      mload\n      dup2\n      lt\n      tag_54\n      jumpi\n      tag_55\n      tag_51\n      jump\t// in\n    tag_55:\n    tag_54:\n      0x20\n      add\n      add\n        /* \"1127/util/BytesUtil.sol\":1064:1082  bret[k++] = _ba[i] */\n      swap1\n      not(0xffffffffffffffffffffffffffffffffffffffffffffffffffffffffffffff)\n      and\n      swap1\n      dup2\n      0x00\n      byte\n      swap1\n      mstore8\n      pop\n        /* \"1127/util/BytesUtil.sol\":1059:1062  i++ */\n      dup1\n      dup1\n      tag_56\n      swap1\n      tag_53\n      jump\t// in\n    tag_56:\n      swap2\n      pop\n      pop\n        /* \"1127/util/BytesUtil.sol\":1023:1082  for (uint256 i = 0; i < _ba.length; i++) bret[k++] = _ba[i] */\n      jump(tag_46)\n    tag_47:\n      pop\n        /* \"1127/util/BytesUtil.sol\":1097:1106  uint256 i */\n      0x00\n        /* \"1127/util/BytesUtil.sol\":1092:1151  for (uint256 i = 0; i < _bb.length; i++) bret[k++] = _bb[i] */\n    tag_57:\n        /* \"1127/util/BytesUtil.sol\":1116:1119  _bb */\n      dup5\n        /* \"1127/util/BytesUtil.sol\":1116:1126  _bb.length */\n      mload\n        /* \"1127/util/BytesUtil.sol\":1112:1113  i */\n      dup2\n        /* \"1127/util/BytesUtil.sol\":1112:1126  i < _bb.length */\n      lt\n        /* \"1127/util/BytesUtil.sol\":1092:1151  for (uint256 i = 0; i < _bb.length; i++) bret[k++] = _bb[i] */\n      iszero\n      tag_58\n      jumpi\n        /* \"1127/util/BytesUtil.sol\":1145:1148  _bb */\n      dup5\n        /* \"1127/util/BytesUtil.sol\":1149:1150  i */\n      dup2\n        /* \"1127/util/BytesUtil.sol\":1145:1151  _bb[i] */\n      dup2\n      mload\n      dup2\n      lt\n      tag_60\n      jumpi\n      tag_61\n      tag_51\n      jump\t// in\n    tag_61:\n    tag_60:\n      0x20\n      add\n      add\n      mload\n      0xf8\n      shr\n      0xf8\n      shl\n        /* \"1127/util/BytesUtil.sol\":1133:1137  bret */\n      dup4\n        /* \"1127/util/BytesUtil.sol\":1138:1141  k++ */\n      dup4\n      dup1\n      tag_62\n      swap1\n      tag_53\n      jump\t// in\n    tag_62:\n      swap5\n      pop\n        /* \"1127/util/BytesUtil.sol\":1133:1142  bret[k++] */\n      dup2\n      mload\n      dup2\n      lt\n      tag_63\n      jumpi\n      tag_64\n      tag_51\n      jump\t// in\n    tag_64:\n    tag_63:\n      0x20\n      add\n      add\n        /* \"1127/util/BytesUtil.sol\":1133:1151  bret[k++] = _bb[i] */\n      swap1\n      not(0xffffffffffffffffffffffffffffffffffffffffffffffffffffffffffffff)\n      and\n      swap1\n      dup2\n      0x00\n      byte\n      swap1\n      mstore8\n      pop\n        /* \"1127/util/BytesUtil.sol\":1128:1131  i++ */\n      dup1\n      dup1\n      tag_65\n      swap1\n      tag_53\n      jump\t// in\n    tag_65:\n      swap2\n      pop\n      pop\n        /* \"1127/util/BytesUtil.sol\":1092:1151  for (uint256 i = 0; i < _bb.length; i++) bret[k++] = _bb[i] */\n      jump(tag_57)\n    tag_58:\n      pop\n        /* \"1127/util/BytesUtil.sol\":1175:1178  ret */\n      dup3\n        /* \"1127/util/BytesUtil.sol\":1161:1179  return string(ret) */\n      swap6\n      pop\n      pop\n      pop\n      pop\n      pop\n      pop\n        /* \"1127/util/BytesUtil.sol\":690:1186  function strConcat(string memory _a, string memory _b)... */\n      swap3\n      swap2\n      pop\n      pop\n      jump\t// out\n        /* \"#utility.yul\":7:82   */\n    tag_66:\n        /* \"#utility.yul\":40:46   */\n      0x00\n        /* \"#utility.yul\":73:75   */\n      0x40\n        /* \"#utility.yul\":67:76   */\n      mload\n        /* \"#utility.yul\":57:76   */\n      swap1\n      pop\n        /* \"#utility.yul\":7:82   */\n      swap1\n      jump\t// out\n        /* \"#utility.yul\":88:205   */\n    tag_67:\n        /* \"#utility.yul\":197:198   */\n      0x00\n        /* \"#utility.yul\":194:195   */\n      dup1\n        /* \"#utility.yul\":187:199   */\n      revert\n        /* \"#utility.yul\":211:328   */\n    tag_68:\n        /* \"#utility.yul\":320:321   */\n      0x00\n        /* \"#utility.yul\":317:318   */\n      dup1\n        /* \"#utility.yul\":310:322   */\n      revert\n        /* \"#utility.yul\":334:451   */\n    tag_69:\n        /* \"#utility.yul\":443:444   */\n      0x00\n        /* \"#utility.yul\":440:441   */\n      dup1\n        /* \"#utility.yul\":433:445   */\n      revert\n        /* \"#utility.yul\":457:574   */\n    tag_70:\n        /* \"#utility.yul\":566:567   */\n      0x00\n        /* \"#utility.yul\":563:564   */\n      dup1\n        /* \"#utility.yul\":556:568   */\n      revert\n        /* \"#utility.yul\":580:682   */\n    tag_71:\n        /* \"#utility.yul\":621:627   */\n      0x00\n        /* \"#utility.yul\":672:674   */\n      0x1f\n        /* \"#utility.yul\":668:675   */\n      not\n        /* \"#utility.yul\":663:665   */\n      0x1f\n        /* \"#utility.yul\":656:661   */\n      dup4\n        /* \"#utility.yul\":652:666   */\n      add\n        /* \"#utility.yul\":648:676   */\n      and\n        /* \"#utility.yul\":638:676   */\n      swap1\n      pop\n        /* \"#utility.yul\":580:682   */\n      swap2\n      swap1\n      pop\n      jump\t// out\n        /* \"#utility.yul\":688:868   */\n    tag_44:\n        /* \"#utility.yul\":736:813   */\n      0x4e487b7100000000000000000000000000000000000000000000000000000000\n        /* \"#utility.yul\":733:734   */\n      0x00\n        /* \"#utility.yul\":726:814   */\n      mstore\n        /* \"#utility.yul\":833:837   */\n      0x41\n        /* \"#utility.yul\":830:831   */\n      0x04\n        /* \"#utility.yul\":823:838   */\n      mstore\n        /* \"#utility.yul\":857:861   */\n      0x24\n        /* \"#utility.yul\":854:855   */\n      0x00\n        /* \"#utility.yul\":847:862   */\n      revert\n        /* \"#utility.yul\":874:1155   */\n    tag_72:\n        /* \"#utility.yul\":957:984   */\n      tag_97\n        /* \"#utility.yul\":979:983   */\n      dup3\n        /* \"#utility.yul\":957:984   */\n      tag_71\n      jump\t// in\n    tag_97:\n        /* \"#utility.yul\":949:955   */\n      dup2\n        /* \"#utility.yul\":945:985   */\n      add\n        /* \"#utility.yul\":1087:1093   */\n      dup2\n        /* \"#utility.yul\":1075:1085   */\n      dup2\n        /* \"#utility.yul\":1072:1094   */\n      lt\n        /* \"#utility.yul\":1051:1069   */\n      0xffffffffffffffff\n        /* \"#utility.yul\":1039:1049   */\n      dup3\n        /* \"#utility.yul\":1036:1070   */\n      gt\n        /* \"#utility.yul\":1033:1095   */\n      or\n        /* \"#utility.yul\":1030:1118   */\n      iszero\n      tag_98\n      jumpi\n        /* \"#utility.yul\":1098:1116   */\n      tag_99\n      tag_44\n      jump\t// in\n    tag_99:\n        /* \"#utility.yul\":1030:1118   */\n    tag_98:\n        /* \"#utility.yul\":1138:1148   */\n      dup1\n        /* \"#utility.yul\":1134:1136   */\n      0x40\n        /* \"#utility.yul\":1127:1149   */\n      mstore\n        /* \"#utility.yul\":917:1155   */\n      pop\n        /* \"#utility.yul\":874:1155   */\n      pop\n      pop\n      jump\t// out\n        /* \"#utility.yul\":1161:1290   */\n    tag_73:\n        /* \"#utility.yul\":1195:1201   */\n      0x00\n        /* \"#utility.yul\":1222:1242   */\n      tag_101\n      tag_66\n      jump\t// in\n    tag_101:\n        /* \"#utility.yul\":1212:1242   */\n      swap1\n      pop\n        /* \"#utility.yul\":1251:1284   */\n      tag_102\n        /* \"#utility.yul\":1279:1283   */\n      dup3\n        /* \"#utility.yul\":1271:1277   */\n      dup3\n        /* \"#utility.yul\":1251:1284   */\n      tag_72\n      jump\t// in\n    tag_102:\n        /* \"#utility.yul\":1161:1290   */\n      swap2\n      swap1\n      pop\n      jump\t// out\n        /* \"#utility.yul\":1296:1604   */\n    tag_74:\n        /* \"#utility.yul\":1358:1362   */\n      0x00\n        /* \"#utility.yul\":1448:1466   */\n      0xffffffffffffffff\n        /* \"#utility.yul\":1440:1446   */\n      dup3\n        /* \"#utility.yul\":1437:1467   */\n      gt\n        /* \"#utility.yul\":1434:1490   */\n      iszero\n      tag_104\n      jumpi\n        /* \"#utility.yul\":1470:1488   */\n      tag_105\n      tag_44\n      jump\t// in\n    tag_105:\n        /* \"#utility.yul\":1434:1490   */\n    tag_104:\n        /* \"#utility.yul\":1508:1537   */\n      tag_106\n        /* \"#utility.yul\":1530:1536   */\n      dup3\n        /* \"#utility.yul\":1508:1537   */\n      tag_71\n      jump\t// in\n    tag_106:\n        /* \"#utility.yul\":1500:1537   */\n      swap1\n      pop\n        /* \"#utility.yul\":1592:1596   */\n      0x20\n        /* \"#utility.yul\":1586:1590   */\n      dup2\n        /* \"#utility.yul\":1582:1597   */\n      add\n        /* \"#utility.yul\":1574:1597   */\n      swap1\n      pop\n        /* \"#utility.yul\":1296:1604   */\n      swap2\n      swap1\n      pop\n      jump\t// out\n        /* \"#utility.yul\":1610:1764   */\n    tag_75:\n        /* \"#utility.yul\":1694:1700   */\n      dup3\n        /* \"#utility.yul\":1689:1692   */\n      dup2\n        /* \"#utility.yul\":1684:1687   */\n      dup4\n        /* \"#utility.yul\":1671:1701   */\n      calldatacopy\n        /* \"#utility.yul\":1756:1757   */\n      0x00\n        /* \"#utility.yul\":1747:1753   */\n      dup4\n        /* \"#utility.yul\":1742:1745   */\n      dup4\n        /* \"#utility.yul\":1738:1754   */\n      add\n        /* \"#utility.yul\":1731:1758   */\n      mstore\n        /* \"#utility.yul\":1610:1764   */\n      pop\n      pop\n      pop\n      jump\t// out\n        /* \"#utility.yul\":1770:2182   */\n    tag_76:\n        /* \"#utility.yul\":1848:1853   */\n      0x00\n        /* \"#utility.yul\":1873:1939   */\n      tag_109\n        /* \"#utility.yul\":1889:1938   */\n      tag_110\n        /* \"#utility.yul\":1931:1937   */\n      dup5\n        /* \"#utility.yul\":1889:1938   */\n      tag_74\n      jump\t// in\n    tag_110:\n        /* \"#utility.yul\":1873:1939   */\n      tag_73\n      jump\t// in\n    tag_109:\n        /* \"#utility.yul\":1864:1939   */\n      swap1\n      pop\n        /* \"#utility.yul\":1962:1968   */\n      dup3\n        /* \"#utility.yul\":1955:1960   */\n      dup2\n        /* \"#utility.yul\":1948:1969   */\n      mstore\n        /* \"#utility.yul\":2000:2004   */\n      0x20\n        /* \"#utility.yul\":1993:1998   */\n      dup2\n        /* \"#utility.yul\":1989:2005   */\n      add\n        /* \"#utility.yul\":2038:2041   */\n      dup5\n        /* \"#utility.yul\":2029:2035   */\n      dup5\n        /* \"#utility.yul\":2024:2027   */\n      dup5\n        /* \"#utility.yul\":2020:2036   */\n      add\n        /* \"#utility.yul\":2017:2042   */\n      gt\n        /* \"#utility.yul\":2014:2126   */\n      iszero\n      tag_111\n      jumpi\n        /* \"#utility.yul\":2045:2124   */\n      tag_112\n      tag_70\n      jump\t// in\n    tag_112:\n        /* \"#utility.yul\":2014:2126   */\n    tag_111:\n        /* \"#utility.yul\":2135:2176   */\n      tag_113\n        /* \"#utility.yul\":2169:2175   */\n      dup5\n        /* \"#utility.yul\":2164:2167   */\n      dup3\n        /* \"#utility.yul\":2159:2162   */\n      dup6\n        /* \"#utility.yul\":2135:2176   */\n      tag_75\n      jump\t// in\n    tag_113:\n        /* \"#utility.yul\":1854:2182   */\n      pop\n        /* \"#utility.yul\":1770:2182   */\n      swap4\n      swap3\n      pop\n      pop\n      pop\n      jump\t// out\n        /* \"#utility.yul\":2202:2542   */\n    tag_77:\n        /* \"#utility.yul\":2258:2263   */\n      0x00\n        /* \"#utility.yul\":2307:2310   */\n      dup3\n        /* \"#utility.yul\":2300:2304   */\n      0x1f\n        /* \"#utility.yul\":2292:2298   */\n      dup4\n        /* \"#utility.yul\":2288:2305   */\n      add\n        /* \"#utility.yul\":2284:2311   */\n      slt\n        /* \"#utility.yul\":2274:2396   */\n      tag_115\n      jumpi\n        /* \"#utility.yul\":2315:2394   */\n      tag_116\n      tag_69\n      jump\t// in\n    tag_116:\n        /* \"#utility.yul\":2274:2396   */\n    tag_115:\n        /* \"#utility.yul\":2432:2438   */\n      dup2\n        /* \"#utility.yul\":2419:2439   */\n      calldataload\n        /* \"#utility.yul\":2457:2536   */\n      tag_117\n        /* \"#utility.yul\":2532:2535   */\n      dup5\n        /* \"#utility.yul\":2524:2530   */\n      dup3\n        /* \"#utility.yul\":2517:2521   */\n      0x20\n        /* \"#utility.yul\":2509:2515   */\n      dup7\n        /* \"#utility.yul\":2505:2522   */\n      add\n        /* \"#utility.yul\":2457:2536   */\n      tag_76\n      jump\t// in\n    tag_117:\n        /* \"#utility.yul\":2448:2536   */\n      swap2\n      pop\n        /* \"#utility.yul\":2264:2542   */\n      pop\n        /* \"#utility.yul\":2202:2542   */\n      swap3\n      swap2\n      pop\n      pop\n      jump\t// out\n        /* \"#utility.yul\":2548:3707   */\n    tag_9:\n        /* \"#utility.yul\":2655:2661   */\n      0x00\n        /* \"#utility.yul\":2663:2669   */\n      dup1\n        /* \"#utility.yul\":2671:2677   */\n      0x00\n        /* \"#utility.yul\":2720:2722   */\n      0x60\n        /* \"#utility.yul\":2708:2717   */\n      dup5\n        /* \"#utility.yul\":2699:2706   */\n      dup7\n        /* \"#utility.yul\":2695:2718   */\n      sub\n        /* \"#utility.yul\":2691:2723   */\n      slt\n        /* \"#utility.yul\":2688:2807   */\n      iszero\n      tag_119\n      jumpi\n        /* \"#utility.yul\":2726:2805   */\n      tag_120\n      tag_67\n      jump\t// in\n    tag_120:\n        /* \"#utility.yul\":2688:2807   */\n    tag_119:\n        /* \"#utility.yul\":2874:2875   */\n      0x00\n        /* \"#utility.yul\":2863:2872   */\n      dup5\n        /* \"#utility.yul\":2859:2876   */\n      add\n        /* \"#utility.yul\":2846:2877   */\n      calldataload\n        /* \"#utility.yul\":2904:2922   */\n      0xffffffffffffffff\n        /* \"#utility.yul\":2896:2902   */\n      dup2\n        /* \"#utility.yul\":2893:2923   */\n      gt\n        /* \"#utility.yul\":2890:3007   */\n      iszero\n      tag_121\n      jumpi\n        /* \"#utility.yul\":2926:3005   */\n      tag_122\n      tag_68\n      jump\t// in\n    tag_122:\n        /* \"#utility.yul\":2890:3007   */\n    tag_121:\n        /* \"#utility.yul\":3031:3094   */\n      tag_123\n        /* \"#utility.yul\":3086:3093   */\n      dup7\n        /* \"#utility.yul\":3077:3083   */\n      dup3\n        /* \"#utility.yul\":3066:3075   */\n      dup8\n        /* \"#utility.yul\":3062:3084   */\n      add\n        /* \"#utility.yul\":3031:3094   */\n      tag_77\n      jump\t// in\n    tag_123:\n        /* \"#utility.yul\":3021:3094   */\n      swap4\n      pop\n        /* \"#utility.yul\":2817:3104   */\n      pop\n        /* \"#utility.yul\":3171:3173   */\n      0x20\n        /* \"#utility.yul\":3160:3169   */\n      dup5\n        /* \"#utility.yul\":3156:3174   */\n      add\n        /* \"#utility.yul\":3143:3175   */\n      calldataload\n        /* \"#utility.yul\":3202:3220   */\n      0xffffffffffffffff\n        /* \"#utility.yul\":3194:3200   */\n      dup2\n        /* \"#utility.yul\":3191:3221   */\n      gt\n        /* \"#utility.yul\":3188:3305   */\n      iszero\n      tag_124\n      jumpi\n        /* \"#utility.yul\":3224:3303   */\n      tag_125\n      tag_68\n      jump\t// in\n    tag_125:\n        /* \"#utility.yul\":3188:3305   */\n    tag_124:\n        /* \"#utility.yul\":3329:3392   */\n      tag_126\n        /* \"#utility.yul\":3384:3391   */\n      dup7\n        /* \"#utility.yul\":3375:3381   */\n      dup3\n        /* \"#utility.yul\":3364:3373   */\n      dup8\n        /* \"#utility.yul\":3360:3382   */\n      add\n        /* \"#utility.yul\":3329:3392   */\n      tag_77\n      jump\t// in\n    tag_126:\n        /* \"#utility.yul\":3319:3392   */\n      swap3\n      pop\n        /* \"#utility.yul\":3114:3402   */\n      pop\n        /* \"#utility.yul\":3469:3471   */\n      0x40\n        /* \"#utility.yul\":3458:3467   */\n      dup5\n        /* \"#utility.yul\":3454:3472   */\n      add\n        /* \"#utility.yul\":3441:3473   */\n      calldataload\n        /* \"#utility.yul\":3500:3518   */\n      0xffffffffffffffff\n        /* \"#utility.yul\":3492:3498   */\n      dup2\n        /* \"#utility.yul\":3489:3519   */\n      gt\n        /* \"#utility.yul\":3486:3603   */\n      iszero\n      tag_127\n      jumpi\n        /* \"#utility.yul\":3522:3601   */\n      tag_128\n      tag_68\n      jump\t// in\n    tag_128:\n        /* \"#utility.yul\":3486:3603   */\n    tag_127:\n        /* \"#utility.yul\":3627:3690   */\n      tag_129\n        /* \"#utility.yul\":3682:3689   */\n      dup7\n        /* \"#utility.yul\":3673:3679   */\n      dup3\n        /* \"#utility.yul\":3662:3671   */\n      dup8\n        /* \"#utility.yul\":3658:3680   */\n      add\n        /* \"#utility.yul\":3627:3690   */\n      tag_77\n      jump\t// in\n    tag_129:\n        /* \"#utility.yul\":3617:3690   */\n      swap2\n      pop\n        /* \"#utility.yul\":3412:3700   */\n      pop\n        /* \"#utility.yul\":2548:3707   */\n      swap3\n      pop\n      swap3\n      pop\n      swap3\n      jump\t// out\n        /* \"#utility.yul\":3713:3812   */\n    tag_78:\n        /* \"#utility.yul\":3765:3771   */\n      0x00\n        /* \"#utility.yul\":3799:3804   */\n      dup2\n        /* \"#utility.yul\":3793:3805   */\n      mload\n        /* \"#utility.yul\":3783:3805   */\n      swap1\n      pop\n        /* \"#utility.yul\":3713:3812   */\n      swap2\n      swap1\n      pop\n      jump\t// out\n        /* \"#utility.yul\":3818:3987   */\n    tag_79:\n        /* \"#utility.yul\":3902:3913   */\n      0x00\n        /* \"#utility.yul\":3936:3942   */\n      dup3\n        /* \"#utility.yul\":3931:3934   */\n      dup3\n        /* \"#utility.yul\":3924:3943   */\n      mstore\n        /* \"#utility.yul\":3976:3980   */\n      0x20\n        /* \"#utility.yul\":3971:3974   */\n      dup3\n        /* \"#utility.yul\":3967:3981   */\n      add\n        /* \"#utility.yul\":3952:3981   */\n      swap1\n      pop\n        /* \"#utility.yul\":3818:3987   */\n      swap3\n      swap2\n      pop\n      pop\n      jump\t// out\n        /* \"#utility.yul\":3993:4300   */\n    tag_80:\n        /* \"#utility.yul\":4061:4062   */\n      0x00\n        /* \"#utility.yul\":4071:4184   */\n    tag_133:\n        /* \"#utility.yul\":4085:4091   */\n      dup4\n        /* \"#utility.yul\":4082:4083   */\n      dup2\n        /* \"#utility.yul\":4079:4092   */\n      lt\n        /* \"#utility.yul\":4071:4184   */\n      iszero\n      tag_135\n      jumpi\n        /* \"#utility.yul\":4170:4171   */\n      dup1\n        /* \"#utility.yul\":4165:4168   */\n      dup3\n        /* \"#utility.yul\":4161:4172   */\n      add\n        /* \"#utility.yul\":4155:4173   */\n      mload\n        /* \"#utility.yul\":4151:4152   */\n      dup2\n        /* \"#utility.yul\":4146:4149   */\n      dup5\n        /* \"#utility.yul\":4142:4153   */\n      add\n        /* \"#utility.yul\":4135:4174   */\n      mstore\n        /* \"#utility.yul\":4107:4109   */\n      0x20\n        /* \"#utility.yul\":4104:4105   */\n      dup2\n        /* \"#utility.yul\":4100:4110   */\n      add\n        /* \"#utility.yul\":4095:4110   */\n      swap1\n      pop\n        /* \"#utility.yul\":4071:4184   */\n      jump(tag_133)\n    tag_135:\n        /* \"#utility.yul\":4202:4208   */\n      dup4\n        /* \"#utility.yul\":4199:4200   */\n      dup2\n        /* \"#utility.yul\":4196:4209   */\n      gt\n        /* \"#utility.yul\":4193:4294   */\n      iszero\n      tag_136\n      jumpi\n        /* \"#utility.yul\":4282:4283   */\n      0x00\n        /* \"#utility.yul\":4273:4279   */\n      dup5\n        /* \"#utility.yul\":4268:4271   */\n      dup5\n        /* \"#utility.yul\":4264:4280   */\n      add\n        /* \"#utility.yul\":4257:4284   */\n      mstore\n        /* \"#utility.yul\":4193:4294   */\n    tag_136:\n        /* \"#utility.yul\":4042:4300   */\n      pop\n        /* \"#utility.yul\":3993:4300   */\n      pop\n      pop\n      pop\n      jump\t// out\n        /* \"#utility.yul\":4306:4670   */\n    tag_81:\n        /* \"#utility.yul\":4394:4397   */\n      0x00\n        /* \"#utility.yul\":4422:4461   */\n      tag_138\n        /* \"#utility.yul\":4455:4460   */\n      dup3\n        /* \"#utility.yul\":4422:4461   */\n      tag_78\n      jump\t// in\n    tag_138:\n        /* \"#utility.yul\":4477:4548   */\n      tag_139\n        /* \"#utility.yul\":4541:4547   */\n      dup2\n        /* \"#utility.yul\":4536:4539   */\n      dup6\n        /* \"#utility.yul\":4477:4548   */\n      tag_79\n      jump\t// in\n    tag_139:\n        /* \"#utility.yul\":4470:4548   */\n      swap4\n      pop\n        /* \"#utility.yul\":4557:4609   */\n      tag_140\n        /* \"#utility.yul\":4602:4608   */\n      dup2\n        /* \"#utility.yul\":4597:4600   */\n      dup6\n        /* \"#utility.yul\":4590:4594   */\n      0x20\n        /* \"#utility.yul\":4583:4588   */\n      dup7\n        /* \"#utility.yul\":4579:4595   */\n      add\n        /* \"#utility.yul\":4557:4609   */\n      tag_80\n      jump\t// in\n    tag_140:\n        /* \"#utility.yul\":4634:4663   */\n      tag_141\n        /* \"#utility.yul\":4656:4662   */\n      dup2\n        /* \"#utility.yul\":4634:4663   */\n      tag_71\n      jump\t// in\n    tag_141:\n        /* \"#utility.yul\":4629:4632   */\n      dup5\n        /* \"#utility.yul\":4625:4664   */\n      add\n        /* \"#utility.yul\":4618:4664   */\n      swap2\n      pop\n        /* \"#utility.yul\":4398:4670   */\n      pop\n        /* \"#utility.yul\":4306:4670   */\n      swap3\n      swap2\n      pop\n      pop\n      jump\t// out\n        /* \"#utility.yul\":4676:4989   */\n    tag_12:\n        /* \"#utility.yul\":4789:4793   */\n      0x00\n        /* \"#utility.yul\":4827:4829   */\n      0x20\n        /* \"#utility.yul\":4816:4825   */\n      dup3\n        /* \"#utility.yul\":4812:4830   */\n      add\n        /* \"#utility.yul\":4804:4830   */\n      swap1\n      pop\n        /* \"#utility.yul\":4876:4885   */\n      dup2\n        /* \"#utility.yul\":4870:4874   */\n      dup2\n        /* \"#utility.yul\":4866:4886   */\n      sub\n        /* \"#utility.yul\":4862:4863   */\n      0x00\n        /* \"#utility.yul\":4851:4860   */\n      dup4\n        /* \"#utility.yul\":4847:4864   */\n      add\n        /* \"#utility.yul\":4840:4887   */\n      mstore\n        /* \"#utility.yul\":4904:4982   */\n      tag_143\n        /* \"#utility.yul\":4977:4981   */\n      dup2\n        /* \"#utility.yul\":4968:4974   */\n      dup5\n        /* \"#utility.yul\":4904:4982   */\n      tag_81\n      jump\t// in\n    tag_143:\n        /* \"#utility.yul\":4896:4982   */\n      swap1\n      pop\n        /* \"#utility.yul\":4676:4989   */\n      swap3\n      swap2\n      pop\n      pop\n      jump\t// out\n        /* \"#utility.yul\":4995:5504   */\n    tag_15:\n        /* \"#utility.yul\":5064:5070   */\n      0x00\n        /* \"#utility.yul\":5113:5115   */\n      0x20\n        /* \"#utility.yul\":5101:5110   */\n      dup3\n        /* \"#utility.yul\":5092:5099   */\n      dup5\n        /* \"#utility.yul\":5088:5111   */\n      sub\n        /* \"#utility.yul\":5084:5116   */\n      slt\n        /* \"#utility.yul\":5081:5200   */\n      iszero\n      tag_145\n      jumpi\n        /* \"#utility.yul\":5119:5198   */\n      tag_146\n      tag_67\n      jump\t// in\n    tag_146:\n        /* \"#utility.yul\":5081:5200   */\n    tag_145:\n        /* \"#utility.yul\":5267:5268   */\n      0x00\n        /* \"#utility.yul\":5256:5265   */\n      dup3\n        /* \"#utility.yul\":5252:5269   */\n      add\n        /* \"#utility.yul\":5239:5270   */\n      calldataload\n        /* \"#utility.yul\":5297:5315   */\n      0xffffffffffffffff\n        /* \"#utility.yul\":5289:5295   */\n      dup2\n        /* \"#utility.yul\":5286:5316   */\n      gt\n        /* \"#utility.yul\":5283:5400   */\n      iszero\n      tag_147\n      jumpi\n        /* \"#utility.yul\":5319:5398   */\n      tag_148\n      tag_68\n      jump\t// in\n    tag_148:\n        /* \"#utility.yul\":5283:5400   */\n    tag_147:\n        /* \"#utility.yul\":5424:5487   */\n      tag_149\n        /* \"#utility.yul\":5479:5486   */\n      dup5\n        /* \"#utility.yul\":5470:5476   */\n      dup3\n        /* \"#utility.yul\":5459:5468   */\n      dup6\n        /* \"#utility.yul\":5455:5477   */\n      add\n        /* \"#utility.yul\":5424:5487   */\n      tag_77\n      jump\t// in\n    tag_149:\n        /* \"#utility.yul\":5414:5487   */\n      swap2\n      pop\n        /* \"#utility.yul\":5210:5497   */\n      pop\n        /* \"#utility.yul\":4995:5504   */\n      swap3\n      swap2\n      pop\n      pop\n      jump\t// out\n        /* \"#utility.yul\":5510:5587   */\n    tag_82:\n        /* \"#utility.yul\":5547:5554   */\n      0x00\n        /* \"#utility.yul\":5576:5581   */\n      dup2\n        /* \"#utility.yul\":5565:5581   */\n      swap1\n      pop\n        /* \"#utility.yul\":5510:5587   */\n      swap2\n      swap1\n      pop\n      jump\t// out\n        /* \"#utility.yul\":5593:5711   */\n    tag_83:\n        /* \"#utility.yul\":5680:5704   */\n      tag_152\n        /* \"#utility.yul\":5698:5703   */\n      dup2\n        /* \"#utility.yul\":5680:5704   */\n      tag_82\n      jump\t// in\n    tag_152:\n        /* \"#utility.yul\":5675:5678   */\n      dup3\n        /* \"#utility.yul\":5668:5705   */\n      mstore\n        /* \"#utility.yul\":5593:5711   */\n      pop\n      pop\n      jump\t// out\n        /* \"#utility.yul\":5717:5939   */\n    tag_18:\n        /* \"#utility.yul\":5810:5814   */\n      0x00\n        /* \"#utility.yul\":5848:5850   */\n      0x20\n        /* \"#utility.yul\":5837:5846   */\n      dup3\n        /* \"#utility.yul\":5833:5851   */\n      add\n        /* \"#utility.yul\":5825:5851   */\n      swap1\n      pop\n        /* \"#utility.yul\":5861:5932   */\n      tag_154\n        /* \"#utility.yul\":5929:5930   */\n      0x00\n        /* \"#utility.yul\":5918:5927   */\n      dup4\n        /* \"#utility.yul\":5914:5931   */\n      add\n        /* \"#utility.yul\":5905:5911   */\n      dup5\n        /* \"#utility.yul\":5861:5932   */\n      tag_83\n      jump\t// in\n    tag_154:\n        /* \"#utility.yul\":5717:5939   */\n      swap3\n      swap2\n      pop\n      pop\n      jump\t// out\n        /* \"#utility.yul\":5945:6779   */\n    tag_25:\n        /* \"#utility.yul\":6033:6039   */\n      0x00\n        /* \"#utility.yul\":6041:6047   */\n      dup1\n        /* \"#utility.yul\":6090:6092   */\n      0x40\n        /* \"#utility.yul\":6078:6087   */\n      dup4\n        /* \"#utility.yul\":6069:6076   */\n      dup6\n        /* \"#utility.yul\":6065:6088   */\n      sub\n        /* \"#utility.yul\":6061:6093   */\n      slt\n        /* \"#utility.yul\":6058:6177   */\n      iszero\n      tag_156\n      jumpi\n        /* \"#utility.yul\":6096:6175   */\n      tag_157\n      tag_67\n      jump\t// in\n    tag_157:\n        /* \"#utility.yul\":6058:6177   */\n    tag_156:\n        /* \"#utility.yul\":6244:6245   */\n      0x00\n        /* \"#utility.yul\":6233:6242   */\n      dup4\n        /* \"#utility.yul\":6229:6246   */\n      add\n        /* \"#utility.yul\":6216:6247   */\n      calldataload\n        /* \"#utility.yul\":6274:6292   */\n      0xffffffffffffffff\n        /* \"#utility.yul\":6266:6272   */\n      dup2\n        /* \"#utility.yul\":6263:6293   */\n      gt\n        /* \"#utility.yul\":6260:6377   */\n      iszero\n      tag_158\n      jumpi\n        /* \"#utility.yul\":6296:6375   */\n      tag_159\n      tag_68\n      jump\t// in\n    tag_159:\n        /* \"#utility.yul\":6260:6377   */\n    tag_158:\n        /* \"#utility.yul\":6401:6464   */\n      tag_160\n        /* \"#utility.yul\":6456:6463   */\n      dup6\n        /* \"#utility.yul\":6447:6453   */\n      dup3\n        /* \"#utility.yul\":6436:6445   */\n      dup7\n        /* \"#utility.yul\":6432:6454   */\n      add\n        /* \"#utility.yul\":6401:6464   */\n      tag_77\n      jump\t// in\n    tag_160:\n        /* \"#utility.yul\":6391:6464   */\n      swap3\n      pop\n        /* \"#utility.yul\":6187:6474   */\n      pop\n        /* \"#utility.yul\":6541:6543   */\n      0x20\n        /* \"#utility.yul\":6530:6539   */\n      dup4\n        /* \"#utility.yul\":6526:6544   */\n      add\n        /* \"#utility.yul\":6513:6545   */\n      calldataload\n        /* \"#utility.yul\":6572:6590   */\n      0xffffffffffffffff\n        /* \"#utility.yul\":6564:6570   */\n      dup2\n        /* \"#utility.yul\":6561:6591   */\n      gt\n        /* \"#utility.yul\":6558:6675   */\n      iszero\n      tag_161\n      jumpi\n        /* \"#utility.yul\":6594:6673   */\n      tag_162\n      tag_68\n      jump\t// in\n    tag_162:\n        /* \"#utility.yul\":6558:6675   */\n    tag_161:\n        /* \"#utility.yul\":6699:6762   */\n      tag_163\n        /* \"#utility.yul\":6754:6761   */\n      dup6\n        /* \"#utility.yul\":6745:6751   */\n      dup3\n        /* \"#utility.yul\":6734:6743   */\n      dup7\n        /* \"#utility.yul\":6730:6752   */\n      add\n        /* \"#utility.yul\":6699:6762   */\n      tag_77\n      jump\t// in\n    tag_163:\n        /* \"#utility.yul\":6689:6762   */\n      swap2\n      pop\n        /* \"#utility.yul\":6484:6772   */\n      pop\n        /* \"#utility.yul\":5945:6779   */\n      swap3\n      pop\n      swap3\n      swap1\n      pop\n      jump\t// out\n        /* \"#utility.yul\":6785:6933   */\n    tag_84:\n        /* \"#utility.yul\":6887:6898   */\n      0x00\n        /* \"#utility.yul\":6924:6927   */\n      dup2\n        /* \"#utility.yul\":6909:6927   */\n      swap1\n      pop\n        /* \"#utility.yul\":6785:6933   */\n      swap3\n      swap2\n      pop\n      pop\n      jump\t// out\n        /* \"#utility.yul\":6939:7316   */\n    tag_85:\n        /* \"#utility.yul\":7045:7048   */\n      0x00\n        /* \"#utility.yul\":7073:7112   */\n      tag_166\n        /* \"#utility.yul\":7106:7111   */\n      dup3\n        /* \"#utility.yul\":7073:7112   */\n      tag_78\n      jump\t// in\n    tag_166:\n        /* \"#utility.yul\":7128:7217   */\n      tag_167\n        /* \"#utility.yul\":7210:7216   */\n      dup2\n        /* \"#utility.yul\":7205:7208   */\n      dup6\n        /* \"#utility.yul\":7128:7217   */\n      tag_84\n      jump\t// in\n    tag_167:\n        /* \"#utility.yul\":7121:7217   */\n      swap4\n      pop\n        /* \"#utility.yul\":7226:7278   */\n      tag_168\n        /* \"#utility.yul\":7271:7277   */\n      dup2\n        /* \"#utility.yul\":7266:7269   */\n      dup6\n        /* \"#utility.yul\":7259:7263   */\n      0x20\n        /* \"#utility.yul\":7252:7257   */\n      dup7\n        /* \"#utility.yul\":7248:7264   */\n      add\n        /* \"#utility.yul\":7226:7278   */\n      tag_80\n      jump\t// in\n    tag_168:\n        /* \"#utility.yul\":7303:7309   */\n      dup1\n        /* \"#utility.yul\":7298:7301   */\n      dup5\n        /* \"#utility.yul\":7294:7310   */\n      add\n        /* \"#utility.yul\":7287:7310   */\n      swap2\n      pop\n        /* \"#utility.yul\":7049:7316   */\n      pop\n        /* \"#utility.yul\":6939:7316   */\n      swap3\n      swap2\n      pop\n      pop\n      jump\t// out\n        /* \"#utility.yul\":7322:7597   */\n    tag_38:\n        /* \"#utility.yul\":7454:7457   */\n      0x00\n        /* \"#utility.yul\":7476:7571   */\n      tag_170\n        /* \"#utility.yul\":7567:7570   */\n      dup3\n        /* \"#utility.yul\":7558:7564   */\n      dup5\n        /* \"#utility.yul\":7476:7571   */\n      tag_85\n      jump\t// in\n    tag_170:\n        /* \"#utility.yul\":7469:7571   */\n      swap2\n      pop\n        /* \"#utility.yul\":7588:7591   */\n      dup2\n        /* \"#utility.yul\":7581:7591   */\n      swap1\n      pop\n        /* \"#utility.yul\":7322:7597   */\n      swap3\n      swap2\n      pop\n      pop\n      jump\t// out\n        /* \"#utility.yul\":7603:7680   */\n    tag_86:\n        /* \"#utility.yul\":7640:7647   */\n      0x00\n        /* \"#utility.yul\":7669:7674   */\n      dup2\n        /* \"#utility.yul\":7658:7674   */\n      swap1\n      pop\n        /* \"#utility.yul\":7603:7680   */\n      swap2\n      swap1\n      pop\n      jump\t// out\n        /* \"#utility.yul\":7686:7866   */\n    tag_87:\n        /* \"#utility.yul\":7734:7811   */\n      0x4e487b7100000000000000000000000000000000000000000000000000000000\n        /* \"#utility.yul\":7731:7732   */\n      0x00\n        /* \"#utility.yul\":7724:7812   */\n      mstore\n        /* \"#utility.yul\":7831:7835   */\n      0x11\n        /* \"#utility.yul\":7828:7829   */\n      0x04\n        /* \"#utility.yul\":7821:7836   */\n      mstore\n        /* \"#utility.yul\":7855:7859   */\n      0x24\n        /* \"#utility.yul\":7852:7853   */\n      0x00\n        /* \"#utility.yul\":7845:7860   */\n      revert\n        /* \"#utility.yul\":7872:8177   */\n    tag_41:\n        /* \"#utility.yul\":7912:7915   */\n      0x00\n        /* \"#utility.yul\":7931:7951   */\n      tag_174\n        /* \"#utility.yul\":7949:7950   */\n      dup3\n        /* \"#utility.yul\":7931:7951   */\n      tag_86\n      jump\t// in\n    tag_174:\n        /* \"#utility.yul\":7926:7951   */\n      swap2\n      pop\n        /* \"#utility.yul\":7965:7985   */\n      tag_175\n        /* \"#utility.yul\":7983:7984   */\n      dup4\n        /* \"#utility.yul\":7965:7985   */\n      tag_86\n      jump\t// in\n    tag_175:\n        /* \"#utility.yul\":7960:7985   */\n      swap3\n      pop\n        /* \"#utility.yul\":8119:8120   */\n      dup3\n        /* \"#utility.yul\":8051:8117   */\n      0xffffffffffffffffffffffffffffffffffffffffffffffffffffffffffffffff\n        /* \"#utility.yul\":8047:8121   */\n      sub\n        /* \"#utility.yul\":8044:8045   */\n      dup3\n        /* \"#utility.yul\":8041:8122   */\n      gt\n        /* \"#utility.yul\":8038:8145   */\n      iszero\n      tag_176\n      jumpi\n        /* \"#utility.yul\":8125:8143   */\n      tag_177\n      tag_87\n      jump\t// in\n    tag_177:\n        /* \"#utility.yul\":8038:8145   */\n    tag_176:\n        /* \"#utility.yul\":8169:8170   */\n      dup3\n        /* \"#utility.yul\":8166:8167   */\n      dup3\n        /* \"#utility.yul\":8162:8171   */\n      add\n        /* \"#utility.yul\":8155:8171   */\n      swap1\n      pop\n        /* \"#utility.yul\":7872:8177   */\n      swap3\n      swap2\n      pop\n      pop\n      jump\t// out\n        /* \"#utility.yul\":8183:8363   */\n    tag_51:\n        /* \"#utility.yul\":8231:8308   */\n      0x4e487b7100000000000000000000000000000000000000000000000000000000\n        /* \"#utility.yul\":8228:8229   */\n      0x00\n        /* \"#utility.yul\":8221:8309   */\n      mstore\n        /* \"#utility.yul\":8328:8332   */\n      0x32\n        /* \"#utility.yul\":8325:8326   */\n      0x04\n        /* \"#utility.yul\":8318:8333   */\n      mstore\n        /* \"#utility.yul\":8352:8356   */\n      0x24\n        /* \"#utility.yul\":8349:8350   */\n      0x00\n        /* \"#utility.yul\":8342:8357   */\n      revert\n        /* \"#utility.yul\":8369:8602   */\n    tag_53:\n        /* \"#utility.yul\":8408:8411   */\n      0x00\n        /* \"#utility.yul\":8431:8455   */\n      tag_180\n        /* \"#utility.yul\":8449:8454   */\n      dup3\n        /* \"#utility.yul\":8431:8455   */\n      tag_86\n      jump\t// in\n    tag_180:\n        /* \"#utility.yul\":8422:8455   */\n      swap2\n      pop\n        /* \"#utility.yul\":8477:8543   */\n      0xffffffffffffffffffffffffffffffffffffffffffffffffffffffffffffffff\n        /* \"#utility.yul\":8470:8475   */\n      dup3\n        /* \"#utility.yul\":8467:8544   */\n      eq\n        /* \"#utility.yul\":8464:8567   */\n      iszero\n      tag_181\n      jumpi\n        /* \"#utility.yul\":8547:8565   */\n      tag_182\n      tag_87\n      jump\t// in\n    tag_182:\n        /* \"#utility.yul\":8464:8567   */\n    tag_181:\n        /* \"#utility.yul\":8594:8595   */\n      0x01\n        /* \"#utility.yul\":8587:8592   */\n      dup3\n        /* \"#utility.yul\":8583:8596   */\n      add\n        /* \"#utility.yul\":8576:8596   */\n      swap1\n      pop\n        /* \"#utility.yul\":8369:8602   */\n      swap2\n      swap1\n      pop\n      jump\t// out\n\n    auxdata: 0xa264697066735822122047b1125c7482d214ad1c81c531cbd6aa8a8afb01f5957277a5986aaa40ffd58764736f6c634300080b0033\n}\n",
				"bytecode": {
					"linkReferences": {},
					"object": "608060405234801561001057600080fd5b506108f1806100206000396000f3fe608060405234801561001057600080fd5b506004361061004c5760003560e01c8063609f70701461005157806360e0159414610081578063cfb51928146100b1578063ff74927b146100e1575b600080fd5b61006b6004803603810190610066919061051b565b610111565b604051610078919061064a565b60405180910390f35b61009b6004803603810190610096919061066c565b6101e9565b6040516100a891906106ce565b60405180910390f35b6100cb60048036038101906100c6919061066c565b6101fb565b6040516100d891906106ce565b60405180910390f35b6100fb60048036038101906100f691906106e9565b61022b565b604051610108919061064a565b60405180910390f35b60606101e061019c6101586040518060400160405280600a81526020017f436f6e74726163743a20000000000000000000000000000000000000000000008152508761022b565b6101976040518060400160405280600b81526020017f2c46756e6374696f6e3a200000000000000000000000000000000000000000008152508761022b565b61022b565b6101db6040518060400160405280600a81526020017f2c4d6573736167653a20000000000000000000000000000000000000000000008152508561022b565b61022b565b90509392505050565b60006101f4826101fb565b9050919050565b60008160405160200161020e919061079d565b604051602081830303815290604052805190602001209050919050565b60606000839050600083905060008151835161024791906107ed565b67ffffffffffffffff8111156102605761025f6103f0565b5b6040519080825280601f01601f1916602001820160405280156102925781602001600182028036833780820191505090505b50905060008190506000805b8551811015610326578581815181106102ba576102b9610843565b5b602001015160f81c60f81b8383806102d190610872565b9450815181106102e4576102e3610843565b5b60200101907effffffffffffffffffffffffffffffffffffffffffffffffffffffffffffff1916908160001a905350808061031e90610872565b91505061029e565b5060005b84518110156103b25784818151811061034657610345610843565b5b602001015160f81c60f81b83838061035d90610872565b9450815181106103705761036f610843565b5b60200101907effffffffffffffffffffffffffffffffffffffffffffffffffffffffffffff1916908160001a90535080806103aa90610872565b91505061032a565b50829550505050505092915050565b6000604051905090565b600080fd5b600080fd5b600080fd5b600080fd5b6000601f19601f8301169050919050565b7f4e487b7100000000000000000000000000000000000000000000000000000000600052604160045260246000fd5b610428826103df565b810181811067ffffffffffffffff82111715610447576104466103f0565b5b80604052505050565b600061045a6103c1565b9050610466828261041f565b919050565b600067ffffffffffffffff821115610486576104856103f0565b5b61048f826103df565b9050602081019050919050565b82818337600083830152505050565b60006104be6104b98461046b565b610450565b9050828152602081018484840111156104da576104d96103da565b5b6104e584828561049c565b509392505050565b600082601f830112610502576105016103d5565b5b81356105128482602086016104ab565b91505092915050565b600080600060608486031215610534576105336103cb565b5b600084013567ffffffffffffffff811115610552576105516103d0565b5b61055e868287016104ed565b935050602084013567ffffffffffffffff81111561057f5761057e6103d0565b5b61058b868287016104ed565b925050604084013567ffffffffffffffff8111156105ac576105ab6103d0565b5b6105b8868287016104ed565b9150509250925092565b600081519050919050565b600082825260208201905092915050565b60005b838110156105fc5780820151818401526020810190506105e1565b8381111561060b576000848401525b50505050565b600061061c826105c2565b61062681856105cd565b93506106368185602086016105de565b61063f816103df565b840191505092915050565b600060208201905081810360008301526106648184610611565b905092915050565b600060208284031215610682576106816103cb565b5b600082013567ffffffffffffffff8111156106a05761069f6103d0565b5b6106ac848285016104ed565b91505092915050565b6000819050919050565b6106c8816106b5565b82525050565b60006020820190506106e360008301846106bf565b92915050565b60008060408385031215610700576106ff6103cb565b5b600083013567ffffffffffffffff81111561071e5761071d6103d0565b5b61072a858286016104ed565b925050602083013567ffffffffffffffff81111561074b5761074a6103d0565b5b610757858286016104ed565b9150509250929050565b600081905092915050565b6000610777826105c2565b6107818185610761565b93506107918185602086016105de565b80840191505092915050565b60006107a9828461076c565b915081905092915050565b6000819050919050565b7f4e487b7100000000000000000000000000000000000000000000000000000000600052601160045260246000fd5b60006107f8826107b4565b9150610803836107b4565b9250827fffffffffffffffffffffffffffffffffffffffffffffffffffffffffffffffff03821115610838576108376107be565b5b828201905092915050565b7f4e487b7100000000000000000000000000000000000000000000000000000000600052603260045260246000fd5b600061087d826107b4565b91507fffffffffffffffffffffffffffffffffffffffffffffffffffffffffffffffff8214156108b0576108af6107be565b5b60018201905091905056fea264697066735822122047b1125c7482d214ad1c81c531cbd6aa8a8afb01f5957277a5986aaa40ffd58764736f6c634300080b0033",
					"opcodes": "PUSH1 0x80 PUSH1 0x40 MSTORE CALLVALUE DUP1 ISZERO PUSH2 0x10 JUMPI PUSH1 0x0 DUP1 REVERT JUMPDEST POP PUSH2 0x8F1 DUP1 PUSH2 0x20 PUSH1 0x0 CODECOPY PUSH1 0x0 RETURN INVALID PUSH1 0x80 PUSH1 0x40 MSTORE CALLVALUE DUP1 ISZERO PUSH2 0x10 JUMPI PUSH1 0x0 DUP1 REVERT JUMPDEST POP PUSH1 0x4 CALLDATASIZE LT PUSH2 0x4C JUMPI PUSH1 0x0 CALLDATALOAD PUSH1 0xE0 SHR DUP1 PUSH4 0x609F7070 EQ PUSH2 0x51 JUMPI DUP1 PUSH4 0x60E01594 EQ PUSH2 0x81 JUMPI DUP1 PUSH4 0xCFB51928 EQ PUSH2 0xB1 JUMPI DUP1 PUSH4 0xFF74927B EQ PUSH2 0xE1 JUMPI JUMPDEST PUSH1 0x0 DUP1 REVERT JUMPDEST PUSH2 0x6B PUSH1 0x4 DUP1 CALLDATASIZE SUB DUP2 ADD SWAP1 PUSH2 0x66 SWAP2 SWAP1 PUSH2 0x51B JUMP JUMPDEST PUSH2 0x111 JUMP JUMPDEST PUSH1 0x40 MLOAD PUSH2 0x78 SWAP2 SWAP1 PUSH2 0x64A JUMP JUMPDEST PUSH1 0x40 MLOAD DUP1 SWAP2 SUB SWAP1 RETURN JUMPDEST PUSH2 0x9B PUSH1 0x4 DUP1 CALLDATASIZE SUB DUP2 ADD SWAP1 PUSH2 0x96 SWAP2 SWAP1 PUSH2 0x66C JUMP JUMPDEST PUSH2 0x1E9 JUMP JUMPDEST PUSH1 0x40 MLOAD PUSH2 0xA8 SWAP2 SWAP1 PUSH2 0x6CE JUMP JUMPDEST PUSH1 0x40 MLOAD DUP1 SWAP2 SUB SWAP1 RETURN JUMPDEST PUSH2 0xCB PUSH1 0x4 DUP1 CALLDATASIZE SUB DUP2 ADD SWAP1 PUSH2 0xC6 SWAP2 SWAP1 PUSH2 0x66C JUMP JUMPDEST PUSH2 0x1FB JUMP JUMPDEST PUSH1 0x40 MLOAD PUSH2 0xD8 SWAP2 SWAP1 PUSH2 0x6CE JUMP JUMPDEST PUSH1 0x40 MLOAD DUP1 SWAP2 SUB SWAP1 RETURN JUMPDEST PUSH2 0xFB PUSH1 0x4 DUP1 CALLDATASIZE SUB DUP2 ADD SWAP1 PUSH2 0xF6 SWAP2 SWAP1 PUSH2 0x6E9 JUMP JUMPDEST PUSH2 0x22B JUMP JUMPDEST PUSH1 0x40 MLOAD PUSH2 0x108 SWAP2 SWAP1 PUSH2 0x64A JUMP JUMPDEST PUSH1 0x40 MLOAD DUP1 SWAP2 SUB SWAP1 RETURN JUMPDEST PUSH1 0x60 PUSH2 0x1E0 PUSH2 0x19C PUSH2 0x158 PUSH1 0x40 MLOAD DUP1 PUSH1 0x40 ADD PUSH1 0x40 MSTORE DUP1 PUSH1 0xA DUP2 MSTORE PUSH1 0x20 ADD PUSH32 0x436F6E74726163743A2000000000000000000000000000000000000000000000 DUP2 MSTORE POP DUP8 PUSH2 0x22B JUMP JUMPDEST PUSH2 0x197 PUSH1 0x40 MLOAD DUP1 PUSH1 0x40 ADD PUSH1 0x40 MSTORE DUP1 PUSH1 0xB DUP2 MSTORE PUSH1 0x20 ADD PUSH32 0x2C46756E6374696F6E3A20000000000000000000000000000000000000000000 DUP2 MSTORE POP DUP8 PUSH2 0x22B JUMP JUMPDEST PUSH2 0x22B JUMP JUMPDEST PUSH2 0x1DB PUSH1 0x40 MLOAD DUP1 PUSH1 0x40 ADD PUSH1 0x40 MSTORE DUP1 PUSH1 0xA DUP2 MSTORE PUSH1 0x20 ADD PUSH32 0x2C4D6573736167653A2000000000000000000000000000000000000000000000 DUP2 MSTORE POP DUP6 PUSH2 0x22B JUMP JUMPDEST PUSH2 0x22B JUMP JUMPDEST SWAP1 POP SWAP4 SWAP3 POP POP POP JUMP JUMPDEST PUSH1 0x0 PUSH2 0x1F4 DUP3 PUSH2 0x1FB JUMP JUMPDEST SWAP1 POP SWAP2 SWAP1 POP JUMP JUMPDEST PUSH1 0x0 DUP2 PUSH1 0x40 MLOAD PUSH1 0x20 ADD PUSH2 0x20E SWAP2 SWAP1 PUSH2 0x79D JUMP JUMPDEST PUSH1 0x40 MLOAD PUSH1 0x20 DUP2 DUP4 SUB SUB DUP2 MSTORE SWAP1 PUSH1 0x40 MSTORE DUP1 MLOAD SWAP1 PUSH1 0x20 ADD KECCAK256 SWAP1 POP SWAP2 SWAP1 POP JUMP JUMPDEST PUSH1 0x60 PUSH1 0x0 DUP4 SWAP1 POP PUSH1 0x0 DUP4 SWAP1 POP PUSH1 0x0 DUP2 MLOAD DUP4 MLOAD PUSH2 0x247 SWAP2 SWAP1 PUSH2 0x7ED JUMP JUMPDEST PUSH8 0xFFFFFFFFFFFFFFFF DUP2 GT ISZERO PUSH2 0x260 JUMPI PUSH2 0x25F PUSH2 0x3F0 JUMP JUMPDEST JUMPDEST PUSH1 0x40 MLOAD SWAP1 DUP1 DUP3 MSTORE DUP1 PUSH1 0x1F ADD PUSH1 0x1F NOT AND PUSH1 0x20 ADD DUP3 ADD PUSH1 0x40 MSTORE DUP1 ISZERO PUSH2 0x292 JUMPI DUP2 PUSH1 0x20 ADD PUSH1 0x1 DUP3 MUL DUP1 CALLDATASIZE DUP4 CALLDATACOPY DUP1 DUP3 ADD SWAP2 POP POP SWAP1 POP JUMPDEST POP SWAP1 POP PUSH1 0x0 DUP2 SWAP1 POP PUSH1 0x0 DUP1 JUMPDEST DUP6 MLOAD DUP2 LT ISZERO PUSH2 0x326 JUMPI DUP6 DUP2 DUP2 MLOAD DUP2 LT PUSH2 0x2BA JUMPI PUSH2 0x2B9 PUSH2 0x843 JUMP JUMPDEST JUMPDEST PUSH1 0x20 ADD ADD MLOAD PUSH1 0xF8 SHR PUSH1 0xF8 SHL DUP4 DUP4 DUP1 PUSH2 0x2D1 SWAP1 PUSH2 0x872 JUMP JUMPDEST SWAP5 POP DUP2 MLOAD DUP2 LT PUSH2 0x2E4 JUMPI PUSH2 0x2E3 PUSH2 0x843 JUMP JUMPDEST JUMPDEST PUSH1 0x20 ADD ADD SWAP1 PUSH31 0xFFFFFFFFFFFFFFFFFFFFFFFFFFFFFFFFFFFFFFFFFFFFFFFFFFFFFFFFFFFFFF NOT AND SWAP1 DUP2 PUSH1 0x0 BYTE SWAP1 MSTORE8 POP DUP1 DUP1 PUSH2 0x31E SWAP1 PUSH2 0x872 JUMP JUMPDEST SWAP2 POP POP PUSH2 0x29E JUMP JUMPDEST POP PUSH1 0x0 JUMPDEST DUP5 MLOAD DUP2 LT ISZERO PUSH2 0x3B2 JUMPI DUP5 DUP2 DUP2 MLOAD DUP2 LT PUSH2 0x346 JUMPI PUSH2 0x345 PUSH2 0x843 JUMP JUMPDEST JUMPDEST PUSH1 0x20 ADD ADD MLOAD PUSH1 0xF8 SHR PUSH1 0xF8 SHL DUP4 DUP4 DUP1 PUSH2 0x35D SWAP1 PUSH2 0x872 JUMP JUMPDEST SWAP5 POP DUP2 MLOAD DUP2 LT PUSH2 0x370 JUMPI PUSH2 0x36F PUSH2 0x843 JUMP JUMPDEST JUMPDEST PUSH1 0x20 ADD ADD SWAP1 PUSH31 0xFFFFFFFFFFFFFFFFFFFFFFFFFFFFFFFFFFFFFFFFFFFFFFFFFFFFFFFFFFFFFF NOT AND SWAP1 DUP2 PUSH1 0x0 BYTE SWAP1 MSTORE8 POP DUP1 DUP1 PUSH2 0x3AA SWAP1 PUSH2 0x872 JUMP JUMPDEST SWAP2 POP POP PUSH2 0x32A JUMP JUMPDEST POP DUP3 SWAP6 POP POP POP POP POP POP SWAP3 SWAP2 POP POP JUMP JUMPDEST PUSH1 0x0 PUSH1 0x40 MLOAD SWAP1 POP SWAP1 JUMP JUMPDEST PUSH1 0x0 DUP1 REVERT JUMPDEST PUSH1 0x0 DUP1 REVERT JUMPDEST PUSH1 0x0 DUP1 REVERT JUMPDEST PUSH1 0x0 DUP1 REVERT JUMPDEST PUSH1 0x0 PUSH1 0x1F NOT PUSH1 0x1F DUP4 ADD AND SWAP1 POP SWAP2 SWAP1 POP JUMP JUMPDEST PUSH32 0x4E487B7100000000000000000000000000000000000000000000000000000000 PUSH1 0x0 MSTORE PUSH1 0x41 PUSH1 0x4 MSTORE PUSH1 0x24 PUSH1 0x0 REVERT JUMPDEST PUSH2 0x428 DUP3 PUSH2 0x3DF JUMP JUMPDEST DUP2 ADD DUP2 DUP2 LT PUSH8 0xFFFFFFFFFFFFFFFF DUP3 GT OR ISZERO PUSH2 0x447 JUMPI PUSH2 0x446 PUSH2 0x3F0 JUMP JUMPDEST JUMPDEST DUP1 PUSH1 0x40 MSTORE POP POP POP JUMP JUMPDEST PUSH1 0x0 PUSH2 0x45A PUSH2 0x3C1 JUMP JUMPDEST SWAP1 POP PUSH2 0x466 DUP3 DUP3 PUSH2 0x41F JUMP JUMPDEST SWAP2 SWAP1 POP JUMP JUMPDEST PUSH1 0x0 PUSH8 0xFFFFFFFFFFFFFFFF DUP3 GT ISZERO PUSH2 0x486 JUMPI PUSH2 0x485 PUSH2 0x3F0 JUMP JUMPDEST JUMPDEST PUSH2 0x48F DUP3 PUSH2 0x3DF JUMP JUMPDEST SWAP1 POP PUSH1 0x20 DUP2 ADD SWAP1 POP SWAP2 SWAP1 POP JUMP JUMPDEST DUP3 DUP2 DUP4 CALLDATACOPY PUSH1 0x0 DUP4 DUP4 ADD MSTORE POP POP POP JUMP JUMPDEST PUSH1 0x0 PUSH2 0x4BE PUSH2 0x4B9 DUP5 PUSH2 0x46B JUMP JUMPDEST PUSH2 0x450 JUMP JUMPDEST SWAP1 POP DUP3 DUP2 MSTORE PUSH1 0x20 DUP2 ADD DUP5 DUP5 DUP5 ADD GT ISZERO PUSH2 0x4DA JUMPI PUSH2 0x4D9 PUSH2 0x3DA JUMP JUMPDEST JUMPDEST PUSH2 0x4E5 DUP5 DUP3 DUP6 PUSH2 0x49C JUMP JUMPDEST POP SWAP4 SWAP3 POP POP POP JUMP JUMPDEST PUSH1 0x0 DUP3 PUSH1 0x1F DUP4 ADD SLT PUSH2 0x502 JUMPI PUSH2 0x501 PUSH2 0x3D5 JUMP JUMPDEST JUMPDEST DUP2 CALLDATALOAD PUSH2 0x512 DUP5 DUP3 PUSH1 0x20 DUP7 ADD PUSH2 0x4AB JUMP JUMPDEST SWAP2 POP POP SWAP3 SWAP2 POP POP JUMP JUMPDEST PUSH1 0x0 DUP1 PUSH1 0x0 PUSH1 0x60 DUP5 DUP7 SUB SLT ISZERO PUSH2 0x534 JUMPI PUSH2 0x533 PUSH2 0x3CB JUMP JUMPDEST JUMPDEST PUSH1 0x0 DUP5 ADD CALLDATALOAD PUSH8 0xFFFFFFFFFFFFFFFF DUP2 GT ISZERO PUSH2 0x552 JUMPI PUSH2 0x551 PUSH2 0x3D0 JUMP JUMPDEST JUMPDEST PUSH2 0x55E DUP7 DUP3 DUP8 ADD PUSH2 0x4ED JUMP JUMPDEST SWAP4 POP POP PUSH1 0x20 DUP5 ADD CALLDATALOAD PUSH8 0xFFFFFFFFFFFFFFFF DUP2 GT ISZERO PUSH2 0x57F JUMPI PUSH2 0x57E PUSH2 0x3D0 JUMP JUMPDEST JUMPDEST PUSH2 0x58B DUP7 DUP3 DUP8 ADD PUSH2 0x4ED JUMP JUMPDEST SWAP3 POP POP PUSH1 0x40 DUP5 ADD CALLDATALOAD PUSH8 0xFFFFFFFFFFFFFFFF DUP2 GT ISZERO PUSH2 0x5AC JUMPI PUSH2 0x5AB PUSH2 0x3D0 JUMP JUMPDEST JUMPDEST PUSH2 0x5B8 DUP7 DUP3 DUP8 ADD PUSH2 0x4ED JUMP JUMPDEST SWAP2 POP POP SWAP3 POP SWAP3 POP SWAP3 JUMP JUMPDEST PUSH1 0x0 DUP2 MLOAD SWAP1 POP SWAP2 SWAP1 POP JUMP JUMPDEST PUSH1 0x0 DUP3 DUP3 MSTORE PUSH1 0x20 DUP3 ADD SWAP1 POP SWAP3 SWAP2 POP POP JUMP JUMPDEST PUSH1 0x0 JUMPDEST DUP4 DUP2 LT ISZERO PUSH2 0x5FC JUMPI DUP1 DUP3 ADD MLOAD DUP2 DUP5 ADD MSTORE PUSH1 0x20 DUP2 ADD SWAP1 POP PUSH2 0x5E1 JUMP JUMPDEST DUP4 DUP2 GT ISZERO PUSH2 0x60B JUMPI PUSH1 0x0 DUP5 DUP5 ADD MSTORE JUMPDEST POP POP POP POP JUMP JUMPDEST PUSH1 0x0 PUSH2 0x61C DUP3 PUSH2 0x5C2 JUMP JUMPDEST PUSH2 0x626 DUP2 DUP6 PUSH2 0x5CD JUMP JUMPDEST SWAP4 POP PUSH2 0x636 DUP2 DUP6 PUSH1 0x20 DUP7 ADD PUSH2 0x5DE JUMP JUMPDEST PUSH2 0x63F DUP2 PUSH2 0x3DF JUMP JUMPDEST DUP5 ADD SWAP2 POP POP SWAP3 SWAP2 POP POP JUMP JUMPDEST PUSH1 0x0 PUSH1 0x20 DUP3 ADD SWAP1 POP DUP2 DUP2 SUB PUSH1 0x0 DUP4 ADD MSTORE PUSH2 0x664 DUP2 DUP5 PUSH2 0x611 JUMP JUMPDEST SWAP1 POP SWAP3 SWAP2 POP POP JUMP JUMPDEST PUSH1 0x0 PUSH1 0x20 DUP3 DUP5 SUB SLT ISZERO PUSH2 0x682 JUMPI PUSH2 0x681 PUSH2 0x3CB JUMP JUMPDEST JUMPDEST PUSH1 0x0 DUP3 ADD CALLDATALOAD PUSH8 0xFFFFFFFFFFFFFFFF DUP2 GT ISZERO PUSH2 0x6A0 JUMPI PUSH2 0x69F PUSH2 0x3D0 JUMP JUMPDEST JUMPDEST PUSH2 0x6AC DUP5 DUP3 DUP6 ADD PUSH2 0x4ED JUMP JUMPDEST SWAP2 POP POP SWAP3 SWAP2 POP POP JUMP JUMPDEST PUSH1 0x0 DUP2 SWAP1 POP SWAP2 SWAP1 POP JUMP JUMPDEST PUSH2 0x6C8 DUP2 PUSH2 0x6B5 JUMP JUMPDEST DUP3 MSTORE POP POP JUMP JUMPDEST PUSH1 0x0 PUSH1 0x20 DUP3 ADD SWAP1 POP PUSH2 0x6E3 PUSH1 0x0 DUP4 ADD DUP5 PUSH2 0x6BF JUMP JUMPDEST SWAP3 SWAP2 POP POP JUMP JUMPDEST PUSH1 0x0 DUP1 PUSH1 0x40 DUP4 DUP6 SUB SLT ISZERO PUSH2 0x700 JUMPI PUSH2 0x6FF PUSH2 0x3CB JUMP JUMPDEST JUMPDEST PUSH1 0x0 DUP4 ADD CALLDATALOAD PUSH8 0xFFFFFFFFFFFFFFFF DUP2 GT ISZERO PUSH2 0x71E JUMPI PUSH2 0x71D PUSH2 0x3D0 JUMP JUMPDEST JUMPDEST PUSH2 0x72A DUP6 DUP3 DUP7 ADD PUSH2 0x4ED JUMP JUMPDEST SWAP3 POP POP PUSH1 0x20 DUP4 ADD CALLDATALOAD PUSH8 0xFFFFFFFFFFFFFFFF DUP2 GT ISZERO PUSH2 0x74B JUMPI PUSH2 0x74A PUSH2 0x3D0 JUMP JUMPDEST JUMPDEST PUSH2 0x757 DUP6 DUP3 DUP7 ADD PUSH2 0x4ED JUMP JUMPDEST SWAP2 POP POP SWAP3 POP SWAP3 SWAP1 POP JUMP JUMPDEST PUSH1 0x0 DUP2 SWAP1 POP SWAP3 SWAP2 POP POP JUMP JUMPDEST PUSH1 0x0 PUSH2 0x777 DUP3 PUSH2 0x5C2 JUMP JUMPDEST PUSH2 0x781 DUP2 DUP6 PUSH2 0x761 JUMP JUMPDEST SWAP4 POP PUSH2 0x791 DUP2 DUP6 PUSH1 0x20 DUP7 ADD PUSH2 0x5DE JUMP JUMPDEST DUP1 DUP5 ADD SWAP2 POP POP SWAP3 SWAP2 POP POP JUMP JUMPDEST PUSH1 0x0 PUSH2 0x7A9 DUP3 DUP5 PUSH2 0x76C JUMP JUMPDEST SWAP2 POP DUP2 SWAP1 POP SWAP3 SWAP2 POP POP JUMP JUMPDEST PUSH1 0x0 DUP2 SWAP1 POP SWAP2 SWAP1 POP JUMP JUMPDEST PUSH32 0x4E487B7100000000000000000000000000000000000000000000000000000000 PUSH1 0x0 MSTORE PUSH1 0x11 PUSH1 0x4 MSTORE PUSH1 0x24 PUSH1 0x0 REVERT JUMPDEST PUSH1 0x0 PUSH2 0x7F8 DUP3 PUSH2 0x7B4 JUMP JUMPDEST SWAP2 POP PUSH2 0x803 DUP4 PUSH2 0x7B4 JUMP JUMPDEST SWAP3 POP DUP3 PUSH32 0xFFFFFFFFFFFFFFFFFFFFFFFFFFFFFFFFFFFFFFFFFFFFFFFFFFFFFFFFFFFFFFFF SUB DUP3 GT ISZERO PUSH2 0x838 JUMPI PUSH2 0x837 PUSH2 0x7BE JUMP JUMPDEST JUMPDEST DUP3 DUP3 ADD SWAP1 POP SWAP3 SWAP2 POP POP JUMP JUMPDEST PUSH32 0x4E487B7100000000000000000000000000000000000000000000000000000000 PUSH1 0x0 MSTORE PUSH1 0x32 PUSH1 0x4 MSTORE PUSH1 0x24 PUSH1 0x0 REVERT JUMPDEST PUSH1 0x0 PUSH2 0x87D DUP3 PUSH2 0x7B4 JUMP JUMPDEST SWAP2 POP PUSH32 0xFFFFFFFFFFFFFFFFFFFFFFFFFFFFFFFFFFFFFFFFFFFFFFFFFFFFFFFFFFFFFFFF DUP3 EQ ISZERO PUSH2 0x8B0 JUMPI PUSH2 0x8AF PUSH2 0x7BE JUMP JUMPDEST JUMPDEST PUSH1 0x1 DUP3 ADD SWAP1 POP SWAP2 SWAP1 POP JUMP INVALID LOG2 PUSH5 0x6970667358 0x22 SLT KECCAK256 SELFBALANCE 0xB1 SLT 0x5C PUSH21 0x82D214AD1C81C531CBD6AA8A8AFB01F5957277A598 PUSH11 0xAA40FFD58764736F6C6343 STOP ADDMOD SIGNEXTEND STOP CALLER "
				},
				"gasEstimates": {
					"creation": {
						"codeDepositCost": "457800",
						"executionCost": "493",
						"totalCost": "458293"
					},
					"external": {
						"error(string,string,string)": "infinite",
						"strConcat(string,string)": "infinite",
						"stringToBytes32(string)": "infinite",
						"toRole(string)": "infinite"
					}
				},
				"methodIdentifiers": {
					"error(string,string,string)": "609f7070",
					"strConcat(string,string)": "ff74927b",
					"stringToBytes32(string)": "cfb51928",
					"toRole(string)": "60e01594"
				}
			},
			"storageLayout": {
				"storage": [],
				"types": null
			},
			"userdoc": {
				"kind": "user",
				"methods": {},
				"version": 1
			}
		}
	}
}