{
	"data": {
		"bytecode": {
			"linkReferences": {},
			"object": "608060405234801561001057600080fd5b5061037b806100206000396000f3fe608060405234801561001057600080fd5b50600436106100365760003560e01c806360e015941461003b578063cfb519281461006b575b600080fd5b61005560048036038101906100509190610237565b61009b565b6040516100629190610299565b60405180910390f35b61008560048036038101906100809190610237565b6100ad565b6040516100929190610299565b60405180910390f35b60006100a6826100ad565b9050919050565b6000816040516020016100c0919061032e565b604051602081830303815290604052805190602001209050919050565b6000604051905090565b600080fd5b600080fd5b600080fd5b600080fd5b6000601f19601f8301169050919050565b7f4e487b7100000000000000000000000000000000000000000000000000000000600052604160045260246000fd5b610144826100fb565b810181811067ffffffffffffffff821117156101635761016261010c565b5b80604052505050565b60006101766100dd565b9050610182828261013b565b919050565b600067ffffffffffffffff8211156101a2576101a161010c565b5b6101ab826100fb565b9050602081019050919050565b82818337600083830152505050565b60006101da6101d584610187565b61016c565b9050828152602081018484840111156101f6576101f56100f6565b5b6102018482856101b8565b509392505050565b600082601f83011261021e5761021d6100f1565b5b813561022e8482602086016101c7565b91505092915050565b60006020828403121561024d5761024c6100e7565b5b600082013567ffffffffffffffff81111561026b5761026a6100ec565b5b61027784828501610209565b91505092915050565b6000819050919050565b61029381610280565b82525050565b60006020820190506102ae600083018461028a565b92915050565b600081519050919050565b600081905092915050565b60005b838110156102e85780820151818401526020810190506102cd565b838111156102f7576000848401525b50505050565b6000610308826102b4565b61031281856102bf565b93506103228185602086016102ca565b80840191505092915050565b600061033a82846102fd565b91508190509291505056fea264697066735822122084b813b1258484c830c29ffd438b602d7b5549a98c3f7f4a66d9fb8f6ee459ab64736f6c634300080b0033",
			"opcodes": "PUSH1 0x80 PUSH1 0x40 MSTORE CALLVALUE DUP1 ISZERO PUSH2 0x10 JUMPI PUSH1 0x0 DUP1 REVERT JUMPDEST POP PUSH2 0x37B DUP1 PUSH2 0x20 PUSH1 0x0 CODECOPY PUSH1 0x0 RETURN INVALID PUSH1 0x80 PUSH1 0x40 MSTORE CALLVALUE DUP1 ISZERO PUSH2 0x10 JUMPI PUSH1 0x0 DUP1 REVERT JUMPDEST POP PUSH1 0x4 CALLDATASIZE LT PUSH2 0x36 JUMPI PUSH1 0x0 CALLDATALOAD PUSH1 0xE0 SHR DUP1 PUSH4 0x60E01594 EQ PUSH2 0x3B JUMPI DUP1 PUSH4 0xCFB51928 EQ PUSH2 0x6B JUMPI JUMPDEST PUSH1 0x0 DUP1 REVERT JUMPDEST PUSH2 0x55 PUSH1 0x4 DUP1 CALLDATASIZE SUB DUP2 ADD SWAP1 PUSH2 0x50 SWAP2 SWAP1 PUSH2 0x237 JUMP JUMPDEST PUSH2 0x9B JUMP JUMPDEST PUSH1 0x40 MLOAD PUSH2 0x62 SWAP2 SWAP1 PUSH2 0x299 JUMP JUMPDEST PUSH1 0x40 MLOAD DUP1 SWAP2 SUB SWAP1 RETURN JUMPDEST PUSH2 0x85 PUSH1 0x4 DUP1 CALLDATASIZE SUB DUP2 ADD SWAP1 PUSH2 0x80 SWAP2 SWAP1 PUSH2 0x237 JUMP JUMPDEST PUSH2 0xAD JUMP JUMPDEST PUSH1 0x40 MLOAD PUSH2 0x92 SWAP2 SWAP1 PUSH2 0x299 JUMP JUMPDEST PUSH1 0x40 MLOAD DUP1 SWAP2 SUB SWAP1 RETURN JUMPDEST PUSH1 0x0 PUSH2 0xA6 DUP3 PUSH2 0xAD JUMP JUMPDEST SWAP1 POP SWAP2 SWAP1 POP JUMP JUMPDEST PUSH1 0x0 DUP2 PUSH1 0x40 MLOAD PUSH1 0x20 ADD PUSH2 0xC0 SWAP2 SWAP1 PUSH2 0x32E JUMP JUMPDEST PUSH1 0x40 MLOAD PUSH1 0x20 DUP2 DUP4 SUB SUB DUP2 MSTORE SWAP1 PUSH1 0x40 MSTORE DUP1 MLOAD SWAP1 PUSH1 0x20 ADD KECCAK256 SWAP1 POP SWAP2 SWAP1 POP JUMP JUMPDEST PUSH1 0x0 PUSH1 0x40 MLOAD SWAP1 POP SWAP1 JUMP JUMPDEST PUSH1 0x0 DUP1 REVERT JUMPDEST PUSH1 0x0 DUP1 REVERT JUMPDEST PUSH1 0x0 DUP1 REVERT JUMPDEST PUSH1 0x0 DUP1 REVERT JUMPDEST PUSH1 0x0 PUSH1 0x1F NOT PUSH1 0x1F DUP4 ADD AND SWAP1 POP SWAP2 SWAP1 POP JUMP JUMPDEST PUSH32 0x4E487B7100000000000000000000000000000000000000000000000000000000 PUSH1 0x0 MSTORE PUSH1 0x41 PUSH1 0x4 MSTORE PUSH1 0x24 PUSH1 0x0 REVERT JUMPDEST PUSH2 0x144 DUP3 PUSH2 0xFB JUMP JUMPDEST DUP2 ADD DUP2 DUP2 LT PUSH8 0xFFFFFFFFFFFFFFFF DUP3 GT OR ISZERO PUSH2 0x163 JUMPI PUSH2 0x162 PUSH2 0x10C JUMP JUMPDEST JUMPDEST DUP1 PUSH1 0x40 MSTORE POP POP POP JUMP JUMPDEST PUSH1 0x0 PUSH2 0x176 PUSH2 0xDD JUMP JUMPDEST SWAP1 POP PUSH2 0x182 DUP3 DUP3 PUSH2 0x13B JUMP JUMPDEST SWAP2 SWAP1 POP JUMP JUMPDEST PUSH1 0x0 PUSH8 0xFFFFFFFFFFFFFFFF DUP3 GT ISZERO PUSH2 0x1A2 JUMPI PUSH2 0x1A1 PUSH2 0x10C JUMP JUMPDEST JUMPDEST PUSH2 0x1AB DUP3 PUSH2 0xFB JUMP JUMPDEST SWAP1 POP PUSH1 0x20 DUP2 ADD SWAP1 POP SWAP2 SWAP1 POP JUMP JUMPDEST DUP3 DUP2 DUP4 CALLDATACOPY PUSH1 0x0 DUP4 DUP4 ADD MSTORE POP POP POP JUMP JUMPDEST PUSH1 0x0 PUSH2 0x1DA PUSH2 0x1D5 DUP5 PUSH2 0x187 JUMP JUMPDEST PUSH2 0x16C JUMP JUMPDEST SWAP1 POP DUP3 DUP2 MSTORE PUSH1 0x20 DUP2 ADD DUP5 DUP5 DUP5 ADD GT ISZERO PUSH2 0x1F6 JUMPI PUSH2 0x1F5 PUSH2 0xF6 JUMP JUMPDEST JUMPDEST PUSH2 0x201 DUP5 DUP3 DUP6 PUSH2 0x1B8 JUMP JUMPDEST POP SWAP4 SWAP3 POP POP POP JUMP JUMPDEST PUSH1 0x0 DUP3 PUSH1 0x1F DUP4 ADD SLT PUSH2 0x21E JUMPI PUSH2 0x21D PUSH2 0xF1 JUMP JUMPDEST JUMPDEST DUP2 CALLDATALOAD PUSH2 0x22E DUP5 DUP3 PUSH1 0x20 DUP7 ADD PUSH2 0x1C7 JUMP JUMPDEST SWAP2 POP POP SWAP3 SWAP2 POP POP JUMP JUMPDEST PUSH1 0x0 PUSH1 0x20 DUP3 DUP5 SUB SLT ISZERO PUSH2 0x24D JUMPI PUSH2 0x24C PUSH2 0xE7 JUMP JUMPDEST JUMPDEST PUSH1 0x0 DUP3 ADD CALLDATALOAD PUSH8 0xFFFFFFFFFFFFFFFF DUP2 GT ISZERO PUSH2 0x26B JUMPI PUSH2 0x26A PUSH2 0xEC JUMP JUMPDEST JUMPDEST PUSH2 0x277 DUP5 DUP3 DUP6 ADD PUSH2 0x209 JUMP JUMPDEST SWAP2 POP POP SWAP3 SWAP2 POP POP JUMP JUMPDEST PUSH1 0x0 DUP2 SWAP1 POP SWAP2 SWAP1 POP JUMP JUMPDEST PUSH2 0x293 DUP2 PUSH2 0x280 JUMP JUMPDEST DUP3 MSTORE POP POP JUMP JUMPDEST PUSH1 0x0 PUSH1 0x20 DUP3 ADD SWAP1 POP PUSH2 0x2AE PUSH1 0x0 DUP4 ADD DUP5 PUSH2 0x28A JUMP JUMPDEST SWAP3 SWAP2 POP POP JUMP JUMPDEST PUSH1 0x0 DUP2 MLOAD SWAP1 POP SWAP2 SWAP1 POP JUMP JUMPDEST PUSH1 0x0 DUP2 SWAP1 POP SWAP3 SWAP2 POP POP JUMP JUMPDEST PUSH1 0x0 JUMPDEST DUP4 DUP2 LT ISZERO PUSH2 0x2E8 JUMPI DUP1 DUP3 ADD MLOAD DUP2 DUP5 ADD MSTORE PUSH1 0x20 DUP2 ADD SWAP1 POP PUSH2 0x2CD JUMP JUMPDEST DUP4 DUP2 GT ISZERO PUSH2 0x2F7 JUMPI PUSH1 0x0 DUP5 DUP5 ADD MSTORE JUMPDEST POP POP POP POP JUMP JUMPDEST PUSH1 0x0 PUSH2 0x308 DUP3 PUSH2 0x2B4 JUMP JUMPDEST PUSH2 0x312 DUP2 DUP6 PUSH2 0x2BF JUMP JUMPDEST SWAP4 POP PUSH2 0x322 DUP2 DUP6 PUSH1 0x20 DUP7 ADD PUSH2 0x2CA JUMP JUMPDEST DUP1 DUP5 ADD SWAP2 POP POP SWAP3 SWAP2 POP POP JUMP JUMPDEST PUSH1 0x0 PUSH2 0x33A DUP3 DUP5 PUSH2 0x2FD JUMP JUMPDEST SWAP2 POP DUP2 SWAP1 POP SWAP3 SWAP2 POP POP JUMP INVALID LOG2 PUSH5 0x6970667358 0x22 SLT KECCAK256 DUP5 0xB8 SGT 0xB1 0x25 DUP5 DUP5 0xC8 ADDRESS 0xC2 SWAP16 REVERT NUMBER DUP12 PUSH1 0x2D PUSH28 0x5549A98C3F7F4A66D9FB8F6EE459AB64736F6C634300080B00330000 "
		},
		"gasEstimates": {
			"creation": {
				"codeDepositCost": "178200",
				"executionCost": "220",
				"totalCost": "178420"
			},
			"external": {
				"stringToBytes32(string)": "infinite",
				"toRole(string)": "infinite"
			}
		},
		"methodIdentifiers": {
			"stringToBytes32(string)": "cfb51928",
			"toRole(string)": "60e01594"
		}
	},
	"abi": [
		{
			"inputs": [
				{
					"internalType": "string",
					"name": "str",
					"type": "string"
				}
			],
			"name": "stringToBytes32",
			"outputs": [
				{
					"internalType": "bytes32",
					"name": "",
					"type": "bytes32"
				}
			],
			"stateMutability": "pure",
			"type": "function"
		},
		{
			"inputs": [
				{
					"internalType": "string",
					"name": "str",
					"type": "string"
				}
			],
			"name": "toRole",
			"outputs": [
				{
					"internalType": "bytes32",
					"name": "",
					"type": "bytes32"
				}
			],
			"stateMutability": "pure",
			"type": "function"
		}
	]
}