{
	"1127/CompanyLogic.sol": {
		"CompanyLogic": {
			"abi": [
				{
					"inputs": [],
					"stateMutability": "nonpayable",
					"type": "constructor"
				},
				{
					"anonymous": false,
					"inputs": [
						{
							"indexed": false,
							"internalType": "string",
							"name": "groupName",
							"type": "string"
						},
						{
							"indexed": false,
							"internalType": "string",
							"name": "company_name",
							"type": "string"
						}
					],
					"name": "NewAssetGroupAdd",
					"type": "event"
				},
				{
					"anonymous": false,
					"inputs": [
						{
							"indexed": false,
							"internalType": "string",
							"name": "groupName",
							"type": "string"
						},
						{
							"indexed": false,
							"internalType": "string",
							"name": "company_name",
							"type": "string"
						}
					],
					"name": "NewAssetGroupClose",
					"type": "event"
				},
				{
					"anonymous": false,
					"inputs": [
						{
							"indexed": false,
							"internalType": "string",
							"name": "did",
							"type": "string"
						},
						{
							"indexed": false,
							"internalType": "string",
							"name": "company_name",
							"type": "string"
						}
					],
					"name": "NewWorkerAdd",
					"type": "event"
				},
				{
					"anonymous": false,
					"inputs": [
						{
							"indexed": false,
							"internalType": "string",
							"name": "did",
							"type": "string"
						},
						{
							"indexed": false,
							"internalType": "string",
							"name": "company_name",
							"type": "string"
						}
					],
					"name": "NewWorkerRemoved",
					"type": "event"
				},
				{
					"anonymous": false,
					"inputs": [
						{
							"indexed": true,
							"internalType": "bytes32",
							"name": "role",
							"type": "bytes32"
						},
						{
							"indexed": true,
							"internalType": "bytes32",
							"name": "previousAdminRole",
							"type": "bytes32"
						},
						{
							"indexed": true,
							"internalType": "bytes32",
							"name": "newAdminRole",
							"type": "bytes32"
						}
					],
					"name": "RoleAdminChanged",
					"type": "event"
				},
				{
					"anonymous": false,
					"inputs": [
						{
							"indexed": true,
							"internalType": "bytes32",
							"name": "role",
							"type": "bytes32"
						},
						{
							"indexed": true,
							"internalType": "address",
							"name": "account",
							"type": "address"
						},
						{
							"indexed": true,
							"internalType": "address",
							"name": "sender",
							"type": "address"
						}
					],
					"name": "RoleGranted",
					"type": "event"
				},
				{
					"anonymous": false,
					"inputs": [
						{
							"indexed": true,
							"internalType": "bytes32",
							"name": "role",
							"type": "bytes32"
						},
						{
							"indexed": true,
							"internalType": "address",
							"name": "account",
							"type": "address"
						},
						{
							"indexed": true,
							"internalType": "address",
							"name": "sender",
							"type": "address"
						}
					],
					"name": "RoleRevoked",
					"type": "event"
				},
				{
					"inputs": [],
					"name": "ADMIN_ROLE",
					"outputs": [
						{
							"internalType": "bytes32",
							"name": "",
							"type": "bytes32"
						}
					],
					"stateMutability": "view",
					"type": "function"
				},
				{
					"inputs": [],
					"name": "DEFAULT_ADMIN",
					"outputs": [
						{
							"internalType": "bytes32",
							"name": "",
							"type": "bytes32"
						}
					],
					"stateMutability": "view",
					"type": "function"
				},
				{
					"inputs": [],
					"name": "WORKER_ROLE",
					"outputs": [
						{
							"internalType": "bytes32",
							"name": "",
							"type": "bytes32"
						}
					],
					"stateMutability": "view",
					"type": "function"
				},
				{
					"inputs": [
						{
							"internalType": "string",
							"name": "_groupName",
							"type": "string"
						}
					],
					"name": "addDataGroup",
					"outputs": [
						{
							"internalType": "bool",
							"name": "",
							"type": "bool"
						}
					],
					"stateMutability": "nonpayable",
					"type": "function"
				},
				{
					"inputs": [
						{
							"internalType": "string",
							"name": "_group",
							"type": "string"
						},
						{
							"internalType": "string",
							"name": "_dataCid",
							"type": "string"
						}
					],
					"name": "addDataInGroup",
					"outputs": [
						{
							"internalType": "bool",
							"name": "",
							"type": "bool"
						}
					],
					"stateMutability": "nonpayable",
					"type": "function"
				},
				{
					"inputs": [
						{
							"internalType": "string",
							"name": "worker_did",
							"type": "string"
						},
						{
							"internalType": "address",
							"name": "worker_address",
							"type": "address"
						}
					],
					"name": "addWorker",
					"outputs": [
						{
							"internalType": "bool",
							"name": "",
							"type": "bool"
						}
					],
					"stateMutability": "nonpayable",
					"type": "function"
				},
				{
					"inputs": [
						{
							"internalType": "bytes32",
							"name": "role",
							"type": "bytes32"
						}
					],
					"name": "checkRole",
					"outputs": [
						{
							"internalType": "bool",
							"name": "",
							"type": "bool"
						}
					],
					"stateMutability": "view",
					"type": "function"
				},
				{
					"inputs": [
						{
							"internalType": "string",
							"name": "_groupName",
							"type": "string"
						}
					],
					"name": "closeDataGroup",
					"outputs": [
						{
							"internalType": "bool",
							"name": "",
							"type": "bool"
						}
					],
					"stateMutability": "nonpayable",
					"type": "function"
				},
				{
					"inputs": [
						{
							"internalType": "bytes32",
							"name": "role",
							"type": "bytes32"
						}
					],
					"name": "getRoleAdmin",
					"outputs": [
						{
							"internalType": "bytes32",
							"name": "",
							"type": "bytes32"
						}
					],
					"stateMutability": "view",
					"type": "function"
				},
				{
					"inputs": [
						{
							"internalType": "bytes32",
							"name": "role",
							"type": "bytes32"
						},
						{
							"internalType": "address",
							"name": "member",
							"type": "address"
						}
					],
					"name": "grantRole",
					"outputs": [
						{
							"internalType": "bool",
							"name": "",
							"type": "bool"
						}
					],
					"stateMutability": "nonpayable",
					"type": "function"
				},
				{
					"inputs": [
						{
							"internalType": "bytes32",
							"name": "role",
							"type": "bytes32"
						},
						{
							"internalType": "address",
							"name": "member",
							"type": "address"
						}
					],
					"name": "hasRole",
					"outputs": [
						{
							"internalType": "bool",
							"name": "",
							"type": "bool"
						}
					],
					"stateMutability": "view",
					"type": "function"
				},
				{
					"inputs": [
						{
							"internalType": "string",
							"name": "worker_did",
							"type": "string"
						}
					],
					"name": "removedWorker",
					"outputs": [
						{
							"internalType": "bool",
							"name": "",
							"type": "bool"
						}
					],
					"stateMutability": "nonpayable",
					"type": "function"
				},
				{
					"inputs": [
						{
							"internalType": "bytes32",
							"name": "role",
							"type": "bytes32"
						},
						{
							"internalType": "address",
							"name": "callerConfirmation",
							"type": "address"
						}
					],
					"name": "renounceRole",
					"outputs": [],
					"stateMutability": "nonpayable",
					"type": "function"
				},
				{
					"inputs": [
						{
							"internalType": "bytes32",
							"name": "role",
							"type": "bytes32"
						},
						{
							"internalType": "address",
							"name": "member",
							"type": "address"
						}
					],
					"name": "revokeRole",
					"outputs": [
						{
							"internalType": "bool",
							"name": "",
							"type": "bool"
						}
					],
					"stateMutability": "nonpayable",
					"type": "function"
				},
				{
					"inputs": [
						{
							"internalType": "string",
							"name": "_group",
							"type": "string"
						},
						{
							"internalType": "uint256",
							"name": "id",
							"type": "uint256"
						},
						{
							"internalType": "string",
							"name": "_dataCid",
							"type": "string"
						}
					],
					"name": "updateDataInGroup",
					"outputs": [
						{
							"internalType": "bool",
							"name": "",
							"type": "bool"
						}
					],
					"stateMutability": "nonpayable",
					"type": "function"
				}
			],
			"devdoc": {
				"kind": "dev",
				"methods": {},
				"version": 1
			},
			"evm": {
				"assembly": "    /* \"1127/CompanyLogic.sol\":128:3776  contract CompanyLogic is AccessControl{... */\n  mstore(0x40, 0x80)\n    /* \"1127/CompanyLogic.sol\":795:851  constructor() AccessControl(msg.sender){... */\n  callvalue\n  dup1\n  iszero\n  tag_1\n  jumpi\n  0x00\n  dup1\n  revert\ntag_1:\n  pop\n    /* \"1127/CompanyLogic.sol\":823:833  msg.sender */\n  caller\n    /* \"1127/util/AccessControl.sol\":970:974  true */\n  0x01\n    /* \"1127/util/AccessControl.sol\":931:936  roles */\n  0x00\n    /* \"1127/util/AccessControl.sol\":931:951  roles[DEFAULT_ADMIN] */\n  dup1\n    /* \"1127/util/AccessControl.sol\":246:250  0x00 */\n  dup1\n    /* \"1127/util/AccessControl.sol\":937:950  DEFAULT_ADMIN */\n  0x00\n  shl\n    /* \"1127/util/AccessControl.sol\":931:951  roles[DEFAULT_ADMIN] */\n  dup2\n  mstore\n  0x20\n  add\n  swap1\n  dup2\n  mstore\n  0x20\n  add\n  0x00\n  keccak256\n    /* \"1127/util/AccessControl.sol\":931:960  roles[DEFAULT_ADMIN].hasRoles */\n  0x00\n  add\n    /* \"1127/util/AccessControl.sol\":931:967  roles[DEFAULT_ADMIN].hasRoles[admin] */\n  0x00\n    /* \"1127/util/AccessControl.sol\":961:966  admin */\n  dup4\n    /* \"1127/util/AccessControl.sol\":931:967  roles[DEFAULT_ADMIN].hasRoles[admin] */\n  0xffffffffffffffffffffffffffffffffffffffff\n  and\n  0xffffffffffffffffffffffffffffffffffffffff\n  and\n  dup2\n  mstore\n  0x20\n  add\n  swap1\n  dup2\n  mstore\n  0x20\n  add\n  0x00\n  keccak256\n  0x00\n    /* \"1127/util/AccessControl.sol\":931:974  roles[DEFAULT_ADMIN].hasRoles[admin] = true */\n  0x0100\n  exp\n  dup2\n  sload\n  dup2\n  0xff\n  mul\n  not\n  and\n  swap1\n  dup4\n  iszero\n  iszero\n  mul\n  or\n  swap1\n  sstore\n  pop\n    /* \"1127/util/AccessControl.sol\":895:981  constructor(address admin){... */\n  pop\n    /* \"1127/CompanyLogic.sol\":128:3776  contract CompanyLogic is AccessControl{... */\n  dataSize(sub_0)\n  dup1\n  dataOffset(sub_0)\n  0x00\n  codecopy\n  0x00\n  return\nstop\n\nsub_0: assembly {\n        /* \"1127/CompanyLogic.sol\":128:3776  contract CompanyLogic is AccessControl{... */\n      mstore(0x40, 0x80)\n      callvalue\n      dup1\n      iszero\n      tag_1\n      jumpi\n      0x00\n      dup1\n      revert\n    tag_1:\n      pop\n      jumpi(tag_2, lt(calldatasize, 0x04))\n      shr(0xe0, calldataload(0x00))\n      dup1\n      0x75b238fc\n      gt\n      tag_18\n      jumpi\n      dup1\n      0x9cdeba95\n      gt\n      tag_19\n      jumpi\n      dup1\n      0x9cdeba95\n      eq\n      tag_14\n      jumpi\n      dup1\n      0xc5b95190\n      eq\n      tag_15\n      jumpi\n      dup1\n      0xd547741f\n      eq\n      tag_16\n      jumpi\n      dup1\n      0xe1b64774\n      eq\n      tag_17\n      jumpi\n      jump(tag_2)\n    tag_19:\n      dup1\n      0x75b238fc\n      eq\n      tag_10\n      jumpi\n      dup1\n      0x82c7ee89\n      eq\n      tag_11\n      jumpi\n      dup1\n      0x91d14854\n      eq\n      tag_12\n      jumpi\n      dup1\n      0x95aec814\n      eq\n      tag_13\n      jumpi\n      jump(tag_2)\n    tag_18:\n      dup1\n      0x36568abe\n      gt\n      tag_20\n      jumpi\n      dup1\n      0x36568abe\n      eq\n      tag_6\n      jumpi\n      dup1\n      0x5d0f4293\n      eq\n      tag_7\n      jumpi\n      dup1\n      0x634252dc\n      eq\n      tag_8\n      jumpi\n      dup1\n      0x7350fca2\n      eq\n      tag_9\n      jumpi\n      jump(tag_2)\n    tag_20:\n      dup1\n      0x20368af3\n      eq\n      tag_3\n      jumpi\n      dup1\n      0x248a9ca3\n      eq\n      tag_4\n      jumpi\n      dup1\n      0x2f2ff15d\n      eq\n      tag_5\n      jumpi\n    tag_2:\n      0x00\n      dup1\n      revert\n        /* \"1127/CompanyLogic.sol\":3459:3769  function updateDataInGroup(string memory _group,uint256 id,string memory _dataCid) public AccessControl.onlyRole(WORKER_ROLE) returns (bool){... */\n    tag_3:\n      tag_21\n      0x04\n      dup1\n      calldatasize\n      sub\n      dup2\n      add\n      swap1\n      tag_22\n      swap2\n      swap1\n      tag_23\n      jump\t// in\n    tag_22:\n      tag_24\n      jump\t// in\n    tag_21:\n      mload(0x40)\n      tag_25\n      swap2\n      swap1\n      tag_26\n      jump\t// in\n    tag_25:\n      mload(0x40)\n      dup1\n      swap2\n      sub\n      swap1\n      return\n        /* \"1127/util/AccessControl.sol\":1379:1490  function getRoleAdmin(bytes32 role) public view returns (bytes32) {... */\n    tag_4:\n      tag_27\n      0x04\n      dup1\n      calldatasize\n      sub\n      dup2\n      add\n      swap1\n      tag_28\n      swap2\n      swap1\n      tag_29\n      jump\t// in\n    tag_28:\n      tag_30\n      jump\t// in\n    tag_27:\n      mload(0x40)\n      tag_31\n      swap2\n      swap1\n      tag_32\n      jump\t// in\n    tag_31:\n      mload(0x40)\n      dup1\n      swap2\n      sub\n      swap1\n      return\n        /* \"1127/util/AccessControl.sol\":1785:2111  function grantRole(bytes32 role, address member)... */\n    tag_5:\n      tag_33\n      0x04\n      dup1\n      calldatasize\n      sub\n      dup2\n      add\n      swap1\n      tag_34\n      swap2\n      swap1\n      tag_35\n      jump\t// in\n    tag_34:\n      tag_36\n      jump\t// in\n    tag_33:\n      mload(0x40)\n      tag_37\n      swap2\n      swap1\n      tag_26\n      jump\t// in\n    tag_37:\n      mload(0x40)\n      dup1\n      swap2\n      sub\n      swap1\n      return\n        /* \"1127/util/AccessControl.sol\":2553:2795  function renounceRole(bytes32 role, address callerConfirmation)... */\n    tag_6:\n      tag_38\n      0x04\n      dup1\n      calldatasize\n      sub\n      dup2\n      add\n      swap1\n      tag_39\n      swap2\n      swap1\n      tag_35\n      jump\t// in\n    tag_39:\n      tag_40\n      jump\t// in\n    tag_38:\n      stop\n        /* \"1127/CompanyLogic.sol\":2061:2377  function addDataGroup(string memory _groupName) public AccessControl.onlyRole(ADMIN_ROLE) returns (bool) {... */\n    tag_7:\n      tag_41\n      0x04\n      dup1\n      calldatasize\n      sub\n      dup2\n      add\n      swap1\n      tag_42\n      swap2\n      swap1\n      tag_43\n      jump\t// in\n    tag_42:\n      tag_44\n      jump\t// in\n    tag_41:\n      mload(0x40)\n      tag_45\n      swap2\n      swap1\n      tag_26\n      jump\t// in\n    tag_45:\n      mload(0x40)\n      dup1\n      swap2\n      sub\n      swap1\n      return\n        /* \"1127/CompanyLogic.sol\":321:378  bytes32 public constant WORKER_ROLE = keccak256(\"WORKER\") */\n    tag_8:\n      tag_46\n      tag_47\n      jump\t// in\n    tag_46:\n      mload(0x40)\n      tag_48\n      swap2\n      swap1\n      tag_32\n      jump\t// in\n    tag_48:\n      mload(0x40)\n      dup1\n      swap2\n      sub\n      swap1\n      return\n        /* \"1127/CompanyLogic.sol\":1495:2002  function removedWorker(string memory worker_did) public  AccessControl.onlyRole(ADMIN_ROLE) returns (bool) {... */\n    tag_9:\n      tag_49\n      0x04\n      dup1\n      calldatasize\n      sub\n      dup2\n      add\n      swap1\n      tag_50\n      swap2\n      swap1\n      tag_43\n      jump\t// in\n    tag_50:\n      tag_51\n      jump\t// in\n    tag_49:\n      mload(0x40)\n      tag_52\n      swap2\n      swap1\n      tag_26\n      jump\t// in\n    tag_52:\n      mload(0x40)\n      dup1\n      swap2\n      sub\n      swap1\n      return\n        /* \"1127/CompanyLogic.sol\":257:312  bytes32 public constant ADMIN_ROLE = keccak256(\"ADMIN\") */\n    tag_10:\n      tag_53\n      tag_54\n      jump\t// in\n    tag_53:\n      mload(0x40)\n      tag_55\n      swap2\n      swap1\n      tag_32\n      jump\t// in\n    tag_55:\n      mload(0x40)\n      dup1\n      swap2\n      sub\n      swap1\n      return\n        /* \"1127/CompanyLogic.sol\":2436:2761  function closeDataGroup(string memory _groupName) public AccessControl.onlyRole(ADMIN_ROLE) returns (bool){... */\n    tag_11:\n      tag_56\n      0x04\n      dup1\n      calldatasize\n      sub\n      dup2\n      add\n      swap1\n      tag_57\n      swap2\n      swap1\n      tag_43\n      jump\t// in\n    tag_57:\n      tag_58\n      jump\t// in\n    tag_56:\n      mload(0x40)\n      tag_59\n      swap2\n      swap1\n      tag_26\n      jump\t// in\n    tag_59:\n      mload(0x40)\n      dup1\n      swap2\n      sub\n      swap1\n      return\n        /* \"1127/util/AccessControl.sol\":1209:1335  function hasRole(bytes32 role, address member) public view returns (bool) {... */\n    tag_12:\n      tag_60\n      0x04\n      dup1\n      calldatasize\n      sub\n      dup2\n      add\n      swap1\n      tag_61\n      swap2\n      swap1\n      tag_35\n      jump\t// in\n    tag_61:\n      tag_62\n      jump\t// in\n    tag_60:\n      mload(0x40)\n      tag_63\n      swap2\n      swap1\n      tag_26\n      jump\t// in\n    tag_63:\n      mload(0x40)\n      dup1\n      swap2\n      sub\n      swap1\n      return\n        /* \"1127/CompanyLogic.sol\":906:1440  function addWorker(string memory worker_did,address worker_address) public AccessControl.onlyRole(ADMIN_ROLE) returns (bool)  {... */\n    tag_13:\n      tag_64\n      0x04\n      dup1\n      calldatasize\n      sub\n      dup2\n      add\n      swap1\n      tag_65\n      swap2\n      swap1\n      tag_66\n      jump\t// in\n    tag_65:\n      tag_67\n      jump\t// in\n    tag_64:\n      mload(0x40)\n      tag_68\n      swap2\n      swap1\n      tag_26\n      jump\t// in\n    tag_68:\n      mload(0x40)\n      dup1\n      swap2\n      sub\n      swap1\n      return\n        /* \"1127/util/AccessControl.sol\":206:250  bytes32 public constant DEFAULT_ADMIN = 0x00 */\n    tag_14:\n      tag_69\n      tag_70\n      jump\t// in\n    tag_69:\n      mload(0x40)\n      tag_71\n      swap2\n      swap1\n      tag_32\n      jump\t// in\n    tag_71:\n      mload(0x40)\n      dup1\n      swap2\n      sub\n      swap1\n      return\n        /* \"1127/util/AccessControl.sol\":1011:1194  function checkRole(bytes32 role) public view returns (bool) {... */\n    tag_15:\n      tag_72\n      0x04\n      dup1\n      calldatasize\n      sub\n      dup2\n      add\n      swap1\n      tag_73\n      swap2\n      swap1\n      tag_29\n      jump\t// in\n    tag_73:\n      tag_74\n      jump\t// in\n    tag_72:\n      mload(0x40)\n      tag_75\n      swap2\n      swap1\n      tag_26\n      jump\t// in\n    tag_75:\n      mload(0x40)\n      dup1\n      swap2\n      sub\n      swap1\n      return\n        /* \"1127/util/AccessControl.sol\":2161:2490  function revokeRole(bytes32 role, address member)... */\n    tag_16:\n      tag_76\n      0x04\n      dup1\n      calldatasize\n      sub\n      dup2\n      add\n      swap1\n      tag_77\n      swap2\n      swap1\n      tag_35\n      jump\t// in\n    tag_77:\n      tag_78\n      jump\t// in\n    tag_76:\n      mload(0x40)\n      tag_79\n      swap2\n      swap1\n      tag_26\n      jump\t// in\n    tag_79:\n      mload(0x40)\n      dup1\n      swap2\n      sub\n      swap1\n      return\n        /* \"1127/CompanyLogic.sol\":2896:3320  function addDataInGroup(string memory _group,string memory _dataCid) public AccessControl.onlyRole(WORKER_ROLE) returns (bool){... */\n    tag_17:\n      tag_80\n      0x04\n      dup1\n      calldatasize\n      sub\n      dup2\n      add\n      swap1\n      tag_81\n      swap2\n      swap1\n      tag_82\n      jump\t// in\n    tag_81:\n      tag_83\n      jump\t// in\n    tag_80:\n      mload(0x40)\n      tag_84\n      swap2\n      swap1\n      tag_26\n      jump\t// in\n    tag_84:\n      mload(0x40)\n      dup1\n      swap2\n      sub\n      swap1\n      return\n        /* \"1127/CompanyLogic.sol\":3459:3769  function updateDataInGroup(string memory _group,uint256 id,string memory _dataCid) public AccessControl.onlyRole(WORKER_ROLE) returns (bool){... */\n    tag_24:\n        /* \"1127/CompanyLogic.sol\":3594:3598  bool */\n      0x00\n        /* \"1127/CompanyLogic.sol\":359:378  keccak256(\"WORKER\") */\n      0xf101d8f75d5816ea5d4f9e76d2b196ca77914d087c68fd9b89f497d695bcddf7\n        /* \"1127/util/AccessControl.sol\":856:871  checkRole(role) */\n      tag_86\n        /* \"1127/util/AccessControl.sol\":866:870  role */\n      dup2\n        /* \"1127/util/AccessControl.sol\":856:865  checkRole */\n      tag_74\n        /* \"1127/util/AccessControl.sol\":856:871  checkRole(role) */\n      jump\t// in\n    tag_86:\n      pop\n        /* \"1127/CompanyLogic.sol\":3619:3632  dataGroupList */\n      0x04\n        /* \"1127/CompanyLogic.sol\":3633:3639  _group */\n      dup6\n        /* \"1127/CompanyLogic.sol\":3619:3640  dataGroupList[_group] */\n      mload(0x40)\n      tag_88\n      swap2\n      swap1\n      tag_89\n      jump\t// in\n    tag_88:\n      swap1\n      dup2\n      mstore\n      0x20\n      add\n      mload(0x40)\n      dup1\n      swap2\n      sub\n      swap1\n      keccak256\n        /* \"1127/CompanyLogic.sol\":3619:3647  dataGroupList[_group].isOpen */\n      0x02\n      add\n      0x00\n      swap1\n      sload\n      swap1\n      0x0100\n      exp\n      swap1\n      div\n      0xff\n      and\n        /* \"1127/CompanyLogic.sol\":3611:3665  require(dataGroupList[_group].isOpen,\"No group found\") */\n      tag_90\n      jumpi\n      mload(0x40)\n      0x08c379a000000000000000000000000000000000000000000000000000000000\n      dup2\n      mstore\n      0x04\n      add\n      tag_91\n      swap1\n      tag_92\n      jump\t// in\n    tag_91:\n      mload(0x40)\n      dup1\n      swap2\n      sub\n      swap1\n      revert\n    tag_90:\n        /* \"1127/CompanyLogic.sol\":3712:3738  DataStruct.Asset(_dataCid) */\n      mload(0x40)\n      dup1\n      0x20\n      add\n      0x40\n      mstore\n      dup1\n        /* \"1127/CompanyLogic.sol\":3729:3737  _dataCid */\n      dup5\n        /* \"1127/CompanyLogic.sol\":3712:3738  DataStruct.Asset(_dataCid) */\n      dup2\n      mstore\n      pop\n        /* \"1127/CompanyLogic.sol\":3677:3690  dataGroupList */\n      0x04\n        /* \"1127/CompanyLogic.sol\":3691:3697  _group */\n      dup7\n        /* \"1127/CompanyLogic.sol\":3677:3698  dataGroupList[_group] */\n      mload(0x40)\n      tag_93\n      swap2\n      swap1\n      tag_89\n      jump\t// in\n    tag_93:\n      swap1\n      dup2\n      mstore\n      0x20\n      add\n      mload(0x40)\n      dup1\n      swap2\n      sub\n      swap1\n      keccak256\n        /* \"1127/CompanyLogic.sol\":3677:3705  dataGroupList[_group].assets */\n      0x00\n      add\n        /* \"1127/CompanyLogic.sol\":3677:3709  dataGroupList[_group].assets[id] */\n      0x00\n        /* \"1127/CompanyLogic.sol\":3706:3708  id */\n      dup7\n        /* \"1127/CompanyLogic.sol\":3677:3709  dataGroupList[_group].assets[id] */\n      dup2\n      mstore\n      0x20\n      add\n      swap1\n      dup2\n      mstore\n      0x20\n      add\n      0x00\n      keccak256\n        /* \"1127/CompanyLogic.sol\":3677:3738  dataGroupList[_group].assets[id] = DataStruct.Asset(_dataCid) */\n      0x00\n      dup3\n      add\n      mload\n      dup2\n      0x00\n      add\n      swap1\n      dup1\n      mload\n      swap1\n      0x20\n      add\n      swap1\n      tag_94\n      swap3\n      swap2\n      swap1\n      tag_95\n      jump\t// in\n    tag_94:\n      pop\n      swap1\n      pop\n      pop\n        /* \"1127/CompanyLogic.sol\":3757:3761  true */\n      0x01\n        /* \"1127/CompanyLogic.sol\":3750:3761  return true */\n      swap2\n      pop\n        /* \"1127/CompanyLogic.sol\":3459:3769  function updateDataInGroup(string memory _group,uint256 id,string memory _dataCid) public AccessControl.onlyRole(WORKER_ROLE) returns (bool){... */\n      pop\n      swap4\n      swap3\n      pop\n      pop\n      pop\n      jump\t// out\n        /* \"1127/util/AccessControl.sol\":1379:1490  function getRoleAdmin(bytes32 role) public view returns (bytes32) {... */\n    tag_30:\n        /* \"1127/util/AccessControl.sol\":1436:1443  bytes32 */\n      0x00\n        /* \"1127/util/AccessControl.sol\":1462:1467  roles */\n      dup1\n        /* \"1127/util/AccessControl.sol\":1462:1473  roles[role] */\n      0x00\n        /* \"1127/util/AccessControl.sol\":1468:1472  role */\n      dup4\n        /* \"1127/util/AccessControl.sol\":1462:1473  roles[role] */\n      dup2\n      mstore\n      0x20\n      add\n      swap1\n      dup2\n      mstore\n      0x20\n      add\n      0x00\n      keccak256\n        /* \"1127/util/AccessControl.sol\":1462:1483  roles[role].adminRole */\n      0x01\n      add\n      sload\n        /* \"1127/util/AccessControl.sol\":1455:1483  return roles[role].adminRole */\n      swap1\n      pop\n        /* \"1127/util/AccessControl.sol\":1379:1490  function getRoleAdmin(bytes32 role) public view returns (bytes32) {... */\n      swap2\n      swap1\n      pop\n      jump\t// out\n        /* \"1127/util/AccessControl.sol\":1785:2111  function grantRole(bytes32 role, address member)... */\n    tag_36:\n        /* \"1127/util/AccessControl.sol\":1903:1907  bool */\n      0x00\n        /* \"1127/util/AccessControl.sol\":1866:1884  getRoleAdmin(role) */\n      tag_97\n        /* \"1127/util/AccessControl.sol\":1879:1883  role */\n      dup4\n        /* \"1127/util/AccessControl.sol\":1866:1878  getRoleAdmin */\n      tag_30\n        /* \"1127/util/AccessControl.sol\":1866:1884  getRoleAdmin(role) */\n      jump\t// in\n    tag_97:\n        /* \"1127/util/AccessControl.sol\":856:871  checkRole(role) */\n      tag_99\n        /* \"1127/util/AccessControl.sol\":866:870  role */\n      dup2\n        /* \"1127/util/AccessControl.sol\":856:865  checkRole */\n      tag_74\n        /* \"1127/util/AccessControl.sol\":856:871  checkRole(role) */\n      jump\t// in\n    tag_99:\n      pop\n        /* \"1127/util/AccessControl.sol\":1927:1948  hasRole(role, member) */\n      tag_101\n        /* \"1127/util/AccessControl.sol\":1935:1939  role */\n      dup5\n        /* \"1127/util/AccessControl.sol\":1941:1947  member */\n      dup5\n        /* \"1127/util/AccessControl.sol\":1927:1934  hasRole */\n      tag_62\n        /* \"1127/util/AccessControl.sol\":1927:1948  hasRole(role, member) */\n      jump\t// in\n    tag_101:\n        /* \"1127/util/AccessControl.sol\":1923:1987  if (hasRole(role, member)) {... */\n      iszero\n      tag_102\n      jumpi\n        /* \"1127/util/AccessControl.sol\":1971:1976  false */\n      0x00\n        /* \"1127/util/AccessControl.sol\":1964:1976  return false */\n      swap2\n      pop\n      jump(tag_100)\n        /* \"1127/util/AccessControl.sol\":1923:1987  if (hasRole(role, member)) {... */\n    tag_102:\n        /* \"1127/util/AccessControl.sol\":2027:2031  true */\n      0x01\n        /* \"1127/util/AccessControl.sol\":1996:2001  roles */\n      0x00\n        /* \"1127/util/AccessControl.sol\":1996:2007  roles[role] */\n      dup1\n        /* \"1127/util/AccessControl.sol\":2002:2006  role */\n      dup7\n        /* \"1127/util/AccessControl.sol\":1996:2007  roles[role] */\n      dup2\n      mstore\n      0x20\n      add\n      swap1\n      dup2\n      mstore\n      0x20\n      add\n      0x00\n      keccak256\n        /* \"1127/util/AccessControl.sol\":1996:2016  roles[role].hasRoles */\n      0x00\n      add\n        /* \"1127/util/AccessControl.sol\":1996:2024  roles[role].hasRoles[member] */\n      0x00\n        /* \"1127/util/AccessControl.sol\":2017:2023  member */\n      dup6\n        /* \"1127/util/AccessControl.sol\":1996:2024  roles[role].hasRoles[member] */\n      0xffffffffffffffffffffffffffffffffffffffff\n      and\n      0xffffffffffffffffffffffffffffffffffffffff\n      and\n      dup2\n      mstore\n      0x20\n      add\n      swap1\n      dup2\n      mstore\n      0x20\n      add\n      0x00\n      keccak256\n      0x00\n        /* \"1127/util/AccessControl.sol\":1996:2031  roles[role].hasRoles[member] = true */\n      0x0100\n      exp\n      dup2\n      sload\n      dup2\n      0xff\n      mul\n      not\n      and\n      swap1\n      dup4\n      iszero\n      iszero\n      mul\n      or\n      swap1\n      sstore\n      pop\n        /* \"1127/util/AccessControl.sol\":2072:2082  msg.sender */\n      caller\n        /* \"1127/util/AccessControl.sol\":2046:2083  RoleGranted(role, member, msg.sender) */\n      0xffffffffffffffffffffffffffffffffffffffff\n      and\n        /* \"1127/util/AccessControl.sol\":2064:2070  member */\n      dup4\n        /* \"1127/util/AccessControl.sol\":2046:2083  RoleGranted(role, member, msg.sender) */\n      0xffffffffffffffffffffffffffffffffffffffff\n      and\n        /* \"1127/util/AccessControl.sol\":2058:2062  role */\n      dup6\n        /* \"1127/util/AccessControl.sol\":2046:2083  RoleGranted(role, member, msg.sender) */\n      0x2f8788117e7eff1d82e926ec794901d17c78024a50270940304540a733656f0d\n      mload(0x40)\n      mload(0x40)\n      dup1\n      swap2\n      sub\n      swap1\n      log4\n        /* \"1127/util/AccessControl.sol\":2100:2104  true */\n      0x01\n        /* \"1127/util/AccessControl.sol\":2093:2104  return true */\n      swap2\n      pop\n        /* \"1127/util/AccessControl.sol\":881:882  _ */\n    tag_100:\n        /* \"1127/util/AccessControl.sol\":1785:2111  function grantRole(bytes32 role, address member)... */\n      pop\n      swap3\n      swap2\n      pop\n      pop\n      jump\t// out\n        /* \"1127/util/AccessControl.sol\":2553:2795  function renounceRole(bytes32 role, address callerConfirmation)... */\n    tag_40:\n        /* \"1127/util/AccessControl.sol\":2681:2691  msg.sender */\n      caller\n        /* \"1127/util/AccessControl.sol\":2659:2691  callerConfirmation != msg.sender */\n      0xffffffffffffffffffffffffffffffffffffffff\n      and\n        /* \"1127/util/AccessControl.sol\":2659:2677  callerConfirmation */\n      dup2\n        /* \"1127/util/AccessControl.sol\":2659:2691  callerConfirmation != msg.sender */\n      0xffffffffffffffffffffffffffffffffffffffff\n      and\n      eq\n        /* \"1127/util/AccessControl.sol\":2655:2743  if (callerConfirmation != msg.sender) {... */\n      tag_104\n      jumpi\n        /* \"1127/util/AccessControl.sol\":2707:2732  revert(\"BadConfirmation\") */\n      mload(0x40)\n      0x08c379a000000000000000000000000000000000000000000000000000000000\n      dup2\n      mstore\n      0x04\n      add\n      tag_105\n      swap1\n      tag_106\n      jump\t// in\n    tag_105:\n      mload(0x40)\n      dup1\n      swap2\n      sub\n      swap1\n      revert\n        /* \"1127/util/AccessControl.sol\":2655:2743  if (callerConfirmation != msg.sender) {... */\n    tag_104:\n        /* \"1127/util/AccessControl.sol\":2752:2788  revokeRole(role, callerConfirmation) */\n      tag_107\n        /* \"1127/util/AccessControl.sol\":2763:2767  role */\n      dup3\n        /* \"1127/util/AccessControl.sol\":2769:2787  callerConfirmation */\n      dup3\n        /* \"1127/util/AccessControl.sol\":2752:2762  revokeRole */\n      tag_78\n        /* \"1127/util/AccessControl.sol\":2752:2788  revokeRole(role, callerConfirmation) */\n      jump\t// in\n    tag_107:\n      pop\n        /* \"1127/util/AccessControl.sol\":2553:2795  function renounceRole(bytes32 role, address callerConfirmation)... */\n      pop\n      pop\n      jump\t// out\n        /* \"1127/CompanyLogic.sol\":2061:2377  function addDataGroup(string memory _groupName) public AccessControl.onlyRole(ADMIN_ROLE) returns (bool) {... */\n    tag_44:\n        /* \"1127/CompanyLogic.sol\":2160:2164  bool */\n      0x00\n        /* \"1127/CompanyLogic.sol\":294:312  keccak256(\"ADMIN\") */\n      0xdf8b4c520ffe197c5343c6f5aec59570151ef9a492f2c624fd45ddde6135ec42\n        /* \"1127/util/AccessControl.sol\":856:871  checkRole(role) */\n      tag_109\n        /* \"1127/util/AccessControl.sol\":866:870  role */\n      dup2\n        /* \"1127/util/AccessControl.sol\":856:865  checkRole */\n      tag_74\n        /* \"1127/util/AccessControl.sol\":856:871  checkRole(role) */\n      jump\t// in\n    tag_109:\n      pop\n        /* \"1127/CompanyLogic.sol\":2186:2199  dataGroupList */\n      0x04\n        /* \"1127/CompanyLogic.sol\":2200:2210  _groupName */\n      dup4\n        /* \"1127/CompanyLogic.sol\":2186:2211  dataGroupList[_groupName] */\n      mload(0x40)\n      tag_111\n      swap2\n      swap1\n      tag_89\n      jump\t// in\n    tag_111:\n      swap1\n      dup2\n      mstore\n      0x20\n      add\n      mload(0x40)\n      dup1\n      swap2\n      sub\n      swap1\n      keccak256\n        /* \"1127/CompanyLogic.sol\":2186:2218  dataGroupList[_groupName].isOpen */\n      0x02\n      add\n      0x00\n      swap1\n      sload\n      swap1\n      0x0100\n      exp\n      swap1\n      div\n      0xff\n      and\n        /* \"1127/CompanyLogic.sol\":2185:2218  !dataGroupList[_groupName].isOpen */\n      iszero\n        /* \"1127/CompanyLogic.sol\":2177:2241  require(!dataGroupList[_groupName].isOpen,\"The group has exist\") */\n      tag_112\n      jumpi\n      mload(0x40)\n      0x08c379a000000000000000000000000000000000000000000000000000000000\n      dup2\n      mstore\n      0x04\n      add\n      tag_113\n      swap1\n      tag_114\n      jump\t// in\n    tag_113:\n      mload(0x40)\n      dup1\n      swap2\n      sub\n      swap1\n      revert\n    tag_112:\n        /* \"1127/CompanyLogic.sol\":2285:2289  true */\n      0x01\n        /* \"1127/CompanyLogic.sol\":2252:2265  dataGroupList */\n      0x04\n        /* \"1127/CompanyLogic.sol\":2266:2276  _groupName */\n      dup5\n        /* \"1127/CompanyLogic.sol\":2252:2277  dataGroupList[_groupName] */\n      mload(0x40)\n      tag_115\n      swap2\n      swap1\n      tag_89\n      jump\t// in\n    tag_115:\n      swap1\n      dup2\n      mstore\n      0x20\n      add\n      mload(0x40)\n      dup1\n      swap2\n      sub\n      swap1\n      keccak256\n        /* \"1127/CompanyLogic.sol\":2252:2284  dataGroupList[_groupName].isOpen */\n      0x02\n      add\n      0x00\n        /* \"1127/CompanyLogic.sol\":2252:2289  dataGroupList[_groupName].isOpen=true */\n      0x0100\n      exp\n      dup2\n      sload\n      dup2\n      0xff\n      mul\n      not\n      and\n      swap1\n      dup4\n      iszero\n      iszero\n      mul\n      or\n      swap1\n      sstore\n      pop\n        /* \"1127/CompanyLogic.sol\":2305:2347  NewAssetGroupAdd(_groupName, company_name) */\n      0x0c9f7ffde55abf279e64f645add2b656e6cbd943754bb169e34c801647cd10ba\n        /* \"1127/CompanyLogic.sol\":2322:2332  _groupName */\n      dup4\n        /* \"1127/CompanyLogic.sol\":2334:2346  company_name */\n      0x02\n        /* \"1127/CompanyLogic.sol\":2305:2347  NewAssetGroupAdd(_groupName, company_name) */\n      mload(0x40)\n      tag_116\n      swap3\n      swap2\n      swap1\n      tag_117\n      jump\t// in\n    tag_116:\n      mload(0x40)\n      dup1\n      swap2\n      sub\n      swap1\n      log1\n        /* \"1127/CompanyLogic.sol\":2365:2369  true */\n      0x01\n        /* \"1127/CompanyLogic.sol\":2358:2369  return true */\n      swap2\n      pop\n        /* \"1127/CompanyLogic.sol\":2061:2377  function addDataGroup(string memory _groupName) public AccessControl.onlyRole(ADMIN_ROLE) returns (bool) {... */\n      pop\n      swap2\n      swap1\n      pop\n      jump\t// out\n        /* \"1127/CompanyLogic.sol\":321:378  bytes32 public constant WORKER_ROLE = keccak256(\"WORKER\") */\n    tag_47:\n        /* \"1127/CompanyLogic.sol\":359:378  keccak256(\"WORKER\") */\n      0xf101d8f75d5816ea5d4f9e76d2b196ca77914d087c68fd9b89f497d695bcddf7\n        /* \"1127/CompanyLogic.sol\":321:378  bytes32 public constant WORKER_ROLE = keccak256(\"WORKER\") */\n      dup2\n      jump\t// out\n        /* \"1127/CompanyLogic.sol\":1495:2002  function removedWorker(string memory worker_did) public  AccessControl.onlyRole(ADMIN_ROLE) returns (bool) {... */\n    tag_51:\n        /* \"1127/CompanyLogic.sol\":1596:1600  bool */\n      0x00\n        /* \"1127/CompanyLogic.sol\":294:312  keccak256(\"ADMIN\") */\n      0xdf8b4c520ffe197c5343c6f5aec59570151ef9a492f2c624fd45ddde6135ec42\n        /* \"1127/util/AccessControl.sol\":856:871  checkRole(role) */\n      tag_119\n        /* \"1127/util/AccessControl.sol\":866:870  role */\n      dup2\n        /* \"1127/util/AccessControl.sol\":856:865  checkRole */\n      tag_74\n        /* \"1127/util/AccessControl.sol\":856:871  checkRole(role) */\n      jump\t// in\n    tag_119:\n      pop\n        /* \"1127/CompanyLogic.sol\":1613:1652  DataStruct.Worker memory _removedWorker */\n      0x00\n        /* \"1127/CompanyLogic.sol\":1655:1665  workerList */\n      0x03\n        /* \"1127/CompanyLogic.sol\":1666:1676  worker_did */\n      dup5\n        /* \"1127/CompanyLogic.sol\":1655:1677  workerList[worker_did] */\n      mload(0x40)\n      tag_121\n      swap2\n      swap1\n      tag_89\n      jump\t// in\n    tag_121:\n      swap1\n      dup2\n      mstore\n      0x20\n      add\n      mload(0x40)\n      dup1\n      swap2\n      sub\n      swap1\n      keccak256\n        /* \"1127/CompanyLogic.sol\":1613:1677  DataStruct.Worker memory _removedWorker = workerList[worker_did] */\n      mload(0x40)\n      dup1\n      0x40\n      add\n      0x40\n      mstore\n      swap1\n      dup2\n      0x00\n      dup3\n      add\n      dup1\n      sload\n      tag_122\n      swap1\n      tag_123\n      jump\t// in\n    tag_122:\n      dup1\n      0x1f\n      add\n      0x20\n      dup1\n      swap2\n      div\n      mul\n      0x20\n      add\n      mload(0x40)\n      swap1\n      dup2\n      add\n      0x40\n      mstore\n      dup1\n      swap3\n      swap2\n      swap1\n      dup2\n      dup2\n      mstore\n      0x20\n      add\n      dup3\n      dup1\n      sload\n      tag_124\n      swap1\n      tag_123\n      jump\t// in\n    tag_124:\n      dup1\n      iszero\n      tag_125\n      jumpi\n      dup1\n      0x1f\n      lt\n      tag_126\n      jumpi\n      0x0100\n      dup1\n      dup4\n      sload\n      div\n      mul\n      dup4\n      mstore\n      swap2\n      0x20\n      add\n      swap2\n      jump(tag_125)\n    tag_126:\n      dup3\n      add\n      swap2\n      swap1\n      0x00\n      mstore\n      keccak256(0x00, 0x20)\n      swap1\n    tag_127:\n      dup2\n      sload\n      dup2\n      mstore\n      swap1\n      0x01\n      add\n      swap1\n      0x20\n      add\n      dup1\n      dup4\n      gt\n      tag_127\n      jumpi\n      dup3\n      swap1\n      sub\n      0x1f\n      and\n      dup3\n      add\n      swap2\n    tag_125:\n      pop\n      pop\n      pop\n      pop\n      pop\n      dup2\n      mstore\n      0x20\n      add\n      0x01\n      dup3\n      add\n      0x00\n      swap1\n      sload\n      swap1\n      0x0100\n      exp\n      swap1\n      div\n      0xffffffffffffffffffffffffffffffffffffffff\n      and\n      0xffffffffffffffffffffffffffffffffffffffff\n      and\n      0xffffffffffffffffffffffffffffffffffffffff\n      and\n      dup2\n      mstore\n      pop\n      pop\n      swap1\n      pop\n        /* \"1127/CompanyLogic.sol\":1696:1736  hasRole(WORKER_ROLE,_removedWorker.addr) */\n      tag_128\n        /* \"1127/CompanyLogic.sol\":359:378  keccak256(\"WORKER\") */\n      0xf101d8f75d5816ea5d4f9e76d2b196ca77914d087c68fd9b89f497d695bcddf7\n        /* \"1127/CompanyLogic.sol\":1716:1730  _removedWorker */\n      dup3\n        /* \"1127/CompanyLogic.sol\":1716:1735  _removedWorker.addr */\n      0x20\n      add\n      mload\n        /* \"1127/CompanyLogic.sol\":1696:1703  hasRole */\n      tag_62\n        /* \"1127/CompanyLogic.sol\":1696:1736  hasRole(WORKER_ROLE,_removedWorker.addr) */\n      jump\t// in\n    tag_128:\n        /* \"1127/CompanyLogic.sol\":1688:1767  require(hasRole(WORKER_ROLE,_removedWorker.addr),\"The Worker has been deleted\") */\n      tag_129\n      jumpi\n      mload(0x40)\n      0x08c379a000000000000000000000000000000000000000000000000000000000\n      dup2\n      mstore\n      0x04\n      add\n      tag_130\n      swap1\n      tag_131\n      jump\t// in\n    tag_130:\n      mload(0x40)\n      dup1\n      swap2\n      sub\n      swap1\n      revert\n    tag_129:\n        /* \"1127/CompanyLogic.sol\":1778:1822  revokeRole(WORKER_ROLE, _removedWorker.addr) */\n      tag_132\n        /* \"1127/CompanyLogic.sol\":359:378  keccak256(\"WORKER\") */\n      0xf101d8f75d5816ea5d4f9e76d2b196ca77914d087c68fd9b89f497d695bcddf7\n        /* \"1127/CompanyLogic.sol\":1802:1816  _removedWorker */\n      dup3\n        /* \"1127/CompanyLogic.sol\":1802:1821  _removedWorker.addr */\n      0x20\n      add\n      mload\n        /* \"1127/CompanyLogic.sol\":1778:1788  revokeRole */\n      tag_78\n        /* \"1127/CompanyLogic.sol\":1778:1822  revokeRole(WORKER_ROLE, _removedWorker.addr) */\n      jump\t// in\n    tag_132:\n      pop\n        /* \"1127/CompanyLogic.sol\":1858:1915  DataStruct.Worker(... */\n      mload(0x40)\n      dup1\n      0x40\n      add\n      0x40\n      mstore\n      dup1\n      mload(0x40)\n      dup1\n      0x20\n      add\n      0x40\n      mstore\n      dup1\n      0x00\n      dup2\n      mstore\n      pop\n      dup2\n      mstore\n      0x20\n      add\n        /* \"1127/CompanyLogic.sol\":1902:1903  0 */\n      0x00\n        /* \"1127/CompanyLogic.sol\":1858:1915  DataStruct.Worker(... */\n      0xffffffffffffffffffffffffffffffffffffffff\n      and\n      dup2\n      mstore\n      pop\n        /* \"1127/CompanyLogic.sol\":1833:1843  workerList */\n      0x03\n        /* \"1127/CompanyLogic.sol\":1844:1854  worker_did */\n      dup6\n        /* \"1127/CompanyLogic.sol\":1833:1855  workerList[worker_did] */\n      mload(0x40)\n      tag_133\n      swap2\n      swap1\n      tag_89\n      jump\t// in\n    tag_133:\n      swap1\n      dup2\n      mstore\n      0x20\n      add\n      mload(0x40)\n      dup1\n      swap2\n      sub\n      swap1\n      keccak256\n        /* \"1127/CompanyLogic.sol\":1833:1915  workerList[worker_did] = DataStruct.Worker(... */\n      0x00\n      dup3\n      add\n      mload\n      dup2\n      0x00\n      add\n      swap1\n      dup1\n      mload\n      swap1\n      0x20\n      add\n      swap1\n      tag_134\n      swap3\n      swap2\n      swap1\n      tag_95\n      jump\t// in\n    tag_134:\n      pop\n      0x20\n      dup3\n      add\n      mload\n      dup2\n      0x01\n      add\n      exp(0x0100, 0x00)\n      dup2\n      sload\n      dup2\n      0xffffffffffffffffffffffffffffffffffffffff\n      mul\n      not\n      and\n      swap1\n      dup4\n      0xffffffffffffffffffffffffffffffffffffffff\n      and\n      mul\n      or\n      swap1\n      sstore\n      pop\n      swap1\n      pop\n      pop\n        /* \"1127/CompanyLogic.sol\":1931:1972  NewWorkerRemoved(worker_did,company_name) */\n      0x8107a7b10269990d65f96ff89538ef92f91cd14632605ad78337f4856265f733\n        /* \"1127/CompanyLogic.sol\":1948:1958  worker_did */\n      dup5\n        /* \"1127/CompanyLogic.sol\":1959:1971  company_name */\n      0x02\n        /* \"1127/CompanyLogic.sol\":1931:1972  NewWorkerRemoved(worker_did,company_name) */\n      mload(0x40)\n      tag_135\n      swap3\n      swap2\n      swap1\n      tag_117\n      jump\t// in\n    tag_135:\n      mload(0x40)\n      dup1\n      swap2\n      sub\n      swap1\n      log1\n        /* \"1127/CompanyLogic.sol\":1990:1994  true */\n      0x01\n        /* \"1127/CompanyLogic.sol\":1983:1994  return true */\n      swap3\n      pop\n      pop\n        /* \"1127/CompanyLogic.sol\":1495:2002  function removedWorker(string memory worker_did) public  AccessControl.onlyRole(ADMIN_ROLE) returns (bool) {... */\n      pop\n      swap2\n      swap1\n      pop\n      jump\t// out\n        /* \"1127/CompanyLogic.sol\":257:312  bytes32 public constant ADMIN_ROLE = keccak256(\"ADMIN\") */\n    tag_54:\n        /* \"1127/CompanyLogic.sol\":294:312  keccak256(\"ADMIN\") */\n      0xdf8b4c520ffe197c5343c6f5aec59570151ef9a492f2c624fd45ddde6135ec42\n        /* \"1127/CompanyLogic.sol\":257:312  bytes32 public constant ADMIN_ROLE = keccak256(\"ADMIN\") */\n      dup2\n      jump\t// out\n        /* \"1127/CompanyLogic.sol\":2436:2761  function closeDataGroup(string memory _groupName) public AccessControl.onlyRole(ADMIN_ROLE) returns (bool){... */\n    tag_58:\n        /* \"1127/CompanyLogic.sol\":2537:2541  bool */\n      0x00\n        /* \"1127/CompanyLogic.sol\":294:312  keccak256(\"ADMIN\") */\n      0xdf8b4c520ffe197c5343c6f5aec59570151ef9a492f2c624fd45ddde6135ec42\n        /* \"1127/util/AccessControl.sol\":856:871  checkRole(role) */\n      tag_137\n        /* \"1127/util/AccessControl.sol\":866:870  role */\n      dup2\n        /* \"1127/util/AccessControl.sol\":856:865  checkRole */\n      tag_74\n        /* \"1127/util/AccessControl.sol\":856:871  checkRole(role) */\n      jump\t// in\n    tag_137:\n      pop\n        /* \"1127/CompanyLogic.sol\":2562:2575  dataGroupList */\n      0x04\n        /* \"1127/CompanyLogic.sol\":2576:2586  _groupName */\n      dup4\n        /* \"1127/CompanyLogic.sol\":2562:2587  dataGroupList[_groupName] */\n      mload(0x40)\n      tag_139\n      swap2\n      swap1\n      tag_89\n      jump\t// in\n    tag_139:\n      swap1\n      dup2\n      mstore\n      0x20\n      add\n      mload(0x40)\n      dup1\n      swap2\n      sub\n      swap1\n      keccak256\n        /* \"1127/CompanyLogic.sol\":2562:2594  dataGroupList[_groupName].isOpen */\n      0x02\n      add\n      0x00\n      swap1\n      sload\n      swap1\n      0x0100\n      exp\n      swap1\n      div\n      0xff\n      and\n        /* \"1127/CompanyLogic.sol\":2561:2594  !dataGroupList[_groupName].isOpen */\n      iszero\n        /* \"1127/CompanyLogic.sol\":2553:2622  require(!dataGroupList[_groupName].isOpen,\"The group has been close\") */\n      tag_140\n      jumpi\n      mload(0x40)\n      0x08c379a000000000000000000000000000000000000000000000000000000000\n      dup2\n      mstore\n      0x04\n      add\n      tag_141\n      swap1\n      tag_142\n      jump\t// in\n    tag_141:\n      mload(0x40)\n      dup1\n      swap2\n      sub\n      swap1\n      revert\n    tag_140:\n        /* \"1127/CompanyLogic.sol\":2666:2671  false */\n      0x00\n        /* \"1127/CompanyLogic.sol\":2633:2646  dataGroupList */\n      0x04\n        /* \"1127/CompanyLogic.sol\":2647:2657  _groupName */\n      dup5\n        /* \"1127/CompanyLogic.sol\":2633:2658  dataGroupList[_groupName] */\n      mload(0x40)\n      tag_143\n      swap2\n      swap1\n      tag_89\n      jump\t// in\n    tag_143:\n      swap1\n      dup2\n      mstore\n      0x20\n      add\n      mload(0x40)\n      dup1\n      swap2\n      sub\n      swap1\n      keccak256\n        /* \"1127/CompanyLogic.sol\":2633:2665  dataGroupList[_groupName].isOpen */\n      0x02\n      add\n      0x00\n        /* \"1127/CompanyLogic.sol\":2633:2671  dataGroupList[_groupName].isOpen=false */\n      0x0100\n      exp\n      dup2\n      sload\n      dup2\n      0xff\n      mul\n      not\n      and\n      swap1\n      dup4\n      iszero\n      iszero\n      mul\n      or\n      swap1\n      sstore\n      pop\n        /* \"1127/CompanyLogic.sol\":2687:2731  NewAssetGroupClose(_groupName, company_name) */\n      0x8f4df4ac08e47de38a6197f9d9be3a93fc938e5640987e4da6d3b81a93b83482\n        /* \"1127/CompanyLogic.sol\":2706:2716  _groupName */\n      dup4\n        /* \"1127/CompanyLogic.sol\":2718:2730  company_name */\n      0x02\n        /* \"1127/CompanyLogic.sol\":2687:2731  NewAssetGroupClose(_groupName, company_name) */\n      mload(0x40)\n      tag_144\n      swap3\n      swap2\n      swap1\n      tag_117\n      jump\t// in\n    tag_144:\n      mload(0x40)\n      dup1\n      swap2\n      sub\n      swap1\n      log1\n        /* \"1127/CompanyLogic.sol\":2749:2753  true */\n      0x01\n        /* \"1127/CompanyLogic.sol\":2742:2753  return true */\n      swap2\n      pop\n        /* \"1127/CompanyLogic.sol\":2436:2761  function closeDataGroup(string memory _groupName) public AccessControl.onlyRole(ADMIN_ROLE) returns (bool){... */\n      pop\n      swap2\n      swap1\n      pop\n      jump\t// out\n        /* \"1127/util/AccessControl.sol\":1209:1335  function hasRole(bytes32 role, address member) public view returns (bool) {... */\n    tag_62:\n        /* \"1127/util/AccessControl.sol\":1277:1281  bool */\n      0x00\n        /* \"1127/util/AccessControl.sol\":1300:1305  roles */\n      dup1\n        /* \"1127/util/AccessControl.sol\":1300:1311  roles[role] */\n      0x00\n        /* \"1127/util/AccessControl.sol\":1306:1310  role */\n      dup5\n        /* \"1127/util/AccessControl.sol\":1300:1311  roles[role] */\n      dup2\n      mstore\n      0x20\n      add\n      swap1\n      dup2\n      mstore\n      0x20\n      add\n      0x00\n      keccak256\n        /* \"1127/util/AccessControl.sol\":1300:1320  roles[role].hasRoles */\n      0x00\n      add\n        /* \"1127/util/AccessControl.sol\":1300:1328  roles[role].hasRoles[member] */\n      0x00\n        /* \"1127/util/AccessControl.sol\":1321:1327  member */\n      dup4\n        /* \"1127/util/AccessControl.sol\":1300:1328  roles[role].hasRoles[member] */\n      0xffffffffffffffffffffffffffffffffffffffff\n      and\n      0xffffffffffffffffffffffffffffffffffffffff\n      and\n      dup2\n      mstore\n      0x20\n      add\n      swap1\n      dup2\n      mstore\n      0x20\n      add\n      0x00\n      keccak256\n      0x00\n      swap1\n      sload\n      swap1\n      0x0100\n      exp\n      swap1\n      div\n      0xff\n      and\n        /* \"1127/util/AccessControl.sol\":1293:1328  return roles[role].hasRoles[member] */\n      swap1\n      pop\n        /* \"1127/util/AccessControl.sol\":1209:1335  function hasRole(bytes32 role, address member) public view returns (bool) {... */\n      swap3\n      swap2\n      pop\n      pop\n      jump\t// out\n        /* \"1127/CompanyLogic.sol\":906:1440  function addWorker(string memory worker_did,address worker_address) public AccessControl.onlyRole(ADMIN_ROLE) returns (bool)  {... */\n    tag_67:\n        /* \"1127/CompanyLogic.sol\":1025:1029  bool */\n      0x00\n        /* \"1127/CompanyLogic.sol\":294:312  keccak256(\"ADMIN\") */\n      0xdf8b4c520ffe197c5343c6f5aec59570151ef9a492f2c624fd45ddde6135ec42\n        /* \"1127/util/AccessControl.sol\":856:871  checkRole(role) */\n      tag_147\n        /* \"1127/util/AccessControl.sol\":866:870  role */\n      dup2\n        /* \"1127/util/AccessControl.sol\":856:865  checkRole */\n      tag_74\n        /* \"1127/util/AccessControl.sol\":856:871  checkRole(role) */\n      jump\t// in\n    tag_147:\n      pop\n        /* \"1127/CompanyLogic.sol\":1046:1081  hasRole(WORKER_ROLE,worker_address) */\n      tag_149\n        /* \"1127/CompanyLogic.sol\":359:378  keccak256(\"WORKER\") */\n      0xf101d8f75d5816ea5d4f9e76d2b196ca77914d087c68fd9b89f497d695bcddf7\n        /* \"1127/CompanyLogic.sol\":1066:1080  worker_address */\n      dup5\n        /* \"1127/CompanyLogic.sol\":1046:1053  hasRole */\n      tag_62\n        /* \"1127/CompanyLogic.sol\":1046:1081  hasRole(WORKER_ROLE,worker_address) */\n      jump\t// in\n    tag_149:\n        /* \"1127/CompanyLogic.sol\":1043:1121  if(hasRole(WORKER_ROLE,worker_address)){... */\n      iszero\n      tag_150\n      jumpi\n        /* \"1127/CompanyLogic.sol\":1104:1109  false */\n      0x00\n        /* \"1127/CompanyLogic.sol\":1097:1109  return false */\n      swap2\n      pop\n      jump(tag_148)\n        /* \"1127/CompanyLogic.sol\":1043:1121  if(hasRole(WORKER_ROLE,worker_address)){... */\n    tag_150:\n        /* \"1127/CompanyLogic.sol\":1140:1175  hasRole(WORKER_ROLE,worker_address) */\n      tag_151\n        /* \"1127/CompanyLogic.sol\":359:378  keccak256(\"WORKER\") */\n      0xf101d8f75d5816ea5d4f9e76d2b196ca77914d087c68fd9b89f497d695bcddf7\n        /* \"1127/CompanyLogic.sol\":1160:1174  worker_address */\n      dup5\n        /* \"1127/CompanyLogic.sol\":1140:1147  hasRole */\n      tag_62\n        /* \"1127/CompanyLogic.sol\":1140:1175  hasRole(WORKER_ROLE,worker_address) */\n      jump\t// in\n    tag_151:\n        /* \"1127/CompanyLogic.sol\":1139:1175  !hasRole(WORKER_ROLE,worker_address) */\n      iszero\n        /* \"1127/CompanyLogic.sol\":1131:1204  require(!hasRole(WORKER_ROLE,worker_address),\"The worker has been added\") */\n      tag_152\n      jumpi\n      mload(0x40)\n      0x08c379a000000000000000000000000000000000000000000000000000000000\n      dup2\n      mstore\n      0x04\n      add\n      tag_153\n      swap1\n      tag_154\n      jump\t// in\n    tag_153:\n      mload(0x40)\n      dup1\n      swap2\n      sub\n      swap1\n      revert\n    tag_152:\n        /* \"1127/CompanyLogic.sol\":1215:1252  grantRole(WORKER_ROLE,worker_address) */\n      tag_155\n        /* \"1127/CompanyLogic.sol\":359:378  keccak256(\"WORKER\") */\n      0xf101d8f75d5816ea5d4f9e76d2b196ca77914d087c68fd9b89f497d695bcddf7\n        /* \"1127/CompanyLogic.sol\":1237:1251  worker_address */\n      dup5\n        /* \"1127/CompanyLogic.sol\":1215:1224  grantRole */\n      tag_36\n        /* \"1127/CompanyLogic.sol\":1215:1252  grantRole(WORKER_ROLE,worker_address) */\n      jump\t// in\n    tag_155:\n      pop\n        /* \"1127/CompanyLogic.sol\":1288:1357  DataStruct.Worker(... */\n      mload(0x40)\n      dup1\n      0x40\n      add\n      0x40\n      mstore\n      dup1\n        /* \"1127/CompanyLogic.sol\":1321:1331  worker_did */\n      dup6\n        /* \"1127/CompanyLogic.sol\":1288:1357  DataStruct.Worker(... */\n      dup2\n      mstore\n      0x20\n      add\n        /* \"1127/CompanyLogic.sol\":1332:1346  worker_address */\n      dup5\n        /* \"1127/CompanyLogic.sol\":1288:1357  DataStruct.Worker(... */\n      0xffffffffffffffffffffffffffffffffffffffff\n      and\n      dup2\n      mstore\n      pop\n        /* \"1127/CompanyLogic.sol\":1263:1273  workerList */\n      0x03\n        /* \"1127/CompanyLogic.sol\":1274:1284  worker_did */\n      dup6\n        /* \"1127/CompanyLogic.sol\":1263:1285  workerList[worker_did] */\n      mload(0x40)\n      tag_156\n      swap2\n      swap1\n      tag_89\n      jump\t// in\n    tag_156:\n      swap1\n      dup2\n      mstore\n      0x20\n      add\n      mload(0x40)\n      dup1\n      swap2\n      sub\n      swap1\n      keccak256\n        /* \"1127/CompanyLogic.sol\":1263:1357  workerList[worker_did] = DataStruct.Worker(... */\n      0x00\n      dup3\n      add\n      mload\n      dup2\n      0x00\n      add\n      swap1\n      dup1\n      mload\n      swap1\n      0x20\n      add\n      swap1\n      tag_157\n      swap3\n      swap2\n      swap1\n      tag_95\n      jump\t// in\n    tag_157:\n      pop\n      0x20\n      dup3\n      add\n      mload\n      dup2\n      0x01\n      add\n      exp(0x0100, 0x00)\n      dup2\n      sload\n      dup2\n      0xffffffffffffffffffffffffffffffffffffffff\n      mul\n      not\n      and\n      swap1\n      dup4\n      0xffffffffffffffffffffffffffffffffffffffff\n      and\n      mul\n      or\n      swap1\n      sstore\n      pop\n      swap1\n      pop\n      pop\n        /* \"1127/CompanyLogic.sol\":1373:1410  NewWorkerAdd(worker_did,company_name) */\n      0x3b342535402e29d67e822084e8f23105b4c11e847ed79261c7406f98396cea1b\n        /* \"1127/CompanyLogic.sol\":1386:1396  worker_did */\n      dup5\n        /* \"1127/CompanyLogic.sol\":1397:1409  company_name */\n      0x02\n        /* \"1127/CompanyLogic.sol\":1373:1410  NewWorkerAdd(worker_did,company_name) */\n      mload(0x40)\n      tag_158\n      swap3\n      swap2\n      swap1\n      tag_117\n      jump\t// in\n    tag_158:\n      mload(0x40)\n      dup1\n      swap2\n      sub\n      swap1\n      log1\n        /* \"1127/CompanyLogic.sol\":1428:1432  true */\n      0x01\n        /* \"1127/CompanyLogic.sol\":1421:1432  return true */\n      swap2\n      pop\n        /* \"1127/util/AccessControl.sol\":881:882  _ */\n    tag_148:\n        /* \"1127/CompanyLogic.sol\":906:1440  function addWorker(string memory worker_did,address worker_address) public AccessControl.onlyRole(ADMIN_ROLE) returns (bool)  {... */\n      pop\n      swap3\n      swap2\n      pop\n      pop\n      jump\t// out\n        /* \"1127/util/AccessControl.sol\":206:250  bytes32 public constant DEFAULT_ADMIN = 0x00 */\n    tag_70:\n        /* \"1127/util/AccessControl.sol\":246:250  0x00 */\n      0x00\n        /* \"1127/util/AccessControl.sol\":206:250  bytes32 public constant DEFAULT_ADMIN = 0x00 */\n      dup1\n      shl\n      dup2\n      jump\t// out\n        /* \"1127/util/AccessControl.sol\":1011:1194  function checkRole(bytes32 role) public view returns (bool) {... */\n    tag_74:\n        /* \"1127/util/AccessControl.sol\":1065:1069  bool */\n      0x00\n        /* \"1127/util/AccessControl.sol\":1086:1111  hasRole(role, msg.sender) */\n      tag_160\n        /* \"1127/util/AccessControl.sol\":1094:1098  role */\n      dup3\n        /* \"1127/util/AccessControl.sol\":1100:1110  msg.sender */\n      caller\n        /* \"1127/util/AccessControl.sol\":1086:1093  hasRole */\n      tag_62\n        /* \"1127/util/AccessControl.sol\":1086:1111  hasRole(role, msg.sender) */\n      jump\t// in\n    tag_160:\n        /* \"1127/util/AccessControl.sol\":1081:1167  if (!hasRole(role, msg.sender)) {... */\n      tag_161\n      jumpi\n        /* \"1127/util/AccessControl.sol\":1127:1156  revert(\"UnAuthorizedAccount\") */\n      mload(0x40)\n      0x08c379a000000000000000000000000000000000000000000000000000000000\n      dup2\n      mstore\n      0x04\n      add\n      tag_162\n      swap1\n      tag_163\n      jump\t// in\n    tag_162:\n      mload(0x40)\n      dup1\n      swap2\n      sub\n      swap1\n      revert\n        /* \"1127/util/AccessControl.sol\":1081:1167  if (!hasRole(role, msg.sender)) {... */\n    tag_161:\n        /* \"1127/util/AccessControl.sol\":1183:1187  true */\n      0x01\n        /* \"1127/util/AccessControl.sol\":1176:1187  return true */\n      swap1\n      pop\n        /* \"1127/util/AccessControl.sol\":1011:1194  function checkRole(bytes32 role) public view returns (bool) {... */\n      swap2\n      swap1\n      pop\n      jump\t// out\n        /* \"1127/util/AccessControl.sol\":2161:2490  function revokeRole(bytes32 role, address member)... */\n    tag_78:\n        /* \"1127/util/AccessControl.sol\":2280:2284  bool */\n      0x00\n        /* \"1127/util/AccessControl.sol\":2243:2261  getRoleAdmin(role) */\n      tag_164\n        /* \"1127/util/AccessControl.sol\":2256:2260  role */\n      dup4\n        /* \"1127/util/AccessControl.sol\":2243:2255  getRoleAdmin */\n      tag_30\n        /* \"1127/util/AccessControl.sol\":2243:2261  getRoleAdmin(role) */\n      jump\t// in\n    tag_164:\n        /* \"1127/util/AccessControl.sol\":856:871  checkRole(role) */\n      tag_166\n        /* \"1127/util/AccessControl.sol\":866:870  role */\n      dup2\n        /* \"1127/util/AccessControl.sol\":856:865  checkRole */\n      tag_74\n        /* \"1127/util/AccessControl.sol\":856:871  checkRole(role) */\n      jump\t// in\n    tag_166:\n      pop\n        /* \"1127/util/AccessControl.sol\":2305:2326  hasRole(role, member) */\n      tag_168\n        /* \"1127/util/AccessControl.sol\":2313:2317  role */\n      dup5\n        /* \"1127/util/AccessControl.sol\":2319:2325  member */\n      dup5\n        /* \"1127/util/AccessControl.sol\":2305:2312  hasRole */\n      tag_62\n        /* \"1127/util/AccessControl.sol\":2305:2326  hasRole(role, member) */\n      jump\t// in\n    tag_168:\n        /* \"1127/util/AccessControl.sol\":2300:2365  if (!hasRole(role, member)) {... */\n      tag_169\n      jumpi\n        /* \"1127/util/AccessControl.sol\":2349:2354  false */\n      0x00\n        /* \"1127/util/AccessControl.sol\":2342:2354  return false */\n      swap2\n      pop\n      jump(tag_167)\n        /* \"1127/util/AccessControl.sol\":2300:2365  if (!hasRole(role, member)) {... */\n    tag_169:\n        /* \"1127/util/AccessControl.sol\":2405:2410  false */\n      0x00\n        /* \"1127/util/AccessControl.sol\":2374:2379  roles */\n      dup1\n        /* \"1127/util/AccessControl.sol\":2374:2385  roles[role] */\n      0x00\n        /* \"1127/util/AccessControl.sol\":2380:2384  role */\n      dup7\n        /* \"1127/util/AccessControl.sol\":2374:2385  roles[role] */\n      dup2\n      mstore\n      0x20\n      add\n      swap1\n      dup2\n      mstore\n      0x20\n      add\n      0x00\n      keccak256\n        /* \"1127/util/AccessControl.sol\":2374:2394  roles[role].hasRoles */\n      0x00\n      add\n        /* \"1127/util/AccessControl.sol\":2374:2402  roles[role].hasRoles[member] */\n      0x00\n        /* \"1127/util/AccessControl.sol\":2395:2401  member */\n      dup6\n        /* \"1127/util/AccessControl.sol\":2374:2402  roles[role].hasRoles[member] */\n      0xffffffffffffffffffffffffffffffffffffffff\n      and\n      0xffffffffffffffffffffffffffffffffffffffff\n      and\n      dup2\n      mstore\n      0x20\n      add\n      swap1\n      dup2\n      mstore\n      0x20\n      add\n      0x00\n      keccak256\n      0x00\n        /* \"1127/util/AccessControl.sol\":2374:2410  roles[role].hasRoles[member] = false */\n      0x0100\n      exp\n      dup2\n      sload\n      dup2\n      0xff\n      mul\n      not\n      and\n      swap1\n      dup4\n      iszero\n      iszero\n      mul\n      or\n      swap1\n      sstore\n      pop\n        /* \"1127/util/AccessControl.sol\":2451:2461  msg.sender */\n      caller\n        /* \"1127/util/AccessControl.sol\":2425:2462  RoleRevoked(role, member, msg.sender) */\n      0xffffffffffffffffffffffffffffffffffffffff\n      and\n        /* \"1127/util/AccessControl.sol\":2443:2449  member */\n      dup4\n        /* \"1127/util/AccessControl.sol\":2425:2462  RoleRevoked(role, member, msg.sender) */\n      0xffffffffffffffffffffffffffffffffffffffff\n      and\n        /* \"1127/util/AccessControl.sol\":2437:2441  role */\n      dup6\n        /* \"1127/util/AccessControl.sol\":2425:2462  RoleRevoked(role, member, msg.sender) */\n      0xf6391f5c32d9c69d2a47ea670b442974b53935d1edc7fd64eb21e047a839171b\n      mload(0x40)\n      mload(0x40)\n      dup1\n      swap2\n      sub\n      swap1\n      log4\n        /* \"1127/util/AccessControl.sol\":2479:2483  true */\n      0x01\n        /* \"1127/util/AccessControl.sol\":2472:2483  return true */\n      swap2\n      pop\n        /* \"1127/util/AccessControl.sol\":881:882  _ */\n    tag_167:\n        /* \"1127/util/AccessControl.sol\":2161:2490  function revokeRole(bytes32 role, address member)... */\n      pop\n      swap3\n      swap2\n      pop\n      pop\n      jump\t// out\n        /* \"1127/CompanyLogic.sol\":2896:3320  function addDataInGroup(string memory _group,string memory _dataCid) public AccessControl.onlyRole(WORKER_ROLE) returns (bool){... */\n    tag_83:\n        /* \"1127/CompanyLogic.sol\":3017:3021  bool */\n      0x00\n        /* \"1127/CompanyLogic.sol\":359:378  keccak256(\"WORKER\") */\n      0xf101d8f75d5816ea5d4f9e76d2b196ca77914d087c68fd9b89f497d695bcddf7\n        /* \"1127/util/AccessControl.sol\":856:871  checkRole(role) */\n      tag_171\n        /* \"1127/util/AccessControl.sol\":866:870  role */\n      dup2\n        /* \"1127/util/AccessControl.sol\":856:865  checkRole */\n      tag_74\n        /* \"1127/util/AccessControl.sol\":856:871  checkRole(role) */\n      jump\t// in\n    tag_171:\n      pop\n        /* \"1127/CompanyLogic.sol\":3042:3055  dataGroupList */\n      0x04\n        /* \"1127/CompanyLogic.sol\":3056:3062  _group */\n      dup5\n        /* \"1127/CompanyLogic.sol\":3042:3063  dataGroupList[_group] */\n      mload(0x40)\n      tag_173\n      swap2\n      swap1\n      tag_89\n      jump\t// in\n    tag_173:\n      swap1\n      dup2\n      mstore\n      0x20\n      add\n      mload(0x40)\n      dup1\n      swap2\n      sub\n      swap1\n      keccak256\n        /* \"1127/CompanyLogic.sol\":3042:3070  dataGroupList[_group].isOpen */\n      0x02\n      add\n      0x00\n      swap1\n      sload\n      swap1\n      0x0100\n      exp\n      swap1\n      div\n      0xff\n      and\n        /* \"1127/CompanyLogic.sol\":3034:3088  require(dataGroupList[_group].isOpen,\"No group found\") */\n      tag_174\n      jumpi\n      mload(0x40)\n      0x08c379a000000000000000000000000000000000000000000000000000000000\n      dup2\n      mstore\n      0x04\n      add\n      tag_175\n      swap1\n      tag_92\n      jump\t// in\n    tag_175:\n      mload(0x40)\n      dup1\n      swap2\n      sub\n      swap1\n      revert\n    tag_174:\n        /* \"1127/CompanyLogic.sol\":3100:3112  uint256 size */\n      0x00\n        /* \"1127/CompanyLogic.sol\":3115:3128  dataGroupList */\n      0x04\n        /* \"1127/CompanyLogic.sol\":3129:3135  _group */\n      dup6\n        /* \"1127/CompanyLogic.sol\":3115:3136  dataGroupList[_group] */\n      mload(0x40)\n      tag_176\n      swap2\n      swap1\n      tag_89\n      jump\t// in\n    tag_176:\n      swap1\n      dup2\n      mstore\n      0x20\n      add\n      mload(0x40)\n      dup1\n      swap2\n      sub\n      swap1\n      keccak256\n        /* \"1127/CompanyLogic.sol\":3115:3146  dataGroupList[_group].assetSize */\n      0x01\n      add\n      sload\n        /* \"1127/CompanyLogic.sol\":3100:3146  uint256 size = dataGroupList[_group].assetSize */\n      swap1\n      pop\n        /* \"1127/CompanyLogic.sol\":3158:3164  size++ */\n      dup1\n      dup1\n      tag_177\n      swap1\n      tag_178\n      jump\t// in\n    tag_177:\n      swap2\n      pop\n      pop\n        /* \"1127/CompanyLogic.sol\":3210:3214  size */\n      dup1\n        /* \"1127/CompanyLogic.sol\":3176:3189  dataGroupList */\n      0x04\n        /* \"1127/CompanyLogic.sol\":3190:3196  _group */\n      dup7\n        /* \"1127/CompanyLogic.sol\":3176:3197  dataGroupList[_group] */\n      mload(0x40)\n      tag_179\n      swap2\n      swap1\n      tag_89\n      jump\t// in\n    tag_179:\n      swap1\n      dup2\n      mstore\n      0x20\n      add\n      mload(0x40)\n      dup1\n      swap2\n      sub\n      swap1\n      keccak256\n        /* \"1127/CompanyLogic.sol\":3176:3207  dataGroupList[_group].assetSize */\n      0x01\n      add\n        /* \"1127/CompanyLogic.sol\":3176:3214  dataGroupList[_group].assetSize = size */\n      dup2\n      swap1\n      sstore\n      pop\n        /* \"1127/CompanyLogic.sol\":3263:3289  DataStruct.Asset(_dataCid) */\n      mload(0x40)\n      dup1\n      0x20\n      add\n      0x40\n      mstore\n      dup1\n        /* \"1127/CompanyLogic.sol\":3280:3288  _dataCid */\n      dup6\n        /* \"1127/CompanyLogic.sol\":3263:3289  DataStruct.Asset(_dataCid) */\n      dup2\n      mstore\n      pop\n        /* \"1127/CompanyLogic.sol\":3226:3239  dataGroupList */\n      0x04\n        /* \"1127/CompanyLogic.sol\":3240:3246  _group */\n      dup7\n        /* \"1127/CompanyLogic.sol\":3226:3247  dataGroupList[_group] */\n      mload(0x40)\n      tag_180\n      swap2\n      swap1\n      tag_89\n      jump\t// in\n    tag_180:\n      swap1\n      dup2\n      mstore\n      0x20\n      add\n      mload(0x40)\n      dup1\n      swap2\n      sub\n      swap1\n      keccak256\n        /* \"1127/CompanyLogic.sol\":3226:3254  dataGroupList[_group].assets */\n      0x00\n      add\n        /* \"1127/CompanyLogic.sol\":3226:3260  dataGroupList[_group].assets[size] */\n      0x00\n        /* \"1127/CompanyLogic.sol\":3255:3259  size */\n      dup4\n        /* \"1127/CompanyLogic.sol\":3226:3260  dataGroupList[_group].assets[size] */\n      dup2\n      mstore\n      0x20\n      add\n      swap1\n      dup2\n      mstore\n      0x20\n      add\n      0x00\n      keccak256\n        /* \"1127/CompanyLogic.sol\":3226:3289  dataGroupList[_group].assets[size] = DataStruct.Asset(_dataCid) */\n      0x00\n      dup3\n      add\n      mload\n      dup2\n      0x00\n      add\n      swap1\n      dup1\n      mload\n      swap1\n      0x20\n      add\n      swap1\n      tag_181\n      swap3\n      swap2\n      swap1\n      tag_95\n      jump\t// in\n    tag_181:\n      pop\n      swap1\n      pop\n      pop\n        /* \"1127/CompanyLogic.sol\":3308:3312  true */\n      0x01\n        /* \"1127/CompanyLogic.sol\":3301:3312  return true */\n      swap3\n      pop\n      pop\n        /* \"1127/CompanyLogic.sol\":2896:3320  function addDataInGroup(string memory _group,string memory _dataCid) public AccessControl.onlyRole(WORKER_ROLE) returns (bool){... */\n      pop\n      swap3\n      swap2\n      pop\n      pop\n      jump\t// out\n    tag_95:\n      dup3\n      dup1\n      sload\n      tag_182\n      swap1\n      tag_123\n      jump\t// in\n    tag_182:\n      swap1\n      0x00\n      mstore\n      keccak256(0x00, 0x20)\n      swap1\n      0x1f\n      add\n      0x20\n      swap1\n      div\n      dup2\n      add\n      swap3\n      dup3\n      tag_184\n      jumpi\n      0x00\n      dup6\n      sstore\n      jump(tag_183)\n    tag_184:\n      dup3\n      0x1f\n      lt\n      tag_185\n      jumpi\n      dup1\n      mload\n      not(0xff)\n      and\n      dup4\n      dup1\n      add\n      or\n      dup6\n      sstore\n      jump(tag_183)\n    tag_185:\n      dup3\n      dup1\n      add\n      0x01\n      add\n      dup6\n      sstore\n      dup3\n      iszero\n      tag_183\n      jumpi\n      swap2\n      dup3\n      add\n    tag_186:\n      dup3\n      dup2\n      gt\n      iszero\n      tag_187\n      jumpi\n      dup3\n      mload\n      dup3\n      sstore\n      swap2\n      0x20\n      add\n      swap2\n      swap1\n      0x01\n      add\n      swap1\n      jump(tag_186)\n    tag_187:\n    tag_183:\n      pop\n      swap1\n      pop\n      tag_188\n      swap2\n      swap1\n      tag_189\n      jump\t// in\n    tag_188:\n      pop\n      swap1\n      jump\t// out\n    tag_189:\n    tag_190:\n      dup1\n      dup3\n      gt\n      iszero\n      tag_191\n      jumpi\n      0x00\n      dup2\n      0x00\n      swap1\n      sstore\n      pop\n      0x01\n      add\n      jump(tag_190)\n    tag_191:\n      pop\n      swap1\n      jump\t// out\n        /* \"#utility.yul\":7:82   */\n    tag_192:\n        /* \"#utility.yul\":40:46   */\n      0x00\n        /* \"#utility.yul\":73:75   */\n      0x40\n        /* \"#utility.yul\":67:76   */\n      mload\n        /* \"#utility.yul\":57:76   */\n      swap1\n      pop\n        /* \"#utility.yul\":7:82   */\n      swap1\n      jump\t// out\n        /* \"#utility.yul\":88:205   */\n    tag_193:\n        /* \"#utility.yul\":197:198   */\n      0x00\n        /* \"#utility.yul\":194:195   */\n      dup1\n        /* \"#utility.yul\":187:199   */\n      revert\n        /* \"#utility.yul\":211:328   */\n    tag_194:\n        /* \"#utility.yul\":320:321   */\n      0x00\n        /* \"#utility.yul\":317:318   */\n      dup1\n        /* \"#utility.yul\":310:322   */\n      revert\n        /* \"#utility.yul\":334:451   */\n    tag_195:\n        /* \"#utility.yul\":443:444   */\n      0x00\n        /* \"#utility.yul\":440:441   */\n      dup1\n        /* \"#utility.yul\":433:445   */\n      revert\n        /* \"#utility.yul\":457:574   */\n    tag_196:\n        /* \"#utility.yul\":566:567   */\n      0x00\n        /* \"#utility.yul\":563:564   */\n      dup1\n        /* \"#utility.yul\":556:568   */\n      revert\n        /* \"#utility.yul\":580:682   */\n    tag_197:\n        /* \"#utility.yul\":621:627   */\n      0x00\n        /* \"#utility.yul\":672:674   */\n      0x1f\n        /* \"#utility.yul\":668:675   */\n      not\n        /* \"#utility.yul\":663:665   */\n      0x1f\n        /* \"#utility.yul\":656:661   */\n      dup4\n        /* \"#utility.yul\":652:666   */\n      add\n        /* \"#utility.yul\":648:676   */\n      and\n        /* \"#utility.yul\":638:676   */\n      swap1\n      pop\n        /* \"#utility.yul\":580:682   */\n      swap2\n      swap1\n      pop\n      jump\t// out\n        /* \"#utility.yul\":688:868   */\n    tag_198:\n        /* \"#utility.yul\":736:813   */\n      0x4e487b7100000000000000000000000000000000000000000000000000000000\n        /* \"#utility.yul\":733:734   */\n      0x00\n        /* \"#utility.yul\":726:814   */\n      mstore\n        /* \"#utility.yul\":833:837   */\n      0x41\n        /* \"#utility.yul\":830:831   */\n      0x04\n        /* \"#utility.yul\":823:838   */\n      mstore\n        /* \"#utility.yul\":857:861   */\n      0x24\n        /* \"#utility.yul\":854:855   */\n      0x00\n        /* \"#utility.yul\":847:862   */\n      revert\n        /* \"#utility.yul\":874:1155   */\n    tag_199:\n        /* \"#utility.yul\":957:984   */\n      tag_251\n        /* \"#utility.yul\":979:983   */\n      dup3\n        /* \"#utility.yul\":957:984   */\n      tag_197\n      jump\t// in\n    tag_251:\n        /* \"#utility.yul\":949:955   */\n      dup2\n        /* \"#utility.yul\":945:985   */\n      add\n        /* \"#utility.yul\":1087:1093   */\n      dup2\n        /* \"#utility.yul\":1075:1085   */\n      dup2\n        /* \"#utility.yul\":1072:1094   */\n      lt\n        /* \"#utility.yul\":1051:1069   */\n      0xffffffffffffffff\n        /* \"#utility.yul\":1039:1049   */\n      dup3\n        /* \"#utility.yul\":1036:1070   */\n      gt\n        /* \"#utility.yul\":1033:1095   */\n      or\n        /* \"#utility.yul\":1030:1118   */\n      iszero\n      tag_252\n      jumpi\n        /* \"#utility.yul\":1098:1116   */\n      tag_253\n      tag_198\n      jump\t// in\n    tag_253:\n        /* \"#utility.yul\":1030:1118   */\n    tag_252:\n        /* \"#utility.yul\":1138:1148   */\n      dup1\n        /* \"#utility.yul\":1134:1136   */\n      0x40\n        /* \"#utility.yul\":1127:1149   */\n      mstore\n        /* \"#utility.yul\":917:1155   */\n      pop\n        /* \"#utility.yul\":874:1155   */\n      pop\n      pop\n      jump\t// out\n        /* \"#utility.yul\":1161:1290   */\n    tag_200:\n        /* \"#utility.yul\":1195:1201   */\n      0x00\n        /* \"#utility.yul\":1222:1242   */\n      tag_255\n      tag_192\n      jump\t// in\n    tag_255:\n        /* \"#utility.yul\":1212:1242   */\n      swap1\n      pop\n        /* \"#utility.yul\":1251:1284   */\n      tag_256\n        /* \"#utility.yul\":1279:1283   */\n      dup3\n        /* \"#utility.yul\":1271:1277   */\n      dup3\n        /* \"#utility.yul\":1251:1284   */\n      tag_199\n      jump\t// in\n    tag_256:\n        /* \"#utility.yul\":1161:1290   */\n      swap2\n      swap1\n      pop\n      jump\t// out\n        /* \"#utility.yul\":1296:1604   */\n    tag_201:\n        /* \"#utility.yul\":1358:1362   */\n      0x00\n        /* \"#utility.yul\":1448:1466   */\n      0xffffffffffffffff\n        /* \"#utility.yul\":1440:1446   */\n      dup3\n        /* \"#utility.yul\":1437:1467   */\n      gt\n        /* \"#utility.yul\":1434:1490   */\n      iszero\n      tag_258\n      jumpi\n        /* \"#utility.yul\":1470:1488   */\n      tag_259\n      tag_198\n      jump\t// in\n    tag_259:\n        /* \"#utility.yul\":1434:1490   */\n    tag_258:\n        /* \"#utility.yul\":1508:1537   */\n      tag_260\n        /* \"#utility.yul\":1530:1536   */\n      dup3\n        /* \"#utility.yul\":1508:1537   */\n      tag_197\n      jump\t// in\n    tag_260:\n        /* \"#utility.yul\":1500:1537   */\n      swap1\n      pop\n        /* \"#utility.yul\":1592:1596   */\n      0x20\n        /* \"#utility.yul\":1586:1590   */\n      dup2\n        /* \"#utility.yul\":1582:1597   */\n      add\n        /* \"#utility.yul\":1574:1597   */\n      swap1\n      pop\n        /* \"#utility.yul\":1296:1604   */\n      swap2\n      swap1\n      pop\n      jump\t// out\n        /* \"#utility.yul\":1610:1764   */\n    tag_202:\n        /* \"#utility.yul\":1694:1700   */\n      dup3\n        /* \"#utility.yul\":1689:1692   */\n      dup2\n        /* \"#utility.yul\":1684:1687   */\n      dup4\n        /* \"#utility.yul\":1671:1701   */\n      calldatacopy\n        /* \"#utility.yul\":1756:1757   */\n      0x00\n        /* \"#utility.yul\":1747:1753   */\n      dup4\n        /* \"#utility.yul\":1742:1745   */\n      dup4\n        /* \"#utility.yul\":1738:1754   */\n      add\n        /* \"#utility.yul\":1731:1758   */\n      mstore\n        /* \"#utility.yul\":1610:1764   */\n      pop\n      pop\n      pop\n      jump\t// out\n        /* \"#utility.yul\":1770:2182   */\n    tag_203:\n        /* \"#utility.yul\":1848:1853   */\n      0x00\n        /* \"#utility.yul\":1873:1939   */\n      tag_263\n        /* \"#utility.yul\":1889:1938   */\n      tag_264\n        /* \"#utility.yul\":1931:1937   */\n      dup5\n        /* \"#utility.yul\":1889:1938   */\n      tag_201\n      jump\t// in\n    tag_264:\n        /* \"#utility.yul\":1873:1939   */\n      tag_200\n      jump\t// in\n    tag_263:\n        /* \"#utility.yul\":1864:1939   */\n      swap1\n      pop\n        /* \"#utility.yul\":1962:1968   */\n      dup3\n        /* \"#utility.yul\":1955:1960   */\n      dup2\n        /* \"#utility.yul\":1948:1969   */\n      mstore\n        /* \"#utility.yul\":2000:2004   */\n      0x20\n        /* \"#utility.yul\":1993:1998   */\n      dup2\n        /* \"#utility.yul\":1989:2005   */\n      add\n        /* \"#utility.yul\":2038:2041   */\n      dup5\n        /* \"#utility.yul\":2029:2035   */\n      dup5\n        /* \"#utility.yul\":2024:2027   */\n      dup5\n        /* \"#utility.yul\":2020:2036   */\n      add\n        /* \"#utility.yul\":2017:2042   */\n      gt\n        /* \"#utility.yul\":2014:2126   */\n      iszero\n      tag_265\n      jumpi\n        /* \"#utility.yul\":2045:2124   */\n      tag_266\n      tag_196\n      jump\t// in\n    tag_266:\n        /* \"#utility.yul\":2014:2126   */\n    tag_265:\n        /* \"#utility.yul\":2135:2176   */\n      tag_267\n        /* \"#utility.yul\":2169:2175   */\n      dup5\n        /* \"#utility.yul\":2164:2167   */\n      dup3\n        /* \"#utility.yul\":2159:2162   */\n      dup6\n        /* \"#utility.yul\":2135:2176   */\n      tag_202\n      jump\t// in\n    tag_267:\n        /* \"#utility.yul\":1854:2182   */\n      pop\n        /* \"#utility.yul\":1770:2182   */\n      swap4\n      swap3\n      pop\n      pop\n      pop\n      jump\t// out\n        /* \"#utility.yul\":2202:2542   */\n    tag_204:\n        /* \"#utility.yul\":2258:2263   */\n      0x00\n        /* \"#utility.yul\":2307:2310   */\n      dup3\n        /* \"#utility.yul\":2300:2304   */\n      0x1f\n        /* \"#utility.yul\":2292:2298   */\n      dup4\n        /* \"#utility.yul\":2288:2305   */\n      add\n        /* \"#utility.yul\":2284:2311   */\n      slt\n        /* \"#utility.yul\":2274:2396   */\n      tag_269\n      jumpi\n        /* \"#utility.yul\":2315:2394   */\n      tag_270\n      tag_195\n      jump\t// in\n    tag_270:\n        /* \"#utility.yul\":2274:2396   */\n    tag_269:\n        /* \"#utility.yul\":2432:2438   */\n      dup2\n        /* \"#utility.yul\":2419:2439   */\n      calldataload\n        /* \"#utility.yul\":2457:2536   */\n      tag_271\n        /* \"#utility.yul\":2532:2535   */\n      dup5\n        /* \"#utility.yul\":2524:2530   */\n      dup3\n        /* \"#utility.yul\":2517:2521   */\n      0x20\n        /* \"#utility.yul\":2509:2515   */\n      dup7\n        /* \"#utility.yul\":2505:2522   */\n      add\n        /* \"#utility.yul\":2457:2536   */\n      tag_203\n      jump\t// in\n    tag_271:\n        /* \"#utility.yul\":2448:2536   */\n      swap2\n      pop\n        /* \"#utility.yul\":2264:2542   */\n      pop\n        /* \"#utility.yul\":2202:2542   */\n      swap3\n      swap2\n      pop\n      pop\n      jump\t// out\n        /* \"#utility.yul\":2548:2625   */\n    tag_205:\n        /* \"#utility.yul\":2585:2592   */\n      0x00\n        /* \"#utility.yul\":2614:2619   */\n      dup2\n        /* \"#utility.yul\":2603:2619   */\n      swap1\n      pop\n        /* \"#utility.yul\":2548:2625   */\n      swap2\n      swap1\n      pop\n      jump\t// out\n        /* \"#utility.yul\":2631:2753   */\n    tag_206:\n        /* \"#utility.yul\":2704:2728   */\n      tag_274\n        /* \"#utility.yul\":2722:2727   */\n      dup2\n        /* \"#utility.yul\":2704:2728   */\n      tag_205\n      jump\t// in\n    tag_274:\n        /* \"#utility.yul\":2697:2702   */\n      dup2\n        /* \"#utility.yul\":2694:2729   */\n      eq\n        /* \"#utility.yul\":2684:2747   */\n      tag_275\n      jumpi\n        /* \"#utility.yul\":2743:2744   */\n      0x00\n        /* \"#utility.yul\":2740:2741   */\n      dup1\n        /* \"#utility.yul\":2733:2745   */\n      revert\n        /* \"#utility.yul\":2684:2747   */\n    tag_275:\n        /* \"#utility.yul\":2631:2753   */\n      pop\n      jump\t// out\n        /* \"#utility.yul\":2759:2898   */\n    tag_207:\n        /* \"#utility.yul\":2805:2810   */\n      0x00\n        /* \"#utility.yul\":2843:2849   */\n      dup2\n        /* \"#utility.yul\":2830:2850   */\n      calldataload\n        /* \"#utility.yul\":2821:2850   */\n      swap1\n      pop\n        /* \"#utility.yul\":2859:2892   */\n      tag_277\n        /* \"#utility.yul\":2886:2891   */\n      dup2\n        /* \"#utility.yul\":2859:2892   */\n      tag_206\n      jump\t// in\n    tag_277:\n        /* \"#utility.yul\":2759:2898   */\n      swap3\n      swap2\n      pop\n      pop\n      jump\t// out\n        /* \"#utility.yul\":2904:3883   */\n    tag_23:\n        /* \"#utility.yul\":3001:3007   */\n      0x00\n        /* \"#utility.yul\":3009:3015   */\n      dup1\n        /* \"#utility.yul\":3017:3023   */\n      0x00\n        /* \"#utility.yul\":3066:3068   */\n      0x60\n        /* \"#utility.yul\":3054:3063   */\n      dup5\n        /* \"#utility.yul\":3045:3052   */\n      dup7\n        /* \"#utility.yul\":3041:3064   */\n      sub\n        /* \"#utility.yul\":3037:3069   */\n      slt\n        /* \"#utility.yul\":3034:3153   */\n      iszero\n      tag_279\n      jumpi\n        /* \"#utility.yul\":3072:3151   */\n      tag_280\n      tag_193\n      jump\t// in\n    tag_280:\n        /* \"#utility.yul\":3034:3153   */\n    tag_279:\n        /* \"#utility.yul\":3220:3221   */\n      0x00\n        /* \"#utility.yul\":3209:3218   */\n      dup5\n        /* \"#utility.yul\":3205:3222   */\n      add\n        /* \"#utility.yul\":3192:3223   */\n      calldataload\n        /* \"#utility.yul\":3250:3268   */\n      0xffffffffffffffff\n        /* \"#utility.yul\":3242:3248   */\n      dup2\n        /* \"#utility.yul\":3239:3269   */\n      gt\n        /* \"#utility.yul\":3236:3353   */\n      iszero\n      tag_281\n      jumpi\n        /* \"#utility.yul\":3272:3351   */\n      tag_282\n      tag_194\n      jump\t// in\n    tag_282:\n        /* \"#utility.yul\":3236:3353   */\n    tag_281:\n        /* \"#utility.yul\":3377:3440   */\n      tag_283\n        /* \"#utility.yul\":3432:3439   */\n      dup7\n        /* \"#utility.yul\":3423:3429   */\n      dup3\n        /* \"#utility.yul\":3412:3421   */\n      dup8\n        /* \"#utility.yul\":3408:3430   */\n      add\n        /* \"#utility.yul\":3377:3440   */\n      tag_204\n      jump\t// in\n    tag_283:\n        /* \"#utility.yul\":3367:3440   */\n      swap4\n      pop\n        /* \"#utility.yul\":3163:3450   */\n      pop\n        /* \"#utility.yul\":3489:3491   */\n      0x20\n        /* \"#utility.yul\":3515:3568   */\n      tag_284\n        /* \"#utility.yul\":3560:3567   */\n      dup7\n        /* \"#utility.yul\":3551:3557   */\n      dup3\n        /* \"#utility.yul\":3540:3549   */\n      dup8\n        /* \"#utility.yul\":3536:3558   */\n      add\n        /* \"#utility.yul\":3515:3568   */\n      tag_207\n      jump\t// in\n    tag_284:\n        /* \"#utility.yul\":3505:3568   */\n      swap3\n      pop\n        /* \"#utility.yul\":3460:3578   */\n      pop\n        /* \"#utility.yul\":3645:3647   */\n      0x40\n        /* \"#utility.yul\":3634:3643   */\n      dup5\n        /* \"#utility.yul\":3630:3648   */\n      add\n        /* \"#utility.yul\":3617:3649   */\n      calldataload\n        /* \"#utility.yul\":3676:3694   */\n      0xffffffffffffffff\n        /* \"#utility.yul\":3668:3674   */\n      dup2\n        /* \"#utility.yul\":3665:3695   */\n      gt\n        /* \"#utility.yul\":3662:3779   */\n      iszero\n      tag_285\n      jumpi\n        /* \"#utility.yul\":3698:3777   */\n      tag_286\n      tag_194\n      jump\t// in\n    tag_286:\n        /* \"#utility.yul\":3662:3779   */\n    tag_285:\n        /* \"#utility.yul\":3803:3866   */\n      tag_287\n        /* \"#utility.yul\":3858:3865   */\n      dup7\n        /* \"#utility.yul\":3849:3855   */\n      dup3\n        /* \"#utility.yul\":3838:3847   */\n      dup8\n        /* \"#utility.yul\":3834:3856   */\n      add\n        /* \"#utility.yul\":3803:3866   */\n      tag_204\n      jump\t// in\n    tag_287:\n        /* \"#utility.yul\":3793:3866   */\n      swap2\n      pop\n        /* \"#utility.yul\":3588:3876   */\n      pop\n        /* \"#utility.yul\":2904:3883   */\n      swap3\n      pop\n      swap3\n      pop\n      swap3\n      jump\t// out\n        /* \"#utility.yul\":3889:3979   */\n    tag_208:\n        /* \"#utility.yul\":3923:3930   */\n      0x00\n        /* \"#utility.yul\":3966:3971   */\n      dup2\n        /* \"#utility.yul\":3959:3972   */\n      iszero\n        /* \"#utility.yul\":3952:3973   */\n      iszero\n        /* \"#utility.yul\":3941:3973   */\n      swap1\n      pop\n        /* \"#utility.yul\":3889:3979   */\n      swap2\n      swap1\n      pop\n      jump\t// out\n        /* \"#utility.yul\":3985:4094   */\n    tag_209:\n        /* \"#utility.yul\":4066:4087   */\n      tag_290\n        /* \"#utility.yul\":4081:4086   */\n      dup2\n        /* \"#utility.yul\":4066:4087   */\n      tag_208\n      jump\t// in\n    tag_290:\n        /* \"#utility.yul\":4061:4064   */\n      dup3\n        /* \"#utility.yul\":4054:4088   */\n      mstore\n        /* \"#utility.yul\":3985:4094   */\n      pop\n      pop\n      jump\t// out\n        /* \"#utility.yul\":4100:4310   */\n    tag_26:\n        /* \"#utility.yul\":4187:4191   */\n      0x00\n        /* \"#utility.yul\":4225:4227   */\n      0x20\n        /* \"#utility.yul\":4214:4223   */\n      dup3\n        /* \"#utility.yul\":4210:4228   */\n      add\n        /* \"#utility.yul\":4202:4228   */\n      swap1\n      pop\n        /* \"#utility.yul\":4238:4303   */\n      tag_292\n        /* \"#utility.yul\":4300:4301   */\n      0x00\n        /* \"#utility.yul\":4289:4298   */\n      dup4\n        /* \"#utility.yul\":4285:4302   */\n      add\n        /* \"#utility.yul\":4276:4282   */\n      dup5\n        /* \"#utility.yul\":4238:4303   */\n      tag_209\n      jump\t// in\n    tag_292:\n        /* \"#utility.yul\":4100:4310   */\n      swap3\n      swap2\n      pop\n      pop\n      jump\t// out\n        /* \"#utility.yul\":4316:4393   */\n    tag_210:\n        /* \"#utility.yul\":4353:4360   */\n      0x00\n        /* \"#utility.yul\":4382:4387   */\n      dup2\n        /* \"#utility.yul\":4371:4387   */\n      swap1\n      pop\n        /* \"#utility.yul\":4316:4393   */\n      swap2\n      swap1\n      pop\n      jump\t// out\n        /* \"#utility.yul\":4399:4521   */\n    tag_211:\n        /* \"#utility.yul\":4472:4496   */\n      tag_295\n        /* \"#utility.yul\":4490:4495   */\n      dup2\n        /* \"#utility.yul\":4472:4496   */\n      tag_210\n      jump\t// in\n    tag_295:\n        /* \"#utility.yul\":4465:4470   */\n      dup2\n        /* \"#utility.yul\":4462:4497   */\n      eq\n        /* \"#utility.yul\":4452:4515   */\n      tag_296\n      jumpi\n        /* \"#utility.yul\":4511:4512   */\n      0x00\n        /* \"#utility.yul\":4508:4509   */\n      dup1\n        /* \"#utility.yul\":4501:4513   */\n      revert\n        /* \"#utility.yul\":4452:4515   */\n    tag_296:\n        /* \"#utility.yul\":4399:4521   */\n      pop\n      jump\t// out\n        /* \"#utility.yul\":4527:4666   */\n    tag_212:\n        /* \"#utility.yul\":4573:4578   */\n      0x00\n        /* \"#utility.yul\":4611:4617   */\n      dup2\n        /* \"#utility.yul\":4598:4618   */\n      calldataload\n        /* \"#utility.yul\":4589:4618   */\n      swap1\n      pop\n        /* \"#utility.yul\":4627:4660   */\n      tag_298\n        /* \"#utility.yul\":4654:4659   */\n      dup2\n        /* \"#utility.yul\":4627:4660   */\n      tag_211\n      jump\t// in\n    tag_298:\n        /* \"#utility.yul\":4527:4666   */\n      swap3\n      swap2\n      pop\n      pop\n      jump\t// out\n        /* \"#utility.yul\":4672:5001   */\n    tag_29:\n        /* \"#utility.yul\":4731:4737   */\n      0x00\n        /* \"#utility.yul\":4780:4782   */\n      0x20\n        /* \"#utility.yul\":4768:4777   */\n      dup3\n        /* \"#utility.yul\":4759:4766   */\n      dup5\n        /* \"#utility.yul\":4755:4778   */\n      sub\n        /* \"#utility.yul\":4751:4783   */\n      slt\n        /* \"#utility.yul\":4748:4867   */\n      iszero\n      tag_300\n      jumpi\n        /* \"#utility.yul\":4786:4865   */\n      tag_301\n      tag_193\n      jump\t// in\n    tag_301:\n        /* \"#utility.yul\":4748:4867   */\n    tag_300:\n        /* \"#utility.yul\":4906:4907   */\n      0x00\n        /* \"#utility.yul\":4931:4984   */\n      tag_302\n        /* \"#utility.yul\":4976:4983   */\n      dup5\n        /* \"#utility.yul\":4967:4973   */\n      dup3\n        /* \"#utility.yul\":4956:4965   */\n      dup6\n        /* \"#utility.yul\":4952:4974   */\n      add\n        /* \"#utility.yul\":4931:4984   */\n      tag_212\n      jump\t// in\n    tag_302:\n        /* \"#utility.yul\":4921:4984   */\n      swap2\n      pop\n        /* \"#utility.yul\":4877:4994   */\n      pop\n        /* \"#utility.yul\":4672:5001   */\n      swap3\n      swap2\n      pop\n      pop\n      jump\t// out\n        /* \"#utility.yul\":5007:5125   */\n    tag_213:\n        /* \"#utility.yul\":5094:5118   */\n      tag_304\n        /* \"#utility.yul\":5112:5117   */\n      dup2\n        /* \"#utility.yul\":5094:5118   */\n      tag_210\n      jump\t// in\n    tag_304:\n        /* \"#utility.yul\":5089:5092   */\n      dup3\n        /* \"#utility.yul\":5082:5119   */\n      mstore\n        /* \"#utility.yul\":5007:5125   */\n      pop\n      pop\n      jump\t// out\n        /* \"#utility.yul\":5131:5353   */\n    tag_32:\n        /* \"#utility.yul\":5224:5228   */\n      0x00\n        /* \"#utility.yul\":5262:5264   */\n      0x20\n        /* \"#utility.yul\":5251:5260   */\n      dup3\n        /* \"#utility.yul\":5247:5265   */\n      add\n        /* \"#utility.yul\":5239:5265   */\n      swap1\n      pop\n        /* \"#utility.yul\":5275:5346   */\n      tag_306\n        /* \"#utility.yul\":5343:5344   */\n      0x00\n        /* \"#utility.yul\":5332:5341   */\n      dup4\n        /* \"#utility.yul\":5328:5345   */\n      add\n        /* \"#utility.yul\":5319:5325   */\n      dup5\n        /* \"#utility.yul\":5275:5346   */\n      tag_213\n      jump\t// in\n    tag_306:\n        /* \"#utility.yul\":5131:5353   */\n      swap3\n      swap2\n      pop\n      pop\n      jump\t// out\n        /* \"#utility.yul\":5359:5485   */\n    tag_214:\n        /* \"#utility.yul\":5396:5403   */\n      0x00\n        /* \"#utility.yul\":5436:5478   */\n      0xffffffffffffffffffffffffffffffffffffffff\n        /* \"#utility.yul\":5429:5434   */\n      dup3\n        /* \"#utility.yul\":5425:5479   */\n      and\n        /* \"#utility.yul\":5414:5479   */\n      swap1\n      pop\n        /* \"#utility.yul\":5359:5485   */\n      swap2\n      swap1\n      pop\n      jump\t// out\n        /* \"#utility.yul\":5491:5587   */\n    tag_215:\n        /* \"#utility.yul\":5528:5535   */\n      0x00\n        /* \"#utility.yul\":5557:5581   */\n      tag_309\n        /* \"#utility.yul\":5575:5580   */\n      dup3\n        /* \"#utility.yul\":5557:5581   */\n      tag_214\n      jump\t// in\n    tag_309:\n        /* \"#utility.yul\":5546:5581   */\n      swap1\n      pop\n        /* \"#utility.yul\":5491:5587   */\n      swap2\n      swap1\n      pop\n      jump\t// out\n        /* \"#utility.yul\":5593:5715   */\n    tag_216:\n        /* \"#utility.yul\":5666:5690   */\n      tag_311\n        /* \"#utility.yul\":5684:5689   */\n      dup2\n        /* \"#utility.yul\":5666:5690   */\n      tag_215\n      jump\t// in\n    tag_311:\n        /* \"#utility.yul\":5659:5664   */\n      dup2\n        /* \"#utility.yul\":5656:5691   */\n      eq\n        /* \"#utility.yul\":5646:5709   */\n      tag_312\n      jumpi\n        /* \"#utility.yul\":5705:5706   */\n      0x00\n        /* \"#utility.yul\":5702:5703   */\n      dup1\n        /* \"#utility.yul\":5695:5707   */\n      revert\n        /* \"#utility.yul\":5646:5709   */\n    tag_312:\n        /* \"#utility.yul\":5593:5715   */\n      pop\n      jump\t// out\n        /* \"#utility.yul\":5721:5860   */\n    tag_217:\n        /* \"#utility.yul\":5767:5772   */\n      0x00\n        /* \"#utility.yul\":5805:5811   */\n      dup2\n        /* \"#utility.yul\":5792:5812   */\n      calldataload\n        /* \"#utility.yul\":5783:5812   */\n      swap1\n      pop\n        /* \"#utility.yul\":5821:5854   */\n      tag_314\n        /* \"#utility.yul\":5848:5853   */\n      dup2\n        /* \"#utility.yul\":5821:5854   */\n      tag_216\n      jump\t// in\n    tag_314:\n        /* \"#utility.yul\":5721:5860   */\n      swap3\n      swap2\n      pop\n      pop\n      jump\t// out\n        /* \"#utility.yul\":5866:6340   */\n    tag_35:\n        /* \"#utility.yul\":5934:5940   */\n      0x00\n        /* \"#utility.yul\":5942:5948   */\n      dup1\n        /* \"#utility.yul\":5991:5993   */\n      0x40\n        /* \"#utility.yul\":5979:5988   */\n      dup4\n        /* \"#utility.yul\":5970:5977   */\n      dup6\n        /* \"#utility.yul\":5966:5989   */\n      sub\n        /* \"#utility.yul\":5962:5994   */\n      slt\n        /* \"#utility.yul\":5959:6078   */\n      iszero\n      tag_316\n      jumpi\n        /* \"#utility.yul\":5997:6076   */\n      tag_317\n      tag_193\n      jump\t// in\n    tag_317:\n        /* \"#utility.yul\":5959:6078   */\n    tag_316:\n        /* \"#utility.yul\":6117:6118   */\n      0x00\n        /* \"#utility.yul\":6142:6195   */\n      tag_318\n        /* \"#utility.yul\":6187:6194   */\n      dup6\n        /* \"#utility.yul\":6178:6184   */\n      dup3\n        /* \"#utility.yul\":6167:6176   */\n      dup7\n        /* \"#utility.yul\":6163:6185   */\n      add\n        /* \"#utility.yul\":6142:6195   */\n      tag_212\n      jump\t// in\n    tag_318:\n        /* \"#utility.yul\":6132:6195   */\n      swap3\n      pop\n        /* \"#utility.yul\":6088:6205   */\n      pop\n        /* \"#utility.yul\":6244:6246   */\n      0x20\n        /* \"#utility.yul\":6270:6323   */\n      tag_319\n        /* \"#utility.yul\":6315:6322   */\n      dup6\n        /* \"#utility.yul\":6306:6312   */\n      dup3\n        /* \"#utility.yul\":6295:6304   */\n      dup7\n        /* \"#utility.yul\":6291:6313   */\n      add\n        /* \"#utility.yul\":6270:6323   */\n      tag_217\n      jump\t// in\n    tag_319:\n        /* \"#utility.yul\":6260:6323   */\n      swap2\n      pop\n        /* \"#utility.yul\":6215:6333   */\n      pop\n        /* \"#utility.yul\":5866:6340   */\n      swap3\n      pop\n      swap3\n      swap1\n      pop\n      jump\t// out\n        /* \"#utility.yul\":6346:6855   */\n    tag_43:\n        /* \"#utility.yul\":6415:6421   */\n      0x00\n        /* \"#utility.yul\":6464:6466   */\n      0x20\n        /* \"#utility.yul\":6452:6461   */\n      dup3\n        /* \"#utility.yul\":6443:6450   */\n      dup5\n        /* \"#utility.yul\":6439:6462   */\n      sub\n        /* \"#utility.yul\":6435:6467   */\n      slt\n        /* \"#utility.yul\":6432:6551   */\n      iszero\n      tag_321\n      jumpi\n        /* \"#utility.yul\":6470:6549   */\n      tag_322\n      tag_193\n      jump\t// in\n    tag_322:\n        /* \"#utility.yul\":6432:6551   */\n    tag_321:\n        /* \"#utility.yul\":6618:6619   */\n      0x00\n        /* \"#utility.yul\":6607:6616   */\n      dup3\n        /* \"#utility.yul\":6603:6620   */\n      add\n        /* \"#utility.yul\":6590:6621   */\n      calldataload\n        /* \"#utility.yul\":6648:6666   */\n      0xffffffffffffffff\n        /* \"#utility.yul\":6640:6646   */\n      dup2\n        /* \"#utility.yul\":6637:6667   */\n      gt\n        /* \"#utility.yul\":6634:6751   */\n      iszero\n      tag_323\n      jumpi\n        /* \"#utility.yul\":6670:6749   */\n      tag_324\n      tag_194\n      jump\t// in\n    tag_324:\n        /* \"#utility.yul\":6634:6751   */\n    tag_323:\n        /* \"#utility.yul\":6775:6838   */\n      tag_325\n        /* \"#utility.yul\":6830:6837   */\n      dup5\n        /* \"#utility.yul\":6821:6827   */\n      dup3\n        /* \"#utility.yul\":6810:6819   */\n      dup6\n        /* \"#utility.yul\":6806:6828   */\n      add\n        /* \"#utility.yul\":6775:6838   */\n      tag_204\n      jump\t// in\n    tag_325:\n        /* \"#utility.yul\":6765:6838   */\n      swap2\n      pop\n        /* \"#utility.yul\":6561:6848   */\n      pop\n        /* \"#utility.yul\":6346:6855   */\n      swap3\n      swap2\n      pop\n      pop\n      jump\t// out\n        /* \"#utility.yul\":6861:7515   */\n    tag_66:\n        /* \"#utility.yul\":6939:6945   */\n      0x00\n        /* \"#utility.yul\":6947:6953   */\n      dup1\n        /* \"#utility.yul\":6996:6998   */\n      0x40\n        /* \"#utility.yul\":6984:6993   */\n      dup4\n        /* \"#utility.yul\":6975:6982   */\n      dup6\n        /* \"#utility.yul\":6971:6994   */\n      sub\n        /* \"#utility.yul\":6967:6999   */\n      slt\n        /* \"#utility.yul\":6964:7083   */\n      iszero\n      tag_327\n      jumpi\n        /* \"#utility.yul\":7002:7081   */\n      tag_328\n      tag_193\n      jump\t// in\n    tag_328:\n        /* \"#utility.yul\":6964:7083   */\n    tag_327:\n        /* \"#utility.yul\":7150:7151   */\n      0x00\n        /* \"#utility.yul\":7139:7148   */\n      dup4\n        /* \"#utility.yul\":7135:7152   */\n      add\n        /* \"#utility.yul\":7122:7153   */\n      calldataload\n        /* \"#utility.yul\":7180:7198   */\n      0xffffffffffffffff\n        /* \"#utility.yul\":7172:7178   */\n      dup2\n        /* \"#utility.yul\":7169:7199   */\n      gt\n        /* \"#utility.yul\":7166:7283   */\n      iszero\n      tag_329\n      jumpi\n        /* \"#utility.yul\":7202:7281   */\n      tag_330\n      tag_194\n      jump\t// in\n    tag_330:\n        /* \"#utility.yul\":7166:7283   */\n    tag_329:\n        /* \"#utility.yul\":7307:7370   */\n      tag_331\n        /* \"#utility.yul\":7362:7369   */\n      dup6\n        /* \"#utility.yul\":7353:7359   */\n      dup3\n        /* \"#utility.yul\":7342:7351   */\n      dup7\n        /* \"#utility.yul\":7338:7360   */\n      add\n        /* \"#utility.yul\":7307:7370   */\n      tag_204\n      jump\t// in\n    tag_331:\n        /* \"#utility.yul\":7297:7370   */\n      swap3\n      pop\n        /* \"#utility.yul\":7093:7380   */\n      pop\n        /* \"#utility.yul\":7419:7421   */\n      0x20\n        /* \"#utility.yul\":7445:7498   */\n      tag_332\n        /* \"#utility.yul\":7490:7497   */\n      dup6\n        /* \"#utility.yul\":7481:7487   */\n      dup3\n        /* \"#utility.yul\":7470:7479   */\n      dup7\n        /* \"#utility.yul\":7466:7488   */\n      add\n        /* \"#utility.yul\":7445:7498   */\n      tag_217\n      jump\t// in\n    tag_332:\n        /* \"#utility.yul\":7435:7498   */\n      swap2\n      pop\n        /* \"#utility.yul\":7390:7508   */\n      pop\n        /* \"#utility.yul\":6861:7515   */\n      swap3\n      pop\n      swap3\n      swap1\n      pop\n      jump\t// out\n        /* \"#utility.yul\":7521:8355   */\n    tag_82:\n        /* \"#utility.yul\":7609:7615   */\n      0x00\n        /* \"#utility.yul\":7617:7623   */\n      dup1\n        /* \"#utility.yul\":7666:7668   */\n      0x40\n        /* \"#utility.yul\":7654:7663   */\n      dup4\n        /* \"#utility.yul\":7645:7652   */\n      dup6\n        /* \"#utility.yul\":7641:7664   */\n      sub\n        /* \"#utility.yul\":7637:7669   */\n      slt\n        /* \"#utility.yul\":7634:7753   */\n      iszero\n      tag_334\n      jumpi\n        /* \"#utility.yul\":7672:7751   */\n      tag_335\n      tag_193\n      jump\t// in\n    tag_335:\n        /* \"#utility.yul\":7634:7753   */\n    tag_334:\n        /* \"#utility.yul\":7820:7821   */\n      0x00\n        /* \"#utility.yul\":7809:7818   */\n      dup4\n        /* \"#utility.yul\":7805:7822   */\n      add\n        /* \"#utility.yul\":7792:7823   */\n      calldataload\n        /* \"#utility.yul\":7850:7868   */\n      0xffffffffffffffff\n        /* \"#utility.yul\":7842:7848   */\n      dup2\n        /* \"#utility.yul\":7839:7869   */\n      gt\n        /* \"#utility.yul\":7836:7953   */\n      iszero\n      tag_336\n      jumpi\n        /* \"#utility.yul\":7872:7951   */\n      tag_337\n      tag_194\n      jump\t// in\n    tag_337:\n        /* \"#utility.yul\":7836:7953   */\n    tag_336:\n        /* \"#utility.yul\":7977:8040   */\n      tag_338\n        /* \"#utility.yul\":8032:8039   */\n      dup6\n        /* \"#utility.yul\":8023:8029   */\n      dup3\n        /* \"#utility.yul\":8012:8021   */\n      dup7\n        /* \"#utility.yul\":8008:8030   */\n      add\n        /* \"#utility.yul\":7977:8040   */\n      tag_204\n      jump\t// in\n    tag_338:\n        /* \"#utility.yul\":7967:8040   */\n      swap3\n      pop\n        /* \"#utility.yul\":7763:8050   */\n      pop\n        /* \"#utility.yul\":8117:8119   */\n      0x20\n        /* \"#utility.yul\":8106:8115   */\n      dup4\n        /* \"#utility.yul\":8102:8120   */\n      add\n        /* \"#utility.yul\":8089:8121   */\n      calldataload\n        /* \"#utility.yul\":8148:8166   */\n      0xffffffffffffffff\n        /* \"#utility.yul\":8140:8146   */\n      dup2\n        /* \"#utility.yul\":8137:8167   */\n      gt\n        /* \"#utility.yul\":8134:8251   */\n      iszero\n      tag_339\n      jumpi\n        /* \"#utility.yul\":8170:8249   */\n      tag_340\n      tag_194\n      jump\t// in\n    tag_340:\n        /* \"#utility.yul\":8134:8251   */\n    tag_339:\n        /* \"#utility.yul\":8275:8338   */\n      tag_341\n        /* \"#utility.yul\":8330:8337   */\n      dup6\n        /* \"#utility.yul\":8321:8327   */\n      dup3\n        /* \"#utility.yul\":8310:8319   */\n      dup7\n        /* \"#utility.yul\":8306:8328   */\n      add\n        /* \"#utility.yul\":8275:8338   */\n      tag_204\n      jump\t// in\n    tag_341:\n        /* \"#utility.yul\":8265:8338   */\n      swap2\n      pop\n        /* \"#utility.yul\":8060:8348   */\n      pop\n        /* \"#utility.yul\":7521:8355   */\n      swap3\n      pop\n      swap3\n      swap1\n      pop\n      jump\t// out\n        /* \"#utility.yul\":8361:8460   */\n    tag_218:\n        /* \"#utility.yul\":8413:8419   */\n      0x00\n        /* \"#utility.yul\":8447:8452   */\n      dup2\n        /* \"#utility.yul\":8441:8453   */\n      mload\n        /* \"#utility.yul\":8431:8453   */\n      swap1\n      pop\n        /* \"#utility.yul\":8361:8460   */\n      swap2\n      swap1\n      pop\n      jump\t// out\n        /* \"#utility.yul\":8466:8614   */\n    tag_219:\n        /* \"#utility.yul\":8568:8579   */\n      0x00\n        /* \"#utility.yul\":8605:8608   */\n      dup2\n        /* \"#utility.yul\":8590:8608   */\n      swap1\n      pop\n        /* \"#utility.yul\":8466:8614   */\n      swap3\n      swap2\n      pop\n      pop\n      jump\t// out\n        /* \"#utility.yul\":8620:8927   */\n    tag_220:\n        /* \"#utility.yul\":8688:8689   */\n      0x00\n        /* \"#utility.yul\":8698:8811   */\n    tag_345:\n        /* \"#utility.yul\":8712:8718   */\n      dup4\n        /* \"#utility.yul\":8709:8710   */\n      dup2\n        /* \"#utility.yul\":8706:8719   */\n      lt\n        /* \"#utility.yul\":8698:8811   */\n      iszero\n      tag_347\n      jumpi\n        /* \"#utility.yul\":8797:8798   */\n      dup1\n        /* \"#utility.yul\":8792:8795   */\n      dup3\n        /* \"#utility.yul\":8788:8799   */\n      add\n        /* \"#utility.yul\":8782:8800   */\n      mload\n        /* \"#utility.yul\":8778:8779   */\n      dup2\n        /* \"#utility.yul\":8773:8776   */\n      dup5\n        /* \"#utility.yul\":8769:8780   */\n      add\n        /* \"#utility.yul\":8762:8801   */\n      mstore\n        /* \"#utility.yul\":8734:8736   */\n      0x20\n        /* \"#utility.yul\":8731:8732   */\n      dup2\n        /* \"#utility.yul\":8727:8737   */\n      add\n        /* \"#utility.yul\":8722:8737   */\n      swap1\n      pop\n        /* \"#utility.yul\":8698:8811   */\n      jump(tag_345)\n    tag_347:\n        /* \"#utility.yul\":8829:8835   */\n      dup4\n        /* \"#utility.yul\":8826:8827   */\n      dup2\n        /* \"#utility.yul\":8823:8836   */\n      gt\n        /* \"#utility.yul\":8820:8921   */\n      iszero\n      tag_348\n      jumpi\n        /* \"#utility.yul\":8909:8910   */\n      0x00\n        /* \"#utility.yul\":8900:8906   */\n      dup5\n        /* \"#utility.yul\":8895:8898   */\n      dup5\n        /* \"#utility.yul\":8891:8907   */\n      add\n        /* \"#utility.yul\":8884:8911   */\n      mstore\n        /* \"#utility.yul\":8820:8921   */\n    tag_348:\n        /* \"#utility.yul\":8669:8927   */\n      pop\n        /* \"#utility.yul\":8620:8927   */\n      pop\n      pop\n      pop\n      jump\t// out\n        /* \"#utility.yul\":8933:9310   */\n    tag_221:\n        /* \"#utility.yul\":9039:9042   */\n      0x00\n        /* \"#utility.yul\":9067:9106   */\n      tag_350\n        /* \"#utility.yul\":9100:9105   */\n      dup3\n        /* \"#utility.yul\":9067:9106   */\n      tag_218\n      jump\t// in\n    tag_350:\n        /* \"#utility.yul\":9122:9211   */\n      tag_351\n        /* \"#utility.yul\":9204:9210   */\n      dup2\n        /* \"#utility.yul\":9199:9202   */\n      dup6\n        /* \"#utility.yul\":9122:9211   */\n      tag_219\n      jump\t// in\n    tag_351:\n        /* \"#utility.yul\":9115:9211   */\n      swap4\n      pop\n        /* \"#utility.yul\":9220:9272   */\n      tag_352\n        /* \"#utility.yul\":9265:9271   */\n      dup2\n        /* \"#utility.yul\":9260:9263   */\n      dup6\n        /* \"#utility.yul\":9253:9257   */\n      0x20\n        /* \"#utility.yul\":9246:9251   */\n      dup7\n        /* \"#utility.yul\":9242:9258   */\n      add\n        /* \"#utility.yul\":9220:9272   */\n      tag_220\n      jump\t// in\n    tag_352:\n        /* \"#utility.yul\":9297:9303   */\n      dup1\n        /* \"#utility.yul\":9292:9295   */\n      dup5\n        /* \"#utility.yul\":9288:9304   */\n      add\n        /* \"#utility.yul\":9281:9304   */\n      swap2\n      pop\n        /* \"#utility.yul\":9043:9310   */\n      pop\n        /* \"#utility.yul\":8933:9310   */\n      swap3\n      swap2\n      pop\n      pop\n      jump\t// out\n        /* \"#utility.yul\":9316:9591   */\n    tag_89:\n        /* \"#utility.yul\":9448:9451   */\n      0x00\n        /* \"#utility.yul\":9470:9565   */\n      tag_354\n        /* \"#utility.yul\":9561:9564   */\n      dup3\n        /* \"#utility.yul\":9552:9558   */\n      dup5\n        /* \"#utility.yul\":9470:9565   */\n      tag_221\n      jump\t// in\n    tag_354:\n        /* \"#utility.yul\":9463:9565   */\n      swap2\n      pop\n        /* \"#utility.yul\":9582:9585   */\n      dup2\n        /* \"#utility.yul\":9575:9585   */\n      swap1\n      pop\n        /* \"#utility.yul\":9316:9591   */\n      swap3\n      swap2\n      pop\n      pop\n      jump\t// out\n        /* \"#utility.yul\":9597:9766   */\n    tag_222:\n        /* \"#utility.yul\":9681:9692   */\n      0x00\n        /* \"#utility.yul\":9715:9721   */\n      dup3\n        /* \"#utility.yul\":9710:9713   */\n      dup3\n        /* \"#utility.yul\":9703:9722   */\n      mstore\n        /* \"#utility.yul\":9755:9759   */\n      0x20\n        /* \"#utility.yul\":9750:9753   */\n      dup3\n        /* \"#utility.yul\":9746:9760   */\n      add\n        /* \"#utility.yul\":9731:9760   */\n      swap1\n      pop\n        /* \"#utility.yul\":9597:9766   */\n      swap3\n      swap2\n      pop\n      pop\n      jump\t// out\n        /* \"#utility.yul\":9772:9936   */\n    tag_223:\n        /* \"#utility.yul\":9912:9928   */\n      0x4e6f2067726f757020666f756e64000000000000000000000000000000000000\n        /* \"#utility.yul\":9908:9909   */\n      0x00\n        /* \"#utility.yul\":9900:9906   */\n      dup3\n        /* \"#utility.yul\":9896:9910   */\n      add\n        /* \"#utility.yul\":9889:9929   */\n      mstore\n        /* \"#utility.yul\":9772:9936   */\n      pop\n      jump\t// out\n        /* \"#utility.yul\":9942:10308   */\n    tag_224:\n        /* \"#utility.yul\":10084:10087   */\n      0x00\n        /* \"#utility.yul\":10105:10172   */\n      tag_358\n        /* \"#utility.yul\":10169:10171   */\n      0x0e\n        /* \"#utility.yul\":10164:10167   */\n      dup4\n        /* \"#utility.yul\":10105:10172   */\n      tag_222\n      jump\t// in\n    tag_358:\n        /* \"#utility.yul\":10098:10172   */\n      swap2\n      pop\n        /* \"#utility.yul\":10181:10274   */\n      tag_359\n        /* \"#utility.yul\":10270:10273   */\n      dup3\n        /* \"#utility.yul\":10181:10274   */\n      tag_223\n      jump\t// in\n    tag_359:\n        /* \"#utility.yul\":10299:10301   */\n      0x20\n        /* \"#utility.yul\":10294:10297   */\n      dup3\n        /* \"#utility.yul\":10290:10302   */\n      add\n        /* \"#utility.yul\":10283:10302   */\n      swap1\n      pop\n        /* \"#utility.yul\":9942:10308   */\n      swap2\n      swap1\n      pop\n      jump\t// out\n        /* \"#utility.yul\":10314:10733   */\n    tag_92:\n        /* \"#utility.yul\":10480:10484   */\n      0x00\n        /* \"#utility.yul\":10518:10520   */\n      0x20\n        /* \"#utility.yul\":10507:10516   */\n      dup3\n        /* \"#utility.yul\":10503:10521   */\n      add\n        /* \"#utility.yul\":10495:10521   */\n      swap1\n      pop\n        /* \"#utility.yul\":10567:10576   */\n      dup2\n        /* \"#utility.yul\":10561:10565   */\n      dup2\n        /* \"#utility.yul\":10557:10577   */\n      sub\n        /* \"#utility.yul\":10553:10554   */\n      0x00\n        /* \"#utility.yul\":10542:10551   */\n      dup4\n        /* \"#utility.yul\":10538:10555   */\n      add\n        /* \"#utility.yul\":10531:10578   */\n      mstore\n        /* \"#utility.yul\":10595:10726   */\n      tag_361\n        /* \"#utility.yul\":10721:10725   */\n      dup2\n        /* \"#utility.yul\":10595:10726   */\n      tag_224\n      jump\t// in\n    tag_361:\n        /* \"#utility.yul\":10587:10726   */\n      swap1\n      pop\n        /* \"#utility.yul\":10314:10733   */\n      swap2\n      swap1\n      pop\n      jump\t// out\n        /* \"#utility.yul\":10739:10904   */\n    tag_225:\n        /* \"#utility.yul\":10879:10896   */\n      0x426164436f6e6669726d6174696f6e0000000000000000000000000000000000\n        /* \"#utility.yul\":10875:10876   */\n      0x00\n        /* \"#utility.yul\":10867:10873   */\n      dup3\n        /* \"#utility.yul\":10863:10877   */\n      add\n        /* \"#utility.yul\":10856:10897   */\n      mstore\n        /* \"#utility.yul\":10739:10904   */\n      pop\n      jump\t// out\n        /* \"#utility.yul\":10910:11276   */\n    tag_226:\n        /* \"#utility.yul\":11052:11055   */\n      0x00\n        /* \"#utility.yul\":11073:11140   */\n      tag_364\n        /* \"#utility.yul\":11137:11139   */\n      0x0f\n        /* \"#utility.yul\":11132:11135   */\n      dup4\n        /* \"#utility.yul\":11073:11140   */\n      tag_222\n      jump\t// in\n    tag_364:\n        /* \"#utility.yul\":11066:11140   */\n      swap2\n      pop\n        /* \"#utility.yul\":11149:11242   */\n      tag_365\n        /* \"#utility.yul\":11238:11241   */\n      dup3\n        /* \"#utility.yul\":11149:11242   */\n      tag_225\n      jump\t// in\n    tag_365:\n        /* \"#utility.yul\":11267:11269   */\n      0x20\n        /* \"#utility.yul\":11262:11265   */\n      dup3\n        /* \"#utility.yul\":11258:11270   */\n      add\n        /* \"#utility.yul\":11251:11270   */\n      swap1\n      pop\n        /* \"#utility.yul\":10910:11276   */\n      swap2\n      swap1\n      pop\n      jump\t// out\n        /* \"#utility.yul\":11282:11701   */\n    tag_106:\n        /* \"#utility.yul\":11448:11452   */\n      0x00\n        /* \"#utility.yul\":11486:11488   */\n      0x20\n        /* \"#utility.yul\":11475:11484   */\n      dup3\n        /* \"#utility.yul\":11471:11489   */\n      add\n        /* \"#utility.yul\":11463:11489   */\n      swap1\n      pop\n        /* \"#utility.yul\":11535:11544   */\n      dup2\n        /* \"#utility.yul\":11529:11533   */\n      dup2\n        /* \"#utility.yul\":11525:11545   */\n      sub\n        /* \"#utility.yul\":11521:11522   */\n      0x00\n        /* \"#utility.yul\":11510:11519   */\n      dup4\n        /* \"#utility.yul\":11506:11523   */\n      add\n        /* \"#utility.yul\":11499:11546   */\n      mstore\n        /* \"#utility.yul\":11563:11694   */\n      tag_367\n        /* \"#utility.yul\":11689:11693   */\n      dup2\n        /* \"#utility.yul\":11563:11694   */\n      tag_226\n      jump\t// in\n    tag_367:\n        /* \"#utility.yul\":11555:11694   */\n      swap1\n      pop\n        /* \"#utility.yul\":11282:11701   */\n      swap2\n      swap1\n      pop\n      jump\t// out\n        /* \"#utility.yul\":11707:11876   */\n    tag_227:\n        /* \"#utility.yul\":11847:11868   */\n      0x5468652067726f75702068617320657869737400000000000000000000000000\n        /* \"#utility.yul\":11843:11844   */\n      0x00\n        /* \"#utility.yul\":11835:11841   */\n      dup3\n        /* \"#utility.yul\":11831:11845   */\n      add\n        /* \"#utility.yul\":11824:11869   */\n      mstore\n        /* \"#utility.yul\":11707:11876   */\n      pop\n      jump\t// out\n        /* \"#utility.yul\":11882:12248   */\n    tag_228:\n        /* \"#utility.yul\":12024:12027   */\n      0x00\n        /* \"#utility.yul\":12045:12112   */\n      tag_370\n        /* \"#utility.yul\":12109:12111   */\n      0x13\n        /* \"#utility.yul\":12104:12107   */\n      dup4\n        /* \"#utility.yul\":12045:12112   */\n      tag_222\n      jump\t// in\n    tag_370:\n        /* \"#utility.yul\":12038:12112   */\n      swap2\n      pop\n        /* \"#utility.yul\":12121:12214   */\n      tag_371\n        /* \"#utility.yul\":12210:12213   */\n      dup3\n        /* \"#utility.yul\":12121:12214   */\n      tag_227\n      jump\t// in\n    tag_371:\n        /* \"#utility.yul\":12239:12241   */\n      0x20\n        /* \"#utility.yul\":12234:12237   */\n      dup3\n        /* \"#utility.yul\":12230:12242   */\n      add\n        /* \"#utility.yul\":12223:12242   */\n      swap1\n      pop\n        /* \"#utility.yul\":11882:12248   */\n      swap2\n      swap1\n      pop\n      jump\t// out\n        /* \"#utility.yul\":12254:12673   */\n    tag_114:\n        /* \"#utility.yul\":12420:12424   */\n      0x00\n        /* \"#utility.yul\":12458:12460   */\n      0x20\n        /* \"#utility.yul\":12447:12456   */\n      dup3\n        /* \"#utility.yul\":12443:12461   */\n      add\n        /* \"#utility.yul\":12435:12461   */\n      swap1\n      pop\n        /* \"#utility.yul\":12507:12516   */\n      dup2\n        /* \"#utility.yul\":12501:12505   */\n      dup2\n        /* \"#utility.yul\":12497:12517   */\n      sub\n        /* \"#utility.yul\":12493:12494   */\n      0x00\n        /* \"#utility.yul\":12482:12491   */\n      dup4\n        /* \"#utility.yul\":12478:12495   */\n      add\n        /* \"#utility.yul\":12471:12518   */\n      mstore\n        /* \"#utility.yul\":12535:12666   */\n      tag_373\n        /* \"#utility.yul\":12661:12665   */\n      dup2\n        /* \"#utility.yul\":12535:12666   */\n      tag_228\n      jump\t// in\n    tag_373:\n        /* \"#utility.yul\":12527:12666   */\n      swap1\n      pop\n        /* \"#utility.yul\":12254:12673   */\n      swap2\n      swap1\n      pop\n      jump\t// out\n        /* \"#utility.yul\":12679:13043   */\n    tag_229:\n        /* \"#utility.yul\":12767:12770   */\n      0x00\n        /* \"#utility.yul\":12795:12834   */\n      tag_375\n        /* \"#utility.yul\":12828:12833   */\n      dup3\n        /* \"#utility.yul\":12795:12834   */\n      tag_218\n      jump\t// in\n    tag_375:\n        /* \"#utility.yul\":12850:12921   */\n      tag_376\n        /* \"#utility.yul\":12914:12920   */\n      dup2\n        /* \"#utility.yul\":12909:12912   */\n      dup6\n        /* \"#utility.yul\":12850:12921   */\n      tag_222\n      jump\t// in\n    tag_376:\n        /* \"#utility.yul\":12843:12921   */\n      swap4\n      pop\n        /* \"#utility.yul\":12930:12982   */\n      tag_377\n        /* \"#utility.yul\":12975:12981   */\n      dup2\n        /* \"#utility.yul\":12970:12973   */\n      dup6\n        /* \"#utility.yul\":12963:12967   */\n      0x20\n        /* \"#utility.yul\":12956:12961   */\n      dup7\n        /* \"#utility.yul\":12952:12968   */\n      add\n        /* \"#utility.yul\":12930:12982   */\n      tag_220\n      jump\t// in\n    tag_377:\n        /* \"#utility.yul\":13007:13036   */\n      tag_378\n        /* \"#utility.yul\":13029:13035   */\n      dup2\n        /* \"#utility.yul\":13007:13036   */\n      tag_197\n      jump\t// in\n    tag_378:\n        /* \"#utility.yul\":13002:13005   */\n      dup5\n        /* \"#utility.yul\":12998:13037   */\n      add\n        /* \"#utility.yul\":12991:13037   */\n      swap2\n      pop\n        /* \"#utility.yul\":12771:13043   */\n      pop\n        /* \"#utility.yul\":12679:13043   */\n      swap3\n      swap2\n      pop\n      pop\n      jump\t// out\n        /* \"#utility.yul\":13049:13229   */\n    tag_230:\n        /* \"#utility.yul\":13097:13174   */\n      0x4e487b7100000000000000000000000000000000000000000000000000000000\n        /* \"#utility.yul\":13094:13095   */\n      0x00\n        /* \"#utility.yul\":13087:13175   */\n      mstore\n        /* \"#utility.yul\":13194:13198   */\n      0x22\n        /* \"#utility.yul\":13191:13192   */\n      0x04\n        /* \"#utility.yul\":13184:13199   */\n      mstore\n        /* \"#utility.yul\":13218:13222   */\n      0x24\n        /* \"#utility.yul\":13215:13216   */\n      0x00\n        /* \"#utility.yul\":13208:13223   */\n      revert\n        /* \"#utility.yul\":13235:13555   */\n    tag_123:\n        /* \"#utility.yul\":13279:13285   */\n      0x00\n        /* \"#utility.yul\":13316:13317   */\n      0x02\n        /* \"#utility.yul\":13310:13314   */\n      dup3\n        /* \"#utility.yul\":13306:13318   */\n      div\n        /* \"#utility.yul\":13296:13318   */\n      swap1\n      pop\n        /* \"#utility.yul\":13363:13364   */\n      0x01\n        /* \"#utility.yul\":13357:13361   */\n      dup3\n        /* \"#utility.yul\":13353:13365   */\n      and\n        /* \"#utility.yul\":13384:13402   */\n      dup1\n        /* \"#utility.yul\":13374:13455   */\n      tag_381\n      jumpi\n        /* \"#utility.yul\":13440:13444   */\n      0x7f\n        /* \"#utility.yul\":13432:13438   */\n      dup3\n        /* \"#utility.yul\":13428:13445   */\n      and\n        /* \"#utility.yul\":13418:13445   */\n      swap2\n      pop\n        /* \"#utility.yul\":13374:13455   */\n    tag_381:\n        /* \"#utility.yul\":13502:13504   */\n      0x20\n        /* \"#utility.yul\":13494:13500   */\n      dup3\n        /* \"#utility.yul\":13491:13505   */\n      lt\n        /* \"#utility.yul\":13471:13489   */\n      dup2\n        /* \"#utility.yul\":13468:13506   */\n      eq\n        /* \"#utility.yul\":13465:13549   */\n      iszero\n      tag_382\n      jumpi\n        /* \"#utility.yul\":13521:13539   */\n      tag_383\n      tag_230\n      jump\t// in\n    tag_383:\n        /* \"#utility.yul\":13465:13549   */\n    tag_382:\n        /* \"#utility.yul\":13286:13555   */\n      pop\n        /* \"#utility.yul\":13235:13555   */\n      swap2\n      swap1\n      pop\n      jump\t// out\n        /* \"#utility.yul\":13561:13702   */\n    tag_231:\n        /* \"#utility.yul\":13610:13614   */\n      0x00\n        /* \"#utility.yul\":13633:13636   */\n      dup2\n        /* \"#utility.yul\":13625:13636   */\n      swap1\n      pop\n        /* \"#utility.yul\":13656:13659   */\n      dup2\n        /* \"#utility.yul\":13653:13654   */\n      0x00\n        /* \"#utility.yul\":13646:13660   */\n      mstore\n        /* \"#utility.yul\":13690:13694   */\n      0x20\n        /* \"#utility.yul\":13687:13688   */\n      0x00\n        /* \"#utility.yul\":13677:13695   */\n      keccak256\n        /* \"#utility.yul\":13669:13695   */\n      swap1\n      pop\n        /* \"#utility.yul\":13561:13702   */\n      swap2\n      swap1\n      pop\n      jump\t// out\n        /* \"#utility.yul\":13732:14534   */\n    tag_232:\n        /* \"#utility.yul\":13817:13820   */\n      0x00\n        /* \"#utility.yul\":13854:13859   */\n      dup2\n        /* \"#utility.yul\":13848:13860   */\n      sload\n        /* \"#utility.yul\":13883:13919   */\n      tag_386\n        /* \"#utility.yul\":13909:13918   */\n      dup2\n        /* \"#utility.yul\":13883:13919   */\n      tag_123\n      jump\t// in\n    tag_386:\n        /* \"#utility.yul\":13935:14006   */\n      tag_387\n        /* \"#utility.yul\":13999:14005   */\n      dup2\n        /* \"#utility.yul\":13994:13997   */\n      dup7\n        /* \"#utility.yul\":13935:14006   */\n      tag_222\n      jump\t// in\n    tag_387:\n        /* \"#utility.yul\":13928:14006   */\n      swap5\n      pop\n        /* \"#utility.yul\":14037:14038   */\n      0x01\n        /* \"#utility.yul\":14026:14035   */\n      dup3\n        /* \"#utility.yul\":14022:14039   */\n      and\n        /* \"#utility.yul\":14053:14054   */\n      0x00\n        /* \"#utility.yul\":14048:14183   */\n      dup2\n      eq\n      tag_389\n      jumpi\n        /* \"#utility.yul\":14197:14198   */\n      0x01\n        /* \"#utility.yul\":14192:14528   */\n      dup2\n      eq\n      tag_390\n      jumpi\n        /* \"#utility.yul\":14015:14528   */\n      jump(tag_388)\n        /* \"#utility.yul\":14048:14183   */\n    tag_389:\n        /* \"#utility.yul\":14132:14136   */\n      0xff\n        /* \"#utility.yul\":14128:14137   */\n      not\n        /* \"#utility.yul\":14117:14126   */\n      dup4\n        /* \"#utility.yul\":14113:14138   */\n      and\n        /* \"#utility.yul\":14108:14111   */\n      dup7\n        /* \"#utility.yul\":14101:14139   */\n      mstore\n        /* \"#utility.yul\":14168:14172   */\n      0x20\n        /* \"#utility.yul\":14163:14166   */\n      dup7\n        /* \"#utility.yul\":14159:14173   */\n      add\n        /* \"#utility.yul\":14152:14173   */\n      swap4\n      pop\n        /* \"#utility.yul\":14048:14183   */\n      jump(tag_388)\n        /* \"#utility.yul\":14192:14528   */\n    tag_390:\n        /* \"#utility.yul\":14259:14297   */\n      tag_391\n        /* \"#utility.yul\":14291:14296   */\n      dup6\n        /* \"#utility.yul\":14259:14297   */\n      tag_231\n      jump\t// in\n    tag_391:\n        /* \"#utility.yul\":14319:14320   */\n      0x00\n        /* \"#utility.yul\":14333:14487   */\n    tag_392:\n        /* \"#utility.yul\":14347:14353   */\n      dup4\n        /* \"#utility.yul\":14344:14345   */\n      dup2\n        /* \"#utility.yul\":14341:14354   */\n      lt\n        /* \"#utility.yul\":14333:14487   */\n      iszero\n      tag_394\n      jumpi\n        /* \"#utility.yul\":14421:14428   */\n      dup2\n        /* \"#utility.yul\":14415:14429   */\n      sload\n        /* \"#utility.yul\":14411:14412   */\n      dup2\n        /* \"#utility.yul\":14406:14409   */\n      dup10\n        /* \"#utility.yul\":14402:14413   */\n      add\n        /* \"#utility.yul\":14395:14430   */\n      mstore\n        /* \"#utility.yul\":14471:14472   */\n      0x01\n        /* \"#utility.yul\":14462:14469   */\n      dup3\n        /* \"#utility.yul\":14458:14473   */\n      add\n        /* \"#utility.yul\":14447:14473   */\n      swap2\n      pop\n        /* \"#utility.yul\":14369:14373   */\n      0x20\n        /* \"#utility.yul\":14366:14367   */\n      dup2\n        /* \"#utility.yul\":14362:14374   */\n      add\n        /* \"#utility.yul\":14357:14374   */\n      swap1\n      pop\n        /* \"#utility.yul\":14333:14487   */\n      jump(tag_392)\n    tag_394:\n        /* \"#utility.yul\":14516:14517   */\n      dup1\n        /* \"#utility.yul\":14511:14514   */\n      dup9\n        /* \"#utility.yul\":14507:14518   */\n      add\n        /* \"#utility.yul\":14500:14518   */\n      swap6\n      pop\n        /* \"#utility.yul\":14199:14528   */\n      pop\n      pop\n        /* \"#utility.yul\":14015:14528   */\n    tag_388:\n      pop\n        /* \"#utility.yul\":13821:14534   */\n      pop\n      pop\n        /* \"#utility.yul\":13732:14534   */\n      swap3\n      swap2\n      pop\n      pop\n      jump\t// out\n        /* \"#utility.yul\":14540:15048   */\n    tag_117:\n        /* \"#utility.yul\":14698:14702   */\n      0x00\n        /* \"#utility.yul\":14736:14738   */\n      0x40\n        /* \"#utility.yul\":14725:14734   */\n      dup3\n        /* \"#utility.yul\":14721:14739   */\n      add\n        /* \"#utility.yul\":14713:14739   */\n      swap1\n      pop\n        /* \"#utility.yul\":14785:14794   */\n      dup2\n        /* \"#utility.yul\":14779:14783   */\n      dup2\n        /* \"#utility.yul\":14775:14795   */\n      sub\n        /* \"#utility.yul\":14771:14772   */\n      0x00\n        /* \"#utility.yul\":14760:14769   */\n      dup4\n        /* \"#utility.yul\":14756:14773   */\n      add\n        /* \"#utility.yul\":14749:14796   */\n      mstore\n        /* \"#utility.yul\":14813:14891   */\n      tag_396\n        /* \"#utility.yul\":14886:14890   */\n      dup2\n        /* \"#utility.yul\":14877:14883   */\n      dup6\n        /* \"#utility.yul\":14813:14891   */\n      tag_229\n      jump\t// in\n    tag_396:\n        /* \"#utility.yul\":14805:14891   */\n      swap1\n      pop\n        /* \"#utility.yul\":14938:14947   */\n      dup2\n        /* \"#utility.yul\":14932:14936   */\n      dup2\n        /* \"#utility.yul\":14928:14948   */\n      sub\n        /* \"#utility.yul\":14923:14925   */\n      0x20\n        /* \"#utility.yul\":14912:14921   */\n      dup4\n        /* \"#utility.yul\":14908:14926   */\n      add\n        /* \"#utility.yul\":14901:14949   */\n      mstore\n        /* \"#utility.yul\":14966:15041   */\n      tag_397\n        /* \"#utility.yul\":15036:15040   */\n      dup2\n        /* \"#utility.yul\":15027:15033   */\n      dup5\n        /* \"#utility.yul\":14966:15041   */\n      tag_232\n      jump\t// in\n    tag_397:\n        /* \"#utility.yul\":14958:15041   */\n      swap1\n      pop\n        /* \"#utility.yul\":14540:15048   */\n      swap4\n      swap3\n      pop\n      pop\n      pop\n      jump\t// out\n        /* \"#utility.yul\":15054:15231   */\n    tag_233:\n        /* \"#utility.yul\":15194:15223   */\n      0x54686520576f726b657220686173206265656e2064656c657465640000000000\n        /* \"#utility.yul\":15190:15191   */\n      0x00\n        /* \"#utility.yul\":15182:15188   */\n      dup3\n        /* \"#utility.yul\":15178:15192   */\n      add\n        /* \"#utility.yul\":15171:15224   */\n      mstore\n        /* \"#utility.yul\":15054:15231   */\n      pop\n      jump\t// out\n        /* \"#utility.yul\":15237:15603   */\n    tag_234:\n        /* \"#utility.yul\":15379:15382   */\n      0x00\n        /* \"#utility.yul\":15400:15467   */\n      tag_400\n        /* \"#utility.yul\":15464:15466   */\n      0x1b\n        /* \"#utility.yul\":15459:15462   */\n      dup4\n        /* \"#utility.yul\":15400:15467   */\n      tag_222\n      jump\t// in\n    tag_400:\n        /* \"#utility.yul\":15393:15467   */\n      swap2\n      pop\n        /* \"#utility.yul\":15476:15569   */\n      tag_401\n        /* \"#utility.yul\":15565:15568   */\n      dup3\n        /* \"#utility.yul\":15476:15569   */\n      tag_233\n      jump\t// in\n    tag_401:\n        /* \"#utility.yul\":15594:15596   */\n      0x20\n        /* \"#utility.yul\":15589:15592   */\n      dup3\n        /* \"#utility.yul\":15585:15597   */\n      add\n        /* \"#utility.yul\":15578:15597   */\n      swap1\n      pop\n        /* \"#utility.yul\":15237:15603   */\n      swap2\n      swap1\n      pop\n      jump\t// out\n        /* \"#utility.yul\":15609:16028   */\n    tag_131:\n        /* \"#utility.yul\":15775:15779   */\n      0x00\n        /* \"#utility.yul\":15813:15815   */\n      0x20\n        /* \"#utility.yul\":15802:15811   */\n      dup3\n        /* \"#utility.yul\":15798:15816   */\n      add\n        /* \"#utility.yul\":15790:15816   */\n      swap1\n      pop\n        /* \"#utility.yul\":15862:15871   */\n      dup2\n        /* \"#utility.yul\":15856:15860   */\n      dup2\n        /* \"#utility.yul\":15852:15872   */\n      sub\n        /* \"#utility.yul\":15848:15849   */\n      0x00\n        /* \"#utility.yul\":15837:15846   */\n      dup4\n        /* \"#utility.yul\":15833:15850   */\n      add\n        /* \"#utility.yul\":15826:15873   */\n      mstore\n        /* \"#utility.yul\":15890:16021   */\n      tag_403\n        /* \"#utility.yul\":16016:16020   */\n      dup2\n        /* \"#utility.yul\":15890:16021   */\n      tag_234\n      jump\t// in\n    tag_403:\n        /* \"#utility.yul\":15882:16021   */\n      swap1\n      pop\n        /* \"#utility.yul\":15609:16028   */\n      swap2\n      swap1\n      pop\n      jump\t// out\n        /* \"#utility.yul\":16034:16208   */\n    tag_235:\n        /* \"#utility.yul\":16174:16200   */\n      0x5468652067726f757020686173206265656e20636c6f73650000000000000000\n        /* \"#utility.yul\":16170:16171   */\n      0x00\n        /* \"#utility.yul\":16162:16168   */\n      dup3\n        /* \"#utility.yul\":16158:16172   */\n      add\n        /* \"#utility.yul\":16151:16201   */\n      mstore\n        /* \"#utility.yul\":16034:16208   */\n      pop\n      jump\t// out\n        /* \"#utility.yul\":16214:16580   */\n    tag_236:\n        /* \"#utility.yul\":16356:16359   */\n      0x00\n        /* \"#utility.yul\":16377:16444   */\n      tag_406\n        /* \"#utility.yul\":16441:16443   */\n      0x18\n        /* \"#utility.yul\":16436:16439   */\n      dup4\n        /* \"#utility.yul\":16377:16444   */\n      tag_222\n      jump\t// in\n    tag_406:\n        /* \"#utility.yul\":16370:16444   */\n      swap2\n      pop\n        /* \"#utility.yul\":16453:16546   */\n      tag_407\n        /* \"#utility.yul\":16542:16545   */\n      dup3\n        /* \"#utility.yul\":16453:16546   */\n      tag_235\n      jump\t// in\n    tag_407:\n        /* \"#utility.yul\":16571:16573   */\n      0x20\n        /* \"#utility.yul\":16566:16569   */\n      dup3\n        /* \"#utility.yul\":16562:16574   */\n      add\n        /* \"#utility.yul\":16555:16574   */\n      swap1\n      pop\n        /* \"#utility.yul\":16214:16580   */\n      swap2\n      swap1\n      pop\n      jump\t// out\n        /* \"#utility.yul\":16586:17005   */\n    tag_142:\n        /* \"#utility.yul\":16752:16756   */\n      0x00\n        /* \"#utility.yul\":16790:16792   */\n      0x20\n        /* \"#utility.yul\":16779:16788   */\n      dup3\n        /* \"#utility.yul\":16775:16793   */\n      add\n        /* \"#utility.yul\":16767:16793   */\n      swap1\n      pop\n        /* \"#utility.yul\":16839:16848   */\n      dup2\n        /* \"#utility.yul\":16833:16837   */\n      dup2\n        /* \"#utility.yul\":16829:16849   */\n      sub\n        /* \"#utility.yul\":16825:16826   */\n      0x00\n        /* \"#utility.yul\":16814:16823   */\n      dup4\n        /* \"#utility.yul\":16810:16827   */\n      add\n        /* \"#utility.yul\":16803:16850   */\n      mstore\n        /* \"#utility.yul\":16867:16998   */\n      tag_409\n        /* \"#utility.yul\":16993:16997   */\n      dup2\n        /* \"#utility.yul\":16867:16998   */\n      tag_236\n      jump\t// in\n    tag_409:\n        /* \"#utility.yul\":16859:16998   */\n      swap1\n      pop\n        /* \"#utility.yul\":16586:17005   */\n      swap2\n      swap1\n      pop\n      jump\t// out\n        /* \"#utility.yul\":17011:17186   */\n    tag_237:\n        /* \"#utility.yul\":17151:17178   */\n      0x54686520776f726b657220686173206265656e20616464656400000000000000\n        /* \"#utility.yul\":17147:17148   */\n      0x00\n        /* \"#utility.yul\":17139:17145   */\n      dup3\n        /* \"#utility.yul\":17135:17149   */\n      add\n        /* \"#utility.yul\":17128:17179   */\n      mstore\n        /* \"#utility.yul\":17011:17186   */\n      pop\n      jump\t// out\n        /* \"#utility.yul\":17192:17558   */\n    tag_238:\n        /* \"#utility.yul\":17334:17337   */\n      0x00\n        /* \"#utility.yul\":17355:17422   */\n      tag_412\n        /* \"#utility.yul\":17419:17421   */\n      0x19\n        /* \"#utility.yul\":17414:17417   */\n      dup4\n        /* \"#utility.yul\":17355:17422   */\n      tag_222\n      jump\t// in\n    tag_412:\n        /* \"#utility.yul\":17348:17422   */\n      swap2\n      pop\n        /* \"#utility.yul\":17431:17524   */\n      tag_413\n        /* \"#utility.yul\":17520:17523   */\n      dup3\n        /* \"#utility.yul\":17431:17524   */\n      tag_237\n      jump\t// in\n    tag_413:\n        /* \"#utility.yul\":17549:17551   */\n      0x20\n        /* \"#utility.yul\":17544:17547   */\n      dup3\n        /* \"#utility.yul\":17540:17552   */\n      add\n        /* \"#utility.yul\":17533:17552   */\n      swap1\n      pop\n        /* \"#utility.yul\":17192:17558   */\n      swap2\n      swap1\n      pop\n      jump\t// out\n        /* \"#utility.yul\":17564:17983   */\n    tag_154:\n        /* \"#utility.yul\":17730:17734   */\n      0x00\n        /* \"#utility.yul\":17768:17770   */\n      0x20\n        /* \"#utility.yul\":17757:17766   */\n      dup3\n        /* \"#utility.yul\":17753:17771   */\n      add\n        /* \"#utility.yul\":17745:17771   */\n      swap1\n      pop\n        /* \"#utility.yul\":17817:17826   */\n      dup2\n        /* \"#utility.yul\":17811:17815   */\n      dup2\n        /* \"#utility.yul\":17807:17827   */\n      sub\n        /* \"#utility.yul\":17803:17804   */\n      0x00\n        /* \"#utility.yul\":17792:17801   */\n      dup4\n        /* \"#utility.yul\":17788:17805   */\n      add\n        /* \"#utility.yul\":17781:17828   */\n      mstore\n        /* \"#utility.yul\":17845:17976   */\n      tag_415\n        /* \"#utility.yul\":17971:17975   */\n      dup2\n        /* \"#utility.yul\":17845:17976   */\n      tag_238\n      jump\t// in\n    tag_415:\n        /* \"#utility.yul\":17837:17976   */\n      swap1\n      pop\n        /* \"#utility.yul\":17564:17983   */\n      swap2\n      swap1\n      pop\n      jump\t// out\n        /* \"#utility.yul\":17989:18158   */\n    tag_239:\n        /* \"#utility.yul\":18129:18150   */\n      0x556e417574686f72697a65644163636f756e7400000000000000000000000000\n        /* \"#utility.yul\":18125:18126   */\n      0x00\n        /* \"#utility.yul\":18117:18123   */\n      dup3\n        /* \"#utility.yul\":18113:18127   */\n      add\n        /* \"#utility.yul\":18106:18151   */\n      mstore\n        /* \"#utility.yul\":17989:18158   */\n      pop\n      jump\t// out\n        /* \"#utility.yul\":18164:18530   */\n    tag_240:\n        /* \"#utility.yul\":18306:18309   */\n      0x00\n        /* \"#utility.yul\":18327:18394   */\n      tag_418\n        /* \"#utility.yul\":18391:18393   */\n      0x13\n        /* \"#utility.yul\":18386:18389   */\n      dup4\n        /* \"#utility.yul\":18327:18394   */\n      tag_222\n      jump\t// in\n    tag_418:\n        /* \"#utility.yul\":18320:18394   */\n      swap2\n      pop\n        /* \"#utility.yul\":18403:18496   */\n      tag_419\n        /* \"#utility.yul\":18492:18495   */\n      dup3\n        /* \"#utility.yul\":18403:18496   */\n      tag_239\n      jump\t// in\n    tag_419:\n        /* \"#utility.yul\":18521:18523   */\n      0x20\n        /* \"#utility.yul\":18516:18519   */\n      dup3\n        /* \"#utility.yul\":18512:18524   */\n      add\n        /* \"#utility.yul\":18505:18524   */\n      swap1\n      pop\n        /* \"#utility.yul\":18164:18530   */\n      swap2\n      swap1\n      pop\n      jump\t// out\n        /* \"#utility.yul\":18536:18955   */\n    tag_163:\n        /* \"#utility.yul\":18702:18706   */\n      0x00\n        /* \"#utility.yul\":18740:18742   */\n      0x20\n        /* \"#utility.yul\":18729:18738   */\n      dup3\n        /* \"#utility.yul\":18725:18743   */\n      add\n        /* \"#utility.yul\":18717:18743   */\n      swap1\n      pop\n        /* \"#utility.yul\":18789:18798   */\n      dup2\n        /* \"#utility.yul\":18783:18787   */\n      dup2\n        /* \"#utility.yul\":18779:18799   */\n      sub\n        /* \"#utility.yul\":18775:18776   */\n      0x00\n        /* \"#utility.yul\":18764:18773   */\n      dup4\n        /* \"#utility.yul\":18760:18777   */\n      add\n        /* \"#utility.yul\":18753:18800   */\n      mstore\n        /* \"#utility.yul\":18817:18948   */\n      tag_421\n        /* \"#utility.yul\":18943:18947   */\n      dup2\n        /* \"#utility.yul\":18817:18948   */\n      tag_240\n      jump\t// in\n    tag_421:\n        /* \"#utility.yul\":18809:18948   */\n      swap1\n      pop\n        /* \"#utility.yul\":18536:18955   */\n      swap2\n      swap1\n      pop\n      jump\t// out\n        /* \"#utility.yul\":18961:19141   */\n    tag_241:\n        /* \"#utility.yul\":19009:19086   */\n      0x4e487b7100000000000000000000000000000000000000000000000000000000\n        /* \"#utility.yul\":19006:19007   */\n      0x00\n        /* \"#utility.yul\":18999:19087   */\n      mstore\n        /* \"#utility.yul\":19106:19110   */\n      0x11\n        /* \"#utility.yul\":19103:19104   */\n      0x04\n        /* \"#utility.yul\":19096:19111   */\n      mstore\n        /* \"#utility.yul\":19130:19134   */\n      0x24\n        /* \"#utility.yul\":19127:19128   */\n      0x00\n        /* \"#utility.yul\":19120:19135   */\n      revert\n        /* \"#utility.yul\":19147:19380   */\n    tag_178:\n        /* \"#utility.yul\":19186:19189   */\n      0x00\n        /* \"#utility.yul\":19209:19233   */\n      tag_424\n        /* \"#utility.yul\":19227:19232   */\n      dup3\n        /* \"#utility.yul\":19209:19233   */\n      tag_205\n      jump\t// in\n    tag_424:\n        /* \"#utility.yul\":19200:19233   */\n      swap2\n      pop\n        /* \"#utility.yul\":19255:19321   */\n      0xffffffffffffffffffffffffffffffffffffffffffffffffffffffffffffffff\n        /* \"#utility.yul\":19248:19253   */\n      dup3\n        /* \"#utility.yul\":19245:19322   */\n      eq\n        /* \"#utility.yul\":19242:19345   */\n      iszero\n      tag_425\n      jumpi\n        /* \"#utility.yul\":19325:19343   */\n      tag_426\n      tag_241\n      jump\t// in\n    tag_426:\n        /* \"#utility.yul\":19242:19345   */\n    tag_425:\n        /* \"#utility.yul\":19372:19373   */\n      0x01\n        /* \"#utility.yul\":19365:19370   */\n      dup3\n        /* \"#utility.yul\":19361:19374   */\n      add\n        /* \"#utility.yul\":19354:19374   */\n      swap1\n      pop\n        /* \"#utility.yul\":19147:19380   */\n      swap2\n      swap1\n      pop\n      jump\t// out\n\n    auxdata: 0xa264697066735822122025477b589f4e8cc437bd4e453dd7e460b11c7067df8ae2ad748777c2aaa8a16764736f6c634300080b0033\n}\n",
				"bytecode": {
					"linkReferences": {},
					"object": "608060405234801561001057600080fd5b503360016000808060001b815260200190815260200160002060000160008373ffffffffffffffffffffffffffffffffffffffff1673ffffffffffffffffffffffffffffffffffffffff16815260200190815260200160002060006101000a81548160ff02191690831515021790555050611b7d806100906000396000f3fe608060405234801561001057600080fd5b50600436106100f55760003560e01c806375b238fc116100975780639cdeba95116100665780639cdeba95146102d2578063c5b95190146102f0578063d547741f14610320578063e1b6477414610350576100f5565b806375b238fc1461022457806382c7ee891461024257806391d148541461027257806395aec814146102a2576100f5565b806336568abe116100d357806336568abe1461018a5780635d0f4293146101a6578063634252dc146101d65780637350fca2146101f4576100f5565b806320368af3146100fa578063248a9ca31461012a5780632f2ff15d1461015a575b600080fd5b610114600480360381019061010f91906112ca565b610380565b6040516101219190611370565b60405180910390f35b610144600480360381019061013f91906113c1565b610488565b60405161015191906113fd565b60405180910390f35b610174600480360381019061016f9190611476565b6104a7565b6040516101819190611370565b60405180910390f35b6101a4600480360381019061019f9190611476565b6105a6565b005b6101c060048036038101906101bb91906114b6565b610623565b6040516101cd9190611370565b60405180910390f35b6101de61073d565b6040516101eb91906113fd565b60405180910390f35b61020e600480360381019061020991906114b6565b610761565b60405161021b9190611370565b60405180910390f35b61022c610a44565b60405161023991906113fd565b60405180910390f35b61025c600480360381019061025791906114b6565b610a68565b6040516102699190611370565b60405180910390f35b61028c60048036038101906102879190611476565b610b82565b6040516102999190611370565b60405180910390f35b6102bc60048036038101906102b791906114ff565b610bec565b6040516102c99190611370565b60405180910390f35b6102da610ddc565b6040516102e791906113fd565b60405180910390f35b61030a600480360381019061030591906113c1565b610de3565b6040516103179190611370565b60405180910390f35b61033a60048036038101906103359190611476565b610e37565b6040516103479190611370565b60405180910390f35b61036a6004803603810190610365919061155b565b610f35565b6040516103779190611370565b60405180910390f35b60007ff101d8f75d5816ea5d4f9e76d2b196ca77914d087c68fd9b89f497d695bcddf76103ac81610de3565b506004856040516103bd919061164d565b908152602001604051809103902060020160009054906101000a900460ff1661041b576040517f08c379a0000000000000000000000000000000000000000000000000000000008152600401610412906116c1565b60405180910390fd5b60405180602001604052808481525060048660405161043a919061164d565b908152602001604051809103902060000160008681526020019081526020016000206000820151816000019080519060200190610478929190611097565b5090505060019150509392505050565b6000806000838152602001908152602001600020600101549050919050565b60006104b283610488565b6104bb81610de3565b506104c68484610b82565b156104d4576000915061059f565b600160008086815260200190815260200160002060000160008573ffffffffffffffffffffffffffffffffffffffff1673ffffffffffffffffffffffffffffffffffffffff16815260200190815260200160002060006101000a81548160ff0219169083151502179055503373ffffffffffffffffffffffffffffffffffffffff168373ffffffffffffffffffffffffffffffffffffffff16857f2f8788117e7eff1d82e926ec794901d17c78024a50270940304540a733656f0d60405160405180910390a4600191505b5092915050565b3373ffffffffffffffffffffffffffffffffffffffff168173ffffffffffffffffffffffffffffffffffffffff1614610614576040517f08c379a000000000000000000000000000000000000000000000000000000000815260040161060b9061172d565b60405180910390fd5b61061e8282610e37565b505050565b60007fdf8b4c520ffe197c5343c6f5aec59570151ef9a492f2c624fd45ddde6135ec4261064f81610de3565b50600483604051610660919061164d565b908152602001604051809103902060020160009054906101000a900460ff16156106bf576040517f08c379a00000000000000000000000000000000000000000000000000000000081526004016106b690611799565b60405180910390fd5b60016004846040516106d1919061164d565b908152602001604051809103902060020160006101000a81548160ff0219169083151502179055507f0c9f7ffde55abf279e64f645add2b656e6cbd943754bb169e34c801647cd10ba83600260405161072b9291906118e8565b60405180910390a16001915050919050565b7ff101d8f75d5816ea5d4f9e76d2b196ca77914d087c68fd9b89f497d695bcddf781565b60007fdf8b4c520ffe197c5343c6f5aec59570151ef9a492f2c624fd45ddde6135ec4261078d81610de3565b5060006003846040516107a0919061164d565b90815260200160405180910390206040518060400160405290816000820180546107c990611821565b80601f01602080910402602001604051908101604052809291908181526020018280546107f590611821565b80156108425780601f1061081757610100808354040283529160200191610842565b820191906000526020600020905b81548152906001019060200180831161082557829003601f168201915b505050505081526020016001820160009054906101000a900473ffffffffffffffffffffffffffffffffffffffff1673ffffffffffffffffffffffffffffffffffffffff1673ffffffffffffffffffffffffffffffffffffffff168152505090506108d17ff101d8f75d5816ea5d4f9e76d2b196ca77914d087c68fd9b89f497d695bcddf78260200151610b82565b610910576040517f08c379a00000000000000000000000000000000000000000000000000000000081526004016109079061196b565b60405180910390fd5b61093e7ff101d8f75d5816ea5d4f9e76d2b196ca77914d087c68fd9b89f497d695bcddf78260200151610e37565b506040518060400160405280604051806020016040528060008152508152602001600073ffffffffffffffffffffffffffffffffffffffff1681525060038560405161098a919061164d565b908152602001604051809103902060008201518160000190805190602001906109b4929190611097565b5060208201518160010160006101000a81548173ffffffffffffffffffffffffffffffffffffffff021916908373ffffffffffffffffffffffffffffffffffffffff1602179055509050507f8107a7b10269990d65f96ff89538ef92f91cd14632605ad78337f4856265f733846002604051610a319291906118e8565b60405180910390a1600192505050919050565b7fdf8b4c520ffe197c5343c6f5aec59570151ef9a492f2c624fd45ddde6135ec4281565b60007fdf8b4c520ffe197c5343c6f5aec59570151ef9a492f2c624fd45ddde6135ec42610a9481610de3565b50600483604051610aa5919061164d565b908152602001604051809103902060020160009054906101000a900460ff1615610b04576040517f08c379a0000000000000000000000000000000000000000000000000000000008152600401610afb906119d7565b60405180910390fd5b6000600484604051610b16919061164d565b908152602001604051809103902060020160006101000a81548160ff0219169083151502179055507f8f4df4ac08e47de38a6197f9d9be3a93fc938e5640987e4da6d3b81a93b83482836002604051610b709291906118e8565b60405180910390a16001915050919050565b600080600084815260200190815260200160002060000160008373ffffffffffffffffffffffffffffffffffffffff1673ffffffffffffffffffffffffffffffffffffffff16815260200190815260200160002060009054906101000a900460ff16905092915050565b60007fdf8b4c520ffe197c5343c6f5aec59570151ef9a492f2c624fd45ddde6135ec42610c1881610de3565b50610c437ff101d8f75d5816ea5d4f9e76d2b196ca77914d087c68fd9b89f497d695bcddf784610b82565b15610c515760009150610dd5565b610c7b7ff101d8f75d5816ea5d4f9e76d2b196ca77914d087c68fd9b89f497d695bcddf784610b82565b15610cbb576040517f08c379a0000000000000000000000000000000000000000000000000000000008152600401610cb290611a43565b60405180910390fd5b610ce57ff101d8f75d5816ea5d4f9e76d2b196ca77914d087c68fd9b89f497d695bcddf7846104a7565b5060405180604001604052808581526020018473ffffffffffffffffffffffffffffffffffffffff16815250600385604051610d21919061164d565b90815260200160405180910390206000820151816000019080519060200190610d4b929190611097565b5060208201518160010160006101000a81548173ffffffffffffffffffffffffffffffffffffffff021916908373ffffffffffffffffffffffffffffffffffffffff1602179055509050507f3b342535402e29d67e822084e8f23105b4c11e847ed79261c7406f98396cea1b846002604051610dc89291906118e8565b60405180910390a1600191505b5092915050565b6000801b81565b6000610def8233610b82565b610e2e576040517f08c379a0000000000000000000000000000000000000000000000000000000008152600401610e2590611aaf565b60405180910390fd5b60019050919050565b6000610e4283610488565b610e4b81610de3565b50610e568484610b82565b610e635760009150610f2e565b600080600086815260200190815260200160002060000160008573ffffffffffffffffffffffffffffffffffffffff1673ffffffffffffffffffffffffffffffffffffffff16815260200190815260200160002060006101000a81548160ff0219169083151502179055503373ffffffffffffffffffffffffffffffffffffffff168373ffffffffffffffffffffffffffffffffffffffff16857ff6391f5c32d9c69d2a47ea670b442974b53935d1edc7fd64eb21e047a839171b60405160405180910390a4600191505b5092915050565b60007ff101d8f75d5816ea5d4f9e76d2b196ca77914d087c68fd9b89f497d695bcddf7610f6181610de3565b50600484604051610f72919061164d565b908152602001604051809103902060020160009054906101000a900460ff16610fd0576040517f08c379a0000000000000000000000000000000000000000000000000000000008152600401610fc7906116c1565b60405180910390fd5b6000600485604051610fe2919061164d565b9081526020016040518091039020600101549050808061100190611afe565b91505080600486604051611015919061164d565b908152602001604051809103902060010181905550604051806020016040528085815250600486604051611049919061164d565b908152602001604051809103902060000160008381526020019081526020016000206000820151816000019080519060200190611087929190611097565b5090505060019250505092915050565b8280546110a390611821565b90600052602060002090601f0160209004810192826110c5576000855561110c565b82601f106110de57805160ff191683800117855561110c565b8280016001018555821561110c579182015b8281111561110b5782518255916020019190600101906110f0565b5b509050611119919061111d565b5090565b5b8082111561113657600081600090555060010161111e565b5090565b6000604051905090565b600080fd5b600080fd5b600080fd5b600080fd5b6000601f19601f8301169050919050565b7f4e487b7100000000000000000000000000000000000000000000000000000000600052604160045260246000fd5b6111a182611158565b810181811067ffffffffffffffff821117156111c0576111bf611169565b5b80604052505050565b60006111d361113a565b90506111df8282611198565b919050565b600067ffffffffffffffff8211156111ff576111fe611169565b5b61120882611158565b9050602081019050919050565b82818337600083830152505050565b6000611237611232846111e4565b6111c9565b90508281526020810184848401111561125357611252611153565b5b61125e848285611215565b509392505050565b600082601f83011261127b5761127a61114e565b5b813561128b848260208601611224565b91505092915050565b6000819050919050565b6112a781611294565b81146112b257600080fd5b50565b6000813590506112c48161129e565b92915050565b6000806000606084860312156112e3576112e2611144565b5b600084013567ffffffffffffffff81111561130157611300611149565b5b61130d86828701611266565b935050602061131e868287016112b5565b925050604084013567ffffffffffffffff81111561133f5761133e611149565b5b61134b86828701611266565b9150509250925092565b60008115159050919050565b61136a81611355565b82525050565b60006020820190506113856000830184611361565b92915050565b6000819050919050565b61139e8161138b565b81146113a957600080fd5b50565b6000813590506113bb81611395565b92915050565b6000602082840312156113d7576113d6611144565b5b60006113e5848285016113ac565b91505092915050565b6113f78161138b565b82525050565b600060208201905061141260008301846113ee565b92915050565b600073ffffffffffffffffffffffffffffffffffffffff82169050919050565b600061144382611418565b9050919050565b61145381611438565b811461145e57600080fd5b50565b6000813590506114708161144a565b92915050565b6000806040838503121561148d5761148c611144565b5b600061149b858286016113ac565b92505060206114ac85828601611461565b9150509250929050565b6000602082840312156114cc576114cb611144565b5b600082013567ffffffffffffffff8111156114ea576114e9611149565b5b6114f684828501611266565b91505092915050565b6000806040838503121561151657611515611144565b5b600083013567ffffffffffffffff81111561153457611533611149565b5b61154085828601611266565b925050602061155185828601611461565b9150509250929050565b6000806040838503121561157257611571611144565b5b600083013567ffffffffffffffff8111156115905761158f611149565b5b61159c85828601611266565b925050602083013567ffffffffffffffff8111156115bd576115bc611149565b5b6115c985828601611266565b9150509250929050565b600081519050919050565b600081905092915050565b60005b838110156116075780820151818401526020810190506115ec565b83811115611616576000848401525b50505050565b6000611627826115d3565b61163181856115de565b93506116418185602086016115e9565b80840191505092915050565b6000611659828461161c565b915081905092915050565b600082825260208201905092915050565b7f4e6f2067726f757020666f756e64000000000000000000000000000000000000600082015250565b60006116ab600e83611664565b91506116b682611675565b602082019050919050565b600060208201905081810360008301526116da8161169e565b9050919050565b7f426164436f6e6669726d6174696f6e0000000000000000000000000000000000600082015250565b6000611717600f83611664565b9150611722826116e1565b602082019050919050565b600060208201905081810360008301526117468161170a565b9050919050565b7f5468652067726f75702068617320657869737400000000000000000000000000600082015250565b6000611783601383611664565b915061178e8261174d565b602082019050919050565b600060208201905081810360008301526117b281611776565b9050919050565b60006117c4826115d3565b6117ce8185611664565b93506117de8185602086016115e9565b6117e781611158565b840191505092915050565b7f4e487b7100000000000000000000000000000000000000000000000000000000600052602260045260246000fd5b6000600282049050600182168061183957607f821691505b6020821081141561184d5761184c6117f2565b5b50919050565b60008190508160005260206000209050919050565b6000815461187581611821565b61187f8186611664565b9450600182166000811461189a57600181146118ac576118df565b60ff19831686526020860193506118df565b6118b585611853565b60005b838110156118d7578154818901526001820191506020810190506118b8565b808801955050505b50505092915050565b6000604082019050818103600083015261190281856117b9565b905081810360208301526119168184611868565b90509392505050565b7f54686520576f726b657220686173206265656e2064656c657465640000000000600082015250565b6000611955601b83611664565b91506119608261191f565b602082019050919050565b6000602082019050818103600083015261198481611948565b9050919050565b7f5468652067726f757020686173206265656e20636c6f73650000000000000000600082015250565b60006119c1601883611664565b91506119cc8261198b565b602082019050919050565b600060208201905081810360008301526119f0816119b4565b9050919050565b7f54686520776f726b657220686173206265656e20616464656400000000000000600082015250565b6000611a2d601983611664565b9150611a38826119f7565b602082019050919050565b60006020820190508181036000830152611a5c81611a20565b9050919050565b7f556e417574686f72697a65644163636f756e7400000000000000000000000000600082015250565b6000611a99601383611664565b9150611aa482611a63565b602082019050919050565b60006020820190508181036000830152611ac881611a8c565b9050919050565b7f4e487b7100000000000000000000000000000000000000000000000000000000600052601160045260246000fd5b6000611b0982611294565b91507fffffffffffffffffffffffffffffffffffffffffffffffffffffffffffffffff821415611b3c57611b3b611acf565b5b60018201905091905056fea264697066735822122025477b589f4e8cc437bd4e453dd7e460b11c7067df8ae2ad748777c2aaa8a16764736f6c634300080b0033",
					"opcodes": "PUSH1 0x80 PUSH1 0x40 MSTORE CALLVALUE DUP1 ISZERO PUSH2 0x10 JUMPI PUSH1 0x0 DUP1 REVERT JUMPDEST POP CALLER PUSH1 0x1 PUSH1 0x0 DUP1 DUP1 PUSH1 0x0 SHL DUP2 MSTORE PUSH1 0x20 ADD SWAP1 DUP2 MSTORE PUSH1 0x20 ADD PUSH1 0x0 KECCAK256 PUSH1 0x0 ADD PUSH1 0x0 DUP4 PUSH20 0xFFFFFFFFFFFFFFFFFFFFFFFFFFFFFFFFFFFFFFFF AND PUSH20 0xFFFFFFFFFFFFFFFFFFFFFFFFFFFFFFFFFFFFFFFF AND DUP2 MSTORE PUSH1 0x20 ADD SWAP1 DUP2 MSTORE PUSH1 0x20 ADD PUSH1 0x0 KECCAK256 PUSH1 0x0 PUSH2 0x100 EXP DUP2 SLOAD DUP2 PUSH1 0xFF MUL NOT AND SWAP1 DUP4 ISZERO ISZERO MUL OR SWAP1 SSTORE POP POP PUSH2 0x1B7D DUP1 PUSH2 0x90 PUSH1 0x0 CODECOPY PUSH1 0x0 RETURN INVALID PUSH1 0x80 PUSH1 0x40 MSTORE CALLVALUE DUP1 ISZERO PUSH2 0x10 JUMPI PUSH1 0x0 DUP1 REVERT JUMPDEST POP PUSH1 0x4 CALLDATASIZE LT PUSH2 0xF5 JUMPI PUSH1 0x0 CALLDATALOAD PUSH1 0xE0 SHR DUP1 PUSH4 0x75B238FC GT PUSH2 0x97 JUMPI DUP1 PUSH4 0x9CDEBA95 GT PUSH2 0x66 JUMPI DUP1 PUSH4 0x9CDEBA95 EQ PUSH2 0x2D2 JUMPI DUP1 PUSH4 0xC5B95190 EQ PUSH2 0x2F0 JUMPI DUP1 PUSH4 0xD547741F EQ PUSH2 0x320 JUMPI DUP1 PUSH4 0xE1B64774 EQ PUSH2 0x350 JUMPI PUSH2 0xF5 JUMP JUMPDEST DUP1 PUSH4 0x75B238FC EQ PUSH2 0x224 JUMPI DUP1 PUSH4 0x82C7EE89 EQ PUSH2 0x242 JUMPI DUP1 PUSH4 0x91D14854 EQ PUSH2 0x272 JUMPI DUP1 PUSH4 0x95AEC814 EQ PUSH2 0x2A2 JUMPI PUSH2 0xF5 JUMP JUMPDEST DUP1 PUSH4 0x36568ABE GT PUSH2 0xD3 JUMPI DUP1 PUSH4 0x36568ABE EQ PUSH2 0x18A JUMPI DUP1 PUSH4 0x5D0F4293 EQ PUSH2 0x1A6 JUMPI DUP1 PUSH4 0x634252DC EQ PUSH2 0x1D6 JUMPI DUP1 PUSH4 0x7350FCA2 EQ PUSH2 0x1F4 JUMPI PUSH2 0xF5 JUMP JUMPDEST DUP1 PUSH4 0x20368AF3 EQ PUSH2 0xFA JUMPI DUP1 PUSH4 0x248A9CA3 EQ PUSH2 0x12A JUMPI DUP1 PUSH4 0x2F2FF15D EQ PUSH2 0x15A JUMPI JUMPDEST PUSH1 0x0 DUP1 REVERT JUMPDEST PUSH2 0x114 PUSH1 0x4 DUP1 CALLDATASIZE SUB DUP2 ADD SWAP1 PUSH2 0x10F SWAP2 SWAP1 PUSH2 0x12CA JUMP JUMPDEST PUSH2 0x380 JUMP JUMPDEST PUSH1 0x40 MLOAD PUSH2 0x121 SWAP2 SWAP1 PUSH2 0x1370 JUMP JUMPDEST PUSH1 0x40 MLOAD DUP1 SWAP2 SUB SWAP1 RETURN JUMPDEST PUSH2 0x144 PUSH1 0x4 DUP1 CALLDATASIZE SUB DUP2 ADD SWAP1 PUSH2 0x13F SWAP2 SWAP1 PUSH2 0x13C1 JUMP JUMPDEST PUSH2 0x488 JUMP JUMPDEST PUSH1 0x40 MLOAD PUSH2 0x151 SWAP2 SWAP1 PUSH2 0x13FD JUMP JUMPDEST PUSH1 0x40 MLOAD DUP1 SWAP2 SUB SWAP1 RETURN JUMPDEST PUSH2 0x174 PUSH1 0x4 DUP1 CALLDATASIZE SUB DUP2 ADD SWAP1 PUSH2 0x16F SWAP2 SWAP1 PUSH2 0x1476 JUMP JUMPDEST PUSH2 0x4A7 JUMP JUMPDEST PUSH1 0x40 MLOAD PUSH2 0x181 SWAP2 SWAP1 PUSH2 0x1370 JUMP JUMPDEST PUSH1 0x40 MLOAD DUP1 SWAP2 SUB SWAP1 RETURN JUMPDEST PUSH2 0x1A4 PUSH1 0x4 DUP1 CALLDATASIZE SUB DUP2 ADD SWAP1 PUSH2 0x19F SWAP2 SWAP1 PUSH2 0x1476 JUMP JUMPDEST PUSH2 0x5A6 JUMP JUMPDEST STOP JUMPDEST PUSH2 0x1C0 PUSH1 0x4 DUP1 CALLDATASIZE SUB DUP2 ADD SWAP1 PUSH2 0x1BB SWAP2 SWAP1 PUSH2 0x14B6 JUMP JUMPDEST PUSH2 0x623 JUMP JUMPDEST PUSH1 0x40 MLOAD PUSH2 0x1CD SWAP2 SWAP1 PUSH2 0x1370 JUMP JUMPDEST PUSH1 0x40 MLOAD DUP1 SWAP2 SUB SWAP1 RETURN JUMPDEST PUSH2 0x1DE PUSH2 0x73D JUMP JUMPDEST PUSH1 0x40 MLOAD PUSH2 0x1EB SWAP2 SWAP1 PUSH2 0x13FD JUMP JUMPDEST PUSH1 0x40 MLOAD DUP1 SWAP2 SUB SWAP1 RETURN JUMPDEST PUSH2 0x20E PUSH1 0x4 DUP1 CALLDATASIZE SUB DUP2 ADD SWAP1 PUSH2 0x209 SWAP2 SWAP1 PUSH2 0x14B6 JUMP JUMPDEST PUSH2 0x761 JUMP JUMPDEST PUSH1 0x40 MLOAD PUSH2 0x21B SWAP2 SWAP1 PUSH2 0x1370 JUMP JUMPDEST PUSH1 0x40 MLOAD DUP1 SWAP2 SUB SWAP1 RETURN JUMPDEST PUSH2 0x22C PUSH2 0xA44 JUMP JUMPDEST PUSH1 0x40 MLOAD PUSH2 0x239 SWAP2 SWAP1 PUSH2 0x13FD JUMP JUMPDEST PUSH1 0x40 MLOAD DUP1 SWAP2 SUB SWAP1 RETURN JUMPDEST PUSH2 0x25C PUSH1 0x4 DUP1 CALLDATASIZE SUB DUP2 ADD SWAP1 PUSH2 0x257 SWAP2 SWAP1 PUSH2 0x14B6 JUMP JUMPDEST PUSH2 0xA68 JUMP JUMPDEST PUSH1 0x40 MLOAD PUSH2 0x269 SWAP2 SWAP1 PUSH2 0x1370 JUMP JUMPDEST PUSH1 0x40 MLOAD DUP1 SWAP2 SUB SWAP1 RETURN JUMPDEST PUSH2 0x28C PUSH1 0x4 DUP1 CALLDATASIZE SUB DUP2 ADD SWAP1 PUSH2 0x287 SWAP2 SWAP1 PUSH2 0x1476 JUMP JUMPDEST PUSH2 0xB82 JUMP JUMPDEST PUSH1 0x40 MLOAD PUSH2 0x299 SWAP2 SWAP1 PUSH2 0x1370 JUMP JUMPDEST PUSH1 0x40 MLOAD DUP1 SWAP2 SUB SWAP1 RETURN JUMPDEST PUSH2 0x2BC PUSH1 0x4 DUP1 CALLDATASIZE SUB DUP2 ADD SWAP1 PUSH2 0x2B7 SWAP2 SWAP1 PUSH2 0x14FF JUMP JUMPDEST PUSH2 0xBEC JUMP JUMPDEST PUSH1 0x40 MLOAD PUSH2 0x2C9 SWAP2 SWAP1 PUSH2 0x1370 JUMP JUMPDEST PUSH1 0x40 MLOAD DUP1 SWAP2 SUB SWAP1 RETURN JUMPDEST PUSH2 0x2DA PUSH2 0xDDC JUMP JUMPDEST PUSH1 0x40 MLOAD PUSH2 0x2E7 SWAP2 SWAP1 PUSH2 0x13FD JUMP JUMPDEST PUSH1 0x40 MLOAD DUP1 SWAP2 SUB SWAP1 RETURN JUMPDEST PUSH2 0x30A PUSH1 0x4 DUP1 CALLDATASIZE SUB DUP2 ADD SWAP1 PUSH2 0x305 SWAP2 SWAP1 PUSH2 0x13C1 JUMP JUMPDEST PUSH2 0xDE3 JUMP JUMPDEST PUSH1 0x40 MLOAD PUSH2 0x317 SWAP2 SWAP1 PUSH2 0x1370 JUMP JUMPDEST PUSH1 0x40 MLOAD DUP1 SWAP2 SUB SWAP1 RETURN JUMPDEST PUSH2 0x33A PUSH1 0x4 DUP1 CALLDATASIZE SUB DUP2 ADD SWAP1 PUSH2 0x335 SWAP2 SWAP1 PUSH2 0x1476 JUMP JUMPDEST PUSH2 0xE37 JUMP JUMPDEST PUSH1 0x40 MLOAD PUSH2 0x347 SWAP2 SWAP1 PUSH2 0x1370 JUMP JUMPDEST PUSH1 0x40 MLOAD DUP1 SWAP2 SUB SWAP1 RETURN JUMPDEST PUSH2 0x36A PUSH1 0x4 DUP1 CALLDATASIZE SUB DUP2 ADD SWAP1 PUSH2 0x365 SWAP2 SWAP1 PUSH2 0x155B JUMP JUMPDEST PUSH2 0xF35 JUMP JUMPDEST PUSH1 0x40 MLOAD PUSH2 0x377 SWAP2 SWAP1 PUSH2 0x1370 JUMP JUMPDEST PUSH1 0x40 MLOAD DUP1 SWAP2 SUB SWAP1 RETURN JUMPDEST PUSH1 0x0 PUSH32 0xF101D8F75D5816EA5D4F9E76D2B196CA77914D087C68FD9B89F497D695BCDDF7 PUSH2 0x3AC DUP2 PUSH2 0xDE3 JUMP JUMPDEST POP PUSH1 0x4 DUP6 PUSH1 0x40 MLOAD PUSH2 0x3BD SWAP2 SWAP1 PUSH2 0x164D JUMP JUMPDEST SWAP1 DUP2 MSTORE PUSH1 0x20 ADD PUSH1 0x40 MLOAD DUP1 SWAP2 SUB SWAP1 KECCAK256 PUSH1 0x2 ADD PUSH1 0x0 SWAP1 SLOAD SWAP1 PUSH2 0x100 EXP SWAP1 DIV PUSH1 0xFF AND PUSH2 0x41B JUMPI PUSH1 0x40 MLOAD PUSH32 0x8C379A000000000000000000000000000000000000000000000000000000000 DUP2 MSTORE PUSH1 0x4 ADD PUSH2 0x412 SWAP1 PUSH2 0x16C1 JUMP JUMPDEST PUSH1 0x40 MLOAD DUP1 SWAP2 SUB SWAP1 REVERT JUMPDEST PUSH1 0x40 MLOAD DUP1 PUSH1 0x20 ADD PUSH1 0x40 MSTORE DUP1 DUP5 DUP2 MSTORE POP PUSH1 0x4 DUP7 PUSH1 0x40 MLOAD PUSH2 0x43A SWAP2 SWAP1 PUSH2 0x164D JUMP JUMPDEST SWAP1 DUP2 MSTORE PUSH1 0x20 ADD PUSH1 0x40 MLOAD DUP1 SWAP2 SUB SWAP1 KECCAK256 PUSH1 0x0 ADD PUSH1 0x0 DUP7 DUP2 MSTORE PUSH1 0x20 ADD SWAP1 DUP2 MSTORE PUSH1 0x20 ADD PUSH1 0x0 KECCAK256 PUSH1 0x0 DUP3 ADD MLOAD DUP2 PUSH1 0x0 ADD SWAP1 DUP1 MLOAD SWAP1 PUSH1 0x20 ADD SWAP1 PUSH2 0x478 SWAP3 SWAP2 SWAP1 PUSH2 0x1097 JUMP JUMPDEST POP SWAP1 POP POP PUSH1 0x1 SWAP2 POP POP SWAP4 SWAP3 POP POP POP JUMP JUMPDEST PUSH1 0x0 DUP1 PUSH1 0x0 DUP4 DUP2 MSTORE PUSH1 0x20 ADD SWAP1 DUP2 MSTORE PUSH1 0x20 ADD PUSH1 0x0 KECCAK256 PUSH1 0x1 ADD SLOAD SWAP1 POP SWAP2 SWAP1 POP JUMP JUMPDEST PUSH1 0x0 PUSH2 0x4B2 DUP4 PUSH2 0x488 JUMP JUMPDEST PUSH2 0x4BB DUP2 PUSH2 0xDE3 JUMP JUMPDEST POP PUSH2 0x4C6 DUP5 DUP5 PUSH2 0xB82 JUMP JUMPDEST ISZERO PUSH2 0x4D4 JUMPI PUSH1 0x0 SWAP2 POP PUSH2 0x59F JUMP JUMPDEST PUSH1 0x1 PUSH1 0x0 DUP1 DUP7 DUP2 MSTORE PUSH1 0x20 ADD SWAP1 DUP2 MSTORE PUSH1 0x20 ADD PUSH1 0x0 KECCAK256 PUSH1 0x0 ADD PUSH1 0x0 DUP6 PUSH20 0xFFFFFFFFFFFFFFFFFFFFFFFFFFFFFFFFFFFFFFFF AND PUSH20 0xFFFFFFFFFFFFFFFFFFFFFFFFFFFFFFFFFFFFFFFF AND DUP2 MSTORE PUSH1 0x20 ADD SWAP1 DUP2 MSTORE PUSH1 0x20 ADD PUSH1 0x0 KECCAK256 PUSH1 0x0 PUSH2 0x100 EXP DUP2 SLOAD DUP2 PUSH1 0xFF MUL NOT AND SWAP1 DUP4 ISZERO ISZERO MUL OR SWAP1 SSTORE POP CALLER PUSH20 0xFFFFFFFFFFFFFFFFFFFFFFFFFFFFFFFFFFFFFFFF AND DUP4 PUSH20 0xFFFFFFFFFFFFFFFFFFFFFFFFFFFFFFFFFFFFFFFF AND DUP6 PUSH32 0x2F8788117E7EFF1D82E926EC794901D17C78024A50270940304540A733656F0D PUSH1 0x40 MLOAD PUSH1 0x40 MLOAD DUP1 SWAP2 SUB SWAP1 LOG4 PUSH1 0x1 SWAP2 POP JUMPDEST POP SWAP3 SWAP2 POP POP JUMP JUMPDEST CALLER PUSH20 0xFFFFFFFFFFFFFFFFFFFFFFFFFFFFFFFFFFFFFFFF AND DUP2 PUSH20 0xFFFFFFFFFFFFFFFFFFFFFFFFFFFFFFFFFFFFFFFF AND EQ PUSH2 0x614 JUMPI PUSH1 0x40 MLOAD PUSH32 0x8C379A000000000000000000000000000000000000000000000000000000000 DUP2 MSTORE PUSH1 0x4 ADD PUSH2 0x60B SWAP1 PUSH2 0x172D JUMP JUMPDEST PUSH1 0x40 MLOAD DUP1 SWAP2 SUB SWAP1 REVERT JUMPDEST PUSH2 0x61E DUP3 DUP3 PUSH2 0xE37 JUMP JUMPDEST POP POP POP JUMP JUMPDEST PUSH1 0x0 PUSH32 0xDF8B4C520FFE197C5343C6F5AEC59570151EF9A492F2C624FD45DDDE6135EC42 PUSH2 0x64F DUP2 PUSH2 0xDE3 JUMP JUMPDEST POP PUSH1 0x4 DUP4 PUSH1 0x40 MLOAD PUSH2 0x660 SWAP2 SWAP1 PUSH2 0x164D JUMP JUMPDEST SWAP1 DUP2 MSTORE PUSH1 0x20 ADD PUSH1 0x40 MLOAD DUP1 SWAP2 SUB SWAP1 KECCAK256 PUSH1 0x2 ADD PUSH1 0x0 SWAP1 SLOAD SWAP1 PUSH2 0x100 EXP SWAP1 DIV PUSH1 0xFF AND ISZERO PUSH2 0x6BF JUMPI PUSH1 0x40 MLOAD PUSH32 0x8C379A000000000000000000000000000000000000000000000000000000000 DUP2 MSTORE PUSH1 0x4 ADD PUSH2 0x6B6 SWAP1 PUSH2 0x1799 JUMP JUMPDEST PUSH1 0x40 MLOAD DUP1 SWAP2 SUB SWAP1 REVERT JUMPDEST PUSH1 0x1 PUSH1 0x4 DUP5 PUSH1 0x40 MLOAD PUSH2 0x6D1 SWAP2 SWAP1 PUSH2 0x164D JUMP JUMPDEST SWAP1 DUP2 MSTORE PUSH1 0x20 ADD PUSH1 0x40 MLOAD DUP1 SWAP2 SUB SWAP1 KECCAK256 PUSH1 0x2 ADD PUSH1 0x0 PUSH2 0x100 EXP DUP2 SLOAD DUP2 PUSH1 0xFF MUL NOT AND SWAP1 DUP4 ISZERO ISZERO MUL OR SWAP1 SSTORE POP PUSH32 0xC9F7FFDE55ABF279E64F645ADD2B656E6CBD943754BB169E34C801647CD10BA DUP4 PUSH1 0x2 PUSH1 0x40 MLOAD PUSH2 0x72B SWAP3 SWAP2 SWAP1 PUSH2 0x18E8 JUMP JUMPDEST PUSH1 0x40 MLOAD DUP1 SWAP2 SUB SWAP1 LOG1 PUSH1 0x1 SWAP2 POP POP SWAP2 SWAP1 POP JUMP JUMPDEST PUSH32 0xF101D8F75D5816EA5D4F9E76D2B196CA77914D087C68FD9B89F497D695BCDDF7 DUP2 JUMP JUMPDEST PUSH1 0x0 PUSH32 0xDF8B4C520FFE197C5343C6F5AEC59570151EF9A492F2C624FD45DDDE6135EC42 PUSH2 0x78D DUP2 PUSH2 0xDE3 JUMP JUMPDEST POP PUSH1 0x0 PUSH1 0x3 DUP5 PUSH1 0x40 MLOAD PUSH2 0x7A0 SWAP2 SWAP1 PUSH2 0x164D JUMP JUMPDEST SWAP1 DUP2 MSTORE PUSH1 0x20 ADD PUSH1 0x40 MLOAD DUP1 SWAP2 SUB SWAP1 KECCAK256 PUSH1 0x40 MLOAD DUP1 PUSH1 0x40 ADD PUSH1 0x40 MSTORE SWAP1 DUP2 PUSH1 0x0 DUP3 ADD DUP1 SLOAD PUSH2 0x7C9 SWAP1 PUSH2 0x1821 JUMP JUMPDEST DUP1 PUSH1 0x1F ADD PUSH1 0x20 DUP1 SWAP2 DIV MUL PUSH1 0x20 ADD PUSH1 0x40 MLOAD SWAP1 DUP2 ADD PUSH1 0x40 MSTORE DUP1 SWAP3 SWAP2 SWAP1 DUP2 DUP2 MSTORE PUSH1 0x20 ADD DUP3 DUP1 SLOAD PUSH2 0x7F5 SWAP1 PUSH2 0x1821 JUMP JUMPDEST DUP1 ISZERO PUSH2 0x842 JUMPI DUP1 PUSH1 0x1F LT PUSH2 0x817 JUMPI PUSH2 0x100 DUP1 DUP4 SLOAD DIV MUL DUP4 MSTORE SWAP2 PUSH1 0x20 ADD SWAP2 PUSH2 0x842 JUMP JUMPDEST DUP3 ADD SWAP2 SWAP1 PUSH1 0x0 MSTORE PUSH1 0x20 PUSH1 0x0 KECCAK256 SWAP1 JUMPDEST DUP2 SLOAD DUP2 MSTORE SWAP1 PUSH1 0x1 ADD SWAP1 PUSH1 0x20 ADD DUP1 DUP4 GT PUSH2 0x825 JUMPI DUP3 SWAP1 SUB PUSH1 0x1F AND DUP3 ADD SWAP2 JUMPDEST POP POP POP POP POP DUP2 MSTORE PUSH1 0x20 ADD PUSH1 0x1 DUP3 ADD PUSH1 0x0 SWAP1 SLOAD SWAP1 PUSH2 0x100 EXP SWAP1 DIV PUSH20 0xFFFFFFFFFFFFFFFFFFFFFFFFFFFFFFFFFFFFFFFF AND PUSH20 0xFFFFFFFFFFFFFFFFFFFFFFFFFFFFFFFFFFFFFFFF AND PUSH20 0xFFFFFFFFFFFFFFFFFFFFFFFFFFFFFFFFFFFFFFFF AND DUP2 MSTORE POP POP SWAP1 POP PUSH2 0x8D1 PUSH32 0xF101D8F75D5816EA5D4F9E76D2B196CA77914D087C68FD9B89F497D695BCDDF7 DUP3 PUSH1 0x20 ADD MLOAD PUSH2 0xB82 JUMP JUMPDEST PUSH2 0x910 JUMPI PUSH1 0x40 MLOAD PUSH32 0x8C379A000000000000000000000000000000000000000000000000000000000 DUP2 MSTORE PUSH1 0x4 ADD PUSH2 0x907 SWAP1 PUSH2 0x196B JUMP JUMPDEST PUSH1 0x40 MLOAD DUP1 SWAP2 SUB SWAP1 REVERT JUMPDEST PUSH2 0x93E PUSH32 0xF101D8F75D5816EA5D4F9E76D2B196CA77914D087C68FD9B89F497D695BCDDF7 DUP3 PUSH1 0x20 ADD MLOAD PUSH2 0xE37 JUMP JUMPDEST POP PUSH1 0x40 MLOAD DUP1 PUSH1 0x40 ADD PUSH1 0x40 MSTORE DUP1 PUSH1 0x40 MLOAD DUP1 PUSH1 0x20 ADD PUSH1 0x40 MSTORE DUP1 PUSH1 0x0 DUP2 MSTORE POP DUP2 MSTORE PUSH1 0x20 ADD PUSH1 0x0 PUSH20 0xFFFFFFFFFFFFFFFFFFFFFFFFFFFFFFFFFFFFFFFF AND DUP2 MSTORE POP PUSH1 0x3 DUP6 PUSH1 0x40 MLOAD PUSH2 0x98A SWAP2 SWAP1 PUSH2 0x164D JUMP JUMPDEST SWAP1 DUP2 MSTORE PUSH1 0x20 ADD PUSH1 0x40 MLOAD DUP1 SWAP2 SUB SWAP1 KECCAK256 PUSH1 0x0 DUP3 ADD MLOAD DUP2 PUSH1 0x0 ADD SWAP1 DUP1 MLOAD SWAP1 PUSH1 0x20 ADD SWAP1 PUSH2 0x9B4 SWAP3 SWAP2 SWAP1 PUSH2 0x1097 JUMP JUMPDEST POP PUSH1 0x20 DUP3 ADD MLOAD DUP2 PUSH1 0x1 ADD PUSH1 0x0 PUSH2 0x100 EXP DUP2 SLOAD DUP2 PUSH20 0xFFFFFFFFFFFFFFFFFFFFFFFFFFFFFFFFFFFFFFFF MUL NOT AND SWAP1 DUP4 PUSH20 0xFFFFFFFFFFFFFFFFFFFFFFFFFFFFFFFFFFFFFFFF AND MUL OR SWAP1 SSTORE POP SWAP1 POP POP PUSH32 0x8107A7B10269990D65F96FF89538EF92F91CD14632605AD78337F4856265F733 DUP5 PUSH1 0x2 PUSH1 0x40 MLOAD PUSH2 0xA31 SWAP3 SWAP2 SWAP1 PUSH2 0x18E8 JUMP JUMPDEST PUSH1 0x40 MLOAD DUP1 SWAP2 SUB SWAP1 LOG1 PUSH1 0x1 SWAP3 POP POP POP SWAP2 SWAP1 POP JUMP JUMPDEST PUSH32 0xDF8B4C520FFE197C5343C6F5AEC59570151EF9A492F2C624FD45DDDE6135EC42 DUP2 JUMP JUMPDEST PUSH1 0x0 PUSH32 0xDF8B4C520FFE197C5343C6F5AEC59570151EF9A492F2C624FD45DDDE6135EC42 PUSH2 0xA94 DUP2 PUSH2 0xDE3 JUMP JUMPDEST POP PUSH1 0x4 DUP4 PUSH1 0x40 MLOAD PUSH2 0xAA5 SWAP2 SWAP1 PUSH2 0x164D JUMP JUMPDEST SWAP1 DUP2 MSTORE PUSH1 0x20 ADD PUSH1 0x40 MLOAD DUP1 SWAP2 SUB SWAP1 KECCAK256 PUSH1 0x2 ADD PUSH1 0x0 SWAP1 SLOAD SWAP1 PUSH2 0x100 EXP SWAP1 DIV PUSH1 0xFF AND ISZERO PUSH2 0xB04 JUMPI PUSH1 0x40 MLOAD PUSH32 0x8C379A000000000000000000000000000000000000000000000000000000000 DUP2 MSTORE PUSH1 0x4 ADD PUSH2 0xAFB SWAP1 PUSH2 0x19D7 JUMP JUMPDEST PUSH1 0x40 MLOAD DUP1 SWAP2 SUB SWAP1 REVERT JUMPDEST PUSH1 0x0 PUSH1 0x4 DUP5 PUSH1 0x40 MLOAD PUSH2 0xB16 SWAP2 SWAP1 PUSH2 0x164D JUMP JUMPDEST SWAP1 DUP2 MSTORE PUSH1 0x20 ADD PUSH1 0x40 MLOAD DUP1 SWAP2 SUB SWAP1 KECCAK256 PUSH1 0x2 ADD PUSH1 0x0 PUSH2 0x100 EXP DUP2 SLOAD DUP2 PUSH1 0xFF MUL NOT AND SWAP1 DUP4 ISZERO ISZERO MUL OR SWAP1 SSTORE POP PUSH32 0x8F4DF4AC08E47DE38A6197F9D9BE3A93FC938E5640987E4DA6D3B81A93B83482 DUP4 PUSH1 0x2 PUSH1 0x40 MLOAD PUSH2 0xB70 SWAP3 SWAP2 SWAP1 PUSH2 0x18E8 JUMP JUMPDEST PUSH1 0x40 MLOAD DUP1 SWAP2 SUB SWAP1 LOG1 PUSH1 0x1 SWAP2 POP POP SWAP2 SWAP1 POP JUMP JUMPDEST PUSH1 0x0 DUP1 PUSH1 0x0 DUP5 DUP2 MSTORE PUSH1 0x20 ADD SWAP1 DUP2 MSTORE PUSH1 0x20 ADD PUSH1 0x0 KECCAK256 PUSH1 0x0 ADD PUSH1 0x0 DUP4 PUSH20 0xFFFFFFFFFFFFFFFFFFFFFFFFFFFFFFFFFFFFFFFF AND PUSH20 0xFFFFFFFFFFFFFFFFFFFFFFFFFFFFFFFFFFFFFFFF AND DUP2 MSTORE PUSH1 0x20 ADD SWAP1 DUP2 MSTORE PUSH1 0x20 ADD PUSH1 0x0 KECCAK256 PUSH1 0x0 SWAP1 SLOAD SWAP1 PUSH2 0x100 EXP SWAP1 DIV PUSH1 0xFF AND SWAP1 POP SWAP3 SWAP2 POP POP JUMP JUMPDEST PUSH1 0x0 PUSH32 0xDF8B4C520FFE197C5343C6F5AEC59570151EF9A492F2C624FD45DDDE6135EC42 PUSH2 0xC18 DUP2 PUSH2 0xDE3 JUMP JUMPDEST POP PUSH2 0xC43 PUSH32 0xF101D8F75D5816EA5D4F9E76D2B196CA77914D087C68FD9B89F497D695BCDDF7 DUP5 PUSH2 0xB82 JUMP JUMPDEST ISZERO PUSH2 0xC51 JUMPI PUSH1 0x0 SWAP2 POP PUSH2 0xDD5 JUMP JUMPDEST PUSH2 0xC7B PUSH32 0xF101D8F75D5816EA5D4F9E76D2B196CA77914D087C68FD9B89F497D695BCDDF7 DUP5 PUSH2 0xB82 JUMP JUMPDEST ISZERO PUSH2 0xCBB JUMPI PUSH1 0x40 MLOAD PUSH32 0x8C379A000000000000000000000000000000000000000000000000000000000 DUP2 MSTORE PUSH1 0x4 ADD PUSH2 0xCB2 SWAP1 PUSH2 0x1A43 JUMP JUMPDEST PUSH1 0x40 MLOAD DUP1 SWAP2 SUB SWAP1 REVERT JUMPDEST PUSH2 0xCE5 PUSH32 0xF101D8F75D5816EA5D4F9E76D2B196CA77914D087C68FD9B89F497D695BCDDF7 DUP5 PUSH2 0x4A7 JUMP JUMPDEST POP PUSH1 0x40 MLOAD DUP1 PUSH1 0x40 ADD PUSH1 0x40 MSTORE DUP1 DUP6 DUP2 MSTORE PUSH1 0x20 ADD DUP5 PUSH20 0xFFFFFFFFFFFFFFFFFFFFFFFFFFFFFFFFFFFFFFFF AND DUP2 MSTORE POP PUSH1 0x3 DUP6 PUSH1 0x40 MLOAD PUSH2 0xD21 SWAP2 SWAP1 PUSH2 0x164D JUMP JUMPDEST SWAP1 DUP2 MSTORE PUSH1 0x20 ADD PUSH1 0x40 MLOAD DUP1 SWAP2 SUB SWAP1 KECCAK256 PUSH1 0x0 DUP3 ADD MLOAD DUP2 PUSH1 0x0 ADD SWAP1 DUP1 MLOAD SWAP1 PUSH1 0x20 ADD SWAP1 PUSH2 0xD4B SWAP3 SWAP2 SWAP1 PUSH2 0x1097 JUMP JUMPDEST POP PUSH1 0x20 DUP3 ADD MLOAD DUP2 PUSH1 0x1 ADD PUSH1 0x0 PUSH2 0x100 EXP DUP2 SLOAD DUP2 PUSH20 0xFFFFFFFFFFFFFFFFFFFFFFFFFFFFFFFFFFFFFFFF MUL NOT AND SWAP1 DUP4 PUSH20 0xFFFFFFFFFFFFFFFFFFFFFFFFFFFFFFFFFFFFFFFF AND MUL OR SWAP1 SSTORE POP SWAP1 POP POP PUSH32 0x3B342535402E29D67E822084E8F23105B4C11E847ED79261C7406F98396CEA1B DUP5 PUSH1 0x2 PUSH1 0x40 MLOAD PUSH2 0xDC8 SWAP3 SWAP2 SWAP1 PUSH2 0x18E8 JUMP JUMPDEST PUSH1 0x40 MLOAD DUP1 SWAP2 SUB SWAP1 LOG1 PUSH1 0x1 SWAP2 POP JUMPDEST POP SWAP3 SWAP2 POP POP JUMP JUMPDEST PUSH1 0x0 DUP1 SHL DUP2 JUMP JUMPDEST PUSH1 0x0 PUSH2 0xDEF DUP3 CALLER PUSH2 0xB82 JUMP JUMPDEST PUSH2 0xE2E JUMPI PUSH1 0x40 MLOAD PUSH32 0x8C379A000000000000000000000000000000000000000000000000000000000 DUP2 MSTORE PUSH1 0x4 ADD PUSH2 0xE25 SWAP1 PUSH2 0x1AAF JUMP JUMPDEST PUSH1 0x40 MLOAD DUP1 SWAP2 SUB SWAP1 REVERT JUMPDEST PUSH1 0x1 SWAP1 POP SWAP2 SWAP1 POP JUMP JUMPDEST PUSH1 0x0 PUSH2 0xE42 DUP4 PUSH2 0x488 JUMP JUMPDEST PUSH2 0xE4B DUP2 PUSH2 0xDE3 JUMP JUMPDEST POP PUSH2 0xE56 DUP5 DUP5 PUSH2 0xB82 JUMP JUMPDEST PUSH2 0xE63 JUMPI PUSH1 0x0 SWAP2 POP PUSH2 0xF2E JUMP JUMPDEST PUSH1 0x0 DUP1 PUSH1 0x0 DUP7 DUP2 MSTORE PUSH1 0x20 ADD SWAP1 DUP2 MSTORE PUSH1 0x20 ADD PUSH1 0x0 KECCAK256 PUSH1 0x0 ADD PUSH1 0x0 DUP6 PUSH20 0xFFFFFFFFFFFFFFFFFFFFFFFFFFFFFFFFFFFFFFFF AND PUSH20 0xFFFFFFFFFFFFFFFFFFFFFFFFFFFFFFFFFFFFFFFF AND DUP2 MSTORE PUSH1 0x20 ADD SWAP1 DUP2 MSTORE PUSH1 0x20 ADD PUSH1 0x0 KECCAK256 PUSH1 0x0 PUSH2 0x100 EXP DUP2 SLOAD DUP2 PUSH1 0xFF MUL NOT AND SWAP1 DUP4 ISZERO ISZERO MUL OR SWAP1 SSTORE POP CALLER PUSH20 0xFFFFFFFFFFFFFFFFFFFFFFFFFFFFFFFFFFFFFFFF AND DUP4 PUSH20 0xFFFFFFFFFFFFFFFFFFFFFFFFFFFFFFFFFFFFFFFF AND DUP6 PUSH32 0xF6391F5C32D9C69D2A47EA670B442974B53935D1EDC7FD64EB21E047A839171B PUSH1 0x40 MLOAD PUSH1 0x40 MLOAD DUP1 SWAP2 SUB SWAP1 LOG4 PUSH1 0x1 SWAP2 POP JUMPDEST POP SWAP3 SWAP2 POP POP JUMP JUMPDEST PUSH1 0x0 PUSH32 0xF101D8F75D5816EA5D4F9E76D2B196CA77914D087C68FD9B89F497D695BCDDF7 PUSH2 0xF61 DUP2 PUSH2 0xDE3 JUMP JUMPDEST POP PUSH1 0x4 DUP5 PUSH1 0x40 MLOAD PUSH2 0xF72 SWAP2 SWAP1 PUSH2 0x164D JUMP JUMPDEST SWAP1 DUP2 MSTORE PUSH1 0x20 ADD PUSH1 0x40 MLOAD DUP1 SWAP2 SUB SWAP1 KECCAK256 PUSH1 0x2 ADD PUSH1 0x0 SWAP1 SLOAD SWAP1 PUSH2 0x100 EXP SWAP1 DIV PUSH1 0xFF AND PUSH2 0xFD0 JUMPI PUSH1 0x40 MLOAD PUSH32 0x8C379A000000000000000000000000000000000000000000000000000000000 DUP2 MSTORE PUSH1 0x4 ADD PUSH2 0xFC7 SWAP1 PUSH2 0x16C1 JUMP JUMPDEST PUSH1 0x40 MLOAD DUP1 SWAP2 SUB SWAP1 REVERT JUMPDEST PUSH1 0x0 PUSH1 0x4 DUP6 PUSH1 0x40 MLOAD PUSH2 0xFE2 SWAP2 SWAP1 PUSH2 0x164D JUMP JUMPDEST SWAP1 DUP2 MSTORE PUSH1 0x20 ADD PUSH1 0x40 MLOAD DUP1 SWAP2 SUB SWAP1 KECCAK256 PUSH1 0x1 ADD SLOAD SWAP1 POP DUP1 DUP1 PUSH2 0x1001 SWAP1 PUSH2 0x1AFE JUMP JUMPDEST SWAP2 POP POP DUP1 PUSH1 0x4 DUP7 PUSH1 0x40 MLOAD PUSH2 0x1015 SWAP2 SWAP1 PUSH2 0x164D JUMP JUMPDEST SWAP1 DUP2 MSTORE PUSH1 0x20 ADD PUSH1 0x40 MLOAD DUP1 SWAP2 SUB SWAP1 KECCAK256 PUSH1 0x1 ADD DUP2 SWAP1 SSTORE POP PUSH1 0x40 MLOAD DUP1 PUSH1 0x20 ADD PUSH1 0x40 MSTORE DUP1 DUP6 DUP2 MSTORE POP PUSH1 0x4 DUP7 PUSH1 0x40 MLOAD PUSH2 0x1049 SWAP2 SWAP1 PUSH2 0x164D JUMP JUMPDEST SWAP1 DUP2 MSTORE PUSH1 0x20 ADD PUSH1 0x40 MLOAD DUP1 SWAP2 SUB SWAP1 KECCAK256 PUSH1 0x0 ADD PUSH1 0x0 DUP4 DUP2 MSTORE PUSH1 0x20 ADD SWAP1 DUP2 MSTORE PUSH1 0x20 ADD PUSH1 0x0 KECCAK256 PUSH1 0x0 DUP3 ADD MLOAD DUP2 PUSH1 0x0 ADD SWAP1 DUP1 MLOAD SWAP1 PUSH1 0x20 ADD SWAP1 PUSH2 0x1087 SWAP3 SWAP2 SWAP1 PUSH2 0x1097 JUMP JUMPDEST POP SWAP1 POP POP PUSH1 0x1 SWAP3 POP POP POP SWAP3 SWAP2 POP POP JUMP JUMPDEST DUP3 DUP1 SLOAD PUSH2 0x10A3 SWAP1 PUSH2 0x1821 JUMP JUMPDEST SWAP1 PUSH1 0x0 MSTORE PUSH1 0x20 PUSH1 0x0 KECCAK256 SWAP1 PUSH1 0x1F ADD PUSH1 0x20 SWAP1 DIV DUP2 ADD SWAP3 DUP3 PUSH2 0x10C5 JUMPI PUSH1 0x0 DUP6 SSTORE PUSH2 0x110C JUMP JUMPDEST DUP3 PUSH1 0x1F LT PUSH2 0x10DE JUMPI DUP1 MLOAD PUSH1 0xFF NOT AND DUP4 DUP1 ADD OR DUP6 SSTORE PUSH2 0x110C JUMP JUMPDEST DUP3 DUP1 ADD PUSH1 0x1 ADD DUP6 SSTORE DUP3 ISZERO PUSH2 0x110C JUMPI SWAP2 DUP3 ADD JUMPDEST DUP3 DUP2 GT ISZERO PUSH2 0x110B JUMPI DUP3 MLOAD DUP3 SSTORE SWAP2 PUSH1 0x20 ADD SWAP2 SWAP1 PUSH1 0x1 ADD SWAP1 PUSH2 0x10F0 JUMP JUMPDEST JUMPDEST POP SWAP1 POP PUSH2 0x1119 SWAP2 SWAP1 PUSH2 0x111D JUMP JUMPDEST POP SWAP1 JUMP JUMPDEST JUMPDEST DUP1 DUP3 GT ISZERO PUSH2 0x1136 JUMPI PUSH1 0x0 DUP2 PUSH1 0x0 SWAP1 SSTORE POP PUSH1 0x1 ADD PUSH2 0x111E JUMP JUMPDEST POP SWAP1 JUMP JUMPDEST PUSH1 0x0 PUSH1 0x40 MLOAD SWAP1 POP SWAP1 JUMP JUMPDEST PUSH1 0x0 DUP1 REVERT JUMPDEST PUSH1 0x0 DUP1 REVERT JUMPDEST PUSH1 0x0 DUP1 REVERT JUMPDEST PUSH1 0x0 DUP1 REVERT JUMPDEST PUSH1 0x0 PUSH1 0x1F NOT PUSH1 0x1F DUP4 ADD AND SWAP1 POP SWAP2 SWAP1 POP JUMP JUMPDEST PUSH32 0x4E487B7100000000000000000000000000000000000000000000000000000000 PUSH1 0x0 MSTORE PUSH1 0x41 PUSH1 0x4 MSTORE PUSH1 0x24 PUSH1 0x0 REVERT JUMPDEST PUSH2 0x11A1 DUP3 PUSH2 0x1158 JUMP JUMPDEST DUP2 ADD DUP2 DUP2 LT PUSH8 0xFFFFFFFFFFFFFFFF DUP3 GT OR ISZERO PUSH2 0x11C0 JUMPI PUSH2 0x11BF PUSH2 0x1169 JUMP JUMPDEST JUMPDEST DUP1 PUSH1 0x40 MSTORE POP POP POP JUMP JUMPDEST PUSH1 0x0 PUSH2 0x11D3 PUSH2 0x113A JUMP JUMPDEST SWAP1 POP PUSH2 0x11DF DUP3 DUP3 PUSH2 0x1198 JUMP JUMPDEST SWAP2 SWAP1 POP JUMP JUMPDEST PUSH1 0x0 PUSH8 0xFFFFFFFFFFFFFFFF DUP3 GT ISZERO PUSH2 0x11FF JUMPI PUSH2 0x11FE PUSH2 0x1169 JUMP JUMPDEST JUMPDEST PUSH2 0x1208 DUP3 PUSH2 0x1158 JUMP JUMPDEST SWAP1 POP PUSH1 0x20 DUP2 ADD SWAP1 POP SWAP2 SWAP1 POP JUMP JUMPDEST DUP3 DUP2 DUP4 CALLDATACOPY PUSH1 0x0 DUP4 DUP4 ADD MSTORE POP POP POP JUMP JUMPDEST PUSH1 0x0 PUSH2 0x1237 PUSH2 0x1232 DUP5 PUSH2 0x11E4 JUMP JUMPDEST PUSH2 0x11C9 JUMP JUMPDEST SWAP1 POP DUP3 DUP2 MSTORE PUSH1 0x20 DUP2 ADD DUP5 DUP5 DUP5 ADD GT ISZERO PUSH2 0x1253 JUMPI PUSH2 0x1252 PUSH2 0x1153 JUMP JUMPDEST JUMPDEST PUSH2 0x125E DUP5 DUP3 DUP6 PUSH2 0x1215 JUMP JUMPDEST POP SWAP4 SWAP3 POP POP POP JUMP JUMPDEST PUSH1 0x0 DUP3 PUSH1 0x1F DUP4 ADD SLT PUSH2 0x127B JUMPI PUSH2 0x127A PUSH2 0x114E JUMP JUMPDEST JUMPDEST DUP2 CALLDATALOAD PUSH2 0x128B DUP5 DUP3 PUSH1 0x20 DUP7 ADD PUSH2 0x1224 JUMP JUMPDEST SWAP2 POP POP SWAP3 SWAP2 POP POP JUMP JUMPDEST PUSH1 0x0 DUP2 SWAP1 POP SWAP2 SWAP1 POP JUMP JUMPDEST PUSH2 0x12A7 DUP2 PUSH2 0x1294 JUMP JUMPDEST DUP2 EQ PUSH2 0x12B2 JUMPI PUSH1 0x0 DUP1 REVERT JUMPDEST POP JUMP JUMPDEST PUSH1 0x0 DUP2 CALLDATALOAD SWAP1 POP PUSH2 0x12C4 DUP2 PUSH2 0x129E JUMP JUMPDEST SWAP3 SWAP2 POP POP JUMP JUMPDEST PUSH1 0x0 DUP1 PUSH1 0x0 PUSH1 0x60 DUP5 DUP7 SUB SLT ISZERO PUSH2 0x12E3 JUMPI PUSH2 0x12E2 PUSH2 0x1144 JUMP JUMPDEST JUMPDEST PUSH1 0x0 DUP5 ADD CALLDATALOAD PUSH8 0xFFFFFFFFFFFFFFFF DUP2 GT ISZERO PUSH2 0x1301 JUMPI PUSH2 0x1300 PUSH2 0x1149 JUMP JUMPDEST JUMPDEST PUSH2 0x130D DUP7 DUP3 DUP8 ADD PUSH2 0x1266 JUMP JUMPDEST SWAP4 POP POP PUSH1 0x20 PUSH2 0x131E DUP7 DUP3 DUP8 ADD PUSH2 0x12B5 JUMP JUMPDEST SWAP3 POP POP PUSH1 0x40 DUP5 ADD CALLDATALOAD PUSH8 0xFFFFFFFFFFFFFFFF DUP2 GT ISZERO PUSH2 0x133F JUMPI PUSH2 0x133E PUSH2 0x1149 JUMP JUMPDEST JUMPDEST PUSH2 0x134B DUP7 DUP3 DUP8 ADD PUSH2 0x1266 JUMP JUMPDEST SWAP2 POP POP SWAP3 POP SWAP3 POP SWAP3 JUMP JUMPDEST PUSH1 0x0 DUP2 ISZERO ISZERO SWAP1 POP SWAP2 SWAP1 POP JUMP JUMPDEST PUSH2 0x136A DUP2 PUSH2 0x1355 JUMP JUMPDEST DUP3 MSTORE POP POP JUMP JUMPDEST PUSH1 0x0 PUSH1 0x20 DUP3 ADD SWAP1 POP PUSH2 0x1385 PUSH1 0x0 DUP4 ADD DUP5 PUSH2 0x1361 JUMP JUMPDEST SWAP3 SWAP2 POP POP JUMP JUMPDEST PUSH1 0x0 DUP2 SWAP1 POP SWAP2 SWAP1 POP JUMP JUMPDEST PUSH2 0x139E DUP2 PUSH2 0x138B JUMP JUMPDEST DUP2 EQ PUSH2 0x13A9 JUMPI PUSH1 0x0 DUP1 REVERT JUMPDEST POP JUMP JUMPDEST PUSH1 0x0 DUP2 CALLDATALOAD SWAP1 POP PUSH2 0x13BB DUP2 PUSH2 0x1395 JUMP JUMPDEST SWAP3 SWAP2 POP POP JUMP JUMPDEST PUSH1 0x0 PUSH1 0x20 DUP3 DUP5 SUB SLT ISZERO PUSH2 0x13D7 JUMPI PUSH2 0x13D6 PUSH2 0x1144 JUMP JUMPDEST JUMPDEST PUSH1 0x0 PUSH2 0x13E5 DUP5 DUP3 DUP6 ADD PUSH2 0x13AC JUMP JUMPDEST SWAP2 POP POP SWAP3 SWAP2 POP POP JUMP JUMPDEST PUSH2 0x13F7 DUP2 PUSH2 0x138B JUMP JUMPDEST DUP3 MSTORE POP POP JUMP JUMPDEST PUSH1 0x0 PUSH1 0x20 DUP3 ADD SWAP1 POP PUSH2 0x1412 PUSH1 0x0 DUP4 ADD DUP5 PUSH2 0x13EE JUMP JUMPDEST SWAP3 SWAP2 POP POP JUMP JUMPDEST PUSH1 0x0 PUSH20 0xFFFFFFFFFFFFFFFFFFFFFFFFFFFFFFFFFFFFFFFF DUP3 AND SWAP1 POP SWAP2 SWAP1 POP JUMP JUMPDEST PUSH1 0x0 PUSH2 0x1443 DUP3 PUSH2 0x1418 JUMP JUMPDEST SWAP1 POP SWAP2 SWAP1 POP JUMP JUMPDEST PUSH2 0x1453 DUP2 PUSH2 0x1438 JUMP JUMPDEST DUP2 EQ PUSH2 0x145E JUMPI PUSH1 0x0 DUP1 REVERT JUMPDEST POP JUMP JUMPDEST PUSH1 0x0 DUP2 CALLDATALOAD SWAP1 POP PUSH2 0x1470 DUP2 PUSH2 0x144A JUMP JUMPDEST SWAP3 SWAP2 POP POP JUMP JUMPDEST PUSH1 0x0 DUP1 PUSH1 0x40 DUP4 DUP6 SUB SLT ISZERO PUSH2 0x148D JUMPI PUSH2 0x148C PUSH2 0x1144 JUMP JUMPDEST JUMPDEST PUSH1 0x0 PUSH2 0x149B DUP6 DUP3 DUP7 ADD PUSH2 0x13AC JUMP JUMPDEST SWAP3 POP POP PUSH1 0x20 PUSH2 0x14AC DUP6 DUP3 DUP7 ADD PUSH2 0x1461 JUMP JUMPDEST SWAP2 POP POP SWAP3 POP SWAP3 SWAP1 POP JUMP JUMPDEST PUSH1 0x0 PUSH1 0x20 DUP3 DUP5 SUB SLT ISZERO PUSH2 0x14CC JUMPI PUSH2 0x14CB PUSH2 0x1144 JUMP JUMPDEST JUMPDEST PUSH1 0x0 DUP3 ADD CALLDATALOAD PUSH8 0xFFFFFFFFFFFFFFFF DUP2 GT ISZERO PUSH2 0x14EA JUMPI PUSH2 0x14E9 PUSH2 0x1149 JUMP JUMPDEST JUMPDEST PUSH2 0x14F6 DUP5 DUP3 DUP6 ADD PUSH2 0x1266 JUMP JUMPDEST SWAP2 POP POP SWAP3 SWAP2 POP POP JUMP JUMPDEST PUSH1 0x0 DUP1 PUSH1 0x40 DUP4 DUP6 SUB SLT ISZERO PUSH2 0x1516 JUMPI PUSH2 0x1515 PUSH2 0x1144 JUMP JUMPDEST JUMPDEST PUSH1 0x0 DUP4 ADD CALLDATALOAD PUSH8 0xFFFFFFFFFFFFFFFF DUP2 GT ISZERO PUSH2 0x1534 JUMPI PUSH2 0x1533 PUSH2 0x1149 JUMP JUMPDEST JUMPDEST PUSH2 0x1540 DUP6 DUP3 DUP7 ADD PUSH2 0x1266 JUMP JUMPDEST SWAP3 POP POP PUSH1 0x20 PUSH2 0x1551 DUP6 DUP3 DUP7 ADD PUSH2 0x1461 JUMP JUMPDEST SWAP2 POP POP SWAP3 POP SWAP3 SWAP1 POP JUMP JUMPDEST PUSH1 0x0 DUP1 PUSH1 0x40 DUP4 DUP6 SUB SLT ISZERO PUSH2 0x1572 JUMPI PUSH2 0x1571 PUSH2 0x1144 JUMP JUMPDEST JUMPDEST PUSH1 0x0 DUP4 ADD CALLDATALOAD PUSH8 0xFFFFFFFFFFFFFFFF DUP2 GT ISZERO PUSH2 0x1590 JUMPI PUSH2 0x158F PUSH2 0x1149 JUMP JUMPDEST JUMPDEST PUSH2 0x159C DUP6 DUP3 DUP7 ADD PUSH2 0x1266 JUMP JUMPDEST SWAP3 POP POP PUSH1 0x20 DUP4 ADD CALLDATALOAD PUSH8 0xFFFFFFFFFFFFFFFF DUP2 GT ISZERO PUSH2 0x15BD JUMPI PUSH2 0x15BC PUSH2 0x1149 JUMP JUMPDEST JUMPDEST PUSH2 0x15C9 DUP6 DUP3 DUP7 ADD PUSH2 0x1266 JUMP JUMPDEST SWAP2 POP POP SWAP3 POP SWAP3 SWAP1 POP JUMP JUMPDEST PUSH1 0x0 DUP2 MLOAD SWAP1 POP SWAP2 SWAP1 POP JUMP JUMPDEST PUSH1 0x0 DUP2 SWAP1 POP SWAP3 SWAP2 POP POP JUMP JUMPDEST PUSH1 0x0 JUMPDEST DUP4 DUP2 LT ISZERO PUSH2 0x1607 JUMPI DUP1 DUP3 ADD MLOAD DUP2 DUP5 ADD MSTORE PUSH1 0x20 DUP2 ADD SWAP1 POP PUSH2 0x15EC JUMP JUMPDEST DUP4 DUP2 GT ISZERO PUSH2 0x1616 JUMPI PUSH1 0x0 DUP5 DUP5 ADD MSTORE JUMPDEST POP POP POP POP JUMP JUMPDEST PUSH1 0x0 PUSH2 0x1627 DUP3 PUSH2 0x15D3 JUMP JUMPDEST PUSH2 0x1631 DUP2 DUP6 PUSH2 0x15DE JUMP JUMPDEST SWAP4 POP PUSH2 0x1641 DUP2 DUP6 PUSH1 0x20 DUP7 ADD PUSH2 0x15E9 JUMP JUMPDEST DUP1 DUP5 ADD SWAP2 POP POP SWAP3 SWAP2 POP POP JUMP JUMPDEST PUSH1 0x0 PUSH2 0x1659 DUP3 DUP5 PUSH2 0x161C JUMP JUMPDEST SWAP2 POP DUP2 SWAP1 POP SWAP3 SWAP2 POP POP JUMP JUMPDEST PUSH1 0x0 DUP3 DUP3 MSTORE PUSH1 0x20 DUP3 ADD SWAP1 POP SWAP3 SWAP2 POP POP JUMP JUMPDEST PUSH32 0x4E6F2067726F757020666F756E64000000000000000000000000000000000000 PUSH1 0x0 DUP3 ADD MSTORE POP JUMP JUMPDEST PUSH1 0x0 PUSH2 0x16AB PUSH1 0xE DUP4 PUSH2 0x1664 JUMP JUMPDEST SWAP2 POP PUSH2 0x16B6 DUP3 PUSH2 0x1675 JUMP JUMPDEST PUSH1 0x20 DUP3 ADD SWAP1 POP SWAP2 SWAP1 POP JUMP JUMPDEST PUSH1 0x0 PUSH1 0x20 DUP3 ADD SWAP1 POP DUP2 DUP2 SUB PUSH1 0x0 DUP4 ADD MSTORE PUSH2 0x16DA DUP2 PUSH2 0x169E JUMP JUMPDEST SWAP1 POP SWAP2 SWAP1 POP JUMP JUMPDEST PUSH32 0x426164436F6E6669726D6174696F6E0000000000000000000000000000000000 PUSH1 0x0 DUP3 ADD MSTORE POP JUMP JUMPDEST PUSH1 0x0 PUSH2 0x1717 PUSH1 0xF DUP4 PUSH2 0x1664 JUMP JUMPDEST SWAP2 POP PUSH2 0x1722 DUP3 PUSH2 0x16E1 JUMP JUMPDEST PUSH1 0x20 DUP3 ADD SWAP1 POP SWAP2 SWAP1 POP JUMP JUMPDEST PUSH1 0x0 PUSH1 0x20 DUP3 ADD SWAP1 POP DUP2 DUP2 SUB PUSH1 0x0 DUP4 ADD MSTORE PUSH2 0x1746 DUP2 PUSH2 0x170A JUMP JUMPDEST SWAP1 POP SWAP2 SWAP1 POP JUMP JUMPDEST PUSH32 0x5468652067726F75702068617320657869737400000000000000000000000000 PUSH1 0x0 DUP3 ADD MSTORE POP JUMP JUMPDEST PUSH1 0x0 PUSH2 0x1783 PUSH1 0x13 DUP4 PUSH2 0x1664 JUMP JUMPDEST SWAP2 POP PUSH2 0x178E DUP3 PUSH2 0x174D JUMP JUMPDEST PUSH1 0x20 DUP3 ADD SWAP1 POP SWAP2 SWAP1 POP JUMP JUMPDEST PUSH1 0x0 PUSH1 0x20 DUP3 ADD SWAP1 POP DUP2 DUP2 SUB PUSH1 0x0 DUP4 ADD MSTORE PUSH2 0x17B2 DUP2 PUSH2 0x1776 JUMP JUMPDEST SWAP1 POP SWAP2 SWAP1 POP JUMP JUMPDEST PUSH1 0x0 PUSH2 0x17C4 DUP3 PUSH2 0x15D3 JUMP JUMPDEST PUSH2 0x17CE DUP2 DUP6 PUSH2 0x1664 JUMP JUMPDEST SWAP4 POP PUSH2 0x17DE DUP2 DUP6 PUSH1 0x20 DUP7 ADD PUSH2 0x15E9 JUMP JUMPDEST PUSH2 0x17E7 DUP2 PUSH2 0x1158 JUMP JUMPDEST DUP5 ADD SWAP2 POP POP SWAP3 SWAP2 POP POP JUMP JUMPDEST PUSH32 0x4E487B7100000000000000000000000000000000000000000000000000000000 PUSH1 0x0 MSTORE PUSH1 0x22 PUSH1 0x4 MSTORE PUSH1 0x24 PUSH1 0x0 REVERT JUMPDEST PUSH1 0x0 PUSH1 0x2 DUP3 DIV SWAP1 POP PUSH1 0x1 DUP3 AND DUP1 PUSH2 0x1839 JUMPI PUSH1 0x7F DUP3 AND SWAP2 POP JUMPDEST PUSH1 0x20 DUP3 LT DUP2 EQ ISZERO PUSH2 0x184D JUMPI PUSH2 0x184C PUSH2 0x17F2 JUMP JUMPDEST JUMPDEST POP SWAP2 SWAP1 POP JUMP JUMPDEST PUSH1 0x0 DUP2 SWAP1 POP DUP2 PUSH1 0x0 MSTORE PUSH1 0x20 PUSH1 0x0 KECCAK256 SWAP1 POP SWAP2 SWAP1 POP JUMP JUMPDEST PUSH1 0x0 DUP2 SLOAD PUSH2 0x1875 DUP2 PUSH2 0x1821 JUMP JUMPDEST PUSH2 0x187F DUP2 DUP7 PUSH2 0x1664 JUMP JUMPDEST SWAP5 POP PUSH1 0x1 DUP3 AND PUSH1 0x0 DUP2 EQ PUSH2 0x189A JUMPI PUSH1 0x1 DUP2 EQ PUSH2 0x18AC JUMPI PUSH2 0x18DF JUMP JUMPDEST PUSH1 0xFF NOT DUP4 AND DUP7 MSTORE PUSH1 0x20 DUP7 ADD SWAP4 POP PUSH2 0x18DF JUMP JUMPDEST PUSH2 0x18B5 DUP6 PUSH2 0x1853 JUMP JUMPDEST PUSH1 0x0 JUMPDEST DUP4 DUP2 LT ISZERO PUSH2 0x18D7 JUMPI DUP2 SLOAD DUP2 DUP10 ADD MSTORE PUSH1 0x1 DUP3 ADD SWAP2 POP PUSH1 0x20 DUP2 ADD SWAP1 POP PUSH2 0x18B8 JUMP JUMPDEST DUP1 DUP9 ADD SWAP6 POP POP POP JUMPDEST POP POP POP SWAP3 SWAP2 POP POP JUMP JUMPDEST PUSH1 0x0 PUSH1 0x40 DUP3 ADD SWAP1 POP DUP2 DUP2 SUB PUSH1 0x0 DUP4 ADD MSTORE PUSH2 0x1902 DUP2 DUP6 PUSH2 0x17B9 JUMP JUMPDEST SWAP1 POP DUP2 DUP2 SUB PUSH1 0x20 DUP4 ADD MSTORE PUSH2 0x1916 DUP2 DUP5 PUSH2 0x1868 JUMP JUMPDEST SWAP1 POP SWAP4 SWAP3 POP POP POP JUMP JUMPDEST PUSH32 0x54686520576F726B657220686173206265656E2064656C657465640000000000 PUSH1 0x0 DUP3 ADD MSTORE POP JUMP JUMPDEST PUSH1 0x0 PUSH2 0x1955 PUSH1 0x1B DUP4 PUSH2 0x1664 JUMP JUMPDEST SWAP2 POP PUSH2 0x1960 DUP3 PUSH2 0x191F JUMP JUMPDEST PUSH1 0x20 DUP3 ADD SWAP1 POP SWAP2 SWAP1 POP JUMP JUMPDEST PUSH1 0x0 PUSH1 0x20 DUP3 ADD SWAP1 POP DUP2 DUP2 SUB PUSH1 0x0 DUP4 ADD MSTORE PUSH2 0x1984 DUP2 PUSH2 0x1948 JUMP JUMPDEST SWAP1 POP SWAP2 SWAP1 POP JUMP JUMPDEST PUSH32 0x5468652067726F757020686173206265656E20636C6F73650000000000000000 PUSH1 0x0 DUP3 ADD MSTORE POP JUMP JUMPDEST PUSH1 0x0 PUSH2 0x19C1 PUSH1 0x18 DUP4 PUSH2 0x1664 JUMP JUMPDEST SWAP2 POP PUSH2 0x19CC DUP3 PUSH2 0x198B JUMP JUMPDEST PUSH1 0x20 DUP3 ADD SWAP1 POP SWAP2 SWAP1 POP JUMP JUMPDEST PUSH1 0x0 PUSH1 0x20 DUP3 ADD SWAP1 POP DUP2 DUP2 SUB PUSH1 0x0 DUP4 ADD MSTORE PUSH2 0x19F0 DUP2 PUSH2 0x19B4 JUMP JUMPDEST SWAP1 POP SWAP2 SWAP1 POP JUMP JUMPDEST PUSH32 0x54686520776F726B657220686173206265656E20616464656400000000000000 PUSH1 0x0 DUP3 ADD MSTORE POP JUMP JUMPDEST PUSH1 0x0 PUSH2 0x1A2D PUSH1 0x19 DUP4 PUSH2 0x1664 JUMP JUMPDEST SWAP2 POP PUSH2 0x1A38 DUP3 PUSH2 0x19F7 JUMP JUMPDEST PUSH1 0x20 DUP3 ADD SWAP1 POP SWAP2 SWAP1 POP JUMP JUMPDEST PUSH1 0x0 PUSH1 0x20 DUP3 ADD SWAP1 POP DUP2 DUP2 SUB PUSH1 0x0 DUP4 ADD MSTORE PUSH2 0x1A5C DUP2 PUSH2 0x1A20 JUMP JUMPDEST SWAP1 POP SWAP2 SWAP1 POP JUMP JUMPDEST PUSH32 0x556E417574686F72697A65644163636F756E7400000000000000000000000000 PUSH1 0x0 DUP3 ADD MSTORE POP JUMP JUMPDEST PUSH1 0x0 PUSH2 0x1A99 PUSH1 0x13 DUP4 PUSH2 0x1664 JUMP JUMPDEST SWAP2 POP PUSH2 0x1AA4 DUP3 PUSH2 0x1A63 JUMP JUMPDEST PUSH1 0x20 DUP3 ADD SWAP1 POP SWAP2 SWAP1 POP JUMP JUMPDEST PUSH1 0x0 PUSH1 0x20 DUP3 ADD SWAP1 POP DUP2 DUP2 SUB PUSH1 0x0 DUP4 ADD MSTORE PUSH2 0x1AC8 DUP2 PUSH2 0x1A8C JUMP JUMPDEST SWAP1 POP SWAP2 SWAP1 POP JUMP JUMPDEST PUSH32 0x4E487B7100000000000000000000000000000000000000000000000000000000 PUSH1 0x0 MSTORE PUSH1 0x11 PUSH1 0x4 MSTORE PUSH1 0x24 PUSH1 0x0 REVERT JUMPDEST PUSH1 0x0 PUSH2 0x1B09 DUP3 PUSH2 0x1294 JUMP JUMPDEST SWAP2 POP PUSH32 0xFFFFFFFFFFFFFFFFFFFFFFFFFFFFFFFFFFFFFFFFFFFFFFFFFFFFFFFFFFFFFFFF DUP3 EQ ISZERO PUSH2 0x1B3C JUMPI PUSH2 0x1B3B PUSH2 0x1ACF JUMP JUMPDEST JUMPDEST PUSH1 0x1 DUP3 ADD SWAP1 POP SWAP2 SWAP1 POP JUMP INVALID LOG2 PUSH5 0x6970667358 0x22 SLT KECCAK256 0x25 SELFBALANCE PUSH28 0x589F4E8CC437BD4E453DD7E460B11C7067DF8AE2AD748777C2AAA8A1 PUSH8 0x64736F6C63430008 SIGNEXTEND STOP CALLER "
				},
				"gasEstimates": {
					"creation": {
						"codeDepositCost": "1407400",
						"executionCost": "25916",
						"totalCost": "1433316"
					},
					"external": {
						"ADMIN_ROLE()": "352",
						"DEFAULT_ADMIN()": "357",
						"WORKER_ROLE()": "396",
						"addDataGroup(string)": "infinite",
						"addDataInGroup(string,string)": "infinite",
						"addWorker(string,address)": "infinite",
						"checkRole(bytes32)": "3114",
						"closeDataGroup(string)": "infinite",
						"getRoleAdmin(bytes32)": "infinite",
						"grantRole(bytes32,address)": "infinite",
						"hasRole(bytes32,address)": "3207",
						"removedWorker(string)": "infinite",
						"renounceRole(bytes32,address)": "infinite",
						"revokeRole(bytes32,address)": "infinite",
						"updateDataInGroup(string,uint256,string)": "infinite"
					}
				},
				"methodIdentifiers": {
					"ADMIN_ROLE()": "75b238fc",
					"DEFAULT_ADMIN()": "9cdeba95",
					"WORKER_ROLE()": "634252dc",
					"addDataGroup(string)": "5d0f4293",
					"addDataInGroup(string,string)": "e1b64774",
					"addWorker(string,address)": "95aec814",
					"checkRole(bytes32)": "c5b95190",
					"closeDataGroup(string)": "82c7ee89",
					"getRoleAdmin(bytes32)": "248a9ca3",
					"grantRole(bytes32,address)": "2f2ff15d",
					"hasRole(bytes32,address)": "91d14854",
					"removedWorker(string)": "7350fca2",
					"renounceRole(bytes32,address)": "36568abe",
					"revokeRole(bytes32,address)": "d547741f",
					"updateDataInGroup(string,uint256,string)": "20368af3"
				}
			},
			"storageLayout": {
				"storage": [
					{
						"astId": 377,
						"contract": "1127/CompanyLogic.sol:CompanyLogic",
						"label": "roles",
						"offset": 0,
						"slot": "0",
						"type": "t_mapping(t_bytes32,t_struct(RoleData)369_storage)"
					},
					{
						"astId": 7,
						"contract": "1127/CompanyLogic.sol:CompanyLogic",
						"label": "implementationAddress",
						"offset": 0,
						"slot": "1",
						"type": "t_address"
					},
					{
						"astId": 9,
						"contract": "1127/CompanyLogic.sol:CompanyLogic",
						"label": "company_name",
						"offset": 0,
						"slot": "2",
						"type": "t_string_storage"
					},
					{
						"astId": 24,
						"contract": "1127/CompanyLogic.sol:CompanyLogic",
						"label": "workerList",
						"offset": 0,
						"slot": "3",
						"type": "t_mapping(t_string_memory_ptr,t_struct(Worker)359_storage)"
					},
					{
						"astId": 29,
						"contract": "1127/CompanyLogic.sol:CompanyLogic",
						"label": "dataGroupList",
						"offset": 0,
						"slot": "4",
						"type": "t_mapping(t_string_memory_ptr,t_struct(AssetGroup)351_storage)"
					}
				],
				"types": {
					"t_address": {
						"encoding": "inplace",
						"label": "address",
						"numberOfBytes": "20"
					},
					"t_bool": {
						"encoding": "inplace",
						"label": "bool",
						"numberOfBytes": "1"
					},
					"t_bytes32": {
						"encoding": "inplace",
						"label": "bytes32",
						"numberOfBytes": "32"
					},
					"t_mapping(t_address,t_bool)": {
						"encoding": "mapping",
						"key": "t_address",
						"label": "mapping(address => bool)",
						"numberOfBytes": "32",
						"value": "t_bool"
					},
					"t_mapping(t_bytes32,t_struct(RoleData)369_storage)": {
						"encoding": "mapping",
						"key": "t_bytes32",
						"label": "mapping(bytes32 => struct AccessControl.RoleData)",
						"numberOfBytes": "32",
						"value": "t_struct(RoleData)369_storage"
					},
					"t_mapping(t_string_memory_ptr,t_struct(AssetGroup)351_storage)": {
						"encoding": "mapping",
						"key": "t_string_memory_ptr",
						"label": "mapping(string => struct DataStruct.AssetGroup)",
						"numberOfBytes": "32",
						"value": "t_struct(AssetGroup)351_storage"
					},
					"t_mapping(t_string_memory_ptr,t_struct(Worker)359_storage)": {
						"encoding": "mapping",
						"key": "t_string_memory_ptr",
						"label": "mapping(string => struct DataStruct.Worker)",
						"numberOfBytes": "32",
						"value": "t_struct(Worker)359_storage"
					},
					"t_mapping(t_uint256,t_struct(Asset)354_storage)": {
						"encoding": "mapping",
						"key": "t_uint256",
						"label": "mapping(uint256 => struct DataStruct.Asset)",
						"numberOfBytes": "32",
						"value": "t_struct(Asset)354_storage"
					},
					"t_string_memory_ptr": {
						"encoding": "bytes",
						"label": "string",
						"numberOfBytes": "32"
					},
					"t_string_storage": {
						"encoding": "bytes",
						"label": "string",
						"numberOfBytes": "32"
					},
					"t_struct(Asset)354_storage": {
						"encoding": "inplace",
						"label": "struct DataStruct.Asset",
						"members": [
							{
								"astId": 353,
								"contract": "1127/CompanyLogic.sol:CompanyLogic",
								"label": "cid",
								"offset": 0,
								"slot": "0",
								"type": "t_string_storage"
							}
						],
						"numberOfBytes": "32"
					},
					"t_struct(AssetGroup)351_storage": {
						"encoding": "inplace",
						"label": "struct DataStruct.AssetGroup",
						"members": [
							{
								"astId": 346,
								"contract": "1127/CompanyLogic.sol:CompanyLogic",
								"label": "assets",
								"offset": 0,
								"slot": "0",
								"type": "t_mapping(t_uint256,t_struct(Asset)354_storage)"
							},
							{
								"astId": 348,
								"contract": "1127/CompanyLogic.sol:CompanyLogic",
								"label": "assetSize",
								"offset": 0,
								"slot": "1",
								"type": "t_uint256"
							},
							{
								"astId": 350,
								"contract": "1127/CompanyLogic.sol:CompanyLogic",
								"label": "isOpen",
								"offset": 0,
								"slot": "2",
								"type": "t_bool"
							}
						],
						"numberOfBytes": "96"
					},
					"t_struct(RoleData)369_storage": {
						"encoding": "inplace",
						"label": "struct AccessControl.RoleData",
						"members": [
							{
								"astId": 366,
								"contract": "1127/CompanyLogic.sol:CompanyLogic",
								"label": "hasRoles",
								"offset": 0,
								"slot": "0",
								"type": "t_mapping(t_address,t_bool)"
							},
							{
								"astId": 368,
								"contract": "1127/CompanyLogic.sol:CompanyLogic",
								"label": "adminRole",
								"offset": 0,
								"slot": "1",
								"type": "t_bytes32"
							}
						],
						"numberOfBytes": "64"
					},
					"t_struct(Worker)359_storage": {
						"encoding": "inplace",
						"label": "struct DataStruct.Worker",
						"members": [
							{
								"astId": 356,
								"contract": "1127/CompanyLogic.sol:CompanyLogic",
								"label": "did",
								"offset": 0,
								"slot": "0",
								"type": "t_string_storage"
							},
							{
								"astId": 358,
								"contract": "1127/CompanyLogic.sol:CompanyLogic",
								"label": "addr",
								"offset": 0,
								"slot": "1",
								"type": "t_address"
							}
						],
						"numberOfBytes": "64"
					},
					"t_uint256": {
						"encoding": "inplace",
						"label": "uint256",
						"numberOfBytes": "32"
					}
				}
			},
			"userdoc": {
				"kind": "user",
				"methods": {
					"addDataGroup(string)": {
						"notice": "增加数据组 (admin)*"
					},
					"addDataInGroup(string,string)": {
						"notice": "添加数据 （Worker） 假设有一个数据库专门来存资产的索引 公司did+group+id*"
					},
					"addWorker(string,address)": {
						"notice": "增加员工 (admin)*"
					},
					"closeDataGroup(string)": {
						"notice": "关闭数据组 (admin)*"
					},
					"removedWorker(string)": {
						"notice": "删除员工 (admin)*"
					},
					"updateDataInGroup(string,uint256,string)": {
						"notice": "更新数据 （Worker） 假设有一个数据库专门来存资产的索引 公司did+group+id*"
					}
				},
				"version": 1
			}
		}
	}
}