{
	"1127/TraceAsset.sol": {
		"TraceAsset": {
			"abi": [
				{
					"inputs": [],
					"stateMutability": "nonpayable",
					"type": "constructor"
				},
				{
					"anonymous": false,
					"inputs": [
						{
							"indexed": true,
							"internalType": "uint256",
							"name": "assetId",
							"type": "uint256"
						},
						{
							"indexed": true,
							"internalType": "address",
							"name": "operator",
							"type": "address"
						},
						{
							"indexed": false,
							"internalType": "string",
							"name": "message",
							"type": "string"
						},
						{
							"indexed": false,
							"internalType": "uint256",
							"name": "operateTime",
							"type": "uint256"
						}
					],
					"name": "LogAddTrace",
					"type": "event"
				},
				{
					"anonymous": false,
					"inputs": [
						{
							"indexed": true,
							"internalType": "bytes32",
							"name": "role",
							"type": "bytes32"
						},
						{
							"indexed": true,
							"internalType": "bytes32",
							"name": "previousAdminRole",
							"type": "bytes32"
						},
						{
							"indexed": true,
							"internalType": "bytes32",
							"name": "newAdminRole",
							"type": "bytes32"
						}
					],
					"name": "RoleAdminChanged",
					"type": "event"
				},
				{
					"anonymous": false,
					"inputs": [
						{
							"indexed": true,
							"internalType": "bytes32",
							"name": "role",
							"type": "bytes32"
						},
						{
							"indexed": true,
							"internalType": "address",
							"name": "account",
							"type": "address"
						},
						{
							"indexed": true,
							"internalType": "address",
							"name": "sender",
							"type": "address"
						}
					],
					"name": "RoleGranted",
					"type": "event"
				},
				{
					"anonymous": false,
					"inputs": [
						{
							"indexed": true,
							"internalType": "bytes32",
							"name": "role",
							"type": "bytes32"
						},
						{
							"indexed": true,
							"internalType": "address",
							"name": "account",
							"type": "address"
						},
						{
							"indexed": true,
							"internalType": "address",
							"name": "sender",
							"type": "address"
						}
					],
					"name": "RoleRevoked",
					"type": "event"
				},
				{
					"inputs": [],
					"name": "ADMIN",
					"outputs": [
						{
							"internalType": "bytes32",
							"name": "",
							"type": "bytes32"
						}
					],
					"stateMutability": "view",
					"type": "function"
				},
				{
					"inputs": [],
					"name": "DEFAULT_ADMIN",
					"outputs": [
						{
							"internalType": "bytes32",
							"name": "",
							"type": "bytes32"
						}
					],
					"stateMutability": "view",
					"type": "function"
				},
				{
					"inputs": [],
					"name": "TRACER",
					"outputs": [
						{
							"internalType": "bytes32",
							"name": "",
							"type": "bytes32"
						}
					],
					"stateMutability": "view",
					"type": "function"
				},
				{
					"inputs": [
						{
							"internalType": "uint256",
							"name": "id",
							"type": "uint256"
						},
						{
							"components": [
								{
									"internalType": "uint256",
									"name": "operateTime",
									"type": "uint256"
								},
								{
									"internalType": "address",
									"name": "operator",
									"type": "address"
								},
								{
									"internalType": "string",
									"name": "operateMsg",
									"type": "string"
								}
							],
							"internalType": "struct DataStruct.AssetTrace",
							"name": "trace",
							"type": "tuple"
						}
					],
					"name": "add",
					"outputs": [],
					"stateMutability": "nonpayable",
					"type": "function"
				},
				{
					"inputs": [
						{
							"internalType": "bytes32",
							"name": "role",
							"type": "bytes32"
						}
					],
					"name": "checkRole",
					"outputs": [
						{
							"internalType": "bool",
							"name": "",
							"type": "bool"
						}
					],
					"stateMutability": "view",
					"type": "function"
				},
				{
					"inputs": [
						{
							"internalType": "uint256",
							"name": "id",
							"type": "uint256"
						}
					],
					"name": "getAll",
					"outputs": [
						{
							"components": [
								{
									"internalType": "uint256",
									"name": "operateTime",
									"type": "uint256"
								},
								{
									"internalType": "address",
									"name": "operator",
									"type": "address"
								},
								{
									"internalType": "string",
									"name": "operateMsg",
									"type": "string"
								}
							],
							"internalType": "struct DataStruct.AssetTrace[]",
							"name": "",
							"type": "tuple[]"
						}
					],
					"stateMutability": "view",
					"type": "function"
				},
				{
					"inputs": [
						{
							"internalType": "uint256",
							"name": "id",
							"type": "uint256"
						},
						{
							"internalType": "uint256",
							"name": "timestamp",
							"type": "uint256"
						}
					],
					"name": "getByTimestamp",
					"outputs": [
						{
							"components": [
								{
									"internalType": "uint256",
									"name": "operateTime",
									"type": "uint256"
								},
								{
									"internalType": "address",
									"name": "operator",
									"type": "address"
								},
								{
									"internalType": "string",
									"name": "operateMsg",
									"type": "string"
								}
							],
							"internalType": "struct DataStruct.AssetTrace",
							"name": "",
							"type": "tuple"
						}
					],
					"stateMutability": "view",
					"type": "function"
				},
				{
					"inputs": [
						{
							"internalType": "uint256",
							"name": "id",
							"type": "uint256"
						}
					],
					"name": "getLast",
					"outputs": [
						{
							"components": [
								{
									"internalType": "uint256",
									"name": "operateTime",
									"type": "uint256"
								},
								{
									"internalType": "address",
									"name": "operator",
									"type": "address"
								},
								{
									"internalType": "string",
									"name": "operateMsg",
									"type": "string"
								}
							],
							"internalType": "struct DataStruct.AssetTrace",
							"name": "",
							"type": "tuple"
						}
					],
					"stateMutability": "view",
					"type": "function"
				},
				{
					"inputs": [
						{
							"internalType": "bytes32",
							"name": "role",
							"type": "bytes32"
						}
					],
					"name": "getRoleAdmin",
					"outputs": [
						{
							"internalType": "bytes32",
							"name": "",
							"type": "bytes32"
						}
					],
					"stateMutability": "view",
					"type": "function"
				},
				{
					"inputs": [
						{
							"internalType": "bytes32",
							"name": "role",
							"type": "bytes32"
						},
						{
							"internalType": "address",
							"name": "member",
							"type": "address"
						}
					],
					"name": "grantRole",
					"outputs": [
						{
							"internalType": "bool",
							"name": "",
							"type": "bool"
						}
					],
					"stateMutability": "nonpayable",
					"type": "function"
				},
				{
					"inputs": [
						{
							"internalType": "bytes32",
							"name": "role",
							"type": "bytes32"
						},
						{
							"internalType": "address",
							"name": "member",
							"type": "address"
						}
					],
					"name": "hasRole",
					"outputs": [
						{
							"internalType": "bool",
							"name": "",
							"type": "bool"
						}
					],
					"stateMutability": "view",
					"type": "function"
				},
				{
					"inputs": [
						{
							"internalType": "bytes32",
							"name": "role",
							"type": "bytes32"
						},
						{
							"internalType": "address",
							"name": "member",
							"type": "address"
						}
					],
					"name": "revokeRole",
					"outputs": [
						{
							"internalType": "bool",
							"name": "",
							"type": "bool"
						}
					],
					"stateMutability": "nonpayable",
					"type": "function"
				},
				{
					"inputs": [
						{
							"internalType": "address",
							"name": "getter",
							"type": "address"
						}
					],
					"name": "setTraceRight",
					"outputs": [],
					"stateMutability": "nonpayable",
					"type": "function"
				}
			],
			"devdoc": {
				"kind": "dev",
				"methods": {},
				"version": 1
			},
			"evm": {
				"assembly": "    /* \"1127/TraceAsset.sol\":119:2731  contract TraceAsset is AccessControl{... */\n  mstore(0x40, 0x80)\n    /* \"1127/TraceAsset.sol\":266:391  constructor() AccessControl(msg.sender){... */\n  callvalue\n  dup1\n  iszero\n  tag_1\n  jumpi\n  0x00\n  dup1\n  revert\ntag_1:\n  pop\n    /* \"1127/TraceAsset.sol\":294:304  msg.sender */\n  caller\n    /* \"1127/AccessControl.sol\":1011:1015  true */\n  0x01\n    /* \"1127/AccessControl.sol\":972:977  roles */\n  0x00\n    /* \"1127/AccessControl.sol\":972:992  roles[DEFAULT_ADMIN] */\n  dup1\n    /* \"1127/AccessControl.sol\":256:260  0x00 */\n  dup1\n    /* \"1127/AccessControl.sol\":978:991  DEFAULT_ADMIN */\n  0x00\n  shl\n    /* \"1127/AccessControl.sol\":972:992  roles[DEFAULT_ADMIN] */\n  dup2\n  mstore\n  0x20\n  add\n  swap1\n  dup2\n  mstore\n  0x20\n  add\n  0x00\n  keccak256\n    /* \"1127/AccessControl.sol\":972:1001  roles[DEFAULT_ADMIN].hasRoles */\n  0x00\n  add\n    /* \"1127/AccessControl.sol\":972:1008  roles[DEFAULT_ADMIN].hasRoles[admin] */\n  0x00\n    /* \"1127/AccessControl.sol\":1002:1007  admin */\n  dup4\n    /* \"1127/AccessControl.sol\":972:1008  roles[DEFAULT_ADMIN].hasRoles[admin] */\n  0xffffffffffffffffffffffffffffffffffffffff\n  and\n  0xffffffffffffffffffffffffffffffffffffffff\n  and\n  dup2\n  mstore\n  0x20\n  add\n  swap1\n  dup2\n  mstore\n  0x20\n  add\n  0x00\n  keccak256\n  0x00\n    /* \"1127/AccessControl.sol\":972:1015  roles[DEFAULT_ADMIN].hasRoles[admin] = true */\n  0x0100\n  exp\n  dup2\n  sload\n  dup2\n  0xff\n  mul\n  not\n  and\n  swap1\n  dup4\n  iszero\n  iszero\n  mul\n  or\n  swap1\n  sstore\n  pop\n    /* \"1127/AccessControl.sol\":935:1023  constructor(address admin){... */\n  pop\n    /* \"1127/TraceAsset.sol\":316:343  setRoleAdmin(TRACER, ADMIN) */\n  tag_6\n    /* \"1127/TraceAsset.sol\":238:257  keccak256(\"Tracer\") */\n  0xde578090ec646877a6b707d83ea8139dac8a43d4dea437aa209801b10c1b26b5\n    /* \"1127/TraceAsset.sol\":194:198  0x00 */\n  0x00\n    /* \"1127/TraceAsset.sol\":337:342  ADMIN */\n  dup1\n  shl\n    /* \"1127/TraceAsset.sol\":316:328  setRoleAdmin */\n  shl(0x20, tag_7)\n    /* \"1127/TraceAsset.sol\":316:343  setRoleAdmin(TRACER, ADMIN) */\n  0x20\n  shr\n  jump\t// in\ntag_6:\n    /* \"1127/TraceAsset.sol\":354:383  grantRole(TRACER, msg.sender) */\n  tag_8\n    /* \"1127/TraceAsset.sol\":238:257  keccak256(\"Tracer\") */\n  0xde578090ec646877a6b707d83ea8139dac8a43d4dea437aa209801b10c1b26b5\n    /* \"1127/TraceAsset.sol\":372:382  msg.sender */\n  caller\n    /* \"1127/TraceAsset.sol\":354:363  grantRole */\n  shl(0x20, tag_9)\n    /* \"1127/TraceAsset.sol\":354:383  grantRole(TRACER, msg.sender) */\n  0x20\n  shr\n  jump\t// in\ntag_8:\n  pop\n    /* \"1127/TraceAsset.sol\":119:2731  contract TraceAsset is AccessControl{... */\n  jump(tag_10)\n    /* \"1127/AccessControl.sol\":1592:1809  function setRoleAdmin(bytes32 role ,bytes32 admin) internal virtual  {... */\ntag_7:\n    /* \"1127/AccessControl.sol\":1672:1688  bytes32 oldAdmin */\n  0x00\n    /* \"1127/AccessControl.sol\":1691:1709  getRoleAdmin(role) */\n  tag_12\n    /* \"1127/AccessControl.sol\":1704:1708  role */\n  dup4\n    /* \"1127/AccessControl.sol\":1691:1703  getRoleAdmin */\n  shl(0x20, tag_13)\n    /* \"1127/AccessControl.sol\":1691:1709  getRoleAdmin(role) */\n  0x20\n  shr\n  jump\t// in\ntag_12:\n    /* \"1127/AccessControl.sol\":1672:1709  bytes32 oldAdmin = getRoleAdmin(role) */\n  swap1\n  pop\n    /* \"1127/AccessControl.sol\":1742:1747  admin */\n  dup2\n    /* \"1127/AccessControl.sol\":1720:1725  roles */\n  0x00\n    /* \"1127/AccessControl.sol\":1720:1731  roles[role] */\n  dup1\n    /* \"1127/AccessControl.sol\":1726:1730  role */\n  dup6\n    /* \"1127/AccessControl.sol\":1720:1731  roles[role] */\n  dup2\n  mstore\n  0x20\n  add\n  swap1\n  dup2\n  mstore\n  0x20\n  add\n  0x00\n  keccak256\n    /* \"1127/AccessControl.sol\":1720:1741  roles[role].adminRole */\n  0x01\n  add\n    /* \"1127/AccessControl.sol\":1720:1747  roles[role].adminRole=admin */\n  dup2\n  swap1\n  sstore\n  pop\n    /* \"1127/AccessControl.sol\":1795:1800  admin */\n  dup2\n    /* \"1127/AccessControl.sol\":1785:1793  oldAdmin */\n  dup2\n    /* \"1127/AccessControl.sol\":1780:1784  role */\n  dup5\n    /* \"1127/AccessControl.sol\":1763:1801  RoleAdminChanged(role,oldAdmin, admin) */\n  0xbd79b86ffe0ab8e8776151514217cd7cacd52c909f66475c3af44e129f0b00ff\n  mload(0x40)\n  mload(0x40)\n  dup1\n  swap2\n  sub\n  swap1\n  log4\n    /* \"1127/AccessControl.sol\":1661:1809  {... */\n  pop\n    /* \"1127/AccessControl.sol\":1592:1809  function setRoleAdmin(bytes32 role ,bytes32 admin) internal virtual  {... */\n  pop\n  pop\n  jump\t// out\n    /* \"1127/AccessControl.sol\":1856:2193  function grantRole(bytes32 role, address member)... */\ntag_9:\n    /* \"1127/AccessControl.sol\":1977:1981  bool */\n  0x00\n    /* \"1127/AccessControl.sol\":1939:1957  getRoleAdmin(role) */\n  tag_14\n    /* \"1127/AccessControl.sol\":1952:1956  role */\n  dup4\n    /* \"1127/AccessControl.sol\":1939:1951  getRoleAdmin */\n  shl(0x20, tag_13)\n    /* \"1127/AccessControl.sol\":1939:1957  getRoleAdmin(role) */\n  0x20\n  shr\n  jump\t// in\ntag_14:\n    /* \"1127/AccessControl.sol\":892:907  checkRole(role) */\n  tag_16\n    /* \"1127/AccessControl.sol\":902:906  role */\n  dup2\n    /* \"1127/AccessControl.sol\":892:901  checkRole */\n  shl(0x20, tag_17)\n    /* \"1127/AccessControl.sol\":892:907  checkRole(role) */\n  0x20\n  shr\n  jump\t// in\ntag_16:\n  pop\n    /* \"1127/AccessControl.sol\":2003:2024  hasRole(role, member) */\n  tag_19\n    /* \"1127/AccessControl.sol\":2011:2015  role */\n  dup5\n    /* \"1127/AccessControl.sol\":2017:2023  member */\n  dup5\n    /* \"1127/AccessControl.sol\":2003:2010  hasRole */\n  shl(0x20, tag_20)\n    /* \"1127/AccessControl.sol\":2003:2024  hasRole(role, member) */\n  0x20\n  shr\n  jump\t// in\ntag_19:\n    /* \"1127/AccessControl.sol\":1999:2065  if (hasRole(role, member)) {... */\n  iszero\n  tag_21\n  jumpi\n    /* \"1127/AccessControl.sol\":2048:2053  false */\n  0x00\n    /* \"1127/AccessControl.sol\":2041:2053  return false */\n  swap2\n  pop\n  jump(tag_18)\n    /* \"1127/AccessControl.sol\":1999:2065  if (hasRole(role, member)) {... */\ntag_21:\n    /* \"1127/AccessControl.sol\":2106:2110  true */\n  0x01\n    /* \"1127/AccessControl.sol\":2075:2080  roles */\n  0x00\n    /* \"1127/AccessControl.sol\":2075:2086  roles[role] */\n  dup1\n    /* \"1127/AccessControl.sol\":2081:2085  role */\n  dup7\n    /* \"1127/AccessControl.sol\":2075:2086  roles[role] */\n  dup2\n  mstore\n  0x20\n  add\n  swap1\n  dup2\n  mstore\n  0x20\n  add\n  0x00\n  keccak256\n    /* \"1127/AccessControl.sol\":2075:2095  roles[role].hasRoles */\n  0x00\n  add\n    /* \"1127/AccessControl.sol\":2075:2103  roles[role].hasRoles[member] */\n  0x00\n    /* \"1127/AccessControl.sol\":2096:2102  member */\n  dup6\n    /* \"1127/AccessControl.sol\":2075:2103  roles[role].hasRoles[member] */\n  0xffffffffffffffffffffffffffffffffffffffff\n  and\n  0xffffffffffffffffffffffffffffffffffffffff\n  and\n  dup2\n  mstore\n  0x20\n  add\n  swap1\n  dup2\n  mstore\n  0x20\n  add\n  0x00\n  keccak256\n  0x00\n    /* \"1127/AccessControl.sol\":2075:2110  roles[role].hasRoles[member] = true */\n  0x0100\n  exp\n  dup2\n  sload\n  dup2\n  0xff\n  mul\n  not\n  and\n  swap1\n  dup4\n  iszero\n  iszero\n  mul\n  or\n  swap1\n  sstore\n  pop\n    /* \"1127/AccessControl.sol\":2152:2162  msg.sender */\n  caller\n    /* \"1127/AccessControl.sol\":2126:2163  RoleGranted(role, member, msg.sender) */\n  0xffffffffffffffffffffffffffffffffffffffff\n  and\n    /* \"1127/AccessControl.sol\":2144:2150  member */\n  dup4\n    /* \"1127/AccessControl.sol\":2126:2163  RoleGranted(role, member, msg.sender) */\n  0xffffffffffffffffffffffffffffffffffffffff\n  and\n    /* \"1127/AccessControl.sol\":2138:2142  role */\n  dup6\n    /* \"1127/AccessControl.sol\":2126:2163  RoleGranted(role, member, msg.sender) */\n  0x2f8788117e7eff1d82e926ec794901d17c78024a50270940304540a733656f0d\n  mload(0x40)\n  mload(0x40)\n  dup1\n  swap2\n  sub\n  swap1\n  log4\n    /* \"1127/AccessControl.sol\":2181:2185  true */\n  0x01\n    /* \"1127/AccessControl.sol\":2174:2185  return true */\n  swap2\n  pop\n    /* \"1127/AccessControl.sol\":918:919  _ */\ntag_18:\n    /* \"1127/AccessControl.sol\":1856:2193  function grantRole(bytes32 role, address member)... */\n  pop\n  swap3\n  swap2\n  pop\n  pop\n  jump\t// out\n    /* \"1127/AccessControl.sol\":1438:1551  function getRoleAdmin(bytes32 role) public view returns (bytes32) {... */\ntag_13:\n    /* \"1127/AccessControl.sol\":1495:1502  bytes32 */\n  0x00\n    /* \"1127/AccessControl.sol\":1522:1527  roles */\n  dup1\n    /* \"1127/AccessControl.sol\":1522:1533  roles[role] */\n  0x00\n    /* \"1127/AccessControl.sol\":1528:1532  role */\n  dup4\n    /* \"1127/AccessControl.sol\":1522:1533  roles[role] */\n  dup2\n  mstore\n  0x20\n  add\n  swap1\n  dup2\n  mstore\n  0x20\n  add\n  0x00\n  keccak256\n    /* \"1127/AccessControl.sol\":1522:1543  roles[role].adminRole */\n  0x01\n  add\n  sload\n    /* \"1127/AccessControl.sol\":1515:1543  return roles[role].adminRole */\n  swap1\n  pop\n    /* \"1127/AccessControl.sol\":1438:1551  function getRoleAdmin(bytes32 role) public view returns (bytes32) {... */\n  swap2\n  swap1\n  pop\n  jump\t// out\n    /* \"1127/AccessControl.sol\":1057:1245  function checkRole(bytes32 role) public view returns (bool) {... */\ntag_17:\n    /* \"1127/AccessControl.sol\":1111:1115  bool */\n  0x00\n    /* \"1127/AccessControl.sol\":1133:1158  hasRole(role, msg.sender) */\n  tag_24\n    /* \"1127/AccessControl.sol\":1141:1145  role */\n  dup3\n    /* \"1127/AccessControl.sol\":1147:1157  msg.sender */\n  caller\n    /* \"1127/AccessControl.sol\":1133:1140  hasRole */\n  shl(0x20, tag_20)\n    /* \"1127/AccessControl.sol\":1133:1158  hasRole(role, msg.sender) */\n  0x20\n  shr\n  jump\t// in\ntag_24:\n    /* \"1127/AccessControl.sol\":1128:1216  if (!hasRole(role, msg.sender)) {... */\n  tag_25\n  jumpi\n    /* \"1127/AccessControl.sol\":1175:1204  revert(\"UnAuthorizedAccount\") */\n  mload(0x40)\n  0x08c379a000000000000000000000000000000000000000000000000000000000\n  dup2\n  mstore\n  0x04\n  add\n  tag_26\n  swap1\n  tag_27\n  jump\t// in\ntag_26:\n  mload(0x40)\n  dup1\n  swap2\n  sub\n  swap1\n  revert\n    /* \"1127/AccessControl.sol\":1128:1216  if (!hasRole(role, msg.sender)) {... */\ntag_25:\n    /* \"1127/AccessControl.sol\":1233:1237  true */\n  0x01\n    /* \"1127/AccessControl.sol\":1226:1237  return true */\n  swap1\n  pop\n    /* \"1127/AccessControl.sol\":1057:1245  function checkRole(bytes32 role) public view returns (bool) {... */\n  swap2\n  swap1\n  pop\n  jump\t// out\n    /* \"1127/AccessControl.sol\":1263:1391  function hasRole(bytes32 role, address member) public view returns (bool) {... */\ntag_20:\n    /* \"1127/AccessControl.sol\":1331:1335  bool */\n  0x00\n    /* \"1127/AccessControl.sol\":1355:1360  roles */\n  dup1\n    /* \"1127/AccessControl.sol\":1355:1366  roles[role] */\n  0x00\n    /* \"1127/AccessControl.sol\":1361:1365  role */\n  dup5\n    /* \"1127/AccessControl.sol\":1355:1366  roles[role] */\n  dup2\n  mstore\n  0x20\n  add\n  swap1\n  dup2\n  mstore\n  0x20\n  add\n  0x00\n  keccak256\n    /* \"1127/AccessControl.sol\":1355:1375  roles[role].hasRoles */\n  0x00\n  add\n    /* \"1127/AccessControl.sol\":1355:1383  roles[role].hasRoles[member] */\n  0x00\n    /* \"1127/AccessControl.sol\":1376:1382  member */\n  dup4\n    /* \"1127/AccessControl.sol\":1355:1383  roles[role].hasRoles[member] */\n  0xffffffffffffffffffffffffffffffffffffffff\n  and\n  0xffffffffffffffffffffffffffffffffffffffff\n  and\n  dup2\n  mstore\n  0x20\n  add\n  swap1\n  dup2\n  mstore\n  0x20\n  add\n  0x00\n  keccak256\n  0x00\n  swap1\n  sload\n  swap1\n  0x0100\n  exp\n  swap1\n  div\n  0xff\n  and\n    /* \"1127/AccessControl.sol\":1348:1383  return roles[role].hasRoles[member] */\n  swap1\n  pop\n    /* \"1127/AccessControl.sol\":1263:1391  function hasRole(bytes32 role, address member) public view returns (bool) {... */\n  swap3\n  swap2\n  pop\n  pop\n  jump\t// out\n    /* \"#utility.yul\":7:176   */\ntag_29:\n    /* \"#utility.yul\":91:102   */\n  0x00\n    /* \"#utility.yul\":125:131   */\n  dup3\n    /* \"#utility.yul\":120:123   */\n  dup3\n    /* \"#utility.yul\":113:132   */\n  mstore\n    /* \"#utility.yul\":165:169   */\n  0x20\n    /* \"#utility.yul\":160:163   */\n  dup3\n    /* \"#utility.yul\":156:170   */\n  add\n    /* \"#utility.yul\":141:170   */\n  swap1\n  pop\n    /* \"#utility.yul\":7:176   */\n  swap3\n  swap2\n  pop\n  pop\n  jump\t// out\n    /* \"#utility.yul\":182:351   */\ntag_30:\n    /* \"#utility.yul\":322:343   */\n  0x556e417574686f72697a65644163636f756e7400000000000000000000000000\n    /* \"#utility.yul\":318:319   */\n  0x00\n    /* \"#utility.yul\":310:316   */\n  dup3\n    /* \"#utility.yul\":306:320   */\n  add\n    /* \"#utility.yul\":299:344   */\n  mstore\n    /* \"#utility.yul\":182:351   */\n  pop\n  jump\t// out\n    /* \"#utility.yul\":357:723   */\ntag_31:\n    /* \"#utility.yul\":499:502   */\n  0x00\n    /* \"#utility.yul\":520:587   */\n  tag_36\n    /* \"#utility.yul\":584:586   */\n  0x13\n    /* \"#utility.yul\":579:582   */\n  dup4\n    /* \"#utility.yul\":520:587   */\n  tag_29\n  jump\t// in\ntag_36:\n    /* \"#utility.yul\":513:587   */\n  swap2\n  pop\n    /* \"#utility.yul\":596:689   */\n  tag_37\n    /* \"#utility.yul\":685:688   */\n  dup3\n    /* \"#utility.yul\":596:689   */\n  tag_30\n  jump\t// in\ntag_37:\n    /* \"#utility.yul\":714:716   */\n  0x20\n    /* \"#utility.yul\":709:712   */\n  dup3\n    /* \"#utility.yul\":705:717   */\n  add\n    /* \"#utility.yul\":698:717   */\n  swap1\n  pop\n    /* \"#utility.yul\":357:723   */\n  swap2\n  swap1\n  pop\n  jump\t// out\n    /* \"#utility.yul\":729:1148   */\ntag_27:\n    /* \"#utility.yul\":895:899   */\n  0x00\n    /* \"#utility.yul\":933:935   */\n  0x20\n    /* \"#utility.yul\":922:931   */\n  dup3\n    /* \"#utility.yul\":918:936   */\n  add\n    /* \"#utility.yul\":910:936   */\n  swap1\n  pop\n    /* \"#utility.yul\":982:991   */\n  dup2\n    /* \"#utility.yul\":976:980   */\n  dup2\n    /* \"#utility.yul\":972:992   */\n  sub\n    /* \"#utility.yul\":968:969   */\n  0x00\n    /* \"#utility.yul\":957:966   */\n  dup4\n    /* \"#utility.yul\":953:970   */\n  add\n    /* \"#utility.yul\":946:993   */\n  mstore\n    /* \"#utility.yul\":1010:1141   */\n  tag_39\n    /* \"#utility.yul\":1136:1140   */\n  dup2\n    /* \"#utility.yul\":1010:1141   */\n  tag_31\n  jump\t// in\ntag_39:\n    /* \"#utility.yul\":1002:1141   */\n  swap1\n  pop\n    /* \"#utility.yul\":729:1148   */\n  swap2\n  swap1\n  pop\n  jump\t// out\n    /* \"1127/TraceAsset.sol\":119:2731  contract TraceAsset is AccessControl{... */\ntag_10:\n  dataSize(sub_0)\n  dup1\n  dataOffset(sub_0)\n  0x00\n  codecopy\n  0x00\n  return\nstop\n\nsub_0: assembly {\n        /* \"1127/TraceAsset.sol\":119:2731  contract TraceAsset is AccessControl{... */\n      mstore(0x40, 0x80)\n      callvalue\n      dup1\n      iszero\n      tag_1\n      jumpi\n      0x00\n      dup1\n      revert\n    tag_1:\n      pop\n      jumpi(tag_2, lt(calldatasize, 0x04))\n      shr(0xe0, calldataload(0x00))\n      dup1\n      0x91d14854\n      gt\n      tag_16\n      jumpi\n      dup1\n      0xaa8d24c3\n      gt\n      tag_17\n      jumpi\n      dup1\n      0xaa8d24c3\n      eq\n      tag_12\n      jumpi\n      dup1\n      0xc3dbd0f5\n      eq\n      tag_13\n      jumpi\n      dup1\n      0xc5b95190\n      eq\n      tag_14\n      jumpi\n      dup1\n      0xd547741f\n      eq\n      tag_15\n      jumpi\n      jump(tag_2)\n    tag_17:\n      dup1\n      0x91d14854\n      eq\n      tag_9\n      jumpi\n      dup1\n      0x964a8091\n      eq\n      tag_10\n      jumpi\n      dup1\n      0x9cdeba95\n      eq\n      tag_11\n      jumpi\n      jump(tag_2)\n    tag_16:\n      dup1\n      0x248a9ca3\n      eq\n      tag_3\n      jumpi\n      dup1\n      0x2a0acc6a\n      eq\n      tag_4\n      jumpi\n      dup1\n      0x2f2ff15d\n      eq\n      tag_5\n      jumpi\n      dup1\n      0x3c077a48\n      eq\n      tag_6\n      jumpi\n      dup1\n      0x4e7a23ba\n      eq\n      tag_7\n      jumpi\n      dup1\n      0x4f7e9753\n      eq\n      tag_8\n      jumpi\n    tag_2:\n      0x00\n      dup1\n      revert\n        /* \"1127/AccessControl.sol\":1438:1551  function getRoleAdmin(bytes32 role) public view returns (bytes32) {... */\n    tag_3:\n      tag_18\n      0x04\n      dup1\n      calldatasize\n      sub\n      dup2\n      add\n      swap1\n      tag_19\n      swap2\n      swap1\n      tag_20\n      jump\t// in\n    tag_19:\n      tag_21\n      jump\t// in\n    tag_18:\n      mload(0x40)\n      tag_22\n      swap2\n      swap1\n      tag_23\n      jump\t// in\n    tag_22:\n      mload(0x40)\n      dup1\n      swap2\n      sub\n      swap1\n      return\n        /* \"1127/TraceAsset.sol\":162:198  bytes32 public constant ADMIN = 0x00 */\n    tag_4:\n      tag_24\n      tag_25\n      jump\t// in\n    tag_24:\n      mload(0x40)\n      tag_26\n      swap2\n      swap1\n      tag_23\n      jump\t// in\n    tag_26:\n      mload(0x40)\n      dup1\n      swap2\n      sub\n      swap1\n      return\n        /* \"1127/AccessControl.sol\":1856:2193  function grantRole(bytes32 role, address member)... */\n    tag_5:\n      tag_27\n      0x04\n      dup1\n      calldatasize\n      sub\n      dup2\n      add\n      swap1\n      tag_28\n      swap2\n      swap1\n      tag_29\n      jump\t// in\n    tag_28:\n      tag_30\n      jump\t// in\n    tag_27:\n      mload(0x40)\n      tag_31\n      swap2\n      swap1\n      tag_32\n      jump\t// in\n    tag_31:\n      mload(0x40)\n      dup1\n      swap2\n      sub\n      swap1\n      return\n        /* \"1127/TraceAsset.sol\":1110:1381  function getAll(uint256 id) public view AccessControl.onlyRole(TRACER) returns(DataStruct.AssetTrace[] memory){... */\n    tag_6:\n      tag_33\n      0x04\n      dup1\n      calldatasize\n      sub\n      dup2\n      add\n      swap1\n      tag_34\n      swap2\n      swap1\n      tag_35\n      jump\t// in\n    tag_34:\n      tag_36\n      jump\t// in\n    tag_33:\n      mload(0x40)\n      tag_37\n      swap2\n      swap1\n      tag_38\n      jump\t// in\n    tag_37:\n      mload(0x40)\n      dup1\n      swap2\n      sub\n      swap1\n      return\n        /* \"1127/TraceAsset.sol\":205:257  bytes32 public constant TRACER = keccak256(\"Tracer\") */\n    tag_7:\n      tag_39\n      tag_40\n      jump\t// in\n    tag_39:\n      mload(0x40)\n      tag_41\n      swap2\n      swap1\n      tag_23\n      jump\t// in\n    tag_41:\n      mload(0x40)\n      dup1\n      swap2\n      sub\n      swap1\n      return\n        /* \"1127/TraceAsset.sol\":1838:2728  function getByTimestamp(uint256 id,uint256 timestamp) public view AccessControl.onlyRole(TRACER) returns(DataStruct.AssetTrace memory){... */\n    tag_8:\n      tag_42\n      0x04\n      dup1\n      calldatasize\n      sub\n      dup2\n      add\n      swap1\n      tag_43\n      swap2\n      swap1\n      tag_44\n      jump\t// in\n    tag_43:\n      tag_45\n      jump\t// in\n    tag_42:\n      mload(0x40)\n      tag_46\n      swap2\n      swap1\n      tag_47\n      jump\t// in\n    tag_46:\n      mload(0x40)\n      dup1\n      swap2\n      sub\n      swap1\n      return\n        /* \"1127/AccessControl.sol\":1263:1391  function hasRole(bytes32 role, address member) public view returns (bool) {... */\n    tag_9:\n      tag_48\n      0x04\n      dup1\n      calldatasize\n      sub\n      dup2\n      add\n      swap1\n      tag_49\n      swap2\n      swap1\n      tag_29\n      jump\t// in\n    tag_49:\n      tag_50\n      jump\t// in\n    tag_48:\n      mload(0x40)\n      tag_51\n      swap2\n      swap1\n      tag_32\n      jump\t// in\n    tag_51:\n      mload(0x40)\n      dup1\n      swap2\n      sub\n      swap1\n      return\n        /* \"1127/TraceAsset.sol\":1449:1732  function getLast(uint256 id) public view AccessControl.onlyRole(TRACER) returns(DataStruct.AssetTrace memory){... */\n    tag_10:\n      tag_52\n      0x04\n      dup1\n      calldatasize\n      sub\n      dup2\n      add\n      swap1\n      tag_53\n      swap2\n      swap1\n      tag_35\n      jump\t// in\n    tag_53:\n      tag_54\n      jump\t// in\n    tag_52:\n      mload(0x40)\n      tag_55\n      swap2\n      swap1\n      tag_47\n      jump\t// in\n    tag_55:\n      mload(0x40)\n      dup1\n      swap2\n      sub\n      swap1\n      return\n        /* \"1127/AccessControl.sol\":216:260  bytes32 public constant DEFAULT_ADMIN = 0x00 */\n    tag_11:\n      tag_56\n      tag_57\n      jump\t// in\n    tag_56:\n      mload(0x40)\n      tag_58\n      swap2\n      swap1\n      tag_23\n      jump\t// in\n    tag_58:\n      mload(0x40)\n      dup1\n      swap2\n      sub\n      swap1\n      return\n        /* \"1127/TraceAsset.sol\":651:768  function setTraceRight(address getter) public AccessControl.onlyRole(ADMIN){... */\n    tag_12:\n      tag_59\n      0x04\n      dup1\n      calldatasize\n      sub\n      dup2\n      add\n      swap1\n      tag_60\n      swap2\n      swap1\n      tag_61\n      jump\t// in\n    tag_60:\n      tag_62\n      jump\t// in\n    tag_59:\n      stop\n        /* \"1127/TraceAsset.sol\":819:1042  function add(uint256 id,DataStruct.AssetTrace memory trace) public AccessControl.onlyRole(TRACER) {... */\n    tag_13:\n      tag_63\n      0x04\n      dup1\n      calldatasize\n      sub\n      dup2\n      add\n      swap1\n      tag_64\n      swap2\n      swap1\n      tag_65\n      jump\t// in\n    tag_64:\n      tag_66\n      jump\t// in\n    tag_63:\n      stop\n        /* \"1127/AccessControl.sol\":1057:1245  function checkRole(bytes32 role) public view returns (bool) {... */\n    tag_14:\n      tag_67\n      0x04\n      dup1\n      calldatasize\n      sub\n      dup2\n      add\n      swap1\n      tag_68\n      swap2\n      swap1\n      tag_20\n      jump\t// in\n    tag_68:\n      tag_69\n      jump\t// in\n    tag_67:\n      mload(0x40)\n      tag_70\n      swap2\n      swap1\n      tag_32\n      jump\t// in\n    tag_70:\n      mload(0x40)\n      dup1\n      swap2\n      sub\n      swap1\n      return\n        /* \"1127/AccessControl.sol\":2246:2586  function revokeRole(bytes32 role, address member)... */\n    tag_15:\n      tag_71\n      0x04\n      dup1\n      calldatasize\n      sub\n      dup2\n      add\n      swap1\n      tag_72\n      swap2\n      swap1\n      tag_29\n      jump\t// in\n    tag_72:\n      tag_73\n      jump\t// in\n    tag_71:\n      mload(0x40)\n      tag_74\n      swap2\n      swap1\n      tag_32\n      jump\t// in\n    tag_74:\n      mload(0x40)\n      dup1\n      swap2\n      sub\n      swap1\n      return\n        /* \"1127/AccessControl.sol\":1438:1551  function getRoleAdmin(bytes32 role) public view returns (bytes32) {... */\n    tag_21:\n        /* \"1127/AccessControl.sol\":1495:1502  bytes32 */\n      0x00\n        /* \"1127/AccessControl.sol\":1522:1527  roles */\n      dup1\n        /* \"1127/AccessControl.sol\":1522:1533  roles[role] */\n      0x00\n        /* \"1127/AccessControl.sol\":1528:1532  role */\n      dup4\n        /* \"1127/AccessControl.sol\":1522:1533  roles[role] */\n      dup2\n      mstore\n      0x20\n      add\n      swap1\n      dup2\n      mstore\n      0x20\n      add\n      0x00\n      keccak256\n        /* \"1127/AccessControl.sol\":1522:1543  roles[role].adminRole */\n      0x01\n      add\n      sload\n        /* \"1127/AccessControl.sol\":1515:1543  return roles[role].adminRole */\n      swap1\n      pop\n        /* \"1127/AccessControl.sol\":1438:1551  function getRoleAdmin(bytes32 role) public view returns (bytes32) {... */\n      swap2\n      swap1\n      pop\n      jump\t// out\n        /* \"1127/TraceAsset.sol\":162:198  bytes32 public constant ADMIN = 0x00 */\n    tag_25:\n        /* \"1127/TraceAsset.sol\":194:198  0x00 */\n      0x00\n        /* \"1127/TraceAsset.sol\":162:198  bytes32 public constant ADMIN = 0x00 */\n      dup1\n      shl\n      dup2\n      jump\t// out\n        /* \"1127/AccessControl.sol\":1856:2193  function grantRole(bytes32 role, address member)... */\n    tag_30:\n        /* \"1127/AccessControl.sol\":1977:1981  bool */\n      0x00\n        /* \"1127/AccessControl.sol\":1939:1957  getRoleAdmin(role) */\n      tag_76\n        /* \"1127/AccessControl.sol\":1952:1956  role */\n      dup4\n        /* \"1127/AccessControl.sol\":1939:1951  getRoleAdmin */\n      tag_21\n        /* \"1127/AccessControl.sol\":1939:1957  getRoleAdmin(role) */\n      jump\t// in\n    tag_76:\n        /* \"1127/AccessControl.sol\":892:907  checkRole(role) */\n      tag_78\n        /* \"1127/AccessControl.sol\":902:906  role */\n      dup2\n        /* \"1127/AccessControl.sol\":892:901  checkRole */\n      tag_69\n        /* \"1127/AccessControl.sol\":892:907  checkRole(role) */\n      jump\t// in\n    tag_78:\n      pop\n        /* \"1127/AccessControl.sol\":2003:2024  hasRole(role, member) */\n      tag_80\n        /* \"1127/AccessControl.sol\":2011:2015  role */\n      dup5\n        /* \"1127/AccessControl.sol\":2017:2023  member */\n      dup5\n        /* \"1127/AccessControl.sol\":2003:2010  hasRole */\n      tag_50\n        /* \"1127/AccessControl.sol\":2003:2024  hasRole(role, member) */\n      jump\t// in\n    tag_80:\n        /* \"1127/AccessControl.sol\":1999:2065  if (hasRole(role, member)) {... */\n      iszero\n      tag_81\n      jumpi\n        /* \"1127/AccessControl.sol\":2048:2053  false */\n      0x00\n        /* \"1127/AccessControl.sol\":2041:2053  return false */\n      swap2\n      pop\n      jump(tag_79)\n        /* \"1127/AccessControl.sol\":1999:2065  if (hasRole(role, member)) {... */\n    tag_81:\n        /* \"1127/AccessControl.sol\":2106:2110  true */\n      0x01\n        /* \"1127/AccessControl.sol\":2075:2080  roles */\n      0x00\n        /* \"1127/AccessControl.sol\":2075:2086  roles[role] */\n      dup1\n        /* \"1127/AccessControl.sol\":2081:2085  role */\n      dup7\n        /* \"1127/AccessControl.sol\":2075:2086  roles[role] */\n      dup2\n      mstore\n      0x20\n      add\n      swap1\n      dup2\n      mstore\n      0x20\n      add\n      0x00\n      keccak256\n        /* \"1127/AccessControl.sol\":2075:2095  roles[role].hasRoles */\n      0x00\n      add\n        /* \"1127/AccessControl.sol\":2075:2103  roles[role].hasRoles[member] */\n      0x00\n        /* \"1127/AccessControl.sol\":2096:2102  member */\n      dup6\n        /* \"1127/AccessControl.sol\":2075:2103  roles[role].hasRoles[member] */\n      0xffffffffffffffffffffffffffffffffffffffff\n      and\n      0xffffffffffffffffffffffffffffffffffffffff\n      and\n      dup2\n      mstore\n      0x20\n      add\n      swap1\n      dup2\n      mstore\n      0x20\n      add\n      0x00\n      keccak256\n      0x00\n        /* \"1127/AccessControl.sol\":2075:2110  roles[role].hasRoles[member] = true */\n      0x0100\n      exp\n      dup2\n      sload\n      dup2\n      0xff\n      mul\n      not\n      and\n      swap1\n      dup4\n      iszero\n      iszero\n      mul\n      or\n      swap1\n      sstore\n      pop\n        /* \"1127/AccessControl.sol\":2152:2162  msg.sender */\n      caller\n        /* \"1127/AccessControl.sol\":2126:2163  RoleGranted(role, member, msg.sender) */\n      0xffffffffffffffffffffffffffffffffffffffff\n      and\n        /* \"1127/AccessControl.sol\":2144:2150  member */\n      dup4\n        /* \"1127/AccessControl.sol\":2126:2163  RoleGranted(role, member, msg.sender) */\n      0xffffffffffffffffffffffffffffffffffffffff\n      and\n        /* \"1127/AccessControl.sol\":2138:2142  role */\n      dup6\n        /* \"1127/AccessControl.sol\":2126:2163  RoleGranted(role, member, msg.sender) */\n      0x2f8788117e7eff1d82e926ec794901d17c78024a50270940304540a733656f0d\n      mload(0x40)\n      mload(0x40)\n      dup1\n      swap2\n      sub\n      swap1\n      log4\n        /* \"1127/AccessControl.sol\":2181:2185  true */\n      0x01\n        /* \"1127/AccessControl.sol\":2174:2185  return true */\n      swap2\n      pop\n        /* \"1127/AccessControl.sol\":918:919  _ */\n    tag_79:\n        /* \"1127/AccessControl.sol\":1856:2193  function grantRole(bytes32 role, address member)... */\n      pop\n      swap3\n      swap2\n      pop\n      pop\n      jump\t// out\n        /* \"1127/TraceAsset.sol\":1110:1381  function getAll(uint256 id) public view AccessControl.onlyRole(TRACER) returns(DataStruct.AssetTrace[] memory){... */\n    tag_36:\n        /* \"1127/TraceAsset.sol\":1189:1219  DataStruct.AssetTrace[] memory */\n      0x60\n        /* \"1127/TraceAsset.sol\":238:257  keccak256(\"Tracer\") */\n      0xde578090ec646877a6b707d83ea8139dac8a43d4dea437aa209801b10c1b26b5\n        /* \"1127/AccessControl.sol\":892:907  checkRole(role) */\n      tag_83\n        /* \"1127/AccessControl.sol\":902:906  role */\n      dup2\n        /* \"1127/AccessControl.sol\":892:901  checkRole */\n      tag_69\n        /* \"1127/AccessControl.sol\":892:907  checkRole(role) */\n      jump\t// in\n    tag_83:\n      pop\n        /* \"1127/TraceAsset.sol\":1231:1245  uint256 length */\n      0x00\n        /* \"1127/TraceAsset.sol\":1248:1257  traceList */\n      0x01\n        /* \"1127/TraceAsset.sol\":1248:1261  traceList[id] */\n      0x00\n        /* \"1127/TraceAsset.sol\":1258:1260  id */\n      dup6\n        /* \"1127/TraceAsset.sol\":1248:1261  traceList[id] */\n      dup2\n      mstore\n      0x20\n      add\n      swap1\n      dup2\n      mstore\n      0x20\n      add\n      0x00\n      keccak256\n        /* \"1127/TraceAsset.sol\":1248:1268  traceList[id].length */\n      dup1\n      sload\n      swap1\n      pop\n        /* \"1127/TraceAsset.sol\":1231:1268  uint256 length = traceList[id].length */\n      swap1\n      pop\n        /* \"1127/TraceAsset.sol\":1296:1297  0 */\n      0x00\n        /* \"1127/TraceAsset.sol\":1287:1293  length */\n      dup2\n        /* \"1127/TraceAsset.sol\":1287:1297  length > 0 */\n      gt\n        /* \"1127/TraceAsset.sol\":1279:1342  require(length > 0,\"TraceAsset::GetAllError:: id is not valid\") */\n      tag_85\n      jumpi\n      mload(0x40)\n      0x08c379a000000000000000000000000000000000000000000000000000000000\n      dup2\n      mstore\n      0x04\n      add\n      tag_86\n      swap1\n      tag_87\n      jump\t// in\n    tag_86:\n      mload(0x40)\n      dup1\n      swap2\n      sub\n      swap1\n      revert\n    tag_85:\n        /* \"1127/TraceAsset.sol\":1360:1369  traceList */\n      0x01\n        /* \"1127/TraceAsset.sol\":1360:1373  traceList[id] */\n      0x00\n        /* \"1127/TraceAsset.sol\":1370:1372  id */\n      dup6\n        /* \"1127/TraceAsset.sol\":1360:1373  traceList[id] */\n      dup2\n      mstore\n      0x20\n      add\n      swap1\n      dup2\n      mstore\n      0x20\n      add\n      0x00\n      keccak256\n        /* \"1127/TraceAsset.sol\":1353:1373  return traceList[id] */\n      dup1\n      sload\n      dup1\n      0x20\n      mul\n      0x20\n      add\n      mload(0x40)\n      swap1\n      dup2\n      add\n      0x40\n      mstore\n      dup1\n      swap3\n      swap2\n      swap1\n      dup2\n      dup2\n      mstore\n      0x20\n      add\n      0x00\n      swap1\n    tag_88:\n      dup3\n      dup3\n      lt\n      iszero\n      tag_89\n      jumpi\n      dup4\n      dup3\n      swap1\n      0x00\n      mstore\n      keccak256(0x00, 0x20)\n      swap1\n      0x03\n      mul\n      add\n      mload(0x40)\n      dup1\n      0x60\n      add\n      0x40\n      mstore\n      swap1\n      dup2\n      0x00\n      dup3\n      add\n      sload\n      dup2\n      mstore\n      0x20\n      add\n      0x01\n      dup3\n      add\n      0x00\n      swap1\n      sload\n      swap1\n      0x0100\n      exp\n      swap1\n      div\n      0xffffffffffffffffffffffffffffffffffffffff\n      and\n      0xffffffffffffffffffffffffffffffffffffffff\n      and\n      0xffffffffffffffffffffffffffffffffffffffff\n      and\n      dup2\n      mstore\n      0x20\n      add\n      0x02\n      dup3\n      add\n      dup1\n      sload\n      tag_91\n      swap1\n      tag_92\n      jump\t// in\n    tag_91:\n      dup1\n      0x1f\n      add\n      0x20\n      dup1\n      swap2\n      div\n      mul\n      0x20\n      add\n      mload(0x40)\n      swap1\n      dup2\n      add\n      0x40\n      mstore\n      dup1\n      swap3\n      swap2\n      swap1\n      dup2\n      dup2\n      mstore\n      0x20\n      add\n      dup3\n      dup1\n      sload\n      tag_93\n      swap1\n      tag_92\n      jump\t// in\n    tag_93:\n      dup1\n      iszero\n      tag_94\n      jumpi\n      dup1\n      0x1f\n      lt\n      tag_95\n      jumpi\n      0x0100\n      dup1\n      dup4\n      sload\n      div\n      mul\n      dup4\n      mstore\n      swap2\n      0x20\n      add\n      swap2\n      jump(tag_94)\n    tag_95:\n      dup3\n      add\n      swap2\n      swap1\n      0x00\n      mstore\n      keccak256(0x00, 0x20)\n      swap1\n    tag_96:\n      dup2\n      sload\n      dup2\n      mstore\n      swap1\n      0x01\n      add\n      swap1\n      0x20\n      add\n      dup1\n      dup4\n      gt\n      tag_96\n      jumpi\n      dup3\n      swap1\n      sub\n      0x1f\n      and\n      dup3\n      add\n      swap2\n    tag_94:\n      pop\n      pop\n      pop\n      pop\n      pop\n      dup2\n      mstore\n      pop\n      pop\n      dup2\n      mstore\n      0x20\n      add\n      swap1\n      0x01\n      add\n      swap1\n      jump(tag_88)\n    tag_89:\n      pop\n      pop\n      pop\n      pop\n      swap3\n      pop\n      pop\n        /* \"1127/TraceAsset.sol\":1110:1381  function getAll(uint256 id) public view AccessControl.onlyRole(TRACER) returns(DataStruct.AssetTrace[] memory){... */\n      pop\n      swap2\n      swap1\n      pop\n      jump\t// out\n        /* \"1127/TraceAsset.sol\":205:257  bytes32 public constant TRACER = keccak256(\"Tracer\") */\n    tag_40:\n        /* \"1127/TraceAsset.sol\":238:257  keccak256(\"Tracer\") */\n      0xde578090ec646877a6b707d83ea8139dac8a43d4dea437aa209801b10c1b26b5\n        /* \"1127/TraceAsset.sol\":205:257  bytes32 public constant TRACER = keccak256(\"Tracer\") */\n      dup2\n      jump\t// out\n        /* \"1127/TraceAsset.sol\":1838:2728  function getByTimestamp(uint256 id,uint256 timestamp) public view AccessControl.onlyRole(TRACER) returns(DataStruct.AssetTrace memory){... */\n    tag_45:\n        /* \"1127/TraceAsset.sol\":1943:1971  DataStruct.AssetTrace memory */\n      tag_97\n      tag_98\n      jump\t// in\n    tag_97:\n        /* \"1127/TraceAsset.sol\":238:257  keccak256(\"Tracer\") */\n      0xde578090ec646877a6b707d83ea8139dac8a43d4dea437aa209801b10c1b26b5\n        /* \"1127/AccessControl.sol\":892:907  checkRole(role) */\n      tag_100\n        /* \"1127/AccessControl.sol\":902:906  role */\n      dup2\n        /* \"1127/AccessControl.sol\":892:901  checkRole */\n      tag_69\n        /* \"1127/AccessControl.sol\":892:907  checkRole(role) */\n      jump\t// in\n    tag_100:\n      pop\n        /* \"1127/TraceAsset.sol\":1983:1997  uint256 length */\n      0x00\n        /* \"1127/TraceAsset.sol\":2023:2024  1 */\n      0x01\n        /* \"1127/TraceAsset.sol\":2000:2009  traceList */\n      dup1\n        /* \"1127/TraceAsset.sol\":2000:2013  traceList[id] */\n      0x00\n        /* \"1127/TraceAsset.sol\":2010:2012  id */\n      dup8\n        /* \"1127/TraceAsset.sol\":2000:2013  traceList[id] */\n      dup2\n      mstore\n      0x20\n      add\n      swap1\n      dup2\n      mstore\n      0x20\n      add\n      0x00\n      keccak256\n        /* \"1127/TraceAsset.sol\":2000:2020  traceList[id].length */\n      dup1\n      sload\n      swap1\n      pop\n        /* \"1127/TraceAsset.sol\":2000:2024  traceList[id].length - 1 */\n      tag_102\n      swap2\n      swap1\n      tag_103\n      jump\t// in\n    tag_102:\n        /* \"1127/TraceAsset.sol\":1983:2024  uint256 length = traceList[id].length - 1 */\n      swap1\n      pop\n        /* \"1127/TraceAsset.sol\":2053:2054  0 */\n      0x00\n        /* \"1127/TraceAsset.sol\":2043:2049  length */\n      dup2\n        /* \"1127/TraceAsset.sol\":2043:2054  length >= 0 */\n      lt\n      iszero\n        /* \"1127/TraceAsset.sol\":2035:2107  require(length >= 0,\"TraceAsset::GetByTimestampError:: id is not valid\") */\n      tag_104\n      jumpi\n      mload(0x40)\n      0x08c379a000000000000000000000000000000000000000000000000000000000\n      dup2\n      mstore\n      0x04\n      add\n      tag_105\n      swap1\n      tag_106\n      jump\t// in\n    tag_105:\n      mload(0x40)\n      dup1\n      swap2\n      sub\n      swap1\n      revert\n    tag_104:\n        /* \"1127/TraceAsset.sol\":2143:2188  DataStruct.AssetTrace[] memory assetTraceList */\n      0x00\n        /* \"1127/TraceAsset.sol\":2191:2200  traceList */\n      0x01\n        /* \"1127/TraceAsset.sol\":2191:2204  traceList[id] */\n      0x00\n        /* \"1127/TraceAsset.sol\":2201:2203  id */\n      dup8\n        /* \"1127/TraceAsset.sol\":2191:2204  traceList[id] */\n      dup2\n      mstore\n      0x20\n      add\n      swap1\n      dup2\n      mstore\n      0x20\n      add\n      0x00\n      keccak256\n        /* \"1127/TraceAsset.sol\":2143:2204  DataStruct.AssetTrace[] memory assetTraceList = traceList[id] */\n      dup1\n      sload\n      dup1\n      0x20\n      mul\n      0x20\n      add\n      mload(0x40)\n      swap1\n      dup2\n      add\n      0x40\n      mstore\n      dup1\n      swap3\n      swap2\n      swap1\n      dup2\n      dup2\n      mstore\n      0x20\n      add\n      0x00\n      swap1\n    tag_107:\n      dup3\n      dup3\n      lt\n      iszero\n      tag_108\n      jumpi\n      dup4\n      dup3\n      swap1\n      0x00\n      mstore\n      keccak256(0x00, 0x20)\n      swap1\n      0x03\n      mul\n      add\n      mload(0x40)\n      dup1\n      0x60\n      add\n      0x40\n      mstore\n      swap1\n      dup2\n      0x00\n      dup3\n      add\n      sload\n      dup2\n      mstore\n      0x20\n      add\n      0x01\n      dup3\n      add\n      0x00\n      swap1\n      sload\n      swap1\n      0x0100\n      exp\n      swap1\n      div\n      0xffffffffffffffffffffffffffffffffffffffff\n      and\n      0xffffffffffffffffffffffffffffffffffffffff\n      and\n      0xffffffffffffffffffffffffffffffffffffffff\n      and\n      dup2\n      mstore\n      0x20\n      add\n      0x02\n      dup3\n      add\n      dup1\n      sload\n      tag_110\n      swap1\n      tag_92\n      jump\t// in\n    tag_110:\n      dup1\n      0x1f\n      add\n      0x20\n      dup1\n      swap2\n      div\n      mul\n      0x20\n      add\n      mload(0x40)\n      swap1\n      dup2\n      add\n      0x40\n      mstore\n      dup1\n      swap3\n      swap2\n      swap1\n      dup2\n      dup2\n      mstore\n      0x20\n      add\n      dup3\n      dup1\n      sload\n      tag_111\n      swap1\n      tag_92\n      jump\t// in\n    tag_111:\n      dup1\n      iszero\n      tag_112\n      jumpi\n      dup1\n      0x1f\n      lt\n      tag_113\n      jumpi\n      0x0100\n      dup1\n      dup4\n      sload\n      div\n      mul\n      dup4\n      mstore\n      swap2\n      0x20\n      add\n      swap2\n      jump(tag_112)\n    tag_113:\n      dup3\n      add\n      swap2\n      swap1\n      0x00\n      mstore\n      keccak256(0x00, 0x20)\n      swap1\n    tag_114:\n      dup2\n      sload\n      dup2\n      mstore\n      swap1\n      0x01\n      add\n      swap1\n      0x20\n      add\n      dup1\n      dup4\n      gt\n      tag_114\n      jumpi\n      dup3\n      swap1\n      sub\n      0x1f\n      and\n      dup3\n      add\n      swap2\n    tag_112:\n      pop\n      pop\n      pop\n      pop\n      pop\n      dup2\n      mstore\n      pop\n      pop\n      dup2\n      mstore\n      0x20\n      add\n      swap1\n      0x01\n      add\n      swap1\n      jump(tag_107)\n    tag_108:\n      pop\n      pop\n      pop\n      pop\n      swap1\n      pop\n        /* \"1127/TraceAsset.sol\":2215:2226  uint256 low */\n      0x00\n        /* \"1127/TraceAsset.sol\":2241:2252  uint256 mid */\n      dup1\n        /* \"1127/TraceAsset.sol\":2263:2629  while(low <= length){... */\n    tag_115:\n        /* \"1127/TraceAsset.sol\":2276:2282  length */\n      dup4\n        /* \"1127/TraceAsset.sol\":2269:2272  low */\n      dup3\n        /* \"1127/TraceAsset.sol\":2269:2282  low <= length */\n      gt\n        /* \"1127/TraceAsset.sol\":2263:2629  while(low <= length){... */\n      tag_116\n      jumpi\n        /* \"1127/TraceAsset.sol\":2327:2328  2 */\n      0x02\n        /* \"1127/TraceAsset.sol\":2320:2323  low */\n      dup3\n        /* \"1127/TraceAsset.sol\":2311:2317  length */\n      dup6\n        /* \"1127/TraceAsset.sol\":2311:2323  length - low */\n      tag_117\n      swap2\n      swap1\n      tag_103\n      jump\t// in\n    tag_117:\n        /* \"1127/TraceAsset.sol\":2310:2328  (length - low) / 2 */\n      tag_118\n      swap2\n      swap1\n      tag_119\n      jump\t// in\n    tag_118:\n        /* \"1127/TraceAsset.sol\":2304:2307  low */\n      dup3\n        /* \"1127/TraceAsset.sol\":2304:2328  low + (length - low) / 2 */\n      tag_120\n      swap2\n      swap1\n      tag_121\n      jump\t// in\n    tag_120:\n        /* \"1127/TraceAsset.sol\":2298:2328  mid = low + (length - low) / 2 */\n      swap1\n      pop\n        /* \"1127/TraceAsset.sol\":2381:2390  timestamp */\n      dup7\n        /* \"1127/TraceAsset.sol\":2346:2360  assetTraceList */\n      dup4\n        /* \"1127/TraceAsset.sol\":2361:2364  mid */\n      dup3\n        /* \"1127/TraceAsset.sol\":2346:2365  assetTraceList[mid] */\n      dup2\n      mload\n      dup2\n      lt\n      tag_122\n      jumpi\n      tag_123\n      tag_124\n      jump\t// in\n    tag_123:\n    tag_122:\n      0x20\n      mul\n      0x20\n      add\n      add\n      mload\n        /* \"1127/TraceAsset.sol\":2346:2377  assetTraceList[mid].operateTime */\n      0x00\n      add\n      mload\n        /* \"1127/TraceAsset.sol\":2346:2390  assetTraceList[mid].operateTime == timestamp */\n      eq\n        /* \"1127/TraceAsset.sol\":2343:2452  if(assetTraceList[mid].operateTime == timestamp){... */\n      iszero\n      tag_125\n      jumpi\n        /* \"1127/TraceAsset.sol\":2417:2431  assetTraceList */\n      dup3\n        /* \"1127/TraceAsset.sol\":2432:2435  mid */\n      dup2\n        /* \"1127/TraceAsset.sol\":2417:2436  assetTraceList[mid] */\n      dup2\n      mload\n      dup2\n      lt\n      tag_126\n      jumpi\n      tag_127\n      tag_124\n      jump\t// in\n    tag_127:\n    tag_126:\n      0x20\n      mul\n      0x20\n      add\n      add\n      mload\n        /* \"1127/TraceAsset.sol\":2410:2436  return assetTraceList[mid] */\n      swap6\n      pop\n      pop\n      pop\n      pop\n      pop\n      jump(tag_101)\n        /* \"1127/TraceAsset.sol\":2343:2452  if(assetTraceList[mid].operateTime == timestamp){... */\n    tag_125:\n        /* \"1127/TraceAsset.sol\":2503:2512  timestamp */\n      dup7\n        /* \"1127/TraceAsset.sol\":2469:2483  assetTraceList */\n      dup4\n        /* \"1127/TraceAsset.sol\":2484:2487  mid */\n      dup3\n        /* \"1127/TraceAsset.sol\":2469:2488  assetTraceList[mid] */\n      dup2\n      mload\n      dup2\n      lt\n      tag_128\n      jumpi\n      tag_129\n      tag_124\n      jump\t// in\n    tag_129:\n    tag_128:\n      0x20\n      mul\n      0x20\n      add\n      add\n      mload\n        /* \"1127/TraceAsset.sol\":2469:2500  assetTraceList[mid].operateTime */\n      0x00\n      add\n      mload\n        /* \"1127/TraceAsset.sol\":2469:2512  assetTraceList[mid].operateTime < timestamp */\n      lt\n        /* \"1127/TraceAsset.sol\":2466:2618  if(assetTraceList[mid].operateTime < timestamp){... */\n      iszero\n      tag_130\n      jumpi\n        /* \"1127/TraceAsset.sol\":2544:2545  1 */\n      0x01\n        /* \"1127/TraceAsset.sol\":2538:2541  mid */\n      dup2\n        /* \"1127/TraceAsset.sol\":2538:2545  mid + 1 */\n      tag_131\n      swap2\n      swap1\n      tag_121\n      jump\t// in\n    tag_131:\n        /* \"1127/TraceAsset.sol\":2532:2545  low = mid + 1 */\n      swap2\n      pop\n        /* \"1127/TraceAsset.sol\":2466:2618  if(assetTraceList[mid].operateTime < timestamp){... */\n      jump(tag_132)\n    tag_130:\n        /* \"1127/TraceAsset.sol\":2601:2602  1 */\n      0x01\n        /* \"1127/TraceAsset.sol\":2595:2598  mid */\n      dup2\n        /* \"1127/TraceAsset.sol\":2595:2602  mid - 1 */\n      tag_133\n      swap2\n      swap1\n      tag_103\n      jump\t// in\n    tag_133:\n        /* \"1127/TraceAsset.sol\":2586:2602  length = mid - 1 */\n      swap4\n      pop\n        /* \"1127/TraceAsset.sol\":2466:2618  if(assetTraceList[mid].operateTime < timestamp){... */\n    tag_132:\n        /* \"1127/TraceAsset.sol\":2263:2629  while(low <= length){... */\n      jump(tag_115)\n    tag_116:\n        /* \"1127/TraceAsset.sol\":2639:2720  revert(\"TraceAsset::GetByTimestampError:: can not find corresponding trace data\") */\n      mload(0x40)\n      0x08c379a000000000000000000000000000000000000000000000000000000000\n      dup2\n      mstore\n      0x04\n      add\n      tag_134\n      swap1\n      tag_135\n      jump\t// in\n    tag_134:\n      mload(0x40)\n      dup1\n      swap2\n      sub\n      swap1\n      revert\n        /* \"1127/AccessControl.sol\":918:919  _ */\n    tag_101:\n        /* \"1127/TraceAsset.sol\":1838:2728  function getByTimestamp(uint256 id,uint256 timestamp) public view AccessControl.onlyRole(TRACER) returns(DataStruct.AssetTrace memory){... */\n      pop\n      swap3\n      swap2\n      pop\n      pop\n      jump\t// out\n        /* \"1127/AccessControl.sol\":1263:1391  function hasRole(bytes32 role, address member) public view returns (bool) {... */\n    tag_50:\n        /* \"1127/AccessControl.sol\":1331:1335  bool */\n      0x00\n        /* \"1127/AccessControl.sol\":1355:1360  roles */\n      dup1\n        /* \"1127/AccessControl.sol\":1355:1366  roles[role] */\n      0x00\n        /* \"1127/AccessControl.sol\":1361:1365  role */\n      dup5\n        /* \"1127/AccessControl.sol\":1355:1366  roles[role] */\n      dup2\n      mstore\n      0x20\n      add\n      swap1\n      dup2\n      mstore\n      0x20\n      add\n      0x00\n      keccak256\n        /* \"1127/AccessControl.sol\":1355:1375  roles[role].hasRoles */\n      0x00\n      add\n        /* \"1127/AccessControl.sol\":1355:1383  roles[role].hasRoles[member] */\n      0x00\n        /* \"1127/AccessControl.sol\":1376:1382  member */\n      dup4\n        /* \"1127/AccessControl.sol\":1355:1383  roles[role].hasRoles[member] */\n      0xffffffffffffffffffffffffffffffffffffffff\n      and\n      0xffffffffffffffffffffffffffffffffffffffff\n      and\n      dup2\n      mstore\n      0x20\n      add\n      swap1\n      dup2\n      mstore\n      0x20\n      add\n      0x00\n      keccak256\n      0x00\n      swap1\n      sload\n      swap1\n      0x0100\n      exp\n      swap1\n      div\n      0xff\n      and\n        /* \"1127/AccessControl.sol\":1348:1383  return roles[role].hasRoles[member] */\n      swap1\n      pop\n        /* \"1127/AccessControl.sol\":1263:1391  function hasRole(bytes32 role, address member) public view returns (bool) {... */\n      swap3\n      swap2\n      pop\n      pop\n      jump\t// out\n        /* \"1127/TraceAsset.sol\":1449:1732  function getLast(uint256 id) public view AccessControl.onlyRole(TRACER) returns(DataStruct.AssetTrace memory){... */\n    tag_54:\n        /* \"1127/TraceAsset.sol\":1529:1557  DataStruct.AssetTrace memory */\n      tag_137\n      tag_98\n      jump\t// in\n    tag_137:\n        /* \"1127/TraceAsset.sol\":238:257  keccak256(\"Tracer\") */\n      0xde578090ec646877a6b707d83ea8139dac8a43d4dea437aa209801b10c1b26b5\n        /* \"1127/AccessControl.sol\":892:907  checkRole(role) */\n      tag_139\n        /* \"1127/AccessControl.sol\":902:906  role */\n      dup2\n        /* \"1127/AccessControl.sol\":892:901  checkRole */\n      tag_69\n        /* \"1127/AccessControl.sol\":892:907  checkRole(role) */\n      jump\t// in\n    tag_139:\n      pop\n        /* \"1127/TraceAsset.sol\":1569:1583  uint256 length */\n      0x00\n        /* \"1127/TraceAsset.sol\":1586:1595  traceList */\n      0x01\n        /* \"1127/TraceAsset.sol\":1586:1599  traceList[id] */\n      0x00\n        /* \"1127/TraceAsset.sol\":1596:1598  id */\n      dup6\n        /* \"1127/TraceAsset.sol\":1586:1599  traceList[id] */\n      dup2\n      mstore\n      0x20\n      add\n      swap1\n      dup2\n      mstore\n      0x20\n      add\n      0x00\n      keccak256\n        /* \"1127/TraceAsset.sol\":1586:1606  traceList[id].length */\n      dup1\n      sload\n      swap1\n      pop\n        /* \"1127/TraceAsset.sol\":1569:1606  uint256 length = traceList[id].length */\n      swap1\n      pop\n        /* \"1127/TraceAsset.sol\":1634:1635  0 */\n      0x00\n        /* \"1127/TraceAsset.sol\":1625:1631  length */\n      dup2\n        /* \"1127/TraceAsset.sol\":1625:1635  length > 0 */\n      gt\n        /* \"1127/TraceAsset.sol\":1617:1681  require(length > 0,\"TraceAsset::GetLastError:: id is not valid\") */\n      tag_141\n      jumpi\n      mload(0x40)\n      0x08c379a000000000000000000000000000000000000000000000000000000000\n      dup2\n      mstore\n      0x04\n      add\n      tag_142\n      swap1\n      tag_143\n      jump\t// in\n    tag_142:\n      mload(0x40)\n      dup1\n      swap2\n      sub\n      swap1\n      revert\n    tag_141:\n        /* \"1127/TraceAsset.sol\":1699:1708  traceList */\n      0x01\n        /* \"1127/TraceAsset.sol\":1699:1712  traceList[id] */\n      0x00\n        /* \"1127/TraceAsset.sol\":1709:1711  id */\n      dup6\n        /* \"1127/TraceAsset.sol\":1699:1712  traceList[id] */\n      dup2\n      mstore\n      0x20\n      add\n      swap1\n      dup2\n      mstore\n      0x20\n      add\n      0x00\n      keccak256\n        /* \"1127/TraceAsset.sol\":1722:1723  1 */\n      0x01\n        /* \"1127/TraceAsset.sol\":1713:1719  length */\n      dup3\n        /* \"1127/TraceAsset.sol\":1713:1723  length - 1 */\n      tag_144\n      swap2\n      swap1\n      tag_103\n      jump\t// in\n    tag_144:\n        /* \"1127/TraceAsset.sol\":1699:1724  traceList[id][length - 1] */\n      dup2\n      sload\n      dup2\n      lt\n      tag_145\n      jumpi\n      tag_146\n      tag_124\n      jump\t// in\n    tag_146:\n    tag_145:\n      swap1\n      0x00\n      mstore\n      keccak256(0x00, 0x20)\n      swap1\n      0x03\n      mul\n      add\n        /* \"1127/TraceAsset.sol\":1692:1724  return traceList[id][length - 1] */\n      mload(0x40)\n      dup1\n      0x60\n      add\n      0x40\n      mstore\n      swap1\n      dup2\n      0x00\n      dup3\n      add\n      sload\n      dup2\n      mstore\n      0x20\n      add\n      0x01\n      dup3\n      add\n      0x00\n      swap1\n      sload\n      swap1\n      0x0100\n      exp\n      swap1\n      div\n      0xffffffffffffffffffffffffffffffffffffffff\n      and\n      0xffffffffffffffffffffffffffffffffffffffff\n      and\n      0xffffffffffffffffffffffffffffffffffffffff\n      and\n      dup2\n      mstore\n      0x20\n      add\n      0x02\n      dup3\n      add\n      dup1\n      sload\n      tag_148\n      swap1\n      tag_92\n      jump\t// in\n    tag_148:\n      dup1\n      0x1f\n      add\n      0x20\n      dup1\n      swap2\n      div\n      mul\n      0x20\n      add\n      mload(0x40)\n      swap1\n      dup2\n      add\n      0x40\n      mstore\n      dup1\n      swap3\n      swap2\n      swap1\n      dup2\n      dup2\n      mstore\n      0x20\n      add\n      dup3\n      dup1\n      sload\n      tag_149\n      swap1\n      tag_92\n      jump\t// in\n    tag_149:\n      dup1\n      iszero\n      tag_150\n      jumpi\n      dup1\n      0x1f\n      lt\n      tag_151\n      jumpi\n      0x0100\n      dup1\n      dup4\n      sload\n      div\n      mul\n      dup4\n      mstore\n      swap2\n      0x20\n      add\n      swap2\n      jump(tag_150)\n    tag_151:\n      dup3\n      add\n      swap2\n      swap1\n      0x00\n      mstore\n      keccak256(0x00, 0x20)\n      swap1\n    tag_152:\n      dup2\n      sload\n      dup2\n      mstore\n      swap1\n      0x01\n      add\n      swap1\n      0x20\n      add\n      dup1\n      dup4\n      gt\n      tag_152\n      jumpi\n      dup3\n      swap1\n      sub\n      0x1f\n      and\n      dup3\n      add\n      swap2\n    tag_150:\n      pop\n      pop\n      pop\n      pop\n      pop\n      dup2\n      mstore\n      pop\n      pop\n      swap3\n      pop\n      pop\n        /* \"1127/TraceAsset.sol\":1449:1732  function getLast(uint256 id) public view AccessControl.onlyRole(TRACER) returns(DataStruct.AssetTrace memory){... */\n      pop\n      swap2\n      swap1\n      pop\n      jump\t// out\n        /* \"1127/AccessControl.sol\":216:260  bytes32 public constant DEFAULT_ADMIN = 0x00 */\n    tag_57:\n        /* \"1127/AccessControl.sol\":256:260  0x00 */\n      0x00\n        /* \"1127/AccessControl.sol\":216:260  bytes32 public constant DEFAULT_ADMIN = 0x00 */\n      dup1\n      shl\n      dup2\n      jump\t// out\n        /* \"1127/TraceAsset.sol\":651:768  function setTraceRight(address getter) public AccessControl.onlyRole(ADMIN){... */\n    tag_62:\n        /* \"1127/TraceAsset.sol\":194:198  0x00 */\n      0x00\n        /* \"1127/TraceAsset.sol\":720:725  ADMIN */\n      dup1\n      shl\n        /* \"1127/AccessControl.sol\":892:907  checkRole(role) */\n      tag_154\n        /* \"1127/AccessControl.sol\":902:906  role */\n      dup2\n        /* \"1127/AccessControl.sol\":892:901  checkRole */\n      tag_69\n        /* \"1127/AccessControl.sol\":892:907  checkRole(role) */\n      jump\t// in\n    tag_154:\n      pop\n        /* \"1127/TraceAsset.sol\":736:760  grantRole(TRACER,getter) */\n      tag_156\n        /* \"1127/TraceAsset.sol\":238:257  keccak256(\"Tracer\") */\n      0xde578090ec646877a6b707d83ea8139dac8a43d4dea437aa209801b10c1b26b5\n        /* \"1127/TraceAsset.sol\":753:759  getter */\n      dup4\n        /* \"1127/TraceAsset.sol\":736:745  grantRole */\n      tag_30\n        /* \"1127/TraceAsset.sol\":736:760  grantRole(TRACER,getter) */\n      jump\t// in\n    tag_156:\n      pop\n        /* \"1127/TraceAsset.sol\":651:768  function setTraceRight(address getter) public AccessControl.onlyRole(ADMIN){... */\n      pop\n      pop\n      jump\t// out\n        /* \"1127/TraceAsset.sol\":819:1042  function add(uint256 id,DataStruct.AssetTrace memory trace) public AccessControl.onlyRole(TRACER) {... */\n    tag_66:\n        /* \"1127/TraceAsset.sol\":238:257  keccak256(\"Tracer\") */\n      0xde578090ec646877a6b707d83ea8139dac8a43d4dea437aa209801b10c1b26b5\n        /* \"1127/AccessControl.sol\":892:907  checkRole(role) */\n      tag_158\n        /* \"1127/AccessControl.sol\":902:906  role */\n      dup2\n        /* \"1127/AccessControl.sol\":892:901  checkRole */\n      tag_69\n        /* \"1127/AccessControl.sol\":892:907  checkRole(role) */\n      jump\t// in\n    tag_158:\n      pop\n        /* \"1127/TraceAsset.sol\":928:937  traceList */\n      0x01\n        /* \"1127/TraceAsset.sol\":928:941  traceList[id] */\n      0x00\n        /* \"1127/TraceAsset.sol\":938:940  id */\n      dup5\n        /* \"1127/TraceAsset.sol\":928:941  traceList[id] */\n      dup2\n      mstore\n      0x20\n      add\n      swap1\n      dup2\n      mstore\n      0x20\n      add\n      0x00\n      keccak256\n        /* \"1127/TraceAsset.sol\":947:952  trace */\n      dup3\n        /* \"1127/TraceAsset.sol\":928:953  traceList[id].push(trace) */\n      swap1\n      dup1\n      0x01\n      dup2\n      sload\n      add\n      dup1\n      dup3\n      sstore\n      dup1\n      swap2\n      pop\n      pop\n      0x01\n      swap1\n      sub\n      swap1\n      0x00\n      mstore\n      keccak256(0x00, 0x20)\n      swap1\n      0x03\n      mul\n      add\n      0x00\n      swap1\n      swap2\n      swap1\n      swap2\n      swap1\n      swap2\n      pop\n      0x00\n      dup3\n      add\n      mload\n      dup2\n      0x00\n      add\n      sstore\n      0x20\n      dup3\n      add\n      mload\n      dup2\n      0x01\n      add\n      exp(0x0100, 0x00)\n      dup2\n      sload\n      dup2\n      0xffffffffffffffffffffffffffffffffffffffff\n      mul\n      not\n      and\n      swap1\n      dup4\n      0xffffffffffffffffffffffffffffffffffffffff\n      and\n      mul\n      or\n      swap1\n      sstore\n      pop\n      0x40\n      dup3\n      add\n      mload\n      dup2\n      0x02\n      add\n      swap1\n      dup1\n      mload\n      swap1\n      0x20\n      add\n      swap1\n      tag_161\n      swap3\n      swap2\n      swap1\n      tag_162\n      jump\t// in\n    tag_161:\n      pop\n      pop\n      pop\n        /* \"1127/TraceAsset.sol\":984:989  trace */\n      dup2\n        /* \"1127/TraceAsset.sol\":984:998  trace.operator */\n      0x20\n      add\n      mload\n        /* \"1127/TraceAsset.sol\":969:1034  LogAddTrace(id,trace.operator,trace.operateMsg,trace.operateTime) */\n      0xffffffffffffffffffffffffffffffffffffffff\n      and\n        /* \"1127/TraceAsset.sol\":981:983  id */\n      dup4\n        /* \"1127/TraceAsset.sol\":969:1034  LogAddTrace(id,trace.operator,trace.operateMsg,trace.operateTime) */\n      0xbcb9d9e5f8e1f76be41695627bd7173633d37cb1f47d0124f3a008113e6fda23\n        /* \"1127/TraceAsset.sol\":999:1004  trace */\n      dup5\n        /* \"1127/TraceAsset.sol\":999:1015  trace.operateMsg */\n      0x40\n      add\n      mload\n        /* \"1127/TraceAsset.sol\":1016:1021  trace */\n      dup6\n        /* \"1127/TraceAsset.sol\":1016:1033  trace.operateTime */\n      0x00\n      add\n      mload\n        /* \"1127/TraceAsset.sol\":969:1034  LogAddTrace(id,trace.operator,trace.operateMsg,trace.operateTime) */\n      mload(0x40)\n      tag_163\n      swap3\n      swap2\n      swap1\n      tag_164\n      jump\t// in\n    tag_163:\n      mload(0x40)\n      dup1\n      swap2\n      sub\n      swap1\n      log3\n        /* \"1127/TraceAsset.sol\":819:1042  function add(uint256 id,DataStruct.AssetTrace memory trace) public AccessControl.onlyRole(TRACER) {... */\n      pop\n      pop\n      pop\n      jump\t// out\n        /* \"1127/AccessControl.sol\":1057:1245  function checkRole(bytes32 role) public view returns (bool) {... */\n    tag_69:\n        /* \"1127/AccessControl.sol\":1111:1115  bool */\n      0x00\n        /* \"1127/AccessControl.sol\":1133:1158  hasRole(role, msg.sender) */\n      tag_166\n        /* \"1127/AccessControl.sol\":1141:1145  role */\n      dup3\n        /* \"1127/AccessControl.sol\":1147:1157  msg.sender */\n      caller\n        /* \"1127/AccessControl.sol\":1133:1140  hasRole */\n      tag_50\n        /* \"1127/AccessControl.sol\":1133:1158  hasRole(role, msg.sender) */\n      jump\t// in\n    tag_166:\n        /* \"1127/AccessControl.sol\":1128:1216  if (!hasRole(role, msg.sender)) {... */\n      tag_167\n      jumpi\n        /* \"1127/AccessControl.sol\":1175:1204  revert(\"UnAuthorizedAccount\") */\n      mload(0x40)\n      0x08c379a000000000000000000000000000000000000000000000000000000000\n      dup2\n      mstore\n      0x04\n      add\n      tag_168\n      swap1\n      tag_169\n      jump\t// in\n    tag_168:\n      mload(0x40)\n      dup1\n      swap2\n      sub\n      swap1\n      revert\n        /* \"1127/AccessControl.sol\":1128:1216  if (!hasRole(role, msg.sender)) {... */\n    tag_167:\n        /* \"1127/AccessControl.sol\":1233:1237  true */\n      0x01\n        /* \"1127/AccessControl.sol\":1226:1237  return true */\n      swap1\n      pop\n        /* \"1127/AccessControl.sol\":1057:1245  function checkRole(bytes32 role) public view returns (bool) {... */\n      swap2\n      swap1\n      pop\n      jump\t// out\n        /* \"1127/AccessControl.sol\":2246:2586  function revokeRole(bytes32 role, address member)... */\n    tag_73:\n        /* \"1127/AccessControl.sol\":2368:2372  bool */\n      0x00\n        /* \"1127/AccessControl.sol\":2330:2348  getRoleAdmin(role) */\n      tag_170\n        /* \"1127/AccessControl.sol\":2343:2347  role */\n      dup4\n        /* \"1127/AccessControl.sol\":2330:2342  getRoleAdmin */\n      tag_21\n        /* \"1127/AccessControl.sol\":2330:2348  getRoleAdmin(role) */\n      jump\t// in\n    tag_170:\n        /* \"1127/AccessControl.sol\":892:907  checkRole(role) */\n      tag_172\n        /* \"1127/AccessControl.sol\":902:906  role */\n      dup2\n        /* \"1127/AccessControl.sol\":892:901  checkRole */\n      tag_69\n        /* \"1127/AccessControl.sol\":892:907  checkRole(role) */\n      jump\t// in\n    tag_172:\n      pop\n        /* \"1127/AccessControl.sol\":2395:2416  hasRole(role, member) */\n      tag_174\n        /* \"1127/AccessControl.sol\":2403:2407  role */\n      dup5\n        /* \"1127/AccessControl.sol\":2409:2415  member */\n      dup5\n        /* \"1127/AccessControl.sol\":2395:2402  hasRole */\n      tag_50\n        /* \"1127/AccessControl.sol\":2395:2416  hasRole(role, member) */\n      jump\t// in\n    tag_174:\n        /* \"1127/AccessControl.sol\":2390:2457  if (!hasRole(role, member)) {... */\n      tag_175\n      jumpi\n        /* \"1127/AccessControl.sol\":2440:2445  false */\n      0x00\n        /* \"1127/AccessControl.sol\":2433:2445  return false */\n      swap2\n      pop\n      jump(tag_173)\n        /* \"1127/AccessControl.sol\":2390:2457  if (!hasRole(role, member)) {... */\n    tag_175:\n        /* \"1127/AccessControl.sol\":2498:2503  false */\n      0x00\n        /* \"1127/AccessControl.sol\":2467:2472  roles */\n      dup1\n        /* \"1127/AccessControl.sol\":2467:2478  roles[role] */\n      0x00\n        /* \"1127/AccessControl.sol\":2473:2477  role */\n      dup7\n        /* \"1127/AccessControl.sol\":2467:2478  roles[role] */\n      dup2\n      mstore\n      0x20\n      add\n      swap1\n      dup2\n      mstore\n      0x20\n      add\n      0x00\n      keccak256\n        /* \"1127/AccessControl.sol\":2467:2487  roles[role].hasRoles */\n      0x00\n      add\n        /* \"1127/AccessControl.sol\":2467:2495  roles[role].hasRoles[member] */\n      0x00\n        /* \"1127/AccessControl.sol\":2488:2494  member */\n      dup6\n        /* \"1127/AccessControl.sol\":2467:2495  roles[role].hasRoles[member] */\n      0xffffffffffffffffffffffffffffffffffffffff\n      and\n      0xffffffffffffffffffffffffffffffffffffffff\n      and\n      dup2\n      mstore\n      0x20\n      add\n      swap1\n      dup2\n      mstore\n      0x20\n      add\n      0x00\n      keccak256\n      0x00\n        /* \"1127/AccessControl.sol\":2467:2503  roles[role].hasRoles[member] = false */\n      0x0100\n      exp\n      dup2\n      sload\n      dup2\n      0xff\n      mul\n      not\n      and\n      swap1\n      dup4\n      iszero\n      iszero\n      mul\n      or\n      swap1\n      sstore\n      pop\n        /* \"1127/AccessControl.sol\":2545:2555  msg.sender */\n      caller\n        /* \"1127/AccessControl.sol\":2519:2556  RoleRevoked(role, member, msg.sender) */\n      0xffffffffffffffffffffffffffffffffffffffff\n      and\n        /* \"1127/AccessControl.sol\":2537:2543  member */\n      dup4\n        /* \"1127/AccessControl.sol\":2519:2556  RoleRevoked(role, member, msg.sender) */\n      0xffffffffffffffffffffffffffffffffffffffff\n      and\n        /* \"1127/AccessControl.sol\":2531:2535  role */\n      dup6\n        /* \"1127/AccessControl.sol\":2519:2556  RoleRevoked(role, member, msg.sender) */\n      0xf6391f5c32d9c69d2a47ea670b442974b53935d1edc7fd64eb21e047a839171b\n      mload(0x40)\n      mload(0x40)\n      dup1\n      swap2\n      sub\n      swap1\n      log4\n        /* \"1127/AccessControl.sol\":2574:2578  true */\n      0x01\n        /* \"1127/AccessControl.sol\":2567:2578  return true */\n      swap2\n      pop\n        /* \"1127/AccessControl.sol\":918:919  _ */\n    tag_173:\n        /* \"1127/AccessControl.sol\":2246:2586  function revokeRole(bytes32 role, address member)... */\n      pop\n      swap3\n      swap2\n      pop\n      pop\n      jump\t// out\n    tag_98:\n      mload(0x40)\n      dup1\n      0x60\n      add\n      0x40\n      mstore\n      dup1\n      0x00\n      dup2\n      mstore\n      0x20\n      add\n      and(0xffffffffffffffffffffffffffffffffffffffff, 0x00)\n      dup2\n      mstore\n      0x20\n      add\n      0x60\n      dup2\n      mstore\n      pop\n      swap1\n      jump\t// out\n    tag_162:\n      dup3\n      dup1\n      sload\n      tag_176\n      swap1\n      tag_92\n      jump\t// in\n    tag_176:\n      swap1\n      0x00\n      mstore\n      keccak256(0x00, 0x20)\n      swap1\n      0x1f\n      add\n      0x20\n      swap1\n      div\n      dup2\n      add\n      swap3\n      dup3\n      tag_178\n      jumpi\n      0x00\n      dup6\n      sstore\n      jump(tag_177)\n    tag_178:\n      dup3\n      0x1f\n      lt\n      tag_179\n      jumpi\n      dup1\n      mload\n      not(0xff)\n      and\n      dup4\n      dup1\n      add\n      or\n      dup6\n      sstore\n      jump(tag_177)\n    tag_179:\n      dup3\n      dup1\n      add\n      0x01\n      add\n      dup6\n      sstore\n      dup3\n      iszero\n      tag_177\n      jumpi\n      swap2\n      dup3\n      add\n    tag_180:\n      dup3\n      dup2\n      gt\n      iszero\n      tag_181\n      jumpi\n      dup3\n      mload\n      dup3\n      sstore\n      swap2\n      0x20\n      add\n      swap2\n      swap1\n      0x01\n      add\n      swap1\n      jump(tag_180)\n    tag_181:\n    tag_177:\n      pop\n      swap1\n      pop\n      tag_182\n      swap2\n      swap1\n      tag_183\n      jump\t// in\n    tag_182:\n      pop\n      swap1\n      jump\t// out\n    tag_183:\n    tag_184:\n      dup1\n      dup3\n      gt\n      iszero\n      tag_185\n      jumpi\n      0x00\n      dup2\n      0x00\n      swap1\n      sstore\n      pop\n      0x01\n      add\n      jump(tag_184)\n    tag_185:\n      pop\n      swap1\n      jump\t// out\n        /* \"#utility.yul\":7:82   */\n    tag_186:\n        /* \"#utility.yul\":40:46   */\n      0x00\n        /* \"#utility.yul\":73:75   */\n      0x40\n        /* \"#utility.yul\":67:76   */\n      mload\n        /* \"#utility.yul\":57:76   */\n      swap1\n      pop\n        /* \"#utility.yul\":7:82   */\n      swap1\n      jump\t// out\n        /* \"#utility.yul\":88:205   */\n    tag_187:\n        /* \"#utility.yul\":197:198   */\n      0x00\n        /* \"#utility.yul\":194:195   */\n      dup1\n        /* \"#utility.yul\":187:199   */\n      revert\n        /* \"#utility.yul\":211:328   */\n    tag_188:\n        /* \"#utility.yul\":320:321   */\n      0x00\n        /* \"#utility.yul\":317:318   */\n      dup1\n        /* \"#utility.yul\":310:322   */\n      revert\n        /* \"#utility.yul\":334:411   */\n    tag_189:\n        /* \"#utility.yul\":371:378   */\n      0x00\n        /* \"#utility.yul\":400:405   */\n      dup2\n        /* \"#utility.yul\":389:405   */\n      swap1\n      pop\n        /* \"#utility.yul\":334:411   */\n      swap2\n      swap1\n      pop\n      jump\t// out\n        /* \"#utility.yul\":417:539   */\n    tag_190:\n        /* \"#utility.yul\":490:514   */\n      tag_251\n        /* \"#utility.yul\":508:513   */\n      dup2\n        /* \"#utility.yul\":490:514   */\n      tag_189\n      jump\t// in\n    tag_251:\n        /* \"#utility.yul\":483:488   */\n      dup2\n        /* \"#utility.yul\":480:515   */\n      eq\n        /* \"#utility.yul\":470:533   */\n      tag_252\n      jumpi\n        /* \"#utility.yul\":529:530   */\n      0x00\n        /* \"#utility.yul\":526:527   */\n      dup1\n        /* \"#utility.yul\":519:531   */\n      revert\n        /* \"#utility.yul\":470:533   */\n    tag_252:\n        /* \"#utility.yul\":417:539   */\n      pop\n      jump\t// out\n        /* \"#utility.yul\":545:684   */\n    tag_191:\n        /* \"#utility.yul\":591:596   */\n      0x00\n        /* \"#utility.yul\":629:635   */\n      dup2\n        /* \"#utility.yul\":616:636   */\n      calldataload\n        /* \"#utility.yul\":607:636   */\n      swap1\n      pop\n        /* \"#utility.yul\":645:678   */\n      tag_254\n        /* \"#utility.yul\":672:677   */\n      dup2\n        /* \"#utility.yul\":645:678   */\n      tag_190\n      jump\t// in\n    tag_254:\n        /* \"#utility.yul\":545:684   */\n      swap3\n      swap2\n      pop\n      pop\n      jump\t// out\n        /* \"#utility.yul\":690:1019   */\n    tag_20:\n        /* \"#utility.yul\":749:755   */\n      0x00\n        /* \"#utility.yul\":798:800   */\n      0x20\n        /* \"#utility.yul\":786:795   */\n      dup3\n        /* \"#utility.yul\":777:784   */\n      dup5\n        /* \"#utility.yul\":773:796   */\n      sub\n        /* \"#utility.yul\":769:801   */\n      slt\n        /* \"#utility.yul\":766:885   */\n      iszero\n      tag_256\n      jumpi\n        /* \"#utility.yul\":804:883   */\n      tag_257\n      tag_187\n      jump\t// in\n    tag_257:\n        /* \"#utility.yul\":766:885   */\n    tag_256:\n        /* \"#utility.yul\":924:925   */\n      0x00\n        /* \"#utility.yul\":949:1002   */\n      tag_258\n        /* \"#utility.yul\":994:1001   */\n      dup5\n        /* \"#utility.yul\":985:991   */\n      dup3\n        /* \"#utility.yul\":974:983   */\n      dup6\n        /* \"#utility.yul\":970:992   */\n      add\n        /* \"#utility.yul\":949:1002   */\n      tag_191\n      jump\t// in\n    tag_258:\n        /* \"#utility.yul\":939:1002   */\n      swap2\n      pop\n        /* \"#utility.yul\":895:1012   */\n      pop\n        /* \"#utility.yul\":690:1019   */\n      swap3\n      swap2\n      pop\n      pop\n      jump\t// out\n        /* \"#utility.yul\":1025:1143   */\n    tag_192:\n        /* \"#utility.yul\":1112:1136   */\n      tag_260\n        /* \"#utility.yul\":1130:1135   */\n      dup2\n        /* \"#utility.yul\":1112:1136   */\n      tag_189\n      jump\t// in\n    tag_260:\n        /* \"#utility.yul\":1107:1110   */\n      dup3\n        /* \"#utility.yul\":1100:1137   */\n      mstore\n        /* \"#utility.yul\":1025:1143   */\n      pop\n      pop\n      jump\t// out\n        /* \"#utility.yul\":1149:1371   */\n    tag_23:\n        /* \"#utility.yul\":1242:1246   */\n      0x00\n        /* \"#utility.yul\":1280:1282   */\n      0x20\n        /* \"#utility.yul\":1269:1278   */\n      dup3\n        /* \"#utility.yul\":1265:1283   */\n      add\n        /* \"#utility.yul\":1257:1283   */\n      swap1\n      pop\n        /* \"#utility.yul\":1293:1364   */\n      tag_262\n        /* \"#utility.yul\":1361:1362   */\n      0x00\n        /* \"#utility.yul\":1350:1359   */\n      dup4\n        /* \"#utility.yul\":1346:1363   */\n      add\n        /* \"#utility.yul\":1337:1343   */\n      dup5\n        /* \"#utility.yul\":1293:1364   */\n      tag_192\n      jump\t// in\n    tag_262:\n        /* \"#utility.yul\":1149:1371   */\n      swap3\n      swap2\n      pop\n      pop\n      jump\t// out\n        /* \"#utility.yul\":1377:1503   */\n    tag_193:\n        /* \"#utility.yul\":1414:1421   */\n      0x00\n        /* \"#utility.yul\":1454:1496   */\n      0xffffffffffffffffffffffffffffffffffffffff\n        /* \"#utility.yul\":1447:1452   */\n      dup3\n        /* \"#utility.yul\":1443:1497   */\n      and\n        /* \"#utility.yul\":1432:1497   */\n      swap1\n      pop\n        /* \"#utility.yul\":1377:1503   */\n      swap2\n      swap1\n      pop\n      jump\t// out\n        /* \"#utility.yul\":1509:1605   */\n    tag_194:\n        /* \"#utility.yul\":1546:1553   */\n      0x00\n        /* \"#utility.yul\":1575:1599   */\n      tag_265\n        /* \"#utility.yul\":1593:1598   */\n      dup3\n        /* \"#utility.yul\":1575:1599   */\n      tag_193\n      jump\t// in\n    tag_265:\n        /* \"#utility.yul\":1564:1599   */\n      swap1\n      pop\n        /* \"#utility.yul\":1509:1605   */\n      swap2\n      swap1\n      pop\n      jump\t// out\n        /* \"#utility.yul\":1611:1733   */\n    tag_195:\n        /* \"#utility.yul\":1684:1708   */\n      tag_267\n        /* \"#utility.yul\":1702:1707   */\n      dup2\n        /* \"#utility.yul\":1684:1708   */\n      tag_194\n      jump\t// in\n    tag_267:\n        /* \"#utility.yul\":1677:1682   */\n      dup2\n        /* \"#utility.yul\":1674:1709   */\n      eq\n        /* \"#utility.yul\":1664:1727   */\n      tag_268\n      jumpi\n        /* \"#utility.yul\":1723:1724   */\n      0x00\n        /* \"#utility.yul\":1720:1721   */\n      dup1\n        /* \"#utility.yul\":1713:1725   */\n      revert\n        /* \"#utility.yul\":1664:1727   */\n    tag_268:\n        /* \"#utility.yul\":1611:1733   */\n      pop\n      jump\t// out\n        /* \"#utility.yul\":1739:1878   */\n    tag_196:\n        /* \"#utility.yul\":1785:1790   */\n      0x00\n        /* \"#utility.yul\":1823:1829   */\n      dup2\n        /* \"#utility.yul\":1810:1830   */\n      calldataload\n        /* \"#utility.yul\":1801:1830   */\n      swap1\n      pop\n        /* \"#utility.yul\":1839:1872   */\n      tag_270\n        /* \"#utility.yul\":1866:1871   */\n      dup2\n        /* \"#utility.yul\":1839:1872   */\n      tag_195\n      jump\t// in\n    tag_270:\n        /* \"#utility.yul\":1739:1878   */\n      swap3\n      swap2\n      pop\n      pop\n      jump\t// out\n        /* \"#utility.yul\":1884:2358   */\n    tag_29:\n        /* \"#utility.yul\":1952:1958   */\n      0x00\n        /* \"#utility.yul\":1960:1966   */\n      dup1\n        /* \"#utility.yul\":2009:2011   */\n      0x40\n        /* \"#utility.yul\":1997:2006   */\n      dup4\n        /* \"#utility.yul\":1988:1995   */\n      dup6\n        /* \"#utility.yul\":1984:2007   */\n      sub\n        /* \"#utility.yul\":1980:2012   */\n      slt\n        /* \"#utility.yul\":1977:2096   */\n      iszero\n      tag_272\n      jumpi\n        /* \"#utility.yul\":2015:2094   */\n      tag_273\n      tag_187\n      jump\t// in\n    tag_273:\n        /* \"#utility.yul\":1977:2096   */\n    tag_272:\n        /* \"#utility.yul\":2135:2136   */\n      0x00\n        /* \"#utility.yul\":2160:2213   */\n      tag_274\n        /* \"#utility.yul\":2205:2212   */\n      dup6\n        /* \"#utility.yul\":2196:2202   */\n      dup3\n        /* \"#utility.yul\":2185:2194   */\n      dup7\n        /* \"#utility.yul\":2181:2203   */\n      add\n        /* \"#utility.yul\":2160:2213   */\n      tag_191\n      jump\t// in\n    tag_274:\n        /* \"#utility.yul\":2150:2213   */\n      swap3\n      pop\n        /* \"#utility.yul\":2106:2223   */\n      pop\n        /* \"#utility.yul\":2262:2264   */\n      0x20\n        /* \"#utility.yul\":2288:2341   */\n      tag_275\n        /* \"#utility.yul\":2333:2340   */\n      dup6\n        /* \"#utility.yul\":2324:2330   */\n      dup3\n        /* \"#utility.yul\":2313:2322   */\n      dup7\n        /* \"#utility.yul\":2309:2331   */\n      add\n        /* \"#utility.yul\":2288:2341   */\n      tag_196\n      jump\t// in\n    tag_275:\n        /* \"#utility.yul\":2278:2341   */\n      swap2\n      pop\n        /* \"#utility.yul\":2233:2351   */\n      pop\n        /* \"#utility.yul\":1884:2358   */\n      swap3\n      pop\n      swap3\n      swap1\n      pop\n      jump\t// out\n        /* \"#utility.yul\":2364:2454   */\n    tag_197:\n        /* \"#utility.yul\":2398:2405   */\n      0x00\n        /* \"#utility.yul\":2441:2446   */\n      dup2\n        /* \"#utility.yul\":2434:2447   */\n      iszero\n        /* \"#utility.yul\":2427:2448   */\n      iszero\n        /* \"#utility.yul\":2416:2448   */\n      swap1\n      pop\n        /* \"#utility.yul\":2364:2454   */\n      swap2\n      swap1\n      pop\n      jump\t// out\n        /* \"#utility.yul\":2460:2569   */\n    tag_198:\n        /* \"#utility.yul\":2541:2562   */\n      tag_278\n        /* \"#utility.yul\":2556:2561   */\n      dup2\n        /* \"#utility.yul\":2541:2562   */\n      tag_197\n      jump\t// in\n    tag_278:\n        /* \"#utility.yul\":2536:2539   */\n      dup3\n        /* \"#utility.yul\":2529:2563   */\n      mstore\n        /* \"#utility.yul\":2460:2569   */\n      pop\n      pop\n      jump\t// out\n        /* \"#utility.yul\":2575:2785   */\n    tag_32:\n        /* \"#utility.yul\":2662:2666   */\n      0x00\n        /* \"#utility.yul\":2700:2702   */\n      0x20\n        /* \"#utility.yul\":2689:2698   */\n      dup3\n        /* \"#utility.yul\":2685:2703   */\n      add\n        /* \"#utility.yul\":2677:2703   */\n      swap1\n      pop\n        /* \"#utility.yul\":2713:2778   */\n      tag_280\n        /* \"#utility.yul\":2775:2776   */\n      0x00\n        /* \"#utility.yul\":2764:2773   */\n      dup4\n        /* \"#utility.yul\":2760:2777   */\n      add\n        /* \"#utility.yul\":2751:2757   */\n      dup5\n        /* \"#utility.yul\":2713:2778   */\n      tag_198\n      jump\t// in\n    tag_280:\n        /* \"#utility.yul\":2575:2785   */\n      swap3\n      swap2\n      pop\n      pop\n      jump\t// out\n        /* \"#utility.yul\":2791:2868   */\n    tag_199:\n        /* \"#utility.yul\":2828:2835   */\n      0x00\n        /* \"#utility.yul\":2857:2862   */\n      dup2\n        /* \"#utility.yul\":2846:2862   */\n      swap1\n      pop\n        /* \"#utility.yul\":2791:2868   */\n      swap2\n      swap1\n      pop\n      jump\t// out\n        /* \"#utility.yul\":2874:2996   */\n    tag_200:\n        /* \"#utility.yul\":2947:2971   */\n      tag_283\n        /* \"#utility.yul\":2965:2970   */\n      dup2\n        /* \"#utility.yul\":2947:2971   */\n      tag_199\n      jump\t// in\n    tag_283:\n        /* \"#utility.yul\":2940:2945   */\n      dup2\n        /* \"#utility.yul\":2937:2972   */\n      eq\n        /* \"#utility.yul\":2927:2990   */\n      tag_284\n      jumpi\n        /* \"#utility.yul\":2986:2987   */\n      0x00\n        /* \"#utility.yul\":2983:2984   */\n      dup1\n        /* \"#utility.yul\":2976:2988   */\n      revert\n        /* \"#utility.yul\":2927:2990   */\n    tag_284:\n        /* \"#utility.yul\":2874:2996   */\n      pop\n      jump\t// out\n        /* \"#utility.yul\":3002:3141   */\n    tag_201:\n        /* \"#utility.yul\":3048:3053   */\n      0x00\n        /* \"#utility.yul\":3086:3092   */\n      dup2\n        /* \"#utility.yul\":3073:3093   */\n      calldataload\n        /* \"#utility.yul\":3064:3093   */\n      swap1\n      pop\n        /* \"#utility.yul\":3102:3135   */\n      tag_286\n        /* \"#utility.yul\":3129:3134   */\n      dup2\n        /* \"#utility.yul\":3102:3135   */\n      tag_200\n      jump\t// in\n    tag_286:\n        /* \"#utility.yul\":3002:3141   */\n      swap3\n      swap2\n      pop\n      pop\n      jump\t// out\n        /* \"#utility.yul\":3147:3476   */\n    tag_35:\n        /* \"#utility.yul\":3206:3212   */\n      0x00\n        /* \"#utility.yul\":3255:3257   */\n      0x20\n        /* \"#utility.yul\":3243:3252   */\n      dup3\n        /* \"#utility.yul\":3234:3241   */\n      dup5\n        /* \"#utility.yul\":3230:3253   */\n      sub\n        /* \"#utility.yul\":3226:3258   */\n      slt\n        /* \"#utility.yul\":3223:3342   */\n      iszero\n      tag_288\n      jumpi\n        /* \"#utility.yul\":3261:3340   */\n      tag_289\n      tag_187\n      jump\t// in\n    tag_289:\n        /* \"#utility.yul\":3223:3342   */\n    tag_288:\n        /* \"#utility.yul\":3381:3382   */\n      0x00\n        /* \"#utility.yul\":3406:3459   */\n      tag_290\n        /* \"#utility.yul\":3451:3458   */\n      dup5\n        /* \"#utility.yul\":3442:3448   */\n      dup3\n        /* \"#utility.yul\":3431:3440   */\n      dup6\n        /* \"#utility.yul\":3427:3449   */\n      add\n        /* \"#utility.yul\":3406:3459   */\n      tag_201\n      jump\t// in\n    tag_290:\n        /* \"#utility.yul\":3396:3459   */\n      swap2\n      pop\n        /* \"#utility.yul\":3352:3469   */\n      pop\n        /* \"#utility.yul\":3147:3476   */\n      swap3\n      swap2\n      pop\n      pop\n      jump\t// out\n        /* \"#utility.yul\":3482:3623   */\n    tag_202:\n        /* \"#utility.yul\":3576:3582   */\n      0x00\n        /* \"#utility.yul\":3610:3615   */\n      dup2\n        /* \"#utility.yul\":3604:3616   */\n      mload\n        /* \"#utility.yul\":3594:3616   */\n      swap1\n      pop\n        /* \"#utility.yul\":3482:3623   */\n      swap2\n      swap1\n      pop\n      jump\t// out\n        /* \"#utility.yul\":3629:3840   */\n    tag_203:\n        /* \"#utility.yul\":3755:3766   */\n      0x00\n        /* \"#utility.yul\":3789:3795   */\n      dup3\n        /* \"#utility.yul\":3784:3787   */\n      dup3\n        /* \"#utility.yul\":3777:3796   */\n      mstore\n        /* \"#utility.yul\":3829:3833   */\n      0x20\n        /* \"#utility.yul\":3824:3827   */\n      dup3\n        /* \"#utility.yul\":3820:3834   */\n      add\n        /* \"#utility.yul\":3805:3834   */\n      swap1\n      pop\n        /* \"#utility.yul\":3629:3840   */\n      swap3\n      swap2\n      pop\n      pop\n      jump\t// out\n        /* \"#utility.yul\":3846:4005   */\n    tag_204:\n        /* \"#utility.yul\":3940:3944   */\n      0x00\n        /* \"#utility.yul\":3963:3966   */\n      dup2\n        /* \"#utility.yul\":3955:3966   */\n      swap1\n      pop\n        /* \"#utility.yul\":3993:3997   */\n      0x20\n        /* \"#utility.yul\":3988:3991   */\n      dup3\n        /* \"#utility.yul\":3984:3998   */\n      add\n        /* \"#utility.yul\":3976:3998   */\n      swap1\n      pop\n        /* \"#utility.yul\":3846:4005   */\n      swap2\n      swap1\n      pop\n      jump\t// out\n        /* \"#utility.yul\":4011:4119   */\n    tag_205:\n        /* \"#utility.yul\":4088:4112   */\n      tag_295\n        /* \"#utility.yul\":4106:4111   */\n      dup2\n        /* \"#utility.yul\":4088:4112   */\n      tag_199\n      jump\t// in\n    tag_295:\n        /* \"#utility.yul\":4083:4086   */\n      dup3\n        /* \"#utility.yul\":4076:4113   */\n      mstore\n        /* \"#utility.yul\":4011:4119   */\n      pop\n      pop\n      jump\t// out\n        /* \"#utility.yul\":4125:4233   */\n    tag_206:\n        /* \"#utility.yul\":4202:4226   */\n      tag_297\n        /* \"#utility.yul\":4220:4225   */\n      dup2\n        /* \"#utility.yul\":4202:4226   */\n      tag_194\n      jump\t// in\n    tag_297:\n        /* \"#utility.yul\":4197:4200   */\n      dup3\n        /* \"#utility.yul\":4190:4227   */\n      mstore\n        /* \"#utility.yul\":4125:4233   */\n      pop\n      pop\n      jump\t// out\n        /* \"#utility.yul\":4239:4338   */\n    tag_207:\n        /* \"#utility.yul\":4291:4297   */\n      0x00\n        /* \"#utility.yul\":4325:4330   */\n      dup2\n        /* \"#utility.yul\":4319:4331   */\n      mload\n        /* \"#utility.yul\":4309:4331   */\n      swap1\n      pop\n        /* \"#utility.yul\":4239:4338   */\n      swap2\n      swap1\n      pop\n      jump\t// out\n        /* \"#utility.yul\":4344:4503   */\n    tag_208:\n        /* \"#utility.yul\":4418:4429   */\n      0x00\n        /* \"#utility.yul\":4452:4458   */\n      dup3\n        /* \"#utility.yul\":4447:4450   */\n      dup3\n        /* \"#utility.yul\":4440:4459   */\n      mstore\n        /* \"#utility.yul\":4492:4496   */\n      0x20\n        /* \"#utility.yul\":4487:4490   */\n      dup3\n        /* \"#utility.yul\":4483:4497   */\n      add\n        /* \"#utility.yul\":4468:4497   */\n      swap1\n      pop\n        /* \"#utility.yul\":4344:4503   */\n      swap3\n      swap2\n      pop\n      pop\n      jump\t// out\n        /* \"#utility.yul\":4509:4816   */\n    tag_209:\n        /* \"#utility.yul\":4577:4578   */\n      0x00\n        /* \"#utility.yul\":4587:4700   */\n    tag_301:\n        /* \"#utility.yul\":4601:4607   */\n      dup4\n        /* \"#utility.yul\":4598:4599   */\n      dup2\n        /* \"#utility.yul\":4595:4608   */\n      lt\n        /* \"#utility.yul\":4587:4700   */\n      iszero\n      tag_303\n      jumpi\n        /* \"#utility.yul\":4686:4687   */\n      dup1\n        /* \"#utility.yul\":4681:4684   */\n      dup3\n        /* \"#utility.yul\":4677:4688   */\n      add\n        /* \"#utility.yul\":4671:4689   */\n      mload\n        /* \"#utility.yul\":4667:4668   */\n      dup2\n        /* \"#utility.yul\":4662:4665   */\n      dup5\n        /* \"#utility.yul\":4658:4669   */\n      add\n        /* \"#utility.yul\":4651:4690   */\n      mstore\n        /* \"#utility.yul\":4623:4625   */\n      0x20\n        /* \"#utility.yul\":4620:4621   */\n      dup2\n        /* \"#utility.yul\":4616:4626   */\n      add\n        /* \"#utility.yul\":4611:4626   */\n      swap1\n      pop\n        /* \"#utility.yul\":4587:4700   */\n      jump(tag_301)\n    tag_303:\n        /* \"#utility.yul\":4718:4724   */\n      dup4\n        /* \"#utility.yul\":4715:4716   */\n      dup2\n        /* \"#utility.yul\":4712:4725   */\n      gt\n        /* \"#utility.yul\":4709:4810   */\n      iszero\n      tag_304\n      jumpi\n        /* \"#utility.yul\":4798:4799   */\n      0x00\n        /* \"#utility.yul\":4789:4795   */\n      dup5\n        /* \"#utility.yul\":4784:4787   */\n      dup5\n        /* \"#utility.yul\":4780:4796   */\n      add\n        /* \"#utility.yul\":4773:4800   */\n      mstore\n        /* \"#utility.yul\":4709:4810   */\n    tag_304:\n        /* \"#utility.yul\":4558:4816   */\n      pop\n        /* \"#utility.yul\":4509:4816   */\n      pop\n      pop\n      pop\n      jump\t// out\n        /* \"#utility.yul\":4822:4924   */\n    tag_210:\n        /* \"#utility.yul\":4863:4869   */\n      0x00\n        /* \"#utility.yul\":4914:4916   */\n      0x1f\n        /* \"#utility.yul\":4910:4917   */\n      not\n        /* \"#utility.yul\":4905:4907   */\n      0x1f\n        /* \"#utility.yul\":4898:4903   */\n      dup4\n        /* \"#utility.yul\":4894:4908   */\n      add\n        /* \"#utility.yul\":4890:4918   */\n      and\n        /* \"#utility.yul\":4880:4918   */\n      swap1\n      pop\n        /* \"#utility.yul\":4822:4924   */\n      swap2\n      swap1\n      pop\n      jump\t// out\n        /* \"#utility.yul\":4930:5274   */\n    tag_211:\n        /* \"#utility.yul\":5008:5011   */\n      0x00\n        /* \"#utility.yul\":5036:5075   */\n      tag_307\n        /* \"#utility.yul\":5069:5074   */\n      dup3\n        /* \"#utility.yul\":5036:5075   */\n      tag_207\n      jump\t// in\n    tag_307:\n        /* \"#utility.yul\":5091:5152   */\n      tag_308\n        /* \"#utility.yul\":5145:5151   */\n      dup2\n        /* \"#utility.yul\":5140:5143   */\n      dup6\n        /* \"#utility.yul\":5091:5152   */\n      tag_208\n      jump\t// in\n    tag_308:\n        /* \"#utility.yul\":5084:5152   */\n      swap4\n      pop\n        /* \"#utility.yul\":5161:5213   */\n      tag_309\n        /* \"#utility.yul\":5206:5212   */\n      dup2\n        /* \"#utility.yul\":5201:5204   */\n      dup6\n        /* \"#utility.yul\":5194:5198   */\n      0x20\n        /* \"#utility.yul\":5187:5192   */\n      dup7\n        /* \"#utility.yul\":5183:5199   */\n      add\n        /* \"#utility.yul\":5161:5213   */\n      tag_209\n      jump\t// in\n    tag_309:\n        /* \"#utility.yul\":5238:5267   */\n      tag_310\n        /* \"#utility.yul\":5260:5266   */\n      dup2\n        /* \"#utility.yul\":5238:5267   */\n      tag_210\n      jump\t// in\n    tag_310:\n        /* \"#utility.yul\":5233:5236   */\n      dup5\n        /* \"#utility.yul\":5229:5268   */\n      add\n        /* \"#utility.yul\":5222:5268   */\n      swap2\n      pop\n        /* \"#utility.yul\":5012:5274   */\n      pop\n        /* \"#utility.yul\":4930:5274   */\n      swap3\n      swap2\n      pop\n      pop\n      jump\t// out\n        /* \"#utility.yul\":5348:6139   */\n    tag_212:\n        /* \"#utility.yul\":5461:5464   */\n      0x00\n        /* \"#utility.yul\":5497:5501   */\n      0x60\n        /* \"#utility.yul\":5492:5495   */\n      dup4\n        /* \"#utility.yul\":5488:5502   */\n      add\n        /* \"#utility.yul\":5591:5595   */\n      0x00\n        /* \"#utility.yul\":5584:5589   */\n      dup4\n        /* \"#utility.yul\":5580:5596   */\n      add\n        /* \"#utility.yul\":5574:5597   */\n      mload\n        /* \"#utility.yul\":5610:5673   */\n      tag_312\n        /* \"#utility.yul\":5667:5671   */\n      0x00\n        /* \"#utility.yul\":5662:5665   */\n      dup7\n        /* \"#utility.yul\":5658:5672   */\n      add\n        /* \"#utility.yul\":5644:5656   */\n      dup3\n        /* \"#utility.yul\":5610:5673   */\n      tag_205\n      jump\t// in\n    tag_312:\n        /* \"#utility.yul\":5512:5683   */\n      pop\n        /* \"#utility.yul\":5769:5773   */\n      0x20\n        /* \"#utility.yul\":5762:5767   */\n      dup4\n        /* \"#utility.yul\":5758:5774   */\n      add\n        /* \"#utility.yul\":5752:5775   */\n      mload\n        /* \"#utility.yul\":5788:5851   */\n      tag_313\n        /* \"#utility.yul\":5845:5849   */\n      0x20\n        /* \"#utility.yul\":5840:5843   */\n      dup7\n        /* \"#utility.yul\":5836:5850   */\n      add\n        /* \"#utility.yul\":5822:5834   */\n      dup3\n        /* \"#utility.yul\":5788:5851   */\n      tag_206\n      jump\t// in\n    tag_313:\n        /* \"#utility.yul\":5693:5861   */\n      pop\n        /* \"#utility.yul\":5949:5953   */\n      0x40\n        /* \"#utility.yul\":5942:5947   */\n      dup4\n        /* \"#utility.yul\":5938:5954   */\n      add\n        /* \"#utility.yul\":5932:5955   */\n      mload\n        /* \"#utility.yul\":6002:6005   */\n      dup5\n        /* \"#utility.yul\":5996:6000   */\n      dup3\n        /* \"#utility.yul\":5992:6006   */\n      sub\n        /* \"#utility.yul\":5985:5989   */\n      0x40\n        /* \"#utility.yul\":5980:5983   */\n      dup7\n        /* \"#utility.yul\":5976:5990   */\n      add\n        /* \"#utility.yul\":5969:6007   */\n      mstore\n        /* \"#utility.yul\":6028:6101   */\n      tag_314\n        /* \"#utility.yul\":6096:6100   */\n      dup3\n        /* \"#utility.yul\":6082:6094   */\n      dup3\n        /* \"#utility.yul\":6028:6101   */\n      tag_211\n      jump\t// in\n    tag_314:\n        /* \"#utility.yul\":6020:6101   */\n      swap2\n      pop\n        /* \"#utility.yul\":5871:6112   */\n      pop\n        /* \"#utility.yul\":6129:6133   */\n      dup1\n        /* \"#utility.yul\":6122:6133   */\n      swap2\n      pop\n        /* \"#utility.yul\":5466:6139   */\n      pop\n        /* \"#utility.yul\":5348:6139   */\n      swap3\n      swap2\n      pop\n      pop\n      jump\t// out\n        /* \"#utility.yul\":6145:6409   */\n    tag_213:\n        /* \"#utility.yul\":6268:6278   */\n      0x00\n        /* \"#utility.yul\":6303:6403   */\n      tag_316\n        /* \"#utility.yul\":6399:6402   */\n      dup4\n        /* \"#utility.yul\":6391:6397   */\n      dup4\n        /* \"#utility.yul\":6303:6403   */\n      tag_212\n      jump\t// in\n    tag_316:\n        /* \"#utility.yul\":6289:6403   */\n      swap1\n      pop\n        /* \"#utility.yul\":6145:6409   */\n      swap3\n      swap2\n      pop\n      pop\n      jump\t// out\n        /* \"#utility.yul\":6415:6555   */\n    tag_214:\n        /* \"#utility.yul\":6512:6516   */\n      0x00\n        /* \"#utility.yul\":6544:6548   */\n      0x20\n        /* \"#utility.yul\":6539:6542   */\n      dup3\n        /* \"#utility.yul\":6535:6549   */\n      add\n        /* \"#utility.yul\":6527:6549   */\n      swap1\n      pop\n        /* \"#utility.yul\":6415:6555   */\n      swap2\n      swap1\n      pop\n      jump\t// out\n        /* \"#utility.yul\":6633:7760   */\n    tag_215:\n        /* \"#utility.yul\":6806:6809   */\n      0x00\n        /* \"#utility.yul\":6835:6916   */\n      tag_319\n        /* \"#utility.yul\":6910:6915   */\n      dup3\n        /* \"#utility.yul\":6835:6916   */\n      tag_202\n      jump\t// in\n    tag_319:\n        /* \"#utility.yul\":6932:7045   */\n      tag_320\n        /* \"#utility.yul\":7038:7044   */\n      dup2\n        /* \"#utility.yul\":7033:7036   */\n      dup6\n        /* \"#utility.yul\":6932:7045   */\n      tag_203\n      jump\t// in\n    tag_320:\n        /* \"#utility.yul\":6925:7045   */\n      swap4\n      pop\n        /* \"#utility.yul\":7071:7074   */\n      dup4\n        /* \"#utility.yul\":7116:7120   */\n      0x20\n        /* \"#utility.yul\":7108:7114   */\n      dup3\n        /* \"#utility.yul\":7104:7121   */\n      mul\n        /* \"#utility.yul\":7099:7102   */\n      dup6\n        /* \"#utility.yul\":7095:7122   */\n      add\n        /* \"#utility.yul\":7146:7229   */\n      tag_321\n        /* \"#utility.yul\":7223:7228   */\n      dup6\n        /* \"#utility.yul\":7146:7229   */\n      tag_204\n      jump\t// in\n    tag_321:\n        /* \"#utility.yul\":7252:7259   */\n      dup1\n        /* \"#utility.yul\":7283:7284   */\n      0x00\n        /* \"#utility.yul\":7268:7715   */\n    tag_322:\n        /* \"#utility.yul\":7293:7299   */\n      dup6\n        /* \"#utility.yul\":7290:7291   */\n      dup2\n        /* \"#utility.yul\":7287:7300   */\n      lt\n        /* \"#utility.yul\":7268:7715   */\n      iszero\n      tag_324\n      jumpi\n        /* \"#utility.yul\":7364:7373   */\n      dup5\n        /* \"#utility.yul\":7358:7362   */\n      dup5\n        /* \"#utility.yul\":7354:7374   */\n      sub\n        /* \"#utility.yul\":7349:7352   */\n      dup10\n        /* \"#utility.yul\":7342:7375   */\n      mstore\n        /* \"#utility.yul\":7415:7421   */\n      dup2\n        /* \"#utility.yul\":7409:7422   */\n      mload\n        /* \"#utility.yul\":7443:7561   */\n      tag_325\n        /* \"#utility.yul\":7556:7560   */\n      dup6\n        /* \"#utility.yul\":7541:7554   */\n      dup3\n        /* \"#utility.yul\":7443:7561   */\n      tag_213\n      jump\t// in\n    tag_325:\n        /* \"#utility.yul\":7435:7561   */\n      swap5\n      pop\n        /* \"#utility.yul\":7584:7671   */\n      tag_326\n        /* \"#utility.yul\":7664:7670   */\n      dup4\n        /* \"#utility.yul\":7584:7671   */\n      tag_214\n      jump\t// in\n    tag_326:\n        /* \"#utility.yul\":7574:7671   */\n      swap3\n      pop\n        /* \"#utility.yul\":7700:7704   */\n      0x20\n        /* \"#utility.yul\":7695:7698   */\n      dup11\n        /* \"#utility.yul\":7691:7705   */\n      add\n        /* \"#utility.yul\":7684:7705   */\n      swap10\n      pop\n        /* \"#utility.yul\":7328:7715   */\n      pop\n        /* \"#utility.yul\":7315:7316   */\n      0x01\n        /* \"#utility.yul\":7312:7313   */\n      dup2\n        /* \"#utility.yul\":7308:7317   */\n      add\n        /* \"#utility.yul\":7303:7317   */\n      swap1\n      pop\n        /* \"#utility.yul\":7268:7715   */\n      jump(tag_322)\n    tag_324:\n        /* \"#utility.yul\":7272:7286   */\n      pop\n        /* \"#utility.yul\":7731:7735   */\n      dup3\n        /* \"#utility.yul\":7724:7735   */\n      swap8\n      pop\n        /* \"#utility.yul\":7751:7754   */\n      dup8\n        /* \"#utility.yul\":7744:7754   */\n      swap6\n      pop\n        /* \"#utility.yul\":6811:7760   */\n      pop\n      pop\n      pop\n      pop\n      pop\n        /* \"#utility.yul\":6633:7760   */\n      swap3\n      swap2\n      pop\n      pop\n      jump\t// out\n        /* \"#utility.yul\":7766:8247   */\n    tag_38:\n        /* \"#utility.yul\":7963:7967   */\n      0x00\n        /* \"#utility.yul\":8001:8003   */\n      0x20\n        /* \"#utility.yul\":7990:7999   */\n      dup3\n        /* \"#utility.yul\":7986:8004   */\n      add\n        /* \"#utility.yul\":7978:8004   */\n      swap1\n      pop\n        /* \"#utility.yul\":8050:8059   */\n      dup2\n        /* \"#utility.yul\":8044:8048   */\n      dup2\n        /* \"#utility.yul\":8040:8060   */\n      sub\n        /* \"#utility.yul\":8036:8037   */\n      0x00\n        /* \"#utility.yul\":8025:8034   */\n      dup4\n        /* \"#utility.yul\":8021:8038   */\n      add\n        /* \"#utility.yul\":8014:8061   */\n      mstore\n        /* \"#utility.yul\":8078:8240   */\n      tag_328\n        /* \"#utility.yul\":8235:8239   */\n      dup2\n        /* \"#utility.yul\":8226:8232   */\n      dup5\n        /* \"#utility.yul\":8078:8240   */\n      tag_215\n      jump\t// in\n    tag_328:\n        /* \"#utility.yul\":8070:8240   */\n      swap1\n      pop\n        /* \"#utility.yul\":7766:8247   */\n      swap3\n      swap2\n      pop\n      pop\n      jump\t// out\n        /* \"#utility.yul\":8253:8727   */\n    tag_44:\n        /* \"#utility.yul\":8321:8327   */\n      0x00\n        /* \"#utility.yul\":8329:8335   */\n      dup1\n        /* \"#utility.yul\":8378:8380   */\n      0x40\n        /* \"#utility.yul\":8366:8375   */\n      dup4\n        /* \"#utility.yul\":8357:8364   */\n      dup6\n        /* \"#utility.yul\":8353:8376   */\n      sub\n        /* \"#utility.yul\":8349:8381   */\n      slt\n        /* \"#utility.yul\":8346:8465   */\n      iszero\n      tag_330\n      jumpi\n        /* \"#utility.yul\":8384:8463   */\n      tag_331\n      tag_187\n      jump\t// in\n    tag_331:\n        /* \"#utility.yul\":8346:8465   */\n    tag_330:\n        /* \"#utility.yul\":8504:8505   */\n      0x00\n        /* \"#utility.yul\":8529:8582   */\n      tag_332\n        /* \"#utility.yul\":8574:8581   */\n      dup6\n        /* \"#utility.yul\":8565:8571   */\n      dup3\n        /* \"#utility.yul\":8554:8563   */\n      dup7\n        /* \"#utility.yul\":8550:8572   */\n      add\n        /* \"#utility.yul\":8529:8582   */\n      tag_201\n      jump\t// in\n    tag_332:\n        /* \"#utility.yul\":8519:8582   */\n      swap3\n      pop\n        /* \"#utility.yul\":8475:8592   */\n      pop\n        /* \"#utility.yul\":8631:8633   */\n      0x20\n        /* \"#utility.yul\":8657:8710   */\n      tag_333\n        /* \"#utility.yul\":8702:8709   */\n      dup6\n        /* \"#utility.yul\":8693:8699   */\n      dup3\n        /* \"#utility.yul\":8682:8691   */\n      dup7\n        /* \"#utility.yul\":8678:8700   */\n      add\n        /* \"#utility.yul\":8657:8710   */\n      tag_201\n      jump\t// in\n    tag_333:\n        /* \"#utility.yul\":8647:8710   */\n      swap2\n      pop\n        /* \"#utility.yul\":8602:8720   */\n      pop\n        /* \"#utility.yul\":8253:8727   */\n      swap3\n      pop\n      swap3\n      swap1\n      pop\n      jump\t// out\n        /* \"#utility.yul\":8801:9602   */\n    tag_216:\n        /* \"#utility.yul\":8924:8927   */\n      0x00\n        /* \"#utility.yul\":8960:8964   */\n      0x60\n        /* \"#utility.yul\":8955:8958   */\n      dup4\n        /* \"#utility.yul\":8951:8965   */\n      add\n        /* \"#utility.yul\":9054:9058   */\n      0x00\n        /* \"#utility.yul\":9047:9052   */\n      dup4\n        /* \"#utility.yul\":9043:9059   */\n      add\n        /* \"#utility.yul\":9037:9060   */\n      mload\n        /* \"#utility.yul\":9073:9136   */\n      tag_335\n        /* \"#utility.yul\":9130:9134   */\n      0x00\n        /* \"#utility.yul\":9125:9128   */\n      dup7\n        /* \"#utility.yul\":9121:9135   */\n      add\n        /* \"#utility.yul\":9107:9119   */\n      dup3\n        /* \"#utility.yul\":9073:9136   */\n      tag_205\n      jump\t// in\n    tag_335:\n        /* \"#utility.yul\":8975:9146   */\n      pop\n        /* \"#utility.yul\":9232:9236   */\n      0x20\n        /* \"#utility.yul\":9225:9230   */\n      dup4\n        /* \"#utility.yul\":9221:9237   */\n      add\n        /* \"#utility.yul\":9215:9238   */\n      mload\n        /* \"#utility.yul\":9251:9314   */\n      tag_336\n        /* \"#utility.yul\":9308:9312   */\n      0x20\n        /* \"#utility.yul\":9303:9306   */\n      dup7\n        /* \"#utility.yul\":9299:9313   */\n      add\n        /* \"#utility.yul\":9285:9297   */\n      dup3\n        /* \"#utility.yul\":9251:9314   */\n      tag_206\n      jump\t// in\n    tag_336:\n        /* \"#utility.yul\":9156:9324   */\n      pop\n        /* \"#utility.yul\":9412:9416   */\n      0x40\n        /* \"#utility.yul\":9405:9410   */\n      dup4\n        /* \"#utility.yul\":9401:9417   */\n      add\n        /* \"#utility.yul\":9395:9418   */\n      mload\n        /* \"#utility.yul\":9465:9468   */\n      dup5\n        /* \"#utility.yul\":9459:9463   */\n      dup3\n        /* \"#utility.yul\":9455:9469   */\n      sub\n        /* \"#utility.yul\":9448:9452   */\n      0x40\n        /* \"#utility.yul\":9443:9446   */\n      dup7\n        /* \"#utility.yul\":9439:9453   */\n      add\n        /* \"#utility.yul\":9432:9470   */\n      mstore\n        /* \"#utility.yul\":9491:9564   */\n      tag_337\n        /* \"#utility.yul\":9559:9563   */\n      dup3\n        /* \"#utility.yul\":9545:9557   */\n      dup3\n        /* \"#utility.yul\":9491:9564   */\n      tag_211\n      jump\t// in\n    tag_337:\n        /* \"#utility.yul\":9483:9564   */\n      swap2\n      pop\n        /* \"#utility.yul\":9334:9575   */\n      pop\n        /* \"#utility.yul\":9592:9596   */\n      dup1\n        /* \"#utility.yul\":9585:9596   */\n      swap2\n      pop\n        /* \"#utility.yul\":8929:9602   */\n      pop\n        /* \"#utility.yul\":8801:9602   */\n      swap3\n      swap2\n      pop\n      pop\n      jump\t// out\n        /* \"#utility.yul\":9608:9989   */\n    tag_47:\n        /* \"#utility.yul\":9755:9759   */\n      0x00\n        /* \"#utility.yul\":9793:9795   */\n      0x20\n        /* \"#utility.yul\":9782:9791   */\n      dup3\n        /* \"#utility.yul\":9778:9796   */\n      add\n        /* \"#utility.yul\":9770:9796   */\n      swap1\n      pop\n        /* \"#utility.yul\":9842:9851   */\n      dup2\n        /* \"#utility.yul\":9836:9840   */\n      dup2\n        /* \"#utility.yul\":9832:9852   */\n      sub\n        /* \"#utility.yul\":9828:9829   */\n      0x00\n        /* \"#utility.yul\":9817:9826   */\n      dup4\n        /* \"#utility.yul\":9813:9830   */\n      add\n        /* \"#utility.yul\":9806:9853   */\n      mstore\n        /* \"#utility.yul\":9870:9982   */\n      tag_339\n        /* \"#utility.yul\":9977:9981   */\n      dup2\n        /* \"#utility.yul\":9968:9974   */\n      dup5\n        /* \"#utility.yul\":9870:9982   */\n      tag_216\n      jump\t// in\n    tag_339:\n        /* \"#utility.yul\":9862:9982   */\n      swap1\n      pop\n        /* \"#utility.yul\":9608:9989   */\n      swap3\n      swap2\n      pop\n      pop\n      jump\t// out\n        /* \"#utility.yul\":9995:10324   */\n    tag_61:\n        /* \"#utility.yul\":10054:10060   */\n      0x00\n        /* \"#utility.yul\":10103:10105   */\n      0x20\n        /* \"#utility.yul\":10091:10100   */\n      dup3\n        /* \"#utility.yul\":10082:10089   */\n      dup5\n        /* \"#utility.yul\":10078:10101   */\n      sub\n        /* \"#utility.yul\":10074:10106   */\n      slt\n        /* \"#utility.yul\":10071:10190   */\n      iszero\n      tag_341\n      jumpi\n        /* \"#utility.yul\":10109:10188   */\n      tag_342\n      tag_187\n      jump\t// in\n    tag_342:\n        /* \"#utility.yul\":10071:10190   */\n    tag_341:\n        /* \"#utility.yul\":10229:10230   */\n      0x00\n        /* \"#utility.yul\":10254:10307   */\n      tag_343\n        /* \"#utility.yul\":10299:10306   */\n      dup5\n        /* \"#utility.yul\":10290:10296   */\n      dup3\n        /* \"#utility.yul\":10279:10288   */\n      dup6\n        /* \"#utility.yul\":10275:10297   */\n      add\n        /* \"#utility.yul\":10254:10307   */\n      tag_196\n      jump\t// in\n    tag_343:\n        /* \"#utility.yul\":10244:10307   */\n      swap2\n      pop\n        /* \"#utility.yul\":10200:10317   */\n      pop\n        /* \"#utility.yul\":9995:10324   */\n      swap3\n      swap2\n      pop\n      pop\n      jump\t// out\n        /* \"#utility.yul\":10330:10447   */\n    tag_217:\n        /* \"#utility.yul\":10439:10440   */\n      0x00\n        /* \"#utility.yul\":10436:10437   */\n      dup1\n        /* \"#utility.yul\":10429:10441   */\n      revert\n        /* \"#utility.yul\":10453:10633   */\n    tag_218:\n        /* \"#utility.yul\":10501:10578   */\n      0x4e487b7100000000000000000000000000000000000000000000000000000000\n        /* \"#utility.yul\":10498:10499   */\n      0x00\n        /* \"#utility.yul\":10491:10579   */\n      mstore\n        /* \"#utility.yul\":10598:10602   */\n      0x41\n        /* \"#utility.yul\":10595:10596   */\n      0x04\n        /* \"#utility.yul\":10588:10603   */\n      mstore\n        /* \"#utility.yul\":10622:10626   */\n      0x24\n        /* \"#utility.yul\":10619:10620   */\n      0x00\n        /* \"#utility.yul\":10612:10627   */\n      revert\n        /* \"#utility.yul\":10639:10920   */\n    tag_219:\n        /* \"#utility.yul\":10722:10749   */\n      tag_347\n        /* \"#utility.yul\":10744:10748   */\n      dup3\n        /* \"#utility.yul\":10722:10749   */\n      tag_210\n      jump\t// in\n    tag_347:\n        /* \"#utility.yul\":10714:10720   */\n      dup2\n        /* \"#utility.yul\":10710:10750   */\n      add\n        /* \"#utility.yul\":10852:10858   */\n      dup2\n        /* \"#utility.yul\":10840:10850   */\n      dup2\n        /* \"#utility.yul\":10837:10859   */\n      lt\n        /* \"#utility.yul\":10816:10834   */\n      0xffffffffffffffff\n        /* \"#utility.yul\":10804:10814   */\n      dup3\n        /* \"#utility.yul\":10801:10835   */\n      gt\n        /* \"#utility.yul\":10798:10860   */\n      or\n        /* \"#utility.yul\":10795:10883   */\n      iszero\n      tag_348\n      jumpi\n        /* \"#utility.yul\":10863:10881   */\n      tag_349\n      tag_218\n      jump\t// in\n    tag_349:\n        /* \"#utility.yul\":10795:10883   */\n    tag_348:\n        /* \"#utility.yul\":10903:10913   */\n      dup1\n        /* \"#utility.yul\":10899:10901   */\n      0x40\n        /* \"#utility.yul\":10892:10914   */\n      mstore\n        /* \"#utility.yul\":10682:10920   */\n      pop\n        /* \"#utility.yul\":10639:10920   */\n      pop\n      pop\n      jump\t// out\n        /* \"#utility.yul\":10926:11055   */\n    tag_220:\n        /* \"#utility.yul\":10960:10966   */\n      0x00\n        /* \"#utility.yul\":10987:11007   */\n      tag_351\n      tag_186\n      jump\t// in\n    tag_351:\n        /* \"#utility.yul\":10977:11007   */\n      swap1\n      pop\n        /* \"#utility.yul\":11016:11049   */\n      tag_352\n        /* \"#utility.yul\":11044:11048   */\n      dup3\n        /* \"#utility.yul\":11036:11042   */\n      dup3\n        /* \"#utility.yul\":11016:11049   */\n      tag_219\n      jump\t// in\n    tag_352:\n        /* \"#utility.yul\":10926:11055   */\n      swap2\n      swap1\n      pop\n      jump\t// out\n        /* \"#utility.yul\":11061:11178   */\n    tag_221:\n        /* \"#utility.yul\":11170:11171   */\n      0x00\n        /* \"#utility.yul\":11167:11168   */\n      dup1\n        /* \"#utility.yul\":11160:11172   */\n      revert\n        /* \"#utility.yul\":11184:11301   */\n    tag_222:\n        /* \"#utility.yul\":11293:11294   */\n      0x00\n        /* \"#utility.yul\":11290:11291   */\n      dup1\n        /* \"#utility.yul\":11283:11295   */\n      revert\n        /* \"#utility.yul\":11307:11424   */\n    tag_223:\n        /* \"#utility.yul\":11416:11417   */\n      0x00\n        /* \"#utility.yul\":11413:11414   */\n      dup1\n        /* \"#utility.yul\":11406:11418   */\n      revert\n        /* \"#utility.yul\":11430:11738   */\n    tag_224:\n        /* \"#utility.yul\":11492:11496   */\n      0x00\n        /* \"#utility.yul\":11582:11600   */\n      0xffffffffffffffff\n        /* \"#utility.yul\":11574:11580   */\n      dup3\n        /* \"#utility.yul\":11571:11601   */\n      gt\n        /* \"#utility.yul\":11568:11624   */\n      iszero\n      tag_357\n      jumpi\n        /* \"#utility.yul\":11604:11622   */\n      tag_358\n      tag_218\n      jump\t// in\n    tag_358:\n        /* \"#utility.yul\":11568:11624   */\n    tag_357:\n        /* \"#utility.yul\":11642:11671   */\n      tag_359\n        /* \"#utility.yul\":11664:11670   */\n      dup3\n        /* \"#utility.yul\":11642:11671   */\n      tag_210\n      jump\t// in\n    tag_359:\n        /* \"#utility.yul\":11634:11671   */\n      swap1\n      pop\n        /* \"#utility.yul\":11726:11730   */\n      0x20\n        /* \"#utility.yul\":11720:11724   */\n      dup2\n        /* \"#utility.yul\":11716:11731   */\n      add\n        /* \"#utility.yul\":11708:11731   */\n      swap1\n      pop\n        /* \"#utility.yul\":11430:11738   */\n      swap2\n      swap1\n      pop\n      jump\t// out\n        /* \"#utility.yul\":11744:11898   */\n    tag_225:\n        /* \"#utility.yul\":11828:11834   */\n      dup3\n        /* \"#utility.yul\":11823:11826   */\n      dup2\n        /* \"#utility.yul\":11818:11821   */\n      dup4\n        /* \"#utility.yul\":11805:11835   */\n      calldatacopy\n        /* \"#utility.yul\":11890:11891   */\n      0x00\n        /* \"#utility.yul\":11881:11887   */\n      dup4\n        /* \"#utility.yul\":11876:11879   */\n      dup4\n        /* \"#utility.yul\":11872:11888   */\n      add\n        /* \"#utility.yul\":11865:11892   */\n      mstore\n        /* \"#utility.yul\":11744:11898   */\n      pop\n      pop\n      pop\n      jump\t// out\n        /* \"#utility.yul\":11904:12316   */\n    tag_226:\n        /* \"#utility.yul\":11982:11987   */\n      0x00\n        /* \"#utility.yul\":12007:12073   */\n      tag_362\n        /* \"#utility.yul\":12023:12072   */\n      tag_363\n        /* \"#utility.yul\":12065:12071   */\n      dup5\n        /* \"#utility.yul\":12023:12072   */\n      tag_224\n      jump\t// in\n    tag_363:\n        /* \"#utility.yul\":12007:12073   */\n      tag_220\n      jump\t// in\n    tag_362:\n        /* \"#utility.yul\":11998:12073   */\n      swap1\n      pop\n        /* \"#utility.yul\":12096:12102   */\n      dup3\n        /* \"#utility.yul\":12089:12094   */\n      dup2\n        /* \"#utility.yul\":12082:12103   */\n      mstore\n        /* \"#utility.yul\":12134:12138   */\n      0x20\n        /* \"#utility.yul\":12127:12132   */\n      dup2\n        /* \"#utility.yul\":12123:12139   */\n      add\n        /* \"#utility.yul\":12172:12175   */\n      dup5\n        /* \"#utility.yul\":12163:12169   */\n      dup5\n        /* \"#utility.yul\":12158:12161   */\n      dup5\n        /* \"#utility.yul\":12154:12170   */\n      add\n        /* \"#utility.yul\":12151:12176   */\n      gt\n        /* \"#utility.yul\":12148:12260   */\n      iszero\n      tag_364\n      jumpi\n        /* \"#utility.yul\":12179:12258   */\n      tag_365\n      tag_223\n      jump\t// in\n    tag_365:\n        /* \"#utility.yul\":12148:12260   */\n    tag_364:\n        /* \"#utility.yul\":12269:12310   */\n      tag_366\n        /* \"#utility.yul\":12303:12309   */\n      dup5\n        /* \"#utility.yul\":12298:12301   */\n      dup3\n        /* \"#utility.yul\":12293:12296   */\n      dup6\n        /* \"#utility.yul\":12269:12310   */\n      tag_225\n      jump\t// in\n    tag_366:\n        /* \"#utility.yul\":11988:12316   */\n      pop\n        /* \"#utility.yul\":11904:12316   */\n      swap4\n      swap3\n      pop\n      pop\n      pop\n      jump\t// out\n        /* \"#utility.yul\":12336:12676   */\n    tag_227:\n        /* \"#utility.yul\":12392:12397   */\n      0x00\n        /* \"#utility.yul\":12441:12444   */\n      dup3\n        /* \"#utility.yul\":12434:12438   */\n      0x1f\n        /* \"#utility.yul\":12426:12432   */\n      dup4\n        /* \"#utility.yul\":12422:12439   */\n      add\n        /* \"#utility.yul\":12418:12445   */\n      slt\n        /* \"#utility.yul\":12408:12530   */\n      tag_368\n      jumpi\n        /* \"#utility.yul\":12449:12528   */\n      tag_369\n      tag_222\n      jump\t// in\n    tag_369:\n        /* \"#utility.yul\":12408:12530   */\n    tag_368:\n        /* \"#utility.yul\":12566:12572   */\n      dup2\n        /* \"#utility.yul\":12553:12573   */\n      calldataload\n        /* \"#utility.yul\":12591:12670   */\n      tag_370\n        /* \"#utility.yul\":12666:12669   */\n      dup5\n        /* \"#utility.yul\":12658:12664   */\n      dup3\n        /* \"#utility.yul\":12651:12655   */\n      0x20\n        /* \"#utility.yul\":12643:12649   */\n      dup7\n        /* \"#utility.yul\":12639:12656   */\n      add\n        /* \"#utility.yul\":12591:12670   */\n      tag_226\n      jump\t// in\n    tag_370:\n        /* \"#utility.yul\":12582:12670   */\n      swap2\n      pop\n        /* \"#utility.yul\":12398:12676   */\n      pop\n        /* \"#utility.yul\":12336:12676   */\n      swap3\n      swap2\n      pop\n      pop\n      jump\t// out\n        /* \"#utility.yul\":12718:13642   */\n    tag_228:\n        /* \"#utility.yul\":12794:12799   */\n      0x00\n        /* \"#utility.yul\":12838:12842   */\n      0x60\n        /* \"#utility.yul\":12826:12835   */\n      dup3\n        /* \"#utility.yul\":12821:12824   */\n      dup5\n        /* \"#utility.yul\":12817:12836   */\n      sub\n        /* \"#utility.yul\":12813:12843   */\n      slt\n        /* \"#utility.yul\":12810:12927   */\n      iszero\n      tag_372\n      jumpi\n        /* \"#utility.yul\":12846:12925   */\n      tag_373\n      tag_217\n      jump\t// in\n    tag_373:\n        /* \"#utility.yul\":12810:12927   */\n    tag_372:\n        /* \"#utility.yul\":12945:12966   */\n      tag_374\n        /* \"#utility.yul\":12961:12965   */\n      0x60\n        /* \"#utility.yul\":12945:12966   */\n      tag_220\n      jump\t// in\n    tag_374:\n        /* \"#utility.yul\":12936:12966   */\n      swap1\n      pop\n        /* \"#utility.yul\":13032:13033   */\n      0x00\n        /* \"#utility.yul\":13072:13121   */\n      tag_375\n        /* \"#utility.yul\":13117:13120   */\n      dup5\n        /* \"#utility.yul\":13108:13114   */\n      dup3\n        /* \"#utility.yul\":13097:13106   */\n      dup6\n        /* \"#utility.yul\":13093:13115   */\n      add\n        /* \"#utility.yul\":13072:13121   */\n      tag_201\n      jump\t// in\n    tag_375:\n        /* \"#utility.yul\":13065:13069   */\n      0x00\n        /* \"#utility.yul\":13058:13063   */\n      dup4\n        /* \"#utility.yul\":13054:13070   */\n      add\n        /* \"#utility.yul\":13047:13122   */\n      mstore\n        /* \"#utility.yul\":12976:13133   */\n      pop\n        /* \"#utility.yul\":13196:13198   */\n      0x20\n        /* \"#utility.yul\":13237:13286   */\n      tag_376\n        /* \"#utility.yul\":13282:13285   */\n      dup5\n        /* \"#utility.yul\":13273:13279   */\n      dup3\n        /* \"#utility.yul\":13262:13271   */\n      dup6\n        /* \"#utility.yul\":13258:13280   */\n      add\n        /* \"#utility.yul\":13237:13286   */\n      tag_196\n      jump\t// in\n    tag_376:\n        /* \"#utility.yul\":13230:13234   */\n      0x20\n        /* \"#utility.yul\":13223:13228   */\n      dup4\n        /* \"#utility.yul\":13219:13235   */\n      add\n        /* \"#utility.yul\":13212:13287   */\n      mstore\n        /* \"#utility.yul\":13143:13298   */\n      pop\n        /* \"#utility.yul\":13391:13393   */\n      0x40\n        /* \"#utility.yul\":13380:13389   */\n      dup3\n        /* \"#utility.yul\":13376:13394   */\n      add\n        /* \"#utility.yul\":13363:13395   */\n      calldataload\n        /* \"#utility.yul\":13422:13440   */\n      0xffffffffffffffff\n        /* \"#utility.yul\":13414:13420   */\n      dup2\n        /* \"#utility.yul\":13411:13441   */\n      gt\n        /* \"#utility.yul\":13408:13525   */\n      iszero\n      tag_377\n      jumpi\n        /* \"#utility.yul\":13444:13523   */\n      tag_378\n      tag_221\n      jump\t// in\n    tag_378:\n        /* \"#utility.yul\":13408:13525   */\n    tag_377:\n        /* \"#utility.yul\":13564:13623   */\n      tag_379\n        /* \"#utility.yul\":13619:13622   */\n      dup5\n        /* \"#utility.yul\":13610:13616   */\n      dup3\n        /* \"#utility.yul\":13599:13608   */\n      dup6\n        /* \"#utility.yul\":13595:13617   */\n      add\n        /* \"#utility.yul\":13564:13623   */\n      tag_227\n      jump\t// in\n    tag_379:\n        /* \"#utility.yul\":13557:13561   */\n      0x40\n        /* \"#utility.yul\":13550:13555   */\n      dup4\n        /* \"#utility.yul\":13546:13562   */\n      add\n        /* \"#utility.yul\":13539:13624   */\n      mstore\n        /* \"#utility.yul\":13308:13635   */\n      pop\n        /* \"#utility.yul\":12718:13642   */\n      swap3\n      swap2\n      pop\n      pop\n      jump\t// out\n        /* \"#utility.yul\":13648:14336   */\n    tag_65:\n        /* \"#utility.yul\":13743:13749   */\n      0x00\n        /* \"#utility.yul\":13751:13757   */\n      dup1\n        /* \"#utility.yul\":13800:13802   */\n      0x40\n        /* \"#utility.yul\":13788:13797   */\n      dup4\n        /* \"#utility.yul\":13779:13786   */\n      dup6\n        /* \"#utility.yul\":13775:13798   */\n      sub\n        /* \"#utility.yul\":13771:13803   */\n      slt\n        /* \"#utility.yul\":13768:13887   */\n      iszero\n      tag_381\n      jumpi\n        /* \"#utility.yul\":13806:13885   */\n      tag_382\n      tag_187\n      jump\t// in\n    tag_382:\n        /* \"#utility.yul\":13768:13887   */\n    tag_381:\n        /* \"#utility.yul\":13926:13927   */\n      0x00\n        /* \"#utility.yul\":13951:14004   */\n      tag_383\n        /* \"#utility.yul\":13996:14003   */\n      dup6\n        /* \"#utility.yul\":13987:13993   */\n      dup3\n        /* \"#utility.yul\":13976:13985   */\n      dup7\n        /* \"#utility.yul\":13972:13994   */\n      add\n        /* \"#utility.yul\":13951:14004   */\n      tag_201\n      jump\t// in\n    tag_383:\n        /* \"#utility.yul\":13941:14004   */\n      swap3\n      pop\n        /* \"#utility.yul\":13897:14014   */\n      pop\n        /* \"#utility.yul\":14081:14083   */\n      0x20\n        /* \"#utility.yul\":14070:14079   */\n      dup4\n        /* \"#utility.yul\":14066:14084   */\n      add\n        /* \"#utility.yul\":14053:14085   */\n      calldataload\n        /* \"#utility.yul\":14112:14130   */\n      0xffffffffffffffff\n        /* \"#utility.yul\":14104:14110   */\n      dup2\n        /* \"#utility.yul\":14101:14131   */\n      gt\n        /* \"#utility.yul\":14098:14215   */\n      iszero\n      tag_384\n      jumpi\n        /* \"#utility.yul\":14134:14213   */\n      tag_385\n      tag_188\n      jump\t// in\n    tag_385:\n        /* \"#utility.yul\":14098:14215   */\n    tag_384:\n        /* \"#utility.yul\":14239:14319   */\n      tag_386\n        /* \"#utility.yul\":14311:14318   */\n      dup6\n        /* \"#utility.yul\":14302:14308   */\n      dup3\n        /* \"#utility.yul\":14291:14300   */\n      dup7\n        /* \"#utility.yul\":14287:14309   */\n      add\n        /* \"#utility.yul\":14239:14319   */\n      tag_228\n      jump\t// in\n    tag_386:\n        /* \"#utility.yul\":14229:14319   */\n      swap2\n      pop\n        /* \"#utility.yul\":14024:14329   */\n      pop\n        /* \"#utility.yul\":13648:14336   */\n      swap3\n      pop\n      swap3\n      swap1\n      pop\n      jump\t// out\n        /* \"#utility.yul\":14342:14511   */\n    tag_229:\n        /* \"#utility.yul\":14426:14437   */\n      0x00\n        /* \"#utility.yul\":14460:14466   */\n      dup3\n        /* \"#utility.yul\":14455:14458   */\n      dup3\n        /* \"#utility.yul\":14448:14467   */\n      mstore\n        /* \"#utility.yul\":14500:14504   */\n      0x20\n        /* \"#utility.yul\":14495:14498   */\n      dup3\n        /* \"#utility.yul\":14491:14505   */\n      add\n        /* \"#utility.yul\":14476:14505   */\n      swap1\n      pop\n        /* \"#utility.yul\":14342:14511   */\n      swap3\n      swap2\n      pop\n      pop\n      jump\t// out\n        /* \"#utility.yul\":14517:14745   */\n    tag_230:\n        /* \"#utility.yul\":14657:14691   */\n      0x547261636541737365743a3a476574416c6c4572726f723a3a20696420697320\n        /* \"#utility.yul\":14653:14654   */\n      0x00\n        /* \"#utility.yul\":14645:14651   */\n      dup3\n        /* \"#utility.yul\":14641:14655   */\n      add\n        /* \"#utility.yul\":14634:14692   */\n      mstore\n        /* \"#utility.yul\":14726:14737   */\n      0x6e6f742076616c69640000000000000000000000000000000000000000000000\n        /* \"#utility.yul\":14721:14723   */\n      0x20\n        /* \"#utility.yul\":14713:14719   */\n      dup3\n        /* \"#utility.yul\":14709:14724   */\n      add\n        /* \"#utility.yul\":14702:14738   */\n      mstore\n        /* \"#utility.yul\":14517:14745   */\n      pop\n      jump\t// out\n        /* \"#utility.yul\":14751:15117   */\n    tag_231:\n        /* \"#utility.yul\":14893:14896   */\n      0x00\n        /* \"#utility.yul\":14914:14981   */\n      tag_390\n        /* \"#utility.yul\":14978:14980   */\n      0x29\n        /* \"#utility.yul\":14973:14976   */\n      dup4\n        /* \"#utility.yul\":14914:14981   */\n      tag_229\n      jump\t// in\n    tag_390:\n        /* \"#utility.yul\":14907:14981   */\n      swap2\n      pop\n        /* \"#utility.yul\":14990:15083   */\n      tag_391\n        /* \"#utility.yul\":15079:15082   */\n      dup3\n        /* \"#utility.yul\":14990:15083   */\n      tag_230\n      jump\t// in\n    tag_391:\n        /* \"#utility.yul\":15108:15110   */\n      0x40\n        /* \"#utility.yul\":15103:15106   */\n      dup3\n        /* \"#utility.yul\":15099:15111   */\n      add\n        /* \"#utility.yul\":15092:15111   */\n      swap1\n      pop\n        /* \"#utility.yul\":14751:15117   */\n      swap2\n      swap1\n      pop\n      jump\t// out\n        /* \"#utility.yul\":15123:15542   */\n    tag_87:\n        /* \"#utility.yul\":15289:15293   */\n      0x00\n        /* \"#utility.yul\":15327:15329   */\n      0x20\n        /* \"#utility.yul\":15316:15325   */\n      dup3\n        /* \"#utility.yul\":15312:15330   */\n      add\n        /* \"#utility.yul\":15304:15330   */\n      swap1\n      pop\n        /* \"#utility.yul\":15376:15385   */\n      dup2\n        /* \"#utility.yul\":15370:15374   */\n      dup2\n        /* \"#utility.yul\":15366:15386   */\n      sub\n        /* \"#utility.yul\":15362:15363   */\n      0x00\n        /* \"#utility.yul\":15351:15360   */\n      dup4\n        /* \"#utility.yul\":15347:15364   */\n      add\n        /* \"#utility.yul\":15340:15387   */\n      mstore\n        /* \"#utility.yul\":15404:15535   */\n      tag_393\n        /* \"#utility.yul\":15530:15534   */\n      dup2\n        /* \"#utility.yul\":15404:15535   */\n      tag_231\n      jump\t// in\n    tag_393:\n        /* \"#utility.yul\":15396:15535   */\n      swap1\n      pop\n        /* \"#utility.yul\":15123:15542   */\n      swap2\n      swap1\n      pop\n      jump\t// out\n        /* \"#utility.yul\":15548:15728   */\n    tag_232:\n        /* \"#utility.yul\":15596:15673   */\n      0x4e487b7100000000000000000000000000000000000000000000000000000000\n        /* \"#utility.yul\":15593:15594   */\n      0x00\n        /* \"#utility.yul\":15586:15674   */\n      mstore\n        /* \"#utility.yul\":15693:15697   */\n      0x22\n        /* \"#utility.yul\":15690:15691   */\n      0x04\n        /* \"#utility.yul\":15683:15698   */\n      mstore\n        /* \"#utility.yul\":15717:15721   */\n      0x24\n        /* \"#utility.yul\":15714:15715   */\n      0x00\n        /* \"#utility.yul\":15707:15722   */\n      revert\n        /* \"#utility.yul\":15734:16054   */\n    tag_92:\n        /* \"#utility.yul\":15778:15784   */\n      0x00\n        /* \"#utility.yul\":15815:15816   */\n      0x02\n        /* \"#utility.yul\":15809:15813   */\n      dup3\n        /* \"#utility.yul\":15805:15817   */\n      div\n        /* \"#utility.yul\":15795:15817   */\n      swap1\n      pop\n        /* \"#utility.yul\":15862:15863   */\n      0x01\n        /* \"#utility.yul\":15856:15860   */\n      dup3\n        /* \"#utility.yul\":15852:15864   */\n      and\n        /* \"#utility.yul\":15883:15901   */\n      dup1\n        /* \"#utility.yul\":15873:15954   */\n      tag_396\n      jumpi\n        /* \"#utility.yul\":15939:15943   */\n      0x7f\n        /* \"#utility.yul\":15931:15937   */\n      dup3\n        /* \"#utility.yul\":15927:15944   */\n      and\n        /* \"#utility.yul\":15917:15944   */\n      swap2\n      pop\n        /* \"#utility.yul\":15873:15954   */\n    tag_396:\n        /* \"#utility.yul\":16001:16003   */\n      0x20\n        /* \"#utility.yul\":15993:15999   */\n      dup3\n        /* \"#utility.yul\":15990:16004   */\n      lt\n        /* \"#utility.yul\":15970:15988   */\n      dup2\n        /* \"#utility.yul\":15967:16005   */\n      eq\n        /* \"#utility.yul\":15964:16048   */\n      iszero\n      tag_397\n      jumpi\n        /* \"#utility.yul\":16020:16038   */\n      tag_398\n      tag_232\n      jump\t// in\n    tag_398:\n        /* \"#utility.yul\":15964:16048   */\n    tag_397:\n        /* \"#utility.yul\":15785:16054   */\n      pop\n        /* \"#utility.yul\":15734:16054   */\n      swap2\n      swap1\n      pop\n      jump\t// out\n        /* \"#utility.yul\":16060:16240   */\n    tag_233:\n        /* \"#utility.yul\":16108:16185   */\n      0x4e487b7100000000000000000000000000000000000000000000000000000000\n        /* \"#utility.yul\":16105:16106   */\n      0x00\n        /* \"#utility.yul\":16098:16186   */\n      mstore\n        /* \"#utility.yul\":16205:16209   */\n      0x11\n        /* \"#utility.yul\":16202:16203   */\n      0x04\n        /* \"#utility.yul\":16195:16210   */\n      mstore\n        /* \"#utility.yul\":16229:16233   */\n      0x24\n        /* \"#utility.yul\":16226:16227   */\n      0x00\n        /* \"#utility.yul\":16219:16234   */\n      revert\n        /* \"#utility.yul\":16246:16437   */\n    tag_103:\n        /* \"#utility.yul\":16286:16290   */\n      0x00\n        /* \"#utility.yul\":16306:16326   */\n      tag_401\n        /* \"#utility.yul\":16324:16325   */\n      dup3\n        /* \"#utility.yul\":16306:16326   */\n      tag_199\n      jump\t// in\n    tag_401:\n        /* \"#utility.yul\":16301:16326   */\n      swap2\n      pop\n        /* \"#utility.yul\":16340:16360   */\n      tag_402\n        /* \"#utility.yul\":16358:16359   */\n      dup4\n        /* \"#utility.yul\":16340:16360   */\n      tag_199\n      jump\t// in\n    tag_402:\n        /* \"#utility.yul\":16335:16360   */\n      swap3\n      pop\n        /* \"#utility.yul\":16379:16380   */\n      dup3\n        /* \"#utility.yul\":16376:16377   */\n      dup3\n        /* \"#utility.yul\":16373:16381   */\n      lt\n        /* \"#utility.yul\":16370:16404   */\n      iszero\n      tag_403\n      jumpi\n        /* \"#utility.yul\":16384:16402   */\n      tag_404\n      tag_233\n      jump\t// in\n    tag_404:\n        /* \"#utility.yul\":16370:16404   */\n    tag_403:\n        /* \"#utility.yul\":16429:16430   */\n      dup3\n        /* \"#utility.yul\":16426:16427   */\n      dup3\n        /* \"#utility.yul\":16422:16431   */\n      sub\n        /* \"#utility.yul\":16414:16431   */\n      swap1\n      pop\n        /* \"#utility.yul\":16246:16437   */\n      swap3\n      swap2\n      pop\n      pop\n      jump\t// out\n        /* \"#utility.yul\":16443:16679   */\n    tag_234:\n        /* \"#utility.yul\":16583:16617   */\n      0x547261636541737365743a3a476574427954696d657374616d704572726f723a\n        /* \"#utility.yul\":16579:16580   */\n      0x00\n        /* \"#utility.yul\":16571:16577   */\n      dup3\n        /* \"#utility.yul\":16567:16581   */\n      add\n        /* \"#utility.yul\":16560:16618   */\n      mstore\n        /* \"#utility.yul\":16652:16671   */\n      0x3a206964206973206e6f742076616c6964000000000000000000000000000000\n        /* \"#utility.yul\":16647:16649   */\n      0x20\n        /* \"#utility.yul\":16639:16645   */\n      dup3\n        /* \"#utility.yul\":16635:16650   */\n      add\n        /* \"#utility.yul\":16628:16672   */\n      mstore\n        /* \"#utility.yul\":16443:16679   */\n      pop\n      jump\t// out\n        /* \"#utility.yul\":16685:17051   */\n    tag_235:\n        /* \"#utility.yul\":16827:16830   */\n      0x00\n        /* \"#utility.yul\":16848:16915   */\n      tag_407\n        /* \"#utility.yul\":16912:16914   */\n      0x31\n        /* \"#utility.yul\":16907:16910   */\n      dup4\n        /* \"#utility.yul\":16848:16915   */\n      tag_229\n      jump\t// in\n    tag_407:\n        /* \"#utility.yul\":16841:16915   */\n      swap2\n      pop\n        /* \"#utility.yul\":16924:17017   */\n      tag_408\n        /* \"#utility.yul\":17013:17016   */\n      dup3\n        /* \"#utility.yul\":16924:17017   */\n      tag_234\n      jump\t// in\n    tag_408:\n        /* \"#utility.yul\":17042:17044   */\n      0x40\n        /* \"#utility.yul\":17037:17040   */\n      dup3\n        /* \"#utility.yul\":17033:17045   */\n      add\n        /* \"#utility.yul\":17026:17045   */\n      swap1\n      pop\n        /* \"#utility.yul\":16685:17051   */\n      swap2\n      swap1\n      pop\n      jump\t// out\n        /* \"#utility.yul\":17057:17476   */\n    tag_106:\n        /* \"#utility.yul\":17223:17227   */\n      0x00\n        /* \"#utility.yul\":17261:17263   */\n      0x20\n        /* \"#utility.yul\":17250:17259   */\n      dup3\n        /* \"#utility.yul\":17246:17264   */\n      add\n        /* \"#utility.yul\":17238:17264   */\n      swap1\n      pop\n        /* \"#utility.yul\":17310:17319   */\n      dup2\n        /* \"#utility.yul\":17304:17308   */\n      dup2\n        /* \"#utility.yul\":17300:17320   */\n      sub\n        /* \"#utility.yul\":17296:17297   */\n      0x00\n        /* \"#utility.yul\":17285:17294   */\n      dup4\n        /* \"#utility.yul\":17281:17298   */\n      add\n        /* \"#utility.yul\":17274:17321   */\n      mstore\n        /* \"#utility.yul\":17338:17469   */\n      tag_410\n        /* \"#utility.yul\":17464:17468   */\n      dup2\n        /* \"#utility.yul\":17338:17469   */\n      tag_235\n      jump\t// in\n    tag_410:\n        /* \"#utility.yul\":17330:17469   */\n      swap1\n      pop\n        /* \"#utility.yul\":17057:17476   */\n      swap2\n      swap1\n      pop\n      jump\t// out\n        /* \"#utility.yul\":17482:17662   */\n    tag_236:\n        /* \"#utility.yul\":17530:17607   */\n      0x4e487b7100000000000000000000000000000000000000000000000000000000\n        /* \"#utility.yul\":17527:17528   */\n      0x00\n        /* \"#utility.yul\":17520:17608   */\n      mstore\n        /* \"#utility.yul\":17627:17631   */\n      0x12\n        /* \"#utility.yul\":17624:17625   */\n      0x04\n        /* \"#utility.yul\":17617:17632   */\n      mstore\n        /* \"#utility.yul\":17651:17655   */\n      0x24\n        /* \"#utility.yul\":17648:17649   */\n      0x00\n        /* \"#utility.yul\":17641:17656   */\n      revert\n        /* \"#utility.yul\":17668:17853   */\n    tag_119:\n        /* \"#utility.yul\":17708:17709   */\n      0x00\n        /* \"#utility.yul\":17725:17745   */\n      tag_413\n        /* \"#utility.yul\":17743:17744   */\n      dup3\n        /* \"#utility.yul\":17725:17745   */\n      tag_199\n      jump\t// in\n    tag_413:\n        /* \"#utility.yul\":17720:17745   */\n      swap2\n      pop\n        /* \"#utility.yul\":17759:17779   */\n      tag_414\n        /* \"#utility.yul\":17777:17778   */\n      dup4\n        /* \"#utility.yul\":17759:17779   */\n      tag_199\n      jump\t// in\n    tag_414:\n        /* \"#utility.yul\":17754:17779   */\n      swap3\n      pop\n        /* \"#utility.yul\":17798:17799   */\n      dup3\n        /* \"#utility.yul\":17788:17823   */\n      tag_415\n      jumpi\n        /* \"#utility.yul\":17803:17821   */\n      tag_416\n      tag_236\n      jump\t// in\n    tag_416:\n        /* \"#utility.yul\":17788:17823   */\n    tag_415:\n        /* \"#utility.yul\":17845:17846   */\n      dup3\n        /* \"#utility.yul\":17842:17843   */\n      dup3\n        /* \"#utility.yul\":17838:17847   */\n      div\n        /* \"#utility.yul\":17833:17847   */\n      swap1\n      pop\n        /* \"#utility.yul\":17668:17853   */\n      swap3\n      swap2\n      pop\n      pop\n      jump\t// out\n        /* \"#utility.yul\":17859:18164   */\n    tag_121:\n        /* \"#utility.yul\":17899:17902   */\n      0x00\n        /* \"#utility.yul\":17918:17938   */\n      tag_418\n        /* \"#utility.yul\":17936:17937   */\n      dup3\n        /* \"#utility.yul\":17918:17938   */\n      tag_199\n      jump\t// in\n    tag_418:\n        /* \"#utility.yul\":17913:17938   */\n      swap2\n      pop\n        /* \"#utility.yul\":17952:17972   */\n      tag_419\n        /* \"#utility.yul\":17970:17971   */\n      dup4\n        /* \"#utility.yul\":17952:17972   */\n      tag_199\n      jump\t// in\n    tag_419:\n        /* \"#utility.yul\":17947:17972   */\n      swap3\n      pop\n        /* \"#utility.yul\":18106:18107   */\n      dup3\n        /* \"#utility.yul\":18038:18104   */\n      0xffffffffffffffffffffffffffffffffffffffffffffffffffffffffffffffff\n        /* \"#utility.yul\":18034:18108   */\n      sub\n        /* \"#utility.yul\":18031:18032   */\n      dup3\n        /* \"#utility.yul\":18028:18109   */\n      gt\n        /* \"#utility.yul\":18025:18132   */\n      iszero\n      tag_420\n      jumpi\n        /* \"#utility.yul\":18112:18130   */\n      tag_421\n      tag_233\n      jump\t// in\n    tag_421:\n        /* \"#utility.yul\":18025:18132   */\n    tag_420:\n        /* \"#utility.yul\":18156:18157   */\n      dup3\n        /* \"#utility.yul\":18153:18154   */\n      dup3\n        /* \"#utility.yul\":18149:18158   */\n      add\n        /* \"#utility.yul\":18142:18158   */\n      swap1\n      pop\n        /* \"#utility.yul\":17859:18164   */\n      swap3\n      swap2\n      pop\n      pop\n      jump\t// out\n        /* \"#utility.yul\":18170:18350   */\n    tag_124:\n        /* \"#utility.yul\":18218:18295   */\n      0x4e487b7100000000000000000000000000000000000000000000000000000000\n        /* \"#utility.yul\":18215:18216   */\n      0x00\n        /* \"#utility.yul\":18208:18296   */\n      mstore\n        /* \"#utility.yul\":18315:18319   */\n      0x32\n        /* \"#utility.yul\":18312:18313   */\n      0x04\n        /* \"#utility.yul\":18305:18320   */\n      mstore\n        /* \"#utility.yul\":18339:18343   */\n      0x24\n        /* \"#utility.yul\":18336:18337   */\n      0x00\n        /* \"#utility.yul\":18329:18344   */\n      revert\n        /* \"#utility.yul\":18356:18651   */\n    tag_237:\n        /* \"#utility.yul\":18496:18530   */\n      0x547261636541737365743a3a476574427954696d657374616d704572726f723a\n        /* \"#utility.yul\":18492:18493   */\n      0x00\n        /* \"#utility.yul\":18484:18490   */\n      dup3\n        /* \"#utility.yul\":18480:18494   */\n      add\n        /* \"#utility.yul\":18473:18531   */\n      mstore\n        /* \"#utility.yul\":18565:18599   */\n      0x3a2063616e206e6f742066696e6420636f72726573706f6e64696e6720747261\n        /* \"#utility.yul\":18560:18562   */\n      0x20\n        /* \"#utility.yul\":18552:18558   */\n      dup3\n        /* \"#utility.yul\":18548:18563   */\n      add\n        /* \"#utility.yul\":18541:18600   */\n      mstore\n        /* \"#utility.yul\":18634:18643   */\n      0x6365206461746100000000000000000000000000000000000000000000000000\n        /* \"#utility.yul\":18629:18631   */\n      0x40\n        /* \"#utility.yul\":18621:18627   */\n      dup3\n        /* \"#utility.yul\":18617:18632   */\n      add\n        /* \"#utility.yul\":18610:18644   */\n      mstore\n        /* \"#utility.yul\":18356:18651   */\n      pop\n      jump\t// out\n        /* \"#utility.yul\":18657:19023   */\n    tag_238:\n        /* \"#utility.yul\":18799:18802   */\n      0x00\n        /* \"#utility.yul\":18820:18887   */\n      tag_425\n        /* \"#utility.yul\":18884:18886   */\n      0x47\n        /* \"#utility.yul\":18879:18882   */\n      dup4\n        /* \"#utility.yul\":18820:18887   */\n      tag_229\n      jump\t// in\n    tag_425:\n        /* \"#utility.yul\":18813:18887   */\n      swap2\n      pop\n        /* \"#utility.yul\":18896:18989   */\n      tag_426\n        /* \"#utility.yul\":18985:18988   */\n      dup3\n        /* \"#utility.yul\":18896:18989   */\n      tag_237\n      jump\t// in\n    tag_426:\n        /* \"#utility.yul\":19014:19016   */\n      0x60\n        /* \"#utility.yul\":19009:19012   */\n      dup3\n        /* \"#utility.yul\":19005:19017   */\n      add\n        /* \"#utility.yul\":18998:19017   */\n      swap1\n      pop\n        /* \"#utility.yul\":18657:19023   */\n      swap2\n      swap1\n      pop\n      jump\t// out\n        /* \"#utility.yul\":19029:19448   */\n    tag_135:\n        /* \"#utility.yul\":19195:19199   */\n      0x00\n        /* \"#utility.yul\":19233:19235   */\n      0x20\n        /* \"#utility.yul\":19222:19231   */\n      dup3\n        /* \"#utility.yul\":19218:19236   */\n      add\n        /* \"#utility.yul\":19210:19236   */\n      swap1\n      pop\n        /* \"#utility.yul\":19282:19291   */\n      dup2\n        /* \"#utility.yul\":19276:19280   */\n      dup2\n        /* \"#utility.yul\":19272:19292   */\n      sub\n        /* \"#utility.yul\":19268:19269   */\n      0x00\n        /* \"#utility.yul\":19257:19266   */\n      dup4\n        /* \"#utility.yul\":19253:19270   */\n      add\n        /* \"#utility.yul\":19246:19293   */\n      mstore\n        /* \"#utility.yul\":19310:19441   */\n      tag_428\n        /* \"#utility.yul\":19436:19440   */\n      dup2\n        /* \"#utility.yul\":19310:19441   */\n      tag_238\n      jump\t// in\n    tag_428:\n        /* \"#utility.yul\":19302:19441   */\n      swap1\n      pop\n        /* \"#utility.yul\":19029:19448   */\n      swap2\n      swap1\n      pop\n      jump\t// out\n        /* \"#utility.yul\":19454:19683   */\n    tag_239:\n        /* \"#utility.yul\":19594:19628   */\n      0x547261636541737365743a3a4765744c6173744572726f723a3a206964206973\n        /* \"#utility.yul\":19590:19591   */\n      0x00\n        /* \"#utility.yul\":19582:19588   */\n      dup3\n        /* \"#utility.yul\":19578:19592   */\n      add\n        /* \"#utility.yul\":19571:19629   */\n      mstore\n        /* \"#utility.yul\":19663:19675   */\n      0x206e6f742076616c696400000000000000000000000000000000000000000000\n        /* \"#utility.yul\":19658:19660   */\n      0x20\n        /* \"#utility.yul\":19650:19656   */\n      dup3\n        /* \"#utility.yul\":19646:19661   */\n      add\n        /* \"#utility.yul\":19639:19676   */\n      mstore\n        /* \"#utility.yul\":19454:19683   */\n      pop\n      jump\t// out\n        /* \"#utility.yul\":19689:20055   */\n    tag_240:\n        /* \"#utility.yul\":19831:19834   */\n      0x00\n        /* \"#utility.yul\":19852:19919   */\n      tag_431\n        /* \"#utility.yul\":19916:19918   */\n      0x2a\n        /* \"#utility.yul\":19911:19914   */\n      dup4\n        /* \"#utility.yul\":19852:19919   */\n      tag_229\n      jump\t// in\n    tag_431:\n        /* \"#utility.yul\":19845:19919   */\n      swap2\n      pop\n        /* \"#utility.yul\":19928:20021   */\n      tag_432\n        /* \"#utility.yul\":20017:20020   */\n      dup3\n        /* \"#utility.yul\":19928:20021   */\n      tag_239\n      jump\t// in\n    tag_432:\n        /* \"#utility.yul\":20046:20048   */\n      0x40\n        /* \"#utility.yul\":20041:20044   */\n      dup3\n        /* \"#utility.yul\":20037:20049   */\n      add\n        /* \"#utility.yul\":20030:20049   */\n      swap1\n      pop\n        /* \"#utility.yul\":19689:20055   */\n      swap2\n      swap1\n      pop\n      jump\t// out\n        /* \"#utility.yul\":20061:20480   */\n    tag_143:\n        /* \"#utility.yul\":20227:20231   */\n      0x00\n        /* \"#utility.yul\":20265:20267   */\n      0x20\n        /* \"#utility.yul\":20254:20263   */\n      dup3\n        /* \"#utility.yul\":20250:20268   */\n      add\n        /* \"#utility.yul\":20242:20268   */\n      swap1\n      pop\n        /* \"#utility.yul\":20314:20323   */\n      dup2\n        /* \"#utility.yul\":20308:20312   */\n      dup2\n        /* \"#utility.yul\":20304:20324   */\n      sub\n        /* \"#utility.yul\":20300:20301   */\n      0x00\n        /* \"#utility.yul\":20289:20298   */\n      dup4\n        /* \"#utility.yul\":20285:20302   */\n      add\n        /* \"#utility.yul\":20278:20325   */\n      mstore\n        /* \"#utility.yul\":20342:20473   */\n      tag_434\n        /* \"#utility.yul\":20468:20472   */\n      dup2\n        /* \"#utility.yul\":20342:20473   */\n      tag_240\n      jump\t// in\n    tag_434:\n        /* \"#utility.yul\":20334:20473   */\n      swap1\n      pop\n        /* \"#utility.yul\":20061:20480   */\n      swap2\n      swap1\n      pop\n      jump\t// out\n        /* \"#utility.yul\":20486:20850   */\n    tag_241:\n        /* \"#utility.yul\":20574:20577   */\n      0x00\n        /* \"#utility.yul\":20602:20641   */\n      tag_436\n        /* \"#utility.yul\":20635:20640   */\n      dup3\n        /* \"#utility.yul\":20602:20641   */\n      tag_207\n      jump\t// in\n    tag_436:\n        /* \"#utility.yul\":20657:20728   */\n      tag_437\n        /* \"#utility.yul\":20721:20727   */\n      dup2\n        /* \"#utility.yul\":20716:20719   */\n      dup6\n        /* \"#utility.yul\":20657:20728   */\n      tag_229\n      jump\t// in\n    tag_437:\n        /* \"#utility.yul\":20650:20728   */\n      swap4\n      pop\n        /* \"#utility.yul\":20737:20789   */\n      tag_438\n        /* \"#utility.yul\":20782:20788   */\n      dup2\n        /* \"#utility.yul\":20777:20780   */\n      dup6\n        /* \"#utility.yul\":20770:20774   */\n      0x20\n        /* \"#utility.yul\":20763:20768   */\n      dup7\n        /* \"#utility.yul\":20759:20775   */\n      add\n        /* \"#utility.yul\":20737:20789   */\n      tag_209\n      jump\t// in\n    tag_438:\n        /* \"#utility.yul\":20814:20843   */\n      tag_439\n        /* \"#utility.yul\":20836:20842   */\n      dup2\n        /* \"#utility.yul\":20814:20843   */\n      tag_210\n      jump\t// in\n    tag_439:\n        /* \"#utility.yul\":20809:20812   */\n      dup5\n        /* \"#utility.yul\":20805:20844   */\n      add\n        /* \"#utility.yul\":20798:20844   */\n      swap2\n      pop\n        /* \"#utility.yul\":20578:20850   */\n      pop\n        /* \"#utility.yul\":20486:20850   */\n      swap3\n      swap2\n      pop\n      pop\n      jump\t// out\n        /* \"#utility.yul\":20856:20974   */\n    tag_242:\n        /* \"#utility.yul\":20943:20967   */\n      tag_441\n        /* \"#utility.yul\":20961:20966   */\n      dup2\n        /* \"#utility.yul\":20943:20967   */\n      tag_199\n      jump\t// in\n    tag_441:\n        /* \"#utility.yul\":20938:20941   */\n      dup3\n        /* \"#utility.yul\":20931:20968   */\n      mstore\n        /* \"#utility.yul\":20856:20974   */\n      pop\n      pop\n      jump\t// out\n        /* \"#utility.yul\":20980:21403   */\n    tag_164:\n        /* \"#utility.yul\":21121:21125   */\n      0x00\n        /* \"#utility.yul\":21159:21161   */\n      0x40\n        /* \"#utility.yul\":21148:21157   */\n      dup3\n        /* \"#utility.yul\":21144:21162   */\n      add\n        /* \"#utility.yul\":21136:21162   */\n      swap1\n      pop\n        /* \"#utility.yul\":21208:21217   */\n      dup2\n        /* \"#utility.yul\":21202:21206   */\n      dup2\n        /* \"#utility.yul\":21198:21218   */\n      sub\n        /* \"#utility.yul\":21194:21195   */\n      0x00\n        /* \"#utility.yul\":21183:21192   */\n      dup4\n        /* \"#utility.yul\":21179:21196   */\n      add\n        /* \"#utility.yul\":21172:21219   */\n      mstore\n        /* \"#utility.yul\":21236:21314   */\n      tag_443\n        /* \"#utility.yul\":21309:21313   */\n      dup2\n        /* \"#utility.yul\":21300:21306   */\n      dup6\n        /* \"#utility.yul\":21236:21314   */\n      tag_241\n      jump\t// in\n    tag_443:\n        /* \"#utility.yul\":21228:21314   */\n      swap1\n      pop\n        /* \"#utility.yul\":21324:21396   */\n      tag_444\n        /* \"#utility.yul\":21392:21394   */\n      0x20\n        /* \"#utility.yul\":21381:21390   */\n      dup4\n        /* \"#utility.yul\":21377:21395   */\n      add\n        /* \"#utility.yul\":21368:21374   */\n      dup5\n        /* \"#utility.yul\":21324:21396   */\n      tag_242\n      jump\t// in\n    tag_444:\n        /* \"#utility.yul\":20980:21403   */\n      swap4\n      swap3\n      pop\n      pop\n      pop\n      jump\t// out\n        /* \"#utility.yul\":21409:21578   */\n    tag_243:\n        /* \"#utility.yul\":21549:21570   */\n      0x556e417574686f72697a65644163636f756e7400000000000000000000000000\n        /* \"#utility.yul\":21545:21546   */\n      0x00\n        /* \"#utility.yul\":21537:21543   */\n      dup3\n        /* \"#utility.yul\":21533:21547   */\n      add\n        /* \"#utility.yul\":21526:21571   */\n      mstore\n        /* \"#utility.yul\":21409:21578   */\n      pop\n      jump\t// out\n        /* \"#utility.yul\":21584:21950   */\n    tag_244:\n        /* \"#utility.yul\":21726:21729   */\n      0x00\n        /* \"#utility.yul\":21747:21814   */\n      tag_447\n        /* \"#utility.yul\":21811:21813   */\n      0x13\n        /* \"#utility.yul\":21806:21809   */\n      dup4\n        /* \"#utility.yul\":21747:21814   */\n      tag_229\n      jump\t// in\n    tag_447:\n        /* \"#utility.yul\":21740:21814   */\n      swap2\n      pop\n        /* \"#utility.yul\":21823:21916   */\n      tag_448\n        /* \"#utility.yul\":21912:21915   */\n      dup3\n        /* \"#utility.yul\":21823:21916   */\n      tag_243\n      jump\t// in\n    tag_448:\n        /* \"#utility.yul\":21941:21943   */\n      0x20\n        /* \"#utility.yul\":21936:21939   */\n      dup3\n        /* \"#utility.yul\":21932:21944   */\n      add\n        /* \"#utility.yul\":21925:21944   */\n      swap1\n      pop\n        /* \"#utility.yul\":21584:21950   */\n      swap2\n      swap1\n      pop\n      jump\t// out\n        /* \"#utility.yul\":21956:22375   */\n    tag_169:\n        /* \"#utility.yul\":22122:22126   */\n      0x00\n        /* \"#utility.yul\":22160:22162   */\n      0x20\n        /* \"#utility.yul\":22149:22158   */\n      dup3\n        /* \"#utility.yul\":22145:22163   */\n      add\n        /* \"#utility.yul\":22137:22163   */\n      swap1\n      pop\n        /* \"#utility.yul\":22209:22218   */\n      dup2\n        /* \"#utility.yul\":22203:22207   */\n      dup2\n        /* \"#utility.yul\":22199:22219   */\n      sub\n        /* \"#utility.yul\":22195:22196   */\n      0x00\n        /* \"#utility.yul\":22184:22193   */\n      dup4\n        /* \"#utility.yul\":22180:22197   */\n      add\n        /* \"#utility.yul\":22173:22220   */\n      mstore\n        /* \"#utility.yul\":22237:22368   */\n      tag_450\n        /* \"#utility.yul\":22363:22367   */\n      dup2\n        /* \"#utility.yul\":22237:22368   */\n      tag_244\n      jump\t// in\n    tag_450:\n        /* \"#utility.yul\":22229:22368   */\n      swap1\n      pop\n        /* \"#utility.yul\":21956:22375   */\n      swap2\n      swap1\n      pop\n      jump\t// out\n\n    auxdata: 0xa2646970667358221220fce4e3272ec37f9769e53105b13bd972b2dc9f605089538db9e7afe56860e8a264736f6c634300080b0033\n}\n",
				"bytecode": {
					"linkReferences": {},
					"object": "60806040523480156200001157600080fd5b503360016000808060001b815260200190815260200160002060000160008373ffffffffffffffffffffffffffffffffffffffff1673ffffffffffffffffffffffffffffffffffffffff16815260200190815260200160002060006101000a81548160ff02191690831515021790555050620000b77fde578090ec646877a6b707d83ea8139dac8a43d4dea437aa209801b10c1b26b56000801b620000f060201b60201c565b620000e97fde578090ec646877a6b707d83ea8139dac8a43d4dea437aa209801b10c1b26b5336200015360201b60201c565b50620003d7565b600062000103836200026c60201b60201c565b905081600080858152602001908152602001600020600101819055508181847fbd79b86ffe0ab8e8776151514217cd7cacd52c909f66475c3af44e129f0b00ff60405160405180910390a4505050565b600062000166836200026c60201b60201c565b62000177816200028b60201b60201c565b506200018a8484620002ea60201b60201c565b156200019a576000915062000265565b600160008086815260200190815260200160002060000160008573ffffffffffffffffffffffffffffffffffffffff1673ffffffffffffffffffffffffffffffffffffffff16815260200190815260200160002060006101000a81548160ff0219169083151502179055503373ffffffffffffffffffffffffffffffffffffffff168373ffffffffffffffffffffffffffffffffffffffff16857f2f8788117e7eff1d82e926ec794901d17c78024a50270940304540a733656f0d60405160405180910390a4600191505b5092915050565b6000806000838152602001908152602001600020600101549050919050565b60006200029f8233620002ea60201b60201c565b620002e1576040517f08c379a0000000000000000000000000000000000000000000000000000000008152600401620002d890620003b5565b60405180910390fd5b60019050919050565b600080600084815260200190815260200160002060000160008373ffffffffffffffffffffffffffffffffffffffff1673ffffffffffffffffffffffffffffffffffffffff16815260200190815260200160002060009054906101000a900460ff16905092915050565b600082825260208201905092915050565b7f556e417574686f72697a65644163636f756e7400000000000000000000000000600082015250565b60006200039d60138362000354565b9150620003aa8262000365565b602082019050919050565b60006020820190508181036000830152620003d0816200038e565b9050919050565b611b1080620003e76000396000f3fe608060405234801561001057600080fd5b50600436106100cf5760003560e01c806391d148541161008c578063aa8d24c311610066578063aa8d24c31461024e578063c3dbd0f51461026a578063c5b9519014610286578063d547741f146102b6576100cf565b806391d14854146101d0578063964a8091146102005780639cdeba9514610230576100cf565b8063248a9ca3146100d45780632a0acc6a146101045780632f2ff15d146101225780633c077a48146101525780634e7a23ba146101825780634f7e9753146101a0575b600080fd5b6100ee60048036038101906100e99190610f5b565b6102e6565b6040516100fb9190610f97565b60405180910390f35b61010c610305565b6040516101199190610f97565b60405180910390f35b61013c60048036038101906101379190611010565b61030c565b604051610149919061106b565b60405180910390f35b61016c600480360381019061016791906110bc565b61040b565b60405161017991906112b2565b60405180910390f35b61018a6105fa565b6040516101979190610f97565b60405180910390f35b6101ba60048036038101906101b591906112d4565b61061e565b6040516101c79190611364565b60405180910390f35b6101ea60048036038101906101e59190611010565b610927565b6040516101f7919061106b565b60405180910390f35b61021a600480360381019061021591906110bc565b610991565b6040516102279190611364565b60405180910390f35b610238610b67565b6040516102459190610f97565b60405180910390f35b61026860048036038101906102639190611386565b610b6e565b005b610284600480360381019061027f9190611572565b610bab565b005b6102a0600480360381019061029b9190610f5b565b610ce5565b6040516102ad919061106b565b60405180910390f35b6102d060048036038101906102cb9190611010565b610d39565b6040516102dd919061106b565b60405180910390f35b6000806000838152602001908152602001600020600101549050919050565b6000801b81565b6000610317836102e6565b61032081610ce5565b5061032b8484610927565b156103395760009150610404565b600160008086815260200190815260200160002060000160008573ffffffffffffffffffffffffffffffffffffffff1673ffffffffffffffffffffffffffffffffffffffff16815260200190815260200160002060006101000a81548160ff0219169083151502179055503373ffffffffffffffffffffffffffffffffffffffff168373ffffffffffffffffffffffffffffffffffffffff16857f2f8788117e7eff1d82e926ec794901d17c78024a50270940304540a733656f0d60405160405180910390a4600191505b5092915050565b60607fde578090ec646877a6b707d83ea8139dac8a43d4dea437aa209801b10c1b26b561043781610ce5565b5060006001600085815260200190815260200160002080549050905060008111610496576040517f08c379a000000000000000000000000000000000000000000000000000000000815260040161048d90611651565b60405180910390fd5b60016000858152602001908152602001600020805480602002602001604051908101604052809291908181526020016000905b828210156105ed5783829060005260206000209060030201604051806060016040529081600082015481526020016001820160009054906101000a900473ffffffffffffffffffffffffffffffffffffffff1673ffffffffffffffffffffffffffffffffffffffff1673ffffffffffffffffffffffffffffffffffffffff16815260200160028201805461055c906116a0565b80601f0160208091040260200160405190810160405280929190818152602001828054610588906116a0565b80156105d55780601f106105aa576101008083540402835291602001916105d5565b820191906000526020600020905b8154815290600101906020018083116105b857829003601f168201915b505050505081525050815260200190600101906104c9565b5050505092505050919050565b7fde578090ec646877a6b707d83ea8139dac8a43d4dea437aa209801b10c1b26b581565b610626610e37565b7fde578090ec646877a6b707d83ea8139dac8a43d4dea437aa209801b10c1b26b561065081610ce5565b5060006001806000878152602001908152602001600020805490506106759190611701565b905060008110156106bb576040517f08c379a00000000000000000000000000000000000000000000000000000000081526004016106b2906117a7565b60405180910390fd5b600060016000878152602001908152602001600020805480602002602001604051908101604052809291908181526020016000905b828210156108145783829060005260206000209060030201604051806060016040529081600082015481526020016001820160009054906101000a900473ffffffffffffffffffffffffffffffffffffffff1673ffffffffffffffffffffffffffffffffffffffff1673ffffffffffffffffffffffffffffffffffffffff168152602001600282018054610783906116a0565b80601f01602080910402602001604051908101604052809291908181526020018280546107af906116a0565b80156107fc5780601f106107d1576101008083540402835291602001916107fc565b820191906000526020600020905b8154815290600101906020018083116107df57829003601f168201915b505050505081525050815260200190600101906106f0565b5050505090506000805b8382116108e557600282856108339190611701565b61083d91906117f6565b826108489190611827565b90508683828151811061085e5761085d61187d565b5b6020026020010151600001511415610896578281815181106108835761088261187d565b5b6020026020010151955050505050610920565b868382815181106108aa576108a961187d565b5b60200260200101516000015110156108d0576001816108c99190611827565b91506108e0565b6001816108dd9190611701565b93505b61081e565b6040517f08c379a000000000000000000000000000000000000000000000000000000000815260040161091790611944565b60405180910390fd5b5092915050565b600080600084815260200190815260200160002060000160008373ffffffffffffffffffffffffffffffffffffffff1673ffffffffffffffffffffffffffffffffffffffff16815260200190815260200160002060009054906101000a900460ff16905092915050565b610999610e37565b7fde578090ec646877a6b707d83ea8139dac8a43d4dea437aa209801b10c1b26b56109c381610ce5565b5060006001600085815260200190815260200160002080549050905060008111610a22576040517f08c379a0000000000000000000000000000000000000000000000000000000008152600401610a19906119d6565b60405180910390fd5b60016000858152602001908152602001600020600182610a429190611701565b81548110610a5357610a5261187d565b5b9060005260206000209060030201604051806060016040529081600082015481526020016001820160009054906101000a900473ffffffffffffffffffffffffffffffffffffffff1673ffffffffffffffffffffffffffffffffffffffff1673ffffffffffffffffffffffffffffffffffffffff168152602001600282018054610adc906116a0565b80601f0160208091040260200160405190810160405280929190818152602001828054610b08906116a0565b8015610b555780601f10610b2a57610100808354040283529160200191610b55565b820191906000526020600020905b815481529060010190602001808311610b3857829003601f168201915b50505050508152505092505050919050565b6000801b81565b6000801b610b7b81610ce5565b50610ba67fde578090ec646877a6b707d83ea8139dac8a43d4dea437aa209801b10c1b26b58361030c565b505050565b7fde578090ec646877a6b707d83ea8139dac8a43d4dea437aa209801b10c1b26b5610bd581610ce5565b50600160008481526020019081526020016000208290806001815401808255809150506001900390600052602060002090600302016000909190919091506000820151816000015560208201518160010160006101000a81548173ffffffffffffffffffffffffffffffffffffffff021916908373ffffffffffffffffffffffffffffffffffffffff1602179055506040820151816002019080519060200190610c80929190610e6e565b505050816020015173ffffffffffffffffffffffffffffffffffffffff16837fbcb9d9e5f8e1f76be41695627bd7173633d37cb1f47d0124f3a008113e6fda2384604001518560000151604051610cd8929190611a3e565b60405180910390a3505050565b6000610cf18233610927565b610d30576040517f08c379a0000000000000000000000000000000000000000000000000000000008152600401610d2790611aba565b60405180910390fd5b60019050919050565b6000610d44836102e6565b610d4d81610ce5565b50610d588484610927565b610d655760009150610e30565b600080600086815260200190815260200160002060000160008573ffffffffffffffffffffffffffffffffffffffff1673ffffffffffffffffffffffffffffffffffffffff16815260200190815260200160002060006101000a81548160ff0219169083151502179055503373ffffffffffffffffffffffffffffffffffffffff168373ffffffffffffffffffffffffffffffffffffffff16857ff6391f5c32d9c69d2a47ea670b442974b53935d1edc7fd64eb21e047a839171b60405160405180910390a4600191505b5092915050565b604051806060016040528060008152602001600073ffffffffffffffffffffffffffffffffffffffff168152602001606081525090565b828054610e7a906116a0565b90600052602060002090601f016020900481019282610e9c5760008555610ee3565b82601f10610eb557805160ff1916838001178555610ee3565b82800160010185558215610ee3579182015b82811115610ee2578251825591602001919060010190610ec7565b5b509050610ef09190610ef4565b5090565b5b80821115610f0d576000816000905550600101610ef5565b5090565b6000604051905090565b600080fd5b600080fd5b6000819050919050565b610f3881610f25565b8114610f4357600080fd5b50565b600081359050610f5581610f2f565b92915050565b600060208284031215610f7157610f70610f1b565b5b6000610f7f84828501610f46565b91505092915050565b610f9181610f25565b82525050565b6000602082019050610fac6000830184610f88565b92915050565b600073ffffffffffffffffffffffffffffffffffffffff82169050919050565b6000610fdd82610fb2565b9050919050565b610fed81610fd2565b8114610ff857600080fd5b50565b60008135905061100a81610fe4565b92915050565b6000806040838503121561102757611026610f1b565b5b600061103585828601610f46565b925050602061104685828601610ffb565b9150509250929050565b60008115159050919050565b61106581611050565b82525050565b6000602082019050611080600083018461105c565b92915050565b6000819050919050565b61109981611086565b81146110a457600080fd5b50565b6000813590506110b681611090565b92915050565b6000602082840312156110d2576110d1610f1b565b5b60006110e0848285016110a7565b91505092915050565b600081519050919050565b600082825260208201905092915050565b6000819050602082019050919050565b61111e81611086565b82525050565b61112d81610fd2565b82525050565b600081519050919050565b600082825260208201905092915050565b60005b8381101561116d578082015181840152602081019050611152565b8381111561117c576000848401525b50505050565b6000601f19601f8301169050919050565b600061119e82611133565b6111a8818561113e565b93506111b881856020860161114f565b6111c181611182565b840191505092915050565b60006060830160008301516111e46000860182611115565b5060208301516111f76020860182611124565b506040830151848203604086015261120f8282611193565b9150508091505092915050565b600061122883836111cc565b905092915050565b6000602082019050919050565b6000611248826110e9565b61125281856110f4565b93508360208202850161126485611105565b8060005b858110156112a05784840389528151611281858261121c565b945061128c83611230565b925060208a01995050600181019050611268565b50829750879550505050505092915050565b600060208201905081810360008301526112cc818461123d565b905092915050565b600080604083850312156112eb576112ea610f1b565b5b60006112f9858286016110a7565b925050602061130a858286016110a7565b9150509250929050565b600060608301600083015161132c6000860182611115565b50602083015161133f6020860182611124565b50604083015184820360408601526113578282611193565b9150508091505092915050565b6000602082019050818103600083015261137e8184611314565b905092915050565b60006020828403121561139c5761139b610f1b565b5b60006113aa84828501610ffb565b91505092915050565b600080fd5b7f4e487b7100000000000000000000000000000000000000000000000000000000600052604160045260246000fd5b6113f082611182565b810181811067ffffffffffffffff8211171561140f5761140e6113b8565b5b80604052505050565b6000611422610f11565b905061142e82826113e7565b919050565b600080fd5b600080fd5b600080fd5b600067ffffffffffffffff82111561145d5761145c6113b8565b5b61146682611182565b9050602081019050919050565b82818337600083830152505050565b600061149561149084611442565b611418565b9050828152602081018484840111156114b1576114b061143d565b5b6114bc848285611473565b509392505050565b600082601f8301126114d9576114d8611438565b5b81356114e9848260208601611482565b91505092915050565b600060608284031215611508576115076113b3565b5b6115126060611418565b90506000611522848285016110a7565b600083015250602061153684828501610ffb565b602083015250604082013567ffffffffffffffff81111561155a57611559611433565b5b611566848285016114c4565b60408301525092915050565b6000806040838503121561158957611588610f1b565b5b6000611597858286016110a7565b925050602083013567ffffffffffffffff8111156115b8576115b7610f20565b5b6115c4858286016114f2565b9150509250929050565b600082825260208201905092915050565b7f547261636541737365743a3a476574416c6c4572726f723a3a2069642069732060008201527f6e6f742076616c69640000000000000000000000000000000000000000000000602082015250565b600061163b6029836115ce565b9150611646826115df565b604082019050919050565b6000602082019050818103600083015261166a8161162e565b9050919050565b7f4e487b7100000000000000000000000000000000000000000000000000000000600052602260045260246000fd5b600060028204905060018216806116b857607f821691505b602082108114156116cc576116cb611671565b5b50919050565b7f4e487b7100000000000000000000000000000000000000000000000000000000600052601160045260246000fd5b600061170c82611086565b915061171783611086565b92508282101561172a576117296116d2565b5b828203905092915050565b7f547261636541737365743a3a476574427954696d657374616d704572726f723a60008201527f3a206964206973206e6f742076616c6964000000000000000000000000000000602082015250565b60006117916031836115ce565b915061179c82611735565b604082019050919050565b600060208201905081810360008301526117c081611784565b9050919050565b7f4e487b7100000000000000000000000000000000000000000000000000000000600052601260045260246000fd5b600061180182611086565b915061180c83611086565b92508261181c5761181b6117c7565b5b828204905092915050565b600061183282611086565b915061183d83611086565b9250827fffffffffffffffffffffffffffffffffffffffffffffffffffffffffffffffff03821115611872576118716116d2565b5b828201905092915050565b7f4e487b7100000000000000000000000000000000000000000000000000000000600052603260045260246000fd5b7f547261636541737365743a3a476574427954696d657374616d704572726f723a60008201527f3a2063616e206e6f742066696e6420636f72726573706f6e64696e672074726160208201527f6365206461746100000000000000000000000000000000000000000000000000604082015250565b600061192e6047836115ce565b9150611939826118ac565b606082019050919050565b6000602082019050818103600083015261195d81611921565b9050919050565b7f547261636541737365743a3a4765744c6173744572726f723a3a20696420697360008201527f206e6f742076616c696400000000000000000000000000000000000000000000602082015250565b60006119c0602a836115ce565b91506119cb82611964565b604082019050919050565b600060208201905081810360008301526119ef816119b3565b9050919050565b6000611a0182611133565b611a0b81856115ce565b9350611a1b81856020860161114f565b611a2481611182565b840191505092915050565b611a3881611086565b82525050565b60006040820190508181036000830152611a5881856119f6565b9050611a676020830184611a2f565b9392505050565b7f556e417574686f72697a65644163636f756e7400000000000000000000000000600082015250565b6000611aa46013836115ce565b9150611aaf82611a6e565b602082019050919050565b60006020820190508181036000830152611ad381611a97565b905091905056fea2646970667358221220fce4e3272ec37f9769e53105b13bd972b2dc9f605089538db9e7afe56860e8a264736f6c634300080b0033",
					"opcodes": "PUSH1 0x80 PUSH1 0x40 MSTORE CALLVALUE DUP1 ISZERO PUSH3 0x11 JUMPI PUSH1 0x0 DUP1 REVERT JUMPDEST POP CALLER PUSH1 0x1 PUSH1 0x0 DUP1 DUP1 PUSH1 0x0 SHL DUP2 MSTORE PUSH1 0x20 ADD SWAP1 DUP2 MSTORE PUSH1 0x20 ADD PUSH1 0x0 KECCAK256 PUSH1 0x0 ADD PUSH1 0x0 DUP4 PUSH20 0xFFFFFFFFFFFFFFFFFFFFFFFFFFFFFFFFFFFFFFFF AND PUSH20 0xFFFFFFFFFFFFFFFFFFFFFFFFFFFFFFFFFFFFFFFF AND DUP2 MSTORE PUSH1 0x20 ADD SWAP1 DUP2 MSTORE PUSH1 0x20 ADD PUSH1 0x0 KECCAK256 PUSH1 0x0 PUSH2 0x100 EXP DUP2 SLOAD DUP2 PUSH1 0xFF MUL NOT AND SWAP1 DUP4 ISZERO ISZERO MUL OR SWAP1 SSTORE POP POP PUSH3 0xB7 PUSH32 0xDE578090EC646877A6B707D83EA8139DAC8A43D4DEA437AA209801B10C1B26B5 PUSH1 0x0 DUP1 SHL PUSH3 0xF0 PUSH1 0x20 SHL PUSH1 0x20 SHR JUMP JUMPDEST PUSH3 0xE9 PUSH32 0xDE578090EC646877A6B707D83EA8139DAC8A43D4DEA437AA209801B10C1B26B5 CALLER PUSH3 0x153 PUSH1 0x20 SHL PUSH1 0x20 SHR JUMP JUMPDEST POP PUSH3 0x3D7 JUMP JUMPDEST PUSH1 0x0 PUSH3 0x103 DUP4 PUSH3 0x26C PUSH1 0x20 SHL PUSH1 0x20 SHR JUMP JUMPDEST SWAP1 POP DUP2 PUSH1 0x0 DUP1 DUP6 DUP2 MSTORE PUSH1 0x20 ADD SWAP1 DUP2 MSTORE PUSH1 0x20 ADD PUSH1 0x0 KECCAK256 PUSH1 0x1 ADD DUP2 SWAP1 SSTORE POP DUP2 DUP2 DUP5 PUSH32 0xBD79B86FFE0AB8E8776151514217CD7CACD52C909F66475C3AF44E129F0B00FF PUSH1 0x40 MLOAD PUSH1 0x40 MLOAD DUP1 SWAP2 SUB SWAP1 LOG4 POP POP POP JUMP JUMPDEST PUSH1 0x0 PUSH3 0x166 DUP4 PUSH3 0x26C PUSH1 0x20 SHL PUSH1 0x20 SHR JUMP JUMPDEST PUSH3 0x177 DUP2 PUSH3 0x28B PUSH1 0x20 SHL PUSH1 0x20 SHR JUMP JUMPDEST POP PUSH3 0x18A DUP5 DUP5 PUSH3 0x2EA PUSH1 0x20 SHL PUSH1 0x20 SHR JUMP JUMPDEST ISZERO PUSH3 0x19A JUMPI PUSH1 0x0 SWAP2 POP PUSH3 0x265 JUMP JUMPDEST PUSH1 0x1 PUSH1 0x0 DUP1 DUP7 DUP2 MSTORE PUSH1 0x20 ADD SWAP1 DUP2 MSTORE PUSH1 0x20 ADD PUSH1 0x0 KECCAK256 PUSH1 0x0 ADD PUSH1 0x0 DUP6 PUSH20 0xFFFFFFFFFFFFFFFFFFFFFFFFFFFFFFFFFFFFFFFF AND PUSH20 0xFFFFFFFFFFFFFFFFFFFFFFFFFFFFFFFFFFFFFFFF AND DUP2 MSTORE PUSH1 0x20 ADD SWAP1 DUP2 MSTORE PUSH1 0x20 ADD PUSH1 0x0 KECCAK256 PUSH1 0x0 PUSH2 0x100 EXP DUP2 SLOAD DUP2 PUSH1 0xFF MUL NOT AND SWAP1 DUP4 ISZERO ISZERO MUL OR SWAP1 SSTORE POP CALLER PUSH20 0xFFFFFFFFFFFFFFFFFFFFFFFFFFFFFFFFFFFFFFFF AND DUP4 PUSH20 0xFFFFFFFFFFFFFFFFFFFFFFFFFFFFFFFFFFFFFFFF AND DUP6 PUSH32 0x2F8788117E7EFF1D82E926EC794901D17C78024A50270940304540A733656F0D PUSH1 0x40 MLOAD PUSH1 0x40 MLOAD DUP1 SWAP2 SUB SWAP1 LOG4 PUSH1 0x1 SWAP2 POP JUMPDEST POP SWAP3 SWAP2 POP POP JUMP JUMPDEST PUSH1 0x0 DUP1 PUSH1 0x0 DUP4 DUP2 MSTORE PUSH1 0x20 ADD SWAP1 DUP2 MSTORE PUSH1 0x20 ADD PUSH1 0x0 KECCAK256 PUSH1 0x1 ADD SLOAD SWAP1 POP SWAP2 SWAP1 POP JUMP JUMPDEST PUSH1 0x0 PUSH3 0x29F DUP3 CALLER PUSH3 0x2EA PUSH1 0x20 SHL PUSH1 0x20 SHR JUMP JUMPDEST PUSH3 0x2E1 JUMPI PUSH1 0x40 MLOAD PUSH32 0x8C379A000000000000000000000000000000000000000000000000000000000 DUP2 MSTORE PUSH1 0x4 ADD PUSH3 0x2D8 SWAP1 PUSH3 0x3B5 JUMP JUMPDEST PUSH1 0x40 MLOAD DUP1 SWAP2 SUB SWAP1 REVERT JUMPDEST PUSH1 0x1 SWAP1 POP SWAP2 SWAP1 POP JUMP JUMPDEST PUSH1 0x0 DUP1 PUSH1 0x0 DUP5 DUP2 MSTORE PUSH1 0x20 ADD SWAP1 DUP2 MSTORE PUSH1 0x20 ADD PUSH1 0x0 KECCAK256 PUSH1 0x0 ADD PUSH1 0x0 DUP4 PUSH20 0xFFFFFFFFFFFFFFFFFFFFFFFFFFFFFFFFFFFFFFFF AND PUSH20 0xFFFFFFFFFFFFFFFFFFFFFFFFFFFFFFFFFFFFFFFF AND DUP2 MSTORE PUSH1 0x20 ADD SWAP1 DUP2 MSTORE PUSH1 0x20 ADD PUSH1 0x0 KECCAK256 PUSH1 0x0 SWAP1 SLOAD SWAP1 PUSH2 0x100 EXP SWAP1 DIV PUSH1 0xFF AND SWAP1 POP SWAP3 SWAP2 POP POP JUMP JUMPDEST PUSH1 0x0 DUP3 DUP3 MSTORE PUSH1 0x20 DUP3 ADD SWAP1 POP SWAP3 SWAP2 POP POP JUMP JUMPDEST PUSH32 0x556E417574686F72697A65644163636F756E7400000000000000000000000000 PUSH1 0x0 DUP3 ADD MSTORE POP JUMP JUMPDEST PUSH1 0x0 PUSH3 0x39D PUSH1 0x13 DUP4 PUSH3 0x354 JUMP JUMPDEST SWAP2 POP PUSH3 0x3AA DUP3 PUSH3 0x365 JUMP JUMPDEST PUSH1 0x20 DUP3 ADD SWAP1 POP SWAP2 SWAP1 POP JUMP JUMPDEST PUSH1 0x0 PUSH1 0x20 DUP3 ADD SWAP1 POP DUP2 DUP2 SUB PUSH1 0x0 DUP4 ADD MSTORE PUSH3 0x3D0 DUP2 PUSH3 0x38E JUMP JUMPDEST SWAP1 POP SWAP2 SWAP1 POP JUMP JUMPDEST PUSH2 0x1B10 DUP1 PUSH3 0x3E7 PUSH1 0x0 CODECOPY PUSH1 0x0 RETURN INVALID PUSH1 0x80 PUSH1 0x40 MSTORE CALLVALUE DUP1 ISZERO PUSH2 0x10 JUMPI PUSH1 0x0 DUP1 REVERT JUMPDEST POP PUSH1 0x4 CALLDATASIZE LT PUSH2 0xCF JUMPI PUSH1 0x0 CALLDATALOAD PUSH1 0xE0 SHR DUP1 PUSH4 0x91D14854 GT PUSH2 0x8C JUMPI DUP1 PUSH4 0xAA8D24C3 GT PUSH2 0x66 JUMPI DUP1 PUSH4 0xAA8D24C3 EQ PUSH2 0x24E JUMPI DUP1 PUSH4 0xC3DBD0F5 EQ PUSH2 0x26A JUMPI DUP1 PUSH4 0xC5B95190 EQ PUSH2 0x286 JUMPI DUP1 PUSH4 0xD547741F EQ PUSH2 0x2B6 JUMPI PUSH2 0xCF JUMP JUMPDEST DUP1 PUSH4 0x91D14854 EQ PUSH2 0x1D0 JUMPI DUP1 PUSH4 0x964A8091 EQ PUSH2 0x200 JUMPI DUP1 PUSH4 0x9CDEBA95 EQ PUSH2 0x230 JUMPI PUSH2 0xCF JUMP JUMPDEST DUP1 PUSH4 0x248A9CA3 EQ PUSH2 0xD4 JUMPI DUP1 PUSH4 0x2A0ACC6A EQ PUSH2 0x104 JUMPI DUP1 PUSH4 0x2F2FF15D EQ PUSH2 0x122 JUMPI DUP1 PUSH4 0x3C077A48 EQ PUSH2 0x152 JUMPI DUP1 PUSH4 0x4E7A23BA EQ PUSH2 0x182 JUMPI DUP1 PUSH4 0x4F7E9753 EQ PUSH2 0x1A0 JUMPI JUMPDEST PUSH1 0x0 DUP1 REVERT JUMPDEST PUSH2 0xEE PUSH1 0x4 DUP1 CALLDATASIZE SUB DUP2 ADD SWAP1 PUSH2 0xE9 SWAP2 SWAP1 PUSH2 0xF5B JUMP JUMPDEST PUSH2 0x2E6 JUMP JUMPDEST PUSH1 0x40 MLOAD PUSH2 0xFB SWAP2 SWAP1 PUSH2 0xF97 JUMP JUMPDEST PUSH1 0x40 MLOAD DUP1 SWAP2 SUB SWAP1 RETURN JUMPDEST PUSH2 0x10C PUSH2 0x305 JUMP JUMPDEST PUSH1 0x40 MLOAD PUSH2 0x119 SWAP2 SWAP1 PUSH2 0xF97 JUMP JUMPDEST PUSH1 0x40 MLOAD DUP1 SWAP2 SUB SWAP1 RETURN JUMPDEST PUSH2 0x13C PUSH1 0x4 DUP1 CALLDATASIZE SUB DUP2 ADD SWAP1 PUSH2 0x137 SWAP2 SWAP1 PUSH2 0x1010 JUMP JUMPDEST PUSH2 0x30C JUMP JUMPDEST PUSH1 0x40 MLOAD PUSH2 0x149 SWAP2 SWAP1 PUSH2 0x106B JUMP JUMPDEST PUSH1 0x40 MLOAD DUP1 SWAP2 SUB SWAP1 RETURN JUMPDEST PUSH2 0x16C PUSH1 0x4 DUP1 CALLDATASIZE SUB DUP2 ADD SWAP1 PUSH2 0x167 SWAP2 SWAP1 PUSH2 0x10BC JUMP JUMPDEST PUSH2 0x40B JUMP JUMPDEST PUSH1 0x40 MLOAD PUSH2 0x179 SWAP2 SWAP1 PUSH2 0x12B2 JUMP JUMPDEST PUSH1 0x40 MLOAD DUP1 SWAP2 SUB SWAP1 RETURN JUMPDEST PUSH2 0x18A PUSH2 0x5FA JUMP JUMPDEST PUSH1 0x40 MLOAD PUSH2 0x197 SWAP2 SWAP1 PUSH2 0xF97 JUMP JUMPDEST PUSH1 0x40 MLOAD DUP1 SWAP2 SUB SWAP1 RETURN JUMPDEST PUSH2 0x1BA PUSH1 0x4 DUP1 CALLDATASIZE SUB DUP2 ADD SWAP1 PUSH2 0x1B5 SWAP2 SWAP1 PUSH2 0x12D4 JUMP JUMPDEST PUSH2 0x61E JUMP JUMPDEST PUSH1 0x40 MLOAD PUSH2 0x1C7 SWAP2 SWAP1 PUSH2 0x1364 JUMP JUMPDEST PUSH1 0x40 MLOAD DUP1 SWAP2 SUB SWAP1 RETURN JUMPDEST PUSH2 0x1EA PUSH1 0x4 DUP1 CALLDATASIZE SUB DUP2 ADD SWAP1 PUSH2 0x1E5 SWAP2 SWAP1 PUSH2 0x1010 JUMP JUMPDEST PUSH2 0x927 JUMP JUMPDEST PUSH1 0x40 MLOAD PUSH2 0x1F7 SWAP2 SWAP1 PUSH2 0x106B JUMP JUMPDEST PUSH1 0x40 MLOAD DUP1 SWAP2 SUB SWAP1 RETURN JUMPDEST PUSH2 0x21A PUSH1 0x4 DUP1 CALLDATASIZE SUB DUP2 ADD SWAP1 PUSH2 0x215 SWAP2 SWAP1 PUSH2 0x10BC JUMP JUMPDEST PUSH2 0x991 JUMP JUMPDEST PUSH1 0x40 MLOAD PUSH2 0x227 SWAP2 SWAP1 PUSH2 0x1364 JUMP JUMPDEST PUSH1 0x40 MLOAD DUP1 SWAP2 SUB SWAP1 RETURN JUMPDEST PUSH2 0x238 PUSH2 0xB67 JUMP JUMPDEST PUSH1 0x40 MLOAD PUSH2 0x245 SWAP2 SWAP1 PUSH2 0xF97 JUMP JUMPDEST PUSH1 0x40 MLOAD DUP1 SWAP2 SUB SWAP1 RETURN JUMPDEST PUSH2 0x268 PUSH1 0x4 DUP1 CALLDATASIZE SUB DUP2 ADD SWAP1 PUSH2 0x263 SWAP2 SWAP1 PUSH2 0x1386 JUMP JUMPDEST PUSH2 0xB6E JUMP JUMPDEST STOP JUMPDEST PUSH2 0x284 PUSH1 0x4 DUP1 CALLDATASIZE SUB DUP2 ADD SWAP1 PUSH2 0x27F SWAP2 SWAP1 PUSH2 0x1572 JUMP JUMPDEST PUSH2 0xBAB JUMP JUMPDEST STOP JUMPDEST PUSH2 0x2A0 PUSH1 0x4 DUP1 CALLDATASIZE SUB DUP2 ADD SWAP1 PUSH2 0x29B SWAP2 SWAP1 PUSH2 0xF5B JUMP JUMPDEST PUSH2 0xCE5 JUMP JUMPDEST PUSH1 0x40 MLOAD PUSH2 0x2AD SWAP2 SWAP1 PUSH2 0x106B JUMP JUMPDEST PUSH1 0x40 MLOAD DUP1 SWAP2 SUB SWAP1 RETURN JUMPDEST PUSH2 0x2D0 PUSH1 0x4 DUP1 CALLDATASIZE SUB DUP2 ADD SWAP1 PUSH2 0x2CB SWAP2 SWAP1 PUSH2 0x1010 JUMP JUMPDEST PUSH2 0xD39 JUMP JUMPDEST PUSH1 0x40 MLOAD PUSH2 0x2DD SWAP2 SWAP1 PUSH2 0x106B JUMP JUMPDEST PUSH1 0x40 MLOAD DUP1 SWAP2 SUB SWAP1 RETURN JUMPDEST PUSH1 0x0 DUP1 PUSH1 0x0 DUP4 DUP2 MSTORE PUSH1 0x20 ADD SWAP1 DUP2 MSTORE PUSH1 0x20 ADD PUSH1 0x0 KECCAK256 PUSH1 0x1 ADD SLOAD SWAP1 POP SWAP2 SWAP1 POP JUMP JUMPDEST PUSH1 0x0 DUP1 SHL DUP2 JUMP JUMPDEST PUSH1 0x0 PUSH2 0x317 DUP4 PUSH2 0x2E6 JUMP JUMPDEST PUSH2 0x320 DUP2 PUSH2 0xCE5 JUMP JUMPDEST POP PUSH2 0x32B DUP5 DUP5 PUSH2 0x927 JUMP JUMPDEST ISZERO PUSH2 0x339 JUMPI PUSH1 0x0 SWAP2 POP PUSH2 0x404 JUMP JUMPDEST PUSH1 0x1 PUSH1 0x0 DUP1 DUP7 DUP2 MSTORE PUSH1 0x20 ADD SWAP1 DUP2 MSTORE PUSH1 0x20 ADD PUSH1 0x0 KECCAK256 PUSH1 0x0 ADD PUSH1 0x0 DUP6 PUSH20 0xFFFFFFFFFFFFFFFFFFFFFFFFFFFFFFFFFFFFFFFF AND PUSH20 0xFFFFFFFFFFFFFFFFFFFFFFFFFFFFFFFFFFFFFFFF AND DUP2 MSTORE PUSH1 0x20 ADD SWAP1 DUP2 MSTORE PUSH1 0x20 ADD PUSH1 0x0 KECCAK256 PUSH1 0x0 PUSH2 0x100 EXP DUP2 SLOAD DUP2 PUSH1 0xFF MUL NOT AND SWAP1 DUP4 ISZERO ISZERO MUL OR SWAP1 SSTORE POP CALLER PUSH20 0xFFFFFFFFFFFFFFFFFFFFFFFFFFFFFFFFFFFFFFFF AND DUP4 PUSH20 0xFFFFFFFFFFFFFFFFFFFFFFFFFFFFFFFFFFFFFFFF AND DUP6 PUSH32 0x2F8788117E7EFF1D82E926EC794901D17C78024A50270940304540A733656F0D PUSH1 0x40 MLOAD PUSH1 0x40 MLOAD DUP1 SWAP2 SUB SWAP1 LOG4 PUSH1 0x1 SWAP2 POP JUMPDEST POP SWAP3 SWAP2 POP POP JUMP JUMPDEST PUSH1 0x60 PUSH32 0xDE578090EC646877A6B707D83EA8139DAC8A43D4DEA437AA209801B10C1B26B5 PUSH2 0x437 DUP2 PUSH2 0xCE5 JUMP JUMPDEST POP PUSH1 0x0 PUSH1 0x1 PUSH1 0x0 DUP6 DUP2 MSTORE PUSH1 0x20 ADD SWAP1 DUP2 MSTORE PUSH1 0x20 ADD PUSH1 0x0 KECCAK256 DUP1 SLOAD SWAP1 POP SWAP1 POP PUSH1 0x0 DUP2 GT PUSH2 0x496 JUMPI PUSH1 0x40 MLOAD PUSH32 0x8C379A000000000000000000000000000000000000000000000000000000000 DUP2 MSTORE PUSH1 0x4 ADD PUSH2 0x48D SWAP1 PUSH2 0x1651 JUMP JUMPDEST PUSH1 0x40 MLOAD DUP1 SWAP2 SUB SWAP1 REVERT JUMPDEST PUSH1 0x1 PUSH1 0x0 DUP6 DUP2 MSTORE PUSH1 0x20 ADD SWAP1 DUP2 MSTORE PUSH1 0x20 ADD PUSH1 0x0 KECCAK256 DUP1 SLOAD DUP1 PUSH1 0x20 MUL PUSH1 0x20 ADD PUSH1 0x40 MLOAD SWAP1 DUP2 ADD PUSH1 0x40 MSTORE DUP1 SWAP3 SWAP2 SWAP1 DUP2 DUP2 MSTORE PUSH1 0x20 ADD PUSH1 0x0 SWAP1 JUMPDEST DUP3 DUP3 LT ISZERO PUSH2 0x5ED JUMPI DUP4 DUP3 SWAP1 PUSH1 0x0 MSTORE PUSH1 0x20 PUSH1 0x0 KECCAK256 SWAP1 PUSH1 0x3 MUL ADD PUSH1 0x40 MLOAD DUP1 PUSH1 0x60 ADD PUSH1 0x40 MSTORE SWAP1 DUP2 PUSH1 0x0 DUP3 ADD SLOAD DUP2 MSTORE PUSH1 0x20 ADD PUSH1 0x1 DUP3 ADD PUSH1 0x0 SWAP1 SLOAD SWAP1 PUSH2 0x100 EXP SWAP1 DIV PUSH20 0xFFFFFFFFFFFFFFFFFFFFFFFFFFFFFFFFFFFFFFFF AND PUSH20 0xFFFFFFFFFFFFFFFFFFFFFFFFFFFFFFFFFFFFFFFF AND PUSH20 0xFFFFFFFFFFFFFFFFFFFFFFFFFFFFFFFFFFFFFFFF AND DUP2 MSTORE PUSH1 0x20 ADD PUSH1 0x2 DUP3 ADD DUP1 SLOAD PUSH2 0x55C SWAP1 PUSH2 0x16A0 JUMP JUMPDEST DUP1 PUSH1 0x1F ADD PUSH1 0x20 DUP1 SWAP2 DIV MUL PUSH1 0x20 ADD PUSH1 0x40 MLOAD SWAP1 DUP2 ADD PUSH1 0x40 MSTORE DUP1 SWAP3 SWAP2 SWAP1 DUP2 DUP2 MSTORE PUSH1 0x20 ADD DUP3 DUP1 SLOAD PUSH2 0x588 SWAP1 PUSH2 0x16A0 JUMP JUMPDEST DUP1 ISZERO PUSH2 0x5D5 JUMPI DUP1 PUSH1 0x1F LT PUSH2 0x5AA JUMPI PUSH2 0x100 DUP1 DUP4 SLOAD DIV MUL DUP4 MSTORE SWAP2 PUSH1 0x20 ADD SWAP2 PUSH2 0x5D5 JUMP JUMPDEST DUP3 ADD SWAP2 SWAP1 PUSH1 0x0 MSTORE PUSH1 0x20 PUSH1 0x0 KECCAK256 SWAP1 JUMPDEST DUP2 SLOAD DUP2 MSTORE SWAP1 PUSH1 0x1 ADD SWAP1 PUSH1 0x20 ADD DUP1 DUP4 GT PUSH2 0x5B8 JUMPI DUP3 SWAP1 SUB PUSH1 0x1F AND DUP3 ADD SWAP2 JUMPDEST POP POP POP POP POP DUP2 MSTORE POP POP DUP2 MSTORE PUSH1 0x20 ADD SWAP1 PUSH1 0x1 ADD SWAP1 PUSH2 0x4C9 JUMP JUMPDEST POP POP POP POP SWAP3 POP POP POP SWAP2 SWAP1 POP JUMP JUMPDEST PUSH32 0xDE578090EC646877A6B707D83EA8139DAC8A43D4DEA437AA209801B10C1B26B5 DUP2 JUMP JUMPDEST PUSH2 0x626 PUSH2 0xE37 JUMP JUMPDEST PUSH32 0xDE578090EC646877A6B707D83EA8139DAC8A43D4DEA437AA209801B10C1B26B5 PUSH2 0x650 DUP2 PUSH2 0xCE5 JUMP JUMPDEST POP PUSH1 0x0 PUSH1 0x1 DUP1 PUSH1 0x0 DUP8 DUP2 MSTORE PUSH1 0x20 ADD SWAP1 DUP2 MSTORE PUSH1 0x20 ADD PUSH1 0x0 KECCAK256 DUP1 SLOAD SWAP1 POP PUSH2 0x675 SWAP2 SWAP1 PUSH2 0x1701 JUMP JUMPDEST SWAP1 POP PUSH1 0x0 DUP2 LT ISZERO PUSH2 0x6BB JUMPI PUSH1 0x40 MLOAD PUSH32 0x8C379A000000000000000000000000000000000000000000000000000000000 DUP2 MSTORE PUSH1 0x4 ADD PUSH2 0x6B2 SWAP1 PUSH2 0x17A7 JUMP JUMPDEST PUSH1 0x40 MLOAD DUP1 SWAP2 SUB SWAP1 REVERT JUMPDEST PUSH1 0x0 PUSH1 0x1 PUSH1 0x0 DUP8 DUP2 MSTORE PUSH1 0x20 ADD SWAP1 DUP2 MSTORE PUSH1 0x20 ADD PUSH1 0x0 KECCAK256 DUP1 SLOAD DUP1 PUSH1 0x20 MUL PUSH1 0x20 ADD PUSH1 0x40 MLOAD SWAP1 DUP2 ADD PUSH1 0x40 MSTORE DUP1 SWAP3 SWAP2 SWAP1 DUP2 DUP2 MSTORE PUSH1 0x20 ADD PUSH1 0x0 SWAP1 JUMPDEST DUP3 DUP3 LT ISZERO PUSH2 0x814 JUMPI DUP4 DUP3 SWAP1 PUSH1 0x0 MSTORE PUSH1 0x20 PUSH1 0x0 KECCAK256 SWAP1 PUSH1 0x3 MUL ADD PUSH1 0x40 MLOAD DUP1 PUSH1 0x60 ADD PUSH1 0x40 MSTORE SWAP1 DUP2 PUSH1 0x0 DUP3 ADD SLOAD DUP2 MSTORE PUSH1 0x20 ADD PUSH1 0x1 DUP3 ADD PUSH1 0x0 SWAP1 SLOAD SWAP1 PUSH2 0x100 EXP SWAP1 DIV PUSH20 0xFFFFFFFFFFFFFFFFFFFFFFFFFFFFFFFFFFFFFFFF AND PUSH20 0xFFFFFFFFFFFFFFFFFFFFFFFFFFFFFFFFFFFFFFFF AND PUSH20 0xFFFFFFFFFFFFFFFFFFFFFFFFFFFFFFFFFFFFFFFF AND DUP2 MSTORE PUSH1 0x20 ADD PUSH1 0x2 DUP3 ADD DUP1 SLOAD PUSH2 0x783 SWAP1 PUSH2 0x16A0 JUMP JUMPDEST DUP1 PUSH1 0x1F ADD PUSH1 0x20 DUP1 SWAP2 DIV MUL PUSH1 0x20 ADD PUSH1 0x40 MLOAD SWAP1 DUP2 ADD PUSH1 0x40 MSTORE DUP1 SWAP3 SWAP2 SWAP1 DUP2 DUP2 MSTORE PUSH1 0x20 ADD DUP3 DUP1 SLOAD PUSH2 0x7AF SWAP1 PUSH2 0x16A0 JUMP JUMPDEST DUP1 ISZERO PUSH2 0x7FC JUMPI DUP1 PUSH1 0x1F LT PUSH2 0x7D1 JUMPI PUSH2 0x100 DUP1 DUP4 SLOAD DIV MUL DUP4 MSTORE SWAP2 PUSH1 0x20 ADD SWAP2 PUSH2 0x7FC JUMP JUMPDEST DUP3 ADD SWAP2 SWAP1 PUSH1 0x0 MSTORE PUSH1 0x20 PUSH1 0x0 KECCAK256 SWAP1 JUMPDEST DUP2 SLOAD DUP2 MSTORE SWAP1 PUSH1 0x1 ADD SWAP1 PUSH1 0x20 ADD DUP1 DUP4 GT PUSH2 0x7DF JUMPI DUP3 SWAP1 SUB PUSH1 0x1F AND DUP3 ADD SWAP2 JUMPDEST POP POP POP POP POP DUP2 MSTORE POP POP DUP2 MSTORE PUSH1 0x20 ADD SWAP1 PUSH1 0x1 ADD SWAP1 PUSH2 0x6F0 JUMP JUMPDEST POP POP POP POP SWAP1 POP PUSH1 0x0 DUP1 JUMPDEST DUP4 DUP3 GT PUSH2 0x8E5 JUMPI PUSH1 0x2 DUP3 DUP6 PUSH2 0x833 SWAP2 SWAP1 PUSH2 0x1701 JUMP JUMPDEST PUSH2 0x83D SWAP2 SWAP1 PUSH2 0x17F6 JUMP JUMPDEST DUP3 PUSH2 0x848 SWAP2 SWAP1 PUSH2 0x1827 JUMP JUMPDEST SWAP1 POP DUP7 DUP4 DUP3 DUP2 MLOAD DUP2 LT PUSH2 0x85E JUMPI PUSH2 0x85D PUSH2 0x187D JUMP JUMPDEST JUMPDEST PUSH1 0x20 MUL PUSH1 0x20 ADD ADD MLOAD PUSH1 0x0 ADD MLOAD EQ ISZERO PUSH2 0x896 JUMPI DUP3 DUP2 DUP2 MLOAD DUP2 LT PUSH2 0x883 JUMPI PUSH2 0x882 PUSH2 0x187D JUMP JUMPDEST JUMPDEST PUSH1 0x20 MUL PUSH1 0x20 ADD ADD MLOAD SWAP6 POP POP POP POP POP PUSH2 0x920 JUMP JUMPDEST DUP7 DUP4 DUP3 DUP2 MLOAD DUP2 LT PUSH2 0x8AA JUMPI PUSH2 0x8A9 PUSH2 0x187D JUMP JUMPDEST JUMPDEST PUSH1 0x20 MUL PUSH1 0x20 ADD ADD MLOAD PUSH1 0x0 ADD MLOAD LT ISZERO PUSH2 0x8D0 JUMPI PUSH1 0x1 DUP2 PUSH2 0x8C9 SWAP2 SWAP1 PUSH2 0x1827 JUMP JUMPDEST SWAP2 POP PUSH2 0x8E0 JUMP JUMPDEST PUSH1 0x1 DUP2 PUSH2 0x8DD SWAP2 SWAP1 PUSH2 0x1701 JUMP JUMPDEST SWAP4 POP JUMPDEST PUSH2 0x81E JUMP JUMPDEST PUSH1 0x40 MLOAD PUSH32 0x8C379A000000000000000000000000000000000000000000000000000000000 DUP2 MSTORE PUSH1 0x4 ADD PUSH2 0x917 SWAP1 PUSH2 0x1944 JUMP JUMPDEST PUSH1 0x40 MLOAD DUP1 SWAP2 SUB SWAP1 REVERT JUMPDEST POP SWAP3 SWAP2 POP POP JUMP JUMPDEST PUSH1 0x0 DUP1 PUSH1 0x0 DUP5 DUP2 MSTORE PUSH1 0x20 ADD SWAP1 DUP2 MSTORE PUSH1 0x20 ADD PUSH1 0x0 KECCAK256 PUSH1 0x0 ADD PUSH1 0x0 DUP4 PUSH20 0xFFFFFFFFFFFFFFFFFFFFFFFFFFFFFFFFFFFFFFFF AND PUSH20 0xFFFFFFFFFFFFFFFFFFFFFFFFFFFFFFFFFFFFFFFF AND DUP2 MSTORE PUSH1 0x20 ADD SWAP1 DUP2 MSTORE PUSH1 0x20 ADD PUSH1 0x0 KECCAK256 PUSH1 0x0 SWAP1 SLOAD SWAP1 PUSH2 0x100 EXP SWAP1 DIV PUSH1 0xFF AND SWAP1 POP SWAP3 SWAP2 POP POP JUMP JUMPDEST PUSH2 0x999 PUSH2 0xE37 JUMP JUMPDEST PUSH32 0xDE578090EC646877A6B707D83EA8139DAC8A43D4DEA437AA209801B10C1B26B5 PUSH2 0x9C3 DUP2 PUSH2 0xCE5 JUMP JUMPDEST POP PUSH1 0x0 PUSH1 0x1 PUSH1 0x0 DUP6 DUP2 MSTORE PUSH1 0x20 ADD SWAP1 DUP2 MSTORE PUSH1 0x20 ADD PUSH1 0x0 KECCAK256 DUP1 SLOAD SWAP1 POP SWAP1 POP PUSH1 0x0 DUP2 GT PUSH2 0xA22 JUMPI PUSH1 0x40 MLOAD PUSH32 0x8C379A000000000000000000000000000000000000000000000000000000000 DUP2 MSTORE PUSH1 0x4 ADD PUSH2 0xA19 SWAP1 PUSH2 0x19D6 JUMP JUMPDEST PUSH1 0x40 MLOAD DUP1 SWAP2 SUB SWAP1 REVERT JUMPDEST PUSH1 0x1 PUSH1 0x0 DUP6 DUP2 MSTORE PUSH1 0x20 ADD SWAP1 DUP2 MSTORE PUSH1 0x20 ADD PUSH1 0x0 KECCAK256 PUSH1 0x1 DUP3 PUSH2 0xA42 SWAP2 SWAP1 PUSH2 0x1701 JUMP JUMPDEST DUP2 SLOAD DUP2 LT PUSH2 0xA53 JUMPI PUSH2 0xA52 PUSH2 0x187D JUMP JUMPDEST JUMPDEST SWAP1 PUSH1 0x0 MSTORE PUSH1 0x20 PUSH1 0x0 KECCAK256 SWAP1 PUSH1 0x3 MUL ADD PUSH1 0x40 MLOAD DUP1 PUSH1 0x60 ADD PUSH1 0x40 MSTORE SWAP1 DUP2 PUSH1 0x0 DUP3 ADD SLOAD DUP2 MSTORE PUSH1 0x20 ADD PUSH1 0x1 DUP3 ADD PUSH1 0x0 SWAP1 SLOAD SWAP1 PUSH2 0x100 EXP SWAP1 DIV PUSH20 0xFFFFFFFFFFFFFFFFFFFFFFFFFFFFFFFFFFFFFFFF AND PUSH20 0xFFFFFFFFFFFFFFFFFFFFFFFFFFFFFFFFFFFFFFFF AND PUSH20 0xFFFFFFFFFFFFFFFFFFFFFFFFFFFFFFFFFFFFFFFF AND DUP2 MSTORE PUSH1 0x20 ADD PUSH1 0x2 DUP3 ADD DUP1 SLOAD PUSH2 0xADC SWAP1 PUSH2 0x16A0 JUMP JUMPDEST DUP1 PUSH1 0x1F ADD PUSH1 0x20 DUP1 SWAP2 DIV MUL PUSH1 0x20 ADD PUSH1 0x40 MLOAD SWAP1 DUP2 ADD PUSH1 0x40 MSTORE DUP1 SWAP3 SWAP2 SWAP1 DUP2 DUP2 MSTORE PUSH1 0x20 ADD DUP3 DUP1 SLOAD PUSH2 0xB08 SWAP1 PUSH2 0x16A0 JUMP JUMPDEST DUP1 ISZERO PUSH2 0xB55 JUMPI DUP1 PUSH1 0x1F LT PUSH2 0xB2A JUMPI PUSH2 0x100 DUP1 DUP4 SLOAD DIV MUL DUP4 MSTORE SWAP2 PUSH1 0x20 ADD SWAP2 PUSH2 0xB55 JUMP JUMPDEST DUP3 ADD SWAP2 SWAP1 PUSH1 0x0 MSTORE PUSH1 0x20 PUSH1 0x0 KECCAK256 SWAP1 JUMPDEST DUP2 SLOAD DUP2 MSTORE SWAP1 PUSH1 0x1 ADD SWAP1 PUSH1 0x20 ADD DUP1 DUP4 GT PUSH2 0xB38 JUMPI DUP3 SWAP1 SUB PUSH1 0x1F AND DUP3 ADD SWAP2 JUMPDEST POP POP POP POP POP DUP2 MSTORE POP POP SWAP3 POP POP POP SWAP2 SWAP1 POP JUMP JUMPDEST PUSH1 0x0 DUP1 SHL DUP2 JUMP JUMPDEST PUSH1 0x0 DUP1 SHL PUSH2 0xB7B DUP2 PUSH2 0xCE5 JUMP JUMPDEST POP PUSH2 0xBA6 PUSH32 0xDE578090EC646877A6B707D83EA8139DAC8A43D4DEA437AA209801B10C1B26B5 DUP4 PUSH2 0x30C JUMP JUMPDEST POP POP POP JUMP JUMPDEST PUSH32 0xDE578090EC646877A6B707D83EA8139DAC8A43D4DEA437AA209801B10C1B26B5 PUSH2 0xBD5 DUP2 PUSH2 0xCE5 JUMP JUMPDEST POP PUSH1 0x1 PUSH1 0x0 DUP5 DUP2 MSTORE PUSH1 0x20 ADD SWAP1 DUP2 MSTORE PUSH1 0x20 ADD PUSH1 0x0 KECCAK256 DUP3 SWAP1 DUP1 PUSH1 0x1 DUP2 SLOAD ADD DUP1 DUP3 SSTORE DUP1 SWAP2 POP POP PUSH1 0x1 SWAP1 SUB SWAP1 PUSH1 0x0 MSTORE PUSH1 0x20 PUSH1 0x0 KECCAK256 SWAP1 PUSH1 0x3 MUL ADD PUSH1 0x0 SWAP1 SWAP2 SWAP1 SWAP2 SWAP1 SWAP2 POP PUSH1 0x0 DUP3 ADD MLOAD DUP2 PUSH1 0x0 ADD SSTORE PUSH1 0x20 DUP3 ADD MLOAD DUP2 PUSH1 0x1 ADD PUSH1 0x0 PUSH2 0x100 EXP DUP2 SLOAD DUP2 PUSH20 0xFFFFFFFFFFFFFFFFFFFFFFFFFFFFFFFFFFFFFFFF MUL NOT AND SWAP1 DUP4 PUSH20 0xFFFFFFFFFFFFFFFFFFFFFFFFFFFFFFFFFFFFFFFF AND MUL OR SWAP1 SSTORE POP PUSH1 0x40 DUP3 ADD MLOAD DUP2 PUSH1 0x2 ADD SWAP1 DUP1 MLOAD SWAP1 PUSH1 0x20 ADD SWAP1 PUSH2 0xC80 SWAP3 SWAP2 SWAP1 PUSH2 0xE6E JUMP JUMPDEST POP POP POP DUP2 PUSH1 0x20 ADD MLOAD PUSH20 0xFFFFFFFFFFFFFFFFFFFFFFFFFFFFFFFFFFFFFFFF AND DUP4 PUSH32 0xBCB9D9E5F8E1F76BE41695627BD7173633D37CB1F47D0124F3A008113E6FDA23 DUP5 PUSH1 0x40 ADD MLOAD DUP6 PUSH1 0x0 ADD MLOAD PUSH1 0x40 MLOAD PUSH2 0xCD8 SWAP3 SWAP2 SWAP1 PUSH2 0x1A3E JUMP JUMPDEST PUSH1 0x40 MLOAD DUP1 SWAP2 SUB SWAP1 LOG3 POP POP POP JUMP JUMPDEST PUSH1 0x0 PUSH2 0xCF1 DUP3 CALLER PUSH2 0x927 JUMP JUMPDEST PUSH2 0xD30 JUMPI PUSH1 0x40 MLOAD PUSH32 0x8C379A000000000000000000000000000000000000000000000000000000000 DUP2 MSTORE PUSH1 0x4 ADD PUSH2 0xD27 SWAP1 PUSH2 0x1ABA JUMP JUMPDEST PUSH1 0x40 MLOAD DUP1 SWAP2 SUB SWAP1 REVERT JUMPDEST PUSH1 0x1 SWAP1 POP SWAP2 SWAP1 POP JUMP JUMPDEST PUSH1 0x0 PUSH2 0xD44 DUP4 PUSH2 0x2E6 JUMP JUMPDEST PUSH2 0xD4D DUP2 PUSH2 0xCE5 JUMP JUMPDEST POP PUSH2 0xD58 DUP5 DUP5 PUSH2 0x927 JUMP JUMPDEST PUSH2 0xD65 JUMPI PUSH1 0x0 SWAP2 POP PUSH2 0xE30 JUMP JUMPDEST PUSH1 0x0 DUP1 PUSH1 0x0 DUP7 DUP2 MSTORE PUSH1 0x20 ADD SWAP1 DUP2 MSTORE PUSH1 0x20 ADD PUSH1 0x0 KECCAK256 PUSH1 0x0 ADD PUSH1 0x0 DUP6 PUSH20 0xFFFFFFFFFFFFFFFFFFFFFFFFFFFFFFFFFFFFFFFF AND PUSH20 0xFFFFFFFFFFFFFFFFFFFFFFFFFFFFFFFFFFFFFFFF AND DUP2 MSTORE PUSH1 0x20 ADD SWAP1 DUP2 MSTORE PUSH1 0x20 ADD PUSH1 0x0 KECCAK256 PUSH1 0x0 PUSH2 0x100 EXP DUP2 SLOAD DUP2 PUSH1 0xFF MUL NOT AND SWAP1 DUP4 ISZERO ISZERO MUL OR SWAP1 SSTORE POP CALLER PUSH20 0xFFFFFFFFFFFFFFFFFFFFFFFFFFFFFFFFFFFFFFFF AND DUP4 PUSH20 0xFFFFFFFFFFFFFFFFFFFFFFFFFFFFFFFFFFFFFFFF AND DUP6 PUSH32 0xF6391F5C32D9C69D2A47EA670B442974B53935D1EDC7FD64EB21E047A839171B PUSH1 0x40 MLOAD PUSH1 0x40 MLOAD DUP1 SWAP2 SUB SWAP1 LOG4 PUSH1 0x1 SWAP2 POP JUMPDEST POP SWAP3 SWAP2 POP POP JUMP JUMPDEST PUSH1 0x40 MLOAD DUP1 PUSH1 0x60 ADD PUSH1 0x40 MSTORE DUP1 PUSH1 0x0 DUP2 MSTORE PUSH1 0x20 ADD PUSH1 0x0 PUSH20 0xFFFFFFFFFFFFFFFFFFFFFFFFFFFFFFFFFFFFFFFF AND DUP2 MSTORE PUSH1 0x20 ADD PUSH1 0x60 DUP2 MSTORE POP SWAP1 JUMP JUMPDEST DUP3 DUP1 SLOAD PUSH2 0xE7A SWAP1 PUSH2 0x16A0 JUMP JUMPDEST SWAP1 PUSH1 0x0 MSTORE PUSH1 0x20 PUSH1 0x0 KECCAK256 SWAP1 PUSH1 0x1F ADD PUSH1 0x20 SWAP1 DIV DUP2 ADD SWAP3 DUP3 PUSH2 0xE9C JUMPI PUSH1 0x0 DUP6 SSTORE PUSH2 0xEE3 JUMP JUMPDEST DUP3 PUSH1 0x1F LT PUSH2 0xEB5 JUMPI DUP1 MLOAD PUSH1 0xFF NOT AND DUP4 DUP1 ADD OR DUP6 SSTORE PUSH2 0xEE3 JUMP JUMPDEST DUP3 DUP1 ADD PUSH1 0x1 ADD DUP6 SSTORE DUP3 ISZERO PUSH2 0xEE3 JUMPI SWAP2 DUP3 ADD JUMPDEST DUP3 DUP2 GT ISZERO PUSH2 0xEE2 JUMPI DUP3 MLOAD DUP3 SSTORE SWAP2 PUSH1 0x20 ADD SWAP2 SWAP1 PUSH1 0x1 ADD SWAP1 PUSH2 0xEC7 JUMP JUMPDEST JUMPDEST POP SWAP1 POP PUSH2 0xEF0 SWAP2 SWAP1 PUSH2 0xEF4 JUMP JUMPDEST POP SWAP1 JUMP JUMPDEST JUMPDEST DUP1 DUP3 GT ISZERO PUSH2 0xF0D JUMPI PUSH1 0x0 DUP2 PUSH1 0x0 SWAP1 SSTORE POP PUSH1 0x1 ADD PUSH2 0xEF5 JUMP JUMPDEST POP SWAP1 JUMP JUMPDEST PUSH1 0x0 PUSH1 0x40 MLOAD SWAP1 POP SWAP1 JUMP JUMPDEST PUSH1 0x0 DUP1 REVERT JUMPDEST PUSH1 0x0 DUP1 REVERT JUMPDEST PUSH1 0x0 DUP2 SWAP1 POP SWAP2 SWAP1 POP JUMP JUMPDEST PUSH2 0xF38 DUP2 PUSH2 0xF25 JUMP JUMPDEST DUP2 EQ PUSH2 0xF43 JUMPI PUSH1 0x0 DUP1 REVERT JUMPDEST POP JUMP JUMPDEST PUSH1 0x0 DUP2 CALLDATALOAD SWAP1 POP PUSH2 0xF55 DUP2 PUSH2 0xF2F JUMP JUMPDEST SWAP3 SWAP2 POP POP JUMP JUMPDEST PUSH1 0x0 PUSH1 0x20 DUP3 DUP5 SUB SLT ISZERO PUSH2 0xF71 JUMPI PUSH2 0xF70 PUSH2 0xF1B JUMP JUMPDEST JUMPDEST PUSH1 0x0 PUSH2 0xF7F DUP5 DUP3 DUP6 ADD PUSH2 0xF46 JUMP JUMPDEST SWAP2 POP POP SWAP3 SWAP2 POP POP JUMP JUMPDEST PUSH2 0xF91 DUP2 PUSH2 0xF25 JUMP JUMPDEST DUP3 MSTORE POP POP JUMP JUMPDEST PUSH1 0x0 PUSH1 0x20 DUP3 ADD SWAP1 POP PUSH2 0xFAC PUSH1 0x0 DUP4 ADD DUP5 PUSH2 0xF88 JUMP JUMPDEST SWAP3 SWAP2 POP POP JUMP JUMPDEST PUSH1 0x0 PUSH20 0xFFFFFFFFFFFFFFFFFFFFFFFFFFFFFFFFFFFFFFFF DUP3 AND SWAP1 POP SWAP2 SWAP1 POP JUMP JUMPDEST PUSH1 0x0 PUSH2 0xFDD DUP3 PUSH2 0xFB2 JUMP JUMPDEST SWAP1 POP SWAP2 SWAP1 POP JUMP JUMPDEST PUSH2 0xFED DUP2 PUSH2 0xFD2 JUMP JUMPDEST DUP2 EQ PUSH2 0xFF8 JUMPI PUSH1 0x0 DUP1 REVERT JUMPDEST POP JUMP JUMPDEST PUSH1 0x0 DUP2 CALLDATALOAD SWAP1 POP PUSH2 0x100A DUP2 PUSH2 0xFE4 JUMP JUMPDEST SWAP3 SWAP2 POP POP JUMP JUMPDEST PUSH1 0x0 DUP1 PUSH1 0x40 DUP4 DUP6 SUB SLT ISZERO PUSH2 0x1027 JUMPI PUSH2 0x1026 PUSH2 0xF1B JUMP JUMPDEST JUMPDEST PUSH1 0x0 PUSH2 0x1035 DUP6 DUP3 DUP7 ADD PUSH2 0xF46 JUMP JUMPDEST SWAP3 POP POP PUSH1 0x20 PUSH2 0x1046 DUP6 DUP3 DUP7 ADD PUSH2 0xFFB JUMP JUMPDEST SWAP2 POP POP SWAP3 POP SWAP3 SWAP1 POP JUMP JUMPDEST PUSH1 0x0 DUP2 ISZERO ISZERO SWAP1 POP SWAP2 SWAP1 POP JUMP JUMPDEST PUSH2 0x1065 DUP2 PUSH2 0x1050 JUMP JUMPDEST DUP3 MSTORE POP POP JUMP JUMPDEST PUSH1 0x0 PUSH1 0x20 DUP3 ADD SWAP1 POP PUSH2 0x1080 PUSH1 0x0 DUP4 ADD DUP5 PUSH2 0x105C JUMP JUMPDEST SWAP3 SWAP2 POP POP JUMP JUMPDEST PUSH1 0x0 DUP2 SWAP1 POP SWAP2 SWAP1 POP JUMP JUMPDEST PUSH2 0x1099 DUP2 PUSH2 0x1086 JUMP JUMPDEST DUP2 EQ PUSH2 0x10A4 JUMPI PUSH1 0x0 DUP1 REVERT JUMPDEST POP JUMP JUMPDEST PUSH1 0x0 DUP2 CALLDATALOAD SWAP1 POP PUSH2 0x10B6 DUP2 PUSH2 0x1090 JUMP JUMPDEST SWAP3 SWAP2 POP POP JUMP JUMPDEST PUSH1 0x0 PUSH1 0x20 DUP3 DUP5 SUB SLT ISZERO PUSH2 0x10D2 JUMPI PUSH2 0x10D1 PUSH2 0xF1B JUMP JUMPDEST JUMPDEST PUSH1 0x0 PUSH2 0x10E0 DUP5 DUP3 DUP6 ADD PUSH2 0x10A7 JUMP JUMPDEST SWAP2 POP POP SWAP3 SWAP2 POP POP JUMP JUMPDEST PUSH1 0x0 DUP2 MLOAD SWAP1 POP SWAP2 SWAP1 POP JUMP JUMPDEST PUSH1 0x0 DUP3 DUP3 MSTORE PUSH1 0x20 DUP3 ADD SWAP1 POP SWAP3 SWAP2 POP POP JUMP JUMPDEST PUSH1 0x0 DUP2 SWAP1 POP PUSH1 0x20 DUP3 ADD SWAP1 POP SWAP2 SWAP1 POP JUMP JUMPDEST PUSH2 0x111E DUP2 PUSH2 0x1086 JUMP JUMPDEST DUP3 MSTORE POP POP JUMP JUMPDEST PUSH2 0x112D DUP2 PUSH2 0xFD2 JUMP JUMPDEST DUP3 MSTORE POP POP JUMP JUMPDEST PUSH1 0x0 DUP2 MLOAD SWAP1 POP SWAP2 SWAP1 POP JUMP JUMPDEST PUSH1 0x0 DUP3 DUP3 MSTORE PUSH1 0x20 DUP3 ADD SWAP1 POP SWAP3 SWAP2 POP POP JUMP JUMPDEST PUSH1 0x0 JUMPDEST DUP4 DUP2 LT ISZERO PUSH2 0x116D JUMPI DUP1 DUP3 ADD MLOAD DUP2 DUP5 ADD MSTORE PUSH1 0x20 DUP2 ADD SWAP1 POP PUSH2 0x1152 JUMP JUMPDEST DUP4 DUP2 GT ISZERO PUSH2 0x117C JUMPI PUSH1 0x0 DUP5 DUP5 ADD MSTORE JUMPDEST POP POP POP POP JUMP JUMPDEST PUSH1 0x0 PUSH1 0x1F NOT PUSH1 0x1F DUP4 ADD AND SWAP1 POP SWAP2 SWAP1 POP JUMP JUMPDEST PUSH1 0x0 PUSH2 0x119E DUP3 PUSH2 0x1133 JUMP JUMPDEST PUSH2 0x11A8 DUP2 DUP6 PUSH2 0x113E JUMP JUMPDEST SWAP4 POP PUSH2 0x11B8 DUP2 DUP6 PUSH1 0x20 DUP7 ADD PUSH2 0x114F JUMP JUMPDEST PUSH2 0x11C1 DUP2 PUSH2 0x1182 JUMP JUMPDEST DUP5 ADD SWAP2 POP POP SWAP3 SWAP2 POP POP JUMP JUMPDEST PUSH1 0x0 PUSH1 0x60 DUP4 ADD PUSH1 0x0 DUP4 ADD MLOAD PUSH2 0x11E4 PUSH1 0x0 DUP7 ADD DUP3 PUSH2 0x1115 JUMP JUMPDEST POP PUSH1 0x20 DUP4 ADD MLOAD PUSH2 0x11F7 PUSH1 0x20 DUP7 ADD DUP3 PUSH2 0x1124 JUMP JUMPDEST POP PUSH1 0x40 DUP4 ADD MLOAD DUP5 DUP3 SUB PUSH1 0x40 DUP7 ADD MSTORE PUSH2 0x120F DUP3 DUP3 PUSH2 0x1193 JUMP JUMPDEST SWAP2 POP POP DUP1 SWAP2 POP POP SWAP3 SWAP2 POP POP JUMP JUMPDEST PUSH1 0x0 PUSH2 0x1228 DUP4 DUP4 PUSH2 0x11CC JUMP JUMPDEST SWAP1 POP SWAP3 SWAP2 POP POP JUMP JUMPDEST PUSH1 0x0 PUSH1 0x20 DUP3 ADD SWAP1 POP SWAP2 SWAP1 POP JUMP JUMPDEST PUSH1 0x0 PUSH2 0x1248 DUP3 PUSH2 0x10E9 JUMP JUMPDEST PUSH2 0x1252 DUP2 DUP6 PUSH2 0x10F4 JUMP JUMPDEST SWAP4 POP DUP4 PUSH1 0x20 DUP3 MUL DUP6 ADD PUSH2 0x1264 DUP6 PUSH2 0x1105 JUMP JUMPDEST DUP1 PUSH1 0x0 JUMPDEST DUP6 DUP2 LT ISZERO PUSH2 0x12A0 JUMPI DUP5 DUP5 SUB DUP10 MSTORE DUP2 MLOAD PUSH2 0x1281 DUP6 DUP3 PUSH2 0x121C JUMP JUMPDEST SWAP5 POP PUSH2 0x128C DUP4 PUSH2 0x1230 JUMP JUMPDEST SWAP3 POP PUSH1 0x20 DUP11 ADD SWAP10 POP POP PUSH1 0x1 DUP2 ADD SWAP1 POP PUSH2 0x1268 JUMP JUMPDEST POP DUP3 SWAP8 POP DUP8 SWAP6 POP POP POP POP POP POP SWAP3 SWAP2 POP POP JUMP JUMPDEST PUSH1 0x0 PUSH1 0x20 DUP3 ADD SWAP1 POP DUP2 DUP2 SUB PUSH1 0x0 DUP4 ADD MSTORE PUSH2 0x12CC DUP2 DUP5 PUSH2 0x123D JUMP JUMPDEST SWAP1 POP SWAP3 SWAP2 POP POP JUMP JUMPDEST PUSH1 0x0 DUP1 PUSH1 0x40 DUP4 DUP6 SUB SLT ISZERO PUSH2 0x12EB JUMPI PUSH2 0x12EA PUSH2 0xF1B JUMP JUMPDEST JUMPDEST PUSH1 0x0 PUSH2 0x12F9 DUP6 DUP3 DUP7 ADD PUSH2 0x10A7 JUMP JUMPDEST SWAP3 POP POP PUSH1 0x20 PUSH2 0x130A DUP6 DUP3 DUP7 ADD PUSH2 0x10A7 JUMP JUMPDEST SWAP2 POP POP SWAP3 POP SWAP3 SWAP1 POP JUMP JUMPDEST PUSH1 0x0 PUSH1 0x60 DUP4 ADD PUSH1 0x0 DUP4 ADD MLOAD PUSH2 0x132C PUSH1 0x0 DUP7 ADD DUP3 PUSH2 0x1115 JUMP JUMPDEST POP PUSH1 0x20 DUP4 ADD MLOAD PUSH2 0x133F PUSH1 0x20 DUP7 ADD DUP3 PUSH2 0x1124 JUMP JUMPDEST POP PUSH1 0x40 DUP4 ADD MLOAD DUP5 DUP3 SUB PUSH1 0x40 DUP7 ADD MSTORE PUSH2 0x1357 DUP3 DUP3 PUSH2 0x1193 JUMP JUMPDEST SWAP2 POP POP DUP1 SWAP2 POP POP SWAP3 SWAP2 POP POP JUMP JUMPDEST PUSH1 0x0 PUSH1 0x20 DUP3 ADD SWAP1 POP DUP2 DUP2 SUB PUSH1 0x0 DUP4 ADD MSTORE PUSH2 0x137E DUP2 DUP5 PUSH2 0x1314 JUMP JUMPDEST SWAP1 POP SWAP3 SWAP2 POP POP JUMP JUMPDEST PUSH1 0x0 PUSH1 0x20 DUP3 DUP5 SUB SLT ISZERO PUSH2 0x139C JUMPI PUSH2 0x139B PUSH2 0xF1B JUMP JUMPDEST JUMPDEST PUSH1 0x0 PUSH2 0x13AA DUP5 DUP3 DUP6 ADD PUSH2 0xFFB JUMP JUMPDEST SWAP2 POP POP SWAP3 SWAP2 POP POP JUMP JUMPDEST PUSH1 0x0 DUP1 REVERT JUMPDEST PUSH32 0x4E487B7100000000000000000000000000000000000000000000000000000000 PUSH1 0x0 MSTORE PUSH1 0x41 PUSH1 0x4 MSTORE PUSH1 0x24 PUSH1 0x0 REVERT JUMPDEST PUSH2 0x13F0 DUP3 PUSH2 0x1182 JUMP JUMPDEST DUP2 ADD DUP2 DUP2 LT PUSH8 0xFFFFFFFFFFFFFFFF DUP3 GT OR ISZERO PUSH2 0x140F JUMPI PUSH2 0x140E PUSH2 0x13B8 JUMP JUMPDEST JUMPDEST DUP1 PUSH1 0x40 MSTORE POP POP POP JUMP JUMPDEST PUSH1 0x0 PUSH2 0x1422 PUSH2 0xF11 JUMP JUMPDEST SWAP1 POP PUSH2 0x142E DUP3 DUP3 PUSH2 0x13E7 JUMP JUMPDEST SWAP2 SWAP1 POP JUMP JUMPDEST PUSH1 0x0 DUP1 REVERT JUMPDEST PUSH1 0x0 DUP1 REVERT JUMPDEST PUSH1 0x0 DUP1 REVERT JUMPDEST PUSH1 0x0 PUSH8 0xFFFFFFFFFFFFFFFF DUP3 GT ISZERO PUSH2 0x145D JUMPI PUSH2 0x145C PUSH2 0x13B8 JUMP JUMPDEST JUMPDEST PUSH2 0x1466 DUP3 PUSH2 0x1182 JUMP JUMPDEST SWAP1 POP PUSH1 0x20 DUP2 ADD SWAP1 POP SWAP2 SWAP1 POP JUMP JUMPDEST DUP3 DUP2 DUP4 CALLDATACOPY PUSH1 0x0 DUP4 DUP4 ADD MSTORE POP POP POP JUMP JUMPDEST PUSH1 0x0 PUSH2 0x1495 PUSH2 0x1490 DUP5 PUSH2 0x1442 JUMP JUMPDEST PUSH2 0x1418 JUMP JUMPDEST SWAP1 POP DUP3 DUP2 MSTORE PUSH1 0x20 DUP2 ADD DUP5 DUP5 DUP5 ADD GT ISZERO PUSH2 0x14B1 JUMPI PUSH2 0x14B0 PUSH2 0x143D JUMP JUMPDEST JUMPDEST PUSH2 0x14BC DUP5 DUP3 DUP6 PUSH2 0x1473 JUMP JUMPDEST POP SWAP4 SWAP3 POP POP POP JUMP JUMPDEST PUSH1 0x0 DUP3 PUSH1 0x1F DUP4 ADD SLT PUSH2 0x14D9 JUMPI PUSH2 0x14D8 PUSH2 0x1438 JUMP JUMPDEST JUMPDEST DUP2 CALLDATALOAD PUSH2 0x14E9 DUP5 DUP3 PUSH1 0x20 DUP7 ADD PUSH2 0x1482 JUMP JUMPDEST SWAP2 POP POP SWAP3 SWAP2 POP POP JUMP JUMPDEST PUSH1 0x0 PUSH1 0x60 DUP3 DUP5 SUB SLT ISZERO PUSH2 0x1508 JUMPI PUSH2 0x1507 PUSH2 0x13B3 JUMP JUMPDEST JUMPDEST PUSH2 0x1512 PUSH1 0x60 PUSH2 0x1418 JUMP JUMPDEST SWAP1 POP PUSH1 0x0 PUSH2 0x1522 DUP5 DUP3 DUP6 ADD PUSH2 0x10A7 JUMP JUMPDEST PUSH1 0x0 DUP4 ADD MSTORE POP PUSH1 0x20 PUSH2 0x1536 DUP5 DUP3 DUP6 ADD PUSH2 0xFFB JUMP JUMPDEST PUSH1 0x20 DUP4 ADD MSTORE POP PUSH1 0x40 DUP3 ADD CALLDATALOAD PUSH8 0xFFFFFFFFFFFFFFFF DUP2 GT ISZERO PUSH2 0x155A JUMPI PUSH2 0x1559 PUSH2 0x1433 JUMP JUMPDEST JUMPDEST PUSH2 0x1566 DUP5 DUP3 DUP6 ADD PUSH2 0x14C4 JUMP JUMPDEST PUSH1 0x40 DUP4 ADD MSTORE POP SWAP3 SWAP2 POP POP JUMP JUMPDEST PUSH1 0x0 DUP1 PUSH1 0x40 DUP4 DUP6 SUB SLT ISZERO PUSH2 0x1589 JUMPI PUSH2 0x1588 PUSH2 0xF1B JUMP JUMPDEST JUMPDEST PUSH1 0x0 PUSH2 0x1597 DUP6 DUP3 DUP7 ADD PUSH2 0x10A7 JUMP JUMPDEST SWAP3 POP POP PUSH1 0x20 DUP4 ADD CALLDATALOAD PUSH8 0xFFFFFFFFFFFFFFFF DUP2 GT ISZERO PUSH2 0x15B8 JUMPI PUSH2 0x15B7 PUSH2 0xF20 JUMP JUMPDEST JUMPDEST PUSH2 0x15C4 DUP6 DUP3 DUP7 ADD PUSH2 0x14F2 JUMP JUMPDEST SWAP2 POP POP SWAP3 POP SWAP3 SWAP1 POP JUMP JUMPDEST PUSH1 0x0 DUP3 DUP3 MSTORE PUSH1 0x20 DUP3 ADD SWAP1 POP SWAP3 SWAP2 POP POP JUMP JUMPDEST PUSH32 0x547261636541737365743A3A476574416C6C4572726F723A3A20696420697320 PUSH1 0x0 DUP3 ADD MSTORE PUSH32 0x6E6F742076616C69640000000000000000000000000000000000000000000000 PUSH1 0x20 DUP3 ADD MSTORE POP JUMP JUMPDEST PUSH1 0x0 PUSH2 0x163B PUSH1 0x29 DUP4 PUSH2 0x15CE JUMP JUMPDEST SWAP2 POP PUSH2 0x1646 DUP3 PUSH2 0x15DF JUMP JUMPDEST PUSH1 0x40 DUP3 ADD SWAP1 POP SWAP2 SWAP1 POP JUMP JUMPDEST PUSH1 0x0 PUSH1 0x20 DUP3 ADD SWAP1 POP DUP2 DUP2 SUB PUSH1 0x0 DUP4 ADD MSTORE PUSH2 0x166A DUP2 PUSH2 0x162E JUMP JUMPDEST SWAP1 POP SWAP2 SWAP1 POP JUMP JUMPDEST PUSH32 0x4E487B7100000000000000000000000000000000000000000000000000000000 PUSH1 0x0 MSTORE PUSH1 0x22 PUSH1 0x4 MSTORE PUSH1 0x24 PUSH1 0x0 REVERT JUMPDEST PUSH1 0x0 PUSH1 0x2 DUP3 DIV SWAP1 POP PUSH1 0x1 DUP3 AND DUP1 PUSH2 0x16B8 JUMPI PUSH1 0x7F DUP3 AND SWAP2 POP JUMPDEST PUSH1 0x20 DUP3 LT DUP2 EQ ISZERO PUSH2 0x16CC JUMPI PUSH2 0x16CB PUSH2 0x1671 JUMP JUMPDEST JUMPDEST POP SWAP2 SWAP1 POP JUMP JUMPDEST PUSH32 0x4E487B7100000000000000000000000000000000000000000000000000000000 PUSH1 0x0 MSTORE PUSH1 0x11 PUSH1 0x4 MSTORE PUSH1 0x24 PUSH1 0x0 REVERT JUMPDEST PUSH1 0x0 PUSH2 0x170C DUP3 PUSH2 0x1086 JUMP JUMPDEST SWAP2 POP PUSH2 0x1717 DUP4 PUSH2 0x1086 JUMP JUMPDEST SWAP3 POP DUP3 DUP3 LT ISZERO PUSH2 0x172A JUMPI PUSH2 0x1729 PUSH2 0x16D2 JUMP JUMPDEST JUMPDEST DUP3 DUP3 SUB SWAP1 POP SWAP3 SWAP2 POP POP JUMP JUMPDEST PUSH32 0x547261636541737365743A3A476574427954696D657374616D704572726F723A PUSH1 0x0 DUP3 ADD MSTORE PUSH32 0x3A206964206973206E6F742076616C6964000000000000000000000000000000 PUSH1 0x20 DUP3 ADD MSTORE POP JUMP JUMPDEST PUSH1 0x0 PUSH2 0x1791 PUSH1 0x31 DUP4 PUSH2 0x15CE JUMP JUMPDEST SWAP2 POP PUSH2 0x179C DUP3 PUSH2 0x1735 JUMP JUMPDEST PUSH1 0x40 DUP3 ADD SWAP1 POP SWAP2 SWAP1 POP JUMP JUMPDEST PUSH1 0x0 PUSH1 0x20 DUP3 ADD SWAP1 POP DUP2 DUP2 SUB PUSH1 0x0 DUP4 ADD MSTORE PUSH2 0x17C0 DUP2 PUSH2 0x1784 JUMP JUMPDEST SWAP1 POP SWAP2 SWAP1 POP JUMP JUMPDEST PUSH32 0x4E487B7100000000000000000000000000000000000000000000000000000000 PUSH1 0x0 MSTORE PUSH1 0x12 PUSH1 0x4 MSTORE PUSH1 0x24 PUSH1 0x0 REVERT JUMPDEST PUSH1 0x0 PUSH2 0x1801 DUP3 PUSH2 0x1086 JUMP JUMPDEST SWAP2 POP PUSH2 0x180C DUP4 PUSH2 0x1086 JUMP JUMPDEST SWAP3 POP DUP3 PUSH2 0x181C JUMPI PUSH2 0x181B PUSH2 0x17C7 JUMP JUMPDEST JUMPDEST DUP3 DUP3 DIV SWAP1 POP SWAP3 SWAP2 POP POP JUMP JUMPDEST PUSH1 0x0 PUSH2 0x1832 DUP3 PUSH2 0x1086 JUMP JUMPDEST SWAP2 POP PUSH2 0x183D DUP4 PUSH2 0x1086 JUMP JUMPDEST SWAP3 POP DUP3 PUSH32 0xFFFFFFFFFFFFFFFFFFFFFFFFFFFFFFFFFFFFFFFFFFFFFFFFFFFFFFFFFFFFFFFF SUB DUP3 GT ISZERO PUSH2 0x1872 JUMPI PUSH2 0x1871 PUSH2 0x16D2 JUMP JUMPDEST JUMPDEST DUP3 DUP3 ADD SWAP1 POP SWAP3 SWAP2 POP POP JUMP JUMPDEST PUSH32 0x4E487B7100000000000000000000000000000000000000000000000000000000 PUSH1 0x0 MSTORE PUSH1 0x32 PUSH1 0x4 MSTORE PUSH1 0x24 PUSH1 0x0 REVERT JUMPDEST PUSH32 0x547261636541737365743A3A476574427954696D657374616D704572726F723A PUSH1 0x0 DUP3 ADD MSTORE PUSH32 0x3A2063616E206E6F742066696E6420636F72726573706F6E64696E6720747261 PUSH1 0x20 DUP3 ADD MSTORE PUSH32 0x6365206461746100000000000000000000000000000000000000000000000000 PUSH1 0x40 DUP3 ADD MSTORE POP JUMP JUMPDEST PUSH1 0x0 PUSH2 0x192E PUSH1 0x47 DUP4 PUSH2 0x15CE JUMP JUMPDEST SWAP2 POP PUSH2 0x1939 DUP3 PUSH2 0x18AC JUMP JUMPDEST PUSH1 0x60 DUP3 ADD SWAP1 POP SWAP2 SWAP1 POP JUMP JUMPDEST PUSH1 0x0 PUSH1 0x20 DUP3 ADD SWAP1 POP DUP2 DUP2 SUB PUSH1 0x0 DUP4 ADD MSTORE PUSH2 0x195D DUP2 PUSH2 0x1921 JUMP JUMPDEST SWAP1 POP SWAP2 SWAP1 POP JUMP JUMPDEST PUSH32 0x547261636541737365743A3A4765744C6173744572726F723A3A206964206973 PUSH1 0x0 DUP3 ADD MSTORE PUSH32 0x206E6F742076616C696400000000000000000000000000000000000000000000 PUSH1 0x20 DUP3 ADD MSTORE POP JUMP JUMPDEST PUSH1 0x0 PUSH2 0x19C0 PUSH1 0x2A DUP4 PUSH2 0x15CE JUMP JUMPDEST SWAP2 POP PUSH2 0x19CB DUP3 PUSH2 0x1964 JUMP JUMPDEST PUSH1 0x40 DUP3 ADD SWAP1 POP SWAP2 SWAP1 POP JUMP JUMPDEST PUSH1 0x0 PUSH1 0x20 DUP3 ADD SWAP1 POP DUP2 DUP2 SUB PUSH1 0x0 DUP4 ADD MSTORE PUSH2 0x19EF DUP2 PUSH2 0x19B3 JUMP JUMPDEST SWAP1 POP SWAP2 SWAP1 POP JUMP JUMPDEST PUSH1 0x0 PUSH2 0x1A01 DUP3 PUSH2 0x1133 JUMP JUMPDEST PUSH2 0x1A0B DUP2 DUP6 PUSH2 0x15CE JUMP JUMPDEST SWAP4 POP PUSH2 0x1A1B DUP2 DUP6 PUSH1 0x20 DUP7 ADD PUSH2 0x114F JUMP JUMPDEST PUSH2 0x1A24 DUP2 PUSH2 0x1182 JUMP JUMPDEST DUP5 ADD SWAP2 POP POP SWAP3 SWAP2 POP POP JUMP JUMPDEST PUSH2 0x1A38 DUP2 PUSH2 0x1086 JUMP JUMPDEST DUP3 MSTORE POP POP JUMP JUMPDEST PUSH1 0x0 PUSH1 0x40 DUP3 ADD SWAP1 POP DUP2 DUP2 SUB PUSH1 0x0 DUP4 ADD MSTORE PUSH2 0x1A58 DUP2 DUP6 PUSH2 0x19F6 JUMP JUMPDEST SWAP1 POP PUSH2 0x1A67 PUSH1 0x20 DUP4 ADD DUP5 PUSH2 0x1A2F JUMP JUMPDEST SWAP4 SWAP3 POP POP POP JUMP JUMPDEST PUSH32 0x556E417574686F72697A65644163636F756E7400000000000000000000000000 PUSH1 0x0 DUP3 ADD MSTORE POP JUMP JUMPDEST PUSH1 0x0 PUSH2 0x1AA4 PUSH1 0x13 DUP4 PUSH2 0x15CE JUMP JUMPDEST SWAP2 POP PUSH2 0x1AAF DUP3 PUSH2 0x1A6E JUMP JUMPDEST PUSH1 0x20 DUP3 ADD SWAP1 POP SWAP2 SWAP1 POP JUMP JUMPDEST PUSH1 0x0 PUSH1 0x20 DUP3 ADD SWAP1 POP DUP2 DUP2 SUB PUSH1 0x0 DUP4 ADD MSTORE PUSH2 0x1AD3 DUP2 PUSH2 0x1A97 JUMP JUMPDEST SWAP1 POP SWAP2 SWAP1 POP JUMP INVALID LOG2 PUSH5 0x6970667358 0x22 SLT KECCAK256 0xFC 0xE4 0xE3 0x27 0x2E 0xC3 PUSH32 0x9769E53105B13BD972B2DC9F605089538DB9E7AFE56860E8A264736F6C634300 ADDMOD SIGNEXTEND STOP CALLER "
				},
				"gasEstimates": {
					"creation": {
						"codeDepositCost": "1385600",
						"executionCost": "infinite",
						"totalCost": "infinite"
					},
					"external": {
						"ADMIN()": "358",
						"DEFAULT_ADMIN()": "402",
						"TRACER()": "418",
						"add(uint256,(uint256,address,string))": "infinite",
						"checkRole(bytes32)": "3136",
						"getAll(uint256)": "infinite",
						"getByTimestamp(uint256,uint256)": "infinite",
						"getLast(uint256)": "infinite",
						"getRoleAdmin(bytes32)": "infinite",
						"grantRole(bytes32,address)": "infinite",
						"hasRole(bytes32,address)": "3163",
						"revokeRole(bytes32,address)": "infinite",
						"setTraceRight(address)": "infinite"
					}
				},
				"methodIdentifiers": {
					"ADMIN()": "2a0acc6a",
					"DEFAULT_ADMIN()": "9cdeba95",
					"TRACER()": "4e7a23ba",
					"add(uint256,(uint256,address,string))": "c3dbd0f5",
					"checkRole(bytes32)": "c5b95190",
					"getAll(uint256)": "3c077a48",
					"getByTimestamp(uint256,uint256)": "4f7e9753",
					"getLast(uint256)": "964a8091",
					"getRoleAdmin(bytes32)": "248a9ca3",
					"grantRole(bytes32,address)": "2f2ff15d",
					"hasRole(bytes32,address)": "91d14854",
					"revokeRole(bytes32,address)": "d547741f",
					"setTraceRight(address)": "aa8d24c3"
				}
			},
			"storageLayout": {
				"storage": [
					{
						"astId": 16,
						"contract": "1127/TraceAsset.sol:TraceAsset",
						"label": "roles",
						"offset": 0,
						"slot": "0",
						"type": "t_mapping(t_bytes32,t_struct(RoleData)8_storage)"
					},
					{
						"astId": 302,
						"contract": "1127/TraceAsset.sol:TraceAsset",
						"label": "traceList",
						"offset": 0,
						"slot": "1",
						"type": "t_mapping(t_uint256,t_array(t_struct(AssetTrace)259_storage)dyn_storage)"
					}
				],
				"types": {
					"t_address": {
						"encoding": "inplace",
						"label": "address",
						"numberOfBytes": "20"
					},
					"t_array(t_struct(AssetTrace)259_storage)dyn_storage": {
						"base": "t_struct(AssetTrace)259_storage",
						"encoding": "dynamic_array",
						"label": "struct DataStruct.AssetTrace[]",
						"numberOfBytes": "32"
					},
					"t_bool": {
						"encoding": "inplace",
						"label": "bool",
						"numberOfBytes": "1"
					},
					"t_bytes32": {
						"encoding": "inplace",
						"label": "bytes32",
						"numberOfBytes": "32"
					},
					"t_mapping(t_address,t_bool)": {
						"encoding": "mapping",
						"key": "t_address",
						"label": "mapping(address => bool)",
						"numberOfBytes": "32",
						"value": "t_bool"
					},
					"t_mapping(t_bytes32,t_struct(RoleData)8_storage)": {
						"encoding": "mapping",
						"key": "t_bytes32",
						"label": "mapping(bytes32 => struct AccessControl.RoleData)",
						"numberOfBytes": "32",
						"value": "t_struct(RoleData)8_storage"
					},
					"t_mapping(t_uint256,t_array(t_struct(AssetTrace)259_storage)dyn_storage)": {
						"encoding": "mapping",
						"key": "t_uint256",
						"label": "mapping(uint256 => struct DataStruct.AssetTrace[])",
						"numberOfBytes": "32",
						"value": "t_array(t_struct(AssetTrace)259_storage)dyn_storage"
					},
					"t_string_storage": {
						"encoding": "bytes",
						"label": "string",
						"numberOfBytes": "32"
					},
					"t_struct(AssetTrace)259_storage": {
						"encoding": "inplace",
						"label": "struct DataStruct.AssetTrace",
						"members": [
							{
								"astId": 254,
								"contract": "1127/TraceAsset.sol:TraceAsset",
								"label": "operateTime",
								"offset": 0,
								"slot": "0",
								"type": "t_uint256"
							},
							{
								"astId": 256,
								"contract": "1127/TraceAsset.sol:TraceAsset",
								"label": "operator",
								"offset": 0,
								"slot": "1",
								"type": "t_address"
							},
							{
								"astId": 258,
								"contract": "1127/TraceAsset.sol:TraceAsset",
								"label": "operateMsg",
								"offset": 0,
								"slot": "2",
								"type": "t_string_storage"
							}
						],
						"numberOfBytes": "96"
					},
					"t_struct(RoleData)8_storage": {
						"encoding": "inplace",
						"label": "struct AccessControl.RoleData",
						"members": [
							{
								"astId": 5,
								"contract": "1127/TraceAsset.sol:TraceAsset",
								"label": "hasRoles",
								"offset": 0,
								"slot": "0",
								"type": "t_mapping(t_address,t_bool)"
							},
							{
								"astId": 7,
								"contract": "1127/TraceAsset.sol:TraceAsset",
								"label": "adminRole",
								"offset": 0,
								"slot": "1",
								"type": "t_bytes32"
							}
						],
						"numberOfBytes": "64"
					},
					"t_uint256": {
						"encoding": "inplace",
						"label": "uint256",
						"numberOfBytes": "32"
					}
				}
			},
			"userdoc": {
				"kind": "user",
				"methods": {
					"add(uint256,(uint256,address,string))": {
						"notice": "添加记录"
					},
					"getAll(uint256)": {
						"notice": "获取单个资产的所有记录"
					},
					"getByTimestamp(uint256,uint256)": {
						"notice": "获取单个资产的某个时间节点上的记录 [待优化]"
					},
					"getLast(uint256)": {
						"notice": "获取单个资产的最新记录"
					}
				},
				"version": 1
			}
		}
	}
}