{
	"1127/TraceAsset.sol": {
		"TraceAsset": {
			"abi": [
				{
					"inputs": [],
					"stateMutability": "nonpayable",
					"type": "constructor"
				},
				{
					"anonymous": false,
					"inputs": [
						{
							"indexed": true,
							"internalType": "bytes32",
							"name": "role",
							"type": "bytes32"
						},
						{
							"indexed": true,
							"internalType": "bytes32",
							"name": "previousAdminRole",
							"type": "bytes32"
						},
						{
							"indexed": true,
							"internalType": "bytes32",
							"name": "newAdminRole",
							"type": "bytes32"
						}
					],
					"name": "RoleAdminChanged",
					"type": "event"
				},
				{
					"anonymous": false,
					"inputs": [
						{
							"indexed": true,
							"internalType": "bytes32",
							"name": "role",
							"type": "bytes32"
						},
						{
							"indexed": true,
							"internalType": "address",
							"name": "account",
							"type": "address"
						},
						{
							"indexed": true,
							"internalType": "address",
							"name": "sender",
							"type": "address"
						}
					],
					"name": "RoleGranted",
					"type": "event"
				},
				{
					"anonymous": false,
					"inputs": [
						{
							"indexed": true,
							"internalType": "bytes32",
							"name": "role",
							"type": "bytes32"
						},
						{
							"indexed": true,
							"internalType": "address",
							"name": "account",
							"type": "address"
						},
						{
							"indexed": true,
							"internalType": "address",
							"name": "sender",
							"type": "address"
						}
					],
					"name": "RoleRevoked",
					"type": "event"
				},
				{
					"inputs": [],
					"name": "ADMIN",
					"outputs": [
						{
							"internalType": "bytes32",
							"name": "",
							"type": "bytes32"
						}
					],
					"stateMutability": "view",
					"type": "function"
				},
				{
					"inputs": [],
					"name": "DEFAULT_ADMIN",
					"outputs": [
						{
							"internalType": "bytes32",
							"name": "",
							"type": "bytes32"
						}
					],
					"stateMutability": "view",
					"type": "function"
				},
				{
					"inputs": [],
					"name": "TRACER",
					"outputs": [
						{
							"internalType": "bytes32",
							"name": "",
							"type": "bytes32"
						}
					],
					"stateMutability": "view",
					"type": "function"
				},
				{
					"inputs": [
						{
							"internalType": "string",
							"name": "hash",
							"type": "string"
						},
						{
							"components": [
								{
									"components": [
										{
											"internalType": "string",
											"name": "cid",
											"type": "string"
										},
										{
											"internalType": "uint256",
											"name": "createdAt",
											"type": "uint256"
										},
										{
											"internalType": "address",
											"name": "creator",
											"type": "address"
										},
										{
											"internalType": "bool",
											"name": "isPublic",
											"type": "bool"
										}
									],
									"internalType": "struct DataStruct.AssetMetadata",
									"name": "asset",
									"type": "tuple"
								},
								{
									"internalType": "uint256",
									"name": "operateTime",
									"type": "uint256"
								},
								{
									"internalType": "string",
									"name": "operateMsg",
									"type": "string"
								}
							],
							"internalType": "struct DataStruct.AssetTrace",
							"name": "trace",
							"type": "tuple"
						}
					],
					"name": "add",
					"outputs": [],
					"stateMutability": "nonpayable",
					"type": "function"
				},
				{
					"inputs": [
						{
							"internalType": "bytes32",
							"name": "role",
							"type": "bytes32"
						}
					],
					"name": "checkRole",
					"outputs": [
						{
							"internalType": "bool",
							"name": "",
							"type": "bool"
						}
					],
					"stateMutability": "view",
					"type": "function"
				},
				{
					"inputs": [
						{
							"internalType": "string",
							"name": "hash",
							"type": "string"
						}
					],
					"name": "get",
					"outputs": [
						{
							"components": [
								{
									"components": [
										{
											"internalType": "string",
											"name": "cid",
											"type": "string"
										},
										{
											"internalType": "uint256",
											"name": "createdAt",
											"type": "uint256"
										},
										{
											"internalType": "address",
											"name": "creator",
											"type": "address"
										},
										{
											"internalType": "bool",
											"name": "isPublic",
											"type": "bool"
										}
									],
									"internalType": "struct DataStruct.AssetMetadata",
									"name": "asset",
									"type": "tuple"
								},
								{
									"internalType": "uint256",
									"name": "operateTime",
									"type": "uint256"
								},
								{
									"internalType": "string",
									"name": "operateMsg",
									"type": "string"
								}
							],
							"internalType": "struct DataStruct.AssetTrace[]",
							"name": "",
							"type": "tuple[]"
						}
					],
					"stateMutability": "view",
					"type": "function"
				},
				{
					"inputs": [
						{
							"internalType": "string",
							"name": "hash",
							"type": "string"
						}
					],
					"name": "getLastOperateTime",
					"outputs": [
						{
							"internalType": "uint256",
							"name": "",
							"type": "uint256"
						}
					],
					"stateMutability": "view",
					"type": "function"
				},
				{
					"inputs": [
						{
							"internalType": "bytes32",
							"name": "role",
							"type": "bytes32"
						}
					],
					"name": "getRoleAdmin",
					"outputs": [
						{
							"internalType": "bytes32",
							"name": "",
							"type": "bytes32"
						}
					],
					"stateMutability": "view",
					"type": "function"
				},
				{
					"inputs": [
						{
							"internalType": "bytes32",
							"name": "role",
							"type": "bytes32"
						},
						{
							"internalType": "address",
							"name": "member",
							"type": "address"
						}
					],
					"name": "grantRole",
					"outputs": [
						{
							"internalType": "bool",
							"name": "",
							"type": "bool"
						}
					],
					"stateMutability": "nonpayable",
					"type": "function"
				},
				{
					"inputs": [
						{
							"internalType": "bytes32",
							"name": "role",
							"type": "bytes32"
						},
						{
							"internalType": "address",
							"name": "member",
							"type": "address"
						}
					],
					"name": "hasRole",
					"outputs": [
						{
							"internalType": "bool",
							"name": "",
							"type": "bool"
						}
					],
					"stateMutability": "view",
					"type": "function"
				},
				{
					"inputs": [
						{
							"internalType": "bytes32",
							"name": "role",
							"type": "bytes32"
						},
						{
							"internalType": "address",
							"name": "member",
							"type": "address"
						}
					],
					"name": "revokeRole",
					"outputs": [
						{
							"internalType": "bool",
							"name": "",
							"type": "bool"
						}
					],
					"stateMutability": "nonpayable",
					"type": "function"
				},
				{
					"inputs": [
						{
							"internalType": "address",
							"name": "getter",
							"type": "address"
						}
					],
					"name": "setTraceRight",
					"outputs": [],
					"stateMutability": "nonpayable",
					"type": "function"
				}
			],
			"devdoc": {
				"kind": "dev",
				"methods": {},
				"version": 1
			},
			"evm": {
				"assembly": "    /* \"1127/TraceAsset.sol\":128:1211  contract TraceAsset is AccessControl{... */\n  mstore(0x40, 0x80)\n    /* \"1127/TraceAsset.sol\":277:400  constructor() AccessControl(msg.sender){... */\n  callvalue\n  dup1\n  iszero\n  tag_1\n  jumpi\n  0x00\n  dup1\n  revert\ntag_1:\n  pop\n    /* \"1127/TraceAsset.sol\":305:315  msg.sender */\n  caller\n    /* \"1127/util/AccessControl.sol\":970:974  true */\n  0x01\n    /* \"1127/util/AccessControl.sol\":931:936  roles */\n  0x00\n    /* \"1127/util/AccessControl.sol\":931:951  roles[DEFAULT_ADMIN] */\n  dup1\n    /* \"1127/util/AccessControl.sol\":246:250  0x00 */\n  dup1\n    /* \"1127/util/AccessControl.sol\":937:950  DEFAULT_ADMIN */\n  0x00\n  shl\n    /* \"1127/util/AccessControl.sol\":931:951  roles[DEFAULT_ADMIN] */\n  dup2\n  mstore\n  0x20\n  add\n  swap1\n  dup2\n  mstore\n  0x20\n  add\n  0x00\n  keccak256\n    /* \"1127/util/AccessControl.sol\":931:960  roles[DEFAULT_ADMIN].hasRoles */\n  0x00\n  add\n    /* \"1127/util/AccessControl.sol\":931:967  roles[DEFAULT_ADMIN].hasRoles[admin] */\n  0x00\n    /* \"1127/util/AccessControl.sol\":961:966  admin */\n  dup4\n    /* \"1127/util/AccessControl.sol\":931:967  roles[DEFAULT_ADMIN].hasRoles[admin] */\n  0xffffffffffffffffffffffffffffffffffffffff\n  and\n  0xffffffffffffffffffffffffffffffffffffffff\n  and\n  dup2\n  mstore\n  0x20\n  add\n  swap1\n  dup2\n  mstore\n  0x20\n  add\n  0x00\n  keccak256\n  0x00\n    /* \"1127/util/AccessControl.sol\":931:974  roles[DEFAULT_ADMIN].hasRoles[admin] = true */\n  0x0100\n  exp\n  dup2\n  sload\n  dup2\n  0xff\n  mul\n  not\n  and\n  swap1\n  dup4\n  iszero\n  iszero\n  mul\n  or\n  swap1\n  sstore\n  pop\n    /* \"1127/util/AccessControl.sol\":895:981  constructor(address admin){... */\n  pop\n    /* \"1127/TraceAsset.sol\":325:352  setRoleAdmin(TRACER, ADMIN) */\n  tag_6\n    /* \"1127/TraceAsset.sol\":249:268  keccak256(\"Tracer\") */\n  0xde578090ec646877a6b707d83ea8139dac8a43d4dea437aa209801b10c1b26b5\n    /* \"1127/TraceAsset.sol\":205:209  0x00 */\n  0x00\n    /* \"1127/TraceAsset.sol\":346:351  ADMIN */\n  dup1\n  shl\n    /* \"1127/TraceAsset.sol\":325:337  setRoleAdmin */\n  shl(0x20, tag_7)\n    /* \"1127/TraceAsset.sol\":325:352  setRoleAdmin(TRACER, ADMIN) */\n  0x20\n  shr\n  jump\t// in\ntag_6:\n    /* \"1127/TraceAsset.sol\":361:390  grantRole(TRACER, msg.sender) */\n  tag_8\n    /* \"1127/TraceAsset.sol\":249:268  keccak256(\"Tracer\") */\n  0xde578090ec646877a6b707d83ea8139dac8a43d4dea437aa209801b10c1b26b5\n    /* \"1127/TraceAsset.sol\":379:389  msg.sender */\n  caller\n    /* \"1127/TraceAsset.sol\":361:370  grantRole */\n  shl(0x20, tag_9)\n    /* \"1127/TraceAsset.sol\":361:390  grantRole(TRACER, msg.sender) */\n  0x20\n  shr\n  jump\t// in\ntag_8:\n  pop\n    /* \"1127/TraceAsset.sol\":128:1211  contract TraceAsset is AccessControl{... */\n  jump(tag_10)\n    /* \"1127/util/AccessControl.sol\":1528:1741  function setRoleAdmin(bytes32 role ,bytes32 admin) internal virtual  {... */\ntag_7:\n    /* \"1127/util/AccessControl.sol\":1607:1623  bytes32 oldAdmin */\n  0x00\n    /* \"1127/util/AccessControl.sol\":1626:1644  getRoleAdmin(role) */\n  tag_12\n    /* \"1127/util/AccessControl.sol\":1639:1643  role */\n  dup4\n    /* \"1127/util/AccessControl.sol\":1626:1638  getRoleAdmin */\n  shl(0x20, tag_13)\n    /* \"1127/util/AccessControl.sol\":1626:1644  getRoleAdmin(role) */\n  0x20\n  shr\n  jump\t// in\ntag_12:\n    /* \"1127/util/AccessControl.sol\":1607:1644  bytes32 oldAdmin = getRoleAdmin(role) */\n  swap1\n  pop\n    /* \"1127/util/AccessControl.sol\":1676:1681  admin */\n  dup2\n    /* \"1127/util/AccessControl.sol\":1654:1659  roles */\n  0x00\n    /* \"1127/util/AccessControl.sol\":1654:1665  roles[role] */\n  dup1\n    /* \"1127/util/AccessControl.sol\":1660:1664  role */\n  dup6\n    /* \"1127/util/AccessControl.sol\":1654:1665  roles[role] */\n  dup2\n  mstore\n  0x20\n  add\n  swap1\n  dup2\n  mstore\n  0x20\n  add\n  0x00\n  keccak256\n    /* \"1127/util/AccessControl.sol\":1654:1675  roles[role].adminRole */\n  0x01\n  add\n    /* \"1127/util/AccessControl.sol\":1654:1681  roles[role].adminRole=admin */\n  dup2\n  swap1\n  sstore\n  pop\n    /* \"1127/util/AccessControl.sol\":1728:1733  admin */\n  dup2\n    /* \"1127/util/AccessControl.sol\":1718:1726  oldAdmin */\n  dup2\n    /* \"1127/util/AccessControl.sol\":1713:1717  role */\n  dup5\n    /* \"1127/util/AccessControl.sol\":1696:1734  RoleAdminChanged(role,oldAdmin, admin) */\n  0xbd79b86ffe0ab8e8776151514217cd7cacd52c909f66475c3af44e129f0b00ff\n  mload(0x40)\n  mload(0x40)\n  dup1\n  swap2\n  sub\n  swap1\n  log4\n    /* \"1127/util/AccessControl.sol\":1597:1741  {... */\n  pop\n    /* \"1127/util/AccessControl.sol\":1528:1741  function setRoleAdmin(bytes32 role ,bytes32 admin) internal virtual  {... */\n  pop\n  pop\n  jump\t// out\n    /* \"1127/util/AccessControl.sol\":1785:2111  function grantRole(bytes32 role, address member)... */\ntag_9:\n    /* \"1127/util/AccessControl.sol\":1903:1907  bool */\n  0x00\n    /* \"1127/util/AccessControl.sol\":1866:1884  getRoleAdmin(role) */\n  tag_14\n    /* \"1127/util/AccessControl.sol\":1879:1883  role */\n  dup4\n    /* \"1127/util/AccessControl.sol\":1866:1878  getRoleAdmin */\n  shl(0x20, tag_13)\n    /* \"1127/util/AccessControl.sol\":1866:1884  getRoleAdmin(role) */\n  0x20\n  shr\n  jump\t// in\ntag_14:\n    /* \"1127/util/AccessControl.sol\":856:871  checkRole(role) */\n  tag_16\n    /* \"1127/util/AccessControl.sol\":866:870  role */\n  dup2\n    /* \"1127/util/AccessControl.sol\":856:865  checkRole */\n  shl(0x20, tag_17)\n    /* \"1127/util/AccessControl.sol\":856:871  checkRole(role) */\n  0x20\n  shr\n  jump\t// in\ntag_16:\n  pop\n    /* \"1127/util/AccessControl.sol\":1927:1948  hasRole(role, member) */\n  tag_19\n    /* \"1127/util/AccessControl.sol\":1935:1939  role */\n  dup5\n    /* \"1127/util/AccessControl.sol\":1941:1947  member */\n  dup5\n    /* \"1127/util/AccessControl.sol\":1927:1934  hasRole */\n  shl(0x20, tag_20)\n    /* \"1127/util/AccessControl.sol\":1927:1948  hasRole(role, member) */\n  0x20\n  shr\n  jump\t// in\ntag_19:\n    /* \"1127/util/AccessControl.sol\":1923:1987  if (hasRole(role, member)) {... */\n  iszero\n  tag_21\n  jumpi\n    /* \"1127/util/AccessControl.sol\":1971:1976  false */\n  0x00\n    /* \"1127/util/AccessControl.sol\":1964:1976  return false */\n  swap2\n  pop\n  jump(tag_18)\n    /* \"1127/util/AccessControl.sol\":1923:1987  if (hasRole(role, member)) {... */\ntag_21:\n    /* \"1127/util/AccessControl.sol\":2027:2031  true */\n  0x01\n    /* \"1127/util/AccessControl.sol\":1996:2001  roles */\n  0x00\n    /* \"1127/util/AccessControl.sol\":1996:2007  roles[role] */\n  dup1\n    /* \"1127/util/AccessControl.sol\":2002:2006  role */\n  dup7\n    /* \"1127/util/AccessControl.sol\":1996:2007  roles[role] */\n  dup2\n  mstore\n  0x20\n  add\n  swap1\n  dup2\n  mstore\n  0x20\n  add\n  0x00\n  keccak256\n    /* \"1127/util/AccessControl.sol\":1996:2016  roles[role].hasRoles */\n  0x00\n  add\n    /* \"1127/util/AccessControl.sol\":1996:2024  roles[role].hasRoles[member] */\n  0x00\n    /* \"1127/util/AccessControl.sol\":2017:2023  member */\n  dup6\n    /* \"1127/util/AccessControl.sol\":1996:2024  roles[role].hasRoles[member] */\n  0xffffffffffffffffffffffffffffffffffffffff\n  and\n  0xffffffffffffffffffffffffffffffffffffffff\n  and\n  dup2\n  mstore\n  0x20\n  add\n  swap1\n  dup2\n  mstore\n  0x20\n  add\n  0x00\n  keccak256\n  0x00\n    /* \"1127/util/AccessControl.sol\":1996:2031  roles[role].hasRoles[member] = true */\n  0x0100\n  exp\n  dup2\n  sload\n  dup2\n  0xff\n  mul\n  not\n  and\n  swap1\n  dup4\n  iszero\n  iszero\n  mul\n  or\n  swap1\n  sstore\n  pop\n    /* \"1127/util/AccessControl.sol\":2072:2082  msg.sender */\n  caller\n    /* \"1127/util/AccessControl.sol\":2046:2083  RoleGranted(role, member, msg.sender) */\n  0xffffffffffffffffffffffffffffffffffffffff\n  and\n    /* \"1127/util/AccessControl.sol\":2064:2070  member */\n  dup4\n    /* \"1127/util/AccessControl.sol\":2046:2083  RoleGranted(role, member, msg.sender) */\n  0xffffffffffffffffffffffffffffffffffffffff\n  and\n    /* \"1127/util/AccessControl.sol\":2058:2062  role */\n  dup6\n    /* \"1127/util/AccessControl.sol\":2046:2083  RoleGranted(role, member, msg.sender) */\n  0x2f8788117e7eff1d82e926ec794901d17c78024a50270940304540a733656f0d\n  mload(0x40)\n  mload(0x40)\n  dup1\n  swap2\n  sub\n  swap1\n  log4\n    /* \"1127/util/AccessControl.sol\":2100:2104  true */\n  0x01\n    /* \"1127/util/AccessControl.sol\":2093:2104  return true */\n  swap2\n  pop\n    /* \"1127/util/AccessControl.sol\":881:882  _ */\ntag_18:\n    /* \"1127/util/AccessControl.sol\":1785:2111  function grantRole(bytes32 role, address member)... */\n  pop\n  swap3\n  swap2\n  pop\n  pop\n  jump\t// out\n    /* \"1127/util/AccessControl.sol\":1379:1490  function getRoleAdmin(bytes32 role) public view returns (bytes32) {... */\ntag_13:\n    /* \"1127/util/AccessControl.sol\":1436:1443  bytes32 */\n  0x00\n    /* \"1127/util/AccessControl.sol\":1462:1467  roles */\n  dup1\n    /* \"1127/util/AccessControl.sol\":1462:1473  roles[role] */\n  0x00\n    /* \"1127/util/AccessControl.sol\":1468:1472  role */\n  dup4\n    /* \"1127/util/AccessControl.sol\":1462:1473  roles[role] */\n  dup2\n  mstore\n  0x20\n  add\n  swap1\n  dup2\n  mstore\n  0x20\n  add\n  0x00\n  keccak256\n    /* \"1127/util/AccessControl.sol\":1462:1483  roles[role].adminRole */\n  0x01\n  add\n  sload\n    /* \"1127/util/AccessControl.sol\":1455:1483  return roles[role].adminRole */\n  swap1\n  pop\n    /* \"1127/util/AccessControl.sol\":1379:1490  function getRoleAdmin(bytes32 role) public view returns (bytes32) {... */\n  swap2\n  swap1\n  pop\n  jump\t// out\n    /* \"1127/util/AccessControl.sol\":1011:1194  function checkRole(bytes32 role) public view returns (bool) {... */\ntag_17:\n    /* \"1127/util/AccessControl.sol\":1065:1069  bool */\n  0x00\n    /* \"1127/util/AccessControl.sol\":1086:1111  hasRole(role, msg.sender) */\n  tag_24\n    /* \"1127/util/AccessControl.sol\":1094:1098  role */\n  dup3\n    /* \"1127/util/AccessControl.sol\":1100:1110  msg.sender */\n  caller\n    /* \"1127/util/AccessControl.sol\":1086:1093  hasRole */\n  shl(0x20, tag_20)\n    /* \"1127/util/AccessControl.sol\":1086:1111  hasRole(role, msg.sender) */\n  0x20\n  shr\n  jump\t// in\ntag_24:\n    /* \"1127/util/AccessControl.sol\":1081:1167  if (!hasRole(role, msg.sender)) {... */\n  tag_25\n  jumpi\n    /* \"1127/util/AccessControl.sol\":1127:1156  revert(\"UnAuthorizedAccount\") */\n  mload(0x40)\n  0x08c379a000000000000000000000000000000000000000000000000000000000\n  dup2\n  mstore\n  0x04\n  add\n  tag_26\n  swap1\n  tag_27\n  jump\t// in\ntag_26:\n  mload(0x40)\n  dup1\n  swap2\n  sub\n  swap1\n  revert\n    /* \"1127/util/AccessControl.sol\":1081:1167  if (!hasRole(role, msg.sender)) {... */\ntag_25:\n    /* \"1127/util/AccessControl.sol\":1183:1187  true */\n  0x01\n    /* \"1127/util/AccessControl.sol\":1176:1187  return true */\n  swap1\n  pop\n    /* \"1127/util/AccessControl.sol\":1011:1194  function checkRole(bytes32 role) public view returns (bool) {... */\n  swap2\n  swap1\n  pop\n  jump\t// out\n    /* \"1127/util/AccessControl.sol\":1209:1335  function hasRole(bytes32 role, address member) public view returns (bool) {... */\ntag_20:\n    /* \"1127/util/AccessControl.sol\":1277:1281  bool */\n  0x00\n    /* \"1127/util/AccessControl.sol\":1300:1305  roles */\n  dup1\n    /* \"1127/util/AccessControl.sol\":1300:1311  roles[role] */\n  0x00\n    /* \"1127/util/AccessControl.sol\":1306:1310  role */\n  dup5\n    /* \"1127/util/AccessControl.sol\":1300:1311  roles[role] */\n  dup2\n  mstore\n  0x20\n  add\n  swap1\n  dup2\n  mstore\n  0x20\n  add\n  0x00\n  keccak256\n    /* \"1127/util/AccessControl.sol\":1300:1320  roles[role].hasRoles */\n  0x00\n  add\n    /* \"1127/util/AccessControl.sol\":1300:1328  roles[role].hasRoles[member] */\n  0x00\n    /* \"1127/util/AccessControl.sol\":1321:1327  member */\n  dup4\n    /* \"1127/util/AccessControl.sol\":1300:1328  roles[role].hasRoles[member] */\n  0xffffffffffffffffffffffffffffffffffffffff\n  and\n  0xffffffffffffffffffffffffffffffffffffffff\n  and\n  dup2\n  mstore\n  0x20\n  add\n  swap1\n  dup2\n  mstore\n  0x20\n  add\n  0x00\n  keccak256\n  0x00\n  swap1\n  sload\n  swap1\n  0x0100\n  exp\n  swap1\n  div\n  0xff\n  and\n    /* \"1127/util/AccessControl.sol\":1293:1328  return roles[role].hasRoles[member] */\n  swap1\n  pop\n    /* \"1127/util/AccessControl.sol\":1209:1335  function hasRole(bytes32 role, address member) public view returns (bool) {... */\n  swap3\n  swap2\n  pop\n  pop\n  jump\t// out\n    /* \"#utility.yul\":7:176   */\ntag_29:\n    /* \"#utility.yul\":91:102   */\n  0x00\n    /* \"#utility.yul\":125:131   */\n  dup3\n    /* \"#utility.yul\":120:123   */\n  dup3\n    /* \"#utility.yul\":113:132   */\n  mstore\n    /* \"#utility.yul\":165:169   */\n  0x20\n    /* \"#utility.yul\":160:163   */\n  dup3\n    /* \"#utility.yul\":156:170   */\n  add\n    /* \"#utility.yul\":141:170   */\n  swap1\n  pop\n    /* \"#utility.yul\":7:176   */\n  swap3\n  swap2\n  pop\n  pop\n  jump\t// out\n    /* \"#utility.yul\":182:351   */\ntag_30:\n    /* \"#utility.yul\":322:343   */\n  0x556e417574686f72697a65644163636f756e7400000000000000000000000000\n    /* \"#utility.yul\":318:319   */\n  0x00\n    /* \"#utility.yul\":310:316   */\n  dup3\n    /* \"#utility.yul\":306:320   */\n  add\n    /* \"#utility.yul\":299:344   */\n  mstore\n    /* \"#utility.yul\":182:351   */\n  pop\n  jump\t// out\n    /* \"#utility.yul\":357:723   */\ntag_31:\n    /* \"#utility.yul\":499:502   */\n  0x00\n    /* \"#utility.yul\":520:587   */\n  tag_36\n    /* \"#utility.yul\":584:586   */\n  0x13\n    /* \"#utility.yul\":579:582   */\n  dup4\n    /* \"#utility.yul\":520:587   */\n  tag_29\n  jump\t// in\ntag_36:\n    /* \"#utility.yul\":513:587   */\n  swap2\n  pop\n    /* \"#utility.yul\":596:689   */\n  tag_37\n    /* \"#utility.yul\":685:688   */\n  dup3\n    /* \"#utility.yul\":596:689   */\n  tag_30\n  jump\t// in\ntag_37:\n    /* \"#utility.yul\":714:716   */\n  0x20\n    /* \"#utility.yul\":709:712   */\n  dup3\n    /* \"#utility.yul\":705:717   */\n  add\n    /* \"#utility.yul\":698:717   */\n  swap1\n  pop\n    /* \"#utility.yul\":357:723   */\n  swap2\n  swap1\n  pop\n  jump\t// out\n    /* \"#utility.yul\":729:1148   */\ntag_27:\n    /* \"#utility.yul\":895:899   */\n  0x00\n    /* \"#utility.yul\":933:935   */\n  0x20\n    /* \"#utility.yul\":922:931   */\n  dup3\n    /* \"#utility.yul\":918:936   */\n  add\n    /* \"#utility.yul\":910:936   */\n  swap1\n  pop\n    /* \"#utility.yul\":982:991   */\n  dup2\n    /* \"#utility.yul\":976:980   */\n  dup2\n    /* \"#utility.yul\":972:992   */\n  sub\n    /* \"#utility.yul\":968:969   */\n  0x00\n    /* \"#utility.yul\":957:966   */\n  dup4\n    /* \"#utility.yul\":953:970   */\n  add\n    /* \"#utility.yul\":946:993   */\n  mstore\n    /* \"#utility.yul\":1010:1141   */\n  tag_39\n    /* \"#utility.yul\":1136:1140   */\n  dup2\n    /* \"#utility.yul\":1010:1141   */\n  tag_31\n  jump\t// in\ntag_39:\n    /* \"#utility.yul\":1002:1141   */\n  swap1\n  pop\n    /* \"#utility.yul\":729:1148   */\n  swap2\n  swap1\n  pop\n  jump\t// out\n    /* \"1127/TraceAsset.sol\":128:1211  contract TraceAsset is AccessControl{... */\ntag_10:\n  dataSize(sub_0)\n  dup1\n  dataOffset(sub_0)\n  0x00\n  codecopy\n  0x00\n  return\nstop\n\nsub_0: assembly {\n        /* \"1127/TraceAsset.sol\":128:1211  contract TraceAsset is AccessControl{... */\n      mstore(0x40, 0x80)\n      callvalue\n      dup1\n      iszero\n      tag_1\n      jumpi\n      0x00\n      dup1\n      revert\n    tag_1:\n      pop\n      jumpi(tag_2, lt(calldatasize, 0x04))\n      shr(0xe0, calldataload(0x00))\n      dup1\n      0x693ec85e\n      gt\n      tag_15\n      jumpi\n      dup1\n      0x693ec85e\n      eq\n      tag_9\n      jumpi\n      dup1\n      0x91d14854\n      eq\n      tag_10\n      jumpi\n      dup1\n      0x9cdeba95\n      eq\n      tag_11\n      jumpi\n      dup1\n      0xaa8d24c3\n      eq\n      tag_12\n      jumpi\n      dup1\n      0xc5b95190\n      eq\n      tag_13\n      jumpi\n      dup1\n      0xd547741f\n      eq\n      tag_14\n      jumpi\n      jump(tag_2)\n    tag_15:\n      dup1\n      0x0437a9a9\n      eq\n      tag_3\n      jumpi\n      dup1\n      0x07d81e7b\n      eq\n      tag_4\n      jumpi\n      dup1\n      0x248a9ca3\n      eq\n      tag_5\n      jumpi\n      dup1\n      0x2a0acc6a\n      eq\n      tag_6\n      jumpi\n      dup1\n      0x2f2ff15d\n      eq\n      tag_7\n      jumpi\n      dup1\n      0x4e7a23ba\n      eq\n      tag_8\n      jumpi\n    tag_2:\n      0x00\n      dup1\n      revert\n        /* \"1127/TraceAsset.sol\":653:805  function add(string memory hash,DataStruct.AssetTrace memory trace) public AccessControl.onlyRole(TRACER) {... */\n    tag_3:\n      tag_16\n      0x04\n      dup1\n      calldatasize\n      sub\n      dup2\n      add\n      swap1\n      tag_17\n      swap2\n      swap1\n      tag_18\n      jump\t// in\n    tag_17:\n      tag_19\n      jump\t// in\n    tag_16:\n      stop\n        /* \"1127/TraceAsset.sol\":977:1208  function getLastOperateTime(string memory hash) public view AccessControl.onlyRole(TRACER) returns(uint256){... */\n    tag_4:\n      tag_20\n      0x04\n      dup1\n      calldatasize\n      sub\n      dup2\n      add\n      swap1\n      tag_21\n      swap2\n      swap1\n      tag_22\n      jump\t// in\n    tag_21:\n      tag_23\n      jump\t// in\n    tag_20:\n      mload(0x40)\n      tag_24\n      swap2\n      swap1\n      tag_25\n      jump\t// in\n    tag_24:\n      mload(0x40)\n      dup1\n      swap2\n      sub\n      swap1\n      return\n        /* \"1127/util/AccessControl.sol\":1379:1490  function getRoleAdmin(bytes32 role) public view returns (bytes32) {... */\n    tag_5:\n      tag_26\n      0x04\n      dup1\n      calldatasize\n      sub\n      dup2\n      add\n      swap1\n      tag_27\n      swap2\n      swap1\n      tag_28\n      jump\t// in\n    tag_27:\n      tag_29\n      jump\t// in\n    tag_26:\n      mload(0x40)\n      tag_30\n      swap2\n      swap1\n      tag_31\n      jump\t// in\n    tag_30:\n      mload(0x40)\n      dup1\n      swap2\n      sub\n      swap1\n      return\n        /* \"1127/TraceAsset.sol\":173:209  bytes32 public constant ADMIN = 0x00 */\n    tag_6:\n      tag_32\n      tag_33\n      jump\t// in\n    tag_32:\n      mload(0x40)\n      tag_34\n      swap2\n      swap1\n      tag_31\n      jump\t// in\n    tag_34:\n      mload(0x40)\n      dup1\n      swap2\n      sub\n      swap1\n      return\n        /* \"1127/util/AccessControl.sol\":1785:2111  function grantRole(bytes32 role, address member)... */\n    tag_7:\n      tag_35\n      0x04\n      dup1\n      calldatasize\n      sub\n      dup2\n      add\n      swap1\n      tag_36\n      swap2\n      swap1\n      tag_37\n      jump\t// in\n    tag_36:\n      tag_38\n      jump\t// in\n    tag_35:\n      mload(0x40)\n      tag_39\n      swap2\n      swap1\n      tag_40\n      jump\t// in\n    tag_39:\n      mload(0x40)\n      dup1\n      swap2\n      sub\n      swap1\n      return\n        /* \"1127/TraceAsset.sol\":216:268  bytes32 public constant TRACER = keccak256(\"Tracer\") */\n    tag_8:\n      tag_41\n      tag_42\n      jump\t// in\n    tag_41:\n      mload(0x40)\n      tag_43\n      swap2\n      swap1\n      tag_31\n      jump\t// in\n    tag_43:\n      mload(0x40)\n      dup1\n      swap2\n      sub\n      swap1\n      return\n        /* \"1127/TraceAsset.sol\":813:969  function get(string memory hash) public view AccessControl.onlyRole(TRACER) returns(DataStruct.AssetTrace[] memory){... */\n    tag_9:\n      tag_44\n      0x04\n      dup1\n      calldatasize\n      sub\n      dup2\n      add\n      swap1\n      tag_45\n      swap2\n      swap1\n      tag_22\n      jump\t// in\n    tag_45:\n      tag_46\n      jump\t// in\n    tag_44:\n      mload(0x40)\n      tag_47\n      swap2\n      swap1\n      tag_48\n      jump\t// in\n    tag_47:\n      mload(0x40)\n      dup1\n      swap2\n      sub\n      swap1\n      return\n        /* \"1127/util/AccessControl.sol\":1209:1335  function hasRole(bytes32 role, address member) public view returns (bool) {... */\n    tag_10:\n      tag_49\n      0x04\n      dup1\n      calldatasize\n      sub\n      dup2\n      add\n      swap1\n      tag_50\n      swap2\n      swap1\n      tag_37\n      jump\t// in\n    tag_50:\n      tag_51\n      jump\t// in\n    tag_49:\n      mload(0x40)\n      tag_52\n      swap2\n      swap1\n      tag_40\n      jump\t// in\n    tag_52:\n      mload(0x40)\n      dup1\n      swap2\n      sub\n      swap1\n      return\n        /* \"1127/util/AccessControl.sol\":206:250  bytes32 public constant DEFAULT_ADMIN = 0x00 */\n    tag_11:\n      tag_53\n      tag_54\n      jump\t// in\n    tag_53:\n      mload(0x40)\n      tag_55\n      swap2\n      swap1\n      tag_31\n      jump\t// in\n    tag_55:\n      mload(0x40)\n      dup1\n      swap2\n      sub\n      swap1\n      return\n        /* \"1127/TraceAsset.sol\":524:641  function setTraceRight(address getter) public AccessControl.onlyRole(ADMIN){... */\n    tag_12:\n      tag_56\n      0x04\n      dup1\n      calldatasize\n      sub\n      dup2\n      add\n      swap1\n      tag_57\n      swap2\n      swap1\n      tag_58\n      jump\t// in\n    tag_57:\n      tag_59\n      jump\t// in\n    tag_56:\n      stop\n        /* \"1127/util/AccessControl.sol\":1011:1194  function checkRole(bytes32 role) public view returns (bool) {... */\n    tag_13:\n      tag_60\n      0x04\n      dup1\n      calldatasize\n      sub\n      dup2\n      add\n      swap1\n      tag_61\n      swap2\n      swap1\n      tag_28\n      jump\t// in\n    tag_61:\n      tag_62\n      jump\t// in\n    tag_60:\n      mload(0x40)\n      tag_63\n      swap2\n      swap1\n      tag_40\n      jump\t// in\n    tag_63:\n      mload(0x40)\n      dup1\n      swap2\n      sub\n      swap1\n      return\n        /* \"1127/util/AccessControl.sol\":2161:2490  function revokeRole(bytes32 role, address member)... */\n    tag_14:\n      tag_64\n      0x04\n      dup1\n      calldatasize\n      sub\n      dup2\n      add\n      swap1\n      tag_65\n      swap2\n      swap1\n      tag_37\n      jump\t// in\n    tag_65:\n      tag_66\n      jump\t// in\n    tag_64:\n      mload(0x40)\n      tag_67\n      swap2\n      swap1\n      tag_40\n      jump\t// in\n    tag_67:\n      mload(0x40)\n      dup1\n      swap2\n      sub\n      swap1\n      return\n        /* \"1127/TraceAsset.sol\":653:805  function add(string memory hash,DataStruct.AssetTrace memory trace) public AccessControl.onlyRole(TRACER) {... */\n    tag_19:\n        /* \"1127/TraceAsset.sol\":249:268  keccak256(\"Tracer\") */\n      0xde578090ec646877a6b707d83ea8139dac8a43d4dea437aa209801b10c1b26b5\n        /* \"1127/util/AccessControl.sol\":856:871  checkRole(role) */\n      tag_69\n        /* \"1127/util/AccessControl.sol\":866:870  role */\n      dup2\n        /* \"1127/util/AccessControl.sol\":856:865  checkRole */\n      tag_62\n        /* \"1127/util/AccessControl.sol\":856:871  checkRole(role) */\n      jump\t// in\n    tag_69:\n      pop\n        /* \"1127/TraceAsset.sol\":770:779  traceList */\n      0x01\n        /* \"1127/TraceAsset.sol\":780:784  hash */\n      dup4\n        /* \"1127/TraceAsset.sol\":770:785  traceList[hash] */\n      mload(0x40)\n      tag_71\n      swap2\n      swap1\n      tag_72\n      jump\t// in\n    tag_71:\n      swap1\n      dup2\n      mstore\n      0x20\n      add\n      mload(0x40)\n      dup1\n      swap2\n      sub\n      swap1\n      keccak256\n        /* \"1127/TraceAsset.sol\":791:796  trace */\n      dup3\n        /* \"1127/TraceAsset.sol\":770:797  traceList[hash].push(trace) */\n      swap1\n      dup1\n      0x01\n      dup2\n      sload\n      add\n      dup1\n      dup3\n      sstore\n      dup1\n      swap2\n      pop\n      pop\n      0x01\n      swap1\n      sub\n      swap1\n      0x00\n      mstore\n      keccak256(0x00, 0x20)\n      swap1\n      0x05\n      mul\n      add\n      0x00\n      swap1\n      swap2\n      swap1\n      swap2\n      swap1\n      swap2\n      pop\n      0x00\n      dup3\n      add\n      mload\n      dup2\n      0x00\n      add\n      0x00\n      dup3\n      add\n      mload\n      dup2\n      0x00\n      add\n      swap1\n      dup1\n      mload\n      swap1\n      0x20\n      add\n      swap1\n      tag_74\n      swap3\n      swap2\n      swap1\n      tag_75\n      jump\t// in\n    tag_74:\n      pop\n      0x20\n      dup3\n      add\n      mload\n      dup2\n      0x01\n      add\n      sstore\n      0x40\n      dup3\n      add\n      mload\n      dup2\n      0x02\n      add\n      exp(0x0100, 0x00)\n      dup2\n      sload\n      dup2\n      0xffffffffffffffffffffffffffffffffffffffff\n      mul\n      not\n      and\n      swap1\n      dup4\n      0xffffffffffffffffffffffffffffffffffffffff\n      and\n      mul\n      or\n      swap1\n      sstore\n      pop\n      0x60\n      dup3\n      add\n      mload\n      dup2\n      0x02\n      add\n      exp(0x0100, 0x14)\n      dup2\n      sload\n      dup2\n      0xff\n      mul\n      not\n      and\n      swap1\n      dup4\n      iszero\n      iszero\n      mul\n      or\n      swap1\n      sstore\n      pop\n      pop\n      pop\n      0x20\n      dup3\n      add\n      mload\n      dup2\n      0x03\n      add\n      sstore\n      0x40\n      dup3\n      add\n      mload\n      dup2\n      0x04\n      add\n      swap1\n      dup1\n      mload\n      swap1\n      0x20\n      add\n      swap1\n      tag_76\n      swap3\n      swap2\n      swap1\n      tag_75\n      jump\t// in\n    tag_76:\n      pop\n      pop\n      pop\n        /* \"1127/TraceAsset.sol\":653:805  function add(string memory hash,DataStruct.AssetTrace memory trace) public AccessControl.onlyRole(TRACER) {... */\n      pop\n      pop\n      pop\n      jump\t// out\n        /* \"1127/TraceAsset.sol\":977:1208  function getLastOperateTime(string memory hash) public view AccessControl.onlyRole(TRACER) returns(uint256){... */\n    tag_23:\n        /* \"1127/TraceAsset.sol\":1076:1083  uint256 */\n      0x00\n        /* \"1127/TraceAsset.sol\":249:268  keccak256(\"Tracer\") */\n      0xde578090ec646877a6b707d83ea8139dac8a43d4dea437aa209801b10c1b26b5\n        /* \"1127/util/AccessControl.sol\":856:871  checkRole(role) */\n      tag_78\n        /* \"1127/util/AccessControl.sol\":866:870  role */\n      dup2\n        /* \"1127/util/AccessControl.sol\":856:865  checkRole */\n      tag_62\n        /* \"1127/util/AccessControl.sol\":856:871  checkRole(role) */\n      jump\t// in\n    tag_78:\n      pop\n        /* \"1127/TraceAsset.sol\":1095:1131  DataStruct.AssetTrace[] memory array */\n      0x00\n        /* \"1127/TraceAsset.sol\":1134:1143  traceList */\n      0x01\n        /* \"1127/TraceAsset.sol\":1144:1148  hash */\n      dup5\n        /* \"1127/TraceAsset.sol\":1134:1149  traceList[hash] */\n      mload(0x40)\n      tag_80\n      swap2\n      swap1\n      tag_72\n      jump\t// in\n    tag_80:\n      swap1\n      dup2\n      mstore\n      0x20\n      add\n      mload(0x40)\n      dup1\n      swap2\n      sub\n      swap1\n      keccak256\n        /* \"1127/TraceAsset.sol\":1095:1149  DataStruct.AssetTrace[] memory array = traceList[hash] */\n      dup1\n      sload\n      dup1\n      0x20\n      mul\n      0x20\n      add\n      mload(0x40)\n      swap1\n      dup2\n      add\n      0x40\n      mstore\n      dup1\n      swap3\n      swap2\n      swap1\n      dup2\n      dup2\n      mstore\n      0x20\n      add\n      0x00\n      swap1\n    tag_81:\n      dup3\n      dup3\n      lt\n      iszero\n      tag_82\n      jumpi\n      dup4\n      dup3\n      swap1\n      0x00\n      mstore\n      keccak256(0x00, 0x20)\n      swap1\n      0x05\n      mul\n      add\n      mload(0x40)\n      dup1\n      0x60\n      add\n      0x40\n      mstore\n      swap1\n      dup2\n      0x00\n      dup3\n      add\n      mload(0x40)\n      dup1\n      0x80\n      add\n      0x40\n      mstore\n      swap1\n      dup2\n      0x00\n      dup3\n      add\n      dup1\n      sload\n      tag_84\n      swap1\n      tag_85\n      jump\t// in\n    tag_84:\n      dup1\n      0x1f\n      add\n      0x20\n      dup1\n      swap2\n      div\n      mul\n      0x20\n      add\n      mload(0x40)\n      swap1\n      dup2\n      add\n      0x40\n      mstore\n      dup1\n      swap3\n      swap2\n      swap1\n      dup2\n      dup2\n      mstore\n      0x20\n      add\n      dup3\n      dup1\n      sload\n      tag_86\n      swap1\n      tag_85\n      jump\t// in\n    tag_86:\n      dup1\n      iszero\n      tag_87\n      jumpi\n      dup1\n      0x1f\n      lt\n      tag_88\n      jumpi\n      0x0100\n      dup1\n      dup4\n      sload\n      div\n      mul\n      dup4\n      mstore\n      swap2\n      0x20\n      add\n      swap2\n      jump(tag_87)\n    tag_88:\n      dup3\n      add\n      swap2\n      swap1\n      0x00\n      mstore\n      keccak256(0x00, 0x20)\n      swap1\n    tag_89:\n      dup2\n      sload\n      dup2\n      mstore\n      swap1\n      0x01\n      add\n      swap1\n      0x20\n      add\n      dup1\n      dup4\n      gt\n      tag_89\n      jumpi\n      dup3\n      swap1\n      sub\n      0x1f\n      and\n      dup3\n      add\n      swap2\n    tag_87:\n      pop\n      pop\n      pop\n      pop\n      pop\n      dup2\n      mstore\n      0x20\n      add\n      0x01\n      dup3\n      add\n      sload\n      dup2\n      mstore\n      0x20\n      add\n      0x02\n      dup3\n      add\n      0x00\n      swap1\n      sload\n      swap1\n      0x0100\n      exp\n      swap1\n      div\n      0xffffffffffffffffffffffffffffffffffffffff\n      and\n      0xffffffffffffffffffffffffffffffffffffffff\n      and\n      0xffffffffffffffffffffffffffffffffffffffff\n      and\n      dup2\n      mstore\n      0x20\n      add\n      0x02\n      dup3\n      add\n      0x14\n      swap1\n      sload\n      swap1\n      0x0100\n      exp\n      swap1\n      div\n      0xff\n      and\n      iszero\n      iszero\n      iszero\n      iszero\n      dup2\n      mstore\n      pop\n      pop\n      dup2\n      mstore\n      0x20\n      add\n      0x03\n      dup3\n      add\n      sload\n      dup2\n      mstore\n      0x20\n      add\n      0x04\n      dup3\n      add\n      dup1\n      sload\n      tag_90\n      swap1\n      tag_85\n      jump\t// in\n    tag_90:\n      dup1\n      0x1f\n      add\n      0x20\n      dup1\n      swap2\n      div\n      mul\n      0x20\n      add\n      mload(0x40)\n      swap1\n      dup2\n      add\n      0x40\n      mstore\n      dup1\n      swap3\n      swap2\n      swap1\n      dup2\n      dup2\n      mstore\n      0x20\n      add\n      dup3\n      dup1\n      sload\n      tag_91\n      swap1\n      tag_85\n      jump\t// in\n    tag_91:\n      dup1\n      iszero\n      tag_92\n      jumpi\n      dup1\n      0x1f\n      lt\n      tag_93\n      jumpi\n      0x0100\n      dup1\n      dup4\n      sload\n      div\n      mul\n      dup4\n      mstore\n      swap2\n      0x20\n      add\n      swap2\n      jump(tag_92)\n    tag_93:\n      dup3\n      add\n      swap2\n      swap1\n      0x00\n      mstore\n      keccak256(0x00, 0x20)\n      swap1\n    tag_94:\n      dup2\n      sload\n      dup2\n      mstore\n      swap1\n      0x01\n      add\n      swap1\n      0x20\n      add\n      dup1\n      dup4\n      gt\n      tag_94\n      jumpi\n      dup3\n      swap1\n      sub\n      0x1f\n      and\n      dup3\n      add\n      swap2\n    tag_92:\n      pop\n      pop\n      pop\n      pop\n      pop\n      dup2\n      mstore\n      pop\n      pop\n      dup2\n      mstore\n      0x20\n      add\n      swap1\n      0x01\n      add\n      swap1\n      jump(tag_81)\n    tag_82:\n      pop\n      pop\n      pop\n      pop\n      swap1\n      pop\n        /* \"1127/TraceAsset.sol\":1167:1172  array */\n      dup1\n        /* \"1127/TraceAsset.sol\":1186:1187  1 */\n      0x01\n        /* \"1127/TraceAsset.sol\":1173:1178  array */\n      dup3\n        /* \"1127/TraceAsset.sol\":1173:1185  array.length */\n      mload\n        /* \"1127/TraceAsset.sol\":1173:1187  array.length-1 */\n      tag_95\n      swap2\n      swap1\n      tag_96\n      jump\t// in\n    tag_95:\n        /* \"1127/TraceAsset.sol\":1167:1188  array[array.length-1] */\n      dup2\n      mload\n      dup2\n      lt\n      tag_97\n      jumpi\n      tag_98\n      tag_99\n      jump\t// in\n    tag_98:\n    tag_97:\n      0x20\n      mul\n      0x20\n      add\n      add\n      mload\n        /* \"1127/TraceAsset.sol\":1167:1200  array[array.length-1].operateTime */\n      0x20\n      add\n      mload\n        /* \"1127/TraceAsset.sol\":1160:1200  return array[array.length-1].operateTime */\n      swap3\n      pop\n      pop\n        /* \"1127/TraceAsset.sol\":977:1208  function getLastOperateTime(string memory hash) public view AccessControl.onlyRole(TRACER) returns(uint256){... */\n      pop\n      swap2\n      swap1\n      pop\n      jump\t// out\n        /* \"1127/util/AccessControl.sol\":1379:1490  function getRoleAdmin(bytes32 role) public view returns (bytes32) {... */\n    tag_29:\n        /* \"1127/util/AccessControl.sol\":1436:1443  bytes32 */\n      0x00\n        /* \"1127/util/AccessControl.sol\":1462:1467  roles */\n      dup1\n        /* \"1127/util/AccessControl.sol\":1462:1473  roles[role] */\n      0x00\n        /* \"1127/util/AccessControl.sol\":1468:1472  role */\n      dup4\n        /* \"1127/util/AccessControl.sol\":1462:1473  roles[role] */\n      dup2\n      mstore\n      0x20\n      add\n      swap1\n      dup2\n      mstore\n      0x20\n      add\n      0x00\n      keccak256\n        /* \"1127/util/AccessControl.sol\":1462:1483  roles[role].adminRole */\n      0x01\n      add\n      sload\n        /* \"1127/util/AccessControl.sol\":1455:1483  return roles[role].adminRole */\n      swap1\n      pop\n        /* \"1127/util/AccessControl.sol\":1379:1490  function getRoleAdmin(bytes32 role) public view returns (bytes32) {... */\n      swap2\n      swap1\n      pop\n      jump\t// out\n        /* \"1127/TraceAsset.sol\":173:209  bytes32 public constant ADMIN = 0x00 */\n    tag_33:\n        /* \"1127/TraceAsset.sol\":205:209  0x00 */\n      0x00\n        /* \"1127/TraceAsset.sol\":173:209  bytes32 public constant ADMIN = 0x00 */\n      dup1\n      shl\n      dup2\n      jump\t// out\n        /* \"1127/util/AccessControl.sol\":1785:2111  function grantRole(bytes32 role, address member)... */\n    tag_38:\n        /* \"1127/util/AccessControl.sol\":1903:1907  bool */\n      0x00\n        /* \"1127/util/AccessControl.sol\":1866:1884  getRoleAdmin(role) */\n      tag_101\n        /* \"1127/util/AccessControl.sol\":1879:1883  role */\n      dup4\n        /* \"1127/util/AccessControl.sol\":1866:1878  getRoleAdmin */\n      tag_29\n        /* \"1127/util/AccessControl.sol\":1866:1884  getRoleAdmin(role) */\n      jump\t// in\n    tag_101:\n        /* \"1127/util/AccessControl.sol\":856:871  checkRole(role) */\n      tag_103\n        /* \"1127/util/AccessControl.sol\":866:870  role */\n      dup2\n        /* \"1127/util/AccessControl.sol\":856:865  checkRole */\n      tag_62\n        /* \"1127/util/AccessControl.sol\":856:871  checkRole(role) */\n      jump\t// in\n    tag_103:\n      pop\n        /* \"1127/util/AccessControl.sol\":1927:1948  hasRole(role, member) */\n      tag_105\n        /* \"1127/util/AccessControl.sol\":1935:1939  role */\n      dup5\n        /* \"1127/util/AccessControl.sol\":1941:1947  member */\n      dup5\n        /* \"1127/util/AccessControl.sol\":1927:1934  hasRole */\n      tag_51\n        /* \"1127/util/AccessControl.sol\":1927:1948  hasRole(role, member) */\n      jump\t// in\n    tag_105:\n        /* \"1127/util/AccessControl.sol\":1923:1987  if (hasRole(role, member)) {... */\n      iszero\n      tag_106\n      jumpi\n        /* \"1127/util/AccessControl.sol\":1971:1976  false */\n      0x00\n        /* \"1127/util/AccessControl.sol\":1964:1976  return false */\n      swap2\n      pop\n      jump(tag_104)\n        /* \"1127/util/AccessControl.sol\":1923:1987  if (hasRole(role, member)) {... */\n    tag_106:\n        /* \"1127/util/AccessControl.sol\":2027:2031  true */\n      0x01\n        /* \"1127/util/AccessControl.sol\":1996:2001  roles */\n      0x00\n        /* \"1127/util/AccessControl.sol\":1996:2007  roles[role] */\n      dup1\n        /* \"1127/util/AccessControl.sol\":2002:2006  role */\n      dup7\n        /* \"1127/util/AccessControl.sol\":1996:2007  roles[role] */\n      dup2\n      mstore\n      0x20\n      add\n      swap1\n      dup2\n      mstore\n      0x20\n      add\n      0x00\n      keccak256\n        /* \"1127/util/AccessControl.sol\":1996:2016  roles[role].hasRoles */\n      0x00\n      add\n        /* \"1127/util/AccessControl.sol\":1996:2024  roles[role].hasRoles[member] */\n      0x00\n        /* \"1127/util/AccessControl.sol\":2017:2023  member */\n      dup6\n        /* \"1127/util/AccessControl.sol\":1996:2024  roles[role].hasRoles[member] */\n      0xffffffffffffffffffffffffffffffffffffffff\n      and\n      0xffffffffffffffffffffffffffffffffffffffff\n      and\n      dup2\n      mstore\n      0x20\n      add\n      swap1\n      dup2\n      mstore\n      0x20\n      add\n      0x00\n      keccak256\n      0x00\n        /* \"1127/util/AccessControl.sol\":1996:2031  roles[role].hasRoles[member] = true */\n      0x0100\n      exp\n      dup2\n      sload\n      dup2\n      0xff\n      mul\n      not\n      and\n      swap1\n      dup4\n      iszero\n      iszero\n      mul\n      or\n      swap1\n      sstore\n      pop\n        /* \"1127/util/AccessControl.sol\":2072:2082  msg.sender */\n      caller\n        /* \"1127/util/AccessControl.sol\":2046:2083  RoleGranted(role, member, msg.sender) */\n      0xffffffffffffffffffffffffffffffffffffffff\n      and\n        /* \"1127/util/AccessControl.sol\":2064:2070  member */\n      dup4\n        /* \"1127/util/AccessControl.sol\":2046:2083  RoleGranted(role, member, msg.sender) */\n      0xffffffffffffffffffffffffffffffffffffffff\n      and\n        /* \"1127/util/AccessControl.sol\":2058:2062  role */\n      dup6\n        /* \"1127/util/AccessControl.sol\":2046:2083  RoleGranted(role, member, msg.sender) */\n      0x2f8788117e7eff1d82e926ec794901d17c78024a50270940304540a733656f0d\n      mload(0x40)\n      mload(0x40)\n      dup1\n      swap2\n      sub\n      swap1\n      log4\n        /* \"1127/util/AccessControl.sol\":2100:2104  true */\n      0x01\n        /* \"1127/util/AccessControl.sol\":2093:2104  return true */\n      swap2\n      pop\n        /* \"1127/util/AccessControl.sol\":881:882  _ */\n    tag_104:\n        /* \"1127/util/AccessControl.sol\":1785:2111  function grantRole(bytes32 role, address member)... */\n      pop\n      swap3\n      swap2\n      pop\n      pop\n      jump\t// out\n        /* \"1127/TraceAsset.sol\":216:268  bytes32 public constant TRACER = keccak256(\"Tracer\") */\n    tag_42:\n        /* \"1127/TraceAsset.sol\":249:268  keccak256(\"Tracer\") */\n      0xde578090ec646877a6b707d83ea8139dac8a43d4dea437aa209801b10c1b26b5\n        /* \"1127/TraceAsset.sol\":216:268  bytes32 public constant TRACER = keccak256(\"Tracer\") */\n      dup2\n      jump\t// out\n        /* \"1127/TraceAsset.sol\":813:969  function get(string memory hash) public view AccessControl.onlyRole(TRACER) returns(DataStruct.AssetTrace[] memory){... */\n    tag_46:\n        /* \"1127/TraceAsset.sol\":897:927  DataStruct.AssetTrace[] memory */\n      0x60\n        /* \"1127/TraceAsset.sol\":249:268  keccak256(\"Tracer\") */\n      0xde578090ec646877a6b707d83ea8139dac8a43d4dea437aa209801b10c1b26b5\n        /* \"1127/util/AccessControl.sol\":856:871  checkRole(role) */\n      tag_108\n        /* \"1127/util/AccessControl.sol\":866:870  role */\n      dup2\n        /* \"1127/util/AccessControl.sol\":856:865  checkRole */\n      tag_62\n        /* \"1127/util/AccessControl.sol\":856:871  checkRole(role) */\n      jump\t// in\n    tag_108:\n      pop\n        /* \"1127/TraceAsset.sol\":946:955  traceList */\n      0x01\n        /* \"1127/TraceAsset.sol\":956:960  hash */\n      dup4\n        /* \"1127/TraceAsset.sol\":946:961  traceList[hash] */\n      mload(0x40)\n      tag_110\n      swap2\n      swap1\n      tag_72\n      jump\t// in\n    tag_110:\n      swap1\n      dup2\n      mstore\n      0x20\n      add\n      mload(0x40)\n      dup1\n      swap2\n      sub\n      swap1\n      keccak256\n        /* \"1127/TraceAsset.sol\":939:961  return traceList[hash] */\n      dup1\n      sload\n      dup1\n      0x20\n      mul\n      0x20\n      add\n      mload(0x40)\n      swap1\n      dup2\n      add\n      0x40\n      mstore\n      dup1\n      swap3\n      swap2\n      swap1\n      dup2\n      dup2\n      mstore\n      0x20\n      add\n      0x00\n      swap1\n    tag_111:\n      dup3\n      dup3\n      lt\n      iszero\n      tag_112\n      jumpi\n      dup4\n      dup3\n      swap1\n      0x00\n      mstore\n      keccak256(0x00, 0x20)\n      swap1\n      0x05\n      mul\n      add\n      mload(0x40)\n      dup1\n      0x60\n      add\n      0x40\n      mstore\n      swap1\n      dup2\n      0x00\n      dup3\n      add\n      mload(0x40)\n      dup1\n      0x80\n      add\n      0x40\n      mstore\n      swap1\n      dup2\n      0x00\n      dup3\n      add\n      dup1\n      sload\n      tag_114\n      swap1\n      tag_85\n      jump\t// in\n    tag_114:\n      dup1\n      0x1f\n      add\n      0x20\n      dup1\n      swap2\n      div\n      mul\n      0x20\n      add\n      mload(0x40)\n      swap1\n      dup2\n      add\n      0x40\n      mstore\n      dup1\n      swap3\n      swap2\n      swap1\n      dup2\n      dup2\n      mstore\n      0x20\n      add\n      dup3\n      dup1\n      sload\n      tag_115\n      swap1\n      tag_85\n      jump\t// in\n    tag_115:\n      dup1\n      iszero\n      tag_116\n      jumpi\n      dup1\n      0x1f\n      lt\n      tag_117\n      jumpi\n      0x0100\n      dup1\n      dup4\n      sload\n      div\n      mul\n      dup4\n      mstore\n      swap2\n      0x20\n      add\n      swap2\n      jump(tag_116)\n    tag_117:\n      dup3\n      add\n      swap2\n      swap1\n      0x00\n      mstore\n      keccak256(0x00, 0x20)\n      swap1\n    tag_118:\n      dup2\n      sload\n      dup2\n      mstore\n      swap1\n      0x01\n      add\n      swap1\n      0x20\n      add\n      dup1\n      dup4\n      gt\n      tag_118\n      jumpi\n      dup3\n      swap1\n      sub\n      0x1f\n      and\n      dup3\n      add\n      swap2\n    tag_116:\n      pop\n      pop\n      pop\n      pop\n      pop\n      dup2\n      mstore\n      0x20\n      add\n      0x01\n      dup3\n      add\n      sload\n      dup2\n      mstore\n      0x20\n      add\n      0x02\n      dup3\n      add\n      0x00\n      swap1\n      sload\n      swap1\n      0x0100\n      exp\n      swap1\n      div\n      0xffffffffffffffffffffffffffffffffffffffff\n      and\n      0xffffffffffffffffffffffffffffffffffffffff\n      and\n      0xffffffffffffffffffffffffffffffffffffffff\n      and\n      dup2\n      mstore\n      0x20\n      add\n      0x02\n      dup3\n      add\n      0x14\n      swap1\n      sload\n      swap1\n      0x0100\n      exp\n      swap1\n      div\n      0xff\n      and\n      iszero\n      iszero\n      iszero\n      iszero\n      dup2\n      mstore\n      pop\n      pop\n      dup2\n      mstore\n      0x20\n      add\n      0x03\n      dup3\n      add\n      sload\n      dup2\n      mstore\n      0x20\n      add\n      0x04\n      dup3\n      add\n      dup1\n      sload\n      tag_119\n      swap1\n      tag_85\n      jump\t// in\n    tag_119:\n      dup1\n      0x1f\n      add\n      0x20\n      dup1\n      swap2\n      div\n      mul\n      0x20\n      add\n      mload(0x40)\n      swap1\n      dup2\n      add\n      0x40\n      mstore\n      dup1\n      swap3\n      swap2\n      swap1\n      dup2\n      dup2\n      mstore\n      0x20\n      add\n      dup3\n      dup1\n      sload\n      tag_120\n      swap1\n      tag_85\n      jump\t// in\n    tag_120:\n      dup1\n      iszero\n      tag_121\n      jumpi\n      dup1\n      0x1f\n      lt\n      tag_122\n      jumpi\n      0x0100\n      dup1\n      dup4\n      sload\n      div\n      mul\n      dup4\n      mstore\n      swap2\n      0x20\n      add\n      swap2\n      jump(tag_121)\n    tag_122:\n      dup3\n      add\n      swap2\n      swap1\n      0x00\n      mstore\n      keccak256(0x00, 0x20)\n      swap1\n    tag_123:\n      dup2\n      sload\n      dup2\n      mstore\n      swap1\n      0x01\n      add\n      swap1\n      0x20\n      add\n      dup1\n      dup4\n      gt\n      tag_123\n      jumpi\n      dup3\n      swap1\n      sub\n      0x1f\n      and\n      dup3\n      add\n      swap2\n    tag_121:\n      pop\n      pop\n      pop\n      pop\n      pop\n      dup2\n      mstore\n      pop\n      pop\n      dup2\n      mstore\n      0x20\n      add\n      swap1\n      0x01\n      add\n      swap1\n      jump(tag_111)\n    tag_112:\n      pop\n      pop\n      pop\n      pop\n      swap2\n      pop\n        /* \"1127/TraceAsset.sol\":813:969  function get(string memory hash) public view AccessControl.onlyRole(TRACER) returns(DataStruct.AssetTrace[] memory){... */\n      pop\n      swap2\n      swap1\n      pop\n      jump\t// out\n        /* \"1127/util/AccessControl.sol\":1209:1335  function hasRole(bytes32 role, address member) public view returns (bool) {... */\n    tag_51:\n        /* \"1127/util/AccessControl.sol\":1277:1281  bool */\n      0x00\n        /* \"1127/util/AccessControl.sol\":1300:1305  roles */\n      dup1\n        /* \"1127/util/AccessControl.sol\":1300:1311  roles[role] */\n      0x00\n        /* \"1127/util/AccessControl.sol\":1306:1310  role */\n      dup5\n        /* \"1127/util/AccessControl.sol\":1300:1311  roles[role] */\n      dup2\n      mstore\n      0x20\n      add\n      swap1\n      dup2\n      mstore\n      0x20\n      add\n      0x00\n      keccak256\n        /* \"1127/util/AccessControl.sol\":1300:1320  roles[role].hasRoles */\n      0x00\n      add\n        /* \"1127/util/AccessControl.sol\":1300:1328  roles[role].hasRoles[member] */\n      0x00\n        /* \"1127/util/AccessControl.sol\":1321:1327  member */\n      dup4\n        /* \"1127/util/AccessControl.sol\":1300:1328  roles[role].hasRoles[member] */\n      0xffffffffffffffffffffffffffffffffffffffff\n      and\n      0xffffffffffffffffffffffffffffffffffffffff\n      and\n      dup2\n      mstore\n      0x20\n      add\n      swap1\n      dup2\n      mstore\n      0x20\n      add\n      0x00\n      keccak256\n      0x00\n      swap1\n      sload\n      swap1\n      0x0100\n      exp\n      swap1\n      div\n      0xff\n      and\n        /* \"1127/util/AccessControl.sol\":1293:1328  return roles[role].hasRoles[member] */\n      swap1\n      pop\n        /* \"1127/util/AccessControl.sol\":1209:1335  function hasRole(bytes32 role, address member) public view returns (bool) {... */\n      swap3\n      swap2\n      pop\n      pop\n      jump\t// out\n        /* \"1127/util/AccessControl.sol\":206:250  bytes32 public constant DEFAULT_ADMIN = 0x00 */\n    tag_54:\n        /* \"1127/util/AccessControl.sol\":246:250  0x00 */\n      0x00\n        /* \"1127/util/AccessControl.sol\":206:250  bytes32 public constant DEFAULT_ADMIN = 0x00 */\n      dup1\n      shl\n      dup2\n      jump\t// out\n        /* \"1127/TraceAsset.sol\":524:641  function setTraceRight(address getter) public AccessControl.onlyRole(ADMIN){... */\n    tag_59:\n        /* \"1127/TraceAsset.sol\":205:209  0x00 */\n      0x00\n        /* \"1127/TraceAsset.sol\":593:598  ADMIN */\n      dup1\n      shl\n        /* \"1127/util/AccessControl.sol\":856:871  checkRole(role) */\n      tag_126\n        /* \"1127/util/AccessControl.sol\":866:870  role */\n      dup2\n        /* \"1127/util/AccessControl.sol\":856:865  checkRole */\n      tag_62\n        /* \"1127/util/AccessControl.sol\":856:871  checkRole(role) */\n      jump\t// in\n    tag_126:\n      pop\n        /* \"1127/TraceAsset.sol\":609:633  grantRole(TRACER,getter) */\n      tag_128\n        /* \"1127/TraceAsset.sol\":249:268  keccak256(\"Tracer\") */\n      0xde578090ec646877a6b707d83ea8139dac8a43d4dea437aa209801b10c1b26b5\n        /* \"1127/TraceAsset.sol\":626:632  getter */\n      dup4\n        /* \"1127/TraceAsset.sol\":609:618  grantRole */\n      tag_38\n        /* \"1127/TraceAsset.sol\":609:633  grantRole(TRACER,getter) */\n      jump\t// in\n    tag_128:\n      pop\n        /* \"1127/TraceAsset.sol\":524:641  function setTraceRight(address getter) public AccessControl.onlyRole(ADMIN){... */\n      pop\n      pop\n      jump\t// out\n        /* \"1127/util/AccessControl.sol\":1011:1194  function checkRole(bytes32 role) public view returns (bool) {... */\n    tag_62:\n        /* \"1127/util/AccessControl.sol\":1065:1069  bool */\n      0x00\n        /* \"1127/util/AccessControl.sol\":1086:1111  hasRole(role, msg.sender) */\n      tag_130\n        /* \"1127/util/AccessControl.sol\":1094:1098  role */\n      dup3\n        /* \"1127/util/AccessControl.sol\":1100:1110  msg.sender */\n      caller\n        /* \"1127/util/AccessControl.sol\":1086:1093  hasRole */\n      tag_51\n        /* \"1127/util/AccessControl.sol\":1086:1111  hasRole(role, msg.sender) */\n      jump\t// in\n    tag_130:\n        /* \"1127/util/AccessControl.sol\":1081:1167  if (!hasRole(role, msg.sender)) {... */\n      tag_131\n      jumpi\n        /* \"1127/util/AccessControl.sol\":1127:1156  revert(\"UnAuthorizedAccount\") */\n      mload(0x40)\n      0x08c379a000000000000000000000000000000000000000000000000000000000\n      dup2\n      mstore\n      0x04\n      add\n      tag_132\n      swap1\n      tag_133\n      jump\t// in\n    tag_132:\n      mload(0x40)\n      dup1\n      swap2\n      sub\n      swap1\n      revert\n        /* \"1127/util/AccessControl.sol\":1081:1167  if (!hasRole(role, msg.sender)) {... */\n    tag_131:\n        /* \"1127/util/AccessControl.sol\":1183:1187  true */\n      0x01\n        /* \"1127/util/AccessControl.sol\":1176:1187  return true */\n      swap1\n      pop\n        /* \"1127/util/AccessControl.sol\":1011:1194  function checkRole(bytes32 role) public view returns (bool) {... */\n      swap2\n      swap1\n      pop\n      jump\t// out\n        /* \"1127/util/AccessControl.sol\":2161:2490  function revokeRole(bytes32 role, address member)... */\n    tag_66:\n        /* \"1127/util/AccessControl.sol\":2280:2284  bool */\n      0x00\n        /* \"1127/util/AccessControl.sol\":2243:2261  getRoleAdmin(role) */\n      tag_134\n        /* \"1127/util/AccessControl.sol\":2256:2260  role */\n      dup4\n        /* \"1127/util/AccessControl.sol\":2243:2255  getRoleAdmin */\n      tag_29\n        /* \"1127/util/AccessControl.sol\":2243:2261  getRoleAdmin(role) */\n      jump\t// in\n    tag_134:\n        /* \"1127/util/AccessControl.sol\":856:871  checkRole(role) */\n      tag_136\n        /* \"1127/util/AccessControl.sol\":866:870  role */\n      dup2\n        /* \"1127/util/AccessControl.sol\":856:865  checkRole */\n      tag_62\n        /* \"1127/util/AccessControl.sol\":856:871  checkRole(role) */\n      jump\t// in\n    tag_136:\n      pop\n        /* \"1127/util/AccessControl.sol\":2305:2326  hasRole(role, member) */\n      tag_138\n        /* \"1127/util/AccessControl.sol\":2313:2317  role */\n      dup5\n        /* \"1127/util/AccessControl.sol\":2319:2325  member */\n      dup5\n        /* \"1127/util/AccessControl.sol\":2305:2312  hasRole */\n      tag_51\n        /* \"1127/util/AccessControl.sol\":2305:2326  hasRole(role, member) */\n      jump\t// in\n    tag_138:\n        /* \"1127/util/AccessControl.sol\":2300:2365  if (!hasRole(role, member)) {... */\n      tag_139\n      jumpi\n        /* \"1127/util/AccessControl.sol\":2349:2354  false */\n      0x00\n        /* \"1127/util/AccessControl.sol\":2342:2354  return false */\n      swap2\n      pop\n      jump(tag_137)\n        /* \"1127/util/AccessControl.sol\":2300:2365  if (!hasRole(role, member)) {... */\n    tag_139:\n        /* \"1127/util/AccessControl.sol\":2405:2410  false */\n      0x00\n        /* \"1127/util/AccessControl.sol\":2374:2379  roles */\n      dup1\n        /* \"1127/util/AccessControl.sol\":2374:2385  roles[role] */\n      0x00\n        /* \"1127/util/AccessControl.sol\":2380:2384  role */\n      dup7\n        /* \"1127/util/AccessControl.sol\":2374:2385  roles[role] */\n      dup2\n      mstore\n      0x20\n      add\n      swap1\n      dup2\n      mstore\n      0x20\n      add\n      0x00\n      keccak256\n        /* \"1127/util/AccessControl.sol\":2374:2394  roles[role].hasRoles */\n      0x00\n      add\n        /* \"1127/util/AccessControl.sol\":2374:2402  roles[role].hasRoles[member] */\n      0x00\n        /* \"1127/util/AccessControl.sol\":2395:2401  member */\n      dup6\n        /* \"1127/util/AccessControl.sol\":2374:2402  roles[role].hasRoles[member] */\n      0xffffffffffffffffffffffffffffffffffffffff\n      and\n      0xffffffffffffffffffffffffffffffffffffffff\n      and\n      dup2\n      mstore\n      0x20\n      add\n      swap1\n      dup2\n      mstore\n      0x20\n      add\n      0x00\n      keccak256\n      0x00\n        /* \"1127/util/AccessControl.sol\":2374:2410  roles[role].hasRoles[member] = false */\n      0x0100\n      exp\n      dup2\n      sload\n      dup2\n      0xff\n      mul\n      not\n      and\n      swap1\n      dup4\n      iszero\n      iszero\n      mul\n      or\n      swap1\n      sstore\n      pop\n        /* \"1127/util/AccessControl.sol\":2451:2461  msg.sender */\n      caller\n        /* \"1127/util/AccessControl.sol\":2425:2462  RoleRevoked(role, member, msg.sender) */\n      0xffffffffffffffffffffffffffffffffffffffff\n      and\n        /* \"1127/util/AccessControl.sol\":2443:2449  member */\n      dup4\n        /* \"1127/util/AccessControl.sol\":2425:2462  RoleRevoked(role, member, msg.sender) */\n      0xffffffffffffffffffffffffffffffffffffffff\n      and\n        /* \"1127/util/AccessControl.sol\":2437:2441  role */\n      dup6\n        /* \"1127/util/AccessControl.sol\":2425:2462  RoleRevoked(role, member, msg.sender) */\n      0xf6391f5c32d9c69d2a47ea670b442974b53935d1edc7fd64eb21e047a839171b\n      mload(0x40)\n      mload(0x40)\n      dup1\n      swap2\n      sub\n      swap1\n      log4\n        /* \"1127/util/AccessControl.sol\":2479:2483  true */\n      0x01\n        /* \"1127/util/AccessControl.sol\":2472:2483  return true */\n      swap2\n      pop\n        /* \"1127/util/AccessControl.sol\":881:882  _ */\n    tag_137:\n        /* \"1127/util/AccessControl.sol\":2161:2490  function revokeRole(bytes32 role, address member)... */\n      pop\n      swap3\n      swap2\n      pop\n      pop\n      jump\t// out\n    tag_75:\n      dup3\n      dup1\n      sload\n      tag_140\n      swap1\n      tag_85\n      jump\t// in\n    tag_140:\n      swap1\n      0x00\n      mstore\n      keccak256(0x00, 0x20)\n      swap1\n      0x1f\n      add\n      0x20\n      swap1\n      div\n      dup2\n      add\n      swap3\n      dup3\n      tag_142\n      jumpi\n      0x00\n      dup6\n      sstore\n      jump(tag_141)\n    tag_142:\n      dup3\n      0x1f\n      lt\n      tag_143\n      jumpi\n      dup1\n      mload\n      not(0xff)\n      and\n      dup4\n      dup1\n      add\n      or\n      dup6\n      sstore\n      jump(tag_141)\n    tag_143:\n      dup3\n      dup1\n      add\n      0x01\n      add\n      dup6\n      sstore\n      dup3\n      iszero\n      tag_141\n      jumpi\n      swap2\n      dup3\n      add\n    tag_144:\n      dup3\n      dup2\n      gt\n      iszero\n      tag_145\n      jumpi\n      dup3\n      mload\n      dup3\n      sstore\n      swap2\n      0x20\n      add\n      swap2\n      swap1\n      0x01\n      add\n      swap1\n      jump(tag_144)\n    tag_145:\n    tag_141:\n      pop\n      swap1\n      pop\n      tag_146\n      swap2\n      swap1\n      tag_147\n      jump\t// in\n    tag_146:\n      pop\n      swap1\n      jump\t// out\n    tag_147:\n    tag_148:\n      dup1\n      dup3\n      gt\n      iszero\n      tag_149\n      jumpi\n      0x00\n      dup2\n      0x00\n      swap1\n      sstore\n      pop\n      0x01\n      add\n      jump(tag_148)\n    tag_149:\n      pop\n      swap1\n      jump\t// out\n        /* \"#utility.yul\":7:82   */\n    tag_150:\n        /* \"#utility.yul\":40:46   */\n      0x00\n        /* \"#utility.yul\":73:75   */\n      0x40\n        /* \"#utility.yul\":67:76   */\n      mload\n        /* \"#utility.yul\":57:76   */\n      swap1\n      pop\n        /* \"#utility.yul\":7:82   */\n      swap1\n      jump\t// out\n        /* \"#utility.yul\":88:205   */\n    tag_151:\n        /* \"#utility.yul\":197:198   */\n      0x00\n        /* \"#utility.yul\":194:195   */\n      dup1\n        /* \"#utility.yul\":187:199   */\n      revert\n        /* \"#utility.yul\":211:328   */\n    tag_152:\n        /* \"#utility.yul\":320:321   */\n      0x00\n        /* \"#utility.yul\":317:318   */\n      dup1\n        /* \"#utility.yul\":310:322   */\n      revert\n        /* \"#utility.yul\":334:451   */\n    tag_153:\n        /* \"#utility.yul\":443:444   */\n      0x00\n        /* \"#utility.yul\":440:441   */\n      dup1\n        /* \"#utility.yul\":433:445   */\n      revert\n        /* \"#utility.yul\":457:574   */\n    tag_154:\n        /* \"#utility.yul\":566:567   */\n      0x00\n        /* \"#utility.yul\":563:564   */\n      dup1\n        /* \"#utility.yul\":556:568   */\n      revert\n        /* \"#utility.yul\":580:682   */\n    tag_155:\n        /* \"#utility.yul\":621:627   */\n      0x00\n        /* \"#utility.yul\":672:674   */\n      0x1f\n        /* \"#utility.yul\":668:675   */\n      not\n        /* \"#utility.yul\":663:665   */\n      0x1f\n        /* \"#utility.yul\":656:661   */\n      dup4\n        /* \"#utility.yul\":652:666   */\n      add\n        /* \"#utility.yul\":648:676   */\n      and\n        /* \"#utility.yul\":638:676   */\n      swap1\n      pop\n        /* \"#utility.yul\":580:682   */\n      swap2\n      swap1\n      pop\n      jump\t// out\n        /* \"#utility.yul\":688:868   */\n    tag_156:\n        /* \"#utility.yul\":736:813   */\n      0x4e487b7100000000000000000000000000000000000000000000000000000000\n        /* \"#utility.yul\":733:734   */\n      0x00\n        /* \"#utility.yul\":726:814   */\n      mstore\n        /* \"#utility.yul\":833:837   */\n      0x41\n        /* \"#utility.yul\":830:831   */\n      0x04\n        /* \"#utility.yul\":823:838   */\n      mstore\n        /* \"#utility.yul\":857:861   */\n      0x24\n        /* \"#utility.yul\":854:855   */\n      0x00\n        /* \"#utility.yul\":847:862   */\n      revert\n        /* \"#utility.yul\":874:1155   */\n    tag_157:\n        /* \"#utility.yul\":957:984   */\n      tag_214\n        /* \"#utility.yul\":979:983   */\n      dup3\n        /* \"#utility.yul\":957:984   */\n      tag_155\n      jump\t// in\n    tag_214:\n        /* \"#utility.yul\":949:955   */\n      dup2\n        /* \"#utility.yul\":945:985   */\n      add\n        /* \"#utility.yul\":1087:1093   */\n      dup2\n        /* \"#utility.yul\":1075:1085   */\n      dup2\n        /* \"#utility.yul\":1072:1094   */\n      lt\n        /* \"#utility.yul\":1051:1069   */\n      0xffffffffffffffff\n        /* \"#utility.yul\":1039:1049   */\n      dup3\n        /* \"#utility.yul\":1036:1070   */\n      gt\n        /* \"#utility.yul\":1033:1095   */\n      or\n        /* \"#utility.yul\":1030:1118   */\n      iszero\n      tag_215\n      jumpi\n        /* \"#utility.yul\":1098:1116   */\n      tag_216\n      tag_156\n      jump\t// in\n    tag_216:\n        /* \"#utility.yul\":1030:1118   */\n    tag_215:\n        /* \"#utility.yul\":1138:1148   */\n      dup1\n        /* \"#utility.yul\":1134:1136   */\n      0x40\n        /* \"#utility.yul\":1127:1149   */\n      mstore\n        /* \"#utility.yul\":917:1155   */\n      pop\n        /* \"#utility.yul\":874:1155   */\n      pop\n      pop\n      jump\t// out\n        /* \"#utility.yul\":1161:1290   */\n    tag_158:\n        /* \"#utility.yul\":1195:1201   */\n      0x00\n        /* \"#utility.yul\":1222:1242   */\n      tag_218\n      tag_150\n      jump\t// in\n    tag_218:\n        /* \"#utility.yul\":1212:1242   */\n      swap1\n      pop\n        /* \"#utility.yul\":1251:1284   */\n      tag_219\n        /* \"#utility.yul\":1279:1283   */\n      dup3\n        /* \"#utility.yul\":1271:1277   */\n      dup3\n        /* \"#utility.yul\":1251:1284   */\n      tag_157\n      jump\t// in\n    tag_219:\n        /* \"#utility.yul\":1161:1290   */\n      swap2\n      swap1\n      pop\n      jump\t// out\n        /* \"#utility.yul\":1296:1604   */\n    tag_159:\n        /* \"#utility.yul\":1358:1362   */\n      0x00\n        /* \"#utility.yul\":1448:1466   */\n      0xffffffffffffffff\n        /* \"#utility.yul\":1440:1446   */\n      dup3\n        /* \"#utility.yul\":1437:1467   */\n      gt\n        /* \"#utility.yul\":1434:1490   */\n      iszero\n      tag_221\n      jumpi\n        /* \"#utility.yul\":1470:1488   */\n      tag_222\n      tag_156\n      jump\t// in\n    tag_222:\n        /* \"#utility.yul\":1434:1490   */\n    tag_221:\n        /* \"#utility.yul\":1508:1537   */\n      tag_223\n        /* \"#utility.yul\":1530:1536   */\n      dup3\n        /* \"#utility.yul\":1508:1537   */\n      tag_155\n      jump\t// in\n    tag_223:\n        /* \"#utility.yul\":1500:1537   */\n      swap1\n      pop\n        /* \"#utility.yul\":1592:1596   */\n      0x20\n        /* \"#utility.yul\":1586:1590   */\n      dup2\n        /* \"#utility.yul\":1582:1597   */\n      add\n        /* \"#utility.yul\":1574:1597   */\n      swap1\n      pop\n        /* \"#utility.yul\":1296:1604   */\n      swap2\n      swap1\n      pop\n      jump\t// out\n        /* \"#utility.yul\":1610:1764   */\n    tag_160:\n        /* \"#utility.yul\":1694:1700   */\n      dup3\n        /* \"#utility.yul\":1689:1692   */\n      dup2\n        /* \"#utility.yul\":1684:1687   */\n      dup4\n        /* \"#utility.yul\":1671:1701   */\n      calldatacopy\n        /* \"#utility.yul\":1756:1757   */\n      0x00\n        /* \"#utility.yul\":1747:1753   */\n      dup4\n        /* \"#utility.yul\":1742:1745   */\n      dup4\n        /* \"#utility.yul\":1738:1754   */\n      add\n        /* \"#utility.yul\":1731:1758   */\n      mstore\n        /* \"#utility.yul\":1610:1764   */\n      pop\n      pop\n      pop\n      jump\t// out\n        /* \"#utility.yul\":1770:2182   */\n    tag_161:\n        /* \"#utility.yul\":1848:1853   */\n      0x00\n        /* \"#utility.yul\":1873:1939   */\n      tag_226\n        /* \"#utility.yul\":1889:1938   */\n      tag_227\n        /* \"#utility.yul\":1931:1937   */\n      dup5\n        /* \"#utility.yul\":1889:1938   */\n      tag_159\n      jump\t// in\n    tag_227:\n        /* \"#utility.yul\":1873:1939   */\n      tag_158\n      jump\t// in\n    tag_226:\n        /* \"#utility.yul\":1864:1939   */\n      swap1\n      pop\n        /* \"#utility.yul\":1962:1968   */\n      dup3\n        /* \"#utility.yul\":1955:1960   */\n      dup2\n        /* \"#utility.yul\":1948:1969   */\n      mstore\n        /* \"#utility.yul\":2000:2004   */\n      0x20\n        /* \"#utility.yul\":1993:1998   */\n      dup2\n        /* \"#utility.yul\":1989:2005   */\n      add\n        /* \"#utility.yul\":2038:2041   */\n      dup5\n        /* \"#utility.yul\":2029:2035   */\n      dup5\n        /* \"#utility.yul\":2024:2027   */\n      dup5\n        /* \"#utility.yul\":2020:2036   */\n      add\n        /* \"#utility.yul\":2017:2042   */\n      gt\n        /* \"#utility.yul\":2014:2126   */\n      iszero\n      tag_228\n      jumpi\n        /* \"#utility.yul\":2045:2124   */\n      tag_229\n      tag_154\n      jump\t// in\n    tag_229:\n        /* \"#utility.yul\":2014:2126   */\n    tag_228:\n        /* \"#utility.yul\":2135:2176   */\n      tag_230\n        /* \"#utility.yul\":2169:2175   */\n      dup5\n        /* \"#utility.yul\":2164:2167   */\n      dup3\n        /* \"#utility.yul\":2159:2162   */\n      dup6\n        /* \"#utility.yul\":2135:2176   */\n      tag_160\n      jump\t// in\n    tag_230:\n        /* \"#utility.yul\":1854:2182   */\n      pop\n        /* \"#utility.yul\":1770:2182   */\n      swap4\n      swap3\n      pop\n      pop\n      pop\n      jump\t// out\n        /* \"#utility.yul\":2202:2542   */\n    tag_162:\n        /* \"#utility.yul\":2258:2263   */\n      0x00\n        /* \"#utility.yul\":2307:2310   */\n      dup3\n        /* \"#utility.yul\":2300:2304   */\n      0x1f\n        /* \"#utility.yul\":2292:2298   */\n      dup4\n        /* \"#utility.yul\":2288:2305   */\n      add\n        /* \"#utility.yul\":2284:2311   */\n      slt\n        /* \"#utility.yul\":2274:2396   */\n      tag_232\n      jumpi\n        /* \"#utility.yul\":2315:2394   */\n      tag_233\n      tag_153\n      jump\t// in\n    tag_233:\n        /* \"#utility.yul\":2274:2396   */\n    tag_232:\n        /* \"#utility.yul\":2432:2438   */\n      dup2\n        /* \"#utility.yul\":2419:2439   */\n      calldataload\n        /* \"#utility.yul\":2457:2536   */\n      tag_234\n        /* \"#utility.yul\":2532:2535   */\n      dup5\n        /* \"#utility.yul\":2524:2530   */\n      dup3\n        /* \"#utility.yul\":2517:2521   */\n      0x20\n        /* \"#utility.yul\":2509:2515   */\n      dup7\n        /* \"#utility.yul\":2505:2522   */\n      add\n        /* \"#utility.yul\":2457:2536   */\n      tag_161\n      jump\t// in\n    tag_234:\n        /* \"#utility.yul\":2448:2536   */\n      swap2\n      pop\n        /* \"#utility.yul\":2264:2542   */\n      pop\n        /* \"#utility.yul\":2202:2542   */\n      swap3\n      swap2\n      pop\n      pop\n      jump\t// out\n        /* \"#utility.yul\":2548:2665   */\n    tag_163:\n        /* \"#utility.yul\":2657:2658   */\n      0x00\n        /* \"#utility.yul\":2654:2655   */\n      dup1\n        /* \"#utility.yul\":2647:2659   */\n      revert\n        /* \"#utility.yul\":2671:2788   */\n    tag_164:\n        /* \"#utility.yul\":2780:2781   */\n      0x00\n        /* \"#utility.yul\":2777:2778   */\n      dup1\n        /* \"#utility.yul\":2770:2782   */\n      revert\n        /* \"#utility.yul\":2794:2871   */\n    tag_165:\n        /* \"#utility.yul\":2831:2838   */\n      0x00\n        /* \"#utility.yul\":2860:2865   */\n      dup2\n        /* \"#utility.yul\":2849:2865   */\n      swap1\n      pop\n        /* \"#utility.yul\":2794:2871   */\n      swap2\n      swap1\n      pop\n      jump\t// out\n        /* \"#utility.yul\":2877:2999   */\n    tag_166:\n        /* \"#utility.yul\":2950:2974   */\n      tag_239\n        /* \"#utility.yul\":2968:2973   */\n      dup2\n        /* \"#utility.yul\":2950:2974   */\n      tag_165\n      jump\t// in\n    tag_239:\n        /* \"#utility.yul\":2943:2948   */\n      dup2\n        /* \"#utility.yul\":2940:2975   */\n      eq\n        /* \"#utility.yul\":2930:2993   */\n      tag_240\n      jumpi\n        /* \"#utility.yul\":2989:2990   */\n      0x00\n        /* \"#utility.yul\":2986:2987   */\n      dup1\n        /* \"#utility.yul\":2979:2991   */\n      revert\n        /* \"#utility.yul\":2930:2993   */\n    tag_240:\n        /* \"#utility.yul\":2877:2999   */\n      pop\n      jump\t// out\n        /* \"#utility.yul\":3005:3144   */\n    tag_167:\n        /* \"#utility.yul\":3051:3056   */\n      0x00\n        /* \"#utility.yul\":3089:3095   */\n      dup2\n        /* \"#utility.yul\":3076:3096   */\n      calldataload\n        /* \"#utility.yul\":3067:3096   */\n      swap1\n      pop\n        /* \"#utility.yul\":3105:3138   */\n      tag_242\n        /* \"#utility.yul\":3132:3137   */\n      dup2\n        /* \"#utility.yul\":3105:3138   */\n      tag_166\n      jump\t// in\n    tag_242:\n        /* \"#utility.yul\":3005:3144   */\n      swap3\n      swap2\n      pop\n      pop\n      jump\t// out\n        /* \"#utility.yul\":3150:3276   */\n    tag_168:\n        /* \"#utility.yul\":3187:3194   */\n      0x00\n        /* \"#utility.yul\":3227:3269   */\n      0xffffffffffffffffffffffffffffffffffffffff\n        /* \"#utility.yul\":3220:3225   */\n      dup3\n        /* \"#utility.yul\":3216:3270   */\n      and\n        /* \"#utility.yul\":3205:3270   */\n      swap1\n      pop\n        /* \"#utility.yul\":3150:3276   */\n      swap2\n      swap1\n      pop\n      jump\t// out\n        /* \"#utility.yul\":3282:3378   */\n    tag_169:\n        /* \"#utility.yul\":3319:3326   */\n      0x00\n        /* \"#utility.yul\":3348:3372   */\n      tag_245\n        /* \"#utility.yul\":3366:3371   */\n      dup3\n        /* \"#utility.yul\":3348:3372   */\n      tag_168\n      jump\t// in\n    tag_245:\n        /* \"#utility.yul\":3337:3372   */\n      swap1\n      pop\n        /* \"#utility.yul\":3282:3378   */\n      swap2\n      swap1\n      pop\n      jump\t// out\n        /* \"#utility.yul\":3384:3506   */\n    tag_170:\n        /* \"#utility.yul\":3457:3481   */\n      tag_247\n        /* \"#utility.yul\":3475:3480   */\n      dup2\n        /* \"#utility.yul\":3457:3481   */\n      tag_169\n      jump\t// in\n    tag_247:\n        /* \"#utility.yul\":3450:3455   */\n      dup2\n        /* \"#utility.yul\":3447:3482   */\n      eq\n        /* \"#utility.yul\":3437:3500   */\n      tag_248\n      jumpi\n        /* \"#utility.yul\":3496:3497   */\n      0x00\n        /* \"#utility.yul\":3493:3494   */\n      dup1\n        /* \"#utility.yul\":3486:3498   */\n      revert\n        /* \"#utility.yul\":3437:3500   */\n    tag_248:\n        /* \"#utility.yul\":3384:3506   */\n      pop\n      jump\t// out\n        /* \"#utility.yul\":3512:3651   */\n    tag_171:\n        /* \"#utility.yul\":3558:3563   */\n      0x00\n        /* \"#utility.yul\":3596:3602   */\n      dup2\n        /* \"#utility.yul\":3583:3603   */\n      calldataload\n        /* \"#utility.yul\":3574:3603   */\n      swap1\n      pop\n        /* \"#utility.yul\":3612:3645   */\n      tag_250\n        /* \"#utility.yul\":3639:3644   */\n      dup2\n        /* \"#utility.yul\":3612:3645   */\n      tag_170\n      jump\t// in\n    tag_250:\n        /* \"#utility.yul\":3512:3651   */\n      swap3\n      swap2\n      pop\n      pop\n      jump\t// out\n        /* \"#utility.yul\":3657:3747   */\n    tag_172:\n        /* \"#utility.yul\":3691:3698   */\n      0x00\n        /* \"#utility.yul\":3734:3739   */\n      dup2\n        /* \"#utility.yul\":3727:3740   */\n      iszero\n        /* \"#utility.yul\":3720:3741   */\n      iszero\n        /* \"#utility.yul\":3709:3741   */\n      swap1\n      pop\n        /* \"#utility.yul\":3657:3747   */\n      swap2\n      swap1\n      pop\n      jump\t// out\n        /* \"#utility.yul\":3753:3869   */\n    tag_173:\n        /* \"#utility.yul\":3823:3844   */\n      tag_253\n        /* \"#utility.yul\":3838:3843   */\n      dup2\n        /* \"#utility.yul\":3823:3844   */\n      tag_172\n      jump\t// in\n    tag_253:\n        /* \"#utility.yul\":3816:3821   */\n      dup2\n        /* \"#utility.yul\":3813:3845   */\n      eq\n        /* \"#utility.yul\":3803:3863   */\n      tag_254\n      jumpi\n        /* \"#utility.yul\":3859:3860   */\n      0x00\n        /* \"#utility.yul\":3856:3857   */\n      dup1\n        /* \"#utility.yul\":3849:3861   */\n      revert\n        /* \"#utility.yul\":3803:3863   */\n    tag_254:\n        /* \"#utility.yul\":3753:3869   */\n      pop\n      jump\t// out\n        /* \"#utility.yul\":3875:4008   */\n    tag_174:\n        /* \"#utility.yul\":3918:3923   */\n      0x00\n        /* \"#utility.yul\":3956:3962   */\n      dup2\n        /* \"#utility.yul\":3943:3963   */\n      calldataload\n        /* \"#utility.yul\":3934:3963   */\n      swap1\n      pop\n        /* \"#utility.yul\":3972:4002   */\n      tag_256\n        /* \"#utility.yul\":3996:4001   */\n      dup2\n        /* \"#utility.yul\":3972:4002   */\n      tag_173\n      jump\t// in\n    tag_256:\n        /* \"#utility.yul\":3875:4008   */\n      swap3\n      swap2\n      pop\n      pop\n      jump\t// out\n        /* \"#utility.yul\":4053:5131   */\n    tag_175:\n        /* \"#utility.yul\":4131:4136   */\n      0x00\n        /* \"#utility.yul\":4175:4179   */\n      0x80\n        /* \"#utility.yul\":4163:4172   */\n      dup3\n        /* \"#utility.yul\":4158:4161   */\n      dup5\n        /* \"#utility.yul\":4154:4173   */\n      sub\n        /* \"#utility.yul\":4150:4180   */\n      slt\n        /* \"#utility.yul\":4147:4264   */\n      iszero\n      tag_258\n      jumpi\n        /* \"#utility.yul\":4183:4262   */\n      tag_259\n      tag_163\n      jump\t// in\n    tag_259:\n        /* \"#utility.yul\":4147:4264   */\n    tag_258:\n        /* \"#utility.yul\":4282:4303   */\n      tag_260\n        /* \"#utility.yul\":4298:4302   */\n      0x80\n        /* \"#utility.yul\":4282:4303   */\n      tag_158\n      jump\t// in\n    tag_260:\n        /* \"#utility.yul\":4273:4303   */\n      swap1\n      pop\n        /* \"#utility.yul\":4389:4390   */\n      0x00\n        /* \"#utility.yul\":4378:4387   */\n      dup3\n        /* \"#utility.yul\":4374:4391   */\n      add\n        /* \"#utility.yul\":4361:4392   */\n      calldataload\n        /* \"#utility.yul\":4419:4437   */\n      0xffffffffffffffff\n        /* \"#utility.yul\":4411:4417   */\n      dup2\n        /* \"#utility.yul\":4408:4438   */\n      gt\n        /* \"#utility.yul\":4405:4522   */\n      iszero\n      tag_261\n      jumpi\n        /* \"#utility.yul\":4441:4520   */\n      tag_262\n      tag_164\n      jump\t// in\n    tag_262:\n        /* \"#utility.yul\":4405:4522   */\n    tag_261:\n        /* \"#utility.yul\":4561:4620   */\n      tag_263\n        /* \"#utility.yul\":4616:4619   */\n      dup5\n        /* \"#utility.yul\":4607:4613   */\n      dup3\n        /* \"#utility.yul\":4596:4605   */\n      dup6\n        /* \"#utility.yul\":4592:4614   */\n      add\n        /* \"#utility.yul\":4561:4620   */\n      tag_162\n      jump\t// in\n    tag_263:\n        /* \"#utility.yul\":4554:4558   */\n      0x00\n        /* \"#utility.yul\":4547:4552   */\n      dup4\n        /* \"#utility.yul\":4543:4559   */\n      add\n        /* \"#utility.yul\":4536:4621   */\n      mstore\n        /* \"#utility.yul\":4313:4632   */\n      pop\n        /* \"#utility.yul\":4696:4698   */\n      0x20\n        /* \"#utility.yul\":4737:4786   */\n      tag_264\n        /* \"#utility.yul\":4782:4785   */\n      dup5\n        /* \"#utility.yul\":4773:4779   */\n      dup3\n        /* \"#utility.yul\":4762:4771   */\n      dup6\n        /* \"#utility.yul\":4758:4780   */\n      add\n        /* \"#utility.yul\":4737:4786   */\n      tag_167\n      jump\t// in\n    tag_264:\n        /* \"#utility.yul\":4730:4734   */\n      0x20\n        /* \"#utility.yul\":4723:4728   */\n      dup4\n        /* \"#utility.yul\":4719:4735   */\n      add\n        /* \"#utility.yul\":4712:4787   */\n      mstore\n        /* \"#utility.yul\":4642:4798   */\n      pop\n        /* \"#utility.yul\":4860:4862   */\n      0x40\n        /* \"#utility.yul\":4901:4950   */\n      tag_265\n        /* \"#utility.yul\":4946:4949   */\n      dup5\n        /* \"#utility.yul\":4937:4943   */\n      dup3\n        /* \"#utility.yul\":4926:4935   */\n      dup6\n        /* \"#utility.yul\":4922:4944   */\n      add\n        /* \"#utility.yul\":4901:4950   */\n      tag_171\n      jump\t// in\n    tag_265:\n        /* \"#utility.yul\":4894:4898   */\n      0x40\n        /* \"#utility.yul\":4887:4892   */\n      dup4\n        /* \"#utility.yul\":4883:4899   */\n      add\n        /* \"#utility.yul\":4876:4951   */\n      mstore\n        /* \"#utility.yul\":4808:4962   */\n      pop\n        /* \"#utility.yul\":5025:5027   */\n      0x60\n        /* \"#utility.yul\":5066:5112   */\n      tag_266\n        /* \"#utility.yul\":5108:5111   */\n      dup5\n        /* \"#utility.yul\":5099:5105   */\n      dup3\n        /* \"#utility.yul\":5088:5097   */\n      dup6\n        /* \"#utility.yul\":5084:5106   */\n      add\n        /* \"#utility.yul\":5066:5112   */\n      tag_174\n      jump\t// in\n    tag_266:\n        /* \"#utility.yul\":5059:5063   */\n      0x60\n        /* \"#utility.yul\":5052:5057   */\n      dup4\n        /* \"#utility.yul\":5048:5064   */\n      add\n        /* \"#utility.yul\":5041:5113   */\n      mstore\n        /* \"#utility.yul\":4972:5124   */\n      pop\n        /* \"#utility.yul\":4053:5131   */\n      swap3\n      swap2\n      pop\n      pop\n      jump\t// out\n        /* \"#utility.yul\":5173:6282   */\n    tag_176:\n        /* \"#utility.yul\":5248:5253   */\n      0x00\n        /* \"#utility.yul\":5292:5296   */\n      0x60\n        /* \"#utility.yul\":5280:5289   */\n      dup3\n        /* \"#utility.yul\":5275:5278   */\n      dup5\n        /* \"#utility.yul\":5271:5290   */\n      sub\n        /* \"#utility.yul\":5267:5297   */\n      slt\n        /* \"#utility.yul\":5264:5381   */\n      iszero\n      tag_268\n      jumpi\n        /* \"#utility.yul\":5300:5379   */\n      tag_269\n      tag_163\n      jump\t// in\n    tag_269:\n        /* \"#utility.yul\":5264:5381   */\n    tag_268:\n        /* \"#utility.yul\":5399:5420   */\n      tag_270\n        /* \"#utility.yul\":5415:5419   */\n      0x60\n        /* \"#utility.yul\":5399:5420   */\n      tag_158\n      jump\t// in\n    tag_270:\n        /* \"#utility.yul\":5390:5420   */\n      swap1\n      pop\n        /* \"#utility.yul\":5508:5509   */\n      0x00\n        /* \"#utility.yul\":5497:5506   */\n      dup3\n        /* \"#utility.yul\":5493:5510   */\n      add\n        /* \"#utility.yul\":5480:5511   */\n      calldataload\n        /* \"#utility.yul\":5538:5556   */\n      0xffffffffffffffff\n        /* \"#utility.yul\":5530:5536   */\n      dup2\n        /* \"#utility.yul\":5527:5557   */\n      gt\n        /* \"#utility.yul\":5524:5641   */\n      iszero\n      tag_271\n      jumpi\n        /* \"#utility.yul\":5560:5639   */\n      tag_272\n      tag_164\n      jump\t// in\n    tag_272:\n        /* \"#utility.yul\":5524:5641   */\n    tag_271:\n        /* \"#utility.yul\":5680:5758   */\n      tag_273\n        /* \"#utility.yul\":5754:5757   */\n      dup5\n        /* \"#utility.yul\":5745:5751   */\n      dup3\n        /* \"#utility.yul\":5734:5743   */\n      dup6\n        /* \"#utility.yul\":5730:5752   */\n      add\n        /* \"#utility.yul\":5680:5758   */\n      tag_175\n      jump\t// in\n    tag_273:\n        /* \"#utility.yul\":5673:5677   */\n      0x00\n        /* \"#utility.yul\":5666:5671   */\n      dup4\n        /* \"#utility.yul\":5662:5678   */\n      add\n        /* \"#utility.yul\":5655:5759   */\n      mstore\n        /* \"#utility.yul\":5430:5770   */\n      pop\n        /* \"#utility.yul\":5836:5838   */\n      0x20\n        /* \"#utility.yul\":5877:5926   */\n      tag_274\n        /* \"#utility.yul\":5922:5925   */\n      dup5\n        /* \"#utility.yul\":5913:5919   */\n      dup3\n        /* \"#utility.yul\":5902:5911   */\n      dup6\n        /* \"#utility.yul\":5898:5920   */\n      add\n        /* \"#utility.yul\":5877:5926   */\n      tag_167\n      jump\t// in\n    tag_274:\n        /* \"#utility.yul\":5870:5874   */\n      0x20\n        /* \"#utility.yul\":5863:5868   */\n      dup4\n        /* \"#utility.yul\":5859:5875   */\n      add\n        /* \"#utility.yul\":5852:5927   */\n      mstore\n        /* \"#utility.yul\":5780:5938   */\n      pop\n        /* \"#utility.yul\":6031:6033   */\n      0x40\n        /* \"#utility.yul\":6020:6029   */\n      dup3\n        /* \"#utility.yul\":6016:6034   */\n      add\n        /* \"#utility.yul\":6003:6035   */\n      calldataload\n        /* \"#utility.yul\":6062:6080   */\n      0xffffffffffffffff\n        /* \"#utility.yul\":6054:6060   */\n      dup2\n        /* \"#utility.yul\":6051:6081   */\n      gt\n        /* \"#utility.yul\":6048:6165   */\n      iszero\n      tag_275\n      jumpi\n        /* \"#utility.yul\":6084:6163   */\n      tag_276\n      tag_164\n      jump\t// in\n    tag_276:\n        /* \"#utility.yul\":6048:6165   */\n    tag_275:\n        /* \"#utility.yul\":6204:6263   */\n      tag_277\n        /* \"#utility.yul\":6259:6262   */\n      dup5\n        /* \"#utility.yul\":6250:6256   */\n      dup3\n        /* \"#utility.yul\":6239:6248   */\n      dup6\n        /* \"#utility.yul\":6235:6257   */\n      add\n        /* \"#utility.yul\":6204:6263   */\n      tag_162\n      jump\t// in\n    tag_277:\n        /* \"#utility.yul\":6197:6201   */\n      0x40\n        /* \"#utility.yul\":6190:6195   */\n      dup4\n        /* \"#utility.yul\":6186:6202   */\n      add\n        /* \"#utility.yul\":6179:6264   */\n      mstore\n        /* \"#utility.yul\":5948:6275   */\n      pop\n        /* \"#utility.yul\":5173:6282   */\n      swap3\n      swap2\n      pop\n      pop\n      jump\t// out\n        /* \"#utility.yul\":6288:7154   */\n    tag_18:\n        /* \"#utility.yul\":6392:6398   */\n      0x00\n        /* \"#utility.yul\":6400:6406   */\n      dup1\n        /* \"#utility.yul\":6449:6451   */\n      0x40\n        /* \"#utility.yul\":6437:6446   */\n      dup4\n        /* \"#utility.yul\":6428:6435   */\n      dup6\n        /* \"#utility.yul\":6424:6447   */\n      sub\n        /* \"#utility.yul\":6420:6452   */\n      slt\n        /* \"#utility.yul\":6417:6536   */\n      iszero\n      tag_279\n      jumpi\n        /* \"#utility.yul\":6455:6534   */\n      tag_280\n      tag_151\n      jump\t// in\n    tag_280:\n        /* \"#utility.yul\":6417:6536   */\n    tag_279:\n        /* \"#utility.yul\":6603:6604   */\n      0x00\n        /* \"#utility.yul\":6592:6601   */\n      dup4\n        /* \"#utility.yul\":6588:6605   */\n      add\n        /* \"#utility.yul\":6575:6606   */\n      calldataload\n        /* \"#utility.yul\":6633:6651   */\n      0xffffffffffffffff\n        /* \"#utility.yul\":6625:6631   */\n      dup2\n        /* \"#utility.yul\":6622:6652   */\n      gt\n        /* \"#utility.yul\":6619:6736   */\n      iszero\n      tag_281\n      jumpi\n        /* \"#utility.yul\":6655:6734   */\n      tag_282\n      tag_152\n      jump\t// in\n    tag_282:\n        /* \"#utility.yul\":6619:6736   */\n    tag_281:\n        /* \"#utility.yul\":6760:6823   */\n      tag_283\n        /* \"#utility.yul\":6815:6822   */\n      dup6\n        /* \"#utility.yul\":6806:6812   */\n      dup3\n        /* \"#utility.yul\":6795:6804   */\n      dup7\n        /* \"#utility.yul\":6791:6813   */\n      add\n        /* \"#utility.yul\":6760:6823   */\n      tag_162\n      jump\t// in\n    tag_283:\n        /* \"#utility.yul\":6750:6823   */\n      swap3\n      pop\n        /* \"#utility.yul\":6546:6833   */\n      pop\n        /* \"#utility.yul\":6900:6902   */\n      0x20\n        /* \"#utility.yul\":6889:6898   */\n      dup4\n        /* \"#utility.yul\":6885:6903   */\n      add\n        /* \"#utility.yul\":6872:6904   */\n      calldataload\n        /* \"#utility.yul\":6931:6949   */\n      0xffffffffffffffff\n        /* \"#utility.yul\":6923:6929   */\n      dup2\n        /* \"#utility.yul\":6920:6950   */\n      gt\n        /* \"#utility.yul\":6917:7034   */\n      iszero\n      tag_284\n      jumpi\n        /* \"#utility.yul\":6953:7032   */\n      tag_285\n      tag_152\n      jump\t// in\n    tag_285:\n        /* \"#utility.yul\":6917:7034   */\n    tag_284:\n        /* \"#utility.yul\":7058:7137   */\n      tag_286\n        /* \"#utility.yul\":7129:7136   */\n      dup6\n        /* \"#utility.yul\":7120:7126   */\n      dup3\n        /* \"#utility.yul\":7109:7118   */\n      dup7\n        /* \"#utility.yul\":7105:7127   */\n      add\n        /* \"#utility.yul\":7058:7137   */\n      tag_176\n      jump\t// in\n    tag_286:\n        /* \"#utility.yul\":7048:7137   */\n      swap2\n      pop\n        /* \"#utility.yul\":6843:7147   */\n      pop\n        /* \"#utility.yul\":6288:7154   */\n      swap3\n      pop\n      swap3\n      swap1\n      pop\n      jump\t// out\n        /* \"#utility.yul\":7160:7669   */\n    tag_22:\n        /* \"#utility.yul\":7229:7235   */\n      0x00\n        /* \"#utility.yul\":7278:7280   */\n      0x20\n        /* \"#utility.yul\":7266:7275   */\n      dup3\n        /* \"#utility.yul\":7257:7264   */\n      dup5\n        /* \"#utility.yul\":7253:7276   */\n      sub\n        /* \"#utility.yul\":7249:7281   */\n      slt\n        /* \"#utility.yul\":7246:7365   */\n      iszero\n      tag_288\n      jumpi\n        /* \"#utility.yul\":7284:7363   */\n      tag_289\n      tag_151\n      jump\t// in\n    tag_289:\n        /* \"#utility.yul\":7246:7365   */\n    tag_288:\n        /* \"#utility.yul\":7432:7433   */\n      0x00\n        /* \"#utility.yul\":7421:7430   */\n      dup3\n        /* \"#utility.yul\":7417:7434   */\n      add\n        /* \"#utility.yul\":7404:7435   */\n      calldataload\n        /* \"#utility.yul\":7462:7480   */\n      0xffffffffffffffff\n        /* \"#utility.yul\":7454:7460   */\n      dup2\n        /* \"#utility.yul\":7451:7481   */\n      gt\n        /* \"#utility.yul\":7448:7565   */\n      iszero\n      tag_290\n      jumpi\n        /* \"#utility.yul\":7484:7563   */\n      tag_291\n      tag_152\n      jump\t// in\n    tag_291:\n        /* \"#utility.yul\":7448:7565   */\n    tag_290:\n        /* \"#utility.yul\":7589:7652   */\n      tag_292\n        /* \"#utility.yul\":7644:7651   */\n      dup5\n        /* \"#utility.yul\":7635:7641   */\n      dup3\n        /* \"#utility.yul\":7624:7633   */\n      dup6\n        /* \"#utility.yul\":7620:7642   */\n      add\n        /* \"#utility.yul\":7589:7652   */\n      tag_162\n      jump\t// in\n    tag_292:\n        /* \"#utility.yul\":7579:7652   */\n      swap2\n      pop\n        /* \"#utility.yul\":7375:7662   */\n      pop\n        /* \"#utility.yul\":7160:7669   */\n      swap3\n      swap2\n      pop\n      pop\n      jump\t// out\n        /* \"#utility.yul\":7675:7793   */\n    tag_177:\n        /* \"#utility.yul\":7762:7786   */\n      tag_294\n        /* \"#utility.yul\":7780:7785   */\n      dup2\n        /* \"#utility.yul\":7762:7786   */\n      tag_165\n      jump\t// in\n    tag_294:\n        /* \"#utility.yul\":7757:7760   */\n      dup3\n        /* \"#utility.yul\":7750:7787   */\n      mstore\n        /* \"#utility.yul\":7675:7793   */\n      pop\n      pop\n      jump\t// out\n        /* \"#utility.yul\":7799:8021   */\n    tag_25:\n        /* \"#utility.yul\":7892:7896   */\n      0x00\n        /* \"#utility.yul\":7930:7932   */\n      0x20\n        /* \"#utility.yul\":7919:7928   */\n      dup3\n        /* \"#utility.yul\":7915:7933   */\n      add\n        /* \"#utility.yul\":7907:7933   */\n      swap1\n      pop\n        /* \"#utility.yul\":7943:8014   */\n      tag_296\n        /* \"#utility.yul\":8011:8012   */\n      0x00\n        /* \"#utility.yul\":8000:8009   */\n      dup4\n        /* \"#utility.yul\":7996:8013   */\n      add\n        /* \"#utility.yul\":7987:7993   */\n      dup5\n        /* \"#utility.yul\":7943:8014   */\n      tag_177\n      jump\t// in\n    tag_296:\n        /* \"#utility.yul\":7799:8021   */\n      swap3\n      swap2\n      pop\n      pop\n      jump\t// out\n        /* \"#utility.yul\":8027:8104   */\n    tag_178:\n        /* \"#utility.yul\":8064:8071   */\n      0x00\n        /* \"#utility.yul\":8093:8098   */\n      dup2\n        /* \"#utility.yul\":8082:8098   */\n      swap1\n      pop\n        /* \"#utility.yul\":8027:8104   */\n      swap2\n      swap1\n      pop\n      jump\t// out\n        /* \"#utility.yul\":8110:8232   */\n    tag_179:\n        /* \"#utility.yul\":8183:8207   */\n      tag_299\n        /* \"#utility.yul\":8201:8206   */\n      dup2\n        /* \"#utility.yul\":8183:8207   */\n      tag_178\n      jump\t// in\n    tag_299:\n        /* \"#utility.yul\":8176:8181   */\n      dup2\n        /* \"#utility.yul\":8173:8208   */\n      eq\n        /* \"#utility.yul\":8163:8226   */\n      tag_300\n      jumpi\n        /* \"#utility.yul\":8222:8223   */\n      0x00\n        /* \"#utility.yul\":8219:8220   */\n      dup1\n        /* \"#utility.yul\":8212:8224   */\n      revert\n        /* \"#utility.yul\":8163:8226   */\n    tag_300:\n        /* \"#utility.yul\":8110:8232   */\n      pop\n      jump\t// out\n        /* \"#utility.yul\":8238:8377   */\n    tag_180:\n        /* \"#utility.yul\":8284:8289   */\n      0x00\n        /* \"#utility.yul\":8322:8328   */\n      dup2\n        /* \"#utility.yul\":8309:8329   */\n      calldataload\n        /* \"#utility.yul\":8300:8329   */\n      swap1\n      pop\n        /* \"#utility.yul\":8338:8371   */\n      tag_302\n        /* \"#utility.yul\":8365:8370   */\n      dup2\n        /* \"#utility.yul\":8338:8371   */\n      tag_179\n      jump\t// in\n    tag_302:\n        /* \"#utility.yul\":8238:8377   */\n      swap3\n      swap2\n      pop\n      pop\n      jump\t// out\n        /* \"#utility.yul\":8383:8712   */\n    tag_28:\n        /* \"#utility.yul\":8442:8448   */\n      0x00\n        /* \"#utility.yul\":8491:8493   */\n      0x20\n        /* \"#utility.yul\":8479:8488   */\n      dup3\n        /* \"#utility.yul\":8470:8477   */\n      dup5\n        /* \"#utility.yul\":8466:8489   */\n      sub\n        /* \"#utility.yul\":8462:8494   */\n      slt\n        /* \"#utility.yul\":8459:8578   */\n      iszero\n      tag_304\n      jumpi\n        /* \"#utility.yul\":8497:8576   */\n      tag_305\n      tag_151\n      jump\t// in\n    tag_305:\n        /* \"#utility.yul\":8459:8578   */\n    tag_304:\n        /* \"#utility.yul\":8617:8618   */\n      0x00\n        /* \"#utility.yul\":8642:8695   */\n      tag_306\n        /* \"#utility.yul\":8687:8694   */\n      dup5\n        /* \"#utility.yul\":8678:8684   */\n      dup3\n        /* \"#utility.yul\":8667:8676   */\n      dup6\n        /* \"#utility.yul\":8663:8685   */\n      add\n        /* \"#utility.yul\":8642:8695   */\n      tag_180\n      jump\t// in\n    tag_306:\n        /* \"#utility.yul\":8632:8695   */\n      swap2\n      pop\n        /* \"#utility.yul\":8588:8705   */\n      pop\n        /* \"#utility.yul\":8383:8712   */\n      swap3\n      swap2\n      pop\n      pop\n      jump\t// out\n        /* \"#utility.yul\":8718:8836   */\n    tag_181:\n        /* \"#utility.yul\":8805:8829   */\n      tag_308\n        /* \"#utility.yul\":8823:8828   */\n      dup2\n        /* \"#utility.yul\":8805:8829   */\n      tag_178\n      jump\t// in\n    tag_308:\n        /* \"#utility.yul\":8800:8803   */\n      dup3\n        /* \"#utility.yul\":8793:8830   */\n      mstore\n        /* \"#utility.yul\":8718:8836   */\n      pop\n      pop\n      jump\t// out\n        /* \"#utility.yul\":8842:9064   */\n    tag_31:\n        /* \"#utility.yul\":8935:8939   */\n      0x00\n        /* \"#utility.yul\":8973:8975   */\n      0x20\n        /* \"#utility.yul\":8962:8971   */\n      dup3\n        /* \"#utility.yul\":8958:8976   */\n      add\n        /* \"#utility.yul\":8950:8976   */\n      swap1\n      pop\n        /* \"#utility.yul\":8986:9057   */\n      tag_310\n        /* \"#utility.yul\":9054:9055   */\n      0x00\n        /* \"#utility.yul\":9043:9052   */\n      dup4\n        /* \"#utility.yul\":9039:9056   */\n      add\n        /* \"#utility.yul\":9030:9036   */\n      dup5\n        /* \"#utility.yul\":8986:9057   */\n      tag_181\n      jump\t// in\n    tag_310:\n        /* \"#utility.yul\":8842:9064   */\n      swap3\n      swap2\n      pop\n      pop\n      jump\t// out\n        /* \"#utility.yul\":9070:9544   */\n    tag_37:\n        /* \"#utility.yul\":9138:9144   */\n      0x00\n        /* \"#utility.yul\":9146:9152   */\n      dup1\n        /* \"#utility.yul\":9195:9197   */\n      0x40\n        /* \"#utility.yul\":9183:9192   */\n      dup4\n        /* \"#utility.yul\":9174:9181   */\n      dup6\n        /* \"#utility.yul\":9170:9193   */\n      sub\n        /* \"#utility.yul\":9166:9198   */\n      slt\n        /* \"#utility.yul\":9163:9282   */\n      iszero\n      tag_312\n      jumpi\n        /* \"#utility.yul\":9201:9280   */\n      tag_313\n      tag_151\n      jump\t// in\n    tag_313:\n        /* \"#utility.yul\":9163:9282   */\n    tag_312:\n        /* \"#utility.yul\":9321:9322   */\n      0x00\n        /* \"#utility.yul\":9346:9399   */\n      tag_314\n        /* \"#utility.yul\":9391:9398   */\n      dup6\n        /* \"#utility.yul\":9382:9388   */\n      dup3\n        /* \"#utility.yul\":9371:9380   */\n      dup7\n        /* \"#utility.yul\":9367:9389   */\n      add\n        /* \"#utility.yul\":9346:9399   */\n      tag_180\n      jump\t// in\n    tag_314:\n        /* \"#utility.yul\":9336:9399   */\n      swap3\n      pop\n        /* \"#utility.yul\":9292:9409   */\n      pop\n        /* \"#utility.yul\":9448:9450   */\n      0x20\n        /* \"#utility.yul\":9474:9527   */\n      tag_315\n        /* \"#utility.yul\":9519:9526   */\n      dup6\n        /* \"#utility.yul\":9510:9516   */\n      dup3\n        /* \"#utility.yul\":9499:9508   */\n      dup7\n        /* \"#utility.yul\":9495:9517   */\n      add\n        /* \"#utility.yul\":9474:9527   */\n      tag_171\n      jump\t// in\n    tag_315:\n        /* \"#utility.yul\":9464:9527   */\n      swap2\n      pop\n        /* \"#utility.yul\":9419:9537   */\n      pop\n        /* \"#utility.yul\":9070:9544   */\n      swap3\n      pop\n      swap3\n      swap1\n      pop\n      jump\t// out\n        /* \"#utility.yul\":9550:9659   */\n    tag_182:\n        /* \"#utility.yul\":9631:9652   */\n      tag_317\n        /* \"#utility.yul\":9646:9651   */\n      dup2\n        /* \"#utility.yul\":9631:9652   */\n      tag_172\n      jump\t// in\n    tag_317:\n        /* \"#utility.yul\":9626:9629   */\n      dup3\n        /* \"#utility.yul\":9619:9653   */\n      mstore\n        /* \"#utility.yul\":9550:9659   */\n      pop\n      pop\n      jump\t// out\n        /* \"#utility.yul\":9665:9875   */\n    tag_40:\n        /* \"#utility.yul\":9752:9756   */\n      0x00\n        /* \"#utility.yul\":9790:9792   */\n      0x20\n        /* \"#utility.yul\":9779:9788   */\n      dup3\n        /* \"#utility.yul\":9775:9793   */\n      add\n        /* \"#utility.yul\":9767:9793   */\n      swap1\n      pop\n        /* \"#utility.yul\":9803:9868   */\n      tag_319\n        /* \"#utility.yul\":9865:9866   */\n      0x00\n        /* \"#utility.yul\":9854:9863   */\n      dup4\n        /* \"#utility.yul\":9850:9867   */\n      add\n        /* \"#utility.yul\":9841:9847   */\n      dup5\n        /* \"#utility.yul\":9803:9868   */\n      tag_182\n      jump\t// in\n    tag_319:\n        /* \"#utility.yul\":9665:9875   */\n      swap3\n      swap2\n      pop\n      pop\n      jump\t// out\n        /* \"#utility.yul\":9881:10021   */\n    tag_183:\n        /* \"#utility.yul\":9974:9980   */\n      0x00\n        /* \"#utility.yul\":10008:10013   */\n      dup2\n        /* \"#utility.yul\":10002:10014   */\n      mload\n        /* \"#utility.yul\":9992:10014   */\n      swap1\n      pop\n        /* \"#utility.yul\":9881:10021   */\n      swap2\n      swap1\n      pop\n      jump\t// out\n        /* \"#utility.yul\":10027:10237   */\n    tag_184:\n        /* \"#utility.yul\":10152:10163   */\n      0x00\n        /* \"#utility.yul\":10186:10192   */\n      dup3\n        /* \"#utility.yul\":10181:10184   */\n      dup3\n        /* \"#utility.yul\":10174:10193   */\n      mstore\n        /* \"#utility.yul\":10226:10230   */\n      0x20\n        /* \"#utility.yul\":10221:10224   */\n      dup3\n        /* \"#utility.yul\":10217:10231   */\n      add\n        /* \"#utility.yul\":10202:10231   */\n      swap1\n      pop\n        /* \"#utility.yul\":10027:10237   */\n      swap3\n      swap2\n      pop\n      pop\n      jump\t// out\n        /* \"#utility.yul\":10243:10401   */\n    tag_185:\n        /* \"#utility.yul\":10336:10340   */\n      0x00\n        /* \"#utility.yul\":10359:10362   */\n      dup2\n        /* \"#utility.yul\":10351:10362   */\n      swap1\n      pop\n        /* \"#utility.yul\":10389:10393   */\n      0x20\n        /* \"#utility.yul\":10384:10387   */\n      dup3\n        /* \"#utility.yul\":10380:10394   */\n      add\n        /* \"#utility.yul\":10372:10394   */\n      swap1\n      pop\n        /* \"#utility.yul\":10243:10401   */\n      swap2\n      swap1\n      pop\n      jump\t// out\n        /* \"#utility.yul\":10407:10506   */\n    tag_186:\n        /* \"#utility.yul\":10459:10465   */\n      0x00\n        /* \"#utility.yul\":10493:10498   */\n      dup2\n        /* \"#utility.yul\":10487:10499   */\n      mload\n        /* \"#utility.yul\":10477:10499   */\n      swap1\n      pop\n        /* \"#utility.yul\":10407:10506   */\n      swap2\n      swap1\n      pop\n      jump\t// out\n        /* \"#utility.yul\":10512:10671   */\n    tag_187:\n        /* \"#utility.yul\":10586:10597   */\n      0x00\n        /* \"#utility.yul\":10620:10626   */\n      dup3\n        /* \"#utility.yul\":10615:10618   */\n      dup3\n        /* \"#utility.yul\":10608:10627   */\n      mstore\n        /* \"#utility.yul\":10660:10664   */\n      0x20\n        /* \"#utility.yul\":10655:10658   */\n      dup3\n        /* \"#utility.yul\":10651:10665   */\n      add\n        /* \"#utility.yul\":10636:10665   */\n      swap1\n      pop\n        /* \"#utility.yul\":10512:10671   */\n      swap3\n      swap2\n      pop\n      pop\n      jump\t// out\n        /* \"#utility.yul\":10677:10984   */\n    tag_188:\n        /* \"#utility.yul\":10745:10746   */\n      0x00\n        /* \"#utility.yul\":10755:10868   */\n    tag_326:\n        /* \"#utility.yul\":10769:10775   */\n      dup4\n        /* \"#utility.yul\":10766:10767   */\n      dup2\n        /* \"#utility.yul\":10763:10776   */\n      lt\n        /* \"#utility.yul\":10755:10868   */\n      iszero\n      tag_328\n      jumpi\n        /* \"#utility.yul\":10854:10855   */\n      dup1\n        /* \"#utility.yul\":10849:10852   */\n      dup3\n        /* \"#utility.yul\":10845:10856   */\n      add\n        /* \"#utility.yul\":10839:10857   */\n      mload\n        /* \"#utility.yul\":10835:10836   */\n      dup2\n        /* \"#utility.yul\":10830:10833   */\n      dup5\n        /* \"#utility.yul\":10826:10837   */\n      add\n        /* \"#utility.yul\":10819:10858   */\n      mstore\n        /* \"#utility.yul\":10791:10793   */\n      0x20\n        /* \"#utility.yul\":10788:10789   */\n      dup2\n        /* \"#utility.yul\":10784:10794   */\n      add\n        /* \"#utility.yul\":10779:10794   */\n      swap1\n      pop\n        /* \"#utility.yul\":10755:10868   */\n      jump(tag_326)\n    tag_328:\n        /* \"#utility.yul\":10886:10892   */\n      dup4\n        /* \"#utility.yul\":10883:10884   */\n      dup2\n        /* \"#utility.yul\":10880:10893   */\n      gt\n        /* \"#utility.yul\":10877:10978   */\n      iszero\n      tag_329\n      jumpi\n        /* \"#utility.yul\":10966:10967   */\n      0x00\n        /* \"#utility.yul\":10957:10963   */\n      dup5\n        /* \"#utility.yul\":10952:10955   */\n      dup5\n        /* \"#utility.yul\":10948:10964   */\n      add\n        /* \"#utility.yul\":10941:10968   */\n      mstore\n        /* \"#utility.yul\":10877:10978   */\n    tag_329:\n        /* \"#utility.yul\":10726:10984   */\n      pop\n        /* \"#utility.yul\":10677:10984   */\n      pop\n      pop\n      pop\n      jump\t// out\n        /* \"#utility.yul\":10990:11334   */\n    tag_189:\n        /* \"#utility.yul\":11068:11071   */\n      0x00\n        /* \"#utility.yul\":11096:11135   */\n      tag_331\n        /* \"#utility.yul\":11129:11134   */\n      dup3\n        /* \"#utility.yul\":11096:11135   */\n      tag_186\n      jump\t// in\n    tag_331:\n        /* \"#utility.yul\":11151:11212   */\n      tag_332\n        /* \"#utility.yul\":11205:11211   */\n      dup2\n        /* \"#utility.yul\":11200:11203   */\n      dup6\n        /* \"#utility.yul\":11151:11212   */\n      tag_187\n      jump\t// in\n    tag_332:\n        /* \"#utility.yul\":11144:11212   */\n      swap4\n      pop\n        /* \"#utility.yul\":11221:11273   */\n      tag_333\n        /* \"#utility.yul\":11266:11272   */\n      dup2\n        /* \"#utility.yul\":11261:11264   */\n      dup6\n        /* \"#utility.yul\":11254:11258   */\n      0x20\n        /* \"#utility.yul\":11247:11252   */\n      dup7\n        /* \"#utility.yul\":11243:11259   */\n      add\n        /* \"#utility.yul\":11221:11273   */\n      tag_188\n      jump\t// in\n    tag_333:\n        /* \"#utility.yul\":11298:11327   */\n      tag_334\n        /* \"#utility.yul\":11320:11326   */\n      dup2\n        /* \"#utility.yul\":11298:11327   */\n      tag_155\n      jump\t// in\n    tag_334:\n        /* \"#utility.yul\":11293:11296   */\n      dup5\n        /* \"#utility.yul\":11289:11328   */\n      add\n        /* \"#utility.yul\":11282:11328   */\n      swap2\n      pop\n        /* \"#utility.yul\":11072:11334   */\n      pop\n        /* \"#utility.yul\":10990:11334   */\n      swap3\n      swap2\n      pop\n      pop\n      jump\t// out\n        /* \"#utility.yul\":11340:11448   */\n    tag_190:\n        /* \"#utility.yul\":11417:11441   */\n      tag_336\n        /* \"#utility.yul\":11435:11440   */\n      dup2\n        /* \"#utility.yul\":11417:11441   */\n      tag_165\n      jump\t// in\n    tag_336:\n        /* \"#utility.yul\":11412:11415   */\n      dup3\n        /* \"#utility.yul\":11405:11442   */\n      mstore\n        /* \"#utility.yul\":11340:11448   */\n      pop\n      pop\n      jump\t// out\n        /* \"#utility.yul\":11454:11562   */\n    tag_191:\n        /* \"#utility.yul\":11531:11555   */\n      tag_338\n        /* \"#utility.yul\":11549:11554   */\n      dup2\n        /* \"#utility.yul\":11531:11555   */\n      tag_169\n      jump\t// in\n    tag_338:\n        /* \"#utility.yul\":11526:11529   */\n      dup3\n        /* \"#utility.yul\":11519:11556   */\n      mstore\n        /* \"#utility.yul\":11454:11562   */\n      pop\n      pop\n      jump\t// out\n        /* \"#utility.yul\":11568:11667   */\n    tag_192:\n        /* \"#utility.yul\":11639:11660   */\n      tag_340\n        /* \"#utility.yul\":11654:11659   */\n      dup2\n        /* \"#utility.yul\":11639:11660   */\n      tag_172\n      jump\t// in\n    tag_340:\n        /* \"#utility.yul\":11634:11637   */\n      dup3\n        /* \"#utility.yul\":11627:11661   */\n      mstore\n        /* \"#utility.yul\":11568:11667   */\n      pop\n      pop\n      jump\t// out\n        /* \"#utility.yul\":11747:12704   */\n    tag_193:\n        /* \"#utility.yul\":11864:11867   */\n      0x00\n        /* \"#utility.yul\":11900:11904   */\n      0x80\n        /* \"#utility.yul\":11895:11898   */\n      dup4\n        /* \"#utility.yul\":11891:11905   */\n      add\n        /* \"#utility.yul\":11986:11990   */\n      0x00\n        /* \"#utility.yul\":11979:11984   */\n      dup4\n        /* \"#utility.yul\":11975:11991   */\n      add\n        /* \"#utility.yul\":11969:11992   */\n      mload\n        /* \"#utility.yul\":12039:12042   */\n      dup5\n        /* \"#utility.yul\":12033:12037   */\n      dup3\n        /* \"#utility.yul\":12029:12043   */\n      sub\n        /* \"#utility.yul\":12022:12026   */\n      0x00\n        /* \"#utility.yul\":12017:12020   */\n      dup7\n        /* \"#utility.yul\":12013:12027   */\n      add\n        /* \"#utility.yul\":12006:12044   */\n      mstore\n        /* \"#utility.yul\":12065:12138   */\n      tag_342\n        /* \"#utility.yul\":12133:12137   */\n      dup3\n        /* \"#utility.yul\":12119:12131   */\n      dup3\n        /* \"#utility.yul\":12065:12138   */\n      tag_189\n      jump\t// in\n    tag_342:\n        /* \"#utility.yul\":12057:12138   */\n      swap2\n      pop\n        /* \"#utility.yul\":11915:12149   */\n      pop\n        /* \"#utility.yul\":12236:12240   */\n      0x20\n        /* \"#utility.yul\":12229:12234   */\n      dup4\n        /* \"#utility.yul\":12225:12241   */\n      add\n        /* \"#utility.yul\":12219:12242   */\n      mload\n        /* \"#utility.yul\":12255:12318   */\n      tag_343\n        /* \"#utility.yul\":12312:12316   */\n      0x20\n        /* \"#utility.yul\":12307:12310   */\n      dup7\n        /* \"#utility.yul\":12303:12317   */\n      add\n        /* \"#utility.yul\":12289:12301   */\n      dup3\n        /* \"#utility.yul\":12255:12318   */\n      tag_190\n      jump\t// in\n    tag_343:\n        /* \"#utility.yul\":12159:12328   */\n      pop\n        /* \"#utility.yul\":12413:12417   */\n      0x40\n        /* \"#utility.yul\":12406:12411   */\n      dup4\n        /* \"#utility.yul\":12402:12418   */\n      add\n        /* \"#utility.yul\":12396:12419   */\n      mload\n        /* \"#utility.yul\":12432:12495   */\n      tag_344\n        /* \"#utility.yul\":12489:12493   */\n      0x40\n        /* \"#utility.yul\":12484:12487   */\n      dup7\n        /* \"#utility.yul\":12480:12494   */\n      add\n        /* \"#utility.yul\":12466:12478   */\n      dup3\n        /* \"#utility.yul\":12432:12495   */\n      tag_191\n      jump\t// in\n    tag_344:\n        /* \"#utility.yul\":12338:12505   */\n      pop\n        /* \"#utility.yul\":12591:12595   */\n      0x60\n        /* \"#utility.yul\":12584:12589   */\n      dup4\n        /* \"#utility.yul\":12580:12596   */\n      add\n        /* \"#utility.yul\":12574:12597   */\n      mload\n        /* \"#utility.yul\":12610:12667   */\n      tag_345\n        /* \"#utility.yul\":12661:12665   */\n      0x60\n        /* \"#utility.yul\":12656:12659   */\n      dup7\n        /* \"#utility.yul\":12652:12666   */\n      add\n        /* \"#utility.yul\":12638:12650   */\n      dup3\n        /* \"#utility.yul\":12610:12667   */\n      tag_192\n      jump\t// in\n    tag_345:\n        /* \"#utility.yul\":12515:12677   */\n      pop\n        /* \"#utility.yul\":12694:12698   */\n      dup1\n        /* \"#utility.yul\":12687:12698   */\n      swap2\n      pop\n        /* \"#utility.yul\":11869:12704   */\n      pop\n        /* \"#utility.yul\":11747:12704   */\n      swap3\n      swap2\n      pop\n      pop\n      jump\t// out\n        /* \"#utility.yul\":12778:13673   */\n    tag_194:\n        /* \"#utility.yul\":12889:12892   */\n      0x00\n        /* \"#utility.yul\":12925:12929   */\n      0x60\n        /* \"#utility.yul\":12920:12923   */\n      dup4\n        /* \"#utility.yul\":12916:12930   */\n      add\n        /* \"#utility.yul\":13013:13017   */\n      0x00\n        /* \"#utility.yul\":13006:13011   */\n      dup4\n        /* \"#utility.yul\":13002:13018   */\n      add\n        /* \"#utility.yul\":12996:13019   */\n      mload\n        /* \"#utility.yul\":13066:13069   */\n      dup5\n        /* \"#utility.yul\":13060:13064   */\n      dup3\n        /* \"#utility.yul\":13056:13070   */\n      sub\n        /* \"#utility.yul\":13049:13053   */\n      0x00\n        /* \"#utility.yul\":13044:13047   */\n      dup7\n        /* \"#utility.yul\":13040:13054   */\n      add\n        /* \"#utility.yul\":13033:13071   */\n      mstore\n        /* \"#utility.yul\":13092:13203   */\n      tag_347\n        /* \"#utility.yul\":13198:13202   */\n      dup3\n        /* \"#utility.yul\":13184:13196   */\n      dup3\n        /* \"#utility.yul\":13092:13203   */\n      tag_193\n      jump\t// in\n    tag_347:\n        /* \"#utility.yul\":13084:13203   */\n      swap2\n      pop\n        /* \"#utility.yul\":12940:13214   */\n      pop\n        /* \"#utility.yul\":13303:13307   */\n      0x20\n        /* \"#utility.yul\":13296:13301   */\n      dup4\n        /* \"#utility.yul\":13292:13308   */\n      add\n        /* \"#utility.yul\":13286:13309   */\n      mload\n        /* \"#utility.yul\":13322:13385   */\n      tag_348\n        /* \"#utility.yul\":13379:13383   */\n      0x20\n        /* \"#utility.yul\":13374:13377   */\n      dup7\n        /* \"#utility.yul\":13370:13384   */\n      add\n        /* \"#utility.yul\":13356:13368   */\n      dup3\n        /* \"#utility.yul\":13322:13385   */\n      tag_190\n      jump\t// in\n    tag_348:\n        /* \"#utility.yul\":13224:13395   */\n      pop\n        /* \"#utility.yul\":13483:13487   */\n      0x40\n        /* \"#utility.yul\":13476:13481   */\n      dup4\n        /* \"#utility.yul\":13472:13488   */\n      add\n        /* \"#utility.yul\":13466:13489   */\n      mload\n        /* \"#utility.yul\":13536:13539   */\n      dup5\n        /* \"#utility.yul\":13530:13534   */\n      dup3\n        /* \"#utility.yul\":13526:13540   */\n      sub\n        /* \"#utility.yul\":13519:13523   */\n      0x40\n        /* \"#utility.yul\":13514:13517   */\n      dup7\n        /* \"#utility.yul\":13510:13524   */\n      add\n        /* \"#utility.yul\":13503:13541   */\n      mstore\n        /* \"#utility.yul\":13562:13635   */\n      tag_349\n        /* \"#utility.yul\":13630:13634   */\n      dup3\n        /* \"#utility.yul\":13616:13628   */\n      dup3\n        /* \"#utility.yul\":13562:13635   */\n      tag_189\n      jump\t// in\n    tag_349:\n        /* \"#utility.yul\":13554:13635   */\n      swap2\n      pop\n        /* \"#utility.yul\":13405:13646   */\n      pop\n        /* \"#utility.yul\":13663:13667   */\n      dup1\n        /* \"#utility.yul\":13656:13667   */\n      swap2\n      pop\n        /* \"#utility.yul\":12894:13673   */\n      pop\n        /* \"#utility.yul\":12778:13673   */\n      swap3\n      swap2\n      pop\n      pop\n      jump\t// out\n        /* \"#utility.yul\":13679:13939   */\n    tag_195:\n        /* \"#utility.yul\":13800:13810   */\n      0x00\n        /* \"#utility.yul\":13835:13933   */\n      tag_351\n        /* \"#utility.yul\":13929:13932   */\n      dup4\n        /* \"#utility.yul\":13921:13927   */\n      dup4\n        /* \"#utility.yul\":13835:13933   */\n      tag_194\n      jump\t// in\n    tag_351:\n        /* \"#utility.yul\":13821:13933   */\n      swap1\n      pop\n        /* \"#utility.yul\":13679:13939   */\n      swap3\n      swap2\n      pop\n      pop\n      jump\t// out\n        /* \"#utility.yul\":13945:14084   */\n    tag_196:\n        /* \"#utility.yul\":14041:14045   */\n      0x00\n        /* \"#utility.yul\":14073:14077   */\n      0x20\n        /* \"#utility.yul\":14068:14071   */\n      dup3\n        /* \"#utility.yul\":14064:14078   */\n      add\n        /* \"#utility.yul\":14056:14078   */\n      swap1\n      pop\n        /* \"#utility.yul\":13945:14084   */\n      swap2\n      swap1\n      pop\n      jump\t// out\n        /* \"#utility.yul\":14162:15281   */\n    tag_197:\n        /* \"#utility.yul\":14333:14336   */\n      0x00\n        /* \"#utility.yul\":14362:14442   */\n      tag_354\n        /* \"#utility.yul\":14436:14441   */\n      dup3\n        /* \"#utility.yul\":14362:14442   */\n      tag_183\n      jump\t// in\n    tag_354:\n        /* \"#utility.yul\":14458:14570   */\n      tag_355\n        /* \"#utility.yul\":14563:14569   */\n      dup2\n        /* \"#utility.yul\":14558:14561   */\n      dup6\n        /* \"#utility.yul\":14458:14570   */\n      tag_184\n      jump\t// in\n    tag_355:\n        /* \"#utility.yul\":14451:14570   */\n      swap4\n      pop\n        /* \"#utility.yul\":14596:14599   */\n      dup4\n        /* \"#utility.yul\":14641:14645   */\n      0x20\n        /* \"#utility.yul\":14633:14639   */\n      dup3\n        /* \"#utility.yul\":14629:14646   */\n      mul\n        /* \"#utility.yul\":14624:14627   */\n      dup6\n        /* \"#utility.yul\":14620:14647   */\n      add\n        /* \"#utility.yul\":14671:14753   */\n      tag_356\n        /* \"#utility.yul\":14747:14752   */\n      dup6\n        /* \"#utility.yul\":14671:14753   */\n      tag_185\n      jump\t// in\n    tag_356:\n        /* \"#utility.yul\":14776:14783   */\n      dup1\n        /* \"#utility.yul\":14807:14808   */\n      0x00\n        /* \"#utility.yul\":14792:15236   */\n    tag_357:\n        /* \"#utility.yul\":14817:14823   */\n      dup6\n        /* \"#utility.yul\":14814:14815   */\n      dup2\n        /* \"#utility.yul\":14811:14824   */\n      lt\n        /* \"#utility.yul\":14792:15236   */\n      iszero\n      tag_359\n      jumpi\n        /* \"#utility.yul\":14888:14897   */\n      dup5\n        /* \"#utility.yul\":14882:14886   */\n      dup5\n        /* \"#utility.yul\":14878:14898   */\n      sub\n        /* \"#utility.yul\":14873:14876   */\n      dup10\n        /* \"#utility.yul\":14866:14899   */\n      mstore\n        /* \"#utility.yul\":14939:14945   */\n      dup2\n        /* \"#utility.yul\":14933:14946   */\n      mload\n        /* \"#utility.yul\":14967:15083   */\n      tag_360\n        /* \"#utility.yul\":15078:15082   */\n      dup6\n        /* \"#utility.yul\":15063:15076   */\n      dup3\n        /* \"#utility.yul\":14967:15083   */\n      tag_195\n      jump\t// in\n    tag_360:\n        /* \"#utility.yul\":14959:15083   */\n      swap5\n      pop\n        /* \"#utility.yul\":15106:15192   */\n      tag_361\n        /* \"#utility.yul\":15185:15191   */\n      dup4\n        /* \"#utility.yul\":15106:15192   */\n      tag_196\n      jump\t// in\n    tag_361:\n        /* \"#utility.yul\":15096:15192   */\n      swap3\n      pop\n        /* \"#utility.yul\":15221:15225   */\n      0x20\n        /* \"#utility.yul\":15216:15219   */\n      dup11\n        /* \"#utility.yul\":15212:15226   */\n      add\n        /* \"#utility.yul\":15205:15226   */\n      swap10\n      pop\n        /* \"#utility.yul\":14852:15236   */\n      pop\n        /* \"#utility.yul\":14839:14840   */\n      0x01\n        /* \"#utility.yul\":14836:14837   */\n      dup2\n        /* \"#utility.yul\":14832:14841   */\n      add\n        /* \"#utility.yul\":14827:14841   */\n      swap1\n      pop\n        /* \"#utility.yul\":14792:15236   */\n      jump(tag_357)\n    tag_359:\n        /* \"#utility.yul\":14796:14810   */\n      pop\n        /* \"#utility.yul\":15252:15256   */\n      dup3\n        /* \"#utility.yul\":15245:15256   */\n      swap8\n      pop\n        /* \"#utility.yul\":15272:15275   */\n      dup8\n        /* \"#utility.yul\":15265:15275   */\n      swap6\n      pop\n        /* \"#utility.yul\":14338:15281   */\n      pop\n      pop\n      pop\n      pop\n      pop\n        /* \"#utility.yul\":14162:15281   */\n      swap3\n      swap2\n      pop\n      pop\n      jump\t// out\n        /* \"#utility.yul\":15287:15764   */\n    tag_48:\n        /* \"#utility.yul\":15482:15486   */\n      0x00\n        /* \"#utility.yul\":15520:15522   */\n      0x20\n        /* \"#utility.yul\":15509:15518   */\n      dup3\n        /* \"#utility.yul\":15505:15523   */\n      add\n        /* \"#utility.yul\":15497:15523   */\n      swap1\n      pop\n        /* \"#utility.yul\":15569:15578   */\n      dup2\n        /* \"#utility.yul\":15563:15567   */\n      dup2\n        /* \"#utility.yul\":15559:15579   */\n      sub\n        /* \"#utility.yul\":15555:15556   */\n      0x00\n        /* \"#utility.yul\":15544:15553   */\n      dup4\n        /* \"#utility.yul\":15540:15557   */\n      add\n        /* \"#utility.yul\":15533:15580   */\n      mstore\n        /* \"#utility.yul\":15597:15757   */\n      tag_363\n        /* \"#utility.yul\":15752:15756   */\n      dup2\n        /* \"#utility.yul\":15743:15749   */\n      dup5\n        /* \"#utility.yul\":15597:15757   */\n      tag_197\n      jump\t// in\n    tag_363:\n        /* \"#utility.yul\":15589:15757   */\n      swap1\n      pop\n        /* \"#utility.yul\":15287:15764   */\n      swap3\n      swap2\n      pop\n      pop\n      jump\t// out\n        /* \"#utility.yul\":15770:16099   */\n    tag_58:\n        /* \"#utility.yul\":15829:15835   */\n      0x00\n        /* \"#utility.yul\":15878:15880   */\n      0x20\n        /* \"#utility.yul\":15866:15875   */\n      dup3\n        /* \"#utility.yul\":15857:15864   */\n      dup5\n        /* \"#utility.yul\":15853:15876   */\n      sub\n        /* \"#utility.yul\":15849:15881   */\n      slt\n        /* \"#utility.yul\":15846:15965   */\n      iszero\n      tag_365\n      jumpi\n        /* \"#utility.yul\":15884:15963   */\n      tag_366\n      tag_151\n      jump\t// in\n    tag_366:\n        /* \"#utility.yul\":15846:15965   */\n    tag_365:\n        /* \"#utility.yul\":16004:16005   */\n      0x00\n        /* \"#utility.yul\":16029:16082   */\n      tag_367\n        /* \"#utility.yul\":16074:16081   */\n      dup5\n        /* \"#utility.yul\":16065:16071   */\n      dup3\n        /* \"#utility.yul\":16054:16063   */\n      dup6\n        /* \"#utility.yul\":16050:16072   */\n      add\n        /* \"#utility.yul\":16029:16082   */\n      tag_171\n      jump\t// in\n    tag_367:\n        /* \"#utility.yul\":16019:16082   */\n      swap2\n      pop\n        /* \"#utility.yul\":15975:16092   */\n      pop\n        /* \"#utility.yul\":15770:16099   */\n      swap3\n      swap2\n      pop\n      pop\n      jump\t// out\n        /* \"#utility.yul\":16105:16253   */\n    tag_198:\n        /* \"#utility.yul\":16207:16218   */\n      0x00\n        /* \"#utility.yul\":16244:16247   */\n      dup2\n        /* \"#utility.yul\":16229:16247   */\n      swap1\n      pop\n        /* \"#utility.yul\":16105:16253   */\n      swap3\n      swap2\n      pop\n      pop\n      jump\t// out\n        /* \"#utility.yul\":16259:16636   */\n    tag_199:\n        /* \"#utility.yul\":16365:16368   */\n      0x00\n        /* \"#utility.yul\":16393:16432   */\n      tag_370\n        /* \"#utility.yul\":16426:16431   */\n      dup3\n        /* \"#utility.yul\":16393:16432   */\n      tag_186\n      jump\t// in\n    tag_370:\n        /* \"#utility.yul\":16448:16537   */\n      tag_371\n        /* \"#utility.yul\":16530:16536   */\n      dup2\n        /* \"#utility.yul\":16525:16528   */\n      dup6\n        /* \"#utility.yul\":16448:16537   */\n      tag_198\n      jump\t// in\n    tag_371:\n        /* \"#utility.yul\":16441:16537   */\n      swap4\n      pop\n        /* \"#utility.yul\":16546:16598   */\n      tag_372\n        /* \"#utility.yul\":16591:16597   */\n      dup2\n        /* \"#utility.yul\":16586:16589   */\n      dup6\n        /* \"#utility.yul\":16579:16583   */\n      0x20\n        /* \"#utility.yul\":16572:16577   */\n      dup7\n        /* \"#utility.yul\":16568:16584   */\n      add\n        /* \"#utility.yul\":16546:16598   */\n      tag_188\n      jump\t// in\n    tag_372:\n        /* \"#utility.yul\":16623:16629   */\n      dup1\n        /* \"#utility.yul\":16618:16621   */\n      dup5\n        /* \"#utility.yul\":16614:16630   */\n      add\n        /* \"#utility.yul\":16607:16630   */\n      swap2\n      pop\n        /* \"#utility.yul\":16369:16636   */\n      pop\n        /* \"#utility.yul\":16259:16636   */\n      swap3\n      swap2\n      pop\n      pop\n      jump\t// out\n        /* \"#utility.yul\":16642:16917   */\n    tag_72:\n        /* \"#utility.yul\":16774:16777   */\n      0x00\n        /* \"#utility.yul\":16796:16891   */\n      tag_374\n        /* \"#utility.yul\":16887:16890   */\n      dup3\n        /* \"#utility.yul\":16878:16884   */\n      dup5\n        /* \"#utility.yul\":16796:16891   */\n      tag_199\n      jump\t// in\n    tag_374:\n        /* \"#utility.yul\":16789:16891   */\n      swap2\n      pop\n        /* \"#utility.yul\":16908:16911   */\n      dup2\n        /* \"#utility.yul\":16901:16911   */\n      swap1\n      pop\n        /* \"#utility.yul\":16642:16917   */\n      swap3\n      swap2\n      pop\n      pop\n      jump\t// out\n        /* \"#utility.yul\":16923:17103   */\n    tag_200:\n        /* \"#utility.yul\":16971:17048   */\n      0x4e487b7100000000000000000000000000000000000000000000000000000000\n        /* \"#utility.yul\":16968:16969   */\n      0x00\n        /* \"#utility.yul\":16961:17049   */\n      mstore\n        /* \"#utility.yul\":17068:17072   */\n      0x22\n        /* \"#utility.yul\":17065:17066   */\n      0x04\n        /* \"#utility.yul\":17058:17073   */\n      mstore\n        /* \"#utility.yul\":17092:17096   */\n      0x24\n        /* \"#utility.yul\":17089:17090   */\n      0x00\n        /* \"#utility.yul\":17082:17097   */\n      revert\n        /* \"#utility.yul\":17109:17429   */\n    tag_85:\n        /* \"#utility.yul\":17153:17159   */\n      0x00\n        /* \"#utility.yul\":17190:17191   */\n      0x02\n        /* \"#utility.yul\":17184:17188   */\n      dup3\n        /* \"#utility.yul\":17180:17192   */\n      div\n        /* \"#utility.yul\":17170:17192   */\n      swap1\n      pop\n        /* \"#utility.yul\":17237:17238   */\n      0x01\n        /* \"#utility.yul\":17231:17235   */\n      dup3\n        /* \"#utility.yul\":17227:17239   */\n      and\n        /* \"#utility.yul\":17258:17276   */\n      dup1\n        /* \"#utility.yul\":17248:17329   */\n      tag_377\n      jumpi\n        /* \"#utility.yul\":17314:17318   */\n      0x7f\n        /* \"#utility.yul\":17306:17312   */\n      dup3\n        /* \"#utility.yul\":17302:17319   */\n      and\n        /* \"#utility.yul\":17292:17319   */\n      swap2\n      pop\n        /* \"#utility.yul\":17248:17329   */\n    tag_377:\n        /* \"#utility.yul\":17376:17378   */\n      0x20\n        /* \"#utility.yul\":17368:17374   */\n      dup3\n        /* \"#utility.yul\":17365:17379   */\n      lt\n        /* \"#utility.yul\":17345:17363   */\n      dup2\n        /* \"#utility.yul\":17342:17380   */\n      eq\n        /* \"#utility.yul\":17339:17423   */\n      iszero\n      tag_378\n      jumpi\n        /* \"#utility.yul\":17395:17413   */\n      tag_379\n      tag_200\n      jump\t// in\n    tag_379:\n        /* \"#utility.yul\":17339:17423   */\n    tag_378:\n        /* \"#utility.yul\":17160:17429   */\n      pop\n        /* \"#utility.yul\":17109:17429   */\n      swap2\n      swap1\n      pop\n      jump\t// out\n        /* \"#utility.yul\":17435:17615   */\n    tag_201:\n        /* \"#utility.yul\":17483:17560   */\n      0x4e487b7100000000000000000000000000000000000000000000000000000000\n        /* \"#utility.yul\":17480:17481   */\n      0x00\n        /* \"#utility.yul\":17473:17561   */\n      mstore\n        /* \"#utility.yul\":17580:17584   */\n      0x11\n        /* \"#utility.yul\":17577:17578   */\n      0x04\n        /* \"#utility.yul\":17570:17585   */\n      mstore\n        /* \"#utility.yul\":17604:17608   */\n      0x24\n        /* \"#utility.yul\":17601:17602   */\n      0x00\n        /* \"#utility.yul\":17594:17609   */\n      revert\n        /* \"#utility.yul\":17621:17812   */\n    tag_96:\n        /* \"#utility.yul\":17661:17665   */\n      0x00\n        /* \"#utility.yul\":17681:17701   */\n      tag_382\n        /* \"#utility.yul\":17699:17700   */\n      dup3\n        /* \"#utility.yul\":17681:17701   */\n      tag_165\n      jump\t// in\n    tag_382:\n        /* \"#utility.yul\":17676:17701   */\n      swap2\n      pop\n        /* \"#utility.yul\":17715:17735   */\n      tag_383\n        /* \"#utility.yul\":17733:17734   */\n      dup4\n        /* \"#utility.yul\":17715:17735   */\n      tag_165\n      jump\t// in\n    tag_383:\n        /* \"#utility.yul\":17710:17735   */\n      swap3\n      pop\n        /* \"#utility.yul\":17754:17755   */\n      dup3\n        /* \"#utility.yul\":17751:17752   */\n      dup3\n        /* \"#utility.yul\":17748:17756   */\n      lt\n        /* \"#utility.yul\":17745:17779   */\n      iszero\n      tag_384\n      jumpi\n        /* \"#utility.yul\":17759:17777   */\n      tag_385\n      tag_201\n      jump\t// in\n    tag_385:\n        /* \"#utility.yul\":17745:17779   */\n    tag_384:\n        /* \"#utility.yul\":17804:17805   */\n      dup3\n        /* \"#utility.yul\":17801:17802   */\n      dup3\n        /* \"#utility.yul\":17797:17806   */\n      sub\n        /* \"#utility.yul\":17789:17806   */\n      swap1\n      pop\n        /* \"#utility.yul\":17621:17812   */\n      swap3\n      swap2\n      pop\n      pop\n      jump\t// out\n        /* \"#utility.yul\":17818:17998   */\n    tag_99:\n        /* \"#utility.yul\":17866:17943   */\n      0x4e487b7100000000000000000000000000000000000000000000000000000000\n        /* \"#utility.yul\":17863:17864   */\n      0x00\n        /* \"#utility.yul\":17856:17944   */\n      mstore\n        /* \"#utility.yul\":17963:17967   */\n      0x32\n        /* \"#utility.yul\":17960:17961   */\n      0x04\n        /* \"#utility.yul\":17953:17968   */\n      mstore\n        /* \"#utility.yul\":17987:17991   */\n      0x24\n        /* \"#utility.yul\":17984:17985   */\n      0x00\n        /* \"#utility.yul\":17977:17992   */\n      revert\n        /* \"#utility.yul\":18004:18173   */\n    tag_202:\n        /* \"#utility.yul\":18088:18099   */\n      0x00\n        /* \"#utility.yul\":18122:18128   */\n      dup3\n        /* \"#utility.yul\":18117:18120   */\n      dup3\n        /* \"#utility.yul\":18110:18129   */\n      mstore\n        /* \"#utility.yul\":18162:18166   */\n      0x20\n        /* \"#utility.yul\":18157:18160   */\n      dup3\n        /* \"#utility.yul\":18153:18167   */\n      add\n        /* \"#utility.yul\":18138:18167   */\n      swap1\n      pop\n        /* \"#utility.yul\":18004:18173   */\n      swap3\n      swap2\n      pop\n      pop\n      jump\t// out\n        /* \"#utility.yul\":18179:18348   */\n    tag_203:\n        /* \"#utility.yul\":18319:18340   */\n      0x556e417574686f72697a65644163636f756e7400000000000000000000000000\n        /* \"#utility.yul\":18315:18316   */\n      0x00\n        /* \"#utility.yul\":18307:18313   */\n      dup3\n        /* \"#utility.yul\":18303:18317   */\n      add\n        /* \"#utility.yul\":18296:18341   */\n      mstore\n        /* \"#utility.yul\":18179:18348   */\n      pop\n      jump\t// out\n        /* \"#utility.yul\":18354:18720   */\n    tag_204:\n        /* \"#utility.yul\":18496:18499   */\n      0x00\n        /* \"#utility.yul\":18517:18584   */\n      tag_390\n        /* \"#utility.yul\":18581:18583   */\n      0x13\n        /* \"#utility.yul\":18576:18579   */\n      dup4\n        /* \"#utility.yul\":18517:18584   */\n      tag_202\n      jump\t// in\n    tag_390:\n        /* \"#utility.yul\":18510:18584   */\n      swap2\n      pop\n        /* \"#utility.yul\":18593:18686   */\n      tag_391\n        /* \"#utility.yul\":18682:18685   */\n      dup3\n        /* \"#utility.yul\":18593:18686   */\n      tag_203\n      jump\t// in\n    tag_391:\n        /* \"#utility.yul\":18711:18713   */\n      0x20\n        /* \"#utility.yul\":18706:18709   */\n      dup3\n        /* \"#utility.yul\":18702:18714   */\n      add\n        /* \"#utility.yul\":18695:18714   */\n      swap1\n      pop\n        /* \"#utility.yul\":18354:18720   */\n      swap2\n      swap1\n      pop\n      jump\t// out\n        /* \"#utility.yul\":18726:19145   */\n    tag_133:\n        /* \"#utility.yul\":18892:18896   */\n      0x00\n        /* \"#utility.yul\":18930:18932   */\n      0x20\n        /* \"#utility.yul\":18919:18928   */\n      dup3\n        /* \"#utility.yul\":18915:18933   */\n      add\n        /* \"#utility.yul\":18907:18933   */\n      swap1\n      pop\n        /* \"#utility.yul\":18979:18988   */\n      dup2\n        /* \"#utility.yul\":18973:18977   */\n      dup2\n        /* \"#utility.yul\":18969:18989   */\n      sub\n        /* \"#utility.yul\":18965:18966   */\n      0x00\n        /* \"#utility.yul\":18954:18963   */\n      dup4\n        /* \"#utility.yul\":18950:18967   */\n      add\n        /* \"#utility.yul\":18943:18990   */\n      mstore\n        /* \"#utility.yul\":19007:19138   */\n      tag_393\n        /* \"#utility.yul\":19133:19137   */\n      dup2\n        /* \"#utility.yul\":19007:19138   */\n      tag_204\n      jump\t// in\n    tag_393:\n        /* \"#utility.yul\":18999:19138   */\n      swap1\n      pop\n        /* \"#utility.yul\":18726:19145   */\n      swap2\n      swap1\n      pop\n      jump\t// out\n\n    auxdata: 0xa264697066735822122049181b91c490c8d3187eca4778c3ad5f01be1e24b47a8c96afdec1212c4c147164736f6c634300080b0033\n}\n",
				"bytecode": {
					"linkReferences": {},
					"object": "60806040523480156200001157600080fd5b503360016000808060001b815260200190815260200160002060000160008373ffffffffffffffffffffffffffffffffffffffff1673ffffffffffffffffffffffffffffffffffffffff16815260200190815260200160002060006101000a81548160ff02191690831515021790555050620000b77fde578090ec646877a6b707d83ea8139dac8a43d4dea437aa209801b10c1b26b56000801b620000f060201b60201c565b620000e97fde578090ec646877a6b707d83ea8139dac8a43d4dea437aa209801b10c1b26b5336200015360201b60201c565b50620003d7565b600062000103836200026c60201b60201c565b905081600080858152602001908152602001600020600101819055508181847fbd79b86ffe0ab8e8776151514217cd7cacd52c909f66475c3af44e129f0b00ff60405160405180910390a4505050565b600062000166836200026c60201b60201c565b62000177816200028b60201b60201c565b506200018a8484620002ea60201b60201c565b156200019a576000915062000265565b600160008086815260200190815260200160002060000160008573ffffffffffffffffffffffffffffffffffffffff1673ffffffffffffffffffffffffffffffffffffffff16815260200190815260200160002060006101000a81548160ff0219169083151502179055503373ffffffffffffffffffffffffffffffffffffffff168373ffffffffffffffffffffffffffffffffffffffff16857f2f8788117e7eff1d82e926ec794901d17c78024a50270940304540a733656f0d60405160405180910390a4600191505b5092915050565b6000806000838152602001908152602001600020600101549050919050565b60006200029f8233620002ea60201b60201c565b620002e1576040517f08c379a0000000000000000000000000000000000000000000000000000000008152600401620002d890620003b5565b60405180910390fd5b60019050919050565b600080600084815260200190815260200160002060000160008373ffffffffffffffffffffffffffffffffffffffff1673ffffffffffffffffffffffffffffffffffffffff16815260200190815260200160002060009054906101000a900460ff16905092915050565b600082825260208201905092915050565b7f556e417574686f72697a65644163636f756e7400000000000000000000000000600082015250565b60006200039d60138362000354565b9150620003aa8262000365565b602082019050919050565b60006020820190508181036000830152620003d0816200038e565b9050919050565b61167980620003e76000396000f3fe608060405234801561001057600080fd5b50600436106100b45760003560e01c8063693ec85e11610071578063693ec85e146101a157806391d14854146101d15780639cdeba9514610201578063aa8d24c31461021f578063c5b951901461023b578063d547741f1461026b576100b4565b80630437a9a9146100b957806307d81e7b146100d5578063248a9ca3146101055780632a0acc6a146101355780632f2ff15d146101535780634e7a23ba14610183575b600080fd5b6100d360048036038101906100ce919061101e565b61029b565b005b6100ef60048036038101906100ea9190611096565b6103d5565b6040516100fc91906110ee565b60405180910390f35b61011f600480360381019061011a919061113f565b61066c565b60405161012c919061117b565b60405180910390f35b61013d61068b565b60405161014a919061117b565b60405180910390f35b61016d60048036038101906101689190611196565b610692565b60405161017a91906111e5565b60405180910390f35b61018b610791565b604051610198919061117b565b60405180910390f35b6101bb60048036038101906101b69190611096565b6107b5565b6040516101c89190611431565b60405180910390f35b6101eb60048036038101906101e69190611196565b610a1b565b6040516101f891906111e5565b60405180910390f35b610209610a85565b604051610216919061117b565b60405180910390f35b61023960048036038101906102349190611453565b610a8c565b005b6102556004803603810190610250919061113f565b610ac9565b60405161026291906111e5565b60405180910390f35b61028560048036038101906102809190611196565b610b1d565b60405161029291906111e5565b60405180910390f35b7fde578090ec646877a6b707d83ea8139dac8a43d4dea437aa209801b10c1b26b56102c581610ac9565b506001836040516102d691906114bc565b90815260200160405180910390208290806001815401808255809150506001900390600052602060002090600502016000909190919091506000820151816000016000820151816000019080519060200190610333929190610c1b565b506020820151816001015560408201518160020160006101000a81548173ffffffffffffffffffffffffffffffffffffffff021916908373ffffffffffffffffffffffffffffffffffffffff16021790555060608201518160020160146101000a81548160ff02191690831515021790555050506020820151816003015560408201518160040190805190602001906103cd929190610c1b565b505050505050565b60007fde578090ec646877a6b707d83ea8139dac8a43d4dea437aa209801b10c1b26b561040181610ac9565b50600060018460405161041491906114bc565b9081526020016040518091039020805480602002602001604051908101604052809291908181526020016000905b8282101561063157838290600052602060002090600502016040518060600160405290816000820160405180608001604052908160008201805461048590611502565b80601f01602080910402602001604051908101604052809291908181526020018280546104b190611502565b80156104fe5780601f106104d3576101008083540402835291602001916104fe565b820191906000526020600020905b8154815290600101906020018083116104e157829003601f168201915b50505050508152602001600182015481526020016002820160009054906101000a900473ffffffffffffffffffffffffffffffffffffffff1673ffffffffffffffffffffffffffffffffffffffff1673ffffffffffffffffffffffffffffffffffffffff1681526020016002820160149054906101000a900460ff1615151515815250508152602001600382015481526020016004820180546105a090611502565b80601f01602080910402602001604051908101604052809291908181526020018280546105cc90611502565b80156106195780601f106105ee57610100808354040283529160200191610619565b820191906000526020600020905b8154815290600101906020018083116105fc57829003601f168201915b50505050508152505081526020019060010190610442565b50505050905080600182516106469190611563565b8151811061065757610656611597565b5b60200260200101516020015192505050919050565b6000806000838152602001908152602001600020600101549050919050565b6000801b81565b600061069d8361066c565b6106a681610ac9565b506106b18484610a1b565b156106bf576000915061078a565b600160008086815260200190815260200160002060000160008573ffffffffffffffffffffffffffffffffffffffff1673ffffffffffffffffffffffffffffffffffffffff16815260200190815260200160002060006101000a81548160ff0219169083151502179055503373ffffffffffffffffffffffffffffffffffffffff168373ffffffffffffffffffffffffffffffffffffffff16857f2f8788117e7eff1d82e926ec794901d17c78024a50270940304540a733656f0d60405160405180910390a4600191505b5092915050565b7fde578090ec646877a6b707d83ea8139dac8a43d4dea437aa209801b10c1b26b581565b60607fde578090ec646877a6b707d83ea8139dac8a43d4dea437aa209801b10c1b26b56107e181610ac9565b506001836040516107f291906114bc565b9081526020016040518091039020805480602002602001604051908101604052809291908181526020016000905b82821015610a0f57838290600052602060002090600502016040518060600160405290816000820160405180608001604052908160008201805461086390611502565b80601f016020809104026020016040519081016040528092919081815260200182805461088f90611502565b80156108dc5780601f106108b1576101008083540402835291602001916108dc565b820191906000526020600020905b8154815290600101906020018083116108bf57829003601f168201915b50505050508152602001600182015481526020016002820160009054906101000a900473ffffffffffffffffffffffffffffffffffffffff1673ffffffffffffffffffffffffffffffffffffffff1673ffffffffffffffffffffffffffffffffffffffff1681526020016002820160149054906101000a900460ff16151515158152505081526020016003820154815260200160048201805461097e90611502565b80601f01602080910402602001604051908101604052809291908181526020018280546109aa90611502565b80156109f75780601f106109cc576101008083540402835291602001916109f7565b820191906000526020600020905b8154815290600101906020018083116109da57829003601f168201915b50505050508152505081526020019060010190610820565b50505050915050919050565b600080600084815260200190815260200160002060000160008373ffffffffffffffffffffffffffffffffffffffff1673ffffffffffffffffffffffffffffffffffffffff16815260200190815260200160002060009054906101000a900460ff16905092915050565b6000801b81565b6000801b610a9981610ac9565b50610ac47fde578090ec646877a6b707d83ea8139dac8a43d4dea437aa209801b10c1b26b583610692565b505050565b6000610ad58233610a1b565b610b14576040517f08c379a0000000000000000000000000000000000000000000000000000000008152600401610b0b90611623565b60405180910390fd5b60019050919050565b6000610b288361066c565b610b3181610ac9565b50610b3c8484610a1b565b610b495760009150610c14565b600080600086815260200190815260200160002060000160008573ffffffffffffffffffffffffffffffffffffffff1673ffffffffffffffffffffffffffffffffffffffff16815260200190815260200160002060006101000a81548160ff0219169083151502179055503373ffffffffffffffffffffffffffffffffffffffff168373ffffffffffffffffffffffffffffffffffffffff16857ff6391f5c32d9c69d2a47ea670b442974b53935d1edc7fd64eb21e047a839171b60405160405180910390a4600191505b5092915050565b828054610c2790611502565b90600052602060002090601f016020900481019282610c495760008555610c90565b82601f10610c6257805160ff1916838001178555610c90565b82800160010185558215610c90579182015b82811115610c8f578251825591602001919060010190610c74565b5b509050610c9d9190610ca1565b5090565b5b80821115610cba576000816000905550600101610ca2565b5090565b6000604051905090565b600080fd5b600080fd5b600080fd5b600080fd5b6000601f19601f8301169050919050565b7f4e487b7100000000000000000000000000000000000000000000000000000000600052604160045260246000fd5b610d2582610cdc565b810181811067ffffffffffffffff82111715610d4457610d43610ced565b5b80604052505050565b6000610d57610cbe565b9050610d638282610d1c565b919050565b600067ffffffffffffffff821115610d8357610d82610ced565b5b610d8c82610cdc565b9050602081019050919050565b82818337600083830152505050565b6000610dbb610db684610d68565b610d4d565b905082815260208101848484011115610dd757610dd6610cd7565b5b610de2848285610d99565b509392505050565b600082601f830112610dff57610dfe610cd2565b5b8135610e0f848260208601610da8565b91505092915050565b600080fd5b600080fd5b6000819050919050565b610e3581610e22565b8114610e4057600080fd5b50565b600081359050610e5281610e2c565b92915050565b600073ffffffffffffffffffffffffffffffffffffffff82169050919050565b6000610e8382610e58565b9050919050565b610e9381610e78565b8114610e9e57600080fd5b50565b600081359050610eb081610e8a565b92915050565b60008115159050919050565b610ecb81610eb6565b8114610ed657600080fd5b50565b600081359050610ee881610ec2565b92915050565b600060808284031215610f0457610f03610e18565b5b610f0e6080610d4d565b9050600082013567ffffffffffffffff811115610f2e57610f2d610e1d565b5b610f3a84828501610dea565b6000830152506020610f4e84828501610e43565b6020830152506040610f6284828501610ea1565b6040830152506060610f7684828501610ed9565b60608301525092915050565b600060608284031215610f9857610f97610e18565b5b610fa26060610d4d565b9050600082013567ffffffffffffffff811115610fc257610fc1610e1d565b5b610fce84828501610eee565b6000830152506020610fe284828501610e43565b602083015250604082013567ffffffffffffffff81111561100657611005610e1d565b5b61101284828501610dea565b60408301525092915050565b6000806040838503121561103557611034610cc8565b5b600083013567ffffffffffffffff81111561105357611052610ccd565b5b61105f85828601610dea565b925050602083013567ffffffffffffffff8111156110805761107f610ccd565b5b61108c85828601610f82565b9150509250929050565b6000602082840312156110ac576110ab610cc8565b5b600082013567ffffffffffffffff8111156110ca576110c9610ccd565b5b6110d684828501610dea565b91505092915050565b6110e881610e22565b82525050565b600060208201905061110360008301846110df565b92915050565b6000819050919050565b61111c81611109565b811461112757600080fd5b50565b60008135905061113981611113565b92915050565b60006020828403121561115557611154610cc8565b5b60006111638482850161112a565b91505092915050565b61117581611109565b82525050565b6000602082019050611190600083018461116c565b92915050565b600080604083850312156111ad576111ac610cc8565b5b60006111bb8582860161112a565b92505060206111cc85828601610ea1565b9150509250929050565b6111df81610eb6565b82525050565b60006020820190506111fa60008301846111d6565b92915050565b600081519050919050565b600082825260208201905092915050565b6000819050602082019050919050565b600081519050919050565b600082825260208201905092915050565b60005b8381101561126657808201518184015260208101905061124b565b83811115611275576000848401525b50505050565b60006112868261122c565b6112908185611237565b93506112a0818560208601611248565b6112a981610cdc565b840191505092915050565b6112bd81610e22565b82525050565b6112cc81610e78565b82525050565b6112db81610eb6565b82525050565b600060808301600083015184820360008601526112fe828261127b565b915050602083015161131360208601826112b4565b50604083015161132660408601826112c3565b50606083015161133960608601826112d2565b508091505092915050565b6000606083016000830151848203600086015261136182826112e1565b915050602083015161137660208601826112b4565b506040830151848203604086015261138e828261127b565b9150508091505092915050565b60006113a78383611344565b905092915050565b6000602082019050919050565b60006113c782611200565b6113d1818561120b565b9350836020820285016113e38561121c565b8060005b8581101561141f5784840389528151611400858261139b565b945061140b836113af565b925060208a019950506001810190506113e7565b50829750879550505050505092915050565b6000602082019050818103600083015261144b81846113bc565b905092915050565b60006020828403121561146957611468610cc8565b5b600061147784828501610ea1565b91505092915050565b600081905092915050565b60006114968261122c565b6114a08185611480565b93506114b0818560208601611248565b80840191505092915050565b60006114c8828461148b565b915081905092915050565b7f4e487b7100000000000000000000000000000000000000000000000000000000600052602260045260246000fd5b6000600282049050600182168061151a57607f821691505b6020821081141561152e5761152d6114d3565b5b50919050565b7f4e487b7100000000000000000000000000000000000000000000000000000000600052601160045260246000fd5b600061156e82610e22565b915061157983610e22565b92508282101561158c5761158b611534565b5b828203905092915050565b7f4e487b7100000000000000000000000000000000000000000000000000000000600052603260045260246000fd5b600082825260208201905092915050565b7f556e417574686f72697a65644163636f756e7400000000000000000000000000600082015250565b600061160d6013836115c6565b9150611618826115d7565b602082019050919050565b6000602082019050818103600083015261163c81611600565b905091905056fea264697066735822122049181b91c490c8d3187eca4778c3ad5f01be1e24b47a8c96afdec1212c4c147164736f6c634300080b0033",
					"opcodes": "PUSH1 0x80 PUSH1 0x40 MSTORE CALLVALUE DUP1 ISZERO PUSH3 0x11 JUMPI PUSH1 0x0 DUP1 REVERT JUMPDEST POP CALLER PUSH1 0x1 PUSH1 0x0 DUP1 DUP1 PUSH1 0x0 SHL DUP2 MSTORE PUSH1 0x20 ADD SWAP1 DUP2 MSTORE PUSH1 0x20 ADD PUSH1 0x0 KECCAK256 PUSH1 0x0 ADD PUSH1 0x0 DUP4 PUSH20 0xFFFFFFFFFFFFFFFFFFFFFFFFFFFFFFFFFFFFFFFF AND PUSH20 0xFFFFFFFFFFFFFFFFFFFFFFFFFFFFFFFFFFFFFFFF AND DUP2 MSTORE PUSH1 0x20 ADD SWAP1 DUP2 MSTORE PUSH1 0x20 ADD PUSH1 0x0 KECCAK256 PUSH1 0x0 PUSH2 0x100 EXP DUP2 SLOAD DUP2 PUSH1 0xFF MUL NOT AND SWAP1 DUP4 ISZERO ISZERO MUL OR SWAP1 SSTORE POP POP PUSH3 0xB7 PUSH32 0xDE578090EC646877A6B707D83EA8139DAC8A43D4DEA437AA209801B10C1B26B5 PUSH1 0x0 DUP1 SHL PUSH3 0xF0 PUSH1 0x20 SHL PUSH1 0x20 SHR JUMP JUMPDEST PUSH3 0xE9 PUSH32 0xDE578090EC646877A6B707D83EA8139DAC8A43D4DEA437AA209801B10C1B26B5 CALLER PUSH3 0x153 PUSH1 0x20 SHL PUSH1 0x20 SHR JUMP JUMPDEST POP PUSH3 0x3D7 JUMP JUMPDEST PUSH1 0x0 PUSH3 0x103 DUP4 PUSH3 0x26C PUSH1 0x20 SHL PUSH1 0x20 SHR JUMP JUMPDEST SWAP1 POP DUP2 PUSH1 0x0 DUP1 DUP6 DUP2 MSTORE PUSH1 0x20 ADD SWAP1 DUP2 MSTORE PUSH1 0x20 ADD PUSH1 0x0 KECCAK256 PUSH1 0x1 ADD DUP2 SWAP1 SSTORE POP DUP2 DUP2 DUP5 PUSH32 0xBD79B86FFE0AB8E8776151514217CD7CACD52C909F66475C3AF44E129F0B00FF PUSH1 0x40 MLOAD PUSH1 0x40 MLOAD DUP1 SWAP2 SUB SWAP1 LOG4 POP POP POP JUMP JUMPDEST PUSH1 0x0 PUSH3 0x166 DUP4 PUSH3 0x26C PUSH1 0x20 SHL PUSH1 0x20 SHR JUMP JUMPDEST PUSH3 0x177 DUP2 PUSH3 0x28B PUSH1 0x20 SHL PUSH1 0x20 SHR JUMP JUMPDEST POP PUSH3 0x18A DUP5 DUP5 PUSH3 0x2EA PUSH1 0x20 SHL PUSH1 0x20 SHR JUMP JUMPDEST ISZERO PUSH3 0x19A JUMPI PUSH1 0x0 SWAP2 POP PUSH3 0x265 JUMP JUMPDEST PUSH1 0x1 PUSH1 0x0 DUP1 DUP7 DUP2 MSTORE PUSH1 0x20 ADD SWAP1 DUP2 MSTORE PUSH1 0x20 ADD PUSH1 0x0 KECCAK256 PUSH1 0x0 ADD PUSH1 0x0 DUP6 PUSH20 0xFFFFFFFFFFFFFFFFFFFFFFFFFFFFFFFFFFFFFFFF AND PUSH20 0xFFFFFFFFFFFFFFFFFFFFFFFFFFFFFFFFFFFFFFFF AND DUP2 MSTORE PUSH1 0x20 ADD SWAP1 DUP2 MSTORE PUSH1 0x20 ADD PUSH1 0x0 KECCAK256 PUSH1 0x0 PUSH2 0x100 EXP DUP2 SLOAD DUP2 PUSH1 0xFF MUL NOT AND SWAP1 DUP4 ISZERO ISZERO MUL OR SWAP1 SSTORE POP CALLER PUSH20 0xFFFFFFFFFFFFFFFFFFFFFFFFFFFFFFFFFFFFFFFF AND DUP4 PUSH20 0xFFFFFFFFFFFFFFFFFFFFFFFFFFFFFFFFFFFFFFFF AND DUP6 PUSH32 0x2F8788117E7EFF1D82E926EC794901D17C78024A50270940304540A733656F0D PUSH1 0x40 MLOAD PUSH1 0x40 MLOAD DUP1 SWAP2 SUB SWAP1 LOG4 PUSH1 0x1 SWAP2 POP JUMPDEST POP SWAP3 SWAP2 POP POP JUMP JUMPDEST PUSH1 0x0 DUP1 PUSH1 0x0 DUP4 DUP2 MSTORE PUSH1 0x20 ADD SWAP1 DUP2 MSTORE PUSH1 0x20 ADD PUSH1 0x0 KECCAK256 PUSH1 0x1 ADD SLOAD SWAP1 POP SWAP2 SWAP1 POP JUMP JUMPDEST PUSH1 0x0 PUSH3 0x29F DUP3 CALLER PUSH3 0x2EA PUSH1 0x20 SHL PUSH1 0x20 SHR JUMP JUMPDEST PUSH3 0x2E1 JUMPI PUSH1 0x40 MLOAD PUSH32 0x8C379A000000000000000000000000000000000000000000000000000000000 DUP2 MSTORE PUSH1 0x4 ADD PUSH3 0x2D8 SWAP1 PUSH3 0x3B5 JUMP JUMPDEST PUSH1 0x40 MLOAD DUP1 SWAP2 SUB SWAP1 REVERT JUMPDEST PUSH1 0x1 SWAP1 POP SWAP2 SWAP1 POP JUMP JUMPDEST PUSH1 0x0 DUP1 PUSH1 0x0 DUP5 DUP2 MSTORE PUSH1 0x20 ADD SWAP1 DUP2 MSTORE PUSH1 0x20 ADD PUSH1 0x0 KECCAK256 PUSH1 0x0 ADD PUSH1 0x0 DUP4 PUSH20 0xFFFFFFFFFFFFFFFFFFFFFFFFFFFFFFFFFFFFFFFF AND PUSH20 0xFFFFFFFFFFFFFFFFFFFFFFFFFFFFFFFFFFFFFFFF AND DUP2 MSTORE PUSH1 0x20 ADD SWAP1 DUP2 MSTORE PUSH1 0x20 ADD PUSH1 0x0 KECCAK256 PUSH1 0x0 SWAP1 SLOAD SWAP1 PUSH2 0x100 EXP SWAP1 DIV PUSH1 0xFF AND SWAP1 POP SWAP3 SWAP2 POP POP JUMP JUMPDEST PUSH1 0x0 DUP3 DUP3 MSTORE PUSH1 0x20 DUP3 ADD SWAP1 POP SWAP3 SWAP2 POP POP JUMP JUMPDEST PUSH32 0x556E417574686F72697A65644163636F756E7400000000000000000000000000 PUSH1 0x0 DUP3 ADD MSTORE POP JUMP JUMPDEST PUSH1 0x0 PUSH3 0x39D PUSH1 0x13 DUP4 PUSH3 0x354 JUMP JUMPDEST SWAP2 POP PUSH3 0x3AA DUP3 PUSH3 0x365 JUMP JUMPDEST PUSH1 0x20 DUP3 ADD SWAP1 POP SWAP2 SWAP1 POP JUMP JUMPDEST PUSH1 0x0 PUSH1 0x20 DUP3 ADD SWAP1 POP DUP2 DUP2 SUB PUSH1 0x0 DUP4 ADD MSTORE PUSH3 0x3D0 DUP2 PUSH3 0x38E JUMP JUMPDEST SWAP1 POP SWAP2 SWAP1 POP JUMP JUMPDEST PUSH2 0x1679 DUP1 PUSH3 0x3E7 PUSH1 0x0 CODECOPY PUSH1 0x0 RETURN INVALID PUSH1 0x80 PUSH1 0x40 MSTORE CALLVALUE DUP1 ISZERO PUSH2 0x10 JUMPI PUSH1 0x0 DUP1 REVERT JUMPDEST POP PUSH1 0x4 CALLDATASIZE LT PUSH2 0xB4 JUMPI PUSH1 0x0 CALLDATALOAD PUSH1 0xE0 SHR DUP1 PUSH4 0x693EC85E GT PUSH2 0x71 JUMPI DUP1 PUSH4 0x693EC85E EQ PUSH2 0x1A1 JUMPI DUP1 PUSH4 0x91D14854 EQ PUSH2 0x1D1 JUMPI DUP1 PUSH4 0x9CDEBA95 EQ PUSH2 0x201 JUMPI DUP1 PUSH4 0xAA8D24C3 EQ PUSH2 0x21F JUMPI DUP1 PUSH4 0xC5B95190 EQ PUSH2 0x23B JUMPI DUP1 PUSH4 0xD547741F EQ PUSH2 0x26B JUMPI PUSH2 0xB4 JUMP JUMPDEST DUP1 PUSH4 0x437A9A9 EQ PUSH2 0xB9 JUMPI DUP1 PUSH4 0x7D81E7B EQ PUSH2 0xD5 JUMPI DUP1 PUSH4 0x248A9CA3 EQ PUSH2 0x105 JUMPI DUP1 PUSH4 0x2A0ACC6A EQ PUSH2 0x135 JUMPI DUP1 PUSH4 0x2F2FF15D EQ PUSH2 0x153 JUMPI DUP1 PUSH4 0x4E7A23BA EQ PUSH2 0x183 JUMPI JUMPDEST PUSH1 0x0 DUP1 REVERT JUMPDEST PUSH2 0xD3 PUSH1 0x4 DUP1 CALLDATASIZE SUB DUP2 ADD SWAP1 PUSH2 0xCE SWAP2 SWAP1 PUSH2 0x101E JUMP JUMPDEST PUSH2 0x29B JUMP JUMPDEST STOP JUMPDEST PUSH2 0xEF PUSH1 0x4 DUP1 CALLDATASIZE SUB DUP2 ADD SWAP1 PUSH2 0xEA SWAP2 SWAP1 PUSH2 0x1096 JUMP JUMPDEST PUSH2 0x3D5 JUMP JUMPDEST PUSH1 0x40 MLOAD PUSH2 0xFC SWAP2 SWAP1 PUSH2 0x10EE JUMP JUMPDEST PUSH1 0x40 MLOAD DUP1 SWAP2 SUB SWAP1 RETURN JUMPDEST PUSH2 0x11F PUSH1 0x4 DUP1 CALLDATASIZE SUB DUP2 ADD SWAP1 PUSH2 0x11A SWAP2 SWAP1 PUSH2 0x113F JUMP JUMPDEST PUSH2 0x66C JUMP JUMPDEST PUSH1 0x40 MLOAD PUSH2 0x12C SWAP2 SWAP1 PUSH2 0x117B JUMP JUMPDEST PUSH1 0x40 MLOAD DUP1 SWAP2 SUB SWAP1 RETURN JUMPDEST PUSH2 0x13D PUSH2 0x68B JUMP JUMPDEST PUSH1 0x40 MLOAD PUSH2 0x14A SWAP2 SWAP1 PUSH2 0x117B JUMP JUMPDEST PUSH1 0x40 MLOAD DUP1 SWAP2 SUB SWAP1 RETURN JUMPDEST PUSH2 0x16D PUSH1 0x4 DUP1 CALLDATASIZE SUB DUP2 ADD SWAP1 PUSH2 0x168 SWAP2 SWAP1 PUSH2 0x1196 JUMP JUMPDEST PUSH2 0x692 JUMP JUMPDEST PUSH1 0x40 MLOAD PUSH2 0x17A SWAP2 SWAP1 PUSH2 0x11E5 JUMP JUMPDEST PUSH1 0x40 MLOAD DUP1 SWAP2 SUB SWAP1 RETURN JUMPDEST PUSH2 0x18B PUSH2 0x791 JUMP JUMPDEST PUSH1 0x40 MLOAD PUSH2 0x198 SWAP2 SWAP1 PUSH2 0x117B JUMP JUMPDEST PUSH1 0x40 MLOAD DUP1 SWAP2 SUB SWAP1 RETURN JUMPDEST PUSH2 0x1BB PUSH1 0x4 DUP1 CALLDATASIZE SUB DUP2 ADD SWAP1 PUSH2 0x1B6 SWAP2 SWAP1 PUSH2 0x1096 JUMP JUMPDEST PUSH2 0x7B5 JUMP JUMPDEST PUSH1 0x40 MLOAD PUSH2 0x1C8 SWAP2 SWAP1 PUSH2 0x1431 JUMP JUMPDEST PUSH1 0x40 MLOAD DUP1 SWAP2 SUB SWAP1 RETURN JUMPDEST PUSH2 0x1EB PUSH1 0x4 DUP1 CALLDATASIZE SUB DUP2 ADD SWAP1 PUSH2 0x1E6 SWAP2 SWAP1 PUSH2 0x1196 JUMP JUMPDEST PUSH2 0xA1B JUMP JUMPDEST PUSH1 0x40 MLOAD PUSH2 0x1F8 SWAP2 SWAP1 PUSH2 0x11E5 JUMP JUMPDEST PUSH1 0x40 MLOAD DUP1 SWAP2 SUB SWAP1 RETURN JUMPDEST PUSH2 0x209 PUSH2 0xA85 JUMP JUMPDEST PUSH1 0x40 MLOAD PUSH2 0x216 SWAP2 SWAP1 PUSH2 0x117B JUMP JUMPDEST PUSH1 0x40 MLOAD DUP1 SWAP2 SUB SWAP1 RETURN JUMPDEST PUSH2 0x239 PUSH1 0x4 DUP1 CALLDATASIZE SUB DUP2 ADD SWAP1 PUSH2 0x234 SWAP2 SWAP1 PUSH2 0x1453 JUMP JUMPDEST PUSH2 0xA8C JUMP JUMPDEST STOP JUMPDEST PUSH2 0x255 PUSH1 0x4 DUP1 CALLDATASIZE SUB DUP2 ADD SWAP1 PUSH2 0x250 SWAP2 SWAP1 PUSH2 0x113F JUMP JUMPDEST PUSH2 0xAC9 JUMP JUMPDEST PUSH1 0x40 MLOAD PUSH2 0x262 SWAP2 SWAP1 PUSH2 0x11E5 JUMP JUMPDEST PUSH1 0x40 MLOAD DUP1 SWAP2 SUB SWAP1 RETURN JUMPDEST PUSH2 0x285 PUSH1 0x4 DUP1 CALLDATASIZE SUB DUP2 ADD SWAP1 PUSH2 0x280 SWAP2 SWAP1 PUSH2 0x1196 JUMP JUMPDEST PUSH2 0xB1D JUMP JUMPDEST PUSH1 0x40 MLOAD PUSH2 0x292 SWAP2 SWAP1 PUSH2 0x11E5 JUMP JUMPDEST PUSH1 0x40 MLOAD DUP1 SWAP2 SUB SWAP1 RETURN JUMPDEST PUSH32 0xDE578090EC646877A6B707D83EA8139DAC8A43D4DEA437AA209801B10C1B26B5 PUSH2 0x2C5 DUP2 PUSH2 0xAC9 JUMP JUMPDEST POP PUSH1 0x1 DUP4 PUSH1 0x40 MLOAD PUSH2 0x2D6 SWAP2 SWAP1 PUSH2 0x14BC JUMP JUMPDEST SWAP1 DUP2 MSTORE PUSH1 0x20 ADD PUSH1 0x40 MLOAD DUP1 SWAP2 SUB SWAP1 KECCAK256 DUP3 SWAP1 DUP1 PUSH1 0x1 DUP2 SLOAD ADD DUP1 DUP3 SSTORE DUP1 SWAP2 POP POP PUSH1 0x1 SWAP1 SUB SWAP1 PUSH1 0x0 MSTORE PUSH1 0x20 PUSH1 0x0 KECCAK256 SWAP1 PUSH1 0x5 MUL ADD PUSH1 0x0 SWAP1 SWAP2 SWAP1 SWAP2 SWAP1 SWAP2 POP PUSH1 0x0 DUP3 ADD MLOAD DUP2 PUSH1 0x0 ADD PUSH1 0x0 DUP3 ADD MLOAD DUP2 PUSH1 0x0 ADD SWAP1 DUP1 MLOAD SWAP1 PUSH1 0x20 ADD SWAP1 PUSH2 0x333 SWAP3 SWAP2 SWAP1 PUSH2 0xC1B JUMP JUMPDEST POP PUSH1 0x20 DUP3 ADD MLOAD DUP2 PUSH1 0x1 ADD SSTORE PUSH1 0x40 DUP3 ADD MLOAD DUP2 PUSH1 0x2 ADD PUSH1 0x0 PUSH2 0x100 EXP DUP2 SLOAD DUP2 PUSH20 0xFFFFFFFFFFFFFFFFFFFFFFFFFFFFFFFFFFFFFFFF MUL NOT AND SWAP1 DUP4 PUSH20 0xFFFFFFFFFFFFFFFFFFFFFFFFFFFFFFFFFFFFFFFF AND MUL OR SWAP1 SSTORE POP PUSH1 0x60 DUP3 ADD MLOAD DUP2 PUSH1 0x2 ADD PUSH1 0x14 PUSH2 0x100 EXP DUP2 SLOAD DUP2 PUSH1 0xFF MUL NOT AND SWAP1 DUP4 ISZERO ISZERO MUL OR SWAP1 SSTORE POP POP POP PUSH1 0x20 DUP3 ADD MLOAD DUP2 PUSH1 0x3 ADD SSTORE PUSH1 0x40 DUP3 ADD MLOAD DUP2 PUSH1 0x4 ADD SWAP1 DUP1 MLOAD SWAP1 PUSH1 0x20 ADD SWAP1 PUSH2 0x3CD SWAP3 SWAP2 SWAP1 PUSH2 0xC1B JUMP JUMPDEST POP POP POP POP POP POP JUMP JUMPDEST PUSH1 0x0 PUSH32 0xDE578090EC646877A6B707D83EA8139DAC8A43D4DEA437AA209801B10C1B26B5 PUSH2 0x401 DUP2 PUSH2 0xAC9 JUMP JUMPDEST POP PUSH1 0x0 PUSH1 0x1 DUP5 PUSH1 0x40 MLOAD PUSH2 0x414 SWAP2 SWAP1 PUSH2 0x14BC JUMP JUMPDEST SWAP1 DUP2 MSTORE PUSH1 0x20 ADD PUSH1 0x40 MLOAD DUP1 SWAP2 SUB SWAP1 KECCAK256 DUP1 SLOAD DUP1 PUSH1 0x20 MUL PUSH1 0x20 ADD PUSH1 0x40 MLOAD SWAP1 DUP2 ADD PUSH1 0x40 MSTORE DUP1 SWAP3 SWAP2 SWAP1 DUP2 DUP2 MSTORE PUSH1 0x20 ADD PUSH1 0x0 SWAP1 JUMPDEST DUP3 DUP3 LT ISZERO PUSH2 0x631 JUMPI DUP4 DUP3 SWAP1 PUSH1 0x0 MSTORE PUSH1 0x20 PUSH1 0x0 KECCAK256 SWAP1 PUSH1 0x5 MUL ADD PUSH1 0x40 MLOAD DUP1 PUSH1 0x60 ADD PUSH1 0x40 MSTORE SWAP1 DUP2 PUSH1 0x0 DUP3 ADD PUSH1 0x40 MLOAD DUP1 PUSH1 0x80 ADD PUSH1 0x40 MSTORE SWAP1 DUP2 PUSH1 0x0 DUP3 ADD DUP1 SLOAD PUSH2 0x485 SWAP1 PUSH2 0x1502 JUMP JUMPDEST DUP1 PUSH1 0x1F ADD PUSH1 0x20 DUP1 SWAP2 DIV MUL PUSH1 0x20 ADD PUSH1 0x40 MLOAD SWAP1 DUP2 ADD PUSH1 0x40 MSTORE DUP1 SWAP3 SWAP2 SWAP1 DUP2 DUP2 MSTORE PUSH1 0x20 ADD DUP3 DUP1 SLOAD PUSH2 0x4B1 SWAP1 PUSH2 0x1502 JUMP JUMPDEST DUP1 ISZERO PUSH2 0x4FE JUMPI DUP1 PUSH1 0x1F LT PUSH2 0x4D3 JUMPI PUSH2 0x100 DUP1 DUP4 SLOAD DIV MUL DUP4 MSTORE SWAP2 PUSH1 0x20 ADD SWAP2 PUSH2 0x4FE JUMP JUMPDEST DUP3 ADD SWAP2 SWAP1 PUSH1 0x0 MSTORE PUSH1 0x20 PUSH1 0x0 KECCAK256 SWAP1 JUMPDEST DUP2 SLOAD DUP2 MSTORE SWAP1 PUSH1 0x1 ADD SWAP1 PUSH1 0x20 ADD DUP1 DUP4 GT PUSH2 0x4E1 JUMPI DUP3 SWAP1 SUB PUSH1 0x1F AND DUP3 ADD SWAP2 JUMPDEST POP POP POP POP POP DUP2 MSTORE PUSH1 0x20 ADD PUSH1 0x1 DUP3 ADD SLOAD DUP2 MSTORE PUSH1 0x20 ADD PUSH1 0x2 DUP3 ADD PUSH1 0x0 SWAP1 SLOAD SWAP1 PUSH2 0x100 EXP SWAP1 DIV PUSH20 0xFFFFFFFFFFFFFFFFFFFFFFFFFFFFFFFFFFFFFFFF AND PUSH20 0xFFFFFFFFFFFFFFFFFFFFFFFFFFFFFFFFFFFFFFFF AND PUSH20 0xFFFFFFFFFFFFFFFFFFFFFFFFFFFFFFFFFFFFFFFF AND DUP2 MSTORE PUSH1 0x20 ADD PUSH1 0x2 DUP3 ADD PUSH1 0x14 SWAP1 SLOAD SWAP1 PUSH2 0x100 EXP SWAP1 DIV PUSH1 0xFF AND ISZERO ISZERO ISZERO ISZERO DUP2 MSTORE POP POP DUP2 MSTORE PUSH1 0x20 ADD PUSH1 0x3 DUP3 ADD SLOAD DUP2 MSTORE PUSH1 0x20 ADD PUSH1 0x4 DUP3 ADD DUP1 SLOAD PUSH2 0x5A0 SWAP1 PUSH2 0x1502 JUMP JUMPDEST DUP1 PUSH1 0x1F ADD PUSH1 0x20 DUP1 SWAP2 DIV MUL PUSH1 0x20 ADD PUSH1 0x40 MLOAD SWAP1 DUP2 ADD PUSH1 0x40 MSTORE DUP1 SWAP3 SWAP2 SWAP1 DUP2 DUP2 MSTORE PUSH1 0x20 ADD DUP3 DUP1 SLOAD PUSH2 0x5CC SWAP1 PUSH2 0x1502 JUMP JUMPDEST DUP1 ISZERO PUSH2 0x619 JUMPI DUP1 PUSH1 0x1F LT PUSH2 0x5EE JUMPI PUSH2 0x100 DUP1 DUP4 SLOAD DIV MUL DUP4 MSTORE SWAP2 PUSH1 0x20 ADD SWAP2 PUSH2 0x619 JUMP JUMPDEST DUP3 ADD SWAP2 SWAP1 PUSH1 0x0 MSTORE PUSH1 0x20 PUSH1 0x0 KECCAK256 SWAP1 JUMPDEST DUP2 SLOAD DUP2 MSTORE SWAP1 PUSH1 0x1 ADD SWAP1 PUSH1 0x20 ADD DUP1 DUP4 GT PUSH2 0x5FC JUMPI DUP3 SWAP1 SUB PUSH1 0x1F AND DUP3 ADD SWAP2 JUMPDEST POP POP POP POP POP DUP2 MSTORE POP POP DUP2 MSTORE PUSH1 0x20 ADD SWAP1 PUSH1 0x1 ADD SWAP1 PUSH2 0x442 JUMP JUMPDEST POP POP POP POP SWAP1 POP DUP1 PUSH1 0x1 DUP3 MLOAD PUSH2 0x646 SWAP2 SWAP1 PUSH2 0x1563 JUMP JUMPDEST DUP2 MLOAD DUP2 LT PUSH2 0x657 JUMPI PUSH2 0x656 PUSH2 0x1597 JUMP JUMPDEST JUMPDEST PUSH1 0x20 MUL PUSH1 0x20 ADD ADD MLOAD PUSH1 0x20 ADD MLOAD SWAP3 POP POP POP SWAP2 SWAP1 POP JUMP JUMPDEST PUSH1 0x0 DUP1 PUSH1 0x0 DUP4 DUP2 MSTORE PUSH1 0x20 ADD SWAP1 DUP2 MSTORE PUSH1 0x20 ADD PUSH1 0x0 KECCAK256 PUSH1 0x1 ADD SLOAD SWAP1 POP SWAP2 SWAP1 POP JUMP JUMPDEST PUSH1 0x0 DUP1 SHL DUP2 JUMP JUMPDEST PUSH1 0x0 PUSH2 0x69D DUP4 PUSH2 0x66C JUMP JUMPDEST PUSH2 0x6A6 DUP2 PUSH2 0xAC9 JUMP JUMPDEST POP PUSH2 0x6B1 DUP5 DUP5 PUSH2 0xA1B JUMP JUMPDEST ISZERO PUSH2 0x6BF JUMPI PUSH1 0x0 SWAP2 POP PUSH2 0x78A JUMP JUMPDEST PUSH1 0x1 PUSH1 0x0 DUP1 DUP7 DUP2 MSTORE PUSH1 0x20 ADD SWAP1 DUP2 MSTORE PUSH1 0x20 ADD PUSH1 0x0 KECCAK256 PUSH1 0x0 ADD PUSH1 0x0 DUP6 PUSH20 0xFFFFFFFFFFFFFFFFFFFFFFFFFFFFFFFFFFFFFFFF AND PUSH20 0xFFFFFFFFFFFFFFFFFFFFFFFFFFFFFFFFFFFFFFFF AND DUP2 MSTORE PUSH1 0x20 ADD SWAP1 DUP2 MSTORE PUSH1 0x20 ADD PUSH1 0x0 KECCAK256 PUSH1 0x0 PUSH2 0x100 EXP DUP2 SLOAD DUP2 PUSH1 0xFF MUL NOT AND SWAP1 DUP4 ISZERO ISZERO MUL OR SWAP1 SSTORE POP CALLER PUSH20 0xFFFFFFFFFFFFFFFFFFFFFFFFFFFFFFFFFFFFFFFF AND DUP4 PUSH20 0xFFFFFFFFFFFFFFFFFFFFFFFFFFFFFFFFFFFFFFFF AND DUP6 PUSH32 0x2F8788117E7EFF1D82E926EC794901D17C78024A50270940304540A733656F0D PUSH1 0x40 MLOAD PUSH1 0x40 MLOAD DUP1 SWAP2 SUB SWAP1 LOG4 PUSH1 0x1 SWAP2 POP JUMPDEST POP SWAP3 SWAP2 POP POP JUMP JUMPDEST PUSH32 0xDE578090EC646877A6B707D83EA8139DAC8A43D4DEA437AA209801B10C1B26B5 DUP2 JUMP JUMPDEST PUSH1 0x60 PUSH32 0xDE578090EC646877A6B707D83EA8139DAC8A43D4DEA437AA209801B10C1B26B5 PUSH2 0x7E1 DUP2 PUSH2 0xAC9 JUMP JUMPDEST POP PUSH1 0x1 DUP4 PUSH1 0x40 MLOAD PUSH2 0x7F2 SWAP2 SWAP1 PUSH2 0x14BC JUMP JUMPDEST SWAP1 DUP2 MSTORE PUSH1 0x20 ADD PUSH1 0x40 MLOAD DUP1 SWAP2 SUB SWAP1 KECCAK256 DUP1 SLOAD DUP1 PUSH1 0x20 MUL PUSH1 0x20 ADD PUSH1 0x40 MLOAD SWAP1 DUP2 ADD PUSH1 0x40 MSTORE DUP1 SWAP3 SWAP2 SWAP1 DUP2 DUP2 MSTORE PUSH1 0x20 ADD PUSH1 0x0 SWAP1 JUMPDEST DUP3 DUP3 LT ISZERO PUSH2 0xA0F JUMPI DUP4 DUP3 SWAP1 PUSH1 0x0 MSTORE PUSH1 0x20 PUSH1 0x0 KECCAK256 SWAP1 PUSH1 0x5 MUL ADD PUSH1 0x40 MLOAD DUP1 PUSH1 0x60 ADD PUSH1 0x40 MSTORE SWAP1 DUP2 PUSH1 0x0 DUP3 ADD PUSH1 0x40 MLOAD DUP1 PUSH1 0x80 ADD PUSH1 0x40 MSTORE SWAP1 DUP2 PUSH1 0x0 DUP3 ADD DUP1 SLOAD PUSH2 0x863 SWAP1 PUSH2 0x1502 JUMP JUMPDEST DUP1 PUSH1 0x1F ADD PUSH1 0x20 DUP1 SWAP2 DIV MUL PUSH1 0x20 ADD PUSH1 0x40 MLOAD SWAP1 DUP2 ADD PUSH1 0x40 MSTORE DUP1 SWAP3 SWAP2 SWAP1 DUP2 DUP2 MSTORE PUSH1 0x20 ADD DUP3 DUP1 SLOAD PUSH2 0x88F SWAP1 PUSH2 0x1502 JUMP JUMPDEST DUP1 ISZERO PUSH2 0x8DC JUMPI DUP1 PUSH1 0x1F LT PUSH2 0x8B1 JUMPI PUSH2 0x100 DUP1 DUP4 SLOAD DIV MUL DUP4 MSTORE SWAP2 PUSH1 0x20 ADD SWAP2 PUSH2 0x8DC JUMP JUMPDEST DUP3 ADD SWAP2 SWAP1 PUSH1 0x0 MSTORE PUSH1 0x20 PUSH1 0x0 KECCAK256 SWAP1 JUMPDEST DUP2 SLOAD DUP2 MSTORE SWAP1 PUSH1 0x1 ADD SWAP1 PUSH1 0x20 ADD DUP1 DUP4 GT PUSH2 0x8BF JUMPI DUP3 SWAP1 SUB PUSH1 0x1F AND DUP3 ADD SWAP2 JUMPDEST POP POP POP POP POP DUP2 MSTORE PUSH1 0x20 ADD PUSH1 0x1 DUP3 ADD SLOAD DUP2 MSTORE PUSH1 0x20 ADD PUSH1 0x2 DUP3 ADD PUSH1 0x0 SWAP1 SLOAD SWAP1 PUSH2 0x100 EXP SWAP1 DIV PUSH20 0xFFFFFFFFFFFFFFFFFFFFFFFFFFFFFFFFFFFFFFFF AND PUSH20 0xFFFFFFFFFFFFFFFFFFFFFFFFFFFFFFFFFFFFFFFF AND PUSH20 0xFFFFFFFFFFFFFFFFFFFFFFFFFFFFFFFFFFFFFFFF AND DUP2 MSTORE PUSH1 0x20 ADD PUSH1 0x2 DUP3 ADD PUSH1 0x14 SWAP1 SLOAD SWAP1 PUSH2 0x100 EXP SWAP1 DIV PUSH1 0xFF AND ISZERO ISZERO ISZERO ISZERO DUP2 MSTORE POP POP DUP2 MSTORE PUSH1 0x20 ADD PUSH1 0x3 DUP3 ADD SLOAD DUP2 MSTORE PUSH1 0x20 ADD PUSH1 0x4 DUP3 ADD DUP1 SLOAD PUSH2 0x97E SWAP1 PUSH2 0x1502 JUMP JUMPDEST DUP1 PUSH1 0x1F ADD PUSH1 0x20 DUP1 SWAP2 DIV MUL PUSH1 0x20 ADD PUSH1 0x40 MLOAD SWAP1 DUP2 ADD PUSH1 0x40 MSTORE DUP1 SWAP3 SWAP2 SWAP1 DUP2 DUP2 MSTORE PUSH1 0x20 ADD DUP3 DUP1 SLOAD PUSH2 0x9AA SWAP1 PUSH2 0x1502 JUMP JUMPDEST DUP1 ISZERO PUSH2 0x9F7 JUMPI DUP1 PUSH1 0x1F LT PUSH2 0x9CC JUMPI PUSH2 0x100 DUP1 DUP4 SLOAD DIV MUL DUP4 MSTORE SWAP2 PUSH1 0x20 ADD SWAP2 PUSH2 0x9F7 JUMP JUMPDEST DUP3 ADD SWAP2 SWAP1 PUSH1 0x0 MSTORE PUSH1 0x20 PUSH1 0x0 KECCAK256 SWAP1 JUMPDEST DUP2 SLOAD DUP2 MSTORE SWAP1 PUSH1 0x1 ADD SWAP1 PUSH1 0x20 ADD DUP1 DUP4 GT PUSH2 0x9DA JUMPI DUP3 SWAP1 SUB PUSH1 0x1F AND DUP3 ADD SWAP2 JUMPDEST POP POP POP POP POP DUP2 MSTORE POP POP DUP2 MSTORE PUSH1 0x20 ADD SWAP1 PUSH1 0x1 ADD SWAP1 PUSH2 0x820 JUMP JUMPDEST POP POP POP POP SWAP2 POP POP SWAP2 SWAP1 POP JUMP JUMPDEST PUSH1 0x0 DUP1 PUSH1 0x0 DUP5 DUP2 MSTORE PUSH1 0x20 ADD SWAP1 DUP2 MSTORE PUSH1 0x20 ADD PUSH1 0x0 KECCAK256 PUSH1 0x0 ADD PUSH1 0x0 DUP4 PUSH20 0xFFFFFFFFFFFFFFFFFFFFFFFFFFFFFFFFFFFFFFFF AND PUSH20 0xFFFFFFFFFFFFFFFFFFFFFFFFFFFFFFFFFFFFFFFF AND DUP2 MSTORE PUSH1 0x20 ADD SWAP1 DUP2 MSTORE PUSH1 0x20 ADD PUSH1 0x0 KECCAK256 PUSH1 0x0 SWAP1 SLOAD SWAP1 PUSH2 0x100 EXP SWAP1 DIV PUSH1 0xFF AND SWAP1 POP SWAP3 SWAP2 POP POP JUMP JUMPDEST PUSH1 0x0 DUP1 SHL DUP2 JUMP JUMPDEST PUSH1 0x0 DUP1 SHL PUSH2 0xA99 DUP2 PUSH2 0xAC9 JUMP JUMPDEST POP PUSH2 0xAC4 PUSH32 0xDE578090EC646877A6B707D83EA8139DAC8A43D4DEA437AA209801B10C1B26B5 DUP4 PUSH2 0x692 JUMP JUMPDEST POP POP POP JUMP JUMPDEST PUSH1 0x0 PUSH2 0xAD5 DUP3 CALLER PUSH2 0xA1B JUMP JUMPDEST PUSH2 0xB14 JUMPI PUSH1 0x40 MLOAD PUSH32 0x8C379A000000000000000000000000000000000000000000000000000000000 DUP2 MSTORE PUSH1 0x4 ADD PUSH2 0xB0B SWAP1 PUSH2 0x1623 JUMP JUMPDEST PUSH1 0x40 MLOAD DUP1 SWAP2 SUB SWAP1 REVERT JUMPDEST PUSH1 0x1 SWAP1 POP SWAP2 SWAP1 POP JUMP JUMPDEST PUSH1 0x0 PUSH2 0xB28 DUP4 PUSH2 0x66C JUMP JUMPDEST PUSH2 0xB31 DUP2 PUSH2 0xAC9 JUMP JUMPDEST POP PUSH2 0xB3C DUP5 DUP5 PUSH2 0xA1B JUMP JUMPDEST PUSH2 0xB49 JUMPI PUSH1 0x0 SWAP2 POP PUSH2 0xC14 JUMP JUMPDEST PUSH1 0x0 DUP1 PUSH1 0x0 DUP7 DUP2 MSTORE PUSH1 0x20 ADD SWAP1 DUP2 MSTORE PUSH1 0x20 ADD PUSH1 0x0 KECCAK256 PUSH1 0x0 ADD PUSH1 0x0 DUP6 PUSH20 0xFFFFFFFFFFFFFFFFFFFFFFFFFFFFFFFFFFFFFFFF AND PUSH20 0xFFFFFFFFFFFFFFFFFFFFFFFFFFFFFFFFFFFFFFFF AND DUP2 MSTORE PUSH1 0x20 ADD SWAP1 DUP2 MSTORE PUSH1 0x20 ADD PUSH1 0x0 KECCAK256 PUSH1 0x0 PUSH2 0x100 EXP DUP2 SLOAD DUP2 PUSH1 0xFF MUL NOT AND SWAP1 DUP4 ISZERO ISZERO MUL OR SWAP1 SSTORE POP CALLER PUSH20 0xFFFFFFFFFFFFFFFFFFFFFFFFFFFFFFFFFFFFFFFF AND DUP4 PUSH20 0xFFFFFFFFFFFFFFFFFFFFFFFFFFFFFFFFFFFFFFFF AND DUP6 PUSH32 0xF6391F5C32D9C69D2A47EA670B442974B53935D1EDC7FD64EB21E047A839171B PUSH1 0x40 MLOAD PUSH1 0x40 MLOAD DUP1 SWAP2 SUB SWAP1 LOG4 PUSH1 0x1 SWAP2 POP JUMPDEST POP SWAP3 SWAP2 POP POP JUMP JUMPDEST DUP3 DUP1 SLOAD PUSH2 0xC27 SWAP1 PUSH2 0x1502 JUMP JUMPDEST SWAP1 PUSH1 0x0 MSTORE PUSH1 0x20 PUSH1 0x0 KECCAK256 SWAP1 PUSH1 0x1F ADD PUSH1 0x20 SWAP1 DIV DUP2 ADD SWAP3 DUP3 PUSH2 0xC49 JUMPI PUSH1 0x0 DUP6 SSTORE PUSH2 0xC90 JUMP JUMPDEST DUP3 PUSH1 0x1F LT PUSH2 0xC62 JUMPI DUP1 MLOAD PUSH1 0xFF NOT AND DUP4 DUP1 ADD OR DUP6 SSTORE PUSH2 0xC90 JUMP JUMPDEST DUP3 DUP1 ADD PUSH1 0x1 ADD DUP6 SSTORE DUP3 ISZERO PUSH2 0xC90 JUMPI SWAP2 DUP3 ADD JUMPDEST DUP3 DUP2 GT ISZERO PUSH2 0xC8F JUMPI DUP3 MLOAD DUP3 SSTORE SWAP2 PUSH1 0x20 ADD SWAP2 SWAP1 PUSH1 0x1 ADD SWAP1 PUSH2 0xC74 JUMP JUMPDEST JUMPDEST POP SWAP1 POP PUSH2 0xC9D SWAP2 SWAP1 PUSH2 0xCA1 JUMP JUMPDEST POP SWAP1 JUMP JUMPDEST JUMPDEST DUP1 DUP3 GT ISZERO PUSH2 0xCBA JUMPI PUSH1 0x0 DUP2 PUSH1 0x0 SWAP1 SSTORE POP PUSH1 0x1 ADD PUSH2 0xCA2 JUMP JUMPDEST POP SWAP1 JUMP JUMPDEST PUSH1 0x0 PUSH1 0x40 MLOAD SWAP1 POP SWAP1 JUMP JUMPDEST PUSH1 0x0 DUP1 REVERT JUMPDEST PUSH1 0x0 DUP1 REVERT JUMPDEST PUSH1 0x0 DUP1 REVERT JUMPDEST PUSH1 0x0 DUP1 REVERT JUMPDEST PUSH1 0x0 PUSH1 0x1F NOT PUSH1 0x1F DUP4 ADD AND SWAP1 POP SWAP2 SWAP1 POP JUMP JUMPDEST PUSH32 0x4E487B7100000000000000000000000000000000000000000000000000000000 PUSH1 0x0 MSTORE PUSH1 0x41 PUSH1 0x4 MSTORE PUSH1 0x24 PUSH1 0x0 REVERT JUMPDEST PUSH2 0xD25 DUP3 PUSH2 0xCDC JUMP JUMPDEST DUP2 ADD DUP2 DUP2 LT PUSH8 0xFFFFFFFFFFFFFFFF DUP3 GT OR ISZERO PUSH2 0xD44 JUMPI PUSH2 0xD43 PUSH2 0xCED JUMP JUMPDEST JUMPDEST DUP1 PUSH1 0x40 MSTORE POP POP POP JUMP JUMPDEST PUSH1 0x0 PUSH2 0xD57 PUSH2 0xCBE JUMP JUMPDEST SWAP1 POP PUSH2 0xD63 DUP3 DUP3 PUSH2 0xD1C JUMP JUMPDEST SWAP2 SWAP1 POP JUMP JUMPDEST PUSH1 0x0 PUSH8 0xFFFFFFFFFFFFFFFF DUP3 GT ISZERO PUSH2 0xD83 JUMPI PUSH2 0xD82 PUSH2 0xCED JUMP JUMPDEST JUMPDEST PUSH2 0xD8C DUP3 PUSH2 0xCDC JUMP JUMPDEST SWAP1 POP PUSH1 0x20 DUP2 ADD SWAP1 POP SWAP2 SWAP1 POP JUMP JUMPDEST DUP3 DUP2 DUP4 CALLDATACOPY PUSH1 0x0 DUP4 DUP4 ADD MSTORE POP POP POP JUMP JUMPDEST PUSH1 0x0 PUSH2 0xDBB PUSH2 0xDB6 DUP5 PUSH2 0xD68 JUMP JUMPDEST PUSH2 0xD4D JUMP JUMPDEST SWAP1 POP DUP3 DUP2 MSTORE PUSH1 0x20 DUP2 ADD DUP5 DUP5 DUP5 ADD GT ISZERO PUSH2 0xDD7 JUMPI PUSH2 0xDD6 PUSH2 0xCD7 JUMP JUMPDEST JUMPDEST PUSH2 0xDE2 DUP5 DUP3 DUP6 PUSH2 0xD99 JUMP JUMPDEST POP SWAP4 SWAP3 POP POP POP JUMP JUMPDEST PUSH1 0x0 DUP3 PUSH1 0x1F DUP4 ADD SLT PUSH2 0xDFF JUMPI PUSH2 0xDFE PUSH2 0xCD2 JUMP JUMPDEST JUMPDEST DUP2 CALLDATALOAD PUSH2 0xE0F DUP5 DUP3 PUSH1 0x20 DUP7 ADD PUSH2 0xDA8 JUMP JUMPDEST SWAP2 POP POP SWAP3 SWAP2 POP POP JUMP JUMPDEST PUSH1 0x0 DUP1 REVERT JUMPDEST PUSH1 0x0 DUP1 REVERT JUMPDEST PUSH1 0x0 DUP2 SWAP1 POP SWAP2 SWAP1 POP JUMP JUMPDEST PUSH2 0xE35 DUP2 PUSH2 0xE22 JUMP JUMPDEST DUP2 EQ PUSH2 0xE40 JUMPI PUSH1 0x0 DUP1 REVERT JUMPDEST POP JUMP JUMPDEST PUSH1 0x0 DUP2 CALLDATALOAD SWAP1 POP PUSH2 0xE52 DUP2 PUSH2 0xE2C JUMP JUMPDEST SWAP3 SWAP2 POP POP JUMP JUMPDEST PUSH1 0x0 PUSH20 0xFFFFFFFFFFFFFFFFFFFFFFFFFFFFFFFFFFFFFFFF DUP3 AND SWAP1 POP SWAP2 SWAP1 POP JUMP JUMPDEST PUSH1 0x0 PUSH2 0xE83 DUP3 PUSH2 0xE58 JUMP JUMPDEST SWAP1 POP SWAP2 SWAP1 POP JUMP JUMPDEST PUSH2 0xE93 DUP2 PUSH2 0xE78 JUMP JUMPDEST DUP2 EQ PUSH2 0xE9E JUMPI PUSH1 0x0 DUP1 REVERT JUMPDEST POP JUMP JUMPDEST PUSH1 0x0 DUP2 CALLDATALOAD SWAP1 POP PUSH2 0xEB0 DUP2 PUSH2 0xE8A JUMP JUMPDEST SWAP3 SWAP2 POP POP JUMP JUMPDEST PUSH1 0x0 DUP2 ISZERO ISZERO SWAP1 POP SWAP2 SWAP1 POP JUMP JUMPDEST PUSH2 0xECB DUP2 PUSH2 0xEB6 JUMP JUMPDEST DUP2 EQ PUSH2 0xED6 JUMPI PUSH1 0x0 DUP1 REVERT JUMPDEST POP JUMP JUMPDEST PUSH1 0x0 DUP2 CALLDATALOAD SWAP1 POP PUSH2 0xEE8 DUP2 PUSH2 0xEC2 JUMP JUMPDEST SWAP3 SWAP2 POP POP JUMP JUMPDEST PUSH1 0x0 PUSH1 0x80 DUP3 DUP5 SUB SLT ISZERO PUSH2 0xF04 JUMPI PUSH2 0xF03 PUSH2 0xE18 JUMP JUMPDEST JUMPDEST PUSH2 0xF0E PUSH1 0x80 PUSH2 0xD4D JUMP JUMPDEST SWAP1 POP PUSH1 0x0 DUP3 ADD CALLDATALOAD PUSH8 0xFFFFFFFFFFFFFFFF DUP2 GT ISZERO PUSH2 0xF2E JUMPI PUSH2 0xF2D PUSH2 0xE1D JUMP JUMPDEST JUMPDEST PUSH2 0xF3A DUP5 DUP3 DUP6 ADD PUSH2 0xDEA JUMP JUMPDEST PUSH1 0x0 DUP4 ADD MSTORE POP PUSH1 0x20 PUSH2 0xF4E DUP5 DUP3 DUP6 ADD PUSH2 0xE43 JUMP JUMPDEST PUSH1 0x20 DUP4 ADD MSTORE POP PUSH1 0x40 PUSH2 0xF62 DUP5 DUP3 DUP6 ADD PUSH2 0xEA1 JUMP JUMPDEST PUSH1 0x40 DUP4 ADD MSTORE POP PUSH1 0x60 PUSH2 0xF76 DUP5 DUP3 DUP6 ADD PUSH2 0xED9 JUMP JUMPDEST PUSH1 0x60 DUP4 ADD MSTORE POP SWAP3 SWAP2 POP POP JUMP JUMPDEST PUSH1 0x0 PUSH1 0x60 DUP3 DUP5 SUB SLT ISZERO PUSH2 0xF98 JUMPI PUSH2 0xF97 PUSH2 0xE18 JUMP JUMPDEST JUMPDEST PUSH2 0xFA2 PUSH1 0x60 PUSH2 0xD4D JUMP JUMPDEST SWAP1 POP PUSH1 0x0 DUP3 ADD CALLDATALOAD PUSH8 0xFFFFFFFFFFFFFFFF DUP2 GT ISZERO PUSH2 0xFC2 JUMPI PUSH2 0xFC1 PUSH2 0xE1D JUMP JUMPDEST JUMPDEST PUSH2 0xFCE DUP5 DUP3 DUP6 ADD PUSH2 0xEEE JUMP JUMPDEST PUSH1 0x0 DUP4 ADD MSTORE POP PUSH1 0x20 PUSH2 0xFE2 DUP5 DUP3 DUP6 ADD PUSH2 0xE43 JUMP JUMPDEST PUSH1 0x20 DUP4 ADD MSTORE POP PUSH1 0x40 DUP3 ADD CALLDATALOAD PUSH8 0xFFFFFFFFFFFFFFFF DUP2 GT ISZERO PUSH2 0x1006 JUMPI PUSH2 0x1005 PUSH2 0xE1D JUMP JUMPDEST JUMPDEST PUSH2 0x1012 DUP5 DUP3 DUP6 ADD PUSH2 0xDEA JUMP JUMPDEST PUSH1 0x40 DUP4 ADD MSTORE POP SWAP3 SWAP2 POP POP JUMP JUMPDEST PUSH1 0x0 DUP1 PUSH1 0x40 DUP4 DUP6 SUB SLT ISZERO PUSH2 0x1035 JUMPI PUSH2 0x1034 PUSH2 0xCC8 JUMP JUMPDEST JUMPDEST PUSH1 0x0 DUP4 ADD CALLDATALOAD PUSH8 0xFFFFFFFFFFFFFFFF DUP2 GT ISZERO PUSH2 0x1053 JUMPI PUSH2 0x1052 PUSH2 0xCCD JUMP JUMPDEST JUMPDEST PUSH2 0x105F DUP6 DUP3 DUP7 ADD PUSH2 0xDEA JUMP JUMPDEST SWAP3 POP POP PUSH1 0x20 DUP4 ADD CALLDATALOAD PUSH8 0xFFFFFFFFFFFFFFFF DUP2 GT ISZERO PUSH2 0x1080 JUMPI PUSH2 0x107F PUSH2 0xCCD JUMP JUMPDEST JUMPDEST PUSH2 0x108C DUP6 DUP3 DUP7 ADD PUSH2 0xF82 JUMP JUMPDEST SWAP2 POP POP SWAP3 POP SWAP3 SWAP1 POP JUMP JUMPDEST PUSH1 0x0 PUSH1 0x20 DUP3 DUP5 SUB SLT ISZERO PUSH2 0x10AC JUMPI PUSH2 0x10AB PUSH2 0xCC8 JUMP JUMPDEST JUMPDEST PUSH1 0x0 DUP3 ADD CALLDATALOAD PUSH8 0xFFFFFFFFFFFFFFFF DUP2 GT ISZERO PUSH2 0x10CA JUMPI PUSH2 0x10C9 PUSH2 0xCCD JUMP JUMPDEST JUMPDEST PUSH2 0x10D6 DUP5 DUP3 DUP6 ADD PUSH2 0xDEA JUMP JUMPDEST SWAP2 POP POP SWAP3 SWAP2 POP POP JUMP JUMPDEST PUSH2 0x10E8 DUP2 PUSH2 0xE22 JUMP JUMPDEST DUP3 MSTORE POP POP JUMP JUMPDEST PUSH1 0x0 PUSH1 0x20 DUP3 ADD SWAP1 POP PUSH2 0x1103 PUSH1 0x0 DUP4 ADD DUP5 PUSH2 0x10DF JUMP JUMPDEST SWAP3 SWAP2 POP POP JUMP JUMPDEST PUSH1 0x0 DUP2 SWAP1 POP SWAP2 SWAP1 POP JUMP JUMPDEST PUSH2 0x111C DUP2 PUSH2 0x1109 JUMP JUMPDEST DUP2 EQ PUSH2 0x1127 JUMPI PUSH1 0x0 DUP1 REVERT JUMPDEST POP JUMP JUMPDEST PUSH1 0x0 DUP2 CALLDATALOAD SWAP1 POP PUSH2 0x1139 DUP2 PUSH2 0x1113 JUMP JUMPDEST SWAP3 SWAP2 POP POP JUMP JUMPDEST PUSH1 0x0 PUSH1 0x20 DUP3 DUP5 SUB SLT ISZERO PUSH2 0x1155 JUMPI PUSH2 0x1154 PUSH2 0xCC8 JUMP JUMPDEST JUMPDEST PUSH1 0x0 PUSH2 0x1163 DUP5 DUP3 DUP6 ADD PUSH2 0x112A JUMP JUMPDEST SWAP2 POP POP SWAP3 SWAP2 POP POP JUMP JUMPDEST PUSH2 0x1175 DUP2 PUSH2 0x1109 JUMP JUMPDEST DUP3 MSTORE POP POP JUMP JUMPDEST PUSH1 0x0 PUSH1 0x20 DUP3 ADD SWAP1 POP PUSH2 0x1190 PUSH1 0x0 DUP4 ADD DUP5 PUSH2 0x116C JUMP JUMPDEST SWAP3 SWAP2 POP POP JUMP JUMPDEST PUSH1 0x0 DUP1 PUSH1 0x40 DUP4 DUP6 SUB SLT ISZERO PUSH2 0x11AD JUMPI PUSH2 0x11AC PUSH2 0xCC8 JUMP JUMPDEST JUMPDEST PUSH1 0x0 PUSH2 0x11BB DUP6 DUP3 DUP7 ADD PUSH2 0x112A JUMP JUMPDEST SWAP3 POP POP PUSH1 0x20 PUSH2 0x11CC DUP6 DUP3 DUP7 ADD PUSH2 0xEA1 JUMP JUMPDEST SWAP2 POP POP SWAP3 POP SWAP3 SWAP1 POP JUMP JUMPDEST PUSH2 0x11DF DUP2 PUSH2 0xEB6 JUMP JUMPDEST DUP3 MSTORE POP POP JUMP JUMPDEST PUSH1 0x0 PUSH1 0x20 DUP3 ADD SWAP1 POP PUSH2 0x11FA PUSH1 0x0 DUP4 ADD DUP5 PUSH2 0x11D6 JUMP JUMPDEST SWAP3 SWAP2 POP POP JUMP JUMPDEST PUSH1 0x0 DUP2 MLOAD SWAP1 POP SWAP2 SWAP1 POP JUMP JUMPDEST PUSH1 0x0 DUP3 DUP3 MSTORE PUSH1 0x20 DUP3 ADD SWAP1 POP SWAP3 SWAP2 POP POP JUMP JUMPDEST PUSH1 0x0 DUP2 SWAP1 POP PUSH1 0x20 DUP3 ADD SWAP1 POP SWAP2 SWAP1 POP JUMP JUMPDEST PUSH1 0x0 DUP2 MLOAD SWAP1 POP SWAP2 SWAP1 POP JUMP JUMPDEST PUSH1 0x0 DUP3 DUP3 MSTORE PUSH1 0x20 DUP3 ADD SWAP1 POP SWAP3 SWAP2 POP POP JUMP JUMPDEST PUSH1 0x0 JUMPDEST DUP4 DUP2 LT ISZERO PUSH2 0x1266 JUMPI DUP1 DUP3 ADD MLOAD DUP2 DUP5 ADD MSTORE PUSH1 0x20 DUP2 ADD SWAP1 POP PUSH2 0x124B JUMP JUMPDEST DUP4 DUP2 GT ISZERO PUSH2 0x1275 JUMPI PUSH1 0x0 DUP5 DUP5 ADD MSTORE JUMPDEST POP POP POP POP JUMP JUMPDEST PUSH1 0x0 PUSH2 0x1286 DUP3 PUSH2 0x122C JUMP JUMPDEST PUSH2 0x1290 DUP2 DUP6 PUSH2 0x1237 JUMP JUMPDEST SWAP4 POP PUSH2 0x12A0 DUP2 DUP6 PUSH1 0x20 DUP7 ADD PUSH2 0x1248 JUMP JUMPDEST PUSH2 0x12A9 DUP2 PUSH2 0xCDC JUMP JUMPDEST DUP5 ADD SWAP2 POP POP SWAP3 SWAP2 POP POP JUMP JUMPDEST PUSH2 0x12BD DUP2 PUSH2 0xE22 JUMP JUMPDEST DUP3 MSTORE POP POP JUMP JUMPDEST PUSH2 0x12CC DUP2 PUSH2 0xE78 JUMP JUMPDEST DUP3 MSTORE POP POP JUMP JUMPDEST PUSH2 0x12DB DUP2 PUSH2 0xEB6 JUMP JUMPDEST DUP3 MSTORE POP POP JUMP JUMPDEST PUSH1 0x0 PUSH1 0x80 DUP4 ADD PUSH1 0x0 DUP4 ADD MLOAD DUP5 DUP3 SUB PUSH1 0x0 DUP7 ADD MSTORE PUSH2 0x12FE DUP3 DUP3 PUSH2 0x127B JUMP JUMPDEST SWAP2 POP POP PUSH1 0x20 DUP4 ADD MLOAD PUSH2 0x1313 PUSH1 0x20 DUP7 ADD DUP3 PUSH2 0x12B4 JUMP JUMPDEST POP PUSH1 0x40 DUP4 ADD MLOAD PUSH2 0x1326 PUSH1 0x40 DUP7 ADD DUP3 PUSH2 0x12C3 JUMP JUMPDEST POP PUSH1 0x60 DUP4 ADD MLOAD PUSH2 0x1339 PUSH1 0x60 DUP7 ADD DUP3 PUSH2 0x12D2 JUMP JUMPDEST POP DUP1 SWAP2 POP POP SWAP3 SWAP2 POP POP JUMP JUMPDEST PUSH1 0x0 PUSH1 0x60 DUP4 ADD PUSH1 0x0 DUP4 ADD MLOAD DUP5 DUP3 SUB PUSH1 0x0 DUP7 ADD MSTORE PUSH2 0x1361 DUP3 DUP3 PUSH2 0x12E1 JUMP JUMPDEST SWAP2 POP POP PUSH1 0x20 DUP4 ADD MLOAD PUSH2 0x1376 PUSH1 0x20 DUP7 ADD DUP3 PUSH2 0x12B4 JUMP JUMPDEST POP PUSH1 0x40 DUP4 ADD MLOAD DUP5 DUP3 SUB PUSH1 0x40 DUP7 ADD MSTORE PUSH2 0x138E DUP3 DUP3 PUSH2 0x127B JUMP JUMPDEST SWAP2 POP POP DUP1 SWAP2 POP POP SWAP3 SWAP2 POP POP JUMP JUMPDEST PUSH1 0x0 PUSH2 0x13A7 DUP4 DUP4 PUSH2 0x1344 JUMP JUMPDEST SWAP1 POP SWAP3 SWAP2 POP POP JUMP JUMPDEST PUSH1 0x0 PUSH1 0x20 DUP3 ADD SWAP1 POP SWAP2 SWAP1 POP JUMP JUMPDEST PUSH1 0x0 PUSH2 0x13C7 DUP3 PUSH2 0x1200 JUMP JUMPDEST PUSH2 0x13D1 DUP2 DUP6 PUSH2 0x120B JUMP JUMPDEST SWAP4 POP DUP4 PUSH1 0x20 DUP3 MUL DUP6 ADD PUSH2 0x13E3 DUP6 PUSH2 0x121C JUMP JUMPDEST DUP1 PUSH1 0x0 JUMPDEST DUP6 DUP2 LT ISZERO PUSH2 0x141F JUMPI DUP5 DUP5 SUB DUP10 MSTORE DUP2 MLOAD PUSH2 0x1400 DUP6 DUP3 PUSH2 0x139B JUMP JUMPDEST SWAP5 POP PUSH2 0x140B DUP4 PUSH2 0x13AF JUMP JUMPDEST SWAP3 POP PUSH1 0x20 DUP11 ADD SWAP10 POP POP PUSH1 0x1 DUP2 ADD SWAP1 POP PUSH2 0x13E7 JUMP JUMPDEST POP DUP3 SWAP8 POP DUP8 SWAP6 POP POP POP POP POP POP SWAP3 SWAP2 POP POP JUMP JUMPDEST PUSH1 0x0 PUSH1 0x20 DUP3 ADD SWAP1 POP DUP2 DUP2 SUB PUSH1 0x0 DUP4 ADD MSTORE PUSH2 0x144B DUP2 DUP5 PUSH2 0x13BC JUMP JUMPDEST SWAP1 POP SWAP3 SWAP2 POP POP JUMP JUMPDEST PUSH1 0x0 PUSH1 0x20 DUP3 DUP5 SUB SLT ISZERO PUSH2 0x1469 JUMPI PUSH2 0x1468 PUSH2 0xCC8 JUMP JUMPDEST JUMPDEST PUSH1 0x0 PUSH2 0x1477 DUP5 DUP3 DUP6 ADD PUSH2 0xEA1 JUMP JUMPDEST SWAP2 POP POP SWAP3 SWAP2 POP POP JUMP JUMPDEST PUSH1 0x0 DUP2 SWAP1 POP SWAP3 SWAP2 POP POP JUMP JUMPDEST PUSH1 0x0 PUSH2 0x1496 DUP3 PUSH2 0x122C JUMP JUMPDEST PUSH2 0x14A0 DUP2 DUP6 PUSH2 0x1480 JUMP JUMPDEST SWAP4 POP PUSH2 0x14B0 DUP2 DUP6 PUSH1 0x20 DUP7 ADD PUSH2 0x1248 JUMP JUMPDEST DUP1 DUP5 ADD SWAP2 POP POP SWAP3 SWAP2 POP POP JUMP JUMPDEST PUSH1 0x0 PUSH2 0x14C8 DUP3 DUP5 PUSH2 0x148B JUMP JUMPDEST SWAP2 POP DUP2 SWAP1 POP SWAP3 SWAP2 POP POP JUMP JUMPDEST PUSH32 0x4E487B7100000000000000000000000000000000000000000000000000000000 PUSH1 0x0 MSTORE PUSH1 0x22 PUSH1 0x4 MSTORE PUSH1 0x24 PUSH1 0x0 REVERT JUMPDEST PUSH1 0x0 PUSH1 0x2 DUP3 DIV SWAP1 POP PUSH1 0x1 DUP3 AND DUP1 PUSH2 0x151A JUMPI PUSH1 0x7F DUP3 AND SWAP2 POP JUMPDEST PUSH1 0x20 DUP3 LT DUP2 EQ ISZERO PUSH2 0x152E JUMPI PUSH2 0x152D PUSH2 0x14D3 JUMP JUMPDEST JUMPDEST POP SWAP2 SWAP1 POP JUMP JUMPDEST PUSH32 0x4E487B7100000000000000000000000000000000000000000000000000000000 PUSH1 0x0 MSTORE PUSH1 0x11 PUSH1 0x4 MSTORE PUSH1 0x24 PUSH1 0x0 REVERT JUMPDEST PUSH1 0x0 PUSH2 0x156E DUP3 PUSH2 0xE22 JUMP JUMPDEST SWAP2 POP PUSH2 0x1579 DUP4 PUSH2 0xE22 JUMP JUMPDEST SWAP3 POP DUP3 DUP3 LT ISZERO PUSH2 0x158C JUMPI PUSH2 0x158B PUSH2 0x1534 JUMP JUMPDEST JUMPDEST DUP3 DUP3 SUB SWAP1 POP SWAP3 SWAP2 POP POP JUMP JUMPDEST PUSH32 0x4E487B7100000000000000000000000000000000000000000000000000000000 PUSH1 0x0 MSTORE PUSH1 0x32 PUSH1 0x4 MSTORE PUSH1 0x24 PUSH1 0x0 REVERT JUMPDEST PUSH1 0x0 DUP3 DUP3 MSTORE PUSH1 0x20 DUP3 ADD SWAP1 POP SWAP3 SWAP2 POP POP JUMP JUMPDEST PUSH32 0x556E417574686F72697A65644163636F756E7400000000000000000000000000 PUSH1 0x0 DUP3 ADD MSTORE POP JUMP JUMPDEST PUSH1 0x0 PUSH2 0x160D PUSH1 0x13 DUP4 PUSH2 0x15C6 JUMP JUMPDEST SWAP2 POP PUSH2 0x1618 DUP3 PUSH2 0x15D7 JUMP JUMPDEST PUSH1 0x20 DUP3 ADD SWAP1 POP SWAP2 SWAP1 POP JUMP JUMPDEST PUSH1 0x0 PUSH1 0x20 DUP3 ADD SWAP1 POP DUP2 DUP2 SUB PUSH1 0x0 DUP4 ADD MSTORE PUSH2 0x163C DUP2 PUSH2 0x1600 JUMP JUMPDEST SWAP1 POP SWAP2 SWAP1 POP JUMP INVALID LOG2 PUSH5 0x6970667358 0x22 SLT KECCAK256 0x49 XOR SHL SWAP2 0xC4 SWAP1 0xC8 0xD3 XOR PUSH31 0xCA4778C3AD5F01BE1E24B47A8C96AFDEC1212C4C147164736F6C634300080B STOP CALLER "
				},
				"gasEstimates": {
					"creation": {
						"codeDepositCost": "1150600",
						"executionCost": "infinite",
						"totalCost": "infinite"
					},
					"external": {
						"ADMIN()": "402",
						"DEFAULT_ADMIN()": "379",
						"TRACER()": "440",
						"add(string,((string,uint256,address,bool),uint256,string))": "infinite",
						"checkRole(bytes32)": "3158",
						"get(string)": "infinite",
						"getLastOperateTime(string)": "infinite",
						"getRoleAdmin(bytes32)": "infinite",
						"grantRole(bytes32,address)": "infinite",
						"hasRole(bytes32,address)": "3162",
						"revokeRole(bytes32,address)": "infinite",
						"setTraceRight(address)": "infinite"
					}
				},
				"methodIdentifiers": {
					"ADMIN()": "2a0acc6a",
					"DEFAULT_ADMIN()": "9cdeba95",
					"TRACER()": "4e7a23ba",
					"add(string,((string,uint256,address,bool),uint256,string))": "0437a9a9",
					"checkRole(bytes32)": "c5b95190",
					"get(string)": "693ec85e",
					"getLastOperateTime(string)": "07d81e7b",
					"getRoleAdmin(bytes32)": "248a9ca3",
					"grantRole(bytes32,address)": "2f2ff15d",
					"hasRole(bytes32,address)": "91d14854",
					"revokeRole(bytes32,address)": "d547741f",
					"setTraceRight(address)": "aa8d24c3"
				}
			},
			"storageLayout": {
				"storage": [
					{
						"astId": 177,
						"contract": "1127/TraceAsset.sol:TraceAsset",
						"label": "roles",
						"offset": 0,
						"slot": "0",
						"type": "t_mapping(t_bytes32,t_struct(RoleData)169_storage)"
					},
					{
						"astId": 80,
						"contract": "1127/TraceAsset.sol:TraceAsset",
						"label": "traceList",
						"offset": 0,
						"slot": "1",
						"type": "t_mapping(t_string_memory_ptr,t_array(t_struct(AssetTrace)35_storage)dyn_storage)"
					}
				],
				"types": {
					"t_address": {
						"encoding": "inplace",
						"label": "address",
						"numberOfBytes": "20"
					},
					"t_array(t_struct(AssetTrace)35_storage)dyn_storage": {
						"base": "t_struct(AssetTrace)35_storage",
						"encoding": "dynamic_array",
						"label": "struct DataStruct.AssetTrace[]",
						"numberOfBytes": "32"
					},
					"t_bool": {
						"encoding": "inplace",
						"label": "bool",
						"numberOfBytes": "1"
					},
					"t_bytes32": {
						"encoding": "inplace",
						"label": "bytes32",
						"numberOfBytes": "32"
					},
					"t_mapping(t_address,t_bool)": {
						"encoding": "mapping",
						"key": "t_address",
						"label": "mapping(address => bool)",
						"numberOfBytes": "32",
						"value": "t_bool"
					},
					"t_mapping(t_bytes32,t_struct(RoleData)169_storage)": {
						"encoding": "mapping",
						"key": "t_bytes32",
						"label": "mapping(bytes32 => struct AccessControl.RoleData)",
						"numberOfBytes": "32",
						"value": "t_struct(RoleData)169_storage"
					},
					"t_mapping(t_string_memory_ptr,t_array(t_struct(AssetTrace)35_storage)dyn_storage)": {
						"encoding": "mapping",
						"key": "t_string_memory_ptr",
						"label": "mapping(string => struct DataStruct.AssetTrace[])",
						"numberOfBytes": "32",
						"value": "t_array(t_struct(AssetTrace)35_storage)dyn_storage"
					},
					"t_string_memory_ptr": {
						"encoding": "bytes",
						"label": "string",
						"numberOfBytes": "32"
					},
					"t_string_storage": {
						"encoding": "bytes",
						"label": "string",
						"numberOfBytes": "32"
					},
					"t_struct(AssetMetadata)27_storage": {
						"encoding": "inplace",
						"label": "struct DataStruct.AssetMetadata",
						"members": [
							{
								"astId": 20,
								"contract": "1127/TraceAsset.sol:TraceAsset",
								"label": "cid",
								"offset": 0,
								"slot": "0",
								"type": "t_string_storage"
							},
							{
								"astId": 22,
								"contract": "1127/TraceAsset.sol:TraceAsset",
								"label": "createdAt",
								"offset": 0,
								"slot": "1",
								"type": "t_uint256"
							},
							{
								"astId": 24,
								"contract": "1127/TraceAsset.sol:TraceAsset",
								"label": "creator",
								"offset": 0,
								"slot": "2",
								"type": "t_address"
							},
							{
								"astId": 26,
								"contract": "1127/TraceAsset.sol:TraceAsset",
								"label": "isPublic",
								"offset": 20,
								"slot": "2",
								"type": "t_bool"
							}
						],
						"numberOfBytes": "96"
					},
					"t_struct(AssetTrace)35_storage": {
						"encoding": "inplace",
						"label": "struct DataStruct.AssetTrace",
						"members": [
							{
								"astId": 30,
								"contract": "1127/TraceAsset.sol:TraceAsset",
								"label": "asset",
								"offset": 0,
								"slot": "0",
								"type": "t_struct(AssetMetadata)27_storage"
							},
							{
								"astId": 32,
								"contract": "1127/TraceAsset.sol:TraceAsset",
								"label": "operateTime",
								"offset": 0,
								"slot": "3",
								"type": "t_uint256"
							},
							{
								"astId": 34,
								"contract": "1127/TraceAsset.sol:TraceAsset",
								"label": "operateMsg",
								"offset": 0,
								"slot": "4",
								"type": "t_string_storage"
							}
						],
						"numberOfBytes": "160"
					},
					"t_struct(RoleData)169_storage": {
						"encoding": "inplace",
						"label": "struct AccessControl.RoleData",
						"members": [
							{
								"astId": 166,
								"contract": "1127/TraceAsset.sol:TraceAsset",
								"label": "hasRoles",
								"offset": 0,
								"slot": "0",
								"type": "t_mapping(t_address,t_bool)"
							},
							{
								"astId": 168,
								"contract": "1127/TraceAsset.sol:TraceAsset",
								"label": "adminRole",
								"offset": 0,
								"slot": "1",
								"type": "t_bytes32"
							}
						],
						"numberOfBytes": "64"
					},
					"t_uint256": {
						"encoding": "inplace",
						"label": "uint256",
						"numberOfBytes": "32"
					}
				}
			},
			"userdoc": {
				"kind": "user",
				"methods": {},
				"version": 1
			}
		}
	}
}