{
	"1127/util/AccessControl.sol": {
		"AccessControl": {
			"abi": [
				{
					"inputs": [
						{
							"internalType": "address",
							"name": "admin",
							"type": "address"
						}
					],
					"stateMutability": "nonpayable",
					"type": "constructor"
				},
				{
					"anonymous": false,
					"inputs": [
						{
							"indexed": true,
							"internalType": "bytes32",
							"name": "role",
							"type": "bytes32"
						},
						{
							"indexed": true,
							"internalType": "bytes32",
							"name": "previousAdminRole",
							"type": "bytes32"
						},
						{
							"indexed": true,
							"internalType": "bytes32",
							"name": "newAdminRole",
							"type": "bytes32"
						}
					],
					"name": "RoleAdminChanged",
					"type": "event"
				},
				{
					"anonymous": false,
					"inputs": [
						{
							"indexed": true,
							"internalType": "bytes32",
							"name": "role",
							"type": "bytes32"
						},
						{
							"indexed": true,
							"internalType": "address",
							"name": "account",
							"type": "address"
						},
						{
							"indexed": true,
							"internalType": "address",
							"name": "sender",
							"type": "address"
						}
					],
					"name": "RoleGranted",
					"type": "event"
				},
				{
					"anonymous": false,
					"inputs": [
						{
							"indexed": true,
							"internalType": "bytes32",
							"name": "role",
							"type": "bytes32"
						},
						{
							"indexed": true,
							"internalType": "address",
							"name": "account",
							"type": "address"
						},
						{
							"indexed": true,
							"internalType": "address",
							"name": "sender",
							"type": "address"
						}
					],
					"name": "RoleRevoked",
					"type": "event"
				},
				{
					"inputs": [],
					"name": "DEFAULT_ADMIN",
					"outputs": [
						{
							"internalType": "bytes32",
							"name": "",
							"type": "bytes32"
						}
					],
					"stateMutability": "view",
					"type": "function"
				},
				{
					"inputs": [
						{
							"internalType": "bytes32",
							"name": "role",
							"type": "bytes32"
						}
					],
					"name": "checkRole",
					"outputs": [
						{
							"internalType": "bool",
							"name": "",
							"type": "bool"
						}
					],
					"stateMutability": "view",
					"type": "function"
				},
				{
					"inputs": [
						{
							"internalType": "bytes32",
							"name": "role",
							"type": "bytes32"
						}
					],
					"name": "getRoleAdmin",
					"outputs": [
						{
							"internalType": "bytes32",
							"name": "",
							"type": "bytes32"
						}
					],
					"stateMutability": "view",
					"type": "function"
				},
				{
					"inputs": [
						{
							"internalType": "bytes32",
							"name": "role",
							"type": "bytes32"
						},
						{
							"internalType": "address",
							"name": "member",
							"type": "address"
						}
					],
					"name": "grantRole",
					"outputs": [
						{
							"internalType": "bool",
							"name": "",
							"type": "bool"
						}
					],
					"stateMutability": "nonpayable",
					"type": "function"
				},
				{
					"inputs": [
						{
							"internalType": "bytes32",
							"name": "role",
							"type": "bytes32"
						},
						{
							"internalType": "address",
							"name": "member",
							"type": "address"
						}
					],
					"name": "hasRole",
					"outputs": [
						{
							"internalType": "bool",
							"name": "",
							"type": "bool"
						}
					],
					"stateMutability": "view",
					"type": "function"
				},
				{
					"inputs": [
						{
							"internalType": "bytes32",
							"name": "role",
							"type": "bytes32"
						},
						{
							"internalType": "address",
							"name": "member",
							"type": "address"
						}
					],
					"name": "revokeRole",
					"outputs": [
						{
							"internalType": "bool",
							"name": "",
							"type": "bool"
						}
					],
					"stateMutability": "nonpayable",
					"type": "function"
				}
			],
			"devdoc": {
				"kind": "dev",
				"methods": {},
				"version": 1
			},
			"evm": {
				"assembly": "    /* \"1127/util/AccessControl.sol\":78:2821  contract AccessControl {... */\n  mstore(0x40, 0x80)\n    /* \"1127/util/AccessControl.sol\":895:981  constructor(address admin){... */\n  callvalue\n  dup1\n  iszero\n  tag_1\n  jumpi\n  0x00\n  dup1\n  revert\ntag_1:\n  pop\n  mload(0x40)\n  sub(codesize, bytecodeSize)\n  dup1\n  bytecodeSize\n  dup4\n  codecopy\n  dup2\n  dup2\n  add\n  0x40\n  mstore\n  dup2\n  add\n  swap1\n  tag_2\n  swap2\n  swap1\n  tag_3\n  jump\t// in\ntag_2:\n    /* \"1127/util/AccessControl.sol\":970:974  true */\n  0x01\n    /* \"1127/util/AccessControl.sol\":931:936  roles */\n  0x00\n    /* \"1127/util/AccessControl.sol\":931:951  roles[DEFAULT_ADMIN] */\n  dup1\n    /* \"1127/util/AccessControl.sol\":246:250  0x00 */\n  dup1\n    /* \"1127/util/AccessControl.sol\":937:950  DEFAULT_ADMIN */\n  0x00\n  shl\n    /* \"1127/util/AccessControl.sol\":931:951  roles[DEFAULT_ADMIN] */\n  dup2\n  mstore\n  0x20\n  add\n  swap1\n  dup2\n  mstore\n  0x20\n  add\n  0x00\n  keccak256\n    /* \"1127/util/AccessControl.sol\":931:960  roles[DEFAULT_ADMIN].hasRoles */\n  0x00\n  add\n    /* \"1127/util/AccessControl.sol\":931:967  roles[DEFAULT_ADMIN].hasRoles[admin] */\n  0x00\n    /* \"1127/util/AccessControl.sol\":961:966  admin */\n  dup4\n    /* \"1127/util/AccessControl.sol\":931:967  roles[DEFAULT_ADMIN].hasRoles[admin] */\n  0xffffffffffffffffffffffffffffffffffffffff\n  and\n  0xffffffffffffffffffffffffffffffffffffffff\n  and\n  dup2\n  mstore\n  0x20\n  add\n  swap1\n  dup2\n  mstore\n  0x20\n  add\n  0x00\n  keccak256\n  0x00\n    /* \"1127/util/AccessControl.sol\":931:974  roles[DEFAULT_ADMIN].hasRoles[admin] = true */\n  0x0100\n  exp\n  dup2\n  sload\n  dup2\n  0xff\n  mul\n  not\n  and\n  swap1\n  dup4\n  iszero\n  iszero\n  mul\n  or\n  swap1\n  sstore\n  pop\n    /* \"1127/util/AccessControl.sol\":895:981  constructor(address admin){... */\n  pop\n    /* \"1127/util/AccessControl.sol\":78:2821  contract AccessControl {... */\n  jump(tag_6)\n    /* \"#utility.yul\":88:205   */\ntag_8:\n    /* \"#utility.yul\":197:198   */\n  0x00\n    /* \"#utility.yul\":194:195   */\n  dup1\n    /* \"#utility.yul\":187:199   */\n  revert\n    /* \"#utility.yul\":334:460   */\ntag_10:\n    /* \"#utility.yul\":371:378   */\n  0x00\n    /* \"#utility.yul\":411:453   */\n  0xffffffffffffffffffffffffffffffffffffffff\n    /* \"#utility.yul\":404:409   */\n  dup3\n    /* \"#utility.yul\":400:454   */\n  and\n    /* \"#utility.yul\":389:454   */\n  swap1\n  pop\n    /* \"#utility.yul\":334:460   */\n  swap2\n  swap1\n  pop\n  jump\t// out\n    /* \"#utility.yul\":466:562   */\ntag_11:\n    /* \"#utility.yul\":503:510   */\n  0x00\n    /* \"#utility.yul\":532:556   */\n  tag_20\n    /* \"#utility.yul\":550:555   */\n  dup3\n    /* \"#utility.yul\":532:556   */\n  tag_10\n  jump\t// in\ntag_20:\n    /* \"#utility.yul\":521:556   */\n  swap1\n  pop\n    /* \"#utility.yul\":466:562   */\n  swap2\n  swap1\n  pop\n  jump\t// out\n    /* \"#utility.yul\":568:690   */\ntag_12:\n    /* \"#utility.yul\":641:665   */\n  tag_22\n    /* \"#utility.yul\":659:664   */\n  dup2\n    /* \"#utility.yul\":641:665   */\n  tag_11\n  jump\t// in\ntag_22:\n    /* \"#utility.yul\":634:639   */\n  dup2\n    /* \"#utility.yul\":631:666   */\n  eq\n    /* \"#utility.yul\":621:684   */\n  tag_23\n  jumpi\n    /* \"#utility.yul\":680:681   */\n  0x00\n    /* \"#utility.yul\":677:678   */\n  dup1\n    /* \"#utility.yul\":670:682   */\n  revert\n    /* \"#utility.yul\":621:684   */\ntag_23:\n    /* \"#utility.yul\":568:690   */\n  pop\n  jump\t// out\n    /* \"#utility.yul\":696:839   */\ntag_13:\n    /* \"#utility.yul\":753:758   */\n  0x00\n    /* \"#utility.yul\":784:790   */\n  dup2\n    /* \"#utility.yul\":778:791   */\n  mload\n    /* \"#utility.yul\":769:791   */\n  swap1\n  pop\n    /* \"#utility.yul\":800:833   */\n  tag_25\n    /* \"#utility.yul\":827:832   */\n  dup2\n    /* \"#utility.yul\":800:833   */\n  tag_12\n  jump\t// in\ntag_25:\n    /* \"#utility.yul\":696:839   */\n  swap3\n  swap2\n  pop\n  pop\n  jump\t// out\n    /* \"#utility.yul\":845:1196   */\ntag_3:\n    /* \"#utility.yul\":915:921   */\n  0x00\n    /* \"#utility.yul\":964:966   */\n  0x20\n    /* \"#utility.yul\":952:961   */\n  dup3\n    /* \"#utility.yul\":943:950   */\n  dup5\n    /* \"#utility.yul\":939:962   */\n  sub\n    /* \"#utility.yul\":935:967   */\n  slt\n    /* \"#utility.yul\":932:1051   */\n  iszero\n  tag_27\n  jumpi\n    /* \"#utility.yul\":970:1049   */\n  tag_28\n  tag_8\n  jump\t// in\ntag_28:\n    /* \"#utility.yul\":932:1051   */\ntag_27:\n    /* \"#utility.yul\":1090:1091   */\n  0x00\n    /* \"#utility.yul\":1115:1179   */\n  tag_29\n    /* \"#utility.yul\":1171:1178   */\n  dup5\n    /* \"#utility.yul\":1162:1168   */\n  dup3\n    /* \"#utility.yul\":1151:1160   */\n  dup6\n    /* \"#utility.yul\":1147:1169   */\n  add\n    /* \"#utility.yul\":1115:1179   */\n  tag_13\n  jump\t// in\ntag_29:\n    /* \"#utility.yul\":1105:1179   */\n  swap2\n  pop\n    /* \"#utility.yul\":1061:1189   */\n  pop\n    /* \"#utility.yul\":845:1196   */\n  swap3\n  swap2\n  pop\n  pop\n  jump\t// out\n    /* \"1127/util/AccessControl.sol\":78:2821  contract AccessControl {... */\ntag_6:\n  dataSize(sub_0)\n  dup1\n  dataOffset(sub_0)\n  0x00\n  codecopy\n  0x00\n  return\nstop\n\nsub_0: assembly {\n        /* \"1127/util/AccessControl.sol\":78:2821  contract AccessControl {... */\n      mstore(0x40, 0x80)\n      callvalue\n      dup1\n      iszero\n      tag_1\n      jumpi\n      0x00\n      dup1\n      revert\n    tag_1:\n      pop\n      jumpi(tag_2, lt(calldatasize, 0x04))\n      shr(0xe0, calldataload(0x00))\n      dup1\n      0x248a9ca3\n      eq\n      tag_3\n      jumpi\n      dup1\n      0x2f2ff15d\n      eq\n      tag_4\n      jumpi\n      dup1\n      0x91d14854\n      eq\n      tag_5\n      jumpi\n      dup1\n      0x9cdeba95\n      eq\n      tag_6\n      jumpi\n      dup1\n      0xc5b95190\n      eq\n      tag_7\n      jumpi\n      dup1\n      0xd547741f\n      eq\n      tag_8\n      jumpi\n    tag_2:\n      0x00\n      dup1\n      revert\n        /* \"1127/util/AccessControl.sol\":1379:1490  function getRoleAdmin(bytes32 role) public view returns (bytes32) {... */\n    tag_3:\n      tag_9\n      0x04\n      dup1\n      calldatasize\n      sub\n      dup2\n      add\n      swap1\n      tag_10\n      swap2\n      swap1\n      tag_11\n      jump\t// in\n    tag_10:\n      tag_12\n      jump\t// in\n    tag_9:\n      mload(0x40)\n      tag_13\n      swap2\n      swap1\n      tag_14\n      jump\t// in\n    tag_13:\n      mload(0x40)\n      dup1\n      swap2\n      sub\n      swap1\n      return\n        /* \"1127/util/AccessControl.sol\":1785:2111  function grantRole(bytes32 role, address member)... */\n    tag_4:\n      tag_15\n      0x04\n      dup1\n      calldatasize\n      sub\n      dup2\n      add\n      swap1\n      tag_16\n      swap2\n      swap1\n      tag_17\n      jump\t// in\n    tag_16:\n      tag_18\n      jump\t// in\n    tag_15:\n      mload(0x40)\n      tag_19\n      swap2\n      swap1\n      tag_20\n      jump\t// in\n    tag_19:\n      mload(0x40)\n      dup1\n      swap2\n      sub\n      swap1\n      return\n        /* \"1127/util/AccessControl.sol\":1209:1335  function hasRole(bytes32 role, address member) public view returns (bool) {... */\n    tag_5:\n      tag_21\n      0x04\n      dup1\n      calldatasize\n      sub\n      dup2\n      add\n      swap1\n      tag_22\n      swap2\n      swap1\n      tag_17\n      jump\t// in\n    tag_22:\n      tag_23\n      jump\t// in\n    tag_21:\n      mload(0x40)\n      tag_24\n      swap2\n      swap1\n      tag_20\n      jump\t// in\n    tag_24:\n      mload(0x40)\n      dup1\n      swap2\n      sub\n      swap1\n      return\n        /* \"1127/util/AccessControl.sol\":206:250  bytes32 public constant DEFAULT_ADMIN = 0x00 */\n    tag_6:\n      tag_25\n      tag_26\n      jump\t// in\n    tag_25:\n      mload(0x40)\n      tag_27\n      swap2\n      swap1\n      tag_14\n      jump\t// in\n    tag_27:\n      mload(0x40)\n      dup1\n      swap2\n      sub\n      swap1\n      return\n        /* \"1127/util/AccessControl.sol\":1011:1194  function checkRole(bytes32 role) public view returns (bool) {... */\n    tag_7:\n      tag_28\n      0x04\n      dup1\n      calldatasize\n      sub\n      dup2\n      add\n      swap1\n      tag_29\n      swap2\n      swap1\n      tag_11\n      jump\t// in\n    tag_29:\n      tag_30\n      jump\t// in\n    tag_28:\n      mload(0x40)\n      tag_31\n      swap2\n      swap1\n      tag_20\n      jump\t// in\n    tag_31:\n      mload(0x40)\n      dup1\n      swap2\n      sub\n      swap1\n      return\n        /* \"1127/util/AccessControl.sol\":2161:2490  function revokeRole(bytes32 role, address member)... */\n    tag_8:\n      tag_32\n      0x04\n      dup1\n      calldatasize\n      sub\n      dup2\n      add\n      swap1\n      tag_33\n      swap2\n      swap1\n      tag_17\n      jump\t// in\n    tag_33:\n      tag_34\n      jump\t// in\n    tag_32:\n      mload(0x40)\n      tag_35\n      swap2\n      swap1\n      tag_20\n      jump\t// in\n    tag_35:\n      mload(0x40)\n      dup1\n      swap2\n      sub\n      swap1\n      return\n        /* \"1127/util/AccessControl.sol\":1379:1490  function getRoleAdmin(bytes32 role) public view returns (bytes32) {... */\n    tag_12:\n        /* \"1127/util/AccessControl.sol\":1436:1443  bytes32 */\n      0x00\n        /* \"1127/util/AccessControl.sol\":1462:1467  roles */\n      dup1\n        /* \"1127/util/AccessControl.sol\":1462:1473  roles[role] */\n      0x00\n        /* \"1127/util/AccessControl.sol\":1468:1472  role */\n      dup4\n        /* \"1127/util/AccessControl.sol\":1462:1473  roles[role] */\n      dup2\n      mstore\n      0x20\n      add\n      swap1\n      dup2\n      mstore\n      0x20\n      add\n      0x00\n      keccak256\n        /* \"1127/util/AccessControl.sol\":1462:1483  roles[role].adminRole */\n      0x01\n      add\n      sload\n        /* \"1127/util/AccessControl.sol\":1455:1483  return roles[role].adminRole */\n      swap1\n      pop\n        /* \"1127/util/AccessControl.sol\":1379:1490  function getRoleAdmin(bytes32 role) public view returns (bytes32) {... */\n      swap2\n      swap1\n      pop\n      jump\t// out\n        /* \"1127/util/AccessControl.sol\":1785:2111  function grantRole(bytes32 role, address member)... */\n    tag_18:\n        /* \"1127/util/AccessControl.sol\":1903:1907  bool */\n      0x00\n        /* \"1127/util/AccessControl.sol\":1866:1884  getRoleAdmin(role) */\n      tag_37\n        /* \"1127/util/AccessControl.sol\":1879:1883  role */\n      dup4\n        /* \"1127/util/AccessControl.sol\":1866:1878  getRoleAdmin */\n      tag_12\n        /* \"1127/util/AccessControl.sol\":1866:1884  getRoleAdmin(role) */\n      jump\t// in\n    tag_37:\n        /* \"1127/util/AccessControl.sol\":856:871  checkRole(role) */\n      tag_39\n        /* \"1127/util/AccessControl.sol\":866:870  role */\n      dup2\n        /* \"1127/util/AccessControl.sol\":856:865  checkRole */\n      tag_30\n        /* \"1127/util/AccessControl.sol\":856:871  checkRole(role) */\n      jump\t// in\n    tag_39:\n      pop\n        /* \"1127/util/AccessControl.sol\":1927:1948  hasRole(role, member) */\n      tag_41\n        /* \"1127/util/AccessControl.sol\":1935:1939  role */\n      dup5\n        /* \"1127/util/AccessControl.sol\":1941:1947  member */\n      dup5\n        /* \"1127/util/AccessControl.sol\":1927:1934  hasRole */\n      tag_23\n        /* \"1127/util/AccessControl.sol\":1927:1948  hasRole(role, member) */\n      jump\t// in\n    tag_41:\n        /* \"1127/util/AccessControl.sol\":1923:1987  if (hasRole(role, member)) {... */\n      iszero\n      tag_42\n      jumpi\n        /* \"1127/util/AccessControl.sol\":1971:1976  false */\n      0x00\n        /* \"1127/util/AccessControl.sol\":1964:1976  return false */\n      swap2\n      pop\n      jump(tag_40)\n        /* \"1127/util/AccessControl.sol\":1923:1987  if (hasRole(role, member)) {... */\n    tag_42:\n        /* \"1127/util/AccessControl.sol\":2027:2031  true */\n      0x01\n        /* \"1127/util/AccessControl.sol\":1996:2001  roles */\n      0x00\n        /* \"1127/util/AccessControl.sol\":1996:2007  roles[role] */\n      dup1\n        /* \"1127/util/AccessControl.sol\":2002:2006  role */\n      dup7\n        /* \"1127/util/AccessControl.sol\":1996:2007  roles[role] */\n      dup2\n      mstore\n      0x20\n      add\n      swap1\n      dup2\n      mstore\n      0x20\n      add\n      0x00\n      keccak256\n        /* \"1127/util/AccessControl.sol\":1996:2016  roles[role].hasRoles */\n      0x00\n      add\n        /* \"1127/util/AccessControl.sol\":1996:2024  roles[role].hasRoles[member] */\n      0x00\n        /* \"1127/util/AccessControl.sol\":2017:2023  member */\n      dup6\n        /* \"1127/util/AccessControl.sol\":1996:2024  roles[role].hasRoles[member] */\n      0xffffffffffffffffffffffffffffffffffffffff\n      and\n      0xffffffffffffffffffffffffffffffffffffffff\n      and\n      dup2\n      mstore\n      0x20\n      add\n      swap1\n      dup2\n      mstore\n      0x20\n      add\n      0x00\n      keccak256\n      0x00\n        /* \"1127/util/AccessControl.sol\":1996:2031  roles[role].hasRoles[member] = true */\n      0x0100\n      exp\n      dup2\n      sload\n      dup2\n      0xff\n      mul\n      not\n      and\n      swap1\n      dup4\n      iszero\n      iszero\n      mul\n      or\n      swap1\n      sstore\n      pop\n        /* \"1127/util/AccessControl.sol\":2072:2082  msg.sender */\n      caller\n        /* \"1127/util/AccessControl.sol\":2046:2083  RoleGranted(role, member, msg.sender) */\n      0xffffffffffffffffffffffffffffffffffffffff\n      and\n        /* \"1127/util/AccessControl.sol\":2064:2070  member */\n      dup4\n        /* \"1127/util/AccessControl.sol\":2046:2083  RoleGranted(role, member, msg.sender) */\n      0xffffffffffffffffffffffffffffffffffffffff\n      and\n        /* \"1127/util/AccessControl.sol\":2058:2062  role */\n      dup6\n        /* \"1127/util/AccessControl.sol\":2046:2083  RoleGranted(role, member, msg.sender) */\n      0x2f8788117e7eff1d82e926ec794901d17c78024a50270940304540a733656f0d\n      mload(0x40)\n      mload(0x40)\n      dup1\n      swap2\n      sub\n      swap1\n      log4\n        /* \"1127/util/AccessControl.sol\":2100:2104  true */\n      0x01\n        /* \"1127/util/AccessControl.sol\":2093:2104  return true */\n      swap2\n      pop\n        /* \"1127/util/AccessControl.sol\":881:882  _ */\n    tag_40:\n        /* \"1127/util/AccessControl.sol\":1785:2111  function grantRole(bytes32 role, address member)... */\n      pop\n      swap3\n      swap2\n      pop\n      pop\n      jump\t// out\n        /* \"1127/util/AccessControl.sol\":1209:1335  function hasRole(bytes32 role, address member) public view returns (bool) {... */\n    tag_23:\n        /* \"1127/util/AccessControl.sol\":1277:1281  bool */\n      0x00\n        /* \"1127/util/AccessControl.sol\":1300:1305  roles */\n      dup1\n        /* \"1127/util/AccessControl.sol\":1300:1311  roles[role] */\n      0x00\n        /* \"1127/util/AccessControl.sol\":1306:1310  role */\n      dup5\n        /* \"1127/util/AccessControl.sol\":1300:1311  roles[role] */\n      dup2\n      mstore\n      0x20\n      add\n      swap1\n      dup2\n      mstore\n      0x20\n      add\n      0x00\n      keccak256\n        /* \"1127/util/AccessControl.sol\":1300:1320  roles[role].hasRoles */\n      0x00\n      add\n        /* \"1127/util/AccessControl.sol\":1300:1328  roles[role].hasRoles[member] */\n      0x00\n        /* \"1127/util/AccessControl.sol\":1321:1327  member */\n      dup4\n        /* \"1127/util/AccessControl.sol\":1300:1328  roles[role].hasRoles[member] */\n      0xffffffffffffffffffffffffffffffffffffffff\n      and\n      0xffffffffffffffffffffffffffffffffffffffff\n      and\n      dup2\n      mstore\n      0x20\n      add\n      swap1\n      dup2\n      mstore\n      0x20\n      add\n      0x00\n      keccak256\n      0x00\n      swap1\n      sload\n      swap1\n      0x0100\n      exp\n      swap1\n      div\n      0xff\n      and\n        /* \"1127/util/AccessControl.sol\":1293:1328  return roles[role].hasRoles[member] */\n      swap1\n      pop\n        /* \"1127/util/AccessControl.sol\":1209:1335  function hasRole(bytes32 role, address member) public view returns (bool) {... */\n      swap3\n      swap2\n      pop\n      pop\n      jump\t// out\n        /* \"1127/util/AccessControl.sol\":206:250  bytes32 public constant DEFAULT_ADMIN = 0x00 */\n    tag_26:\n        /* \"1127/util/AccessControl.sol\":246:250  0x00 */\n      0x00\n        /* \"1127/util/AccessControl.sol\":206:250  bytes32 public constant DEFAULT_ADMIN = 0x00 */\n      dup1\n      shl\n      dup2\n      jump\t// out\n        /* \"1127/util/AccessControl.sol\":1011:1194  function checkRole(bytes32 role) public view returns (bool) {... */\n    tag_30:\n        /* \"1127/util/AccessControl.sol\":1065:1069  bool */\n      0x00\n        /* \"1127/util/AccessControl.sol\":1086:1111  hasRole(role, msg.sender) */\n      tag_45\n        /* \"1127/util/AccessControl.sol\":1094:1098  role */\n      dup3\n        /* \"1127/util/AccessControl.sol\":1100:1110  msg.sender */\n      caller\n        /* \"1127/util/AccessControl.sol\":1086:1093  hasRole */\n      tag_23\n        /* \"1127/util/AccessControl.sol\":1086:1111  hasRole(role, msg.sender) */\n      jump\t// in\n    tag_45:\n        /* \"1127/util/AccessControl.sol\":1081:1167  if (!hasRole(role, msg.sender)) {... */\n      tag_46\n      jumpi\n        /* \"1127/util/AccessControl.sol\":1127:1156  revert(\"UnAuthorizedAccount\") */\n      mload(0x40)\n      0x08c379a000000000000000000000000000000000000000000000000000000000\n      dup2\n      mstore\n      0x04\n      add\n      tag_47\n      swap1\n      tag_48\n      jump\t// in\n    tag_47:\n      mload(0x40)\n      dup1\n      swap2\n      sub\n      swap1\n      revert\n        /* \"1127/util/AccessControl.sol\":1081:1167  if (!hasRole(role, msg.sender)) {... */\n    tag_46:\n        /* \"1127/util/AccessControl.sol\":1183:1187  true */\n      0x01\n        /* \"1127/util/AccessControl.sol\":1176:1187  return true */\n      swap1\n      pop\n        /* \"1127/util/AccessControl.sol\":1011:1194  function checkRole(bytes32 role) public view returns (bool) {... */\n      swap2\n      swap1\n      pop\n      jump\t// out\n        /* \"1127/util/AccessControl.sol\":2161:2490  function revokeRole(bytes32 role, address member)... */\n    tag_34:\n        /* \"1127/util/AccessControl.sol\":2280:2284  bool */\n      0x00\n        /* \"1127/util/AccessControl.sol\":2243:2261  getRoleAdmin(role) */\n      tag_49\n        /* \"1127/util/AccessControl.sol\":2256:2260  role */\n      dup4\n        /* \"1127/util/AccessControl.sol\":2243:2255  getRoleAdmin */\n      tag_12\n        /* \"1127/util/AccessControl.sol\":2243:2261  getRoleAdmin(role) */\n      jump\t// in\n    tag_49:\n        /* \"1127/util/AccessControl.sol\":856:871  checkRole(role) */\n      tag_51\n        /* \"1127/util/AccessControl.sol\":866:870  role */\n      dup2\n        /* \"1127/util/AccessControl.sol\":856:865  checkRole */\n      tag_30\n        /* \"1127/util/AccessControl.sol\":856:871  checkRole(role) */\n      jump\t// in\n    tag_51:\n      pop\n        /* \"1127/util/AccessControl.sol\":2305:2326  hasRole(role, member) */\n      tag_53\n        /* \"1127/util/AccessControl.sol\":2313:2317  role */\n      dup5\n        /* \"1127/util/AccessControl.sol\":2319:2325  member */\n      dup5\n        /* \"1127/util/AccessControl.sol\":2305:2312  hasRole */\n      tag_23\n        /* \"1127/util/AccessControl.sol\":2305:2326  hasRole(role, member) */\n      jump\t// in\n    tag_53:\n        /* \"1127/util/AccessControl.sol\":2300:2365  if (!hasRole(role, member)) {... */\n      tag_54\n      jumpi\n        /* \"1127/util/AccessControl.sol\":2349:2354  false */\n      0x00\n        /* \"1127/util/AccessControl.sol\":2342:2354  return false */\n      swap2\n      pop\n      jump(tag_52)\n        /* \"1127/util/AccessControl.sol\":2300:2365  if (!hasRole(role, member)) {... */\n    tag_54:\n        /* \"1127/util/AccessControl.sol\":2405:2410  false */\n      0x00\n        /* \"1127/util/AccessControl.sol\":2374:2379  roles */\n      dup1\n        /* \"1127/util/AccessControl.sol\":2374:2385  roles[role] */\n      0x00\n        /* \"1127/util/AccessControl.sol\":2380:2384  role */\n      dup7\n        /* \"1127/util/AccessControl.sol\":2374:2385  roles[role] */\n      dup2\n      mstore\n      0x20\n      add\n      swap1\n      dup2\n      mstore\n      0x20\n      add\n      0x00\n      keccak256\n        /* \"1127/util/AccessControl.sol\":2374:2394  roles[role].hasRoles */\n      0x00\n      add\n        /* \"1127/util/AccessControl.sol\":2374:2402  roles[role].hasRoles[member] */\n      0x00\n        /* \"1127/util/AccessControl.sol\":2395:2401  member */\n      dup6\n        /* \"1127/util/AccessControl.sol\":2374:2402  roles[role].hasRoles[member] */\n      0xffffffffffffffffffffffffffffffffffffffff\n      and\n      0xffffffffffffffffffffffffffffffffffffffff\n      and\n      dup2\n      mstore\n      0x20\n      add\n      swap1\n      dup2\n      mstore\n      0x20\n      add\n      0x00\n      keccak256\n      0x00\n        /* \"1127/util/AccessControl.sol\":2374:2410  roles[role].hasRoles[member] = false */\n      0x0100\n      exp\n      dup2\n      sload\n      dup2\n      0xff\n      mul\n      not\n      and\n      swap1\n      dup4\n      iszero\n      iszero\n      mul\n      or\n      swap1\n      sstore\n      pop\n        /* \"1127/util/AccessControl.sol\":2451:2461  msg.sender */\n      caller\n        /* \"1127/util/AccessControl.sol\":2425:2462  RoleRevoked(role, member, msg.sender) */\n      0xffffffffffffffffffffffffffffffffffffffff\n      and\n        /* \"1127/util/AccessControl.sol\":2443:2449  member */\n      dup4\n        /* \"1127/util/AccessControl.sol\":2425:2462  RoleRevoked(role, member, msg.sender) */\n      0xffffffffffffffffffffffffffffffffffffffff\n      and\n        /* \"1127/util/AccessControl.sol\":2437:2441  role */\n      dup6\n        /* \"1127/util/AccessControl.sol\":2425:2462  RoleRevoked(role, member, msg.sender) */\n      0xf6391f5c32d9c69d2a47ea670b442974b53935d1edc7fd64eb21e047a839171b\n      mload(0x40)\n      mload(0x40)\n      dup1\n      swap2\n      sub\n      swap1\n      log4\n        /* \"1127/util/AccessControl.sol\":2479:2483  true */\n      0x01\n        /* \"1127/util/AccessControl.sol\":2472:2483  return true */\n      swap2\n      pop\n        /* \"1127/util/AccessControl.sol\":881:882  _ */\n    tag_52:\n        /* \"1127/util/AccessControl.sol\":2161:2490  function revokeRole(bytes32 role, address member)... */\n      pop\n      swap3\n      swap2\n      pop\n      pop\n      jump\t// out\n        /* \"#utility.yul\":88:205   */\n    tag_56:\n        /* \"#utility.yul\":197:198   */\n      0x00\n        /* \"#utility.yul\":194:195   */\n      dup1\n        /* \"#utility.yul\":187:199   */\n      revert\n        /* \"#utility.yul\":334:411   */\n    tag_58:\n        /* \"#utility.yul\":371:378   */\n      0x00\n        /* \"#utility.yul\":400:405   */\n      dup2\n        /* \"#utility.yul\":389:405   */\n      swap1\n      pop\n        /* \"#utility.yul\":334:411   */\n      swap2\n      swap1\n      pop\n      jump\t// out\n        /* \"#utility.yul\":417:539   */\n    tag_59:\n        /* \"#utility.yul\":490:514   */\n      tag_77\n        /* \"#utility.yul\":508:513   */\n      dup2\n        /* \"#utility.yul\":490:514   */\n      tag_58\n      jump\t// in\n    tag_77:\n        /* \"#utility.yul\":483:488   */\n      dup2\n        /* \"#utility.yul\":480:515   */\n      eq\n        /* \"#utility.yul\":470:533   */\n      tag_78\n      jumpi\n        /* \"#utility.yul\":529:530   */\n      0x00\n        /* \"#utility.yul\":526:527   */\n      dup1\n        /* \"#utility.yul\":519:531   */\n      revert\n        /* \"#utility.yul\":470:533   */\n    tag_78:\n        /* \"#utility.yul\":417:539   */\n      pop\n      jump\t// out\n        /* \"#utility.yul\":545:684   */\n    tag_60:\n        /* \"#utility.yul\":591:596   */\n      0x00\n        /* \"#utility.yul\":629:635   */\n      dup2\n        /* \"#utility.yul\":616:636   */\n      calldataload\n        /* \"#utility.yul\":607:636   */\n      swap1\n      pop\n        /* \"#utility.yul\":645:678   */\n      tag_80\n        /* \"#utility.yul\":672:677   */\n      dup2\n        /* \"#utility.yul\":645:678   */\n      tag_59\n      jump\t// in\n    tag_80:\n        /* \"#utility.yul\":545:684   */\n      swap3\n      swap2\n      pop\n      pop\n      jump\t// out\n        /* \"#utility.yul\":690:1019   */\n    tag_11:\n        /* \"#utility.yul\":749:755   */\n      0x00\n        /* \"#utility.yul\":798:800   */\n      0x20\n        /* \"#utility.yul\":786:795   */\n      dup3\n        /* \"#utility.yul\":777:784   */\n      dup5\n        /* \"#utility.yul\":773:796   */\n      sub\n        /* \"#utility.yul\":769:801   */\n      slt\n        /* \"#utility.yul\":766:885   */\n      iszero\n      tag_82\n      jumpi\n        /* \"#utility.yul\":804:883   */\n      tag_83\n      tag_56\n      jump\t// in\n    tag_83:\n        /* \"#utility.yul\":766:885   */\n    tag_82:\n        /* \"#utility.yul\":924:925   */\n      0x00\n        /* \"#utility.yul\":949:1002   */\n      tag_84\n        /* \"#utility.yul\":994:1001   */\n      dup5\n        /* \"#utility.yul\":985:991   */\n      dup3\n        /* \"#utility.yul\":974:983   */\n      dup6\n        /* \"#utility.yul\":970:992   */\n      add\n        /* \"#utility.yul\":949:1002   */\n      tag_60\n      jump\t// in\n    tag_84:\n        /* \"#utility.yul\":939:1002   */\n      swap2\n      pop\n        /* \"#utility.yul\":895:1012   */\n      pop\n        /* \"#utility.yul\":690:1019   */\n      swap3\n      swap2\n      pop\n      pop\n      jump\t// out\n        /* \"#utility.yul\":1025:1143   */\n    tag_61:\n        /* \"#utility.yul\":1112:1136   */\n      tag_86\n        /* \"#utility.yul\":1130:1135   */\n      dup2\n        /* \"#utility.yul\":1112:1136   */\n      tag_58\n      jump\t// in\n    tag_86:\n        /* \"#utility.yul\":1107:1110   */\n      dup3\n        /* \"#utility.yul\":1100:1137   */\n      mstore\n        /* \"#utility.yul\":1025:1143   */\n      pop\n      pop\n      jump\t// out\n        /* \"#utility.yul\":1149:1371   */\n    tag_14:\n        /* \"#utility.yul\":1242:1246   */\n      0x00\n        /* \"#utility.yul\":1280:1282   */\n      0x20\n        /* \"#utility.yul\":1269:1278   */\n      dup3\n        /* \"#utility.yul\":1265:1283   */\n      add\n        /* \"#utility.yul\":1257:1283   */\n      swap1\n      pop\n        /* \"#utility.yul\":1293:1364   */\n      tag_88\n        /* \"#utility.yul\":1361:1362   */\n      0x00\n        /* \"#utility.yul\":1350:1359   */\n      dup4\n        /* \"#utility.yul\":1346:1363   */\n      add\n        /* \"#utility.yul\":1337:1343   */\n      dup5\n        /* \"#utility.yul\":1293:1364   */\n      tag_61\n      jump\t// in\n    tag_88:\n        /* \"#utility.yul\":1149:1371   */\n      swap3\n      swap2\n      pop\n      pop\n      jump\t// out\n        /* \"#utility.yul\":1377:1503   */\n    tag_62:\n        /* \"#utility.yul\":1414:1421   */\n      0x00\n        /* \"#utility.yul\":1454:1496   */\n      0xffffffffffffffffffffffffffffffffffffffff\n        /* \"#utility.yul\":1447:1452   */\n      dup3\n        /* \"#utility.yul\":1443:1497   */\n      and\n        /* \"#utility.yul\":1432:1497   */\n      swap1\n      pop\n        /* \"#utility.yul\":1377:1503   */\n      swap2\n      swap1\n      pop\n      jump\t// out\n        /* \"#utility.yul\":1509:1605   */\n    tag_63:\n        /* \"#utility.yul\":1546:1553   */\n      0x00\n        /* \"#utility.yul\":1575:1599   */\n      tag_91\n        /* \"#utility.yul\":1593:1598   */\n      dup3\n        /* \"#utility.yul\":1575:1599   */\n      tag_62\n      jump\t// in\n    tag_91:\n        /* \"#utility.yul\":1564:1599   */\n      swap1\n      pop\n        /* \"#utility.yul\":1509:1605   */\n      swap2\n      swap1\n      pop\n      jump\t// out\n        /* \"#utility.yul\":1611:1733   */\n    tag_64:\n        /* \"#utility.yul\":1684:1708   */\n      tag_93\n        /* \"#utility.yul\":1702:1707   */\n      dup2\n        /* \"#utility.yul\":1684:1708   */\n      tag_63\n      jump\t// in\n    tag_93:\n        /* \"#utility.yul\":1677:1682   */\n      dup2\n        /* \"#utility.yul\":1674:1709   */\n      eq\n        /* \"#utility.yul\":1664:1727   */\n      tag_94\n      jumpi\n        /* \"#utility.yul\":1723:1724   */\n      0x00\n        /* \"#utility.yul\":1720:1721   */\n      dup1\n        /* \"#utility.yul\":1713:1725   */\n      revert\n        /* \"#utility.yul\":1664:1727   */\n    tag_94:\n        /* \"#utility.yul\":1611:1733   */\n      pop\n      jump\t// out\n        /* \"#utility.yul\":1739:1878   */\n    tag_65:\n        /* \"#utility.yul\":1785:1790   */\n      0x00\n        /* \"#utility.yul\":1823:1829   */\n      dup2\n        /* \"#utility.yul\":1810:1830   */\n      calldataload\n        /* \"#utility.yul\":1801:1830   */\n      swap1\n      pop\n        /* \"#utility.yul\":1839:1872   */\n      tag_96\n        /* \"#utility.yul\":1866:1871   */\n      dup2\n        /* \"#utility.yul\":1839:1872   */\n      tag_64\n      jump\t// in\n    tag_96:\n        /* \"#utility.yul\":1739:1878   */\n      swap3\n      swap2\n      pop\n      pop\n      jump\t// out\n        /* \"#utility.yul\":1884:2358   */\n    tag_17:\n        /* \"#utility.yul\":1952:1958   */\n      0x00\n        /* \"#utility.yul\":1960:1966   */\n      dup1\n        /* \"#utility.yul\":2009:2011   */\n      0x40\n        /* \"#utility.yul\":1997:2006   */\n      dup4\n        /* \"#utility.yul\":1988:1995   */\n      dup6\n        /* \"#utility.yul\":1984:2007   */\n      sub\n        /* \"#utility.yul\":1980:2012   */\n      slt\n        /* \"#utility.yul\":1977:2096   */\n      iszero\n      tag_98\n      jumpi\n        /* \"#utility.yul\":2015:2094   */\n      tag_99\n      tag_56\n      jump\t// in\n    tag_99:\n        /* \"#utility.yul\":1977:2096   */\n    tag_98:\n        /* \"#utility.yul\":2135:2136   */\n      0x00\n        /* \"#utility.yul\":2160:2213   */\n      tag_100\n        /* \"#utility.yul\":2205:2212   */\n      dup6\n        /* \"#utility.yul\":2196:2202   */\n      dup3\n        /* \"#utility.yul\":2185:2194   */\n      dup7\n        /* \"#utility.yul\":2181:2203   */\n      add\n        /* \"#utility.yul\":2160:2213   */\n      tag_60\n      jump\t// in\n    tag_100:\n        /* \"#utility.yul\":2150:2213   */\n      swap3\n      pop\n        /* \"#utility.yul\":2106:2223   */\n      pop\n        /* \"#utility.yul\":2262:2264   */\n      0x20\n        /* \"#utility.yul\":2288:2341   */\n      tag_101\n        /* \"#utility.yul\":2333:2340   */\n      dup6\n        /* \"#utility.yul\":2324:2330   */\n      dup3\n        /* \"#utility.yul\":2313:2322   */\n      dup7\n        /* \"#utility.yul\":2309:2331   */\n      add\n        /* \"#utility.yul\":2288:2341   */\n      tag_65\n      jump\t// in\n    tag_101:\n        /* \"#utility.yul\":2278:2341   */\n      swap2\n      pop\n        /* \"#utility.yul\":2233:2351   */\n      pop\n        /* \"#utility.yul\":1884:2358   */\n      swap3\n      pop\n      swap3\n      swap1\n      pop\n      jump\t// out\n        /* \"#utility.yul\":2364:2454   */\n    tag_66:\n        /* \"#utility.yul\":2398:2405   */\n      0x00\n        /* \"#utility.yul\":2441:2446   */\n      dup2\n        /* \"#utility.yul\":2434:2447   */\n      iszero\n        /* \"#utility.yul\":2427:2448   */\n      iszero\n        /* \"#utility.yul\":2416:2448   */\n      swap1\n      pop\n        /* \"#utility.yul\":2364:2454   */\n      swap2\n      swap1\n      pop\n      jump\t// out\n        /* \"#utility.yul\":2460:2569   */\n    tag_67:\n        /* \"#utility.yul\":2541:2562   */\n      tag_104\n        /* \"#utility.yul\":2556:2561   */\n      dup2\n        /* \"#utility.yul\":2541:2562   */\n      tag_66\n      jump\t// in\n    tag_104:\n        /* \"#utility.yul\":2536:2539   */\n      dup3\n        /* \"#utility.yul\":2529:2563   */\n      mstore\n        /* \"#utility.yul\":2460:2569   */\n      pop\n      pop\n      jump\t// out\n        /* \"#utility.yul\":2575:2785   */\n    tag_20:\n        /* \"#utility.yul\":2662:2666   */\n      0x00\n        /* \"#utility.yul\":2700:2702   */\n      0x20\n        /* \"#utility.yul\":2689:2698   */\n      dup3\n        /* \"#utility.yul\":2685:2703   */\n      add\n        /* \"#utility.yul\":2677:2703   */\n      swap1\n      pop\n        /* \"#utility.yul\":2713:2778   */\n      tag_106\n        /* \"#utility.yul\":2775:2776   */\n      0x00\n        /* \"#utility.yul\":2764:2773   */\n      dup4\n        /* \"#utility.yul\":2760:2777   */\n      add\n        /* \"#utility.yul\":2751:2757   */\n      dup5\n        /* \"#utility.yul\":2713:2778   */\n      tag_67\n      jump\t// in\n    tag_106:\n        /* \"#utility.yul\":2575:2785   */\n      swap3\n      swap2\n      pop\n      pop\n      jump\t// out\n        /* \"#utility.yul\":2791:2960   */\n    tag_68:\n        /* \"#utility.yul\":2875:2886   */\n      0x00\n        /* \"#utility.yul\":2909:2915   */\n      dup3\n        /* \"#utility.yul\":2904:2907   */\n      dup3\n        /* \"#utility.yul\":2897:2916   */\n      mstore\n        /* \"#utility.yul\":2949:2953   */\n      0x20\n        /* \"#utility.yul\":2944:2947   */\n      dup3\n        /* \"#utility.yul\":2940:2954   */\n      add\n        /* \"#utility.yul\":2925:2954   */\n      swap1\n      pop\n        /* \"#utility.yul\":2791:2960   */\n      swap3\n      swap2\n      pop\n      pop\n      jump\t// out\n        /* \"#utility.yul\":2966:3135   */\n    tag_69:\n        /* \"#utility.yul\":3106:3127   */\n      0x556e417574686f72697a65644163636f756e7400000000000000000000000000\n        /* \"#utility.yul\":3102:3103   */\n      0x00\n        /* \"#utility.yul\":3094:3100   */\n      dup3\n        /* \"#utility.yul\":3090:3104   */\n      add\n        /* \"#utility.yul\":3083:3128   */\n      mstore\n        /* \"#utility.yul\":2966:3135   */\n      pop\n      jump\t// out\n        /* \"#utility.yul\":3141:3507   */\n    tag_70:\n        /* \"#utility.yul\":3283:3286   */\n      0x00\n        /* \"#utility.yul\":3304:3371   */\n      tag_110\n        /* \"#utility.yul\":3368:3370   */\n      0x13\n        /* \"#utility.yul\":3363:3366   */\n      dup4\n        /* \"#utility.yul\":3304:3371   */\n      tag_68\n      jump\t// in\n    tag_110:\n        /* \"#utility.yul\":3297:3371   */\n      swap2\n      pop\n        /* \"#utility.yul\":3380:3473   */\n      tag_111\n        /* \"#utility.yul\":3469:3472   */\n      dup3\n        /* \"#utility.yul\":3380:3473   */\n      tag_69\n      jump\t// in\n    tag_111:\n        /* \"#utility.yul\":3498:3500   */\n      0x20\n        /* \"#utility.yul\":3493:3496   */\n      dup3\n        /* \"#utility.yul\":3489:3501   */\n      add\n        /* \"#utility.yul\":3482:3501   */\n      swap1\n      pop\n        /* \"#utility.yul\":3141:3507   */\n      swap2\n      swap1\n      pop\n      jump\t// out\n        /* \"#utility.yul\":3513:3932   */\n    tag_48:\n        /* \"#utility.yul\":3679:3683   */\n      0x00\n        /* \"#utility.yul\":3717:3719   */\n      0x20\n        /* \"#utility.yul\":3706:3715   */\n      dup3\n        /* \"#utility.yul\":3702:3720   */\n      add\n        /* \"#utility.yul\":3694:3720   */\n      swap1\n      pop\n        /* \"#utility.yul\":3766:3775   */\n      dup2\n        /* \"#utility.yul\":3760:3764   */\n      dup2\n        /* \"#utility.yul\":3756:3776   */\n      sub\n        /* \"#utility.yul\":3752:3753   */\n      0x00\n        /* \"#utility.yul\":3741:3750   */\n      dup4\n        /* \"#utility.yul\":3737:3754   */\n      add\n        /* \"#utility.yul\":3730:3777   */\n      mstore\n        /* \"#utility.yul\":3794:3925   */\n      tag_113\n        /* \"#utility.yul\":3920:3924   */\n      dup2\n        /* \"#utility.yul\":3794:3925   */\n      tag_70\n      jump\t// in\n    tag_113:\n        /* \"#utility.yul\":3786:3925   */\n      swap1\n      pop\n        /* \"#utility.yul\":3513:3932   */\n      swap2\n      swap1\n      pop\n      jump\t// out\n\n    auxdata: 0xa264697066735822122028cfce6ad5889d0b48b0e36fe4d8174cf5b75bc9c5584608bebad954abe0244c64736f6c634300080b0033\n}\n",
				"bytecode": {
					"linkReferences": {},
					"object": "608060405234801561001057600080fd5b506040516107b43803806107b483398181016040528101906100329190610109565b60016000808060001b815260200190815260200160002060000160008373ffffffffffffffffffffffffffffffffffffffff1673ffffffffffffffffffffffffffffffffffffffff16815260200190815260200160002060006101000a81548160ff02191690831515021790555050610136565b600080fd5b600073ffffffffffffffffffffffffffffffffffffffff82169050919050565b60006100d6826100ab565b9050919050565b6100e6816100cb565b81146100f157600080fd5b50565b600081519050610103816100dd565b92915050565b60006020828403121561011f5761011e6100a6565b5b600061012d848285016100f4565b91505092915050565b61066f806101456000396000f3fe608060405234801561001057600080fd5b50600436106100625760003560e01c8063248a9ca3146100675780632f2ff15d1461009757806391d14854146100c75780639cdeba95146100f7578063c5b9519014610115578063d547741f14610145575b600080fd5b610081600480360381019061007c9190610491565b610175565b60405161008e91906104cd565b60405180910390f35b6100b160048036038101906100ac9190610546565b610194565b6040516100be91906105a1565b60405180910390f35b6100e160048036038101906100dc9190610546565b610293565b6040516100ee91906105a1565b60405180910390f35b6100ff6102fd565b60405161010c91906104cd565b60405180910390f35b61012f600480360381019061012a9190610491565b610304565b60405161013c91906105a1565b60405180910390f35b61015f600480360381019061015a9190610546565b610358565b60405161016c91906105a1565b60405180910390f35b6000806000838152602001908152602001600020600101549050919050565b600061019f83610175565b6101a881610304565b506101b38484610293565b156101c1576000915061028c565b600160008086815260200190815260200160002060000160008573ffffffffffffffffffffffffffffffffffffffff1673ffffffffffffffffffffffffffffffffffffffff16815260200190815260200160002060006101000a81548160ff0219169083151502179055503373ffffffffffffffffffffffffffffffffffffffff168373ffffffffffffffffffffffffffffffffffffffff16857f2f8788117e7eff1d82e926ec794901d17c78024a50270940304540a733656f0d60405160405180910390a4600191505b5092915050565b600080600084815260200190815260200160002060000160008373ffffffffffffffffffffffffffffffffffffffff1673ffffffffffffffffffffffffffffffffffffffff16815260200190815260200160002060009054906101000a900460ff16905092915050565b6000801b81565b60006103108233610293565b61034f576040517f08c379a000000000000000000000000000000000000000000000000000000000815260040161034690610619565b60405180910390fd5b60019050919050565b600061036383610175565b61036c81610304565b506103778484610293565b610384576000915061044f565b600080600086815260200190815260200160002060000160008573ffffffffffffffffffffffffffffffffffffffff1673ffffffffffffffffffffffffffffffffffffffff16815260200190815260200160002060006101000a81548160ff0219169083151502179055503373ffffffffffffffffffffffffffffffffffffffff168373ffffffffffffffffffffffffffffffffffffffff16857ff6391f5c32d9c69d2a47ea670b442974b53935d1edc7fd64eb21e047a839171b60405160405180910390a4600191505b5092915050565b600080fd5b6000819050919050565b61046e8161045b565b811461047957600080fd5b50565b60008135905061048b81610465565b92915050565b6000602082840312156104a7576104a6610456565b5b60006104b58482850161047c565b91505092915050565b6104c78161045b565b82525050565b60006020820190506104e260008301846104be565b92915050565b600073ffffffffffffffffffffffffffffffffffffffff82169050919050565b6000610513826104e8565b9050919050565b61052381610508565b811461052e57600080fd5b50565b6000813590506105408161051a565b92915050565b6000806040838503121561055d5761055c610456565b5b600061056b8582860161047c565b925050602061057c85828601610531565b9150509250929050565b60008115159050919050565b61059b81610586565b82525050565b60006020820190506105b66000830184610592565b92915050565b600082825260208201905092915050565b7f556e417574686f72697a65644163636f756e7400000000000000000000000000600082015250565b60006106036013836105bc565b915061060e826105cd565b602082019050919050565b60006020820190508181036000830152610632816105f6565b905091905056fea264697066735822122028cfce6ad5889d0b48b0e36fe4d8174cf5b75bc9c5584608bebad954abe0244c64736f6c634300080b0033",
					"opcodes": "PUSH1 0x80 PUSH1 0x40 MSTORE CALLVALUE DUP1 ISZERO PUSH2 0x10 JUMPI PUSH1 0x0 DUP1 REVERT JUMPDEST POP PUSH1 0x40 MLOAD PUSH2 0x7B4 CODESIZE SUB DUP1 PUSH2 0x7B4 DUP4 CODECOPY DUP2 DUP2 ADD PUSH1 0x40 MSTORE DUP2 ADD SWAP1 PUSH2 0x32 SWAP2 SWAP1 PUSH2 0x109 JUMP JUMPDEST PUSH1 0x1 PUSH1 0x0 DUP1 DUP1 PUSH1 0x0 SHL DUP2 MSTORE PUSH1 0x20 ADD SWAP1 DUP2 MSTORE PUSH1 0x20 ADD PUSH1 0x0 KECCAK256 PUSH1 0x0 ADD PUSH1 0x0 DUP4 PUSH20 0xFFFFFFFFFFFFFFFFFFFFFFFFFFFFFFFFFFFFFFFF AND PUSH20 0xFFFFFFFFFFFFFFFFFFFFFFFFFFFFFFFFFFFFFFFF AND DUP2 MSTORE PUSH1 0x20 ADD SWAP1 DUP2 MSTORE PUSH1 0x20 ADD PUSH1 0x0 KECCAK256 PUSH1 0x0 PUSH2 0x100 EXP DUP2 SLOAD DUP2 PUSH1 0xFF MUL NOT AND SWAP1 DUP4 ISZERO ISZERO MUL OR SWAP1 SSTORE POP POP PUSH2 0x136 JUMP JUMPDEST PUSH1 0x0 DUP1 REVERT JUMPDEST PUSH1 0x0 PUSH20 0xFFFFFFFFFFFFFFFFFFFFFFFFFFFFFFFFFFFFFFFF DUP3 AND SWAP1 POP SWAP2 SWAP1 POP JUMP JUMPDEST PUSH1 0x0 PUSH2 0xD6 DUP3 PUSH2 0xAB JUMP JUMPDEST SWAP1 POP SWAP2 SWAP1 POP JUMP JUMPDEST PUSH2 0xE6 DUP2 PUSH2 0xCB JUMP JUMPDEST DUP2 EQ PUSH2 0xF1 JUMPI PUSH1 0x0 DUP1 REVERT JUMPDEST POP JUMP JUMPDEST PUSH1 0x0 DUP2 MLOAD SWAP1 POP PUSH2 0x103 DUP2 PUSH2 0xDD JUMP JUMPDEST SWAP3 SWAP2 POP POP JUMP JUMPDEST PUSH1 0x0 PUSH1 0x20 DUP3 DUP5 SUB SLT ISZERO PUSH2 0x11F JUMPI PUSH2 0x11E PUSH2 0xA6 JUMP JUMPDEST JUMPDEST PUSH1 0x0 PUSH2 0x12D DUP5 DUP3 DUP6 ADD PUSH2 0xF4 JUMP JUMPDEST SWAP2 POP POP SWAP3 SWAP2 POP POP JUMP JUMPDEST PUSH2 0x66F DUP1 PUSH2 0x145 PUSH1 0x0 CODECOPY PUSH1 0x0 RETURN INVALID PUSH1 0x80 PUSH1 0x40 MSTORE CALLVALUE DUP1 ISZERO PUSH2 0x10 JUMPI PUSH1 0x0 DUP1 REVERT JUMPDEST POP PUSH1 0x4 CALLDATASIZE LT PUSH2 0x62 JUMPI PUSH1 0x0 CALLDATALOAD PUSH1 0xE0 SHR DUP1 PUSH4 0x248A9CA3 EQ PUSH2 0x67 JUMPI DUP1 PUSH4 0x2F2FF15D EQ PUSH2 0x97 JUMPI DUP1 PUSH4 0x91D14854 EQ PUSH2 0xC7 JUMPI DUP1 PUSH4 0x9CDEBA95 EQ PUSH2 0xF7 JUMPI DUP1 PUSH4 0xC5B95190 EQ PUSH2 0x115 JUMPI DUP1 PUSH4 0xD547741F EQ PUSH2 0x145 JUMPI JUMPDEST PUSH1 0x0 DUP1 REVERT JUMPDEST PUSH2 0x81 PUSH1 0x4 DUP1 CALLDATASIZE SUB DUP2 ADD SWAP1 PUSH2 0x7C SWAP2 SWAP1 PUSH2 0x491 JUMP JUMPDEST PUSH2 0x175 JUMP JUMPDEST PUSH1 0x40 MLOAD PUSH2 0x8E SWAP2 SWAP1 PUSH2 0x4CD JUMP JUMPDEST PUSH1 0x40 MLOAD DUP1 SWAP2 SUB SWAP1 RETURN JUMPDEST PUSH2 0xB1 PUSH1 0x4 DUP1 CALLDATASIZE SUB DUP2 ADD SWAP1 PUSH2 0xAC SWAP2 SWAP1 PUSH2 0x546 JUMP JUMPDEST PUSH2 0x194 JUMP JUMPDEST PUSH1 0x40 MLOAD PUSH2 0xBE SWAP2 SWAP1 PUSH2 0x5A1 JUMP JUMPDEST PUSH1 0x40 MLOAD DUP1 SWAP2 SUB SWAP1 RETURN JUMPDEST PUSH2 0xE1 PUSH1 0x4 DUP1 CALLDATASIZE SUB DUP2 ADD SWAP1 PUSH2 0xDC SWAP2 SWAP1 PUSH2 0x546 JUMP JUMPDEST PUSH2 0x293 JUMP JUMPDEST PUSH1 0x40 MLOAD PUSH2 0xEE SWAP2 SWAP1 PUSH2 0x5A1 JUMP JUMPDEST PUSH1 0x40 MLOAD DUP1 SWAP2 SUB SWAP1 RETURN JUMPDEST PUSH2 0xFF PUSH2 0x2FD JUMP JUMPDEST PUSH1 0x40 MLOAD PUSH2 0x10C SWAP2 SWAP1 PUSH2 0x4CD JUMP JUMPDEST PUSH1 0x40 MLOAD DUP1 SWAP2 SUB SWAP1 RETURN JUMPDEST PUSH2 0x12F PUSH1 0x4 DUP1 CALLDATASIZE SUB DUP2 ADD SWAP1 PUSH2 0x12A SWAP2 SWAP1 PUSH2 0x491 JUMP JUMPDEST PUSH2 0x304 JUMP JUMPDEST PUSH1 0x40 MLOAD PUSH2 0x13C SWAP2 SWAP1 PUSH2 0x5A1 JUMP JUMPDEST PUSH1 0x40 MLOAD DUP1 SWAP2 SUB SWAP1 RETURN JUMPDEST PUSH2 0x15F PUSH1 0x4 DUP1 CALLDATASIZE SUB DUP2 ADD SWAP1 PUSH2 0x15A SWAP2 SWAP1 PUSH2 0x546 JUMP JUMPDEST PUSH2 0x358 JUMP JUMPDEST PUSH1 0x40 MLOAD PUSH2 0x16C SWAP2 SWAP1 PUSH2 0x5A1 JUMP JUMPDEST PUSH1 0x40 MLOAD DUP1 SWAP2 SUB SWAP1 RETURN JUMPDEST PUSH1 0x0 DUP1 PUSH1 0x0 DUP4 DUP2 MSTORE PUSH1 0x20 ADD SWAP1 DUP2 MSTORE PUSH1 0x20 ADD PUSH1 0x0 KECCAK256 PUSH1 0x1 ADD SLOAD SWAP1 POP SWAP2 SWAP1 POP JUMP JUMPDEST PUSH1 0x0 PUSH2 0x19F DUP4 PUSH2 0x175 JUMP JUMPDEST PUSH2 0x1A8 DUP2 PUSH2 0x304 JUMP JUMPDEST POP PUSH2 0x1B3 DUP5 DUP5 PUSH2 0x293 JUMP JUMPDEST ISZERO PUSH2 0x1C1 JUMPI PUSH1 0x0 SWAP2 POP PUSH2 0x28C JUMP JUMPDEST PUSH1 0x1 PUSH1 0x0 DUP1 DUP7 DUP2 MSTORE PUSH1 0x20 ADD SWAP1 DUP2 MSTORE PUSH1 0x20 ADD PUSH1 0x0 KECCAK256 PUSH1 0x0 ADD PUSH1 0x0 DUP6 PUSH20 0xFFFFFFFFFFFFFFFFFFFFFFFFFFFFFFFFFFFFFFFF AND PUSH20 0xFFFFFFFFFFFFFFFFFFFFFFFFFFFFFFFFFFFFFFFF AND DUP2 MSTORE PUSH1 0x20 ADD SWAP1 DUP2 MSTORE PUSH1 0x20 ADD PUSH1 0x0 KECCAK256 PUSH1 0x0 PUSH2 0x100 EXP DUP2 SLOAD DUP2 PUSH1 0xFF MUL NOT AND SWAP1 DUP4 ISZERO ISZERO MUL OR SWAP1 SSTORE POP CALLER PUSH20 0xFFFFFFFFFFFFFFFFFFFFFFFFFFFFFFFFFFFFFFFF AND DUP4 PUSH20 0xFFFFFFFFFFFFFFFFFFFFFFFFFFFFFFFFFFFFFFFF AND DUP6 PUSH32 0x2F8788117E7EFF1D82E926EC794901D17C78024A50270940304540A733656F0D PUSH1 0x40 MLOAD PUSH1 0x40 MLOAD DUP1 SWAP2 SUB SWAP1 LOG4 PUSH1 0x1 SWAP2 POP JUMPDEST POP SWAP3 SWAP2 POP POP JUMP JUMPDEST PUSH1 0x0 DUP1 PUSH1 0x0 DUP5 DUP2 MSTORE PUSH1 0x20 ADD SWAP1 DUP2 MSTORE PUSH1 0x20 ADD PUSH1 0x0 KECCAK256 PUSH1 0x0 ADD PUSH1 0x0 DUP4 PUSH20 0xFFFFFFFFFFFFFFFFFFFFFFFFFFFFFFFFFFFFFFFF AND PUSH20 0xFFFFFFFFFFFFFFFFFFFFFFFFFFFFFFFFFFFFFFFF AND DUP2 MSTORE PUSH1 0x20 ADD SWAP1 DUP2 MSTORE PUSH1 0x20 ADD PUSH1 0x0 KECCAK256 PUSH1 0x0 SWAP1 SLOAD SWAP1 PUSH2 0x100 EXP SWAP1 DIV PUSH1 0xFF AND SWAP1 POP SWAP3 SWAP2 POP POP JUMP JUMPDEST PUSH1 0x0 DUP1 SHL DUP2 JUMP JUMPDEST PUSH1 0x0 PUSH2 0x310 DUP3 CALLER PUSH2 0x293 JUMP JUMPDEST PUSH2 0x34F JUMPI PUSH1 0x40 MLOAD PUSH32 0x8C379A000000000000000000000000000000000000000000000000000000000 DUP2 MSTORE PUSH1 0x4 ADD PUSH2 0x346 SWAP1 PUSH2 0x619 JUMP JUMPDEST PUSH1 0x40 MLOAD DUP1 SWAP2 SUB SWAP1 REVERT JUMPDEST PUSH1 0x1 SWAP1 POP SWAP2 SWAP1 POP JUMP JUMPDEST PUSH1 0x0 PUSH2 0x363 DUP4 PUSH2 0x175 JUMP JUMPDEST PUSH2 0x36C DUP2 PUSH2 0x304 JUMP JUMPDEST POP PUSH2 0x377 DUP5 DUP5 PUSH2 0x293 JUMP JUMPDEST PUSH2 0x384 JUMPI PUSH1 0x0 SWAP2 POP PUSH2 0x44F JUMP JUMPDEST PUSH1 0x0 DUP1 PUSH1 0x0 DUP7 DUP2 MSTORE PUSH1 0x20 ADD SWAP1 DUP2 MSTORE PUSH1 0x20 ADD PUSH1 0x0 KECCAK256 PUSH1 0x0 ADD PUSH1 0x0 DUP6 PUSH20 0xFFFFFFFFFFFFFFFFFFFFFFFFFFFFFFFFFFFFFFFF AND PUSH20 0xFFFFFFFFFFFFFFFFFFFFFFFFFFFFFFFFFFFFFFFF AND DUP2 MSTORE PUSH1 0x20 ADD SWAP1 DUP2 MSTORE PUSH1 0x20 ADD PUSH1 0x0 KECCAK256 PUSH1 0x0 PUSH2 0x100 EXP DUP2 SLOAD DUP2 PUSH1 0xFF MUL NOT AND SWAP1 DUP4 ISZERO ISZERO MUL OR SWAP1 SSTORE POP CALLER PUSH20 0xFFFFFFFFFFFFFFFFFFFFFFFFFFFFFFFFFFFFFFFF AND DUP4 PUSH20 0xFFFFFFFFFFFFFFFFFFFFFFFFFFFFFFFFFFFFFFFF AND DUP6 PUSH32 0xF6391F5C32D9C69D2A47EA670B442974B53935D1EDC7FD64EB21E047A839171B PUSH1 0x40 MLOAD PUSH1 0x40 MLOAD DUP1 SWAP2 SUB SWAP1 LOG4 PUSH1 0x1 SWAP2 POP JUMPDEST POP SWAP3 SWAP2 POP POP JUMP JUMPDEST PUSH1 0x0 DUP1 REVERT JUMPDEST PUSH1 0x0 DUP2 SWAP1 POP SWAP2 SWAP1 POP JUMP JUMPDEST PUSH2 0x46E DUP2 PUSH2 0x45B JUMP JUMPDEST DUP2 EQ PUSH2 0x479 JUMPI PUSH1 0x0 DUP1 REVERT JUMPDEST POP JUMP JUMPDEST PUSH1 0x0 DUP2 CALLDATALOAD SWAP1 POP PUSH2 0x48B DUP2 PUSH2 0x465 JUMP JUMPDEST SWAP3 SWAP2 POP POP JUMP JUMPDEST PUSH1 0x0 PUSH1 0x20 DUP3 DUP5 SUB SLT ISZERO PUSH2 0x4A7 JUMPI PUSH2 0x4A6 PUSH2 0x456 JUMP JUMPDEST JUMPDEST PUSH1 0x0 PUSH2 0x4B5 DUP5 DUP3 DUP6 ADD PUSH2 0x47C JUMP JUMPDEST SWAP2 POP POP SWAP3 SWAP2 POP POP JUMP JUMPDEST PUSH2 0x4C7 DUP2 PUSH2 0x45B JUMP JUMPDEST DUP3 MSTORE POP POP JUMP JUMPDEST PUSH1 0x0 PUSH1 0x20 DUP3 ADD SWAP1 POP PUSH2 0x4E2 PUSH1 0x0 DUP4 ADD DUP5 PUSH2 0x4BE JUMP JUMPDEST SWAP3 SWAP2 POP POP JUMP JUMPDEST PUSH1 0x0 PUSH20 0xFFFFFFFFFFFFFFFFFFFFFFFFFFFFFFFFFFFFFFFF DUP3 AND SWAP1 POP SWAP2 SWAP1 POP JUMP JUMPDEST PUSH1 0x0 PUSH2 0x513 DUP3 PUSH2 0x4E8 JUMP JUMPDEST SWAP1 POP SWAP2 SWAP1 POP JUMP JUMPDEST PUSH2 0x523 DUP2 PUSH2 0x508 JUMP JUMPDEST DUP2 EQ PUSH2 0x52E JUMPI PUSH1 0x0 DUP1 REVERT JUMPDEST POP JUMP JUMPDEST PUSH1 0x0 DUP2 CALLDATALOAD SWAP1 POP PUSH2 0x540 DUP2 PUSH2 0x51A JUMP JUMPDEST SWAP3 SWAP2 POP POP JUMP JUMPDEST PUSH1 0x0 DUP1 PUSH1 0x40 DUP4 DUP6 SUB SLT ISZERO PUSH2 0x55D JUMPI PUSH2 0x55C PUSH2 0x456 JUMP JUMPDEST JUMPDEST PUSH1 0x0 PUSH2 0x56B DUP6 DUP3 DUP7 ADD PUSH2 0x47C JUMP JUMPDEST SWAP3 POP POP PUSH1 0x20 PUSH2 0x57C DUP6 DUP3 DUP7 ADD PUSH2 0x531 JUMP JUMPDEST SWAP2 POP POP SWAP3 POP SWAP3 SWAP1 POP JUMP JUMPDEST PUSH1 0x0 DUP2 ISZERO ISZERO SWAP1 POP SWAP2 SWAP1 POP JUMP JUMPDEST PUSH2 0x59B DUP2 PUSH2 0x586 JUMP JUMPDEST DUP3 MSTORE POP POP JUMP JUMPDEST PUSH1 0x0 PUSH1 0x20 DUP3 ADD SWAP1 POP PUSH2 0x5B6 PUSH1 0x0 DUP4 ADD DUP5 PUSH2 0x592 JUMP JUMPDEST SWAP3 SWAP2 POP POP JUMP JUMPDEST PUSH1 0x0 DUP3 DUP3 MSTORE PUSH1 0x20 DUP3 ADD SWAP1 POP SWAP3 SWAP2 POP POP JUMP JUMPDEST PUSH32 0x556E417574686F72697A65644163636F756E7400000000000000000000000000 PUSH1 0x0 DUP3 ADD MSTORE POP JUMP JUMPDEST PUSH1 0x0 PUSH2 0x603 PUSH1 0x13 DUP4 PUSH2 0x5BC JUMP JUMPDEST SWAP2 POP PUSH2 0x60E DUP3 PUSH2 0x5CD JUMP JUMPDEST PUSH1 0x20 DUP3 ADD SWAP1 POP SWAP2 SWAP1 POP JUMP JUMPDEST PUSH1 0x0 PUSH1 0x20 DUP3 ADD SWAP1 POP DUP2 DUP2 SUB PUSH1 0x0 DUP4 ADD MSTORE PUSH2 0x632 DUP2 PUSH2 0x5F6 JUMP JUMPDEST SWAP1 POP SWAP2 SWAP1 POP JUMP INVALID LOG2 PUSH5 0x6970667358 0x22 SLT KECCAK256 0x28 0xCF 0xCE PUSH11 0xD5889D0B48B0E36FE4D817 0x4C CREATE2 0xB7 JUMPDEST 0xC9 0xC5 PC CHAINID ADDMOD 0xBE 0xBA 0xD9 SLOAD 0xAB 0xE0 0x24 0x4C PUSH5 0x736F6C6343 STOP ADDMOD SIGNEXTEND STOP CALLER "
				},
				"gasEstimates": {
					"creation": {
						"codeDepositCost": "329400",
						"executionCost": "infinite",
						"totalCost": "infinite"
					},
					"external": {
						"DEFAULT_ADMIN()": "379",
						"checkRole(bytes32)": "3136",
						"getRoleAdmin(bytes32)": "infinite",
						"grantRole(bytes32,address)": "infinite",
						"hasRole(bytes32,address)": "3162",
						"revokeRole(bytes32,address)": "infinite"
					},
					"internal": {
						"setRoleAdmin(bytes32,bytes32)": "infinite"
					}
				},
				"methodIdentifiers": {
					"DEFAULT_ADMIN()": "9cdeba95",
					"checkRole(bytes32)": "c5b95190",
					"getRoleAdmin(bytes32)": "248a9ca3",
					"grantRole(bytes32,address)": "2f2ff15d",
					"hasRole(bytes32,address)": "91d14854",
					"revokeRole(bytes32,address)": "d547741f"
				}
			},
			"storageLayout": {
				"storage": [
					{
						"astId": 177,
						"contract": "1127/util/AccessControl.sol:AccessControl",
						"label": "roles",
						"offset": 0,
						"slot": "0",
						"type": "t_mapping(t_bytes32,t_struct(RoleData)169_storage)"
					}
				],
				"types": {
					"t_address": {
						"encoding": "inplace",
						"label": "address",
						"numberOfBytes": "20"
					},
					"t_bool": {
						"encoding": "inplace",
						"label": "bool",
						"numberOfBytes": "1"
					},
					"t_bytes32": {
						"encoding": "inplace",
						"label": "bytes32",
						"numberOfBytes": "32"
					},
					"t_mapping(t_address,t_bool)": {
						"encoding": "mapping",
						"key": "t_address",
						"label": "mapping(address => bool)",
						"numberOfBytes": "32",
						"value": "t_bool"
					},
					"t_mapping(t_bytes32,t_struct(RoleData)169_storage)": {
						"encoding": "mapping",
						"key": "t_bytes32",
						"label": "mapping(bytes32 => struct AccessControl.RoleData)",
						"numberOfBytes": "32",
						"value": "t_struct(RoleData)169_storage"
					},
					"t_struct(RoleData)169_storage": {
						"encoding": "inplace",
						"label": "struct AccessControl.RoleData",
						"members": [
							{
								"astId": 166,
								"contract": "1127/util/AccessControl.sol:AccessControl",
								"label": "hasRoles",
								"offset": 0,
								"slot": "0",
								"type": "t_mapping(t_address,t_bool)"
							},
							{
								"astId": 168,
								"contract": "1127/util/AccessControl.sol:AccessControl",
								"label": "adminRole",
								"offset": 0,
								"slot": "1",
								"type": "t_bytes32"
							}
						],
						"numberOfBytes": "64"
					}
				}
			},
			"userdoc": {
				"kind": "user",
				"methods": {},
				"version": 1
			}
		}
	}
}