{
	"1127/CompanyProxy.sol": {
		"CompanyProxy": {
			"abi": [
				{
					"inputs": [
						{
							"internalType": "address",
							"name": "founder",
							"type": "address"
						},
						{
							"internalType": "string",
							"name": "_company_name",
							"type": "string"
						},
						{
							"internalType": "address",
							"name": "commonLogicAddress",
							"type": "address"
						}
					],
					"stateMutability": "nonpayable",
					"type": "constructor"
				},
				{
					"anonymous": false,
					"inputs": [
						{
							"indexed": false,
							"internalType": "string",
							"name": "groupName",
							"type": "string"
						},
						{
							"indexed": false,
							"internalType": "string",
							"name": "company_name",
							"type": "string"
						}
					],
					"name": "NewAssetGroupAdd",
					"type": "event"
				},
				{
					"anonymous": false,
					"inputs": [
						{
							"indexed": false,
							"internalType": "string",
							"name": "groupName",
							"type": "string"
						},
						{
							"indexed": false,
							"internalType": "string",
							"name": "company_name",
							"type": "string"
						}
					],
					"name": "NewAssetGroupClose",
					"type": "event"
				},
				{
					"anonymous": false,
					"inputs": [
						{
							"indexed": false,
							"internalType": "string",
							"name": "did",
							"type": "string"
						},
						{
							"indexed": false,
							"internalType": "string",
							"name": "company_name",
							"type": "string"
						}
					],
					"name": "NewWorkerAdd",
					"type": "event"
				},
				{
					"anonymous": false,
					"inputs": [
						{
							"indexed": false,
							"internalType": "string",
							"name": "did",
							"type": "string"
						},
						{
							"indexed": false,
							"internalType": "string",
							"name": "company_name",
							"type": "string"
						}
					],
					"name": "NewWorkerRemoved",
					"type": "event"
				},
				{
					"anonymous": false,
					"inputs": [
						{
							"indexed": true,
							"internalType": "bytes32",
							"name": "role",
							"type": "bytes32"
						},
						{
							"indexed": true,
							"internalType": "bytes32",
							"name": "previousAdminRole",
							"type": "bytes32"
						},
						{
							"indexed": true,
							"internalType": "bytes32",
							"name": "newAdminRole",
							"type": "bytes32"
						}
					],
					"name": "RoleAdminChanged",
					"type": "event"
				},
				{
					"anonymous": false,
					"inputs": [
						{
							"indexed": true,
							"internalType": "bytes32",
							"name": "role",
							"type": "bytes32"
						},
						{
							"indexed": true,
							"internalType": "address",
							"name": "account",
							"type": "address"
						},
						{
							"indexed": true,
							"internalType": "address",
							"name": "sender",
							"type": "address"
						}
					],
					"name": "RoleGranted",
					"type": "event"
				},
				{
					"anonymous": false,
					"inputs": [
						{
							"indexed": true,
							"internalType": "bytes32",
							"name": "role",
							"type": "bytes32"
						},
						{
							"indexed": true,
							"internalType": "address",
							"name": "account",
							"type": "address"
						},
						{
							"indexed": true,
							"internalType": "address",
							"name": "sender",
							"type": "address"
						}
					],
					"name": "RoleRevoked",
					"type": "event"
				},
				{
					"stateMutability": "nonpayable",
					"type": "fallback"
				},
				{
					"inputs": [],
					"name": "ADMIN_ROLE",
					"outputs": [
						{
							"internalType": "bytes32",
							"name": "",
							"type": "bytes32"
						}
					],
					"stateMutability": "view",
					"type": "function"
				},
				{
					"inputs": [],
					"name": "DEFAULT_ADMIN",
					"outputs": [
						{
							"internalType": "bytes32",
							"name": "",
							"type": "bytes32"
						}
					],
					"stateMutability": "view",
					"type": "function"
				},
				{
					"inputs": [],
					"name": "WORKER_ROLE",
					"outputs": [
						{
							"internalType": "bytes32",
							"name": "",
							"type": "bytes32"
						}
					],
					"stateMutability": "view",
					"type": "function"
				},
				{
					"inputs": [
						{
							"internalType": "bytes32",
							"name": "role",
							"type": "bytes32"
						}
					],
					"name": "checkRole",
					"outputs": [
						{
							"internalType": "bool",
							"name": "",
							"type": "bool"
						}
					],
					"stateMutability": "view",
					"type": "function"
				},
				{
					"inputs": [
						{
							"internalType": "bytes32",
							"name": "role",
							"type": "bytes32"
						}
					],
					"name": "getRoleAdmin",
					"outputs": [
						{
							"internalType": "bytes32",
							"name": "",
							"type": "bytes32"
						}
					],
					"stateMutability": "view",
					"type": "function"
				},
				{
					"inputs": [
						{
							"internalType": "bytes32",
							"name": "role",
							"type": "bytes32"
						},
						{
							"internalType": "address",
							"name": "member",
							"type": "address"
						}
					],
					"name": "grantRole",
					"outputs": [
						{
							"internalType": "bool",
							"name": "",
							"type": "bool"
						}
					],
					"stateMutability": "nonpayable",
					"type": "function"
				},
				{
					"inputs": [
						{
							"internalType": "bytes32",
							"name": "role",
							"type": "bytes32"
						},
						{
							"internalType": "address",
							"name": "member",
							"type": "address"
						}
					],
					"name": "hasRole",
					"outputs": [
						{
							"internalType": "bool",
							"name": "",
							"type": "bool"
						}
					],
					"stateMutability": "view",
					"type": "function"
				},
				{
					"inputs": [
						{
							"internalType": "bytes32",
							"name": "role",
							"type": "bytes32"
						},
						{
							"internalType": "address",
							"name": "callerConfirmation",
							"type": "address"
						}
					],
					"name": "renounceRole",
					"outputs": [],
					"stateMutability": "nonpayable",
					"type": "function"
				},
				{
					"inputs": [
						{
							"internalType": "bytes32",
							"name": "role",
							"type": "bytes32"
						},
						{
							"internalType": "address",
							"name": "member",
							"type": "address"
						}
					],
					"name": "revokeRole",
					"outputs": [
						{
							"internalType": "bool",
							"name": "",
							"type": "bool"
						}
					],
					"stateMutability": "nonpayable",
					"type": "function"
				},
				{
					"inputs": [
						{
							"internalType": "address",
							"name": "newLogicAddress",
							"type": "address"
						}
					],
					"name": "updateImplementation",
					"outputs": [
						{
							"internalType": "bool",
							"name": "",
							"type": "bool"
						}
					],
					"stateMutability": "nonpayable",
					"type": "function"
				}
			],
			"devdoc": {
				"kind": "dev",
				"methods": {},
				"version": 1
			},
			"evm": {
				"assembly": "    /* \"1127/CompanyProxy.sol\":130:2232  contract CompanyProxy is AccessControl {... */\n  mstore(0x40, 0x80)\n    /* \"1127/CompanyProxy.sol\":805:1194  constructor(address founder,string memory _company_name,address commonLogicAddress) AccessControl(msg.sender){... */\n  callvalue\n  dup1\n  iszero\n  tag_1\n  jumpi\n  0x00\n  dup1\n  revert\ntag_1:\n  pop\n  mload(0x40)\n  sub(codesize, bytecodeSize)\n  dup1\n  bytecodeSize\n  dup4\n  codecopy\n  dup2\n  dup2\n  add\n  0x40\n  mstore\n  dup2\n  add\n  swap1\n  tag_2\n  swap2\n  swap1\n  tag_3\n  jump\t// in\ntag_2:\n    /* \"1127/CompanyProxy.sol\":903:913  msg.sender */\n  caller\n    /* \"1127/util/AccessControl.sol\":970:974  true */\n  0x01\n    /* \"1127/util/AccessControl.sol\":931:936  roles */\n  0x00\n    /* \"1127/util/AccessControl.sol\":931:951  roles[DEFAULT_ADMIN] */\n  dup1\n    /* \"1127/util/AccessControl.sol\":246:250  0x00 */\n  dup1\n    /* \"1127/util/AccessControl.sol\":937:950  DEFAULT_ADMIN */\n  0x00\n  shl\n    /* \"1127/util/AccessControl.sol\":931:951  roles[DEFAULT_ADMIN] */\n  dup2\n  mstore\n  0x20\n  add\n  swap1\n  dup2\n  mstore\n  0x20\n  add\n  0x00\n  keccak256\n    /* \"1127/util/AccessControl.sol\":931:960  roles[DEFAULT_ADMIN].hasRoles */\n  0x00\n  add\n    /* \"1127/util/AccessControl.sol\":931:967  roles[DEFAULT_ADMIN].hasRoles[admin] */\n  0x00\n    /* \"1127/util/AccessControl.sol\":961:966  admin */\n  dup4\n    /* \"1127/util/AccessControl.sol\":931:967  roles[DEFAULT_ADMIN].hasRoles[admin] */\n  0xffffffffffffffffffffffffffffffffffffffff\n  and\n  0xffffffffffffffffffffffffffffffffffffffff\n  and\n  dup2\n  mstore\n  0x20\n  add\n  swap1\n  dup2\n  mstore\n  0x20\n  add\n  0x00\n  keccak256\n  0x00\n    /* \"1127/util/AccessControl.sol\":931:974  roles[DEFAULT_ADMIN].hasRoles[admin] = true */\n  0x0100\n  exp\n  dup2\n  sload\n  dup2\n  0xff\n  mul\n  not\n  and\n  swap1\n  dup4\n  iszero\n  iszero\n  mul\n  or\n  swap1\n  sstore\n  pop\n    /* \"1127/util/AccessControl.sol\":895:981  constructor(address admin){... */\n  pop\n    /* \"1127/CompanyProxy.sol\":925:963  setRoleAdmin(ADMIN_ROLE,DEFAULT_ADMIN) */\n  tag_8\n    /* \"1127/CompanyProxy.sol\":295:313  keccak256(\"ADMIN\") */\n  0xdf8b4c520ffe197c5343c6f5aec59570151ef9a492f2c624fd45ddde6135ec42\n    /* \"1127/util/AccessControl.sol\":246:250  0x00 */\n  0x00\n    /* \"1127/CompanyProxy.sol\":949:962  DEFAULT_ADMIN */\n  dup1\n  shl\n    /* \"1127/CompanyProxy.sol\":925:937  setRoleAdmin */\n  shl(0x20, tag_9)\n    /* \"1127/CompanyProxy.sol\":925:963  setRoleAdmin(ADMIN_ROLE,DEFAULT_ADMIN) */\n  0x20\n  shr\n  jump\t// in\ntag_8:\n    /* \"1127/CompanyProxy.sol\":974:1010  setRoleAdmin(WORKER_ROLE,ADMIN_ROLE) */\n  tag_10\n    /* \"1127/CompanyProxy.sol\":360:379  keccak256(\"WORKER\") */\n  0xf101d8f75d5816ea5d4f9e76d2b196ca77914d087c68fd9b89f497d695bcddf7\n    /* \"1127/CompanyProxy.sol\":295:313  keccak256(\"ADMIN\") */\n  0xdf8b4c520ffe197c5343c6f5aec59570151ef9a492f2c624fd45ddde6135ec42\n    /* \"1127/CompanyProxy.sol\":974:986  setRoleAdmin */\n  shl(0x20, tag_9)\n    /* \"1127/CompanyProxy.sol\":974:1010  setRoleAdmin(WORKER_ROLE,ADMIN_ROLE) */\n  0x20\n  shr\n  jump\t// in\ntag_10:\n    /* \"1127/CompanyProxy.sol\":1021:1051  grantRole(ADMIN_ROLE, founder) */\n  tag_11\n    /* \"1127/CompanyProxy.sol\":295:313  keccak256(\"ADMIN\") */\n  0xdf8b4c520ffe197c5343c6f5aec59570151ef9a492f2c624fd45ddde6135ec42\n    /* \"1127/CompanyProxy.sol\":1043:1050  founder */\n  dup5\n    /* \"1127/CompanyProxy.sol\":1021:1030  grantRole */\n  shl(0x20, tag_12)\n    /* \"1127/CompanyProxy.sol\":1021:1051  grantRole(ADMIN_ROLE, founder) */\n  0x20\n  shr\n  jump\t// in\ntag_11:\n  pop\n    /* \"1127/CompanyProxy.sol\":1062:1093  grantRole(WORKER_ROLE, founder) */\n  tag_13\n    /* \"1127/CompanyProxy.sol\":360:379  keccak256(\"WORKER\") */\n  0xf101d8f75d5816ea5d4f9e76d2b196ca77914d087c68fd9b89f497d695bcddf7\n    /* \"1127/CompanyProxy.sol\":1085:1092  founder */\n  dup5\n    /* \"1127/CompanyProxy.sol\":1062:1071  grantRole */\n  shl(0x20, tag_12)\n    /* \"1127/CompanyProxy.sol\":1062:1093  grantRole(WORKER_ROLE, founder) */\n  0x20\n  shr\n  jump\t// in\ntag_13:\n  pop\n    /* \"1127/CompanyProxy.sol\":1128:1146  commonLogicAddress */\n  dup1\n    /* \"1127/CompanyProxy.sol\":1104:1125  implementationAddress */\n  0x01\n  0x00\n    /* \"1127/CompanyProxy.sol\":1104:1146  implementationAddress = commonLogicAddress */\n  0x0100\n  exp\n  dup2\n  sload\n  dup2\n  0xffffffffffffffffffffffffffffffffffffffff\n  mul\n  not\n  and\n  swap1\n  dup4\n  0xffffffffffffffffffffffffffffffffffffffff\n  and\n  mul\n  or\n  swap1\n  sstore\n  pop\n    /* \"1127/CompanyProxy.sol\":1172:1185  _company_name */\n  dup2\n    /* \"1127/CompanyProxy.sol\":1157:1169  company_name */\n  0x02\n    /* \"1127/CompanyProxy.sol\":1157:1185  company_name = _company_name */\n  swap1\n  dup1\n  mload\n  swap1\n  0x20\n  add\n  swap1\n  tag_14\n  swap3\n  swap2\n  swap1\n  tag_15\n  jump\t// in\ntag_14:\n  pop\n    /* \"1127/CompanyProxy.sol\":805:1194  constructor(address founder,string memory _company_name,address commonLogicAddress) AccessControl(msg.sender){... */\n  pop\n  pop\n  pop\n    /* \"1127/CompanyProxy.sol\":130:2232  contract CompanyProxy is AccessControl {... */\n  jump(tag_16)\n    /* \"1127/util/AccessControl.sol\":1528:1741  function setRoleAdmin(bytes32 role ,bytes32 admin) internal virtual  {... */\ntag_9:\n    /* \"1127/util/AccessControl.sol\":1607:1623  bytes32 oldAdmin */\n  0x00\n    /* \"1127/util/AccessControl.sol\":1626:1644  getRoleAdmin(role) */\n  tag_18\n    /* \"1127/util/AccessControl.sol\":1639:1643  role */\n  dup4\n    /* \"1127/util/AccessControl.sol\":1626:1638  getRoleAdmin */\n  shl(0x20, tag_19)\n    /* \"1127/util/AccessControl.sol\":1626:1644  getRoleAdmin(role) */\n  0x20\n  shr\n  jump\t// in\ntag_18:\n    /* \"1127/util/AccessControl.sol\":1607:1644  bytes32 oldAdmin = getRoleAdmin(role) */\n  swap1\n  pop\n    /* \"1127/util/AccessControl.sol\":1676:1681  admin */\n  dup2\n    /* \"1127/util/AccessControl.sol\":1654:1659  roles */\n  0x00\n    /* \"1127/util/AccessControl.sol\":1654:1665  roles[role] */\n  dup1\n    /* \"1127/util/AccessControl.sol\":1660:1664  role */\n  dup6\n    /* \"1127/util/AccessControl.sol\":1654:1665  roles[role] */\n  dup2\n  mstore\n  0x20\n  add\n  swap1\n  dup2\n  mstore\n  0x20\n  add\n  0x00\n  keccak256\n    /* \"1127/util/AccessControl.sol\":1654:1675  roles[role].adminRole */\n  0x01\n  add\n    /* \"1127/util/AccessControl.sol\":1654:1681  roles[role].adminRole=admin */\n  dup2\n  swap1\n  sstore\n  pop\n    /* \"1127/util/AccessControl.sol\":1728:1733  admin */\n  dup2\n    /* \"1127/util/AccessControl.sol\":1718:1726  oldAdmin */\n  dup2\n    /* \"1127/util/AccessControl.sol\":1713:1717  role */\n  dup5\n    /* \"1127/util/AccessControl.sol\":1696:1734  RoleAdminChanged(role,oldAdmin, admin) */\n  0xbd79b86ffe0ab8e8776151514217cd7cacd52c909f66475c3af44e129f0b00ff\n  mload(0x40)\n  mload(0x40)\n  dup1\n  swap2\n  sub\n  swap1\n  log4\n    /* \"1127/util/AccessControl.sol\":1597:1741  {... */\n  pop\n    /* \"1127/util/AccessControl.sol\":1528:1741  function setRoleAdmin(bytes32 role ,bytes32 admin) internal virtual  {... */\n  pop\n  pop\n  jump\t// out\n    /* \"1127/util/AccessControl.sol\":1785:2111  function grantRole(bytes32 role, address member)... */\ntag_12:\n    /* \"1127/util/AccessControl.sol\":1903:1907  bool */\n  0x00\n    /* \"1127/util/AccessControl.sol\":1866:1884  getRoleAdmin(role) */\n  tag_20\n    /* \"1127/util/AccessControl.sol\":1879:1883  role */\n  dup4\n    /* \"1127/util/AccessControl.sol\":1866:1878  getRoleAdmin */\n  shl(0x20, tag_19)\n    /* \"1127/util/AccessControl.sol\":1866:1884  getRoleAdmin(role) */\n  0x20\n  shr\n  jump\t// in\ntag_20:\n    /* \"1127/util/AccessControl.sol\":856:871  checkRole(role) */\n  tag_22\n    /* \"1127/util/AccessControl.sol\":866:870  role */\n  dup2\n    /* \"1127/util/AccessControl.sol\":856:865  checkRole */\n  shl(0x20, tag_23)\n    /* \"1127/util/AccessControl.sol\":856:871  checkRole(role) */\n  0x20\n  shr\n  jump\t// in\ntag_22:\n  pop\n    /* \"1127/util/AccessControl.sol\":1927:1948  hasRole(role, member) */\n  tag_25\n    /* \"1127/util/AccessControl.sol\":1935:1939  role */\n  dup5\n    /* \"1127/util/AccessControl.sol\":1941:1947  member */\n  dup5\n    /* \"1127/util/AccessControl.sol\":1927:1934  hasRole */\n  shl(0x20, tag_26)\n    /* \"1127/util/AccessControl.sol\":1927:1948  hasRole(role, member) */\n  0x20\n  shr\n  jump\t// in\ntag_25:\n    /* \"1127/util/AccessControl.sol\":1923:1987  if (hasRole(role, member)) {... */\n  iszero\n  tag_27\n  jumpi\n    /* \"1127/util/AccessControl.sol\":1971:1976  false */\n  0x00\n    /* \"1127/util/AccessControl.sol\":1964:1976  return false */\n  swap2\n  pop\n  jump(tag_24)\n    /* \"1127/util/AccessControl.sol\":1923:1987  if (hasRole(role, member)) {... */\ntag_27:\n    /* \"1127/util/AccessControl.sol\":2027:2031  true */\n  0x01\n    /* \"1127/util/AccessControl.sol\":1996:2001  roles */\n  0x00\n    /* \"1127/util/AccessControl.sol\":1996:2007  roles[role] */\n  dup1\n    /* \"1127/util/AccessControl.sol\":2002:2006  role */\n  dup7\n    /* \"1127/util/AccessControl.sol\":1996:2007  roles[role] */\n  dup2\n  mstore\n  0x20\n  add\n  swap1\n  dup2\n  mstore\n  0x20\n  add\n  0x00\n  keccak256\n    /* \"1127/util/AccessControl.sol\":1996:2016  roles[role].hasRoles */\n  0x00\n  add\n    /* \"1127/util/AccessControl.sol\":1996:2024  roles[role].hasRoles[member] */\n  0x00\n    /* \"1127/util/AccessControl.sol\":2017:2023  member */\n  dup6\n    /* \"1127/util/AccessControl.sol\":1996:2024  roles[role].hasRoles[member] */\n  0xffffffffffffffffffffffffffffffffffffffff\n  and\n  0xffffffffffffffffffffffffffffffffffffffff\n  and\n  dup2\n  mstore\n  0x20\n  add\n  swap1\n  dup2\n  mstore\n  0x20\n  add\n  0x00\n  keccak256\n  0x00\n    /* \"1127/util/AccessControl.sol\":1996:2031  roles[role].hasRoles[member] = true */\n  0x0100\n  exp\n  dup2\n  sload\n  dup2\n  0xff\n  mul\n  not\n  and\n  swap1\n  dup4\n  iszero\n  iszero\n  mul\n  or\n  swap1\n  sstore\n  pop\n    /* \"1127/util/AccessControl.sol\":2072:2082  msg.sender */\n  caller\n    /* \"1127/util/AccessControl.sol\":2046:2083  RoleGranted(role, member, msg.sender) */\n  0xffffffffffffffffffffffffffffffffffffffff\n  and\n    /* \"1127/util/AccessControl.sol\":2064:2070  member */\n  dup4\n    /* \"1127/util/AccessControl.sol\":2046:2083  RoleGranted(role, member, msg.sender) */\n  0xffffffffffffffffffffffffffffffffffffffff\n  and\n    /* \"1127/util/AccessControl.sol\":2058:2062  role */\n  dup6\n    /* \"1127/util/AccessControl.sol\":2046:2083  RoleGranted(role, member, msg.sender) */\n  0x2f8788117e7eff1d82e926ec794901d17c78024a50270940304540a733656f0d\n  mload(0x40)\n  mload(0x40)\n  dup1\n  swap2\n  sub\n  swap1\n  log4\n    /* \"1127/util/AccessControl.sol\":2100:2104  true */\n  0x01\n    /* \"1127/util/AccessControl.sol\":2093:2104  return true */\n  swap2\n  pop\n    /* \"1127/util/AccessControl.sol\":881:882  _ */\ntag_24:\n    /* \"1127/util/AccessControl.sol\":1785:2111  function grantRole(bytes32 role, address member)... */\n  pop\n  swap3\n  swap2\n  pop\n  pop\n  jump\t// out\n    /* \"1127/util/AccessControl.sol\":1379:1490  function getRoleAdmin(bytes32 role) public view returns (bytes32) {... */\ntag_19:\n    /* \"1127/util/AccessControl.sol\":1436:1443  bytes32 */\n  0x00\n    /* \"1127/util/AccessControl.sol\":1462:1467  roles */\n  dup1\n    /* \"1127/util/AccessControl.sol\":1462:1473  roles[role] */\n  0x00\n    /* \"1127/util/AccessControl.sol\":1468:1472  role */\n  dup4\n    /* \"1127/util/AccessControl.sol\":1462:1473  roles[role] */\n  dup2\n  mstore\n  0x20\n  add\n  swap1\n  dup2\n  mstore\n  0x20\n  add\n  0x00\n  keccak256\n    /* \"1127/util/AccessControl.sol\":1462:1483  roles[role].adminRole */\n  0x01\n  add\n  sload\n    /* \"1127/util/AccessControl.sol\":1455:1483  return roles[role].adminRole */\n  swap1\n  pop\n    /* \"1127/util/AccessControl.sol\":1379:1490  function getRoleAdmin(bytes32 role) public view returns (bytes32) {... */\n  swap2\n  swap1\n  pop\n  jump\t// out\n    /* \"1127/util/AccessControl.sol\":1011:1194  function checkRole(bytes32 role) public view returns (bool) {... */\ntag_23:\n    /* \"1127/util/AccessControl.sol\":1065:1069  bool */\n  0x00\n    /* \"1127/util/AccessControl.sol\":1086:1111  hasRole(role, msg.sender) */\n  tag_30\n    /* \"1127/util/AccessControl.sol\":1094:1098  role */\n  dup3\n    /* \"1127/util/AccessControl.sol\":1100:1110  msg.sender */\n  caller\n    /* \"1127/util/AccessControl.sol\":1086:1093  hasRole */\n  shl(0x20, tag_26)\n    /* \"1127/util/AccessControl.sol\":1086:1111  hasRole(role, msg.sender) */\n  0x20\n  shr\n  jump\t// in\ntag_30:\n    /* \"1127/util/AccessControl.sol\":1081:1167  if (!hasRole(role, msg.sender)) {... */\n  tag_31\n  jumpi\n    /* \"1127/util/AccessControl.sol\":1127:1156  revert(\"UnAuthorizedAccount\") */\n  mload(0x40)\n  0x08c379a000000000000000000000000000000000000000000000000000000000\n  dup2\n  mstore\n  0x04\n  add\n  tag_32\n  swap1\n  tag_33\n  jump\t// in\ntag_32:\n  mload(0x40)\n  dup1\n  swap2\n  sub\n  swap1\n  revert\n    /* \"1127/util/AccessControl.sol\":1081:1167  if (!hasRole(role, msg.sender)) {... */\ntag_31:\n    /* \"1127/util/AccessControl.sol\":1183:1187  true */\n  0x01\n    /* \"1127/util/AccessControl.sol\":1176:1187  return true */\n  swap1\n  pop\n    /* \"1127/util/AccessControl.sol\":1011:1194  function checkRole(bytes32 role) public view returns (bool) {... */\n  swap2\n  swap1\n  pop\n  jump\t// out\n    /* \"1127/util/AccessControl.sol\":1209:1335  function hasRole(bytes32 role, address member) public view returns (bool) {... */\ntag_26:\n    /* \"1127/util/AccessControl.sol\":1277:1281  bool */\n  0x00\n    /* \"1127/util/AccessControl.sol\":1300:1305  roles */\n  dup1\n    /* \"1127/util/AccessControl.sol\":1300:1311  roles[role] */\n  0x00\n    /* \"1127/util/AccessControl.sol\":1306:1310  role */\n  dup5\n    /* \"1127/util/AccessControl.sol\":1300:1311  roles[role] */\n  dup2\n  mstore\n  0x20\n  add\n  swap1\n  dup2\n  mstore\n  0x20\n  add\n  0x00\n  keccak256\n    /* \"1127/util/AccessControl.sol\":1300:1320  roles[role].hasRoles */\n  0x00\n  add\n    /* \"1127/util/AccessControl.sol\":1300:1328  roles[role].hasRoles[member] */\n  0x00\n    /* \"1127/util/AccessControl.sol\":1321:1327  member */\n  dup4\n    /* \"1127/util/AccessControl.sol\":1300:1328  roles[role].hasRoles[member] */\n  0xffffffffffffffffffffffffffffffffffffffff\n  and\n  0xffffffffffffffffffffffffffffffffffffffff\n  and\n  dup2\n  mstore\n  0x20\n  add\n  swap1\n  dup2\n  mstore\n  0x20\n  add\n  0x00\n  keccak256\n  0x00\n  swap1\n  sload\n  swap1\n  0x0100\n  exp\n  swap1\n  div\n  0xff\n  and\n    /* \"1127/util/AccessControl.sol\":1293:1328  return roles[role].hasRoles[member] */\n  swap1\n  pop\n    /* \"1127/util/AccessControl.sol\":1209:1335  function hasRole(bytes32 role, address member) public view returns (bool) {... */\n  swap3\n  swap2\n  pop\n  pop\n  jump\t// out\n    /* \"1127/CompanyProxy.sol\":130:2232  contract CompanyProxy is AccessControl {... */\ntag_15:\n  dup3\n  dup1\n  sload\n  tag_35\n  swap1\n  tag_36\n  jump\t// in\ntag_35:\n  swap1\n  0x00\n  mstore\n  keccak256(0x00, 0x20)\n  swap1\n  0x1f\n  add\n  0x20\n  swap1\n  div\n  dup2\n  add\n  swap3\n  dup3\n  tag_38\n  jumpi\n  0x00\n  dup6\n  sstore\n  jump(tag_37)\ntag_38:\n  dup3\n  0x1f\n  lt\n  tag_39\n  jumpi\n  dup1\n  mload\n  not(0xff)\n  and\n  dup4\n  dup1\n  add\n  or\n  dup6\n  sstore\n  jump(tag_37)\ntag_39:\n  dup3\n  dup1\n  add\n  0x01\n  add\n  dup6\n  sstore\n  dup3\n  iszero\n  tag_37\n  jumpi\n  swap2\n  dup3\n  add\ntag_40:\n  dup3\n  dup2\n  gt\n  iszero\n  tag_41\n  jumpi\n  dup3\n  mload\n  dup3\n  sstore\n  swap2\n  0x20\n  add\n  swap2\n  swap1\n  0x01\n  add\n  swap1\n  jump(tag_40)\ntag_41:\ntag_37:\n  pop\n  swap1\n  pop\n  tag_42\n  swap2\n  swap1\n  tag_43\n  jump\t// in\ntag_42:\n  pop\n  swap1\n  jump\t// out\ntag_43:\ntag_44:\n  dup1\n  dup3\n  gt\n  iszero\n  tag_45\n  jumpi\n  0x00\n  dup2\n  0x00\n  swap1\n  sstore\n  pop\n  0x01\n  add\n  jump(tag_44)\ntag_45:\n  pop\n  swap1\n  jump\t// out\n    /* \"#utility.yul\":7:82   */\ntag_46:\n    /* \"#utility.yul\":40:46   */\n  0x00\n    /* \"#utility.yul\":73:75   */\n  0x40\n    /* \"#utility.yul\":67:76   */\n  mload\n    /* \"#utility.yul\":57:76   */\n  swap1\n  pop\n    /* \"#utility.yul\":7:82   */\n  swap1\n  jump\t// out\n    /* \"#utility.yul\":88:205   */\ntag_47:\n    /* \"#utility.yul\":197:198   */\n  0x00\n    /* \"#utility.yul\":194:195   */\n  dup1\n    /* \"#utility.yul\":187:199   */\n  revert\n    /* \"#utility.yul\":211:328   */\ntag_48:\n    /* \"#utility.yul\":320:321   */\n  0x00\n    /* \"#utility.yul\":317:318   */\n  dup1\n    /* \"#utility.yul\":310:322   */\n  revert\n    /* \"#utility.yul\":334:460   */\ntag_49:\n    /* \"#utility.yul\":371:378   */\n  0x00\n    /* \"#utility.yul\":411:453   */\n  0xffffffffffffffffffffffffffffffffffffffff\n    /* \"#utility.yul\":404:409   */\n  dup3\n    /* \"#utility.yul\":400:454   */\n  and\n    /* \"#utility.yul\":389:454   */\n  swap1\n  pop\n    /* \"#utility.yul\":334:460   */\n  swap2\n  swap1\n  pop\n  jump\t// out\n    /* \"#utility.yul\":466:562   */\ntag_50:\n    /* \"#utility.yul\":503:510   */\n  0x00\n    /* \"#utility.yul\":532:556   */\n  tag_73\n    /* \"#utility.yul\":550:555   */\n  dup3\n    /* \"#utility.yul\":532:556   */\n  tag_49\n  jump\t// in\ntag_73:\n    /* \"#utility.yul\":521:556   */\n  swap1\n  pop\n    /* \"#utility.yul\":466:562   */\n  swap2\n  swap1\n  pop\n  jump\t// out\n    /* \"#utility.yul\":568:690   */\ntag_51:\n    /* \"#utility.yul\":641:665   */\n  tag_75\n    /* \"#utility.yul\":659:664   */\n  dup2\n    /* \"#utility.yul\":641:665   */\n  tag_50\n  jump\t// in\ntag_75:\n    /* \"#utility.yul\":634:639   */\n  dup2\n    /* \"#utility.yul\":631:666   */\n  eq\n    /* \"#utility.yul\":621:684   */\n  tag_76\n  jumpi\n    /* \"#utility.yul\":680:681   */\n  0x00\n    /* \"#utility.yul\":677:678   */\n  dup1\n    /* \"#utility.yul\":670:682   */\n  revert\n    /* \"#utility.yul\":621:684   */\ntag_76:\n    /* \"#utility.yul\":568:690   */\n  pop\n  jump\t// out\n    /* \"#utility.yul\":696:839   */\ntag_52:\n    /* \"#utility.yul\":753:758   */\n  0x00\n    /* \"#utility.yul\":784:790   */\n  dup2\n    /* \"#utility.yul\":778:791   */\n  mload\n    /* \"#utility.yul\":769:791   */\n  swap1\n  pop\n    /* \"#utility.yul\":800:833   */\n  tag_78\n    /* \"#utility.yul\":827:832   */\n  dup2\n    /* \"#utility.yul\":800:833   */\n  tag_51\n  jump\t// in\ntag_78:\n    /* \"#utility.yul\":696:839   */\n  swap3\n  swap2\n  pop\n  pop\n  jump\t// out\n    /* \"#utility.yul\":845:962   */\ntag_53:\n    /* \"#utility.yul\":954:955   */\n  0x00\n    /* \"#utility.yul\":951:952   */\n  dup1\n    /* \"#utility.yul\":944:956   */\n  revert\n    /* \"#utility.yul\":968:1085   */\ntag_54:\n    /* \"#utility.yul\":1077:1078   */\n  0x00\n    /* \"#utility.yul\":1074:1075   */\n  dup1\n    /* \"#utility.yul\":1067:1079   */\n  revert\n    /* \"#utility.yul\":1091:1193   */\ntag_55:\n    /* \"#utility.yul\":1132:1138   */\n  0x00\n    /* \"#utility.yul\":1183:1185   */\n  0x1f\n    /* \"#utility.yul\":1179:1186   */\n  not\n    /* \"#utility.yul\":1174:1176   */\n  0x1f\n    /* \"#utility.yul\":1167:1172   */\n  dup4\n    /* \"#utility.yul\":1163:1177   */\n  add\n    /* \"#utility.yul\":1159:1187   */\n  and\n    /* \"#utility.yul\":1149:1187   */\n  swap1\n  pop\n    /* \"#utility.yul\":1091:1193   */\n  swap2\n  swap1\n  pop\n  jump\t// out\n    /* \"#utility.yul\":1199:1379   */\ntag_56:\n    /* \"#utility.yul\":1247:1324   */\n  0x4e487b7100000000000000000000000000000000000000000000000000000000\n    /* \"#utility.yul\":1244:1245   */\n  0x00\n    /* \"#utility.yul\":1237:1325   */\n  mstore\n    /* \"#utility.yul\":1344:1348   */\n  0x41\n    /* \"#utility.yul\":1341:1342   */\n  0x04\n    /* \"#utility.yul\":1334:1349   */\n  mstore\n    /* \"#utility.yul\":1368:1372   */\n  0x24\n    /* \"#utility.yul\":1365:1366   */\n  0x00\n    /* \"#utility.yul\":1358:1373   */\n  revert\n    /* \"#utility.yul\":1385:1666   */\ntag_57:\n    /* \"#utility.yul\":1468:1495   */\n  tag_84\n    /* \"#utility.yul\":1490:1494   */\n  dup3\n    /* \"#utility.yul\":1468:1495   */\n  tag_55\n  jump\t// in\ntag_84:\n    /* \"#utility.yul\":1460:1466   */\n  dup2\n    /* \"#utility.yul\":1456:1496   */\n  add\n    /* \"#utility.yul\":1598:1604   */\n  dup2\n    /* \"#utility.yul\":1586:1596   */\n  dup2\n    /* \"#utility.yul\":1583:1605   */\n  lt\n    /* \"#utility.yul\":1562:1580   */\n  0xffffffffffffffff\n    /* \"#utility.yul\":1550:1560   */\n  dup3\n    /* \"#utility.yul\":1547:1581   */\n  gt\n    /* \"#utility.yul\":1544:1606   */\n  or\n    /* \"#utility.yul\":1541:1629   */\n  iszero\n  tag_85\n  jumpi\n    /* \"#utility.yul\":1609:1627   */\n  tag_86\n  tag_56\n  jump\t// in\ntag_86:\n    /* \"#utility.yul\":1541:1629   */\ntag_85:\n    /* \"#utility.yul\":1649:1659   */\n  dup1\n    /* \"#utility.yul\":1645:1647   */\n  0x40\n    /* \"#utility.yul\":1638:1660   */\n  mstore\n    /* \"#utility.yul\":1428:1666   */\n  pop\n    /* \"#utility.yul\":1385:1666   */\n  pop\n  pop\n  jump\t// out\n    /* \"#utility.yul\":1672:1801   */\ntag_58:\n    /* \"#utility.yul\":1706:1712   */\n  0x00\n    /* \"#utility.yul\":1733:1753   */\n  tag_88\n  tag_46\n  jump\t// in\ntag_88:\n    /* \"#utility.yul\":1723:1753   */\n  swap1\n  pop\n    /* \"#utility.yul\":1762:1795   */\n  tag_89\n    /* \"#utility.yul\":1790:1794   */\n  dup3\n    /* \"#utility.yul\":1782:1788   */\n  dup3\n    /* \"#utility.yul\":1762:1795   */\n  tag_57\n  jump\t// in\ntag_89:\n    /* \"#utility.yul\":1672:1801   */\n  swap2\n  swap1\n  pop\n  jump\t// out\n    /* \"#utility.yul\":1807:2115   */\ntag_59:\n    /* \"#utility.yul\":1869:1873   */\n  0x00\n    /* \"#utility.yul\":1959:1977   */\n  0xffffffffffffffff\n    /* \"#utility.yul\":1951:1957   */\n  dup3\n    /* \"#utility.yul\":1948:1978   */\n  gt\n    /* \"#utility.yul\":1945:2001   */\n  iszero\n  tag_91\n  jumpi\n    /* \"#utility.yul\":1981:1999   */\n  tag_92\n  tag_56\n  jump\t// in\ntag_92:\n    /* \"#utility.yul\":1945:2001   */\ntag_91:\n    /* \"#utility.yul\":2019:2048   */\n  tag_93\n    /* \"#utility.yul\":2041:2047   */\n  dup3\n    /* \"#utility.yul\":2019:2048   */\n  tag_55\n  jump\t// in\ntag_93:\n    /* \"#utility.yul\":2011:2048   */\n  swap1\n  pop\n    /* \"#utility.yul\":2103:2107   */\n  0x20\n    /* \"#utility.yul\":2097:2101   */\n  dup2\n    /* \"#utility.yul\":2093:2108   */\n  add\n    /* \"#utility.yul\":2085:2108   */\n  swap1\n  pop\n    /* \"#utility.yul\":1807:2115   */\n  swap2\n  swap1\n  pop\n  jump\t// out\n    /* \"#utility.yul\":2121:2428   */\ntag_60:\n    /* \"#utility.yul\":2189:2190   */\n  0x00\n    /* \"#utility.yul\":2199:2312   */\ntag_95:\n    /* \"#utility.yul\":2213:2219   */\n  dup4\n    /* \"#utility.yul\":2210:2211   */\n  dup2\n    /* \"#utility.yul\":2207:2220   */\n  lt\n    /* \"#utility.yul\":2199:2312   */\n  iszero\n  tag_97\n  jumpi\n    /* \"#utility.yul\":2298:2299   */\n  dup1\n    /* \"#utility.yul\":2293:2296   */\n  dup3\n    /* \"#utility.yul\":2289:2300   */\n  add\n    /* \"#utility.yul\":2283:2301   */\n  mload\n    /* \"#utility.yul\":2279:2280   */\n  dup2\n    /* \"#utility.yul\":2274:2277   */\n  dup5\n    /* \"#utility.yul\":2270:2281   */\n  add\n    /* \"#utility.yul\":2263:2302   */\n  mstore\n    /* \"#utility.yul\":2235:2237   */\n  0x20\n    /* \"#utility.yul\":2232:2233   */\n  dup2\n    /* \"#utility.yul\":2228:2238   */\n  add\n    /* \"#utility.yul\":2223:2238   */\n  swap1\n  pop\n    /* \"#utility.yul\":2199:2312   */\n  jump(tag_95)\ntag_97:\n    /* \"#utility.yul\":2330:2336   */\n  dup4\n    /* \"#utility.yul\":2327:2328   */\n  dup2\n    /* \"#utility.yul\":2324:2337   */\n  gt\n    /* \"#utility.yul\":2321:2422   */\n  iszero\n  tag_98\n  jumpi\n    /* \"#utility.yul\":2410:2411   */\n  0x00\n    /* \"#utility.yul\":2401:2407   */\n  dup5\n    /* \"#utility.yul\":2396:2399   */\n  dup5\n    /* \"#utility.yul\":2392:2408   */\n  add\n    /* \"#utility.yul\":2385:2412   */\n  mstore\n    /* \"#utility.yul\":2321:2422   */\ntag_98:\n    /* \"#utility.yul\":2170:2428   */\n  pop\n    /* \"#utility.yul\":2121:2428   */\n  pop\n  pop\n  pop\n  jump\t// out\n    /* \"#utility.yul\":2434:2855   */\ntag_61:\n    /* \"#utility.yul\":2523:2528   */\n  0x00\n    /* \"#utility.yul\":2548:2614   */\n  tag_100\n    /* \"#utility.yul\":2564:2613   */\n  tag_101\n    /* \"#utility.yul\":2606:2612   */\n  dup5\n    /* \"#utility.yul\":2564:2613   */\n  tag_59\n  jump\t// in\ntag_101:\n    /* \"#utility.yul\":2548:2614   */\n  tag_58\n  jump\t// in\ntag_100:\n    /* \"#utility.yul\":2539:2614   */\n  swap1\n  pop\n    /* \"#utility.yul\":2637:2643   */\n  dup3\n    /* \"#utility.yul\":2630:2635   */\n  dup2\n    /* \"#utility.yul\":2623:2644   */\n  mstore\n    /* \"#utility.yul\":2675:2679   */\n  0x20\n    /* \"#utility.yul\":2668:2673   */\n  dup2\n    /* \"#utility.yul\":2664:2680   */\n  add\n    /* \"#utility.yul\":2713:2716   */\n  dup5\n    /* \"#utility.yul\":2704:2710   */\n  dup5\n    /* \"#utility.yul\":2699:2702   */\n  dup5\n    /* \"#utility.yul\":2695:2711   */\n  add\n    /* \"#utility.yul\":2692:2717   */\n  gt\n    /* \"#utility.yul\":2689:2801   */\n  iszero\n  tag_102\n  jumpi\n    /* \"#utility.yul\":2720:2799   */\n  tag_103\n  tag_54\n  jump\t// in\ntag_103:\n    /* \"#utility.yul\":2689:2801   */\ntag_102:\n    /* \"#utility.yul\":2810:2849   */\n  tag_104\n    /* \"#utility.yul\":2842:2848   */\n  dup5\n    /* \"#utility.yul\":2837:2840   */\n  dup3\n    /* \"#utility.yul\":2832:2835   */\n  dup6\n    /* \"#utility.yul\":2810:2849   */\n  tag_60\n  jump\t// in\ntag_104:\n    /* \"#utility.yul\":2529:2855   */\n  pop\n    /* \"#utility.yul\":2434:2855   */\n  swap4\n  swap3\n  pop\n  pop\n  pop\n  jump\t// out\n    /* \"#utility.yul\":2875:3230   */\ntag_62:\n    /* \"#utility.yul\":2942:2947   */\n  0x00\n    /* \"#utility.yul\":2991:2994   */\n  dup3\n    /* \"#utility.yul\":2984:2988   */\n  0x1f\n    /* \"#utility.yul\":2976:2982   */\n  dup4\n    /* \"#utility.yul\":2972:2989   */\n  add\n    /* \"#utility.yul\":2968:2995   */\n  slt\n    /* \"#utility.yul\":2958:3080   */\n  tag_106\n  jumpi\n    /* \"#utility.yul\":2999:3078   */\n  tag_107\n  tag_53\n  jump\t// in\ntag_107:\n    /* \"#utility.yul\":2958:3080   */\ntag_106:\n    /* \"#utility.yul\":3109:3115   */\n  dup2\n    /* \"#utility.yul\":3103:3116   */\n  mload\n    /* \"#utility.yul\":3134:3224   */\n  tag_108\n    /* \"#utility.yul\":3220:3223   */\n  dup5\n    /* \"#utility.yul\":3212:3218   */\n  dup3\n    /* \"#utility.yul\":3205:3209   */\n  0x20\n    /* \"#utility.yul\":3197:3203   */\n  dup7\n    /* \"#utility.yul\":3193:3210   */\n  add\n    /* \"#utility.yul\":3134:3224   */\n  tag_61\n  jump\t// in\ntag_108:\n    /* \"#utility.yul\":3125:3224   */\n  swap2\n  pop\n    /* \"#utility.yul\":2948:3230   */\n  pop\n    /* \"#utility.yul\":2875:3230   */\n  swap3\n  swap2\n  pop\n  pop\n  jump\t// out\n    /* \"#utility.yul\":3236:4072   */\ntag_3:\n    /* \"#utility.yul\":3334:3340   */\n  0x00\n    /* \"#utility.yul\":3342:3348   */\n  dup1\n    /* \"#utility.yul\":3350:3356   */\n  0x00\n    /* \"#utility.yul\":3399:3401   */\n  0x60\n    /* \"#utility.yul\":3387:3396   */\n  dup5\n    /* \"#utility.yul\":3378:3385   */\n  dup7\n    /* \"#utility.yul\":3374:3397   */\n  sub\n    /* \"#utility.yul\":3370:3402   */\n  slt\n    /* \"#utility.yul\":3367:3486   */\n  iszero\n  tag_110\n  jumpi\n    /* \"#utility.yul\":3405:3484   */\n  tag_111\n  tag_47\n  jump\t// in\ntag_111:\n    /* \"#utility.yul\":3367:3486   */\ntag_110:\n    /* \"#utility.yul\":3525:3526   */\n  0x00\n    /* \"#utility.yul\":3550:3614   */\n  tag_112\n    /* \"#utility.yul\":3606:3613   */\n  dup7\n    /* \"#utility.yul\":3597:3603   */\n  dup3\n    /* \"#utility.yul\":3586:3595   */\n  dup8\n    /* \"#utility.yul\":3582:3604   */\n  add\n    /* \"#utility.yul\":3550:3614   */\n  tag_52\n  jump\t// in\ntag_112:\n    /* \"#utility.yul\":3540:3614   */\n  swap4\n  pop\n    /* \"#utility.yul\":3496:3624   */\n  pop\n    /* \"#utility.yul\":3684:3686   */\n  0x20\n    /* \"#utility.yul\":3673:3682   */\n  dup5\n    /* \"#utility.yul\":3669:3687   */\n  add\n    /* \"#utility.yul\":3663:3688   */\n  mload\n    /* \"#utility.yul\":3715:3733   */\n  0xffffffffffffffff\n    /* \"#utility.yul\":3707:3713   */\n  dup2\n    /* \"#utility.yul\":3704:3734   */\n  gt\n    /* \"#utility.yul\":3701:3818   */\n  iszero\n  tag_113\n  jumpi\n    /* \"#utility.yul\":3737:3816   */\n  tag_114\n  tag_48\n  jump\t// in\ntag_114:\n    /* \"#utility.yul\":3701:3818   */\ntag_113:\n    /* \"#utility.yul\":3842:3916   */\n  tag_115\n    /* \"#utility.yul\":3908:3915   */\n  dup7\n    /* \"#utility.yul\":3899:3905   */\n  dup3\n    /* \"#utility.yul\":3888:3897   */\n  dup8\n    /* \"#utility.yul\":3884:3906   */\n  add\n    /* \"#utility.yul\":3842:3916   */\n  tag_62\n  jump\t// in\ntag_115:\n    /* \"#utility.yul\":3832:3916   */\n  swap3\n  pop\n    /* \"#utility.yul\":3634:3926   */\n  pop\n    /* \"#utility.yul\":3965:3967   */\n  0x40\n    /* \"#utility.yul\":3991:4055   */\n  tag_116\n    /* \"#utility.yul\":4047:4054   */\n  dup7\n    /* \"#utility.yul\":4038:4044   */\n  dup3\n    /* \"#utility.yul\":4027:4036   */\n  dup8\n    /* \"#utility.yul\":4023:4045   */\n  add\n    /* \"#utility.yul\":3991:4055   */\n  tag_52\n  jump\t// in\ntag_116:\n    /* \"#utility.yul\":3981:4055   */\n  swap2\n  pop\n    /* \"#utility.yul\":3936:4065   */\n  pop\n    /* \"#utility.yul\":3236:4072   */\n  swap3\n  pop\n  swap3\n  pop\n  swap3\n  jump\t// out\n    /* \"#utility.yul\":4078:4247   */\ntag_63:\n    /* \"#utility.yul\":4162:4173   */\n  0x00\n    /* \"#utility.yul\":4196:4202   */\n  dup3\n    /* \"#utility.yul\":4191:4194   */\n  dup3\n    /* \"#utility.yul\":4184:4203   */\n  mstore\n    /* \"#utility.yul\":4236:4240   */\n  0x20\n    /* \"#utility.yul\":4231:4234   */\n  dup3\n    /* \"#utility.yul\":4227:4241   */\n  add\n    /* \"#utility.yul\":4212:4241   */\n  swap1\n  pop\n    /* \"#utility.yul\":4078:4247   */\n  swap3\n  swap2\n  pop\n  pop\n  jump\t// out\n    /* \"#utility.yul\":4253:4422   */\ntag_64:\n    /* \"#utility.yul\":4393:4414   */\n  0x556e417574686f72697a65644163636f756e7400000000000000000000000000\n    /* \"#utility.yul\":4389:4390   */\n  0x00\n    /* \"#utility.yul\":4381:4387   */\n  dup3\n    /* \"#utility.yul\":4377:4391   */\n  add\n    /* \"#utility.yul\":4370:4415   */\n  mstore\n    /* \"#utility.yul\":4253:4422   */\n  pop\n  jump\t// out\n    /* \"#utility.yul\":4428:4794   */\ntag_65:\n    /* \"#utility.yul\":4570:4573   */\n  0x00\n    /* \"#utility.yul\":4591:4658   */\n  tag_120\n    /* \"#utility.yul\":4655:4657   */\n  0x13\n    /* \"#utility.yul\":4650:4653   */\n  dup4\n    /* \"#utility.yul\":4591:4658   */\n  tag_63\n  jump\t// in\ntag_120:\n    /* \"#utility.yul\":4584:4658   */\n  swap2\n  pop\n    /* \"#utility.yul\":4667:4760   */\n  tag_121\n    /* \"#utility.yul\":4756:4759   */\n  dup3\n    /* \"#utility.yul\":4667:4760   */\n  tag_64\n  jump\t// in\ntag_121:\n    /* \"#utility.yul\":4785:4787   */\n  0x20\n    /* \"#utility.yul\":4780:4783   */\n  dup3\n    /* \"#utility.yul\":4776:4788   */\n  add\n    /* \"#utility.yul\":4769:4788   */\n  swap1\n  pop\n    /* \"#utility.yul\":4428:4794   */\n  swap2\n  swap1\n  pop\n  jump\t// out\n    /* \"#utility.yul\":4800:5219   */\ntag_33:\n    /* \"#utility.yul\":4966:4970   */\n  0x00\n    /* \"#utility.yul\":5004:5006   */\n  0x20\n    /* \"#utility.yul\":4993:5002   */\n  dup3\n    /* \"#utility.yul\":4989:5007   */\n  add\n    /* \"#utility.yul\":4981:5007   */\n  swap1\n  pop\n    /* \"#utility.yul\":5053:5062   */\n  dup2\n    /* \"#utility.yul\":5047:5051   */\n  dup2\n    /* \"#utility.yul\":5043:5063   */\n  sub\n    /* \"#utility.yul\":5039:5040   */\n  0x00\n    /* \"#utility.yul\":5028:5037   */\n  dup4\n    /* \"#utility.yul\":5024:5041   */\n  add\n    /* \"#utility.yul\":5017:5064   */\n  mstore\n    /* \"#utility.yul\":5081:5212   */\n  tag_123\n    /* \"#utility.yul\":5207:5211   */\n  dup2\n    /* \"#utility.yul\":5081:5212   */\n  tag_65\n  jump\t// in\ntag_123:\n    /* \"#utility.yul\":5073:5212   */\n  swap1\n  pop\n    /* \"#utility.yul\":4800:5219   */\n  swap2\n  swap1\n  pop\n  jump\t// out\n    /* \"#utility.yul\":5225:5405   */\ntag_66:\n    /* \"#utility.yul\":5273:5350   */\n  0x4e487b7100000000000000000000000000000000000000000000000000000000\n    /* \"#utility.yul\":5270:5271   */\n  0x00\n    /* \"#utility.yul\":5263:5351   */\n  mstore\n    /* \"#utility.yul\":5370:5374   */\n  0x22\n    /* \"#utility.yul\":5367:5368   */\n  0x04\n    /* \"#utility.yul\":5360:5375   */\n  mstore\n    /* \"#utility.yul\":5394:5398   */\n  0x24\n    /* \"#utility.yul\":5391:5392   */\n  0x00\n    /* \"#utility.yul\":5384:5399   */\n  revert\n    /* \"#utility.yul\":5411:5731   */\ntag_36:\n    /* \"#utility.yul\":5455:5461   */\n  0x00\n    /* \"#utility.yul\":5492:5493   */\n  0x02\n    /* \"#utility.yul\":5486:5490   */\n  dup3\n    /* \"#utility.yul\":5482:5494   */\n  div\n    /* \"#utility.yul\":5472:5494   */\n  swap1\n  pop\n    /* \"#utility.yul\":5539:5540   */\n  0x01\n    /* \"#utility.yul\":5533:5537   */\n  dup3\n    /* \"#utility.yul\":5529:5541   */\n  and\n    /* \"#utility.yul\":5560:5578   */\n  dup1\n    /* \"#utility.yul\":5550:5631   */\n  tag_126\n  jumpi\n    /* \"#utility.yul\":5616:5620   */\n  0x7f\n    /* \"#utility.yul\":5608:5614   */\n  dup3\n    /* \"#utility.yul\":5604:5621   */\n  and\n    /* \"#utility.yul\":5594:5621   */\n  swap2\n  pop\n    /* \"#utility.yul\":5550:5631   */\ntag_126:\n    /* \"#utility.yul\":5678:5680   */\n  0x20\n    /* \"#utility.yul\":5670:5676   */\n  dup3\n    /* \"#utility.yul\":5667:5681   */\n  lt\n    /* \"#utility.yul\":5647:5665   */\n  dup2\n    /* \"#utility.yul\":5644:5682   */\n  eq\n    /* \"#utility.yul\":5641:5725   */\n  iszero\n  tag_127\n  jumpi\n    /* \"#utility.yul\":5697:5715   */\n  tag_128\n  tag_66\n  jump\t// in\ntag_128:\n    /* \"#utility.yul\":5641:5725   */\ntag_127:\n    /* \"#utility.yul\":5462:5731   */\n  pop\n    /* \"#utility.yul\":5411:5731   */\n  swap2\n  swap1\n  pop\n  jump\t// out\n    /* \"1127/CompanyProxy.sol\":130:2232  contract CompanyProxy is AccessControl {... */\ntag_16:\n  dataSize(sub_0)\n  dup1\n  dataOffset(sub_0)\n  0x00\n  codecopy\n  0x00\n  return\nstop\n\nsub_0: assembly {\n        /* \"1127/CompanyProxy.sol\":130:2232  contract CompanyProxy is AccessControl {... */\n      mstore(0x40, 0x80)\n      callvalue\n      dup1\n      iszero\n      tag_1\n      jumpi\n      0x00\n      dup1\n      revert\n    tag_1:\n      pop\n      jumpi(tag_2, lt(calldatasize, 0x04))\n      shr(0xe0, calldataload(0x00))\n      dup1\n      0x75b238fc\n      gt\n      tag_14\n      jumpi\n      dup1\n      0x75b238fc\n      eq\n      tag_9\n      jumpi\n      dup1\n      0x91d14854\n      eq\n      tag_10\n      jumpi\n      dup1\n      0x9cdeba95\n      eq\n      tag_11\n      jumpi\n      dup1\n      0xc5b95190\n      eq\n      tag_12\n      jumpi\n      dup1\n      0xd547741f\n      eq\n      tag_13\n      jumpi\n      jump(tag_3)\n    tag_14:\n      dup1\n      0x025b22bc\n      eq\n      tag_4\n      jumpi\n      dup1\n      0x248a9ca3\n      eq\n      tag_5\n      jumpi\n      dup1\n      0x2f2ff15d\n      eq\n      tag_6\n      jumpi\n      dup1\n      0x36568abe\n      eq\n      tag_7\n      jumpi\n      dup1\n      0x634252dc\n      eq\n      tag_8\n      jumpi\n      jump(tag_3)\n    tag_2:\n    tag_3:\n        /* \"1127/CompanyProxy.sol\":2208:2219  _fallback() */\n      tag_17\n        /* \"1127/CompanyProxy.sol\":2208:2217  _fallback */\n      tag_18\n        /* \"1127/CompanyProxy.sol\":2208:2219  _fallback() */\n      jump\t// in\n    tag_17:\n        /* \"1127/CompanyProxy.sol\":130:2232  contract CompanyProxy is AccessControl {... */\n      stop\n        /* \"1127/CompanyProxy.sol\":1685:1965  function updateImplementation(address newLogicAddress) public AccessControl.onlyRole(DEFAULT_ADMIN) returns (bool){... */\n    tag_4:\n      tag_19\n      0x04\n      dup1\n      calldatasize\n      sub\n      dup2\n      add\n      swap1\n      tag_20\n      swap2\n      swap1\n      tag_21\n      jump\t// in\n    tag_20:\n      tag_22\n      jump\t// in\n    tag_19:\n      mload(0x40)\n      tag_23\n      swap2\n      swap1\n      tag_24\n      jump\t// in\n    tag_23:\n      mload(0x40)\n      dup1\n      swap2\n      sub\n      swap1\n      return\n        /* \"1127/util/AccessControl.sol\":1379:1490  function getRoleAdmin(bytes32 role) public view returns (bytes32) {... */\n    tag_5:\n      tag_25\n      0x04\n      dup1\n      calldatasize\n      sub\n      dup2\n      add\n      swap1\n      tag_26\n      swap2\n      swap1\n      tag_27\n      jump\t// in\n    tag_26:\n      tag_28\n      jump\t// in\n    tag_25:\n      mload(0x40)\n      tag_29\n      swap2\n      swap1\n      tag_30\n      jump\t// in\n    tag_29:\n      mload(0x40)\n      dup1\n      swap2\n      sub\n      swap1\n      return\n        /* \"1127/util/AccessControl.sol\":1785:2111  function grantRole(bytes32 role, address member)... */\n    tag_6:\n      tag_31\n      0x04\n      dup1\n      calldatasize\n      sub\n      dup2\n      add\n      swap1\n      tag_32\n      swap2\n      swap1\n      tag_33\n      jump\t// in\n    tag_32:\n      tag_34\n      jump\t// in\n    tag_31:\n      mload(0x40)\n      tag_35\n      swap2\n      swap1\n      tag_24\n      jump\t// in\n    tag_35:\n      mload(0x40)\n      dup1\n      swap2\n      sub\n      swap1\n      return\n        /* \"1127/util/AccessControl.sol\":2553:2795  function renounceRole(bytes32 role, address callerConfirmation)... */\n    tag_7:\n      tag_36\n      0x04\n      dup1\n      calldatasize\n      sub\n      dup2\n      add\n      swap1\n      tag_37\n      swap2\n      swap1\n      tag_33\n      jump\t// in\n    tag_37:\n      tag_38\n      jump\t// in\n    tag_36:\n      stop\n        /* \"1127/CompanyProxy.sol\":322:379  bytes32 public constant WORKER_ROLE = keccak256(\"WORKER\") */\n    tag_8:\n      tag_39\n      tag_40\n      jump\t// in\n    tag_39:\n      mload(0x40)\n      tag_41\n      swap2\n      swap1\n      tag_30\n      jump\t// in\n    tag_41:\n      mload(0x40)\n      dup1\n      swap2\n      sub\n      swap1\n      return\n        /* \"1127/CompanyProxy.sol\":258:313  bytes32 public constant ADMIN_ROLE = keccak256(\"ADMIN\") */\n    tag_9:\n      tag_42\n      tag_43\n      jump\t// in\n    tag_42:\n      mload(0x40)\n      tag_44\n      swap2\n      swap1\n      tag_30\n      jump\t// in\n    tag_44:\n      mload(0x40)\n      dup1\n      swap2\n      sub\n      swap1\n      return\n        /* \"1127/util/AccessControl.sol\":1209:1335  function hasRole(bytes32 role, address member) public view returns (bool) {... */\n    tag_10:\n      tag_45\n      0x04\n      dup1\n      calldatasize\n      sub\n      dup2\n      add\n      swap1\n      tag_46\n      swap2\n      swap1\n      tag_33\n      jump\t// in\n    tag_46:\n      tag_47\n      jump\t// in\n    tag_45:\n      mload(0x40)\n      tag_48\n      swap2\n      swap1\n      tag_24\n      jump\t// in\n    tag_48:\n      mload(0x40)\n      dup1\n      swap2\n      sub\n      swap1\n      return\n        /* \"1127/util/AccessControl.sol\":206:250  bytes32 public constant DEFAULT_ADMIN = 0x00 */\n    tag_11:\n      tag_49\n      tag_50\n      jump\t// in\n    tag_49:\n      mload(0x40)\n      tag_51\n      swap2\n      swap1\n      tag_30\n      jump\t// in\n    tag_51:\n      mload(0x40)\n      dup1\n      swap2\n      sub\n      swap1\n      return\n        /* \"1127/util/AccessControl.sol\":1011:1194  function checkRole(bytes32 role) public view returns (bool) {... */\n    tag_12:\n      tag_52\n      0x04\n      dup1\n      calldatasize\n      sub\n      dup2\n      add\n      swap1\n      tag_53\n      swap2\n      swap1\n      tag_27\n      jump\t// in\n    tag_53:\n      tag_54\n      jump\t// in\n    tag_52:\n      mload(0x40)\n      tag_55\n      swap2\n      swap1\n      tag_24\n      jump\t// in\n    tag_55:\n      mload(0x40)\n      dup1\n      swap2\n      sub\n      swap1\n      return\n        /* \"1127/util/AccessControl.sol\":2161:2490  function revokeRole(bytes32 role, address member)... */\n    tag_13:\n      tag_56\n      0x04\n      dup1\n      calldatasize\n      sub\n      dup2\n      add\n      swap1\n      tag_57\n      swap2\n      swap1\n      tag_33\n      jump\t// in\n    tag_57:\n      tag_58\n      jump\t// in\n    tag_56:\n      mload(0x40)\n      tag_59\n      swap2\n      swap1\n      tag_24\n      jump\t// in\n    tag_59:\n      mload(0x40)\n      dup1\n      swap2\n      sub\n      swap1\n      return\n        /* \"1127/CompanyProxy.sol\":2089:2167  function _fallback() internal  {... */\n    tag_18:\n        /* \"1127/CompanyProxy.sol\":2131:2159  _delegate(_implementation()) */\n      tag_61\n        /* \"1127/CompanyProxy.sol\":2141:2158  _implementation() */\n      tag_62\n        /* \"1127/CompanyProxy.sol\":2141:2156  _implementation */\n      tag_63\n        /* \"1127/CompanyProxy.sol\":2141:2158  _implementation() */\n      jump\t// in\n    tag_62:\n        /* \"1127/CompanyProxy.sol\":2131:2140  _delegate */\n      tag_64\n        /* \"1127/CompanyProxy.sol\":2131:2159  _delegate(_implementation()) */\n      jump\t// in\n    tag_61:\n        /* \"1127/CompanyProxy.sol\":2089:2167  function _fallback() internal  {... */\n      jump\t// out\n        /* \"1127/CompanyProxy.sol\":1685:1965  function updateImplementation(address newLogicAddress) public AccessControl.onlyRole(DEFAULT_ADMIN) returns (bool){... */\n    tag_22:\n        /* \"1127/CompanyProxy.sol\":1794:1798  bool */\n      0x00\n        /* \"1127/util/AccessControl.sol\":246:250  0x00 */\n      dup1\n        /* \"1127/CompanyProxy.sol\":1770:1783  DEFAULT_ADMIN */\n      0x00\n      shl\n        /* \"1127/util/AccessControl.sol\":856:871  checkRole(role) */\n      tag_66\n        /* \"1127/util/AccessControl.sol\":866:870  role */\n      dup2\n        /* \"1127/util/AccessControl.sol\":856:865  checkRole */\n      tag_54\n        /* \"1127/util/AccessControl.sol\":856:871  checkRole(role) */\n      jump\t// in\n    tag_66:\n      pop\n        /* \"1127/CompanyProxy.sol\":1841:1842  0 */\n      0x00\n        /* \"1127/CompanyProxy.sol\":1814:1843  newLogicAddress == address(0) */\n      0xffffffffffffffffffffffffffffffffffffffff\n      and\n        /* \"1127/CompanyProxy.sol\":1814:1829  newLogicAddress */\n      dup4\n        /* \"1127/CompanyProxy.sol\":1814:1843  newLogicAddress == address(0) */\n      0xffffffffffffffffffffffffffffffffffffffff\n      and\n      eq\n        /* \"1127/CompanyProxy.sol\":1811:1884  if(newLogicAddress == address(0)){... */\n      iszero\n      tag_68\n      jumpi\n        /* \"1127/CompanyProxy.sol\":1866:1871  false */\n      0x00\n        /* \"1127/CompanyProxy.sol\":1859:1871  return false */\n      swap2\n      pop\n      jump(tag_67)\n        /* \"1127/CompanyProxy.sol\":1811:1884  if(newLogicAddress == address(0)){... */\n    tag_68:\n        /* \"1127/CompanyProxy.sol\":1919:1934  newLogicAddress */\n      dup3\n        /* \"1127/CompanyProxy.sol\":1895:1916  implementationAddress */\n      0x01\n      0x00\n        /* \"1127/CompanyProxy.sol\":1895:1934  implementationAddress = newLogicAddress */\n      0x0100\n      exp\n      dup2\n      sload\n      dup2\n      0xffffffffffffffffffffffffffffffffffffffff\n      mul\n      not\n      and\n      swap1\n      dup4\n      0xffffffffffffffffffffffffffffffffffffffff\n      and\n      mul\n      or\n      swap1\n      sstore\n      pop\n        /* \"1127/CompanyProxy.sol\":1953:1957  true */\n      0x01\n        /* \"1127/CompanyProxy.sol\":1946:1957  return true */\n      swap2\n      pop\n        /* \"1127/util/AccessControl.sol\":881:882  _ */\n    tag_67:\n        /* \"1127/CompanyProxy.sol\":1685:1965  function updateImplementation(address newLogicAddress) public AccessControl.onlyRole(DEFAULT_ADMIN) returns (bool){... */\n      pop\n      swap2\n      swap1\n      pop\n      jump\t// out\n        /* \"1127/util/AccessControl.sol\":1379:1490  function getRoleAdmin(bytes32 role) public view returns (bytes32) {... */\n    tag_28:\n        /* \"1127/util/AccessControl.sol\":1436:1443  bytes32 */\n      0x00\n        /* \"1127/util/AccessControl.sol\":1462:1467  roles */\n      dup1\n        /* \"1127/util/AccessControl.sol\":1462:1473  roles[role] */\n      0x00\n        /* \"1127/util/AccessControl.sol\":1468:1472  role */\n      dup4\n        /* \"1127/util/AccessControl.sol\":1462:1473  roles[role] */\n      dup2\n      mstore\n      0x20\n      add\n      swap1\n      dup2\n      mstore\n      0x20\n      add\n      0x00\n      keccak256\n        /* \"1127/util/AccessControl.sol\":1462:1483  roles[role].adminRole */\n      0x01\n      add\n      sload\n        /* \"1127/util/AccessControl.sol\":1455:1483  return roles[role].adminRole */\n      swap1\n      pop\n        /* \"1127/util/AccessControl.sol\":1379:1490  function getRoleAdmin(bytes32 role) public view returns (bytes32) {... */\n      swap2\n      swap1\n      pop\n      jump\t// out\n        /* \"1127/util/AccessControl.sol\":1785:2111  function grantRole(bytes32 role, address member)... */\n    tag_34:\n        /* \"1127/util/AccessControl.sol\":1903:1907  bool */\n      0x00\n        /* \"1127/util/AccessControl.sol\":1866:1884  getRoleAdmin(role) */\n      tag_70\n        /* \"1127/util/AccessControl.sol\":1879:1883  role */\n      dup4\n        /* \"1127/util/AccessControl.sol\":1866:1878  getRoleAdmin */\n      tag_28\n        /* \"1127/util/AccessControl.sol\":1866:1884  getRoleAdmin(role) */\n      jump\t// in\n    tag_70:\n        /* \"1127/util/AccessControl.sol\":856:871  checkRole(role) */\n      tag_72\n        /* \"1127/util/AccessControl.sol\":866:870  role */\n      dup2\n        /* \"1127/util/AccessControl.sol\":856:865  checkRole */\n      tag_54\n        /* \"1127/util/AccessControl.sol\":856:871  checkRole(role) */\n      jump\t// in\n    tag_72:\n      pop\n        /* \"1127/util/AccessControl.sol\":1927:1948  hasRole(role, member) */\n      tag_74\n        /* \"1127/util/AccessControl.sol\":1935:1939  role */\n      dup5\n        /* \"1127/util/AccessControl.sol\":1941:1947  member */\n      dup5\n        /* \"1127/util/AccessControl.sol\":1927:1934  hasRole */\n      tag_47\n        /* \"1127/util/AccessControl.sol\":1927:1948  hasRole(role, member) */\n      jump\t// in\n    tag_74:\n        /* \"1127/util/AccessControl.sol\":1923:1987  if (hasRole(role, member)) {... */\n      iszero\n      tag_75\n      jumpi\n        /* \"1127/util/AccessControl.sol\":1971:1976  false */\n      0x00\n        /* \"1127/util/AccessControl.sol\":1964:1976  return false */\n      swap2\n      pop\n      jump(tag_73)\n        /* \"1127/util/AccessControl.sol\":1923:1987  if (hasRole(role, member)) {... */\n    tag_75:\n        /* \"1127/util/AccessControl.sol\":2027:2031  true */\n      0x01\n        /* \"1127/util/AccessControl.sol\":1996:2001  roles */\n      0x00\n        /* \"1127/util/AccessControl.sol\":1996:2007  roles[role] */\n      dup1\n        /* \"1127/util/AccessControl.sol\":2002:2006  role */\n      dup7\n        /* \"1127/util/AccessControl.sol\":1996:2007  roles[role] */\n      dup2\n      mstore\n      0x20\n      add\n      swap1\n      dup2\n      mstore\n      0x20\n      add\n      0x00\n      keccak256\n        /* \"1127/util/AccessControl.sol\":1996:2016  roles[role].hasRoles */\n      0x00\n      add\n        /* \"1127/util/AccessControl.sol\":1996:2024  roles[role].hasRoles[member] */\n      0x00\n        /* \"1127/util/AccessControl.sol\":2017:2023  member */\n      dup6\n        /* \"1127/util/AccessControl.sol\":1996:2024  roles[role].hasRoles[member] */\n      0xffffffffffffffffffffffffffffffffffffffff\n      and\n      0xffffffffffffffffffffffffffffffffffffffff\n      and\n      dup2\n      mstore\n      0x20\n      add\n      swap1\n      dup2\n      mstore\n      0x20\n      add\n      0x00\n      keccak256\n      0x00\n        /* \"1127/util/AccessControl.sol\":1996:2031  roles[role].hasRoles[member] = true */\n      0x0100\n      exp\n      dup2\n      sload\n      dup2\n      0xff\n      mul\n      not\n      and\n      swap1\n      dup4\n      iszero\n      iszero\n      mul\n      or\n      swap1\n      sstore\n      pop\n        /* \"1127/util/AccessControl.sol\":2072:2082  msg.sender */\n      caller\n        /* \"1127/util/AccessControl.sol\":2046:2083  RoleGranted(role, member, msg.sender) */\n      0xffffffffffffffffffffffffffffffffffffffff\n      and\n        /* \"1127/util/AccessControl.sol\":2064:2070  member */\n      dup4\n        /* \"1127/util/AccessControl.sol\":2046:2083  RoleGranted(role, member, msg.sender) */\n      0xffffffffffffffffffffffffffffffffffffffff\n      and\n        /* \"1127/util/AccessControl.sol\":2058:2062  role */\n      dup6\n        /* \"1127/util/AccessControl.sol\":2046:2083  RoleGranted(role, member, msg.sender) */\n      0x2f8788117e7eff1d82e926ec794901d17c78024a50270940304540a733656f0d\n      mload(0x40)\n      mload(0x40)\n      dup1\n      swap2\n      sub\n      swap1\n      log4\n        /* \"1127/util/AccessControl.sol\":2100:2104  true */\n      0x01\n        /* \"1127/util/AccessControl.sol\":2093:2104  return true */\n      swap2\n      pop\n        /* \"1127/util/AccessControl.sol\":881:882  _ */\n    tag_73:\n        /* \"1127/util/AccessControl.sol\":1785:2111  function grantRole(bytes32 role, address member)... */\n      pop\n      swap3\n      swap2\n      pop\n      pop\n      jump\t// out\n        /* \"1127/util/AccessControl.sol\":2553:2795  function renounceRole(bytes32 role, address callerConfirmation)... */\n    tag_38:\n        /* \"1127/util/AccessControl.sol\":2681:2691  msg.sender */\n      caller\n        /* \"1127/util/AccessControl.sol\":2659:2691  callerConfirmation != msg.sender */\n      0xffffffffffffffffffffffffffffffffffffffff\n      and\n        /* \"1127/util/AccessControl.sol\":2659:2677  callerConfirmation */\n      dup2\n        /* \"1127/util/AccessControl.sol\":2659:2691  callerConfirmation != msg.sender */\n      0xffffffffffffffffffffffffffffffffffffffff\n      and\n      eq\n        /* \"1127/util/AccessControl.sol\":2655:2743  if (callerConfirmation != msg.sender) {... */\n      tag_77\n      jumpi\n        /* \"1127/util/AccessControl.sol\":2707:2732  revert(\"BadConfirmation\") */\n      mload(0x40)\n      0x08c379a000000000000000000000000000000000000000000000000000000000\n      dup2\n      mstore\n      0x04\n      add\n      tag_78\n      swap1\n      tag_79\n      jump\t// in\n    tag_78:\n      mload(0x40)\n      dup1\n      swap2\n      sub\n      swap1\n      revert\n        /* \"1127/util/AccessControl.sol\":2655:2743  if (callerConfirmation != msg.sender) {... */\n    tag_77:\n        /* \"1127/util/AccessControl.sol\":2752:2788  revokeRole(role, callerConfirmation) */\n      tag_80\n        /* \"1127/util/AccessControl.sol\":2763:2767  role */\n      dup3\n        /* \"1127/util/AccessControl.sol\":2769:2787  callerConfirmation */\n      dup3\n        /* \"1127/util/AccessControl.sol\":2752:2762  revokeRole */\n      tag_58\n        /* \"1127/util/AccessControl.sol\":2752:2788  revokeRole(role, callerConfirmation) */\n      jump\t// in\n    tag_80:\n      pop\n        /* \"1127/util/AccessControl.sol\":2553:2795  function renounceRole(bytes32 role, address callerConfirmation)... */\n      pop\n      pop\n      jump\t// out\n        /* \"1127/CompanyProxy.sol\":322:379  bytes32 public constant WORKER_ROLE = keccak256(\"WORKER\") */\n    tag_40:\n        /* \"1127/CompanyProxy.sol\":360:379  keccak256(\"WORKER\") */\n      0xf101d8f75d5816ea5d4f9e76d2b196ca77914d087c68fd9b89f497d695bcddf7\n        /* \"1127/CompanyProxy.sol\":322:379  bytes32 public constant WORKER_ROLE = keccak256(\"WORKER\") */\n      dup2\n      jump\t// out\n        /* \"1127/CompanyProxy.sol\":258:313  bytes32 public constant ADMIN_ROLE = keccak256(\"ADMIN\") */\n    tag_43:\n        /* \"1127/CompanyProxy.sol\":295:313  keccak256(\"ADMIN\") */\n      0xdf8b4c520ffe197c5343c6f5aec59570151ef9a492f2c624fd45ddde6135ec42\n        /* \"1127/CompanyProxy.sol\":258:313  bytes32 public constant ADMIN_ROLE = keccak256(\"ADMIN\") */\n      dup2\n      jump\t// out\n        /* \"1127/util/AccessControl.sol\":1209:1335  function hasRole(bytes32 role, address member) public view returns (bool) {... */\n    tag_47:\n        /* \"1127/util/AccessControl.sol\":1277:1281  bool */\n      0x00\n        /* \"1127/util/AccessControl.sol\":1300:1305  roles */\n      dup1\n        /* \"1127/util/AccessControl.sol\":1300:1311  roles[role] */\n      0x00\n        /* \"1127/util/AccessControl.sol\":1306:1310  role */\n      dup5\n        /* \"1127/util/AccessControl.sol\":1300:1311  roles[role] */\n      dup2\n      mstore\n      0x20\n      add\n      swap1\n      dup2\n      mstore\n      0x20\n      add\n      0x00\n      keccak256\n        /* \"1127/util/AccessControl.sol\":1300:1320  roles[role].hasRoles */\n      0x00\n      add\n        /* \"1127/util/AccessControl.sol\":1300:1328  roles[role].hasRoles[member] */\n      0x00\n        /* \"1127/util/AccessControl.sol\":1321:1327  member */\n      dup4\n        /* \"1127/util/AccessControl.sol\":1300:1328  roles[role].hasRoles[member] */\n      0xffffffffffffffffffffffffffffffffffffffff\n      and\n      0xffffffffffffffffffffffffffffffffffffffff\n      and\n      dup2\n      mstore\n      0x20\n      add\n      swap1\n      dup2\n      mstore\n      0x20\n      add\n      0x00\n      keccak256\n      0x00\n      swap1\n      sload\n      swap1\n      0x0100\n      exp\n      swap1\n      div\n      0xff\n      and\n        /* \"1127/util/AccessControl.sol\":1293:1328  return roles[role].hasRoles[member] */\n      swap1\n      pop\n        /* \"1127/util/AccessControl.sol\":1209:1335  function hasRole(bytes32 role, address member) public view returns (bool) {... */\n      swap3\n      swap2\n      pop\n      pop\n      jump\t// out\n        /* \"1127/util/AccessControl.sol\":206:250  bytes32 public constant DEFAULT_ADMIN = 0x00 */\n    tag_50:\n        /* \"1127/util/AccessControl.sol\":246:250  0x00 */\n      0x00\n        /* \"1127/util/AccessControl.sol\":206:250  bytes32 public constant DEFAULT_ADMIN = 0x00 */\n      dup1\n      shl\n      dup2\n      jump\t// out\n        /* \"1127/util/AccessControl.sol\":1011:1194  function checkRole(bytes32 role) public view returns (bool) {... */\n    tag_54:\n        /* \"1127/util/AccessControl.sol\":1065:1069  bool */\n      0x00\n        /* \"1127/util/AccessControl.sol\":1086:1111  hasRole(role, msg.sender) */\n      tag_83\n        /* \"1127/util/AccessControl.sol\":1094:1098  role */\n      dup3\n        /* \"1127/util/AccessControl.sol\":1100:1110  msg.sender */\n      caller\n        /* \"1127/util/AccessControl.sol\":1086:1093  hasRole */\n      tag_47\n        /* \"1127/util/AccessControl.sol\":1086:1111  hasRole(role, msg.sender) */\n      jump\t// in\n    tag_83:\n        /* \"1127/util/AccessControl.sol\":1081:1167  if (!hasRole(role, msg.sender)) {... */\n      tag_84\n      jumpi\n        /* \"1127/util/AccessControl.sol\":1127:1156  revert(\"UnAuthorizedAccount\") */\n      mload(0x40)\n      0x08c379a000000000000000000000000000000000000000000000000000000000\n      dup2\n      mstore\n      0x04\n      add\n      tag_85\n      swap1\n      tag_86\n      jump\t// in\n    tag_85:\n      mload(0x40)\n      dup1\n      swap2\n      sub\n      swap1\n      revert\n        /* \"1127/util/AccessControl.sol\":1081:1167  if (!hasRole(role, msg.sender)) {... */\n    tag_84:\n        /* \"1127/util/AccessControl.sol\":1183:1187  true */\n      0x01\n        /* \"1127/util/AccessControl.sol\":1176:1187  return true */\n      swap1\n      pop\n        /* \"1127/util/AccessControl.sol\":1011:1194  function checkRole(bytes32 role) public view returns (bool) {... */\n      swap2\n      swap1\n      pop\n      jump\t// out\n        /* \"1127/util/AccessControl.sol\":2161:2490  function revokeRole(bytes32 role, address member)... */\n    tag_58:\n        /* \"1127/util/AccessControl.sol\":2280:2284  bool */\n      0x00\n        /* \"1127/util/AccessControl.sol\":2243:2261  getRoleAdmin(role) */\n      tag_87\n        /* \"1127/util/AccessControl.sol\":2256:2260  role */\n      dup4\n        /* \"1127/util/AccessControl.sol\":2243:2255  getRoleAdmin */\n      tag_28\n        /* \"1127/util/AccessControl.sol\":2243:2261  getRoleAdmin(role) */\n      jump\t// in\n    tag_87:\n        /* \"1127/util/AccessControl.sol\":856:871  checkRole(role) */\n      tag_89\n        /* \"1127/util/AccessControl.sol\":866:870  role */\n      dup2\n        /* \"1127/util/AccessControl.sol\":856:865  checkRole */\n      tag_54\n        /* \"1127/util/AccessControl.sol\":856:871  checkRole(role) */\n      jump\t// in\n    tag_89:\n      pop\n        /* \"1127/util/AccessControl.sol\":2305:2326  hasRole(role, member) */\n      tag_91\n        /* \"1127/util/AccessControl.sol\":2313:2317  role */\n      dup5\n        /* \"1127/util/AccessControl.sol\":2319:2325  member */\n      dup5\n        /* \"1127/util/AccessControl.sol\":2305:2312  hasRole */\n      tag_47\n        /* \"1127/util/AccessControl.sol\":2305:2326  hasRole(role, member) */\n      jump\t// in\n    tag_91:\n        /* \"1127/util/AccessControl.sol\":2300:2365  if (!hasRole(role, member)) {... */\n      tag_92\n      jumpi\n        /* \"1127/util/AccessControl.sol\":2349:2354  false */\n      0x00\n        /* \"1127/util/AccessControl.sol\":2342:2354  return false */\n      swap2\n      pop\n      jump(tag_90)\n        /* \"1127/util/AccessControl.sol\":2300:2365  if (!hasRole(role, member)) {... */\n    tag_92:\n        /* \"1127/util/AccessControl.sol\":2405:2410  false */\n      0x00\n        /* \"1127/util/AccessControl.sol\":2374:2379  roles */\n      dup1\n        /* \"1127/util/AccessControl.sol\":2374:2385  roles[role] */\n      0x00\n        /* \"1127/util/AccessControl.sol\":2380:2384  role */\n      dup7\n        /* \"1127/util/AccessControl.sol\":2374:2385  roles[role] */\n      dup2\n      mstore\n      0x20\n      add\n      swap1\n      dup2\n      mstore\n      0x20\n      add\n      0x00\n      keccak256\n        /* \"1127/util/AccessControl.sol\":2374:2394  roles[role].hasRoles */\n      0x00\n      add\n        /* \"1127/util/AccessControl.sol\":2374:2402  roles[role].hasRoles[member] */\n      0x00\n        /* \"1127/util/AccessControl.sol\":2395:2401  member */\n      dup6\n        /* \"1127/util/AccessControl.sol\":2374:2402  roles[role].hasRoles[member] */\n      0xffffffffffffffffffffffffffffffffffffffff\n      and\n      0xffffffffffffffffffffffffffffffffffffffff\n      and\n      dup2\n      mstore\n      0x20\n      add\n      swap1\n      dup2\n      mstore\n      0x20\n      add\n      0x00\n      keccak256\n      0x00\n        /* \"1127/util/AccessControl.sol\":2374:2410  roles[role].hasRoles[member] = false */\n      0x0100\n      exp\n      dup2\n      sload\n      dup2\n      0xff\n      mul\n      not\n      and\n      swap1\n      dup4\n      iszero\n      iszero\n      mul\n      or\n      swap1\n      sstore\n      pop\n        /* \"1127/util/AccessControl.sol\":2451:2461  msg.sender */\n      caller\n        /* \"1127/util/AccessControl.sol\":2425:2462  RoleRevoked(role, member, msg.sender) */\n      0xffffffffffffffffffffffffffffffffffffffff\n      and\n        /* \"1127/util/AccessControl.sol\":2443:2449  member */\n      dup4\n        /* \"1127/util/AccessControl.sol\":2425:2462  RoleRevoked(role, member, msg.sender) */\n      0xffffffffffffffffffffffffffffffffffffffff\n      and\n        /* \"1127/util/AccessControl.sol\":2437:2441  role */\n      dup6\n        /* \"1127/util/AccessControl.sol\":2425:2462  RoleRevoked(role, member, msg.sender) */\n      0xf6391f5c32d9c69d2a47ea670b442974b53935d1edc7fd64eb21e047a839171b\n      mload(0x40)\n      mload(0x40)\n      dup1\n      swap2\n      sub\n      swap1\n      log4\n        /* \"1127/util/AccessControl.sol\":2479:2483  true */\n      0x01\n        /* \"1127/util/AccessControl.sol\":2472:2483  return true */\n      swap2\n      pop\n        /* \"1127/util/AccessControl.sol\":881:882  _ */\n    tag_90:\n        /* \"1127/util/AccessControl.sol\":2161:2490  function revokeRole(bytes32 role, address member)... */\n      pop\n      swap3\n      swap2\n      pop\n      pop\n      jump\t// out\n        /* \"1127/CompanyProxy.sol\":1975:2081  function _implementation() internal view  returns (address){... */\n    tag_63:\n        /* \"1127/CompanyProxy.sol\":2026:2033  address */\n      0x00\n        /* \"1127/CompanyProxy.sol\":2052:2073  implementationAddress */\n      0x01\n      0x00\n      swap1\n      sload\n      swap1\n      0x0100\n      exp\n      swap1\n      div\n      0xffffffffffffffffffffffffffffffffffffffff\n      and\n        /* \"1127/CompanyProxy.sol\":2045:2073  return implementationAddress */\n      swap1\n      pop\n        /* \"1127/CompanyProxy.sol\":1975:2081  function _implementation() internal view  returns (address){... */\n      swap1\n      jump\t// out\n        /* \"1127/CompanyProxy.sol\":1205:1677  function _delegate(address implementation) internal  {... */\n    tag_64:\n        /* \"1127/CompanyProxy.sol\":1312:1326  calldatasize() */\n      calldatasize\n        /* \"1127/CompanyProxy.sol\":1309:1310  0 */\n      0x00\n        /* \"1127/CompanyProxy.sol\":1306:1307  0 */\n      dup1\n        /* \"1127/CompanyProxy.sol\":1293:1327  calldatacopy(0, 0, calldatasize()) */\n      calldatacopy\n        /* \"1127/CompanyProxy.sol\":1413:1414  0 */\n      0x00\n        /* \"1127/CompanyProxy.sol\":1410:1411  0 */\n      dup1\n        /* \"1127/CompanyProxy.sol\":1394:1408  calldatasize() */\n      calldatasize\n        /* \"1127/CompanyProxy.sol\":1391:1392  0 */\n      0x00\n        /* \"1127/CompanyProxy.sol\":1375:1389  implementation */\n      dup5\n        /* \"1127/CompanyProxy.sol\":1368:1373  gas() */\n      gas\n        /* \"1127/CompanyProxy.sol\":1355:1415  delegatecall(gas(), implementation, 0, calldatasize(), 0, 0) */\n      delegatecall\n        /* \"1127/CompanyProxy.sol\":1450:1466  returndatasize() */\n      returndatasize\n        /* \"1127/CompanyProxy.sol\":1447:1448  0 */\n      0x00\n        /* \"1127/CompanyProxy.sol\":1444:1445  0 */\n      dup1\n        /* \"1127/CompanyProxy.sol\":1429:1467  returndatacopy(0, 0, returndatasize()) */\n      returndatacopy\n        /* \"1127/CompanyProxy.sol\":1488:1494  result */\n      dup1\n        /* \"1127/CompanyProxy.sol\":1513:1514  0 */\n      0x00\n        /* \"1127/CompanyProxy.sol\":1508:1576  case 0 {... */\n      dup2\n      eq\n      tag_96\n      jumpi\n        /* \"1127/CompanyProxy.sol\":1627:1643  returndatasize() */\n      returndatasize\n        /* \"1127/CompanyProxy.sol\":1624:1625  0 */\n      0x00\n        /* \"1127/CompanyProxy.sol\":1617:1644  return(0, returndatasize()) */\n      return\n        /* \"1127/CompanyProxy.sol\":1508:1576  case 0 {... */\n    tag_96:\n        /* \"1127/CompanyProxy.sol\":1544:1560  returndatasize() */\n      returndatasize\n        /* \"1127/CompanyProxy.sol\":1541:1542  0 */\n      0x00\n        /* \"1127/CompanyProxy.sol\":1534:1561  revert(0, returndatasize()) */\n      revert\n        /* \"#utility.yul\":88:205   */\n    tag_98:\n        /* \"#utility.yul\":197:198   */\n      0x00\n        /* \"#utility.yul\":194:195   */\n      dup1\n        /* \"#utility.yul\":187:199   */\n      revert\n        /* \"#utility.yul\":334:460   */\n    tag_100:\n        /* \"#utility.yul\":371:378   */\n      0x00\n        /* \"#utility.yul\":411:453   */\n      0xffffffffffffffffffffffffffffffffffffffff\n        /* \"#utility.yul\":404:409   */\n      dup3\n        /* \"#utility.yul\":400:454   */\n      and\n        /* \"#utility.yul\":389:454   */\n      swap1\n      pop\n        /* \"#utility.yul\":334:460   */\n      swap2\n      swap1\n      pop\n      jump\t// out\n        /* \"#utility.yul\":466:562   */\n    tag_101:\n        /* \"#utility.yul\":503:510   */\n      0x00\n        /* \"#utility.yul\":532:556   */\n      tag_121\n        /* \"#utility.yul\":550:555   */\n      dup3\n        /* \"#utility.yul\":532:556   */\n      tag_100\n      jump\t// in\n    tag_121:\n        /* \"#utility.yul\":521:556   */\n      swap1\n      pop\n        /* \"#utility.yul\":466:562   */\n      swap2\n      swap1\n      pop\n      jump\t// out\n        /* \"#utility.yul\":568:690   */\n    tag_102:\n        /* \"#utility.yul\":641:665   */\n      tag_123\n        /* \"#utility.yul\":659:664   */\n      dup2\n        /* \"#utility.yul\":641:665   */\n      tag_101\n      jump\t// in\n    tag_123:\n        /* \"#utility.yul\":634:639   */\n      dup2\n        /* \"#utility.yul\":631:666   */\n      eq\n        /* \"#utility.yul\":621:684   */\n      tag_124\n      jumpi\n        /* \"#utility.yul\":680:681   */\n      0x00\n        /* \"#utility.yul\":677:678   */\n      dup1\n        /* \"#utility.yul\":670:682   */\n      revert\n        /* \"#utility.yul\":621:684   */\n    tag_124:\n        /* \"#utility.yul\":568:690   */\n      pop\n      jump\t// out\n        /* \"#utility.yul\":696:835   */\n    tag_103:\n        /* \"#utility.yul\":742:747   */\n      0x00\n        /* \"#utility.yul\":780:786   */\n      dup2\n        /* \"#utility.yul\":767:787   */\n      calldataload\n        /* \"#utility.yul\":758:787   */\n      swap1\n      pop\n        /* \"#utility.yul\":796:829   */\n      tag_126\n        /* \"#utility.yul\":823:828   */\n      dup2\n        /* \"#utility.yul\":796:829   */\n      tag_102\n      jump\t// in\n    tag_126:\n        /* \"#utility.yul\":696:835   */\n      swap3\n      swap2\n      pop\n      pop\n      jump\t// out\n        /* \"#utility.yul\":841:1170   */\n    tag_21:\n        /* \"#utility.yul\":900:906   */\n      0x00\n        /* \"#utility.yul\":949:951   */\n      0x20\n        /* \"#utility.yul\":937:946   */\n      dup3\n        /* \"#utility.yul\":928:935   */\n      dup5\n        /* \"#utility.yul\":924:947   */\n      sub\n        /* \"#utility.yul\":920:952   */\n      slt\n        /* \"#utility.yul\":917:1036   */\n      iszero\n      tag_128\n      jumpi\n        /* \"#utility.yul\":955:1034   */\n      tag_129\n      tag_98\n      jump\t// in\n    tag_129:\n        /* \"#utility.yul\":917:1036   */\n    tag_128:\n        /* \"#utility.yul\":1075:1076   */\n      0x00\n        /* \"#utility.yul\":1100:1153   */\n      tag_130\n        /* \"#utility.yul\":1145:1152   */\n      dup5\n        /* \"#utility.yul\":1136:1142   */\n      dup3\n        /* \"#utility.yul\":1125:1134   */\n      dup6\n        /* \"#utility.yul\":1121:1143   */\n      add\n        /* \"#utility.yul\":1100:1153   */\n      tag_103\n      jump\t// in\n    tag_130:\n        /* \"#utility.yul\":1090:1153   */\n      swap2\n      pop\n        /* \"#utility.yul\":1046:1163   */\n      pop\n        /* \"#utility.yul\":841:1170   */\n      swap3\n      swap2\n      pop\n      pop\n      jump\t// out\n        /* \"#utility.yul\":1176:1266   */\n    tag_104:\n        /* \"#utility.yul\":1210:1217   */\n      0x00\n        /* \"#utility.yul\":1253:1258   */\n      dup2\n        /* \"#utility.yul\":1246:1259   */\n      iszero\n        /* \"#utility.yul\":1239:1260   */\n      iszero\n        /* \"#utility.yul\":1228:1260   */\n      swap1\n      pop\n        /* \"#utility.yul\":1176:1266   */\n      swap2\n      swap1\n      pop\n      jump\t// out\n        /* \"#utility.yul\":1272:1381   */\n    tag_105:\n        /* \"#utility.yul\":1353:1374   */\n      tag_133\n        /* \"#utility.yul\":1368:1373   */\n      dup2\n        /* \"#utility.yul\":1353:1374   */\n      tag_104\n      jump\t// in\n    tag_133:\n        /* \"#utility.yul\":1348:1351   */\n      dup3\n        /* \"#utility.yul\":1341:1375   */\n      mstore\n        /* \"#utility.yul\":1272:1381   */\n      pop\n      pop\n      jump\t// out\n        /* \"#utility.yul\":1387:1597   */\n    tag_24:\n        /* \"#utility.yul\":1474:1478   */\n      0x00\n        /* \"#utility.yul\":1512:1514   */\n      0x20\n        /* \"#utility.yul\":1501:1510   */\n      dup3\n        /* \"#utility.yul\":1497:1515   */\n      add\n        /* \"#utility.yul\":1489:1515   */\n      swap1\n      pop\n        /* \"#utility.yul\":1525:1590   */\n      tag_135\n        /* \"#utility.yul\":1587:1588   */\n      0x00\n        /* \"#utility.yul\":1576:1585   */\n      dup4\n        /* \"#utility.yul\":1572:1589   */\n      add\n        /* \"#utility.yul\":1563:1569   */\n      dup5\n        /* \"#utility.yul\":1525:1590   */\n      tag_105\n      jump\t// in\n    tag_135:\n        /* \"#utility.yul\":1387:1597   */\n      swap3\n      swap2\n      pop\n      pop\n      jump\t// out\n        /* \"#utility.yul\":1603:1680   */\n    tag_106:\n        /* \"#utility.yul\":1640:1647   */\n      0x00\n        /* \"#utility.yul\":1669:1674   */\n      dup2\n        /* \"#utility.yul\":1658:1674   */\n      swap1\n      pop\n        /* \"#utility.yul\":1603:1680   */\n      swap2\n      swap1\n      pop\n      jump\t// out\n        /* \"#utility.yul\":1686:1808   */\n    tag_107:\n        /* \"#utility.yul\":1759:1783   */\n      tag_138\n        /* \"#utility.yul\":1777:1782   */\n      dup2\n        /* \"#utility.yul\":1759:1783   */\n      tag_106\n      jump\t// in\n    tag_138:\n        /* \"#utility.yul\":1752:1757   */\n      dup2\n        /* \"#utility.yul\":1749:1784   */\n      eq\n        /* \"#utility.yul\":1739:1802   */\n      tag_139\n      jumpi\n        /* \"#utility.yul\":1798:1799   */\n      0x00\n        /* \"#utility.yul\":1795:1796   */\n      dup1\n        /* \"#utility.yul\":1788:1800   */\n      revert\n        /* \"#utility.yul\":1739:1802   */\n    tag_139:\n        /* \"#utility.yul\":1686:1808   */\n      pop\n      jump\t// out\n        /* \"#utility.yul\":1814:1953   */\n    tag_108:\n        /* \"#utility.yul\":1860:1865   */\n      0x00\n        /* \"#utility.yul\":1898:1904   */\n      dup2\n        /* \"#utility.yul\":1885:1905   */\n      calldataload\n        /* \"#utility.yul\":1876:1905   */\n      swap1\n      pop\n        /* \"#utility.yul\":1914:1947   */\n      tag_141\n        /* \"#utility.yul\":1941:1946   */\n      dup2\n        /* \"#utility.yul\":1914:1947   */\n      tag_107\n      jump\t// in\n    tag_141:\n        /* \"#utility.yul\":1814:1953   */\n      swap3\n      swap2\n      pop\n      pop\n      jump\t// out\n        /* \"#utility.yul\":1959:2288   */\n    tag_27:\n        /* \"#utility.yul\":2018:2024   */\n      0x00\n        /* \"#utility.yul\":2067:2069   */\n      0x20\n        /* \"#utility.yul\":2055:2064   */\n      dup3\n        /* \"#utility.yul\":2046:2053   */\n      dup5\n        /* \"#utility.yul\":2042:2065   */\n      sub\n        /* \"#utility.yul\":2038:2070   */\n      slt\n        /* \"#utility.yul\":2035:2154   */\n      iszero\n      tag_143\n      jumpi\n        /* \"#utility.yul\":2073:2152   */\n      tag_144\n      tag_98\n      jump\t// in\n    tag_144:\n        /* \"#utility.yul\":2035:2154   */\n    tag_143:\n        /* \"#utility.yul\":2193:2194   */\n      0x00\n        /* \"#utility.yul\":2218:2271   */\n      tag_145\n        /* \"#utility.yul\":2263:2270   */\n      dup5\n        /* \"#utility.yul\":2254:2260   */\n      dup3\n        /* \"#utility.yul\":2243:2252   */\n      dup6\n        /* \"#utility.yul\":2239:2261   */\n      add\n        /* \"#utility.yul\":2218:2271   */\n      tag_108\n      jump\t// in\n    tag_145:\n        /* \"#utility.yul\":2208:2271   */\n      swap2\n      pop\n        /* \"#utility.yul\":2164:2281   */\n      pop\n        /* \"#utility.yul\":1959:2288   */\n      swap3\n      swap2\n      pop\n      pop\n      jump\t// out\n        /* \"#utility.yul\":2294:2412   */\n    tag_109:\n        /* \"#utility.yul\":2381:2405   */\n      tag_147\n        /* \"#utility.yul\":2399:2404   */\n      dup2\n        /* \"#utility.yul\":2381:2405   */\n      tag_106\n      jump\t// in\n    tag_147:\n        /* \"#utility.yul\":2376:2379   */\n      dup3\n        /* \"#utility.yul\":2369:2406   */\n      mstore\n        /* \"#utility.yul\":2294:2412   */\n      pop\n      pop\n      jump\t// out\n        /* \"#utility.yul\":2418:2640   */\n    tag_30:\n        /* \"#utility.yul\":2511:2515   */\n      0x00\n        /* \"#utility.yul\":2549:2551   */\n      0x20\n        /* \"#utility.yul\":2538:2547   */\n      dup3\n        /* \"#utility.yul\":2534:2552   */\n      add\n        /* \"#utility.yul\":2526:2552   */\n      swap1\n      pop\n        /* \"#utility.yul\":2562:2633   */\n      tag_149\n        /* \"#utility.yul\":2630:2631   */\n      0x00\n        /* \"#utility.yul\":2619:2628   */\n      dup4\n        /* \"#utility.yul\":2615:2632   */\n      add\n        /* \"#utility.yul\":2606:2612   */\n      dup5\n        /* \"#utility.yul\":2562:2633   */\n      tag_109\n      jump\t// in\n    tag_149:\n        /* \"#utility.yul\":2418:2640   */\n      swap3\n      swap2\n      pop\n      pop\n      jump\t// out\n        /* \"#utility.yul\":2646:3120   */\n    tag_33:\n        /* \"#utility.yul\":2714:2720   */\n      0x00\n        /* \"#utility.yul\":2722:2728   */\n      dup1\n        /* \"#utility.yul\":2771:2773   */\n      0x40\n        /* \"#utility.yul\":2759:2768   */\n      dup4\n        /* \"#utility.yul\":2750:2757   */\n      dup6\n        /* \"#utility.yul\":2746:2769   */\n      sub\n        /* \"#utility.yul\":2742:2774   */\n      slt\n        /* \"#utility.yul\":2739:2858   */\n      iszero\n      tag_151\n      jumpi\n        /* \"#utility.yul\":2777:2856   */\n      tag_152\n      tag_98\n      jump\t// in\n    tag_152:\n        /* \"#utility.yul\":2739:2858   */\n    tag_151:\n        /* \"#utility.yul\":2897:2898   */\n      0x00\n        /* \"#utility.yul\":2922:2975   */\n      tag_153\n        /* \"#utility.yul\":2967:2974   */\n      dup6\n        /* \"#utility.yul\":2958:2964   */\n      dup3\n        /* \"#utility.yul\":2947:2956   */\n      dup7\n        /* \"#utility.yul\":2943:2965   */\n      add\n        /* \"#utility.yul\":2922:2975   */\n      tag_108\n      jump\t// in\n    tag_153:\n        /* \"#utility.yul\":2912:2975   */\n      swap3\n      pop\n        /* \"#utility.yul\":2868:2985   */\n      pop\n        /* \"#utility.yul\":3024:3026   */\n      0x20\n        /* \"#utility.yul\":3050:3103   */\n      tag_154\n        /* \"#utility.yul\":3095:3102   */\n      dup6\n        /* \"#utility.yul\":3086:3092   */\n      dup3\n        /* \"#utility.yul\":3075:3084   */\n      dup7\n        /* \"#utility.yul\":3071:3093   */\n      add\n        /* \"#utility.yul\":3050:3103   */\n      tag_103\n      jump\t// in\n    tag_154:\n        /* \"#utility.yul\":3040:3103   */\n      swap2\n      pop\n        /* \"#utility.yul\":2995:3113   */\n      pop\n        /* \"#utility.yul\":2646:3120   */\n      swap3\n      pop\n      swap3\n      swap1\n      pop\n      jump\t// out\n        /* \"#utility.yul\":3126:3295   */\n    tag_110:\n        /* \"#utility.yul\":3210:3221   */\n      0x00\n        /* \"#utility.yul\":3244:3250   */\n      dup3\n        /* \"#utility.yul\":3239:3242   */\n      dup3\n        /* \"#utility.yul\":3232:3251   */\n      mstore\n        /* \"#utility.yul\":3284:3288   */\n      0x20\n        /* \"#utility.yul\":3279:3282   */\n      dup3\n        /* \"#utility.yul\":3275:3289   */\n      add\n        /* \"#utility.yul\":3260:3289   */\n      swap1\n      pop\n        /* \"#utility.yul\":3126:3295   */\n      swap3\n      swap2\n      pop\n      pop\n      jump\t// out\n        /* \"#utility.yul\":3301:3466   */\n    tag_111:\n        /* \"#utility.yul\":3441:3458   */\n      0x426164436f6e6669726d6174696f6e0000000000000000000000000000000000\n        /* \"#utility.yul\":3437:3438   */\n      0x00\n        /* \"#utility.yul\":3429:3435   */\n      dup3\n        /* \"#utility.yul\":3425:3439   */\n      add\n        /* \"#utility.yul\":3418:3459   */\n      mstore\n        /* \"#utility.yul\":3301:3466   */\n      pop\n      jump\t// out\n        /* \"#utility.yul\":3472:3838   */\n    tag_112:\n        /* \"#utility.yul\":3614:3617   */\n      0x00\n        /* \"#utility.yul\":3635:3702   */\n      tag_158\n        /* \"#utility.yul\":3699:3701   */\n      0x0f\n        /* \"#utility.yul\":3694:3697   */\n      dup4\n        /* \"#utility.yul\":3635:3702   */\n      tag_110\n      jump\t// in\n    tag_158:\n        /* \"#utility.yul\":3628:3702   */\n      swap2\n      pop\n        /* \"#utility.yul\":3711:3804   */\n      tag_159\n        /* \"#utility.yul\":3800:3803   */\n      dup3\n        /* \"#utility.yul\":3711:3804   */\n      tag_111\n      jump\t// in\n    tag_159:\n        /* \"#utility.yul\":3829:3831   */\n      0x20\n        /* \"#utility.yul\":3824:3827   */\n      dup3\n        /* \"#utility.yul\":3820:3832   */\n      add\n        /* \"#utility.yul\":3813:3832   */\n      swap1\n      pop\n        /* \"#utility.yul\":3472:3838   */\n      swap2\n      swap1\n      pop\n      jump\t// out\n        /* \"#utility.yul\":3844:4263   */\n    tag_79:\n        /* \"#utility.yul\":4010:4014   */\n      0x00\n        /* \"#utility.yul\":4048:4050   */\n      0x20\n        /* \"#utility.yul\":4037:4046   */\n      dup3\n        /* \"#utility.yul\":4033:4051   */\n      add\n        /* \"#utility.yul\":4025:4051   */\n      swap1\n      pop\n        /* \"#utility.yul\":4097:4106   */\n      dup2\n        /* \"#utility.yul\":4091:4095   */\n      dup2\n        /* \"#utility.yul\":4087:4107   */\n      sub\n        /* \"#utility.yul\":4083:4084   */\n      0x00\n        /* \"#utility.yul\":4072:4081   */\n      dup4\n        /* \"#utility.yul\":4068:4085   */\n      add\n        /* \"#utility.yul\":4061:4108   */\n      mstore\n        /* \"#utility.yul\":4125:4256   */\n      tag_161\n        /* \"#utility.yul\":4251:4255   */\n      dup2\n        /* \"#utility.yul\":4125:4256   */\n      tag_112\n      jump\t// in\n    tag_161:\n        /* \"#utility.yul\":4117:4256   */\n      swap1\n      pop\n        /* \"#utility.yul\":3844:4263   */\n      swap2\n      swap1\n      pop\n      jump\t// out\n        /* \"#utility.yul\":4269:4438   */\n    tag_113:\n        /* \"#utility.yul\":4409:4430   */\n      0x556e417574686f72697a65644163636f756e7400000000000000000000000000\n        /* \"#utility.yul\":4405:4406   */\n      0x00\n        /* \"#utility.yul\":4397:4403   */\n      dup3\n        /* \"#utility.yul\":4393:4407   */\n      add\n        /* \"#utility.yul\":4386:4431   */\n      mstore\n        /* \"#utility.yul\":4269:4438   */\n      pop\n      jump\t// out\n        /* \"#utility.yul\":4444:4810   */\n    tag_114:\n        /* \"#utility.yul\":4586:4589   */\n      0x00\n        /* \"#utility.yul\":4607:4674   */\n      tag_164\n        /* \"#utility.yul\":4671:4673   */\n      0x13\n        /* \"#utility.yul\":4666:4669   */\n      dup4\n        /* \"#utility.yul\":4607:4674   */\n      tag_110\n      jump\t// in\n    tag_164:\n        /* \"#utility.yul\":4600:4674   */\n      swap2\n      pop\n        /* \"#utility.yul\":4683:4776   */\n      tag_165\n        /* \"#utility.yul\":4772:4775   */\n      dup3\n        /* \"#utility.yul\":4683:4776   */\n      tag_113\n      jump\t// in\n    tag_165:\n        /* \"#utility.yul\":4801:4803   */\n      0x20\n        /* \"#utility.yul\":4796:4799   */\n      dup3\n        /* \"#utility.yul\":4792:4804   */\n      add\n        /* \"#utility.yul\":4785:4804   */\n      swap1\n      pop\n        /* \"#utility.yul\":4444:4810   */\n      swap2\n      swap1\n      pop\n      jump\t// out\n        /* \"#utility.yul\":4816:5235   */\n    tag_86:\n        /* \"#utility.yul\":4982:4986   */\n      0x00\n        /* \"#utility.yul\":5020:5022   */\n      0x20\n        /* \"#utility.yul\":5009:5018   */\n      dup3\n        /* \"#utility.yul\":5005:5023   */\n      add\n        /* \"#utility.yul\":4997:5023   */\n      swap1\n      pop\n        /* \"#utility.yul\":5069:5078   */\n      dup2\n        /* \"#utility.yul\":5063:5067   */\n      dup2\n        /* \"#utility.yul\":5059:5079   */\n      sub\n        /* \"#utility.yul\":5055:5056   */\n      0x00\n        /* \"#utility.yul\":5044:5053   */\n      dup4\n        /* \"#utility.yul\":5040:5057   */\n      add\n        /* \"#utility.yul\":5033:5080   */\n      mstore\n        /* \"#utility.yul\":5097:5228   */\n      tag_167\n        /* \"#utility.yul\":5223:5227   */\n      dup2\n        /* \"#utility.yul\":5097:5228   */\n      tag_114\n      jump\t// in\n    tag_167:\n        /* \"#utility.yul\":5089:5228   */\n      swap1\n      pop\n        /* \"#utility.yul\":4816:5235   */\n      swap2\n      swap1\n      pop\n      jump\t// out\n\n    auxdata: 0xa2646970667358221220b7d4c82774a3879901f75ec55ab17b5ad17da8e57383f9706b0b751711b21a9a64736f6c634300080b0033\n}\n",
				"bytecode": {
					"linkReferences": {},
					"object": "60806040523480156200001157600080fd5b50604051620012173803806200121783398181016040528101906200003791906200070d565b3360016000808060001b815260200190815260200160002060000160008373ffffffffffffffffffffffffffffffffffffffff1673ffffffffffffffffffffffffffffffffffffffff16815260200190815260200160002060006101000a81548160ff02191690831515021790555050620000dc7fdf8b4c520ffe197c5343c6f5aec59570151ef9a492f2c624fd45ddde6135ec426000801b620001f760201b60201c565b6200012e7ff101d8f75d5816ea5d4f9e76d2b196ca77914d087c68fd9b89f497d695bcddf77fdf8b4c520ffe197c5343c6f5aec59570151ef9a492f2c624fd45ddde6135ec42620001f760201b60201c565b620001607fdf8b4c520ffe197c5343c6f5aec59570151ef9a492f2c624fd45ddde6135ec42846200025a60201b60201c565b50620001937ff101d8f75d5816ea5d4f9e76d2b196ca77914d087c68fd9b89f497d695bcddf7846200025a60201b60201c565b5080600160006101000a81548173ffffffffffffffffffffffffffffffffffffffff021916908373ffffffffffffffffffffffffffffffffffffffff1602179055508160029080519060200190620001ed9291906200045b565b5050505062000870565b60006200020a836200037360201b60201c565b905081600080858152602001908152602001600020600101819055508181847fbd79b86ffe0ab8e8776151514217cd7cacd52c909f66475c3af44e129f0b00ff60405160405180910390a4505050565b60006200026d836200037360201b60201c565b6200027e816200039260201b60201c565b50620002918484620003f160201b60201c565b15620002a157600091506200036c565b600160008086815260200190815260200160002060000160008573ffffffffffffffffffffffffffffffffffffffff1673ffffffffffffffffffffffffffffffffffffffff16815260200190815260200160002060006101000a81548160ff0219169083151502179055503373ffffffffffffffffffffffffffffffffffffffff168373ffffffffffffffffffffffffffffffffffffffff16857f2f8788117e7eff1d82e926ec794901d17c78024a50270940304540a733656f0d60405160405180910390a4600191505b5092915050565b6000806000838152602001908152602001600020600101549050919050565b6000620003a68233620003f160201b60201c565b620003e8576040517f08c379a0000000000000000000000000000000000000000000000000000000008152600401620003df90620007e9565b60405180910390fd5b60019050919050565b600080600084815260200190815260200160002060000160008373ffffffffffffffffffffffffffffffffffffffff1673ffffffffffffffffffffffffffffffffffffffff16815260200190815260200160002060009054906101000a900460ff16905092915050565b82805462000469906200083a565b90600052602060002090601f0160209004810192826200048d5760008555620004d9565b82601f10620004a857805160ff1916838001178555620004d9565b82800160010185558215620004d9579182015b82811115620004d8578251825591602001919060010190620004bb565b5b509050620004e89190620004ec565b5090565b5b8082111562000507576000816000905550600101620004ed565b5090565b6000604051905090565b600080fd5b600080fd5b600073ffffffffffffffffffffffffffffffffffffffff82169050919050565b60006200054c826200051f565b9050919050565b6200055e816200053f565b81146200056a57600080fd5b50565b6000815190506200057e8162000553565b92915050565b600080fd5b600080fd5b6000601f19601f8301169050919050565b7f4e487b7100000000000000000000000000000000000000000000000000000000600052604160045260246000fd5b620005d9826200058e565b810181811067ffffffffffffffff82111715620005fb57620005fa6200059f565b5b80604052505050565b6000620006106200050b565b90506200061e8282620005ce565b919050565b600067ffffffffffffffff8211156200064157620006406200059f565b5b6200064c826200058e565b9050602081019050919050565b60005b83811015620006795780820151818401526020810190506200065c565b8381111562000689576000848401525b50505050565b6000620006a6620006a08462000623565b62000604565b905082815260208101848484011115620006c557620006c462000589565b5b620006d284828562000659565b509392505050565b600082601f830112620006f257620006f162000584565b5b8151620007048482602086016200068f565b91505092915050565b60008060006060848603121562000729576200072862000515565b5b600062000739868287016200056d565b935050602084015167ffffffffffffffff8111156200075d576200075c6200051a565b5b6200076b86828701620006da565b92505060406200077e868287016200056d565b9150509250925092565b600082825260208201905092915050565b7f556e417574686f72697a65644163636f756e7400000000000000000000000000600082015250565b6000620007d160138362000788565b9150620007de8262000799565b602082019050919050565b600060208201905081810360008301526200080481620007c2565b9050919050565b7f4e487b7100000000000000000000000000000000000000000000000000000000600052602260045260246000fd5b600060028204905060018216806200085357607f821691505b602082108114156200086a57620008696200080b565b5b50919050565b61099780620008806000396000f3fe608060405234801561001057600080fd5b50600436106100a25760003560e01c806375b238fc1161006657806375b238fc1461017757806391d14854146101955780639cdeba95146101c5578063c5b95190146101e3578063d547741f14610213576100a3565b8063025b22bc146100ad578063248a9ca3146100dd5780632f2ff15d1461010d57806336568abe1461013d578063634252dc14610159576100a3565b5b6100ab610243565b005b6100c760048036038101906100c29190610748565b610255565b6040516100d49190610790565b60405180910390f35b6100f760048036038101906100f291906107e1565b6102ef565b604051610104919061081d565b60405180910390f35b61012760048036038101906101229190610838565b61030e565b6040516101349190610790565b60405180910390f35b61015760048036038101906101529190610838565b61040d565b005b61016161048a565b60405161016e919061081d565b60405180910390f35b61017f6104ae565b60405161018c919061081d565b60405180910390f35b6101af60048036038101906101aa9190610838565b6104d2565b6040516101bc9190610790565b60405180910390f35b6101cd61053c565b6040516101da919061081d565b60405180910390f35b6101fd60048036038101906101f891906107e1565b610543565b60405161020a9190610790565b60405180910390f35b61022d60048036038101906102289190610838565b610597565b60405161023a9190610790565b60405180910390f35b61025361024e610695565b6106bf565b565b60008060001b61026481610543565b50600073ffffffffffffffffffffffffffffffffffffffff168373ffffffffffffffffffffffffffffffffffffffff1614156102a357600091506102e9565b82600160006101000a81548173ffffffffffffffffffffffffffffffffffffffff021916908373ffffffffffffffffffffffffffffffffffffffff160217905550600191505b50919050565b6000806000838152602001908152602001600020600101549050919050565b6000610319836102ef565b61032281610543565b5061032d84846104d2565b1561033b5760009150610406565b600160008086815260200190815260200160002060000160008573ffffffffffffffffffffffffffffffffffffffff1673ffffffffffffffffffffffffffffffffffffffff16815260200190815260200160002060006101000a81548160ff0219169083151502179055503373ffffffffffffffffffffffffffffffffffffffff168373ffffffffffffffffffffffffffffffffffffffff16857f2f8788117e7eff1d82e926ec794901d17c78024a50270940304540a733656f0d60405160405180910390a4600191505b5092915050565b3373ffffffffffffffffffffffffffffffffffffffff168173ffffffffffffffffffffffffffffffffffffffff161461047b576040517f08c379a0000000000000000000000000000000000000000000000000000000008152600401610472906108d5565b60405180910390fd5b6104858282610597565b505050565b7ff101d8f75d5816ea5d4f9e76d2b196ca77914d087c68fd9b89f497d695bcddf781565b7fdf8b4c520ffe197c5343c6f5aec59570151ef9a492f2c624fd45ddde6135ec4281565b600080600084815260200190815260200160002060000160008373ffffffffffffffffffffffffffffffffffffffff1673ffffffffffffffffffffffffffffffffffffffff16815260200190815260200160002060009054906101000a900460ff16905092915050565b6000801b81565b600061054f82336104d2565b61058e576040517f08c379a000000000000000000000000000000000000000000000000000000000815260040161058590610941565b60405180910390fd5b60019050919050565b60006105a2836102ef565b6105ab81610543565b506105b684846104d2565b6105c3576000915061068e565b600080600086815260200190815260200160002060000160008573ffffffffffffffffffffffffffffffffffffffff1673ffffffffffffffffffffffffffffffffffffffff16815260200190815260200160002060006101000a81548160ff0219169083151502179055503373ffffffffffffffffffffffffffffffffffffffff168373ffffffffffffffffffffffffffffffffffffffff16857ff6391f5c32d9c69d2a47ea670b442974b53935d1edc7fd64eb21e047a839171b60405160405180910390a4600191505b5092915050565b6000600160009054906101000a900473ffffffffffffffffffffffffffffffffffffffff16905090565b3660008037600080366000845af43d6000803e80600081146106e0573d6000f35b3d6000fd5b600080fd5b600073ffffffffffffffffffffffffffffffffffffffff82169050919050565b6000610715826106ea565b9050919050565b6107258161070a565b811461073057600080fd5b50565b6000813590506107428161071c565b92915050565b60006020828403121561075e5761075d6106e5565b5b600061076c84828501610733565b91505092915050565b60008115159050919050565b61078a81610775565b82525050565b60006020820190506107a56000830184610781565b92915050565b6000819050919050565b6107be816107ab565b81146107c957600080fd5b50565b6000813590506107db816107b5565b92915050565b6000602082840312156107f7576107f66106e5565b5b6000610805848285016107cc565b91505092915050565b610817816107ab565b82525050565b6000602082019050610832600083018461080e565b92915050565b6000806040838503121561084f5761084e6106e5565b5b600061085d858286016107cc565b925050602061086e85828601610733565b9150509250929050565b600082825260208201905092915050565b7f426164436f6e6669726d6174696f6e0000000000000000000000000000000000600082015250565b60006108bf600f83610878565b91506108ca82610889565b602082019050919050565b600060208201905081810360008301526108ee816108b2565b9050919050565b7f556e417574686f72697a65644163636f756e7400000000000000000000000000600082015250565b600061092b601383610878565b9150610936826108f5565b602082019050919050565b6000602082019050818103600083015261095a8161091e565b905091905056fea2646970667358221220b7d4c82774a3879901f75ec55ab17b5ad17da8e57383f9706b0b751711b21a9a64736f6c634300080b0033",
					"opcodes": "PUSH1 0x80 PUSH1 0x40 MSTORE CALLVALUE DUP1 ISZERO PUSH3 0x11 JUMPI PUSH1 0x0 DUP1 REVERT JUMPDEST POP PUSH1 0x40 MLOAD PUSH3 0x1217 CODESIZE SUB DUP1 PUSH3 0x1217 DUP4 CODECOPY DUP2 DUP2 ADD PUSH1 0x40 MSTORE DUP2 ADD SWAP1 PUSH3 0x37 SWAP2 SWAP1 PUSH3 0x70D JUMP JUMPDEST CALLER PUSH1 0x1 PUSH1 0x0 DUP1 DUP1 PUSH1 0x0 SHL DUP2 MSTORE PUSH1 0x20 ADD SWAP1 DUP2 MSTORE PUSH1 0x20 ADD PUSH1 0x0 KECCAK256 PUSH1 0x0 ADD PUSH1 0x0 DUP4 PUSH20 0xFFFFFFFFFFFFFFFFFFFFFFFFFFFFFFFFFFFFFFFF AND PUSH20 0xFFFFFFFFFFFFFFFFFFFFFFFFFFFFFFFFFFFFFFFF AND DUP2 MSTORE PUSH1 0x20 ADD SWAP1 DUP2 MSTORE PUSH1 0x20 ADD PUSH1 0x0 KECCAK256 PUSH1 0x0 PUSH2 0x100 EXP DUP2 SLOAD DUP2 PUSH1 0xFF MUL NOT AND SWAP1 DUP4 ISZERO ISZERO MUL OR SWAP1 SSTORE POP POP PUSH3 0xDC PUSH32 0xDF8B4C520FFE197C5343C6F5AEC59570151EF9A492F2C624FD45DDDE6135EC42 PUSH1 0x0 DUP1 SHL PUSH3 0x1F7 PUSH1 0x20 SHL PUSH1 0x20 SHR JUMP JUMPDEST PUSH3 0x12E PUSH32 0xF101D8F75D5816EA5D4F9E76D2B196CA77914D087C68FD9B89F497D695BCDDF7 PUSH32 0xDF8B4C520FFE197C5343C6F5AEC59570151EF9A492F2C624FD45DDDE6135EC42 PUSH3 0x1F7 PUSH1 0x20 SHL PUSH1 0x20 SHR JUMP JUMPDEST PUSH3 0x160 PUSH32 0xDF8B4C520FFE197C5343C6F5AEC59570151EF9A492F2C624FD45DDDE6135EC42 DUP5 PUSH3 0x25A PUSH1 0x20 SHL PUSH1 0x20 SHR JUMP JUMPDEST POP PUSH3 0x193 PUSH32 0xF101D8F75D5816EA5D4F9E76D2B196CA77914D087C68FD9B89F497D695BCDDF7 DUP5 PUSH3 0x25A PUSH1 0x20 SHL PUSH1 0x20 SHR JUMP JUMPDEST POP DUP1 PUSH1 0x1 PUSH1 0x0 PUSH2 0x100 EXP DUP2 SLOAD DUP2 PUSH20 0xFFFFFFFFFFFFFFFFFFFFFFFFFFFFFFFFFFFFFFFF MUL NOT AND SWAP1 DUP4 PUSH20 0xFFFFFFFFFFFFFFFFFFFFFFFFFFFFFFFFFFFFFFFF AND MUL OR SWAP1 SSTORE POP DUP2 PUSH1 0x2 SWAP1 DUP1 MLOAD SWAP1 PUSH1 0x20 ADD SWAP1 PUSH3 0x1ED SWAP3 SWAP2 SWAP1 PUSH3 0x45B JUMP JUMPDEST POP POP POP POP PUSH3 0x870 JUMP JUMPDEST PUSH1 0x0 PUSH3 0x20A DUP4 PUSH3 0x373 PUSH1 0x20 SHL PUSH1 0x20 SHR JUMP JUMPDEST SWAP1 POP DUP2 PUSH1 0x0 DUP1 DUP6 DUP2 MSTORE PUSH1 0x20 ADD SWAP1 DUP2 MSTORE PUSH1 0x20 ADD PUSH1 0x0 KECCAK256 PUSH1 0x1 ADD DUP2 SWAP1 SSTORE POP DUP2 DUP2 DUP5 PUSH32 0xBD79B86FFE0AB8E8776151514217CD7CACD52C909F66475C3AF44E129F0B00FF PUSH1 0x40 MLOAD PUSH1 0x40 MLOAD DUP1 SWAP2 SUB SWAP1 LOG4 POP POP POP JUMP JUMPDEST PUSH1 0x0 PUSH3 0x26D DUP4 PUSH3 0x373 PUSH1 0x20 SHL PUSH1 0x20 SHR JUMP JUMPDEST PUSH3 0x27E DUP2 PUSH3 0x392 PUSH1 0x20 SHL PUSH1 0x20 SHR JUMP JUMPDEST POP PUSH3 0x291 DUP5 DUP5 PUSH3 0x3F1 PUSH1 0x20 SHL PUSH1 0x20 SHR JUMP JUMPDEST ISZERO PUSH3 0x2A1 JUMPI PUSH1 0x0 SWAP2 POP PUSH3 0x36C JUMP JUMPDEST PUSH1 0x1 PUSH1 0x0 DUP1 DUP7 DUP2 MSTORE PUSH1 0x20 ADD SWAP1 DUP2 MSTORE PUSH1 0x20 ADD PUSH1 0x0 KECCAK256 PUSH1 0x0 ADD PUSH1 0x0 DUP6 PUSH20 0xFFFFFFFFFFFFFFFFFFFFFFFFFFFFFFFFFFFFFFFF AND PUSH20 0xFFFFFFFFFFFFFFFFFFFFFFFFFFFFFFFFFFFFFFFF AND DUP2 MSTORE PUSH1 0x20 ADD SWAP1 DUP2 MSTORE PUSH1 0x20 ADD PUSH1 0x0 KECCAK256 PUSH1 0x0 PUSH2 0x100 EXP DUP2 SLOAD DUP2 PUSH1 0xFF MUL NOT AND SWAP1 DUP4 ISZERO ISZERO MUL OR SWAP1 SSTORE POP CALLER PUSH20 0xFFFFFFFFFFFFFFFFFFFFFFFFFFFFFFFFFFFFFFFF AND DUP4 PUSH20 0xFFFFFFFFFFFFFFFFFFFFFFFFFFFFFFFFFFFFFFFF AND DUP6 PUSH32 0x2F8788117E7EFF1D82E926EC794901D17C78024A50270940304540A733656F0D PUSH1 0x40 MLOAD PUSH1 0x40 MLOAD DUP1 SWAP2 SUB SWAP1 LOG4 PUSH1 0x1 SWAP2 POP JUMPDEST POP SWAP3 SWAP2 POP POP JUMP JUMPDEST PUSH1 0x0 DUP1 PUSH1 0x0 DUP4 DUP2 MSTORE PUSH1 0x20 ADD SWAP1 DUP2 MSTORE PUSH1 0x20 ADD PUSH1 0x0 KECCAK256 PUSH1 0x1 ADD SLOAD SWAP1 POP SWAP2 SWAP1 POP JUMP JUMPDEST PUSH1 0x0 PUSH3 0x3A6 DUP3 CALLER PUSH3 0x3F1 PUSH1 0x20 SHL PUSH1 0x20 SHR JUMP JUMPDEST PUSH3 0x3E8 JUMPI PUSH1 0x40 MLOAD PUSH32 0x8C379A000000000000000000000000000000000000000000000000000000000 DUP2 MSTORE PUSH1 0x4 ADD PUSH3 0x3DF SWAP1 PUSH3 0x7E9 JUMP JUMPDEST PUSH1 0x40 MLOAD DUP1 SWAP2 SUB SWAP1 REVERT JUMPDEST PUSH1 0x1 SWAP1 POP SWAP2 SWAP1 POP JUMP JUMPDEST PUSH1 0x0 DUP1 PUSH1 0x0 DUP5 DUP2 MSTORE PUSH1 0x20 ADD SWAP1 DUP2 MSTORE PUSH1 0x20 ADD PUSH1 0x0 KECCAK256 PUSH1 0x0 ADD PUSH1 0x0 DUP4 PUSH20 0xFFFFFFFFFFFFFFFFFFFFFFFFFFFFFFFFFFFFFFFF AND PUSH20 0xFFFFFFFFFFFFFFFFFFFFFFFFFFFFFFFFFFFFFFFF AND DUP2 MSTORE PUSH1 0x20 ADD SWAP1 DUP2 MSTORE PUSH1 0x20 ADD PUSH1 0x0 KECCAK256 PUSH1 0x0 SWAP1 SLOAD SWAP1 PUSH2 0x100 EXP SWAP1 DIV PUSH1 0xFF AND SWAP1 POP SWAP3 SWAP2 POP POP JUMP JUMPDEST DUP3 DUP1 SLOAD PUSH3 0x469 SWAP1 PUSH3 0x83A JUMP JUMPDEST SWAP1 PUSH1 0x0 MSTORE PUSH1 0x20 PUSH1 0x0 KECCAK256 SWAP1 PUSH1 0x1F ADD PUSH1 0x20 SWAP1 DIV DUP2 ADD SWAP3 DUP3 PUSH3 0x48D JUMPI PUSH1 0x0 DUP6 SSTORE PUSH3 0x4D9 JUMP JUMPDEST DUP3 PUSH1 0x1F LT PUSH3 0x4A8 JUMPI DUP1 MLOAD PUSH1 0xFF NOT AND DUP4 DUP1 ADD OR DUP6 SSTORE PUSH3 0x4D9 JUMP JUMPDEST DUP3 DUP1 ADD PUSH1 0x1 ADD DUP6 SSTORE DUP3 ISZERO PUSH3 0x4D9 JUMPI SWAP2 DUP3 ADD JUMPDEST DUP3 DUP2 GT ISZERO PUSH3 0x4D8 JUMPI DUP3 MLOAD DUP3 SSTORE SWAP2 PUSH1 0x20 ADD SWAP2 SWAP1 PUSH1 0x1 ADD SWAP1 PUSH3 0x4BB JUMP JUMPDEST JUMPDEST POP SWAP1 POP PUSH3 0x4E8 SWAP2 SWAP1 PUSH3 0x4EC JUMP JUMPDEST POP SWAP1 JUMP JUMPDEST JUMPDEST DUP1 DUP3 GT ISZERO PUSH3 0x507 JUMPI PUSH1 0x0 DUP2 PUSH1 0x0 SWAP1 SSTORE POP PUSH1 0x1 ADD PUSH3 0x4ED JUMP JUMPDEST POP SWAP1 JUMP JUMPDEST PUSH1 0x0 PUSH1 0x40 MLOAD SWAP1 POP SWAP1 JUMP JUMPDEST PUSH1 0x0 DUP1 REVERT JUMPDEST PUSH1 0x0 DUP1 REVERT JUMPDEST PUSH1 0x0 PUSH20 0xFFFFFFFFFFFFFFFFFFFFFFFFFFFFFFFFFFFFFFFF DUP3 AND SWAP1 POP SWAP2 SWAP1 POP JUMP JUMPDEST PUSH1 0x0 PUSH3 0x54C DUP3 PUSH3 0x51F JUMP JUMPDEST SWAP1 POP SWAP2 SWAP1 POP JUMP JUMPDEST PUSH3 0x55E DUP2 PUSH3 0x53F JUMP JUMPDEST DUP2 EQ PUSH3 0x56A JUMPI PUSH1 0x0 DUP1 REVERT JUMPDEST POP JUMP JUMPDEST PUSH1 0x0 DUP2 MLOAD SWAP1 POP PUSH3 0x57E DUP2 PUSH3 0x553 JUMP JUMPDEST SWAP3 SWAP2 POP POP JUMP JUMPDEST PUSH1 0x0 DUP1 REVERT JUMPDEST PUSH1 0x0 DUP1 REVERT JUMPDEST PUSH1 0x0 PUSH1 0x1F NOT PUSH1 0x1F DUP4 ADD AND SWAP1 POP SWAP2 SWAP1 POP JUMP JUMPDEST PUSH32 0x4E487B7100000000000000000000000000000000000000000000000000000000 PUSH1 0x0 MSTORE PUSH1 0x41 PUSH1 0x4 MSTORE PUSH1 0x24 PUSH1 0x0 REVERT JUMPDEST PUSH3 0x5D9 DUP3 PUSH3 0x58E JUMP JUMPDEST DUP2 ADD DUP2 DUP2 LT PUSH8 0xFFFFFFFFFFFFFFFF DUP3 GT OR ISZERO PUSH3 0x5FB JUMPI PUSH3 0x5FA PUSH3 0x59F JUMP JUMPDEST JUMPDEST DUP1 PUSH1 0x40 MSTORE POP POP POP JUMP JUMPDEST PUSH1 0x0 PUSH3 0x610 PUSH3 0x50B JUMP JUMPDEST SWAP1 POP PUSH3 0x61E DUP3 DUP3 PUSH3 0x5CE JUMP JUMPDEST SWAP2 SWAP1 POP JUMP JUMPDEST PUSH1 0x0 PUSH8 0xFFFFFFFFFFFFFFFF DUP3 GT ISZERO PUSH3 0x641 JUMPI PUSH3 0x640 PUSH3 0x59F JUMP JUMPDEST JUMPDEST PUSH3 0x64C DUP3 PUSH3 0x58E JUMP JUMPDEST SWAP1 POP PUSH1 0x20 DUP2 ADD SWAP1 POP SWAP2 SWAP1 POP JUMP JUMPDEST PUSH1 0x0 JUMPDEST DUP4 DUP2 LT ISZERO PUSH3 0x679 JUMPI DUP1 DUP3 ADD MLOAD DUP2 DUP5 ADD MSTORE PUSH1 0x20 DUP2 ADD SWAP1 POP PUSH3 0x65C JUMP JUMPDEST DUP4 DUP2 GT ISZERO PUSH3 0x689 JUMPI PUSH1 0x0 DUP5 DUP5 ADD MSTORE JUMPDEST POP POP POP POP JUMP JUMPDEST PUSH1 0x0 PUSH3 0x6A6 PUSH3 0x6A0 DUP5 PUSH3 0x623 JUMP JUMPDEST PUSH3 0x604 JUMP JUMPDEST SWAP1 POP DUP3 DUP2 MSTORE PUSH1 0x20 DUP2 ADD DUP5 DUP5 DUP5 ADD GT ISZERO PUSH3 0x6C5 JUMPI PUSH3 0x6C4 PUSH3 0x589 JUMP JUMPDEST JUMPDEST PUSH3 0x6D2 DUP5 DUP3 DUP6 PUSH3 0x659 JUMP JUMPDEST POP SWAP4 SWAP3 POP POP POP JUMP JUMPDEST PUSH1 0x0 DUP3 PUSH1 0x1F DUP4 ADD SLT PUSH3 0x6F2 JUMPI PUSH3 0x6F1 PUSH3 0x584 JUMP JUMPDEST JUMPDEST DUP2 MLOAD PUSH3 0x704 DUP5 DUP3 PUSH1 0x20 DUP7 ADD PUSH3 0x68F JUMP JUMPDEST SWAP2 POP POP SWAP3 SWAP2 POP POP JUMP JUMPDEST PUSH1 0x0 DUP1 PUSH1 0x0 PUSH1 0x60 DUP5 DUP7 SUB SLT ISZERO PUSH3 0x729 JUMPI PUSH3 0x728 PUSH3 0x515 JUMP JUMPDEST JUMPDEST PUSH1 0x0 PUSH3 0x739 DUP7 DUP3 DUP8 ADD PUSH3 0x56D JUMP JUMPDEST SWAP4 POP POP PUSH1 0x20 DUP5 ADD MLOAD PUSH8 0xFFFFFFFFFFFFFFFF DUP2 GT ISZERO PUSH3 0x75D JUMPI PUSH3 0x75C PUSH3 0x51A JUMP JUMPDEST JUMPDEST PUSH3 0x76B DUP7 DUP3 DUP8 ADD PUSH3 0x6DA JUMP JUMPDEST SWAP3 POP POP PUSH1 0x40 PUSH3 0x77E DUP7 DUP3 DUP8 ADD PUSH3 0x56D JUMP JUMPDEST SWAP2 POP POP SWAP3 POP SWAP3 POP SWAP3 JUMP JUMPDEST PUSH1 0x0 DUP3 DUP3 MSTORE PUSH1 0x20 DUP3 ADD SWAP1 POP SWAP3 SWAP2 POP POP JUMP JUMPDEST PUSH32 0x556E417574686F72697A65644163636F756E7400000000000000000000000000 PUSH1 0x0 DUP3 ADD MSTORE POP JUMP JUMPDEST PUSH1 0x0 PUSH3 0x7D1 PUSH1 0x13 DUP4 PUSH3 0x788 JUMP JUMPDEST SWAP2 POP PUSH3 0x7DE DUP3 PUSH3 0x799 JUMP JUMPDEST PUSH1 0x20 DUP3 ADD SWAP1 POP SWAP2 SWAP1 POP JUMP JUMPDEST PUSH1 0x0 PUSH1 0x20 DUP3 ADD SWAP1 POP DUP2 DUP2 SUB PUSH1 0x0 DUP4 ADD MSTORE PUSH3 0x804 DUP2 PUSH3 0x7C2 JUMP JUMPDEST SWAP1 POP SWAP2 SWAP1 POP JUMP JUMPDEST PUSH32 0x4E487B7100000000000000000000000000000000000000000000000000000000 PUSH1 0x0 MSTORE PUSH1 0x22 PUSH1 0x4 MSTORE PUSH1 0x24 PUSH1 0x0 REVERT JUMPDEST PUSH1 0x0 PUSH1 0x2 DUP3 DIV SWAP1 POP PUSH1 0x1 DUP3 AND DUP1 PUSH3 0x853 JUMPI PUSH1 0x7F DUP3 AND SWAP2 POP JUMPDEST PUSH1 0x20 DUP3 LT DUP2 EQ ISZERO PUSH3 0x86A JUMPI PUSH3 0x869 PUSH3 0x80B JUMP JUMPDEST JUMPDEST POP SWAP2 SWAP1 POP JUMP JUMPDEST PUSH2 0x997 DUP1 PUSH3 0x880 PUSH1 0x0 CODECOPY PUSH1 0x0 RETURN INVALID PUSH1 0x80 PUSH1 0x40 MSTORE CALLVALUE DUP1 ISZERO PUSH2 0x10 JUMPI PUSH1 0x0 DUP1 REVERT JUMPDEST POP PUSH1 0x4 CALLDATASIZE LT PUSH2 0xA2 JUMPI PUSH1 0x0 CALLDATALOAD PUSH1 0xE0 SHR DUP1 PUSH4 0x75B238FC GT PUSH2 0x66 JUMPI DUP1 PUSH4 0x75B238FC EQ PUSH2 0x177 JUMPI DUP1 PUSH4 0x91D14854 EQ PUSH2 0x195 JUMPI DUP1 PUSH4 0x9CDEBA95 EQ PUSH2 0x1C5 JUMPI DUP1 PUSH4 0xC5B95190 EQ PUSH2 0x1E3 JUMPI DUP1 PUSH4 0xD547741F EQ PUSH2 0x213 JUMPI PUSH2 0xA3 JUMP JUMPDEST DUP1 PUSH4 0x25B22BC EQ PUSH2 0xAD JUMPI DUP1 PUSH4 0x248A9CA3 EQ PUSH2 0xDD JUMPI DUP1 PUSH4 0x2F2FF15D EQ PUSH2 0x10D JUMPI DUP1 PUSH4 0x36568ABE EQ PUSH2 0x13D JUMPI DUP1 PUSH4 0x634252DC EQ PUSH2 0x159 JUMPI PUSH2 0xA3 JUMP JUMPDEST JUMPDEST PUSH2 0xAB PUSH2 0x243 JUMP JUMPDEST STOP JUMPDEST PUSH2 0xC7 PUSH1 0x4 DUP1 CALLDATASIZE SUB DUP2 ADD SWAP1 PUSH2 0xC2 SWAP2 SWAP1 PUSH2 0x748 JUMP JUMPDEST PUSH2 0x255 JUMP JUMPDEST PUSH1 0x40 MLOAD PUSH2 0xD4 SWAP2 SWAP1 PUSH2 0x790 JUMP JUMPDEST PUSH1 0x40 MLOAD DUP1 SWAP2 SUB SWAP1 RETURN JUMPDEST PUSH2 0xF7 PUSH1 0x4 DUP1 CALLDATASIZE SUB DUP2 ADD SWAP1 PUSH2 0xF2 SWAP2 SWAP1 PUSH2 0x7E1 JUMP JUMPDEST PUSH2 0x2EF JUMP JUMPDEST PUSH1 0x40 MLOAD PUSH2 0x104 SWAP2 SWAP1 PUSH2 0x81D JUMP JUMPDEST PUSH1 0x40 MLOAD DUP1 SWAP2 SUB SWAP1 RETURN JUMPDEST PUSH2 0x127 PUSH1 0x4 DUP1 CALLDATASIZE SUB DUP2 ADD SWAP1 PUSH2 0x122 SWAP2 SWAP1 PUSH2 0x838 JUMP JUMPDEST PUSH2 0x30E JUMP JUMPDEST PUSH1 0x40 MLOAD PUSH2 0x134 SWAP2 SWAP1 PUSH2 0x790 JUMP JUMPDEST PUSH1 0x40 MLOAD DUP1 SWAP2 SUB SWAP1 RETURN JUMPDEST PUSH2 0x157 PUSH1 0x4 DUP1 CALLDATASIZE SUB DUP2 ADD SWAP1 PUSH2 0x152 SWAP2 SWAP1 PUSH2 0x838 JUMP JUMPDEST PUSH2 0x40D JUMP JUMPDEST STOP JUMPDEST PUSH2 0x161 PUSH2 0x48A JUMP JUMPDEST PUSH1 0x40 MLOAD PUSH2 0x16E SWAP2 SWAP1 PUSH2 0x81D JUMP JUMPDEST PUSH1 0x40 MLOAD DUP1 SWAP2 SUB SWAP1 RETURN JUMPDEST PUSH2 0x17F PUSH2 0x4AE JUMP JUMPDEST PUSH1 0x40 MLOAD PUSH2 0x18C SWAP2 SWAP1 PUSH2 0x81D JUMP JUMPDEST PUSH1 0x40 MLOAD DUP1 SWAP2 SUB SWAP1 RETURN JUMPDEST PUSH2 0x1AF PUSH1 0x4 DUP1 CALLDATASIZE SUB DUP2 ADD SWAP1 PUSH2 0x1AA SWAP2 SWAP1 PUSH2 0x838 JUMP JUMPDEST PUSH2 0x4D2 JUMP JUMPDEST PUSH1 0x40 MLOAD PUSH2 0x1BC SWAP2 SWAP1 PUSH2 0x790 JUMP JUMPDEST PUSH1 0x40 MLOAD DUP1 SWAP2 SUB SWAP1 RETURN JUMPDEST PUSH2 0x1CD PUSH2 0x53C JUMP JUMPDEST PUSH1 0x40 MLOAD PUSH2 0x1DA SWAP2 SWAP1 PUSH2 0x81D JUMP JUMPDEST PUSH1 0x40 MLOAD DUP1 SWAP2 SUB SWAP1 RETURN JUMPDEST PUSH2 0x1FD PUSH1 0x4 DUP1 CALLDATASIZE SUB DUP2 ADD SWAP1 PUSH2 0x1F8 SWAP2 SWAP1 PUSH2 0x7E1 JUMP JUMPDEST PUSH2 0x543 JUMP JUMPDEST PUSH1 0x40 MLOAD PUSH2 0x20A SWAP2 SWAP1 PUSH2 0x790 JUMP JUMPDEST PUSH1 0x40 MLOAD DUP1 SWAP2 SUB SWAP1 RETURN JUMPDEST PUSH2 0x22D PUSH1 0x4 DUP1 CALLDATASIZE SUB DUP2 ADD SWAP1 PUSH2 0x228 SWAP2 SWAP1 PUSH2 0x838 JUMP JUMPDEST PUSH2 0x597 JUMP JUMPDEST PUSH1 0x40 MLOAD PUSH2 0x23A SWAP2 SWAP1 PUSH2 0x790 JUMP JUMPDEST PUSH1 0x40 MLOAD DUP1 SWAP2 SUB SWAP1 RETURN JUMPDEST PUSH2 0x253 PUSH2 0x24E PUSH2 0x695 JUMP JUMPDEST PUSH2 0x6BF JUMP JUMPDEST JUMP JUMPDEST PUSH1 0x0 DUP1 PUSH1 0x0 SHL PUSH2 0x264 DUP2 PUSH2 0x543 JUMP JUMPDEST POP PUSH1 0x0 PUSH20 0xFFFFFFFFFFFFFFFFFFFFFFFFFFFFFFFFFFFFFFFF AND DUP4 PUSH20 0xFFFFFFFFFFFFFFFFFFFFFFFFFFFFFFFFFFFFFFFF AND EQ ISZERO PUSH2 0x2A3 JUMPI PUSH1 0x0 SWAP2 POP PUSH2 0x2E9 JUMP JUMPDEST DUP3 PUSH1 0x1 PUSH1 0x0 PUSH2 0x100 EXP DUP2 SLOAD DUP2 PUSH20 0xFFFFFFFFFFFFFFFFFFFFFFFFFFFFFFFFFFFFFFFF MUL NOT AND SWAP1 DUP4 PUSH20 0xFFFFFFFFFFFFFFFFFFFFFFFFFFFFFFFFFFFFFFFF AND MUL OR SWAP1 SSTORE POP PUSH1 0x1 SWAP2 POP JUMPDEST POP SWAP2 SWAP1 POP JUMP JUMPDEST PUSH1 0x0 DUP1 PUSH1 0x0 DUP4 DUP2 MSTORE PUSH1 0x20 ADD SWAP1 DUP2 MSTORE PUSH1 0x20 ADD PUSH1 0x0 KECCAK256 PUSH1 0x1 ADD SLOAD SWAP1 POP SWAP2 SWAP1 POP JUMP JUMPDEST PUSH1 0x0 PUSH2 0x319 DUP4 PUSH2 0x2EF JUMP JUMPDEST PUSH2 0x322 DUP2 PUSH2 0x543 JUMP JUMPDEST POP PUSH2 0x32D DUP5 DUP5 PUSH2 0x4D2 JUMP JUMPDEST ISZERO PUSH2 0x33B JUMPI PUSH1 0x0 SWAP2 POP PUSH2 0x406 JUMP JUMPDEST PUSH1 0x1 PUSH1 0x0 DUP1 DUP7 DUP2 MSTORE PUSH1 0x20 ADD SWAP1 DUP2 MSTORE PUSH1 0x20 ADD PUSH1 0x0 KECCAK256 PUSH1 0x0 ADD PUSH1 0x0 DUP6 PUSH20 0xFFFFFFFFFFFFFFFFFFFFFFFFFFFFFFFFFFFFFFFF AND PUSH20 0xFFFFFFFFFFFFFFFFFFFFFFFFFFFFFFFFFFFFFFFF AND DUP2 MSTORE PUSH1 0x20 ADD SWAP1 DUP2 MSTORE PUSH1 0x20 ADD PUSH1 0x0 KECCAK256 PUSH1 0x0 PUSH2 0x100 EXP DUP2 SLOAD DUP2 PUSH1 0xFF MUL NOT AND SWAP1 DUP4 ISZERO ISZERO MUL OR SWAP1 SSTORE POP CALLER PUSH20 0xFFFFFFFFFFFFFFFFFFFFFFFFFFFFFFFFFFFFFFFF AND DUP4 PUSH20 0xFFFFFFFFFFFFFFFFFFFFFFFFFFFFFFFFFFFFFFFF AND DUP6 PUSH32 0x2F8788117E7EFF1D82E926EC794901D17C78024A50270940304540A733656F0D PUSH1 0x40 MLOAD PUSH1 0x40 MLOAD DUP1 SWAP2 SUB SWAP1 LOG4 PUSH1 0x1 SWAP2 POP JUMPDEST POP SWAP3 SWAP2 POP POP JUMP JUMPDEST CALLER PUSH20 0xFFFFFFFFFFFFFFFFFFFFFFFFFFFFFFFFFFFFFFFF AND DUP2 PUSH20 0xFFFFFFFFFFFFFFFFFFFFFFFFFFFFFFFFFFFFFFFF AND EQ PUSH2 0x47B JUMPI PUSH1 0x40 MLOAD PUSH32 0x8C379A000000000000000000000000000000000000000000000000000000000 DUP2 MSTORE PUSH1 0x4 ADD PUSH2 0x472 SWAP1 PUSH2 0x8D5 JUMP JUMPDEST PUSH1 0x40 MLOAD DUP1 SWAP2 SUB SWAP1 REVERT JUMPDEST PUSH2 0x485 DUP3 DUP3 PUSH2 0x597 JUMP JUMPDEST POP POP POP JUMP JUMPDEST PUSH32 0xF101D8F75D5816EA5D4F9E76D2B196CA77914D087C68FD9B89F497D695BCDDF7 DUP2 JUMP JUMPDEST PUSH32 0xDF8B4C520FFE197C5343C6F5AEC59570151EF9A492F2C624FD45DDDE6135EC42 DUP2 JUMP JUMPDEST PUSH1 0x0 DUP1 PUSH1 0x0 DUP5 DUP2 MSTORE PUSH1 0x20 ADD SWAP1 DUP2 MSTORE PUSH1 0x20 ADD PUSH1 0x0 KECCAK256 PUSH1 0x0 ADD PUSH1 0x0 DUP4 PUSH20 0xFFFFFFFFFFFFFFFFFFFFFFFFFFFFFFFFFFFFFFFF AND PUSH20 0xFFFFFFFFFFFFFFFFFFFFFFFFFFFFFFFFFFFFFFFF AND DUP2 MSTORE PUSH1 0x20 ADD SWAP1 DUP2 MSTORE PUSH1 0x20 ADD PUSH1 0x0 KECCAK256 PUSH1 0x0 SWAP1 SLOAD SWAP1 PUSH2 0x100 EXP SWAP1 DIV PUSH1 0xFF AND SWAP1 POP SWAP3 SWAP2 POP POP JUMP JUMPDEST PUSH1 0x0 DUP1 SHL DUP2 JUMP JUMPDEST PUSH1 0x0 PUSH2 0x54F DUP3 CALLER PUSH2 0x4D2 JUMP JUMPDEST PUSH2 0x58E JUMPI PUSH1 0x40 MLOAD PUSH32 0x8C379A000000000000000000000000000000000000000000000000000000000 DUP2 MSTORE PUSH1 0x4 ADD PUSH2 0x585 SWAP1 PUSH2 0x941 JUMP JUMPDEST PUSH1 0x40 MLOAD DUP1 SWAP2 SUB SWAP1 REVERT JUMPDEST PUSH1 0x1 SWAP1 POP SWAP2 SWAP1 POP JUMP JUMPDEST PUSH1 0x0 PUSH2 0x5A2 DUP4 PUSH2 0x2EF JUMP JUMPDEST PUSH2 0x5AB DUP2 PUSH2 0x543 JUMP JUMPDEST POP PUSH2 0x5B6 DUP5 DUP5 PUSH2 0x4D2 JUMP JUMPDEST PUSH2 0x5C3 JUMPI PUSH1 0x0 SWAP2 POP PUSH2 0x68E JUMP JUMPDEST PUSH1 0x0 DUP1 PUSH1 0x0 DUP7 DUP2 MSTORE PUSH1 0x20 ADD SWAP1 DUP2 MSTORE PUSH1 0x20 ADD PUSH1 0x0 KECCAK256 PUSH1 0x0 ADD PUSH1 0x0 DUP6 PUSH20 0xFFFFFFFFFFFFFFFFFFFFFFFFFFFFFFFFFFFFFFFF AND PUSH20 0xFFFFFFFFFFFFFFFFFFFFFFFFFFFFFFFFFFFFFFFF AND DUP2 MSTORE PUSH1 0x20 ADD SWAP1 DUP2 MSTORE PUSH1 0x20 ADD PUSH1 0x0 KECCAK256 PUSH1 0x0 PUSH2 0x100 EXP DUP2 SLOAD DUP2 PUSH1 0xFF MUL NOT AND SWAP1 DUP4 ISZERO ISZERO MUL OR SWAP1 SSTORE POP CALLER PUSH20 0xFFFFFFFFFFFFFFFFFFFFFFFFFFFFFFFFFFFFFFFF AND DUP4 PUSH20 0xFFFFFFFFFFFFFFFFFFFFFFFFFFFFFFFFFFFFFFFF AND DUP6 PUSH32 0xF6391F5C32D9C69D2A47EA670B442974B53935D1EDC7FD64EB21E047A839171B PUSH1 0x40 MLOAD PUSH1 0x40 MLOAD DUP1 SWAP2 SUB SWAP1 LOG4 PUSH1 0x1 SWAP2 POP JUMPDEST POP SWAP3 SWAP2 POP POP JUMP JUMPDEST PUSH1 0x0 PUSH1 0x1 PUSH1 0x0 SWAP1 SLOAD SWAP1 PUSH2 0x100 EXP SWAP1 DIV PUSH20 0xFFFFFFFFFFFFFFFFFFFFFFFFFFFFFFFFFFFFFFFF AND SWAP1 POP SWAP1 JUMP JUMPDEST CALLDATASIZE PUSH1 0x0 DUP1 CALLDATACOPY PUSH1 0x0 DUP1 CALLDATASIZE PUSH1 0x0 DUP5 GAS DELEGATECALL RETURNDATASIZE PUSH1 0x0 DUP1 RETURNDATACOPY DUP1 PUSH1 0x0 DUP2 EQ PUSH2 0x6E0 JUMPI RETURNDATASIZE PUSH1 0x0 RETURN JUMPDEST RETURNDATASIZE PUSH1 0x0 REVERT JUMPDEST PUSH1 0x0 DUP1 REVERT JUMPDEST PUSH1 0x0 PUSH20 0xFFFFFFFFFFFFFFFFFFFFFFFFFFFFFFFFFFFFFFFF DUP3 AND SWAP1 POP SWAP2 SWAP1 POP JUMP JUMPDEST PUSH1 0x0 PUSH2 0x715 DUP3 PUSH2 0x6EA JUMP JUMPDEST SWAP1 POP SWAP2 SWAP1 POP JUMP JUMPDEST PUSH2 0x725 DUP2 PUSH2 0x70A JUMP JUMPDEST DUP2 EQ PUSH2 0x730 JUMPI PUSH1 0x0 DUP1 REVERT JUMPDEST POP JUMP JUMPDEST PUSH1 0x0 DUP2 CALLDATALOAD SWAP1 POP PUSH2 0x742 DUP2 PUSH2 0x71C JUMP JUMPDEST SWAP3 SWAP2 POP POP JUMP JUMPDEST PUSH1 0x0 PUSH1 0x20 DUP3 DUP5 SUB SLT ISZERO PUSH2 0x75E JUMPI PUSH2 0x75D PUSH2 0x6E5 JUMP JUMPDEST JUMPDEST PUSH1 0x0 PUSH2 0x76C DUP5 DUP3 DUP6 ADD PUSH2 0x733 JUMP JUMPDEST SWAP2 POP POP SWAP3 SWAP2 POP POP JUMP JUMPDEST PUSH1 0x0 DUP2 ISZERO ISZERO SWAP1 POP SWAP2 SWAP1 POP JUMP JUMPDEST PUSH2 0x78A DUP2 PUSH2 0x775 JUMP JUMPDEST DUP3 MSTORE POP POP JUMP JUMPDEST PUSH1 0x0 PUSH1 0x20 DUP3 ADD SWAP1 POP PUSH2 0x7A5 PUSH1 0x0 DUP4 ADD DUP5 PUSH2 0x781 JUMP JUMPDEST SWAP3 SWAP2 POP POP JUMP JUMPDEST PUSH1 0x0 DUP2 SWAP1 POP SWAP2 SWAP1 POP JUMP JUMPDEST PUSH2 0x7BE DUP2 PUSH2 0x7AB JUMP JUMPDEST DUP2 EQ PUSH2 0x7C9 JUMPI PUSH1 0x0 DUP1 REVERT JUMPDEST POP JUMP JUMPDEST PUSH1 0x0 DUP2 CALLDATALOAD SWAP1 POP PUSH2 0x7DB DUP2 PUSH2 0x7B5 JUMP JUMPDEST SWAP3 SWAP2 POP POP JUMP JUMPDEST PUSH1 0x0 PUSH1 0x20 DUP3 DUP5 SUB SLT ISZERO PUSH2 0x7F7 JUMPI PUSH2 0x7F6 PUSH2 0x6E5 JUMP JUMPDEST JUMPDEST PUSH1 0x0 PUSH2 0x805 DUP5 DUP3 DUP6 ADD PUSH2 0x7CC JUMP JUMPDEST SWAP2 POP POP SWAP3 SWAP2 POP POP JUMP JUMPDEST PUSH2 0x817 DUP2 PUSH2 0x7AB JUMP JUMPDEST DUP3 MSTORE POP POP JUMP JUMPDEST PUSH1 0x0 PUSH1 0x20 DUP3 ADD SWAP1 POP PUSH2 0x832 PUSH1 0x0 DUP4 ADD DUP5 PUSH2 0x80E JUMP JUMPDEST SWAP3 SWAP2 POP POP JUMP JUMPDEST PUSH1 0x0 DUP1 PUSH1 0x40 DUP4 DUP6 SUB SLT ISZERO PUSH2 0x84F JUMPI PUSH2 0x84E PUSH2 0x6E5 JUMP JUMPDEST JUMPDEST PUSH1 0x0 PUSH2 0x85D DUP6 DUP3 DUP7 ADD PUSH2 0x7CC JUMP JUMPDEST SWAP3 POP POP PUSH1 0x20 PUSH2 0x86E DUP6 DUP3 DUP7 ADD PUSH2 0x733 JUMP JUMPDEST SWAP2 POP POP SWAP3 POP SWAP3 SWAP1 POP JUMP JUMPDEST PUSH1 0x0 DUP3 DUP3 MSTORE PUSH1 0x20 DUP3 ADD SWAP1 POP SWAP3 SWAP2 POP POP JUMP JUMPDEST PUSH32 0x426164436F6E6669726D6174696F6E0000000000000000000000000000000000 PUSH1 0x0 DUP3 ADD MSTORE POP JUMP JUMPDEST PUSH1 0x0 PUSH2 0x8BF PUSH1 0xF DUP4 PUSH2 0x878 JUMP JUMPDEST SWAP2 POP PUSH2 0x8CA DUP3 PUSH2 0x889 JUMP JUMPDEST PUSH1 0x20 DUP3 ADD SWAP1 POP SWAP2 SWAP1 POP JUMP JUMPDEST PUSH1 0x0 PUSH1 0x20 DUP3 ADD SWAP1 POP DUP2 DUP2 SUB PUSH1 0x0 DUP4 ADD MSTORE PUSH2 0x8EE DUP2 PUSH2 0x8B2 JUMP JUMPDEST SWAP1 POP SWAP2 SWAP1 POP JUMP JUMPDEST PUSH32 0x556E417574686F72697A65644163636F756E7400000000000000000000000000 PUSH1 0x0 DUP3 ADD MSTORE POP JUMP JUMPDEST PUSH1 0x0 PUSH2 0x92B PUSH1 0x13 DUP4 PUSH2 0x878 JUMP JUMPDEST SWAP2 POP PUSH2 0x936 DUP3 PUSH2 0x8F5 JUMP JUMPDEST PUSH1 0x20 DUP3 ADD SWAP1 POP SWAP2 SWAP1 POP JUMP JUMPDEST PUSH1 0x0 PUSH1 0x20 DUP3 ADD SWAP1 POP DUP2 DUP2 SUB PUSH1 0x0 DUP4 ADD MSTORE PUSH2 0x95A DUP2 PUSH2 0x91E JUMP JUMPDEST SWAP1 POP SWAP2 SWAP1 POP JUMP INVALID LOG2 PUSH5 0x6970667358 0x22 SLT KECCAK256 0xB7 0xD4 0xC8 0x27 PUSH21 0xA3879901F75EC55AB17B5AD17DA8E57383F9706B0B PUSH22 0x1711B21A9A64736F6C634300080B0033000000000000 "
				},
				"gasEstimates": {
					"creation": {
						"codeDepositCost": "491000",
						"executionCost": "infinite",
						"totalCost": "infinite"
					},
					"external": {
						"": "infinite",
						"ADMIN_ROLE()": "329",
						"DEFAULT_ADMIN()": "379",
						"WORKER_ROLE()": "418",
						"checkRole(bytes32)": "3136",
						"getRoleAdmin(bytes32)": "infinite",
						"grantRole(bytes32,address)": "infinite",
						"hasRole(bytes32,address)": "3162",
						"renounceRole(bytes32,address)": "infinite",
						"revokeRole(bytes32,address)": "infinite",
						"updateImplementation(address)": "27397"
					},
					"internal": {
						"_delegate(address)": "infinite",
						"_fallback()": "infinite",
						"_implementation()": "2159"
					}
				},
				"methodIdentifiers": {
					"ADMIN_ROLE()": "75b238fc",
					"DEFAULT_ADMIN()": "9cdeba95",
					"WORKER_ROLE()": "634252dc",
					"checkRole(bytes32)": "c5b95190",
					"getRoleAdmin(bytes32)": "248a9ca3",
					"grantRole(bytes32,address)": "2f2ff15d",
					"hasRole(bytes32,address)": "91d14854",
					"renounceRole(bytes32,address)": "36568abe",
					"revokeRole(bytes32,address)": "d547741f",
					"updateImplementation(address)": "025b22bc"
				}
			},
			"storageLayout": {
				"storage": [
					{
						"astId": 199,
						"contract": "1127/CompanyProxy.sol:CompanyProxy",
						"label": "roles",
						"offset": 0,
						"slot": "0",
						"type": "t_mapping(t_bytes32,t_struct(RoleData)191_storage)"
					},
					{
						"astId": 7,
						"contract": "1127/CompanyProxy.sol:CompanyProxy",
						"label": "implementationAddress",
						"offset": 0,
						"slot": "1",
						"type": "t_address"
					},
					{
						"astId": 9,
						"contract": "1127/CompanyProxy.sol:CompanyProxy",
						"label": "company_name",
						"offset": 0,
						"slot": "2",
						"type": "t_string_storage"
					},
					{
						"astId": 24,
						"contract": "1127/CompanyProxy.sol:CompanyProxy",
						"label": "workerList",
						"offset": 0,
						"slot": "3",
						"type": "t_mapping(t_string_memory_ptr,t_struct(Worker)181_storage)"
					},
					{
						"astId": 29,
						"contract": "1127/CompanyProxy.sol:CompanyProxy",
						"label": "dataGroupList",
						"offset": 0,
						"slot": "4",
						"type": "t_mapping(t_string_memory_ptr,t_struct(AssetGroup)173_storage)"
					}
				],
				"types": {
					"t_address": {
						"encoding": "inplace",
						"label": "address",
						"numberOfBytes": "20"
					},
					"t_bool": {
						"encoding": "inplace",
						"label": "bool",
						"numberOfBytes": "1"
					},
					"t_bytes32": {
						"encoding": "inplace",
						"label": "bytes32",
						"numberOfBytes": "32"
					},
					"t_mapping(t_address,t_bool)": {
						"encoding": "mapping",
						"key": "t_address",
						"label": "mapping(address => bool)",
						"numberOfBytes": "32",
						"value": "t_bool"
					},
					"t_mapping(t_bytes32,t_struct(RoleData)191_storage)": {
						"encoding": "mapping",
						"key": "t_bytes32",
						"label": "mapping(bytes32 => struct AccessControl.RoleData)",
						"numberOfBytes": "32",
						"value": "t_struct(RoleData)191_storage"
					},
					"t_mapping(t_string_memory_ptr,t_struct(AssetGroup)173_storage)": {
						"encoding": "mapping",
						"key": "t_string_memory_ptr",
						"label": "mapping(string => struct DataStruct.AssetGroup)",
						"numberOfBytes": "32",
						"value": "t_struct(AssetGroup)173_storage"
					},
					"t_mapping(t_string_memory_ptr,t_struct(Worker)181_storage)": {
						"encoding": "mapping",
						"key": "t_string_memory_ptr",
						"label": "mapping(string => struct DataStruct.Worker)",
						"numberOfBytes": "32",
						"value": "t_struct(Worker)181_storage"
					},
					"t_mapping(t_uint256,t_struct(Asset)176_storage)": {
						"encoding": "mapping",
						"key": "t_uint256",
						"label": "mapping(uint256 => struct DataStruct.Asset)",
						"numberOfBytes": "32",
						"value": "t_struct(Asset)176_storage"
					},
					"t_string_memory_ptr": {
						"encoding": "bytes",
						"label": "string",
						"numberOfBytes": "32"
					},
					"t_string_storage": {
						"encoding": "bytes",
						"label": "string",
						"numberOfBytes": "32"
					},
					"t_struct(Asset)176_storage": {
						"encoding": "inplace",
						"label": "struct DataStruct.Asset",
						"members": [
							{
								"astId": 175,
								"contract": "1127/CompanyProxy.sol:CompanyProxy",
								"label": "cid",
								"offset": 0,
								"slot": "0",
								"type": "t_string_storage"
							}
						],
						"numberOfBytes": "32"
					},
					"t_struct(AssetGroup)173_storage": {
						"encoding": "inplace",
						"label": "struct DataStruct.AssetGroup",
						"members": [
							{
								"astId": 168,
								"contract": "1127/CompanyProxy.sol:CompanyProxy",
								"label": "assets",
								"offset": 0,
								"slot": "0",
								"type": "t_mapping(t_uint256,t_struct(Asset)176_storage)"
							},
							{
								"astId": 170,
								"contract": "1127/CompanyProxy.sol:CompanyProxy",
								"label": "assetSize",
								"offset": 0,
								"slot": "1",
								"type": "t_uint256"
							},
							{
								"astId": 172,
								"contract": "1127/CompanyProxy.sol:CompanyProxy",
								"label": "isOpen",
								"offset": 0,
								"slot": "2",
								"type": "t_bool"
							}
						],
						"numberOfBytes": "96"
					},
					"t_struct(RoleData)191_storage": {
						"encoding": "inplace",
						"label": "struct AccessControl.RoleData",
						"members": [
							{
								"astId": 188,
								"contract": "1127/CompanyProxy.sol:CompanyProxy",
								"label": "hasRoles",
								"offset": 0,
								"slot": "0",
								"type": "t_mapping(t_address,t_bool)"
							},
							{
								"astId": 190,
								"contract": "1127/CompanyProxy.sol:CompanyProxy",
								"label": "adminRole",
								"offset": 0,
								"slot": "1",
								"type": "t_bytes32"
							}
						],
						"numberOfBytes": "64"
					},
					"t_struct(Worker)181_storage": {
						"encoding": "inplace",
						"label": "struct DataStruct.Worker",
						"members": [
							{
								"astId": 178,
								"contract": "1127/CompanyProxy.sol:CompanyProxy",
								"label": "did",
								"offset": 0,
								"slot": "0",
								"type": "t_string_storage"
							},
							{
								"astId": 180,
								"contract": "1127/CompanyProxy.sol:CompanyProxy",
								"label": "addr",
								"offset": 0,
								"slot": "1",
								"type": "t_address"
							}
						],
						"numberOfBytes": "64"
					},
					"t_uint256": {
						"encoding": "inplace",
						"label": "uint256",
						"numberOfBytes": "32"
					}
				}
			},
			"userdoc": {
				"kind": "user",
				"methods": {},
				"version": 1
			}
		}
	}
}