{
	"1127/CompanyLogic.sol": {
		"CompanyLogic": {
			"abi": [
				{
					"inputs": [],
					"stateMutability": "nonpayable",
					"type": "constructor"
				},
				{
					"anonymous": false,
					"inputs": [
						{
							"indexed": false,
							"internalType": "string",
							"name": "groupName",
							"type": "string"
						},
						{
							"indexed": false,
							"internalType": "string",
							"name": "company_name",
							"type": "string"
						}
					],
					"name": "NewAssetGroupAdd",
					"type": "event"
				},
				{
					"anonymous": false,
					"inputs": [
						{
							"indexed": false,
							"internalType": "string",
							"name": "did",
							"type": "string"
						},
						{
							"indexed": false,
							"internalType": "string",
							"name": "company_name",
							"type": "string"
						}
					],
					"name": "NewWorkerAdd",
					"type": "event"
				},
				{
					"anonymous": false,
					"inputs": [
						{
							"indexed": false,
							"internalType": "string",
							"name": "did",
							"type": "string"
						},
						{
							"indexed": false,
							"internalType": "string",
							"name": "company_name",
							"type": "string"
						}
					],
					"name": "NewWorkerRemoved",
					"type": "event"
				},
				{
					"anonymous": false,
					"inputs": [
						{
							"indexed": true,
							"internalType": "bytes32",
							"name": "role",
							"type": "bytes32"
						},
						{
							"indexed": true,
							"internalType": "bytes32",
							"name": "previousAdminRole",
							"type": "bytes32"
						},
						{
							"indexed": true,
							"internalType": "bytes32",
							"name": "newAdminRole",
							"type": "bytes32"
						}
					],
					"name": "RoleAdminChanged",
					"type": "event"
				},
				{
					"anonymous": false,
					"inputs": [
						{
							"indexed": true,
							"internalType": "bytes32",
							"name": "role",
							"type": "bytes32"
						},
						{
							"indexed": true,
							"internalType": "address",
							"name": "account",
							"type": "address"
						},
						{
							"indexed": true,
							"internalType": "address",
							"name": "sender",
							"type": "address"
						}
					],
					"name": "RoleGranted",
					"type": "event"
				},
				{
					"anonymous": false,
					"inputs": [
						{
							"indexed": true,
							"internalType": "bytes32",
							"name": "role",
							"type": "bytes32"
						},
						{
							"indexed": true,
							"internalType": "address",
							"name": "account",
							"type": "address"
						},
						{
							"indexed": true,
							"internalType": "address",
							"name": "sender",
							"type": "address"
						}
					],
					"name": "RoleRevoked",
					"type": "event"
				},
				{
					"inputs": [],
					"name": "ADMIN_ROLE",
					"outputs": [
						{
							"internalType": "bytes32",
							"name": "",
							"type": "bytes32"
						}
					],
					"stateMutability": "view",
					"type": "function"
				},
				{
					"inputs": [],
					"name": "DEFAULT_ADMIN",
					"outputs": [
						{
							"internalType": "bytes32",
							"name": "",
							"type": "bytes32"
						}
					],
					"stateMutability": "view",
					"type": "function"
				},
				{
					"inputs": [],
					"name": "WORKER_ROLE",
					"outputs": [
						{
							"internalType": "bytes32",
							"name": "",
							"type": "bytes32"
						}
					],
					"stateMutability": "view",
					"type": "function"
				},
				{
					"inputs": [
						{
							"internalType": "string",
							"name": "_groupName",
							"type": "string"
						}
					],
					"name": "addDataGroup",
					"outputs": [
						{
							"internalType": "bool",
							"name": "",
							"type": "bool"
						}
					],
					"stateMutability": "nonpayable",
					"type": "function"
				},
				{
					"inputs": [
						{
							"internalType": "string",
							"name": "_group",
							"type": "string"
						},
						{
							"internalType": "string",
							"name": "_dataCid",
							"type": "string"
						}
					],
					"name": "addDataInGroup",
					"outputs": [
						{
							"internalType": "bool",
							"name": "",
							"type": "bool"
						}
					],
					"stateMutability": "nonpayable",
					"type": "function"
				},
				{
					"inputs": [
						{
							"internalType": "string",
							"name": "worker_did",
							"type": "string"
						},
						{
							"internalType": "address",
							"name": "worker_address",
							"type": "address"
						}
					],
					"name": "addWorker",
					"outputs": [
						{
							"internalType": "bool",
							"name": "",
							"type": "bool"
						}
					],
					"stateMutability": "nonpayable",
					"type": "function"
				},
				{
					"inputs": [
						{
							"internalType": "bytes32",
							"name": "role",
							"type": "bytes32"
						}
					],
					"name": "checkRole",
					"outputs": [
						{
							"internalType": "bool",
							"name": "",
							"type": "bool"
						}
					],
					"stateMutability": "view",
					"type": "function"
				},
				{
					"inputs": [
						{
							"internalType": "bytes32",
							"name": "role",
							"type": "bytes32"
						}
					],
					"name": "getRoleAdmin",
					"outputs": [
						{
							"internalType": "bytes32",
							"name": "",
							"type": "bytes32"
						}
					],
					"stateMutability": "view",
					"type": "function"
				},
				{
					"inputs": [
						{
							"internalType": "bytes32",
							"name": "role",
							"type": "bytes32"
						},
						{
							"internalType": "address",
							"name": "member",
							"type": "address"
						}
					],
					"name": "grantRole",
					"outputs": [
						{
							"internalType": "bool",
							"name": "",
							"type": "bool"
						}
					],
					"stateMutability": "nonpayable",
					"type": "function"
				},
				{
					"inputs": [
						{
							"internalType": "bytes32",
							"name": "role",
							"type": "bytes32"
						},
						{
							"internalType": "address",
							"name": "member",
							"type": "address"
						}
					],
					"name": "hasRole",
					"outputs": [
						{
							"internalType": "bool",
							"name": "",
							"type": "bool"
						}
					],
					"stateMutability": "view",
					"type": "function"
				},
				{
					"inputs": [
						{
							"internalType": "string",
							"name": "worker_did",
							"type": "string"
						}
					],
					"name": "removedWorker",
					"outputs": [
						{
							"internalType": "bool",
							"name": "",
							"type": "bool"
						}
					],
					"stateMutability": "nonpayable",
					"type": "function"
				},
				{
					"inputs": [
						{
							"internalType": "bytes32",
							"name": "role",
							"type": "bytes32"
						},
						{
							"internalType": "address",
							"name": "callerConfirmation",
							"type": "address"
						}
					],
					"name": "renounceRole",
					"outputs": [],
					"stateMutability": "nonpayable",
					"type": "function"
				},
				{
					"inputs": [
						{
							"internalType": "bytes32",
							"name": "role",
							"type": "bytes32"
						},
						{
							"internalType": "address",
							"name": "member",
							"type": "address"
						}
					],
					"name": "revokeRole",
					"outputs": [
						{
							"internalType": "bool",
							"name": "",
							"type": "bool"
						}
					],
					"stateMutability": "nonpayable",
					"type": "function"
				}
			],
			"devdoc": {
				"kind": "dev",
				"methods": {},
				"version": 1
			},
			"evm": {
				"assembly": "    /* \"1127/CompanyLogic.sol\":128:2674  contract CompanyLogic is AccessControl{... */\n  mstore(0x40, 0x80)\n    /* \"1127/CompanyLogic.sol\":724:780  constructor() AccessControl(msg.sender){... */\n  callvalue\n  dup1\n  iszero\n  tag_1\n  jumpi\n  0x00\n  dup1\n  revert\ntag_1:\n  pop\n    /* \"1127/CompanyLogic.sol\":752:762  msg.sender */\n  caller\n    /* \"1127/util/AccessControl.sol\":970:974  true */\n  0x01\n    /* \"1127/util/AccessControl.sol\":931:936  roles */\n  0x00\n    /* \"1127/util/AccessControl.sol\":931:951  roles[DEFAULT_ADMIN] */\n  dup1\n    /* \"1127/util/AccessControl.sol\":246:250  0x00 */\n  dup1\n    /* \"1127/util/AccessControl.sol\":937:950  DEFAULT_ADMIN */\n  0x00\n  shl\n    /* \"1127/util/AccessControl.sol\":931:951  roles[DEFAULT_ADMIN] */\n  dup2\n  mstore\n  0x20\n  add\n  swap1\n  dup2\n  mstore\n  0x20\n  add\n  0x00\n  keccak256\n    /* \"1127/util/AccessControl.sol\":931:960  roles[DEFAULT_ADMIN].hasRoles */\n  0x00\n  add\n    /* \"1127/util/AccessControl.sol\":931:967  roles[DEFAULT_ADMIN].hasRoles[admin] */\n  0x00\n    /* \"1127/util/AccessControl.sol\":961:966  admin */\n  dup4\n    /* \"1127/util/AccessControl.sol\":931:967  roles[DEFAULT_ADMIN].hasRoles[admin] */\n  0xffffffffffffffffffffffffffffffffffffffff\n  and\n  0xffffffffffffffffffffffffffffffffffffffff\n  and\n  dup2\n  mstore\n  0x20\n  add\n  swap1\n  dup2\n  mstore\n  0x20\n  add\n  0x00\n  keccak256\n  0x00\n    /* \"1127/util/AccessControl.sol\":931:974  roles[DEFAULT_ADMIN].hasRoles[admin] = true */\n  0x0100\n  exp\n  dup2\n  sload\n  dup2\n  0xff\n  mul\n  not\n  and\n  swap1\n  dup4\n  iszero\n  iszero\n  mul\n  or\n  swap1\n  sstore\n  pop\n    /* \"1127/util/AccessControl.sol\":895:981  constructor(address admin){... */\n  pop\n    /* \"1127/CompanyLogic.sol\":128:2674  contract CompanyLogic is AccessControl{... */\n  dataSize(sub_0)\n  dup1\n  dataOffset(sub_0)\n  0x00\n  codecopy\n  0x00\n  return\nstop\n\nsub_0: assembly {\n        /* \"1127/CompanyLogic.sol\":128:2674  contract CompanyLogic is AccessControl{... */\n      mstore(0x40, 0x80)\n      callvalue\n      dup1\n      iszero\n      tag_1\n      jumpi\n      0x00\n      dup1\n      revert\n    tag_1:\n      pop\n      jumpi(tag_2, lt(calldatasize, 0x04))\n      shr(0xe0, calldataload(0x00))\n      dup1\n      0x75b238fc\n      gt\n      tag_16\n      jumpi\n      dup1\n      0x9cdeba95\n      gt\n      tag_17\n      jumpi\n      dup1\n      0x9cdeba95\n      eq\n      tag_12\n      jumpi\n      dup1\n      0xc5b95190\n      eq\n      tag_13\n      jumpi\n      dup1\n      0xd547741f\n      eq\n      tag_14\n      jumpi\n      dup1\n      0xe1b64774\n      eq\n      tag_15\n      jumpi\n      jump(tag_2)\n    tag_17:\n      dup1\n      0x75b238fc\n      eq\n      tag_9\n      jumpi\n      dup1\n      0x91d14854\n      eq\n      tag_10\n      jumpi\n      dup1\n      0x95aec814\n      eq\n      tag_11\n      jumpi\n      jump(tag_2)\n    tag_16:\n      dup1\n      0x248a9ca3\n      eq\n      tag_3\n      jumpi\n      dup1\n      0x2f2ff15d\n      eq\n      tag_4\n      jumpi\n      dup1\n      0x36568abe\n      eq\n      tag_5\n      jumpi\n      dup1\n      0x5d0f4293\n      eq\n      tag_6\n      jumpi\n      dup1\n      0x634252dc\n      eq\n      tag_7\n      jumpi\n      dup1\n      0x7350fca2\n      eq\n      tag_8\n      jumpi\n    tag_2:\n      0x00\n      dup1\n      revert\n        /* \"1127/util/AccessControl.sol\":1379:1490  function getRoleAdmin(bytes32 role) public view returns (bytes32) {... */\n    tag_3:\n      tag_18\n      0x04\n      dup1\n      calldatasize\n      sub\n      dup2\n      add\n      swap1\n      tag_19\n      swap2\n      swap1\n      tag_20\n      jump\t// in\n    tag_19:\n      tag_21\n      jump\t// in\n    tag_18:\n      mload(0x40)\n      tag_22\n      swap2\n      swap1\n      tag_23\n      jump\t// in\n    tag_22:\n      mload(0x40)\n      dup1\n      swap2\n      sub\n      swap1\n      return\n        /* \"1127/util/AccessControl.sol\":1785:2111  function grantRole(bytes32 role, address member)... */\n    tag_4:\n      tag_24\n      0x04\n      dup1\n      calldatasize\n      sub\n      dup2\n      add\n      swap1\n      tag_25\n      swap2\n      swap1\n      tag_26\n      jump\t// in\n    tag_25:\n      tag_27\n      jump\t// in\n    tag_24:\n      mload(0x40)\n      tag_28\n      swap2\n      swap1\n      tag_29\n      jump\t// in\n    tag_28:\n      mload(0x40)\n      dup1\n      swap2\n      sub\n      swap1\n      return\n        /* \"1127/util/AccessControl.sol\":2553:2795  function renounceRole(bytes32 role, address callerConfirmation)... */\n    tag_5:\n      tag_30\n      0x04\n      dup1\n      calldatasize\n      sub\n      dup2\n      add\n      swap1\n      tag_31\n      swap2\n      swap1\n      tag_26\n      jump\t// in\n    tag_31:\n      tag_32\n      jump\t// in\n    tag_30:\n      stop\n        /* \"1127/CompanyLogic.sol\":1923:2239  function addDataGroup(string memory _groupName) public AccessControl.onlyRole(ADMIN_ROLE) returns (bool) {... */\n    tag_6:\n      tag_33\n      0x04\n      dup1\n      calldatasize\n      sub\n      dup2\n      add\n      swap1\n      tag_34\n      swap2\n      swap1\n      tag_35\n      jump\t// in\n    tag_34:\n      tag_36\n      jump\t// in\n    tag_33:\n      mload(0x40)\n      tag_37\n      swap2\n      swap1\n      tag_29\n      jump\t// in\n    tag_37:\n      mload(0x40)\n      dup1\n      swap2\n      sub\n      swap1\n      return\n        /* \"1127/CompanyLogic.sol\":321:378  bytes32 public constant WORKER_ROLE = keccak256(\"WORKER\") */\n    tag_7:\n      tag_38\n      tag_39\n      jump\t// in\n    tag_38:\n      mload(0x40)\n      tag_40\n      swap2\n      swap1\n      tag_23\n      jump\t// in\n    tag_40:\n      mload(0x40)\n      dup1\n      swap2\n      sub\n      swap1\n      return\n        /* \"1127/CompanyLogic.sol\":1408:1915  function removedWorker(string memory worker_did) public  AccessControl.onlyRole(ADMIN_ROLE) returns (bool) {... */\n    tag_8:\n      tag_41\n      0x04\n      dup1\n      calldatasize\n      sub\n      dup2\n      add\n      swap1\n      tag_42\n      swap2\n      swap1\n      tag_35\n      jump\t// in\n    tag_42:\n      tag_43\n      jump\t// in\n    tag_41:\n      mload(0x40)\n      tag_44\n      swap2\n      swap1\n      tag_29\n      jump\t// in\n    tag_44:\n      mload(0x40)\n      dup1\n      swap2\n      sub\n      swap1\n      return\n        /* \"1127/CompanyLogic.sol\":257:312  bytes32 public constant ADMIN_ROLE = keccak256(\"ADMIN\") */\n    tag_9:\n      tag_45\n      tag_46\n      jump\t// in\n    tag_45:\n      mload(0x40)\n      tag_47\n      swap2\n      swap1\n      tag_23\n      jump\t// in\n    tag_47:\n      mload(0x40)\n      dup1\n      swap2\n      sub\n      swap1\n      return\n        /* \"1127/util/AccessControl.sol\":1209:1335  function hasRole(bytes32 role, address member) public view returns (bool) {... */\n    tag_10:\n      tag_48\n      0x04\n      dup1\n      calldatasize\n      sub\n      dup2\n      add\n      swap1\n      tag_49\n      swap2\n      swap1\n      tag_26\n      jump\t// in\n    tag_49:\n      tag_50\n      jump\t// in\n    tag_48:\n      mload(0x40)\n      tag_51\n      swap2\n      swap1\n      tag_29\n      jump\t// in\n    tag_51:\n      mload(0x40)\n      dup1\n      swap2\n      sub\n      swap1\n      return\n        /* \"1127/CompanyLogic.sol\":827:1361  function addWorker(string memory worker_did,address worker_address) public AccessControl.onlyRole(ADMIN_ROLE) returns (bool)  {... */\n    tag_11:\n      tag_52\n      0x04\n      dup1\n      calldatasize\n      sub\n      dup2\n      add\n      swap1\n      tag_53\n      swap2\n      swap1\n      tag_54\n      jump\t// in\n    tag_53:\n      tag_55\n      jump\t// in\n    tag_52:\n      mload(0x40)\n      tag_56\n      swap2\n      swap1\n      tag_29\n      jump\t// in\n    tag_56:\n      mload(0x40)\n      dup1\n      swap2\n      sub\n      swap1\n      return\n        /* \"1127/util/AccessControl.sol\":206:250  bytes32 public constant DEFAULT_ADMIN = 0x00 */\n    tag_12:\n      tag_57\n      tag_58\n      jump\t// in\n    tag_57:\n      mload(0x40)\n      tag_59\n      swap2\n      swap1\n      tag_23\n      jump\t// in\n    tag_59:\n      mload(0x40)\n      dup1\n      swap2\n      sub\n      swap1\n      return\n        /* \"1127/util/AccessControl.sol\":1011:1194  function checkRole(bytes32 role) public view returns (bool) {... */\n    tag_13:\n      tag_60\n      0x04\n      dup1\n      calldatasize\n      sub\n      dup2\n      add\n      swap1\n      tag_61\n      swap2\n      swap1\n      tag_20\n      jump\t// in\n    tag_61:\n      tag_62\n      jump\t// in\n    tag_60:\n      mload(0x40)\n      tag_63\n      swap2\n      swap1\n      tag_29\n      jump\t// in\n    tag_63:\n      mload(0x40)\n      dup1\n      swap2\n      sub\n      swap1\n      return\n        /* \"1127/util/AccessControl.sol\":2161:2490  function revokeRole(bytes32 role, address member)... */\n    tag_14:\n      tag_64\n      0x04\n      dup1\n      calldatasize\n      sub\n      dup2\n      add\n      swap1\n      tag_65\n      swap2\n      swap1\n      tag_26\n      jump\t// in\n    tag_65:\n      tag_66\n      jump\t// in\n    tag_64:\n      mload(0x40)\n      tag_67\n      swap2\n      swap1\n      tag_29\n      jump\t// in\n    tag_67:\n      mload(0x40)\n      dup1\n      swap2\n      sub\n      swap1\n      return\n        /* \"1127/CompanyLogic.sol\":2247:2671  function addDataInGroup(string memory _group,string memory _dataCid) public AccessControl.onlyRole(WORKER_ROLE) returns (bool){... */\n    tag_15:\n      tag_68\n      0x04\n      dup1\n      calldatasize\n      sub\n      dup2\n      add\n      swap1\n      tag_69\n      swap2\n      swap1\n      tag_70\n      jump\t// in\n    tag_69:\n      tag_71\n      jump\t// in\n    tag_68:\n      mload(0x40)\n      tag_72\n      swap2\n      swap1\n      tag_29\n      jump\t// in\n    tag_72:\n      mload(0x40)\n      dup1\n      swap2\n      sub\n      swap1\n      return\n        /* \"1127/util/AccessControl.sol\":1379:1490  function getRoleAdmin(bytes32 role) public view returns (bytes32) {... */\n    tag_21:\n        /* \"1127/util/AccessControl.sol\":1436:1443  bytes32 */\n      0x00\n        /* \"1127/util/AccessControl.sol\":1462:1467  roles */\n      dup1\n        /* \"1127/util/AccessControl.sol\":1462:1473  roles[role] */\n      0x00\n        /* \"1127/util/AccessControl.sol\":1468:1472  role */\n      dup4\n        /* \"1127/util/AccessControl.sol\":1462:1473  roles[role] */\n      dup2\n      mstore\n      0x20\n      add\n      swap1\n      dup2\n      mstore\n      0x20\n      add\n      0x00\n      keccak256\n        /* \"1127/util/AccessControl.sol\":1462:1483  roles[role].adminRole */\n      0x01\n      add\n      sload\n        /* \"1127/util/AccessControl.sol\":1455:1483  return roles[role].adminRole */\n      swap1\n      pop\n        /* \"1127/util/AccessControl.sol\":1379:1490  function getRoleAdmin(bytes32 role) public view returns (bytes32) {... */\n      swap2\n      swap1\n      pop\n      jump\t// out\n        /* \"1127/util/AccessControl.sol\":1785:2111  function grantRole(bytes32 role, address member)... */\n    tag_27:\n        /* \"1127/util/AccessControl.sol\":1903:1907  bool */\n      0x00\n        /* \"1127/util/AccessControl.sol\":1866:1884  getRoleAdmin(role) */\n      tag_74\n        /* \"1127/util/AccessControl.sol\":1879:1883  role */\n      dup4\n        /* \"1127/util/AccessControl.sol\":1866:1878  getRoleAdmin */\n      tag_21\n        /* \"1127/util/AccessControl.sol\":1866:1884  getRoleAdmin(role) */\n      jump\t// in\n    tag_74:\n        /* \"1127/util/AccessControl.sol\":856:871  checkRole(role) */\n      tag_76\n        /* \"1127/util/AccessControl.sol\":866:870  role */\n      dup2\n        /* \"1127/util/AccessControl.sol\":856:865  checkRole */\n      tag_62\n        /* \"1127/util/AccessControl.sol\":856:871  checkRole(role) */\n      jump\t// in\n    tag_76:\n      pop\n        /* \"1127/util/AccessControl.sol\":1927:1948  hasRole(role, member) */\n      tag_78\n        /* \"1127/util/AccessControl.sol\":1935:1939  role */\n      dup5\n        /* \"1127/util/AccessControl.sol\":1941:1947  member */\n      dup5\n        /* \"1127/util/AccessControl.sol\":1927:1934  hasRole */\n      tag_50\n        /* \"1127/util/AccessControl.sol\":1927:1948  hasRole(role, member) */\n      jump\t// in\n    tag_78:\n        /* \"1127/util/AccessControl.sol\":1923:1987  if (hasRole(role, member)) {... */\n      iszero\n      tag_79\n      jumpi\n        /* \"1127/util/AccessControl.sol\":1971:1976  false */\n      0x00\n        /* \"1127/util/AccessControl.sol\":1964:1976  return false */\n      swap2\n      pop\n      jump(tag_77)\n        /* \"1127/util/AccessControl.sol\":1923:1987  if (hasRole(role, member)) {... */\n    tag_79:\n        /* \"1127/util/AccessControl.sol\":2027:2031  true */\n      0x01\n        /* \"1127/util/AccessControl.sol\":1996:2001  roles */\n      0x00\n        /* \"1127/util/AccessControl.sol\":1996:2007  roles[role] */\n      dup1\n        /* \"1127/util/AccessControl.sol\":2002:2006  role */\n      dup7\n        /* \"1127/util/AccessControl.sol\":1996:2007  roles[role] */\n      dup2\n      mstore\n      0x20\n      add\n      swap1\n      dup2\n      mstore\n      0x20\n      add\n      0x00\n      keccak256\n        /* \"1127/util/AccessControl.sol\":1996:2016  roles[role].hasRoles */\n      0x00\n      add\n        /* \"1127/util/AccessControl.sol\":1996:2024  roles[role].hasRoles[member] */\n      0x00\n        /* \"1127/util/AccessControl.sol\":2017:2023  member */\n      dup6\n        /* \"1127/util/AccessControl.sol\":1996:2024  roles[role].hasRoles[member] */\n      0xffffffffffffffffffffffffffffffffffffffff\n      and\n      0xffffffffffffffffffffffffffffffffffffffff\n      and\n      dup2\n      mstore\n      0x20\n      add\n      swap1\n      dup2\n      mstore\n      0x20\n      add\n      0x00\n      keccak256\n      0x00\n        /* \"1127/util/AccessControl.sol\":1996:2031  roles[role].hasRoles[member] = true */\n      0x0100\n      exp\n      dup2\n      sload\n      dup2\n      0xff\n      mul\n      not\n      and\n      swap1\n      dup4\n      iszero\n      iszero\n      mul\n      or\n      swap1\n      sstore\n      pop\n        /* \"1127/util/AccessControl.sol\":2072:2082  msg.sender */\n      caller\n        /* \"1127/util/AccessControl.sol\":2046:2083  RoleGranted(role, member, msg.sender) */\n      0xffffffffffffffffffffffffffffffffffffffff\n      and\n        /* \"1127/util/AccessControl.sol\":2064:2070  member */\n      dup4\n        /* \"1127/util/AccessControl.sol\":2046:2083  RoleGranted(role, member, msg.sender) */\n      0xffffffffffffffffffffffffffffffffffffffff\n      and\n        /* \"1127/util/AccessControl.sol\":2058:2062  role */\n      dup6\n        /* \"1127/util/AccessControl.sol\":2046:2083  RoleGranted(role, member, msg.sender) */\n      0x2f8788117e7eff1d82e926ec794901d17c78024a50270940304540a733656f0d\n      mload(0x40)\n      mload(0x40)\n      dup1\n      swap2\n      sub\n      swap1\n      log4\n        /* \"1127/util/AccessControl.sol\":2100:2104  true */\n      0x01\n        /* \"1127/util/AccessControl.sol\":2093:2104  return true */\n      swap2\n      pop\n        /* \"1127/util/AccessControl.sol\":881:882  _ */\n    tag_77:\n        /* \"1127/util/AccessControl.sol\":1785:2111  function grantRole(bytes32 role, address member)... */\n      pop\n      swap3\n      swap2\n      pop\n      pop\n      jump\t// out\n        /* \"1127/util/AccessControl.sol\":2553:2795  function renounceRole(bytes32 role, address callerConfirmation)... */\n    tag_32:\n        /* \"1127/util/AccessControl.sol\":2681:2691  msg.sender */\n      caller\n        /* \"1127/util/AccessControl.sol\":2659:2691  callerConfirmation != msg.sender */\n      0xffffffffffffffffffffffffffffffffffffffff\n      and\n        /* \"1127/util/AccessControl.sol\":2659:2677  callerConfirmation */\n      dup2\n        /* \"1127/util/AccessControl.sol\":2659:2691  callerConfirmation != msg.sender */\n      0xffffffffffffffffffffffffffffffffffffffff\n      and\n      eq\n        /* \"1127/util/AccessControl.sol\":2655:2743  if (callerConfirmation != msg.sender) {... */\n      tag_81\n      jumpi\n        /* \"1127/util/AccessControl.sol\":2707:2732  revert(\"BadConfirmation\") */\n      mload(0x40)\n      0x08c379a000000000000000000000000000000000000000000000000000000000\n      dup2\n      mstore\n      0x04\n      add\n      tag_82\n      swap1\n      tag_83\n      jump\t// in\n    tag_82:\n      mload(0x40)\n      dup1\n      swap2\n      sub\n      swap1\n      revert\n        /* \"1127/util/AccessControl.sol\":2655:2743  if (callerConfirmation != msg.sender) {... */\n    tag_81:\n        /* \"1127/util/AccessControl.sol\":2752:2788  revokeRole(role, callerConfirmation) */\n      tag_84\n        /* \"1127/util/AccessControl.sol\":2763:2767  role */\n      dup3\n        /* \"1127/util/AccessControl.sol\":2769:2787  callerConfirmation */\n      dup3\n        /* \"1127/util/AccessControl.sol\":2752:2762  revokeRole */\n      tag_66\n        /* \"1127/util/AccessControl.sol\":2752:2788  revokeRole(role, callerConfirmation) */\n      jump\t// in\n    tag_84:\n      pop\n        /* \"1127/util/AccessControl.sol\":2553:2795  function renounceRole(bytes32 role, address callerConfirmation)... */\n      pop\n      pop\n      jump\t// out\n        /* \"1127/CompanyLogic.sol\":1923:2239  function addDataGroup(string memory _groupName) public AccessControl.onlyRole(ADMIN_ROLE) returns (bool) {... */\n    tag_36:\n        /* \"1127/CompanyLogic.sol\":2022:2026  bool */\n      0x00\n        /* \"1127/CompanyLogic.sol\":294:312  keccak256(\"ADMIN\") */\n      0xdf8b4c520ffe197c5343c6f5aec59570151ef9a492f2c624fd45ddde6135ec42\n        /* \"1127/util/AccessControl.sol\":856:871  checkRole(role) */\n      tag_86\n        /* \"1127/util/AccessControl.sol\":866:870  role */\n      dup2\n        /* \"1127/util/AccessControl.sol\":856:865  checkRole */\n      tag_62\n        /* \"1127/util/AccessControl.sol\":856:871  checkRole(role) */\n      jump\t// in\n    tag_86:\n      pop\n        /* \"1127/CompanyLogic.sol\":2048:2061  dataGroupList */\n      0x04\n        /* \"1127/CompanyLogic.sol\":2062:2072  _groupName */\n      dup4\n        /* \"1127/CompanyLogic.sol\":2048:2073  dataGroupList[_groupName] */\n      mload(0x40)\n      tag_88\n      swap2\n      swap1\n      tag_89\n      jump\t// in\n    tag_88:\n      swap1\n      dup2\n      mstore\n      0x20\n      add\n      mload(0x40)\n      dup1\n      swap2\n      sub\n      swap1\n      keccak256\n        /* \"1127/CompanyLogic.sol\":2048:2080  dataGroupList[_groupName].isOpen */\n      0x02\n      add\n      0x00\n      swap1\n      sload\n      swap1\n      0x0100\n      exp\n      swap1\n      div\n      0xff\n      and\n        /* \"1127/CompanyLogic.sol\":2047:2080  !dataGroupList[_groupName].isOpen */\n      iszero\n        /* \"1127/CompanyLogic.sol\":2039:2103  require(!dataGroupList[_groupName].isOpen,\"The group has exist\") */\n      tag_90\n      jumpi\n      mload(0x40)\n      0x08c379a000000000000000000000000000000000000000000000000000000000\n      dup2\n      mstore\n      0x04\n      add\n      tag_91\n      swap1\n      tag_92\n      jump\t// in\n    tag_91:\n      mload(0x40)\n      dup1\n      swap2\n      sub\n      swap1\n      revert\n    tag_90:\n        /* \"1127/CompanyLogic.sol\":2147:2151  true */\n      0x01\n        /* \"1127/CompanyLogic.sol\":2114:2127  dataGroupList */\n      0x04\n        /* \"1127/CompanyLogic.sol\":2128:2138  _groupName */\n      dup5\n        /* \"1127/CompanyLogic.sol\":2114:2139  dataGroupList[_groupName] */\n      mload(0x40)\n      tag_93\n      swap2\n      swap1\n      tag_89\n      jump\t// in\n    tag_93:\n      swap1\n      dup2\n      mstore\n      0x20\n      add\n      mload(0x40)\n      dup1\n      swap2\n      sub\n      swap1\n      keccak256\n        /* \"1127/CompanyLogic.sol\":2114:2146  dataGroupList[_groupName].isOpen */\n      0x02\n      add\n      0x00\n        /* \"1127/CompanyLogic.sol\":2114:2151  dataGroupList[_groupName].isOpen=true */\n      0x0100\n      exp\n      dup2\n      sload\n      dup2\n      0xff\n      mul\n      not\n      and\n      swap1\n      dup4\n      iszero\n      iszero\n      mul\n      or\n      swap1\n      sstore\n      pop\n        /* \"1127/CompanyLogic.sol\":2167:2209  NewAssetGroupAdd(_groupName, company_name) */\n      0x0c9f7ffde55abf279e64f645add2b656e6cbd943754bb169e34c801647cd10ba\n        /* \"1127/CompanyLogic.sol\":2184:2194  _groupName */\n      dup4\n        /* \"1127/CompanyLogic.sol\":2196:2208  company_name */\n      0x02\n        /* \"1127/CompanyLogic.sol\":2167:2209  NewAssetGroupAdd(_groupName, company_name) */\n      mload(0x40)\n      tag_94\n      swap3\n      swap2\n      swap1\n      tag_95\n      jump\t// in\n    tag_94:\n      mload(0x40)\n      dup1\n      swap2\n      sub\n      swap1\n      log1\n        /* \"1127/CompanyLogic.sol\":2227:2231  true */\n      0x01\n        /* \"1127/CompanyLogic.sol\":2220:2231  return true */\n      swap2\n      pop\n        /* \"1127/CompanyLogic.sol\":1923:2239  function addDataGroup(string memory _groupName) public AccessControl.onlyRole(ADMIN_ROLE) returns (bool) {... */\n      pop\n      swap2\n      swap1\n      pop\n      jump\t// out\n        /* \"1127/CompanyLogic.sol\":321:378  bytes32 public constant WORKER_ROLE = keccak256(\"WORKER\") */\n    tag_39:\n        /* \"1127/CompanyLogic.sol\":359:378  keccak256(\"WORKER\") */\n      0xf101d8f75d5816ea5d4f9e76d2b196ca77914d087c68fd9b89f497d695bcddf7\n        /* \"1127/CompanyLogic.sol\":321:378  bytes32 public constant WORKER_ROLE = keccak256(\"WORKER\") */\n      dup2\n      jump\t// out\n        /* \"1127/CompanyLogic.sol\":1408:1915  function removedWorker(string memory worker_did) public  AccessControl.onlyRole(ADMIN_ROLE) returns (bool) {... */\n    tag_43:\n        /* \"1127/CompanyLogic.sol\":1509:1513  bool */\n      0x00\n        /* \"1127/CompanyLogic.sol\":294:312  keccak256(\"ADMIN\") */\n      0xdf8b4c520ffe197c5343c6f5aec59570151ef9a492f2c624fd45ddde6135ec42\n        /* \"1127/util/AccessControl.sol\":856:871  checkRole(role) */\n      tag_97\n        /* \"1127/util/AccessControl.sol\":866:870  role */\n      dup2\n        /* \"1127/util/AccessControl.sol\":856:865  checkRole */\n      tag_62\n        /* \"1127/util/AccessControl.sol\":856:871  checkRole(role) */\n      jump\t// in\n    tag_97:\n      pop\n        /* \"1127/CompanyLogic.sol\":1526:1565  DataStruct.Worker memory _removedWorker */\n      0x00\n        /* \"1127/CompanyLogic.sol\":1568:1578  workerList */\n      0x03\n        /* \"1127/CompanyLogic.sol\":1579:1589  worker_did */\n      dup5\n        /* \"1127/CompanyLogic.sol\":1568:1590  workerList[worker_did] */\n      mload(0x40)\n      tag_99\n      swap2\n      swap1\n      tag_89\n      jump\t// in\n    tag_99:\n      swap1\n      dup2\n      mstore\n      0x20\n      add\n      mload(0x40)\n      dup1\n      swap2\n      sub\n      swap1\n      keccak256\n        /* \"1127/CompanyLogic.sol\":1526:1590  DataStruct.Worker memory _removedWorker = workerList[worker_did] */\n      mload(0x40)\n      dup1\n      0x40\n      add\n      0x40\n      mstore\n      swap1\n      dup2\n      0x00\n      dup3\n      add\n      dup1\n      sload\n      tag_100\n      swap1\n      tag_101\n      jump\t// in\n    tag_100:\n      dup1\n      0x1f\n      add\n      0x20\n      dup1\n      swap2\n      div\n      mul\n      0x20\n      add\n      mload(0x40)\n      swap1\n      dup2\n      add\n      0x40\n      mstore\n      dup1\n      swap3\n      swap2\n      swap1\n      dup2\n      dup2\n      mstore\n      0x20\n      add\n      dup3\n      dup1\n      sload\n      tag_102\n      swap1\n      tag_101\n      jump\t// in\n    tag_102:\n      dup1\n      iszero\n      tag_103\n      jumpi\n      dup1\n      0x1f\n      lt\n      tag_104\n      jumpi\n      0x0100\n      dup1\n      dup4\n      sload\n      div\n      mul\n      dup4\n      mstore\n      swap2\n      0x20\n      add\n      swap2\n      jump(tag_103)\n    tag_104:\n      dup3\n      add\n      swap2\n      swap1\n      0x00\n      mstore\n      keccak256(0x00, 0x20)\n      swap1\n    tag_105:\n      dup2\n      sload\n      dup2\n      mstore\n      swap1\n      0x01\n      add\n      swap1\n      0x20\n      add\n      dup1\n      dup4\n      gt\n      tag_105\n      jumpi\n      dup3\n      swap1\n      sub\n      0x1f\n      and\n      dup3\n      add\n      swap2\n    tag_103:\n      pop\n      pop\n      pop\n      pop\n      pop\n      dup2\n      mstore\n      0x20\n      add\n      0x01\n      dup3\n      add\n      0x00\n      swap1\n      sload\n      swap1\n      0x0100\n      exp\n      swap1\n      div\n      0xffffffffffffffffffffffffffffffffffffffff\n      and\n      0xffffffffffffffffffffffffffffffffffffffff\n      and\n      0xffffffffffffffffffffffffffffffffffffffff\n      and\n      dup2\n      mstore\n      pop\n      pop\n      swap1\n      pop\n        /* \"1127/CompanyLogic.sol\":1609:1649  hasRole(WORKER_ROLE,_removedWorker.addr) */\n      tag_106\n        /* \"1127/CompanyLogic.sol\":359:378  keccak256(\"WORKER\") */\n      0xf101d8f75d5816ea5d4f9e76d2b196ca77914d087c68fd9b89f497d695bcddf7\n        /* \"1127/CompanyLogic.sol\":1629:1643  _removedWorker */\n      dup3\n        /* \"1127/CompanyLogic.sol\":1629:1648  _removedWorker.addr */\n      0x20\n      add\n      mload\n        /* \"1127/CompanyLogic.sol\":1609:1616  hasRole */\n      tag_50\n        /* \"1127/CompanyLogic.sol\":1609:1649  hasRole(WORKER_ROLE,_removedWorker.addr) */\n      jump\t// in\n    tag_106:\n        /* \"1127/CompanyLogic.sol\":1601:1680  require(hasRole(WORKER_ROLE,_removedWorker.addr),\"The Worker has been deleted\") */\n      tag_107\n      jumpi\n      mload(0x40)\n      0x08c379a000000000000000000000000000000000000000000000000000000000\n      dup2\n      mstore\n      0x04\n      add\n      tag_108\n      swap1\n      tag_109\n      jump\t// in\n    tag_108:\n      mload(0x40)\n      dup1\n      swap2\n      sub\n      swap1\n      revert\n    tag_107:\n        /* \"1127/CompanyLogic.sol\":1691:1735  revokeRole(WORKER_ROLE, _removedWorker.addr) */\n      tag_110\n        /* \"1127/CompanyLogic.sol\":359:378  keccak256(\"WORKER\") */\n      0xf101d8f75d5816ea5d4f9e76d2b196ca77914d087c68fd9b89f497d695bcddf7\n        /* \"1127/CompanyLogic.sol\":1715:1729  _removedWorker */\n      dup3\n        /* \"1127/CompanyLogic.sol\":1715:1734  _removedWorker.addr */\n      0x20\n      add\n      mload\n        /* \"1127/CompanyLogic.sol\":1691:1701  revokeRole */\n      tag_66\n        /* \"1127/CompanyLogic.sol\":1691:1735  revokeRole(WORKER_ROLE, _removedWorker.addr) */\n      jump\t// in\n    tag_110:\n      pop\n        /* \"1127/CompanyLogic.sol\":1771:1828  DataStruct.Worker(... */\n      mload(0x40)\n      dup1\n      0x40\n      add\n      0x40\n      mstore\n      dup1\n      mload(0x40)\n      dup1\n      0x20\n      add\n      0x40\n      mstore\n      dup1\n      0x00\n      dup2\n      mstore\n      pop\n      dup2\n      mstore\n      0x20\n      add\n        /* \"1127/CompanyLogic.sol\":1815:1816  0 */\n      0x00\n        /* \"1127/CompanyLogic.sol\":1771:1828  DataStruct.Worker(... */\n      0xffffffffffffffffffffffffffffffffffffffff\n      and\n      dup2\n      mstore\n      pop\n        /* \"1127/CompanyLogic.sol\":1746:1756  workerList */\n      0x03\n        /* \"1127/CompanyLogic.sol\":1757:1767  worker_did */\n      dup6\n        /* \"1127/CompanyLogic.sol\":1746:1768  workerList[worker_did] */\n      mload(0x40)\n      tag_111\n      swap2\n      swap1\n      tag_89\n      jump\t// in\n    tag_111:\n      swap1\n      dup2\n      mstore\n      0x20\n      add\n      mload(0x40)\n      dup1\n      swap2\n      sub\n      swap1\n      keccak256\n        /* \"1127/CompanyLogic.sol\":1746:1828  workerList[worker_did] = DataStruct.Worker(... */\n      0x00\n      dup3\n      add\n      mload\n      dup2\n      0x00\n      add\n      swap1\n      dup1\n      mload\n      swap1\n      0x20\n      add\n      swap1\n      tag_112\n      swap3\n      swap2\n      swap1\n      tag_113\n      jump\t// in\n    tag_112:\n      pop\n      0x20\n      dup3\n      add\n      mload\n      dup2\n      0x01\n      add\n      exp(0x0100, 0x00)\n      dup2\n      sload\n      dup2\n      0xffffffffffffffffffffffffffffffffffffffff\n      mul\n      not\n      and\n      swap1\n      dup4\n      0xffffffffffffffffffffffffffffffffffffffff\n      and\n      mul\n      or\n      swap1\n      sstore\n      pop\n      swap1\n      pop\n      pop\n        /* \"1127/CompanyLogic.sol\":1844:1885  NewWorkerRemoved(worker_did,company_name) */\n      0x8107a7b10269990d65f96ff89538ef92f91cd14632605ad78337f4856265f733\n        /* \"1127/CompanyLogic.sol\":1861:1871  worker_did */\n      dup5\n        /* \"1127/CompanyLogic.sol\":1872:1884  company_name */\n      0x02\n        /* \"1127/CompanyLogic.sol\":1844:1885  NewWorkerRemoved(worker_did,company_name) */\n      mload(0x40)\n      tag_114\n      swap3\n      swap2\n      swap1\n      tag_95\n      jump\t// in\n    tag_114:\n      mload(0x40)\n      dup1\n      swap2\n      sub\n      swap1\n      log1\n        /* \"1127/CompanyLogic.sol\":1903:1907  true */\n      0x01\n        /* \"1127/CompanyLogic.sol\":1896:1907  return true */\n      swap3\n      pop\n      pop\n        /* \"1127/CompanyLogic.sol\":1408:1915  function removedWorker(string memory worker_did) public  AccessControl.onlyRole(ADMIN_ROLE) returns (bool) {... */\n      pop\n      swap2\n      swap1\n      pop\n      jump\t// out\n        /* \"1127/CompanyLogic.sol\":257:312  bytes32 public constant ADMIN_ROLE = keccak256(\"ADMIN\") */\n    tag_46:\n        /* \"1127/CompanyLogic.sol\":294:312  keccak256(\"ADMIN\") */\n      0xdf8b4c520ffe197c5343c6f5aec59570151ef9a492f2c624fd45ddde6135ec42\n        /* \"1127/CompanyLogic.sol\":257:312  bytes32 public constant ADMIN_ROLE = keccak256(\"ADMIN\") */\n      dup2\n      jump\t// out\n        /* \"1127/util/AccessControl.sol\":1209:1335  function hasRole(bytes32 role, address member) public view returns (bool) {... */\n    tag_50:\n        /* \"1127/util/AccessControl.sol\":1277:1281  bool */\n      0x00\n        /* \"1127/util/AccessControl.sol\":1300:1305  roles */\n      dup1\n        /* \"1127/util/AccessControl.sol\":1300:1311  roles[role] */\n      0x00\n        /* \"1127/util/AccessControl.sol\":1306:1310  role */\n      dup5\n        /* \"1127/util/AccessControl.sol\":1300:1311  roles[role] */\n      dup2\n      mstore\n      0x20\n      add\n      swap1\n      dup2\n      mstore\n      0x20\n      add\n      0x00\n      keccak256\n        /* \"1127/util/AccessControl.sol\":1300:1320  roles[role].hasRoles */\n      0x00\n      add\n        /* \"1127/util/AccessControl.sol\":1300:1328  roles[role].hasRoles[member] */\n      0x00\n        /* \"1127/util/AccessControl.sol\":1321:1327  member */\n      dup4\n        /* \"1127/util/AccessControl.sol\":1300:1328  roles[role].hasRoles[member] */\n      0xffffffffffffffffffffffffffffffffffffffff\n      and\n      0xffffffffffffffffffffffffffffffffffffffff\n      and\n      dup2\n      mstore\n      0x20\n      add\n      swap1\n      dup2\n      mstore\n      0x20\n      add\n      0x00\n      keccak256\n      0x00\n      swap1\n      sload\n      swap1\n      0x0100\n      exp\n      swap1\n      div\n      0xff\n      and\n        /* \"1127/util/AccessControl.sol\":1293:1328  return roles[role].hasRoles[member] */\n      swap1\n      pop\n        /* \"1127/util/AccessControl.sol\":1209:1335  function hasRole(bytes32 role, address member) public view returns (bool) {... */\n      swap3\n      swap2\n      pop\n      pop\n      jump\t// out\n        /* \"1127/CompanyLogic.sol\":827:1361  function addWorker(string memory worker_did,address worker_address) public AccessControl.onlyRole(ADMIN_ROLE) returns (bool)  {... */\n    tag_55:\n        /* \"1127/CompanyLogic.sol\":946:950  bool */\n      0x00\n        /* \"1127/CompanyLogic.sol\":294:312  keccak256(\"ADMIN\") */\n      0xdf8b4c520ffe197c5343c6f5aec59570151ef9a492f2c624fd45ddde6135ec42\n        /* \"1127/util/AccessControl.sol\":856:871  checkRole(role) */\n      tag_117\n        /* \"1127/util/AccessControl.sol\":866:870  role */\n      dup2\n        /* \"1127/util/AccessControl.sol\":856:865  checkRole */\n      tag_62\n        /* \"1127/util/AccessControl.sol\":856:871  checkRole(role) */\n      jump\t// in\n    tag_117:\n      pop\n        /* \"1127/CompanyLogic.sol\":967:1002  hasRole(WORKER_ROLE,worker_address) */\n      tag_119\n        /* \"1127/CompanyLogic.sol\":359:378  keccak256(\"WORKER\") */\n      0xf101d8f75d5816ea5d4f9e76d2b196ca77914d087c68fd9b89f497d695bcddf7\n        /* \"1127/CompanyLogic.sol\":987:1001  worker_address */\n      dup5\n        /* \"1127/CompanyLogic.sol\":967:974  hasRole */\n      tag_50\n        /* \"1127/CompanyLogic.sol\":967:1002  hasRole(WORKER_ROLE,worker_address) */\n      jump\t// in\n    tag_119:\n        /* \"1127/CompanyLogic.sol\":964:1042  if(hasRole(WORKER_ROLE,worker_address)){... */\n      iszero\n      tag_120\n      jumpi\n        /* \"1127/CompanyLogic.sol\":1025:1030  false */\n      0x00\n        /* \"1127/CompanyLogic.sol\":1018:1030  return false */\n      swap2\n      pop\n      jump(tag_118)\n        /* \"1127/CompanyLogic.sol\":964:1042  if(hasRole(WORKER_ROLE,worker_address)){... */\n    tag_120:\n        /* \"1127/CompanyLogic.sol\":1061:1096  hasRole(WORKER_ROLE,worker_address) */\n      tag_121\n        /* \"1127/CompanyLogic.sol\":359:378  keccak256(\"WORKER\") */\n      0xf101d8f75d5816ea5d4f9e76d2b196ca77914d087c68fd9b89f497d695bcddf7\n        /* \"1127/CompanyLogic.sol\":1081:1095  worker_address */\n      dup5\n        /* \"1127/CompanyLogic.sol\":1061:1068  hasRole */\n      tag_50\n        /* \"1127/CompanyLogic.sol\":1061:1096  hasRole(WORKER_ROLE,worker_address) */\n      jump\t// in\n    tag_121:\n        /* \"1127/CompanyLogic.sol\":1060:1096  !hasRole(WORKER_ROLE,worker_address) */\n      iszero\n        /* \"1127/CompanyLogic.sol\":1052:1125  require(!hasRole(WORKER_ROLE,worker_address),\"The worker has been added\") */\n      tag_122\n      jumpi\n      mload(0x40)\n      0x08c379a000000000000000000000000000000000000000000000000000000000\n      dup2\n      mstore\n      0x04\n      add\n      tag_123\n      swap1\n      tag_124\n      jump\t// in\n    tag_123:\n      mload(0x40)\n      dup1\n      swap2\n      sub\n      swap1\n      revert\n    tag_122:\n        /* \"1127/CompanyLogic.sol\":1136:1173  grantRole(WORKER_ROLE,worker_address) */\n      tag_125\n        /* \"1127/CompanyLogic.sol\":359:378  keccak256(\"WORKER\") */\n      0xf101d8f75d5816ea5d4f9e76d2b196ca77914d087c68fd9b89f497d695bcddf7\n        /* \"1127/CompanyLogic.sol\":1158:1172  worker_address */\n      dup5\n        /* \"1127/CompanyLogic.sol\":1136:1145  grantRole */\n      tag_27\n        /* \"1127/CompanyLogic.sol\":1136:1173  grantRole(WORKER_ROLE,worker_address) */\n      jump\t// in\n    tag_125:\n      pop\n        /* \"1127/CompanyLogic.sol\":1209:1278  DataStruct.Worker(... */\n      mload(0x40)\n      dup1\n      0x40\n      add\n      0x40\n      mstore\n      dup1\n        /* \"1127/CompanyLogic.sol\":1242:1252  worker_did */\n      dup6\n        /* \"1127/CompanyLogic.sol\":1209:1278  DataStruct.Worker(... */\n      dup2\n      mstore\n      0x20\n      add\n        /* \"1127/CompanyLogic.sol\":1253:1267  worker_address */\n      dup5\n        /* \"1127/CompanyLogic.sol\":1209:1278  DataStruct.Worker(... */\n      0xffffffffffffffffffffffffffffffffffffffff\n      and\n      dup2\n      mstore\n      pop\n        /* \"1127/CompanyLogic.sol\":1184:1194  workerList */\n      0x03\n        /* \"1127/CompanyLogic.sol\":1195:1205  worker_did */\n      dup6\n        /* \"1127/CompanyLogic.sol\":1184:1206  workerList[worker_did] */\n      mload(0x40)\n      tag_126\n      swap2\n      swap1\n      tag_89\n      jump\t// in\n    tag_126:\n      swap1\n      dup2\n      mstore\n      0x20\n      add\n      mload(0x40)\n      dup1\n      swap2\n      sub\n      swap1\n      keccak256\n        /* \"1127/CompanyLogic.sol\":1184:1278  workerList[worker_did] = DataStruct.Worker(... */\n      0x00\n      dup3\n      add\n      mload\n      dup2\n      0x00\n      add\n      swap1\n      dup1\n      mload\n      swap1\n      0x20\n      add\n      swap1\n      tag_127\n      swap3\n      swap2\n      swap1\n      tag_113\n      jump\t// in\n    tag_127:\n      pop\n      0x20\n      dup3\n      add\n      mload\n      dup2\n      0x01\n      add\n      exp(0x0100, 0x00)\n      dup2\n      sload\n      dup2\n      0xffffffffffffffffffffffffffffffffffffffff\n      mul\n      not\n      and\n      swap1\n      dup4\n      0xffffffffffffffffffffffffffffffffffffffff\n      and\n      mul\n      or\n      swap1\n      sstore\n      pop\n      swap1\n      pop\n      pop\n        /* \"1127/CompanyLogic.sol\":1294:1331  NewWorkerAdd(worker_did,company_name) */\n      0x3b342535402e29d67e822084e8f23105b4c11e847ed79261c7406f98396cea1b\n        /* \"1127/CompanyLogic.sol\":1307:1317  worker_did */\n      dup5\n        /* \"1127/CompanyLogic.sol\":1318:1330  company_name */\n      0x02\n        /* \"1127/CompanyLogic.sol\":1294:1331  NewWorkerAdd(worker_did,company_name) */\n      mload(0x40)\n      tag_128\n      swap3\n      swap2\n      swap1\n      tag_95\n      jump\t// in\n    tag_128:\n      mload(0x40)\n      dup1\n      swap2\n      sub\n      swap1\n      log1\n        /* \"1127/CompanyLogic.sol\":1349:1353  true */\n      0x01\n        /* \"1127/CompanyLogic.sol\":1342:1353  return true */\n      swap2\n      pop\n        /* \"1127/util/AccessControl.sol\":881:882  _ */\n    tag_118:\n        /* \"1127/CompanyLogic.sol\":827:1361  function addWorker(string memory worker_did,address worker_address) public AccessControl.onlyRole(ADMIN_ROLE) returns (bool)  {... */\n      pop\n      swap3\n      swap2\n      pop\n      pop\n      jump\t// out\n        /* \"1127/util/AccessControl.sol\":206:250  bytes32 public constant DEFAULT_ADMIN = 0x00 */\n    tag_58:\n        /* \"1127/util/AccessControl.sol\":246:250  0x00 */\n      0x00\n        /* \"1127/util/AccessControl.sol\":206:250  bytes32 public constant DEFAULT_ADMIN = 0x00 */\n      dup1\n      shl\n      dup2\n      jump\t// out\n        /* \"1127/util/AccessControl.sol\":1011:1194  function checkRole(bytes32 role) public view returns (bool) {... */\n    tag_62:\n        /* \"1127/util/AccessControl.sol\":1065:1069  bool */\n      0x00\n        /* \"1127/util/AccessControl.sol\":1086:1111  hasRole(role, msg.sender) */\n      tag_130\n        /* \"1127/util/AccessControl.sol\":1094:1098  role */\n      dup3\n        /* \"1127/util/AccessControl.sol\":1100:1110  msg.sender */\n      caller\n        /* \"1127/util/AccessControl.sol\":1086:1093  hasRole */\n      tag_50\n        /* \"1127/util/AccessControl.sol\":1086:1111  hasRole(role, msg.sender) */\n      jump\t// in\n    tag_130:\n        /* \"1127/util/AccessControl.sol\":1081:1167  if (!hasRole(role, msg.sender)) {... */\n      tag_131\n      jumpi\n        /* \"1127/util/AccessControl.sol\":1127:1156  revert(\"UnAuthorizedAccount\") */\n      mload(0x40)\n      0x08c379a000000000000000000000000000000000000000000000000000000000\n      dup2\n      mstore\n      0x04\n      add\n      tag_132\n      swap1\n      tag_133\n      jump\t// in\n    tag_132:\n      mload(0x40)\n      dup1\n      swap2\n      sub\n      swap1\n      revert\n        /* \"1127/util/AccessControl.sol\":1081:1167  if (!hasRole(role, msg.sender)) {... */\n    tag_131:\n        /* \"1127/util/AccessControl.sol\":1183:1187  true */\n      0x01\n        /* \"1127/util/AccessControl.sol\":1176:1187  return true */\n      swap1\n      pop\n        /* \"1127/util/AccessControl.sol\":1011:1194  function checkRole(bytes32 role) public view returns (bool) {... */\n      swap2\n      swap1\n      pop\n      jump\t// out\n        /* \"1127/util/AccessControl.sol\":2161:2490  function revokeRole(bytes32 role, address member)... */\n    tag_66:\n        /* \"1127/util/AccessControl.sol\":2280:2284  bool */\n      0x00\n        /* \"1127/util/AccessControl.sol\":2243:2261  getRoleAdmin(role) */\n      tag_134\n        /* \"1127/util/AccessControl.sol\":2256:2260  role */\n      dup4\n        /* \"1127/util/AccessControl.sol\":2243:2255  getRoleAdmin */\n      tag_21\n        /* \"1127/util/AccessControl.sol\":2243:2261  getRoleAdmin(role) */\n      jump\t// in\n    tag_134:\n        /* \"1127/util/AccessControl.sol\":856:871  checkRole(role) */\n      tag_136\n        /* \"1127/util/AccessControl.sol\":866:870  role */\n      dup2\n        /* \"1127/util/AccessControl.sol\":856:865  checkRole */\n      tag_62\n        /* \"1127/util/AccessControl.sol\":856:871  checkRole(role) */\n      jump\t// in\n    tag_136:\n      pop\n        /* \"1127/util/AccessControl.sol\":2305:2326  hasRole(role, member) */\n      tag_138\n        /* \"1127/util/AccessControl.sol\":2313:2317  role */\n      dup5\n        /* \"1127/util/AccessControl.sol\":2319:2325  member */\n      dup5\n        /* \"1127/util/AccessControl.sol\":2305:2312  hasRole */\n      tag_50\n        /* \"1127/util/AccessControl.sol\":2305:2326  hasRole(role, member) */\n      jump\t// in\n    tag_138:\n        /* \"1127/util/AccessControl.sol\":2300:2365  if (!hasRole(role, member)) {... */\n      tag_139\n      jumpi\n        /* \"1127/util/AccessControl.sol\":2349:2354  false */\n      0x00\n        /* \"1127/util/AccessControl.sol\":2342:2354  return false */\n      swap2\n      pop\n      jump(tag_137)\n        /* \"1127/util/AccessControl.sol\":2300:2365  if (!hasRole(role, member)) {... */\n    tag_139:\n        /* \"1127/util/AccessControl.sol\":2405:2410  false */\n      0x00\n        /* \"1127/util/AccessControl.sol\":2374:2379  roles */\n      dup1\n        /* \"1127/util/AccessControl.sol\":2374:2385  roles[role] */\n      0x00\n        /* \"1127/util/AccessControl.sol\":2380:2384  role */\n      dup7\n        /* \"1127/util/AccessControl.sol\":2374:2385  roles[role] */\n      dup2\n      mstore\n      0x20\n      add\n      swap1\n      dup2\n      mstore\n      0x20\n      add\n      0x00\n      keccak256\n        /* \"1127/util/AccessControl.sol\":2374:2394  roles[role].hasRoles */\n      0x00\n      add\n        /* \"1127/util/AccessControl.sol\":2374:2402  roles[role].hasRoles[member] */\n      0x00\n        /* \"1127/util/AccessControl.sol\":2395:2401  member */\n      dup6\n        /* \"1127/util/AccessControl.sol\":2374:2402  roles[role].hasRoles[member] */\n      0xffffffffffffffffffffffffffffffffffffffff\n      and\n      0xffffffffffffffffffffffffffffffffffffffff\n      and\n      dup2\n      mstore\n      0x20\n      add\n      swap1\n      dup2\n      mstore\n      0x20\n      add\n      0x00\n      keccak256\n      0x00\n        /* \"1127/util/AccessControl.sol\":2374:2410  roles[role].hasRoles[member] = false */\n      0x0100\n      exp\n      dup2\n      sload\n      dup2\n      0xff\n      mul\n      not\n      and\n      swap1\n      dup4\n      iszero\n      iszero\n      mul\n      or\n      swap1\n      sstore\n      pop\n        /* \"1127/util/AccessControl.sol\":2451:2461  msg.sender */\n      caller\n        /* \"1127/util/AccessControl.sol\":2425:2462  RoleRevoked(role, member, msg.sender) */\n      0xffffffffffffffffffffffffffffffffffffffff\n      and\n        /* \"1127/util/AccessControl.sol\":2443:2449  member */\n      dup4\n        /* \"1127/util/AccessControl.sol\":2425:2462  RoleRevoked(role, member, msg.sender) */\n      0xffffffffffffffffffffffffffffffffffffffff\n      and\n        /* \"1127/util/AccessControl.sol\":2437:2441  role */\n      dup6\n        /* \"1127/util/AccessControl.sol\":2425:2462  RoleRevoked(role, member, msg.sender) */\n      0xf6391f5c32d9c69d2a47ea670b442974b53935d1edc7fd64eb21e047a839171b\n      mload(0x40)\n      mload(0x40)\n      dup1\n      swap2\n      sub\n      swap1\n      log4\n        /* \"1127/util/AccessControl.sol\":2479:2483  true */\n      0x01\n        /* \"1127/util/AccessControl.sol\":2472:2483  return true */\n      swap2\n      pop\n        /* \"1127/util/AccessControl.sol\":881:882  _ */\n    tag_137:\n        /* \"1127/util/AccessControl.sol\":2161:2490  function revokeRole(bytes32 role, address member)... */\n      pop\n      swap3\n      swap2\n      pop\n      pop\n      jump\t// out\n        /* \"1127/CompanyLogic.sol\":2247:2671  function addDataInGroup(string memory _group,string memory _dataCid) public AccessControl.onlyRole(WORKER_ROLE) returns (bool){... */\n    tag_71:\n        /* \"1127/CompanyLogic.sol\":2368:2372  bool */\n      0x00\n        /* \"1127/CompanyLogic.sol\":359:378  keccak256(\"WORKER\") */\n      0xf101d8f75d5816ea5d4f9e76d2b196ca77914d087c68fd9b89f497d695bcddf7\n        /* \"1127/util/AccessControl.sol\":856:871  checkRole(role) */\n      tag_141\n        /* \"1127/util/AccessControl.sol\":866:870  role */\n      dup2\n        /* \"1127/util/AccessControl.sol\":856:865  checkRole */\n      tag_62\n        /* \"1127/util/AccessControl.sol\":856:871  checkRole(role) */\n      jump\t// in\n    tag_141:\n      pop\n        /* \"1127/CompanyLogic.sol\":2393:2406  dataGroupList */\n      0x04\n        /* \"1127/CompanyLogic.sol\":2407:2413  _group */\n      dup5\n        /* \"1127/CompanyLogic.sol\":2393:2414  dataGroupList[_group] */\n      mload(0x40)\n      tag_143\n      swap2\n      swap1\n      tag_89\n      jump\t// in\n    tag_143:\n      swap1\n      dup2\n      mstore\n      0x20\n      add\n      mload(0x40)\n      dup1\n      swap2\n      sub\n      swap1\n      keccak256\n        /* \"1127/CompanyLogic.sol\":2393:2421  dataGroupList[_group].isOpen */\n      0x02\n      add\n      0x00\n      swap1\n      sload\n      swap1\n      0x0100\n      exp\n      swap1\n      div\n      0xff\n      and\n        /* \"1127/CompanyLogic.sol\":2385:2439  require(dataGroupList[_group].isOpen,\"No group found\") */\n      tag_144\n      jumpi\n      mload(0x40)\n      0x08c379a000000000000000000000000000000000000000000000000000000000\n      dup2\n      mstore\n      0x04\n      add\n      tag_145\n      swap1\n      tag_146\n      jump\t// in\n    tag_145:\n      mload(0x40)\n      dup1\n      swap2\n      sub\n      swap1\n      revert\n    tag_144:\n        /* \"1127/CompanyLogic.sol\":2451:2463  uint256 size */\n      0x00\n        /* \"1127/CompanyLogic.sol\":2466:2479  dataGroupList */\n      0x04\n        /* \"1127/CompanyLogic.sol\":2480:2486  _group */\n      dup6\n        /* \"1127/CompanyLogic.sol\":2466:2487  dataGroupList[_group] */\n      mload(0x40)\n      tag_147\n      swap2\n      swap1\n      tag_89\n      jump\t// in\n    tag_147:\n      swap1\n      dup2\n      mstore\n      0x20\n      add\n      mload(0x40)\n      dup1\n      swap2\n      sub\n      swap1\n      keccak256\n        /* \"1127/CompanyLogic.sol\":2466:2497  dataGroupList[_group].assetSize */\n      0x01\n      add\n      sload\n        /* \"1127/CompanyLogic.sol\":2451:2497  uint256 size = dataGroupList[_group].assetSize */\n      swap1\n      pop\n        /* \"1127/CompanyLogic.sol\":2509:2515  size++ */\n      dup1\n      dup1\n      tag_148\n      swap1\n      tag_149\n      jump\t// in\n    tag_148:\n      swap2\n      pop\n      pop\n        /* \"1127/CompanyLogic.sol\":2561:2565  size */\n      dup1\n        /* \"1127/CompanyLogic.sol\":2527:2540  dataGroupList */\n      0x04\n        /* \"1127/CompanyLogic.sol\":2541:2547  _group */\n      dup7\n        /* \"1127/CompanyLogic.sol\":2527:2548  dataGroupList[_group] */\n      mload(0x40)\n      tag_150\n      swap2\n      swap1\n      tag_89\n      jump\t// in\n    tag_150:\n      swap1\n      dup2\n      mstore\n      0x20\n      add\n      mload(0x40)\n      dup1\n      swap2\n      sub\n      swap1\n      keccak256\n        /* \"1127/CompanyLogic.sol\":2527:2558  dataGroupList[_group].assetSize */\n      0x01\n      add\n        /* \"1127/CompanyLogic.sol\":2527:2565  dataGroupList[_group].assetSize = size */\n      dup2\n      swap1\n      sstore\n      pop\n        /* \"1127/CompanyLogic.sol\":2614:2640  DataStruct.Asset(_dataCid) */\n      mload(0x40)\n      dup1\n      0x20\n      add\n      0x40\n      mstore\n      dup1\n        /* \"1127/CompanyLogic.sol\":2631:2639  _dataCid */\n      dup6\n        /* \"1127/CompanyLogic.sol\":2614:2640  DataStruct.Asset(_dataCid) */\n      dup2\n      mstore\n      pop\n        /* \"1127/CompanyLogic.sol\":2577:2590  dataGroupList */\n      0x04\n        /* \"1127/CompanyLogic.sol\":2591:2597  _group */\n      dup7\n        /* \"1127/CompanyLogic.sol\":2577:2598  dataGroupList[_group] */\n      mload(0x40)\n      tag_151\n      swap2\n      swap1\n      tag_89\n      jump\t// in\n    tag_151:\n      swap1\n      dup2\n      mstore\n      0x20\n      add\n      mload(0x40)\n      dup1\n      swap2\n      sub\n      swap1\n      keccak256\n        /* \"1127/CompanyLogic.sol\":2577:2605  dataGroupList[_group].assets */\n      0x00\n      add\n        /* \"1127/CompanyLogic.sol\":2577:2611  dataGroupList[_group].assets[size] */\n      0x00\n        /* \"1127/CompanyLogic.sol\":2606:2610  size */\n      dup4\n        /* \"1127/CompanyLogic.sol\":2577:2611  dataGroupList[_group].assets[size] */\n      dup2\n      mstore\n      0x20\n      add\n      swap1\n      dup2\n      mstore\n      0x20\n      add\n      0x00\n      keccak256\n        /* \"1127/CompanyLogic.sol\":2577:2640  dataGroupList[_group].assets[size] = DataStruct.Asset(_dataCid) */\n      0x00\n      dup3\n      add\n      mload\n      dup2\n      0x00\n      add\n      swap1\n      dup1\n      mload\n      swap1\n      0x20\n      add\n      swap1\n      tag_152\n      swap3\n      swap2\n      swap1\n      tag_113\n      jump\t// in\n    tag_152:\n      pop\n      swap1\n      pop\n      pop\n        /* \"1127/CompanyLogic.sol\":2659:2663  true */\n      0x01\n        /* \"1127/CompanyLogic.sol\":2652:2663  return true */\n      swap3\n      pop\n      pop\n        /* \"1127/CompanyLogic.sol\":2247:2671  function addDataInGroup(string memory _group,string memory _dataCid) public AccessControl.onlyRole(WORKER_ROLE) returns (bool){... */\n      pop\n      swap3\n      swap2\n      pop\n      pop\n      jump\t// out\n    tag_113:\n      dup3\n      dup1\n      sload\n      tag_153\n      swap1\n      tag_101\n      jump\t// in\n    tag_153:\n      swap1\n      0x00\n      mstore\n      keccak256(0x00, 0x20)\n      swap1\n      0x1f\n      add\n      0x20\n      swap1\n      div\n      dup2\n      add\n      swap3\n      dup3\n      tag_155\n      jumpi\n      0x00\n      dup6\n      sstore\n      jump(tag_154)\n    tag_155:\n      dup3\n      0x1f\n      lt\n      tag_156\n      jumpi\n      dup1\n      mload\n      not(0xff)\n      and\n      dup4\n      dup1\n      add\n      or\n      dup6\n      sstore\n      jump(tag_154)\n    tag_156:\n      dup3\n      dup1\n      add\n      0x01\n      add\n      dup6\n      sstore\n      dup3\n      iszero\n      tag_154\n      jumpi\n      swap2\n      dup3\n      add\n    tag_157:\n      dup3\n      dup2\n      gt\n      iszero\n      tag_158\n      jumpi\n      dup3\n      mload\n      dup3\n      sstore\n      swap2\n      0x20\n      add\n      swap2\n      swap1\n      0x01\n      add\n      swap1\n      jump(tag_157)\n    tag_158:\n    tag_154:\n      pop\n      swap1\n      pop\n      tag_159\n      swap2\n      swap1\n      tag_160\n      jump\t// in\n    tag_159:\n      pop\n      swap1\n      jump\t// out\n    tag_160:\n    tag_161:\n      dup1\n      dup3\n      gt\n      iszero\n      tag_162\n      jumpi\n      0x00\n      dup2\n      0x00\n      swap1\n      sstore\n      pop\n      0x01\n      add\n      jump(tag_161)\n    tag_162:\n      pop\n      swap1\n      jump\t// out\n        /* \"#utility.yul\":7:82   */\n    tag_163:\n        /* \"#utility.yul\":40:46   */\n      0x00\n        /* \"#utility.yul\":73:75   */\n      0x40\n        /* \"#utility.yul\":67:76   */\n      mload\n        /* \"#utility.yul\":57:76   */\n      swap1\n      pop\n        /* \"#utility.yul\":7:82   */\n      swap1\n      jump\t// out\n        /* \"#utility.yul\":88:205   */\n    tag_164:\n        /* \"#utility.yul\":197:198   */\n      0x00\n        /* \"#utility.yul\":194:195   */\n      dup1\n        /* \"#utility.yul\":187:199   */\n      revert\n        /* \"#utility.yul\":211:328   */\n    tag_165:\n        /* \"#utility.yul\":320:321   */\n      0x00\n        /* \"#utility.yul\":317:318   */\n      dup1\n        /* \"#utility.yul\":310:322   */\n      revert\n        /* \"#utility.yul\":334:411   */\n    tag_166:\n        /* \"#utility.yul\":371:378   */\n      0x00\n        /* \"#utility.yul\":400:405   */\n      dup2\n        /* \"#utility.yul\":389:405   */\n      swap1\n      pop\n        /* \"#utility.yul\":334:411   */\n      swap2\n      swap1\n      pop\n      jump\t// out\n        /* \"#utility.yul\":417:539   */\n    tag_167:\n        /* \"#utility.yul\":490:514   */\n      tag_215\n        /* \"#utility.yul\":508:513   */\n      dup2\n        /* \"#utility.yul\":490:514   */\n      tag_166\n      jump\t// in\n    tag_215:\n        /* \"#utility.yul\":483:488   */\n      dup2\n        /* \"#utility.yul\":480:515   */\n      eq\n        /* \"#utility.yul\":470:533   */\n      tag_216\n      jumpi\n        /* \"#utility.yul\":529:530   */\n      0x00\n        /* \"#utility.yul\":526:527   */\n      dup1\n        /* \"#utility.yul\":519:531   */\n      revert\n        /* \"#utility.yul\":470:533   */\n    tag_216:\n        /* \"#utility.yul\":417:539   */\n      pop\n      jump\t// out\n        /* \"#utility.yul\":545:684   */\n    tag_168:\n        /* \"#utility.yul\":591:596   */\n      0x00\n        /* \"#utility.yul\":629:635   */\n      dup2\n        /* \"#utility.yul\":616:636   */\n      calldataload\n        /* \"#utility.yul\":607:636   */\n      swap1\n      pop\n        /* \"#utility.yul\":645:678   */\n      tag_218\n        /* \"#utility.yul\":672:677   */\n      dup2\n        /* \"#utility.yul\":645:678   */\n      tag_167\n      jump\t// in\n    tag_218:\n        /* \"#utility.yul\":545:684   */\n      swap3\n      swap2\n      pop\n      pop\n      jump\t// out\n        /* \"#utility.yul\":690:1019   */\n    tag_20:\n        /* \"#utility.yul\":749:755   */\n      0x00\n        /* \"#utility.yul\":798:800   */\n      0x20\n        /* \"#utility.yul\":786:795   */\n      dup3\n        /* \"#utility.yul\":777:784   */\n      dup5\n        /* \"#utility.yul\":773:796   */\n      sub\n        /* \"#utility.yul\":769:801   */\n      slt\n        /* \"#utility.yul\":766:885   */\n      iszero\n      tag_220\n      jumpi\n        /* \"#utility.yul\":804:883   */\n      tag_221\n      tag_164\n      jump\t// in\n    tag_221:\n        /* \"#utility.yul\":766:885   */\n    tag_220:\n        /* \"#utility.yul\":924:925   */\n      0x00\n        /* \"#utility.yul\":949:1002   */\n      tag_222\n        /* \"#utility.yul\":994:1001   */\n      dup5\n        /* \"#utility.yul\":985:991   */\n      dup3\n        /* \"#utility.yul\":974:983   */\n      dup6\n        /* \"#utility.yul\":970:992   */\n      add\n        /* \"#utility.yul\":949:1002   */\n      tag_168\n      jump\t// in\n    tag_222:\n        /* \"#utility.yul\":939:1002   */\n      swap2\n      pop\n        /* \"#utility.yul\":895:1012   */\n      pop\n        /* \"#utility.yul\":690:1019   */\n      swap3\n      swap2\n      pop\n      pop\n      jump\t// out\n        /* \"#utility.yul\":1025:1143   */\n    tag_169:\n        /* \"#utility.yul\":1112:1136   */\n      tag_224\n        /* \"#utility.yul\":1130:1135   */\n      dup2\n        /* \"#utility.yul\":1112:1136   */\n      tag_166\n      jump\t// in\n    tag_224:\n        /* \"#utility.yul\":1107:1110   */\n      dup3\n        /* \"#utility.yul\":1100:1137   */\n      mstore\n        /* \"#utility.yul\":1025:1143   */\n      pop\n      pop\n      jump\t// out\n        /* \"#utility.yul\":1149:1371   */\n    tag_23:\n        /* \"#utility.yul\":1242:1246   */\n      0x00\n        /* \"#utility.yul\":1280:1282   */\n      0x20\n        /* \"#utility.yul\":1269:1278   */\n      dup3\n        /* \"#utility.yul\":1265:1283   */\n      add\n        /* \"#utility.yul\":1257:1283   */\n      swap1\n      pop\n        /* \"#utility.yul\":1293:1364   */\n      tag_226\n        /* \"#utility.yul\":1361:1362   */\n      0x00\n        /* \"#utility.yul\":1350:1359   */\n      dup4\n        /* \"#utility.yul\":1346:1363   */\n      add\n        /* \"#utility.yul\":1337:1343   */\n      dup5\n        /* \"#utility.yul\":1293:1364   */\n      tag_169\n      jump\t// in\n    tag_226:\n        /* \"#utility.yul\":1149:1371   */\n      swap3\n      swap2\n      pop\n      pop\n      jump\t// out\n        /* \"#utility.yul\":1377:1503   */\n    tag_170:\n        /* \"#utility.yul\":1414:1421   */\n      0x00\n        /* \"#utility.yul\":1454:1496   */\n      0xffffffffffffffffffffffffffffffffffffffff\n        /* \"#utility.yul\":1447:1452   */\n      dup3\n        /* \"#utility.yul\":1443:1497   */\n      and\n        /* \"#utility.yul\":1432:1497   */\n      swap1\n      pop\n        /* \"#utility.yul\":1377:1503   */\n      swap2\n      swap1\n      pop\n      jump\t// out\n        /* \"#utility.yul\":1509:1605   */\n    tag_171:\n        /* \"#utility.yul\":1546:1553   */\n      0x00\n        /* \"#utility.yul\":1575:1599   */\n      tag_229\n        /* \"#utility.yul\":1593:1598   */\n      dup3\n        /* \"#utility.yul\":1575:1599   */\n      tag_170\n      jump\t// in\n    tag_229:\n        /* \"#utility.yul\":1564:1599   */\n      swap1\n      pop\n        /* \"#utility.yul\":1509:1605   */\n      swap2\n      swap1\n      pop\n      jump\t// out\n        /* \"#utility.yul\":1611:1733   */\n    tag_172:\n        /* \"#utility.yul\":1684:1708   */\n      tag_231\n        /* \"#utility.yul\":1702:1707   */\n      dup2\n        /* \"#utility.yul\":1684:1708   */\n      tag_171\n      jump\t// in\n    tag_231:\n        /* \"#utility.yul\":1677:1682   */\n      dup2\n        /* \"#utility.yul\":1674:1709   */\n      eq\n        /* \"#utility.yul\":1664:1727   */\n      tag_232\n      jumpi\n        /* \"#utility.yul\":1723:1724   */\n      0x00\n        /* \"#utility.yul\":1720:1721   */\n      dup1\n        /* \"#utility.yul\":1713:1725   */\n      revert\n        /* \"#utility.yul\":1664:1727   */\n    tag_232:\n        /* \"#utility.yul\":1611:1733   */\n      pop\n      jump\t// out\n        /* \"#utility.yul\":1739:1878   */\n    tag_173:\n        /* \"#utility.yul\":1785:1790   */\n      0x00\n        /* \"#utility.yul\":1823:1829   */\n      dup2\n        /* \"#utility.yul\":1810:1830   */\n      calldataload\n        /* \"#utility.yul\":1801:1830   */\n      swap1\n      pop\n        /* \"#utility.yul\":1839:1872   */\n      tag_234\n        /* \"#utility.yul\":1866:1871   */\n      dup2\n        /* \"#utility.yul\":1839:1872   */\n      tag_172\n      jump\t// in\n    tag_234:\n        /* \"#utility.yul\":1739:1878   */\n      swap3\n      swap2\n      pop\n      pop\n      jump\t// out\n        /* \"#utility.yul\":1884:2358   */\n    tag_26:\n        /* \"#utility.yul\":1952:1958   */\n      0x00\n        /* \"#utility.yul\":1960:1966   */\n      dup1\n        /* \"#utility.yul\":2009:2011   */\n      0x40\n        /* \"#utility.yul\":1997:2006   */\n      dup4\n        /* \"#utility.yul\":1988:1995   */\n      dup6\n        /* \"#utility.yul\":1984:2007   */\n      sub\n        /* \"#utility.yul\":1980:2012   */\n      slt\n        /* \"#utility.yul\":1977:2096   */\n      iszero\n      tag_236\n      jumpi\n        /* \"#utility.yul\":2015:2094   */\n      tag_237\n      tag_164\n      jump\t// in\n    tag_237:\n        /* \"#utility.yul\":1977:2096   */\n    tag_236:\n        /* \"#utility.yul\":2135:2136   */\n      0x00\n        /* \"#utility.yul\":2160:2213   */\n      tag_238\n        /* \"#utility.yul\":2205:2212   */\n      dup6\n        /* \"#utility.yul\":2196:2202   */\n      dup3\n        /* \"#utility.yul\":2185:2194   */\n      dup7\n        /* \"#utility.yul\":2181:2203   */\n      add\n        /* \"#utility.yul\":2160:2213   */\n      tag_168\n      jump\t// in\n    tag_238:\n        /* \"#utility.yul\":2150:2213   */\n      swap3\n      pop\n        /* \"#utility.yul\":2106:2223   */\n      pop\n        /* \"#utility.yul\":2262:2264   */\n      0x20\n        /* \"#utility.yul\":2288:2341   */\n      tag_239\n        /* \"#utility.yul\":2333:2340   */\n      dup6\n        /* \"#utility.yul\":2324:2330   */\n      dup3\n        /* \"#utility.yul\":2313:2322   */\n      dup7\n        /* \"#utility.yul\":2309:2331   */\n      add\n        /* \"#utility.yul\":2288:2341   */\n      tag_173\n      jump\t// in\n    tag_239:\n        /* \"#utility.yul\":2278:2341   */\n      swap2\n      pop\n        /* \"#utility.yul\":2233:2351   */\n      pop\n        /* \"#utility.yul\":1884:2358   */\n      swap3\n      pop\n      swap3\n      swap1\n      pop\n      jump\t// out\n        /* \"#utility.yul\":2364:2454   */\n    tag_174:\n        /* \"#utility.yul\":2398:2405   */\n      0x00\n        /* \"#utility.yul\":2441:2446   */\n      dup2\n        /* \"#utility.yul\":2434:2447   */\n      iszero\n        /* \"#utility.yul\":2427:2448   */\n      iszero\n        /* \"#utility.yul\":2416:2448   */\n      swap1\n      pop\n        /* \"#utility.yul\":2364:2454   */\n      swap2\n      swap1\n      pop\n      jump\t// out\n        /* \"#utility.yul\":2460:2569   */\n    tag_175:\n        /* \"#utility.yul\":2541:2562   */\n      tag_242\n        /* \"#utility.yul\":2556:2561   */\n      dup2\n        /* \"#utility.yul\":2541:2562   */\n      tag_174\n      jump\t// in\n    tag_242:\n        /* \"#utility.yul\":2536:2539   */\n      dup3\n        /* \"#utility.yul\":2529:2563   */\n      mstore\n        /* \"#utility.yul\":2460:2569   */\n      pop\n      pop\n      jump\t// out\n        /* \"#utility.yul\":2575:2785   */\n    tag_29:\n        /* \"#utility.yul\":2662:2666   */\n      0x00\n        /* \"#utility.yul\":2700:2702   */\n      0x20\n        /* \"#utility.yul\":2689:2698   */\n      dup3\n        /* \"#utility.yul\":2685:2703   */\n      add\n        /* \"#utility.yul\":2677:2703   */\n      swap1\n      pop\n        /* \"#utility.yul\":2713:2778   */\n      tag_244\n        /* \"#utility.yul\":2775:2776   */\n      0x00\n        /* \"#utility.yul\":2764:2773   */\n      dup4\n        /* \"#utility.yul\":2760:2777   */\n      add\n        /* \"#utility.yul\":2751:2757   */\n      dup5\n        /* \"#utility.yul\":2713:2778   */\n      tag_175\n      jump\t// in\n    tag_244:\n        /* \"#utility.yul\":2575:2785   */\n      swap3\n      swap2\n      pop\n      pop\n      jump\t// out\n        /* \"#utility.yul\":2791:2908   */\n    tag_176:\n        /* \"#utility.yul\":2900:2901   */\n      0x00\n        /* \"#utility.yul\":2897:2898   */\n      dup1\n        /* \"#utility.yul\":2890:2902   */\n      revert\n        /* \"#utility.yul\":2914:3031   */\n    tag_177:\n        /* \"#utility.yul\":3023:3024   */\n      0x00\n        /* \"#utility.yul\":3020:3021   */\n      dup1\n        /* \"#utility.yul\":3013:3025   */\n      revert\n        /* \"#utility.yul\":3037:3139   */\n    tag_178:\n        /* \"#utility.yul\":3078:3084   */\n      0x00\n        /* \"#utility.yul\":3129:3131   */\n      0x1f\n        /* \"#utility.yul\":3125:3132   */\n      not\n        /* \"#utility.yul\":3120:3122   */\n      0x1f\n        /* \"#utility.yul\":3113:3118   */\n      dup4\n        /* \"#utility.yul\":3109:3123   */\n      add\n        /* \"#utility.yul\":3105:3133   */\n      and\n        /* \"#utility.yul\":3095:3133   */\n      swap1\n      pop\n        /* \"#utility.yul\":3037:3139   */\n      swap2\n      swap1\n      pop\n      jump\t// out\n        /* \"#utility.yul\":3145:3325   */\n    tag_179:\n        /* \"#utility.yul\":3193:3270   */\n      0x4e487b7100000000000000000000000000000000000000000000000000000000\n        /* \"#utility.yul\":3190:3191   */\n      0x00\n        /* \"#utility.yul\":3183:3271   */\n      mstore\n        /* \"#utility.yul\":3290:3294   */\n      0x41\n        /* \"#utility.yul\":3287:3288   */\n      0x04\n        /* \"#utility.yul\":3280:3295   */\n      mstore\n        /* \"#utility.yul\":3314:3318   */\n      0x24\n        /* \"#utility.yul\":3311:3312   */\n      0x00\n        /* \"#utility.yul\":3304:3319   */\n      revert\n        /* \"#utility.yul\":3331:3612   */\n    tag_180:\n        /* \"#utility.yul\":3414:3441   */\n      tag_250\n        /* \"#utility.yul\":3436:3440   */\n      dup3\n        /* \"#utility.yul\":3414:3441   */\n      tag_178\n      jump\t// in\n    tag_250:\n        /* \"#utility.yul\":3406:3412   */\n      dup2\n        /* \"#utility.yul\":3402:3442   */\n      add\n        /* \"#utility.yul\":3544:3550   */\n      dup2\n        /* \"#utility.yul\":3532:3542   */\n      dup2\n        /* \"#utility.yul\":3529:3551   */\n      lt\n        /* \"#utility.yul\":3508:3526   */\n      0xffffffffffffffff\n        /* \"#utility.yul\":3496:3506   */\n      dup3\n        /* \"#utility.yul\":3493:3527   */\n      gt\n        /* \"#utility.yul\":3490:3552   */\n      or\n        /* \"#utility.yul\":3487:3575   */\n      iszero\n      tag_251\n      jumpi\n        /* \"#utility.yul\":3555:3573   */\n      tag_252\n      tag_179\n      jump\t// in\n    tag_252:\n        /* \"#utility.yul\":3487:3575   */\n    tag_251:\n        /* \"#utility.yul\":3595:3605   */\n      dup1\n        /* \"#utility.yul\":3591:3593   */\n      0x40\n        /* \"#utility.yul\":3584:3606   */\n      mstore\n        /* \"#utility.yul\":3374:3612   */\n      pop\n        /* \"#utility.yul\":3331:3612   */\n      pop\n      pop\n      jump\t// out\n        /* \"#utility.yul\":3618:3747   */\n    tag_181:\n        /* \"#utility.yul\":3652:3658   */\n      0x00\n        /* \"#utility.yul\":3679:3699   */\n      tag_254\n      tag_163\n      jump\t// in\n    tag_254:\n        /* \"#utility.yul\":3669:3699   */\n      swap1\n      pop\n        /* \"#utility.yul\":3708:3741   */\n      tag_255\n        /* \"#utility.yul\":3736:3740   */\n      dup3\n        /* \"#utility.yul\":3728:3734   */\n      dup3\n        /* \"#utility.yul\":3708:3741   */\n      tag_180\n      jump\t// in\n    tag_255:\n        /* \"#utility.yul\":3618:3747   */\n      swap2\n      swap1\n      pop\n      jump\t// out\n        /* \"#utility.yul\":3753:4061   */\n    tag_182:\n        /* \"#utility.yul\":3815:3819   */\n      0x00\n        /* \"#utility.yul\":3905:3923   */\n      0xffffffffffffffff\n        /* \"#utility.yul\":3897:3903   */\n      dup3\n        /* \"#utility.yul\":3894:3924   */\n      gt\n        /* \"#utility.yul\":3891:3947   */\n      iszero\n      tag_257\n      jumpi\n        /* \"#utility.yul\":3927:3945   */\n      tag_258\n      tag_179\n      jump\t// in\n    tag_258:\n        /* \"#utility.yul\":3891:3947   */\n    tag_257:\n        /* \"#utility.yul\":3965:3994   */\n      tag_259\n        /* \"#utility.yul\":3987:3993   */\n      dup3\n        /* \"#utility.yul\":3965:3994   */\n      tag_178\n      jump\t// in\n    tag_259:\n        /* \"#utility.yul\":3957:3994   */\n      swap1\n      pop\n        /* \"#utility.yul\":4049:4053   */\n      0x20\n        /* \"#utility.yul\":4043:4047   */\n      dup2\n        /* \"#utility.yul\":4039:4054   */\n      add\n        /* \"#utility.yul\":4031:4054   */\n      swap1\n      pop\n        /* \"#utility.yul\":3753:4061   */\n      swap2\n      swap1\n      pop\n      jump\t// out\n        /* \"#utility.yul\":4067:4221   */\n    tag_183:\n        /* \"#utility.yul\":4151:4157   */\n      dup3\n        /* \"#utility.yul\":4146:4149   */\n      dup2\n        /* \"#utility.yul\":4141:4144   */\n      dup4\n        /* \"#utility.yul\":4128:4158   */\n      calldatacopy\n        /* \"#utility.yul\":4213:4214   */\n      0x00\n        /* \"#utility.yul\":4204:4210   */\n      dup4\n        /* \"#utility.yul\":4199:4202   */\n      dup4\n        /* \"#utility.yul\":4195:4211   */\n      add\n        /* \"#utility.yul\":4188:4215   */\n      mstore\n        /* \"#utility.yul\":4067:4221   */\n      pop\n      pop\n      pop\n      jump\t// out\n        /* \"#utility.yul\":4227:4639   */\n    tag_184:\n        /* \"#utility.yul\":4305:4310   */\n      0x00\n        /* \"#utility.yul\":4330:4396   */\n      tag_262\n        /* \"#utility.yul\":4346:4395   */\n      tag_263\n        /* \"#utility.yul\":4388:4394   */\n      dup5\n        /* \"#utility.yul\":4346:4395   */\n      tag_182\n      jump\t// in\n    tag_263:\n        /* \"#utility.yul\":4330:4396   */\n      tag_181\n      jump\t// in\n    tag_262:\n        /* \"#utility.yul\":4321:4396   */\n      swap1\n      pop\n        /* \"#utility.yul\":4419:4425   */\n      dup3\n        /* \"#utility.yul\":4412:4417   */\n      dup2\n        /* \"#utility.yul\":4405:4426   */\n      mstore\n        /* \"#utility.yul\":4457:4461   */\n      0x20\n        /* \"#utility.yul\":4450:4455   */\n      dup2\n        /* \"#utility.yul\":4446:4462   */\n      add\n        /* \"#utility.yul\":4495:4498   */\n      dup5\n        /* \"#utility.yul\":4486:4492   */\n      dup5\n        /* \"#utility.yul\":4481:4484   */\n      dup5\n        /* \"#utility.yul\":4477:4493   */\n      add\n        /* \"#utility.yul\":4474:4499   */\n      gt\n        /* \"#utility.yul\":4471:4583   */\n      iszero\n      tag_264\n      jumpi\n        /* \"#utility.yul\":4502:4581   */\n      tag_265\n      tag_177\n      jump\t// in\n    tag_265:\n        /* \"#utility.yul\":4471:4583   */\n    tag_264:\n        /* \"#utility.yul\":4592:4633   */\n      tag_266\n        /* \"#utility.yul\":4626:4632   */\n      dup5\n        /* \"#utility.yul\":4621:4624   */\n      dup3\n        /* \"#utility.yul\":4616:4619   */\n      dup6\n        /* \"#utility.yul\":4592:4633   */\n      tag_183\n      jump\t// in\n    tag_266:\n        /* \"#utility.yul\":4311:4639   */\n      pop\n        /* \"#utility.yul\":4227:4639   */\n      swap4\n      swap3\n      pop\n      pop\n      pop\n      jump\t// out\n        /* \"#utility.yul\":4659:4999   */\n    tag_185:\n        /* \"#utility.yul\":4715:4720   */\n      0x00\n        /* \"#utility.yul\":4764:4767   */\n      dup3\n        /* \"#utility.yul\":4757:4761   */\n      0x1f\n        /* \"#utility.yul\":4749:4755   */\n      dup4\n        /* \"#utility.yul\":4745:4762   */\n      add\n        /* \"#utility.yul\":4741:4768   */\n      slt\n        /* \"#utility.yul\":4731:4853   */\n      tag_268\n      jumpi\n        /* \"#utility.yul\":4772:4851   */\n      tag_269\n      tag_176\n      jump\t// in\n    tag_269:\n        /* \"#utility.yul\":4731:4853   */\n    tag_268:\n        /* \"#utility.yul\":4889:4895   */\n      dup2\n        /* \"#utility.yul\":4876:4896   */\n      calldataload\n        /* \"#utility.yul\":4914:4993   */\n      tag_270\n        /* \"#utility.yul\":4989:4992   */\n      dup5\n        /* \"#utility.yul\":4981:4987   */\n      dup3\n        /* \"#utility.yul\":4974:4978   */\n      0x20\n        /* \"#utility.yul\":4966:4972   */\n      dup7\n        /* \"#utility.yul\":4962:4979   */\n      add\n        /* \"#utility.yul\":4914:4993   */\n      tag_184\n      jump\t// in\n    tag_270:\n        /* \"#utility.yul\":4905:4993   */\n      swap2\n      pop\n        /* \"#utility.yul\":4721:4999   */\n      pop\n        /* \"#utility.yul\":4659:4999   */\n      swap3\n      swap2\n      pop\n      pop\n      jump\t// out\n        /* \"#utility.yul\":5005:5514   */\n    tag_35:\n        /* \"#utility.yul\":5074:5080   */\n      0x00\n        /* \"#utility.yul\":5123:5125   */\n      0x20\n        /* \"#utility.yul\":5111:5120   */\n      dup3\n        /* \"#utility.yul\":5102:5109   */\n      dup5\n        /* \"#utility.yul\":5098:5121   */\n      sub\n        /* \"#utility.yul\":5094:5126   */\n      slt\n        /* \"#utility.yul\":5091:5210   */\n      iszero\n      tag_272\n      jumpi\n        /* \"#utility.yul\":5129:5208   */\n      tag_273\n      tag_164\n      jump\t// in\n    tag_273:\n        /* \"#utility.yul\":5091:5210   */\n    tag_272:\n        /* \"#utility.yul\":5277:5278   */\n      0x00\n        /* \"#utility.yul\":5266:5275   */\n      dup3\n        /* \"#utility.yul\":5262:5279   */\n      add\n        /* \"#utility.yul\":5249:5280   */\n      calldataload\n        /* \"#utility.yul\":5307:5325   */\n      0xffffffffffffffff\n        /* \"#utility.yul\":5299:5305   */\n      dup2\n        /* \"#utility.yul\":5296:5326   */\n      gt\n        /* \"#utility.yul\":5293:5410   */\n      iszero\n      tag_274\n      jumpi\n        /* \"#utility.yul\":5329:5408   */\n      tag_275\n      tag_165\n      jump\t// in\n    tag_275:\n        /* \"#utility.yul\":5293:5410   */\n    tag_274:\n        /* \"#utility.yul\":5434:5497   */\n      tag_276\n        /* \"#utility.yul\":5489:5496   */\n      dup5\n        /* \"#utility.yul\":5480:5486   */\n      dup3\n        /* \"#utility.yul\":5469:5478   */\n      dup6\n        /* \"#utility.yul\":5465:5487   */\n      add\n        /* \"#utility.yul\":5434:5497   */\n      tag_185\n      jump\t// in\n    tag_276:\n        /* \"#utility.yul\":5424:5497   */\n      swap2\n      pop\n        /* \"#utility.yul\":5220:5507   */\n      pop\n        /* \"#utility.yul\":5005:5514   */\n      swap3\n      swap2\n      pop\n      pop\n      jump\t// out\n        /* \"#utility.yul\":5520:6174   */\n    tag_54:\n        /* \"#utility.yul\":5598:5604   */\n      0x00\n        /* \"#utility.yul\":5606:5612   */\n      dup1\n        /* \"#utility.yul\":5655:5657   */\n      0x40\n        /* \"#utility.yul\":5643:5652   */\n      dup4\n        /* \"#utility.yul\":5634:5641   */\n      dup6\n        /* \"#utility.yul\":5630:5653   */\n      sub\n        /* \"#utility.yul\":5626:5658   */\n      slt\n        /* \"#utility.yul\":5623:5742   */\n      iszero\n      tag_278\n      jumpi\n        /* \"#utility.yul\":5661:5740   */\n      tag_279\n      tag_164\n      jump\t// in\n    tag_279:\n        /* \"#utility.yul\":5623:5742   */\n    tag_278:\n        /* \"#utility.yul\":5809:5810   */\n      0x00\n        /* \"#utility.yul\":5798:5807   */\n      dup4\n        /* \"#utility.yul\":5794:5811   */\n      add\n        /* \"#utility.yul\":5781:5812   */\n      calldataload\n        /* \"#utility.yul\":5839:5857   */\n      0xffffffffffffffff\n        /* \"#utility.yul\":5831:5837   */\n      dup2\n        /* \"#utility.yul\":5828:5858   */\n      gt\n        /* \"#utility.yul\":5825:5942   */\n      iszero\n      tag_280\n      jumpi\n        /* \"#utility.yul\":5861:5940   */\n      tag_281\n      tag_165\n      jump\t// in\n    tag_281:\n        /* \"#utility.yul\":5825:5942   */\n    tag_280:\n        /* \"#utility.yul\":5966:6029   */\n      tag_282\n        /* \"#utility.yul\":6021:6028   */\n      dup6\n        /* \"#utility.yul\":6012:6018   */\n      dup3\n        /* \"#utility.yul\":6001:6010   */\n      dup7\n        /* \"#utility.yul\":5997:6019   */\n      add\n        /* \"#utility.yul\":5966:6029   */\n      tag_185\n      jump\t// in\n    tag_282:\n        /* \"#utility.yul\":5956:6029   */\n      swap3\n      pop\n        /* \"#utility.yul\":5752:6039   */\n      pop\n        /* \"#utility.yul\":6078:6080   */\n      0x20\n        /* \"#utility.yul\":6104:6157   */\n      tag_283\n        /* \"#utility.yul\":6149:6156   */\n      dup6\n        /* \"#utility.yul\":6140:6146   */\n      dup3\n        /* \"#utility.yul\":6129:6138   */\n      dup7\n        /* \"#utility.yul\":6125:6147   */\n      add\n        /* \"#utility.yul\":6104:6157   */\n      tag_173\n      jump\t// in\n    tag_283:\n        /* \"#utility.yul\":6094:6157   */\n      swap2\n      pop\n        /* \"#utility.yul\":6049:6167   */\n      pop\n        /* \"#utility.yul\":5520:6174   */\n      swap3\n      pop\n      swap3\n      swap1\n      pop\n      jump\t// out\n        /* \"#utility.yul\":6180:7014   */\n    tag_70:\n        /* \"#utility.yul\":6268:6274   */\n      0x00\n        /* \"#utility.yul\":6276:6282   */\n      dup1\n        /* \"#utility.yul\":6325:6327   */\n      0x40\n        /* \"#utility.yul\":6313:6322   */\n      dup4\n        /* \"#utility.yul\":6304:6311   */\n      dup6\n        /* \"#utility.yul\":6300:6323   */\n      sub\n        /* \"#utility.yul\":6296:6328   */\n      slt\n        /* \"#utility.yul\":6293:6412   */\n      iszero\n      tag_285\n      jumpi\n        /* \"#utility.yul\":6331:6410   */\n      tag_286\n      tag_164\n      jump\t// in\n    tag_286:\n        /* \"#utility.yul\":6293:6412   */\n    tag_285:\n        /* \"#utility.yul\":6479:6480   */\n      0x00\n        /* \"#utility.yul\":6468:6477   */\n      dup4\n        /* \"#utility.yul\":6464:6481   */\n      add\n        /* \"#utility.yul\":6451:6482   */\n      calldataload\n        /* \"#utility.yul\":6509:6527   */\n      0xffffffffffffffff\n        /* \"#utility.yul\":6501:6507   */\n      dup2\n        /* \"#utility.yul\":6498:6528   */\n      gt\n        /* \"#utility.yul\":6495:6612   */\n      iszero\n      tag_287\n      jumpi\n        /* \"#utility.yul\":6531:6610   */\n      tag_288\n      tag_165\n      jump\t// in\n    tag_288:\n        /* \"#utility.yul\":6495:6612   */\n    tag_287:\n        /* \"#utility.yul\":6636:6699   */\n      tag_289\n        /* \"#utility.yul\":6691:6698   */\n      dup6\n        /* \"#utility.yul\":6682:6688   */\n      dup3\n        /* \"#utility.yul\":6671:6680   */\n      dup7\n        /* \"#utility.yul\":6667:6689   */\n      add\n        /* \"#utility.yul\":6636:6699   */\n      tag_185\n      jump\t// in\n    tag_289:\n        /* \"#utility.yul\":6626:6699   */\n      swap3\n      pop\n        /* \"#utility.yul\":6422:6709   */\n      pop\n        /* \"#utility.yul\":6776:6778   */\n      0x20\n        /* \"#utility.yul\":6765:6774   */\n      dup4\n        /* \"#utility.yul\":6761:6779   */\n      add\n        /* \"#utility.yul\":6748:6780   */\n      calldataload\n        /* \"#utility.yul\":6807:6825   */\n      0xffffffffffffffff\n        /* \"#utility.yul\":6799:6805   */\n      dup2\n        /* \"#utility.yul\":6796:6826   */\n      gt\n        /* \"#utility.yul\":6793:6910   */\n      iszero\n      tag_290\n      jumpi\n        /* \"#utility.yul\":6829:6908   */\n      tag_291\n      tag_165\n      jump\t// in\n    tag_291:\n        /* \"#utility.yul\":6793:6910   */\n    tag_290:\n        /* \"#utility.yul\":6934:6997   */\n      tag_292\n        /* \"#utility.yul\":6989:6996   */\n      dup6\n        /* \"#utility.yul\":6980:6986   */\n      dup3\n        /* \"#utility.yul\":6969:6978   */\n      dup7\n        /* \"#utility.yul\":6965:6987   */\n      add\n        /* \"#utility.yul\":6934:6997   */\n      tag_185\n      jump\t// in\n    tag_292:\n        /* \"#utility.yul\":6924:6997   */\n      swap2\n      pop\n        /* \"#utility.yul\":6719:7007   */\n      pop\n        /* \"#utility.yul\":6180:7014   */\n      swap3\n      pop\n      swap3\n      swap1\n      pop\n      jump\t// out\n        /* \"#utility.yul\":7020:7189   */\n    tag_186:\n        /* \"#utility.yul\":7104:7115   */\n      0x00\n        /* \"#utility.yul\":7138:7144   */\n      dup3\n        /* \"#utility.yul\":7133:7136   */\n      dup3\n        /* \"#utility.yul\":7126:7145   */\n      mstore\n        /* \"#utility.yul\":7178:7182   */\n      0x20\n        /* \"#utility.yul\":7173:7176   */\n      dup3\n        /* \"#utility.yul\":7169:7183   */\n      add\n        /* \"#utility.yul\":7154:7183   */\n      swap1\n      pop\n        /* \"#utility.yul\":7020:7189   */\n      swap3\n      swap2\n      pop\n      pop\n      jump\t// out\n        /* \"#utility.yul\":7195:7360   */\n    tag_187:\n        /* \"#utility.yul\":7335:7352   */\n      0x426164436f6e6669726d6174696f6e0000000000000000000000000000000000\n        /* \"#utility.yul\":7331:7332   */\n      0x00\n        /* \"#utility.yul\":7323:7329   */\n      dup3\n        /* \"#utility.yul\":7319:7333   */\n      add\n        /* \"#utility.yul\":7312:7353   */\n      mstore\n        /* \"#utility.yul\":7195:7360   */\n      pop\n      jump\t// out\n        /* \"#utility.yul\":7366:7732   */\n    tag_188:\n        /* \"#utility.yul\":7508:7511   */\n      0x00\n        /* \"#utility.yul\":7529:7596   */\n      tag_296\n        /* \"#utility.yul\":7593:7595   */\n      0x0f\n        /* \"#utility.yul\":7588:7591   */\n      dup4\n        /* \"#utility.yul\":7529:7596   */\n      tag_186\n      jump\t// in\n    tag_296:\n        /* \"#utility.yul\":7522:7596   */\n      swap2\n      pop\n        /* \"#utility.yul\":7605:7698   */\n      tag_297\n        /* \"#utility.yul\":7694:7697   */\n      dup3\n        /* \"#utility.yul\":7605:7698   */\n      tag_187\n      jump\t// in\n    tag_297:\n        /* \"#utility.yul\":7723:7725   */\n      0x20\n        /* \"#utility.yul\":7718:7721   */\n      dup3\n        /* \"#utility.yul\":7714:7726   */\n      add\n        /* \"#utility.yul\":7707:7726   */\n      swap1\n      pop\n        /* \"#utility.yul\":7366:7732   */\n      swap2\n      swap1\n      pop\n      jump\t// out\n        /* \"#utility.yul\":7738:8157   */\n    tag_83:\n        /* \"#utility.yul\":7904:7908   */\n      0x00\n        /* \"#utility.yul\":7942:7944   */\n      0x20\n        /* \"#utility.yul\":7931:7940   */\n      dup3\n        /* \"#utility.yul\":7927:7945   */\n      add\n        /* \"#utility.yul\":7919:7945   */\n      swap1\n      pop\n        /* \"#utility.yul\":7991:8000   */\n      dup2\n        /* \"#utility.yul\":7985:7989   */\n      dup2\n        /* \"#utility.yul\":7981:8001   */\n      sub\n        /* \"#utility.yul\":7977:7978   */\n      0x00\n        /* \"#utility.yul\":7966:7975   */\n      dup4\n        /* \"#utility.yul\":7962:7979   */\n      add\n        /* \"#utility.yul\":7955:8002   */\n      mstore\n        /* \"#utility.yul\":8019:8150   */\n      tag_299\n        /* \"#utility.yul\":8145:8149   */\n      dup2\n        /* \"#utility.yul\":8019:8150   */\n      tag_188\n      jump\t// in\n    tag_299:\n        /* \"#utility.yul\":8011:8150   */\n      swap1\n      pop\n        /* \"#utility.yul\":7738:8157   */\n      swap2\n      swap1\n      pop\n      jump\t// out\n        /* \"#utility.yul\":8163:8262   */\n    tag_189:\n        /* \"#utility.yul\":8215:8221   */\n      0x00\n        /* \"#utility.yul\":8249:8254   */\n      dup2\n        /* \"#utility.yul\":8243:8255   */\n      mload\n        /* \"#utility.yul\":8233:8255   */\n      swap1\n      pop\n        /* \"#utility.yul\":8163:8262   */\n      swap2\n      swap1\n      pop\n      jump\t// out\n        /* \"#utility.yul\":8268:8416   */\n    tag_190:\n        /* \"#utility.yul\":8370:8381   */\n      0x00\n        /* \"#utility.yul\":8407:8410   */\n      dup2\n        /* \"#utility.yul\":8392:8410   */\n      swap1\n      pop\n        /* \"#utility.yul\":8268:8416   */\n      swap3\n      swap2\n      pop\n      pop\n      jump\t// out\n        /* \"#utility.yul\":8422:8729   */\n    tag_191:\n        /* \"#utility.yul\":8490:8491   */\n      0x00\n        /* \"#utility.yul\":8500:8613   */\n    tag_303:\n        /* \"#utility.yul\":8514:8520   */\n      dup4\n        /* \"#utility.yul\":8511:8512   */\n      dup2\n        /* \"#utility.yul\":8508:8521   */\n      lt\n        /* \"#utility.yul\":8500:8613   */\n      iszero\n      tag_305\n      jumpi\n        /* \"#utility.yul\":8599:8600   */\n      dup1\n        /* \"#utility.yul\":8594:8597   */\n      dup3\n        /* \"#utility.yul\":8590:8601   */\n      add\n        /* \"#utility.yul\":8584:8602   */\n      mload\n        /* \"#utility.yul\":8580:8581   */\n      dup2\n        /* \"#utility.yul\":8575:8578   */\n      dup5\n        /* \"#utility.yul\":8571:8582   */\n      add\n        /* \"#utility.yul\":8564:8603   */\n      mstore\n        /* \"#utility.yul\":8536:8538   */\n      0x20\n        /* \"#utility.yul\":8533:8534   */\n      dup2\n        /* \"#utility.yul\":8529:8539   */\n      add\n        /* \"#utility.yul\":8524:8539   */\n      swap1\n      pop\n        /* \"#utility.yul\":8500:8613   */\n      jump(tag_303)\n    tag_305:\n        /* \"#utility.yul\":8631:8637   */\n      dup4\n        /* \"#utility.yul\":8628:8629   */\n      dup2\n        /* \"#utility.yul\":8625:8638   */\n      gt\n        /* \"#utility.yul\":8622:8723   */\n      iszero\n      tag_306\n      jumpi\n        /* \"#utility.yul\":8711:8712   */\n      0x00\n        /* \"#utility.yul\":8702:8708   */\n      dup5\n        /* \"#utility.yul\":8697:8700   */\n      dup5\n        /* \"#utility.yul\":8693:8709   */\n      add\n        /* \"#utility.yul\":8686:8713   */\n      mstore\n        /* \"#utility.yul\":8622:8723   */\n    tag_306:\n        /* \"#utility.yul\":8471:8729   */\n      pop\n        /* \"#utility.yul\":8422:8729   */\n      pop\n      pop\n      pop\n      jump\t// out\n        /* \"#utility.yul\":8735:9112   */\n    tag_192:\n        /* \"#utility.yul\":8841:8844   */\n      0x00\n        /* \"#utility.yul\":8869:8908   */\n      tag_308\n        /* \"#utility.yul\":8902:8907   */\n      dup3\n        /* \"#utility.yul\":8869:8908   */\n      tag_189\n      jump\t// in\n    tag_308:\n        /* \"#utility.yul\":8924:9013   */\n      tag_309\n        /* \"#utility.yul\":9006:9012   */\n      dup2\n        /* \"#utility.yul\":9001:9004   */\n      dup6\n        /* \"#utility.yul\":8924:9013   */\n      tag_190\n      jump\t// in\n    tag_309:\n        /* \"#utility.yul\":8917:9013   */\n      swap4\n      pop\n        /* \"#utility.yul\":9022:9074   */\n      tag_310\n        /* \"#utility.yul\":9067:9073   */\n      dup2\n        /* \"#utility.yul\":9062:9065   */\n      dup6\n        /* \"#utility.yul\":9055:9059   */\n      0x20\n        /* \"#utility.yul\":9048:9053   */\n      dup7\n        /* \"#utility.yul\":9044:9060   */\n      add\n        /* \"#utility.yul\":9022:9074   */\n      tag_191\n      jump\t// in\n    tag_310:\n        /* \"#utility.yul\":9099:9105   */\n      dup1\n        /* \"#utility.yul\":9094:9097   */\n      dup5\n        /* \"#utility.yul\":9090:9106   */\n      add\n        /* \"#utility.yul\":9083:9106   */\n      swap2\n      pop\n        /* \"#utility.yul\":8845:9112   */\n      pop\n        /* \"#utility.yul\":8735:9112   */\n      swap3\n      swap2\n      pop\n      pop\n      jump\t// out\n        /* \"#utility.yul\":9118:9393   */\n    tag_89:\n        /* \"#utility.yul\":9250:9253   */\n      0x00\n        /* \"#utility.yul\":9272:9367   */\n      tag_312\n        /* \"#utility.yul\":9363:9366   */\n      dup3\n        /* \"#utility.yul\":9354:9360   */\n      dup5\n        /* \"#utility.yul\":9272:9367   */\n      tag_192\n      jump\t// in\n    tag_312:\n        /* \"#utility.yul\":9265:9367   */\n      swap2\n      pop\n        /* \"#utility.yul\":9384:9387   */\n      dup2\n        /* \"#utility.yul\":9377:9387   */\n      swap1\n      pop\n        /* \"#utility.yul\":9118:9393   */\n      swap3\n      swap2\n      pop\n      pop\n      jump\t// out\n        /* \"#utility.yul\":9399:9568   */\n    tag_193:\n        /* \"#utility.yul\":9539:9560   */\n      0x5468652067726f75702068617320657869737400000000000000000000000000\n        /* \"#utility.yul\":9535:9536   */\n      0x00\n        /* \"#utility.yul\":9527:9533   */\n      dup3\n        /* \"#utility.yul\":9523:9537   */\n      add\n        /* \"#utility.yul\":9516:9561   */\n      mstore\n        /* \"#utility.yul\":9399:9568   */\n      pop\n      jump\t// out\n        /* \"#utility.yul\":9574:9940   */\n    tag_194:\n        /* \"#utility.yul\":9716:9719   */\n      0x00\n        /* \"#utility.yul\":9737:9804   */\n      tag_315\n        /* \"#utility.yul\":9801:9803   */\n      0x13\n        /* \"#utility.yul\":9796:9799   */\n      dup4\n        /* \"#utility.yul\":9737:9804   */\n      tag_186\n      jump\t// in\n    tag_315:\n        /* \"#utility.yul\":9730:9804   */\n      swap2\n      pop\n        /* \"#utility.yul\":9813:9906   */\n      tag_316\n        /* \"#utility.yul\":9902:9905   */\n      dup3\n        /* \"#utility.yul\":9813:9906   */\n      tag_193\n      jump\t// in\n    tag_316:\n        /* \"#utility.yul\":9931:9933   */\n      0x20\n        /* \"#utility.yul\":9926:9929   */\n      dup3\n        /* \"#utility.yul\":9922:9934   */\n      add\n        /* \"#utility.yul\":9915:9934   */\n      swap1\n      pop\n        /* \"#utility.yul\":9574:9940   */\n      swap2\n      swap1\n      pop\n      jump\t// out\n        /* \"#utility.yul\":9946:10365   */\n    tag_92:\n        /* \"#utility.yul\":10112:10116   */\n      0x00\n        /* \"#utility.yul\":10150:10152   */\n      0x20\n        /* \"#utility.yul\":10139:10148   */\n      dup3\n        /* \"#utility.yul\":10135:10153   */\n      add\n        /* \"#utility.yul\":10127:10153   */\n      swap1\n      pop\n        /* \"#utility.yul\":10199:10208   */\n      dup2\n        /* \"#utility.yul\":10193:10197   */\n      dup2\n        /* \"#utility.yul\":10189:10209   */\n      sub\n        /* \"#utility.yul\":10185:10186   */\n      0x00\n        /* \"#utility.yul\":10174:10183   */\n      dup4\n        /* \"#utility.yul\":10170:10187   */\n      add\n        /* \"#utility.yul\":10163:10210   */\n      mstore\n        /* \"#utility.yul\":10227:10358   */\n      tag_318\n        /* \"#utility.yul\":10353:10357   */\n      dup2\n        /* \"#utility.yul\":10227:10358   */\n      tag_194\n      jump\t// in\n    tag_318:\n        /* \"#utility.yul\":10219:10358   */\n      swap1\n      pop\n        /* \"#utility.yul\":9946:10365   */\n      swap2\n      swap1\n      pop\n      jump\t// out\n        /* \"#utility.yul\":10371:10735   */\n    tag_195:\n        /* \"#utility.yul\":10459:10462   */\n      0x00\n        /* \"#utility.yul\":10487:10526   */\n      tag_320\n        /* \"#utility.yul\":10520:10525   */\n      dup3\n        /* \"#utility.yul\":10487:10526   */\n      tag_189\n      jump\t// in\n    tag_320:\n        /* \"#utility.yul\":10542:10613   */\n      tag_321\n        /* \"#utility.yul\":10606:10612   */\n      dup2\n        /* \"#utility.yul\":10601:10604   */\n      dup6\n        /* \"#utility.yul\":10542:10613   */\n      tag_186\n      jump\t// in\n    tag_321:\n        /* \"#utility.yul\":10535:10613   */\n      swap4\n      pop\n        /* \"#utility.yul\":10622:10674   */\n      tag_322\n        /* \"#utility.yul\":10667:10673   */\n      dup2\n        /* \"#utility.yul\":10662:10665   */\n      dup6\n        /* \"#utility.yul\":10655:10659   */\n      0x20\n        /* \"#utility.yul\":10648:10653   */\n      dup7\n        /* \"#utility.yul\":10644:10660   */\n      add\n        /* \"#utility.yul\":10622:10674   */\n      tag_191\n      jump\t// in\n    tag_322:\n        /* \"#utility.yul\":10699:10728   */\n      tag_323\n        /* \"#utility.yul\":10721:10727   */\n      dup2\n        /* \"#utility.yul\":10699:10728   */\n      tag_178\n      jump\t// in\n    tag_323:\n        /* \"#utility.yul\":10694:10697   */\n      dup5\n        /* \"#utility.yul\":10690:10729   */\n      add\n        /* \"#utility.yul\":10683:10729   */\n      swap2\n      pop\n        /* \"#utility.yul\":10463:10735   */\n      pop\n        /* \"#utility.yul\":10371:10735   */\n      swap3\n      swap2\n      pop\n      pop\n      jump\t// out\n        /* \"#utility.yul\":10741:10921   */\n    tag_196:\n        /* \"#utility.yul\":10789:10866   */\n      0x4e487b7100000000000000000000000000000000000000000000000000000000\n        /* \"#utility.yul\":10786:10787   */\n      0x00\n        /* \"#utility.yul\":10779:10867   */\n      mstore\n        /* \"#utility.yul\":10886:10890   */\n      0x22\n        /* \"#utility.yul\":10883:10884   */\n      0x04\n        /* \"#utility.yul\":10876:10891   */\n      mstore\n        /* \"#utility.yul\":10910:10914   */\n      0x24\n        /* \"#utility.yul\":10907:10908   */\n      0x00\n        /* \"#utility.yul\":10900:10915   */\n      revert\n        /* \"#utility.yul\":10927:11247   */\n    tag_101:\n        /* \"#utility.yul\":10971:10977   */\n      0x00\n        /* \"#utility.yul\":11008:11009   */\n      0x02\n        /* \"#utility.yul\":11002:11006   */\n      dup3\n        /* \"#utility.yul\":10998:11010   */\n      div\n        /* \"#utility.yul\":10988:11010   */\n      swap1\n      pop\n        /* \"#utility.yul\":11055:11056   */\n      0x01\n        /* \"#utility.yul\":11049:11053   */\n      dup3\n        /* \"#utility.yul\":11045:11057   */\n      and\n        /* \"#utility.yul\":11076:11094   */\n      dup1\n        /* \"#utility.yul\":11066:11147   */\n      tag_326\n      jumpi\n        /* \"#utility.yul\":11132:11136   */\n      0x7f\n        /* \"#utility.yul\":11124:11130   */\n      dup3\n        /* \"#utility.yul\":11120:11137   */\n      and\n        /* \"#utility.yul\":11110:11137   */\n      swap2\n      pop\n        /* \"#utility.yul\":11066:11147   */\n    tag_326:\n        /* \"#utility.yul\":11194:11196   */\n      0x20\n        /* \"#utility.yul\":11186:11192   */\n      dup3\n        /* \"#utility.yul\":11183:11197   */\n      lt\n        /* \"#utility.yul\":11163:11181   */\n      dup2\n        /* \"#utility.yul\":11160:11198   */\n      eq\n        /* \"#utility.yul\":11157:11241   */\n      iszero\n      tag_327\n      jumpi\n        /* \"#utility.yul\":11213:11231   */\n      tag_328\n      tag_196\n      jump\t// in\n    tag_328:\n        /* \"#utility.yul\":11157:11241   */\n    tag_327:\n        /* \"#utility.yul\":10978:11247   */\n      pop\n        /* \"#utility.yul\":10927:11247   */\n      swap2\n      swap1\n      pop\n      jump\t// out\n        /* \"#utility.yul\":11253:11394   */\n    tag_197:\n        /* \"#utility.yul\":11302:11306   */\n      0x00\n        /* \"#utility.yul\":11325:11328   */\n      dup2\n        /* \"#utility.yul\":11317:11328   */\n      swap1\n      pop\n        /* \"#utility.yul\":11348:11351   */\n      dup2\n        /* \"#utility.yul\":11345:11346   */\n      0x00\n        /* \"#utility.yul\":11338:11352   */\n      mstore\n        /* \"#utility.yul\":11382:11386   */\n      0x20\n        /* \"#utility.yul\":11379:11380   */\n      0x00\n        /* \"#utility.yul\":11369:11387   */\n      keccak256\n        /* \"#utility.yul\":11361:11387   */\n      swap1\n      pop\n        /* \"#utility.yul\":11253:11394   */\n      swap2\n      swap1\n      pop\n      jump\t// out\n        /* \"#utility.yul\":11424:12226   */\n    tag_198:\n        /* \"#utility.yul\":11509:11512   */\n      0x00\n        /* \"#utility.yul\":11546:11551   */\n      dup2\n        /* \"#utility.yul\":11540:11552   */\n      sload\n        /* \"#utility.yul\":11575:11611   */\n      tag_331\n        /* \"#utility.yul\":11601:11610   */\n      dup2\n        /* \"#utility.yul\":11575:11611   */\n      tag_101\n      jump\t// in\n    tag_331:\n        /* \"#utility.yul\":11627:11698   */\n      tag_332\n        /* \"#utility.yul\":11691:11697   */\n      dup2\n        /* \"#utility.yul\":11686:11689   */\n      dup7\n        /* \"#utility.yul\":11627:11698   */\n      tag_186\n      jump\t// in\n    tag_332:\n        /* \"#utility.yul\":11620:11698   */\n      swap5\n      pop\n        /* \"#utility.yul\":11729:11730   */\n      0x01\n        /* \"#utility.yul\":11718:11727   */\n      dup3\n        /* \"#utility.yul\":11714:11731   */\n      and\n        /* \"#utility.yul\":11745:11746   */\n      0x00\n        /* \"#utility.yul\":11740:11875   */\n      dup2\n      eq\n      tag_334\n      jumpi\n        /* \"#utility.yul\":11889:11890   */\n      0x01\n        /* \"#utility.yul\":11884:12220   */\n      dup2\n      eq\n      tag_335\n      jumpi\n        /* \"#utility.yul\":11707:12220   */\n      jump(tag_333)\n        /* \"#utility.yul\":11740:11875   */\n    tag_334:\n        /* \"#utility.yul\":11824:11828   */\n      0xff\n        /* \"#utility.yul\":11820:11829   */\n      not\n        /* \"#utility.yul\":11809:11818   */\n      dup4\n        /* \"#utility.yul\":11805:11830   */\n      and\n        /* \"#utility.yul\":11800:11803   */\n      dup7\n        /* \"#utility.yul\":11793:11831   */\n      mstore\n        /* \"#utility.yul\":11860:11864   */\n      0x20\n        /* \"#utility.yul\":11855:11858   */\n      dup7\n        /* \"#utility.yul\":11851:11865   */\n      add\n        /* \"#utility.yul\":11844:11865   */\n      swap4\n      pop\n        /* \"#utility.yul\":11740:11875   */\n      jump(tag_333)\n        /* \"#utility.yul\":11884:12220   */\n    tag_335:\n        /* \"#utility.yul\":11951:11989   */\n      tag_336\n        /* \"#utility.yul\":11983:11988   */\n      dup6\n        /* \"#utility.yul\":11951:11989   */\n      tag_197\n      jump\t// in\n    tag_336:\n        /* \"#utility.yul\":12011:12012   */\n      0x00\n        /* \"#utility.yul\":12025:12179   */\n    tag_337:\n        /* \"#utility.yul\":12039:12045   */\n      dup4\n        /* \"#utility.yul\":12036:12037   */\n      dup2\n        /* \"#utility.yul\":12033:12046   */\n      lt\n        /* \"#utility.yul\":12025:12179   */\n      iszero\n      tag_339\n      jumpi\n        /* \"#utility.yul\":12113:12120   */\n      dup2\n        /* \"#utility.yul\":12107:12121   */\n      sload\n        /* \"#utility.yul\":12103:12104   */\n      dup2\n        /* \"#utility.yul\":12098:12101   */\n      dup10\n        /* \"#utility.yul\":12094:12105   */\n      add\n        /* \"#utility.yul\":12087:12122   */\n      mstore\n        /* \"#utility.yul\":12163:12164   */\n      0x01\n        /* \"#utility.yul\":12154:12161   */\n      dup3\n        /* \"#utility.yul\":12150:12165   */\n      add\n        /* \"#utility.yul\":12139:12165   */\n      swap2\n      pop\n        /* \"#utility.yul\":12061:12065   */\n      0x20\n        /* \"#utility.yul\":12058:12059   */\n      dup2\n        /* \"#utility.yul\":12054:12066   */\n      add\n        /* \"#utility.yul\":12049:12066   */\n      swap1\n      pop\n        /* \"#utility.yul\":12025:12179   */\n      jump(tag_337)\n    tag_339:\n        /* \"#utility.yul\":12208:12209   */\n      dup1\n        /* \"#utility.yul\":12203:12206   */\n      dup9\n        /* \"#utility.yul\":12199:12210   */\n      add\n        /* \"#utility.yul\":12192:12210   */\n      swap6\n      pop\n        /* \"#utility.yul\":11891:12220   */\n      pop\n      pop\n        /* \"#utility.yul\":11707:12220   */\n    tag_333:\n      pop\n        /* \"#utility.yul\":11513:12226   */\n      pop\n      pop\n        /* \"#utility.yul\":11424:12226   */\n      swap3\n      swap2\n      pop\n      pop\n      jump\t// out\n        /* \"#utility.yul\":12232:12740   */\n    tag_95:\n        /* \"#utility.yul\":12390:12394   */\n      0x00\n        /* \"#utility.yul\":12428:12430   */\n      0x40\n        /* \"#utility.yul\":12417:12426   */\n      dup3\n        /* \"#utility.yul\":12413:12431   */\n      add\n        /* \"#utility.yul\":12405:12431   */\n      swap1\n      pop\n        /* \"#utility.yul\":12477:12486   */\n      dup2\n        /* \"#utility.yul\":12471:12475   */\n      dup2\n        /* \"#utility.yul\":12467:12487   */\n      sub\n        /* \"#utility.yul\":12463:12464   */\n      0x00\n        /* \"#utility.yul\":12452:12461   */\n      dup4\n        /* \"#utility.yul\":12448:12465   */\n      add\n        /* \"#utility.yul\":12441:12488   */\n      mstore\n        /* \"#utility.yul\":12505:12583   */\n      tag_341\n        /* \"#utility.yul\":12578:12582   */\n      dup2\n        /* \"#utility.yul\":12569:12575   */\n      dup6\n        /* \"#utility.yul\":12505:12583   */\n      tag_195\n      jump\t// in\n    tag_341:\n        /* \"#utility.yul\":12497:12583   */\n      swap1\n      pop\n        /* \"#utility.yul\":12630:12639   */\n      dup2\n        /* \"#utility.yul\":12624:12628   */\n      dup2\n        /* \"#utility.yul\":12620:12640   */\n      sub\n        /* \"#utility.yul\":12615:12617   */\n      0x20\n        /* \"#utility.yul\":12604:12613   */\n      dup4\n        /* \"#utility.yul\":12600:12618   */\n      add\n        /* \"#utility.yul\":12593:12641   */\n      mstore\n        /* \"#utility.yul\":12658:12733   */\n      tag_342\n        /* \"#utility.yul\":12728:12732   */\n      dup2\n        /* \"#utility.yul\":12719:12725   */\n      dup5\n        /* \"#utility.yul\":12658:12733   */\n      tag_198\n      jump\t// in\n    tag_342:\n        /* \"#utility.yul\":12650:12733   */\n      swap1\n      pop\n        /* \"#utility.yul\":12232:12740   */\n      swap4\n      swap3\n      pop\n      pop\n      pop\n      jump\t// out\n        /* \"#utility.yul\":12746:12923   */\n    tag_199:\n        /* \"#utility.yul\":12886:12915   */\n      0x54686520576f726b657220686173206265656e2064656c657465640000000000\n        /* \"#utility.yul\":12882:12883   */\n      0x00\n        /* \"#utility.yul\":12874:12880   */\n      dup3\n        /* \"#utility.yul\":12870:12884   */\n      add\n        /* \"#utility.yul\":12863:12916   */\n      mstore\n        /* \"#utility.yul\":12746:12923   */\n      pop\n      jump\t// out\n        /* \"#utility.yul\":12929:13295   */\n    tag_200:\n        /* \"#utility.yul\":13071:13074   */\n      0x00\n        /* \"#utility.yul\":13092:13159   */\n      tag_345\n        /* \"#utility.yul\":13156:13158   */\n      0x1b\n        /* \"#utility.yul\":13151:13154   */\n      dup4\n        /* \"#utility.yul\":13092:13159   */\n      tag_186\n      jump\t// in\n    tag_345:\n        /* \"#utility.yul\":13085:13159   */\n      swap2\n      pop\n        /* \"#utility.yul\":13168:13261   */\n      tag_346\n        /* \"#utility.yul\":13257:13260   */\n      dup3\n        /* \"#utility.yul\":13168:13261   */\n      tag_199\n      jump\t// in\n    tag_346:\n        /* \"#utility.yul\":13286:13288   */\n      0x20\n        /* \"#utility.yul\":13281:13284   */\n      dup3\n        /* \"#utility.yul\":13277:13289   */\n      add\n        /* \"#utility.yul\":13270:13289   */\n      swap1\n      pop\n        /* \"#utility.yul\":12929:13295   */\n      swap2\n      swap1\n      pop\n      jump\t// out\n        /* \"#utility.yul\":13301:13720   */\n    tag_109:\n        /* \"#utility.yul\":13467:13471   */\n      0x00\n        /* \"#utility.yul\":13505:13507   */\n      0x20\n        /* \"#utility.yul\":13494:13503   */\n      dup3\n        /* \"#utility.yul\":13490:13508   */\n      add\n        /* \"#utility.yul\":13482:13508   */\n      swap1\n      pop\n        /* \"#utility.yul\":13554:13563   */\n      dup2\n        /* \"#utility.yul\":13548:13552   */\n      dup2\n        /* \"#utility.yul\":13544:13564   */\n      sub\n        /* \"#utility.yul\":13540:13541   */\n      0x00\n        /* \"#utility.yul\":13529:13538   */\n      dup4\n        /* \"#utility.yul\":13525:13542   */\n      add\n        /* \"#utility.yul\":13518:13565   */\n      mstore\n        /* \"#utility.yul\":13582:13713   */\n      tag_348\n        /* \"#utility.yul\":13708:13712   */\n      dup2\n        /* \"#utility.yul\":13582:13713   */\n      tag_200\n      jump\t// in\n    tag_348:\n        /* \"#utility.yul\":13574:13713   */\n      swap1\n      pop\n        /* \"#utility.yul\":13301:13720   */\n      swap2\n      swap1\n      pop\n      jump\t// out\n        /* \"#utility.yul\":13726:13901   */\n    tag_201:\n        /* \"#utility.yul\":13866:13893   */\n      0x54686520776f726b657220686173206265656e20616464656400000000000000\n        /* \"#utility.yul\":13862:13863   */\n      0x00\n        /* \"#utility.yul\":13854:13860   */\n      dup3\n        /* \"#utility.yul\":13850:13864   */\n      add\n        /* \"#utility.yul\":13843:13894   */\n      mstore\n        /* \"#utility.yul\":13726:13901   */\n      pop\n      jump\t// out\n        /* \"#utility.yul\":13907:14273   */\n    tag_202:\n        /* \"#utility.yul\":14049:14052   */\n      0x00\n        /* \"#utility.yul\":14070:14137   */\n      tag_351\n        /* \"#utility.yul\":14134:14136   */\n      0x19\n        /* \"#utility.yul\":14129:14132   */\n      dup4\n        /* \"#utility.yul\":14070:14137   */\n      tag_186\n      jump\t// in\n    tag_351:\n        /* \"#utility.yul\":14063:14137   */\n      swap2\n      pop\n        /* \"#utility.yul\":14146:14239   */\n      tag_352\n        /* \"#utility.yul\":14235:14238   */\n      dup3\n        /* \"#utility.yul\":14146:14239   */\n      tag_201\n      jump\t// in\n    tag_352:\n        /* \"#utility.yul\":14264:14266   */\n      0x20\n        /* \"#utility.yul\":14259:14262   */\n      dup3\n        /* \"#utility.yul\":14255:14267   */\n      add\n        /* \"#utility.yul\":14248:14267   */\n      swap1\n      pop\n        /* \"#utility.yul\":13907:14273   */\n      swap2\n      swap1\n      pop\n      jump\t// out\n        /* \"#utility.yul\":14279:14698   */\n    tag_124:\n        /* \"#utility.yul\":14445:14449   */\n      0x00\n        /* \"#utility.yul\":14483:14485   */\n      0x20\n        /* \"#utility.yul\":14472:14481   */\n      dup3\n        /* \"#utility.yul\":14468:14486   */\n      add\n        /* \"#utility.yul\":14460:14486   */\n      swap1\n      pop\n        /* \"#utility.yul\":14532:14541   */\n      dup2\n        /* \"#utility.yul\":14526:14530   */\n      dup2\n        /* \"#utility.yul\":14522:14542   */\n      sub\n        /* \"#utility.yul\":14518:14519   */\n      0x00\n        /* \"#utility.yul\":14507:14516   */\n      dup4\n        /* \"#utility.yul\":14503:14520   */\n      add\n        /* \"#utility.yul\":14496:14543   */\n      mstore\n        /* \"#utility.yul\":14560:14691   */\n      tag_354\n        /* \"#utility.yul\":14686:14690   */\n      dup2\n        /* \"#utility.yul\":14560:14691   */\n      tag_202\n      jump\t// in\n    tag_354:\n        /* \"#utility.yul\":14552:14691   */\n      swap1\n      pop\n        /* \"#utility.yul\":14279:14698   */\n      swap2\n      swap1\n      pop\n      jump\t// out\n        /* \"#utility.yul\":14704:14873   */\n    tag_203:\n        /* \"#utility.yul\":14844:14865   */\n      0x556e417574686f72697a65644163636f756e7400000000000000000000000000\n        /* \"#utility.yul\":14840:14841   */\n      0x00\n        /* \"#utility.yul\":14832:14838   */\n      dup3\n        /* \"#utility.yul\":14828:14842   */\n      add\n        /* \"#utility.yul\":14821:14866   */\n      mstore\n        /* \"#utility.yul\":14704:14873   */\n      pop\n      jump\t// out\n        /* \"#utility.yul\":14879:15245   */\n    tag_204:\n        /* \"#utility.yul\":15021:15024   */\n      0x00\n        /* \"#utility.yul\":15042:15109   */\n      tag_357\n        /* \"#utility.yul\":15106:15108   */\n      0x13\n        /* \"#utility.yul\":15101:15104   */\n      dup4\n        /* \"#utility.yul\":15042:15109   */\n      tag_186\n      jump\t// in\n    tag_357:\n        /* \"#utility.yul\":15035:15109   */\n      swap2\n      pop\n        /* \"#utility.yul\":15118:15211   */\n      tag_358\n        /* \"#utility.yul\":15207:15210   */\n      dup3\n        /* \"#utility.yul\":15118:15211   */\n      tag_203\n      jump\t// in\n    tag_358:\n        /* \"#utility.yul\":15236:15238   */\n      0x20\n        /* \"#utility.yul\":15231:15234   */\n      dup3\n        /* \"#utility.yul\":15227:15239   */\n      add\n        /* \"#utility.yul\":15220:15239   */\n      swap1\n      pop\n        /* \"#utility.yul\":14879:15245   */\n      swap2\n      swap1\n      pop\n      jump\t// out\n        /* \"#utility.yul\":15251:15670   */\n    tag_133:\n        /* \"#utility.yul\":15417:15421   */\n      0x00\n        /* \"#utility.yul\":15455:15457   */\n      0x20\n        /* \"#utility.yul\":15444:15453   */\n      dup3\n        /* \"#utility.yul\":15440:15458   */\n      add\n        /* \"#utility.yul\":15432:15458   */\n      swap1\n      pop\n        /* \"#utility.yul\":15504:15513   */\n      dup2\n        /* \"#utility.yul\":15498:15502   */\n      dup2\n        /* \"#utility.yul\":15494:15514   */\n      sub\n        /* \"#utility.yul\":15490:15491   */\n      0x00\n        /* \"#utility.yul\":15479:15488   */\n      dup4\n        /* \"#utility.yul\":15475:15492   */\n      add\n        /* \"#utility.yul\":15468:15515   */\n      mstore\n        /* \"#utility.yul\":15532:15663   */\n      tag_360\n        /* \"#utility.yul\":15658:15662   */\n      dup2\n        /* \"#utility.yul\":15532:15663   */\n      tag_204\n      jump\t// in\n    tag_360:\n        /* \"#utility.yul\":15524:15663   */\n      swap1\n      pop\n        /* \"#utility.yul\":15251:15670   */\n      swap2\n      swap1\n      pop\n      jump\t// out\n        /* \"#utility.yul\":15676:15840   */\n    tag_205:\n        /* \"#utility.yul\":15816:15832   */\n      0x4e6f2067726f757020666f756e64000000000000000000000000000000000000\n        /* \"#utility.yul\":15812:15813   */\n      0x00\n        /* \"#utility.yul\":15804:15810   */\n      dup3\n        /* \"#utility.yul\":15800:15814   */\n      add\n        /* \"#utility.yul\":15793:15833   */\n      mstore\n        /* \"#utility.yul\":15676:15840   */\n      pop\n      jump\t// out\n        /* \"#utility.yul\":15846:16212   */\n    tag_206:\n        /* \"#utility.yul\":15988:15991   */\n      0x00\n        /* \"#utility.yul\":16009:16076   */\n      tag_363\n        /* \"#utility.yul\":16073:16075   */\n      0x0e\n        /* \"#utility.yul\":16068:16071   */\n      dup4\n        /* \"#utility.yul\":16009:16076   */\n      tag_186\n      jump\t// in\n    tag_363:\n        /* \"#utility.yul\":16002:16076   */\n      swap2\n      pop\n        /* \"#utility.yul\":16085:16178   */\n      tag_364\n        /* \"#utility.yul\":16174:16177   */\n      dup3\n        /* \"#utility.yul\":16085:16178   */\n      tag_205\n      jump\t// in\n    tag_364:\n        /* \"#utility.yul\":16203:16205   */\n      0x20\n        /* \"#utility.yul\":16198:16201   */\n      dup3\n        /* \"#utility.yul\":16194:16206   */\n      add\n        /* \"#utility.yul\":16187:16206   */\n      swap1\n      pop\n        /* \"#utility.yul\":15846:16212   */\n      swap2\n      swap1\n      pop\n      jump\t// out\n        /* \"#utility.yul\":16218:16637   */\n    tag_146:\n        /* \"#utility.yul\":16384:16388   */\n      0x00\n        /* \"#utility.yul\":16422:16424   */\n      0x20\n        /* \"#utility.yul\":16411:16420   */\n      dup3\n        /* \"#utility.yul\":16407:16425   */\n      add\n        /* \"#utility.yul\":16399:16425   */\n      swap1\n      pop\n        /* \"#utility.yul\":16471:16480   */\n      dup2\n        /* \"#utility.yul\":16465:16469   */\n      dup2\n        /* \"#utility.yul\":16461:16481   */\n      sub\n        /* \"#utility.yul\":16457:16458   */\n      0x00\n        /* \"#utility.yul\":16446:16455   */\n      dup4\n        /* \"#utility.yul\":16442:16459   */\n      add\n        /* \"#utility.yul\":16435:16482   */\n      mstore\n        /* \"#utility.yul\":16499:16630   */\n      tag_366\n        /* \"#utility.yul\":16625:16629   */\n      dup2\n        /* \"#utility.yul\":16499:16630   */\n      tag_206\n      jump\t// in\n    tag_366:\n        /* \"#utility.yul\":16491:16630   */\n      swap1\n      pop\n        /* \"#utility.yul\":16218:16637   */\n      swap2\n      swap1\n      pop\n      jump\t// out\n        /* \"#utility.yul\":16643:16823   */\n    tag_207:\n        /* \"#utility.yul\":16691:16768   */\n      0x4e487b7100000000000000000000000000000000000000000000000000000000\n        /* \"#utility.yul\":16688:16689   */\n      0x00\n        /* \"#utility.yul\":16681:16769   */\n      mstore\n        /* \"#utility.yul\":16788:16792   */\n      0x11\n        /* \"#utility.yul\":16785:16786   */\n      0x04\n        /* \"#utility.yul\":16778:16793   */\n      mstore\n        /* \"#utility.yul\":16812:16816   */\n      0x24\n        /* \"#utility.yul\":16809:16810   */\n      0x00\n        /* \"#utility.yul\":16802:16817   */\n      revert\n        /* \"#utility.yul\":16829:16906   */\n    tag_208:\n        /* \"#utility.yul\":16866:16873   */\n      0x00\n        /* \"#utility.yul\":16895:16900   */\n      dup2\n        /* \"#utility.yul\":16884:16900   */\n      swap1\n      pop\n        /* \"#utility.yul\":16829:16906   */\n      swap2\n      swap1\n      pop\n      jump\t// out\n        /* \"#utility.yul\":16912:17145   */\n    tag_149:\n        /* \"#utility.yul\":16951:16954   */\n      0x00\n        /* \"#utility.yul\":16974:16998   */\n      tag_370\n        /* \"#utility.yul\":16992:16997   */\n      dup3\n        /* \"#utility.yul\":16974:16998   */\n      tag_208\n      jump\t// in\n    tag_370:\n        /* \"#utility.yul\":16965:16998   */\n      swap2\n      pop\n        /* \"#utility.yul\":17020:17086   */\n      0xffffffffffffffffffffffffffffffffffffffffffffffffffffffffffffffff\n        /* \"#utility.yul\":17013:17018   */\n      dup3\n        /* \"#utility.yul\":17010:17087   */\n      eq\n        /* \"#utility.yul\":17007:17110   */\n      iszero\n      tag_371\n      jumpi\n        /* \"#utility.yul\":17090:17108   */\n      tag_372\n      tag_207\n      jump\t// in\n    tag_372:\n        /* \"#utility.yul\":17007:17110   */\n    tag_371:\n        /* \"#utility.yul\":17137:17138   */\n      0x01\n        /* \"#utility.yul\":17130:17135   */\n      dup3\n        /* \"#utility.yul\":17126:17139   */\n      add\n        /* \"#utility.yul\":17119:17139   */\n      swap1\n      pop\n        /* \"#utility.yul\":16912:17145   */\n      swap2\n      swap1\n      pop\n      jump\t// out\n\n    auxdata: 0xa2646970667358221220feeb2041a61876ab36726e0c078365b6be4e8211d35f91efc557145718d9ee9664736f6c634300080b0033\n}\n",
				"bytecode": {
					"linkReferences": {},
					"object": "608060405234801561001057600080fd5b503360016000808060001b815260200190815260200160002060000160008373ffffffffffffffffffffffffffffffffffffffff1673ffffffffffffffffffffffffffffffffffffffff16815260200190815260200160002060006101000a81548160ff021916908315150217905550506117b2806100906000396000f3fe608060405234801561001057600080fd5b50600436106100cf5760003560e01c806375b238fc1161008c5780639cdeba95116100665780639cdeba951461024c578063c5b951901461026a578063d547741f1461029a578063e1b64774146102ca576100cf565b806375b238fc146101ce57806391d14854146101ec57806395aec8141461021c576100cf565b8063248a9ca3146100d45780632f2ff15d1461010457806336568abe146101345780635d0f429314610150578063634252dc146101805780637350fca21461019e575b600080fd5b6100ee60048036038101906100e99190610edc565b6102fa565b6040516100fb9190610f18565b60405180910390f35b61011e60048036038101906101199190610f91565b610319565b60405161012b9190610fec565b60405180910390f35b61014e60048036038101906101499190610f91565b610418565b005b61016a6004803603810190610165919061114d565b610495565b6040516101779190610fec565b60405180910390f35b6101886105af565b6040516101959190610f18565b60405180910390f35b6101b860048036038101906101b3919061114d565b6105d3565b6040516101c59190610fec565b60405180910390f35b6101d66108b6565b6040516101e39190610f18565b60405180910390f35b61020660048036038101906102019190610f91565b6108da565b6040516102139190610fec565b60405180910390f35b61023660048036038101906102319190611196565b610944565b6040516102439190610fec565b60405180910390f35b610254610b34565b6040516102619190610f18565b60405180910390f35b610284600480360381019061027f9190610edc565b610b3b565b6040516102919190610fec565b60405180910390f35b6102b460048036038101906102af9190610f91565b610b8f565b6040516102c19190610fec565b60405180910390f35b6102e460048036038101906102df91906111f2565b610c8d565b6040516102f19190610fec565b60405180910390f35b6000806000838152602001908152602001600020600101549050919050565b6000610324836102fa565b61032d81610b3b565b5061033884846108da565b156103465760009150610411565b600160008086815260200190815260200160002060000160008573ffffffffffffffffffffffffffffffffffffffff1673ffffffffffffffffffffffffffffffffffffffff16815260200190815260200160002060006101000a81548160ff0219169083151502179055503373ffffffffffffffffffffffffffffffffffffffff168373ffffffffffffffffffffffffffffffffffffffff16857f2f8788117e7eff1d82e926ec794901d17c78024a50270940304540a733656f0d60405160405180910390a4600191505b5092915050565b3373ffffffffffffffffffffffffffffffffffffffff168173ffffffffffffffffffffffffffffffffffffffff1614610486576040517f08c379a000000000000000000000000000000000000000000000000000000000815260040161047d906112c7565b60405180910390fd5b6104908282610b8f565b505050565b60007fdf8b4c520ffe197c5343c6f5aec59570151ef9a492f2c624fd45ddde6135ec426104c181610b3b565b506004836040516104d29190611361565b908152602001604051809103902060020160009054906101000a900460ff1615610531576040517f08c379a0000000000000000000000000000000000000000000000000000000008152600401610528906113c4565b60405180910390fd5b60016004846040516105439190611361565b908152602001604051809103902060020160006101000a81548160ff0219169083151502179055507f0c9f7ffde55abf279e64f645add2b656e6cbd943754bb169e34c801647cd10ba83600260405161059d929190611513565b60405180910390a16001915050919050565b7ff101d8f75d5816ea5d4f9e76d2b196ca77914d087c68fd9b89f497d695bcddf781565b60007fdf8b4c520ffe197c5343c6f5aec59570151ef9a492f2c624fd45ddde6135ec426105ff81610b3b565b5060006003846040516106129190611361565b908152602001604051809103902060405180604001604052908160008201805461063b9061144c565b80601f01602080910402602001604051908101604052809291908181526020018280546106679061144c565b80156106b45780601f10610689576101008083540402835291602001916106b4565b820191906000526020600020905b81548152906001019060200180831161069757829003601f168201915b505050505081526020016001820160009054906101000a900473ffffffffffffffffffffffffffffffffffffffff1673ffffffffffffffffffffffffffffffffffffffff1673ffffffffffffffffffffffffffffffffffffffff168152505090506107437ff101d8f75d5816ea5d4f9e76d2b196ca77914d087c68fd9b89f497d695bcddf782602001516108da565b610782576040517f08c379a000000000000000000000000000000000000000000000000000000000815260040161077990611596565b60405180910390fd5b6107b07ff101d8f75d5816ea5d4f9e76d2b196ca77914d087c68fd9b89f497d695bcddf78260200151610b8f565b506040518060400160405280604051806020016040528060008152508152602001600073ffffffffffffffffffffffffffffffffffffffff168152506003856040516107fc9190611361565b90815260200160405180910390206000820151816000019080519060200190610826929190610def565b5060208201518160010160006101000a81548173ffffffffffffffffffffffffffffffffffffffff021916908373ffffffffffffffffffffffffffffffffffffffff1602179055509050507f8107a7b10269990d65f96ff89538ef92f91cd14632605ad78337f4856265f7338460026040516108a3929190611513565b60405180910390a1600192505050919050565b7fdf8b4c520ffe197c5343c6f5aec59570151ef9a492f2c624fd45ddde6135ec4281565b600080600084815260200190815260200160002060000160008373ffffffffffffffffffffffffffffffffffffffff1673ffffffffffffffffffffffffffffffffffffffff16815260200190815260200160002060009054906101000a900460ff16905092915050565b60007fdf8b4c520ffe197c5343c6f5aec59570151ef9a492f2c624fd45ddde6135ec4261097081610b3b565b5061099b7ff101d8f75d5816ea5d4f9e76d2b196ca77914d087c68fd9b89f497d695bcddf7846108da565b156109a95760009150610b2d565b6109d37ff101d8f75d5816ea5d4f9e76d2b196ca77914d087c68fd9b89f497d695bcddf7846108da565b15610a13576040517f08c379a0000000000000000000000000000000000000000000000000000000008152600401610a0a90611602565b60405180910390fd5b610a3d7ff101d8f75d5816ea5d4f9e76d2b196ca77914d087c68fd9b89f497d695bcddf784610319565b5060405180604001604052808581526020018473ffffffffffffffffffffffffffffffffffffffff16815250600385604051610a799190611361565b90815260200160405180910390206000820151816000019080519060200190610aa3929190610def565b5060208201518160010160006101000a81548173ffffffffffffffffffffffffffffffffffffffff021916908373ffffffffffffffffffffffffffffffffffffffff1602179055509050507f3b342535402e29d67e822084e8f23105b4c11e847ed79261c7406f98396cea1b846002604051610b20929190611513565b60405180910390a1600191505b5092915050565b6000801b81565b6000610b4782336108da565b610b86576040517f08c379a0000000000000000000000000000000000000000000000000000000008152600401610b7d9061166e565b60405180910390fd5b60019050919050565b6000610b9a836102fa565b610ba381610b3b565b50610bae84846108da565b610bbb5760009150610c86565b600080600086815260200190815260200160002060000160008573ffffffffffffffffffffffffffffffffffffffff1673ffffffffffffffffffffffffffffffffffffffff16815260200190815260200160002060006101000a81548160ff0219169083151502179055503373ffffffffffffffffffffffffffffffffffffffff168373ffffffffffffffffffffffffffffffffffffffff16857ff6391f5c32d9c69d2a47ea670b442974b53935d1edc7fd64eb21e047a839171b60405160405180910390a4600191505b5092915050565b60007ff101d8f75d5816ea5d4f9e76d2b196ca77914d087c68fd9b89f497d695bcddf7610cb981610b3b565b50600484604051610cca9190611361565b908152602001604051809103902060020160009054906101000a900460ff16610d28576040517f08c379a0000000000000000000000000000000000000000000000000000000008152600401610d1f906116da565b60405180910390fd5b6000600485604051610d3a9190611361565b90815260200160405180910390206001015490508080610d5990611733565b91505080600486604051610d6d9190611361565b908152602001604051809103902060010181905550604051806020016040528085815250600486604051610da19190611361565b908152602001604051809103902060000160008381526020019081526020016000206000820151816000019080519060200190610ddf929190610def565b5090505060019250505092915050565b828054610dfb9061144c565b90600052602060002090601f016020900481019282610e1d5760008555610e64565b82601f10610e3657805160ff1916838001178555610e64565b82800160010185558215610e64579182015b82811115610e63578251825591602001919060010190610e48565b5b509050610e719190610e75565b5090565b5b80821115610e8e576000816000905550600101610e76565b5090565b6000604051905090565b600080fd5b600080fd5b6000819050919050565b610eb981610ea6565b8114610ec457600080fd5b50565b600081359050610ed681610eb0565b92915050565b600060208284031215610ef257610ef1610e9c565b5b6000610f0084828501610ec7565b91505092915050565b610f1281610ea6565b82525050565b6000602082019050610f2d6000830184610f09565b92915050565b600073ffffffffffffffffffffffffffffffffffffffff82169050919050565b6000610f5e82610f33565b9050919050565b610f6e81610f53565b8114610f7957600080fd5b50565b600081359050610f8b81610f65565b92915050565b60008060408385031215610fa857610fa7610e9c565b5b6000610fb685828601610ec7565b9250506020610fc785828601610f7c565b9150509250929050565b60008115159050919050565b610fe681610fd1565b82525050565b60006020820190506110016000830184610fdd565b92915050565b600080fd5b600080fd5b6000601f19601f8301169050919050565b7f4e487b7100000000000000000000000000000000000000000000000000000000600052604160045260246000fd5b61105a82611011565b810181811067ffffffffffffffff8211171561107957611078611022565b5b80604052505050565b600061108c610e92565b90506110988282611051565b919050565b600067ffffffffffffffff8211156110b8576110b7611022565b5b6110c182611011565b9050602081019050919050565b82818337600083830152505050565b60006110f06110eb8461109d565b611082565b90508281526020810184848401111561110c5761110b61100c565b5b6111178482856110ce565b509392505050565b600082601f83011261113457611133611007565b5b81356111448482602086016110dd565b91505092915050565b60006020828403121561116357611162610e9c565b5b600082013567ffffffffffffffff81111561118157611180610ea1565b5b61118d8482850161111f565b91505092915050565b600080604083850312156111ad576111ac610e9c565b5b600083013567ffffffffffffffff8111156111cb576111ca610ea1565b5b6111d78582860161111f565b92505060206111e885828601610f7c565b9150509250929050565b6000806040838503121561120957611208610e9c565b5b600083013567ffffffffffffffff81111561122757611226610ea1565b5b6112338582860161111f565b925050602083013567ffffffffffffffff81111561125457611253610ea1565b5b6112608582860161111f565b9150509250929050565b600082825260208201905092915050565b7f426164436f6e6669726d6174696f6e0000000000000000000000000000000000600082015250565b60006112b1600f8361126a565b91506112bc8261127b565b602082019050919050565b600060208201905081810360008301526112e0816112a4565b9050919050565b600081519050919050565b600081905092915050565b60005b8381101561131b578082015181840152602081019050611300565b8381111561132a576000848401525b50505050565b600061133b826112e7565b61134581856112f2565b93506113558185602086016112fd565b80840191505092915050565b600061136d8284611330565b915081905092915050565b7f5468652067726f75702068617320657869737400000000000000000000000000600082015250565b60006113ae60138361126a565b91506113b982611378565b602082019050919050565b600060208201905081810360008301526113dd816113a1565b9050919050565b60006113ef826112e7565b6113f9818561126a565b93506114098185602086016112fd565b61141281611011565b840191505092915050565b7f4e487b7100000000000000000000000000000000000000000000000000000000600052602260045260246000fd5b6000600282049050600182168061146457607f821691505b602082108114156114785761147761141d565b5b50919050565b60008190508160005260206000209050919050565b600081546114a08161144c565b6114aa818661126a565b945060018216600081146114c557600181146114d75761150a565b60ff198316865260208601935061150a565b6114e08561147e565b60005b83811015611502578154818901526001820191506020810190506114e3565b808801955050505b50505092915050565b6000604082019050818103600083015261152d81856113e4565b905081810360208301526115418184611493565b90509392505050565b7f54686520576f726b657220686173206265656e2064656c657465640000000000600082015250565b6000611580601b8361126a565b915061158b8261154a565b602082019050919050565b600060208201905081810360008301526115af81611573565b9050919050565b7f54686520776f726b657220686173206265656e20616464656400000000000000600082015250565b60006115ec60198361126a565b91506115f7826115b6565b602082019050919050565b6000602082019050818103600083015261161b816115df565b9050919050565b7f556e417574686f72697a65644163636f756e7400000000000000000000000000600082015250565b600061165860138361126a565b915061166382611622565b602082019050919050565b600060208201905081810360008301526116878161164b565b9050919050565b7f4e6f2067726f757020666f756e64000000000000000000000000000000000000600082015250565b60006116c4600e8361126a565b91506116cf8261168e565b602082019050919050565b600060208201905081810360008301526116f3816116b7565b9050919050565b7f4e487b7100000000000000000000000000000000000000000000000000000000600052601160045260246000fd5b6000819050919050565b600061173e82611729565b91507fffffffffffffffffffffffffffffffffffffffffffffffffffffffffffffffff821415611771576117706116fa565b5b60018201905091905056fea2646970667358221220feeb2041a61876ab36726e0c078365b6be4e8211d35f91efc557145718d9ee9664736f6c634300080b0033",
					"opcodes": "PUSH1 0x80 PUSH1 0x40 MSTORE CALLVALUE DUP1 ISZERO PUSH2 0x10 JUMPI PUSH1 0x0 DUP1 REVERT JUMPDEST POP CALLER PUSH1 0x1 PUSH1 0x0 DUP1 DUP1 PUSH1 0x0 SHL DUP2 MSTORE PUSH1 0x20 ADD SWAP1 DUP2 MSTORE PUSH1 0x20 ADD PUSH1 0x0 KECCAK256 PUSH1 0x0 ADD PUSH1 0x0 DUP4 PUSH20 0xFFFFFFFFFFFFFFFFFFFFFFFFFFFFFFFFFFFFFFFF AND PUSH20 0xFFFFFFFFFFFFFFFFFFFFFFFFFFFFFFFFFFFFFFFF AND DUP2 MSTORE PUSH1 0x20 ADD SWAP1 DUP2 MSTORE PUSH1 0x20 ADD PUSH1 0x0 KECCAK256 PUSH1 0x0 PUSH2 0x100 EXP DUP2 SLOAD DUP2 PUSH1 0xFF MUL NOT AND SWAP1 DUP4 ISZERO ISZERO MUL OR SWAP1 SSTORE POP POP PUSH2 0x17B2 DUP1 PUSH2 0x90 PUSH1 0x0 CODECOPY PUSH1 0x0 RETURN INVALID PUSH1 0x80 PUSH1 0x40 MSTORE CALLVALUE DUP1 ISZERO PUSH2 0x10 JUMPI PUSH1 0x0 DUP1 REVERT JUMPDEST POP PUSH1 0x4 CALLDATASIZE LT PUSH2 0xCF JUMPI PUSH1 0x0 CALLDATALOAD PUSH1 0xE0 SHR DUP1 PUSH4 0x75B238FC GT PUSH2 0x8C JUMPI DUP1 PUSH4 0x9CDEBA95 GT PUSH2 0x66 JUMPI DUP1 PUSH4 0x9CDEBA95 EQ PUSH2 0x24C JUMPI DUP1 PUSH4 0xC5B95190 EQ PUSH2 0x26A JUMPI DUP1 PUSH4 0xD547741F EQ PUSH2 0x29A JUMPI DUP1 PUSH4 0xE1B64774 EQ PUSH2 0x2CA JUMPI PUSH2 0xCF JUMP JUMPDEST DUP1 PUSH4 0x75B238FC EQ PUSH2 0x1CE JUMPI DUP1 PUSH4 0x91D14854 EQ PUSH2 0x1EC JUMPI DUP1 PUSH4 0x95AEC814 EQ PUSH2 0x21C JUMPI PUSH2 0xCF JUMP JUMPDEST DUP1 PUSH4 0x248A9CA3 EQ PUSH2 0xD4 JUMPI DUP1 PUSH4 0x2F2FF15D EQ PUSH2 0x104 JUMPI DUP1 PUSH4 0x36568ABE EQ PUSH2 0x134 JUMPI DUP1 PUSH4 0x5D0F4293 EQ PUSH2 0x150 JUMPI DUP1 PUSH4 0x634252DC EQ PUSH2 0x180 JUMPI DUP1 PUSH4 0x7350FCA2 EQ PUSH2 0x19E JUMPI JUMPDEST PUSH1 0x0 DUP1 REVERT JUMPDEST PUSH2 0xEE PUSH1 0x4 DUP1 CALLDATASIZE SUB DUP2 ADD SWAP1 PUSH2 0xE9 SWAP2 SWAP1 PUSH2 0xEDC JUMP JUMPDEST PUSH2 0x2FA JUMP JUMPDEST PUSH1 0x40 MLOAD PUSH2 0xFB SWAP2 SWAP1 PUSH2 0xF18 JUMP JUMPDEST PUSH1 0x40 MLOAD DUP1 SWAP2 SUB SWAP1 RETURN JUMPDEST PUSH2 0x11E PUSH1 0x4 DUP1 CALLDATASIZE SUB DUP2 ADD SWAP1 PUSH2 0x119 SWAP2 SWAP1 PUSH2 0xF91 JUMP JUMPDEST PUSH2 0x319 JUMP JUMPDEST PUSH1 0x40 MLOAD PUSH2 0x12B SWAP2 SWAP1 PUSH2 0xFEC JUMP JUMPDEST PUSH1 0x40 MLOAD DUP1 SWAP2 SUB SWAP1 RETURN JUMPDEST PUSH2 0x14E PUSH1 0x4 DUP1 CALLDATASIZE SUB DUP2 ADD SWAP1 PUSH2 0x149 SWAP2 SWAP1 PUSH2 0xF91 JUMP JUMPDEST PUSH2 0x418 JUMP JUMPDEST STOP JUMPDEST PUSH2 0x16A PUSH1 0x4 DUP1 CALLDATASIZE SUB DUP2 ADD SWAP1 PUSH2 0x165 SWAP2 SWAP1 PUSH2 0x114D JUMP JUMPDEST PUSH2 0x495 JUMP JUMPDEST PUSH1 0x40 MLOAD PUSH2 0x177 SWAP2 SWAP1 PUSH2 0xFEC JUMP JUMPDEST PUSH1 0x40 MLOAD DUP1 SWAP2 SUB SWAP1 RETURN JUMPDEST PUSH2 0x188 PUSH2 0x5AF JUMP JUMPDEST PUSH1 0x40 MLOAD PUSH2 0x195 SWAP2 SWAP1 PUSH2 0xF18 JUMP JUMPDEST PUSH1 0x40 MLOAD DUP1 SWAP2 SUB SWAP1 RETURN JUMPDEST PUSH2 0x1B8 PUSH1 0x4 DUP1 CALLDATASIZE SUB DUP2 ADD SWAP1 PUSH2 0x1B3 SWAP2 SWAP1 PUSH2 0x114D JUMP JUMPDEST PUSH2 0x5D3 JUMP JUMPDEST PUSH1 0x40 MLOAD PUSH2 0x1C5 SWAP2 SWAP1 PUSH2 0xFEC JUMP JUMPDEST PUSH1 0x40 MLOAD DUP1 SWAP2 SUB SWAP1 RETURN JUMPDEST PUSH2 0x1D6 PUSH2 0x8B6 JUMP JUMPDEST PUSH1 0x40 MLOAD PUSH2 0x1E3 SWAP2 SWAP1 PUSH2 0xF18 JUMP JUMPDEST PUSH1 0x40 MLOAD DUP1 SWAP2 SUB SWAP1 RETURN JUMPDEST PUSH2 0x206 PUSH1 0x4 DUP1 CALLDATASIZE SUB DUP2 ADD SWAP1 PUSH2 0x201 SWAP2 SWAP1 PUSH2 0xF91 JUMP JUMPDEST PUSH2 0x8DA JUMP JUMPDEST PUSH1 0x40 MLOAD PUSH2 0x213 SWAP2 SWAP1 PUSH2 0xFEC JUMP JUMPDEST PUSH1 0x40 MLOAD DUP1 SWAP2 SUB SWAP1 RETURN JUMPDEST PUSH2 0x236 PUSH1 0x4 DUP1 CALLDATASIZE SUB DUP2 ADD SWAP1 PUSH2 0x231 SWAP2 SWAP1 PUSH2 0x1196 JUMP JUMPDEST PUSH2 0x944 JUMP JUMPDEST PUSH1 0x40 MLOAD PUSH2 0x243 SWAP2 SWAP1 PUSH2 0xFEC JUMP JUMPDEST PUSH1 0x40 MLOAD DUP1 SWAP2 SUB SWAP1 RETURN JUMPDEST PUSH2 0x254 PUSH2 0xB34 JUMP JUMPDEST PUSH1 0x40 MLOAD PUSH2 0x261 SWAP2 SWAP1 PUSH2 0xF18 JUMP JUMPDEST PUSH1 0x40 MLOAD DUP1 SWAP2 SUB SWAP1 RETURN JUMPDEST PUSH2 0x284 PUSH1 0x4 DUP1 CALLDATASIZE SUB DUP2 ADD SWAP1 PUSH2 0x27F SWAP2 SWAP1 PUSH2 0xEDC JUMP JUMPDEST PUSH2 0xB3B JUMP JUMPDEST PUSH1 0x40 MLOAD PUSH2 0x291 SWAP2 SWAP1 PUSH2 0xFEC JUMP JUMPDEST PUSH1 0x40 MLOAD DUP1 SWAP2 SUB SWAP1 RETURN JUMPDEST PUSH2 0x2B4 PUSH1 0x4 DUP1 CALLDATASIZE SUB DUP2 ADD SWAP1 PUSH2 0x2AF SWAP2 SWAP1 PUSH2 0xF91 JUMP JUMPDEST PUSH2 0xB8F JUMP JUMPDEST PUSH1 0x40 MLOAD PUSH2 0x2C1 SWAP2 SWAP1 PUSH2 0xFEC JUMP JUMPDEST PUSH1 0x40 MLOAD DUP1 SWAP2 SUB SWAP1 RETURN JUMPDEST PUSH2 0x2E4 PUSH1 0x4 DUP1 CALLDATASIZE SUB DUP2 ADD SWAP1 PUSH2 0x2DF SWAP2 SWAP1 PUSH2 0x11F2 JUMP JUMPDEST PUSH2 0xC8D JUMP JUMPDEST PUSH1 0x40 MLOAD PUSH2 0x2F1 SWAP2 SWAP1 PUSH2 0xFEC JUMP JUMPDEST PUSH1 0x40 MLOAD DUP1 SWAP2 SUB SWAP1 RETURN JUMPDEST PUSH1 0x0 DUP1 PUSH1 0x0 DUP4 DUP2 MSTORE PUSH1 0x20 ADD SWAP1 DUP2 MSTORE PUSH1 0x20 ADD PUSH1 0x0 KECCAK256 PUSH1 0x1 ADD SLOAD SWAP1 POP SWAP2 SWAP1 POP JUMP JUMPDEST PUSH1 0x0 PUSH2 0x324 DUP4 PUSH2 0x2FA JUMP JUMPDEST PUSH2 0x32D DUP2 PUSH2 0xB3B JUMP JUMPDEST POP PUSH2 0x338 DUP5 DUP5 PUSH2 0x8DA JUMP JUMPDEST ISZERO PUSH2 0x346 JUMPI PUSH1 0x0 SWAP2 POP PUSH2 0x411 JUMP JUMPDEST PUSH1 0x1 PUSH1 0x0 DUP1 DUP7 DUP2 MSTORE PUSH1 0x20 ADD SWAP1 DUP2 MSTORE PUSH1 0x20 ADD PUSH1 0x0 KECCAK256 PUSH1 0x0 ADD PUSH1 0x0 DUP6 PUSH20 0xFFFFFFFFFFFFFFFFFFFFFFFFFFFFFFFFFFFFFFFF AND PUSH20 0xFFFFFFFFFFFFFFFFFFFFFFFFFFFFFFFFFFFFFFFF AND DUP2 MSTORE PUSH1 0x20 ADD SWAP1 DUP2 MSTORE PUSH1 0x20 ADD PUSH1 0x0 KECCAK256 PUSH1 0x0 PUSH2 0x100 EXP DUP2 SLOAD DUP2 PUSH1 0xFF MUL NOT AND SWAP1 DUP4 ISZERO ISZERO MUL OR SWAP1 SSTORE POP CALLER PUSH20 0xFFFFFFFFFFFFFFFFFFFFFFFFFFFFFFFFFFFFFFFF AND DUP4 PUSH20 0xFFFFFFFFFFFFFFFFFFFFFFFFFFFFFFFFFFFFFFFF AND DUP6 PUSH32 0x2F8788117E7EFF1D82E926EC794901D17C78024A50270940304540A733656F0D PUSH1 0x40 MLOAD PUSH1 0x40 MLOAD DUP1 SWAP2 SUB SWAP1 LOG4 PUSH1 0x1 SWAP2 POP JUMPDEST POP SWAP3 SWAP2 POP POP JUMP JUMPDEST CALLER PUSH20 0xFFFFFFFFFFFFFFFFFFFFFFFFFFFFFFFFFFFFFFFF AND DUP2 PUSH20 0xFFFFFFFFFFFFFFFFFFFFFFFFFFFFFFFFFFFFFFFF AND EQ PUSH2 0x486 JUMPI PUSH1 0x40 MLOAD PUSH32 0x8C379A000000000000000000000000000000000000000000000000000000000 DUP2 MSTORE PUSH1 0x4 ADD PUSH2 0x47D SWAP1 PUSH2 0x12C7 JUMP JUMPDEST PUSH1 0x40 MLOAD DUP1 SWAP2 SUB SWAP1 REVERT JUMPDEST PUSH2 0x490 DUP3 DUP3 PUSH2 0xB8F JUMP JUMPDEST POP POP POP JUMP JUMPDEST PUSH1 0x0 PUSH32 0xDF8B4C520FFE197C5343C6F5AEC59570151EF9A492F2C624FD45DDDE6135EC42 PUSH2 0x4C1 DUP2 PUSH2 0xB3B JUMP JUMPDEST POP PUSH1 0x4 DUP4 PUSH1 0x40 MLOAD PUSH2 0x4D2 SWAP2 SWAP1 PUSH2 0x1361 JUMP JUMPDEST SWAP1 DUP2 MSTORE PUSH1 0x20 ADD PUSH1 0x40 MLOAD DUP1 SWAP2 SUB SWAP1 KECCAK256 PUSH1 0x2 ADD PUSH1 0x0 SWAP1 SLOAD SWAP1 PUSH2 0x100 EXP SWAP1 DIV PUSH1 0xFF AND ISZERO PUSH2 0x531 JUMPI PUSH1 0x40 MLOAD PUSH32 0x8C379A000000000000000000000000000000000000000000000000000000000 DUP2 MSTORE PUSH1 0x4 ADD PUSH2 0x528 SWAP1 PUSH2 0x13C4 JUMP JUMPDEST PUSH1 0x40 MLOAD DUP1 SWAP2 SUB SWAP1 REVERT JUMPDEST PUSH1 0x1 PUSH1 0x4 DUP5 PUSH1 0x40 MLOAD PUSH2 0x543 SWAP2 SWAP1 PUSH2 0x1361 JUMP JUMPDEST SWAP1 DUP2 MSTORE PUSH1 0x20 ADD PUSH1 0x40 MLOAD DUP1 SWAP2 SUB SWAP1 KECCAK256 PUSH1 0x2 ADD PUSH1 0x0 PUSH2 0x100 EXP DUP2 SLOAD DUP2 PUSH1 0xFF MUL NOT AND SWAP1 DUP4 ISZERO ISZERO MUL OR SWAP1 SSTORE POP PUSH32 0xC9F7FFDE55ABF279E64F645ADD2B656E6CBD943754BB169E34C801647CD10BA DUP4 PUSH1 0x2 PUSH1 0x40 MLOAD PUSH2 0x59D SWAP3 SWAP2 SWAP1 PUSH2 0x1513 JUMP JUMPDEST PUSH1 0x40 MLOAD DUP1 SWAP2 SUB SWAP1 LOG1 PUSH1 0x1 SWAP2 POP POP SWAP2 SWAP1 POP JUMP JUMPDEST PUSH32 0xF101D8F75D5816EA5D4F9E76D2B196CA77914D087C68FD9B89F497D695BCDDF7 DUP2 JUMP JUMPDEST PUSH1 0x0 PUSH32 0xDF8B4C520FFE197C5343C6F5AEC59570151EF9A492F2C624FD45DDDE6135EC42 PUSH2 0x5FF DUP2 PUSH2 0xB3B JUMP JUMPDEST POP PUSH1 0x0 PUSH1 0x3 DUP5 PUSH1 0x40 MLOAD PUSH2 0x612 SWAP2 SWAP1 PUSH2 0x1361 JUMP JUMPDEST SWAP1 DUP2 MSTORE PUSH1 0x20 ADD PUSH1 0x40 MLOAD DUP1 SWAP2 SUB SWAP1 KECCAK256 PUSH1 0x40 MLOAD DUP1 PUSH1 0x40 ADD PUSH1 0x40 MSTORE SWAP1 DUP2 PUSH1 0x0 DUP3 ADD DUP1 SLOAD PUSH2 0x63B SWAP1 PUSH2 0x144C JUMP JUMPDEST DUP1 PUSH1 0x1F ADD PUSH1 0x20 DUP1 SWAP2 DIV MUL PUSH1 0x20 ADD PUSH1 0x40 MLOAD SWAP1 DUP2 ADD PUSH1 0x40 MSTORE DUP1 SWAP3 SWAP2 SWAP1 DUP2 DUP2 MSTORE PUSH1 0x20 ADD DUP3 DUP1 SLOAD PUSH2 0x667 SWAP1 PUSH2 0x144C JUMP JUMPDEST DUP1 ISZERO PUSH2 0x6B4 JUMPI DUP1 PUSH1 0x1F LT PUSH2 0x689 JUMPI PUSH2 0x100 DUP1 DUP4 SLOAD DIV MUL DUP4 MSTORE SWAP2 PUSH1 0x20 ADD SWAP2 PUSH2 0x6B4 JUMP JUMPDEST DUP3 ADD SWAP2 SWAP1 PUSH1 0x0 MSTORE PUSH1 0x20 PUSH1 0x0 KECCAK256 SWAP1 JUMPDEST DUP2 SLOAD DUP2 MSTORE SWAP1 PUSH1 0x1 ADD SWAP1 PUSH1 0x20 ADD DUP1 DUP4 GT PUSH2 0x697 JUMPI DUP3 SWAP1 SUB PUSH1 0x1F AND DUP3 ADD SWAP2 JUMPDEST POP POP POP POP POP DUP2 MSTORE PUSH1 0x20 ADD PUSH1 0x1 DUP3 ADD PUSH1 0x0 SWAP1 SLOAD SWAP1 PUSH2 0x100 EXP SWAP1 DIV PUSH20 0xFFFFFFFFFFFFFFFFFFFFFFFFFFFFFFFFFFFFFFFF AND PUSH20 0xFFFFFFFFFFFFFFFFFFFFFFFFFFFFFFFFFFFFFFFF AND PUSH20 0xFFFFFFFFFFFFFFFFFFFFFFFFFFFFFFFFFFFFFFFF AND DUP2 MSTORE POP POP SWAP1 POP PUSH2 0x743 PUSH32 0xF101D8F75D5816EA5D4F9E76D2B196CA77914D087C68FD9B89F497D695BCDDF7 DUP3 PUSH1 0x20 ADD MLOAD PUSH2 0x8DA JUMP JUMPDEST PUSH2 0x782 JUMPI PUSH1 0x40 MLOAD PUSH32 0x8C379A000000000000000000000000000000000000000000000000000000000 DUP2 MSTORE PUSH1 0x4 ADD PUSH2 0x779 SWAP1 PUSH2 0x1596 JUMP JUMPDEST PUSH1 0x40 MLOAD DUP1 SWAP2 SUB SWAP1 REVERT JUMPDEST PUSH2 0x7B0 PUSH32 0xF101D8F75D5816EA5D4F9E76D2B196CA77914D087C68FD9B89F497D695BCDDF7 DUP3 PUSH1 0x20 ADD MLOAD PUSH2 0xB8F JUMP JUMPDEST POP PUSH1 0x40 MLOAD DUP1 PUSH1 0x40 ADD PUSH1 0x40 MSTORE DUP1 PUSH1 0x40 MLOAD DUP1 PUSH1 0x20 ADD PUSH1 0x40 MSTORE DUP1 PUSH1 0x0 DUP2 MSTORE POP DUP2 MSTORE PUSH1 0x20 ADD PUSH1 0x0 PUSH20 0xFFFFFFFFFFFFFFFFFFFFFFFFFFFFFFFFFFFFFFFF AND DUP2 MSTORE POP PUSH1 0x3 DUP6 PUSH1 0x40 MLOAD PUSH2 0x7FC SWAP2 SWAP1 PUSH2 0x1361 JUMP JUMPDEST SWAP1 DUP2 MSTORE PUSH1 0x20 ADD PUSH1 0x40 MLOAD DUP1 SWAP2 SUB SWAP1 KECCAK256 PUSH1 0x0 DUP3 ADD MLOAD DUP2 PUSH1 0x0 ADD SWAP1 DUP1 MLOAD SWAP1 PUSH1 0x20 ADD SWAP1 PUSH2 0x826 SWAP3 SWAP2 SWAP1 PUSH2 0xDEF JUMP JUMPDEST POP PUSH1 0x20 DUP3 ADD MLOAD DUP2 PUSH1 0x1 ADD PUSH1 0x0 PUSH2 0x100 EXP DUP2 SLOAD DUP2 PUSH20 0xFFFFFFFFFFFFFFFFFFFFFFFFFFFFFFFFFFFFFFFF MUL NOT AND SWAP1 DUP4 PUSH20 0xFFFFFFFFFFFFFFFFFFFFFFFFFFFFFFFFFFFFFFFF AND MUL OR SWAP1 SSTORE POP SWAP1 POP POP PUSH32 0x8107A7B10269990D65F96FF89538EF92F91CD14632605AD78337F4856265F733 DUP5 PUSH1 0x2 PUSH1 0x40 MLOAD PUSH2 0x8A3 SWAP3 SWAP2 SWAP1 PUSH2 0x1513 JUMP JUMPDEST PUSH1 0x40 MLOAD DUP1 SWAP2 SUB SWAP1 LOG1 PUSH1 0x1 SWAP3 POP POP POP SWAP2 SWAP1 POP JUMP JUMPDEST PUSH32 0xDF8B4C520FFE197C5343C6F5AEC59570151EF9A492F2C624FD45DDDE6135EC42 DUP2 JUMP JUMPDEST PUSH1 0x0 DUP1 PUSH1 0x0 DUP5 DUP2 MSTORE PUSH1 0x20 ADD SWAP1 DUP2 MSTORE PUSH1 0x20 ADD PUSH1 0x0 KECCAK256 PUSH1 0x0 ADD PUSH1 0x0 DUP4 PUSH20 0xFFFFFFFFFFFFFFFFFFFFFFFFFFFFFFFFFFFFFFFF AND PUSH20 0xFFFFFFFFFFFFFFFFFFFFFFFFFFFFFFFFFFFFFFFF AND DUP2 MSTORE PUSH1 0x20 ADD SWAP1 DUP2 MSTORE PUSH1 0x20 ADD PUSH1 0x0 KECCAK256 PUSH1 0x0 SWAP1 SLOAD SWAP1 PUSH2 0x100 EXP SWAP1 DIV PUSH1 0xFF AND SWAP1 POP SWAP3 SWAP2 POP POP JUMP JUMPDEST PUSH1 0x0 PUSH32 0xDF8B4C520FFE197C5343C6F5AEC59570151EF9A492F2C624FD45DDDE6135EC42 PUSH2 0x970 DUP2 PUSH2 0xB3B JUMP JUMPDEST POP PUSH2 0x99B PUSH32 0xF101D8F75D5816EA5D4F9E76D2B196CA77914D087C68FD9B89F497D695BCDDF7 DUP5 PUSH2 0x8DA JUMP JUMPDEST ISZERO PUSH2 0x9A9 JUMPI PUSH1 0x0 SWAP2 POP PUSH2 0xB2D JUMP JUMPDEST PUSH2 0x9D3 PUSH32 0xF101D8F75D5816EA5D4F9E76D2B196CA77914D087C68FD9B89F497D695BCDDF7 DUP5 PUSH2 0x8DA JUMP JUMPDEST ISZERO PUSH2 0xA13 JUMPI PUSH1 0x40 MLOAD PUSH32 0x8C379A000000000000000000000000000000000000000000000000000000000 DUP2 MSTORE PUSH1 0x4 ADD PUSH2 0xA0A SWAP1 PUSH2 0x1602 JUMP JUMPDEST PUSH1 0x40 MLOAD DUP1 SWAP2 SUB SWAP1 REVERT JUMPDEST PUSH2 0xA3D PUSH32 0xF101D8F75D5816EA5D4F9E76D2B196CA77914D087C68FD9B89F497D695BCDDF7 DUP5 PUSH2 0x319 JUMP JUMPDEST POP PUSH1 0x40 MLOAD DUP1 PUSH1 0x40 ADD PUSH1 0x40 MSTORE DUP1 DUP6 DUP2 MSTORE PUSH1 0x20 ADD DUP5 PUSH20 0xFFFFFFFFFFFFFFFFFFFFFFFFFFFFFFFFFFFFFFFF AND DUP2 MSTORE POP PUSH1 0x3 DUP6 PUSH1 0x40 MLOAD PUSH2 0xA79 SWAP2 SWAP1 PUSH2 0x1361 JUMP JUMPDEST SWAP1 DUP2 MSTORE PUSH1 0x20 ADD PUSH1 0x40 MLOAD DUP1 SWAP2 SUB SWAP1 KECCAK256 PUSH1 0x0 DUP3 ADD MLOAD DUP2 PUSH1 0x0 ADD SWAP1 DUP1 MLOAD SWAP1 PUSH1 0x20 ADD SWAP1 PUSH2 0xAA3 SWAP3 SWAP2 SWAP1 PUSH2 0xDEF JUMP JUMPDEST POP PUSH1 0x20 DUP3 ADD MLOAD DUP2 PUSH1 0x1 ADD PUSH1 0x0 PUSH2 0x100 EXP DUP2 SLOAD DUP2 PUSH20 0xFFFFFFFFFFFFFFFFFFFFFFFFFFFFFFFFFFFFFFFF MUL NOT AND SWAP1 DUP4 PUSH20 0xFFFFFFFFFFFFFFFFFFFFFFFFFFFFFFFFFFFFFFFF AND MUL OR SWAP1 SSTORE POP SWAP1 POP POP PUSH32 0x3B342535402E29D67E822084E8F23105B4C11E847ED79261C7406F98396CEA1B DUP5 PUSH1 0x2 PUSH1 0x40 MLOAD PUSH2 0xB20 SWAP3 SWAP2 SWAP1 PUSH2 0x1513 JUMP JUMPDEST PUSH1 0x40 MLOAD DUP1 SWAP2 SUB SWAP1 LOG1 PUSH1 0x1 SWAP2 POP JUMPDEST POP SWAP3 SWAP2 POP POP JUMP JUMPDEST PUSH1 0x0 DUP1 SHL DUP2 JUMP JUMPDEST PUSH1 0x0 PUSH2 0xB47 DUP3 CALLER PUSH2 0x8DA JUMP JUMPDEST PUSH2 0xB86 JUMPI PUSH1 0x40 MLOAD PUSH32 0x8C379A000000000000000000000000000000000000000000000000000000000 DUP2 MSTORE PUSH1 0x4 ADD PUSH2 0xB7D SWAP1 PUSH2 0x166E JUMP JUMPDEST PUSH1 0x40 MLOAD DUP1 SWAP2 SUB SWAP1 REVERT JUMPDEST PUSH1 0x1 SWAP1 POP SWAP2 SWAP1 POP JUMP JUMPDEST PUSH1 0x0 PUSH2 0xB9A DUP4 PUSH2 0x2FA JUMP JUMPDEST PUSH2 0xBA3 DUP2 PUSH2 0xB3B JUMP JUMPDEST POP PUSH2 0xBAE DUP5 DUP5 PUSH2 0x8DA JUMP JUMPDEST PUSH2 0xBBB JUMPI PUSH1 0x0 SWAP2 POP PUSH2 0xC86 JUMP JUMPDEST PUSH1 0x0 DUP1 PUSH1 0x0 DUP7 DUP2 MSTORE PUSH1 0x20 ADD SWAP1 DUP2 MSTORE PUSH1 0x20 ADD PUSH1 0x0 KECCAK256 PUSH1 0x0 ADD PUSH1 0x0 DUP6 PUSH20 0xFFFFFFFFFFFFFFFFFFFFFFFFFFFFFFFFFFFFFFFF AND PUSH20 0xFFFFFFFFFFFFFFFFFFFFFFFFFFFFFFFFFFFFFFFF AND DUP2 MSTORE PUSH1 0x20 ADD SWAP1 DUP2 MSTORE PUSH1 0x20 ADD PUSH1 0x0 KECCAK256 PUSH1 0x0 PUSH2 0x100 EXP DUP2 SLOAD DUP2 PUSH1 0xFF MUL NOT AND SWAP1 DUP4 ISZERO ISZERO MUL OR SWAP1 SSTORE POP CALLER PUSH20 0xFFFFFFFFFFFFFFFFFFFFFFFFFFFFFFFFFFFFFFFF AND DUP4 PUSH20 0xFFFFFFFFFFFFFFFFFFFFFFFFFFFFFFFFFFFFFFFF AND DUP6 PUSH32 0xF6391F5C32D9C69D2A47EA670B442974B53935D1EDC7FD64EB21E047A839171B PUSH1 0x40 MLOAD PUSH1 0x40 MLOAD DUP1 SWAP2 SUB SWAP1 LOG4 PUSH1 0x1 SWAP2 POP JUMPDEST POP SWAP3 SWAP2 POP POP JUMP JUMPDEST PUSH1 0x0 PUSH32 0xF101D8F75D5816EA5D4F9E76D2B196CA77914D087C68FD9B89F497D695BCDDF7 PUSH2 0xCB9 DUP2 PUSH2 0xB3B JUMP JUMPDEST POP PUSH1 0x4 DUP5 PUSH1 0x40 MLOAD PUSH2 0xCCA SWAP2 SWAP1 PUSH2 0x1361 JUMP JUMPDEST SWAP1 DUP2 MSTORE PUSH1 0x20 ADD PUSH1 0x40 MLOAD DUP1 SWAP2 SUB SWAP1 KECCAK256 PUSH1 0x2 ADD PUSH1 0x0 SWAP1 SLOAD SWAP1 PUSH2 0x100 EXP SWAP1 DIV PUSH1 0xFF AND PUSH2 0xD28 JUMPI PUSH1 0x40 MLOAD PUSH32 0x8C379A000000000000000000000000000000000000000000000000000000000 DUP2 MSTORE PUSH1 0x4 ADD PUSH2 0xD1F SWAP1 PUSH2 0x16DA JUMP JUMPDEST PUSH1 0x40 MLOAD DUP1 SWAP2 SUB SWAP1 REVERT JUMPDEST PUSH1 0x0 PUSH1 0x4 DUP6 PUSH1 0x40 MLOAD PUSH2 0xD3A SWAP2 SWAP1 PUSH2 0x1361 JUMP JUMPDEST SWAP1 DUP2 MSTORE PUSH1 0x20 ADD PUSH1 0x40 MLOAD DUP1 SWAP2 SUB SWAP1 KECCAK256 PUSH1 0x1 ADD SLOAD SWAP1 POP DUP1 DUP1 PUSH2 0xD59 SWAP1 PUSH2 0x1733 JUMP JUMPDEST SWAP2 POP POP DUP1 PUSH1 0x4 DUP7 PUSH1 0x40 MLOAD PUSH2 0xD6D SWAP2 SWAP1 PUSH2 0x1361 JUMP JUMPDEST SWAP1 DUP2 MSTORE PUSH1 0x20 ADD PUSH1 0x40 MLOAD DUP1 SWAP2 SUB SWAP1 KECCAK256 PUSH1 0x1 ADD DUP2 SWAP1 SSTORE POP PUSH1 0x40 MLOAD DUP1 PUSH1 0x20 ADD PUSH1 0x40 MSTORE DUP1 DUP6 DUP2 MSTORE POP PUSH1 0x4 DUP7 PUSH1 0x40 MLOAD PUSH2 0xDA1 SWAP2 SWAP1 PUSH2 0x1361 JUMP JUMPDEST SWAP1 DUP2 MSTORE PUSH1 0x20 ADD PUSH1 0x40 MLOAD DUP1 SWAP2 SUB SWAP1 KECCAK256 PUSH1 0x0 ADD PUSH1 0x0 DUP4 DUP2 MSTORE PUSH1 0x20 ADD SWAP1 DUP2 MSTORE PUSH1 0x20 ADD PUSH1 0x0 KECCAK256 PUSH1 0x0 DUP3 ADD MLOAD DUP2 PUSH1 0x0 ADD SWAP1 DUP1 MLOAD SWAP1 PUSH1 0x20 ADD SWAP1 PUSH2 0xDDF SWAP3 SWAP2 SWAP1 PUSH2 0xDEF JUMP JUMPDEST POP SWAP1 POP POP PUSH1 0x1 SWAP3 POP POP POP SWAP3 SWAP2 POP POP JUMP JUMPDEST DUP3 DUP1 SLOAD PUSH2 0xDFB SWAP1 PUSH2 0x144C JUMP JUMPDEST SWAP1 PUSH1 0x0 MSTORE PUSH1 0x20 PUSH1 0x0 KECCAK256 SWAP1 PUSH1 0x1F ADD PUSH1 0x20 SWAP1 DIV DUP2 ADD SWAP3 DUP3 PUSH2 0xE1D JUMPI PUSH1 0x0 DUP6 SSTORE PUSH2 0xE64 JUMP JUMPDEST DUP3 PUSH1 0x1F LT PUSH2 0xE36 JUMPI DUP1 MLOAD PUSH1 0xFF NOT AND DUP4 DUP1 ADD OR DUP6 SSTORE PUSH2 0xE64 JUMP JUMPDEST DUP3 DUP1 ADD PUSH1 0x1 ADD DUP6 SSTORE DUP3 ISZERO PUSH2 0xE64 JUMPI SWAP2 DUP3 ADD JUMPDEST DUP3 DUP2 GT ISZERO PUSH2 0xE63 JUMPI DUP3 MLOAD DUP3 SSTORE SWAP2 PUSH1 0x20 ADD SWAP2 SWAP1 PUSH1 0x1 ADD SWAP1 PUSH2 0xE48 JUMP JUMPDEST JUMPDEST POP SWAP1 POP PUSH2 0xE71 SWAP2 SWAP1 PUSH2 0xE75 JUMP JUMPDEST POP SWAP1 JUMP JUMPDEST JUMPDEST DUP1 DUP3 GT ISZERO PUSH2 0xE8E JUMPI PUSH1 0x0 DUP2 PUSH1 0x0 SWAP1 SSTORE POP PUSH1 0x1 ADD PUSH2 0xE76 JUMP JUMPDEST POP SWAP1 JUMP JUMPDEST PUSH1 0x0 PUSH1 0x40 MLOAD SWAP1 POP SWAP1 JUMP JUMPDEST PUSH1 0x0 DUP1 REVERT JUMPDEST PUSH1 0x0 DUP1 REVERT JUMPDEST PUSH1 0x0 DUP2 SWAP1 POP SWAP2 SWAP1 POP JUMP JUMPDEST PUSH2 0xEB9 DUP2 PUSH2 0xEA6 JUMP JUMPDEST DUP2 EQ PUSH2 0xEC4 JUMPI PUSH1 0x0 DUP1 REVERT JUMPDEST POP JUMP JUMPDEST PUSH1 0x0 DUP2 CALLDATALOAD SWAP1 POP PUSH2 0xED6 DUP2 PUSH2 0xEB0 JUMP JUMPDEST SWAP3 SWAP2 POP POP JUMP JUMPDEST PUSH1 0x0 PUSH1 0x20 DUP3 DUP5 SUB SLT ISZERO PUSH2 0xEF2 JUMPI PUSH2 0xEF1 PUSH2 0xE9C JUMP JUMPDEST JUMPDEST PUSH1 0x0 PUSH2 0xF00 DUP5 DUP3 DUP6 ADD PUSH2 0xEC7 JUMP JUMPDEST SWAP2 POP POP SWAP3 SWAP2 POP POP JUMP JUMPDEST PUSH2 0xF12 DUP2 PUSH2 0xEA6 JUMP JUMPDEST DUP3 MSTORE POP POP JUMP JUMPDEST PUSH1 0x0 PUSH1 0x20 DUP3 ADD SWAP1 POP PUSH2 0xF2D PUSH1 0x0 DUP4 ADD DUP5 PUSH2 0xF09 JUMP JUMPDEST SWAP3 SWAP2 POP POP JUMP JUMPDEST PUSH1 0x0 PUSH20 0xFFFFFFFFFFFFFFFFFFFFFFFFFFFFFFFFFFFFFFFF DUP3 AND SWAP1 POP SWAP2 SWAP1 POP JUMP JUMPDEST PUSH1 0x0 PUSH2 0xF5E DUP3 PUSH2 0xF33 JUMP JUMPDEST SWAP1 POP SWAP2 SWAP1 POP JUMP JUMPDEST PUSH2 0xF6E DUP2 PUSH2 0xF53 JUMP JUMPDEST DUP2 EQ PUSH2 0xF79 JUMPI PUSH1 0x0 DUP1 REVERT JUMPDEST POP JUMP JUMPDEST PUSH1 0x0 DUP2 CALLDATALOAD SWAP1 POP PUSH2 0xF8B DUP2 PUSH2 0xF65 JUMP JUMPDEST SWAP3 SWAP2 POP POP JUMP JUMPDEST PUSH1 0x0 DUP1 PUSH1 0x40 DUP4 DUP6 SUB SLT ISZERO PUSH2 0xFA8 JUMPI PUSH2 0xFA7 PUSH2 0xE9C JUMP JUMPDEST JUMPDEST PUSH1 0x0 PUSH2 0xFB6 DUP6 DUP3 DUP7 ADD PUSH2 0xEC7 JUMP JUMPDEST SWAP3 POP POP PUSH1 0x20 PUSH2 0xFC7 DUP6 DUP3 DUP7 ADD PUSH2 0xF7C JUMP JUMPDEST SWAP2 POP POP SWAP3 POP SWAP3 SWAP1 POP JUMP JUMPDEST PUSH1 0x0 DUP2 ISZERO ISZERO SWAP1 POP SWAP2 SWAP1 POP JUMP JUMPDEST PUSH2 0xFE6 DUP2 PUSH2 0xFD1 JUMP JUMPDEST DUP3 MSTORE POP POP JUMP JUMPDEST PUSH1 0x0 PUSH1 0x20 DUP3 ADD SWAP1 POP PUSH2 0x1001 PUSH1 0x0 DUP4 ADD DUP5 PUSH2 0xFDD JUMP JUMPDEST SWAP3 SWAP2 POP POP JUMP JUMPDEST PUSH1 0x0 DUP1 REVERT JUMPDEST PUSH1 0x0 DUP1 REVERT JUMPDEST PUSH1 0x0 PUSH1 0x1F NOT PUSH1 0x1F DUP4 ADD AND SWAP1 POP SWAP2 SWAP1 POP JUMP JUMPDEST PUSH32 0x4E487B7100000000000000000000000000000000000000000000000000000000 PUSH1 0x0 MSTORE PUSH1 0x41 PUSH1 0x4 MSTORE PUSH1 0x24 PUSH1 0x0 REVERT JUMPDEST PUSH2 0x105A DUP3 PUSH2 0x1011 JUMP JUMPDEST DUP2 ADD DUP2 DUP2 LT PUSH8 0xFFFFFFFFFFFFFFFF DUP3 GT OR ISZERO PUSH2 0x1079 JUMPI PUSH2 0x1078 PUSH2 0x1022 JUMP JUMPDEST JUMPDEST DUP1 PUSH1 0x40 MSTORE POP POP POP JUMP JUMPDEST PUSH1 0x0 PUSH2 0x108C PUSH2 0xE92 JUMP JUMPDEST SWAP1 POP PUSH2 0x1098 DUP3 DUP3 PUSH2 0x1051 JUMP JUMPDEST SWAP2 SWAP1 POP JUMP JUMPDEST PUSH1 0x0 PUSH8 0xFFFFFFFFFFFFFFFF DUP3 GT ISZERO PUSH2 0x10B8 JUMPI PUSH2 0x10B7 PUSH2 0x1022 JUMP JUMPDEST JUMPDEST PUSH2 0x10C1 DUP3 PUSH2 0x1011 JUMP JUMPDEST SWAP1 POP PUSH1 0x20 DUP2 ADD SWAP1 POP SWAP2 SWAP1 POP JUMP JUMPDEST DUP3 DUP2 DUP4 CALLDATACOPY PUSH1 0x0 DUP4 DUP4 ADD MSTORE POP POP POP JUMP JUMPDEST PUSH1 0x0 PUSH2 0x10F0 PUSH2 0x10EB DUP5 PUSH2 0x109D JUMP JUMPDEST PUSH2 0x1082 JUMP JUMPDEST SWAP1 POP DUP3 DUP2 MSTORE PUSH1 0x20 DUP2 ADD DUP5 DUP5 DUP5 ADD GT ISZERO PUSH2 0x110C JUMPI PUSH2 0x110B PUSH2 0x100C JUMP JUMPDEST JUMPDEST PUSH2 0x1117 DUP5 DUP3 DUP6 PUSH2 0x10CE JUMP JUMPDEST POP SWAP4 SWAP3 POP POP POP JUMP JUMPDEST PUSH1 0x0 DUP3 PUSH1 0x1F DUP4 ADD SLT PUSH2 0x1134 JUMPI PUSH2 0x1133 PUSH2 0x1007 JUMP JUMPDEST JUMPDEST DUP2 CALLDATALOAD PUSH2 0x1144 DUP5 DUP3 PUSH1 0x20 DUP7 ADD PUSH2 0x10DD JUMP JUMPDEST SWAP2 POP POP SWAP3 SWAP2 POP POP JUMP JUMPDEST PUSH1 0x0 PUSH1 0x20 DUP3 DUP5 SUB SLT ISZERO PUSH2 0x1163 JUMPI PUSH2 0x1162 PUSH2 0xE9C JUMP JUMPDEST JUMPDEST PUSH1 0x0 DUP3 ADD CALLDATALOAD PUSH8 0xFFFFFFFFFFFFFFFF DUP2 GT ISZERO PUSH2 0x1181 JUMPI PUSH2 0x1180 PUSH2 0xEA1 JUMP JUMPDEST JUMPDEST PUSH2 0x118D DUP5 DUP3 DUP6 ADD PUSH2 0x111F JUMP JUMPDEST SWAP2 POP POP SWAP3 SWAP2 POP POP JUMP JUMPDEST PUSH1 0x0 DUP1 PUSH1 0x40 DUP4 DUP6 SUB SLT ISZERO PUSH2 0x11AD JUMPI PUSH2 0x11AC PUSH2 0xE9C JUMP JUMPDEST JUMPDEST PUSH1 0x0 DUP4 ADD CALLDATALOAD PUSH8 0xFFFFFFFFFFFFFFFF DUP2 GT ISZERO PUSH2 0x11CB JUMPI PUSH2 0x11CA PUSH2 0xEA1 JUMP JUMPDEST JUMPDEST PUSH2 0x11D7 DUP6 DUP3 DUP7 ADD PUSH2 0x111F JUMP JUMPDEST SWAP3 POP POP PUSH1 0x20 PUSH2 0x11E8 DUP6 DUP3 DUP7 ADD PUSH2 0xF7C JUMP JUMPDEST SWAP2 POP POP SWAP3 POP SWAP3 SWAP1 POP JUMP JUMPDEST PUSH1 0x0 DUP1 PUSH1 0x40 DUP4 DUP6 SUB SLT ISZERO PUSH2 0x1209 JUMPI PUSH2 0x1208 PUSH2 0xE9C JUMP JUMPDEST JUMPDEST PUSH1 0x0 DUP4 ADD CALLDATALOAD PUSH8 0xFFFFFFFFFFFFFFFF DUP2 GT ISZERO PUSH2 0x1227 JUMPI PUSH2 0x1226 PUSH2 0xEA1 JUMP JUMPDEST JUMPDEST PUSH2 0x1233 DUP6 DUP3 DUP7 ADD PUSH2 0x111F JUMP JUMPDEST SWAP3 POP POP PUSH1 0x20 DUP4 ADD CALLDATALOAD PUSH8 0xFFFFFFFFFFFFFFFF DUP2 GT ISZERO PUSH2 0x1254 JUMPI PUSH2 0x1253 PUSH2 0xEA1 JUMP JUMPDEST JUMPDEST PUSH2 0x1260 DUP6 DUP3 DUP7 ADD PUSH2 0x111F JUMP JUMPDEST SWAP2 POP POP SWAP3 POP SWAP3 SWAP1 POP JUMP JUMPDEST PUSH1 0x0 DUP3 DUP3 MSTORE PUSH1 0x20 DUP3 ADD SWAP1 POP SWAP3 SWAP2 POP POP JUMP JUMPDEST PUSH32 0x426164436F6E6669726D6174696F6E0000000000000000000000000000000000 PUSH1 0x0 DUP3 ADD MSTORE POP JUMP JUMPDEST PUSH1 0x0 PUSH2 0x12B1 PUSH1 0xF DUP4 PUSH2 0x126A JUMP JUMPDEST SWAP2 POP PUSH2 0x12BC DUP3 PUSH2 0x127B JUMP JUMPDEST PUSH1 0x20 DUP3 ADD SWAP1 POP SWAP2 SWAP1 POP JUMP JUMPDEST PUSH1 0x0 PUSH1 0x20 DUP3 ADD SWAP1 POP DUP2 DUP2 SUB PUSH1 0x0 DUP4 ADD MSTORE PUSH2 0x12E0 DUP2 PUSH2 0x12A4 JUMP JUMPDEST SWAP1 POP SWAP2 SWAP1 POP JUMP JUMPDEST PUSH1 0x0 DUP2 MLOAD SWAP1 POP SWAP2 SWAP1 POP JUMP JUMPDEST PUSH1 0x0 DUP2 SWAP1 POP SWAP3 SWAP2 POP POP JUMP JUMPDEST PUSH1 0x0 JUMPDEST DUP4 DUP2 LT ISZERO PUSH2 0x131B JUMPI DUP1 DUP3 ADD MLOAD DUP2 DUP5 ADD MSTORE PUSH1 0x20 DUP2 ADD SWAP1 POP PUSH2 0x1300 JUMP JUMPDEST DUP4 DUP2 GT ISZERO PUSH2 0x132A JUMPI PUSH1 0x0 DUP5 DUP5 ADD MSTORE JUMPDEST POP POP POP POP JUMP JUMPDEST PUSH1 0x0 PUSH2 0x133B DUP3 PUSH2 0x12E7 JUMP JUMPDEST PUSH2 0x1345 DUP2 DUP6 PUSH2 0x12F2 JUMP JUMPDEST SWAP4 POP PUSH2 0x1355 DUP2 DUP6 PUSH1 0x20 DUP7 ADD PUSH2 0x12FD JUMP JUMPDEST DUP1 DUP5 ADD SWAP2 POP POP SWAP3 SWAP2 POP POP JUMP JUMPDEST PUSH1 0x0 PUSH2 0x136D DUP3 DUP5 PUSH2 0x1330 JUMP JUMPDEST SWAP2 POP DUP2 SWAP1 POP SWAP3 SWAP2 POP POP JUMP JUMPDEST PUSH32 0x5468652067726F75702068617320657869737400000000000000000000000000 PUSH1 0x0 DUP3 ADD MSTORE POP JUMP JUMPDEST PUSH1 0x0 PUSH2 0x13AE PUSH1 0x13 DUP4 PUSH2 0x126A JUMP JUMPDEST SWAP2 POP PUSH2 0x13B9 DUP3 PUSH2 0x1378 JUMP JUMPDEST PUSH1 0x20 DUP3 ADD SWAP1 POP SWAP2 SWAP1 POP JUMP JUMPDEST PUSH1 0x0 PUSH1 0x20 DUP3 ADD SWAP1 POP DUP2 DUP2 SUB PUSH1 0x0 DUP4 ADD MSTORE PUSH2 0x13DD DUP2 PUSH2 0x13A1 JUMP JUMPDEST SWAP1 POP SWAP2 SWAP1 POP JUMP JUMPDEST PUSH1 0x0 PUSH2 0x13EF DUP3 PUSH2 0x12E7 JUMP JUMPDEST PUSH2 0x13F9 DUP2 DUP6 PUSH2 0x126A JUMP JUMPDEST SWAP4 POP PUSH2 0x1409 DUP2 DUP6 PUSH1 0x20 DUP7 ADD PUSH2 0x12FD JUMP JUMPDEST PUSH2 0x1412 DUP2 PUSH2 0x1011 JUMP JUMPDEST DUP5 ADD SWAP2 POP POP SWAP3 SWAP2 POP POP JUMP JUMPDEST PUSH32 0x4E487B7100000000000000000000000000000000000000000000000000000000 PUSH1 0x0 MSTORE PUSH1 0x22 PUSH1 0x4 MSTORE PUSH1 0x24 PUSH1 0x0 REVERT JUMPDEST PUSH1 0x0 PUSH1 0x2 DUP3 DIV SWAP1 POP PUSH1 0x1 DUP3 AND DUP1 PUSH2 0x1464 JUMPI PUSH1 0x7F DUP3 AND SWAP2 POP JUMPDEST PUSH1 0x20 DUP3 LT DUP2 EQ ISZERO PUSH2 0x1478 JUMPI PUSH2 0x1477 PUSH2 0x141D JUMP JUMPDEST JUMPDEST POP SWAP2 SWAP1 POP JUMP JUMPDEST PUSH1 0x0 DUP2 SWAP1 POP DUP2 PUSH1 0x0 MSTORE PUSH1 0x20 PUSH1 0x0 KECCAK256 SWAP1 POP SWAP2 SWAP1 POP JUMP JUMPDEST PUSH1 0x0 DUP2 SLOAD PUSH2 0x14A0 DUP2 PUSH2 0x144C JUMP JUMPDEST PUSH2 0x14AA DUP2 DUP7 PUSH2 0x126A JUMP JUMPDEST SWAP5 POP PUSH1 0x1 DUP3 AND PUSH1 0x0 DUP2 EQ PUSH2 0x14C5 JUMPI PUSH1 0x1 DUP2 EQ PUSH2 0x14D7 JUMPI PUSH2 0x150A JUMP JUMPDEST PUSH1 0xFF NOT DUP4 AND DUP7 MSTORE PUSH1 0x20 DUP7 ADD SWAP4 POP PUSH2 0x150A JUMP JUMPDEST PUSH2 0x14E0 DUP6 PUSH2 0x147E JUMP JUMPDEST PUSH1 0x0 JUMPDEST DUP4 DUP2 LT ISZERO PUSH2 0x1502 JUMPI DUP2 SLOAD DUP2 DUP10 ADD MSTORE PUSH1 0x1 DUP3 ADD SWAP2 POP PUSH1 0x20 DUP2 ADD SWAP1 POP PUSH2 0x14E3 JUMP JUMPDEST DUP1 DUP9 ADD SWAP6 POP POP POP JUMPDEST POP POP POP SWAP3 SWAP2 POP POP JUMP JUMPDEST PUSH1 0x0 PUSH1 0x40 DUP3 ADD SWAP1 POP DUP2 DUP2 SUB PUSH1 0x0 DUP4 ADD MSTORE PUSH2 0x152D DUP2 DUP6 PUSH2 0x13E4 JUMP JUMPDEST SWAP1 POP DUP2 DUP2 SUB PUSH1 0x20 DUP4 ADD MSTORE PUSH2 0x1541 DUP2 DUP5 PUSH2 0x1493 JUMP JUMPDEST SWAP1 POP SWAP4 SWAP3 POP POP POP JUMP JUMPDEST PUSH32 0x54686520576F726B657220686173206265656E2064656C657465640000000000 PUSH1 0x0 DUP3 ADD MSTORE POP JUMP JUMPDEST PUSH1 0x0 PUSH2 0x1580 PUSH1 0x1B DUP4 PUSH2 0x126A JUMP JUMPDEST SWAP2 POP PUSH2 0x158B DUP3 PUSH2 0x154A JUMP JUMPDEST PUSH1 0x20 DUP3 ADD SWAP1 POP SWAP2 SWAP1 POP JUMP JUMPDEST PUSH1 0x0 PUSH1 0x20 DUP3 ADD SWAP1 POP DUP2 DUP2 SUB PUSH1 0x0 DUP4 ADD MSTORE PUSH2 0x15AF DUP2 PUSH2 0x1573 JUMP JUMPDEST SWAP1 POP SWAP2 SWAP1 POP JUMP JUMPDEST PUSH32 0x54686520776F726B657220686173206265656E20616464656400000000000000 PUSH1 0x0 DUP3 ADD MSTORE POP JUMP JUMPDEST PUSH1 0x0 PUSH2 0x15EC PUSH1 0x19 DUP4 PUSH2 0x126A JUMP JUMPDEST SWAP2 POP PUSH2 0x15F7 DUP3 PUSH2 0x15B6 JUMP JUMPDEST PUSH1 0x20 DUP3 ADD SWAP1 POP SWAP2 SWAP1 POP JUMP JUMPDEST PUSH1 0x0 PUSH1 0x20 DUP3 ADD SWAP1 POP DUP2 DUP2 SUB PUSH1 0x0 DUP4 ADD MSTORE PUSH2 0x161B DUP2 PUSH2 0x15DF JUMP JUMPDEST SWAP1 POP SWAP2 SWAP1 POP JUMP JUMPDEST PUSH32 0x556E417574686F72697A65644163636F756E7400000000000000000000000000 PUSH1 0x0 DUP3 ADD MSTORE POP JUMP JUMPDEST PUSH1 0x0 PUSH2 0x1658 PUSH1 0x13 DUP4 PUSH2 0x126A JUMP JUMPDEST SWAP2 POP PUSH2 0x1663 DUP3 PUSH2 0x1622 JUMP JUMPDEST PUSH1 0x20 DUP3 ADD SWAP1 POP SWAP2 SWAP1 POP JUMP JUMPDEST PUSH1 0x0 PUSH1 0x20 DUP3 ADD SWAP1 POP DUP2 DUP2 SUB PUSH1 0x0 DUP4 ADD MSTORE PUSH2 0x1687 DUP2 PUSH2 0x164B JUMP JUMPDEST SWAP1 POP SWAP2 SWAP1 POP JUMP JUMPDEST PUSH32 0x4E6F2067726F757020666F756E64000000000000000000000000000000000000 PUSH1 0x0 DUP3 ADD MSTORE POP JUMP JUMPDEST PUSH1 0x0 PUSH2 0x16C4 PUSH1 0xE DUP4 PUSH2 0x126A JUMP JUMPDEST SWAP2 POP PUSH2 0x16CF DUP3 PUSH2 0x168E JUMP JUMPDEST PUSH1 0x20 DUP3 ADD SWAP1 POP SWAP2 SWAP1 POP JUMP JUMPDEST PUSH1 0x0 PUSH1 0x20 DUP3 ADD SWAP1 POP DUP2 DUP2 SUB PUSH1 0x0 DUP4 ADD MSTORE PUSH2 0x16F3 DUP2 PUSH2 0x16B7 JUMP JUMPDEST SWAP1 POP SWAP2 SWAP1 POP JUMP JUMPDEST PUSH32 0x4E487B7100000000000000000000000000000000000000000000000000000000 PUSH1 0x0 MSTORE PUSH1 0x11 PUSH1 0x4 MSTORE PUSH1 0x24 PUSH1 0x0 REVERT JUMPDEST PUSH1 0x0 DUP2 SWAP1 POP SWAP2 SWAP1 POP JUMP JUMPDEST PUSH1 0x0 PUSH2 0x173E DUP3 PUSH2 0x1729 JUMP JUMPDEST SWAP2 POP PUSH32 0xFFFFFFFFFFFFFFFFFFFFFFFFFFFFFFFFFFFFFFFFFFFFFFFFFFFFFFFFFFFFFFFF DUP3 EQ ISZERO PUSH2 0x1771 JUMPI PUSH2 0x1770 PUSH2 0x16FA JUMP JUMPDEST JUMPDEST PUSH1 0x1 DUP3 ADD SWAP1 POP SWAP2 SWAP1 POP JUMP INVALID LOG2 PUSH5 0x6970667358 0x22 SLT KECCAK256 INVALID 0xEB KECCAK256 COINBASE 0xA6 XOR PUSH23 0xAB36726E0C078365B6BE4E8211D35F91EFC557145718D9 0xEE SWAP7 PUSH5 0x736F6C6343 STOP ADDMOD SIGNEXTEND STOP CALLER "
				},
				"gasEstimates": {
					"creation": {
						"codeDepositCost": "1213200",
						"executionCost": "25712",
						"totalCost": "1238912"
					},
					"external": {
						"ADMIN_ROLE()": "352",
						"DEFAULT_ADMIN()": "357",
						"WORKER_ROLE()": "418",
						"addDataGroup(string)": "infinite",
						"addDataInGroup(string,string)": "infinite",
						"addWorker(string,address)": "infinite",
						"checkRole(bytes32)": "3114",
						"getRoleAdmin(bytes32)": "infinite",
						"grantRole(bytes32,address)": "infinite",
						"hasRole(bytes32,address)": "3185",
						"removedWorker(string)": "infinite",
						"renounceRole(bytes32,address)": "infinite",
						"revokeRole(bytes32,address)": "infinite"
					}
				},
				"methodIdentifiers": {
					"ADMIN_ROLE()": "75b238fc",
					"DEFAULT_ADMIN()": "9cdeba95",
					"WORKER_ROLE()": "634252dc",
					"addDataGroup(string)": "5d0f4293",
					"addDataInGroup(string,string)": "e1b64774",
					"addWorker(string,address)": "95aec814",
					"checkRole(bytes32)": "c5b95190",
					"getRoleAdmin(bytes32)": "248a9ca3",
					"grantRole(bytes32,address)": "2f2ff15d",
					"hasRole(bytes32,address)": "91d14854",
					"removedWorker(string)": "7350fca2",
					"renounceRole(bytes32,address)": "36568abe",
					"revokeRole(bytes32,address)": "d547741f"
				}
			},
			"storageLayout": {
				"storage": [
					{
						"astId": 296,
						"contract": "1127/CompanyLogic.sol:CompanyLogic",
						"label": "roles",
						"offset": 0,
						"slot": "0",
						"type": "t_mapping(t_bytes32,t_struct(RoleData)288_storage)"
					},
					{
						"astId": 7,
						"contract": "1127/CompanyLogic.sol:CompanyLogic",
						"label": "implementationAddress",
						"offset": 0,
						"slot": "1",
						"type": "t_address"
					},
					{
						"astId": 9,
						"contract": "1127/CompanyLogic.sol:CompanyLogic",
						"label": "company_name",
						"offset": 0,
						"slot": "2",
						"type": "t_string_storage"
					},
					{
						"astId": 24,
						"contract": "1127/CompanyLogic.sol:CompanyLogic",
						"label": "workerList",
						"offset": 0,
						"slot": "3",
						"type": "t_mapping(t_string_memory_ptr,t_struct(Worker)278_storage)"
					},
					{
						"astId": 29,
						"contract": "1127/CompanyLogic.sol:CompanyLogic",
						"label": "dataGroupList",
						"offset": 0,
						"slot": "4",
						"type": "t_mapping(t_string_memory_ptr,t_struct(AssetGroup)270_storage)"
					}
				],
				"types": {
					"t_address": {
						"encoding": "inplace",
						"label": "address",
						"numberOfBytes": "20"
					},
					"t_bool": {
						"encoding": "inplace",
						"label": "bool",
						"numberOfBytes": "1"
					},
					"t_bytes32": {
						"encoding": "inplace",
						"label": "bytes32",
						"numberOfBytes": "32"
					},
					"t_mapping(t_address,t_bool)": {
						"encoding": "mapping",
						"key": "t_address",
						"label": "mapping(address => bool)",
						"numberOfBytes": "32",
						"value": "t_bool"
					},
					"t_mapping(t_bytes32,t_struct(RoleData)288_storage)": {
						"encoding": "mapping",
						"key": "t_bytes32",
						"label": "mapping(bytes32 => struct AccessControl.RoleData)",
						"numberOfBytes": "32",
						"value": "t_struct(RoleData)288_storage"
					},
					"t_mapping(t_string_memory_ptr,t_struct(AssetGroup)270_storage)": {
						"encoding": "mapping",
						"key": "t_string_memory_ptr",
						"label": "mapping(string => struct DataStruct.AssetGroup)",
						"numberOfBytes": "32",
						"value": "t_struct(AssetGroup)270_storage"
					},
					"t_mapping(t_string_memory_ptr,t_struct(Worker)278_storage)": {
						"encoding": "mapping",
						"key": "t_string_memory_ptr",
						"label": "mapping(string => struct DataStruct.Worker)",
						"numberOfBytes": "32",
						"value": "t_struct(Worker)278_storage"
					},
					"t_mapping(t_uint256,t_struct(Asset)273_storage)": {
						"encoding": "mapping",
						"key": "t_uint256",
						"label": "mapping(uint256 => struct DataStruct.Asset)",
						"numberOfBytes": "32",
						"value": "t_struct(Asset)273_storage"
					},
					"t_string_memory_ptr": {
						"encoding": "bytes",
						"label": "string",
						"numberOfBytes": "32"
					},
					"t_string_storage": {
						"encoding": "bytes",
						"label": "string",
						"numberOfBytes": "32"
					},
					"t_struct(Asset)273_storage": {
						"encoding": "inplace",
						"label": "struct DataStruct.Asset",
						"members": [
							{
								"astId": 272,
								"contract": "1127/CompanyLogic.sol:CompanyLogic",
								"label": "cid",
								"offset": 0,
								"slot": "0",
								"type": "t_string_storage"
							}
						],
						"numberOfBytes": "32"
					},
					"t_struct(AssetGroup)270_storage": {
						"encoding": "inplace",
						"label": "struct DataStruct.AssetGroup",
						"members": [
							{
								"astId": 265,
								"contract": "1127/CompanyLogic.sol:CompanyLogic",
								"label": "assets",
								"offset": 0,
								"slot": "0",
								"type": "t_mapping(t_uint256,t_struct(Asset)273_storage)"
							},
							{
								"astId": 267,
								"contract": "1127/CompanyLogic.sol:CompanyLogic",
								"label": "assetSize",
								"offset": 0,
								"slot": "1",
								"type": "t_uint256"
							},
							{
								"astId": 269,
								"contract": "1127/CompanyLogic.sol:CompanyLogic",
								"label": "isOpen",
								"offset": 0,
								"slot": "2",
								"type": "t_bool"
							}
						],
						"numberOfBytes": "96"
					},
					"t_struct(RoleData)288_storage": {
						"encoding": "inplace",
						"label": "struct AccessControl.RoleData",
						"members": [
							{
								"astId": 285,
								"contract": "1127/CompanyLogic.sol:CompanyLogic",
								"label": "hasRoles",
								"offset": 0,
								"slot": "0",
								"type": "t_mapping(t_address,t_bool)"
							},
							{
								"astId": 287,
								"contract": "1127/CompanyLogic.sol:CompanyLogic",
								"label": "adminRole",
								"offset": 0,
								"slot": "1",
								"type": "t_bytes32"
							}
						],
						"numberOfBytes": "64"
					},
					"t_struct(Worker)278_storage": {
						"encoding": "inplace",
						"label": "struct DataStruct.Worker",
						"members": [
							{
								"astId": 275,
								"contract": "1127/CompanyLogic.sol:CompanyLogic",
								"label": "did",
								"offset": 0,
								"slot": "0",
								"type": "t_string_storage"
							},
							{
								"astId": 277,
								"contract": "1127/CompanyLogic.sol:CompanyLogic",
								"label": "addr",
								"offset": 0,
								"slot": "1",
								"type": "t_address"
							}
						],
						"numberOfBytes": "64"
					},
					"t_uint256": {
						"encoding": "inplace",
						"label": "uint256",
						"numberOfBytes": "32"
					}
				}
			},
			"userdoc": {
				"kind": "user",
				"methods": {
					"addWorker(string,address)": {
						"notice": "增加员工*"
					},
					"removedWorker(string)": {
						"notice": "删除员工*"
					}
				},
				"version": 1
			}
		}
	}
}