{
	"1127/util/BaseAccessControl.sol": {
		"BaseAccessControl": {
			"abi": [
				{
					"inputs": [
						{
							"internalType": "address",
							"name": "admin",
							"type": "address"
						}
					],
					"stateMutability": "nonpayable",
					"type": "constructor"
				},
				{
					"anonymous": false,
					"inputs": [
						{
							"indexed": true,
							"internalType": "bytes32",
							"name": "role",
							"type": "bytes32"
						},
						{
							"indexed": true,
							"internalType": "bytes32",
							"name": "previousAdminRole",
							"type": "bytes32"
						},
						{
							"indexed": true,
							"internalType": "bytes32",
							"name": "newAdminRole",
							"type": "bytes32"
						}
					],
					"name": "RoleAdminChanged",
					"type": "event"
				},
				{
					"anonymous": false,
					"inputs": [
						{
							"indexed": true,
							"internalType": "bytes32",
							"name": "role",
							"type": "bytes32"
						},
						{
							"indexed": true,
							"internalType": "address",
							"name": "account",
							"type": "address"
						},
						{
							"indexed": true,
							"internalType": "address",
							"name": "sender",
							"type": "address"
						}
					],
					"name": "RoleGranted",
					"type": "event"
				},
				{
					"anonymous": false,
					"inputs": [
						{
							"indexed": true,
							"internalType": "bytes32",
							"name": "role",
							"type": "bytes32"
						},
						{
							"indexed": true,
							"internalType": "address",
							"name": "account",
							"type": "address"
						},
						{
							"indexed": true,
							"internalType": "address",
							"name": "sender",
							"type": "address"
						}
					],
					"name": "RoleRevoked",
					"type": "event"
				},
				{
					"inputs": [],
					"name": "DEFAULT_ADMIN",
					"outputs": [
						{
							"internalType": "bytes32",
							"name": "",
							"type": "bytes32"
						}
					],
					"stateMutability": "view",
					"type": "function"
				},
				{
					"inputs": [
						{
							"internalType": "bytes32",
							"name": "role",
							"type": "bytes32"
						}
					],
					"name": "checkRole",
					"outputs": [
						{
							"internalType": "bool",
							"name": "",
							"type": "bool"
						}
					],
					"stateMutability": "view",
					"type": "function"
				},
				{
					"inputs": [
						{
							"internalType": "bytes32",
							"name": "role",
							"type": "bytes32"
						}
					],
					"name": "getRoleAdmin",
					"outputs": [
						{
							"internalType": "bytes32",
							"name": "",
							"type": "bytes32"
						}
					],
					"stateMutability": "view",
					"type": "function"
				},
				{
					"inputs": [
						{
							"internalType": "bytes32",
							"name": "role",
							"type": "bytes32"
						},
						{
							"internalType": "address",
							"name": "member",
							"type": "address"
						}
					],
					"name": "grantRole",
					"outputs": [
						{
							"internalType": "bool",
							"name": "",
							"type": "bool"
						}
					],
					"stateMutability": "nonpayable",
					"type": "function"
				},
				{
					"inputs": [
						{
							"internalType": "bytes32",
							"name": "role",
							"type": "bytes32"
						},
						{
							"internalType": "address",
							"name": "member",
							"type": "address"
						}
					],
					"name": "hasRole",
					"outputs": [
						{
							"internalType": "bool",
							"name": "",
							"type": "bool"
						}
					],
					"stateMutability": "view",
					"type": "function"
				},
				{
					"inputs": [
						{
							"internalType": "bytes32",
							"name": "role",
							"type": "bytes32"
						},
						{
							"internalType": "address",
							"name": "callerConfirmation",
							"type": "address"
						}
					],
					"name": "renounceRole",
					"outputs": [],
					"stateMutability": "nonpayable",
					"type": "function"
				},
				{
					"inputs": [
						{
							"internalType": "bytes32",
							"name": "role",
							"type": "bytes32"
						},
						{
							"internalType": "address",
							"name": "member",
							"type": "address"
						}
					],
					"name": "revokeRole",
					"outputs": [
						{
							"internalType": "bool",
							"name": "",
							"type": "bool"
						}
					],
					"stateMutability": "nonpayable",
					"type": "function"
				}
			],
			"devdoc": {
				"kind": "dev",
				"methods": {},
				"version": 1
			},
			"evm": {
				"assembly": "    /* \"1127/util/BaseAccessControl.sol\":78:2792  contract BaseAccessControl {... */\n  mstore(0x40, 0x80)\n    /* \"1127/util/BaseAccessControl.sol\":899:985  constructor(address admin){... */\n  callvalue\n  dup1\n  iszero\n  tag_1\n  jumpi\n  0x00\n  dup1\n  revert\ntag_1:\n  pop\n  mload(0x40)\n  sub(codesize, bytecodeSize)\n  dup1\n  bytecodeSize\n  dup4\n  codecopy\n  dup2\n  dup2\n  add\n  0x40\n  mstore\n  dup2\n  add\n  swap1\n  tag_2\n  swap2\n  swap1\n  tag_3\n  jump\t// in\ntag_2:\n    /* \"1127/util/BaseAccessControl.sol\":974:978  true */\n  0x01\n    /* \"1127/util/BaseAccessControl.sol\":935:940  roles */\n  0x00\n    /* \"1127/util/BaseAccessControl.sol\":935:955  roles[DEFAULT_ADMIN] */\n  dup1\n    /* \"1127/util/BaseAccessControl.sol\":250:254  0x00 */\n  dup1\n    /* \"1127/util/BaseAccessControl.sol\":941:954  DEFAULT_ADMIN */\n  0x00\n  shl\n    /* \"1127/util/BaseAccessControl.sol\":935:955  roles[DEFAULT_ADMIN] */\n  dup2\n  mstore\n  0x20\n  add\n  swap1\n  dup2\n  mstore\n  0x20\n  add\n  0x00\n  keccak256\n    /* \"1127/util/BaseAccessControl.sol\":935:964  roles[DEFAULT_ADMIN].hasRoles */\n  0x00\n  add\n    /* \"1127/util/BaseAccessControl.sol\":935:971  roles[DEFAULT_ADMIN].hasRoles[admin] */\n  0x00\n    /* \"1127/util/BaseAccessControl.sol\":965:970  admin */\n  dup4\n    /* \"1127/util/BaseAccessControl.sol\":935:971  roles[DEFAULT_ADMIN].hasRoles[admin] */\n  0xffffffffffffffffffffffffffffffffffffffff\n  and\n  0xffffffffffffffffffffffffffffffffffffffff\n  and\n  dup2\n  mstore\n  0x20\n  add\n  swap1\n  dup2\n  mstore\n  0x20\n  add\n  0x00\n  keccak256\n  0x00\n    /* \"1127/util/BaseAccessControl.sol\":935:978  roles[DEFAULT_ADMIN].hasRoles[admin] = true */\n  0x0100\n  exp\n  dup2\n  sload\n  dup2\n  0xff\n  mul\n  not\n  and\n  swap1\n  dup4\n  iszero\n  iszero\n  mul\n  or\n  swap1\n  sstore\n  pop\n    /* \"1127/util/BaseAccessControl.sol\":899:985  constructor(address admin){... */\n  pop\n    /* \"1127/util/BaseAccessControl.sol\":78:2792  contract BaseAccessControl {... */\n  jump(tag_6)\n    /* \"#utility.yul\":88:205   */\ntag_8:\n    /* \"#utility.yul\":197:198   */\n  0x00\n    /* \"#utility.yul\":194:195   */\n  dup1\n    /* \"#utility.yul\":187:199   */\n  revert\n    /* \"#utility.yul\":334:460   */\ntag_10:\n    /* \"#utility.yul\":371:378   */\n  0x00\n    /* \"#utility.yul\":411:453   */\n  0xffffffffffffffffffffffffffffffffffffffff\n    /* \"#utility.yul\":404:409   */\n  dup3\n    /* \"#utility.yul\":400:454   */\n  and\n    /* \"#utility.yul\":389:454   */\n  swap1\n  pop\n    /* \"#utility.yul\":334:460   */\n  swap2\n  swap1\n  pop\n  jump\t// out\n    /* \"#utility.yul\":466:562   */\ntag_11:\n    /* \"#utility.yul\":503:510   */\n  0x00\n    /* \"#utility.yul\":532:556   */\n  tag_20\n    /* \"#utility.yul\":550:555   */\n  dup3\n    /* \"#utility.yul\":532:556   */\n  tag_10\n  jump\t// in\ntag_20:\n    /* \"#utility.yul\":521:556   */\n  swap1\n  pop\n    /* \"#utility.yul\":466:562   */\n  swap2\n  swap1\n  pop\n  jump\t// out\n    /* \"#utility.yul\":568:690   */\ntag_12:\n    /* \"#utility.yul\":641:665   */\n  tag_22\n    /* \"#utility.yul\":659:664   */\n  dup2\n    /* \"#utility.yul\":641:665   */\n  tag_11\n  jump\t// in\ntag_22:\n    /* \"#utility.yul\":634:639   */\n  dup2\n    /* \"#utility.yul\":631:666   */\n  eq\n    /* \"#utility.yul\":621:684   */\n  tag_23\n  jumpi\n    /* \"#utility.yul\":680:681   */\n  0x00\n    /* \"#utility.yul\":677:678   */\n  dup1\n    /* \"#utility.yul\":670:682   */\n  revert\n    /* \"#utility.yul\":621:684   */\ntag_23:\n    /* \"#utility.yul\":568:690   */\n  pop\n  jump\t// out\n    /* \"#utility.yul\":696:839   */\ntag_13:\n    /* \"#utility.yul\":753:758   */\n  0x00\n    /* \"#utility.yul\":784:790   */\n  dup2\n    /* \"#utility.yul\":778:791   */\n  mload\n    /* \"#utility.yul\":769:791   */\n  swap1\n  pop\n    /* \"#utility.yul\":800:833   */\n  tag_25\n    /* \"#utility.yul\":827:832   */\n  dup2\n    /* \"#utility.yul\":800:833   */\n  tag_12\n  jump\t// in\ntag_25:\n    /* \"#utility.yul\":696:839   */\n  swap3\n  swap2\n  pop\n  pop\n  jump\t// out\n    /* \"#utility.yul\":845:1196   */\ntag_3:\n    /* \"#utility.yul\":915:921   */\n  0x00\n    /* \"#utility.yul\":964:966   */\n  0x20\n    /* \"#utility.yul\":952:961   */\n  dup3\n    /* \"#utility.yul\":943:950   */\n  dup5\n    /* \"#utility.yul\":939:962   */\n  sub\n    /* \"#utility.yul\":935:967   */\n  slt\n    /* \"#utility.yul\":932:1051   */\n  iszero\n  tag_27\n  jumpi\n    /* \"#utility.yul\":970:1049   */\n  tag_28\n  tag_8\n  jump\t// in\ntag_28:\n    /* \"#utility.yul\":932:1051   */\ntag_27:\n    /* \"#utility.yul\":1090:1091   */\n  0x00\n    /* \"#utility.yul\":1115:1179   */\n  tag_29\n    /* \"#utility.yul\":1171:1178   */\n  dup5\n    /* \"#utility.yul\":1162:1168   */\n  dup3\n    /* \"#utility.yul\":1151:1160   */\n  dup6\n    /* \"#utility.yul\":1147:1169   */\n  add\n    /* \"#utility.yul\":1115:1179   */\n  tag_13\n  jump\t// in\ntag_29:\n    /* \"#utility.yul\":1105:1179   */\n  swap2\n  pop\n    /* \"#utility.yul\":1061:1189   */\n  pop\n    /* \"#utility.yul\":845:1196   */\n  swap3\n  swap2\n  pop\n  pop\n  jump\t// out\n    /* \"1127/util/BaseAccessControl.sol\":78:2792  contract BaseAccessControl {... */\ntag_6:\n  dataSize(sub_0)\n  dup1\n  dataOffset(sub_0)\n  0x00\n  codecopy\n  0x00\n  return\nstop\n\nsub_0: assembly {\n        /* \"1127/util/BaseAccessControl.sol\":78:2792  contract BaseAccessControl {... */\n      mstore(0x40, 0x80)\n      callvalue\n      dup1\n      iszero\n      tag_1\n      jumpi\n      0x00\n      dup1\n      revert\n    tag_1:\n      pop\n      jumpi(tag_2, lt(calldatasize, 0x04))\n      shr(0xe0, calldataload(0x00))\n      dup1\n      0x91d14854\n      gt\n      tag_10\n      jumpi\n      dup1\n      0x91d14854\n      eq\n      tag_6\n      jumpi\n      dup1\n      0x9cdeba95\n      eq\n      tag_7\n      jumpi\n      dup1\n      0xc5b95190\n      eq\n      tag_8\n      jumpi\n      dup1\n      0xd547741f\n      eq\n      tag_9\n      jumpi\n      jump(tag_2)\n    tag_10:\n      dup1\n      0x248a9ca3\n      eq\n      tag_3\n      jumpi\n      dup1\n      0x2f2ff15d\n      eq\n      tag_4\n      jumpi\n      dup1\n      0x36568abe\n      eq\n      tag_5\n      jumpi\n    tag_2:\n      0x00\n      dup1\n      revert\n        /* \"1127/util/BaseAccessControl.sol\":1383:1494  function getRoleAdmin(bytes32 role) public view returns (bytes32) {... */\n    tag_3:\n      tag_11\n      0x04\n      dup1\n      calldatasize\n      sub\n      dup2\n      add\n      swap1\n      tag_12\n      swap2\n      swap1\n      tag_13\n      jump\t// in\n    tag_12:\n      tag_14\n      jump\t// in\n    tag_11:\n      mload(0x40)\n      tag_15\n      swap2\n      swap1\n      tag_16\n      jump\t// in\n    tag_15:\n      mload(0x40)\n      dup1\n      swap2\n      sub\n      swap1\n      return\n        /* \"1127/util/BaseAccessControl.sol\":1780:2106  function grantRole(bytes32 role, address member)... */\n    tag_4:\n      tag_17\n      0x04\n      dup1\n      calldatasize\n      sub\n      dup2\n      add\n      swap1\n      tag_18\n      swap2\n      swap1\n      tag_19\n      jump\t// in\n    tag_18:\n      tag_20\n      jump\t// in\n    tag_17:\n      mload(0x40)\n      tag_21\n      swap2\n      swap1\n      tag_22\n      jump\t// in\n    tag_21:\n      mload(0x40)\n      dup1\n      swap2\n      sub\n      swap1\n      return\n        /* \"1127/util/BaseAccessControl.sol\":2548:2790  function renounceRole(bytes32 role, address callerConfirmation)... */\n    tag_5:\n      tag_23\n      0x04\n      dup1\n      calldatasize\n      sub\n      dup2\n      add\n      swap1\n      tag_24\n      swap2\n      swap1\n      tag_19\n      jump\t// in\n    tag_24:\n      tag_25\n      jump\t// in\n    tag_23:\n      stop\n        /* \"1127/util/BaseAccessControl.sol\":1213:1339  function hasRole(bytes32 role, address member) public view returns (bool) {... */\n    tag_6:\n      tag_26\n      0x04\n      dup1\n      calldatasize\n      sub\n      dup2\n      add\n      swap1\n      tag_27\n      swap2\n      swap1\n      tag_19\n      jump\t// in\n    tag_27:\n      tag_28\n      jump\t// in\n    tag_26:\n      mload(0x40)\n      tag_29\n      swap2\n      swap1\n      tag_22\n      jump\t// in\n    tag_29:\n      mload(0x40)\n      dup1\n      swap2\n      sub\n      swap1\n      return\n        /* \"1127/util/BaseAccessControl.sol\":210:254  bytes32 public constant DEFAULT_ADMIN = 0x00 */\n    tag_7:\n      tag_30\n      tag_31\n      jump\t// in\n    tag_30:\n      mload(0x40)\n      tag_32\n      swap2\n      swap1\n      tag_16\n      jump\t// in\n    tag_32:\n      mload(0x40)\n      dup1\n      swap2\n      sub\n      swap1\n      return\n        /* \"1127/util/BaseAccessControl.sol\":1015:1198  function checkRole(bytes32 role) public view returns (bool) {... */\n    tag_8:\n      tag_33\n      0x04\n      dup1\n      calldatasize\n      sub\n      dup2\n      add\n      swap1\n      tag_34\n      swap2\n      swap1\n      tag_13\n      jump\t// in\n    tag_34:\n      tag_35\n      jump\t// in\n    tag_33:\n      mload(0x40)\n      tag_36\n      swap2\n      swap1\n      tag_22\n      jump\t// in\n    tag_36:\n      mload(0x40)\n      dup1\n      swap2\n      sub\n      swap1\n      return\n        /* \"1127/util/BaseAccessControl.sol\":2156:2485  function revokeRole(bytes32 role, address member)... */\n    tag_9:\n      tag_37\n      0x04\n      dup1\n      calldatasize\n      sub\n      dup2\n      add\n      swap1\n      tag_38\n      swap2\n      swap1\n      tag_19\n      jump\t// in\n    tag_38:\n      tag_39\n      jump\t// in\n    tag_37:\n      mload(0x40)\n      tag_40\n      swap2\n      swap1\n      tag_22\n      jump\t// in\n    tag_40:\n      mload(0x40)\n      dup1\n      swap2\n      sub\n      swap1\n      return\n        /* \"1127/util/BaseAccessControl.sol\":1383:1494  function getRoleAdmin(bytes32 role) public view returns (bytes32) {... */\n    tag_14:\n        /* \"1127/util/BaseAccessControl.sol\":1440:1447  bytes32 */\n      0x00\n        /* \"1127/util/BaseAccessControl.sol\":1466:1471  roles */\n      dup1\n        /* \"1127/util/BaseAccessControl.sol\":1466:1477  roles[role] */\n      0x00\n        /* \"1127/util/BaseAccessControl.sol\":1472:1476  role */\n      dup4\n        /* \"1127/util/BaseAccessControl.sol\":1466:1477  roles[role] */\n      dup2\n      mstore\n      0x20\n      add\n      swap1\n      dup2\n      mstore\n      0x20\n      add\n      0x00\n      keccak256\n        /* \"1127/util/BaseAccessControl.sol\":1466:1487  roles[role].adminRole */\n      0x01\n      add\n      sload\n        /* \"1127/util/BaseAccessControl.sol\":1459:1487  return roles[role].adminRole */\n      swap1\n      pop\n        /* \"1127/util/BaseAccessControl.sol\":1383:1494  function getRoleAdmin(bytes32 role) public view returns (bytes32) {... */\n      swap2\n      swap1\n      pop\n      jump\t// out\n        /* \"1127/util/BaseAccessControl.sol\":1780:2106  function grantRole(bytes32 role, address member)... */\n    tag_20:\n        /* \"1127/util/BaseAccessControl.sol\":1898:1902  bool */\n      0x00\n        /* \"1127/util/BaseAccessControl.sol\":1861:1879  getRoleAdmin(role) */\n      tag_42\n        /* \"1127/util/BaseAccessControl.sol\":1874:1878  role */\n      dup4\n        /* \"1127/util/BaseAccessControl.sol\":1861:1873  getRoleAdmin */\n      tag_14\n        /* \"1127/util/BaseAccessControl.sol\":1861:1879  getRoleAdmin(role) */\n      jump\t// in\n    tag_42:\n        /* \"1127/util/BaseAccessControl.sol\":860:875  checkRole(role) */\n      tag_44\n        /* \"1127/util/BaseAccessControl.sol\":870:874  role */\n      dup2\n        /* \"1127/util/BaseAccessControl.sol\":860:869  checkRole */\n      tag_35\n        /* \"1127/util/BaseAccessControl.sol\":860:875  checkRole(role) */\n      jump\t// in\n    tag_44:\n      pop\n        /* \"1127/util/BaseAccessControl.sol\":1922:1943  hasRole(role, member) */\n      tag_46\n        /* \"1127/util/BaseAccessControl.sol\":1930:1934  role */\n      dup5\n        /* \"1127/util/BaseAccessControl.sol\":1936:1942  member */\n      dup5\n        /* \"1127/util/BaseAccessControl.sol\":1922:1929  hasRole */\n      tag_28\n        /* \"1127/util/BaseAccessControl.sol\":1922:1943  hasRole(role, member) */\n      jump\t// in\n    tag_46:\n        /* \"1127/util/BaseAccessControl.sol\":1918:1982  if (hasRole(role, member)) {... */\n      iszero\n      tag_47\n      jumpi\n        /* \"1127/util/BaseAccessControl.sol\":1966:1971  false */\n      0x00\n        /* \"1127/util/BaseAccessControl.sol\":1959:1971  return false */\n      swap2\n      pop\n      jump(tag_45)\n        /* \"1127/util/BaseAccessControl.sol\":1918:1982  if (hasRole(role, member)) {... */\n    tag_47:\n        /* \"1127/util/BaseAccessControl.sol\":2022:2026  true */\n      0x01\n        /* \"1127/util/BaseAccessControl.sol\":1991:1996  roles */\n      0x00\n        /* \"1127/util/BaseAccessControl.sol\":1991:2002  roles[role] */\n      dup1\n        /* \"1127/util/BaseAccessControl.sol\":1997:2001  role */\n      dup7\n        /* \"1127/util/BaseAccessControl.sol\":1991:2002  roles[role] */\n      dup2\n      mstore\n      0x20\n      add\n      swap1\n      dup2\n      mstore\n      0x20\n      add\n      0x00\n      keccak256\n        /* \"1127/util/BaseAccessControl.sol\":1991:2011  roles[role].hasRoles */\n      0x00\n      add\n        /* \"1127/util/BaseAccessControl.sol\":1991:2019  roles[role].hasRoles[member] */\n      0x00\n        /* \"1127/util/BaseAccessControl.sol\":2012:2018  member */\n      dup6\n        /* \"1127/util/BaseAccessControl.sol\":1991:2019  roles[role].hasRoles[member] */\n      0xffffffffffffffffffffffffffffffffffffffff\n      and\n      0xffffffffffffffffffffffffffffffffffffffff\n      and\n      dup2\n      mstore\n      0x20\n      add\n      swap1\n      dup2\n      mstore\n      0x20\n      add\n      0x00\n      keccak256\n      0x00\n        /* \"1127/util/BaseAccessControl.sol\":1991:2026  roles[role].hasRoles[member] = true */\n      0x0100\n      exp\n      dup2\n      sload\n      dup2\n      0xff\n      mul\n      not\n      and\n      swap1\n      dup4\n      iszero\n      iszero\n      mul\n      or\n      swap1\n      sstore\n      pop\n        /* \"1127/util/BaseAccessControl.sol\":2067:2077  msg.sender */\n      caller\n        /* \"1127/util/BaseAccessControl.sol\":2041:2078  RoleGranted(role, member, msg.sender) */\n      0xffffffffffffffffffffffffffffffffffffffff\n      and\n        /* \"1127/util/BaseAccessControl.sol\":2059:2065  member */\n      dup4\n        /* \"1127/util/BaseAccessControl.sol\":2041:2078  RoleGranted(role, member, msg.sender) */\n      0xffffffffffffffffffffffffffffffffffffffff\n      and\n        /* \"1127/util/BaseAccessControl.sol\":2053:2057  role */\n      dup6\n        /* \"1127/util/BaseAccessControl.sol\":2041:2078  RoleGranted(role, member, msg.sender) */\n      0x2f8788117e7eff1d82e926ec794901d17c78024a50270940304540a733656f0d\n      mload(0x40)\n      mload(0x40)\n      dup1\n      swap2\n      sub\n      swap1\n      log4\n        /* \"1127/util/BaseAccessControl.sol\":2095:2099  true */\n      0x01\n        /* \"1127/util/BaseAccessControl.sol\":2088:2099  return true */\n      swap2\n      pop\n        /* \"1127/util/BaseAccessControl.sol\":885:886  _ */\n    tag_45:\n        /* \"1127/util/BaseAccessControl.sol\":1780:2106  function grantRole(bytes32 role, address member)... */\n      pop\n      swap3\n      swap2\n      pop\n      pop\n      jump\t// out\n        /* \"1127/util/BaseAccessControl.sol\":2548:2790  function renounceRole(bytes32 role, address callerConfirmation)... */\n    tag_25:\n        /* \"1127/util/BaseAccessControl.sol\":2676:2686  msg.sender */\n      caller\n        /* \"1127/util/BaseAccessControl.sol\":2654:2686  callerConfirmation != msg.sender */\n      0xffffffffffffffffffffffffffffffffffffffff\n      and\n        /* \"1127/util/BaseAccessControl.sol\":2654:2672  callerConfirmation */\n      dup2\n        /* \"1127/util/BaseAccessControl.sol\":2654:2686  callerConfirmation != msg.sender */\n      0xffffffffffffffffffffffffffffffffffffffff\n      and\n      eq\n        /* \"1127/util/BaseAccessControl.sol\":2650:2738  if (callerConfirmation != msg.sender) {... */\n      tag_49\n      jumpi\n        /* \"1127/util/BaseAccessControl.sol\":2702:2727  revert(\"BadConfirmation\") */\n      mload(0x40)\n      0x08c379a000000000000000000000000000000000000000000000000000000000\n      dup2\n      mstore\n      0x04\n      add\n      tag_50\n      swap1\n      tag_51\n      jump\t// in\n    tag_50:\n      mload(0x40)\n      dup1\n      swap2\n      sub\n      swap1\n      revert\n        /* \"1127/util/BaseAccessControl.sol\":2650:2738  if (callerConfirmation != msg.sender) {... */\n    tag_49:\n        /* \"1127/util/BaseAccessControl.sol\":2747:2783  revokeRole(role, callerConfirmation) */\n      tag_52\n        /* \"1127/util/BaseAccessControl.sol\":2758:2762  role */\n      dup3\n        /* \"1127/util/BaseAccessControl.sol\":2764:2782  callerConfirmation */\n      dup3\n        /* \"1127/util/BaseAccessControl.sol\":2747:2757  revokeRole */\n      tag_39\n        /* \"1127/util/BaseAccessControl.sol\":2747:2783  revokeRole(role, callerConfirmation) */\n      jump\t// in\n    tag_52:\n      pop\n        /* \"1127/util/BaseAccessControl.sol\":2548:2790  function renounceRole(bytes32 role, address callerConfirmation)... */\n      pop\n      pop\n      jump\t// out\n        /* \"1127/util/BaseAccessControl.sol\":1213:1339  function hasRole(bytes32 role, address member) public view returns (bool) {... */\n    tag_28:\n        /* \"1127/util/BaseAccessControl.sol\":1281:1285  bool */\n      0x00\n        /* \"1127/util/BaseAccessControl.sol\":1304:1309  roles */\n      dup1\n        /* \"1127/util/BaseAccessControl.sol\":1304:1315  roles[role] */\n      0x00\n        /* \"1127/util/BaseAccessControl.sol\":1310:1314  role */\n      dup5\n        /* \"1127/util/BaseAccessControl.sol\":1304:1315  roles[role] */\n      dup2\n      mstore\n      0x20\n      add\n      swap1\n      dup2\n      mstore\n      0x20\n      add\n      0x00\n      keccak256\n        /* \"1127/util/BaseAccessControl.sol\":1304:1324  roles[role].hasRoles */\n      0x00\n      add\n        /* \"1127/util/BaseAccessControl.sol\":1304:1332  roles[role].hasRoles[member] */\n      0x00\n        /* \"1127/util/BaseAccessControl.sol\":1325:1331  member */\n      dup4\n        /* \"1127/util/BaseAccessControl.sol\":1304:1332  roles[role].hasRoles[member] */\n      0xffffffffffffffffffffffffffffffffffffffff\n      and\n      0xffffffffffffffffffffffffffffffffffffffff\n      and\n      dup2\n      mstore\n      0x20\n      add\n      swap1\n      dup2\n      mstore\n      0x20\n      add\n      0x00\n      keccak256\n      0x00\n      swap1\n      sload\n      swap1\n      0x0100\n      exp\n      swap1\n      div\n      0xff\n      and\n        /* \"1127/util/BaseAccessControl.sol\":1297:1332  return roles[role].hasRoles[member] */\n      swap1\n      pop\n        /* \"1127/util/BaseAccessControl.sol\":1213:1339  function hasRole(bytes32 role, address member) public view returns (bool) {... */\n      swap3\n      swap2\n      pop\n      pop\n      jump\t// out\n        /* \"1127/util/BaseAccessControl.sol\":210:254  bytes32 public constant DEFAULT_ADMIN = 0x00 */\n    tag_31:\n        /* \"1127/util/BaseAccessControl.sol\":250:254  0x00 */\n      0x00\n        /* \"1127/util/BaseAccessControl.sol\":210:254  bytes32 public constant DEFAULT_ADMIN = 0x00 */\n      dup1\n      shl\n      dup2\n      jump\t// out\n        /* \"1127/util/BaseAccessControl.sol\":1015:1198  function checkRole(bytes32 role) public view returns (bool) {... */\n    tag_35:\n        /* \"1127/util/BaseAccessControl.sol\":1069:1073  bool */\n      0x00\n        /* \"1127/util/BaseAccessControl.sol\":1090:1115  hasRole(role, msg.sender) */\n      tag_55\n        /* \"1127/util/BaseAccessControl.sol\":1098:1102  role */\n      dup3\n        /* \"1127/util/BaseAccessControl.sol\":1104:1114  msg.sender */\n      caller\n        /* \"1127/util/BaseAccessControl.sol\":1090:1097  hasRole */\n      tag_28\n        /* \"1127/util/BaseAccessControl.sol\":1090:1115  hasRole(role, msg.sender) */\n      jump\t// in\n    tag_55:\n        /* \"1127/util/BaseAccessControl.sol\":1085:1171  if (!hasRole(role, msg.sender)) {... */\n      tag_56\n      jumpi\n        /* \"1127/util/BaseAccessControl.sol\":1131:1160  revert(\"UnAuthorizedAccount\") */\n      mload(0x40)\n      0x08c379a000000000000000000000000000000000000000000000000000000000\n      dup2\n      mstore\n      0x04\n      add\n      tag_57\n      swap1\n      tag_58\n      jump\t// in\n    tag_57:\n      mload(0x40)\n      dup1\n      swap2\n      sub\n      swap1\n      revert\n        /* \"1127/util/BaseAccessControl.sol\":1085:1171  if (!hasRole(role, msg.sender)) {... */\n    tag_56:\n        /* \"1127/util/BaseAccessControl.sol\":1187:1191  true */\n      0x01\n        /* \"1127/util/BaseAccessControl.sol\":1180:1191  return true */\n      swap1\n      pop\n        /* \"1127/util/BaseAccessControl.sol\":1015:1198  function checkRole(bytes32 role) public view returns (bool) {... */\n      swap2\n      swap1\n      pop\n      jump\t// out\n        /* \"1127/util/BaseAccessControl.sol\":2156:2485  function revokeRole(bytes32 role, address member)... */\n    tag_39:\n        /* \"1127/util/BaseAccessControl.sol\":2275:2279  bool */\n      0x00\n        /* \"1127/util/BaseAccessControl.sol\":2238:2256  getRoleAdmin(role) */\n      tag_59\n        /* \"1127/util/BaseAccessControl.sol\":2251:2255  role */\n      dup4\n        /* \"1127/util/BaseAccessControl.sol\":2238:2250  getRoleAdmin */\n      tag_14\n        /* \"1127/util/BaseAccessControl.sol\":2238:2256  getRoleAdmin(role) */\n      jump\t// in\n    tag_59:\n        /* \"1127/util/BaseAccessControl.sol\":860:875  checkRole(role) */\n      tag_61\n        /* \"1127/util/BaseAccessControl.sol\":870:874  role */\n      dup2\n        /* \"1127/util/BaseAccessControl.sol\":860:869  checkRole */\n      tag_35\n        /* \"1127/util/BaseAccessControl.sol\":860:875  checkRole(role) */\n      jump\t// in\n    tag_61:\n      pop\n        /* \"1127/util/BaseAccessControl.sol\":2300:2321  hasRole(role, member) */\n      tag_63\n        /* \"1127/util/BaseAccessControl.sol\":2308:2312  role */\n      dup5\n        /* \"1127/util/BaseAccessControl.sol\":2314:2320  member */\n      dup5\n        /* \"1127/util/BaseAccessControl.sol\":2300:2307  hasRole */\n      tag_28\n        /* \"1127/util/BaseAccessControl.sol\":2300:2321  hasRole(role, member) */\n      jump\t// in\n    tag_63:\n        /* \"1127/util/BaseAccessControl.sol\":2295:2360  if (!hasRole(role, member)) {... */\n      tag_64\n      jumpi\n        /* \"1127/util/BaseAccessControl.sol\":2344:2349  false */\n      0x00\n        /* \"1127/util/BaseAccessControl.sol\":2337:2349  return false */\n      swap2\n      pop\n      jump(tag_62)\n        /* \"1127/util/BaseAccessControl.sol\":2295:2360  if (!hasRole(role, member)) {... */\n    tag_64:\n        /* \"1127/util/BaseAccessControl.sol\":2400:2405  false */\n      0x00\n        /* \"1127/util/BaseAccessControl.sol\":2369:2374  roles */\n      dup1\n        /* \"1127/util/BaseAccessControl.sol\":2369:2380  roles[role] */\n      0x00\n        /* \"1127/util/BaseAccessControl.sol\":2375:2379  role */\n      dup7\n        /* \"1127/util/BaseAccessControl.sol\":2369:2380  roles[role] */\n      dup2\n      mstore\n      0x20\n      add\n      swap1\n      dup2\n      mstore\n      0x20\n      add\n      0x00\n      keccak256\n        /* \"1127/util/BaseAccessControl.sol\":2369:2389  roles[role].hasRoles */\n      0x00\n      add\n        /* \"1127/util/BaseAccessControl.sol\":2369:2397  roles[role].hasRoles[member] */\n      0x00\n        /* \"1127/util/BaseAccessControl.sol\":2390:2396  member */\n      dup6\n        /* \"1127/util/BaseAccessControl.sol\":2369:2397  roles[role].hasRoles[member] */\n      0xffffffffffffffffffffffffffffffffffffffff\n      and\n      0xffffffffffffffffffffffffffffffffffffffff\n      and\n      dup2\n      mstore\n      0x20\n      add\n      swap1\n      dup2\n      mstore\n      0x20\n      add\n      0x00\n      keccak256\n      0x00\n        /* \"1127/util/BaseAccessControl.sol\":2369:2405  roles[role].hasRoles[member] = false */\n      0x0100\n      exp\n      dup2\n      sload\n      dup2\n      0xff\n      mul\n      not\n      and\n      swap1\n      dup4\n      iszero\n      iszero\n      mul\n      or\n      swap1\n      sstore\n      pop\n        /* \"1127/util/BaseAccessControl.sol\":2446:2456  msg.sender */\n      caller\n        /* \"1127/util/BaseAccessControl.sol\":2420:2457  RoleRevoked(role, member, msg.sender) */\n      0xffffffffffffffffffffffffffffffffffffffff\n      and\n        /* \"1127/util/BaseAccessControl.sol\":2438:2444  member */\n      dup4\n        /* \"1127/util/BaseAccessControl.sol\":2420:2457  RoleRevoked(role, member, msg.sender) */\n      0xffffffffffffffffffffffffffffffffffffffff\n      and\n        /* \"1127/util/BaseAccessControl.sol\":2432:2436  role */\n      dup6\n        /* \"1127/util/BaseAccessControl.sol\":2420:2457  RoleRevoked(role, member, msg.sender) */\n      0xf6391f5c32d9c69d2a47ea670b442974b53935d1edc7fd64eb21e047a839171b\n      mload(0x40)\n      mload(0x40)\n      dup1\n      swap2\n      sub\n      swap1\n      log4\n        /* \"1127/util/BaseAccessControl.sol\":2474:2478  true */\n      0x01\n        /* \"1127/util/BaseAccessControl.sol\":2467:2478  return true */\n      swap2\n      pop\n        /* \"1127/util/BaseAccessControl.sol\":885:886  _ */\n    tag_62:\n        /* \"1127/util/BaseAccessControl.sol\":2156:2485  function revokeRole(bytes32 role, address member)... */\n      pop\n      swap3\n      swap2\n      pop\n      pop\n      jump\t// out\n        /* \"#utility.yul\":88:205   */\n    tag_66:\n        /* \"#utility.yul\":197:198   */\n      0x00\n        /* \"#utility.yul\":194:195   */\n      dup1\n        /* \"#utility.yul\":187:199   */\n      revert\n        /* \"#utility.yul\":334:411   */\n    tag_68:\n        /* \"#utility.yul\":371:378   */\n      0x00\n        /* \"#utility.yul\":400:405   */\n      dup2\n        /* \"#utility.yul\":389:405   */\n      swap1\n      pop\n        /* \"#utility.yul\":334:411   */\n      swap2\n      swap1\n      pop\n      jump\t// out\n        /* \"#utility.yul\":417:539   */\n    tag_69:\n        /* \"#utility.yul\":490:514   */\n      tag_89\n        /* \"#utility.yul\":508:513   */\n      dup2\n        /* \"#utility.yul\":490:514   */\n      tag_68\n      jump\t// in\n    tag_89:\n        /* \"#utility.yul\":483:488   */\n      dup2\n        /* \"#utility.yul\":480:515   */\n      eq\n        /* \"#utility.yul\":470:533   */\n      tag_90\n      jumpi\n        /* \"#utility.yul\":529:530   */\n      0x00\n        /* \"#utility.yul\":526:527   */\n      dup1\n        /* \"#utility.yul\":519:531   */\n      revert\n        /* \"#utility.yul\":470:533   */\n    tag_90:\n        /* \"#utility.yul\":417:539   */\n      pop\n      jump\t// out\n        /* \"#utility.yul\":545:684   */\n    tag_70:\n        /* \"#utility.yul\":591:596   */\n      0x00\n        /* \"#utility.yul\":629:635   */\n      dup2\n        /* \"#utility.yul\":616:636   */\n      calldataload\n        /* \"#utility.yul\":607:636   */\n      swap1\n      pop\n        /* \"#utility.yul\":645:678   */\n      tag_92\n        /* \"#utility.yul\":672:677   */\n      dup2\n        /* \"#utility.yul\":645:678   */\n      tag_69\n      jump\t// in\n    tag_92:\n        /* \"#utility.yul\":545:684   */\n      swap3\n      swap2\n      pop\n      pop\n      jump\t// out\n        /* \"#utility.yul\":690:1019   */\n    tag_13:\n        /* \"#utility.yul\":749:755   */\n      0x00\n        /* \"#utility.yul\":798:800   */\n      0x20\n        /* \"#utility.yul\":786:795   */\n      dup3\n        /* \"#utility.yul\":777:784   */\n      dup5\n        /* \"#utility.yul\":773:796   */\n      sub\n        /* \"#utility.yul\":769:801   */\n      slt\n        /* \"#utility.yul\":766:885   */\n      iszero\n      tag_94\n      jumpi\n        /* \"#utility.yul\":804:883   */\n      tag_95\n      tag_66\n      jump\t// in\n    tag_95:\n        /* \"#utility.yul\":766:885   */\n    tag_94:\n        /* \"#utility.yul\":924:925   */\n      0x00\n        /* \"#utility.yul\":949:1002   */\n      tag_96\n        /* \"#utility.yul\":994:1001   */\n      dup5\n        /* \"#utility.yul\":985:991   */\n      dup3\n        /* \"#utility.yul\":974:983   */\n      dup6\n        /* \"#utility.yul\":970:992   */\n      add\n        /* \"#utility.yul\":949:1002   */\n      tag_70\n      jump\t// in\n    tag_96:\n        /* \"#utility.yul\":939:1002   */\n      swap2\n      pop\n        /* \"#utility.yul\":895:1012   */\n      pop\n        /* \"#utility.yul\":690:1019   */\n      swap3\n      swap2\n      pop\n      pop\n      jump\t// out\n        /* \"#utility.yul\":1025:1143   */\n    tag_71:\n        /* \"#utility.yul\":1112:1136   */\n      tag_98\n        /* \"#utility.yul\":1130:1135   */\n      dup2\n        /* \"#utility.yul\":1112:1136   */\n      tag_68\n      jump\t// in\n    tag_98:\n        /* \"#utility.yul\":1107:1110   */\n      dup3\n        /* \"#utility.yul\":1100:1137   */\n      mstore\n        /* \"#utility.yul\":1025:1143   */\n      pop\n      pop\n      jump\t// out\n        /* \"#utility.yul\":1149:1371   */\n    tag_16:\n        /* \"#utility.yul\":1242:1246   */\n      0x00\n        /* \"#utility.yul\":1280:1282   */\n      0x20\n        /* \"#utility.yul\":1269:1278   */\n      dup3\n        /* \"#utility.yul\":1265:1283   */\n      add\n        /* \"#utility.yul\":1257:1283   */\n      swap1\n      pop\n        /* \"#utility.yul\":1293:1364   */\n      tag_100\n        /* \"#utility.yul\":1361:1362   */\n      0x00\n        /* \"#utility.yul\":1350:1359   */\n      dup4\n        /* \"#utility.yul\":1346:1363   */\n      add\n        /* \"#utility.yul\":1337:1343   */\n      dup5\n        /* \"#utility.yul\":1293:1364   */\n      tag_71\n      jump\t// in\n    tag_100:\n        /* \"#utility.yul\":1149:1371   */\n      swap3\n      swap2\n      pop\n      pop\n      jump\t// out\n        /* \"#utility.yul\":1377:1503   */\n    tag_72:\n        /* \"#utility.yul\":1414:1421   */\n      0x00\n        /* \"#utility.yul\":1454:1496   */\n      0xffffffffffffffffffffffffffffffffffffffff\n        /* \"#utility.yul\":1447:1452   */\n      dup3\n        /* \"#utility.yul\":1443:1497   */\n      and\n        /* \"#utility.yul\":1432:1497   */\n      swap1\n      pop\n        /* \"#utility.yul\":1377:1503   */\n      swap2\n      swap1\n      pop\n      jump\t// out\n        /* \"#utility.yul\":1509:1605   */\n    tag_73:\n        /* \"#utility.yul\":1546:1553   */\n      0x00\n        /* \"#utility.yul\":1575:1599   */\n      tag_103\n        /* \"#utility.yul\":1593:1598   */\n      dup3\n        /* \"#utility.yul\":1575:1599   */\n      tag_72\n      jump\t// in\n    tag_103:\n        /* \"#utility.yul\":1564:1599   */\n      swap1\n      pop\n        /* \"#utility.yul\":1509:1605   */\n      swap2\n      swap1\n      pop\n      jump\t// out\n        /* \"#utility.yul\":1611:1733   */\n    tag_74:\n        /* \"#utility.yul\":1684:1708   */\n      tag_105\n        /* \"#utility.yul\":1702:1707   */\n      dup2\n        /* \"#utility.yul\":1684:1708   */\n      tag_73\n      jump\t// in\n    tag_105:\n        /* \"#utility.yul\":1677:1682   */\n      dup2\n        /* \"#utility.yul\":1674:1709   */\n      eq\n        /* \"#utility.yul\":1664:1727   */\n      tag_106\n      jumpi\n        /* \"#utility.yul\":1723:1724   */\n      0x00\n        /* \"#utility.yul\":1720:1721   */\n      dup1\n        /* \"#utility.yul\":1713:1725   */\n      revert\n        /* \"#utility.yul\":1664:1727   */\n    tag_106:\n        /* \"#utility.yul\":1611:1733   */\n      pop\n      jump\t// out\n        /* \"#utility.yul\":1739:1878   */\n    tag_75:\n        /* \"#utility.yul\":1785:1790   */\n      0x00\n        /* \"#utility.yul\":1823:1829   */\n      dup2\n        /* \"#utility.yul\":1810:1830   */\n      calldataload\n        /* \"#utility.yul\":1801:1830   */\n      swap1\n      pop\n        /* \"#utility.yul\":1839:1872   */\n      tag_108\n        /* \"#utility.yul\":1866:1871   */\n      dup2\n        /* \"#utility.yul\":1839:1872   */\n      tag_74\n      jump\t// in\n    tag_108:\n        /* \"#utility.yul\":1739:1878   */\n      swap3\n      swap2\n      pop\n      pop\n      jump\t// out\n        /* \"#utility.yul\":1884:2358   */\n    tag_19:\n        /* \"#utility.yul\":1952:1958   */\n      0x00\n        /* \"#utility.yul\":1960:1966   */\n      dup1\n        /* \"#utility.yul\":2009:2011   */\n      0x40\n        /* \"#utility.yul\":1997:2006   */\n      dup4\n        /* \"#utility.yul\":1988:1995   */\n      dup6\n        /* \"#utility.yul\":1984:2007   */\n      sub\n        /* \"#utility.yul\":1980:2012   */\n      slt\n        /* \"#utility.yul\":1977:2096   */\n      iszero\n      tag_110\n      jumpi\n        /* \"#utility.yul\":2015:2094   */\n      tag_111\n      tag_66\n      jump\t// in\n    tag_111:\n        /* \"#utility.yul\":1977:2096   */\n    tag_110:\n        /* \"#utility.yul\":2135:2136   */\n      0x00\n        /* \"#utility.yul\":2160:2213   */\n      tag_112\n        /* \"#utility.yul\":2205:2212   */\n      dup6\n        /* \"#utility.yul\":2196:2202   */\n      dup3\n        /* \"#utility.yul\":2185:2194   */\n      dup7\n        /* \"#utility.yul\":2181:2203   */\n      add\n        /* \"#utility.yul\":2160:2213   */\n      tag_70\n      jump\t// in\n    tag_112:\n        /* \"#utility.yul\":2150:2213   */\n      swap3\n      pop\n        /* \"#utility.yul\":2106:2223   */\n      pop\n        /* \"#utility.yul\":2262:2264   */\n      0x20\n        /* \"#utility.yul\":2288:2341   */\n      tag_113\n        /* \"#utility.yul\":2333:2340   */\n      dup6\n        /* \"#utility.yul\":2324:2330   */\n      dup3\n        /* \"#utility.yul\":2313:2322   */\n      dup7\n        /* \"#utility.yul\":2309:2331   */\n      add\n        /* \"#utility.yul\":2288:2341   */\n      tag_75\n      jump\t// in\n    tag_113:\n        /* \"#utility.yul\":2278:2341   */\n      swap2\n      pop\n        /* \"#utility.yul\":2233:2351   */\n      pop\n        /* \"#utility.yul\":1884:2358   */\n      swap3\n      pop\n      swap3\n      swap1\n      pop\n      jump\t// out\n        /* \"#utility.yul\":2364:2454   */\n    tag_76:\n        /* \"#utility.yul\":2398:2405   */\n      0x00\n        /* \"#utility.yul\":2441:2446   */\n      dup2\n        /* \"#utility.yul\":2434:2447   */\n      iszero\n        /* \"#utility.yul\":2427:2448   */\n      iszero\n        /* \"#utility.yul\":2416:2448   */\n      swap1\n      pop\n        /* \"#utility.yul\":2364:2454   */\n      swap2\n      swap1\n      pop\n      jump\t// out\n        /* \"#utility.yul\":2460:2569   */\n    tag_77:\n        /* \"#utility.yul\":2541:2562   */\n      tag_116\n        /* \"#utility.yul\":2556:2561   */\n      dup2\n        /* \"#utility.yul\":2541:2562   */\n      tag_76\n      jump\t// in\n    tag_116:\n        /* \"#utility.yul\":2536:2539   */\n      dup3\n        /* \"#utility.yul\":2529:2563   */\n      mstore\n        /* \"#utility.yul\":2460:2569   */\n      pop\n      pop\n      jump\t// out\n        /* \"#utility.yul\":2575:2785   */\n    tag_22:\n        /* \"#utility.yul\":2662:2666   */\n      0x00\n        /* \"#utility.yul\":2700:2702   */\n      0x20\n        /* \"#utility.yul\":2689:2698   */\n      dup3\n        /* \"#utility.yul\":2685:2703   */\n      add\n        /* \"#utility.yul\":2677:2703   */\n      swap1\n      pop\n        /* \"#utility.yul\":2713:2778   */\n      tag_118\n        /* \"#utility.yul\":2775:2776   */\n      0x00\n        /* \"#utility.yul\":2764:2773   */\n      dup4\n        /* \"#utility.yul\":2760:2777   */\n      add\n        /* \"#utility.yul\":2751:2757   */\n      dup5\n        /* \"#utility.yul\":2713:2778   */\n      tag_77\n      jump\t// in\n    tag_118:\n        /* \"#utility.yul\":2575:2785   */\n      swap3\n      swap2\n      pop\n      pop\n      jump\t// out\n        /* \"#utility.yul\":2791:2960   */\n    tag_78:\n        /* \"#utility.yul\":2875:2886   */\n      0x00\n        /* \"#utility.yul\":2909:2915   */\n      dup3\n        /* \"#utility.yul\":2904:2907   */\n      dup3\n        /* \"#utility.yul\":2897:2916   */\n      mstore\n        /* \"#utility.yul\":2949:2953   */\n      0x20\n        /* \"#utility.yul\":2944:2947   */\n      dup3\n        /* \"#utility.yul\":2940:2954   */\n      add\n        /* \"#utility.yul\":2925:2954   */\n      swap1\n      pop\n        /* \"#utility.yul\":2791:2960   */\n      swap3\n      swap2\n      pop\n      pop\n      jump\t// out\n        /* \"#utility.yul\":2966:3131   */\n    tag_79:\n        /* \"#utility.yul\":3106:3123   */\n      0x426164436f6e6669726d6174696f6e0000000000000000000000000000000000\n        /* \"#utility.yul\":3102:3103   */\n      0x00\n        /* \"#utility.yul\":3094:3100   */\n      dup3\n        /* \"#utility.yul\":3090:3104   */\n      add\n        /* \"#utility.yul\":3083:3124   */\n      mstore\n        /* \"#utility.yul\":2966:3131   */\n      pop\n      jump\t// out\n        /* \"#utility.yul\":3137:3503   */\n    tag_80:\n        /* \"#utility.yul\":3279:3282   */\n      0x00\n        /* \"#utility.yul\":3300:3367   */\n      tag_122\n        /* \"#utility.yul\":3364:3366   */\n      0x0f\n        /* \"#utility.yul\":3359:3362   */\n      dup4\n        /* \"#utility.yul\":3300:3367   */\n      tag_78\n      jump\t// in\n    tag_122:\n        /* \"#utility.yul\":3293:3367   */\n      swap2\n      pop\n        /* \"#utility.yul\":3376:3469   */\n      tag_123\n        /* \"#utility.yul\":3465:3468   */\n      dup3\n        /* \"#utility.yul\":3376:3469   */\n      tag_79\n      jump\t// in\n    tag_123:\n        /* \"#utility.yul\":3494:3496   */\n      0x20\n        /* \"#utility.yul\":3489:3492   */\n      dup3\n        /* \"#utility.yul\":3485:3497   */\n      add\n        /* \"#utility.yul\":3478:3497   */\n      swap1\n      pop\n        /* \"#utility.yul\":3137:3503   */\n      swap2\n      swap1\n      pop\n      jump\t// out\n        /* \"#utility.yul\":3509:3928   */\n    tag_51:\n        /* \"#utility.yul\":3675:3679   */\n      0x00\n        /* \"#utility.yul\":3713:3715   */\n      0x20\n        /* \"#utility.yul\":3702:3711   */\n      dup3\n        /* \"#utility.yul\":3698:3716   */\n      add\n        /* \"#utility.yul\":3690:3716   */\n      swap1\n      pop\n        /* \"#utility.yul\":3762:3771   */\n      dup2\n        /* \"#utility.yul\":3756:3760   */\n      dup2\n        /* \"#utility.yul\":3752:3772   */\n      sub\n        /* \"#utility.yul\":3748:3749   */\n      0x00\n        /* \"#utility.yul\":3737:3746   */\n      dup4\n        /* \"#utility.yul\":3733:3750   */\n      add\n        /* \"#utility.yul\":3726:3773   */\n      mstore\n        /* \"#utility.yul\":3790:3921   */\n      tag_125\n        /* \"#utility.yul\":3916:3920   */\n      dup2\n        /* \"#utility.yul\":3790:3921   */\n      tag_80\n      jump\t// in\n    tag_125:\n        /* \"#utility.yul\":3782:3921   */\n      swap1\n      pop\n        /* \"#utility.yul\":3509:3928   */\n      swap2\n      swap1\n      pop\n      jump\t// out\n        /* \"#utility.yul\":3934:4103   */\n    tag_81:\n        /* \"#utility.yul\":4074:4095   */\n      0x556e417574686f72697a65644163636f756e7400000000000000000000000000\n        /* \"#utility.yul\":4070:4071   */\n      0x00\n        /* \"#utility.yul\":4062:4068   */\n      dup3\n        /* \"#utility.yul\":4058:4072   */\n      add\n        /* \"#utility.yul\":4051:4096   */\n      mstore\n        /* \"#utility.yul\":3934:4103   */\n      pop\n      jump\t// out\n        /* \"#utility.yul\":4109:4475   */\n    tag_82:\n        /* \"#utility.yul\":4251:4254   */\n      0x00\n        /* \"#utility.yul\":4272:4339   */\n      tag_128\n        /* \"#utility.yul\":4336:4338   */\n      0x13\n        /* \"#utility.yul\":4331:4334   */\n      dup4\n        /* \"#utility.yul\":4272:4339   */\n      tag_78\n      jump\t// in\n    tag_128:\n        /* \"#utility.yul\":4265:4339   */\n      swap2\n      pop\n        /* \"#utility.yul\":4348:4441   */\n      tag_129\n        /* \"#utility.yul\":4437:4440   */\n      dup3\n        /* \"#utility.yul\":4348:4441   */\n      tag_81\n      jump\t// in\n    tag_129:\n        /* \"#utility.yul\":4466:4468   */\n      0x20\n        /* \"#utility.yul\":4461:4464   */\n      dup3\n        /* \"#utility.yul\":4457:4469   */\n      add\n        /* \"#utility.yul\":4450:4469   */\n      swap1\n      pop\n        /* \"#utility.yul\":4109:4475   */\n      swap2\n      swap1\n      pop\n      jump\t// out\n        /* \"#utility.yul\":4481:4900   */\n    tag_58:\n        /* \"#utility.yul\":4647:4651   */\n      0x00\n        /* \"#utility.yul\":4685:4687   */\n      0x20\n        /* \"#utility.yul\":4674:4683   */\n      dup3\n        /* \"#utility.yul\":4670:4688   */\n      add\n        /* \"#utility.yul\":4662:4688   */\n      swap1\n      pop\n        /* \"#utility.yul\":4734:4743   */\n      dup2\n        /* \"#utility.yul\":4728:4732   */\n      dup2\n        /* \"#utility.yul\":4724:4744   */\n      sub\n        /* \"#utility.yul\":4720:4721   */\n      0x00\n        /* \"#utility.yul\":4709:4718   */\n      dup4\n        /* \"#utility.yul\":4705:4722   */\n      add\n        /* \"#utility.yul\":4698:4745   */\n      mstore\n        /* \"#utility.yul\":4762:4893   */\n      tag_131\n        /* \"#utility.yul\":4888:4892   */\n      dup2\n        /* \"#utility.yul\":4762:4893   */\n      tag_82\n      jump\t// in\n    tag_131:\n        /* \"#utility.yul\":4754:4893   */\n      swap1\n      pop\n        /* \"#utility.yul\":4481:4900   */\n      swap2\n      swap1\n      pop\n      jump\t// out\n\n    auxdata: 0xa2646970667358221220ab317e26aedeea61c08ebf9d7e4ede6da36a06edceb1caaa76c38ffa150f868d64736f6c634300080b0033\n}\n",
				"bytecode": {
					"linkReferences": {},
					"object": "608060405234801561001057600080fd5b506040516108d43803806108d483398181016040528101906100329190610109565b60016000808060001b815260200190815260200160002060000160008373ffffffffffffffffffffffffffffffffffffffff1673ffffffffffffffffffffffffffffffffffffffff16815260200190815260200160002060006101000a81548160ff02191690831515021790555050610136565b600080fd5b600073ffffffffffffffffffffffffffffffffffffffff82169050919050565b60006100d6826100ab565b9050919050565b6100e6816100cb565b81146100f157600080fd5b50565b600081519050610103816100dd565b92915050565b60006020828403121561011f5761011e6100a6565b5b600061012d848285016100f4565b91505092915050565b61078f806101456000396000f3fe608060405234801561001057600080fd5b506004361061007d5760003560e01c806391d148541161005b57806391d14854146100fe5780639cdeba951461012e578063c5b951901461014c578063d547741f1461017c5761007d565b8063248a9ca3146100825780632f2ff15d146100b257806336568abe146100e2575b600080fd5b61009c60048036038101906100979190610545565b6101ac565b6040516100a99190610581565b60405180910390f35b6100cc60048036038101906100c791906105fa565b6101cb565b6040516100d99190610655565b60405180910390f35b6100fc60048036038101906100f791906105fa565b6102ca565b005b610118600480360381019061011391906105fa565b610347565b6040516101259190610655565b60405180910390f35b6101366103b1565b6040516101439190610581565b60405180910390f35b61016660048036038101906101619190610545565b6103b8565b6040516101739190610655565b60405180910390f35b610196600480360381019061019191906105fa565b61040c565b6040516101a39190610655565b60405180910390f35b6000806000838152602001908152602001600020600101549050919050565b60006101d6836101ac565b6101df816103b8565b506101ea8484610347565b156101f857600091506102c3565b600160008086815260200190815260200160002060000160008573ffffffffffffffffffffffffffffffffffffffff1673ffffffffffffffffffffffffffffffffffffffff16815260200190815260200160002060006101000a81548160ff0219169083151502179055503373ffffffffffffffffffffffffffffffffffffffff168373ffffffffffffffffffffffffffffffffffffffff16857f2f8788117e7eff1d82e926ec794901d17c78024a50270940304540a733656f0d60405160405180910390a4600191505b5092915050565b3373ffffffffffffffffffffffffffffffffffffffff168173ffffffffffffffffffffffffffffffffffffffff1614610338576040517f08c379a000000000000000000000000000000000000000000000000000000000815260040161032f906106cd565b60405180910390fd5b610342828261040c565b505050565b600080600084815260200190815260200160002060000160008373ffffffffffffffffffffffffffffffffffffffff1673ffffffffffffffffffffffffffffffffffffffff16815260200190815260200160002060009054906101000a900460ff16905092915050565b6000801b81565b60006103c48233610347565b610403576040517f08c379a00000000000000000000000000000000000000000000000000000000081526004016103fa90610739565b60405180910390fd5b60019050919050565b6000610417836101ac565b610420816103b8565b5061042b8484610347565b6104385760009150610503565b600080600086815260200190815260200160002060000160008573ffffffffffffffffffffffffffffffffffffffff1673ffffffffffffffffffffffffffffffffffffffff16815260200190815260200160002060006101000a81548160ff0219169083151502179055503373ffffffffffffffffffffffffffffffffffffffff168373ffffffffffffffffffffffffffffffffffffffff16857ff6391f5c32d9c69d2a47ea670b442974b53935d1edc7fd64eb21e047a839171b60405160405180910390a4600191505b5092915050565b600080fd5b6000819050919050565b6105228161050f565b811461052d57600080fd5b50565b60008135905061053f81610519565b92915050565b60006020828403121561055b5761055a61050a565b5b600061056984828501610530565b91505092915050565b61057b8161050f565b82525050565b60006020820190506105966000830184610572565b92915050565b600073ffffffffffffffffffffffffffffffffffffffff82169050919050565b60006105c78261059c565b9050919050565b6105d7816105bc565b81146105e257600080fd5b50565b6000813590506105f4816105ce565b92915050565b600080604083850312156106115761061061050a565b5b600061061f85828601610530565b9250506020610630858286016105e5565b9150509250929050565b60008115159050919050565b61064f8161063a565b82525050565b600060208201905061066a6000830184610646565b92915050565b600082825260208201905092915050565b7f426164436f6e6669726d6174696f6e0000000000000000000000000000000000600082015250565b60006106b7600f83610670565b91506106c282610681565b602082019050919050565b600060208201905081810360008301526106e6816106aa565b9050919050565b7f556e417574686f72697a65644163636f756e7400000000000000000000000000600082015250565b6000610723601383610670565b915061072e826106ed565b602082019050919050565b6000602082019050818103600083015261075281610716565b905091905056fea2646970667358221220ab317e26aedeea61c08ebf9d7e4ede6da36a06edceb1caaa76c38ffa150f868d64736f6c634300080b0033",
					"opcodes": "PUSH1 0x80 PUSH1 0x40 MSTORE CALLVALUE DUP1 ISZERO PUSH2 0x10 JUMPI PUSH1 0x0 DUP1 REVERT JUMPDEST POP PUSH1 0x40 MLOAD PUSH2 0x8D4 CODESIZE SUB DUP1 PUSH2 0x8D4 DUP4 CODECOPY DUP2 DUP2 ADD PUSH1 0x40 MSTORE DUP2 ADD SWAP1 PUSH2 0x32 SWAP2 SWAP1 PUSH2 0x109 JUMP JUMPDEST PUSH1 0x1 PUSH1 0x0 DUP1 DUP1 PUSH1 0x0 SHL DUP2 MSTORE PUSH1 0x20 ADD SWAP1 DUP2 MSTORE PUSH1 0x20 ADD PUSH1 0x0 KECCAK256 PUSH1 0x0 ADD PUSH1 0x0 DUP4 PUSH20 0xFFFFFFFFFFFFFFFFFFFFFFFFFFFFFFFFFFFFFFFF AND PUSH20 0xFFFFFFFFFFFFFFFFFFFFFFFFFFFFFFFFFFFFFFFF AND DUP2 MSTORE PUSH1 0x20 ADD SWAP1 DUP2 MSTORE PUSH1 0x20 ADD PUSH1 0x0 KECCAK256 PUSH1 0x0 PUSH2 0x100 EXP DUP2 SLOAD DUP2 PUSH1 0xFF MUL NOT AND SWAP1 DUP4 ISZERO ISZERO MUL OR SWAP1 SSTORE POP POP PUSH2 0x136 JUMP JUMPDEST PUSH1 0x0 DUP1 REVERT JUMPDEST PUSH1 0x0 PUSH20 0xFFFFFFFFFFFFFFFFFFFFFFFFFFFFFFFFFFFFFFFF DUP3 AND SWAP1 POP SWAP2 SWAP1 POP JUMP JUMPDEST PUSH1 0x0 PUSH2 0xD6 DUP3 PUSH2 0xAB JUMP JUMPDEST SWAP1 POP SWAP2 SWAP1 POP JUMP JUMPDEST PUSH2 0xE6 DUP2 PUSH2 0xCB JUMP JUMPDEST DUP2 EQ PUSH2 0xF1 JUMPI PUSH1 0x0 DUP1 REVERT JUMPDEST POP JUMP JUMPDEST PUSH1 0x0 DUP2 MLOAD SWAP1 POP PUSH2 0x103 DUP2 PUSH2 0xDD JUMP JUMPDEST SWAP3 SWAP2 POP POP JUMP JUMPDEST PUSH1 0x0 PUSH1 0x20 DUP3 DUP5 SUB SLT ISZERO PUSH2 0x11F JUMPI PUSH2 0x11E PUSH2 0xA6 JUMP JUMPDEST JUMPDEST PUSH1 0x0 PUSH2 0x12D DUP5 DUP3 DUP6 ADD PUSH2 0xF4 JUMP JUMPDEST SWAP2 POP POP SWAP3 SWAP2 POP POP JUMP JUMPDEST PUSH2 0x78F DUP1 PUSH2 0x145 PUSH1 0x0 CODECOPY PUSH1 0x0 RETURN INVALID PUSH1 0x80 PUSH1 0x40 MSTORE CALLVALUE DUP1 ISZERO PUSH2 0x10 JUMPI PUSH1 0x0 DUP1 REVERT JUMPDEST POP PUSH1 0x4 CALLDATASIZE LT PUSH2 0x7D JUMPI PUSH1 0x0 CALLDATALOAD PUSH1 0xE0 SHR DUP1 PUSH4 0x91D14854 GT PUSH2 0x5B JUMPI DUP1 PUSH4 0x91D14854 EQ PUSH2 0xFE JUMPI DUP1 PUSH4 0x9CDEBA95 EQ PUSH2 0x12E JUMPI DUP1 PUSH4 0xC5B95190 EQ PUSH2 0x14C JUMPI DUP1 PUSH4 0xD547741F EQ PUSH2 0x17C JUMPI PUSH2 0x7D JUMP JUMPDEST DUP1 PUSH4 0x248A9CA3 EQ PUSH2 0x82 JUMPI DUP1 PUSH4 0x2F2FF15D EQ PUSH2 0xB2 JUMPI DUP1 PUSH4 0x36568ABE EQ PUSH2 0xE2 JUMPI JUMPDEST PUSH1 0x0 DUP1 REVERT JUMPDEST PUSH2 0x9C PUSH1 0x4 DUP1 CALLDATASIZE SUB DUP2 ADD SWAP1 PUSH2 0x97 SWAP2 SWAP1 PUSH2 0x545 JUMP JUMPDEST PUSH2 0x1AC JUMP JUMPDEST PUSH1 0x40 MLOAD PUSH2 0xA9 SWAP2 SWAP1 PUSH2 0x581 JUMP JUMPDEST PUSH1 0x40 MLOAD DUP1 SWAP2 SUB SWAP1 RETURN JUMPDEST PUSH2 0xCC PUSH1 0x4 DUP1 CALLDATASIZE SUB DUP2 ADD SWAP1 PUSH2 0xC7 SWAP2 SWAP1 PUSH2 0x5FA JUMP JUMPDEST PUSH2 0x1CB JUMP JUMPDEST PUSH1 0x40 MLOAD PUSH2 0xD9 SWAP2 SWAP1 PUSH2 0x655 JUMP JUMPDEST PUSH1 0x40 MLOAD DUP1 SWAP2 SUB SWAP1 RETURN JUMPDEST PUSH2 0xFC PUSH1 0x4 DUP1 CALLDATASIZE SUB DUP2 ADD SWAP1 PUSH2 0xF7 SWAP2 SWAP1 PUSH2 0x5FA JUMP JUMPDEST PUSH2 0x2CA JUMP JUMPDEST STOP JUMPDEST PUSH2 0x118 PUSH1 0x4 DUP1 CALLDATASIZE SUB DUP2 ADD SWAP1 PUSH2 0x113 SWAP2 SWAP1 PUSH2 0x5FA JUMP JUMPDEST PUSH2 0x347 JUMP JUMPDEST PUSH1 0x40 MLOAD PUSH2 0x125 SWAP2 SWAP1 PUSH2 0x655 JUMP JUMPDEST PUSH1 0x40 MLOAD DUP1 SWAP2 SUB SWAP1 RETURN JUMPDEST PUSH2 0x136 PUSH2 0x3B1 JUMP JUMPDEST PUSH1 0x40 MLOAD PUSH2 0x143 SWAP2 SWAP1 PUSH2 0x581 JUMP JUMPDEST PUSH1 0x40 MLOAD DUP1 SWAP2 SUB SWAP1 RETURN JUMPDEST PUSH2 0x166 PUSH1 0x4 DUP1 CALLDATASIZE SUB DUP2 ADD SWAP1 PUSH2 0x161 SWAP2 SWAP1 PUSH2 0x545 JUMP JUMPDEST PUSH2 0x3B8 JUMP JUMPDEST PUSH1 0x40 MLOAD PUSH2 0x173 SWAP2 SWAP1 PUSH2 0x655 JUMP JUMPDEST PUSH1 0x40 MLOAD DUP1 SWAP2 SUB SWAP1 RETURN JUMPDEST PUSH2 0x196 PUSH1 0x4 DUP1 CALLDATASIZE SUB DUP2 ADD SWAP1 PUSH2 0x191 SWAP2 SWAP1 PUSH2 0x5FA JUMP JUMPDEST PUSH2 0x40C JUMP JUMPDEST PUSH1 0x40 MLOAD PUSH2 0x1A3 SWAP2 SWAP1 PUSH2 0x655 JUMP JUMPDEST PUSH1 0x40 MLOAD DUP1 SWAP2 SUB SWAP1 RETURN JUMPDEST PUSH1 0x0 DUP1 PUSH1 0x0 DUP4 DUP2 MSTORE PUSH1 0x20 ADD SWAP1 DUP2 MSTORE PUSH1 0x20 ADD PUSH1 0x0 KECCAK256 PUSH1 0x1 ADD SLOAD SWAP1 POP SWAP2 SWAP1 POP JUMP JUMPDEST PUSH1 0x0 PUSH2 0x1D6 DUP4 PUSH2 0x1AC JUMP JUMPDEST PUSH2 0x1DF DUP2 PUSH2 0x3B8 JUMP JUMPDEST POP PUSH2 0x1EA DUP5 DUP5 PUSH2 0x347 JUMP JUMPDEST ISZERO PUSH2 0x1F8 JUMPI PUSH1 0x0 SWAP2 POP PUSH2 0x2C3 JUMP JUMPDEST PUSH1 0x1 PUSH1 0x0 DUP1 DUP7 DUP2 MSTORE PUSH1 0x20 ADD SWAP1 DUP2 MSTORE PUSH1 0x20 ADD PUSH1 0x0 KECCAK256 PUSH1 0x0 ADD PUSH1 0x0 DUP6 PUSH20 0xFFFFFFFFFFFFFFFFFFFFFFFFFFFFFFFFFFFFFFFF AND PUSH20 0xFFFFFFFFFFFFFFFFFFFFFFFFFFFFFFFFFFFFFFFF AND DUP2 MSTORE PUSH1 0x20 ADD SWAP1 DUP2 MSTORE PUSH1 0x20 ADD PUSH1 0x0 KECCAK256 PUSH1 0x0 PUSH2 0x100 EXP DUP2 SLOAD DUP2 PUSH1 0xFF MUL NOT AND SWAP1 DUP4 ISZERO ISZERO MUL OR SWAP1 SSTORE POP CALLER PUSH20 0xFFFFFFFFFFFFFFFFFFFFFFFFFFFFFFFFFFFFFFFF AND DUP4 PUSH20 0xFFFFFFFFFFFFFFFFFFFFFFFFFFFFFFFFFFFFFFFF AND DUP6 PUSH32 0x2F8788117E7EFF1D82E926EC794901D17C78024A50270940304540A733656F0D PUSH1 0x40 MLOAD PUSH1 0x40 MLOAD DUP1 SWAP2 SUB SWAP1 LOG4 PUSH1 0x1 SWAP2 POP JUMPDEST POP SWAP3 SWAP2 POP POP JUMP JUMPDEST CALLER PUSH20 0xFFFFFFFFFFFFFFFFFFFFFFFFFFFFFFFFFFFFFFFF AND DUP2 PUSH20 0xFFFFFFFFFFFFFFFFFFFFFFFFFFFFFFFFFFFFFFFF AND EQ PUSH2 0x338 JUMPI PUSH1 0x40 MLOAD PUSH32 0x8C379A000000000000000000000000000000000000000000000000000000000 DUP2 MSTORE PUSH1 0x4 ADD PUSH2 0x32F SWAP1 PUSH2 0x6CD JUMP JUMPDEST PUSH1 0x40 MLOAD DUP1 SWAP2 SUB SWAP1 REVERT JUMPDEST PUSH2 0x342 DUP3 DUP3 PUSH2 0x40C JUMP JUMPDEST POP POP POP JUMP JUMPDEST PUSH1 0x0 DUP1 PUSH1 0x0 DUP5 DUP2 MSTORE PUSH1 0x20 ADD SWAP1 DUP2 MSTORE PUSH1 0x20 ADD PUSH1 0x0 KECCAK256 PUSH1 0x0 ADD PUSH1 0x0 DUP4 PUSH20 0xFFFFFFFFFFFFFFFFFFFFFFFFFFFFFFFFFFFFFFFF AND PUSH20 0xFFFFFFFFFFFFFFFFFFFFFFFFFFFFFFFFFFFFFFFF AND DUP2 MSTORE PUSH1 0x20 ADD SWAP1 DUP2 MSTORE PUSH1 0x20 ADD PUSH1 0x0 KECCAK256 PUSH1 0x0 SWAP1 SLOAD SWAP1 PUSH2 0x100 EXP SWAP1 DIV PUSH1 0xFF AND SWAP1 POP SWAP3 SWAP2 POP POP JUMP JUMPDEST PUSH1 0x0 DUP1 SHL DUP2 JUMP JUMPDEST PUSH1 0x0 PUSH2 0x3C4 DUP3 CALLER PUSH2 0x347 JUMP JUMPDEST PUSH2 0x403 JUMPI PUSH1 0x40 MLOAD PUSH32 0x8C379A000000000000000000000000000000000000000000000000000000000 DUP2 MSTORE PUSH1 0x4 ADD PUSH2 0x3FA SWAP1 PUSH2 0x739 JUMP JUMPDEST PUSH1 0x40 MLOAD DUP1 SWAP2 SUB SWAP1 REVERT JUMPDEST PUSH1 0x1 SWAP1 POP SWAP2 SWAP1 POP JUMP JUMPDEST PUSH1 0x0 PUSH2 0x417 DUP4 PUSH2 0x1AC JUMP JUMPDEST PUSH2 0x420 DUP2 PUSH2 0x3B8 JUMP JUMPDEST POP PUSH2 0x42B DUP5 DUP5 PUSH2 0x347 JUMP JUMPDEST PUSH2 0x438 JUMPI PUSH1 0x0 SWAP2 POP PUSH2 0x503 JUMP JUMPDEST PUSH1 0x0 DUP1 PUSH1 0x0 DUP7 DUP2 MSTORE PUSH1 0x20 ADD SWAP1 DUP2 MSTORE PUSH1 0x20 ADD PUSH1 0x0 KECCAK256 PUSH1 0x0 ADD PUSH1 0x0 DUP6 PUSH20 0xFFFFFFFFFFFFFFFFFFFFFFFFFFFFFFFFFFFFFFFF AND PUSH20 0xFFFFFFFFFFFFFFFFFFFFFFFFFFFFFFFFFFFFFFFF AND DUP2 MSTORE PUSH1 0x20 ADD SWAP1 DUP2 MSTORE PUSH1 0x20 ADD PUSH1 0x0 KECCAK256 PUSH1 0x0 PUSH2 0x100 EXP DUP2 SLOAD DUP2 PUSH1 0xFF MUL NOT AND SWAP1 DUP4 ISZERO ISZERO MUL OR SWAP1 SSTORE POP CALLER PUSH20 0xFFFFFFFFFFFFFFFFFFFFFFFFFFFFFFFFFFFFFFFF AND DUP4 PUSH20 0xFFFFFFFFFFFFFFFFFFFFFFFFFFFFFFFFFFFFFFFF AND DUP6 PUSH32 0xF6391F5C32D9C69D2A47EA670B442974B53935D1EDC7FD64EB21E047A839171B PUSH1 0x40 MLOAD PUSH1 0x40 MLOAD DUP1 SWAP2 SUB SWAP1 LOG4 PUSH1 0x1 SWAP2 POP JUMPDEST POP SWAP3 SWAP2 POP POP JUMP JUMPDEST PUSH1 0x0 DUP1 REVERT JUMPDEST PUSH1 0x0 DUP2 SWAP1 POP SWAP2 SWAP1 POP JUMP JUMPDEST PUSH2 0x522 DUP2 PUSH2 0x50F JUMP JUMPDEST DUP2 EQ PUSH2 0x52D JUMPI PUSH1 0x0 DUP1 REVERT JUMPDEST POP JUMP JUMPDEST PUSH1 0x0 DUP2 CALLDATALOAD SWAP1 POP PUSH2 0x53F DUP2 PUSH2 0x519 JUMP JUMPDEST SWAP3 SWAP2 POP POP JUMP JUMPDEST PUSH1 0x0 PUSH1 0x20 DUP3 DUP5 SUB SLT ISZERO PUSH2 0x55B JUMPI PUSH2 0x55A PUSH2 0x50A JUMP JUMPDEST JUMPDEST PUSH1 0x0 PUSH2 0x569 DUP5 DUP3 DUP6 ADD PUSH2 0x530 JUMP JUMPDEST SWAP2 POP POP SWAP3 SWAP2 POP POP JUMP JUMPDEST PUSH2 0x57B DUP2 PUSH2 0x50F JUMP JUMPDEST DUP3 MSTORE POP POP JUMP JUMPDEST PUSH1 0x0 PUSH1 0x20 DUP3 ADD SWAP1 POP PUSH2 0x596 PUSH1 0x0 DUP4 ADD DUP5 PUSH2 0x572 JUMP JUMPDEST SWAP3 SWAP2 POP POP JUMP JUMPDEST PUSH1 0x0 PUSH20 0xFFFFFFFFFFFFFFFFFFFFFFFFFFFFFFFFFFFFFFFF DUP3 AND SWAP1 POP SWAP2 SWAP1 POP JUMP JUMPDEST PUSH1 0x0 PUSH2 0x5C7 DUP3 PUSH2 0x59C JUMP JUMPDEST SWAP1 POP SWAP2 SWAP1 POP JUMP JUMPDEST PUSH2 0x5D7 DUP2 PUSH2 0x5BC JUMP JUMPDEST DUP2 EQ PUSH2 0x5E2 JUMPI PUSH1 0x0 DUP1 REVERT JUMPDEST POP JUMP JUMPDEST PUSH1 0x0 DUP2 CALLDATALOAD SWAP1 POP PUSH2 0x5F4 DUP2 PUSH2 0x5CE JUMP JUMPDEST SWAP3 SWAP2 POP POP JUMP JUMPDEST PUSH1 0x0 DUP1 PUSH1 0x40 DUP4 DUP6 SUB SLT ISZERO PUSH2 0x611 JUMPI PUSH2 0x610 PUSH2 0x50A JUMP JUMPDEST JUMPDEST PUSH1 0x0 PUSH2 0x61F DUP6 DUP3 DUP7 ADD PUSH2 0x530 JUMP JUMPDEST SWAP3 POP POP PUSH1 0x20 PUSH2 0x630 DUP6 DUP3 DUP7 ADD PUSH2 0x5E5 JUMP JUMPDEST SWAP2 POP POP SWAP3 POP SWAP3 SWAP1 POP JUMP JUMPDEST PUSH1 0x0 DUP2 ISZERO ISZERO SWAP1 POP SWAP2 SWAP1 POP JUMP JUMPDEST PUSH2 0x64F DUP2 PUSH2 0x63A JUMP JUMPDEST DUP3 MSTORE POP POP JUMP JUMPDEST PUSH1 0x0 PUSH1 0x20 DUP3 ADD SWAP1 POP PUSH2 0x66A PUSH1 0x0 DUP4 ADD DUP5 PUSH2 0x646 JUMP JUMPDEST SWAP3 SWAP2 POP POP JUMP JUMPDEST PUSH1 0x0 DUP3 DUP3 MSTORE PUSH1 0x20 DUP3 ADD SWAP1 POP SWAP3 SWAP2 POP POP JUMP JUMPDEST PUSH32 0x426164436F6E6669726D6174696F6E0000000000000000000000000000000000 PUSH1 0x0 DUP3 ADD MSTORE POP JUMP JUMPDEST PUSH1 0x0 PUSH2 0x6B7 PUSH1 0xF DUP4 PUSH2 0x670 JUMP JUMPDEST SWAP2 POP PUSH2 0x6C2 DUP3 PUSH2 0x681 JUMP JUMPDEST PUSH1 0x20 DUP3 ADD SWAP1 POP SWAP2 SWAP1 POP JUMP JUMPDEST PUSH1 0x0 PUSH1 0x20 DUP3 ADD SWAP1 POP DUP2 DUP2 SUB PUSH1 0x0 DUP4 ADD MSTORE PUSH2 0x6E6 DUP2 PUSH2 0x6AA JUMP JUMPDEST SWAP1 POP SWAP2 SWAP1 POP JUMP JUMPDEST PUSH32 0x556E417574686F72697A65644163636F756E7400000000000000000000000000 PUSH1 0x0 DUP3 ADD MSTORE POP JUMP JUMPDEST PUSH1 0x0 PUSH2 0x723 PUSH1 0x13 DUP4 PUSH2 0x670 JUMP JUMPDEST SWAP2 POP PUSH2 0x72E DUP3 PUSH2 0x6ED JUMP JUMPDEST PUSH1 0x20 DUP3 ADD SWAP1 POP SWAP2 SWAP1 POP JUMP JUMPDEST PUSH1 0x0 PUSH1 0x20 DUP3 ADD SWAP1 POP DUP2 DUP2 SUB PUSH1 0x0 DUP4 ADD MSTORE PUSH2 0x752 DUP2 PUSH2 0x716 JUMP JUMPDEST SWAP1 POP SWAP2 SWAP1 POP JUMP INVALID LOG2 PUSH5 0x6970667358 0x22 SLT KECCAK256 0xAB BALANCE PUSH31 0x26AEDEEA61C08EBF9D7E4EDE6DA36A06EDCEB1CAAA76C38FFA150F868D6473 PUSH16 0x6C634300080B00330000000000000000 "
				},
				"gasEstimates": {
					"creation": {
						"codeDepositCost": "387000",
						"executionCost": "infinite",
						"totalCost": "infinite"
					},
					"external": {
						"DEFAULT_ADMIN()": "357",
						"checkRole(bytes32)": "3114",
						"getRoleAdmin(bytes32)": "infinite",
						"grantRole(bytes32,address)": "infinite",
						"hasRole(bytes32,address)": "3140",
						"renounceRole(bytes32,address)": "infinite",
						"revokeRole(bytes32,address)": "infinite"
					},
					"internal": {
						"setRoleAdmin(bytes32,bytes32)": "infinite"
					}
				},
				"methodIdentifiers": {
					"DEFAULT_ADMIN()": "9cdeba95",
					"checkRole(bytes32)": "c5b95190",
					"getRoleAdmin(bytes32)": "248a9ca3",
					"grantRole(bytes32,address)": "2f2ff15d",
					"hasRole(bytes32,address)": "91d14854",
					"renounceRole(bytes32,address)": "36568abe",
					"revokeRole(bytes32,address)": "d547741f"
				}
			},
			"storageLayout": {
				"storage": [
					{
						"astId": 65,
						"contract": "1127/util/BaseAccessControl.sol:BaseAccessControl",
						"label": "roles",
						"offset": 0,
						"slot": "0",
						"type": "t_mapping(t_bytes32,t_struct(RoleData)57_storage)"
					}
				],
				"types": {
					"t_address": {
						"encoding": "inplace",
						"label": "address",
						"numberOfBytes": "20"
					},
					"t_bool": {
						"encoding": "inplace",
						"label": "bool",
						"numberOfBytes": "1"
					},
					"t_bytes32": {
						"encoding": "inplace",
						"label": "bytes32",
						"numberOfBytes": "32"
					},
					"t_mapping(t_address,t_bool)": {
						"encoding": "mapping",
						"key": "t_address",
						"label": "mapping(address => bool)",
						"numberOfBytes": "32",
						"value": "t_bool"
					},
					"t_mapping(t_bytes32,t_struct(RoleData)57_storage)": {
						"encoding": "mapping",
						"key": "t_bytes32",
						"label": "mapping(bytes32 => struct BaseAccessControl.RoleData)",
						"numberOfBytes": "32",
						"value": "t_struct(RoleData)57_storage"
					},
					"t_struct(RoleData)57_storage": {
						"encoding": "inplace",
						"label": "struct BaseAccessControl.RoleData",
						"members": [
							{
								"astId": 54,
								"contract": "1127/util/BaseAccessControl.sol:BaseAccessControl",
								"label": "hasRoles",
								"offset": 0,
								"slot": "0",
								"type": "t_mapping(t_address,t_bool)"
							},
							{
								"astId": 56,
								"contract": "1127/util/BaseAccessControl.sol:BaseAccessControl",
								"label": "adminRole",
								"offset": 0,
								"slot": "1",
								"type": "t_bytes32"
							}
						],
						"numberOfBytes": "64"
					}
				}
			},
			"userdoc": {
				"kind": "user",
				"methods": {},
				"version": 1
			}
		}
	}
}