{
	"1127/DomainLogic.sol": {
		"DomainContract": {
			"abi": [
				{
					"inputs": [
						{
							"internalType": "address",
							"name": "_domainAdminAddress",
							"type": "address"
						},
						{
							"internalType": "address",
							"name": "_commonlogicAddress",
							"type": "address"
						}
					],
					"stateMutability": "nonpayable",
					"type": "constructor"
				},
				{
					"anonymous": false,
					"inputs": [
						{
							"indexed": false,
							"internalType": "string",
							"name": "did",
							"type": "string"
						},
						{
							"indexed": false,
							"internalType": "string",
							"name": "name",
							"type": "string"
						},
						{
							"indexed": false,
							"internalType": "address",
							"name": "company_address",
							"type": "address"
						}
					],
					"name": "NewCompanyRegistered",
					"type": "event"
				},
				{
					"anonymous": false,
					"inputs": [
						{
							"indexed": false,
							"internalType": "string",
							"name": "did",
							"type": "string"
						},
						{
							"indexed": false,
							"internalType": "string",
							"name": "name",
							"type": "string"
						},
						{
							"indexed": false,
							"internalType": "address",
							"name": "company_address",
							"type": "address"
						}
					],
					"name": "NewCompanyRemoved",
					"type": "event"
				},
				{
					"anonymous": false,
					"inputs": [
						{
							"indexed": true,
							"internalType": "bytes32",
							"name": "role",
							"type": "bytes32"
						},
						{
							"indexed": true,
							"internalType": "bytes32",
							"name": "previousAdminRole",
							"type": "bytes32"
						},
						{
							"indexed": true,
							"internalType": "bytes32",
							"name": "newAdminRole",
							"type": "bytes32"
						}
					],
					"name": "RoleAdminChanged",
					"type": "event"
				},
				{
					"anonymous": false,
					"inputs": [
						{
							"indexed": true,
							"internalType": "bytes32",
							"name": "role",
							"type": "bytes32"
						},
						{
							"indexed": true,
							"internalType": "address",
							"name": "account",
							"type": "address"
						},
						{
							"indexed": true,
							"internalType": "address",
							"name": "sender",
							"type": "address"
						}
					],
					"name": "RoleGranted",
					"type": "event"
				},
				{
					"anonymous": false,
					"inputs": [
						{
							"indexed": true,
							"internalType": "bytes32",
							"name": "role",
							"type": "bytes32"
						},
						{
							"indexed": true,
							"internalType": "address",
							"name": "account",
							"type": "address"
						},
						{
							"indexed": true,
							"internalType": "address",
							"name": "sender",
							"type": "address"
						}
					],
					"name": "RoleRevoked",
					"type": "event"
				},
				{
					"inputs": [],
					"name": "DEFAULT_ADMIN",
					"outputs": [
						{
							"internalType": "bytes32",
							"name": "",
							"type": "bytes32"
						}
					],
					"stateMutability": "view",
					"type": "function"
				},
				{
					"inputs": [],
					"name": "DOMAIN_ADMIN",
					"outputs": [
						{
							"internalType": "bytes32",
							"name": "",
							"type": "bytes32"
						}
					],
					"stateMutability": "view",
					"type": "function"
				},
				{
					"inputs": [
						{
							"internalType": "bytes32",
							"name": "role",
							"type": "bytes32"
						}
					],
					"name": "checkRole",
					"outputs": [
						{
							"internalType": "bool",
							"name": "",
							"type": "bool"
						}
					],
					"stateMutability": "view",
					"type": "function"
				},
				{
					"inputs": [
						{
							"internalType": "bytes32",
							"name": "role",
							"type": "bytes32"
						}
					],
					"name": "getRoleAdmin",
					"outputs": [
						{
							"internalType": "bytes32",
							"name": "",
							"type": "bytes32"
						}
					],
					"stateMutability": "view",
					"type": "function"
				},
				{
					"inputs": [
						{
							"internalType": "bytes32",
							"name": "role",
							"type": "bytes32"
						},
						{
							"internalType": "address",
							"name": "member",
							"type": "address"
						}
					],
					"name": "grantRole",
					"outputs": [
						{
							"internalType": "bool",
							"name": "",
							"type": "bool"
						}
					],
					"stateMutability": "nonpayable",
					"type": "function"
				},
				{
					"inputs": [
						{
							"internalType": "bytes32",
							"name": "role",
							"type": "bytes32"
						},
						{
							"internalType": "address",
							"name": "member",
							"type": "address"
						}
					],
					"name": "hasRole",
					"outputs": [
						{
							"internalType": "bool",
							"name": "",
							"type": "bool"
						}
					],
					"stateMutability": "view",
					"type": "function"
				},
				{
					"inputs": [
						{
							"internalType": "string",
							"name": "company_did",
							"type": "string"
						},
						{
							"internalType": "string",
							"name": "company_name",
							"type": "string"
						},
						{
							"internalType": "address",
							"name": "company_owner",
							"type": "address"
						}
					],
					"name": "registerCompany",
					"outputs": [
						{
							"internalType": "bool",
							"name": "",
							"type": "bool"
						}
					],
					"stateMutability": "nonpayable",
					"type": "function"
				},
				{
					"inputs": [
						{
							"internalType": "string",
							"name": "company_did",
							"type": "string"
						}
					],
					"name": "removeCompany",
					"outputs": [
						{
							"internalType": "bool",
							"name": "",
							"type": "bool"
						}
					],
					"stateMutability": "nonpayable",
					"type": "function"
				},
				{
					"inputs": [
						{
							"internalType": "bytes32",
							"name": "role",
							"type": "bytes32"
						},
						{
							"internalType": "address",
							"name": "callerConfirmation",
							"type": "address"
						}
					],
					"name": "renounceRole",
					"outputs": [],
					"stateMutability": "nonpayable",
					"type": "function"
				},
				{
					"inputs": [
						{
							"internalType": "bytes32",
							"name": "role",
							"type": "bytes32"
						},
						{
							"internalType": "address",
							"name": "member",
							"type": "address"
						}
					],
					"name": "revokeRole",
					"outputs": [
						{
							"internalType": "bool",
							"name": "",
							"type": "bool"
						}
					],
					"stateMutability": "nonpayable",
					"type": "function"
				}
			],
			"devdoc": {
				"kind": "dev",
				"methods": {},
				"version": 1
			},
			"evm": {
				"assembly": "    /* \"1127/DomainLogic.sol\":161:1914  contract DomainContract is AccessControl{... */\n  mstore(0x40, 0x80)\n    /* \"1127/DomainLogic.sol\":547:814  constructor(address _domainAdminAddress,address _commonlogicAddress) AccessControl(msg.sender){... */\n  callvalue\n  dup1\n  iszero\n  tag_1\n  jumpi\n  0x00\n  dup1\n  revert\ntag_1:\n  pop\n  mload(0x40)\n  sub(codesize, bytecodeSize)\n  dup1\n  bytecodeSize\n  dup4\n  codecopy\n  dup2\n  dup2\n  add\n  0x40\n  mstore\n  dup2\n  add\n  swap1\n  tag_2\n  swap2\n  swap1\n  tag_3\n  jump\t// in\ntag_2:\n    /* \"1127/DomainLogic.sol\":630:640  msg.sender */\n  caller\n    /* \"1127/util/AccessControl.sol\":970:974  true */\n  0x01\n    /* \"1127/util/AccessControl.sol\":931:936  roles */\n  0x00\n    /* \"1127/util/AccessControl.sol\":931:951  roles[DEFAULT_ADMIN] */\n  dup1\n    /* \"1127/util/AccessControl.sol\":246:250  0x00 */\n  dup1\n    /* \"1127/util/AccessControl.sol\":937:950  DEFAULT_ADMIN */\n  0x00\n  shl\n    /* \"1127/util/AccessControl.sol\":931:951  roles[DEFAULT_ADMIN] */\n  dup2\n  mstore\n  0x20\n  add\n  swap1\n  dup2\n  mstore\n  0x20\n  add\n  0x00\n  keccak256\n    /* \"1127/util/AccessControl.sol\":931:960  roles[DEFAULT_ADMIN].hasRoles */\n  0x00\n  add\n    /* \"1127/util/AccessControl.sol\":931:967  roles[DEFAULT_ADMIN].hasRoles[admin] */\n  0x00\n    /* \"1127/util/AccessControl.sol\":961:966  admin */\n  dup4\n    /* \"1127/util/AccessControl.sol\":931:967  roles[DEFAULT_ADMIN].hasRoles[admin] */\n  0xffffffffffffffffffffffffffffffffffffffff\n  and\n  0xffffffffffffffffffffffffffffffffffffffff\n  and\n  dup2\n  mstore\n  0x20\n  add\n  swap1\n  dup2\n  mstore\n  0x20\n  add\n  0x00\n  keccak256\n  0x00\n    /* \"1127/util/AccessControl.sol\":931:974  roles[DEFAULT_ADMIN].hasRoles[admin] = true */\n  0x0100\n  exp\n  dup2\n  sload\n  dup2\n  0xff\n  mul\n  not\n  and\n  swap1\n  dup4\n  iszero\n  iszero\n  mul\n  or\n  swap1\n  sstore\n  pop\n    /* \"1127/util/AccessControl.sol\":895:981  constructor(address admin){... */\n  pop\n    /* \"1127/DomainLogic.sol\":654:694  setRoleAdmin(DOMAIN_ADMIN,DEFAULT_ADMIN) */\n  tag_8\n    /* \"1127/DomainLogic.sol\":292:317  keccak256(\"Domain_ADMIN\") */\n  0x0a17004e45f702315376249fbb5266f40fc0c452c5452b3ea6809db18e2ad3d7\n    /* \"1127/util/AccessControl.sol\":246:250  0x00 */\n  0x00\n    /* \"1127/DomainLogic.sol\":680:693  DEFAULT_ADMIN */\n  dup1\n  shl\n    /* \"1127/DomainLogic.sol\":654:666  setRoleAdmin */\n  shl(0x20, tag_9)\n    /* \"1127/DomainLogic.sol\":654:694  setRoleAdmin(DOMAIN_ADMIN,DEFAULT_ADMIN) */\n  0x20\n  shr\n  jump\t// in\ntag_8:\n    /* \"1127/DomainLogic.sol\":707:751  grantRole(DOMAIN_ADMIN, _domainAdminAddress) */\n  tag_10\n    /* \"1127/DomainLogic.sol\":292:317  keccak256(\"Domain_ADMIN\") */\n  0x0a17004e45f702315376249fbb5266f40fc0c452c5452b3ea6809db18e2ad3d7\n    /* \"1127/DomainLogic.sol\":731:750  _domainAdminAddress */\n  dup4\n    /* \"1127/DomainLogic.sol\":707:716  grantRole */\n  shl(0x20, tag_11)\n    /* \"1127/DomainLogic.sol\":707:751  grantRole(DOMAIN_ADMIN, _domainAdminAddress) */\n  0x20\n  shr\n  jump\t// in\ntag_10:\n  pop\n    /* \"1127/DomainLogic.sol\":787:806  _commonlogicAddress */\n  dup1\n    /* \"1127/DomainLogic.sol\":764:784  _commonlogicContract */\n  0x01\n  0x00\n    /* \"1127/DomainLogic.sol\":764:806  _commonlogicContract = _commonlogicAddress */\n  0x0100\n  exp\n  dup2\n  sload\n  dup2\n  0xffffffffffffffffffffffffffffffffffffffff\n  mul\n  not\n  and\n  swap1\n  dup4\n  0xffffffffffffffffffffffffffffffffffffffff\n  and\n  mul\n  or\n  swap1\n  sstore\n  pop\n    /* \"1127/DomainLogic.sol\":547:814  constructor(address _domainAdminAddress,address _commonlogicAddress) AccessControl(msg.sender){... */\n  pop\n  pop\n    /* \"1127/DomainLogic.sol\":161:1914  contract DomainContract is AccessControl{... */\n  jump(tag_12)\n    /* \"1127/util/AccessControl.sol\":1528:1741  function setRoleAdmin(bytes32 role ,bytes32 admin) internal virtual  {... */\ntag_9:\n    /* \"1127/util/AccessControl.sol\":1607:1623  bytes32 oldAdmin */\n  0x00\n    /* \"1127/util/AccessControl.sol\":1626:1644  getRoleAdmin(role) */\n  tag_14\n    /* \"1127/util/AccessControl.sol\":1639:1643  role */\n  dup4\n    /* \"1127/util/AccessControl.sol\":1626:1638  getRoleAdmin */\n  shl(0x20, tag_15)\n    /* \"1127/util/AccessControl.sol\":1626:1644  getRoleAdmin(role) */\n  0x20\n  shr\n  jump\t// in\ntag_14:\n    /* \"1127/util/AccessControl.sol\":1607:1644  bytes32 oldAdmin = getRoleAdmin(role) */\n  swap1\n  pop\n    /* \"1127/util/AccessControl.sol\":1676:1681  admin */\n  dup2\n    /* \"1127/util/AccessControl.sol\":1654:1659  roles */\n  0x00\n    /* \"1127/util/AccessControl.sol\":1654:1665  roles[role] */\n  dup1\n    /* \"1127/util/AccessControl.sol\":1660:1664  role */\n  dup6\n    /* \"1127/util/AccessControl.sol\":1654:1665  roles[role] */\n  dup2\n  mstore\n  0x20\n  add\n  swap1\n  dup2\n  mstore\n  0x20\n  add\n  0x00\n  keccak256\n    /* \"1127/util/AccessControl.sol\":1654:1675  roles[role].adminRole */\n  0x01\n  add\n    /* \"1127/util/AccessControl.sol\":1654:1681  roles[role].adminRole=admin */\n  dup2\n  swap1\n  sstore\n  pop\n    /* \"1127/util/AccessControl.sol\":1728:1733  admin */\n  dup2\n    /* \"1127/util/AccessControl.sol\":1718:1726  oldAdmin */\n  dup2\n    /* \"1127/util/AccessControl.sol\":1713:1717  role */\n  dup5\n    /* \"1127/util/AccessControl.sol\":1696:1734  RoleAdminChanged(role,oldAdmin, admin) */\n  0xbd79b86ffe0ab8e8776151514217cd7cacd52c909f66475c3af44e129f0b00ff\n  mload(0x40)\n  mload(0x40)\n  dup1\n  swap2\n  sub\n  swap1\n  log4\n    /* \"1127/util/AccessControl.sol\":1597:1741  {... */\n  pop\n    /* \"1127/util/AccessControl.sol\":1528:1741  function setRoleAdmin(bytes32 role ,bytes32 admin) internal virtual  {... */\n  pop\n  pop\n  jump\t// out\n    /* \"1127/util/AccessControl.sol\":1785:2111  function grantRole(bytes32 role, address member)... */\ntag_11:\n    /* \"1127/util/AccessControl.sol\":1903:1907  bool */\n  0x00\n    /* \"1127/util/AccessControl.sol\":1866:1884  getRoleAdmin(role) */\n  tag_16\n    /* \"1127/util/AccessControl.sol\":1879:1883  role */\n  dup4\n    /* \"1127/util/AccessControl.sol\":1866:1878  getRoleAdmin */\n  shl(0x20, tag_15)\n    /* \"1127/util/AccessControl.sol\":1866:1884  getRoleAdmin(role) */\n  0x20\n  shr\n  jump\t// in\ntag_16:\n    /* \"1127/util/AccessControl.sol\":856:871  checkRole(role) */\n  tag_18\n    /* \"1127/util/AccessControl.sol\":866:870  role */\n  dup2\n    /* \"1127/util/AccessControl.sol\":856:865  checkRole */\n  shl(0x20, tag_19)\n    /* \"1127/util/AccessControl.sol\":856:871  checkRole(role) */\n  0x20\n  shr\n  jump\t// in\ntag_18:\n  pop\n    /* \"1127/util/AccessControl.sol\":1927:1948  hasRole(role, member) */\n  tag_21\n    /* \"1127/util/AccessControl.sol\":1935:1939  role */\n  dup5\n    /* \"1127/util/AccessControl.sol\":1941:1947  member */\n  dup5\n    /* \"1127/util/AccessControl.sol\":1927:1934  hasRole */\n  shl(0x20, tag_22)\n    /* \"1127/util/AccessControl.sol\":1927:1948  hasRole(role, member) */\n  0x20\n  shr\n  jump\t// in\ntag_21:\n    /* \"1127/util/AccessControl.sol\":1923:1987  if (hasRole(role, member)) {... */\n  iszero\n  tag_23\n  jumpi\n    /* \"1127/util/AccessControl.sol\":1971:1976  false */\n  0x00\n    /* \"1127/util/AccessControl.sol\":1964:1976  return false */\n  swap2\n  pop\n  jump(tag_20)\n    /* \"1127/util/AccessControl.sol\":1923:1987  if (hasRole(role, member)) {... */\ntag_23:\n    /* \"1127/util/AccessControl.sol\":2027:2031  true */\n  0x01\n    /* \"1127/util/AccessControl.sol\":1996:2001  roles */\n  0x00\n    /* \"1127/util/AccessControl.sol\":1996:2007  roles[role] */\n  dup1\n    /* \"1127/util/AccessControl.sol\":2002:2006  role */\n  dup7\n    /* \"1127/util/AccessControl.sol\":1996:2007  roles[role] */\n  dup2\n  mstore\n  0x20\n  add\n  swap1\n  dup2\n  mstore\n  0x20\n  add\n  0x00\n  keccak256\n    /* \"1127/util/AccessControl.sol\":1996:2016  roles[role].hasRoles */\n  0x00\n  add\n    /* \"1127/util/AccessControl.sol\":1996:2024  roles[role].hasRoles[member] */\n  0x00\n    /* \"1127/util/AccessControl.sol\":2017:2023  member */\n  dup6\n    /* \"1127/util/AccessControl.sol\":1996:2024  roles[role].hasRoles[member] */\n  0xffffffffffffffffffffffffffffffffffffffff\n  and\n  0xffffffffffffffffffffffffffffffffffffffff\n  and\n  dup2\n  mstore\n  0x20\n  add\n  swap1\n  dup2\n  mstore\n  0x20\n  add\n  0x00\n  keccak256\n  0x00\n    /* \"1127/util/AccessControl.sol\":1996:2031  roles[role].hasRoles[member] = true */\n  0x0100\n  exp\n  dup2\n  sload\n  dup2\n  0xff\n  mul\n  not\n  and\n  swap1\n  dup4\n  iszero\n  iszero\n  mul\n  or\n  swap1\n  sstore\n  pop\n    /* \"1127/util/AccessControl.sol\":2072:2082  msg.sender */\n  caller\n    /* \"1127/util/AccessControl.sol\":2046:2083  RoleGranted(role, member, msg.sender) */\n  0xffffffffffffffffffffffffffffffffffffffff\n  and\n    /* \"1127/util/AccessControl.sol\":2064:2070  member */\n  dup4\n    /* \"1127/util/AccessControl.sol\":2046:2083  RoleGranted(role, member, msg.sender) */\n  0xffffffffffffffffffffffffffffffffffffffff\n  and\n    /* \"1127/util/AccessControl.sol\":2058:2062  role */\n  dup6\n    /* \"1127/util/AccessControl.sol\":2046:2083  RoleGranted(role, member, msg.sender) */\n  0x2f8788117e7eff1d82e926ec794901d17c78024a50270940304540a733656f0d\n  mload(0x40)\n  mload(0x40)\n  dup1\n  swap2\n  sub\n  swap1\n  log4\n    /* \"1127/util/AccessControl.sol\":2100:2104  true */\n  0x01\n    /* \"1127/util/AccessControl.sol\":2093:2104  return true */\n  swap2\n  pop\n    /* \"1127/util/AccessControl.sol\":881:882  _ */\ntag_20:\n    /* \"1127/util/AccessControl.sol\":1785:2111  function grantRole(bytes32 role, address member)... */\n  pop\n  swap3\n  swap2\n  pop\n  pop\n  jump\t// out\n    /* \"1127/util/AccessControl.sol\":1379:1490  function getRoleAdmin(bytes32 role) public view returns (bytes32) {... */\ntag_15:\n    /* \"1127/util/AccessControl.sol\":1436:1443  bytes32 */\n  0x00\n    /* \"1127/util/AccessControl.sol\":1462:1467  roles */\n  dup1\n    /* \"1127/util/AccessControl.sol\":1462:1473  roles[role] */\n  0x00\n    /* \"1127/util/AccessControl.sol\":1468:1472  role */\n  dup4\n    /* \"1127/util/AccessControl.sol\":1462:1473  roles[role] */\n  dup2\n  mstore\n  0x20\n  add\n  swap1\n  dup2\n  mstore\n  0x20\n  add\n  0x00\n  keccak256\n    /* \"1127/util/AccessControl.sol\":1462:1483  roles[role].adminRole */\n  0x01\n  add\n  sload\n    /* \"1127/util/AccessControl.sol\":1455:1483  return roles[role].adminRole */\n  swap1\n  pop\n    /* \"1127/util/AccessControl.sol\":1379:1490  function getRoleAdmin(bytes32 role) public view returns (bytes32) {... */\n  swap2\n  swap1\n  pop\n  jump\t// out\n    /* \"1127/util/AccessControl.sol\":1011:1194  function checkRole(bytes32 role) public view returns (bool) {... */\ntag_19:\n    /* \"1127/util/AccessControl.sol\":1065:1069  bool */\n  0x00\n    /* \"1127/util/AccessControl.sol\":1086:1111  hasRole(role, msg.sender) */\n  tag_26\n    /* \"1127/util/AccessControl.sol\":1094:1098  role */\n  dup3\n    /* \"1127/util/AccessControl.sol\":1100:1110  msg.sender */\n  caller\n    /* \"1127/util/AccessControl.sol\":1086:1093  hasRole */\n  shl(0x20, tag_22)\n    /* \"1127/util/AccessControl.sol\":1086:1111  hasRole(role, msg.sender) */\n  0x20\n  shr\n  jump\t// in\ntag_26:\n    /* \"1127/util/AccessControl.sol\":1081:1167  if (!hasRole(role, msg.sender)) {... */\n  tag_27\n  jumpi\n    /* \"1127/util/AccessControl.sol\":1127:1156  revert(\"UnAuthorizedAccount\") */\n  mload(0x40)\n  0x08c379a000000000000000000000000000000000000000000000000000000000\n  dup2\n  mstore\n  0x04\n  add\n  tag_28\n  swap1\n  tag_29\n  jump\t// in\ntag_28:\n  mload(0x40)\n  dup1\n  swap2\n  sub\n  swap1\n  revert\n    /* \"1127/util/AccessControl.sol\":1081:1167  if (!hasRole(role, msg.sender)) {... */\ntag_27:\n    /* \"1127/util/AccessControl.sol\":1183:1187  true */\n  0x01\n    /* \"1127/util/AccessControl.sol\":1176:1187  return true */\n  swap1\n  pop\n    /* \"1127/util/AccessControl.sol\":1011:1194  function checkRole(bytes32 role) public view returns (bool) {... */\n  swap2\n  swap1\n  pop\n  jump\t// out\n    /* \"1127/util/AccessControl.sol\":1209:1335  function hasRole(bytes32 role, address member) public view returns (bool) {... */\ntag_22:\n    /* \"1127/util/AccessControl.sol\":1277:1281  bool */\n  0x00\n    /* \"1127/util/AccessControl.sol\":1300:1305  roles */\n  dup1\n    /* \"1127/util/AccessControl.sol\":1300:1311  roles[role] */\n  0x00\n    /* \"1127/util/AccessControl.sol\":1306:1310  role */\n  dup5\n    /* \"1127/util/AccessControl.sol\":1300:1311  roles[role] */\n  dup2\n  mstore\n  0x20\n  add\n  swap1\n  dup2\n  mstore\n  0x20\n  add\n  0x00\n  keccak256\n    /* \"1127/util/AccessControl.sol\":1300:1320  roles[role].hasRoles */\n  0x00\n  add\n    /* \"1127/util/AccessControl.sol\":1300:1328  roles[role].hasRoles[member] */\n  0x00\n    /* \"1127/util/AccessControl.sol\":1321:1327  member */\n  dup4\n    /* \"1127/util/AccessControl.sol\":1300:1328  roles[role].hasRoles[member] */\n  0xffffffffffffffffffffffffffffffffffffffff\n  and\n  0xffffffffffffffffffffffffffffffffffffffff\n  and\n  dup2\n  mstore\n  0x20\n  add\n  swap1\n  dup2\n  mstore\n  0x20\n  add\n  0x00\n  keccak256\n  0x00\n  swap1\n  sload\n  swap1\n  0x0100\n  exp\n  swap1\n  div\n  0xff\n  and\n    /* \"1127/util/AccessControl.sol\":1293:1328  return roles[role].hasRoles[member] */\n  swap1\n  pop\n    /* \"1127/util/AccessControl.sol\":1209:1335  function hasRole(bytes32 role, address member) public view returns (bool) {... */\n  swap3\n  swap2\n  pop\n  pop\n  jump\t// out\n    /* \"#utility.yul\":88:205   */\ntag_32:\n    /* \"#utility.yul\":197:198   */\n  0x00\n    /* \"#utility.yul\":194:195   */\n  dup1\n    /* \"#utility.yul\":187:199   */\n  revert\n    /* \"#utility.yul\":334:460   */\ntag_34:\n    /* \"#utility.yul\":371:378   */\n  0x00\n    /* \"#utility.yul\":411:453   */\n  0xffffffffffffffffffffffffffffffffffffffff\n    /* \"#utility.yul\":404:409   */\n  dup3\n    /* \"#utility.yul\":400:454   */\n  and\n    /* \"#utility.yul\":389:454   */\n  swap1\n  pop\n    /* \"#utility.yul\":334:460   */\n  swap2\n  swap1\n  pop\n  jump\t// out\n    /* \"#utility.yul\":466:562   */\ntag_35:\n    /* \"#utility.yul\":503:510   */\n  0x00\n    /* \"#utility.yul\":532:556   */\n  tag_47\n    /* \"#utility.yul\":550:555   */\n  dup3\n    /* \"#utility.yul\":532:556   */\n  tag_34\n  jump\t// in\ntag_47:\n    /* \"#utility.yul\":521:556   */\n  swap1\n  pop\n    /* \"#utility.yul\":466:562   */\n  swap2\n  swap1\n  pop\n  jump\t// out\n    /* \"#utility.yul\":568:690   */\ntag_36:\n    /* \"#utility.yul\":641:665   */\n  tag_49\n    /* \"#utility.yul\":659:664   */\n  dup2\n    /* \"#utility.yul\":641:665   */\n  tag_35\n  jump\t// in\ntag_49:\n    /* \"#utility.yul\":634:639   */\n  dup2\n    /* \"#utility.yul\":631:666   */\n  eq\n    /* \"#utility.yul\":621:684   */\n  tag_50\n  jumpi\n    /* \"#utility.yul\":680:681   */\n  0x00\n    /* \"#utility.yul\":677:678   */\n  dup1\n    /* \"#utility.yul\":670:682   */\n  revert\n    /* \"#utility.yul\":621:684   */\ntag_50:\n    /* \"#utility.yul\":568:690   */\n  pop\n  jump\t// out\n    /* \"#utility.yul\":696:839   */\ntag_37:\n    /* \"#utility.yul\":753:758   */\n  0x00\n    /* \"#utility.yul\":784:790   */\n  dup2\n    /* \"#utility.yul\":778:791   */\n  mload\n    /* \"#utility.yul\":769:791   */\n  swap1\n  pop\n    /* \"#utility.yul\":800:833   */\n  tag_52\n    /* \"#utility.yul\":827:832   */\n  dup2\n    /* \"#utility.yul\":800:833   */\n  tag_36\n  jump\t// in\ntag_52:\n    /* \"#utility.yul\":696:839   */\n  swap3\n  swap2\n  pop\n  pop\n  jump\t// out\n    /* \"#utility.yul\":845:1352   */\ntag_3:\n    /* \"#utility.yul\":924:930   */\n  0x00\n    /* \"#utility.yul\":932:938   */\n  dup1\n    /* \"#utility.yul\":981:983   */\n  0x40\n    /* \"#utility.yul\":969:978   */\n  dup4\n    /* \"#utility.yul\":960:967   */\n  dup6\n    /* \"#utility.yul\":956:979   */\n  sub\n    /* \"#utility.yul\":952:984   */\n  slt\n    /* \"#utility.yul\":949:1068   */\n  iszero\n  tag_54\n  jumpi\n    /* \"#utility.yul\":987:1066   */\n  tag_55\n  tag_32\n  jump\t// in\ntag_55:\n    /* \"#utility.yul\":949:1068   */\ntag_54:\n    /* \"#utility.yul\":1107:1108   */\n  0x00\n    /* \"#utility.yul\":1132:1196   */\n  tag_56\n    /* \"#utility.yul\":1188:1195   */\n  dup6\n    /* \"#utility.yul\":1179:1185   */\n  dup3\n    /* \"#utility.yul\":1168:1177   */\n  dup7\n    /* \"#utility.yul\":1164:1186   */\n  add\n    /* \"#utility.yul\":1132:1196   */\n  tag_37\n  jump\t// in\ntag_56:\n    /* \"#utility.yul\":1122:1196   */\n  swap3\n  pop\n    /* \"#utility.yul\":1078:1206   */\n  pop\n    /* \"#utility.yul\":1245:1247   */\n  0x20\n    /* \"#utility.yul\":1271:1335   */\n  tag_57\n    /* \"#utility.yul\":1327:1334   */\n  dup6\n    /* \"#utility.yul\":1318:1324   */\n  dup3\n    /* \"#utility.yul\":1307:1316   */\n  dup7\n    /* \"#utility.yul\":1303:1325   */\n  add\n    /* \"#utility.yul\":1271:1335   */\n  tag_37\n  jump\t// in\ntag_57:\n    /* \"#utility.yul\":1261:1335   */\n  swap2\n  pop\n    /* \"#utility.yul\":1216:1345   */\n  pop\n    /* \"#utility.yul\":845:1352   */\n  swap3\n  pop\n  swap3\n  swap1\n  pop\n  jump\t// out\n    /* \"#utility.yul\":1358:1527   */\ntag_38:\n    /* \"#utility.yul\":1442:1453   */\n  0x00\n    /* \"#utility.yul\":1476:1482   */\n  dup3\n    /* \"#utility.yul\":1471:1474   */\n  dup3\n    /* \"#utility.yul\":1464:1483   */\n  mstore\n    /* \"#utility.yul\":1516:1520   */\n  0x20\n    /* \"#utility.yul\":1511:1514   */\n  dup3\n    /* \"#utility.yul\":1507:1521   */\n  add\n    /* \"#utility.yul\":1492:1521   */\n  swap1\n  pop\n    /* \"#utility.yul\":1358:1527   */\n  swap3\n  swap2\n  pop\n  pop\n  jump\t// out\n    /* \"#utility.yul\":1533:1702   */\ntag_39:\n    /* \"#utility.yul\":1673:1694   */\n  0x556e417574686f72697a65644163636f756e7400000000000000000000000000\n    /* \"#utility.yul\":1669:1670   */\n  0x00\n    /* \"#utility.yul\":1661:1667   */\n  dup3\n    /* \"#utility.yul\":1657:1671   */\n  add\n    /* \"#utility.yul\":1650:1695   */\n  mstore\n    /* \"#utility.yul\":1533:1702   */\n  pop\n  jump\t// out\n    /* \"#utility.yul\":1708:2074   */\ntag_40:\n    /* \"#utility.yul\":1850:1853   */\n  0x00\n    /* \"#utility.yul\":1871:1938   */\n  tag_61\n    /* \"#utility.yul\":1935:1937   */\n  0x13\n    /* \"#utility.yul\":1930:1933   */\n  dup4\n    /* \"#utility.yul\":1871:1938   */\n  tag_38\n  jump\t// in\ntag_61:\n    /* \"#utility.yul\":1864:1938   */\n  swap2\n  pop\n    /* \"#utility.yul\":1947:2040   */\n  tag_62\n    /* \"#utility.yul\":2036:2039   */\n  dup3\n    /* \"#utility.yul\":1947:2040   */\n  tag_39\n  jump\t// in\ntag_62:\n    /* \"#utility.yul\":2065:2067   */\n  0x20\n    /* \"#utility.yul\":2060:2063   */\n  dup3\n    /* \"#utility.yul\":2056:2068   */\n  add\n    /* \"#utility.yul\":2049:2068   */\n  swap1\n  pop\n    /* \"#utility.yul\":1708:2074   */\n  swap2\n  swap1\n  pop\n  jump\t// out\n    /* \"#utility.yul\":2080:2499   */\ntag_29:\n    /* \"#utility.yul\":2246:2250   */\n  0x00\n    /* \"#utility.yul\":2284:2286   */\n  0x20\n    /* \"#utility.yul\":2273:2282   */\n  dup3\n    /* \"#utility.yul\":2269:2287   */\n  add\n    /* \"#utility.yul\":2261:2287   */\n  swap1\n  pop\n    /* \"#utility.yul\":2333:2342   */\n  dup2\n    /* \"#utility.yul\":2327:2331   */\n  dup2\n    /* \"#utility.yul\":2323:2343   */\n  sub\n    /* \"#utility.yul\":2319:2320   */\n  0x00\n    /* \"#utility.yul\":2308:2317   */\n  dup4\n    /* \"#utility.yul\":2304:2321   */\n  add\n    /* \"#utility.yul\":2297:2344   */\n  mstore\n    /* \"#utility.yul\":2361:2492   */\n  tag_64\n    /* \"#utility.yul\":2487:2491   */\n  dup2\n    /* \"#utility.yul\":2361:2492   */\n  tag_40\n  jump\t// in\ntag_64:\n    /* \"#utility.yul\":2353:2492   */\n  swap1\n  pop\n    /* \"#utility.yul\":2080:2499   */\n  swap2\n  swap1\n  pop\n  jump\t// out\n    /* \"1127/DomainLogic.sol\":161:1914  contract DomainContract is AccessControl{... */\ntag_12:\n  dataSize(sub_0)\n  dup1\n  dataOffset(sub_0)\n  0x00\n  codecopy\n  0x00\n  return\nstop\n\nsub_0: assembly {\n        /* \"1127/DomainLogic.sol\":161:1914  contract DomainContract is AccessControl{... */\n      mstore(0x40, 0x80)\n      callvalue\n      dup1\n      iszero\n      tag_1\n      jumpi\n      0x00\n      dup1\n      revert\n    tag_1:\n      pop\n      jumpi(tag_2, lt(calldatasize, 0x04))\n      shr(0xe0, calldataload(0x00))\n      dup1\n      0x91d14854\n      gt\n      tag_13\n      jumpi\n      dup1\n      0x91d14854\n      eq\n      tag_8\n      jumpi\n      dup1\n      0x9cdeba95\n      eq\n      tag_9\n      jumpi\n      dup1\n      0xc5b95190\n      eq\n      tag_10\n      jumpi\n      dup1\n      0xd547741f\n      eq\n      tag_11\n      jumpi\n      dup1\n      0xffcee0a1\n      eq\n      tag_12\n      jumpi\n      jump(tag_2)\n    tag_13:\n      dup1\n      0x0a0a4cb9\n      eq\n      tag_3\n      jumpi\n      dup1\n      0x248a9ca3\n      eq\n      tag_4\n      jumpi\n      dup1\n      0x2f2ff15d\n      eq\n      tag_5\n      jumpi\n      dup1\n      0x36568abe\n      eq\n      tag_6\n      jumpi\n      dup1\n      0x5d7746c0\n      eq\n      tag_7\n      jumpi\n    tag_2:\n      0x00\n      dup1\n      revert\n        /* \"1127/DomainLogic.sol\":253:317  bytes32 public constant DOMAIN_ADMIN = keccak256(\"Domain_ADMIN\") */\n    tag_3:\n      tag_14\n      tag_15\n      jump\t// in\n    tag_14:\n      mload(0x40)\n      tag_16\n      swap2\n      swap1\n      tag_17\n      jump\t// in\n    tag_16:\n      mload(0x40)\n      dup1\n      swap2\n      sub\n      swap1\n      return\n        /* \"1127/util/AccessControl.sol\":1379:1490  function getRoleAdmin(bytes32 role) public view returns (bytes32) {... */\n    tag_4:\n      tag_18\n      0x04\n      dup1\n      calldatasize\n      sub\n      dup2\n      add\n      swap1\n      tag_19\n      swap2\n      swap1\n      tag_20\n      jump\t// in\n    tag_19:\n      tag_21\n      jump\t// in\n    tag_18:\n      mload(0x40)\n      tag_22\n      swap2\n      swap1\n      tag_17\n      jump\t// in\n    tag_22:\n      mload(0x40)\n      dup1\n      swap2\n      sub\n      swap1\n      return\n        /* \"1127/util/AccessControl.sol\":1785:2111  function grantRole(bytes32 role, address member)... */\n    tag_5:\n      tag_23\n      0x04\n      dup1\n      calldatasize\n      sub\n      dup2\n      add\n      swap1\n      tag_24\n      swap2\n      swap1\n      tag_25\n      jump\t// in\n    tag_24:\n      tag_26\n      jump\t// in\n    tag_23:\n      mload(0x40)\n      tag_27\n      swap2\n      swap1\n      tag_28\n      jump\t// in\n    tag_27:\n      mload(0x40)\n      dup1\n      swap2\n      sub\n      swap1\n      return\n        /* \"1127/util/AccessControl.sol\":2553:2795  function renounceRole(bytes32 role, address callerConfirmation)... */\n    tag_6:\n      tag_29\n      0x04\n      dup1\n      calldatasize\n      sub\n      dup2\n      add\n      swap1\n      tag_30\n      swap2\n      swap1\n      tag_25\n      jump\t// in\n    tag_30:\n      tag_31\n      jump\t// in\n    tag_29:\n      stop\n        /* \"1127/DomainLogic.sol\":822:1384  function registerCompany(string memory company_did,string memory company_name,address company_owner)public AccessControl.onlyRole(DOMAIN_ADMIN) returns (bool) {... */\n    tag_7:\n      tag_32\n      0x04\n      dup1\n      calldatasize\n      sub\n      dup2\n      add\n      swap1\n      tag_33\n      swap2\n      swap1\n      tag_34\n      jump\t// in\n    tag_33:\n      tag_35\n      jump\t// in\n    tag_32:\n      mload(0x40)\n      tag_36\n      swap2\n      swap1\n      tag_28\n      jump\t// in\n    tag_36:\n      mload(0x40)\n      dup1\n      swap2\n      sub\n      swap1\n      return\n        /* \"1127/util/AccessControl.sol\":1209:1335  function hasRole(bytes32 role, address member) public view returns (bool) {... */\n    tag_8:\n      tag_37\n      0x04\n      dup1\n      calldatasize\n      sub\n      dup2\n      add\n      swap1\n      tag_38\n      swap2\n      swap1\n      tag_25\n      jump\t// in\n    tag_38:\n      tag_39\n      jump\t// in\n    tag_37:\n      mload(0x40)\n      tag_40\n      swap2\n      swap1\n      tag_28\n      jump\t// in\n    tag_40:\n      mload(0x40)\n      dup1\n      swap2\n      sub\n      swap1\n      return\n        /* \"1127/util/AccessControl.sol\":206:250  bytes32 public constant DEFAULT_ADMIN = 0x00 */\n    tag_9:\n      tag_41\n      tag_42\n      jump\t// in\n    tag_41:\n      mload(0x40)\n      tag_43\n      swap2\n      swap1\n      tag_17\n      jump\t// in\n    tag_43:\n      mload(0x40)\n      dup1\n      swap2\n      sub\n      swap1\n      return\n        /* \"1127/util/AccessControl.sol\":1011:1194  function checkRole(bytes32 role) public view returns (bool) {... */\n    tag_10:\n      tag_44\n      0x04\n      dup1\n      calldatasize\n      sub\n      dup2\n      add\n      swap1\n      tag_45\n      swap2\n      swap1\n      tag_20\n      jump\t// in\n    tag_45:\n      tag_46\n      jump\t// in\n    tag_44:\n      mload(0x40)\n      tag_47\n      swap2\n      swap1\n      tag_28\n      jump\t// in\n    tag_47:\n      mload(0x40)\n      dup1\n      swap2\n      sub\n      swap1\n      return\n        /* \"1127/util/AccessControl.sol\":2161:2490  function revokeRole(bytes32 role, address member)... */\n    tag_11:\n      tag_48\n      0x04\n      dup1\n      calldatasize\n      sub\n      dup2\n      add\n      swap1\n      tag_49\n      swap2\n      swap1\n      tag_25\n      jump\t// in\n    tag_49:\n      tag_50\n      jump\t// in\n    tag_48:\n      mload(0x40)\n      tag_51\n      swap2\n      swap1\n      tag_28\n      jump\t// in\n    tag_51:\n      mload(0x40)\n      dup1\n      swap2\n      sub\n      swap1\n      return\n        /* \"1127/DomainLogic.sol\":1392:1911  function removeCompany(string memory company_did)public AccessControl.onlyRole(DOMAIN_ADMIN) returns (bool) {... */\n    tag_12:\n      tag_52\n      0x04\n      dup1\n      calldatasize\n      sub\n      dup2\n      add\n      swap1\n      tag_53\n      swap2\n      swap1\n      tag_54\n      jump\t// in\n    tag_53:\n      tag_55\n      jump\t// in\n    tag_52:\n      mload(0x40)\n      tag_56\n      swap2\n      swap1\n      tag_28\n      jump\t// in\n    tag_56:\n      mload(0x40)\n      dup1\n      swap2\n      sub\n      swap1\n      return\n        /* \"1127/DomainLogic.sol\":253:317  bytes32 public constant DOMAIN_ADMIN = keccak256(\"Domain_ADMIN\") */\n    tag_15:\n        /* \"1127/DomainLogic.sol\":292:317  keccak256(\"Domain_ADMIN\") */\n      0x0a17004e45f702315376249fbb5266f40fc0c452c5452b3ea6809db18e2ad3d7\n        /* \"1127/DomainLogic.sol\":253:317  bytes32 public constant DOMAIN_ADMIN = keccak256(\"Domain_ADMIN\") */\n      dup2\n      jump\t// out\n        /* \"1127/util/AccessControl.sol\":1379:1490  function getRoleAdmin(bytes32 role) public view returns (bytes32) {... */\n    tag_21:\n        /* \"1127/util/AccessControl.sol\":1436:1443  bytes32 */\n      0x00\n        /* \"1127/util/AccessControl.sol\":1462:1467  roles */\n      dup1\n        /* \"1127/util/AccessControl.sol\":1462:1473  roles[role] */\n      0x00\n        /* \"1127/util/AccessControl.sol\":1468:1472  role */\n      dup4\n        /* \"1127/util/AccessControl.sol\":1462:1473  roles[role] */\n      dup2\n      mstore\n      0x20\n      add\n      swap1\n      dup2\n      mstore\n      0x20\n      add\n      0x00\n      keccak256\n        /* \"1127/util/AccessControl.sol\":1462:1483  roles[role].adminRole */\n      0x01\n      add\n      sload\n        /* \"1127/util/AccessControl.sol\":1455:1483  return roles[role].adminRole */\n      swap1\n      pop\n        /* \"1127/util/AccessControl.sol\":1379:1490  function getRoleAdmin(bytes32 role) public view returns (bytes32) {... */\n      swap2\n      swap1\n      pop\n      jump\t// out\n        /* \"1127/util/AccessControl.sol\":1785:2111  function grantRole(bytes32 role, address member)... */\n    tag_26:\n        /* \"1127/util/AccessControl.sol\":1903:1907  bool */\n      0x00\n        /* \"1127/util/AccessControl.sol\":1866:1884  getRoleAdmin(role) */\n      tag_58\n        /* \"1127/util/AccessControl.sol\":1879:1883  role */\n      dup4\n        /* \"1127/util/AccessControl.sol\":1866:1878  getRoleAdmin */\n      tag_21\n        /* \"1127/util/AccessControl.sol\":1866:1884  getRoleAdmin(role) */\n      jump\t// in\n    tag_58:\n        /* \"1127/util/AccessControl.sol\":856:871  checkRole(role) */\n      tag_60\n        /* \"1127/util/AccessControl.sol\":866:870  role */\n      dup2\n        /* \"1127/util/AccessControl.sol\":856:865  checkRole */\n      tag_46\n        /* \"1127/util/AccessControl.sol\":856:871  checkRole(role) */\n      jump\t// in\n    tag_60:\n      pop\n        /* \"1127/util/AccessControl.sol\":1927:1948  hasRole(role, member) */\n      tag_62\n        /* \"1127/util/AccessControl.sol\":1935:1939  role */\n      dup5\n        /* \"1127/util/AccessControl.sol\":1941:1947  member */\n      dup5\n        /* \"1127/util/AccessControl.sol\":1927:1934  hasRole */\n      tag_39\n        /* \"1127/util/AccessControl.sol\":1927:1948  hasRole(role, member) */\n      jump\t// in\n    tag_62:\n        /* \"1127/util/AccessControl.sol\":1923:1987  if (hasRole(role, member)) {... */\n      iszero\n      tag_63\n      jumpi\n        /* \"1127/util/AccessControl.sol\":1971:1976  false */\n      0x00\n        /* \"1127/util/AccessControl.sol\":1964:1976  return false */\n      swap2\n      pop\n      jump(tag_61)\n        /* \"1127/util/AccessControl.sol\":1923:1987  if (hasRole(role, member)) {... */\n    tag_63:\n        /* \"1127/util/AccessControl.sol\":2027:2031  true */\n      0x01\n        /* \"1127/util/AccessControl.sol\":1996:2001  roles */\n      0x00\n        /* \"1127/util/AccessControl.sol\":1996:2007  roles[role] */\n      dup1\n        /* \"1127/util/AccessControl.sol\":2002:2006  role */\n      dup7\n        /* \"1127/util/AccessControl.sol\":1996:2007  roles[role] */\n      dup2\n      mstore\n      0x20\n      add\n      swap1\n      dup2\n      mstore\n      0x20\n      add\n      0x00\n      keccak256\n        /* \"1127/util/AccessControl.sol\":1996:2016  roles[role].hasRoles */\n      0x00\n      add\n        /* \"1127/util/AccessControl.sol\":1996:2024  roles[role].hasRoles[member] */\n      0x00\n        /* \"1127/util/AccessControl.sol\":2017:2023  member */\n      dup6\n        /* \"1127/util/AccessControl.sol\":1996:2024  roles[role].hasRoles[member] */\n      0xffffffffffffffffffffffffffffffffffffffff\n      and\n      0xffffffffffffffffffffffffffffffffffffffff\n      and\n      dup2\n      mstore\n      0x20\n      add\n      swap1\n      dup2\n      mstore\n      0x20\n      add\n      0x00\n      keccak256\n      0x00\n        /* \"1127/util/AccessControl.sol\":1996:2031  roles[role].hasRoles[member] = true */\n      0x0100\n      exp\n      dup2\n      sload\n      dup2\n      0xff\n      mul\n      not\n      and\n      swap1\n      dup4\n      iszero\n      iszero\n      mul\n      or\n      swap1\n      sstore\n      pop\n        /* \"1127/util/AccessControl.sol\":2072:2082  msg.sender */\n      caller\n        /* \"1127/util/AccessControl.sol\":2046:2083  RoleGranted(role, member, msg.sender) */\n      0xffffffffffffffffffffffffffffffffffffffff\n      and\n        /* \"1127/util/AccessControl.sol\":2064:2070  member */\n      dup4\n        /* \"1127/util/AccessControl.sol\":2046:2083  RoleGranted(role, member, msg.sender) */\n      0xffffffffffffffffffffffffffffffffffffffff\n      and\n        /* \"1127/util/AccessControl.sol\":2058:2062  role */\n      dup6\n        /* \"1127/util/AccessControl.sol\":2046:2083  RoleGranted(role, member, msg.sender) */\n      0x2f8788117e7eff1d82e926ec794901d17c78024a50270940304540a733656f0d\n      mload(0x40)\n      mload(0x40)\n      dup1\n      swap2\n      sub\n      swap1\n      log4\n        /* \"1127/util/AccessControl.sol\":2100:2104  true */\n      0x01\n        /* \"1127/util/AccessControl.sol\":2093:2104  return true */\n      swap2\n      pop\n        /* \"1127/util/AccessControl.sol\":881:882  _ */\n    tag_61:\n        /* \"1127/util/AccessControl.sol\":1785:2111  function grantRole(bytes32 role, address member)... */\n      pop\n      swap3\n      swap2\n      pop\n      pop\n      jump\t// out\n        /* \"1127/util/AccessControl.sol\":2553:2795  function renounceRole(bytes32 role, address callerConfirmation)... */\n    tag_31:\n        /* \"1127/util/AccessControl.sol\":2681:2691  msg.sender */\n      caller\n        /* \"1127/util/AccessControl.sol\":2659:2691  callerConfirmation != msg.sender */\n      0xffffffffffffffffffffffffffffffffffffffff\n      and\n        /* \"1127/util/AccessControl.sol\":2659:2677  callerConfirmation */\n      dup2\n        /* \"1127/util/AccessControl.sol\":2659:2691  callerConfirmation != msg.sender */\n      0xffffffffffffffffffffffffffffffffffffffff\n      and\n      eq\n        /* \"1127/util/AccessControl.sol\":2655:2743  if (callerConfirmation != msg.sender) {... */\n      tag_65\n      jumpi\n        /* \"1127/util/AccessControl.sol\":2707:2732  revert(\"BadConfirmation\") */\n      mload(0x40)\n      0x08c379a000000000000000000000000000000000000000000000000000000000\n      dup2\n      mstore\n      0x04\n      add\n      tag_66\n      swap1\n      tag_67\n      jump\t// in\n    tag_66:\n      mload(0x40)\n      dup1\n      swap2\n      sub\n      swap1\n      revert\n        /* \"1127/util/AccessControl.sol\":2655:2743  if (callerConfirmation != msg.sender) {... */\n    tag_65:\n        /* \"1127/util/AccessControl.sol\":2752:2788  revokeRole(role, callerConfirmation) */\n      tag_68\n        /* \"1127/util/AccessControl.sol\":2763:2767  role */\n      dup3\n        /* \"1127/util/AccessControl.sol\":2769:2787  callerConfirmation */\n      dup3\n        /* \"1127/util/AccessControl.sol\":2752:2762  revokeRole */\n      tag_50\n        /* \"1127/util/AccessControl.sol\":2752:2788  revokeRole(role, callerConfirmation) */\n      jump\t// in\n    tag_68:\n      pop\n        /* \"1127/util/AccessControl.sol\":2553:2795  function renounceRole(bytes32 role, address callerConfirmation)... */\n      pop\n      pop\n      jump\t// out\n        /* \"1127/DomainLogic.sol\":822:1384  function registerCompany(string memory company_did,string memory company_name,address company_owner)public AccessControl.onlyRole(DOMAIN_ADMIN) returns (bool) {... */\n    tag_35:\n        /* \"1127/DomainLogic.sol\":975:979  bool */\n      0x00\n        /* \"1127/DomainLogic.sol\":292:317  keccak256(\"Domain_ADMIN\") */\n      0x0a17004e45f702315376249fbb5266f40fc0c452c5452b3ea6809db18e2ad3d7\n        /* \"1127/util/AccessControl.sol\":856:871  checkRole(role) */\n      tag_70\n        /* \"1127/util/AccessControl.sol\":866:870  role */\n      dup2\n        /* \"1127/util/AccessControl.sol\":856:865  checkRole */\n      tag_46\n        /* \"1127/util/AccessControl.sol\":856:871  checkRole(role) */\n      jump\t// in\n    tag_70:\n      pop\n        /* \"1127/DomainLogic.sol\":1033:1034  0 */\n      0x00\n        /* \"1127/DomainLogic.sol\":994:1035  companies[company_did].addr != address(0) */\n      0xffffffffffffffffffffffffffffffffffffffff\n      and\n        /* \"1127/DomainLogic.sol\":994:1003  companies */\n      0x02\n        /* \"1127/DomainLogic.sol\":1004:1015  company_did */\n      dup7\n        /* \"1127/DomainLogic.sol\":994:1016  companies[company_did] */\n      mload(0x40)\n      tag_72\n      swap2\n      swap1\n      tag_73\n      jump\t// in\n    tag_72:\n      swap1\n      dup2\n      mstore\n      0x20\n      add\n      mload(0x40)\n      dup1\n      swap2\n      sub\n      swap1\n      keccak256\n        /* \"1127/DomainLogic.sol\":994:1021  companies[company_did].addr */\n      0x01\n      add\n      0x00\n      swap1\n      sload\n      swap1\n      0x0100\n      exp\n      swap1\n      div\n      0xffffffffffffffffffffffffffffffffffffffff\n      and\n        /* \"1127/DomainLogic.sol\":994:1035  companies[company_did].addr != address(0) */\n      0xffffffffffffffffffffffffffffffffffffffff\n      and\n      eq\n        /* \"1127/DomainLogic.sol\":991:1074  if(companies[company_did].addr != address(0)){... */\n      tag_74\n      jumpi\n        /* \"1127/DomainLogic.sol\":1058:1063  false */\n      0x00\n        /* \"1127/DomainLogic.sol\":1051:1063  return false */\n      swap2\n      pop\n      jump(tag_71)\n        /* \"1127/DomainLogic.sol\":991:1074  if(companies[company_did].addr != address(0)){... */\n    tag_74:\n        /* \"1127/DomainLogic.sol\":1083:1110  CompanyProxy companyAddress */\n      0x00\n        /* \"1127/DomainLogic.sol\":1130:1143  company_owner */\n      dup4\n        /* \"1127/DomainLogic.sol\":1144:1156  company_name */\n      dup6\n        /* \"1127/DomainLogic.sol\":1157:1177  _commonlogicContract */\n      0x01\n      0x00\n      swap1\n      sload\n      swap1\n      0x0100\n      exp\n      swap1\n      div\n      0xffffffffffffffffffffffffffffffffffffffff\n      and\n        /* \"1127/DomainLogic.sol\":1113:1178  new CompanyProxy(company_owner,company_name,_commonlogicContract) */\n      mload(0x40)\n      tag_75\n      swap1\n      tag_76\n      jump\t// in\n    tag_75:\n      tag_77\n      swap4\n      swap3\n      swap2\n      swap1\n      tag_78\n      jump\t// in\n    tag_77:\n      mload(0x40)\n      dup1\n      swap2\n      sub\n      swap1\n      0x00\n      create\n      dup1\n      iszero\n      dup1\n      iszero\n      tag_79\n      jumpi\n      returndatasize\n      0x00\n      dup1\n      returndatacopy\n      revert(0x00, returndatasize)\n    tag_79:\n      pop\n        /* \"1127/DomainLogic.sol\":1083:1178  CompanyProxy companyAddress = new CompanyProxy(company_owner,company_name,_commonlogicContract) */\n      swap1\n      pop\n        /* \"1127/DomainLogic.sol\":1212:1270  DataStruct.Company(company_did,company_owner,company_name) */\n      mload(0x40)\n      dup1\n      0x60\n      add\n      0x40\n      mstore\n      dup1\n        /* \"1127/DomainLogic.sol\":1231:1242  company_did */\n      dup8\n        /* \"1127/DomainLogic.sol\":1212:1270  DataStruct.Company(company_did,company_owner,company_name) */\n      dup2\n      mstore\n      0x20\n      add\n        /* \"1127/DomainLogic.sol\":1243:1256  company_owner */\n      dup6\n        /* \"1127/DomainLogic.sol\":1212:1270  DataStruct.Company(company_did,company_owner,company_name) */\n      0xffffffffffffffffffffffffffffffffffffffff\n      and\n      dup2\n      mstore\n      0x20\n      add\n        /* \"1127/DomainLogic.sol\":1257:1269  company_name */\n      dup7\n        /* \"1127/DomainLogic.sol\":1212:1270  DataStruct.Company(company_did,company_owner,company_name) */\n      dup2\n      mstore\n      pop\n        /* \"1127/DomainLogic.sol\":1188:1197  companies */\n      0x02\n        /* \"1127/DomainLogic.sol\":1198:1209  company_did */\n      dup8\n        /* \"1127/DomainLogic.sol\":1188:1210  companies[company_did] */\n      mload(0x40)\n      tag_80\n      swap2\n      swap1\n      tag_73\n      jump\t// in\n    tag_80:\n      swap1\n      dup2\n      mstore\n      0x20\n      add\n      mload(0x40)\n      dup1\n      swap2\n      sub\n      swap1\n      keccak256\n        /* \"1127/DomainLogic.sol\":1188:1270  companies[company_did]= DataStruct.Company(company_did,company_owner,company_name) */\n      0x00\n      dup3\n      add\n      mload\n      dup2\n      0x00\n      add\n      swap1\n      dup1\n      mload\n      swap1\n      0x20\n      add\n      swap1\n      tag_81\n      swap3\n      swap2\n      swap1\n      tag_82\n      jump\t// in\n    tag_81:\n      pop\n      0x20\n      dup3\n      add\n      mload\n      dup2\n      0x01\n      add\n      exp(0x0100, 0x00)\n      dup2\n      sload\n      dup2\n      0xffffffffffffffffffffffffffffffffffffffff\n      mul\n      not\n      and\n      swap1\n      dup4\n      0xffffffffffffffffffffffffffffffffffffffff\n      and\n      mul\n      or\n      swap1\n      sstore\n      pop\n      0x40\n      dup3\n      add\n      mload\n      dup2\n      0x02\n      add\n      swap1\n      dup1\n      mload\n      swap1\n      0x20\n      add\n      swap1\n      tag_83\n      swap3\n      swap2\n      swap1\n      tag_82\n      jump\t// in\n    tag_83:\n      pop\n      swap1\n      pop\n      pop\n        /* \"1127/DomainLogic.sol\":1285:1355  NewCompanyRegistered(company_did,company_name,address(companyAddress)) */\n      0x3a3fb9a0b1b5aa6ea94c1cf0eab4fe13f7e24aa92bd1acaf3dbdb5cf4c9498bf\n        /* \"1127/DomainLogic.sol\":1306:1317  company_did */\n      dup7\n        /* \"1127/DomainLogic.sol\":1318:1330  company_name */\n      dup7\n        /* \"1127/DomainLogic.sol\":1339:1353  companyAddress */\n      dup4\n        /* \"1127/DomainLogic.sol\":1285:1355  NewCompanyRegistered(company_did,company_name,address(companyAddress)) */\n      mload(0x40)\n      tag_84\n      swap4\n      swap3\n      swap2\n      swap1\n      tag_85\n      jump\t// in\n    tag_84:\n      mload(0x40)\n      dup1\n      swap2\n      sub\n      swap1\n      log1\n        /* \"1127/DomainLogic.sol\":1372:1376  true */\n      0x01\n        /* \"1127/DomainLogic.sol\":1365:1376  return true */\n      swap3\n      pop\n      pop\n        /* \"1127/util/AccessControl.sol\":881:882  _ */\n    tag_71:\n        /* \"1127/DomainLogic.sol\":822:1384  function registerCompany(string memory company_did,string memory company_name,address company_owner)public AccessControl.onlyRole(DOMAIN_ADMIN) returns (bool) {... */\n      pop\n      swap4\n      swap3\n      pop\n      pop\n      pop\n      jump\t// out\n        /* \"1127/util/AccessControl.sol\":1209:1335  function hasRole(bytes32 role, address member) public view returns (bool) {... */\n    tag_39:\n        /* \"1127/util/AccessControl.sol\":1277:1281  bool */\n      0x00\n        /* \"1127/util/AccessControl.sol\":1300:1305  roles */\n      dup1\n        /* \"1127/util/AccessControl.sol\":1300:1311  roles[role] */\n      0x00\n        /* \"1127/util/AccessControl.sol\":1306:1310  role */\n      dup5\n        /* \"1127/util/AccessControl.sol\":1300:1311  roles[role] */\n      dup2\n      mstore\n      0x20\n      add\n      swap1\n      dup2\n      mstore\n      0x20\n      add\n      0x00\n      keccak256\n        /* \"1127/util/AccessControl.sol\":1300:1320  roles[role].hasRoles */\n      0x00\n      add\n        /* \"1127/util/AccessControl.sol\":1300:1328  roles[role].hasRoles[member] */\n      0x00\n        /* \"1127/util/AccessControl.sol\":1321:1327  member */\n      dup4\n        /* \"1127/util/AccessControl.sol\":1300:1328  roles[role].hasRoles[member] */\n      0xffffffffffffffffffffffffffffffffffffffff\n      and\n      0xffffffffffffffffffffffffffffffffffffffff\n      and\n      dup2\n      mstore\n      0x20\n      add\n      swap1\n      dup2\n      mstore\n      0x20\n      add\n      0x00\n      keccak256\n      0x00\n      swap1\n      sload\n      swap1\n      0x0100\n      exp\n      swap1\n      div\n      0xff\n      and\n        /* \"1127/util/AccessControl.sol\":1293:1328  return roles[role].hasRoles[member] */\n      swap1\n      pop\n        /* \"1127/util/AccessControl.sol\":1209:1335  function hasRole(bytes32 role, address member) public view returns (bool) {... */\n      swap3\n      swap2\n      pop\n      pop\n      jump\t// out\n        /* \"1127/util/AccessControl.sol\":206:250  bytes32 public constant DEFAULT_ADMIN = 0x00 */\n    tag_42:\n        /* \"1127/util/AccessControl.sol\":246:250  0x00 */\n      0x00\n        /* \"1127/util/AccessControl.sol\":206:250  bytes32 public constant DEFAULT_ADMIN = 0x00 */\n      dup1\n      shl\n      dup2\n      jump\t// out\n        /* \"1127/util/AccessControl.sol\":1011:1194  function checkRole(bytes32 role) public view returns (bool) {... */\n    tag_46:\n        /* \"1127/util/AccessControl.sol\":1065:1069  bool */\n      0x00\n        /* \"1127/util/AccessControl.sol\":1086:1111  hasRole(role, msg.sender) */\n      tag_88\n        /* \"1127/util/AccessControl.sol\":1094:1098  role */\n      dup3\n        /* \"1127/util/AccessControl.sol\":1100:1110  msg.sender */\n      caller\n        /* \"1127/util/AccessControl.sol\":1086:1093  hasRole */\n      tag_39\n        /* \"1127/util/AccessControl.sol\":1086:1111  hasRole(role, msg.sender) */\n      jump\t// in\n    tag_88:\n        /* \"1127/util/AccessControl.sol\":1081:1167  if (!hasRole(role, msg.sender)) {... */\n      tag_89\n      jumpi\n        /* \"1127/util/AccessControl.sol\":1127:1156  revert(\"UnAuthorizedAccount\") */\n      mload(0x40)\n      0x08c379a000000000000000000000000000000000000000000000000000000000\n      dup2\n      mstore\n      0x04\n      add\n      tag_90\n      swap1\n      tag_91\n      jump\t// in\n    tag_90:\n      mload(0x40)\n      dup1\n      swap2\n      sub\n      swap1\n      revert\n        /* \"1127/util/AccessControl.sol\":1081:1167  if (!hasRole(role, msg.sender)) {... */\n    tag_89:\n        /* \"1127/util/AccessControl.sol\":1183:1187  true */\n      0x01\n        /* \"1127/util/AccessControl.sol\":1176:1187  return true */\n      swap1\n      pop\n        /* \"1127/util/AccessControl.sol\":1011:1194  function checkRole(bytes32 role) public view returns (bool) {... */\n      swap2\n      swap1\n      pop\n      jump\t// out\n        /* \"1127/util/AccessControl.sol\":2161:2490  function revokeRole(bytes32 role, address member)... */\n    tag_50:\n        /* \"1127/util/AccessControl.sol\":2280:2284  bool */\n      0x00\n        /* \"1127/util/AccessControl.sol\":2243:2261  getRoleAdmin(role) */\n      tag_92\n        /* \"1127/util/AccessControl.sol\":2256:2260  role */\n      dup4\n        /* \"1127/util/AccessControl.sol\":2243:2255  getRoleAdmin */\n      tag_21\n        /* \"1127/util/AccessControl.sol\":2243:2261  getRoleAdmin(role) */\n      jump\t// in\n    tag_92:\n        /* \"1127/util/AccessControl.sol\":856:871  checkRole(role) */\n      tag_94\n        /* \"1127/util/AccessControl.sol\":866:870  role */\n      dup2\n        /* \"1127/util/AccessControl.sol\":856:865  checkRole */\n      tag_46\n        /* \"1127/util/AccessControl.sol\":856:871  checkRole(role) */\n      jump\t// in\n    tag_94:\n      pop\n        /* \"1127/util/AccessControl.sol\":2305:2326  hasRole(role, member) */\n      tag_96\n        /* \"1127/util/AccessControl.sol\":2313:2317  role */\n      dup5\n        /* \"1127/util/AccessControl.sol\":2319:2325  member */\n      dup5\n        /* \"1127/util/AccessControl.sol\":2305:2312  hasRole */\n      tag_39\n        /* \"1127/util/AccessControl.sol\":2305:2326  hasRole(role, member) */\n      jump\t// in\n    tag_96:\n        /* \"1127/util/AccessControl.sol\":2300:2365  if (!hasRole(role, member)) {... */\n      tag_97\n      jumpi\n        /* \"1127/util/AccessControl.sol\":2349:2354  false */\n      0x00\n        /* \"1127/util/AccessControl.sol\":2342:2354  return false */\n      swap2\n      pop\n      jump(tag_95)\n        /* \"1127/util/AccessControl.sol\":2300:2365  if (!hasRole(role, member)) {... */\n    tag_97:\n        /* \"1127/util/AccessControl.sol\":2405:2410  false */\n      0x00\n        /* \"1127/util/AccessControl.sol\":2374:2379  roles */\n      dup1\n        /* \"1127/util/AccessControl.sol\":2374:2385  roles[role] */\n      0x00\n        /* \"1127/util/AccessControl.sol\":2380:2384  role */\n      dup7\n        /* \"1127/util/AccessControl.sol\":2374:2385  roles[role] */\n      dup2\n      mstore\n      0x20\n      add\n      swap1\n      dup2\n      mstore\n      0x20\n      add\n      0x00\n      keccak256\n        /* \"1127/util/AccessControl.sol\":2374:2394  roles[role].hasRoles */\n      0x00\n      add\n        /* \"1127/util/AccessControl.sol\":2374:2402  roles[role].hasRoles[member] */\n      0x00\n        /* \"1127/util/AccessControl.sol\":2395:2401  member */\n      dup6\n        /* \"1127/util/AccessControl.sol\":2374:2402  roles[role].hasRoles[member] */\n      0xffffffffffffffffffffffffffffffffffffffff\n      and\n      0xffffffffffffffffffffffffffffffffffffffff\n      and\n      dup2\n      mstore\n      0x20\n      add\n      swap1\n      dup2\n      mstore\n      0x20\n      add\n      0x00\n      keccak256\n      0x00\n        /* \"1127/util/AccessControl.sol\":2374:2410  roles[role].hasRoles[member] = false */\n      0x0100\n      exp\n      dup2\n      sload\n      dup2\n      0xff\n      mul\n      not\n      and\n      swap1\n      dup4\n      iszero\n      iszero\n      mul\n      or\n      swap1\n      sstore\n      pop\n        /* \"1127/util/AccessControl.sol\":2451:2461  msg.sender */\n      caller\n        /* \"1127/util/AccessControl.sol\":2425:2462  RoleRevoked(role, member, msg.sender) */\n      0xffffffffffffffffffffffffffffffffffffffff\n      and\n        /* \"1127/util/AccessControl.sol\":2443:2449  member */\n      dup4\n        /* \"1127/util/AccessControl.sol\":2425:2462  RoleRevoked(role, member, msg.sender) */\n      0xffffffffffffffffffffffffffffffffffffffff\n      and\n        /* \"1127/util/AccessControl.sol\":2437:2441  role */\n      dup6\n        /* \"1127/util/AccessControl.sol\":2425:2462  RoleRevoked(role, member, msg.sender) */\n      0xf6391f5c32d9c69d2a47ea670b442974b53935d1edc7fd64eb21e047a839171b\n      mload(0x40)\n      mload(0x40)\n      dup1\n      swap2\n      sub\n      swap1\n      log4\n        /* \"1127/util/AccessControl.sol\":2479:2483  true */\n      0x01\n        /* \"1127/util/AccessControl.sol\":2472:2483  return true */\n      swap2\n      pop\n        /* \"1127/util/AccessControl.sol\":881:882  _ */\n    tag_95:\n        /* \"1127/util/AccessControl.sol\":2161:2490  function revokeRole(bytes32 role, address member)... */\n      pop\n      swap3\n      swap2\n      pop\n      pop\n      jump\t// out\n        /* \"1127/DomainLogic.sol\":1392:1911  function removeCompany(string memory company_did)public AccessControl.onlyRole(DOMAIN_ADMIN) returns (bool) {... */\n    tag_55:\n        /* \"1127/DomainLogic.sol\":1494:1498  bool */\n      0x00\n        /* \"1127/DomainLogic.sol\":292:317  keccak256(\"Domain_ADMIN\") */\n      0x0a17004e45f702315376249fbb5266f40fc0c452c5452b3ea6809db18e2ad3d7\n        /* \"1127/util/AccessControl.sol\":856:871  checkRole(role) */\n      tag_99\n        /* \"1127/util/AccessControl.sol\":866:870  role */\n      dup2\n        /* \"1127/util/AccessControl.sol\":856:865  checkRole */\n      tag_46\n        /* \"1127/util/AccessControl.sol\":856:871  checkRole(role) */\n      jump\t// in\n    tag_99:\n      pop\n        /* \"1127/DomainLogic.sol\":1552:1553  0 */\n      0x00\n        /* \"1127/DomainLogic.sol\":1513:1554  companies[company_did].addr == address(0) */\n      0xffffffffffffffffffffffffffffffffffffffff\n      and\n        /* \"1127/DomainLogic.sol\":1513:1522  companies */\n      0x02\n        /* \"1127/DomainLogic.sol\":1523:1534  company_did */\n      dup5\n        /* \"1127/DomainLogic.sol\":1513:1535  companies[company_did] */\n      mload(0x40)\n      tag_101\n      swap2\n      swap1\n      tag_73\n      jump\t// in\n    tag_101:\n      swap1\n      dup2\n      mstore\n      0x20\n      add\n      mload(0x40)\n      dup1\n      swap2\n      sub\n      swap1\n      keccak256\n        /* \"1127/DomainLogic.sol\":1513:1540  companies[company_did].addr */\n      0x01\n      add\n      0x00\n      swap1\n      sload\n      swap1\n      0x0100\n      exp\n      swap1\n      div\n      0xffffffffffffffffffffffffffffffffffffffff\n      and\n        /* \"1127/DomainLogic.sol\":1513:1554  companies[company_did].addr == address(0) */\n      0xffffffffffffffffffffffffffffffffffffffff\n      and\n      eq\n        /* \"1127/DomainLogic.sol\":1510:1593  if(companies[company_did].addr == address(0)){... */\n      iszero\n      tag_102\n      jumpi\n        /* \"1127/DomainLogic.sol\":1577:1582  false */\n      0x00\n        /* \"1127/DomainLogic.sol\":1570:1582  return false */\n      swap2\n      pop\n      jump(tag_100)\n        /* \"1127/DomainLogic.sol\":1510:1593  if(companies[company_did].addr == address(0)){... */\n    tag_102:\n        /* \"1127/DomainLogic.sol\":1602:1643  DataStruct.Company memory _removedcompany */\n      0x00\n        /* \"1127/DomainLogic.sol\":1646:1655  companies */\n      0x02\n        /* \"1127/DomainLogic.sol\":1656:1667  company_did */\n      dup5\n        /* \"1127/DomainLogic.sol\":1646:1668  companies[company_did] */\n      mload(0x40)\n      tag_103\n      swap2\n      swap1\n      tag_73\n      jump\t// in\n    tag_103:\n      swap1\n      dup2\n      mstore\n      0x20\n      add\n      mload(0x40)\n      dup1\n      swap2\n      sub\n      swap1\n      keccak256\n        /* \"1127/DomainLogic.sol\":1602:1668  DataStruct.Company memory _removedcompany = companies[company_did] */\n      mload(0x40)\n      dup1\n      0x60\n      add\n      0x40\n      mstore\n      swap1\n      dup2\n      0x00\n      dup3\n      add\n      dup1\n      sload\n      tag_104\n      swap1\n      tag_105\n      jump\t// in\n    tag_104:\n      dup1\n      0x1f\n      add\n      0x20\n      dup1\n      swap2\n      div\n      mul\n      0x20\n      add\n      mload(0x40)\n      swap1\n      dup2\n      add\n      0x40\n      mstore\n      dup1\n      swap3\n      swap2\n      swap1\n      dup2\n      dup2\n      mstore\n      0x20\n      add\n      dup3\n      dup1\n      sload\n      tag_106\n      swap1\n      tag_105\n      jump\t// in\n    tag_106:\n      dup1\n      iszero\n      tag_107\n      jumpi\n      dup1\n      0x1f\n      lt\n      tag_108\n      jumpi\n      0x0100\n      dup1\n      dup4\n      sload\n      div\n      mul\n      dup4\n      mstore\n      swap2\n      0x20\n      add\n      swap2\n      jump(tag_107)\n    tag_108:\n      dup3\n      add\n      swap2\n      swap1\n      0x00\n      mstore\n      keccak256(0x00, 0x20)\n      swap1\n    tag_109:\n      dup2\n      sload\n      dup2\n      mstore\n      swap1\n      0x01\n      add\n      swap1\n      0x20\n      add\n      dup1\n      dup4\n      gt\n      tag_109\n      jumpi\n      dup3\n      swap1\n      sub\n      0x1f\n      and\n      dup3\n      add\n      swap2\n    tag_107:\n      pop\n      pop\n      pop\n      pop\n      pop\n      dup2\n      mstore\n      0x20\n      add\n      0x01\n      dup3\n      add\n      0x00\n      swap1\n      sload\n      swap1\n      0x0100\n      exp\n      swap1\n      div\n      0xffffffffffffffffffffffffffffffffffffffff\n      and\n      0xffffffffffffffffffffffffffffffffffffffff\n      and\n      0xffffffffffffffffffffffffffffffffffffffff\n      and\n      dup2\n      mstore\n      0x20\n      add\n      0x02\n      dup3\n      add\n      dup1\n      sload\n      tag_110\n      swap1\n      tag_105\n      jump\t// in\n    tag_110:\n      dup1\n      0x1f\n      add\n      0x20\n      dup1\n      swap2\n      div\n      mul\n      0x20\n      add\n      mload(0x40)\n      swap1\n      dup2\n      add\n      0x40\n      mstore\n      dup1\n      swap3\n      swap2\n      swap1\n      dup2\n      dup2\n      mstore\n      0x20\n      add\n      dup3\n      dup1\n      sload\n      tag_111\n      swap1\n      tag_105\n      jump\t// in\n    tag_111:\n      dup1\n      iszero\n      tag_112\n      jumpi\n      dup1\n      0x1f\n      lt\n      tag_113\n      jumpi\n      0x0100\n      dup1\n      dup4\n      sload\n      div\n      mul\n      dup4\n      mstore\n      swap2\n      0x20\n      add\n      swap2\n      jump(tag_112)\n    tag_113:\n      dup3\n      add\n      swap2\n      swap1\n      0x00\n      mstore\n      keccak256(0x00, 0x20)\n      swap1\n    tag_114:\n      dup2\n      sload\n      dup2\n      mstore\n      swap1\n      0x01\n      add\n      swap1\n      0x20\n      add\n      dup1\n      dup4\n      gt\n      tag_114\n      jumpi\n      dup3\n      swap1\n      sub\n      0x1f\n      and\n      dup3\n      add\n      swap2\n    tag_112:\n      pop\n      pop\n      pop\n      pop\n      pop\n      dup2\n      mstore\n      pop\n      pop\n      swap1\n      pop\n        /* \"1127/DomainLogic.sol\":1702:1738  DataStruct.Company(\"\",address(0),\"\") */\n      mload(0x40)\n      dup1\n      0x60\n      add\n      0x40\n      mstore\n      dup1\n      mload(0x40)\n      dup1\n      0x20\n      add\n      0x40\n      mstore\n      dup1\n      0x00\n      dup2\n      mstore\n      pop\n      dup2\n      mstore\n      0x20\n      add\n        /* \"1127/DomainLogic.sol\":1732:1733  0 */\n      0x00\n        /* \"1127/DomainLogic.sol\":1702:1738  DataStruct.Company(\"\",address(0),\"\") */\n      0xffffffffffffffffffffffffffffffffffffffff\n      and\n      dup2\n      mstore\n      0x20\n      add\n      mload(0x40)\n      dup1\n      0x20\n      add\n      0x40\n      mstore\n      dup1\n      0x00\n      dup2\n      mstore\n      pop\n      dup2\n      mstore\n      pop\n        /* \"1127/DomainLogic.sol\":1678:1687  companies */\n      0x02\n        /* \"1127/DomainLogic.sol\":1688:1699  company_did */\n      dup6\n        /* \"1127/DomainLogic.sol\":1678:1700  companies[company_did] */\n      mload(0x40)\n      tag_115\n      swap2\n      swap1\n      tag_73\n      jump\t// in\n    tag_115:\n      swap1\n      dup2\n      mstore\n      0x20\n      add\n      mload(0x40)\n      dup1\n      swap2\n      sub\n      swap1\n      keccak256\n        /* \"1127/DomainLogic.sol\":1678:1738  companies[company_did]= DataStruct.Company(\"\",address(0),\"\") */\n      0x00\n      dup3\n      add\n      mload\n      dup2\n      0x00\n      add\n      swap1\n      dup1\n      mload\n      swap1\n      0x20\n      add\n      swap1\n      tag_116\n      swap3\n      swap2\n      swap1\n      tag_82\n      jump\t// in\n    tag_116:\n      pop\n      0x20\n      dup3\n      add\n      mload\n      dup2\n      0x01\n      add\n      exp(0x0100, 0x00)\n      dup2\n      sload\n      dup2\n      0xffffffffffffffffffffffffffffffffffffffff\n      mul\n      not\n      and\n      swap1\n      dup4\n      0xffffffffffffffffffffffffffffffffffffffff\n      and\n      mul\n      or\n      swap1\n      sstore\n      pop\n      0x40\n      dup3\n      add\n      mload\n      dup2\n      0x02\n      add\n      swap1\n      dup1\n      mload\n      swap1\n      0x20\n      add\n      swap1\n      tag_117\n      swap3\n      swap2\n      swap1\n      tag_82\n      jump\t// in\n    tag_117:\n      pop\n      swap1\n      pop\n      pop\n        /* \"1127/DomainLogic.sol\":1810:1882  NewCompanyRemoved(company_did,_removedcompany.name,_removedcompany.addr) */\n      0x8fcf099bc2f3b0523f3626da96ba195f4b0d05003bf73dec5fc01e291b578fac\n        /* \"1127/DomainLogic.sol\":1828:1839  company_did */\n      dup5\n        /* \"1127/DomainLogic.sol\":1840:1855  _removedcompany */\n      dup3\n        /* \"1127/DomainLogic.sol\":1840:1860  _removedcompany.name */\n      0x40\n      add\n      mload\n        /* \"1127/DomainLogic.sol\":1861:1876  _removedcompany */\n      dup4\n        /* \"1127/DomainLogic.sol\":1861:1881  _removedcompany.addr */\n      0x20\n      add\n      mload\n        /* \"1127/DomainLogic.sol\":1810:1882  NewCompanyRemoved(company_did,_removedcompany.name,_removedcompany.addr) */\n      mload(0x40)\n      tag_118\n      swap4\n      swap3\n      swap2\n      swap1\n      tag_85\n      jump\t// in\n    tag_118:\n      mload(0x40)\n      dup1\n      swap2\n      sub\n      swap1\n      log1\n        /* \"1127/DomainLogic.sol\":1899:1903  true */\n      0x01\n        /* \"1127/DomainLogic.sol\":1892:1903  return true */\n      swap3\n      pop\n      pop\n        /* \"1127/util/AccessControl.sol\":881:882  _ */\n    tag_100:\n        /* \"1127/DomainLogic.sol\":1392:1911  function removeCompany(string memory company_did)public AccessControl.onlyRole(DOMAIN_ADMIN) returns (bool) {... */\n      pop\n      swap2\n      swap1\n      pop\n      jump\t// out\n    tag_76:\n      dataSize(sub_0)\n      dup1\n      dataOffset(sub_0)\n      dup4\n      codecopy\n      add\n      swap1\n      jump\t// out\n    tag_82:\n      dup3\n      dup1\n      sload\n      tag_119\n      swap1\n      tag_105\n      jump\t// in\n    tag_119:\n      swap1\n      0x00\n      mstore\n      keccak256(0x00, 0x20)\n      swap1\n      0x1f\n      add\n      0x20\n      swap1\n      div\n      dup2\n      add\n      swap3\n      dup3\n      tag_121\n      jumpi\n      0x00\n      dup6\n      sstore\n      jump(tag_120)\n    tag_121:\n      dup3\n      0x1f\n      lt\n      tag_122\n      jumpi\n      dup1\n      mload\n      not(0xff)\n      and\n      dup4\n      dup1\n      add\n      or\n      dup6\n      sstore\n      jump(tag_120)\n    tag_122:\n      dup3\n      dup1\n      add\n      0x01\n      add\n      dup6\n      sstore\n      dup3\n      iszero\n      tag_120\n      jumpi\n      swap2\n      dup3\n      add\n    tag_123:\n      dup3\n      dup2\n      gt\n      iszero\n      tag_124\n      jumpi\n      dup3\n      mload\n      dup3\n      sstore\n      swap2\n      0x20\n      add\n      swap2\n      swap1\n      0x01\n      add\n      swap1\n      jump(tag_123)\n    tag_124:\n    tag_120:\n      pop\n      swap1\n      pop\n      tag_125\n      swap2\n      swap1\n      tag_126\n      jump\t// in\n    tag_125:\n      pop\n      swap1\n      jump\t// out\n    tag_126:\n    tag_127:\n      dup1\n      dup3\n      gt\n      iszero\n      tag_128\n      jumpi\n      0x00\n      dup2\n      0x00\n      swap1\n      sstore\n      pop\n      0x01\n      add\n      jump(tag_127)\n    tag_128:\n      pop\n      swap1\n      jump\t// out\n        /* \"#utility.yul\":7:84   */\n    tag_129:\n        /* \"#utility.yul\":44:51   */\n      0x00\n        /* \"#utility.yul\":73:78   */\n      dup2\n        /* \"#utility.yul\":62:78   */\n      swap1\n      pop\n        /* \"#utility.yul\":7:84   */\n      swap2\n      swap1\n      pop\n      jump\t// out\n        /* \"#utility.yul\":90:208   */\n    tag_130:\n        /* \"#utility.yul\":177:201   */\n      tag_167\n        /* \"#utility.yul\":195:200   */\n      dup2\n        /* \"#utility.yul\":177:201   */\n      tag_129\n      jump\t// in\n    tag_167:\n        /* \"#utility.yul\":172:175   */\n      dup3\n        /* \"#utility.yul\":165:202   */\n      mstore\n        /* \"#utility.yul\":90:208   */\n      pop\n      pop\n      jump\t// out\n        /* \"#utility.yul\":214:436   */\n    tag_17:\n        /* \"#utility.yul\":307:311   */\n      0x00\n        /* \"#utility.yul\":345:347   */\n      0x20\n        /* \"#utility.yul\":334:343   */\n      dup3\n        /* \"#utility.yul\":330:348   */\n      add\n        /* \"#utility.yul\":322:348   */\n      swap1\n      pop\n        /* \"#utility.yul\":358:429   */\n      tag_169\n        /* \"#utility.yul\":426:427   */\n      0x00\n        /* \"#utility.yul\":415:424   */\n      dup4\n        /* \"#utility.yul\":411:428   */\n      add\n        /* \"#utility.yul\":402:408   */\n      dup5\n        /* \"#utility.yul\":358:429   */\n      tag_130\n      jump\t// in\n    tag_169:\n        /* \"#utility.yul\":214:436   */\n      swap3\n      swap2\n      pop\n      pop\n      jump\t// out\n        /* \"#utility.yul\":442:517   */\n    tag_131:\n        /* \"#utility.yul\":475:481   */\n      0x00\n        /* \"#utility.yul\":508:510   */\n      0x40\n        /* \"#utility.yul\":502:511   */\n      mload\n        /* \"#utility.yul\":492:511   */\n      swap1\n      pop\n        /* \"#utility.yul\":442:517   */\n      swap1\n      jump\t// out\n        /* \"#utility.yul\":523:640   */\n    tag_132:\n        /* \"#utility.yul\":632:633   */\n      0x00\n        /* \"#utility.yul\":629:630   */\n      dup1\n        /* \"#utility.yul\":622:634   */\n      revert\n        /* \"#utility.yul\":646:763   */\n    tag_133:\n        /* \"#utility.yul\":755:756   */\n      0x00\n        /* \"#utility.yul\":752:753   */\n      dup1\n        /* \"#utility.yul\":745:757   */\n      revert\n        /* \"#utility.yul\":769:891   */\n    tag_134:\n        /* \"#utility.yul\":842:866   */\n      tag_174\n        /* \"#utility.yul\":860:865   */\n      dup2\n        /* \"#utility.yul\":842:866   */\n      tag_129\n      jump\t// in\n    tag_174:\n        /* \"#utility.yul\":835:840   */\n      dup2\n        /* \"#utility.yul\":832:867   */\n      eq\n        /* \"#utility.yul\":822:885   */\n      tag_175\n      jumpi\n        /* \"#utility.yul\":881:882   */\n      0x00\n        /* \"#utility.yul\":878:879   */\n      dup1\n        /* \"#utility.yul\":871:883   */\n      revert\n        /* \"#utility.yul\":822:885   */\n    tag_175:\n        /* \"#utility.yul\":769:891   */\n      pop\n      jump\t// out\n        /* \"#utility.yul\":897:1036   */\n    tag_135:\n        /* \"#utility.yul\":943:948   */\n      0x00\n        /* \"#utility.yul\":981:987   */\n      dup2\n        /* \"#utility.yul\":968:988   */\n      calldataload\n        /* \"#utility.yul\":959:988   */\n      swap1\n      pop\n        /* \"#utility.yul\":997:1030   */\n      tag_177\n        /* \"#utility.yul\":1024:1029   */\n      dup2\n        /* \"#utility.yul\":997:1030   */\n      tag_134\n      jump\t// in\n    tag_177:\n        /* \"#utility.yul\":897:1036   */\n      swap3\n      swap2\n      pop\n      pop\n      jump\t// out\n        /* \"#utility.yul\":1042:1371   */\n    tag_20:\n        /* \"#utility.yul\":1101:1107   */\n      0x00\n        /* \"#utility.yul\":1150:1152   */\n      0x20\n        /* \"#utility.yul\":1138:1147   */\n      dup3\n        /* \"#utility.yul\":1129:1136   */\n      dup5\n        /* \"#utility.yul\":1125:1148   */\n      sub\n        /* \"#utility.yul\":1121:1153   */\n      slt\n        /* \"#utility.yul\":1118:1237   */\n      iszero\n      tag_179\n      jumpi\n        /* \"#utility.yul\":1156:1235   */\n      tag_180\n      tag_132\n      jump\t// in\n    tag_180:\n        /* \"#utility.yul\":1118:1237   */\n    tag_179:\n        /* \"#utility.yul\":1276:1277   */\n      0x00\n        /* \"#utility.yul\":1301:1354   */\n      tag_181\n        /* \"#utility.yul\":1346:1353   */\n      dup5\n        /* \"#utility.yul\":1337:1343   */\n      dup3\n        /* \"#utility.yul\":1326:1335   */\n      dup6\n        /* \"#utility.yul\":1322:1344   */\n      add\n        /* \"#utility.yul\":1301:1354   */\n      tag_135\n      jump\t// in\n    tag_181:\n        /* \"#utility.yul\":1291:1354   */\n      swap2\n      pop\n        /* \"#utility.yul\":1247:1364   */\n      pop\n        /* \"#utility.yul\":1042:1371   */\n      swap3\n      swap2\n      pop\n      pop\n      jump\t// out\n        /* \"#utility.yul\":1377:1503   */\n    tag_136:\n        /* \"#utility.yul\":1414:1421   */\n      0x00\n        /* \"#utility.yul\":1454:1496   */\n      0xffffffffffffffffffffffffffffffffffffffff\n        /* \"#utility.yul\":1447:1452   */\n      dup3\n        /* \"#utility.yul\":1443:1497   */\n      and\n        /* \"#utility.yul\":1432:1497   */\n      swap1\n      pop\n        /* \"#utility.yul\":1377:1503   */\n      swap2\n      swap1\n      pop\n      jump\t// out\n        /* \"#utility.yul\":1509:1605   */\n    tag_137:\n        /* \"#utility.yul\":1546:1553   */\n      0x00\n        /* \"#utility.yul\":1575:1599   */\n      tag_184\n        /* \"#utility.yul\":1593:1598   */\n      dup3\n        /* \"#utility.yul\":1575:1599   */\n      tag_136\n      jump\t// in\n    tag_184:\n        /* \"#utility.yul\":1564:1599   */\n      swap1\n      pop\n        /* \"#utility.yul\":1509:1605   */\n      swap2\n      swap1\n      pop\n      jump\t// out\n        /* \"#utility.yul\":1611:1733   */\n    tag_138:\n        /* \"#utility.yul\":1684:1708   */\n      tag_186\n        /* \"#utility.yul\":1702:1707   */\n      dup2\n        /* \"#utility.yul\":1684:1708   */\n      tag_137\n      jump\t// in\n    tag_186:\n        /* \"#utility.yul\":1677:1682   */\n      dup2\n        /* \"#utility.yul\":1674:1709   */\n      eq\n        /* \"#utility.yul\":1664:1727   */\n      tag_187\n      jumpi\n        /* \"#utility.yul\":1723:1724   */\n      0x00\n        /* \"#utility.yul\":1720:1721   */\n      dup1\n        /* \"#utility.yul\":1713:1725   */\n      revert\n        /* \"#utility.yul\":1664:1727   */\n    tag_187:\n        /* \"#utility.yul\":1611:1733   */\n      pop\n      jump\t// out\n        /* \"#utility.yul\":1739:1878   */\n    tag_139:\n        /* \"#utility.yul\":1785:1790   */\n      0x00\n        /* \"#utility.yul\":1823:1829   */\n      dup2\n        /* \"#utility.yul\":1810:1830   */\n      calldataload\n        /* \"#utility.yul\":1801:1830   */\n      swap1\n      pop\n        /* \"#utility.yul\":1839:1872   */\n      tag_189\n        /* \"#utility.yul\":1866:1871   */\n      dup2\n        /* \"#utility.yul\":1839:1872   */\n      tag_138\n      jump\t// in\n    tag_189:\n        /* \"#utility.yul\":1739:1878   */\n      swap3\n      swap2\n      pop\n      pop\n      jump\t// out\n        /* \"#utility.yul\":1884:2358   */\n    tag_25:\n        /* \"#utility.yul\":1952:1958   */\n      0x00\n        /* \"#utility.yul\":1960:1966   */\n      dup1\n        /* \"#utility.yul\":2009:2011   */\n      0x40\n        /* \"#utility.yul\":1997:2006   */\n      dup4\n        /* \"#utility.yul\":1988:1995   */\n      dup6\n        /* \"#utility.yul\":1984:2007   */\n      sub\n        /* \"#utility.yul\":1980:2012   */\n      slt\n        /* \"#utility.yul\":1977:2096   */\n      iszero\n      tag_191\n      jumpi\n        /* \"#utility.yul\":2015:2094   */\n      tag_192\n      tag_132\n      jump\t// in\n    tag_192:\n        /* \"#utility.yul\":1977:2096   */\n    tag_191:\n        /* \"#utility.yul\":2135:2136   */\n      0x00\n        /* \"#utility.yul\":2160:2213   */\n      tag_193\n        /* \"#utility.yul\":2205:2212   */\n      dup6\n        /* \"#utility.yul\":2196:2202   */\n      dup3\n        /* \"#utility.yul\":2185:2194   */\n      dup7\n        /* \"#utility.yul\":2181:2203   */\n      add\n        /* \"#utility.yul\":2160:2213   */\n      tag_135\n      jump\t// in\n    tag_193:\n        /* \"#utility.yul\":2150:2213   */\n      swap3\n      pop\n        /* \"#utility.yul\":2106:2223   */\n      pop\n        /* \"#utility.yul\":2262:2264   */\n      0x20\n        /* \"#utility.yul\":2288:2341   */\n      tag_194\n        /* \"#utility.yul\":2333:2340   */\n      dup6\n        /* \"#utility.yul\":2324:2330   */\n      dup3\n        /* \"#utility.yul\":2313:2322   */\n      dup7\n        /* \"#utility.yul\":2309:2331   */\n      add\n        /* \"#utility.yul\":2288:2341   */\n      tag_139\n      jump\t// in\n    tag_194:\n        /* \"#utility.yul\":2278:2341   */\n      swap2\n      pop\n        /* \"#utility.yul\":2233:2351   */\n      pop\n        /* \"#utility.yul\":1884:2358   */\n      swap3\n      pop\n      swap3\n      swap1\n      pop\n      jump\t// out\n        /* \"#utility.yul\":2364:2454   */\n    tag_140:\n        /* \"#utility.yul\":2398:2405   */\n      0x00\n        /* \"#utility.yul\":2441:2446   */\n      dup2\n        /* \"#utility.yul\":2434:2447   */\n      iszero\n        /* \"#utility.yul\":2427:2448   */\n      iszero\n        /* \"#utility.yul\":2416:2448   */\n      swap1\n      pop\n        /* \"#utility.yul\":2364:2454   */\n      swap2\n      swap1\n      pop\n      jump\t// out\n        /* \"#utility.yul\":2460:2569   */\n    tag_141:\n        /* \"#utility.yul\":2541:2562   */\n      tag_197\n        /* \"#utility.yul\":2556:2561   */\n      dup2\n        /* \"#utility.yul\":2541:2562   */\n      tag_140\n      jump\t// in\n    tag_197:\n        /* \"#utility.yul\":2536:2539   */\n      dup3\n        /* \"#utility.yul\":2529:2563   */\n      mstore\n        /* \"#utility.yul\":2460:2569   */\n      pop\n      pop\n      jump\t// out\n        /* \"#utility.yul\":2575:2785   */\n    tag_28:\n        /* \"#utility.yul\":2662:2666   */\n      0x00\n        /* \"#utility.yul\":2700:2702   */\n      0x20\n        /* \"#utility.yul\":2689:2698   */\n      dup3\n        /* \"#utility.yul\":2685:2703   */\n      add\n        /* \"#utility.yul\":2677:2703   */\n      swap1\n      pop\n        /* \"#utility.yul\":2713:2778   */\n      tag_199\n        /* \"#utility.yul\":2775:2776   */\n      0x00\n        /* \"#utility.yul\":2764:2773   */\n      dup4\n        /* \"#utility.yul\":2760:2777   */\n      add\n        /* \"#utility.yul\":2751:2757   */\n      dup5\n        /* \"#utility.yul\":2713:2778   */\n      tag_141\n      jump\t// in\n    tag_199:\n        /* \"#utility.yul\":2575:2785   */\n      swap3\n      swap2\n      pop\n      pop\n      jump\t// out\n        /* \"#utility.yul\":2791:2908   */\n    tag_142:\n        /* \"#utility.yul\":2900:2901   */\n      0x00\n        /* \"#utility.yul\":2897:2898   */\n      dup1\n        /* \"#utility.yul\":2890:2902   */\n      revert\n        /* \"#utility.yul\":2914:3031   */\n    tag_143:\n        /* \"#utility.yul\":3023:3024   */\n      0x00\n        /* \"#utility.yul\":3020:3021   */\n      dup1\n        /* \"#utility.yul\":3013:3025   */\n      revert\n        /* \"#utility.yul\":3037:3139   */\n    tag_144:\n        /* \"#utility.yul\":3078:3084   */\n      0x00\n        /* \"#utility.yul\":3129:3131   */\n      0x1f\n        /* \"#utility.yul\":3125:3132   */\n      not\n        /* \"#utility.yul\":3120:3122   */\n      0x1f\n        /* \"#utility.yul\":3113:3118   */\n      dup4\n        /* \"#utility.yul\":3109:3123   */\n      add\n        /* \"#utility.yul\":3105:3133   */\n      and\n        /* \"#utility.yul\":3095:3133   */\n      swap1\n      pop\n        /* \"#utility.yul\":3037:3139   */\n      swap2\n      swap1\n      pop\n      jump\t// out\n        /* \"#utility.yul\":3145:3325   */\n    tag_145:\n        /* \"#utility.yul\":3193:3270   */\n      0x4e487b7100000000000000000000000000000000000000000000000000000000\n        /* \"#utility.yul\":3190:3191   */\n      0x00\n        /* \"#utility.yul\":3183:3271   */\n      mstore\n        /* \"#utility.yul\":3290:3294   */\n      0x41\n        /* \"#utility.yul\":3287:3288   */\n      0x04\n        /* \"#utility.yul\":3280:3295   */\n      mstore\n        /* \"#utility.yul\":3314:3318   */\n      0x24\n        /* \"#utility.yul\":3311:3312   */\n      0x00\n        /* \"#utility.yul\":3304:3319   */\n      revert\n        /* \"#utility.yul\":3331:3612   */\n    tag_146:\n        /* \"#utility.yul\":3414:3441   */\n      tag_205\n        /* \"#utility.yul\":3436:3440   */\n      dup3\n        /* \"#utility.yul\":3414:3441   */\n      tag_144\n      jump\t// in\n    tag_205:\n        /* \"#utility.yul\":3406:3412   */\n      dup2\n        /* \"#utility.yul\":3402:3442   */\n      add\n        /* \"#utility.yul\":3544:3550   */\n      dup2\n        /* \"#utility.yul\":3532:3542   */\n      dup2\n        /* \"#utility.yul\":3529:3551   */\n      lt\n        /* \"#utility.yul\":3508:3526   */\n      0xffffffffffffffff\n        /* \"#utility.yul\":3496:3506   */\n      dup3\n        /* \"#utility.yul\":3493:3527   */\n      gt\n        /* \"#utility.yul\":3490:3552   */\n      or\n        /* \"#utility.yul\":3487:3575   */\n      iszero\n      tag_206\n      jumpi\n        /* \"#utility.yul\":3555:3573   */\n      tag_207\n      tag_145\n      jump\t// in\n    tag_207:\n        /* \"#utility.yul\":3487:3575   */\n    tag_206:\n        /* \"#utility.yul\":3595:3605   */\n      dup1\n        /* \"#utility.yul\":3591:3593   */\n      0x40\n        /* \"#utility.yul\":3584:3606   */\n      mstore\n        /* \"#utility.yul\":3374:3612   */\n      pop\n        /* \"#utility.yul\":3331:3612   */\n      pop\n      pop\n      jump\t// out\n        /* \"#utility.yul\":3618:3747   */\n    tag_147:\n        /* \"#utility.yul\":3652:3658   */\n      0x00\n        /* \"#utility.yul\":3679:3699   */\n      tag_209\n      tag_131\n      jump\t// in\n    tag_209:\n        /* \"#utility.yul\":3669:3699   */\n      swap1\n      pop\n        /* \"#utility.yul\":3708:3741   */\n      tag_210\n        /* \"#utility.yul\":3736:3740   */\n      dup3\n        /* \"#utility.yul\":3728:3734   */\n      dup3\n        /* \"#utility.yul\":3708:3741   */\n      tag_146\n      jump\t// in\n    tag_210:\n        /* \"#utility.yul\":3618:3747   */\n      swap2\n      swap1\n      pop\n      jump\t// out\n        /* \"#utility.yul\":3753:4061   */\n    tag_148:\n        /* \"#utility.yul\":3815:3819   */\n      0x00\n        /* \"#utility.yul\":3905:3923   */\n      0xffffffffffffffff\n        /* \"#utility.yul\":3897:3903   */\n      dup3\n        /* \"#utility.yul\":3894:3924   */\n      gt\n        /* \"#utility.yul\":3891:3947   */\n      iszero\n      tag_212\n      jumpi\n        /* \"#utility.yul\":3927:3945   */\n      tag_213\n      tag_145\n      jump\t// in\n    tag_213:\n        /* \"#utility.yul\":3891:3947   */\n    tag_212:\n        /* \"#utility.yul\":3965:3994   */\n      tag_214\n        /* \"#utility.yul\":3987:3993   */\n      dup3\n        /* \"#utility.yul\":3965:3994   */\n      tag_144\n      jump\t// in\n    tag_214:\n        /* \"#utility.yul\":3957:3994   */\n      swap1\n      pop\n        /* \"#utility.yul\":4049:4053   */\n      0x20\n        /* \"#utility.yul\":4043:4047   */\n      dup2\n        /* \"#utility.yul\":4039:4054   */\n      add\n        /* \"#utility.yul\":4031:4054   */\n      swap1\n      pop\n        /* \"#utility.yul\":3753:4061   */\n      swap2\n      swap1\n      pop\n      jump\t// out\n        /* \"#utility.yul\":4067:4221   */\n    tag_149:\n        /* \"#utility.yul\":4151:4157   */\n      dup3\n        /* \"#utility.yul\":4146:4149   */\n      dup2\n        /* \"#utility.yul\":4141:4144   */\n      dup4\n        /* \"#utility.yul\":4128:4158   */\n      calldatacopy\n        /* \"#utility.yul\":4213:4214   */\n      0x00\n        /* \"#utility.yul\":4204:4210   */\n      dup4\n        /* \"#utility.yul\":4199:4202   */\n      dup4\n        /* \"#utility.yul\":4195:4211   */\n      add\n        /* \"#utility.yul\":4188:4215   */\n      mstore\n        /* \"#utility.yul\":4067:4221   */\n      pop\n      pop\n      pop\n      jump\t// out\n        /* \"#utility.yul\":4227:4639   */\n    tag_150:\n        /* \"#utility.yul\":4305:4310   */\n      0x00\n        /* \"#utility.yul\":4330:4396   */\n      tag_217\n        /* \"#utility.yul\":4346:4395   */\n      tag_218\n        /* \"#utility.yul\":4388:4394   */\n      dup5\n        /* \"#utility.yul\":4346:4395   */\n      tag_148\n      jump\t// in\n    tag_218:\n        /* \"#utility.yul\":4330:4396   */\n      tag_147\n      jump\t// in\n    tag_217:\n        /* \"#utility.yul\":4321:4396   */\n      swap1\n      pop\n        /* \"#utility.yul\":4419:4425   */\n      dup3\n        /* \"#utility.yul\":4412:4417   */\n      dup2\n        /* \"#utility.yul\":4405:4426   */\n      mstore\n        /* \"#utility.yul\":4457:4461   */\n      0x20\n        /* \"#utility.yul\":4450:4455   */\n      dup2\n        /* \"#utility.yul\":4446:4462   */\n      add\n        /* \"#utility.yul\":4495:4498   */\n      dup5\n        /* \"#utility.yul\":4486:4492   */\n      dup5\n        /* \"#utility.yul\":4481:4484   */\n      dup5\n        /* \"#utility.yul\":4477:4493   */\n      add\n        /* \"#utility.yul\":4474:4499   */\n      gt\n        /* \"#utility.yul\":4471:4583   */\n      iszero\n      tag_219\n      jumpi\n        /* \"#utility.yul\":4502:4581   */\n      tag_220\n      tag_143\n      jump\t// in\n    tag_220:\n        /* \"#utility.yul\":4471:4583   */\n    tag_219:\n        /* \"#utility.yul\":4592:4633   */\n      tag_221\n        /* \"#utility.yul\":4626:4632   */\n      dup5\n        /* \"#utility.yul\":4621:4624   */\n      dup3\n        /* \"#utility.yul\":4616:4619   */\n      dup6\n        /* \"#utility.yul\":4592:4633   */\n      tag_149\n      jump\t// in\n    tag_221:\n        /* \"#utility.yul\":4311:4639   */\n      pop\n        /* \"#utility.yul\":4227:4639   */\n      swap4\n      swap3\n      pop\n      pop\n      pop\n      jump\t// out\n        /* \"#utility.yul\":4659:4999   */\n    tag_151:\n        /* \"#utility.yul\":4715:4720   */\n      0x00\n        /* \"#utility.yul\":4764:4767   */\n      dup3\n        /* \"#utility.yul\":4757:4761   */\n      0x1f\n        /* \"#utility.yul\":4749:4755   */\n      dup4\n        /* \"#utility.yul\":4745:4762   */\n      add\n        /* \"#utility.yul\":4741:4768   */\n      slt\n        /* \"#utility.yul\":4731:4853   */\n      tag_223\n      jumpi\n        /* \"#utility.yul\":4772:4851   */\n      tag_224\n      tag_142\n      jump\t// in\n    tag_224:\n        /* \"#utility.yul\":4731:4853   */\n    tag_223:\n        /* \"#utility.yul\":4889:4895   */\n      dup2\n        /* \"#utility.yul\":4876:4896   */\n      calldataload\n        /* \"#utility.yul\":4914:4993   */\n      tag_225\n        /* \"#utility.yul\":4989:4992   */\n      dup5\n        /* \"#utility.yul\":4981:4987   */\n      dup3\n        /* \"#utility.yul\":4974:4978   */\n      0x20\n        /* \"#utility.yul\":4966:4972   */\n      dup7\n        /* \"#utility.yul\":4962:4979   */\n      add\n        /* \"#utility.yul\":4914:4993   */\n      tag_150\n      jump\t// in\n    tag_225:\n        /* \"#utility.yul\":4905:4993   */\n      swap2\n      pop\n        /* \"#utility.yul\":4721:4999   */\n      pop\n        /* \"#utility.yul\":4659:4999   */\n      swap3\n      swap2\n      pop\n      pop\n      jump\t// out\n        /* \"#utility.yul\":5005:5984   */\n    tag_34:\n        /* \"#utility.yul\":5102:5108   */\n      0x00\n        /* \"#utility.yul\":5110:5116   */\n      dup1\n        /* \"#utility.yul\":5118:5124   */\n      0x00\n        /* \"#utility.yul\":5167:5169   */\n      0x60\n        /* \"#utility.yul\":5155:5164   */\n      dup5\n        /* \"#utility.yul\":5146:5153   */\n      dup7\n        /* \"#utility.yul\":5142:5165   */\n      sub\n        /* \"#utility.yul\":5138:5170   */\n      slt\n        /* \"#utility.yul\":5135:5254   */\n      iszero\n      tag_227\n      jumpi\n        /* \"#utility.yul\":5173:5252   */\n      tag_228\n      tag_132\n      jump\t// in\n    tag_228:\n        /* \"#utility.yul\":5135:5254   */\n    tag_227:\n        /* \"#utility.yul\":5321:5322   */\n      0x00\n        /* \"#utility.yul\":5310:5319   */\n      dup5\n        /* \"#utility.yul\":5306:5323   */\n      add\n        /* \"#utility.yul\":5293:5324   */\n      calldataload\n        /* \"#utility.yul\":5351:5369   */\n      0xffffffffffffffff\n        /* \"#utility.yul\":5343:5349   */\n      dup2\n        /* \"#utility.yul\":5340:5370   */\n      gt\n        /* \"#utility.yul\":5337:5454   */\n      iszero\n      tag_229\n      jumpi\n        /* \"#utility.yul\":5373:5452   */\n      tag_230\n      tag_133\n      jump\t// in\n    tag_230:\n        /* \"#utility.yul\":5337:5454   */\n    tag_229:\n        /* \"#utility.yul\":5478:5541   */\n      tag_231\n        /* \"#utility.yul\":5533:5540   */\n      dup7\n        /* \"#utility.yul\":5524:5530   */\n      dup3\n        /* \"#utility.yul\":5513:5522   */\n      dup8\n        /* \"#utility.yul\":5509:5531   */\n      add\n        /* \"#utility.yul\":5478:5541   */\n      tag_151\n      jump\t// in\n    tag_231:\n        /* \"#utility.yul\":5468:5541   */\n      swap4\n      pop\n        /* \"#utility.yul\":5264:5551   */\n      pop\n        /* \"#utility.yul\":5618:5620   */\n      0x20\n        /* \"#utility.yul\":5607:5616   */\n      dup5\n        /* \"#utility.yul\":5603:5621   */\n      add\n        /* \"#utility.yul\":5590:5622   */\n      calldataload\n        /* \"#utility.yul\":5649:5667   */\n      0xffffffffffffffff\n        /* \"#utility.yul\":5641:5647   */\n      dup2\n        /* \"#utility.yul\":5638:5668   */\n      gt\n        /* \"#utility.yul\":5635:5752   */\n      iszero\n      tag_232\n      jumpi\n        /* \"#utility.yul\":5671:5750   */\n      tag_233\n      tag_133\n      jump\t// in\n    tag_233:\n        /* \"#utility.yul\":5635:5752   */\n    tag_232:\n        /* \"#utility.yul\":5776:5839   */\n      tag_234\n        /* \"#utility.yul\":5831:5838   */\n      dup7\n        /* \"#utility.yul\":5822:5828   */\n      dup3\n        /* \"#utility.yul\":5811:5820   */\n      dup8\n        /* \"#utility.yul\":5807:5829   */\n      add\n        /* \"#utility.yul\":5776:5839   */\n      tag_151\n      jump\t// in\n    tag_234:\n        /* \"#utility.yul\":5766:5839   */\n      swap3\n      pop\n        /* \"#utility.yul\":5561:5849   */\n      pop\n        /* \"#utility.yul\":5888:5890   */\n      0x40\n        /* \"#utility.yul\":5914:5967   */\n      tag_235\n        /* \"#utility.yul\":5959:5966   */\n      dup7\n        /* \"#utility.yul\":5950:5956   */\n      dup3\n        /* \"#utility.yul\":5939:5948   */\n      dup8\n        /* \"#utility.yul\":5935:5957   */\n      add\n        /* \"#utility.yul\":5914:5967   */\n      tag_139\n      jump\t// in\n    tag_235:\n        /* \"#utility.yul\":5904:5967   */\n      swap2\n      pop\n        /* \"#utility.yul\":5859:5977   */\n      pop\n        /* \"#utility.yul\":5005:5984   */\n      swap3\n      pop\n      swap3\n      pop\n      swap3\n      jump\t// out\n        /* \"#utility.yul\":5990:6499   */\n    tag_54:\n        /* \"#utility.yul\":6059:6065   */\n      0x00\n        /* \"#utility.yul\":6108:6110   */\n      0x20\n        /* \"#utility.yul\":6096:6105   */\n      dup3\n        /* \"#utility.yul\":6087:6094   */\n      dup5\n        /* \"#utility.yul\":6083:6106   */\n      sub\n        /* \"#utility.yul\":6079:6111   */\n      slt\n        /* \"#utility.yul\":6076:6195   */\n      iszero\n      tag_237\n      jumpi\n        /* \"#utility.yul\":6114:6193   */\n      tag_238\n      tag_132\n      jump\t// in\n    tag_238:\n        /* \"#utility.yul\":6076:6195   */\n    tag_237:\n        /* \"#utility.yul\":6262:6263   */\n      0x00\n        /* \"#utility.yul\":6251:6260   */\n      dup3\n        /* \"#utility.yul\":6247:6264   */\n      add\n        /* \"#utility.yul\":6234:6265   */\n      calldataload\n        /* \"#utility.yul\":6292:6310   */\n      0xffffffffffffffff\n        /* \"#utility.yul\":6284:6290   */\n      dup2\n        /* \"#utility.yul\":6281:6311   */\n      gt\n        /* \"#utility.yul\":6278:6395   */\n      iszero\n      tag_239\n      jumpi\n        /* \"#utility.yul\":6314:6393   */\n      tag_240\n      tag_133\n      jump\t// in\n    tag_240:\n        /* \"#utility.yul\":6278:6395   */\n    tag_239:\n        /* \"#utility.yul\":6419:6482   */\n      tag_241\n        /* \"#utility.yul\":6474:6481   */\n      dup5\n        /* \"#utility.yul\":6465:6471   */\n      dup3\n        /* \"#utility.yul\":6454:6463   */\n      dup6\n        /* \"#utility.yul\":6450:6472   */\n      add\n        /* \"#utility.yul\":6419:6482   */\n      tag_151\n      jump\t// in\n    tag_241:\n        /* \"#utility.yul\":6409:6482   */\n      swap2\n      pop\n        /* \"#utility.yul\":6205:6492   */\n      pop\n        /* \"#utility.yul\":5990:6499   */\n      swap3\n      swap2\n      pop\n      pop\n      jump\t// out\n        /* \"#utility.yul\":6505:6674   */\n    tag_152:\n        /* \"#utility.yul\":6589:6600   */\n      0x00\n        /* \"#utility.yul\":6623:6629   */\n      dup3\n        /* \"#utility.yul\":6618:6621   */\n      dup3\n        /* \"#utility.yul\":6611:6630   */\n      mstore\n        /* \"#utility.yul\":6663:6667   */\n      0x20\n        /* \"#utility.yul\":6658:6661   */\n      dup3\n        /* \"#utility.yul\":6654:6668   */\n      add\n        /* \"#utility.yul\":6639:6668   */\n      swap1\n      pop\n        /* \"#utility.yul\":6505:6674   */\n      swap3\n      swap2\n      pop\n      pop\n      jump\t// out\n        /* \"#utility.yul\":6680:6845   */\n    tag_153:\n        /* \"#utility.yul\":6820:6837   */\n      0x426164436f6e6669726d6174696f6e0000000000000000000000000000000000\n        /* \"#utility.yul\":6816:6817   */\n      0x00\n        /* \"#utility.yul\":6808:6814   */\n      dup3\n        /* \"#utility.yul\":6804:6818   */\n      add\n        /* \"#utility.yul\":6797:6838   */\n      mstore\n        /* \"#utility.yul\":6680:6845   */\n      pop\n      jump\t// out\n        /* \"#utility.yul\":6851:7217   */\n    tag_154:\n        /* \"#utility.yul\":6993:6996   */\n      0x00\n        /* \"#utility.yul\":7014:7081   */\n      tag_245\n        /* \"#utility.yul\":7078:7080   */\n      0x0f\n        /* \"#utility.yul\":7073:7076   */\n      dup4\n        /* \"#utility.yul\":7014:7081   */\n      tag_152\n      jump\t// in\n    tag_245:\n        /* \"#utility.yul\":7007:7081   */\n      swap2\n      pop\n        /* \"#utility.yul\":7090:7183   */\n      tag_246\n        /* \"#utility.yul\":7179:7182   */\n      dup3\n        /* \"#utility.yul\":7090:7183   */\n      tag_153\n      jump\t// in\n    tag_246:\n        /* \"#utility.yul\":7208:7210   */\n      0x20\n        /* \"#utility.yul\":7203:7206   */\n      dup3\n        /* \"#utility.yul\":7199:7211   */\n      add\n        /* \"#utility.yul\":7192:7211   */\n      swap1\n      pop\n        /* \"#utility.yul\":6851:7217   */\n      swap2\n      swap1\n      pop\n      jump\t// out\n        /* \"#utility.yul\":7223:7642   */\n    tag_67:\n        /* \"#utility.yul\":7389:7393   */\n      0x00\n        /* \"#utility.yul\":7427:7429   */\n      0x20\n        /* \"#utility.yul\":7416:7425   */\n      dup3\n        /* \"#utility.yul\":7412:7430   */\n      add\n        /* \"#utility.yul\":7404:7430   */\n      swap1\n      pop\n        /* \"#utility.yul\":7476:7485   */\n      dup2\n        /* \"#utility.yul\":7470:7474   */\n      dup2\n        /* \"#utility.yul\":7466:7486   */\n      sub\n        /* \"#utility.yul\":7462:7463   */\n      0x00\n        /* \"#utility.yul\":7451:7460   */\n      dup4\n        /* \"#utility.yul\":7447:7464   */\n      add\n        /* \"#utility.yul\":7440:7487   */\n      mstore\n        /* \"#utility.yul\":7504:7635   */\n      tag_248\n        /* \"#utility.yul\":7630:7634   */\n      dup2\n        /* \"#utility.yul\":7504:7635   */\n      tag_154\n      jump\t// in\n    tag_248:\n        /* \"#utility.yul\":7496:7635   */\n      swap1\n      pop\n        /* \"#utility.yul\":7223:7642   */\n      swap2\n      swap1\n      pop\n      jump\t// out\n        /* \"#utility.yul\":7648:7747   */\n    tag_155:\n        /* \"#utility.yul\":7700:7706   */\n      0x00\n        /* \"#utility.yul\":7734:7739   */\n      dup2\n        /* \"#utility.yul\":7728:7740   */\n      mload\n        /* \"#utility.yul\":7718:7740   */\n      swap1\n      pop\n        /* \"#utility.yul\":7648:7747   */\n      swap2\n      swap1\n      pop\n      jump\t// out\n        /* \"#utility.yul\":7753:7901   */\n    tag_156:\n        /* \"#utility.yul\":7855:7866   */\n      0x00\n        /* \"#utility.yul\":7892:7895   */\n      dup2\n        /* \"#utility.yul\":7877:7895   */\n      swap1\n      pop\n        /* \"#utility.yul\":7753:7901   */\n      swap3\n      swap2\n      pop\n      pop\n      jump\t// out\n        /* \"#utility.yul\":7907:8214   */\n    tag_157:\n        /* \"#utility.yul\":7975:7976   */\n      0x00\n        /* \"#utility.yul\":7985:8098   */\n    tag_252:\n        /* \"#utility.yul\":7999:8005   */\n      dup4\n        /* \"#utility.yul\":7996:7997   */\n      dup2\n        /* \"#utility.yul\":7993:8006   */\n      lt\n        /* \"#utility.yul\":7985:8098   */\n      iszero\n      tag_254\n      jumpi\n        /* \"#utility.yul\":8084:8085   */\n      dup1\n        /* \"#utility.yul\":8079:8082   */\n      dup3\n        /* \"#utility.yul\":8075:8086   */\n      add\n        /* \"#utility.yul\":8069:8087   */\n      mload\n        /* \"#utility.yul\":8065:8066   */\n      dup2\n        /* \"#utility.yul\":8060:8063   */\n      dup5\n        /* \"#utility.yul\":8056:8067   */\n      add\n        /* \"#utility.yul\":8049:8088   */\n      mstore\n        /* \"#utility.yul\":8021:8023   */\n      0x20\n        /* \"#utility.yul\":8018:8019   */\n      dup2\n        /* \"#utility.yul\":8014:8024   */\n      add\n        /* \"#utility.yul\":8009:8024   */\n      swap1\n      pop\n        /* \"#utility.yul\":7985:8098   */\n      jump(tag_252)\n    tag_254:\n        /* \"#utility.yul\":8116:8122   */\n      dup4\n        /* \"#utility.yul\":8113:8114   */\n      dup2\n        /* \"#utility.yul\":8110:8123   */\n      gt\n        /* \"#utility.yul\":8107:8208   */\n      iszero\n      tag_255\n      jumpi\n        /* \"#utility.yul\":8196:8197   */\n      0x00\n        /* \"#utility.yul\":8187:8193   */\n      dup5\n        /* \"#utility.yul\":8182:8185   */\n      dup5\n        /* \"#utility.yul\":8178:8194   */\n      add\n        /* \"#utility.yul\":8171:8198   */\n      mstore\n        /* \"#utility.yul\":8107:8208   */\n    tag_255:\n        /* \"#utility.yul\":7956:8214   */\n      pop\n        /* \"#utility.yul\":7907:8214   */\n      pop\n      pop\n      pop\n      jump\t// out\n        /* \"#utility.yul\":8220:8597   */\n    tag_158:\n        /* \"#utility.yul\":8326:8329   */\n      0x00\n        /* \"#utility.yul\":8354:8393   */\n      tag_257\n        /* \"#utility.yul\":8387:8392   */\n      dup3\n        /* \"#utility.yul\":8354:8393   */\n      tag_155\n      jump\t// in\n    tag_257:\n        /* \"#utility.yul\":8409:8498   */\n      tag_258\n        /* \"#utility.yul\":8491:8497   */\n      dup2\n        /* \"#utility.yul\":8486:8489   */\n      dup6\n        /* \"#utility.yul\":8409:8498   */\n      tag_156\n      jump\t// in\n    tag_258:\n        /* \"#utility.yul\":8402:8498   */\n      swap4\n      pop\n        /* \"#utility.yul\":8507:8559   */\n      tag_259\n        /* \"#utility.yul\":8552:8558   */\n      dup2\n        /* \"#utility.yul\":8547:8550   */\n      dup6\n        /* \"#utility.yul\":8540:8544   */\n      0x20\n        /* \"#utility.yul\":8533:8538   */\n      dup7\n        /* \"#utility.yul\":8529:8545   */\n      add\n        /* \"#utility.yul\":8507:8559   */\n      tag_157\n      jump\t// in\n    tag_259:\n        /* \"#utility.yul\":8584:8590   */\n      dup1\n        /* \"#utility.yul\":8579:8582   */\n      dup5\n        /* \"#utility.yul\":8575:8591   */\n      add\n        /* \"#utility.yul\":8568:8591   */\n      swap2\n      pop\n        /* \"#utility.yul\":8330:8597   */\n      pop\n        /* \"#utility.yul\":8220:8597   */\n      swap3\n      swap2\n      pop\n      pop\n      jump\t// out\n        /* \"#utility.yul\":8603:8878   */\n    tag_73:\n        /* \"#utility.yul\":8735:8738   */\n      0x00\n        /* \"#utility.yul\":8757:8852   */\n      tag_261\n        /* \"#utility.yul\":8848:8851   */\n      dup3\n        /* \"#utility.yul\":8839:8845   */\n      dup5\n        /* \"#utility.yul\":8757:8852   */\n      tag_158\n      jump\t// in\n    tag_261:\n        /* \"#utility.yul\":8750:8852   */\n      swap2\n      pop\n        /* \"#utility.yul\":8869:8872   */\n      dup2\n        /* \"#utility.yul\":8862:8872   */\n      swap1\n      pop\n        /* \"#utility.yul\":8603:8878   */\n      swap3\n      swap2\n      pop\n      pop\n      jump\t// out\n        /* \"#utility.yul\":8884:9002   */\n    tag_159:\n        /* \"#utility.yul\":8971:8995   */\n      tag_263\n        /* \"#utility.yul\":8989:8994   */\n      dup2\n        /* \"#utility.yul\":8971:8995   */\n      tag_137\n      jump\t// in\n    tag_263:\n        /* \"#utility.yul\":8966:8969   */\n      dup3\n        /* \"#utility.yul\":8959:8996   */\n      mstore\n        /* \"#utility.yul\":8884:9002   */\n      pop\n      pop\n      jump\t// out\n        /* \"#utility.yul\":9008:9372   */\n    tag_160:\n        /* \"#utility.yul\":9096:9099   */\n      0x00\n        /* \"#utility.yul\":9124:9163   */\n      tag_265\n        /* \"#utility.yul\":9157:9162   */\n      dup3\n        /* \"#utility.yul\":9124:9163   */\n      tag_155\n      jump\t// in\n    tag_265:\n        /* \"#utility.yul\":9179:9250   */\n      tag_266\n        /* \"#utility.yul\":9243:9249   */\n      dup2\n        /* \"#utility.yul\":9238:9241   */\n      dup6\n        /* \"#utility.yul\":9179:9250   */\n      tag_152\n      jump\t// in\n    tag_266:\n        /* \"#utility.yul\":9172:9250   */\n      swap4\n      pop\n        /* \"#utility.yul\":9259:9311   */\n      tag_267\n        /* \"#utility.yul\":9304:9310   */\n      dup2\n        /* \"#utility.yul\":9299:9302   */\n      dup6\n        /* \"#utility.yul\":9292:9296   */\n      0x20\n        /* \"#utility.yul\":9285:9290   */\n      dup7\n        /* \"#utility.yul\":9281:9297   */\n      add\n        /* \"#utility.yul\":9259:9311   */\n      tag_157\n      jump\t// in\n    tag_267:\n        /* \"#utility.yul\":9336:9365   */\n      tag_268\n        /* \"#utility.yul\":9358:9364   */\n      dup2\n        /* \"#utility.yul\":9336:9365   */\n      tag_144\n      jump\t// in\n    tag_268:\n        /* \"#utility.yul\":9331:9334   */\n      dup5\n        /* \"#utility.yul\":9327:9366   */\n      add\n        /* \"#utility.yul\":9320:9366   */\n      swap2\n      pop\n        /* \"#utility.yul\":9100:9372   */\n      pop\n        /* \"#utility.yul\":9008:9372   */\n      swap3\n      swap2\n      pop\n      pop\n      jump\t// out\n        /* \"#utility.yul\":9378:9911   */\n    tag_78:\n        /* \"#utility.yul\":9547:9551   */\n      0x00\n        /* \"#utility.yul\":9585:9587   */\n      0x60\n        /* \"#utility.yul\":9574:9583   */\n      dup3\n        /* \"#utility.yul\":9570:9588   */\n      add\n        /* \"#utility.yul\":9562:9588   */\n      swap1\n      pop\n        /* \"#utility.yul\":9598:9669   */\n      tag_270\n        /* \"#utility.yul\":9666:9667   */\n      0x00\n        /* \"#utility.yul\":9655:9664   */\n      dup4\n        /* \"#utility.yul\":9651:9668   */\n      add\n        /* \"#utility.yul\":9642:9648   */\n      dup7\n        /* \"#utility.yul\":9598:9669   */\n      tag_159\n      jump\t// in\n    tag_270:\n        /* \"#utility.yul\":9716:9725   */\n      dup2\n        /* \"#utility.yul\":9710:9714   */\n      dup2\n        /* \"#utility.yul\":9706:9726   */\n      sub\n        /* \"#utility.yul\":9701:9703   */\n      0x20\n        /* \"#utility.yul\":9690:9699   */\n      dup4\n        /* \"#utility.yul\":9686:9704   */\n      add\n        /* \"#utility.yul\":9679:9727   */\n      mstore\n        /* \"#utility.yul\":9744:9822   */\n      tag_271\n        /* \"#utility.yul\":9817:9821   */\n      dup2\n        /* \"#utility.yul\":9808:9814   */\n      dup6\n        /* \"#utility.yul\":9744:9822   */\n      tag_160\n      jump\t// in\n    tag_271:\n        /* \"#utility.yul\":9736:9822   */\n      swap1\n      pop\n        /* \"#utility.yul\":9832:9904   */\n      tag_272\n        /* \"#utility.yul\":9900:9902   */\n      0x40\n        /* \"#utility.yul\":9889:9898   */\n      dup4\n        /* \"#utility.yul\":9885:9903   */\n      add\n        /* \"#utility.yul\":9876:9882   */\n      dup5\n        /* \"#utility.yul\":9832:9904   */\n      tag_159\n      jump\t// in\n    tag_272:\n        /* \"#utility.yul\":9378:9911   */\n      swap5\n      swap4\n      pop\n      pop\n      pop\n      pop\n      jump\t// out\n        /* \"#utility.yul\":9917:10541   */\n    tag_85:\n        /* \"#utility.yul\":10106:10110   */\n      0x00\n        /* \"#utility.yul\":10144:10146   */\n      0x60\n        /* \"#utility.yul\":10133:10142   */\n      dup3\n        /* \"#utility.yul\":10129:10147   */\n      add\n        /* \"#utility.yul\":10121:10147   */\n      swap1\n      pop\n        /* \"#utility.yul\":10193:10202   */\n      dup2\n        /* \"#utility.yul\":10187:10191   */\n      dup2\n        /* \"#utility.yul\":10183:10203   */\n      sub\n        /* \"#utility.yul\":10179:10180   */\n      0x00\n        /* \"#utility.yul\":10168:10177   */\n      dup4\n        /* \"#utility.yul\":10164:10181   */\n      add\n        /* \"#utility.yul\":10157:10204   */\n      mstore\n        /* \"#utility.yul\":10221:10299   */\n      tag_274\n        /* \"#utility.yul\":10294:10298   */\n      dup2\n        /* \"#utility.yul\":10285:10291   */\n      dup7\n        /* \"#utility.yul\":10221:10299   */\n      tag_160\n      jump\t// in\n    tag_274:\n        /* \"#utility.yul\":10213:10299   */\n      swap1\n      pop\n        /* \"#utility.yul\":10346:10355   */\n      dup2\n        /* \"#utility.yul\":10340:10344   */\n      dup2\n        /* \"#utility.yul\":10336:10356   */\n      sub\n        /* \"#utility.yul\":10331:10333   */\n      0x20\n        /* \"#utility.yul\":10320:10329   */\n      dup4\n        /* \"#utility.yul\":10316:10334   */\n      add\n        /* \"#utility.yul\":10309:10357   */\n      mstore\n        /* \"#utility.yul\":10374:10452   */\n      tag_275\n        /* \"#utility.yul\":10447:10451   */\n      dup2\n        /* \"#utility.yul\":10438:10444   */\n      dup6\n        /* \"#utility.yul\":10374:10452   */\n      tag_160\n      jump\t// in\n    tag_275:\n        /* \"#utility.yul\":10366:10452   */\n      swap1\n      pop\n        /* \"#utility.yul\":10462:10534   */\n      tag_276\n        /* \"#utility.yul\":10530:10532   */\n      0x40\n        /* \"#utility.yul\":10519:10528   */\n      dup4\n        /* \"#utility.yul\":10515:10533   */\n      add\n        /* \"#utility.yul\":10506:10512   */\n      dup5\n        /* \"#utility.yul\":10462:10534   */\n      tag_159\n      jump\t// in\n    tag_276:\n        /* \"#utility.yul\":9917:10541   */\n      swap5\n      swap4\n      pop\n      pop\n      pop\n      pop\n      jump\t// out\n        /* \"#utility.yul\":10547:10716   */\n    tag_161:\n        /* \"#utility.yul\":10687:10708   */\n      0x556e417574686f72697a65644163636f756e7400000000000000000000000000\n        /* \"#utility.yul\":10683:10684   */\n      0x00\n        /* \"#utility.yul\":10675:10681   */\n      dup3\n        /* \"#utility.yul\":10671:10685   */\n      add\n        /* \"#utility.yul\":10664:10709   */\n      mstore\n        /* \"#utility.yul\":10547:10716   */\n      pop\n      jump\t// out\n        /* \"#utility.yul\":10722:11088   */\n    tag_162:\n        /* \"#utility.yul\":10864:10867   */\n      0x00\n        /* \"#utility.yul\":10885:10952   */\n      tag_279\n        /* \"#utility.yul\":10949:10951   */\n      0x13\n        /* \"#utility.yul\":10944:10947   */\n      dup4\n        /* \"#utility.yul\":10885:10952   */\n      tag_152\n      jump\t// in\n    tag_279:\n        /* \"#utility.yul\":10878:10952   */\n      swap2\n      pop\n        /* \"#utility.yul\":10961:11054   */\n      tag_280\n        /* \"#utility.yul\":11050:11053   */\n      dup3\n        /* \"#utility.yul\":10961:11054   */\n      tag_161\n      jump\t// in\n    tag_280:\n        /* \"#utility.yul\":11079:11081   */\n      0x20\n        /* \"#utility.yul\":11074:11077   */\n      dup3\n        /* \"#utility.yul\":11070:11082   */\n      add\n        /* \"#utility.yul\":11063:11082   */\n      swap1\n      pop\n        /* \"#utility.yul\":10722:11088   */\n      swap2\n      swap1\n      pop\n      jump\t// out\n        /* \"#utility.yul\":11094:11513   */\n    tag_91:\n        /* \"#utility.yul\":11260:11264   */\n      0x00\n        /* \"#utility.yul\":11298:11300   */\n      0x20\n        /* \"#utility.yul\":11287:11296   */\n      dup3\n        /* \"#utility.yul\":11283:11301   */\n      add\n        /* \"#utility.yul\":11275:11301   */\n      swap1\n      pop\n        /* \"#utility.yul\":11347:11356   */\n      dup2\n        /* \"#utility.yul\":11341:11345   */\n      dup2\n        /* \"#utility.yul\":11337:11357   */\n      sub\n        /* \"#utility.yul\":11333:11334   */\n      0x00\n        /* \"#utility.yul\":11322:11331   */\n      dup4\n        /* \"#utility.yul\":11318:11335   */\n      add\n        /* \"#utility.yul\":11311:11358   */\n      mstore\n        /* \"#utility.yul\":11375:11506   */\n      tag_282\n        /* \"#utility.yul\":11501:11505   */\n      dup2\n        /* \"#utility.yul\":11375:11506   */\n      tag_162\n      jump\t// in\n    tag_282:\n        /* \"#utility.yul\":11367:11506   */\n      swap1\n      pop\n        /* \"#utility.yul\":11094:11513   */\n      swap2\n      swap1\n      pop\n      jump\t// out\n        /* \"#utility.yul\":11519:11699   */\n    tag_163:\n        /* \"#utility.yul\":11567:11644   */\n      0x4e487b7100000000000000000000000000000000000000000000000000000000\n        /* \"#utility.yul\":11564:11565   */\n      0x00\n        /* \"#utility.yul\":11557:11645   */\n      mstore\n        /* \"#utility.yul\":11664:11668   */\n      0x22\n        /* \"#utility.yul\":11661:11662   */\n      0x04\n        /* \"#utility.yul\":11654:11669   */\n      mstore\n        /* \"#utility.yul\":11688:11692   */\n      0x24\n        /* \"#utility.yul\":11685:11686   */\n      0x00\n        /* \"#utility.yul\":11678:11693   */\n      revert\n        /* \"#utility.yul\":11705:12025   */\n    tag_105:\n        /* \"#utility.yul\":11749:11755   */\n      0x00\n        /* \"#utility.yul\":11786:11787   */\n      0x02\n        /* \"#utility.yul\":11780:11784   */\n      dup3\n        /* \"#utility.yul\":11776:11788   */\n      div\n        /* \"#utility.yul\":11766:11788   */\n      swap1\n      pop\n        /* \"#utility.yul\":11833:11834   */\n      0x01\n        /* \"#utility.yul\":11827:11831   */\n      dup3\n        /* \"#utility.yul\":11823:11835   */\n      and\n        /* \"#utility.yul\":11854:11872   */\n      dup1\n        /* \"#utility.yul\":11844:11925   */\n      tag_285\n      jumpi\n        /* \"#utility.yul\":11910:11914   */\n      0x7f\n        /* \"#utility.yul\":11902:11908   */\n      dup3\n        /* \"#utility.yul\":11898:11915   */\n      and\n        /* \"#utility.yul\":11888:11915   */\n      swap2\n      pop\n        /* \"#utility.yul\":11844:11925   */\n    tag_285:\n        /* \"#utility.yul\":11972:11974   */\n      0x20\n        /* \"#utility.yul\":11964:11970   */\n      dup3\n        /* \"#utility.yul\":11961:11975   */\n      lt\n        /* \"#utility.yul\":11941:11959   */\n      dup2\n        /* \"#utility.yul\":11938:11976   */\n      eq\n        /* \"#utility.yul\":11935:12019   */\n      iszero\n      tag_286\n      jumpi\n        /* \"#utility.yul\":11991:12009   */\n      tag_287\n      tag_163\n      jump\t// in\n    tag_287:\n        /* \"#utility.yul\":11935:12019   */\n    tag_286:\n        /* \"#utility.yul\":11756:12025   */\n      pop\n        /* \"#utility.yul\":11705:12025   */\n      swap2\n      swap1\n      pop\n      jump\t// out\n    stop\n\n    sub_0: assembly {\n            /* \"1127/CompanyProxy.sol\":130:1958  contract CompanyProxy is AccessControl {... */\n          mstore(0x40, 0x80)\n            /* \"1127/CompanyProxy.sol\":541:920  constructor(address founder,string memory _company_name,address commonLogicAddress) AccessControl(msg.sender){... */\n          callvalue\n          dup1\n          iszero\n          tag_1\n          jumpi\n          0x00\n          dup1\n          revert\n        tag_1:\n          pop\n          mload(0x40)\n          sub(codesize, bytecodeSize)\n          dup1\n          bytecodeSize\n          dup4\n          codecopy\n          dup2\n          dup2\n          add\n          0x40\n          mstore\n          dup2\n          add\n          swap1\n          tag_2\n          swap2\n          swap1\n          tag_3\n          jump\t// in\n        tag_2:\n            /* \"1127/CompanyProxy.sol\":639:649  msg.sender */\n          caller\n            /* \"1127/util/AccessControl.sol\":970:974  true */\n          0x01\n            /* \"1127/util/AccessControl.sol\":931:936  roles */\n          0x00\n            /* \"1127/util/AccessControl.sol\":931:951  roles[DEFAULT_ADMIN] */\n          dup1\n            /* \"1127/util/AccessControl.sol\":246:250  0x00 */\n          dup1\n            /* \"1127/util/AccessControl.sol\":937:950  DEFAULT_ADMIN */\n          0x00\n          shl\n            /* \"1127/util/AccessControl.sol\":931:951  roles[DEFAULT_ADMIN] */\n          dup2\n          mstore\n          0x20\n          add\n          swap1\n          dup2\n          mstore\n          0x20\n          add\n          0x00\n          keccak256\n            /* \"1127/util/AccessControl.sol\":931:960  roles[DEFAULT_ADMIN].hasRoles */\n          0x00\n          add\n            /* \"1127/util/AccessControl.sol\":931:967  roles[DEFAULT_ADMIN].hasRoles[admin] */\n          0x00\n            /* \"1127/util/AccessControl.sol\":961:966  admin */\n          dup4\n            /* \"1127/util/AccessControl.sol\":931:967  roles[DEFAULT_ADMIN].hasRoles[admin] */\n          0xffffffffffffffffffffffffffffffffffffffff\n          and\n          0xffffffffffffffffffffffffffffffffffffffff\n          and\n          dup2\n          mstore\n          0x20\n          add\n          swap1\n          dup2\n          mstore\n          0x20\n          add\n          0x00\n          keccak256\n          0x00\n            /* \"1127/util/AccessControl.sol\":931:974  roles[DEFAULT_ADMIN].hasRoles[admin] = true */\n          0x0100\n          exp\n          dup2\n          sload\n          dup2\n          0xff\n          mul\n          not\n          and\n          swap1\n          dup4\n          iszero\n          iszero\n          mul\n          or\n          swap1\n          sstore\n          pop\n            /* \"1127/util/AccessControl.sol\":895:981  constructor(address admin){... */\n          pop\n            /* \"1127/CompanyProxy.sol\":661:707  setRoleAdmin(COMPANY_ADMIN_ROLE,DEFAULT_ADMIN) */\n          tag_8\n            /* \"1127/CompanyProxy.sol\":303:321  keccak256(\"ADMIN\") */\n          0xdf8b4c520ffe197c5343c6f5aec59570151ef9a492f2c624fd45ddde6135ec42\n            /* \"1127/util/AccessControl.sol\":246:250  0x00 */\n          0x00\n            /* \"1127/CompanyProxy.sol\":693:706  DEFAULT_ADMIN */\n          dup1\n          shl\n            /* \"1127/CompanyProxy.sol\":661:673  setRoleAdmin */\n          shl(0x20, tag_9)\n            /* \"1127/CompanyProxy.sol\":661:707  setRoleAdmin(COMPANY_ADMIN_ROLE,DEFAULT_ADMIN) */\n          0x20\n          shr\n          jump\t// in\n        tag_8:\n            /* \"1127/CompanyProxy.sol\":718:770  setRoleAdmin(COMPANY_WORKER_ROLE,COMPANY_ADMIN_ROLE) */\n          tag_10\n            /* \"1127/CompanyProxy.sol\":376:395  keccak256(\"WORKER\") */\n          0xf101d8f75d5816ea5d4f9e76d2b196ca77914d087c68fd9b89f497d695bcddf7\n            /* \"1127/CompanyProxy.sol\":303:321  keccak256(\"ADMIN\") */\n          0xdf8b4c520ffe197c5343c6f5aec59570151ef9a492f2c624fd45ddde6135ec42\n            /* \"1127/CompanyProxy.sol\":718:730  setRoleAdmin */\n          shl(0x20, tag_9)\n            /* \"1127/CompanyProxy.sol\":718:770  setRoleAdmin(COMPANY_WORKER_ROLE,COMPANY_ADMIN_ROLE) */\n          0x20\n          shr\n          jump\t// in\n        tag_10:\n            /* \"1127/CompanyProxy.sol\":781:819  grantRole(COMPANY_ADMIN_ROLE, founder) */\n          tag_11\n            /* \"1127/CompanyProxy.sol\":303:321  keccak256(\"ADMIN\") */\n          0xdf8b4c520ffe197c5343c6f5aec59570151ef9a492f2c624fd45ddde6135ec42\n            /* \"1127/CompanyProxy.sol\":811:818  founder */\n          dup5\n            /* \"1127/CompanyProxy.sol\":781:790  grantRole */\n          shl(0x20, tag_12)\n            /* \"1127/CompanyProxy.sol\":781:819  grantRole(COMPANY_ADMIN_ROLE, founder) */\n          0x20\n          shr\n          jump\t// in\n        tag_11:\n          pop\n            /* \"1127/CompanyProxy.sol\":854:872  commonLogicAddress */\n          dup1\n            /* \"1127/CompanyProxy.sol\":830:851  implementationAddress */\n          0x01\n          0x00\n            /* \"1127/CompanyProxy.sol\":830:872  implementationAddress = commonLogicAddress */\n          0x0100\n          exp\n          dup2\n          sload\n          dup2\n          0xffffffffffffffffffffffffffffffffffffffff\n          mul\n          not\n          and\n          swap1\n          dup4\n          0xffffffffffffffffffffffffffffffffffffffff\n          and\n          mul\n          or\n          swap1\n          sstore\n          pop\n            /* \"1127/CompanyProxy.sol\":898:911  _company_name */\n          dup2\n            /* \"1127/CompanyProxy.sol\":883:895  company_name */\n          0x02\n            /* \"1127/CompanyProxy.sol\":883:911  company_name = _company_name */\n          swap1\n          dup1\n          mload\n          swap1\n          0x20\n          add\n          swap1\n          tag_13\n          swap3\n          swap2\n          swap1\n          tag_14\n          jump\t// in\n        tag_13:\n          pop\n            /* \"1127/CompanyProxy.sol\":541:920  constructor(address founder,string memory _company_name,address commonLogicAddress) AccessControl(msg.sender){... */\n          pop\n          pop\n          pop\n            /* \"1127/CompanyProxy.sol\":130:1958  contract CompanyProxy is AccessControl {... */\n          jump(tag_15)\n            /* \"1127/util/AccessControl.sol\":1528:1741  function setRoleAdmin(bytes32 role ,bytes32 admin) internal virtual  {... */\n        tag_9:\n            /* \"1127/util/AccessControl.sol\":1607:1623  bytes32 oldAdmin */\n          0x00\n            /* \"1127/util/AccessControl.sol\":1626:1644  getRoleAdmin(role) */\n          tag_17\n            /* \"1127/util/AccessControl.sol\":1639:1643  role */\n          dup4\n            /* \"1127/util/AccessControl.sol\":1626:1638  getRoleAdmin */\n          shl(0x20, tag_18)\n            /* \"1127/util/AccessControl.sol\":1626:1644  getRoleAdmin(role) */\n          0x20\n          shr\n          jump\t// in\n        tag_17:\n            /* \"1127/util/AccessControl.sol\":1607:1644  bytes32 oldAdmin = getRoleAdmin(role) */\n          swap1\n          pop\n            /* \"1127/util/AccessControl.sol\":1676:1681  admin */\n          dup2\n            /* \"1127/util/AccessControl.sol\":1654:1659  roles */\n          0x00\n            /* \"1127/util/AccessControl.sol\":1654:1665  roles[role] */\n          dup1\n            /* \"1127/util/AccessControl.sol\":1660:1664  role */\n          dup6\n            /* \"1127/util/AccessControl.sol\":1654:1665  roles[role] */\n          dup2\n          mstore\n          0x20\n          add\n          swap1\n          dup2\n          mstore\n          0x20\n          add\n          0x00\n          keccak256\n            /* \"1127/util/AccessControl.sol\":1654:1675  roles[role].adminRole */\n          0x01\n          add\n            /* \"1127/util/AccessControl.sol\":1654:1681  roles[role].adminRole=admin */\n          dup2\n          swap1\n          sstore\n          pop\n            /* \"1127/util/AccessControl.sol\":1728:1733  admin */\n          dup2\n            /* \"1127/util/AccessControl.sol\":1718:1726  oldAdmin */\n          dup2\n            /* \"1127/util/AccessControl.sol\":1713:1717  role */\n          dup5\n            /* \"1127/util/AccessControl.sol\":1696:1734  RoleAdminChanged(role,oldAdmin, admin) */\n          0xbd79b86ffe0ab8e8776151514217cd7cacd52c909f66475c3af44e129f0b00ff\n          mload(0x40)\n          mload(0x40)\n          dup1\n          swap2\n          sub\n          swap1\n          log4\n            /* \"1127/util/AccessControl.sol\":1597:1741  {... */\n          pop\n            /* \"1127/util/AccessControl.sol\":1528:1741  function setRoleAdmin(bytes32 role ,bytes32 admin) internal virtual  {... */\n          pop\n          pop\n          jump\t// out\n            /* \"1127/util/AccessControl.sol\":1785:2111  function grantRole(bytes32 role, address member)... */\n        tag_12:\n            /* \"1127/util/AccessControl.sol\":1903:1907  bool */\n          0x00\n            /* \"1127/util/AccessControl.sol\":1866:1884  getRoleAdmin(role) */\n          tag_19\n            /* \"1127/util/AccessControl.sol\":1879:1883  role */\n          dup4\n            /* \"1127/util/AccessControl.sol\":1866:1878  getRoleAdmin */\n          shl(0x20, tag_18)\n            /* \"1127/util/AccessControl.sol\":1866:1884  getRoleAdmin(role) */\n          0x20\n          shr\n          jump\t// in\n        tag_19:\n            /* \"1127/util/AccessControl.sol\":856:871  checkRole(role) */\n          tag_21\n            /* \"1127/util/AccessControl.sol\":866:870  role */\n          dup2\n            /* \"1127/util/AccessControl.sol\":856:865  checkRole */\n          shl(0x20, tag_22)\n            /* \"1127/util/AccessControl.sol\":856:871  checkRole(role) */\n          0x20\n          shr\n          jump\t// in\n        tag_21:\n          pop\n            /* \"1127/util/AccessControl.sol\":1927:1948  hasRole(role, member) */\n          tag_24\n            /* \"1127/util/AccessControl.sol\":1935:1939  role */\n          dup5\n            /* \"1127/util/AccessControl.sol\":1941:1947  member */\n          dup5\n            /* \"1127/util/AccessControl.sol\":1927:1934  hasRole */\n          shl(0x20, tag_25)\n            /* \"1127/util/AccessControl.sol\":1927:1948  hasRole(role, member) */\n          0x20\n          shr\n          jump\t// in\n        tag_24:\n            /* \"1127/util/AccessControl.sol\":1923:1987  if (hasRole(role, member)) {... */\n          iszero\n          tag_26\n          jumpi\n            /* \"1127/util/AccessControl.sol\":1971:1976  false */\n          0x00\n            /* \"1127/util/AccessControl.sol\":1964:1976  return false */\n          swap2\n          pop\n          jump(tag_23)\n            /* \"1127/util/AccessControl.sol\":1923:1987  if (hasRole(role, member)) {... */\n        tag_26:\n            /* \"1127/util/AccessControl.sol\":2027:2031  true */\n          0x01\n            /* \"1127/util/AccessControl.sol\":1996:2001  roles */\n          0x00\n            /* \"1127/util/AccessControl.sol\":1996:2007  roles[role] */\n          dup1\n            /* \"1127/util/AccessControl.sol\":2002:2006  role */\n          dup7\n            /* \"1127/util/AccessControl.sol\":1996:2007  roles[role] */\n          dup2\n          mstore\n          0x20\n          add\n          swap1\n          dup2\n          mstore\n          0x20\n          add\n          0x00\n          keccak256\n            /* \"1127/util/AccessControl.sol\":1996:2016  roles[role].hasRoles */\n          0x00\n          add\n            /* \"1127/util/AccessControl.sol\":1996:2024  roles[role].hasRoles[member] */\n          0x00\n            /* \"1127/util/AccessControl.sol\":2017:2023  member */\n          dup6\n            /* \"1127/util/AccessControl.sol\":1996:2024  roles[role].hasRoles[member] */\n          0xffffffffffffffffffffffffffffffffffffffff\n          and\n          0xffffffffffffffffffffffffffffffffffffffff\n          and\n          dup2\n          mstore\n          0x20\n          add\n          swap1\n          dup2\n          mstore\n          0x20\n          add\n          0x00\n          keccak256\n          0x00\n            /* \"1127/util/AccessControl.sol\":1996:2031  roles[role].hasRoles[member] = true */\n          0x0100\n          exp\n          dup2\n          sload\n          dup2\n          0xff\n          mul\n          not\n          and\n          swap1\n          dup4\n          iszero\n          iszero\n          mul\n          or\n          swap1\n          sstore\n          pop\n            /* \"1127/util/AccessControl.sol\":2072:2082  msg.sender */\n          caller\n            /* \"1127/util/AccessControl.sol\":2046:2083  RoleGranted(role, member, msg.sender) */\n          0xffffffffffffffffffffffffffffffffffffffff\n          and\n            /* \"1127/util/AccessControl.sol\":2064:2070  member */\n          dup4\n            /* \"1127/util/AccessControl.sol\":2046:2083  RoleGranted(role, member, msg.sender) */\n          0xffffffffffffffffffffffffffffffffffffffff\n          and\n            /* \"1127/util/AccessControl.sol\":2058:2062  role */\n          dup6\n            /* \"1127/util/AccessControl.sol\":2046:2083  RoleGranted(role, member, msg.sender) */\n          0x2f8788117e7eff1d82e926ec794901d17c78024a50270940304540a733656f0d\n          mload(0x40)\n          mload(0x40)\n          dup1\n          swap2\n          sub\n          swap1\n          log4\n            /* \"1127/util/AccessControl.sol\":2100:2104  true */\n          0x01\n            /* \"1127/util/AccessControl.sol\":2093:2104  return true */\n          swap2\n          pop\n            /* \"1127/util/AccessControl.sol\":881:882  _ */\n        tag_23:\n            /* \"1127/util/AccessControl.sol\":1785:2111  function grantRole(bytes32 role, address member)... */\n          pop\n          swap3\n          swap2\n          pop\n          pop\n          jump\t// out\n            /* \"1127/util/AccessControl.sol\":1379:1490  function getRoleAdmin(bytes32 role) public view returns (bytes32) {... */\n        tag_18:\n            /* \"1127/util/AccessControl.sol\":1436:1443  bytes32 */\n          0x00\n            /* \"1127/util/AccessControl.sol\":1462:1467  roles */\n          dup1\n            /* \"1127/util/AccessControl.sol\":1462:1473  roles[role] */\n          0x00\n            /* \"1127/util/AccessControl.sol\":1468:1472  role */\n          dup4\n            /* \"1127/util/AccessControl.sol\":1462:1473  roles[role] */\n          dup2\n          mstore\n          0x20\n          add\n          swap1\n          dup2\n          mstore\n          0x20\n          add\n          0x00\n          keccak256\n            /* \"1127/util/AccessControl.sol\":1462:1483  roles[role].adminRole */\n          0x01\n          add\n          sload\n            /* \"1127/util/AccessControl.sol\":1455:1483  return roles[role].adminRole */\n          swap1\n          pop\n            /* \"1127/util/AccessControl.sol\":1379:1490  function getRoleAdmin(bytes32 role) public view returns (bytes32) {... */\n          swap2\n          swap1\n          pop\n          jump\t// out\n            /* \"1127/util/AccessControl.sol\":1011:1194  function checkRole(bytes32 role) public view returns (bool) {... */\n        tag_22:\n            /* \"1127/util/AccessControl.sol\":1065:1069  bool */\n          0x00\n            /* \"1127/util/AccessControl.sol\":1086:1111  hasRole(role, msg.sender) */\n          tag_29\n            /* \"1127/util/AccessControl.sol\":1094:1098  role */\n          dup3\n            /* \"1127/util/AccessControl.sol\":1100:1110  msg.sender */\n          caller\n            /* \"1127/util/AccessControl.sol\":1086:1093  hasRole */\n          shl(0x20, tag_25)\n            /* \"1127/util/AccessControl.sol\":1086:1111  hasRole(role, msg.sender) */\n          0x20\n          shr\n          jump\t// in\n        tag_29:\n            /* \"1127/util/AccessControl.sol\":1081:1167  if (!hasRole(role, msg.sender)) {... */\n          tag_30\n          jumpi\n            /* \"1127/util/AccessControl.sol\":1127:1156  revert(\"UnAuthorizedAccount\") */\n          mload(0x40)\n          0x08c379a000000000000000000000000000000000000000000000000000000000\n          dup2\n          mstore\n          0x04\n          add\n          tag_31\n          swap1\n          tag_32\n          jump\t// in\n        tag_31:\n          mload(0x40)\n          dup1\n          swap2\n          sub\n          swap1\n          revert\n            /* \"1127/util/AccessControl.sol\":1081:1167  if (!hasRole(role, msg.sender)) {... */\n        tag_30:\n            /* \"1127/util/AccessControl.sol\":1183:1187  true */\n          0x01\n            /* \"1127/util/AccessControl.sol\":1176:1187  return true */\n          swap1\n          pop\n            /* \"1127/util/AccessControl.sol\":1011:1194  function checkRole(bytes32 role) public view returns (bool) {... */\n          swap2\n          swap1\n          pop\n          jump\t// out\n            /* \"1127/util/AccessControl.sol\":1209:1335  function hasRole(bytes32 role, address member) public view returns (bool) {... */\n        tag_25:\n            /* \"1127/util/AccessControl.sol\":1277:1281  bool */\n          0x00\n            /* \"1127/util/AccessControl.sol\":1300:1305  roles */\n          dup1\n            /* \"1127/util/AccessControl.sol\":1300:1311  roles[role] */\n          0x00\n            /* \"1127/util/AccessControl.sol\":1306:1310  role */\n          dup5\n            /* \"1127/util/AccessControl.sol\":1300:1311  roles[role] */\n          dup2\n          mstore\n          0x20\n          add\n          swap1\n          dup2\n          mstore\n          0x20\n          add\n          0x00\n          keccak256\n            /* \"1127/util/AccessControl.sol\":1300:1320  roles[role].hasRoles */\n          0x00\n          add\n            /* \"1127/util/AccessControl.sol\":1300:1328  roles[role].hasRoles[member] */\n          0x00\n            /* \"1127/util/AccessControl.sol\":1321:1327  member */\n          dup4\n            /* \"1127/util/AccessControl.sol\":1300:1328  roles[role].hasRoles[member] */\n          0xffffffffffffffffffffffffffffffffffffffff\n          and\n          0xffffffffffffffffffffffffffffffffffffffff\n          and\n          dup2\n          mstore\n          0x20\n          add\n          swap1\n          dup2\n          mstore\n          0x20\n          add\n          0x00\n          keccak256\n          0x00\n          swap1\n          sload\n          swap1\n          0x0100\n          exp\n          swap1\n          div\n          0xff\n          and\n            /* \"1127/util/AccessControl.sol\":1293:1328  return roles[role].hasRoles[member] */\n          swap1\n          pop\n            /* \"1127/util/AccessControl.sol\":1209:1335  function hasRole(bytes32 role, address member) public view returns (bool) {... */\n          swap3\n          swap2\n          pop\n          pop\n          jump\t// out\n            /* \"1127/CompanyProxy.sol\":130:1958  contract CompanyProxy is AccessControl {... */\n        tag_14:\n          dup3\n          dup1\n          sload\n          tag_34\n          swap1\n          tag_35\n          jump\t// in\n        tag_34:\n          swap1\n          0x00\n          mstore\n          keccak256(0x00, 0x20)\n          swap1\n          0x1f\n          add\n          0x20\n          swap1\n          div\n          dup2\n          add\n          swap3\n          dup3\n          tag_37\n          jumpi\n          0x00\n          dup6\n          sstore\n          jump(tag_36)\n        tag_37:\n          dup3\n          0x1f\n          lt\n          tag_38\n          jumpi\n          dup1\n          mload\n          not(0xff)\n          and\n          dup4\n          dup1\n          add\n          or\n          dup6\n          sstore\n          jump(tag_36)\n        tag_38:\n          dup3\n          dup1\n          add\n          0x01\n          add\n          dup6\n          sstore\n          dup3\n          iszero\n          tag_36\n          jumpi\n          swap2\n          dup3\n          add\n        tag_39:\n          dup3\n          dup2\n          gt\n          iszero\n          tag_40\n          jumpi\n          dup3\n          mload\n          dup3\n          sstore\n          swap2\n          0x20\n          add\n          swap2\n          swap1\n          0x01\n          add\n          swap1\n          jump(tag_39)\n        tag_40:\n        tag_36:\n          pop\n          swap1\n          pop\n          tag_41\n          swap2\n          swap1\n          tag_42\n          jump\t// in\n        tag_41:\n          pop\n          swap1\n          jump\t// out\n        tag_42:\n        tag_43:\n          dup1\n          dup3\n          gt\n          iszero\n          tag_44\n          jumpi\n          0x00\n          dup2\n          0x00\n          swap1\n          sstore\n          pop\n          0x01\n          add\n          jump(tag_43)\n        tag_44:\n          pop\n          swap1\n          jump\t// out\n            /* \"#utility.yul\":7:82   */\n        tag_45:\n            /* \"#utility.yul\":40:46   */\n          0x00\n            /* \"#utility.yul\":73:75   */\n          0x40\n            /* \"#utility.yul\":67:76   */\n          mload\n            /* \"#utility.yul\":57:76   */\n          swap1\n          pop\n            /* \"#utility.yul\":7:82   */\n          swap1\n          jump\t// out\n            /* \"#utility.yul\":88:205   */\n        tag_46:\n            /* \"#utility.yul\":197:198   */\n          0x00\n            /* \"#utility.yul\":194:195   */\n          dup1\n            /* \"#utility.yul\":187:199   */\n          revert\n            /* \"#utility.yul\":211:328   */\n        tag_47:\n            /* \"#utility.yul\":320:321   */\n          0x00\n            /* \"#utility.yul\":317:318   */\n          dup1\n            /* \"#utility.yul\":310:322   */\n          revert\n            /* \"#utility.yul\":334:460   */\n        tag_48:\n            /* \"#utility.yul\":371:378   */\n          0x00\n            /* \"#utility.yul\":411:453   */\n          0xffffffffffffffffffffffffffffffffffffffff\n            /* \"#utility.yul\":404:409   */\n          dup3\n            /* \"#utility.yul\":400:454   */\n          and\n            /* \"#utility.yul\":389:454   */\n          swap1\n          pop\n            /* \"#utility.yul\":334:460   */\n          swap2\n          swap1\n          pop\n          jump\t// out\n            /* \"#utility.yul\":466:562   */\n        tag_49:\n            /* \"#utility.yul\":503:510   */\n          0x00\n            /* \"#utility.yul\":532:556   */\n          tag_72\n            /* \"#utility.yul\":550:555   */\n          dup3\n            /* \"#utility.yul\":532:556   */\n          tag_48\n          jump\t// in\n        tag_72:\n            /* \"#utility.yul\":521:556   */\n          swap1\n          pop\n            /* \"#utility.yul\":466:562   */\n          swap2\n          swap1\n          pop\n          jump\t// out\n            /* \"#utility.yul\":568:690   */\n        tag_50:\n            /* \"#utility.yul\":641:665   */\n          tag_74\n            /* \"#utility.yul\":659:664   */\n          dup2\n            /* \"#utility.yul\":641:665   */\n          tag_49\n          jump\t// in\n        tag_74:\n            /* \"#utility.yul\":634:639   */\n          dup2\n            /* \"#utility.yul\":631:666   */\n          eq\n            /* \"#utility.yul\":621:684   */\n          tag_75\n          jumpi\n            /* \"#utility.yul\":680:681   */\n          0x00\n            /* \"#utility.yul\":677:678   */\n          dup1\n            /* \"#utility.yul\":670:682   */\n          revert\n            /* \"#utility.yul\":621:684   */\n        tag_75:\n            /* \"#utility.yul\":568:690   */\n          pop\n          jump\t// out\n            /* \"#utility.yul\":696:839   */\n        tag_51:\n            /* \"#utility.yul\":753:758   */\n          0x00\n            /* \"#utility.yul\":784:790   */\n          dup2\n            /* \"#utility.yul\":778:791   */\n          mload\n            /* \"#utility.yul\":769:791   */\n          swap1\n          pop\n            /* \"#utility.yul\":800:833   */\n          tag_77\n            /* \"#utility.yul\":827:832   */\n          dup2\n            /* \"#utility.yul\":800:833   */\n          tag_50\n          jump\t// in\n        tag_77:\n            /* \"#utility.yul\":696:839   */\n          swap3\n          swap2\n          pop\n          pop\n          jump\t// out\n            /* \"#utility.yul\":845:962   */\n        tag_52:\n            /* \"#utility.yul\":954:955   */\n          0x00\n            /* \"#utility.yul\":951:952   */\n          dup1\n            /* \"#utility.yul\":944:956   */\n          revert\n            /* \"#utility.yul\":968:1085   */\n        tag_53:\n            /* \"#utility.yul\":1077:1078   */\n          0x00\n            /* \"#utility.yul\":1074:1075   */\n          dup1\n            /* \"#utility.yul\":1067:1079   */\n          revert\n            /* \"#utility.yul\":1091:1193   */\n        tag_54:\n            /* \"#utility.yul\":1132:1138   */\n          0x00\n            /* \"#utility.yul\":1183:1185   */\n          0x1f\n            /* \"#utility.yul\":1179:1186   */\n          not\n            /* \"#utility.yul\":1174:1176   */\n          0x1f\n            /* \"#utility.yul\":1167:1172   */\n          dup4\n            /* \"#utility.yul\":1163:1177   */\n          add\n            /* \"#utility.yul\":1159:1187   */\n          and\n            /* \"#utility.yul\":1149:1187   */\n          swap1\n          pop\n            /* \"#utility.yul\":1091:1193   */\n          swap2\n          swap1\n          pop\n          jump\t// out\n            /* \"#utility.yul\":1199:1379   */\n        tag_55:\n            /* \"#utility.yul\":1247:1324   */\n          0x4e487b7100000000000000000000000000000000000000000000000000000000\n            /* \"#utility.yul\":1244:1245   */\n          0x00\n            /* \"#utility.yul\":1237:1325   */\n          mstore\n            /* \"#utility.yul\":1344:1348   */\n          0x41\n            /* \"#utility.yul\":1341:1342   */\n          0x04\n            /* \"#utility.yul\":1334:1349   */\n          mstore\n            /* \"#utility.yul\":1368:1372   */\n          0x24\n            /* \"#utility.yul\":1365:1366   */\n          0x00\n            /* \"#utility.yul\":1358:1373   */\n          revert\n            /* \"#utility.yul\":1385:1666   */\n        tag_56:\n            /* \"#utility.yul\":1468:1495   */\n          tag_83\n            /* \"#utility.yul\":1490:1494   */\n          dup3\n            /* \"#utility.yul\":1468:1495   */\n          tag_54\n          jump\t// in\n        tag_83:\n            /* \"#utility.yul\":1460:1466   */\n          dup2\n            /* \"#utility.yul\":1456:1496   */\n          add\n            /* \"#utility.yul\":1598:1604   */\n          dup2\n            /* \"#utility.yul\":1586:1596   */\n          dup2\n            /* \"#utility.yul\":1583:1605   */\n          lt\n            /* \"#utility.yul\":1562:1580   */\n          0xffffffffffffffff\n            /* \"#utility.yul\":1550:1560   */\n          dup3\n            /* \"#utility.yul\":1547:1581   */\n          gt\n            /* \"#utility.yul\":1544:1606   */\n          or\n            /* \"#utility.yul\":1541:1629   */\n          iszero\n          tag_84\n          jumpi\n            /* \"#utility.yul\":1609:1627   */\n          tag_85\n          tag_55\n          jump\t// in\n        tag_85:\n            /* \"#utility.yul\":1541:1629   */\n        tag_84:\n            /* \"#utility.yul\":1649:1659   */\n          dup1\n            /* \"#utility.yul\":1645:1647   */\n          0x40\n            /* \"#utility.yul\":1638:1660   */\n          mstore\n            /* \"#utility.yul\":1428:1666   */\n          pop\n            /* \"#utility.yul\":1385:1666   */\n          pop\n          pop\n          jump\t// out\n            /* \"#utility.yul\":1672:1801   */\n        tag_57:\n            /* \"#utility.yul\":1706:1712   */\n          0x00\n            /* \"#utility.yul\":1733:1753   */\n          tag_87\n          tag_45\n          jump\t// in\n        tag_87:\n            /* \"#utility.yul\":1723:1753   */\n          swap1\n          pop\n            /* \"#utility.yul\":1762:1795   */\n          tag_88\n            /* \"#utility.yul\":1790:1794   */\n          dup3\n            /* \"#utility.yul\":1782:1788   */\n          dup3\n            /* \"#utility.yul\":1762:1795   */\n          tag_56\n          jump\t// in\n        tag_88:\n            /* \"#utility.yul\":1672:1801   */\n          swap2\n          swap1\n          pop\n          jump\t// out\n            /* \"#utility.yul\":1807:2115   */\n        tag_58:\n            /* \"#utility.yul\":1869:1873   */\n          0x00\n            /* \"#utility.yul\":1959:1977   */\n          0xffffffffffffffff\n            /* \"#utility.yul\":1951:1957   */\n          dup3\n            /* \"#utility.yul\":1948:1978   */\n          gt\n            /* \"#utility.yul\":1945:2001   */\n          iszero\n          tag_90\n          jumpi\n            /* \"#utility.yul\":1981:1999   */\n          tag_91\n          tag_55\n          jump\t// in\n        tag_91:\n            /* \"#utility.yul\":1945:2001   */\n        tag_90:\n            /* \"#utility.yul\":2019:2048   */\n          tag_92\n            /* \"#utility.yul\":2041:2047   */\n          dup3\n            /* \"#utility.yul\":2019:2048   */\n          tag_54\n          jump\t// in\n        tag_92:\n            /* \"#utility.yul\":2011:2048   */\n          swap1\n          pop\n            /* \"#utility.yul\":2103:2107   */\n          0x20\n            /* \"#utility.yul\":2097:2101   */\n          dup2\n            /* \"#utility.yul\":2093:2108   */\n          add\n            /* \"#utility.yul\":2085:2108   */\n          swap1\n          pop\n            /* \"#utility.yul\":1807:2115   */\n          swap2\n          swap1\n          pop\n          jump\t// out\n            /* \"#utility.yul\":2121:2428   */\n        tag_59:\n            /* \"#utility.yul\":2189:2190   */\n          0x00\n            /* \"#utility.yul\":2199:2312   */\n        tag_94:\n            /* \"#utility.yul\":2213:2219   */\n          dup4\n            /* \"#utility.yul\":2210:2211   */\n          dup2\n            /* \"#utility.yul\":2207:2220   */\n          lt\n            /* \"#utility.yul\":2199:2312   */\n          iszero\n          tag_96\n          jumpi\n            /* \"#utility.yul\":2298:2299   */\n          dup1\n            /* \"#utility.yul\":2293:2296   */\n          dup3\n            /* \"#utility.yul\":2289:2300   */\n          add\n            /* \"#utility.yul\":2283:2301   */\n          mload\n            /* \"#utility.yul\":2279:2280   */\n          dup2\n            /* \"#utility.yul\":2274:2277   */\n          dup5\n            /* \"#utility.yul\":2270:2281   */\n          add\n            /* \"#utility.yul\":2263:2302   */\n          mstore\n            /* \"#utility.yul\":2235:2237   */\n          0x20\n            /* \"#utility.yul\":2232:2233   */\n          dup2\n            /* \"#utility.yul\":2228:2238   */\n          add\n            /* \"#utility.yul\":2223:2238   */\n          swap1\n          pop\n            /* \"#utility.yul\":2199:2312   */\n          jump(tag_94)\n        tag_96:\n            /* \"#utility.yul\":2330:2336   */\n          dup4\n            /* \"#utility.yul\":2327:2328   */\n          dup2\n            /* \"#utility.yul\":2324:2337   */\n          gt\n            /* \"#utility.yul\":2321:2422   */\n          iszero\n          tag_97\n          jumpi\n            /* \"#utility.yul\":2410:2411   */\n          0x00\n            /* \"#utility.yul\":2401:2407   */\n          dup5\n            /* \"#utility.yul\":2396:2399   */\n          dup5\n            /* \"#utility.yul\":2392:2408   */\n          add\n            /* \"#utility.yul\":2385:2412   */\n          mstore\n            /* \"#utility.yul\":2321:2422   */\n        tag_97:\n            /* \"#utility.yul\":2170:2428   */\n          pop\n            /* \"#utility.yul\":2121:2428   */\n          pop\n          pop\n          pop\n          jump\t// out\n            /* \"#utility.yul\":2434:2855   */\n        tag_60:\n            /* \"#utility.yul\":2523:2528   */\n          0x00\n            /* \"#utility.yul\":2548:2614   */\n          tag_99\n            /* \"#utility.yul\":2564:2613   */\n          tag_100\n            /* \"#utility.yul\":2606:2612   */\n          dup5\n            /* \"#utility.yul\":2564:2613   */\n          tag_58\n          jump\t// in\n        tag_100:\n            /* \"#utility.yul\":2548:2614   */\n          tag_57\n          jump\t// in\n        tag_99:\n            /* \"#utility.yul\":2539:2614   */\n          swap1\n          pop\n            /* \"#utility.yul\":2637:2643   */\n          dup3\n            /* \"#utility.yul\":2630:2635   */\n          dup2\n            /* \"#utility.yul\":2623:2644   */\n          mstore\n            /* \"#utility.yul\":2675:2679   */\n          0x20\n            /* \"#utility.yul\":2668:2673   */\n          dup2\n            /* \"#utility.yul\":2664:2680   */\n          add\n            /* \"#utility.yul\":2713:2716   */\n          dup5\n            /* \"#utility.yul\":2704:2710   */\n          dup5\n            /* \"#utility.yul\":2699:2702   */\n          dup5\n            /* \"#utility.yul\":2695:2711   */\n          add\n            /* \"#utility.yul\":2692:2717   */\n          gt\n            /* \"#utility.yul\":2689:2801   */\n          iszero\n          tag_101\n          jumpi\n            /* \"#utility.yul\":2720:2799   */\n          tag_102\n          tag_53\n          jump\t// in\n        tag_102:\n            /* \"#utility.yul\":2689:2801   */\n        tag_101:\n            /* \"#utility.yul\":2810:2849   */\n          tag_103\n            /* \"#utility.yul\":2842:2848   */\n          dup5\n            /* \"#utility.yul\":2837:2840   */\n          dup3\n            /* \"#utility.yul\":2832:2835   */\n          dup6\n            /* \"#utility.yul\":2810:2849   */\n          tag_59\n          jump\t// in\n        tag_103:\n            /* \"#utility.yul\":2529:2855   */\n          pop\n            /* \"#utility.yul\":2434:2855   */\n          swap4\n          swap3\n          pop\n          pop\n          pop\n          jump\t// out\n            /* \"#utility.yul\":2875:3230   */\n        tag_61:\n            /* \"#utility.yul\":2942:2947   */\n          0x00\n            /* \"#utility.yul\":2991:2994   */\n          dup3\n            /* \"#utility.yul\":2984:2988   */\n          0x1f\n            /* \"#utility.yul\":2976:2982   */\n          dup4\n            /* \"#utility.yul\":2972:2989   */\n          add\n            /* \"#utility.yul\":2968:2995   */\n          slt\n            /* \"#utility.yul\":2958:3080   */\n          tag_105\n          jumpi\n            /* \"#utility.yul\":2999:3078   */\n          tag_106\n          tag_52\n          jump\t// in\n        tag_106:\n            /* \"#utility.yul\":2958:3080   */\n        tag_105:\n            /* \"#utility.yul\":3109:3115   */\n          dup2\n            /* \"#utility.yul\":3103:3116   */\n          mload\n            /* \"#utility.yul\":3134:3224   */\n          tag_107\n            /* \"#utility.yul\":3220:3223   */\n          dup5\n            /* \"#utility.yul\":3212:3218   */\n          dup3\n            /* \"#utility.yul\":3205:3209   */\n          0x20\n            /* \"#utility.yul\":3197:3203   */\n          dup7\n            /* \"#utility.yul\":3193:3210   */\n          add\n            /* \"#utility.yul\":3134:3224   */\n          tag_60\n          jump\t// in\n        tag_107:\n            /* \"#utility.yul\":3125:3224   */\n          swap2\n          pop\n            /* \"#utility.yul\":2948:3230   */\n          pop\n            /* \"#utility.yul\":2875:3230   */\n          swap3\n          swap2\n          pop\n          pop\n          jump\t// out\n            /* \"#utility.yul\":3236:4072   */\n        tag_3:\n            /* \"#utility.yul\":3334:3340   */\n          0x00\n            /* \"#utility.yul\":3342:3348   */\n          dup1\n            /* \"#utility.yul\":3350:3356   */\n          0x00\n            /* \"#utility.yul\":3399:3401   */\n          0x60\n            /* \"#utility.yul\":3387:3396   */\n          dup5\n            /* \"#utility.yul\":3378:3385   */\n          dup7\n            /* \"#utility.yul\":3374:3397   */\n          sub\n            /* \"#utility.yul\":3370:3402   */\n          slt\n            /* \"#utility.yul\":3367:3486   */\n          iszero\n          tag_109\n          jumpi\n            /* \"#utility.yul\":3405:3484   */\n          tag_110\n          tag_46\n          jump\t// in\n        tag_110:\n            /* \"#utility.yul\":3367:3486   */\n        tag_109:\n            /* \"#utility.yul\":3525:3526   */\n          0x00\n            /* \"#utility.yul\":3550:3614   */\n          tag_111\n            /* \"#utility.yul\":3606:3613   */\n          dup7\n            /* \"#utility.yul\":3597:3603   */\n          dup3\n            /* \"#utility.yul\":3586:3595   */\n          dup8\n            /* \"#utility.yul\":3582:3604   */\n          add\n            /* \"#utility.yul\":3550:3614   */\n          tag_51\n          jump\t// in\n        tag_111:\n            /* \"#utility.yul\":3540:3614   */\n          swap4\n          pop\n            /* \"#utility.yul\":3496:3624   */\n          pop\n            /* \"#utility.yul\":3684:3686   */\n          0x20\n            /* \"#utility.yul\":3673:3682   */\n          dup5\n            /* \"#utility.yul\":3669:3687   */\n          add\n            /* \"#utility.yul\":3663:3688   */\n          mload\n            /* \"#utility.yul\":3715:3733   */\n          0xffffffffffffffff\n            /* \"#utility.yul\":3707:3713   */\n          dup2\n            /* \"#utility.yul\":3704:3734   */\n          gt\n            /* \"#utility.yul\":3701:3818   */\n          iszero\n          tag_112\n          jumpi\n            /* \"#utility.yul\":3737:3816   */\n          tag_113\n          tag_47\n          jump\t// in\n        tag_113:\n            /* \"#utility.yul\":3701:3818   */\n        tag_112:\n            /* \"#utility.yul\":3842:3916   */\n          tag_114\n            /* \"#utility.yul\":3908:3915   */\n          dup7\n            /* \"#utility.yul\":3899:3905   */\n          dup3\n            /* \"#utility.yul\":3888:3897   */\n          dup8\n            /* \"#utility.yul\":3884:3906   */\n          add\n            /* \"#utility.yul\":3842:3916   */\n          tag_61\n          jump\t// in\n        tag_114:\n            /* \"#utility.yul\":3832:3916   */\n          swap3\n          pop\n            /* \"#utility.yul\":3634:3926   */\n          pop\n            /* \"#utility.yul\":3965:3967   */\n          0x40\n            /* \"#utility.yul\":3991:4055   */\n          tag_115\n            /* \"#utility.yul\":4047:4054   */\n          dup7\n            /* \"#utility.yul\":4038:4044   */\n          dup3\n            /* \"#utility.yul\":4027:4036   */\n          dup8\n            /* \"#utility.yul\":4023:4045   */\n          add\n            /* \"#utility.yul\":3991:4055   */\n          tag_51\n          jump\t// in\n        tag_115:\n            /* \"#utility.yul\":3981:4055   */\n          swap2\n          pop\n            /* \"#utility.yul\":3936:4065   */\n          pop\n            /* \"#utility.yul\":3236:4072   */\n          swap3\n          pop\n          swap3\n          pop\n          swap3\n          jump\t// out\n            /* \"#utility.yul\":4078:4247   */\n        tag_62:\n            /* \"#utility.yul\":4162:4173   */\n          0x00\n            /* \"#utility.yul\":4196:4202   */\n          dup3\n            /* \"#utility.yul\":4191:4194   */\n          dup3\n            /* \"#utility.yul\":4184:4203   */\n          mstore\n            /* \"#utility.yul\":4236:4240   */\n          0x20\n            /* \"#utility.yul\":4231:4234   */\n          dup3\n            /* \"#utility.yul\":4227:4241   */\n          add\n            /* \"#utility.yul\":4212:4241   */\n          swap1\n          pop\n            /* \"#utility.yul\":4078:4247   */\n          swap3\n          swap2\n          pop\n          pop\n          jump\t// out\n            /* \"#utility.yul\":4253:4422   */\n        tag_63:\n            /* \"#utility.yul\":4393:4414   */\n          0x556e417574686f72697a65644163636f756e7400000000000000000000000000\n            /* \"#utility.yul\":4389:4390   */\n          0x00\n            /* \"#utility.yul\":4381:4387   */\n          dup3\n            /* \"#utility.yul\":4377:4391   */\n          add\n            /* \"#utility.yul\":4370:4415   */\n          mstore\n            /* \"#utility.yul\":4253:4422   */\n          pop\n          jump\t// out\n            /* \"#utility.yul\":4428:4794   */\n        tag_64:\n            /* \"#utility.yul\":4570:4573   */\n          0x00\n            /* \"#utility.yul\":4591:4658   */\n          tag_119\n            /* \"#utility.yul\":4655:4657   */\n          0x13\n            /* \"#utility.yul\":4650:4653   */\n          dup4\n            /* \"#utility.yul\":4591:4658   */\n          tag_62\n          jump\t// in\n        tag_119:\n            /* \"#utility.yul\":4584:4658   */\n          swap2\n          pop\n            /* \"#utility.yul\":4667:4760   */\n          tag_120\n            /* \"#utility.yul\":4756:4759   */\n          dup3\n            /* \"#utility.yul\":4667:4760   */\n          tag_63\n          jump\t// in\n        tag_120:\n            /* \"#utility.yul\":4785:4787   */\n          0x20\n            /* \"#utility.yul\":4780:4783   */\n          dup3\n            /* \"#utility.yul\":4776:4788   */\n          add\n            /* \"#utility.yul\":4769:4788   */\n          swap1\n          pop\n            /* \"#utility.yul\":4428:4794   */\n          swap2\n          swap1\n          pop\n          jump\t// out\n            /* \"#utility.yul\":4800:5219   */\n        tag_32:\n            /* \"#utility.yul\":4966:4970   */\n          0x00\n            /* \"#utility.yul\":5004:5006   */\n          0x20\n            /* \"#utility.yul\":4993:5002   */\n          dup3\n            /* \"#utility.yul\":4989:5007   */\n          add\n            /* \"#utility.yul\":4981:5007   */\n          swap1\n          pop\n            /* \"#utility.yul\":5053:5062   */\n          dup2\n            /* \"#utility.yul\":5047:5051   */\n          dup2\n            /* \"#utility.yul\":5043:5063   */\n          sub\n            /* \"#utility.yul\":5039:5040   */\n          0x00\n            /* \"#utility.yul\":5028:5037   */\n          dup4\n            /* \"#utility.yul\":5024:5041   */\n          add\n            /* \"#utility.yul\":5017:5064   */\n          mstore\n            /* \"#utility.yul\":5081:5212   */\n          tag_122\n            /* \"#utility.yul\":5207:5211   */\n          dup2\n            /* \"#utility.yul\":5081:5212   */\n          tag_64\n          jump\t// in\n        tag_122:\n            /* \"#utility.yul\":5073:5212   */\n          swap1\n          pop\n            /* \"#utility.yul\":4800:5219   */\n          swap2\n          swap1\n          pop\n          jump\t// out\n            /* \"#utility.yul\":5225:5405   */\n        tag_65:\n            /* \"#utility.yul\":5273:5350   */\n          0x4e487b7100000000000000000000000000000000000000000000000000000000\n            /* \"#utility.yul\":5270:5271   */\n          0x00\n            /* \"#utility.yul\":5263:5351   */\n          mstore\n            /* \"#utility.yul\":5370:5374   */\n          0x22\n            /* \"#utility.yul\":5367:5368   */\n          0x04\n            /* \"#utility.yul\":5360:5375   */\n          mstore\n            /* \"#utility.yul\":5394:5398   */\n          0x24\n            /* \"#utility.yul\":5391:5392   */\n          0x00\n            /* \"#utility.yul\":5384:5399   */\n          revert\n            /* \"#utility.yul\":5411:5731   */\n        tag_35:\n            /* \"#utility.yul\":5455:5461   */\n          0x00\n            /* \"#utility.yul\":5492:5493   */\n          0x02\n            /* \"#utility.yul\":5486:5490   */\n          dup3\n            /* \"#utility.yul\":5482:5494   */\n          div\n            /* \"#utility.yul\":5472:5494   */\n          swap1\n          pop\n            /* \"#utility.yul\":5539:5540   */\n          0x01\n            /* \"#utility.yul\":5533:5537   */\n          dup3\n            /* \"#utility.yul\":5529:5541   */\n          and\n            /* \"#utility.yul\":5560:5578   */\n          dup1\n            /* \"#utility.yul\":5550:5631   */\n          tag_125\n          jumpi\n            /* \"#utility.yul\":5616:5620   */\n          0x7f\n            /* \"#utility.yul\":5608:5614   */\n          dup3\n            /* \"#utility.yul\":5604:5621   */\n          and\n            /* \"#utility.yul\":5594:5621   */\n          swap2\n          pop\n            /* \"#utility.yul\":5550:5631   */\n        tag_125:\n            /* \"#utility.yul\":5678:5680   */\n          0x20\n            /* \"#utility.yul\":5670:5676   */\n          dup3\n            /* \"#utility.yul\":5667:5681   */\n          lt\n            /* \"#utility.yul\":5647:5665   */\n          dup2\n            /* \"#utility.yul\":5644:5682   */\n          eq\n            /* \"#utility.yul\":5641:5725   */\n          iszero\n          tag_126\n          jumpi\n            /* \"#utility.yul\":5697:5715   */\n          tag_127\n          tag_65\n          jump\t// in\n        tag_127:\n            /* \"#utility.yul\":5641:5725   */\n        tag_126:\n            /* \"#utility.yul\":5462:5731   */\n          pop\n            /* \"#utility.yul\":5411:5731   */\n          swap2\n          swap1\n          pop\n          jump\t// out\n            /* \"1127/CompanyProxy.sol\":130:1958  contract CompanyProxy is AccessControl {... */\n        tag_15:\n          dataSize(sub_0)\n          dup1\n          dataOffset(sub_0)\n          0x00\n          codecopy\n          0x00\n          return\n        stop\n\n        sub_0: assembly {\n                /* \"1127/CompanyProxy.sol\":130:1958  contract CompanyProxy is AccessControl {... */\n              mstore(0x40, 0x80)\n              callvalue\n              dup1\n              iszero\n              tag_1\n              jumpi\n              0x00\n              dup1\n              revert\n            tag_1:\n              pop\n              jumpi(tag_2, lt(calldatasize, 0x04))\n              shr(0xe0, calldataload(0x00))\n              dup1\n              0x91d14854\n              gt\n              tag_14\n              jumpi\n              dup1\n              0x91d14854\n              eq\n              tag_9\n              jumpi\n              dup1\n              0x9cdeba95\n              eq\n              tag_10\n              jumpi\n              dup1\n              0xc5b95190\n              eq\n              tag_11\n              jumpi\n              dup1\n              0xc96ea900\n              eq\n              tag_12\n              jumpi\n              dup1\n              0xd547741f\n              eq\n              tag_13\n              jumpi\n              jump(tag_3)\n            tag_14:\n              dup1\n              0x025b22bc\n              eq\n              tag_4\n              jumpi\n              dup1\n              0x248a9ca3\n              eq\n              tag_5\n              jumpi\n              dup1\n              0x2f2ff15d\n              eq\n              tag_6\n              jumpi\n              dup1\n              0x36568abe\n              eq\n              tag_7\n              jumpi\n              dup1\n              0x85a9d78f\n              eq\n              tag_8\n              jumpi\n              jump(tag_3)\n            tag_2:\n            tag_3:\n                /* \"1127/CompanyProxy.sol\":1934:1945  _fallback() */\n              tag_17\n                /* \"1127/CompanyProxy.sol\":1934:1943  _fallback */\n              tag_18\n                /* \"1127/CompanyProxy.sol\":1934:1945  _fallback() */\n              jump\t// in\n            tag_17:\n                /* \"1127/CompanyProxy.sol\":130:1958  contract CompanyProxy is AccessControl {... */\n              stop\n                /* \"1127/CompanyProxy.sol\":1411:1691  function updateImplementation(address newLogicAddress) public AccessControl.onlyRole(DEFAULT_ADMIN) returns (bool){... */\n            tag_4:\n              tag_19\n              0x04\n              dup1\n              calldatasize\n              sub\n              dup2\n              add\n              swap1\n              tag_20\n              swap2\n              swap1\n              tag_21\n              jump\t// in\n            tag_20:\n              tag_22\n              jump\t// in\n            tag_19:\n              mload(0x40)\n              tag_23\n              swap2\n              swap1\n              tag_24\n              jump\t// in\n            tag_23:\n              mload(0x40)\n              dup1\n              swap2\n              sub\n              swap1\n              return\n                /* \"1127/util/AccessControl.sol\":1379:1490  function getRoleAdmin(bytes32 role) public view returns (bytes32) {... */\n            tag_5:\n              tag_25\n              0x04\n              dup1\n              calldatasize\n              sub\n              dup2\n              add\n              swap1\n              tag_26\n              swap2\n              swap1\n              tag_27\n              jump\t// in\n            tag_26:\n              tag_28\n              jump\t// in\n            tag_25:\n              mload(0x40)\n              tag_29\n              swap2\n              swap1\n              tag_30\n              jump\t// in\n            tag_29:\n              mload(0x40)\n              dup1\n              swap2\n              sub\n              swap1\n              return\n                /* \"1127/util/AccessControl.sol\":1785:2111  function grantRole(bytes32 role, address member)... */\n            tag_6:\n              tag_31\n              0x04\n              dup1\n              calldatasize\n              sub\n              dup2\n              add\n              swap1\n              tag_32\n              swap2\n              swap1\n              tag_33\n              jump\t// in\n            tag_32:\n              tag_34\n              jump\t// in\n            tag_31:\n              mload(0x40)\n              tag_35\n              swap2\n              swap1\n              tag_24\n              jump\t// in\n            tag_35:\n              mload(0x40)\n              dup1\n              swap2\n              sub\n              swap1\n              return\n                /* \"1127/util/AccessControl.sol\":2553:2795  function renounceRole(bytes32 role, address callerConfirmation)... */\n            tag_7:\n              tag_36\n              0x04\n              dup1\n              calldatasize\n              sub\n              dup2\n              add\n              swap1\n              tag_37\n              swap2\n              swap1\n              tag_33\n              jump\t// in\n            tag_37:\n              tag_38\n              jump\t// in\n            tag_36:\n              stop\n                /* \"1127/CompanyProxy.sol\":330:395  bytes32 public constant COMPANY_WORKER_ROLE = keccak256(\"WORKER\") */\n            tag_8:\n              tag_39\n              tag_40\n              jump\t// in\n            tag_39:\n              mload(0x40)\n              tag_41\n              swap2\n              swap1\n              tag_30\n              jump\t// in\n            tag_41:\n              mload(0x40)\n              dup1\n              swap2\n              sub\n              swap1\n              return\n                /* \"1127/util/AccessControl.sol\":1209:1335  function hasRole(bytes32 role, address member) public view returns (bool) {... */\n            tag_9:\n              tag_42\n              0x04\n              dup1\n              calldatasize\n              sub\n              dup2\n              add\n              swap1\n              tag_43\n              swap2\n              swap1\n              tag_33\n              jump\t// in\n            tag_43:\n              tag_44\n              jump\t// in\n            tag_42:\n              mload(0x40)\n              tag_45\n              swap2\n              swap1\n              tag_24\n              jump\t// in\n            tag_45:\n              mload(0x40)\n              dup1\n              swap2\n              sub\n              swap1\n              return\n                /* \"1127/util/AccessControl.sol\":206:250  bytes32 public constant DEFAULT_ADMIN = 0x00 */\n            tag_10:\n              tag_46\n              tag_47\n              jump\t// in\n            tag_46:\n              mload(0x40)\n              tag_48\n              swap2\n              swap1\n              tag_30\n              jump\t// in\n            tag_48:\n              mload(0x40)\n              dup1\n              swap2\n              sub\n              swap1\n              return\n                /* \"1127/util/AccessControl.sol\":1011:1194  function checkRole(bytes32 role) public view returns (bool) {... */\n            tag_11:\n              tag_49\n              0x04\n              dup1\n              calldatasize\n              sub\n              dup2\n              add\n              swap1\n              tag_50\n              swap2\n              swap1\n              tag_27\n              jump\t// in\n            tag_50:\n              tag_51\n              jump\t// in\n            tag_49:\n              mload(0x40)\n              tag_52\n              swap2\n              swap1\n              tag_24\n              jump\t// in\n            tag_52:\n              mload(0x40)\n              dup1\n              swap2\n              sub\n              swap1\n              return\n                /* \"1127/CompanyProxy.sol\":258:321  bytes32 public constant COMPANY_ADMIN_ROLE = keccak256(\"ADMIN\") */\n            tag_12:\n              tag_53\n              tag_54\n              jump\t// in\n            tag_53:\n              mload(0x40)\n              tag_55\n              swap2\n              swap1\n              tag_30\n              jump\t// in\n            tag_55:\n              mload(0x40)\n              dup1\n              swap2\n              sub\n              swap1\n              return\n                /* \"1127/util/AccessControl.sol\":2161:2490  function revokeRole(bytes32 role, address member)... */\n            tag_13:\n              tag_56\n              0x04\n              dup1\n              calldatasize\n              sub\n              dup2\n              add\n              swap1\n              tag_57\n              swap2\n              swap1\n              tag_33\n              jump\t// in\n            tag_57:\n              tag_58\n              jump\t// in\n            tag_56:\n              mload(0x40)\n              tag_59\n              swap2\n              swap1\n              tag_24\n              jump\t// in\n            tag_59:\n              mload(0x40)\n              dup1\n              swap2\n              sub\n              swap1\n              return\n                /* \"1127/CompanyProxy.sol\":1815:1893  function _fallback() internal  {... */\n            tag_18:\n                /* \"1127/CompanyProxy.sol\":1857:1885  _delegate(_implementation()) */\n              tag_61\n                /* \"1127/CompanyProxy.sol\":1867:1884  _implementation() */\n              tag_62\n                /* \"1127/CompanyProxy.sol\":1867:1882  _implementation */\n              tag_63\n                /* \"1127/CompanyProxy.sol\":1867:1884  _implementation() */\n              jump\t// in\n            tag_62:\n                /* \"1127/CompanyProxy.sol\":1857:1866  _delegate */\n              tag_64\n                /* \"1127/CompanyProxy.sol\":1857:1885  _delegate(_implementation()) */\n              jump\t// in\n            tag_61:\n                /* \"1127/CompanyProxy.sol\":1815:1893  function _fallback() internal  {... */\n              jump\t// out\n                /* \"1127/CompanyProxy.sol\":1411:1691  function updateImplementation(address newLogicAddress) public AccessControl.onlyRole(DEFAULT_ADMIN) returns (bool){... */\n            tag_22:\n                /* \"1127/CompanyProxy.sol\":1520:1524  bool */\n              0x00\n                /* \"1127/util/AccessControl.sol\":246:250  0x00 */\n              dup1\n                /* \"1127/CompanyProxy.sol\":1496:1509  DEFAULT_ADMIN */\n              0x00\n              shl\n                /* \"1127/util/AccessControl.sol\":856:871  checkRole(role) */\n              tag_66\n                /* \"1127/util/AccessControl.sol\":866:870  role */\n              dup2\n                /* \"1127/util/AccessControl.sol\":856:865  checkRole */\n              tag_51\n                /* \"1127/util/AccessControl.sol\":856:871  checkRole(role) */\n              jump\t// in\n            tag_66:\n              pop\n                /* \"1127/CompanyProxy.sol\":1567:1568  0 */\n              0x00\n                /* \"1127/CompanyProxy.sol\":1540:1569  newLogicAddress == address(0) */\n              0xffffffffffffffffffffffffffffffffffffffff\n              and\n                /* \"1127/CompanyProxy.sol\":1540:1555  newLogicAddress */\n              dup4\n                /* \"1127/CompanyProxy.sol\":1540:1569  newLogicAddress == address(0) */\n              0xffffffffffffffffffffffffffffffffffffffff\n              and\n              eq\n                /* \"1127/CompanyProxy.sol\":1537:1610  if(newLogicAddress == address(0)){... */\n              iszero\n              tag_68\n              jumpi\n                /* \"1127/CompanyProxy.sol\":1592:1597  false */\n              0x00\n                /* \"1127/CompanyProxy.sol\":1585:1597  return false */\n              swap2\n              pop\n              jump(tag_67)\n                /* \"1127/CompanyProxy.sol\":1537:1610  if(newLogicAddress == address(0)){... */\n            tag_68:\n                /* \"1127/CompanyProxy.sol\":1645:1660  newLogicAddress */\n              dup3\n                /* \"1127/CompanyProxy.sol\":1621:1642  implementationAddress */\n              0x01\n              0x00\n                /* \"1127/CompanyProxy.sol\":1621:1660  implementationAddress = newLogicAddress */\n              0x0100\n              exp\n              dup2\n              sload\n              dup2\n              0xffffffffffffffffffffffffffffffffffffffff\n              mul\n              not\n              and\n              swap1\n              dup4\n              0xffffffffffffffffffffffffffffffffffffffff\n              and\n              mul\n              or\n              swap1\n              sstore\n              pop\n                /* \"1127/CompanyProxy.sol\":1679:1683  true */\n              0x01\n                /* \"1127/CompanyProxy.sol\":1672:1683  return true */\n              swap2\n              pop\n                /* \"1127/util/AccessControl.sol\":881:882  _ */\n            tag_67:\n                /* \"1127/CompanyProxy.sol\":1411:1691  function updateImplementation(address newLogicAddress) public AccessControl.onlyRole(DEFAULT_ADMIN) returns (bool){... */\n              pop\n              swap2\n              swap1\n              pop\n              jump\t// out\n                /* \"1127/util/AccessControl.sol\":1379:1490  function getRoleAdmin(bytes32 role) public view returns (bytes32) {... */\n            tag_28:\n                /* \"1127/util/AccessControl.sol\":1436:1443  bytes32 */\n              0x00\n                /* \"1127/util/AccessControl.sol\":1462:1467  roles */\n              dup1\n                /* \"1127/util/AccessControl.sol\":1462:1473  roles[role] */\n              0x00\n                /* \"1127/util/AccessControl.sol\":1468:1472  role */\n              dup4\n                /* \"1127/util/AccessControl.sol\":1462:1473  roles[role] */\n              dup2\n              mstore\n              0x20\n              add\n              swap1\n              dup2\n              mstore\n              0x20\n              add\n              0x00\n              keccak256\n                /* \"1127/util/AccessControl.sol\":1462:1483  roles[role].adminRole */\n              0x01\n              add\n              sload\n                /* \"1127/util/AccessControl.sol\":1455:1483  return roles[role].adminRole */\n              swap1\n              pop\n                /* \"1127/util/AccessControl.sol\":1379:1490  function getRoleAdmin(bytes32 role) public view returns (bytes32) {... */\n              swap2\n              swap1\n              pop\n              jump\t// out\n                /* \"1127/util/AccessControl.sol\":1785:2111  function grantRole(bytes32 role, address member)... */\n            tag_34:\n                /* \"1127/util/AccessControl.sol\":1903:1907  bool */\n              0x00\n                /* \"1127/util/AccessControl.sol\":1866:1884  getRoleAdmin(role) */\n              tag_70\n                /* \"1127/util/AccessControl.sol\":1879:1883  role */\n              dup4\n                /* \"1127/util/AccessControl.sol\":1866:1878  getRoleAdmin */\n              tag_28\n                /* \"1127/util/AccessControl.sol\":1866:1884  getRoleAdmin(role) */\n              jump\t// in\n            tag_70:\n                /* \"1127/util/AccessControl.sol\":856:871  checkRole(role) */\n              tag_72\n                /* \"1127/util/AccessControl.sol\":866:870  role */\n              dup2\n                /* \"1127/util/AccessControl.sol\":856:865  checkRole */\n              tag_51\n                /* \"1127/util/AccessControl.sol\":856:871  checkRole(role) */\n              jump\t// in\n            tag_72:\n              pop\n                /* \"1127/util/AccessControl.sol\":1927:1948  hasRole(role, member) */\n              tag_74\n                /* \"1127/util/AccessControl.sol\":1935:1939  role */\n              dup5\n                /* \"1127/util/AccessControl.sol\":1941:1947  member */\n              dup5\n                /* \"1127/util/AccessControl.sol\":1927:1934  hasRole */\n              tag_44\n                /* \"1127/util/AccessControl.sol\":1927:1948  hasRole(role, member) */\n              jump\t// in\n            tag_74:\n                /* \"1127/util/AccessControl.sol\":1923:1987  if (hasRole(role, member)) {... */\n              iszero\n              tag_75\n              jumpi\n                /* \"1127/util/AccessControl.sol\":1971:1976  false */\n              0x00\n                /* \"1127/util/AccessControl.sol\":1964:1976  return false */\n              swap2\n              pop\n              jump(tag_73)\n                /* \"1127/util/AccessControl.sol\":1923:1987  if (hasRole(role, member)) {... */\n            tag_75:\n                /* \"1127/util/AccessControl.sol\":2027:2031  true */\n              0x01\n                /* \"1127/util/AccessControl.sol\":1996:2001  roles */\n              0x00\n                /* \"1127/util/AccessControl.sol\":1996:2007  roles[role] */\n              dup1\n                /* \"1127/util/AccessControl.sol\":2002:2006  role */\n              dup7\n                /* \"1127/util/AccessControl.sol\":1996:2007  roles[role] */\n              dup2\n              mstore\n              0x20\n              add\n              swap1\n              dup2\n              mstore\n              0x20\n              add\n              0x00\n              keccak256\n                /* \"1127/util/AccessControl.sol\":1996:2016  roles[role].hasRoles */\n              0x00\n              add\n                /* \"1127/util/AccessControl.sol\":1996:2024  roles[role].hasRoles[member] */\n              0x00\n                /* \"1127/util/AccessControl.sol\":2017:2023  member */\n              dup6\n                /* \"1127/util/AccessControl.sol\":1996:2024  roles[role].hasRoles[member] */\n              0xffffffffffffffffffffffffffffffffffffffff\n              and\n              0xffffffffffffffffffffffffffffffffffffffff\n              and\n              dup2\n              mstore\n              0x20\n              add\n              swap1\n              dup2\n              mstore\n              0x20\n              add\n              0x00\n              keccak256\n              0x00\n                /* \"1127/util/AccessControl.sol\":1996:2031  roles[role].hasRoles[member] = true */\n              0x0100\n              exp\n              dup2\n              sload\n              dup2\n              0xff\n              mul\n              not\n              and\n              swap1\n              dup4\n              iszero\n              iszero\n              mul\n              or\n              swap1\n              sstore\n              pop\n                /* \"1127/util/AccessControl.sol\":2072:2082  msg.sender */\n              caller\n                /* \"1127/util/AccessControl.sol\":2046:2083  RoleGranted(role, member, msg.sender) */\n              0xffffffffffffffffffffffffffffffffffffffff\n              and\n                /* \"1127/util/AccessControl.sol\":2064:2070  member */\n              dup4\n                /* \"1127/util/AccessControl.sol\":2046:2083  RoleGranted(role, member, msg.sender) */\n              0xffffffffffffffffffffffffffffffffffffffff\n              and\n                /* \"1127/util/AccessControl.sol\":2058:2062  role */\n              dup6\n                /* \"1127/util/AccessControl.sol\":2046:2083  RoleGranted(role, member, msg.sender) */\n              0x2f8788117e7eff1d82e926ec794901d17c78024a50270940304540a733656f0d\n              mload(0x40)\n              mload(0x40)\n              dup1\n              swap2\n              sub\n              swap1\n              log4\n                /* \"1127/util/AccessControl.sol\":2100:2104  true */\n              0x01\n                /* \"1127/util/AccessControl.sol\":2093:2104  return true */\n              swap2\n              pop\n                /* \"1127/util/AccessControl.sol\":881:882  _ */\n            tag_73:\n                /* \"1127/util/AccessControl.sol\":1785:2111  function grantRole(bytes32 role, address member)... */\n              pop\n              swap3\n              swap2\n              pop\n              pop\n              jump\t// out\n                /* \"1127/util/AccessControl.sol\":2553:2795  function renounceRole(bytes32 role, address callerConfirmation)... */\n            tag_38:\n                /* \"1127/util/AccessControl.sol\":2681:2691  msg.sender */\n              caller\n                /* \"1127/util/AccessControl.sol\":2659:2691  callerConfirmation != msg.sender */\n              0xffffffffffffffffffffffffffffffffffffffff\n              and\n                /* \"1127/util/AccessControl.sol\":2659:2677  callerConfirmation */\n              dup2\n                /* \"1127/util/AccessControl.sol\":2659:2691  callerConfirmation != msg.sender */\n              0xffffffffffffffffffffffffffffffffffffffff\n              and\n              eq\n                /* \"1127/util/AccessControl.sol\":2655:2743  if (callerConfirmation != msg.sender) {... */\n              tag_77\n              jumpi\n                /* \"1127/util/AccessControl.sol\":2707:2732  revert(\"BadConfirmation\") */\n              mload(0x40)\n              0x08c379a000000000000000000000000000000000000000000000000000000000\n              dup2\n              mstore\n              0x04\n              add\n              tag_78\n              swap1\n              tag_79\n              jump\t// in\n            tag_78:\n              mload(0x40)\n              dup1\n              swap2\n              sub\n              swap1\n              revert\n                /* \"1127/util/AccessControl.sol\":2655:2743  if (callerConfirmation != msg.sender) {... */\n            tag_77:\n                /* \"1127/util/AccessControl.sol\":2752:2788  revokeRole(role, callerConfirmation) */\n              tag_80\n                /* \"1127/util/AccessControl.sol\":2763:2767  role */\n              dup3\n                /* \"1127/util/AccessControl.sol\":2769:2787  callerConfirmation */\n              dup3\n                /* \"1127/util/AccessControl.sol\":2752:2762  revokeRole */\n              tag_58\n                /* \"1127/util/AccessControl.sol\":2752:2788  revokeRole(role, callerConfirmation) */\n              jump\t// in\n            tag_80:\n              pop\n                /* \"1127/util/AccessControl.sol\":2553:2795  function renounceRole(bytes32 role, address callerConfirmation)... */\n              pop\n              pop\n              jump\t// out\n                /* \"1127/CompanyProxy.sol\":330:395  bytes32 public constant COMPANY_WORKER_ROLE = keccak256(\"WORKER\") */\n            tag_40:\n                /* \"1127/CompanyProxy.sol\":376:395  keccak256(\"WORKER\") */\n              0xf101d8f75d5816ea5d4f9e76d2b196ca77914d087c68fd9b89f497d695bcddf7\n                /* \"1127/CompanyProxy.sol\":330:395  bytes32 public constant COMPANY_WORKER_ROLE = keccak256(\"WORKER\") */\n              dup2\n              jump\t// out\n                /* \"1127/util/AccessControl.sol\":1209:1335  function hasRole(bytes32 role, address member) public view returns (bool) {... */\n            tag_44:\n                /* \"1127/util/AccessControl.sol\":1277:1281  bool */\n              0x00\n                /* \"1127/util/AccessControl.sol\":1300:1305  roles */\n              dup1\n                /* \"1127/util/AccessControl.sol\":1300:1311  roles[role] */\n              0x00\n                /* \"1127/util/AccessControl.sol\":1306:1310  role */\n              dup5\n                /* \"1127/util/AccessControl.sol\":1300:1311  roles[role] */\n              dup2\n              mstore\n              0x20\n              add\n              swap1\n              dup2\n              mstore\n              0x20\n              add\n              0x00\n              keccak256\n                /* \"1127/util/AccessControl.sol\":1300:1320  roles[role].hasRoles */\n              0x00\n              add\n                /* \"1127/util/AccessControl.sol\":1300:1328  roles[role].hasRoles[member] */\n              0x00\n                /* \"1127/util/AccessControl.sol\":1321:1327  member */\n              dup4\n                /* \"1127/util/AccessControl.sol\":1300:1328  roles[role].hasRoles[member] */\n              0xffffffffffffffffffffffffffffffffffffffff\n              and\n              0xffffffffffffffffffffffffffffffffffffffff\n              and\n              dup2\n              mstore\n              0x20\n              add\n              swap1\n              dup2\n              mstore\n              0x20\n              add\n              0x00\n              keccak256\n              0x00\n              swap1\n              sload\n              swap1\n              0x0100\n              exp\n              swap1\n              div\n              0xff\n              and\n                /* \"1127/util/AccessControl.sol\":1293:1328  return roles[role].hasRoles[member] */\n              swap1\n              pop\n                /* \"1127/util/AccessControl.sol\":1209:1335  function hasRole(bytes32 role, address member) public view returns (bool) {... */\n              swap3\n              swap2\n              pop\n              pop\n              jump\t// out\n                /* \"1127/util/AccessControl.sol\":206:250  bytes32 public constant DEFAULT_ADMIN = 0x00 */\n            tag_47:\n                /* \"1127/util/AccessControl.sol\":246:250  0x00 */\n              0x00\n                /* \"1127/util/AccessControl.sol\":206:250  bytes32 public constant DEFAULT_ADMIN = 0x00 */\n              dup1\n              shl\n              dup2\n              jump\t// out\n                /* \"1127/util/AccessControl.sol\":1011:1194  function checkRole(bytes32 role) public view returns (bool) {... */\n            tag_51:\n                /* \"1127/util/AccessControl.sol\":1065:1069  bool */\n              0x00\n                /* \"1127/util/AccessControl.sol\":1086:1111  hasRole(role, msg.sender) */\n              tag_83\n                /* \"1127/util/AccessControl.sol\":1094:1098  role */\n              dup3\n                /* \"1127/util/AccessControl.sol\":1100:1110  msg.sender */\n              caller\n                /* \"1127/util/AccessControl.sol\":1086:1093  hasRole */\n              tag_44\n                /* \"1127/util/AccessControl.sol\":1086:1111  hasRole(role, msg.sender) */\n              jump\t// in\n            tag_83:\n                /* \"1127/util/AccessControl.sol\":1081:1167  if (!hasRole(role, msg.sender)) {... */\n              tag_84\n              jumpi\n                /* \"1127/util/AccessControl.sol\":1127:1156  revert(\"UnAuthorizedAccount\") */\n              mload(0x40)\n              0x08c379a000000000000000000000000000000000000000000000000000000000\n              dup2\n              mstore\n              0x04\n              add\n              tag_85\n              swap1\n              tag_86\n              jump\t// in\n            tag_85:\n              mload(0x40)\n              dup1\n              swap2\n              sub\n              swap1\n              revert\n                /* \"1127/util/AccessControl.sol\":1081:1167  if (!hasRole(role, msg.sender)) {... */\n            tag_84:\n                /* \"1127/util/AccessControl.sol\":1183:1187  true */\n              0x01\n                /* \"1127/util/AccessControl.sol\":1176:1187  return true */\n              swap1\n              pop\n                /* \"1127/util/AccessControl.sol\":1011:1194  function checkRole(bytes32 role) public view returns (bool) {... */\n              swap2\n              swap1\n              pop\n              jump\t// out\n                /* \"1127/CompanyProxy.sol\":258:321  bytes32 public constant COMPANY_ADMIN_ROLE = keccak256(\"ADMIN\") */\n            tag_54:\n                /* \"1127/CompanyProxy.sol\":303:321  keccak256(\"ADMIN\") */\n              0xdf8b4c520ffe197c5343c6f5aec59570151ef9a492f2c624fd45ddde6135ec42\n                /* \"1127/CompanyProxy.sol\":258:321  bytes32 public constant COMPANY_ADMIN_ROLE = keccak256(\"ADMIN\") */\n              dup2\n              jump\t// out\n                /* \"1127/util/AccessControl.sol\":2161:2490  function revokeRole(bytes32 role, address member)... */\n            tag_58:\n                /* \"1127/util/AccessControl.sol\":2280:2284  bool */\n              0x00\n                /* \"1127/util/AccessControl.sol\":2243:2261  getRoleAdmin(role) */\n              tag_87\n                /* \"1127/util/AccessControl.sol\":2256:2260  role */\n              dup4\n                /* \"1127/util/AccessControl.sol\":2243:2255  getRoleAdmin */\n              tag_28\n                /* \"1127/util/AccessControl.sol\":2243:2261  getRoleAdmin(role) */\n              jump\t// in\n            tag_87:\n                /* \"1127/util/AccessControl.sol\":856:871  checkRole(role) */\n              tag_89\n                /* \"1127/util/AccessControl.sol\":866:870  role */\n              dup2\n                /* \"1127/util/AccessControl.sol\":856:865  checkRole */\n              tag_51\n                /* \"1127/util/AccessControl.sol\":856:871  checkRole(role) */\n              jump\t// in\n            tag_89:\n              pop\n                /* \"1127/util/AccessControl.sol\":2305:2326  hasRole(role, member) */\n              tag_91\n                /* \"1127/util/AccessControl.sol\":2313:2317  role */\n              dup5\n                /* \"1127/util/AccessControl.sol\":2319:2325  member */\n              dup5\n                /* \"1127/util/AccessControl.sol\":2305:2312  hasRole */\n              tag_44\n                /* \"1127/util/AccessControl.sol\":2305:2326  hasRole(role, member) */\n              jump\t// in\n            tag_91:\n                /* \"1127/util/AccessControl.sol\":2300:2365  if (!hasRole(role, member)) {... */\n              tag_92\n              jumpi\n                /* \"1127/util/AccessControl.sol\":2349:2354  false */\n              0x00\n                /* \"1127/util/AccessControl.sol\":2342:2354  return false */\n              swap2\n              pop\n              jump(tag_90)\n                /* \"1127/util/AccessControl.sol\":2300:2365  if (!hasRole(role, member)) {... */\n            tag_92:\n                /* \"1127/util/AccessControl.sol\":2405:2410  false */\n              0x00\n                /* \"1127/util/AccessControl.sol\":2374:2379  roles */\n              dup1\n                /* \"1127/util/AccessControl.sol\":2374:2385  roles[role] */\n              0x00\n                /* \"1127/util/AccessControl.sol\":2380:2384  role */\n              dup7\n                /* \"1127/util/AccessControl.sol\":2374:2385  roles[role] */\n              dup2\n              mstore\n              0x20\n              add\n              swap1\n              dup2\n              mstore\n              0x20\n              add\n              0x00\n              keccak256\n                /* \"1127/util/AccessControl.sol\":2374:2394  roles[role].hasRoles */\n              0x00\n              add\n                /* \"1127/util/AccessControl.sol\":2374:2402  roles[role].hasRoles[member] */\n              0x00\n                /* \"1127/util/AccessControl.sol\":2395:2401  member */\n              dup6\n                /* \"1127/util/AccessControl.sol\":2374:2402  roles[role].hasRoles[member] */\n              0xffffffffffffffffffffffffffffffffffffffff\n              and\n              0xffffffffffffffffffffffffffffffffffffffff\n              and\n              dup2\n              mstore\n              0x20\n              add\n              swap1\n              dup2\n              mstore\n              0x20\n              add\n              0x00\n              keccak256\n              0x00\n                /* \"1127/util/AccessControl.sol\":2374:2410  roles[role].hasRoles[member] = false */\n              0x0100\n              exp\n              dup2\n              sload\n              dup2\n              0xff\n              mul\n              not\n              and\n              swap1\n              dup4\n              iszero\n              iszero\n              mul\n              or\n              swap1\n              sstore\n              pop\n                /* \"1127/util/AccessControl.sol\":2451:2461  msg.sender */\n              caller\n                /* \"1127/util/AccessControl.sol\":2425:2462  RoleRevoked(role, member, msg.sender) */\n              0xffffffffffffffffffffffffffffffffffffffff\n              and\n                /* \"1127/util/AccessControl.sol\":2443:2449  member */\n              dup4\n                /* \"1127/util/AccessControl.sol\":2425:2462  RoleRevoked(role, member, msg.sender) */\n              0xffffffffffffffffffffffffffffffffffffffff\n              and\n                /* \"1127/util/AccessControl.sol\":2437:2441  role */\n              dup6\n                /* \"1127/util/AccessControl.sol\":2425:2462  RoleRevoked(role, member, msg.sender) */\n              0xf6391f5c32d9c69d2a47ea670b442974b53935d1edc7fd64eb21e047a839171b\n              mload(0x40)\n              mload(0x40)\n              dup1\n              swap2\n              sub\n              swap1\n              log4\n                /* \"1127/util/AccessControl.sol\":2479:2483  true */\n              0x01\n                /* \"1127/util/AccessControl.sol\":2472:2483  return true */\n              swap2\n              pop\n                /* \"1127/util/AccessControl.sol\":881:882  _ */\n            tag_90:\n                /* \"1127/util/AccessControl.sol\":2161:2490  function revokeRole(bytes32 role, address member)... */\n              pop\n              swap3\n              swap2\n              pop\n              pop\n              jump\t// out\n                /* \"1127/CompanyProxy.sol\":1701:1807  function _implementation() internal view  returns (address){... */\n            tag_63:\n                /* \"1127/CompanyProxy.sol\":1752:1759  address */\n              0x00\n                /* \"1127/CompanyProxy.sol\":1778:1799  implementationAddress */\n              0x01\n              0x00\n              swap1\n              sload\n              swap1\n              0x0100\n              exp\n              swap1\n              div\n              0xffffffffffffffffffffffffffffffffffffffff\n              and\n                /* \"1127/CompanyProxy.sol\":1771:1799  return implementationAddress */\n              swap1\n              pop\n                /* \"1127/CompanyProxy.sol\":1701:1807  function _implementation() internal view  returns (address){... */\n              swap1\n              jump\t// out\n                /* \"1127/CompanyProxy.sol\":931:1403  function _delegate(address implementation) internal  {... */\n            tag_64:\n                /* \"1127/CompanyProxy.sol\":1038:1052  calldatasize() */\n              calldatasize\n                /* \"1127/CompanyProxy.sol\":1035:1036  0 */\n              0x00\n                /* \"1127/CompanyProxy.sol\":1032:1033  0 */\n              dup1\n                /* \"1127/CompanyProxy.sol\":1019:1053  calldatacopy(0, 0, calldatasize()) */\n              calldatacopy\n                /* \"1127/CompanyProxy.sol\":1139:1140  0 */\n              0x00\n                /* \"1127/CompanyProxy.sol\":1136:1137  0 */\n              dup1\n                /* \"1127/CompanyProxy.sol\":1120:1134  calldatasize() */\n              calldatasize\n                /* \"1127/CompanyProxy.sol\":1117:1118  0 */\n              0x00\n                /* \"1127/CompanyProxy.sol\":1101:1115  implementation */\n              dup5\n                /* \"1127/CompanyProxy.sol\":1094:1099  gas() */\n              gas\n                /* \"1127/CompanyProxy.sol\":1081:1141  delegatecall(gas(), implementation, 0, calldatasize(), 0, 0) */\n              delegatecall\n                /* \"1127/CompanyProxy.sol\":1176:1192  returndatasize() */\n              returndatasize\n                /* \"1127/CompanyProxy.sol\":1173:1174  0 */\n              0x00\n                /* \"1127/CompanyProxy.sol\":1170:1171  0 */\n              dup1\n                /* \"1127/CompanyProxy.sol\":1155:1193  returndatacopy(0, 0, returndatasize()) */\n              returndatacopy\n                /* \"1127/CompanyProxy.sol\":1214:1220  result */\n              dup1\n                /* \"1127/CompanyProxy.sol\":1239:1240  0 */\n              0x00\n                /* \"1127/CompanyProxy.sol\":1234:1302  case 0 {... */\n              dup2\n              eq\n              tag_96\n              jumpi\n                /* \"1127/CompanyProxy.sol\":1353:1369  returndatasize() */\n              returndatasize\n                /* \"1127/CompanyProxy.sol\":1350:1351  0 */\n              0x00\n                /* \"1127/CompanyProxy.sol\":1343:1370  return(0, returndatasize()) */\n              return\n                /* \"1127/CompanyProxy.sol\":1234:1302  case 0 {... */\n            tag_96:\n                /* \"1127/CompanyProxy.sol\":1270:1286  returndatasize() */\n              returndatasize\n                /* \"1127/CompanyProxy.sol\":1267:1268  0 */\n              0x00\n                /* \"1127/CompanyProxy.sol\":1260:1287  revert(0, returndatasize()) */\n              revert\n                /* \"#utility.yul\":88:205   */\n            tag_98:\n                /* \"#utility.yul\":197:198   */\n              0x00\n                /* \"#utility.yul\":194:195   */\n              dup1\n                /* \"#utility.yul\":187:199   */\n              revert\n                /* \"#utility.yul\":334:460   */\n            tag_100:\n                /* \"#utility.yul\":371:378   */\n              0x00\n                /* \"#utility.yul\":411:453   */\n              0xffffffffffffffffffffffffffffffffffffffff\n                /* \"#utility.yul\":404:409   */\n              dup3\n                /* \"#utility.yul\":400:454   */\n              and\n                /* \"#utility.yul\":389:454   */\n              swap1\n              pop\n                /* \"#utility.yul\":334:460   */\n              swap2\n              swap1\n              pop\n              jump\t// out\n                /* \"#utility.yul\":466:562   */\n            tag_101:\n                /* \"#utility.yul\":503:510   */\n              0x00\n                /* \"#utility.yul\":532:556   */\n              tag_121\n                /* \"#utility.yul\":550:555   */\n              dup3\n                /* \"#utility.yul\":532:556   */\n              tag_100\n              jump\t// in\n            tag_121:\n                /* \"#utility.yul\":521:556   */\n              swap1\n              pop\n                /* \"#utility.yul\":466:562   */\n              swap2\n              swap1\n              pop\n              jump\t// out\n                /* \"#utility.yul\":568:690   */\n            tag_102:\n                /* \"#utility.yul\":641:665   */\n              tag_123\n                /* \"#utility.yul\":659:664   */\n              dup2\n                /* \"#utility.yul\":641:665   */\n              tag_101\n              jump\t// in\n            tag_123:\n                /* \"#utility.yul\":634:639   */\n              dup2\n                /* \"#utility.yul\":631:666   */\n              eq\n                /* \"#utility.yul\":621:684   */\n              tag_124\n              jumpi\n                /* \"#utility.yul\":680:681   */\n              0x00\n                /* \"#utility.yul\":677:678   */\n              dup1\n                /* \"#utility.yul\":670:682   */\n              revert\n                /* \"#utility.yul\":621:684   */\n            tag_124:\n                /* \"#utility.yul\":568:690   */\n              pop\n              jump\t// out\n                /* \"#utility.yul\":696:835   */\n            tag_103:\n                /* \"#utility.yul\":742:747   */\n              0x00\n                /* \"#utility.yul\":780:786   */\n              dup2\n                /* \"#utility.yul\":767:787   */\n              calldataload\n                /* \"#utility.yul\":758:787   */\n              swap1\n              pop\n                /* \"#utility.yul\":796:829   */\n              tag_126\n                /* \"#utility.yul\":823:828   */\n              dup2\n                /* \"#utility.yul\":796:829   */\n              tag_102\n              jump\t// in\n            tag_126:\n                /* \"#utility.yul\":696:835   */\n              swap3\n              swap2\n              pop\n              pop\n              jump\t// out\n                /* \"#utility.yul\":841:1170   */\n            tag_21:\n                /* \"#utility.yul\":900:906   */\n              0x00\n                /* \"#utility.yul\":949:951   */\n              0x20\n                /* \"#utility.yul\":937:946   */\n              dup3\n                /* \"#utility.yul\":928:935   */\n              dup5\n                /* \"#utility.yul\":924:947   */\n              sub\n                /* \"#utility.yul\":920:952   */\n              slt\n                /* \"#utility.yul\":917:1036   */\n              iszero\n              tag_128\n              jumpi\n                /* \"#utility.yul\":955:1034   */\n              tag_129\n              tag_98\n              jump\t// in\n            tag_129:\n                /* \"#utility.yul\":917:1036   */\n            tag_128:\n                /* \"#utility.yul\":1075:1076   */\n              0x00\n                /* \"#utility.yul\":1100:1153   */\n              tag_130\n                /* \"#utility.yul\":1145:1152   */\n              dup5\n                /* \"#utility.yul\":1136:1142   */\n              dup3\n                /* \"#utility.yul\":1125:1134   */\n              dup6\n                /* \"#utility.yul\":1121:1143   */\n              add\n                /* \"#utility.yul\":1100:1153   */\n              tag_103\n              jump\t// in\n            tag_130:\n                /* \"#utility.yul\":1090:1153   */\n              swap2\n              pop\n                /* \"#utility.yul\":1046:1163   */\n              pop\n                /* \"#utility.yul\":841:1170   */\n              swap3\n              swap2\n              pop\n              pop\n              jump\t// out\n                /* \"#utility.yul\":1176:1266   */\n            tag_104:\n                /* \"#utility.yul\":1210:1217   */\n              0x00\n                /* \"#utility.yul\":1253:1258   */\n              dup2\n                /* \"#utility.yul\":1246:1259   */\n              iszero\n                /* \"#utility.yul\":1239:1260   */\n              iszero\n                /* \"#utility.yul\":1228:1260   */\n              swap1\n              pop\n                /* \"#utility.yul\":1176:1266   */\n              swap2\n              swap1\n              pop\n              jump\t// out\n                /* \"#utility.yul\":1272:1381   */\n            tag_105:\n                /* \"#utility.yul\":1353:1374   */\n              tag_133\n                /* \"#utility.yul\":1368:1373   */\n              dup2\n                /* \"#utility.yul\":1353:1374   */\n              tag_104\n              jump\t// in\n            tag_133:\n                /* \"#utility.yul\":1348:1351   */\n              dup3\n                /* \"#utility.yul\":1341:1375   */\n              mstore\n                /* \"#utility.yul\":1272:1381   */\n              pop\n              pop\n              jump\t// out\n                /* \"#utility.yul\":1387:1597   */\n            tag_24:\n                /* \"#utility.yul\":1474:1478   */\n              0x00\n                /* \"#utility.yul\":1512:1514   */\n              0x20\n                /* \"#utility.yul\":1501:1510   */\n              dup3\n                /* \"#utility.yul\":1497:1515   */\n              add\n                /* \"#utility.yul\":1489:1515   */\n              swap1\n              pop\n                /* \"#utility.yul\":1525:1590   */\n              tag_135\n                /* \"#utility.yul\":1587:1588   */\n              0x00\n                /* \"#utility.yul\":1576:1585   */\n              dup4\n                /* \"#utility.yul\":1572:1589   */\n              add\n                /* \"#utility.yul\":1563:1569   */\n              dup5\n                /* \"#utility.yul\":1525:1590   */\n              tag_105\n              jump\t// in\n            tag_135:\n                /* \"#utility.yul\":1387:1597   */\n              swap3\n              swap2\n              pop\n              pop\n              jump\t// out\n                /* \"#utility.yul\":1603:1680   */\n            tag_106:\n                /* \"#utility.yul\":1640:1647   */\n              0x00\n                /* \"#utility.yul\":1669:1674   */\n              dup2\n                /* \"#utility.yul\":1658:1674   */\n              swap1\n              pop\n                /* \"#utility.yul\":1603:1680   */\n              swap2\n              swap1\n              pop\n              jump\t// out\n                /* \"#utility.yul\":1686:1808   */\n            tag_107:\n                /* \"#utility.yul\":1759:1783   */\n              tag_138\n                /* \"#utility.yul\":1777:1782   */\n              dup2\n                /* \"#utility.yul\":1759:1783   */\n              tag_106\n              jump\t// in\n            tag_138:\n                /* \"#utility.yul\":1752:1757   */\n              dup2\n                /* \"#utility.yul\":1749:1784   */\n              eq\n                /* \"#utility.yul\":1739:1802   */\n              tag_139\n              jumpi\n                /* \"#utility.yul\":1798:1799   */\n              0x00\n                /* \"#utility.yul\":1795:1796   */\n              dup1\n                /* \"#utility.yul\":1788:1800   */\n              revert\n                /* \"#utility.yul\":1739:1802   */\n            tag_139:\n                /* \"#utility.yul\":1686:1808   */\n              pop\n              jump\t// out\n                /* \"#utility.yul\":1814:1953   */\n            tag_108:\n                /* \"#utility.yul\":1860:1865   */\n              0x00\n                /* \"#utility.yul\":1898:1904   */\n              dup2\n                /* \"#utility.yul\":1885:1905   */\n              calldataload\n                /* \"#utility.yul\":1876:1905   */\n              swap1\n              pop\n                /* \"#utility.yul\":1914:1947   */\n              tag_141\n                /* \"#utility.yul\":1941:1946   */\n              dup2\n                /* \"#utility.yul\":1914:1947   */\n              tag_107\n              jump\t// in\n            tag_141:\n                /* \"#utility.yul\":1814:1953   */\n              swap3\n              swap2\n              pop\n              pop\n              jump\t// out\n                /* \"#utility.yul\":1959:2288   */\n            tag_27:\n                /* \"#utility.yul\":2018:2024   */\n              0x00\n                /* \"#utility.yul\":2067:2069   */\n              0x20\n                /* \"#utility.yul\":2055:2064   */\n              dup3\n                /* \"#utility.yul\":2046:2053   */\n              dup5\n                /* \"#utility.yul\":2042:2065   */\n              sub\n                /* \"#utility.yul\":2038:2070   */\n              slt\n                /* \"#utility.yul\":2035:2154   */\n              iszero\n              tag_143\n              jumpi\n                /* \"#utility.yul\":2073:2152   */\n              tag_144\n              tag_98\n              jump\t// in\n            tag_144:\n                /* \"#utility.yul\":2035:2154   */\n            tag_143:\n                /* \"#utility.yul\":2193:2194   */\n              0x00\n                /* \"#utility.yul\":2218:2271   */\n              tag_145\n                /* \"#utility.yul\":2263:2270   */\n              dup5\n                /* \"#utility.yul\":2254:2260   */\n              dup3\n                /* \"#utility.yul\":2243:2252   */\n              dup6\n                /* \"#utility.yul\":2239:2261   */\n              add\n                /* \"#utility.yul\":2218:2271   */\n              tag_108\n              jump\t// in\n            tag_145:\n                /* \"#utility.yul\":2208:2271   */\n              swap2\n              pop\n                /* \"#utility.yul\":2164:2281   */\n              pop\n                /* \"#utility.yul\":1959:2288   */\n              swap3\n              swap2\n              pop\n              pop\n              jump\t// out\n                /* \"#utility.yul\":2294:2412   */\n            tag_109:\n                /* \"#utility.yul\":2381:2405   */\n              tag_147\n                /* \"#utility.yul\":2399:2404   */\n              dup2\n                /* \"#utility.yul\":2381:2405   */\n              tag_106\n              jump\t// in\n            tag_147:\n                /* \"#utility.yul\":2376:2379   */\n              dup3\n                /* \"#utility.yul\":2369:2406   */\n              mstore\n                /* \"#utility.yul\":2294:2412   */\n              pop\n              pop\n              jump\t// out\n                /* \"#utility.yul\":2418:2640   */\n            tag_30:\n                /* \"#utility.yul\":2511:2515   */\n              0x00\n                /* \"#utility.yul\":2549:2551   */\n              0x20\n                /* \"#utility.yul\":2538:2547   */\n              dup3\n                /* \"#utility.yul\":2534:2552   */\n              add\n                /* \"#utility.yul\":2526:2552   */\n              swap1\n              pop\n                /* \"#utility.yul\":2562:2633   */\n              tag_149\n                /* \"#utility.yul\":2630:2631   */\n              0x00\n                /* \"#utility.yul\":2619:2628   */\n              dup4\n                /* \"#utility.yul\":2615:2632   */\n              add\n                /* \"#utility.yul\":2606:2612   */\n              dup5\n                /* \"#utility.yul\":2562:2633   */\n              tag_109\n              jump\t// in\n            tag_149:\n                /* \"#utility.yul\":2418:2640   */\n              swap3\n              swap2\n              pop\n              pop\n              jump\t// out\n                /* \"#utility.yul\":2646:3120   */\n            tag_33:\n                /* \"#utility.yul\":2714:2720   */\n              0x00\n                /* \"#utility.yul\":2722:2728   */\n              dup1\n                /* \"#utility.yul\":2771:2773   */\n              0x40\n                /* \"#utility.yul\":2759:2768   */\n              dup4\n                /* \"#utility.yul\":2750:2757   */\n              dup6\n                /* \"#utility.yul\":2746:2769   */\n              sub\n                /* \"#utility.yul\":2742:2774   */\n              slt\n                /* \"#utility.yul\":2739:2858   */\n              iszero\n              tag_151\n              jumpi\n                /* \"#utility.yul\":2777:2856   */\n              tag_152\n              tag_98\n              jump\t// in\n            tag_152:\n                /* \"#utility.yul\":2739:2858   */\n            tag_151:\n                /* \"#utility.yul\":2897:2898   */\n              0x00\n                /* \"#utility.yul\":2922:2975   */\n              tag_153\n                /* \"#utility.yul\":2967:2974   */\n              dup6\n                /* \"#utility.yul\":2958:2964   */\n              dup3\n                /* \"#utility.yul\":2947:2956   */\n              dup7\n                /* \"#utility.yul\":2943:2965   */\n              add\n                /* \"#utility.yul\":2922:2975   */\n              tag_108\n              jump\t// in\n            tag_153:\n                /* \"#utility.yul\":2912:2975   */\n              swap3\n              pop\n                /* \"#utility.yul\":2868:2985   */\n              pop\n                /* \"#utility.yul\":3024:3026   */\n              0x20\n                /* \"#utility.yul\":3050:3103   */\n              tag_154\n                /* \"#utility.yul\":3095:3102   */\n              dup6\n                /* \"#utility.yul\":3086:3092   */\n              dup3\n                /* \"#utility.yul\":3075:3084   */\n              dup7\n                /* \"#utility.yul\":3071:3093   */\n              add\n                /* \"#utility.yul\":3050:3103   */\n              tag_103\n              jump\t// in\n            tag_154:\n                /* \"#utility.yul\":3040:3103   */\n              swap2\n              pop\n                /* \"#utility.yul\":2995:3113   */\n              pop\n                /* \"#utility.yul\":2646:3120   */\n              swap3\n              pop\n              swap3\n              swap1\n              pop\n              jump\t// out\n                /* \"#utility.yul\":3126:3295   */\n            tag_110:\n                /* \"#utility.yul\":3210:3221   */\n              0x00\n                /* \"#utility.yul\":3244:3250   */\n              dup3\n                /* \"#utility.yul\":3239:3242   */\n              dup3\n                /* \"#utility.yul\":3232:3251   */\n              mstore\n                /* \"#utility.yul\":3284:3288   */\n              0x20\n                /* \"#utility.yul\":3279:3282   */\n              dup3\n                /* \"#utility.yul\":3275:3289   */\n              add\n                /* \"#utility.yul\":3260:3289   */\n              swap1\n              pop\n                /* \"#utility.yul\":3126:3295   */\n              swap3\n              swap2\n              pop\n              pop\n              jump\t// out\n                /* \"#utility.yul\":3301:3466   */\n            tag_111:\n                /* \"#utility.yul\":3441:3458   */\n              0x426164436f6e6669726d6174696f6e0000000000000000000000000000000000\n                /* \"#utility.yul\":3437:3438   */\n              0x00\n                /* \"#utility.yul\":3429:3435   */\n              dup3\n                /* \"#utility.yul\":3425:3439   */\n              add\n                /* \"#utility.yul\":3418:3459   */\n              mstore\n                /* \"#utility.yul\":3301:3466   */\n              pop\n              jump\t// out\n                /* \"#utility.yul\":3472:3838   */\n            tag_112:\n                /* \"#utility.yul\":3614:3617   */\n              0x00\n                /* \"#utility.yul\":3635:3702   */\n              tag_158\n                /* \"#utility.yul\":3699:3701   */\n              0x0f\n                /* \"#utility.yul\":3694:3697   */\n              dup4\n                /* \"#utility.yul\":3635:3702   */\n              tag_110\n              jump\t// in\n            tag_158:\n                /* \"#utility.yul\":3628:3702   */\n              swap2\n              pop\n                /* \"#utility.yul\":3711:3804   */\n              tag_159\n                /* \"#utility.yul\":3800:3803   */\n              dup3\n                /* \"#utility.yul\":3711:3804   */\n              tag_111\n              jump\t// in\n            tag_159:\n                /* \"#utility.yul\":3829:3831   */\n              0x20\n                /* \"#utility.yul\":3824:3827   */\n              dup3\n                /* \"#utility.yul\":3820:3832   */\n              add\n                /* \"#utility.yul\":3813:3832   */\n              swap1\n              pop\n                /* \"#utility.yul\":3472:3838   */\n              swap2\n              swap1\n              pop\n              jump\t// out\n                /* \"#utility.yul\":3844:4263   */\n            tag_79:\n                /* \"#utility.yul\":4010:4014   */\n              0x00\n                /* \"#utility.yul\":4048:4050   */\n              0x20\n                /* \"#utility.yul\":4037:4046   */\n              dup3\n                /* \"#utility.yul\":4033:4051   */\n              add\n                /* \"#utility.yul\":4025:4051   */\n              swap1\n              pop\n                /* \"#utility.yul\":4097:4106   */\n              dup2\n                /* \"#utility.yul\":4091:4095   */\n              dup2\n                /* \"#utility.yul\":4087:4107   */\n              sub\n                /* \"#utility.yul\":4083:4084   */\n              0x00\n                /* \"#utility.yul\":4072:4081   */\n              dup4\n                /* \"#utility.yul\":4068:4085   */\n              add\n                /* \"#utility.yul\":4061:4108   */\n              mstore\n                /* \"#utility.yul\":4125:4256   */\n              tag_161\n                /* \"#utility.yul\":4251:4255   */\n              dup2\n                /* \"#utility.yul\":4125:4256   */\n              tag_112\n              jump\t// in\n            tag_161:\n                /* \"#utility.yul\":4117:4256   */\n              swap1\n              pop\n                /* \"#utility.yul\":3844:4263   */\n              swap2\n              swap1\n              pop\n              jump\t// out\n                /* \"#utility.yul\":4269:4438   */\n            tag_113:\n                /* \"#utility.yul\":4409:4430   */\n              0x556e417574686f72697a65644163636f756e7400000000000000000000000000\n                /* \"#utility.yul\":4405:4406   */\n              0x00\n                /* \"#utility.yul\":4397:4403   */\n              dup3\n                /* \"#utility.yul\":4393:4407   */\n              add\n                /* \"#utility.yul\":4386:4431   */\n              mstore\n                /* \"#utility.yul\":4269:4438   */\n              pop\n              jump\t// out\n                /* \"#utility.yul\":4444:4810   */\n            tag_114:\n                /* \"#utility.yul\":4586:4589   */\n              0x00\n                /* \"#utility.yul\":4607:4674   */\n              tag_164\n                /* \"#utility.yul\":4671:4673   */\n              0x13\n                /* \"#utility.yul\":4666:4669   */\n              dup4\n                /* \"#utility.yul\":4607:4674   */\n              tag_110\n              jump\t// in\n            tag_164:\n                /* \"#utility.yul\":4600:4674   */\n              swap2\n              pop\n                /* \"#utility.yul\":4683:4776   */\n              tag_165\n                /* \"#utility.yul\":4772:4775   */\n              dup3\n                /* \"#utility.yul\":4683:4776   */\n              tag_113\n              jump\t// in\n            tag_165:\n                /* \"#utility.yul\":4801:4803   */\n              0x20\n                /* \"#utility.yul\":4796:4799   */\n              dup3\n                /* \"#utility.yul\":4792:4804   */\n              add\n                /* \"#utility.yul\":4785:4804   */\n              swap1\n              pop\n                /* \"#utility.yul\":4444:4810   */\n              swap2\n              swap1\n              pop\n              jump\t// out\n                /* \"#utility.yul\":4816:5235   */\n            tag_86:\n                /* \"#utility.yul\":4982:4986   */\n              0x00\n                /* \"#utility.yul\":5020:5022   */\n              0x20\n                /* \"#utility.yul\":5009:5018   */\n              dup3\n                /* \"#utility.yul\":5005:5023   */\n              add\n                /* \"#utility.yul\":4997:5023   */\n              swap1\n              pop\n                /* \"#utility.yul\":5069:5078   */\n              dup2\n                /* \"#utility.yul\":5063:5067   */\n              dup2\n                /* \"#utility.yul\":5059:5079   */\n              sub\n                /* \"#utility.yul\":5055:5056   */\n              0x00\n                /* \"#utility.yul\":5044:5053   */\n              dup4\n                /* \"#utility.yul\":5040:5057   */\n              add\n                /* \"#utility.yul\":5033:5080   */\n              mstore\n                /* \"#utility.yul\":5097:5228   */\n              tag_167\n                /* \"#utility.yul\":5223:5227   */\n              dup2\n                /* \"#utility.yul\":5097:5228   */\n              tag_114\n              jump\t// in\n            tag_167:\n                /* \"#utility.yul\":5089:5228   */\n              swap1\n              pop\n                /* \"#utility.yul\":4816:5235   */\n              swap2\n              swap1\n              pop\n              jump\t// out\n\n            auxdata: 0xa26469706673582212200ffe9c6005f715c06e4b594dcbc42491a7e2fbfaa4a6069b2126697516a45d5664736f6c634300080b0033\n        }\n    }\n\n    auxdata: 0xa2646970667358221220e3d15ec3ffed537c670e75c9721764bd960f44aabc9aa5fe26ca19354d459e9764736f6c634300080b0033\n}\n",
				"bytecode": {
					"linkReferences": {},
					"object": "60806040523480156200001157600080fd5b5060405162002aa838038062002aa8833981810160405281019062000037919062000426565b3360016000808060001b815260200190815260200160002060000160008373ffffffffffffffffffffffffffffffffffffffff1673ffffffffffffffffffffffffffffffffffffffff16815260200190815260200160002060006101000a81548160ff02191690831515021790555050620000dc7f0a17004e45f702315376249fbb5266f40fc0c452c5452b3ea6809db18e2ad3d76000801b6200015860201b60201c565b6200010e7f0a17004e45f702315376249fbb5266f40fc0c452c5452b3ea6809db18e2ad3d783620001bb60201b60201c565b5080600160006101000a81548173ffffffffffffffffffffffffffffffffffffffff021916908373ffffffffffffffffffffffffffffffffffffffff1602179055505050620004f0565b60006200016b83620002d460201b60201c565b905081600080858152602001908152602001600020600101819055508181847fbd79b86ffe0ab8e8776151514217cd7cacd52c909f66475c3af44e129f0b00ff60405160405180910390a4505050565b6000620001ce83620002d460201b60201c565b620001df81620002f360201b60201c565b50620001f284846200035260201b60201c565b15620002025760009150620002cd565b600160008086815260200190815260200160002060000160008573ffffffffffffffffffffffffffffffffffffffff1673ffffffffffffffffffffffffffffffffffffffff16815260200190815260200160002060006101000a81548160ff0219169083151502179055503373ffffffffffffffffffffffffffffffffffffffff168373ffffffffffffffffffffffffffffffffffffffff16857f2f8788117e7eff1d82e926ec794901d17c78024a50270940304540a733656f0d60405160405180910390a4600191505b5092915050565b6000806000838152602001908152602001600020600101549050919050565b60006200030782336200035260201b60201c565b62000349576040517f08c379a00000000000000000000000000000000000000000000000000000000081526004016200034090620004ce565b60405180910390fd5b60019050919050565b600080600084815260200190815260200160002060000160008373ffffffffffffffffffffffffffffffffffffffff1673ffffffffffffffffffffffffffffffffffffffff16815260200190815260200160002060009054906101000a900460ff16905092915050565b600080fd5b600073ffffffffffffffffffffffffffffffffffffffff82169050919050565b6000620003ee82620003c1565b9050919050565b6200040081620003e1565b81146200040c57600080fd5b50565b6000815190506200042081620003f5565b92915050565b6000806040838503121562000440576200043f620003bc565b5b600062000450858286016200040f565b925050602062000463858286016200040f565b9150509250929050565b600082825260208201905092915050565b7f556e417574686f72697a65644163636f756e7400000000000000000000000000600082015250565b6000620004b66013836200046d565b9150620004c3826200047e565b602082019050919050565b60006020820190508181036000830152620004e981620004a7565b9050919050565b6125a880620005006000396000f3fe60806040523480156200001157600080fd5b5060043610620000ac5760003560e01c806391d14854116200006f57806391d1485414620001955780639cdeba9514620001cb578063c5b9519014620001ed578063d547741f1462000223578063ffcee0a1146200025957620000ac565b80630a0a4cb914620000b1578063248a9ca314620000d35780632f2ff15d146200010957806336568abe146200013f5780635d7746c0146200015f575b600080fd5b620000bb6200028f565b604051620000ca919062000cf0565b60405180910390f35b620000f16004803603810190620000eb919062000d52565b620002b3565b60405162000100919062000cf0565b60405180910390f35b62000127600480360381019062000121919062000de9565b620002d2565b60405162000136919062000e4d565b60405180910390f35b6200015d600480360381019062000157919062000de9565b620003d9565b005b6200017d600480360381019062000177919062000fcc565b6200045b565b6040516200018c919062000e4d565b60405180910390f35b620001b36004803603810190620001ad919062000de9565b62000693565b604051620001c2919062000e4d565b60405180910390f35b620001d5620006fd565b604051620001e4919062000cf0565b60405180910390f35b6200020b600480360381019062000205919062000d52565b62000704565b6040516200021a919062000e4d565b60405180910390f35b6200024160048036038101906200023b919062000de9565b6200075d565b60405162000250919062000e4d565b60405180910390f35b62000277600480360381019062000271919062001066565b62000863565b60405162000286919062000e4d565b60405180910390f35b7f0a17004e45f702315376249fbb5266f40fc0c452c5452b3ea6809db18e2ad3d781565b6000806000838152602001908152602001600020600101549050919050565b6000620002df83620002b3565b620002ea8162000704565b50620002f7848462000693565b15620003075760009150620003d2565b600160008086815260200190815260200160002060000160008573ffffffffffffffffffffffffffffffffffffffff1673ffffffffffffffffffffffffffffffffffffffff16815260200190815260200160002060006101000a81548160ff0219169083151502179055503373ffffffffffffffffffffffffffffffffffffffff168373ffffffffffffffffffffffffffffffffffffffff16857f2f8788117e7eff1d82e926ec794901d17c78024a50270940304540a733656f0d60405160405180910390a4600191505b5092915050565b3373ffffffffffffffffffffffffffffffffffffffff168173ffffffffffffffffffffffffffffffffffffffff16146200044a576040517f08c379a0000000000000000000000000000000000000000000000000000000008152600401620004419062001118565b60405180910390fd5b6200045682826200075d565b505050565b60007f0a17004e45f702315376249fbb5266f40fc0c452c5452b3ea6809db18e2ad3d7620004898162000704565b50600073ffffffffffffffffffffffffffffffffffffffff16600286604051620004b49190620011bd565b908152602001604051809103902060010160009054906101000a900473ffffffffffffffffffffffffffffffffffffffff1673ffffffffffffffffffffffffffffffffffffffff16146200050c57600091506200068b565b60008385600160009054906101000a900473ffffffffffffffffffffffffffffffffffffffff16604051620005419062000c17565b6200054f9392919062001228565b604051809103906000f0801580156200056c573d6000803e3d6000fd5b50905060405180606001604052808781526020018573ffffffffffffffffffffffffffffffffffffffff16815260200186815250600287604051620005b29190620011bd565b90815260200160405180910390206000820151816000019080519060200190620005de92919062000c25565b5060208201518160010160006101000a81548173ffffffffffffffffffffffffffffffffffffffff021916908373ffffffffffffffffffffffffffffffffffffffff16021790555060408201518160020190805190602001906200064492919062000c25565b509050507f3a3fb9a0b1b5aa6ea94c1cf0eab4fe13f7e24aa92bd1acaf3dbdb5cf4c9498bf8686836040516200067d939291906200126c565b60405180910390a160019250505b509392505050565b600080600084815260200190815260200160002060000160008373ffffffffffffffffffffffffffffffffffffffff1673ffffffffffffffffffffffffffffffffffffffff16815260200190815260200160002060009054906101000a900460ff16905092915050565b6000801b81565b600062000712823362000693565b62000754576040517f08c379a00000000000000000000000000000000000000000000000000000000081526004016200074b9062001307565b60405180910390fd5b60019050919050565b60006200076a83620002b3565b620007758162000704565b5062000782848462000693565b6200079157600091506200085c565b600080600086815260200190815260200160002060000160008573ffffffffffffffffffffffffffffffffffffffff1673ffffffffffffffffffffffffffffffffffffffff16815260200190815260200160002060006101000a81548160ff0219169083151502179055503373ffffffffffffffffffffffffffffffffffffffff168373ffffffffffffffffffffffffffffffffffffffff16857ff6391f5c32d9c69d2a47ea670b442974b53935d1edc7fd64eb21e047a839171b60405160405180910390a4600191505b5092915050565b60007f0a17004e45f702315376249fbb5266f40fc0c452c5452b3ea6809db18e2ad3d7620008918162000704565b50600073ffffffffffffffffffffffffffffffffffffffff16600284604051620008bc9190620011bd565b908152602001604051809103902060010160009054906101000a900473ffffffffffffffffffffffffffffffffffffffff1673ffffffffffffffffffffffffffffffffffffffff16141562000915576000915062000c11565b6000600284604051620009299190620011bd565b9081526020016040518091039020604051806060016040529081600082018054620009549062001358565b80601f0160208091040260200160405190810160405280929190818152602001828054620009829062001358565b8015620009d35780601f10620009a757610100808354040283529160200191620009d3565b820191906000526020600020905b815481529060010190602001808311620009b557829003601f168201915b505050505081526020016001820160009054906101000a900473ffffffffffffffffffffffffffffffffffffffff1673ffffffffffffffffffffffffffffffffffffffff1673ffffffffffffffffffffffffffffffffffffffff16815260200160028201805462000a449062001358565b80601f016020809104026020016040519081016040528092919081815260200182805462000a729062001358565b801562000ac35780601f1062000a975761010080835404028352916020019162000ac3565b820191906000526020600020905b81548152906001019060200180831162000aa557829003601f168201915b50505050508152505090506040518060600160405280604051806020016040528060008152508152602001600073ffffffffffffffffffffffffffffffffffffffff1681526020016040518060200160405280600081525081525060028560405162000b309190620011bd565b9081526020016040518091039020600082015181600001908051906020019062000b5c92919062000c25565b5060208201518160010160006101000a81548173ffffffffffffffffffffffffffffffffffffffff021916908373ffffffffffffffffffffffffffffffffffffffff160217905550604082015181600201908051906020019062000bc292919062000c25565b509050507f8fcf099bc2f3b0523f3626da96ba195f4b0d05003bf73dec5fc01e291b578fac848260400151836020015160405162000c03939291906200126c565b60405180910390a160019250505b50919050565b6111e4806200138f83390190565b82805462000c339062001358565b90600052602060002090601f01602090048101928262000c57576000855562000ca3565b82601f1062000c7257805160ff191683800117855562000ca3565b8280016001018555821562000ca3579182015b8281111562000ca257825182559160200191906001019062000c85565b5b50905062000cb2919062000cb6565b5090565b5b8082111562000cd157600081600090555060010162000cb7565b5090565b6000819050919050565b62000cea8162000cd5565b82525050565b600060208201905062000d07600083018462000cdf565b92915050565b6000604051905090565b600080fd5b600080fd5b62000d2c8162000cd5565b811462000d3857600080fd5b50565b60008135905062000d4c8162000d21565b92915050565b60006020828403121562000d6b5762000d6a62000d17565b5b600062000d7b8482850162000d3b565b91505092915050565b600073ffffffffffffffffffffffffffffffffffffffff82169050919050565b600062000db18262000d84565b9050919050565b62000dc38162000da4565b811462000dcf57600080fd5b50565b60008135905062000de38162000db8565b92915050565b6000806040838503121562000e035762000e0262000d17565b5b600062000e138582860162000d3b565b925050602062000e268582860162000dd2565b9150509250929050565b60008115159050919050565b62000e478162000e30565b82525050565b600060208201905062000e64600083018462000e3c565b92915050565b600080fd5b600080fd5b6000601f19601f8301169050919050565b7f4e487b7100000000000000000000000000000000000000000000000000000000600052604160045260246000fd5b62000ebf8262000e74565b810181811067ffffffffffffffff8211171562000ee15762000ee062000e85565b5b80604052505050565b600062000ef662000d0d565b905062000f04828262000eb4565b919050565b600067ffffffffffffffff82111562000f275762000f2662000e85565b5b62000f328262000e74565b9050602081019050919050565b82818337600083830152505050565b600062000f6562000f5f8462000f09565b62000eea565b90508281526020810184848401111562000f845762000f8362000e6f565b5b62000f9184828562000f3f565b509392505050565b600082601f83011262000fb15762000fb062000e6a565b5b813562000fc384826020860162000f4e565b91505092915050565b60008060006060848603121562000fe85762000fe762000d17565b5b600084013567ffffffffffffffff81111562001009576200100862000d1c565b5b620010178682870162000f99565b935050602084013567ffffffffffffffff8111156200103b576200103a62000d1c565b5b620010498682870162000f99565b92505060406200105c8682870162000dd2565b9150509250925092565b6000602082840312156200107f576200107e62000d17565b5b600082013567ffffffffffffffff811115620010a0576200109f62000d1c565b5b620010ae8482850162000f99565b91505092915050565b600082825260208201905092915050565b7f426164436f6e6669726d6174696f6e0000000000000000000000000000000000600082015250565b600062001100600f83620010b7565b91506200110d82620010c8565b602082019050919050565b600060208201905081810360008301526200113381620010f1565b9050919050565b600081519050919050565b600081905092915050565b60005b838110156200117057808201518184015260208101905062001153565b8381111562001180576000848401525b50505050565b600062001193826200113a565b6200119f818562001145565b9350620011b181856020860162001150565b80840191505092915050565b6000620011cb828462001186565b915081905092915050565b620011e18162000da4565b82525050565b6000620011f4826200113a565b620012008185620010b7565b93506200121281856020860162001150565b6200121d8162000e74565b840191505092915050565b60006060820190506200123f6000830186620011d6565b8181036020830152620012538185620011e7565b9050620012646040830184620011d6565b949350505050565b60006060820190508181036000830152620012888186620011e7565b905081810360208301526200129e8185620011e7565b9050620012af6040830184620011d6565b949350505050565b7f556e417574686f72697a65644163636f756e7400000000000000000000000000600082015250565b6000620012ef601383620010b7565b9150620012fc82620012b7565b602082019050919050565b600060208201905081810360008301526200132281620012e0565b9050919050565b7f4e487b7100000000000000000000000000000000000000000000000000000000600052602260045260246000fd5b600060028204905060018216806200137157607f821691505b6020821081141562001388576200138762001329565b5b5091905056fe60806040523480156200001157600080fd5b50604051620011e4380380620011e48339818101604052810190620000379190620006da565b3360016000808060001b815260200190815260200160002060000160008373ffffffffffffffffffffffffffffffffffffffff1673ffffffffffffffffffffffffffffffffffffffff16815260200190815260200160002060006101000a81548160ff02191690831515021790555050620000dc7fdf8b4c520ffe197c5343c6f5aec59570151ef9a492f2c624fd45ddde6135ec426000801b620001c460201b60201c565b6200012e7ff101d8f75d5816ea5d4f9e76d2b196ca77914d087c68fd9b89f497d695bcddf77fdf8b4c520ffe197c5343c6f5aec59570151ef9a492f2c624fd45ddde6135ec42620001c460201b60201c565b620001607fdf8b4c520ffe197c5343c6f5aec59570151ef9a492f2c624fd45ddde6135ec42846200022760201b60201c565b5080600160006101000a81548173ffffffffffffffffffffffffffffffffffffffff021916908373ffffffffffffffffffffffffffffffffffffffff1602179055508160029080519060200190620001ba92919062000428565b505050506200083d565b6000620001d7836200034060201b60201c565b905081600080858152602001908152602001600020600101819055508181847fbd79b86ffe0ab8e8776151514217cd7cacd52c909f66475c3af44e129f0b00ff60405160405180910390a4505050565b60006200023a836200034060201b60201c565b6200024b816200035f60201b60201c565b506200025e8484620003be60201b60201c565b156200026e576000915062000339565b600160008086815260200190815260200160002060000160008573ffffffffffffffffffffffffffffffffffffffff1673ffffffffffffffffffffffffffffffffffffffff16815260200190815260200160002060006101000a81548160ff0219169083151502179055503373ffffffffffffffffffffffffffffffffffffffff168373ffffffffffffffffffffffffffffffffffffffff16857f2f8788117e7eff1d82e926ec794901d17c78024a50270940304540a733656f0d60405160405180910390a4600191505b5092915050565b6000806000838152602001908152602001600020600101549050919050565b6000620003738233620003be60201b60201c565b620003b5576040517f08c379a0000000000000000000000000000000000000000000000000000000008152600401620003ac90620007b6565b60405180910390fd5b60019050919050565b600080600084815260200190815260200160002060000160008373ffffffffffffffffffffffffffffffffffffffff1673ffffffffffffffffffffffffffffffffffffffff16815260200190815260200160002060009054906101000a900460ff16905092915050565b828054620004369062000807565b90600052602060002090601f0160209004810192826200045a5760008555620004a6565b82601f106200047557805160ff1916838001178555620004a6565b82800160010185558215620004a6579182015b82811115620004a557825182559160200191906001019062000488565b5b509050620004b59190620004b9565b5090565b5b80821115620004d4576000816000905550600101620004ba565b5090565b6000604051905090565b600080fd5b600080fd5b600073ffffffffffffffffffffffffffffffffffffffff82169050919050565b60006200051982620004ec565b9050919050565b6200052b816200050c565b81146200053757600080fd5b50565b6000815190506200054b8162000520565b92915050565b600080fd5b600080fd5b6000601f19601f8301169050919050565b7f4e487b7100000000000000000000000000000000000000000000000000000000600052604160045260246000fd5b620005a6826200055b565b810181811067ffffffffffffffff82111715620005c857620005c76200056c565b5b80604052505050565b6000620005dd620004d8565b9050620005eb82826200059b565b919050565b600067ffffffffffffffff8211156200060e576200060d6200056c565b5b62000619826200055b565b9050602081019050919050565b60005b838110156200064657808201518184015260208101905062000629565b8381111562000656576000848401525b50505050565b6000620006736200066d84620005f0565b620005d1565b90508281526020810184848401111562000692576200069162000556565b5b6200069f84828562000626565b509392505050565b600082601f830112620006bf57620006be62000551565b5b8151620006d18482602086016200065c565b91505092915050565b600080600060608486031215620006f657620006f5620004e2565b5b600062000706868287016200053a565b935050602084015167ffffffffffffffff8111156200072a5762000729620004e7565b5b6200073886828701620006a7565b92505060406200074b868287016200053a565b9150509250925092565b600082825260208201905092915050565b7f556e417574686f72697a65644163636f756e7400000000000000000000000000600082015250565b60006200079e60138362000755565b9150620007ab8262000766565b602082019050919050565b60006020820190508181036000830152620007d1816200078f565b9050919050565b7f4e487b7100000000000000000000000000000000000000000000000000000000600052602260045260246000fd5b600060028204905060018216806200082057607f821691505b60208210811415620008375762000836620007d8565b5b50919050565b610997806200084d6000396000f3fe608060405234801561001057600080fd5b50600436106100a25760003560e01c806391d148541161006657806391d14854146101775780639cdeba95146101a7578063c5b95190146101c5578063c96ea900146101f5578063d547741f14610213576100a3565b8063025b22bc146100ad578063248a9ca3146100dd5780632f2ff15d1461010d57806336568abe1461013d57806385a9d78f14610159576100a3565b5b6100ab610243565b005b6100c760048036038101906100c29190610748565b610255565b6040516100d49190610790565b60405180910390f35b6100f760048036038101906100f291906107e1565b6102ef565b604051610104919061081d565b60405180910390f35b61012760048036038101906101229190610838565b61030e565b6040516101349190610790565b60405180910390f35b61015760048036038101906101529190610838565b61040d565b005b61016161048a565b60405161016e919061081d565b60405180910390f35b610191600480360381019061018c9190610838565b6104ae565b60405161019e9190610790565b60405180910390f35b6101af610518565b6040516101bc919061081d565b60405180910390f35b6101df60048036038101906101da91906107e1565b61051f565b6040516101ec9190610790565b60405180910390f35b6101fd610573565b60405161020a919061081d565b60405180910390f35b61022d60048036038101906102289190610838565b610597565b60405161023a9190610790565b60405180910390f35b61025361024e610695565b6106bf565b565b60008060001b6102648161051f565b50600073ffffffffffffffffffffffffffffffffffffffff168373ffffffffffffffffffffffffffffffffffffffff1614156102a357600091506102e9565b82600160006101000a81548173ffffffffffffffffffffffffffffffffffffffff021916908373ffffffffffffffffffffffffffffffffffffffff160217905550600191505b50919050565b6000806000838152602001908152602001600020600101549050919050565b6000610319836102ef565b6103228161051f565b5061032d84846104ae565b1561033b5760009150610406565b600160008086815260200190815260200160002060000160008573ffffffffffffffffffffffffffffffffffffffff1673ffffffffffffffffffffffffffffffffffffffff16815260200190815260200160002060006101000a81548160ff0219169083151502179055503373ffffffffffffffffffffffffffffffffffffffff168373ffffffffffffffffffffffffffffffffffffffff16857f2f8788117e7eff1d82e926ec794901d17c78024a50270940304540a733656f0d60405160405180910390a4600191505b5092915050565b3373ffffffffffffffffffffffffffffffffffffffff168173ffffffffffffffffffffffffffffffffffffffff161461047b576040517f08c379a0000000000000000000000000000000000000000000000000000000008152600401610472906108d5565b60405180910390fd5b6104858282610597565b505050565b7ff101d8f75d5816ea5d4f9e76d2b196ca77914d087c68fd9b89f497d695bcddf781565b600080600084815260200190815260200160002060000160008373ffffffffffffffffffffffffffffffffffffffff1673ffffffffffffffffffffffffffffffffffffffff16815260200190815260200160002060009054906101000a900460ff16905092915050565b6000801b81565b600061052b82336104ae565b61056a576040517f08c379a000000000000000000000000000000000000000000000000000000000815260040161056190610941565b60405180910390fd5b60019050919050565b7fdf8b4c520ffe197c5343c6f5aec59570151ef9a492f2c624fd45ddde6135ec4281565b60006105a2836102ef565b6105ab8161051f565b506105b684846104ae565b6105c3576000915061068e565b600080600086815260200190815260200160002060000160008573ffffffffffffffffffffffffffffffffffffffff1673ffffffffffffffffffffffffffffffffffffffff16815260200190815260200160002060006101000a81548160ff0219169083151502179055503373ffffffffffffffffffffffffffffffffffffffff168373ffffffffffffffffffffffffffffffffffffffff16857ff6391f5c32d9c69d2a47ea670b442974b53935d1edc7fd64eb21e047a839171b60405160405180910390a4600191505b5092915050565b6000600160009054906101000a900473ffffffffffffffffffffffffffffffffffffffff16905090565b3660008037600080366000845af43d6000803e80600081146106e0573d6000f35b3d6000fd5b600080fd5b600073ffffffffffffffffffffffffffffffffffffffff82169050919050565b6000610715826106ea565b9050919050565b6107258161070a565b811461073057600080fd5b50565b6000813590506107428161071c565b92915050565b60006020828403121561075e5761075d6106e5565b5b600061076c84828501610733565b91505092915050565b60008115159050919050565b61078a81610775565b82525050565b60006020820190506107a56000830184610781565b92915050565b6000819050919050565b6107be816107ab565b81146107c957600080fd5b50565b6000813590506107db816107b5565b92915050565b6000602082840312156107f7576107f66106e5565b5b6000610805848285016107cc565b91505092915050565b610817816107ab565b82525050565b6000602082019050610832600083018461080e565b92915050565b6000806040838503121561084f5761084e6106e5565b5b600061085d858286016107cc565b925050602061086e85828601610733565b9150509250929050565b600082825260208201905092915050565b7f426164436f6e6669726d6174696f6e0000000000000000000000000000000000600082015250565b60006108bf600f83610878565b91506108ca82610889565b602082019050919050565b600060208201905081810360008301526108ee816108b2565b9050919050565b7f556e417574686f72697a65644163636f756e7400000000000000000000000000600082015250565b600061092b601383610878565b9150610936826108f5565b602082019050919050565b6000602082019050818103600083015261095a8161091e565b905091905056fea26469706673582212200ffe9c6005f715c06e4b594dcbc42491a7e2fbfaa4a6069b2126697516a45d5664736f6c634300080b0033a2646970667358221220e3d15ec3ffed537c670e75c9721764bd960f44aabc9aa5fe26ca19354d459e9764736f6c634300080b0033",
					"opcodes": "PUSH1 0x80 PUSH1 0x40 MSTORE CALLVALUE DUP1 ISZERO PUSH3 0x11 JUMPI PUSH1 0x0 DUP1 REVERT JUMPDEST POP PUSH1 0x40 MLOAD PUSH3 0x2AA8 CODESIZE SUB DUP1 PUSH3 0x2AA8 DUP4 CODECOPY DUP2 DUP2 ADD PUSH1 0x40 MSTORE DUP2 ADD SWAP1 PUSH3 0x37 SWAP2 SWAP1 PUSH3 0x426 JUMP JUMPDEST CALLER PUSH1 0x1 PUSH1 0x0 DUP1 DUP1 PUSH1 0x0 SHL DUP2 MSTORE PUSH1 0x20 ADD SWAP1 DUP2 MSTORE PUSH1 0x20 ADD PUSH1 0x0 KECCAK256 PUSH1 0x0 ADD PUSH1 0x0 DUP4 PUSH20 0xFFFFFFFFFFFFFFFFFFFFFFFFFFFFFFFFFFFFFFFF AND PUSH20 0xFFFFFFFFFFFFFFFFFFFFFFFFFFFFFFFFFFFFFFFF AND DUP2 MSTORE PUSH1 0x20 ADD SWAP1 DUP2 MSTORE PUSH1 0x20 ADD PUSH1 0x0 KECCAK256 PUSH1 0x0 PUSH2 0x100 EXP DUP2 SLOAD DUP2 PUSH1 0xFF MUL NOT AND SWAP1 DUP4 ISZERO ISZERO MUL OR SWAP1 SSTORE POP POP PUSH3 0xDC PUSH32 0xA17004E45F702315376249FBB5266F40FC0C452C5452B3EA6809DB18E2AD3D7 PUSH1 0x0 DUP1 SHL PUSH3 0x158 PUSH1 0x20 SHL PUSH1 0x20 SHR JUMP JUMPDEST PUSH3 0x10E PUSH32 0xA17004E45F702315376249FBB5266F40FC0C452C5452B3EA6809DB18E2AD3D7 DUP4 PUSH3 0x1BB PUSH1 0x20 SHL PUSH1 0x20 SHR JUMP JUMPDEST POP DUP1 PUSH1 0x1 PUSH1 0x0 PUSH2 0x100 EXP DUP2 SLOAD DUP2 PUSH20 0xFFFFFFFFFFFFFFFFFFFFFFFFFFFFFFFFFFFFFFFF MUL NOT AND SWAP1 DUP4 PUSH20 0xFFFFFFFFFFFFFFFFFFFFFFFFFFFFFFFFFFFFFFFF AND MUL OR SWAP1 SSTORE POP POP POP PUSH3 0x4F0 JUMP JUMPDEST PUSH1 0x0 PUSH3 0x16B DUP4 PUSH3 0x2D4 PUSH1 0x20 SHL PUSH1 0x20 SHR JUMP JUMPDEST SWAP1 POP DUP2 PUSH1 0x0 DUP1 DUP6 DUP2 MSTORE PUSH1 0x20 ADD SWAP1 DUP2 MSTORE PUSH1 0x20 ADD PUSH1 0x0 KECCAK256 PUSH1 0x1 ADD DUP2 SWAP1 SSTORE POP DUP2 DUP2 DUP5 PUSH32 0xBD79B86FFE0AB8E8776151514217CD7CACD52C909F66475C3AF44E129F0B00FF PUSH1 0x40 MLOAD PUSH1 0x40 MLOAD DUP1 SWAP2 SUB SWAP1 LOG4 POP POP POP JUMP JUMPDEST PUSH1 0x0 PUSH3 0x1CE DUP4 PUSH3 0x2D4 PUSH1 0x20 SHL PUSH1 0x20 SHR JUMP JUMPDEST PUSH3 0x1DF DUP2 PUSH3 0x2F3 PUSH1 0x20 SHL PUSH1 0x20 SHR JUMP JUMPDEST POP PUSH3 0x1F2 DUP5 DUP5 PUSH3 0x352 PUSH1 0x20 SHL PUSH1 0x20 SHR JUMP JUMPDEST ISZERO PUSH3 0x202 JUMPI PUSH1 0x0 SWAP2 POP PUSH3 0x2CD JUMP JUMPDEST PUSH1 0x1 PUSH1 0x0 DUP1 DUP7 DUP2 MSTORE PUSH1 0x20 ADD SWAP1 DUP2 MSTORE PUSH1 0x20 ADD PUSH1 0x0 KECCAK256 PUSH1 0x0 ADD PUSH1 0x0 DUP6 PUSH20 0xFFFFFFFFFFFFFFFFFFFFFFFFFFFFFFFFFFFFFFFF AND PUSH20 0xFFFFFFFFFFFFFFFFFFFFFFFFFFFFFFFFFFFFFFFF AND DUP2 MSTORE PUSH1 0x20 ADD SWAP1 DUP2 MSTORE PUSH1 0x20 ADD PUSH1 0x0 KECCAK256 PUSH1 0x0 PUSH2 0x100 EXP DUP2 SLOAD DUP2 PUSH1 0xFF MUL NOT AND SWAP1 DUP4 ISZERO ISZERO MUL OR SWAP1 SSTORE POP CALLER PUSH20 0xFFFFFFFFFFFFFFFFFFFFFFFFFFFFFFFFFFFFFFFF AND DUP4 PUSH20 0xFFFFFFFFFFFFFFFFFFFFFFFFFFFFFFFFFFFFFFFF AND DUP6 PUSH32 0x2F8788117E7EFF1D82E926EC794901D17C78024A50270940304540A733656F0D PUSH1 0x40 MLOAD PUSH1 0x40 MLOAD DUP1 SWAP2 SUB SWAP1 LOG4 PUSH1 0x1 SWAP2 POP JUMPDEST POP SWAP3 SWAP2 POP POP JUMP JUMPDEST PUSH1 0x0 DUP1 PUSH1 0x0 DUP4 DUP2 MSTORE PUSH1 0x20 ADD SWAP1 DUP2 MSTORE PUSH1 0x20 ADD PUSH1 0x0 KECCAK256 PUSH1 0x1 ADD SLOAD SWAP1 POP SWAP2 SWAP1 POP JUMP JUMPDEST PUSH1 0x0 PUSH3 0x307 DUP3 CALLER PUSH3 0x352 PUSH1 0x20 SHL PUSH1 0x20 SHR JUMP JUMPDEST PUSH3 0x349 JUMPI PUSH1 0x40 MLOAD PUSH32 0x8C379A000000000000000000000000000000000000000000000000000000000 DUP2 MSTORE PUSH1 0x4 ADD PUSH3 0x340 SWAP1 PUSH3 0x4CE JUMP JUMPDEST PUSH1 0x40 MLOAD DUP1 SWAP2 SUB SWAP1 REVERT JUMPDEST PUSH1 0x1 SWAP1 POP SWAP2 SWAP1 POP JUMP JUMPDEST PUSH1 0x0 DUP1 PUSH1 0x0 DUP5 DUP2 MSTORE PUSH1 0x20 ADD SWAP1 DUP2 MSTORE PUSH1 0x20 ADD PUSH1 0x0 KECCAK256 PUSH1 0x0 ADD PUSH1 0x0 DUP4 PUSH20 0xFFFFFFFFFFFFFFFFFFFFFFFFFFFFFFFFFFFFFFFF AND PUSH20 0xFFFFFFFFFFFFFFFFFFFFFFFFFFFFFFFFFFFFFFFF AND DUP2 MSTORE PUSH1 0x20 ADD SWAP1 DUP2 MSTORE PUSH1 0x20 ADD PUSH1 0x0 KECCAK256 PUSH1 0x0 SWAP1 SLOAD SWAP1 PUSH2 0x100 EXP SWAP1 DIV PUSH1 0xFF AND SWAP1 POP SWAP3 SWAP2 POP POP JUMP JUMPDEST PUSH1 0x0 DUP1 REVERT JUMPDEST PUSH1 0x0 PUSH20 0xFFFFFFFFFFFFFFFFFFFFFFFFFFFFFFFFFFFFFFFF DUP3 AND SWAP1 POP SWAP2 SWAP1 POP JUMP JUMPDEST PUSH1 0x0 PUSH3 0x3EE DUP3 PUSH3 0x3C1 JUMP JUMPDEST SWAP1 POP SWAP2 SWAP1 POP JUMP JUMPDEST PUSH3 0x400 DUP2 PUSH3 0x3E1 JUMP JUMPDEST DUP2 EQ PUSH3 0x40C JUMPI PUSH1 0x0 DUP1 REVERT JUMPDEST POP JUMP JUMPDEST PUSH1 0x0 DUP2 MLOAD SWAP1 POP PUSH3 0x420 DUP2 PUSH3 0x3F5 JUMP JUMPDEST SWAP3 SWAP2 POP POP JUMP JUMPDEST PUSH1 0x0 DUP1 PUSH1 0x40 DUP4 DUP6 SUB SLT ISZERO PUSH3 0x440 JUMPI PUSH3 0x43F PUSH3 0x3BC JUMP JUMPDEST JUMPDEST PUSH1 0x0 PUSH3 0x450 DUP6 DUP3 DUP7 ADD PUSH3 0x40F JUMP JUMPDEST SWAP3 POP POP PUSH1 0x20 PUSH3 0x463 DUP6 DUP3 DUP7 ADD PUSH3 0x40F JUMP JUMPDEST SWAP2 POP POP SWAP3 POP SWAP3 SWAP1 POP JUMP JUMPDEST PUSH1 0x0 DUP3 DUP3 MSTORE PUSH1 0x20 DUP3 ADD SWAP1 POP SWAP3 SWAP2 POP POP JUMP JUMPDEST PUSH32 0x556E417574686F72697A65644163636F756E7400000000000000000000000000 PUSH1 0x0 DUP3 ADD MSTORE POP JUMP JUMPDEST PUSH1 0x0 PUSH3 0x4B6 PUSH1 0x13 DUP4 PUSH3 0x46D JUMP JUMPDEST SWAP2 POP PUSH3 0x4C3 DUP3 PUSH3 0x47E JUMP JUMPDEST PUSH1 0x20 DUP3 ADD SWAP1 POP SWAP2 SWAP1 POP JUMP JUMPDEST PUSH1 0x0 PUSH1 0x20 DUP3 ADD SWAP1 POP DUP2 DUP2 SUB PUSH1 0x0 DUP4 ADD MSTORE PUSH3 0x4E9 DUP2 PUSH3 0x4A7 JUMP JUMPDEST SWAP1 POP SWAP2 SWAP1 POP JUMP JUMPDEST PUSH2 0x25A8 DUP1 PUSH3 0x500 PUSH1 0x0 CODECOPY PUSH1 0x0 RETURN INVALID PUSH1 0x80 PUSH1 0x40 MSTORE CALLVALUE DUP1 ISZERO PUSH3 0x11 JUMPI PUSH1 0x0 DUP1 REVERT JUMPDEST POP PUSH1 0x4 CALLDATASIZE LT PUSH3 0xAC JUMPI PUSH1 0x0 CALLDATALOAD PUSH1 0xE0 SHR DUP1 PUSH4 0x91D14854 GT PUSH3 0x6F JUMPI DUP1 PUSH4 0x91D14854 EQ PUSH3 0x195 JUMPI DUP1 PUSH4 0x9CDEBA95 EQ PUSH3 0x1CB JUMPI DUP1 PUSH4 0xC5B95190 EQ PUSH3 0x1ED JUMPI DUP1 PUSH4 0xD547741F EQ PUSH3 0x223 JUMPI DUP1 PUSH4 0xFFCEE0A1 EQ PUSH3 0x259 JUMPI PUSH3 0xAC JUMP JUMPDEST DUP1 PUSH4 0xA0A4CB9 EQ PUSH3 0xB1 JUMPI DUP1 PUSH4 0x248A9CA3 EQ PUSH3 0xD3 JUMPI DUP1 PUSH4 0x2F2FF15D EQ PUSH3 0x109 JUMPI DUP1 PUSH4 0x36568ABE EQ PUSH3 0x13F JUMPI DUP1 PUSH4 0x5D7746C0 EQ PUSH3 0x15F JUMPI JUMPDEST PUSH1 0x0 DUP1 REVERT JUMPDEST PUSH3 0xBB PUSH3 0x28F JUMP JUMPDEST PUSH1 0x40 MLOAD PUSH3 0xCA SWAP2 SWAP1 PUSH3 0xCF0 JUMP JUMPDEST PUSH1 0x40 MLOAD DUP1 SWAP2 SUB SWAP1 RETURN JUMPDEST PUSH3 0xF1 PUSH1 0x4 DUP1 CALLDATASIZE SUB DUP2 ADD SWAP1 PUSH3 0xEB SWAP2 SWAP1 PUSH3 0xD52 JUMP JUMPDEST PUSH3 0x2B3 JUMP JUMPDEST PUSH1 0x40 MLOAD PUSH3 0x100 SWAP2 SWAP1 PUSH3 0xCF0 JUMP JUMPDEST PUSH1 0x40 MLOAD DUP1 SWAP2 SUB SWAP1 RETURN JUMPDEST PUSH3 0x127 PUSH1 0x4 DUP1 CALLDATASIZE SUB DUP2 ADD SWAP1 PUSH3 0x121 SWAP2 SWAP1 PUSH3 0xDE9 JUMP JUMPDEST PUSH3 0x2D2 JUMP JUMPDEST PUSH1 0x40 MLOAD PUSH3 0x136 SWAP2 SWAP1 PUSH3 0xE4D JUMP JUMPDEST PUSH1 0x40 MLOAD DUP1 SWAP2 SUB SWAP1 RETURN JUMPDEST PUSH3 0x15D PUSH1 0x4 DUP1 CALLDATASIZE SUB DUP2 ADD SWAP1 PUSH3 0x157 SWAP2 SWAP1 PUSH3 0xDE9 JUMP JUMPDEST PUSH3 0x3D9 JUMP JUMPDEST STOP JUMPDEST PUSH3 0x17D PUSH1 0x4 DUP1 CALLDATASIZE SUB DUP2 ADD SWAP1 PUSH3 0x177 SWAP2 SWAP1 PUSH3 0xFCC JUMP JUMPDEST PUSH3 0x45B JUMP JUMPDEST PUSH1 0x40 MLOAD PUSH3 0x18C SWAP2 SWAP1 PUSH3 0xE4D JUMP JUMPDEST PUSH1 0x40 MLOAD DUP1 SWAP2 SUB SWAP1 RETURN JUMPDEST PUSH3 0x1B3 PUSH1 0x4 DUP1 CALLDATASIZE SUB DUP2 ADD SWAP1 PUSH3 0x1AD SWAP2 SWAP1 PUSH3 0xDE9 JUMP JUMPDEST PUSH3 0x693 JUMP JUMPDEST PUSH1 0x40 MLOAD PUSH3 0x1C2 SWAP2 SWAP1 PUSH3 0xE4D JUMP JUMPDEST PUSH1 0x40 MLOAD DUP1 SWAP2 SUB SWAP1 RETURN JUMPDEST PUSH3 0x1D5 PUSH3 0x6FD JUMP JUMPDEST PUSH1 0x40 MLOAD PUSH3 0x1E4 SWAP2 SWAP1 PUSH3 0xCF0 JUMP JUMPDEST PUSH1 0x40 MLOAD DUP1 SWAP2 SUB SWAP1 RETURN JUMPDEST PUSH3 0x20B PUSH1 0x4 DUP1 CALLDATASIZE SUB DUP2 ADD SWAP1 PUSH3 0x205 SWAP2 SWAP1 PUSH3 0xD52 JUMP JUMPDEST PUSH3 0x704 JUMP JUMPDEST PUSH1 0x40 MLOAD PUSH3 0x21A SWAP2 SWAP1 PUSH3 0xE4D JUMP JUMPDEST PUSH1 0x40 MLOAD DUP1 SWAP2 SUB SWAP1 RETURN JUMPDEST PUSH3 0x241 PUSH1 0x4 DUP1 CALLDATASIZE SUB DUP2 ADD SWAP1 PUSH3 0x23B SWAP2 SWAP1 PUSH3 0xDE9 JUMP JUMPDEST PUSH3 0x75D JUMP JUMPDEST PUSH1 0x40 MLOAD PUSH3 0x250 SWAP2 SWAP1 PUSH3 0xE4D JUMP JUMPDEST PUSH1 0x40 MLOAD DUP1 SWAP2 SUB SWAP1 RETURN JUMPDEST PUSH3 0x277 PUSH1 0x4 DUP1 CALLDATASIZE SUB DUP2 ADD SWAP1 PUSH3 0x271 SWAP2 SWAP1 PUSH3 0x1066 JUMP JUMPDEST PUSH3 0x863 JUMP JUMPDEST PUSH1 0x40 MLOAD PUSH3 0x286 SWAP2 SWAP1 PUSH3 0xE4D JUMP JUMPDEST PUSH1 0x40 MLOAD DUP1 SWAP2 SUB SWAP1 RETURN JUMPDEST PUSH32 0xA17004E45F702315376249FBB5266F40FC0C452C5452B3EA6809DB18E2AD3D7 DUP2 JUMP JUMPDEST PUSH1 0x0 DUP1 PUSH1 0x0 DUP4 DUP2 MSTORE PUSH1 0x20 ADD SWAP1 DUP2 MSTORE PUSH1 0x20 ADD PUSH1 0x0 KECCAK256 PUSH1 0x1 ADD SLOAD SWAP1 POP SWAP2 SWAP1 POP JUMP JUMPDEST PUSH1 0x0 PUSH3 0x2DF DUP4 PUSH3 0x2B3 JUMP JUMPDEST PUSH3 0x2EA DUP2 PUSH3 0x704 JUMP JUMPDEST POP PUSH3 0x2F7 DUP5 DUP5 PUSH3 0x693 JUMP JUMPDEST ISZERO PUSH3 0x307 JUMPI PUSH1 0x0 SWAP2 POP PUSH3 0x3D2 JUMP JUMPDEST PUSH1 0x1 PUSH1 0x0 DUP1 DUP7 DUP2 MSTORE PUSH1 0x20 ADD SWAP1 DUP2 MSTORE PUSH1 0x20 ADD PUSH1 0x0 KECCAK256 PUSH1 0x0 ADD PUSH1 0x0 DUP6 PUSH20 0xFFFFFFFFFFFFFFFFFFFFFFFFFFFFFFFFFFFFFFFF AND PUSH20 0xFFFFFFFFFFFFFFFFFFFFFFFFFFFFFFFFFFFFFFFF AND DUP2 MSTORE PUSH1 0x20 ADD SWAP1 DUP2 MSTORE PUSH1 0x20 ADD PUSH1 0x0 KECCAK256 PUSH1 0x0 PUSH2 0x100 EXP DUP2 SLOAD DUP2 PUSH1 0xFF MUL NOT AND SWAP1 DUP4 ISZERO ISZERO MUL OR SWAP1 SSTORE POP CALLER PUSH20 0xFFFFFFFFFFFFFFFFFFFFFFFFFFFFFFFFFFFFFFFF AND DUP4 PUSH20 0xFFFFFFFFFFFFFFFFFFFFFFFFFFFFFFFFFFFFFFFF AND DUP6 PUSH32 0x2F8788117E7EFF1D82E926EC794901D17C78024A50270940304540A733656F0D PUSH1 0x40 MLOAD PUSH1 0x40 MLOAD DUP1 SWAP2 SUB SWAP1 LOG4 PUSH1 0x1 SWAP2 POP JUMPDEST POP SWAP3 SWAP2 POP POP JUMP JUMPDEST CALLER PUSH20 0xFFFFFFFFFFFFFFFFFFFFFFFFFFFFFFFFFFFFFFFF AND DUP2 PUSH20 0xFFFFFFFFFFFFFFFFFFFFFFFFFFFFFFFFFFFFFFFF AND EQ PUSH3 0x44A JUMPI PUSH1 0x40 MLOAD PUSH32 0x8C379A000000000000000000000000000000000000000000000000000000000 DUP2 MSTORE PUSH1 0x4 ADD PUSH3 0x441 SWAP1 PUSH3 0x1118 JUMP JUMPDEST PUSH1 0x40 MLOAD DUP1 SWAP2 SUB SWAP1 REVERT JUMPDEST PUSH3 0x456 DUP3 DUP3 PUSH3 0x75D JUMP JUMPDEST POP POP POP JUMP JUMPDEST PUSH1 0x0 PUSH32 0xA17004E45F702315376249FBB5266F40FC0C452C5452B3EA6809DB18E2AD3D7 PUSH3 0x489 DUP2 PUSH3 0x704 JUMP JUMPDEST POP PUSH1 0x0 PUSH20 0xFFFFFFFFFFFFFFFFFFFFFFFFFFFFFFFFFFFFFFFF AND PUSH1 0x2 DUP7 PUSH1 0x40 MLOAD PUSH3 0x4B4 SWAP2 SWAP1 PUSH3 0x11BD JUMP JUMPDEST SWAP1 DUP2 MSTORE PUSH1 0x20 ADD PUSH1 0x40 MLOAD DUP1 SWAP2 SUB SWAP1 KECCAK256 PUSH1 0x1 ADD PUSH1 0x0 SWAP1 SLOAD SWAP1 PUSH2 0x100 EXP SWAP1 DIV PUSH20 0xFFFFFFFFFFFFFFFFFFFFFFFFFFFFFFFFFFFFFFFF AND PUSH20 0xFFFFFFFFFFFFFFFFFFFFFFFFFFFFFFFFFFFFFFFF AND EQ PUSH3 0x50C JUMPI PUSH1 0x0 SWAP2 POP PUSH3 0x68B JUMP JUMPDEST PUSH1 0x0 DUP4 DUP6 PUSH1 0x1 PUSH1 0x0 SWAP1 SLOAD SWAP1 PUSH2 0x100 EXP SWAP1 DIV PUSH20 0xFFFFFFFFFFFFFFFFFFFFFFFFFFFFFFFFFFFFFFFF AND PUSH1 0x40 MLOAD PUSH3 0x541 SWAP1 PUSH3 0xC17 JUMP JUMPDEST PUSH3 0x54F SWAP4 SWAP3 SWAP2 SWAP1 PUSH3 0x1228 JUMP JUMPDEST PUSH1 0x40 MLOAD DUP1 SWAP2 SUB SWAP1 PUSH1 0x0 CREATE DUP1 ISZERO DUP1 ISZERO PUSH3 0x56C JUMPI RETURNDATASIZE PUSH1 0x0 DUP1 RETURNDATACOPY RETURNDATASIZE PUSH1 0x0 REVERT JUMPDEST POP SWAP1 POP PUSH1 0x40 MLOAD DUP1 PUSH1 0x60 ADD PUSH1 0x40 MSTORE DUP1 DUP8 DUP2 MSTORE PUSH1 0x20 ADD DUP6 PUSH20 0xFFFFFFFFFFFFFFFFFFFFFFFFFFFFFFFFFFFFFFFF AND DUP2 MSTORE PUSH1 0x20 ADD DUP7 DUP2 MSTORE POP PUSH1 0x2 DUP8 PUSH1 0x40 MLOAD PUSH3 0x5B2 SWAP2 SWAP1 PUSH3 0x11BD JUMP JUMPDEST SWAP1 DUP2 MSTORE PUSH1 0x20 ADD PUSH1 0x40 MLOAD DUP1 SWAP2 SUB SWAP1 KECCAK256 PUSH1 0x0 DUP3 ADD MLOAD DUP2 PUSH1 0x0 ADD SWAP1 DUP1 MLOAD SWAP1 PUSH1 0x20 ADD SWAP1 PUSH3 0x5DE SWAP3 SWAP2 SWAP1 PUSH3 0xC25 JUMP JUMPDEST POP PUSH1 0x20 DUP3 ADD MLOAD DUP2 PUSH1 0x1 ADD PUSH1 0x0 PUSH2 0x100 EXP DUP2 SLOAD DUP2 PUSH20 0xFFFFFFFFFFFFFFFFFFFFFFFFFFFFFFFFFFFFFFFF MUL NOT AND SWAP1 DUP4 PUSH20 0xFFFFFFFFFFFFFFFFFFFFFFFFFFFFFFFFFFFFFFFF AND MUL OR SWAP1 SSTORE POP PUSH1 0x40 DUP3 ADD MLOAD DUP2 PUSH1 0x2 ADD SWAP1 DUP1 MLOAD SWAP1 PUSH1 0x20 ADD SWAP1 PUSH3 0x644 SWAP3 SWAP2 SWAP1 PUSH3 0xC25 JUMP JUMPDEST POP SWAP1 POP POP PUSH32 0x3A3FB9A0B1B5AA6EA94C1CF0EAB4FE13F7E24AA92BD1ACAF3DBDB5CF4C9498BF DUP7 DUP7 DUP4 PUSH1 0x40 MLOAD PUSH3 0x67D SWAP4 SWAP3 SWAP2 SWAP1 PUSH3 0x126C JUMP JUMPDEST PUSH1 0x40 MLOAD DUP1 SWAP2 SUB SWAP1 LOG1 PUSH1 0x1 SWAP3 POP POP JUMPDEST POP SWAP4 SWAP3 POP POP POP JUMP JUMPDEST PUSH1 0x0 DUP1 PUSH1 0x0 DUP5 DUP2 MSTORE PUSH1 0x20 ADD SWAP1 DUP2 MSTORE PUSH1 0x20 ADD PUSH1 0x0 KECCAK256 PUSH1 0x0 ADD PUSH1 0x0 DUP4 PUSH20 0xFFFFFFFFFFFFFFFFFFFFFFFFFFFFFFFFFFFFFFFF AND PUSH20 0xFFFFFFFFFFFFFFFFFFFFFFFFFFFFFFFFFFFFFFFF AND DUP2 MSTORE PUSH1 0x20 ADD SWAP1 DUP2 MSTORE PUSH1 0x20 ADD PUSH1 0x0 KECCAK256 PUSH1 0x0 SWAP1 SLOAD SWAP1 PUSH2 0x100 EXP SWAP1 DIV PUSH1 0xFF AND SWAP1 POP SWAP3 SWAP2 POP POP JUMP JUMPDEST PUSH1 0x0 DUP1 SHL DUP2 JUMP JUMPDEST PUSH1 0x0 PUSH3 0x712 DUP3 CALLER PUSH3 0x693 JUMP JUMPDEST PUSH3 0x754 JUMPI PUSH1 0x40 MLOAD PUSH32 0x8C379A000000000000000000000000000000000000000000000000000000000 DUP2 MSTORE PUSH1 0x4 ADD PUSH3 0x74B SWAP1 PUSH3 0x1307 JUMP JUMPDEST PUSH1 0x40 MLOAD DUP1 SWAP2 SUB SWAP1 REVERT JUMPDEST PUSH1 0x1 SWAP1 POP SWAP2 SWAP1 POP JUMP JUMPDEST PUSH1 0x0 PUSH3 0x76A DUP4 PUSH3 0x2B3 JUMP JUMPDEST PUSH3 0x775 DUP2 PUSH3 0x704 JUMP JUMPDEST POP PUSH3 0x782 DUP5 DUP5 PUSH3 0x693 JUMP JUMPDEST PUSH3 0x791 JUMPI PUSH1 0x0 SWAP2 POP PUSH3 0x85C JUMP JUMPDEST PUSH1 0x0 DUP1 PUSH1 0x0 DUP7 DUP2 MSTORE PUSH1 0x20 ADD SWAP1 DUP2 MSTORE PUSH1 0x20 ADD PUSH1 0x0 KECCAK256 PUSH1 0x0 ADD PUSH1 0x0 DUP6 PUSH20 0xFFFFFFFFFFFFFFFFFFFFFFFFFFFFFFFFFFFFFFFF AND PUSH20 0xFFFFFFFFFFFFFFFFFFFFFFFFFFFFFFFFFFFFFFFF AND DUP2 MSTORE PUSH1 0x20 ADD SWAP1 DUP2 MSTORE PUSH1 0x20 ADD PUSH1 0x0 KECCAK256 PUSH1 0x0 PUSH2 0x100 EXP DUP2 SLOAD DUP2 PUSH1 0xFF MUL NOT AND SWAP1 DUP4 ISZERO ISZERO MUL OR SWAP1 SSTORE POP CALLER PUSH20 0xFFFFFFFFFFFFFFFFFFFFFFFFFFFFFFFFFFFFFFFF AND DUP4 PUSH20 0xFFFFFFFFFFFFFFFFFFFFFFFFFFFFFFFFFFFFFFFF AND DUP6 PUSH32 0xF6391F5C32D9C69D2A47EA670B442974B53935D1EDC7FD64EB21E047A839171B PUSH1 0x40 MLOAD PUSH1 0x40 MLOAD DUP1 SWAP2 SUB SWAP1 LOG4 PUSH1 0x1 SWAP2 POP JUMPDEST POP SWAP3 SWAP2 POP POP JUMP JUMPDEST PUSH1 0x0 PUSH32 0xA17004E45F702315376249FBB5266F40FC0C452C5452B3EA6809DB18E2AD3D7 PUSH3 0x891 DUP2 PUSH3 0x704 JUMP JUMPDEST POP PUSH1 0x0 PUSH20 0xFFFFFFFFFFFFFFFFFFFFFFFFFFFFFFFFFFFFFFFF AND PUSH1 0x2 DUP5 PUSH1 0x40 MLOAD PUSH3 0x8BC SWAP2 SWAP1 PUSH3 0x11BD JUMP JUMPDEST SWAP1 DUP2 MSTORE PUSH1 0x20 ADD PUSH1 0x40 MLOAD DUP1 SWAP2 SUB SWAP1 KECCAK256 PUSH1 0x1 ADD PUSH1 0x0 SWAP1 SLOAD SWAP1 PUSH2 0x100 EXP SWAP1 DIV PUSH20 0xFFFFFFFFFFFFFFFFFFFFFFFFFFFFFFFFFFFFFFFF AND PUSH20 0xFFFFFFFFFFFFFFFFFFFFFFFFFFFFFFFFFFFFFFFF AND EQ ISZERO PUSH3 0x915 JUMPI PUSH1 0x0 SWAP2 POP PUSH3 0xC11 JUMP JUMPDEST PUSH1 0x0 PUSH1 0x2 DUP5 PUSH1 0x40 MLOAD PUSH3 0x929 SWAP2 SWAP1 PUSH3 0x11BD JUMP JUMPDEST SWAP1 DUP2 MSTORE PUSH1 0x20 ADD PUSH1 0x40 MLOAD DUP1 SWAP2 SUB SWAP1 KECCAK256 PUSH1 0x40 MLOAD DUP1 PUSH1 0x60 ADD PUSH1 0x40 MSTORE SWAP1 DUP2 PUSH1 0x0 DUP3 ADD DUP1 SLOAD PUSH3 0x954 SWAP1 PUSH3 0x1358 JUMP JUMPDEST DUP1 PUSH1 0x1F ADD PUSH1 0x20 DUP1 SWAP2 DIV MUL PUSH1 0x20 ADD PUSH1 0x40 MLOAD SWAP1 DUP2 ADD PUSH1 0x40 MSTORE DUP1 SWAP3 SWAP2 SWAP1 DUP2 DUP2 MSTORE PUSH1 0x20 ADD DUP3 DUP1 SLOAD PUSH3 0x982 SWAP1 PUSH3 0x1358 JUMP JUMPDEST DUP1 ISZERO PUSH3 0x9D3 JUMPI DUP1 PUSH1 0x1F LT PUSH3 0x9A7 JUMPI PUSH2 0x100 DUP1 DUP4 SLOAD DIV MUL DUP4 MSTORE SWAP2 PUSH1 0x20 ADD SWAP2 PUSH3 0x9D3 JUMP JUMPDEST DUP3 ADD SWAP2 SWAP1 PUSH1 0x0 MSTORE PUSH1 0x20 PUSH1 0x0 KECCAK256 SWAP1 JUMPDEST DUP2 SLOAD DUP2 MSTORE SWAP1 PUSH1 0x1 ADD SWAP1 PUSH1 0x20 ADD DUP1 DUP4 GT PUSH3 0x9B5 JUMPI DUP3 SWAP1 SUB PUSH1 0x1F AND DUP3 ADD SWAP2 JUMPDEST POP POP POP POP POP DUP2 MSTORE PUSH1 0x20 ADD PUSH1 0x1 DUP3 ADD PUSH1 0x0 SWAP1 SLOAD SWAP1 PUSH2 0x100 EXP SWAP1 DIV PUSH20 0xFFFFFFFFFFFFFFFFFFFFFFFFFFFFFFFFFFFFFFFF AND PUSH20 0xFFFFFFFFFFFFFFFFFFFFFFFFFFFFFFFFFFFFFFFF AND PUSH20 0xFFFFFFFFFFFFFFFFFFFFFFFFFFFFFFFFFFFFFFFF AND DUP2 MSTORE PUSH1 0x20 ADD PUSH1 0x2 DUP3 ADD DUP1 SLOAD PUSH3 0xA44 SWAP1 PUSH3 0x1358 JUMP JUMPDEST DUP1 PUSH1 0x1F ADD PUSH1 0x20 DUP1 SWAP2 DIV MUL PUSH1 0x20 ADD PUSH1 0x40 MLOAD SWAP1 DUP2 ADD PUSH1 0x40 MSTORE DUP1 SWAP3 SWAP2 SWAP1 DUP2 DUP2 MSTORE PUSH1 0x20 ADD DUP3 DUP1 SLOAD PUSH3 0xA72 SWAP1 PUSH3 0x1358 JUMP JUMPDEST DUP1 ISZERO PUSH3 0xAC3 JUMPI DUP1 PUSH1 0x1F LT PUSH3 0xA97 JUMPI PUSH2 0x100 DUP1 DUP4 SLOAD DIV MUL DUP4 MSTORE SWAP2 PUSH1 0x20 ADD SWAP2 PUSH3 0xAC3 JUMP JUMPDEST DUP3 ADD SWAP2 SWAP1 PUSH1 0x0 MSTORE PUSH1 0x20 PUSH1 0x0 KECCAK256 SWAP1 JUMPDEST DUP2 SLOAD DUP2 MSTORE SWAP1 PUSH1 0x1 ADD SWAP1 PUSH1 0x20 ADD DUP1 DUP4 GT PUSH3 0xAA5 JUMPI DUP3 SWAP1 SUB PUSH1 0x1F AND DUP3 ADD SWAP2 JUMPDEST POP POP POP POP POP DUP2 MSTORE POP POP SWAP1 POP PUSH1 0x40 MLOAD DUP1 PUSH1 0x60 ADD PUSH1 0x40 MSTORE DUP1 PUSH1 0x40 MLOAD DUP1 PUSH1 0x20 ADD PUSH1 0x40 MSTORE DUP1 PUSH1 0x0 DUP2 MSTORE POP DUP2 MSTORE PUSH1 0x20 ADD PUSH1 0x0 PUSH20 0xFFFFFFFFFFFFFFFFFFFFFFFFFFFFFFFFFFFFFFFF AND DUP2 MSTORE PUSH1 0x20 ADD PUSH1 0x40 MLOAD DUP1 PUSH1 0x20 ADD PUSH1 0x40 MSTORE DUP1 PUSH1 0x0 DUP2 MSTORE POP DUP2 MSTORE POP PUSH1 0x2 DUP6 PUSH1 0x40 MLOAD PUSH3 0xB30 SWAP2 SWAP1 PUSH3 0x11BD JUMP JUMPDEST SWAP1 DUP2 MSTORE PUSH1 0x20 ADD PUSH1 0x40 MLOAD DUP1 SWAP2 SUB SWAP1 KECCAK256 PUSH1 0x0 DUP3 ADD MLOAD DUP2 PUSH1 0x0 ADD SWAP1 DUP1 MLOAD SWAP1 PUSH1 0x20 ADD SWAP1 PUSH3 0xB5C SWAP3 SWAP2 SWAP1 PUSH3 0xC25 JUMP JUMPDEST POP PUSH1 0x20 DUP3 ADD MLOAD DUP2 PUSH1 0x1 ADD PUSH1 0x0 PUSH2 0x100 EXP DUP2 SLOAD DUP2 PUSH20 0xFFFFFFFFFFFFFFFFFFFFFFFFFFFFFFFFFFFFFFFF MUL NOT AND SWAP1 DUP4 PUSH20 0xFFFFFFFFFFFFFFFFFFFFFFFFFFFFFFFFFFFFFFFF AND MUL OR SWAP1 SSTORE POP PUSH1 0x40 DUP3 ADD MLOAD DUP2 PUSH1 0x2 ADD SWAP1 DUP1 MLOAD SWAP1 PUSH1 0x20 ADD SWAP1 PUSH3 0xBC2 SWAP3 SWAP2 SWAP1 PUSH3 0xC25 JUMP JUMPDEST POP SWAP1 POP POP PUSH32 0x8FCF099BC2F3B0523F3626DA96BA195F4B0D05003BF73DEC5FC01E291B578FAC DUP5 DUP3 PUSH1 0x40 ADD MLOAD DUP4 PUSH1 0x20 ADD MLOAD PUSH1 0x40 MLOAD PUSH3 0xC03 SWAP4 SWAP3 SWAP2 SWAP1 PUSH3 0x126C JUMP JUMPDEST PUSH1 0x40 MLOAD DUP1 SWAP2 SUB SWAP1 LOG1 PUSH1 0x1 SWAP3 POP POP JUMPDEST POP SWAP2 SWAP1 POP JUMP JUMPDEST PUSH2 0x11E4 DUP1 PUSH3 0x138F DUP4 CODECOPY ADD SWAP1 JUMP JUMPDEST DUP3 DUP1 SLOAD PUSH3 0xC33 SWAP1 PUSH3 0x1358 JUMP JUMPDEST SWAP1 PUSH1 0x0 MSTORE PUSH1 0x20 PUSH1 0x0 KECCAK256 SWAP1 PUSH1 0x1F ADD PUSH1 0x20 SWAP1 DIV DUP2 ADD SWAP3 DUP3 PUSH3 0xC57 JUMPI PUSH1 0x0 DUP6 SSTORE PUSH3 0xCA3 JUMP JUMPDEST DUP3 PUSH1 0x1F LT PUSH3 0xC72 JUMPI DUP1 MLOAD PUSH1 0xFF NOT AND DUP4 DUP1 ADD OR DUP6 SSTORE PUSH3 0xCA3 JUMP JUMPDEST DUP3 DUP1 ADD PUSH1 0x1 ADD DUP6 SSTORE DUP3 ISZERO PUSH3 0xCA3 JUMPI SWAP2 DUP3 ADD JUMPDEST DUP3 DUP2 GT ISZERO PUSH3 0xCA2 JUMPI DUP3 MLOAD DUP3 SSTORE SWAP2 PUSH1 0x20 ADD SWAP2 SWAP1 PUSH1 0x1 ADD SWAP1 PUSH3 0xC85 JUMP JUMPDEST JUMPDEST POP SWAP1 POP PUSH3 0xCB2 SWAP2 SWAP1 PUSH3 0xCB6 JUMP JUMPDEST POP SWAP1 JUMP JUMPDEST JUMPDEST DUP1 DUP3 GT ISZERO PUSH3 0xCD1 JUMPI PUSH1 0x0 DUP2 PUSH1 0x0 SWAP1 SSTORE POP PUSH1 0x1 ADD PUSH3 0xCB7 JUMP JUMPDEST POP SWAP1 JUMP JUMPDEST PUSH1 0x0 DUP2 SWAP1 POP SWAP2 SWAP1 POP JUMP JUMPDEST PUSH3 0xCEA DUP2 PUSH3 0xCD5 JUMP JUMPDEST DUP3 MSTORE POP POP JUMP JUMPDEST PUSH1 0x0 PUSH1 0x20 DUP3 ADD SWAP1 POP PUSH3 0xD07 PUSH1 0x0 DUP4 ADD DUP5 PUSH3 0xCDF JUMP JUMPDEST SWAP3 SWAP2 POP POP JUMP JUMPDEST PUSH1 0x0 PUSH1 0x40 MLOAD SWAP1 POP SWAP1 JUMP JUMPDEST PUSH1 0x0 DUP1 REVERT JUMPDEST PUSH1 0x0 DUP1 REVERT JUMPDEST PUSH3 0xD2C DUP2 PUSH3 0xCD5 JUMP JUMPDEST DUP2 EQ PUSH3 0xD38 JUMPI PUSH1 0x0 DUP1 REVERT JUMPDEST POP JUMP JUMPDEST PUSH1 0x0 DUP2 CALLDATALOAD SWAP1 POP PUSH3 0xD4C DUP2 PUSH3 0xD21 JUMP JUMPDEST SWAP3 SWAP2 POP POP JUMP JUMPDEST PUSH1 0x0 PUSH1 0x20 DUP3 DUP5 SUB SLT ISZERO PUSH3 0xD6B JUMPI PUSH3 0xD6A PUSH3 0xD17 JUMP JUMPDEST JUMPDEST PUSH1 0x0 PUSH3 0xD7B DUP5 DUP3 DUP6 ADD PUSH3 0xD3B JUMP JUMPDEST SWAP2 POP POP SWAP3 SWAP2 POP POP JUMP JUMPDEST PUSH1 0x0 PUSH20 0xFFFFFFFFFFFFFFFFFFFFFFFFFFFFFFFFFFFFFFFF DUP3 AND SWAP1 POP SWAP2 SWAP1 POP JUMP JUMPDEST PUSH1 0x0 PUSH3 0xDB1 DUP3 PUSH3 0xD84 JUMP JUMPDEST SWAP1 POP SWAP2 SWAP1 POP JUMP JUMPDEST PUSH3 0xDC3 DUP2 PUSH3 0xDA4 JUMP JUMPDEST DUP2 EQ PUSH3 0xDCF JUMPI PUSH1 0x0 DUP1 REVERT JUMPDEST POP JUMP JUMPDEST PUSH1 0x0 DUP2 CALLDATALOAD SWAP1 POP PUSH3 0xDE3 DUP2 PUSH3 0xDB8 JUMP JUMPDEST SWAP3 SWAP2 POP POP JUMP JUMPDEST PUSH1 0x0 DUP1 PUSH1 0x40 DUP4 DUP6 SUB SLT ISZERO PUSH3 0xE03 JUMPI PUSH3 0xE02 PUSH3 0xD17 JUMP JUMPDEST JUMPDEST PUSH1 0x0 PUSH3 0xE13 DUP6 DUP3 DUP7 ADD PUSH3 0xD3B JUMP JUMPDEST SWAP3 POP POP PUSH1 0x20 PUSH3 0xE26 DUP6 DUP3 DUP7 ADD PUSH3 0xDD2 JUMP JUMPDEST SWAP2 POP POP SWAP3 POP SWAP3 SWAP1 POP JUMP JUMPDEST PUSH1 0x0 DUP2 ISZERO ISZERO SWAP1 POP SWAP2 SWAP1 POP JUMP JUMPDEST PUSH3 0xE47 DUP2 PUSH3 0xE30 JUMP JUMPDEST DUP3 MSTORE POP POP JUMP JUMPDEST PUSH1 0x0 PUSH1 0x20 DUP3 ADD SWAP1 POP PUSH3 0xE64 PUSH1 0x0 DUP4 ADD DUP5 PUSH3 0xE3C JUMP JUMPDEST SWAP3 SWAP2 POP POP JUMP JUMPDEST PUSH1 0x0 DUP1 REVERT JUMPDEST PUSH1 0x0 DUP1 REVERT JUMPDEST PUSH1 0x0 PUSH1 0x1F NOT PUSH1 0x1F DUP4 ADD AND SWAP1 POP SWAP2 SWAP1 POP JUMP JUMPDEST PUSH32 0x4E487B7100000000000000000000000000000000000000000000000000000000 PUSH1 0x0 MSTORE PUSH1 0x41 PUSH1 0x4 MSTORE PUSH1 0x24 PUSH1 0x0 REVERT JUMPDEST PUSH3 0xEBF DUP3 PUSH3 0xE74 JUMP JUMPDEST DUP2 ADD DUP2 DUP2 LT PUSH8 0xFFFFFFFFFFFFFFFF DUP3 GT OR ISZERO PUSH3 0xEE1 JUMPI PUSH3 0xEE0 PUSH3 0xE85 JUMP JUMPDEST JUMPDEST DUP1 PUSH1 0x40 MSTORE POP POP POP JUMP JUMPDEST PUSH1 0x0 PUSH3 0xEF6 PUSH3 0xD0D JUMP JUMPDEST SWAP1 POP PUSH3 0xF04 DUP3 DUP3 PUSH3 0xEB4 JUMP JUMPDEST SWAP2 SWAP1 POP JUMP JUMPDEST PUSH1 0x0 PUSH8 0xFFFFFFFFFFFFFFFF DUP3 GT ISZERO PUSH3 0xF27 JUMPI PUSH3 0xF26 PUSH3 0xE85 JUMP JUMPDEST JUMPDEST PUSH3 0xF32 DUP3 PUSH3 0xE74 JUMP JUMPDEST SWAP1 POP PUSH1 0x20 DUP2 ADD SWAP1 POP SWAP2 SWAP1 POP JUMP JUMPDEST DUP3 DUP2 DUP4 CALLDATACOPY PUSH1 0x0 DUP4 DUP4 ADD MSTORE POP POP POP JUMP JUMPDEST PUSH1 0x0 PUSH3 0xF65 PUSH3 0xF5F DUP5 PUSH3 0xF09 JUMP JUMPDEST PUSH3 0xEEA JUMP JUMPDEST SWAP1 POP DUP3 DUP2 MSTORE PUSH1 0x20 DUP2 ADD DUP5 DUP5 DUP5 ADD GT ISZERO PUSH3 0xF84 JUMPI PUSH3 0xF83 PUSH3 0xE6F JUMP JUMPDEST JUMPDEST PUSH3 0xF91 DUP5 DUP3 DUP6 PUSH3 0xF3F JUMP JUMPDEST POP SWAP4 SWAP3 POP POP POP JUMP JUMPDEST PUSH1 0x0 DUP3 PUSH1 0x1F DUP4 ADD SLT PUSH3 0xFB1 JUMPI PUSH3 0xFB0 PUSH3 0xE6A JUMP JUMPDEST JUMPDEST DUP2 CALLDATALOAD PUSH3 0xFC3 DUP5 DUP3 PUSH1 0x20 DUP7 ADD PUSH3 0xF4E JUMP JUMPDEST SWAP2 POP POP SWAP3 SWAP2 POP POP JUMP JUMPDEST PUSH1 0x0 DUP1 PUSH1 0x0 PUSH1 0x60 DUP5 DUP7 SUB SLT ISZERO PUSH3 0xFE8 JUMPI PUSH3 0xFE7 PUSH3 0xD17 JUMP JUMPDEST JUMPDEST PUSH1 0x0 DUP5 ADD CALLDATALOAD PUSH8 0xFFFFFFFFFFFFFFFF DUP2 GT ISZERO PUSH3 0x1009 JUMPI PUSH3 0x1008 PUSH3 0xD1C JUMP JUMPDEST JUMPDEST PUSH3 0x1017 DUP7 DUP3 DUP8 ADD PUSH3 0xF99 JUMP JUMPDEST SWAP4 POP POP PUSH1 0x20 DUP5 ADD CALLDATALOAD PUSH8 0xFFFFFFFFFFFFFFFF DUP2 GT ISZERO PUSH3 0x103B JUMPI PUSH3 0x103A PUSH3 0xD1C JUMP JUMPDEST JUMPDEST PUSH3 0x1049 DUP7 DUP3 DUP8 ADD PUSH3 0xF99 JUMP JUMPDEST SWAP3 POP POP PUSH1 0x40 PUSH3 0x105C DUP7 DUP3 DUP8 ADD PUSH3 0xDD2 JUMP JUMPDEST SWAP2 POP POP SWAP3 POP SWAP3 POP SWAP3 JUMP JUMPDEST PUSH1 0x0 PUSH1 0x20 DUP3 DUP5 SUB SLT ISZERO PUSH3 0x107F JUMPI PUSH3 0x107E PUSH3 0xD17 JUMP JUMPDEST JUMPDEST PUSH1 0x0 DUP3 ADD CALLDATALOAD PUSH8 0xFFFFFFFFFFFFFFFF DUP2 GT ISZERO PUSH3 0x10A0 JUMPI PUSH3 0x109F PUSH3 0xD1C JUMP JUMPDEST JUMPDEST PUSH3 0x10AE DUP5 DUP3 DUP6 ADD PUSH3 0xF99 JUMP JUMPDEST SWAP2 POP POP SWAP3 SWAP2 POP POP JUMP JUMPDEST PUSH1 0x0 DUP3 DUP3 MSTORE PUSH1 0x20 DUP3 ADD SWAP1 POP SWAP3 SWAP2 POP POP JUMP JUMPDEST PUSH32 0x426164436F6E6669726D6174696F6E0000000000000000000000000000000000 PUSH1 0x0 DUP3 ADD MSTORE POP JUMP JUMPDEST PUSH1 0x0 PUSH3 0x1100 PUSH1 0xF DUP4 PUSH3 0x10B7 JUMP JUMPDEST SWAP2 POP PUSH3 0x110D DUP3 PUSH3 0x10C8 JUMP JUMPDEST PUSH1 0x20 DUP3 ADD SWAP1 POP SWAP2 SWAP1 POP JUMP JUMPDEST PUSH1 0x0 PUSH1 0x20 DUP3 ADD SWAP1 POP DUP2 DUP2 SUB PUSH1 0x0 DUP4 ADD MSTORE PUSH3 0x1133 DUP2 PUSH3 0x10F1 JUMP JUMPDEST SWAP1 POP SWAP2 SWAP1 POP JUMP JUMPDEST PUSH1 0x0 DUP2 MLOAD SWAP1 POP SWAP2 SWAP1 POP JUMP JUMPDEST PUSH1 0x0 DUP2 SWAP1 POP SWAP3 SWAP2 POP POP JUMP JUMPDEST PUSH1 0x0 JUMPDEST DUP4 DUP2 LT ISZERO PUSH3 0x1170 JUMPI DUP1 DUP3 ADD MLOAD DUP2 DUP5 ADD MSTORE PUSH1 0x20 DUP2 ADD SWAP1 POP PUSH3 0x1153 JUMP JUMPDEST DUP4 DUP2 GT ISZERO PUSH3 0x1180 JUMPI PUSH1 0x0 DUP5 DUP5 ADD MSTORE JUMPDEST POP POP POP POP JUMP JUMPDEST PUSH1 0x0 PUSH3 0x1193 DUP3 PUSH3 0x113A JUMP JUMPDEST PUSH3 0x119F DUP2 DUP6 PUSH3 0x1145 JUMP JUMPDEST SWAP4 POP PUSH3 0x11B1 DUP2 DUP6 PUSH1 0x20 DUP7 ADD PUSH3 0x1150 JUMP JUMPDEST DUP1 DUP5 ADD SWAP2 POP POP SWAP3 SWAP2 POP POP JUMP JUMPDEST PUSH1 0x0 PUSH3 0x11CB DUP3 DUP5 PUSH3 0x1186 JUMP JUMPDEST SWAP2 POP DUP2 SWAP1 POP SWAP3 SWAP2 POP POP JUMP JUMPDEST PUSH3 0x11E1 DUP2 PUSH3 0xDA4 JUMP JUMPDEST DUP3 MSTORE POP POP JUMP JUMPDEST PUSH1 0x0 PUSH3 0x11F4 DUP3 PUSH3 0x113A JUMP JUMPDEST PUSH3 0x1200 DUP2 DUP6 PUSH3 0x10B7 JUMP JUMPDEST SWAP4 POP PUSH3 0x1212 DUP2 DUP6 PUSH1 0x20 DUP7 ADD PUSH3 0x1150 JUMP JUMPDEST PUSH3 0x121D DUP2 PUSH3 0xE74 JUMP JUMPDEST DUP5 ADD SWAP2 POP POP SWAP3 SWAP2 POP POP JUMP JUMPDEST PUSH1 0x0 PUSH1 0x60 DUP3 ADD SWAP1 POP PUSH3 0x123F PUSH1 0x0 DUP4 ADD DUP7 PUSH3 0x11D6 JUMP JUMPDEST DUP2 DUP2 SUB PUSH1 0x20 DUP4 ADD MSTORE PUSH3 0x1253 DUP2 DUP6 PUSH3 0x11E7 JUMP JUMPDEST SWAP1 POP PUSH3 0x1264 PUSH1 0x40 DUP4 ADD DUP5 PUSH3 0x11D6 JUMP JUMPDEST SWAP5 SWAP4 POP POP POP POP JUMP JUMPDEST PUSH1 0x0 PUSH1 0x60 DUP3 ADD SWAP1 POP DUP2 DUP2 SUB PUSH1 0x0 DUP4 ADD MSTORE PUSH3 0x1288 DUP2 DUP7 PUSH3 0x11E7 JUMP JUMPDEST SWAP1 POP DUP2 DUP2 SUB PUSH1 0x20 DUP4 ADD MSTORE PUSH3 0x129E DUP2 DUP6 PUSH3 0x11E7 JUMP JUMPDEST SWAP1 POP PUSH3 0x12AF PUSH1 0x40 DUP4 ADD DUP5 PUSH3 0x11D6 JUMP JUMPDEST SWAP5 SWAP4 POP POP POP POP JUMP JUMPDEST PUSH32 0x556E417574686F72697A65644163636F756E7400000000000000000000000000 PUSH1 0x0 DUP3 ADD MSTORE POP JUMP JUMPDEST PUSH1 0x0 PUSH3 0x12EF PUSH1 0x13 DUP4 PUSH3 0x10B7 JUMP JUMPDEST SWAP2 POP PUSH3 0x12FC DUP3 PUSH3 0x12B7 JUMP JUMPDEST PUSH1 0x20 DUP3 ADD SWAP1 POP SWAP2 SWAP1 POP JUMP JUMPDEST PUSH1 0x0 PUSH1 0x20 DUP3 ADD SWAP1 POP DUP2 DUP2 SUB PUSH1 0x0 DUP4 ADD MSTORE PUSH3 0x1322 DUP2 PUSH3 0x12E0 JUMP JUMPDEST SWAP1 POP SWAP2 SWAP1 POP JUMP JUMPDEST PUSH32 0x4E487B7100000000000000000000000000000000000000000000000000000000 PUSH1 0x0 MSTORE PUSH1 0x22 PUSH1 0x4 MSTORE PUSH1 0x24 PUSH1 0x0 REVERT JUMPDEST PUSH1 0x0 PUSH1 0x2 DUP3 DIV SWAP1 POP PUSH1 0x1 DUP3 AND DUP1 PUSH3 0x1371 JUMPI PUSH1 0x7F DUP3 AND SWAP2 POP JUMPDEST PUSH1 0x20 DUP3 LT DUP2 EQ ISZERO PUSH3 0x1388 JUMPI PUSH3 0x1387 PUSH3 0x1329 JUMP JUMPDEST JUMPDEST POP SWAP2 SWAP1 POP JUMP INVALID PUSH1 0x80 PUSH1 0x40 MSTORE CALLVALUE DUP1 ISZERO PUSH3 0x11 JUMPI PUSH1 0x0 DUP1 REVERT JUMPDEST POP PUSH1 0x40 MLOAD PUSH3 0x11E4 CODESIZE SUB DUP1 PUSH3 0x11E4 DUP4 CODECOPY DUP2 DUP2 ADD PUSH1 0x40 MSTORE DUP2 ADD SWAP1 PUSH3 0x37 SWAP2 SWAP1 PUSH3 0x6DA JUMP JUMPDEST CALLER PUSH1 0x1 PUSH1 0x0 DUP1 DUP1 PUSH1 0x0 SHL DUP2 MSTORE PUSH1 0x20 ADD SWAP1 DUP2 MSTORE PUSH1 0x20 ADD PUSH1 0x0 KECCAK256 PUSH1 0x0 ADD PUSH1 0x0 DUP4 PUSH20 0xFFFFFFFFFFFFFFFFFFFFFFFFFFFFFFFFFFFFFFFF AND PUSH20 0xFFFFFFFFFFFFFFFFFFFFFFFFFFFFFFFFFFFFFFFF AND DUP2 MSTORE PUSH1 0x20 ADD SWAP1 DUP2 MSTORE PUSH1 0x20 ADD PUSH1 0x0 KECCAK256 PUSH1 0x0 PUSH2 0x100 EXP DUP2 SLOAD DUP2 PUSH1 0xFF MUL NOT AND SWAP1 DUP4 ISZERO ISZERO MUL OR SWAP1 SSTORE POP POP PUSH3 0xDC PUSH32 0xDF8B4C520FFE197C5343C6F5AEC59570151EF9A492F2C624FD45DDDE6135EC42 PUSH1 0x0 DUP1 SHL PUSH3 0x1C4 PUSH1 0x20 SHL PUSH1 0x20 SHR JUMP JUMPDEST PUSH3 0x12E PUSH32 0xF101D8F75D5816EA5D4F9E76D2B196CA77914D087C68FD9B89F497D695BCDDF7 PUSH32 0xDF8B4C520FFE197C5343C6F5AEC59570151EF9A492F2C624FD45DDDE6135EC42 PUSH3 0x1C4 PUSH1 0x20 SHL PUSH1 0x20 SHR JUMP JUMPDEST PUSH3 0x160 PUSH32 0xDF8B4C520FFE197C5343C6F5AEC59570151EF9A492F2C624FD45DDDE6135EC42 DUP5 PUSH3 0x227 PUSH1 0x20 SHL PUSH1 0x20 SHR JUMP JUMPDEST POP DUP1 PUSH1 0x1 PUSH1 0x0 PUSH2 0x100 EXP DUP2 SLOAD DUP2 PUSH20 0xFFFFFFFFFFFFFFFFFFFFFFFFFFFFFFFFFFFFFFFF MUL NOT AND SWAP1 DUP4 PUSH20 0xFFFFFFFFFFFFFFFFFFFFFFFFFFFFFFFFFFFFFFFF AND MUL OR SWAP1 SSTORE POP DUP2 PUSH1 0x2 SWAP1 DUP1 MLOAD SWAP1 PUSH1 0x20 ADD SWAP1 PUSH3 0x1BA SWAP3 SWAP2 SWAP1 PUSH3 0x428 JUMP JUMPDEST POP POP POP POP PUSH3 0x83D JUMP JUMPDEST PUSH1 0x0 PUSH3 0x1D7 DUP4 PUSH3 0x340 PUSH1 0x20 SHL PUSH1 0x20 SHR JUMP JUMPDEST SWAP1 POP DUP2 PUSH1 0x0 DUP1 DUP6 DUP2 MSTORE PUSH1 0x20 ADD SWAP1 DUP2 MSTORE PUSH1 0x20 ADD PUSH1 0x0 KECCAK256 PUSH1 0x1 ADD DUP2 SWAP1 SSTORE POP DUP2 DUP2 DUP5 PUSH32 0xBD79B86FFE0AB8E8776151514217CD7CACD52C909F66475C3AF44E129F0B00FF PUSH1 0x40 MLOAD PUSH1 0x40 MLOAD DUP1 SWAP2 SUB SWAP1 LOG4 POP POP POP JUMP JUMPDEST PUSH1 0x0 PUSH3 0x23A DUP4 PUSH3 0x340 PUSH1 0x20 SHL PUSH1 0x20 SHR JUMP JUMPDEST PUSH3 0x24B DUP2 PUSH3 0x35F PUSH1 0x20 SHL PUSH1 0x20 SHR JUMP JUMPDEST POP PUSH3 0x25E DUP5 DUP5 PUSH3 0x3BE PUSH1 0x20 SHL PUSH1 0x20 SHR JUMP JUMPDEST ISZERO PUSH3 0x26E JUMPI PUSH1 0x0 SWAP2 POP PUSH3 0x339 JUMP JUMPDEST PUSH1 0x1 PUSH1 0x0 DUP1 DUP7 DUP2 MSTORE PUSH1 0x20 ADD SWAP1 DUP2 MSTORE PUSH1 0x20 ADD PUSH1 0x0 KECCAK256 PUSH1 0x0 ADD PUSH1 0x0 DUP6 PUSH20 0xFFFFFFFFFFFFFFFFFFFFFFFFFFFFFFFFFFFFFFFF AND PUSH20 0xFFFFFFFFFFFFFFFFFFFFFFFFFFFFFFFFFFFFFFFF AND DUP2 MSTORE PUSH1 0x20 ADD SWAP1 DUP2 MSTORE PUSH1 0x20 ADD PUSH1 0x0 KECCAK256 PUSH1 0x0 PUSH2 0x100 EXP DUP2 SLOAD DUP2 PUSH1 0xFF MUL NOT AND SWAP1 DUP4 ISZERO ISZERO MUL OR SWAP1 SSTORE POP CALLER PUSH20 0xFFFFFFFFFFFFFFFFFFFFFFFFFFFFFFFFFFFFFFFF AND DUP4 PUSH20 0xFFFFFFFFFFFFFFFFFFFFFFFFFFFFFFFFFFFFFFFF AND DUP6 PUSH32 0x2F8788117E7EFF1D82E926EC794901D17C78024A50270940304540A733656F0D PUSH1 0x40 MLOAD PUSH1 0x40 MLOAD DUP1 SWAP2 SUB SWAP1 LOG4 PUSH1 0x1 SWAP2 POP JUMPDEST POP SWAP3 SWAP2 POP POP JUMP JUMPDEST PUSH1 0x0 DUP1 PUSH1 0x0 DUP4 DUP2 MSTORE PUSH1 0x20 ADD SWAP1 DUP2 MSTORE PUSH1 0x20 ADD PUSH1 0x0 KECCAK256 PUSH1 0x1 ADD SLOAD SWAP1 POP SWAP2 SWAP1 POP JUMP JUMPDEST PUSH1 0x0 PUSH3 0x373 DUP3 CALLER PUSH3 0x3BE PUSH1 0x20 SHL PUSH1 0x20 SHR JUMP JUMPDEST PUSH3 0x3B5 JUMPI PUSH1 0x40 MLOAD PUSH32 0x8C379A000000000000000000000000000000000000000000000000000000000 DUP2 MSTORE PUSH1 0x4 ADD PUSH3 0x3AC SWAP1 PUSH3 0x7B6 JUMP JUMPDEST PUSH1 0x40 MLOAD DUP1 SWAP2 SUB SWAP1 REVERT JUMPDEST PUSH1 0x1 SWAP1 POP SWAP2 SWAP1 POP JUMP JUMPDEST PUSH1 0x0 DUP1 PUSH1 0x0 DUP5 DUP2 MSTORE PUSH1 0x20 ADD SWAP1 DUP2 MSTORE PUSH1 0x20 ADD PUSH1 0x0 KECCAK256 PUSH1 0x0 ADD PUSH1 0x0 DUP4 PUSH20 0xFFFFFFFFFFFFFFFFFFFFFFFFFFFFFFFFFFFFFFFF AND PUSH20 0xFFFFFFFFFFFFFFFFFFFFFFFFFFFFFFFFFFFFFFFF AND DUP2 MSTORE PUSH1 0x20 ADD SWAP1 DUP2 MSTORE PUSH1 0x20 ADD PUSH1 0x0 KECCAK256 PUSH1 0x0 SWAP1 SLOAD SWAP1 PUSH2 0x100 EXP SWAP1 DIV PUSH1 0xFF AND SWAP1 POP SWAP3 SWAP2 POP POP JUMP JUMPDEST DUP3 DUP1 SLOAD PUSH3 0x436 SWAP1 PUSH3 0x807 JUMP JUMPDEST SWAP1 PUSH1 0x0 MSTORE PUSH1 0x20 PUSH1 0x0 KECCAK256 SWAP1 PUSH1 0x1F ADD PUSH1 0x20 SWAP1 DIV DUP2 ADD SWAP3 DUP3 PUSH3 0x45A JUMPI PUSH1 0x0 DUP6 SSTORE PUSH3 0x4A6 JUMP JUMPDEST DUP3 PUSH1 0x1F LT PUSH3 0x475 JUMPI DUP1 MLOAD PUSH1 0xFF NOT AND DUP4 DUP1 ADD OR DUP6 SSTORE PUSH3 0x4A6 JUMP JUMPDEST DUP3 DUP1 ADD PUSH1 0x1 ADD DUP6 SSTORE DUP3 ISZERO PUSH3 0x4A6 JUMPI SWAP2 DUP3 ADD JUMPDEST DUP3 DUP2 GT ISZERO PUSH3 0x4A5 JUMPI DUP3 MLOAD DUP3 SSTORE SWAP2 PUSH1 0x20 ADD SWAP2 SWAP1 PUSH1 0x1 ADD SWAP1 PUSH3 0x488 JUMP JUMPDEST JUMPDEST POP SWAP1 POP PUSH3 0x4B5 SWAP2 SWAP1 PUSH3 0x4B9 JUMP JUMPDEST POP SWAP1 JUMP JUMPDEST JUMPDEST DUP1 DUP3 GT ISZERO PUSH3 0x4D4 JUMPI PUSH1 0x0 DUP2 PUSH1 0x0 SWAP1 SSTORE POP PUSH1 0x1 ADD PUSH3 0x4BA JUMP JUMPDEST POP SWAP1 JUMP JUMPDEST PUSH1 0x0 PUSH1 0x40 MLOAD SWAP1 POP SWAP1 JUMP JUMPDEST PUSH1 0x0 DUP1 REVERT JUMPDEST PUSH1 0x0 DUP1 REVERT JUMPDEST PUSH1 0x0 PUSH20 0xFFFFFFFFFFFFFFFFFFFFFFFFFFFFFFFFFFFFFFFF DUP3 AND SWAP1 POP SWAP2 SWAP1 POP JUMP JUMPDEST PUSH1 0x0 PUSH3 0x519 DUP3 PUSH3 0x4EC JUMP JUMPDEST SWAP1 POP SWAP2 SWAP1 POP JUMP JUMPDEST PUSH3 0x52B DUP2 PUSH3 0x50C JUMP JUMPDEST DUP2 EQ PUSH3 0x537 JUMPI PUSH1 0x0 DUP1 REVERT JUMPDEST POP JUMP JUMPDEST PUSH1 0x0 DUP2 MLOAD SWAP1 POP PUSH3 0x54B DUP2 PUSH3 0x520 JUMP JUMPDEST SWAP3 SWAP2 POP POP JUMP JUMPDEST PUSH1 0x0 DUP1 REVERT JUMPDEST PUSH1 0x0 DUP1 REVERT JUMPDEST PUSH1 0x0 PUSH1 0x1F NOT PUSH1 0x1F DUP4 ADD AND SWAP1 POP SWAP2 SWAP1 POP JUMP JUMPDEST PUSH32 0x4E487B7100000000000000000000000000000000000000000000000000000000 PUSH1 0x0 MSTORE PUSH1 0x41 PUSH1 0x4 MSTORE PUSH1 0x24 PUSH1 0x0 REVERT JUMPDEST PUSH3 0x5A6 DUP3 PUSH3 0x55B JUMP JUMPDEST DUP2 ADD DUP2 DUP2 LT PUSH8 0xFFFFFFFFFFFFFFFF DUP3 GT OR ISZERO PUSH3 0x5C8 JUMPI PUSH3 0x5C7 PUSH3 0x56C JUMP JUMPDEST JUMPDEST DUP1 PUSH1 0x40 MSTORE POP POP POP JUMP JUMPDEST PUSH1 0x0 PUSH3 0x5DD PUSH3 0x4D8 JUMP JUMPDEST SWAP1 POP PUSH3 0x5EB DUP3 DUP3 PUSH3 0x59B JUMP JUMPDEST SWAP2 SWAP1 POP JUMP JUMPDEST PUSH1 0x0 PUSH8 0xFFFFFFFFFFFFFFFF DUP3 GT ISZERO PUSH3 0x60E JUMPI PUSH3 0x60D PUSH3 0x56C JUMP JUMPDEST JUMPDEST PUSH3 0x619 DUP3 PUSH3 0x55B JUMP JUMPDEST SWAP1 POP PUSH1 0x20 DUP2 ADD SWAP1 POP SWAP2 SWAP1 POP JUMP JUMPDEST PUSH1 0x0 JUMPDEST DUP4 DUP2 LT ISZERO PUSH3 0x646 JUMPI DUP1 DUP3 ADD MLOAD DUP2 DUP5 ADD MSTORE PUSH1 0x20 DUP2 ADD SWAP1 POP PUSH3 0x629 JUMP JUMPDEST DUP4 DUP2 GT ISZERO PUSH3 0x656 JUMPI PUSH1 0x0 DUP5 DUP5 ADD MSTORE JUMPDEST POP POP POP POP JUMP JUMPDEST PUSH1 0x0 PUSH3 0x673 PUSH3 0x66D DUP5 PUSH3 0x5F0 JUMP JUMPDEST PUSH3 0x5D1 JUMP JUMPDEST SWAP1 POP DUP3 DUP2 MSTORE PUSH1 0x20 DUP2 ADD DUP5 DUP5 DUP5 ADD GT ISZERO PUSH3 0x692 JUMPI PUSH3 0x691 PUSH3 0x556 JUMP JUMPDEST JUMPDEST PUSH3 0x69F DUP5 DUP3 DUP6 PUSH3 0x626 JUMP JUMPDEST POP SWAP4 SWAP3 POP POP POP JUMP JUMPDEST PUSH1 0x0 DUP3 PUSH1 0x1F DUP4 ADD SLT PUSH3 0x6BF JUMPI PUSH3 0x6BE PUSH3 0x551 JUMP JUMPDEST JUMPDEST DUP2 MLOAD PUSH3 0x6D1 DUP5 DUP3 PUSH1 0x20 DUP7 ADD PUSH3 0x65C JUMP JUMPDEST SWAP2 POP POP SWAP3 SWAP2 POP POP JUMP JUMPDEST PUSH1 0x0 DUP1 PUSH1 0x0 PUSH1 0x60 DUP5 DUP7 SUB SLT ISZERO PUSH3 0x6F6 JUMPI PUSH3 0x6F5 PUSH3 0x4E2 JUMP JUMPDEST JUMPDEST PUSH1 0x0 PUSH3 0x706 DUP7 DUP3 DUP8 ADD PUSH3 0x53A JUMP JUMPDEST SWAP4 POP POP PUSH1 0x20 DUP5 ADD MLOAD PUSH8 0xFFFFFFFFFFFFFFFF DUP2 GT ISZERO PUSH3 0x72A JUMPI PUSH3 0x729 PUSH3 0x4E7 JUMP JUMPDEST JUMPDEST PUSH3 0x738 DUP7 DUP3 DUP8 ADD PUSH3 0x6A7 JUMP JUMPDEST SWAP3 POP POP PUSH1 0x40 PUSH3 0x74B DUP7 DUP3 DUP8 ADD PUSH3 0x53A JUMP JUMPDEST SWAP2 POP POP SWAP3 POP SWAP3 POP SWAP3 JUMP JUMPDEST PUSH1 0x0 DUP3 DUP3 MSTORE PUSH1 0x20 DUP3 ADD SWAP1 POP SWAP3 SWAP2 POP POP JUMP JUMPDEST PUSH32 0x556E417574686F72697A65644163636F756E7400000000000000000000000000 PUSH1 0x0 DUP3 ADD MSTORE POP JUMP JUMPDEST PUSH1 0x0 PUSH3 0x79E PUSH1 0x13 DUP4 PUSH3 0x755 JUMP JUMPDEST SWAP2 POP PUSH3 0x7AB DUP3 PUSH3 0x766 JUMP JUMPDEST PUSH1 0x20 DUP3 ADD SWAP1 POP SWAP2 SWAP1 POP JUMP JUMPDEST PUSH1 0x0 PUSH1 0x20 DUP3 ADD SWAP1 POP DUP2 DUP2 SUB PUSH1 0x0 DUP4 ADD MSTORE PUSH3 0x7D1 DUP2 PUSH3 0x78F JUMP JUMPDEST SWAP1 POP SWAP2 SWAP1 POP JUMP JUMPDEST PUSH32 0x4E487B7100000000000000000000000000000000000000000000000000000000 PUSH1 0x0 MSTORE PUSH1 0x22 PUSH1 0x4 MSTORE PUSH1 0x24 PUSH1 0x0 REVERT JUMPDEST PUSH1 0x0 PUSH1 0x2 DUP3 DIV SWAP1 POP PUSH1 0x1 DUP3 AND DUP1 PUSH3 0x820 JUMPI PUSH1 0x7F DUP3 AND SWAP2 POP JUMPDEST PUSH1 0x20 DUP3 LT DUP2 EQ ISZERO PUSH3 0x837 JUMPI PUSH3 0x836 PUSH3 0x7D8 JUMP JUMPDEST JUMPDEST POP SWAP2 SWAP1 POP JUMP JUMPDEST PUSH2 0x997 DUP1 PUSH3 0x84D PUSH1 0x0 CODECOPY PUSH1 0x0 RETURN INVALID PUSH1 0x80 PUSH1 0x40 MSTORE CALLVALUE DUP1 ISZERO PUSH2 0x10 JUMPI PUSH1 0x0 DUP1 REVERT JUMPDEST POP PUSH1 0x4 CALLDATASIZE LT PUSH2 0xA2 JUMPI PUSH1 0x0 CALLDATALOAD PUSH1 0xE0 SHR DUP1 PUSH4 0x91D14854 GT PUSH2 0x66 JUMPI DUP1 PUSH4 0x91D14854 EQ PUSH2 0x177 JUMPI DUP1 PUSH4 0x9CDEBA95 EQ PUSH2 0x1A7 JUMPI DUP1 PUSH4 0xC5B95190 EQ PUSH2 0x1C5 JUMPI DUP1 PUSH4 0xC96EA900 EQ PUSH2 0x1F5 JUMPI DUP1 PUSH4 0xD547741F EQ PUSH2 0x213 JUMPI PUSH2 0xA3 JUMP JUMPDEST DUP1 PUSH4 0x25B22BC EQ PUSH2 0xAD JUMPI DUP1 PUSH4 0x248A9CA3 EQ PUSH2 0xDD JUMPI DUP1 PUSH4 0x2F2FF15D EQ PUSH2 0x10D JUMPI DUP1 PUSH4 0x36568ABE EQ PUSH2 0x13D JUMPI DUP1 PUSH4 0x85A9D78F EQ PUSH2 0x159 JUMPI PUSH2 0xA3 JUMP JUMPDEST JUMPDEST PUSH2 0xAB PUSH2 0x243 JUMP JUMPDEST STOP JUMPDEST PUSH2 0xC7 PUSH1 0x4 DUP1 CALLDATASIZE SUB DUP2 ADD SWAP1 PUSH2 0xC2 SWAP2 SWAP1 PUSH2 0x748 JUMP JUMPDEST PUSH2 0x255 JUMP JUMPDEST PUSH1 0x40 MLOAD PUSH2 0xD4 SWAP2 SWAP1 PUSH2 0x790 JUMP JUMPDEST PUSH1 0x40 MLOAD DUP1 SWAP2 SUB SWAP1 RETURN JUMPDEST PUSH2 0xF7 PUSH1 0x4 DUP1 CALLDATASIZE SUB DUP2 ADD SWAP1 PUSH2 0xF2 SWAP2 SWAP1 PUSH2 0x7E1 JUMP JUMPDEST PUSH2 0x2EF JUMP JUMPDEST PUSH1 0x40 MLOAD PUSH2 0x104 SWAP2 SWAP1 PUSH2 0x81D JUMP JUMPDEST PUSH1 0x40 MLOAD DUP1 SWAP2 SUB SWAP1 RETURN JUMPDEST PUSH2 0x127 PUSH1 0x4 DUP1 CALLDATASIZE SUB DUP2 ADD SWAP1 PUSH2 0x122 SWAP2 SWAP1 PUSH2 0x838 JUMP JUMPDEST PUSH2 0x30E JUMP JUMPDEST PUSH1 0x40 MLOAD PUSH2 0x134 SWAP2 SWAP1 PUSH2 0x790 JUMP JUMPDEST PUSH1 0x40 MLOAD DUP1 SWAP2 SUB SWAP1 RETURN JUMPDEST PUSH2 0x157 PUSH1 0x4 DUP1 CALLDATASIZE SUB DUP2 ADD SWAP1 PUSH2 0x152 SWAP2 SWAP1 PUSH2 0x838 JUMP JUMPDEST PUSH2 0x40D JUMP JUMPDEST STOP JUMPDEST PUSH2 0x161 PUSH2 0x48A JUMP JUMPDEST PUSH1 0x40 MLOAD PUSH2 0x16E SWAP2 SWAP1 PUSH2 0x81D JUMP JUMPDEST PUSH1 0x40 MLOAD DUP1 SWAP2 SUB SWAP1 RETURN JUMPDEST PUSH2 0x191 PUSH1 0x4 DUP1 CALLDATASIZE SUB DUP2 ADD SWAP1 PUSH2 0x18C SWAP2 SWAP1 PUSH2 0x838 JUMP JUMPDEST PUSH2 0x4AE JUMP JUMPDEST PUSH1 0x40 MLOAD PUSH2 0x19E SWAP2 SWAP1 PUSH2 0x790 JUMP JUMPDEST PUSH1 0x40 MLOAD DUP1 SWAP2 SUB SWAP1 RETURN JUMPDEST PUSH2 0x1AF PUSH2 0x518 JUMP JUMPDEST PUSH1 0x40 MLOAD PUSH2 0x1BC SWAP2 SWAP1 PUSH2 0x81D JUMP JUMPDEST PUSH1 0x40 MLOAD DUP1 SWAP2 SUB SWAP1 RETURN JUMPDEST PUSH2 0x1DF PUSH1 0x4 DUP1 CALLDATASIZE SUB DUP2 ADD SWAP1 PUSH2 0x1DA SWAP2 SWAP1 PUSH2 0x7E1 JUMP JUMPDEST PUSH2 0x51F JUMP JUMPDEST PUSH1 0x40 MLOAD PUSH2 0x1EC SWAP2 SWAP1 PUSH2 0x790 JUMP JUMPDEST PUSH1 0x40 MLOAD DUP1 SWAP2 SUB SWAP1 RETURN JUMPDEST PUSH2 0x1FD PUSH2 0x573 JUMP JUMPDEST PUSH1 0x40 MLOAD PUSH2 0x20A SWAP2 SWAP1 PUSH2 0x81D JUMP JUMPDEST PUSH1 0x40 MLOAD DUP1 SWAP2 SUB SWAP1 RETURN JUMPDEST PUSH2 0x22D PUSH1 0x4 DUP1 CALLDATASIZE SUB DUP2 ADD SWAP1 PUSH2 0x228 SWAP2 SWAP1 PUSH2 0x838 JUMP JUMPDEST PUSH2 0x597 JUMP JUMPDEST PUSH1 0x40 MLOAD PUSH2 0x23A SWAP2 SWAP1 PUSH2 0x790 JUMP JUMPDEST PUSH1 0x40 MLOAD DUP1 SWAP2 SUB SWAP1 RETURN JUMPDEST PUSH2 0x253 PUSH2 0x24E PUSH2 0x695 JUMP JUMPDEST PUSH2 0x6BF JUMP JUMPDEST JUMP JUMPDEST PUSH1 0x0 DUP1 PUSH1 0x0 SHL PUSH2 0x264 DUP2 PUSH2 0x51F JUMP JUMPDEST POP PUSH1 0x0 PUSH20 0xFFFFFFFFFFFFFFFFFFFFFFFFFFFFFFFFFFFFFFFF AND DUP4 PUSH20 0xFFFFFFFFFFFFFFFFFFFFFFFFFFFFFFFFFFFFFFFF AND EQ ISZERO PUSH2 0x2A3 JUMPI PUSH1 0x0 SWAP2 POP PUSH2 0x2E9 JUMP JUMPDEST DUP3 PUSH1 0x1 PUSH1 0x0 PUSH2 0x100 EXP DUP2 SLOAD DUP2 PUSH20 0xFFFFFFFFFFFFFFFFFFFFFFFFFFFFFFFFFFFFFFFF MUL NOT AND SWAP1 DUP4 PUSH20 0xFFFFFFFFFFFFFFFFFFFFFFFFFFFFFFFFFFFFFFFF AND MUL OR SWAP1 SSTORE POP PUSH1 0x1 SWAP2 POP JUMPDEST POP SWAP2 SWAP1 POP JUMP JUMPDEST PUSH1 0x0 DUP1 PUSH1 0x0 DUP4 DUP2 MSTORE PUSH1 0x20 ADD SWAP1 DUP2 MSTORE PUSH1 0x20 ADD PUSH1 0x0 KECCAK256 PUSH1 0x1 ADD SLOAD SWAP1 POP SWAP2 SWAP1 POP JUMP JUMPDEST PUSH1 0x0 PUSH2 0x319 DUP4 PUSH2 0x2EF JUMP JUMPDEST PUSH2 0x322 DUP2 PUSH2 0x51F JUMP JUMPDEST POP PUSH2 0x32D DUP5 DUP5 PUSH2 0x4AE JUMP JUMPDEST ISZERO PUSH2 0x33B JUMPI PUSH1 0x0 SWAP2 POP PUSH2 0x406 JUMP JUMPDEST PUSH1 0x1 PUSH1 0x0 DUP1 DUP7 DUP2 MSTORE PUSH1 0x20 ADD SWAP1 DUP2 MSTORE PUSH1 0x20 ADD PUSH1 0x0 KECCAK256 PUSH1 0x0 ADD PUSH1 0x0 DUP6 PUSH20 0xFFFFFFFFFFFFFFFFFFFFFFFFFFFFFFFFFFFFFFFF AND PUSH20 0xFFFFFFFFFFFFFFFFFFFFFFFFFFFFFFFFFFFFFFFF AND DUP2 MSTORE PUSH1 0x20 ADD SWAP1 DUP2 MSTORE PUSH1 0x20 ADD PUSH1 0x0 KECCAK256 PUSH1 0x0 PUSH2 0x100 EXP DUP2 SLOAD DUP2 PUSH1 0xFF MUL NOT AND SWAP1 DUP4 ISZERO ISZERO MUL OR SWAP1 SSTORE POP CALLER PUSH20 0xFFFFFFFFFFFFFFFFFFFFFFFFFFFFFFFFFFFFFFFF AND DUP4 PUSH20 0xFFFFFFFFFFFFFFFFFFFFFFFFFFFFFFFFFFFFFFFF AND DUP6 PUSH32 0x2F8788117E7EFF1D82E926EC794901D17C78024A50270940304540A733656F0D PUSH1 0x40 MLOAD PUSH1 0x40 MLOAD DUP1 SWAP2 SUB SWAP1 LOG4 PUSH1 0x1 SWAP2 POP JUMPDEST POP SWAP3 SWAP2 POP POP JUMP JUMPDEST CALLER PUSH20 0xFFFFFFFFFFFFFFFFFFFFFFFFFFFFFFFFFFFFFFFF AND DUP2 PUSH20 0xFFFFFFFFFFFFFFFFFFFFFFFFFFFFFFFFFFFFFFFF AND EQ PUSH2 0x47B JUMPI PUSH1 0x40 MLOAD PUSH32 0x8C379A000000000000000000000000000000000000000000000000000000000 DUP2 MSTORE PUSH1 0x4 ADD PUSH2 0x472 SWAP1 PUSH2 0x8D5 JUMP JUMPDEST PUSH1 0x40 MLOAD DUP1 SWAP2 SUB SWAP1 REVERT JUMPDEST PUSH2 0x485 DUP3 DUP3 PUSH2 0x597 JUMP JUMPDEST POP POP POP JUMP JUMPDEST PUSH32 0xF101D8F75D5816EA5D4F9E76D2B196CA77914D087C68FD9B89F497D695BCDDF7 DUP2 JUMP JUMPDEST PUSH1 0x0 DUP1 PUSH1 0x0 DUP5 DUP2 MSTORE PUSH1 0x20 ADD SWAP1 DUP2 MSTORE PUSH1 0x20 ADD PUSH1 0x0 KECCAK256 PUSH1 0x0 ADD PUSH1 0x0 DUP4 PUSH20 0xFFFFFFFFFFFFFFFFFFFFFFFFFFFFFFFFFFFFFFFF AND PUSH20 0xFFFFFFFFFFFFFFFFFFFFFFFFFFFFFFFFFFFFFFFF AND DUP2 MSTORE PUSH1 0x20 ADD SWAP1 DUP2 MSTORE PUSH1 0x20 ADD PUSH1 0x0 KECCAK256 PUSH1 0x0 SWAP1 SLOAD SWAP1 PUSH2 0x100 EXP SWAP1 DIV PUSH1 0xFF AND SWAP1 POP SWAP3 SWAP2 POP POP JUMP JUMPDEST PUSH1 0x0 DUP1 SHL DUP2 JUMP JUMPDEST PUSH1 0x0 PUSH2 0x52B DUP3 CALLER PUSH2 0x4AE JUMP JUMPDEST PUSH2 0x56A JUMPI PUSH1 0x40 MLOAD PUSH32 0x8C379A000000000000000000000000000000000000000000000000000000000 DUP2 MSTORE PUSH1 0x4 ADD PUSH2 0x561 SWAP1 PUSH2 0x941 JUMP JUMPDEST PUSH1 0x40 MLOAD DUP1 SWAP2 SUB SWAP1 REVERT JUMPDEST PUSH1 0x1 SWAP1 POP SWAP2 SWAP1 POP JUMP JUMPDEST PUSH32 0xDF8B4C520FFE197C5343C6F5AEC59570151EF9A492F2C624FD45DDDE6135EC42 DUP2 JUMP JUMPDEST PUSH1 0x0 PUSH2 0x5A2 DUP4 PUSH2 0x2EF JUMP JUMPDEST PUSH2 0x5AB DUP2 PUSH2 0x51F JUMP JUMPDEST POP PUSH2 0x5B6 DUP5 DUP5 PUSH2 0x4AE JUMP JUMPDEST PUSH2 0x5C3 JUMPI PUSH1 0x0 SWAP2 POP PUSH2 0x68E JUMP JUMPDEST PUSH1 0x0 DUP1 PUSH1 0x0 DUP7 DUP2 MSTORE PUSH1 0x20 ADD SWAP1 DUP2 MSTORE PUSH1 0x20 ADD PUSH1 0x0 KECCAK256 PUSH1 0x0 ADD PUSH1 0x0 DUP6 PUSH20 0xFFFFFFFFFFFFFFFFFFFFFFFFFFFFFFFFFFFFFFFF AND PUSH20 0xFFFFFFFFFFFFFFFFFFFFFFFFFFFFFFFFFFFFFFFF AND DUP2 MSTORE PUSH1 0x20 ADD SWAP1 DUP2 MSTORE PUSH1 0x20 ADD PUSH1 0x0 KECCAK256 PUSH1 0x0 PUSH2 0x100 EXP DUP2 SLOAD DUP2 PUSH1 0xFF MUL NOT AND SWAP1 DUP4 ISZERO ISZERO MUL OR SWAP1 SSTORE POP CALLER PUSH20 0xFFFFFFFFFFFFFFFFFFFFFFFFFFFFFFFFFFFFFFFF AND DUP4 PUSH20 0xFFFFFFFFFFFFFFFFFFFFFFFFFFFFFFFFFFFFFFFF AND DUP6 PUSH32 0xF6391F5C32D9C69D2A47EA670B442974B53935D1EDC7FD64EB21E047A839171B PUSH1 0x40 MLOAD PUSH1 0x40 MLOAD DUP1 SWAP2 SUB SWAP1 LOG4 PUSH1 0x1 SWAP2 POP JUMPDEST POP SWAP3 SWAP2 POP POP JUMP JUMPDEST PUSH1 0x0 PUSH1 0x1 PUSH1 0x0 SWAP1 SLOAD SWAP1 PUSH2 0x100 EXP SWAP1 DIV PUSH20 0xFFFFFFFFFFFFFFFFFFFFFFFFFFFFFFFFFFFFFFFF AND SWAP1 POP SWAP1 JUMP JUMPDEST CALLDATASIZE PUSH1 0x0 DUP1 CALLDATACOPY PUSH1 0x0 DUP1 CALLDATASIZE PUSH1 0x0 DUP5 GAS DELEGATECALL RETURNDATASIZE PUSH1 0x0 DUP1 RETURNDATACOPY DUP1 PUSH1 0x0 DUP2 EQ PUSH2 0x6E0 JUMPI RETURNDATASIZE PUSH1 0x0 RETURN JUMPDEST RETURNDATASIZE PUSH1 0x0 REVERT JUMPDEST PUSH1 0x0 DUP1 REVERT JUMPDEST PUSH1 0x0 PUSH20 0xFFFFFFFFFFFFFFFFFFFFFFFFFFFFFFFFFFFFFFFF DUP3 AND SWAP1 POP SWAP2 SWAP1 POP JUMP JUMPDEST PUSH1 0x0 PUSH2 0x715 DUP3 PUSH2 0x6EA JUMP JUMPDEST SWAP1 POP SWAP2 SWAP1 POP JUMP JUMPDEST PUSH2 0x725 DUP2 PUSH2 0x70A JUMP JUMPDEST DUP2 EQ PUSH2 0x730 JUMPI PUSH1 0x0 DUP1 REVERT JUMPDEST POP JUMP JUMPDEST PUSH1 0x0 DUP2 CALLDATALOAD SWAP1 POP PUSH2 0x742 DUP2 PUSH2 0x71C JUMP JUMPDEST SWAP3 SWAP2 POP POP JUMP JUMPDEST PUSH1 0x0 PUSH1 0x20 DUP3 DUP5 SUB SLT ISZERO PUSH2 0x75E JUMPI PUSH2 0x75D PUSH2 0x6E5 JUMP JUMPDEST JUMPDEST PUSH1 0x0 PUSH2 0x76C DUP5 DUP3 DUP6 ADD PUSH2 0x733 JUMP JUMPDEST SWAP2 POP POP SWAP3 SWAP2 POP POP JUMP JUMPDEST PUSH1 0x0 DUP2 ISZERO ISZERO SWAP1 POP SWAP2 SWAP1 POP JUMP JUMPDEST PUSH2 0x78A DUP2 PUSH2 0x775 JUMP JUMPDEST DUP3 MSTORE POP POP JUMP JUMPDEST PUSH1 0x0 PUSH1 0x20 DUP3 ADD SWAP1 POP PUSH2 0x7A5 PUSH1 0x0 DUP4 ADD DUP5 PUSH2 0x781 JUMP JUMPDEST SWAP3 SWAP2 POP POP JUMP JUMPDEST PUSH1 0x0 DUP2 SWAP1 POP SWAP2 SWAP1 POP JUMP JUMPDEST PUSH2 0x7BE DUP2 PUSH2 0x7AB JUMP JUMPDEST DUP2 EQ PUSH2 0x7C9 JUMPI PUSH1 0x0 DUP1 REVERT JUMPDEST POP JUMP JUMPDEST PUSH1 0x0 DUP2 CALLDATALOAD SWAP1 POP PUSH2 0x7DB DUP2 PUSH2 0x7B5 JUMP JUMPDEST SWAP3 SWAP2 POP POP JUMP JUMPDEST PUSH1 0x0 PUSH1 0x20 DUP3 DUP5 SUB SLT ISZERO PUSH2 0x7F7 JUMPI PUSH2 0x7F6 PUSH2 0x6E5 JUMP JUMPDEST JUMPDEST PUSH1 0x0 PUSH2 0x805 DUP5 DUP3 DUP6 ADD PUSH2 0x7CC JUMP JUMPDEST SWAP2 POP POP SWAP3 SWAP2 POP POP JUMP JUMPDEST PUSH2 0x817 DUP2 PUSH2 0x7AB JUMP JUMPDEST DUP3 MSTORE POP POP JUMP JUMPDEST PUSH1 0x0 PUSH1 0x20 DUP3 ADD SWAP1 POP PUSH2 0x832 PUSH1 0x0 DUP4 ADD DUP5 PUSH2 0x80E JUMP JUMPDEST SWAP3 SWAP2 POP POP JUMP JUMPDEST PUSH1 0x0 DUP1 PUSH1 0x40 DUP4 DUP6 SUB SLT ISZERO PUSH2 0x84F JUMPI PUSH2 0x84E PUSH2 0x6E5 JUMP JUMPDEST JUMPDEST PUSH1 0x0 PUSH2 0x85D DUP6 DUP3 DUP7 ADD PUSH2 0x7CC JUMP JUMPDEST SWAP3 POP POP PUSH1 0x20 PUSH2 0x86E DUP6 DUP3 DUP7 ADD PUSH2 0x733 JUMP JUMPDEST SWAP2 POP POP SWAP3 POP SWAP3 SWAP1 POP JUMP JUMPDEST PUSH1 0x0 DUP3 DUP3 MSTORE PUSH1 0x20 DUP3 ADD SWAP1 POP SWAP3 SWAP2 POP POP JUMP JUMPDEST PUSH32 0x426164436F6E6669726D6174696F6E0000000000000000000000000000000000 PUSH1 0x0 DUP3 ADD MSTORE POP JUMP JUMPDEST PUSH1 0x0 PUSH2 0x8BF PUSH1 0xF DUP4 PUSH2 0x878 JUMP JUMPDEST SWAP2 POP PUSH2 0x8CA DUP3 PUSH2 0x889 JUMP JUMPDEST PUSH1 0x20 DUP3 ADD SWAP1 POP SWAP2 SWAP1 POP JUMP JUMPDEST PUSH1 0x0 PUSH1 0x20 DUP3 ADD SWAP1 POP DUP2 DUP2 SUB PUSH1 0x0 DUP4 ADD MSTORE PUSH2 0x8EE DUP2 PUSH2 0x8B2 JUMP JUMPDEST SWAP1 POP SWAP2 SWAP1 POP JUMP JUMPDEST PUSH32 0x556E417574686F72697A65644163636F756E7400000000000000000000000000 PUSH1 0x0 DUP3 ADD MSTORE POP JUMP JUMPDEST PUSH1 0x0 PUSH2 0x92B PUSH1 0x13 DUP4 PUSH2 0x878 JUMP JUMPDEST SWAP2 POP PUSH2 0x936 DUP3 PUSH2 0x8F5 JUMP JUMPDEST PUSH1 0x20 DUP3 ADD SWAP1 POP SWAP2 SWAP1 POP JUMP JUMPDEST PUSH1 0x0 PUSH1 0x20 DUP3 ADD SWAP1 POP DUP2 DUP2 SUB PUSH1 0x0 DUP4 ADD MSTORE PUSH2 0x95A DUP2 PUSH2 0x91E JUMP JUMPDEST SWAP1 POP SWAP2 SWAP1 POP JUMP INVALID LOG2 PUSH5 0x6970667358 0x22 SLT KECCAK256 0xF INVALID SWAP13 PUSH1 0x5 0xF7 ISZERO 0xC0 PUSH15 0x4B594DCBC42491A7E2FBFAA4A6069B 0x21 0x26 PUSH10 0x7516A45D5664736F6C63 NUMBER STOP ADDMOD SIGNEXTEND STOP CALLER LOG2 PUSH5 0x6970667358 0x22 SLT KECCAK256 0xE3 0xD1 0x5E 0xC3 SELFDESTRUCT 0xED MSTORE8 PUSH29 0x670E75C9721764BD960F44AABC9AA5FE26CA19354D459E9764736F6C63 NUMBER STOP ADDMOD SIGNEXTEND STOP CALLER "
				},
				"gasEstimates": {
					"creation": {
						"codeDepositCost": "1928000",
						"executionCost": "infinite",
						"totalCost": "infinite"
					},
					"external": {
						"DEFAULT_ADMIN()": "357",
						"DOMAIN_ADMIN()": "330",
						"checkRole(bytes32)": "3114",
						"getRoleAdmin(bytes32)": "infinite",
						"grantRole(bytes32,address)": "infinite",
						"hasRole(bytes32,address)": "3140",
						"registerCompany(string,string,address)": "infinite",
						"removeCompany(string)": "infinite",
						"renounceRole(bytes32,address)": "infinite",
						"revokeRole(bytes32,address)": "infinite"
					}
				},
				"methodIdentifiers": {
					"DEFAULT_ADMIN()": "9cdeba95",
					"DOMAIN_ADMIN()": "0a0a4cb9",
					"checkRole(bytes32)": "c5b95190",
					"getRoleAdmin(bytes32)": "248a9ca3",
					"grantRole(bytes32,address)": "2f2ff15d",
					"hasRole(bytes32,address)": "91d14854",
					"registerCompany(string,string,address)": "5d7746c0",
					"removeCompany(string)": "ffcee0a1",
					"renounceRole(bytes32,address)": "36568abe",
					"revokeRole(bytes32,address)": "d547741f"
				}
			},
			"storageLayout": {
				"storage": [
					{
						"astId": 349,
						"contract": "1127/DomainLogic.sol:DomainContract",
						"label": "roles",
						"offset": 0,
						"slot": "0",
						"type": "t_mapping(t_bytes32,t_struct(RoleData)341_storage)"
					},
					{
						"astId": 161,
						"contract": "1127/DomainLogic.sol:DomainContract",
						"label": "_commonlogicContract",
						"offset": 0,
						"slot": "1",
						"type": "t_address"
					},
					{
						"astId": 171,
						"contract": "1127/DomainLogic.sol:DomainContract",
						"label": "companies",
						"offset": 0,
						"slot": "2",
						"type": "t_mapping(t_string_memory_ptr,t_struct(Company)140_storage)"
					}
				],
				"types": {
					"t_address": {
						"encoding": "inplace",
						"label": "address",
						"numberOfBytes": "20"
					},
					"t_bool": {
						"encoding": "inplace",
						"label": "bool",
						"numberOfBytes": "1"
					},
					"t_bytes32": {
						"encoding": "inplace",
						"label": "bytes32",
						"numberOfBytes": "32"
					},
					"t_mapping(t_address,t_bool)": {
						"encoding": "mapping",
						"key": "t_address",
						"label": "mapping(address => bool)",
						"numberOfBytes": "32",
						"value": "t_bool"
					},
					"t_mapping(t_bytes32,t_struct(RoleData)341_storage)": {
						"encoding": "mapping",
						"key": "t_bytes32",
						"label": "mapping(bytes32 => struct AccessControl.RoleData)",
						"numberOfBytes": "32",
						"value": "t_struct(RoleData)341_storage"
					},
					"t_mapping(t_string_memory_ptr,t_struct(Company)140_storage)": {
						"encoding": "mapping",
						"key": "t_string_memory_ptr",
						"label": "mapping(string => struct DataStruct.Company)",
						"numberOfBytes": "32",
						"value": "t_struct(Company)140_storage"
					},
					"t_string_memory_ptr": {
						"encoding": "bytes",
						"label": "string",
						"numberOfBytes": "32"
					},
					"t_string_storage": {
						"encoding": "bytes",
						"label": "string",
						"numberOfBytes": "32"
					},
					"t_struct(Company)140_storage": {
						"encoding": "inplace",
						"label": "struct DataStruct.Company",
						"members": [
							{
								"astId": 135,
								"contract": "1127/DomainLogic.sol:DomainContract",
								"label": "did",
								"offset": 0,
								"slot": "0",
								"type": "t_string_storage"
							},
							{
								"astId": 137,
								"contract": "1127/DomainLogic.sol:DomainContract",
								"label": "addr",
								"offset": 0,
								"slot": "1",
								"type": "t_address"
							},
							{
								"astId": 139,
								"contract": "1127/DomainLogic.sol:DomainContract",
								"label": "name",
								"offset": 0,
								"slot": "2",
								"type": "t_string_storage"
							}
						],
						"numberOfBytes": "96"
					},
					"t_struct(RoleData)341_storage": {
						"encoding": "inplace",
						"label": "struct AccessControl.RoleData",
						"members": [
							{
								"astId": 338,
								"contract": "1127/DomainLogic.sol:DomainContract",
								"label": "hasRoles",
								"offset": 0,
								"slot": "0",
								"type": "t_mapping(t_address,t_bool)"
							},
							{
								"astId": 340,
								"contract": "1127/DomainLogic.sol:DomainContract",
								"label": "adminRole",
								"offset": 0,
								"slot": "1",
								"type": "t_bytes32"
							}
						],
						"numberOfBytes": "64"
					}
				}
			},
			"userdoc": {
				"kind": "user",
				"methods": {},
				"version": 1
			}
		}
	}
}