{
	"data": {
		"bytecode": {
			"linkReferences": {},
			"object": "608060405234801561001057600080fd5b50610c68806100206000396000f3fe608060405234801561001057600080fd5b50600436106100575760003560e01c8063609f70701461005c57806360e015941461008c578063a1f7ed1a146100bc578063cfb51928146100ec578063ff74927b1461011c575b600080fd5b610076600480360381019061007191906107db565b61014c565b604051610083919061090a565b60405180910390f35b6100a660048036038101906100a1919061092c565b610224565b6040516100b3919061098e565b60405180910390f35b6100d660048036038101906100d191906109df565b610236565b6040516100e3919061090a565b60405180910390f35b6101066004803603810190610101919061092c565b610290565b604051610113919061098e565b60405180910390f35b61013660048036038101906101319190610a3b565b6102c0565b604051610143919061090a565b60405180910390f35b606061021b6101d76101936040518060400160405280600a81526020017f436f6e74726163743a2000000000000000000000000000000000000000000000815250876102c0565b6101d26040518060400160405280600b81526020017f2c46756e6374696f6e3a20000000000000000000000000000000000000000000815250876102c0565b6102c0565b6102166040518060400160405280600a81526020017f2c4d6573736167653a2000000000000000000000000000000000000000000000815250856102c0565b6102c0565b90509392505050565b600061022f82610290565b9050919050565b606061028861027a846040518060400160405280600181526020017f3a000000000000000000000000000000000000000000000000000000000000008152506102c0565b61028384610456565b6102c0565b905092915050565b6000816040516020016102a39190610aef565b604051602081830303815290604052805190602001209050919050565b6060600083905060008390506000815183516102dc9190610b35565b67ffffffffffffffff8111156102f5576102f46106b0565b5b6040519080825280601f01601f1916602001820160405280156103275781602001600182028036833780820191505090505b50905060008190506000805b85518110156103bb5785818151811061034f5761034e610b8b565b5b602001015160f81c60f81b83838061036690610bba565b94508151811061037957610378610b8b565b5b60200101907effffffffffffffffffffffffffffffffffffffffffffffffffffffffffffff1916908160001a90535080806103b390610bba565b915050610333565b5060005b8451811015610447578481815181106103db576103da610b8b565b5b602001015160f81c60f81b8383806103f290610bba565b94508151811061040557610404610b8b565b5b60200101907effffffffffffffffffffffffffffffffffffffffffffffffffffffffffffff1916908160001a905350808061043f90610bba565b9150506103bf565b50829550505050505092915050565b6060600060016104658461052e565b01905060008167ffffffffffffffff811115610484576104836106b0565b5b6040519080825280601f01601f1916602001820160405280156104b65781602001600182028036833780820191505090505b509050600082602001820190505b600115610523578080600190039150507f3031323334353637383961626364656600000000000000000000000000000000600a86061a8153600a858161050d5761050c610c03565b5b049450600085141561051e57610523565b6104c4565b819350505050919050565b600080600090507a184f03e93ff9f4daa797ed6e38ed64bf6a1f010000000000000000831061058c577a184f03e93ff9f4daa797ed6e38ed64bf6a1f010000000000000000838161058257610581610c03565b5b0492506040810190505b6d04ee2d6d415b85acef810000000083106105c9576d04ee2d6d415b85acef810000000083816105bf576105be610c03565b5b0492506020810190505b662386f26fc1000083106105f857662386f26fc1000083816105ee576105ed610c03565b5b0492506010810190505b6305f5e1008310610621576305f5e100838161061757610616610c03565b5b0492506008810190505b612710831061064657612710838161063c5761063b610c03565b5b0492506004810190505b60648310610669576064838161065f5761065e610c03565b5b0492506002810190505b600a8310610678576001810190505b80915050919050565b6000604051905090565b600080fd5b600080fd5b600080fd5b600080fd5b6000601f19601f8301169050919050565b7f4e487b7100000000000000000000000000000000000000000000000000000000600052604160045260246000fd5b6106e88261069f565b810181811067ffffffffffffffff82111715610707576107066106b0565b5b80604052505050565b600061071a610681565b905061072682826106df565b919050565b600067ffffffffffffffff821115610746576107456106b0565b5b61074f8261069f565b9050602081019050919050565b82818337600083830152505050565b600061077e6107798461072b565b610710565b90508281526020810184848401111561079a5761079961069a565b5b6107a584828561075c565b509392505050565b600082601f8301126107c2576107c1610695565b5b81356107d284826020860161076b565b91505092915050565b6000806000606084860312156107f4576107f361068b565b5b600084013567ffffffffffffffff81111561081257610811610690565b5b61081e868287016107ad565b935050602084013567ffffffffffffffff81111561083f5761083e610690565b5b61084b868287016107ad565b925050604084013567ffffffffffffffff81111561086c5761086b610690565b5b610878868287016107ad565b9150509250925092565b600081519050919050565b600082825260208201905092915050565b60005b838110156108bc5780820151818401526020810190506108a1565b838111156108cb576000848401525b50505050565b60006108dc82610882565b6108e6818561088d565b93506108f681856020860161089e565b6108ff8161069f565b840191505092915050565b6000602082019050818103600083015261092481846108d1565b905092915050565b6000602082840312156109425761094161068b565b5b600082013567ffffffffffffffff8111156109605761095f610690565b5b61096c848285016107ad565b91505092915050565b6000819050919050565b61098881610975565b82525050565b60006020820190506109a3600083018461097f565b92915050565b6000819050919050565b6109bc816109a9565b81146109c757600080fd5b50565b6000813590506109d9816109b3565b92915050565b600080604083850312156109f6576109f561068b565b5b600083013567ffffffffffffffff811115610a1457610a13610690565b5b610a20858286016107ad565b9250506020610a31858286016109ca565b9150509250929050565b60008060408385031215610a5257610a5161068b565b5b600083013567ffffffffffffffff811115610a7057610a6f610690565b5b610a7c858286016107ad565b925050602083013567ffffffffffffffff811115610a9d57610a9c610690565b5b610aa9858286016107ad565b9150509250929050565b600081905092915050565b6000610ac982610882565b610ad38185610ab3565b9350610ae381856020860161089e565b80840191505092915050565b6000610afb8284610abe565b915081905092915050565b7f4e487b7100000000000000000000000000000000000000000000000000000000600052601160045260246000fd5b6000610b40826109a9565b9150610b4b836109a9565b9250827fffffffffffffffffffffffffffffffffffffffffffffffffffffffffffffffff03821115610b8057610b7f610b06565b5b828201905092915050565b7f4e487b7100000000000000000000000000000000000000000000000000000000600052603260045260246000fd5b6000610bc5826109a9565b91507fffffffffffffffffffffffffffffffffffffffffffffffffffffffffffffffff821415610bf857610bf7610b06565b5b600182019050919050565b7f4e487b7100000000000000000000000000000000000000000000000000000000600052601260045260246000fdfea26469706673582212204192249c1e7580b7c8b3a5606ff396d458efa790b20497fb3fac8bab6f3b6b1864736f6c634300080b0033",
			"opcodes": "PUSH1 0x80 PUSH1 0x40 MSTORE CALLVALUE DUP1 ISZERO PUSH2 0x10 JUMPI PUSH1 0x0 DUP1 REVERT JUMPDEST POP PUSH2 0xC68 DUP1 PUSH2 0x20 PUSH1 0x0 CODECOPY PUSH1 0x0 RETURN INVALID PUSH1 0x80 PUSH1 0x40 MSTORE CALLVALUE DUP1 ISZERO PUSH2 0x10 JUMPI PUSH1 0x0 DUP1 REVERT JUMPDEST POP PUSH1 0x4 CALLDATASIZE LT PUSH2 0x57 JUMPI PUSH1 0x0 CALLDATALOAD PUSH1 0xE0 SHR DUP1 PUSH4 0x609F7070 EQ PUSH2 0x5C JUMPI DUP1 PUSH4 0x60E01594 EQ PUSH2 0x8C JUMPI DUP1 PUSH4 0xA1F7ED1A EQ PUSH2 0xBC JUMPI DUP1 PUSH4 0xCFB51928 EQ PUSH2 0xEC JUMPI DUP1 PUSH4 0xFF74927B EQ PUSH2 0x11C JUMPI JUMPDEST PUSH1 0x0 DUP1 REVERT JUMPDEST PUSH2 0x76 PUSH1 0x4 DUP1 CALLDATASIZE SUB DUP2 ADD SWAP1 PUSH2 0x71 SWAP2 SWAP1 PUSH2 0x7DB JUMP JUMPDEST PUSH2 0x14C JUMP JUMPDEST PUSH1 0x40 MLOAD PUSH2 0x83 SWAP2 SWAP1 PUSH2 0x90A JUMP JUMPDEST PUSH1 0x40 MLOAD DUP1 SWAP2 SUB SWAP1 RETURN JUMPDEST PUSH2 0xA6 PUSH1 0x4 DUP1 CALLDATASIZE SUB DUP2 ADD SWAP1 PUSH2 0xA1 SWAP2 SWAP1 PUSH2 0x92C JUMP JUMPDEST PUSH2 0x224 JUMP JUMPDEST PUSH1 0x40 MLOAD PUSH2 0xB3 SWAP2 SWAP1 PUSH2 0x98E JUMP JUMPDEST PUSH1 0x40 MLOAD DUP1 SWAP2 SUB SWAP1 RETURN JUMPDEST PUSH2 0xD6 PUSH1 0x4 DUP1 CALLDATASIZE SUB DUP2 ADD SWAP1 PUSH2 0xD1 SWAP2 SWAP1 PUSH2 0x9DF JUMP JUMPDEST PUSH2 0x236 JUMP JUMPDEST PUSH1 0x40 MLOAD PUSH2 0xE3 SWAP2 SWAP1 PUSH2 0x90A JUMP JUMPDEST PUSH1 0x40 MLOAD DUP1 SWAP2 SUB SWAP1 RETURN JUMPDEST PUSH2 0x106 PUSH1 0x4 DUP1 CALLDATASIZE SUB DUP2 ADD SWAP1 PUSH2 0x101 SWAP2 SWAP1 PUSH2 0x92C JUMP JUMPDEST PUSH2 0x290 JUMP JUMPDEST PUSH1 0x40 MLOAD PUSH2 0x113 SWAP2 SWAP1 PUSH2 0x98E JUMP JUMPDEST PUSH1 0x40 MLOAD DUP1 SWAP2 SUB SWAP1 RETURN JUMPDEST PUSH2 0x136 PUSH1 0x4 DUP1 CALLDATASIZE SUB DUP2 ADD SWAP1 PUSH2 0x131 SWAP2 SWAP1 PUSH2 0xA3B JUMP JUMPDEST PUSH2 0x2C0 JUMP JUMPDEST PUSH1 0x40 MLOAD PUSH2 0x143 SWAP2 SWAP1 PUSH2 0x90A JUMP JUMPDEST PUSH1 0x40 MLOAD DUP1 SWAP2 SUB SWAP1 RETURN JUMPDEST PUSH1 0x60 PUSH2 0x21B PUSH2 0x1D7 PUSH2 0x193 PUSH1 0x40 MLOAD DUP1 PUSH1 0x40 ADD PUSH1 0x40 MSTORE DUP1 PUSH1 0xA DUP2 MSTORE PUSH1 0x20 ADD PUSH32 0x436F6E74726163743A2000000000000000000000000000000000000000000000 DUP2 MSTORE POP DUP8 PUSH2 0x2C0 JUMP JUMPDEST PUSH2 0x1D2 PUSH1 0x40 MLOAD DUP1 PUSH1 0x40 ADD PUSH1 0x40 MSTORE DUP1 PUSH1 0xB DUP2 MSTORE PUSH1 0x20 ADD PUSH32 0x2C46756E6374696F6E3A20000000000000000000000000000000000000000000 DUP2 MSTORE POP DUP8 PUSH2 0x2C0 JUMP JUMPDEST PUSH2 0x2C0 JUMP JUMPDEST PUSH2 0x216 PUSH1 0x40 MLOAD DUP1 PUSH1 0x40 ADD PUSH1 0x40 MSTORE DUP1 PUSH1 0xA DUP2 MSTORE PUSH1 0x20 ADD PUSH32 0x2C4D6573736167653A2000000000000000000000000000000000000000000000 DUP2 MSTORE POP DUP6 PUSH2 0x2C0 JUMP JUMPDEST PUSH2 0x2C0 JUMP JUMPDEST SWAP1 POP SWAP4 SWAP3 POP POP POP JUMP JUMPDEST PUSH1 0x0 PUSH2 0x22F DUP3 PUSH2 0x290 JUMP JUMPDEST SWAP1 POP SWAP2 SWAP1 POP JUMP JUMPDEST PUSH1 0x60 PUSH2 0x288 PUSH2 0x27A DUP5 PUSH1 0x40 MLOAD DUP1 PUSH1 0x40 ADD PUSH1 0x40 MSTORE DUP1 PUSH1 0x1 DUP2 MSTORE PUSH1 0x20 ADD PUSH32 0x3A00000000000000000000000000000000000000000000000000000000000000 DUP2 MSTORE POP PUSH2 0x2C0 JUMP JUMPDEST PUSH2 0x283 DUP5 PUSH2 0x456 JUMP JUMPDEST PUSH2 0x2C0 JUMP JUMPDEST SWAP1 POP SWAP3 SWAP2 POP POP JUMP JUMPDEST PUSH1 0x0 DUP2 PUSH1 0x40 MLOAD PUSH1 0x20 ADD PUSH2 0x2A3 SWAP2 SWAP1 PUSH2 0xAEF JUMP JUMPDEST PUSH1 0x40 MLOAD PUSH1 0x20 DUP2 DUP4 SUB SUB DUP2 MSTORE SWAP1 PUSH1 0x40 MSTORE DUP1 MLOAD SWAP1 PUSH1 0x20 ADD KECCAK256 SWAP1 POP SWAP2 SWAP1 POP JUMP JUMPDEST PUSH1 0x60 PUSH1 0x0 DUP4 SWAP1 POP PUSH1 0x0 DUP4 SWAP1 POP PUSH1 0x0 DUP2 MLOAD DUP4 MLOAD PUSH2 0x2DC SWAP2 SWAP1 PUSH2 0xB35 JUMP JUMPDEST PUSH8 0xFFFFFFFFFFFFFFFF DUP2 GT ISZERO PUSH2 0x2F5 JUMPI PUSH2 0x2F4 PUSH2 0x6B0 JUMP JUMPDEST JUMPDEST PUSH1 0x40 MLOAD SWAP1 DUP1 DUP3 MSTORE DUP1 PUSH1 0x1F ADD PUSH1 0x1F NOT AND PUSH1 0x20 ADD DUP3 ADD PUSH1 0x40 MSTORE DUP1 ISZERO PUSH2 0x327 JUMPI DUP2 PUSH1 0x20 ADD PUSH1 0x1 DUP3 MUL DUP1 CALLDATASIZE DUP4 CALLDATACOPY DUP1 DUP3 ADD SWAP2 POP POP SWAP1 POP JUMPDEST POP SWAP1 POP PUSH1 0x0 DUP2 SWAP1 POP PUSH1 0x0 DUP1 JUMPDEST DUP6 MLOAD DUP2 LT ISZERO PUSH2 0x3BB JUMPI DUP6 DUP2 DUP2 MLOAD DUP2 LT PUSH2 0x34F JUMPI PUSH2 0x34E PUSH2 0xB8B JUMP JUMPDEST JUMPDEST PUSH1 0x20 ADD ADD MLOAD PUSH1 0xF8 SHR PUSH1 0xF8 SHL DUP4 DUP4 DUP1 PUSH2 0x366 SWAP1 PUSH2 0xBBA JUMP JUMPDEST SWAP5 POP DUP2 MLOAD DUP2 LT PUSH2 0x379 JUMPI PUSH2 0x378 PUSH2 0xB8B JUMP JUMPDEST JUMPDEST PUSH1 0x20 ADD ADD SWAP1 PUSH31 0xFFFFFFFFFFFFFFFFFFFFFFFFFFFFFFFFFFFFFFFFFFFFFFFFFFFFFFFFFFFFFF NOT AND SWAP1 DUP2 PUSH1 0x0 BYTE SWAP1 MSTORE8 POP DUP1 DUP1 PUSH2 0x3B3 SWAP1 PUSH2 0xBBA JUMP JUMPDEST SWAP2 POP POP PUSH2 0x333 JUMP JUMPDEST POP PUSH1 0x0 JUMPDEST DUP5 MLOAD DUP2 LT ISZERO PUSH2 0x447 JUMPI DUP5 DUP2 DUP2 MLOAD DUP2 LT PUSH2 0x3DB JUMPI PUSH2 0x3DA PUSH2 0xB8B JUMP JUMPDEST JUMPDEST PUSH1 0x20 ADD ADD MLOAD PUSH1 0xF8 SHR PUSH1 0xF8 SHL DUP4 DUP4 DUP1 PUSH2 0x3F2 SWAP1 PUSH2 0xBBA JUMP JUMPDEST SWAP5 POP DUP2 MLOAD DUP2 LT PUSH2 0x405 JUMPI PUSH2 0x404 PUSH2 0xB8B JUMP JUMPDEST JUMPDEST PUSH1 0x20 ADD ADD SWAP1 PUSH31 0xFFFFFFFFFFFFFFFFFFFFFFFFFFFFFFFFFFFFFFFFFFFFFFFFFFFFFFFFFFFFFF NOT AND SWAP1 DUP2 PUSH1 0x0 BYTE SWAP1 MSTORE8 POP DUP1 DUP1 PUSH2 0x43F SWAP1 PUSH2 0xBBA JUMP JUMPDEST SWAP2 POP POP PUSH2 0x3BF JUMP JUMPDEST POP DUP3 SWAP6 POP POP POP POP POP POP SWAP3 SWAP2 POP POP JUMP JUMPDEST PUSH1 0x60 PUSH1 0x0 PUSH1 0x1 PUSH2 0x465 DUP5 PUSH2 0x52E JUMP JUMPDEST ADD SWAP1 POP PUSH1 0x0 DUP2 PUSH8 0xFFFFFFFFFFFFFFFF DUP2 GT ISZERO PUSH2 0x484 JUMPI PUSH2 0x483 PUSH2 0x6B0 JUMP JUMPDEST JUMPDEST PUSH1 0x40 MLOAD SWAP1 DUP1 DUP3 MSTORE DUP1 PUSH1 0x1F ADD PUSH1 0x1F NOT AND PUSH1 0x20 ADD DUP3 ADD PUSH1 0x40 MSTORE DUP1 ISZERO PUSH2 0x4B6 JUMPI DUP2 PUSH1 0x20 ADD PUSH1 0x1 DUP3 MUL DUP1 CALLDATASIZE DUP4 CALLDATACOPY DUP1 DUP3 ADD SWAP2 POP POP SWAP1 POP JUMPDEST POP SWAP1 POP PUSH1 0x0 DUP3 PUSH1 0x20 ADD DUP3 ADD SWAP1 POP JUMPDEST PUSH1 0x1 ISZERO PUSH2 0x523 JUMPI DUP1 DUP1 PUSH1 0x1 SWAP1 SUB SWAP2 POP POP PUSH32 0x3031323334353637383961626364656600000000000000000000000000000000 PUSH1 0xA DUP7 MOD BYTE DUP2 MSTORE8 PUSH1 0xA DUP6 DUP2 PUSH2 0x50D JUMPI PUSH2 0x50C PUSH2 0xC03 JUMP JUMPDEST JUMPDEST DIV SWAP5 POP PUSH1 0x0 DUP6 EQ ISZERO PUSH2 0x51E JUMPI PUSH2 0x523 JUMP JUMPDEST PUSH2 0x4C4 JUMP JUMPDEST DUP2 SWAP4 POP POP POP POP SWAP2 SWAP1 POP JUMP JUMPDEST PUSH1 0x0 DUP1 PUSH1 0x0 SWAP1 POP PUSH27 0x184F03E93FF9F4DAA797ED6E38ED64BF6A1F010000000000000000 DUP4 LT PUSH2 0x58C JUMPI PUSH27 0x184F03E93FF9F4DAA797ED6E38ED64BF6A1F010000000000000000 DUP4 DUP2 PUSH2 0x582 JUMPI PUSH2 0x581 PUSH2 0xC03 JUMP JUMPDEST JUMPDEST DIV SWAP3 POP PUSH1 0x40 DUP2 ADD SWAP1 POP JUMPDEST PUSH14 0x4EE2D6D415B85ACEF8100000000 DUP4 LT PUSH2 0x5C9 JUMPI PUSH14 0x4EE2D6D415B85ACEF8100000000 DUP4 DUP2 PUSH2 0x5BF JUMPI PUSH2 0x5BE PUSH2 0xC03 JUMP JUMPDEST JUMPDEST DIV SWAP3 POP PUSH1 0x20 DUP2 ADD SWAP1 POP JUMPDEST PUSH7 0x2386F26FC10000 DUP4 LT PUSH2 0x5F8 JUMPI PUSH7 0x2386F26FC10000 DUP4 DUP2 PUSH2 0x5EE JUMPI PUSH2 0x5ED PUSH2 0xC03 JUMP JUMPDEST JUMPDEST DIV SWAP3 POP PUSH1 0x10 DUP2 ADD SWAP1 POP JUMPDEST PUSH4 0x5F5E100 DUP4 LT PUSH2 0x621 JUMPI PUSH4 0x5F5E100 DUP4 DUP2 PUSH2 0x617 JUMPI PUSH2 0x616 PUSH2 0xC03 JUMP JUMPDEST JUMPDEST DIV SWAP3 POP PUSH1 0x8 DUP2 ADD SWAP1 POP JUMPDEST PUSH2 0x2710 DUP4 LT PUSH2 0x646 JUMPI PUSH2 0x2710 DUP4 DUP2 PUSH2 0x63C JUMPI PUSH2 0x63B PUSH2 0xC03 JUMP JUMPDEST JUMPDEST DIV SWAP3 POP PUSH1 0x4 DUP2 ADD SWAP1 POP JUMPDEST PUSH1 0x64 DUP4 LT PUSH2 0x669 JUMPI PUSH1 0x64 DUP4 DUP2 PUSH2 0x65F JUMPI PUSH2 0x65E PUSH2 0xC03 JUMP JUMPDEST JUMPDEST DIV SWAP3 POP PUSH1 0x2 DUP2 ADD SWAP1 POP JUMPDEST PUSH1 0xA DUP4 LT PUSH2 0x678 JUMPI PUSH1 0x1 DUP2 ADD SWAP1 POP JUMPDEST DUP1 SWAP2 POP POP SWAP2 SWAP1 POP JUMP JUMPDEST PUSH1 0x0 PUSH1 0x40 MLOAD SWAP1 POP SWAP1 JUMP JUMPDEST PUSH1 0x0 DUP1 REVERT JUMPDEST PUSH1 0x0 DUP1 REVERT JUMPDEST PUSH1 0x0 DUP1 REVERT JUMPDEST PUSH1 0x0 DUP1 REVERT JUMPDEST PUSH1 0x0 PUSH1 0x1F NOT PUSH1 0x1F DUP4 ADD AND SWAP1 POP SWAP2 SWAP1 POP JUMP JUMPDEST PUSH32 0x4E487B7100000000000000000000000000000000000000000000000000000000 PUSH1 0x0 MSTORE PUSH1 0x41 PUSH1 0x4 MSTORE PUSH1 0x24 PUSH1 0x0 REVERT JUMPDEST PUSH2 0x6E8 DUP3 PUSH2 0x69F JUMP JUMPDEST DUP2 ADD DUP2 DUP2 LT PUSH8 0xFFFFFFFFFFFFFFFF DUP3 GT OR ISZERO PUSH2 0x707 JUMPI PUSH2 0x706 PUSH2 0x6B0 JUMP JUMPDEST JUMPDEST DUP1 PUSH1 0x40 MSTORE POP POP POP JUMP JUMPDEST PUSH1 0x0 PUSH2 0x71A PUSH2 0x681 JUMP JUMPDEST SWAP1 POP PUSH2 0x726 DUP3 DUP3 PUSH2 0x6DF JUMP JUMPDEST SWAP2 SWAP1 POP JUMP JUMPDEST PUSH1 0x0 PUSH8 0xFFFFFFFFFFFFFFFF DUP3 GT ISZERO PUSH2 0x746 JUMPI PUSH2 0x745 PUSH2 0x6B0 JUMP JUMPDEST JUMPDEST PUSH2 0x74F DUP3 PUSH2 0x69F JUMP JUMPDEST SWAP1 POP PUSH1 0x20 DUP2 ADD SWAP1 POP SWAP2 SWAP1 POP JUMP JUMPDEST DUP3 DUP2 DUP4 CALLDATACOPY PUSH1 0x0 DUP4 DUP4 ADD MSTORE POP POP POP JUMP JUMPDEST PUSH1 0x0 PUSH2 0x77E PUSH2 0x779 DUP5 PUSH2 0x72B JUMP JUMPDEST PUSH2 0x710 JUMP JUMPDEST SWAP1 POP DUP3 DUP2 MSTORE PUSH1 0x20 DUP2 ADD DUP5 DUP5 DUP5 ADD GT ISZERO PUSH2 0x79A JUMPI PUSH2 0x799 PUSH2 0x69A JUMP JUMPDEST JUMPDEST PUSH2 0x7A5 DUP5 DUP3 DUP6 PUSH2 0x75C JUMP JUMPDEST POP SWAP4 SWAP3 POP POP POP JUMP JUMPDEST PUSH1 0x0 DUP3 PUSH1 0x1F DUP4 ADD SLT PUSH2 0x7C2 JUMPI PUSH2 0x7C1 PUSH2 0x695 JUMP JUMPDEST JUMPDEST DUP2 CALLDATALOAD PUSH2 0x7D2 DUP5 DUP3 PUSH1 0x20 DUP7 ADD PUSH2 0x76B JUMP JUMPDEST SWAP2 POP POP SWAP3 SWAP2 POP POP JUMP JUMPDEST PUSH1 0x0 DUP1 PUSH1 0x0 PUSH1 0x60 DUP5 DUP7 SUB SLT ISZERO PUSH2 0x7F4 JUMPI PUSH2 0x7F3 PUSH2 0x68B JUMP JUMPDEST JUMPDEST PUSH1 0x0 DUP5 ADD CALLDATALOAD PUSH8 0xFFFFFFFFFFFFFFFF DUP2 GT ISZERO PUSH2 0x812 JUMPI PUSH2 0x811 PUSH2 0x690 JUMP JUMPDEST JUMPDEST PUSH2 0x81E DUP7 DUP3 DUP8 ADD PUSH2 0x7AD JUMP JUMPDEST SWAP4 POP POP PUSH1 0x20 DUP5 ADD CALLDATALOAD PUSH8 0xFFFFFFFFFFFFFFFF DUP2 GT ISZERO PUSH2 0x83F JUMPI PUSH2 0x83E PUSH2 0x690 JUMP JUMPDEST JUMPDEST PUSH2 0x84B DUP7 DUP3 DUP8 ADD PUSH2 0x7AD JUMP JUMPDEST SWAP3 POP POP PUSH1 0x40 DUP5 ADD CALLDATALOAD PUSH8 0xFFFFFFFFFFFFFFFF DUP2 GT ISZERO PUSH2 0x86C JUMPI PUSH2 0x86B PUSH2 0x690 JUMP JUMPDEST JUMPDEST PUSH2 0x878 DUP7 DUP3 DUP8 ADD PUSH2 0x7AD JUMP JUMPDEST SWAP2 POP POP SWAP3 POP SWAP3 POP SWAP3 JUMP JUMPDEST PUSH1 0x0 DUP2 MLOAD SWAP1 POP SWAP2 SWAP1 POP JUMP JUMPDEST PUSH1 0x0 DUP3 DUP3 MSTORE PUSH1 0x20 DUP3 ADD SWAP1 POP SWAP3 SWAP2 POP POP JUMP JUMPDEST PUSH1 0x0 JUMPDEST DUP4 DUP2 LT ISZERO PUSH2 0x8BC JUMPI DUP1 DUP3 ADD MLOAD DUP2 DUP5 ADD MSTORE PUSH1 0x20 DUP2 ADD SWAP1 POP PUSH2 0x8A1 JUMP JUMPDEST DUP4 DUP2 GT ISZERO PUSH2 0x8CB JUMPI PUSH1 0x0 DUP5 DUP5 ADD MSTORE JUMPDEST POP POP POP POP JUMP JUMPDEST PUSH1 0x0 PUSH2 0x8DC DUP3 PUSH2 0x882 JUMP JUMPDEST PUSH2 0x8E6 DUP2 DUP6 PUSH2 0x88D JUMP JUMPDEST SWAP4 POP PUSH2 0x8F6 DUP2 DUP6 PUSH1 0x20 DUP7 ADD PUSH2 0x89E JUMP JUMPDEST PUSH2 0x8FF DUP2 PUSH2 0x69F JUMP JUMPDEST DUP5 ADD SWAP2 POP POP SWAP3 SWAP2 POP POP JUMP JUMPDEST PUSH1 0x0 PUSH1 0x20 DUP3 ADD SWAP1 POP DUP2 DUP2 SUB PUSH1 0x0 DUP4 ADD MSTORE PUSH2 0x924 DUP2 DUP5 PUSH2 0x8D1 JUMP JUMPDEST SWAP1 POP SWAP3 SWAP2 POP POP JUMP JUMPDEST PUSH1 0x0 PUSH1 0x20 DUP3 DUP5 SUB SLT ISZERO PUSH2 0x942 JUMPI PUSH2 0x941 PUSH2 0x68B JUMP JUMPDEST JUMPDEST PUSH1 0x0 DUP3 ADD CALLDATALOAD PUSH8 0xFFFFFFFFFFFFFFFF DUP2 GT ISZERO PUSH2 0x960 JUMPI PUSH2 0x95F PUSH2 0x690 JUMP JUMPDEST JUMPDEST PUSH2 0x96C DUP5 DUP3 DUP6 ADD PUSH2 0x7AD JUMP JUMPDEST SWAP2 POP POP SWAP3 SWAP2 POP POP JUMP JUMPDEST PUSH1 0x0 DUP2 SWAP1 POP SWAP2 SWAP1 POP JUMP JUMPDEST PUSH2 0x988 DUP2 PUSH2 0x975 JUMP JUMPDEST DUP3 MSTORE POP POP JUMP JUMPDEST PUSH1 0x0 PUSH1 0x20 DUP3 ADD SWAP1 POP PUSH2 0x9A3 PUSH1 0x0 DUP4 ADD DUP5 PUSH2 0x97F JUMP JUMPDEST SWAP3 SWAP2 POP POP JUMP JUMPDEST PUSH1 0x0 DUP2 SWAP1 POP SWAP2 SWAP1 POP JUMP JUMPDEST PUSH2 0x9BC DUP2 PUSH2 0x9A9 JUMP JUMPDEST DUP2 EQ PUSH2 0x9C7 JUMPI PUSH1 0x0 DUP1 REVERT JUMPDEST POP JUMP JUMPDEST PUSH1 0x0 DUP2 CALLDATALOAD SWAP1 POP PUSH2 0x9D9 DUP2 PUSH2 0x9B3 JUMP JUMPDEST SWAP3 SWAP2 POP POP JUMP JUMPDEST PUSH1 0x0 DUP1 PUSH1 0x40 DUP4 DUP6 SUB SLT ISZERO PUSH2 0x9F6 JUMPI PUSH2 0x9F5 PUSH2 0x68B JUMP JUMPDEST JUMPDEST PUSH1 0x0 DUP4 ADD CALLDATALOAD PUSH8 0xFFFFFFFFFFFFFFFF DUP2 GT ISZERO PUSH2 0xA14 JUMPI PUSH2 0xA13 PUSH2 0x690 JUMP JUMPDEST JUMPDEST PUSH2 0xA20 DUP6 DUP3 DUP7 ADD PUSH2 0x7AD JUMP JUMPDEST SWAP3 POP POP PUSH1 0x20 PUSH2 0xA31 DUP6 DUP3 DUP7 ADD PUSH2 0x9CA JUMP JUMPDEST SWAP2 POP POP SWAP3 POP SWAP3 SWAP1 POP JUMP JUMPDEST PUSH1 0x0 DUP1 PUSH1 0x40 DUP4 DUP6 SUB SLT ISZERO PUSH2 0xA52 JUMPI PUSH2 0xA51 PUSH2 0x68B JUMP JUMPDEST JUMPDEST PUSH1 0x0 DUP4 ADD CALLDATALOAD PUSH8 0xFFFFFFFFFFFFFFFF DUP2 GT ISZERO PUSH2 0xA70 JUMPI PUSH2 0xA6F PUSH2 0x690 JUMP JUMPDEST JUMPDEST PUSH2 0xA7C DUP6 DUP3 DUP7 ADD PUSH2 0x7AD JUMP JUMPDEST SWAP3 POP POP PUSH1 0x20 DUP4 ADD CALLDATALOAD PUSH8 0xFFFFFFFFFFFFFFFF DUP2 GT ISZERO PUSH2 0xA9D JUMPI PUSH2 0xA9C PUSH2 0x690 JUMP JUMPDEST JUMPDEST PUSH2 0xAA9 DUP6 DUP3 DUP7 ADD PUSH2 0x7AD JUMP JUMPDEST SWAP2 POP POP SWAP3 POP SWAP3 SWAP1 POP JUMP JUMPDEST PUSH1 0x0 DUP2 SWAP1 POP SWAP3 SWAP2 POP POP JUMP JUMPDEST PUSH1 0x0 PUSH2 0xAC9 DUP3 PUSH2 0x882 JUMP JUMPDEST PUSH2 0xAD3 DUP2 DUP6 PUSH2 0xAB3 JUMP JUMPDEST SWAP4 POP PUSH2 0xAE3 DUP2 DUP6 PUSH1 0x20 DUP7 ADD PUSH2 0x89E JUMP JUMPDEST DUP1 DUP5 ADD SWAP2 POP POP SWAP3 SWAP2 POP POP JUMP JUMPDEST PUSH1 0x0 PUSH2 0xAFB DUP3 DUP5 PUSH2 0xABE JUMP JUMPDEST SWAP2 POP DUP2 SWAP1 POP SWAP3 SWAP2 POP POP JUMP JUMPDEST PUSH32 0x4E487B7100000000000000000000000000000000000000000000000000000000 PUSH1 0x0 MSTORE PUSH1 0x11 PUSH1 0x4 MSTORE PUSH1 0x24 PUSH1 0x0 REVERT JUMPDEST PUSH1 0x0 PUSH2 0xB40 DUP3 PUSH2 0x9A9 JUMP JUMPDEST SWAP2 POP PUSH2 0xB4B DUP4 PUSH2 0x9A9 JUMP JUMPDEST SWAP3 POP DUP3 PUSH32 0xFFFFFFFFFFFFFFFFFFFFFFFFFFFFFFFFFFFFFFFFFFFFFFFFFFFFFFFFFFFFFFFF SUB DUP3 GT ISZERO PUSH2 0xB80 JUMPI PUSH2 0xB7F PUSH2 0xB06 JUMP JUMPDEST JUMPDEST DUP3 DUP3 ADD SWAP1 POP SWAP3 SWAP2 POP POP JUMP JUMPDEST PUSH32 0x4E487B7100000000000000000000000000000000000000000000000000000000 PUSH1 0x0 MSTORE PUSH1 0x32 PUSH1 0x4 MSTORE PUSH1 0x24 PUSH1 0x0 REVERT JUMPDEST PUSH1 0x0 PUSH2 0xBC5 DUP3 PUSH2 0x9A9 JUMP JUMPDEST SWAP2 POP PUSH32 0xFFFFFFFFFFFFFFFFFFFFFFFFFFFFFFFFFFFFFFFFFFFFFFFFFFFFFFFFFFFFFFFF DUP3 EQ ISZERO PUSH2 0xBF8 JUMPI PUSH2 0xBF7 PUSH2 0xB06 JUMP JUMPDEST JUMPDEST PUSH1 0x1 DUP3 ADD SWAP1 POP SWAP2 SWAP1 POP JUMP JUMPDEST PUSH32 0x4E487B7100000000000000000000000000000000000000000000000000000000 PUSH1 0x0 MSTORE PUSH1 0x12 PUSH1 0x4 MSTORE PUSH1 0x24 PUSH1 0x0 REVERT INVALID LOG2 PUSH5 0x6970667358 0x22 SLT KECCAK256 COINBASE SWAP3 0x24 SWAP13 0x1E PUSH22 0x80B7C8B3A5606FF396D458EFA790B20497FB3FAC8BAB PUSH16 0x3B6B1864736F6C634300080B00330000 "
		},
		"gasEstimates": {
			"creation": {
				"codeDepositCost": "635200",
				"executionCost": "670",
				"totalCost": "635870"
			},
			"external": {
				"error(string,string,string)": "infinite",
				"strConcat(string,string)": "infinite",
				"stringToBytes32(string)": "infinite",
				"toAssetIndex(string,uint256)": "infinite",
				"toRole(string)": "infinite"
			},
			"internal": {
				"toString(uint256)": "infinite"
			}
		},
		"methodIdentifiers": {
			"error(string,string,string)": "609f7070",
			"strConcat(string,string)": "ff74927b",
			"stringToBytes32(string)": "cfb51928",
			"toAssetIndex(string,uint256)": "a1f7ed1a",
			"toRole(string)": "60e01594"
		}
	},
	"abi": [
		{
			"inputs": [
				{
					"internalType": "string",
					"name": "_contract",
					"type": "string"
				},
				{
					"internalType": "string",
					"name": "_function",
					"type": "string"
				},
				{
					"internalType": "string",
					"name": "_msg",
					"type": "string"
				}
			],
			"name": "error",
			"outputs": [
				{
					"internalType": "string",
					"name": "",
					"type": "string"
				}
			],
			"stateMutability": "pure",
			"type": "function"
		},
		{
			"inputs": [
				{
					"internalType": "string",
					"name": "_a",
					"type": "string"
				},
				{
					"internalType": "string",
					"name": "_b",
					"type": "string"
				}
			],
			"name": "strConcat",
			"outputs": [
				{
					"internalType": "string",
					"name": "",
					"type": "string"
				}
			],
			"stateMutability": "pure",
			"type": "function"
		},
		{
			"inputs": [
				{
					"internalType": "string",
					"name": "str",
					"type": "string"
				}
			],
			"name": "stringToBytes32",
			"outputs": [
				{
					"internalType": "bytes32",
					"name": "",
					"type": "bytes32"
				}
			],
			"stateMutability": "pure",
			"type": "function"
		},
		{
			"inputs": [
				{
					"internalType": "string",
					"name": "_group",
					"type": "string"
				},
				{
					"internalType": "uint256",
					"name": "id",
					"type": "uint256"
				}
			],
			"name": "toAssetIndex",
			"outputs": [
				{
					"internalType": "string",
					"name": "",
					"type": "string"
				}
			],
			"stateMutability": "pure",
			"type": "function"
		},
		{
			"inputs": [
				{
					"internalType": "string",
					"name": "str",
					"type": "string"
				}
			],
			"name": "toRole",
			"outputs": [
				{
					"internalType": "bytes32",
					"name": "",
					"type": "bytes32"
				}
			],
			"stateMutability": "pure",
			"type": "function"
		}
	]
}