{
	"data": {
		"bytecode": {
			"linkReferences": {},
			"object": "608060405234801561001057600080fd5b503360016000808060001b815260200190815260200160002060000160008373ffffffffffffffffffffffffffffffffffffffff1673ffffffffffffffffffffffffffffffffffffffff16815260200190815260200160002060006101000a81548160ff02191690831515021790555050612e47806100906000396000f3fe608060405234801561001057600080fd5b50600436106101425760003560e01c806395aec814116100b8578063cfb519281161007c578063cfb51928146103c5578063d547741f146103f5578063d9c3d47d14610425578063eac8f5b814610441578063eafe7a7414610471578063ff74927b1461048f57610142565b806395aec814146102f95780639cdeba9514610329578063a0aead4d14610347578063a1f7ed1a14610365578063c5b951901461039557610142565b806375b238fc1161010a57806375b238fc1461023757806375fe07c1146102555780637eb79b53146102735780638bbbc3151461028f5780638e661179146102ab57806391d14854146102c957610142565b806309aea30214610147578063248a9ca3146101775780632f2ff15d146101a7578063609f7070146101d757806360e0159414610207575b600080fd5b610161600480360381019061015c9190612119565b6104bf565b60405161016e9190612161565b60405180910390f35b610191600480360381019061018c91906121b2565b61070d565b60405161019e91906121ee565b60405180910390f35b6101c160048036038101906101bc9190612209565b61072c565b6040516101ce9190612161565b60405180910390f35b6101f160048036038101906101ec919061238f565b61082b565b6040516101fe91906124be565b60405180910390f35b610221600480360381019061021c91906124e0565b610903565b60405161022e91906121ee565b60405180910390f35b61023f610915565b60405161024c91906121ee565b60405180910390f35b61025d610939565b60405161026a9190612538565b60405180910390f35b61028d60048036038101906102889190612589565b610963565b005b6102a960048036038101906102a491906125b6565b610dbf565b005b6102b36110f5565b6040516102c091906121ee565b60405180910390f35b6102e360048036038101906102de9190612209565b611119565b6040516102f09190612161565b60405180910390f35b610313600480360381019061030e9190612641565b611183565b6040516103209190612161565b60405180910390f35b610331611360565b60405161033e91906121ee565b60405180910390f35b61034f611367565b60405161035c91906126ac565b60405180910390f35b61037f600480360381019061037a91906126c7565b611371565b60405161038c91906124be565b60405180910390f35b6103af60048036038101906103aa91906121b2565b6113cb565b6040516103bc9190612161565b60405180910390f35b6103df60048036038101906103da91906124e0565b61141f565b6040516103ec91906121ee565b60405180910390f35b61040f600480360381019061040a9190612209565b61144f565b60405161041c9190612161565b60405180910390f35b61043f600480360381019061043a9190612723565b61154d565b005b61045b60048036038101906104569190612589565b6119a3565b604051610468919061287d565b60405180910390f35b610479611be8565b60405161048691906126ac565b60405180910390f35b6104a960048036038101906104a4919061289f565b611bee565b6040516104b691906124be565b60405180910390f35b60007fdf8b4c520ffe197c5343c6f5aec59570151ef9a492f2c624fd45ddde6135ec426104eb816113cb565b506000600560008573ffffffffffffffffffffffffffffffffffffffff1673ffffffffffffffffffffffffffffffffffffffff1681526020019081526020016000206040518060200160405290816000820154815250509050610552816000015185611119565b6105fc6040518060400160405280600c81526020017f436f6d70616e794c6f67696300000000000000000000000000000000000000008152506040518060400160405280600d81526020017f72656d6f766564576f726b6572000000000000000000000000000000000000008152506040518060400160405280601381526020017f54686520576f726b6572204e6f20466f756e640000000000000000000000000081525061082b565b9061063d576040517f08c379a000000000000000000000000000000000000000000000000000000000815260040161063491906124be565b60405180910390fd5b5061064c81600001518561144f565b5060405180602001604052807f4723ef6f53f658db2aadec92d099865eebe159bef21592286d815fe01f07eacf815250600560008673ffffffffffffffffffffffffffffffffffffffff1673ffffffffffffffffffffffffffffffffffffffff168152602001908152602001600020600082015181600001559050507f2c7a3b4ff8d5687296a583478fa4c9cb1c5a7a22b32c38eec06698a6865e7f438460046040516106fa929190612a0d565b60405180910390a1600192505050919050565b6000806000838152602001908152602001600020600101549050919050565b60006107378361070d565b610740816113cb565b5061074b8484611119565b156107595760009150610824565b600160008086815260200190815260200160002060000160008573ffffffffffffffffffffffffffffffffffffffff1673ffffffffffffffffffffffffffffffffffffffff16815260200190815260200160002060006101000a81548160ff0219169083151502179055503373ffffffffffffffffffffffffffffffffffffffff168373ffffffffffffffffffffffffffffffffffffffff16857f2f8788117e7eff1d82e926ec794901d17c78024a50270940304540a733656f0d60405160405180910390a4600191505b5092915050565b60606108fa6108b66108726040518060400160405280600a81526020017f436f6e74726163743a200000000000000000000000000000000000000000000081525087611bee565b6108b16040518060400160405280600b81526020017f2c46756e6374696f6e3a2000000000000000000000000000000000000000000081525087611bee565b611bee565b6108f56040518060400160405280600a81526020017f2c4d6573736167653a200000000000000000000000000000000000000000000081525085611bee565b611bee565b90509392505050565b600061090e8261141f565b9050919050565b7fdf8b4c520ffe197c5343c6f5aec59570151ef9a492f2c624fd45ddde6135ec4281565b6000600160009054906101000a900473ffffffffffffffffffffffffffffffffffffffff16905090565b7fdf8b4c520ffe197c5343c6f5aec59570151ef9a492f2c624fd45ddde6135ec4261098d816113cb565b50816007600082815260200190815260200160002060060160009054906101000a900460ff166109f2576040517f08c379a00000000000000000000000000000000000000000000000000000000081526004016109e990612aaf565b60405180910390fd5b6000600760008581526020019081526020016000206040518060e0016040529081600082018054610a2290612946565b80601f0160208091040260200160405190810160405280929190818152602001828054610a4e90612946565b8015610a9b5780601f10610a7057610100808354040283529160200191610a9b565b820191906000526020600020905b815481529060010190602001808311610a7e57829003601f168201915b50505050508152602001600182018054610ab490612946565b80601f0160208091040260200160405190810160405280929190818152602001828054610ae090612946565b8015610b2d5780601f10610b0257610100808354040283529160200191610b2d565b820191906000526020600020905b815481529060010190602001808311610b1057829003601f168201915b50505050508152602001600282015481526020016003820160009054906101000a900473ffffffffffffffffffffffffffffffffffffffff1673ffffffffffffffffffffffffffffffffffffffff1673ffffffffffffffffffffffffffffffffffffffff16815260200160048201548152602001600582015481526020016006820160009054906101000a900460ff161515151581525050905060008160c001901515908115158152505080600760008681526020019081526020016000206000820151816000019080519060200190610c08929190611faf565b506020820151816001019080519060200190610c25929190611faf565b506040820151816002015560608201518160030160006101000a81548173ffffffffffffffffffffffffffffffffffffffff021916908373ffffffffffffffffffffffffffffffffffffffff1602179055506080820151816004015560a0820151816005015560c08201518160060160006101000a81548160ff021916908315150217905550905050600060405180606001604052804281526020013373ffffffffffffffffffffffffffffffffffffffff168152602001610d246040518060400160405280601181526020017f64656c6574652061737365742c69643a20000000000000000000000000000000815250610d1f89611d84565b611bee565b8152509050600160009054906101000a900473ffffffffffffffffffffffffffffffffffffffff1673ffffffffffffffffffffffffffffffffffffffff1663c3dbd0f586836040518363ffffffff1660e01b8152600401610d86929190612b1f565b600060405180830381600087803b158015610da057600080fd5b505af1158015610db4573d6000803e3d6000fd5b505050505050505050565b7fdf8b4c520ffe197c5343c6f5aec59570151ef9a492f2c624fd45ddde6135ec42610de9816113cb565b5083600881604051610dfb9190612b8b565b908152602001604051809103902060009054906101000a900460ff1615610e57576040517f08c379a0000000000000000000000000000000000000000000000000000000008152600401610e4e90612c14565b60405180910390fd5b60006040518060e001604052808781526020018681526020014281526020013373ffffffffffffffffffffffffffffffffffffffff16815260200185815260200160008152602001600115158152509050806007600060065481526020019081526020016000206000820151816000019080519060200190610eda929190611faf565b506020820151816001019080519060200190610ef7929190611faf565b506040820151816002015560608201518160030160006101000a81548173ffffffffffffffffffffffffffffffffffffffff021916908373ffffffffffffffffffffffffffffffffffffffff1602179055506080820151816004015560a0820151816005015560c08201518160060160006101000a81548160ff02191690831515021790555090505060006040518060600160405280836040015181526020013373ffffffffffffffffffffffffffffffffffffffff1681526020016040518060400160405280600681526020017f63726561746500000000000000000000000000000000000000000000000000008152508152509050600160009054906101000a900473ffffffffffffffffffffffffffffffffffffffff1673ffffffffffffffffffffffffffffffffffffffff1663c3dbd0f5600654836040518363ffffffff1660e01b815260040161104d929190612b1f565b600060405180830381600087803b15801561106757600080fd5b505af115801561107b573d6000803e3d6000fd5b5050505060066000815461108e90612c63565b91905081905550843373ffffffffffffffffffffffffffffffffffffffff167f6ea2437afc211bd86a037c3ac972bf3afba803f793925cbdfbcbbb94cde6dcfd8885604001518b6040516110e493929190612cac565b60405180910390a350505050505050565b7f4723ef6f53f658db2aadec92d099865eebe159bef21592286d815fe01f07eacf81565b600080600084815260200190815260200160002060000160008373ffffffffffffffffffffffffffffffffffffffff1673ffffffffffffffffffffffffffffffffffffffff16815260200190815260200160002060009054906101000a900460ff16905092915050565b60007fdf8b4c520ffe197c5343c6f5aec59570151ef9a492f2c624fd45ddde6135ec426111af816113cb565b5060006111bb85610903565b90506111c78185611119565b156112726040518060400160405280600c81526020017f436f6d70616e794c6f67696300000000000000000000000000000000000000008152506040518060400160405280600981526020017f616464576f726b657200000000000000000000000000000000000000000000008152506040518060400160405280601581526020017f776f726b657220686173206265656e206164646564000000000000000000000081525061082b565b906112b3576040517f08c379a00000000000000000000000000000000000000000000000000000000081526004016112aa91906124be565b60405180910390fd5b506112be818561072c565b50604051806020016040528082815250600560008673ffffffffffffffffffffffffffffffffffffffff1673ffffffffffffffffffffffffffffffffffffffff168152602001908152602001600020600082015181600001559050507f17a4f24ea0614811ae3cace2d4bc04f34f4c19b8296b089fa5b90bf516a1609984600460405161134c929190612a0d565b60405180910390a160019250505092915050565b6000801b81565b6000600654905090565b60606113c36113b5846040518060400160405280600181526020017f3a00000000000000000000000000000000000000000000000000000000000000815250611bee565b6113be84611d84565b611bee565b905092915050565b60006113d78233611119565b611416576040517f08c379a000000000000000000000000000000000000000000000000000000000815260040161140d90612d3d565b60405180910390fd5b60019050919050565b6000816040516020016114329190612b8b565b604051602081830303815290604052805190602001209050919050565b600061145a8361070d565b611463816113cb565b5061146e8484611119565b61147b5760009150611546565b600080600086815260200190815260200160002060000160008573ffffffffffffffffffffffffffffffffffffffff1673ffffffffffffffffffffffffffffffffffffffff16815260200190815260200160002060006101000a81548160ff0219169083151502179055503373ffffffffffffffffffffffffffffffffffffffff168373ffffffffffffffffffffffffffffffffffffffff16857ff6391f5c32d9c69d2a47ea670b442974b53935d1edc7fd64eb21e047a839171b60405160405180910390a4600191505b5092915050565b7fdf8b4c520ffe197c5343c6f5aec59570151ef9a492f2c624fd45ddde6135ec42611577816113cb565b50826007600082815260200190815260200160002060060160009054906101000a900460ff166115dc576040517f08c379a00000000000000000000000000000000000000000000000000000000081526004016115d390612aaf565b60405180910390fd5b6000600760008681526020019081526020016000206040518060e001604052908160008201805461160c90612946565b80601f016020809104026020016040519081016040528092919081815260200182805461163890612946565b80156116855780601f1061165a57610100808354040283529160200191611685565b820191906000526020600020905b81548152906001019060200180831161166857829003601f168201915b5050505050815260200160018201805461169e90612946565b80601f01602080910402602001604051908101604052809291908181526020018280546116ca90612946565b80156117175780601f106116ec57610100808354040283529160200191611717565b820191906000526020600020905b8154815290600101906020018083116116fa57829003601f168201915b50505050508152602001600282015481526020016003820160009054906101000a900473ffffffffffffffffffffffffffffffffffffffff1673ffffffffffffffffffffffffffffffffffffffff1673ffffffffffffffffffffffffffffffffffffffff16815260200160048201548152602001600582015481526020016006820160009054906101000a900460ff161515151581525050905083816080018181525050806007600087815260200190815260200160002060008201518160000190805190602001906117eb929190611faf565b506020820151816001019080519060200190611808929190611faf565b506040820151816002015560608201518160030160006101000a81548173ffffffffffffffffffffffffffffffffffffffff021916908373ffffffffffffffffffffffffffffffffffffffff1602179055506080820151816004015560a0820151816005015560c08201518160060160006101000a81548160ff021916908315150217905550905050600060405180606001604052804281526020013373ffffffffffffffffffffffffffffffffffffffff1681526020016119076040518060400160405280601181526020017f7570646174652067726f7570496420746f00000000000000000000000000000081525061190289611d84565b611bee565b8152509050600160009054906101000a900473ffffffffffffffffffffffffffffffffffffffff1673ffffffffffffffffffffffffffffffffffffffff1663c3dbd0f587836040518363ffffffff1660e01b8152600401611969929190612b1f565b600060405180830381600087803b15801561198357600080fd5b505af1158015611997573d6000803e3d6000fd5b50505050505050505050565b6119ab612035565b816007600082815260200190815260200160002060060160009054906101000a900460ff16611a0f576040517f08c379a0000000000000000000000000000000000000000000000000000000008152600401611a0690612aaf565b60405180910390fd5b600760008481526020019081526020016000206040518060e0016040529081600082018054611a3d90612946565b80601f0160208091040260200160405190810160405280929190818152602001828054611a6990612946565b8015611ab65780601f10611a8b57610100808354040283529160200191611ab6565b820191906000526020600020905b815481529060010190602001808311611a9957829003601f168201915b50505050508152602001600182018054611acf90612946565b80601f0160208091040260200160405190810160405280929190818152602001828054611afb90612946565b8015611b485780601f10611b1d57610100808354040283529160200191611b48565b820191906000526020600020905b815481529060010190602001808311611b2b57829003601f168201915b50505050508152602001600282015481526020016003820160009054906101000a900473ffffffffffffffffffffffffffffffffffffffff1673ffffffffffffffffffffffffffffffffffffffff1673ffffffffffffffffffffffffffffffffffffffff16815260200160048201548152602001600582015481526020016006820160009054906101000a900460ff161515151581525050915050919050565b60065481565b606060008390506000839050600081518351611c0a9190612d5d565b67ffffffffffffffff811115611c2357611c22612264565b5b6040519080825280601f01601f191660200182016040528015611c555781602001600182028036833780820191505090505b50905060008190506000805b8551811015611ce957858181518110611c7d57611c7c612db3565b5b602001015160f81c60f81b838380611c9490612c63565b945081518110611ca757611ca6612db3565b5b60200101907effffffffffffffffffffffffffffffffffffffffffffffffffffffffffffff1916908160001a9053508080611ce190612c63565b915050611c61565b5060005b8451811015611d7557848181518110611d0957611d08612db3565b5b602001015160f81c60f81b838380611d2090612c63565b945081518110611d3357611d32612db3565b5b60200101907effffffffffffffffffffffffffffffffffffffffffffffffffffffffffffff1916908160001a9053508080611d6d90612c63565b915050611ced565b50829550505050505092915050565b606060006001611d9384611e5c565b01905060008167ffffffffffffffff811115611db257611db1612264565b5b6040519080825280601f01601f191660200182016040528015611de45781602001600182028036833780820191505090505b509050600082602001820190505b600115611e51578080600190039150507f3031323334353637383961626364656600000000000000000000000000000000600a86061a8153600a8581611e3b57611e3a612de2565b5b0494506000851415611e4c57611e51565b611df2565b819350505050919050565b600080600090507a184f03e93ff9f4daa797ed6e38ed64bf6a1f0100000000000000008310611eba577a184f03e93ff9f4daa797ed6e38ed64bf6a1f0100000000000000008381611eb057611eaf612de2565b5b0492506040810190505b6d04ee2d6d415b85acef81000000008310611ef7576d04ee2d6d415b85acef81000000008381611eed57611eec612de2565b5b0492506020810190505b662386f26fc100008310611f2657662386f26fc100008381611f1c57611f1b612de2565b5b0492506010810190505b6305f5e1008310611f4f576305f5e1008381611f4557611f44612de2565b5b0492506008810190505b6127108310611f74576127108381611f6a57611f69612de2565b5b0492506004810190505b60648310611f975760648381611f8d57611f8c612de2565b5b0492506002810190505b600a8310611fa6576001810190505b80915050919050565b828054611fbb90612946565b90600052602060002090601f016020900481019282611fdd5760008555612024565b82601f10611ff657805160ff1916838001178555612024565b82800160010185558215612024579182015b82811115612023578251825591602001919060010190612008565b5b509050612031919061208a565b5090565b6040518060e00160405280606081526020016060815260200160008152602001600073ffffffffffffffffffffffffffffffffffffffff16815260200160008152602001600081526020016000151581525090565b5b808211156120a357600081600090555060010161208b565b5090565b6000604051905090565b600080fd5b600080fd5b600073ffffffffffffffffffffffffffffffffffffffff82169050919050565b60006120e6826120bb565b9050919050565b6120f6816120db565b811461210157600080fd5b50565b600081359050612113816120ed565b92915050565b60006020828403121561212f5761212e6120b1565b5b600061213d84828501612104565b91505092915050565b60008115159050919050565b61215b81612146565b82525050565b60006020820190506121766000830184612152565b92915050565b6000819050919050565b61218f8161217c565b811461219a57600080fd5b50565b6000813590506121ac81612186565b92915050565b6000602082840312156121c8576121c76120b1565b5b60006121d68482850161219d565b91505092915050565b6121e88161217c565b82525050565b600060208201905061220360008301846121df565b92915050565b600080604083850312156122205761221f6120b1565b5b600061222e8582860161219d565b925050602061223f85828601612104565b9150509250929050565b600080fd5b600080fd5b6000601f19601f8301169050919050565b7f4e487b7100000000000000000000000000000000000000000000000000000000600052604160045260246000fd5b61229c82612253565b810181811067ffffffffffffffff821117156122bb576122ba612264565b5b80604052505050565b60006122ce6120a7565b90506122da8282612293565b919050565b600067ffffffffffffffff8211156122fa576122f9612264565b5b61230382612253565b9050602081019050919050565b82818337600083830152505050565b600061233261232d846122df565b6122c4565b90508281526020810184848401111561234e5761234d61224e565b5b612359848285612310565b509392505050565b600082601f83011261237657612375612249565b5b813561238684826020860161231f565b91505092915050565b6000806000606084860312156123a8576123a76120b1565b5b600084013567ffffffffffffffff8111156123c6576123c56120b6565b5b6123d286828701612361565b935050602084013567ffffffffffffffff8111156123f3576123f26120b6565b5b6123ff86828701612361565b925050604084013567ffffffffffffffff8111156124205761241f6120b6565b5b61242c86828701612361565b9150509250925092565b600081519050919050565b600082825260208201905092915050565b60005b83811015612470578082015181840152602081019050612455565b8381111561247f576000848401525b50505050565b600061249082612436565b61249a8185612441565b93506124aa818560208601612452565b6124b381612253565b840191505092915050565b600060208201905081810360008301526124d88184612485565b905092915050565b6000602082840312156124f6576124f56120b1565b5b600082013567ffffffffffffffff811115612514576125136120b6565b5b61252084828501612361565b91505092915050565b612532816120db565b82525050565b600060208201905061254d6000830184612529565b92915050565b6000819050919050565b61256681612553565b811461257157600080fd5b50565b6000813590506125838161255d565b92915050565b60006020828403121561259f5761259e6120b1565b5b60006125ad84828501612574565b91505092915050565b6000806000606084860312156125cf576125ce6120b1565b5b600084013567ffffffffffffffff8111156125ed576125ec6120b6565b5b6125f986828701612361565b935050602084013567ffffffffffffffff81111561261a576126196120b6565b5b61262686828701612361565b925050604061263786828701612574565b9150509250925092565b60008060408385031215612658576126576120b1565b5b600083013567ffffffffffffffff811115612676576126756120b6565b5b61268285828601612361565b925050602061269385828601612104565b9150509250929050565b6126a681612553565b82525050565b60006020820190506126c1600083018461269d565b92915050565b600080604083850312156126de576126dd6120b1565b5b600083013567ffffffffffffffff8111156126fc576126fb6120b6565b5b61270885828601612361565b925050602061271985828601612574565b9150509250929050565b6000806040838503121561273a576127396120b1565b5b600061274885828601612574565b925050602061275985828601612574565b9150509250929050565b600082825260208201905092915050565b600061277f82612436565b6127898185612763565b9350612799818560208601612452565b6127a281612253565b840191505092915050565b6127b681612553565b82525050565b6127c5816120db565b82525050565b6127d481612146565b82525050565b600060e08301600083015184820360008601526127f78282612774565b915050602083015184820360208601526128118282612774565b915050604083015161282660408601826127ad565b50606083015161283960608601826127bc565b50608083015161284c60808601826127ad565b5060a083015161285f60a08601826127ad565b5060c083015161287260c08601826127cb565b508091505092915050565b6000602082019050818103600083015261289781846127da565b905092915050565b600080604083850312156128b6576128b56120b1565b5b600083013567ffffffffffffffff8111156128d4576128d36120b6565b5b6128e085828601612361565b925050602083013567ffffffffffffffff811115612901576129006120b6565b5b61290d85828601612361565b9150509250929050565b7f4e487b7100000000000000000000000000000000000000000000000000000000600052602260045260246000fd5b6000600282049050600182168061295e57607f821691505b6020821081141561297257612971612917565b5b50919050565b60008190508160005260206000209050919050565b6000815461299a81612946565b6129a48186612441565b945060018216600081146129bf57600181146129d157612a04565b60ff1983168652602086019350612a04565b6129da85612978565b60005b838110156129fc578154818901526001820191506020810190506129dd565b808801955050505b50505092915050565b6000604082019050612a226000830185612529565b8181036020830152612a34818461298d565b90509392505050565b7f436f6d70616e794c6f6769633a3a436865636b417373657456616c69643a3a2060008201527f617373657420697320696e76616c696400000000000000000000000000000000602082015250565b6000612a99603083612441565b9150612aa482612a3d565b604082019050919050565b60006020820190508181036000830152612ac881612a8c565b9050919050565b6000606083016000830151612ae760008601826127ad565b506020830151612afa60208601826127bc565b5060408301518482036040860152612b128282612774565b9150508091505092915050565b6000604082019050612b34600083018561269d565b8181036020830152612b468184612acf565b90509392505050565b600081905092915050565b6000612b6582612436565b612b6f8185612b4f565b9350612b7f818560208601612452565b80840191505092915050565b6000612b978284612b5a565b915081905092915050565b7f436f6d70616e794c6f6769633a3a436865636b4369643a3a206369642069732060008201527f696e76616c696400000000000000000000000000000000000000000000000000602082015250565b6000612bfe602783612441565b9150612c0982612ba2565b604082019050919050565b60006020820190508181036000830152612c2d81612bf1565b9050919050565b7f4e487b7100000000000000000000000000000000000000000000000000000000600052601160045260246000fd5b6000612c6e82612553565b91507fffffffffffffffffffffffffffffffffffffffffffffffffffffffffffffffff821415612ca157612ca0612c34565b5b600182019050919050565b60006060820190508181036000830152612cc68186612485565b9050612cd5602083018561269d565b8181036040830152612ce78184612485565b9050949350505050565b7f556e417574686f72697a65644163636f756e7400000000000000000000000000600082015250565b6000612d27601383612441565b9150612d3282612cf1565b602082019050919050565b60006020820190508181036000830152612d5681612d1a565b9050919050565b6000612d6882612553565b9150612d7383612553565b9250827fffffffffffffffffffffffffffffffffffffffffffffffffffffffffffffffff03821115612da857612da7612c34565b5b828201905092915050565b7f4e487b7100000000000000000000000000000000000000000000000000000000600052603260045260246000fd5b7f4e487b7100000000000000000000000000000000000000000000000000000000600052601260045260246000fdfea26469706673582212202549130064747a71db7db72493e7e556628a775d281220f4a6e7c63dba1ace4f64736f6c634300080b0033",
			"opcodes": "PUSH1 0x80 PUSH1 0x40 MSTORE CALLVALUE DUP1 ISZERO PUSH2 0x10 JUMPI PUSH1 0x0 DUP1 REVERT JUMPDEST POP CALLER PUSH1 0x1 PUSH1 0x0 DUP1 DUP1 PUSH1 0x0 SHL DUP2 MSTORE PUSH1 0x20 ADD SWAP1 DUP2 MSTORE PUSH1 0x20 ADD PUSH1 0x0 KECCAK256 PUSH1 0x0 ADD PUSH1 0x0 DUP4 PUSH20 0xFFFFFFFFFFFFFFFFFFFFFFFFFFFFFFFFFFFFFFFF AND PUSH20 0xFFFFFFFFFFFFFFFFFFFFFFFFFFFFFFFFFFFFFFFF AND DUP2 MSTORE PUSH1 0x20 ADD SWAP1 DUP2 MSTORE PUSH1 0x20 ADD PUSH1 0x0 KECCAK256 PUSH1 0x0 PUSH2 0x100 EXP DUP2 SLOAD DUP2 PUSH1 0xFF MUL NOT AND SWAP1 DUP4 ISZERO ISZERO MUL OR SWAP1 SSTORE POP POP PUSH2 0x2E47 DUP1 PUSH2 0x90 PUSH1 0x0 CODECOPY PUSH1 0x0 RETURN INVALID PUSH1 0x80 PUSH1 0x40 MSTORE CALLVALUE DUP1 ISZERO PUSH2 0x10 JUMPI PUSH1 0x0 DUP1 REVERT JUMPDEST POP PUSH1 0x4 CALLDATASIZE LT PUSH2 0x142 JUMPI PUSH1 0x0 CALLDATALOAD PUSH1 0xE0 SHR DUP1 PUSH4 0x95AEC814 GT PUSH2 0xB8 JUMPI DUP1 PUSH4 0xCFB51928 GT PUSH2 0x7C JUMPI DUP1 PUSH4 0xCFB51928 EQ PUSH2 0x3C5 JUMPI DUP1 PUSH4 0xD547741F EQ PUSH2 0x3F5 JUMPI DUP1 PUSH4 0xD9C3D47D EQ PUSH2 0x425 JUMPI DUP1 PUSH4 0xEAC8F5B8 EQ PUSH2 0x441 JUMPI DUP1 PUSH4 0xEAFE7A74 EQ PUSH2 0x471 JUMPI DUP1 PUSH4 0xFF74927B EQ PUSH2 0x48F JUMPI PUSH2 0x142 JUMP JUMPDEST DUP1 PUSH4 0x95AEC814 EQ PUSH2 0x2F9 JUMPI DUP1 PUSH4 0x9CDEBA95 EQ PUSH2 0x329 JUMPI DUP1 PUSH4 0xA0AEAD4D EQ PUSH2 0x347 JUMPI DUP1 PUSH4 0xA1F7ED1A EQ PUSH2 0x365 JUMPI DUP1 PUSH4 0xC5B95190 EQ PUSH2 0x395 JUMPI PUSH2 0x142 JUMP JUMPDEST DUP1 PUSH4 0x75B238FC GT PUSH2 0x10A JUMPI DUP1 PUSH4 0x75B238FC EQ PUSH2 0x237 JUMPI DUP1 PUSH4 0x75FE07C1 EQ PUSH2 0x255 JUMPI DUP1 PUSH4 0x7EB79B53 EQ PUSH2 0x273 JUMPI DUP1 PUSH4 0x8BBBC315 EQ PUSH2 0x28F JUMPI DUP1 PUSH4 0x8E661179 EQ PUSH2 0x2AB JUMPI DUP1 PUSH4 0x91D14854 EQ PUSH2 0x2C9 JUMPI PUSH2 0x142 JUMP JUMPDEST DUP1 PUSH4 0x9AEA302 EQ PUSH2 0x147 JUMPI DUP1 PUSH4 0x248A9CA3 EQ PUSH2 0x177 JUMPI DUP1 PUSH4 0x2F2FF15D EQ PUSH2 0x1A7 JUMPI DUP1 PUSH4 0x609F7070 EQ PUSH2 0x1D7 JUMPI DUP1 PUSH4 0x60E01594 EQ PUSH2 0x207 JUMPI JUMPDEST PUSH1 0x0 DUP1 REVERT JUMPDEST PUSH2 0x161 PUSH1 0x4 DUP1 CALLDATASIZE SUB DUP2 ADD SWAP1 PUSH2 0x15C SWAP2 SWAP1 PUSH2 0x2119 JUMP JUMPDEST PUSH2 0x4BF JUMP JUMPDEST PUSH1 0x40 MLOAD PUSH2 0x16E SWAP2 SWAP1 PUSH2 0x2161 JUMP JUMPDEST PUSH1 0x40 MLOAD DUP1 SWAP2 SUB SWAP1 RETURN JUMPDEST PUSH2 0x191 PUSH1 0x4 DUP1 CALLDATASIZE SUB DUP2 ADD SWAP1 PUSH2 0x18C SWAP2 SWAP1 PUSH2 0x21B2 JUMP JUMPDEST PUSH2 0x70D JUMP JUMPDEST PUSH1 0x40 MLOAD PUSH2 0x19E SWAP2 SWAP1 PUSH2 0x21EE JUMP JUMPDEST PUSH1 0x40 MLOAD DUP1 SWAP2 SUB SWAP1 RETURN JUMPDEST PUSH2 0x1C1 PUSH1 0x4 DUP1 CALLDATASIZE SUB DUP2 ADD SWAP1 PUSH2 0x1BC SWAP2 SWAP1 PUSH2 0x2209 JUMP JUMPDEST PUSH2 0x72C JUMP JUMPDEST PUSH1 0x40 MLOAD PUSH2 0x1CE SWAP2 SWAP1 PUSH2 0x2161 JUMP JUMPDEST PUSH1 0x40 MLOAD DUP1 SWAP2 SUB SWAP1 RETURN JUMPDEST PUSH2 0x1F1 PUSH1 0x4 DUP1 CALLDATASIZE SUB DUP2 ADD SWAP1 PUSH2 0x1EC SWAP2 SWAP1 PUSH2 0x238F JUMP JUMPDEST PUSH2 0x82B JUMP JUMPDEST PUSH1 0x40 MLOAD PUSH2 0x1FE SWAP2 SWAP1 PUSH2 0x24BE JUMP JUMPDEST PUSH1 0x40 MLOAD DUP1 SWAP2 SUB SWAP1 RETURN JUMPDEST PUSH2 0x221 PUSH1 0x4 DUP1 CALLDATASIZE SUB DUP2 ADD SWAP1 PUSH2 0x21C SWAP2 SWAP1 PUSH2 0x24E0 JUMP JUMPDEST PUSH2 0x903 JUMP JUMPDEST PUSH1 0x40 MLOAD PUSH2 0x22E SWAP2 SWAP1 PUSH2 0x21EE JUMP JUMPDEST PUSH1 0x40 MLOAD DUP1 SWAP2 SUB SWAP1 RETURN JUMPDEST PUSH2 0x23F PUSH2 0x915 JUMP JUMPDEST PUSH1 0x40 MLOAD PUSH2 0x24C SWAP2 SWAP1 PUSH2 0x21EE JUMP JUMPDEST PUSH1 0x40 MLOAD DUP1 SWAP2 SUB SWAP1 RETURN JUMPDEST PUSH2 0x25D PUSH2 0x939 JUMP JUMPDEST PUSH1 0x40 MLOAD PUSH2 0x26A SWAP2 SWAP1 PUSH2 0x2538 JUMP JUMPDEST PUSH1 0x40 MLOAD DUP1 SWAP2 SUB SWAP1 RETURN JUMPDEST PUSH2 0x28D PUSH1 0x4 DUP1 CALLDATASIZE SUB DUP2 ADD SWAP1 PUSH2 0x288 SWAP2 SWAP1 PUSH2 0x2589 JUMP JUMPDEST PUSH2 0x963 JUMP JUMPDEST STOP JUMPDEST PUSH2 0x2A9 PUSH1 0x4 DUP1 CALLDATASIZE SUB DUP2 ADD SWAP1 PUSH2 0x2A4 SWAP2 SWAP1 PUSH2 0x25B6 JUMP JUMPDEST PUSH2 0xDBF JUMP JUMPDEST STOP JUMPDEST PUSH2 0x2B3 PUSH2 0x10F5 JUMP JUMPDEST PUSH1 0x40 MLOAD PUSH2 0x2C0 SWAP2 SWAP1 PUSH2 0x21EE JUMP JUMPDEST PUSH1 0x40 MLOAD DUP1 SWAP2 SUB SWAP1 RETURN JUMPDEST PUSH2 0x2E3 PUSH1 0x4 DUP1 CALLDATASIZE SUB DUP2 ADD SWAP1 PUSH2 0x2DE SWAP2 SWAP1 PUSH2 0x2209 JUMP JUMPDEST PUSH2 0x1119 JUMP JUMPDEST PUSH1 0x40 MLOAD PUSH2 0x2F0 SWAP2 SWAP1 PUSH2 0x2161 JUMP JUMPDEST PUSH1 0x40 MLOAD DUP1 SWAP2 SUB SWAP1 RETURN JUMPDEST PUSH2 0x313 PUSH1 0x4 DUP1 CALLDATASIZE SUB DUP2 ADD SWAP1 PUSH2 0x30E SWAP2 SWAP1 PUSH2 0x2641 JUMP JUMPDEST PUSH2 0x1183 JUMP JUMPDEST PUSH1 0x40 MLOAD PUSH2 0x320 SWAP2 SWAP1 PUSH2 0x2161 JUMP JUMPDEST PUSH1 0x40 MLOAD DUP1 SWAP2 SUB SWAP1 RETURN JUMPDEST PUSH2 0x331 PUSH2 0x1360 JUMP JUMPDEST PUSH1 0x40 MLOAD PUSH2 0x33E SWAP2 SWAP1 PUSH2 0x21EE JUMP JUMPDEST PUSH1 0x40 MLOAD DUP1 SWAP2 SUB SWAP1 RETURN JUMPDEST PUSH2 0x34F PUSH2 0x1367 JUMP JUMPDEST PUSH1 0x40 MLOAD PUSH2 0x35C SWAP2 SWAP1 PUSH2 0x26AC JUMP JUMPDEST PUSH1 0x40 MLOAD DUP1 SWAP2 SUB SWAP1 RETURN JUMPDEST PUSH2 0x37F PUSH1 0x4 DUP1 CALLDATASIZE SUB DUP2 ADD SWAP1 PUSH2 0x37A SWAP2 SWAP1 PUSH2 0x26C7 JUMP JUMPDEST PUSH2 0x1371 JUMP JUMPDEST PUSH1 0x40 MLOAD PUSH2 0x38C SWAP2 SWAP1 PUSH2 0x24BE JUMP JUMPDEST PUSH1 0x40 MLOAD DUP1 SWAP2 SUB SWAP1 RETURN JUMPDEST PUSH2 0x3AF PUSH1 0x4 DUP1 CALLDATASIZE SUB DUP2 ADD SWAP1 PUSH2 0x3AA SWAP2 SWAP1 PUSH2 0x21B2 JUMP JUMPDEST PUSH2 0x13CB JUMP JUMPDEST PUSH1 0x40 MLOAD PUSH2 0x3BC SWAP2 SWAP1 PUSH2 0x2161 JUMP JUMPDEST PUSH1 0x40 MLOAD DUP1 SWAP2 SUB SWAP1 RETURN JUMPDEST PUSH2 0x3DF PUSH1 0x4 DUP1 CALLDATASIZE SUB DUP2 ADD SWAP1 PUSH2 0x3DA SWAP2 SWAP1 PUSH2 0x24E0 JUMP JUMPDEST PUSH2 0x141F JUMP JUMPDEST PUSH1 0x40 MLOAD PUSH2 0x3EC SWAP2 SWAP1 PUSH2 0x21EE JUMP JUMPDEST PUSH1 0x40 MLOAD DUP1 SWAP2 SUB SWAP1 RETURN JUMPDEST PUSH2 0x40F PUSH1 0x4 DUP1 CALLDATASIZE SUB DUP2 ADD SWAP1 PUSH2 0x40A SWAP2 SWAP1 PUSH2 0x2209 JUMP JUMPDEST PUSH2 0x144F JUMP JUMPDEST PUSH1 0x40 MLOAD PUSH2 0x41C SWAP2 SWAP1 PUSH2 0x2161 JUMP JUMPDEST PUSH1 0x40 MLOAD DUP1 SWAP2 SUB SWAP1 RETURN JUMPDEST PUSH2 0x43F PUSH1 0x4 DUP1 CALLDATASIZE SUB DUP2 ADD SWAP1 PUSH2 0x43A SWAP2 SWAP1 PUSH2 0x2723 JUMP JUMPDEST PUSH2 0x154D JUMP JUMPDEST STOP JUMPDEST PUSH2 0x45B PUSH1 0x4 DUP1 CALLDATASIZE SUB DUP2 ADD SWAP1 PUSH2 0x456 SWAP2 SWAP1 PUSH2 0x2589 JUMP JUMPDEST PUSH2 0x19A3 JUMP JUMPDEST PUSH1 0x40 MLOAD PUSH2 0x468 SWAP2 SWAP1 PUSH2 0x287D JUMP JUMPDEST PUSH1 0x40 MLOAD DUP1 SWAP2 SUB SWAP1 RETURN JUMPDEST PUSH2 0x479 PUSH2 0x1BE8 JUMP JUMPDEST PUSH1 0x40 MLOAD PUSH2 0x486 SWAP2 SWAP1 PUSH2 0x26AC JUMP JUMPDEST PUSH1 0x40 MLOAD DUP1 SWAP2 SUB SWAP1 RETURN JUMPDEST PUSH2 0x4A9 PUSH1 0x4 DUP1 CALLDATASIZE SUB DUP2 ADD SWAP1 PUSH2 0x4A4 SWAP2 SWAP1 PUSH2 0x289F JUMP JUMPDEST PUSH2 0x1BEE JUMP JUMPDEST PUSH1 0x40 MLOAD PUSH2 0x4B6 SWAP2 SWAP1 PUSH2 0x24BE JUMP JUMPDEST PUSH1 0x40 MLOAD DUP1 SWAP2 SUB SWAP1 RETURN JUMPDEST PUSH1 0x0 PUSH32 0xDF8B4C520FFE197C5343C6F5AEC59570151EF9A492F2C624FD45DDDE6135EC42 PUSH2 0x4EB DUP2 PUSH2 0x13CB JUMP JUMPDEST POP PUSH1 0x0 PUSH1 0x5 PUSH1 0x0 DUP6 PUSH20 0xFFFFFFFFFFFFFFFFFFFFFFFFFFFFFFFFFFFFFFFF AND PUSH20 0xFFFFFFFFFFFFFFFFFFFFFFFFFFFFFFFFFFFFFFFF AND DUP2 MSTORE PUSH1 0x20 ADD SWAP1 DUP2 MSTORE PUSH1 0x20 ADD PUSH1 0x0 KECCAK256 PUSH1 0x40 MLOAD DUP1 PUSH1 0x20 ADD PUSH1 0x40 MSTORE SWAP1 DUP2 PUSH1 0x0 DUP3 ADD SLOAD DUP2 MSTORE POP POP SWAP1 POP PUSH2 0x552 DUP2 PUSH1 0x0 ADD MLOAD DUP6 PUSH2 0x1119 JUMP JUMPDEST PUSH2 0x5FC PUSH1 0x40 MLOAD DUP1 PUSH1 0x40 ADD PUSH1 0x40 MSTORE DUP1 PUSH1 0xC DUP2 MSTORE PUSH1 0x20 ADD PUSH32 0x436F6D70616E794C6F6769630000000000000000000000000000000000000000 DUP2 MSTORE POP PUSH1 0x40 MLOAD DUP1 PUSH1 0x40 ADD PUSH1 0x40 MSTORE DUP1 PUSH1 0xD DUP2 MSTORE PUSH1 0x20 ADD PUSH32 0x72656D6F766564576F726B657200000000000000000000000000000000000000 DUP2 MSTORE POP PUSH1 0x40 MLOAD DUP1 PUSH1 0x40 ADD PUSH1 0x40 MSTORE DUP1 PUSH1 0x13 DUP2 MSTORE PUSH1 0x20 ADD PUSH32 0x54686520576F726B6572204E6F20466F756E6400000000000000000000000000 DUP2 MSTORE POP PUSH2 0x82B JUMP JUMPDEST SWAP1 PUSH2 0x63D JUMPI PUSH1 0x40 MLOAD PUSH32 0x8C379A000000000000000000000000000000000000000000000000000000000 DUP2 MSTORE PUSH1 0x4 ADD PUSH2 0x634 SWAP2 SWAP1 PUSH2 0x24BE JUMP JUMPDEST PUSH1 0x40 MLOAD DUP1 SWAP2 SUB SWAP1 REVERT JUMPDEST POP PUSH2 0x64C DUP2 PUSH1 0x0 ADD MLOAD DUP6 PUSH2 0x144F JUMP JUMPDEST POP PUSH1 0x40 MLOAD DUP1 PUSH1 0x20 ADD PUSH1 0x40 MSTORE DUP1 PUSH32 0x4723EF6F53F658DB2AADEC92D099865EEBE159BEF21592286D815FE01F07EACF DUP2 MSTORE POP PUSH1 0x5 PUSH1 0x0 DUP7 PUSH20 0xFFFFFFFFFFFFFFFFFFFFFFFFFFFFFFFFFFFFFFFF AND PUSH20 0xFFFFFFFFFFFFFFFFFFFFFFFFFFFFFFFFFFFFFFFF AND DUP2 MSTORE PUSH1 0x20 ADD SWAP1 DUP2 MSTORE PUSH1 0x20 ADD PUSH1 0x0 KECCAK256 PUSH1 0x0 DUP3 ADD MLOAD DUP2 PUSH1 0x0 ADD SSTORE SWAP1 POP POP PUSH32 0x2C7A3B4FF8D5687296A583478FA4C9CB1C5A7A22B32C38EEC06698A6865E7F43 DUP5 PUSH1 0x4 PUSH1 0x40 MLOAD PUSH2 0x6FA SWAP3 SWAP2 SWAP1 PUSH2 0x2A0D JUMP JUMPDEST PUSH1 0x40 MLOAD DUP1 SWAP2 SUB SWAP1 LOG1 PUSH1 0x1 SWAP3 POP POP POP SWAP2 SWAP1 POP JUMP JUMPDEST PUSH1 0x0 DUP1 PUSH1 0x0 DUP4 DUP2 MSTORE PUSH1 0x20 ADD SWAP1 DUP2 MSTORE PUSH1 0x20 ADD PUSH1 0x0 KECCAK256 PUSH1 0x1 ADD SLOAD SWAP1 POP SWAP2 SWAP1 POP JUMP JUMPDEST PUSH1 0x0 PUSH2 0x737 DUP4 PUSH2 0x70D JUMP JUMPDEST PUSH2 0x740 DUP2 PUSH2 0x13CB JUMP JUMPDEST POP PUSH2 0x74B DUP5 DUP5 PUSH2 0x1119 JUMP JUMPDEST ISZERO PUSH2 0x759 JUMPI PUSH1 0x0 SWAP2 POP PUSH2 0x824 JUMP JUMPDEST PUSH1 0x1 PUSH1 0x0 DUP1 DUP7 DUP2 MSTORE PUSH1 0x20 ADD SWAP1 DUP2 MSTORE PUSH1 0x20 ADD PUSH1 0x0 KECCAK256 PUSH1 0x0 ADD PUSH1 0x0 DUP6 PUSH20 0xFFFFFFFFFFFFFFFFFFFFFFFFFFFFFFFFFFFFFFFF AND PUSH20 0xFFFFFFFFFFFFFFFFFFFFFFFFFFFFFFFFFFFFFFFF AND DUP2 MSTORE PUSH1 0x20 ADD SWAP1 DUP2 MSTORE PUSH1 0x20 ADD PUSH1 0x0 KECCAK256 PUSH1 0x0 PUSH2 0x100 EXP DUP2 SLOAD DUP2 PUSH1 0xFF MUL NOT AND SWAP1 DUP4 ISZERO ISZERO MUL OR SWAP1 SSTORE POP CALLER PUSH20 0xFFFFFFFFFFFFFFFFFFFFFFFFFFFFFFFFFFFFFFFF AND DUP4 PUSH20 0xFFFFFFFFFFFFFFFFFFFFFFFFFFFFFFFFFFFFFFFF AND DUP6 PUSH32 0x2F8788117E7EFF1D82E926EC794901D17C78024A50270940304540A733656F0D PUSH1 0x40 MLOAD PUSH1 0x40 MLOAD DUP1 SWAP2 SUB SWAP1 LOG4 PUSH1 0x1 SWAP2 POP JUMPDEST POP SWAP3 SWAP2 POP POP JUMP JUMPDEST PUSH1 0x60 PUSH2 0x8FA PUSH2 0x8B6 PUSH2 0x872 PUSH1 0x40 MLOAD DUP1 PUSH1 0x40 ADD PUSH1 0x40 MSTORE DUP1 PUSH1 0xA DUP2 MSTORE PUSH1 0x20 ADD PUSH32 0x436F6E74726163743A2000000000000000000000000000000000000000000000 DUP2 MSTORE POP DUP8 PUSH2 0x1BEE JUMP JUMPDEST PUSH2 0x8B1 PUSH1 0x40 MLOAD DUP1 PUSH1 0x40 ADD PUSH1 0x40 MSTORE DUP1 PUSH1 0xB DUP2 MSTORE PUSH1 0x20 ADD PUSH32 0x2C46756E6374696F6E3A20000000000000000000000000000000000000000000 DUP2 MSTORE POP DUP8 PUSH2 0x1BEE JUMP JUMPDEST PUSH2 0x1BEE JUMP JUMPDEST PUSH2 0x8F5 PUSH1 0x40 MLOAD DUP1 PUSH1 0x40 ADD PUSH1 0x40 MSTORE DUP1 PUSH1 0xA DUP2 MSTORE PUSH1 0x20 ADD PUSH32 0x2C4D6573736167653A2000000000000000000000000000000000000000000000 DUP2 MSTORE POP DUP6 PUSH2 0x1BEE JUMP JUMPDEST PUSH2 0x1BEE JUMP JUMPDEST SWAP1 POP SWAP4 SWAP3 POP POP POP JUMP JUMPDEST PUSH1 0x0 PUSH2 0x90E DUP3 PUSH2 0x141F JUMP JUMPDEST SWAP1 POP SWAP2 SWAP1 POP JUMP JUMPDEST PUSH32 0xDF8B4C520FFE197C5343C6F5AEC59570151EF9A492F2C624FD45DDDE6135EC42 DUP2 JUMP JUMPDEST PUSH1 0x0 PUSH1 0x1 PUSH1 0x0 SWAP1 SLOAD SWAP1 PUSH2 0x100 EXP SWAP1 DIV PUSH20 0xFFFFFFFFFFFFFFFFFFFFFFFFFFFFFFFFFFFFFFFF AND SWAP1 POP SWAP1 JUMP JUMPDEST PUSH32 0xDF8B4C520FFE197C5343C6F5AEC59570151EF9A492F2C624FD45DDDE6135EC42 PUSH2 0x98D DUP2 PUSH2 0x13CB JUMP JUMPDEST POP DUP2 PUSH1 0x7 PUSH1 0x0 DUP3 DUP2 MSTORE PUSH1 0x20 ADD SWAP1 DUP2 MSTORE PUSH1 0x20 ADD PUSH1 0x0 KECCAK256 PUSH1 0x6 ADD PUSH1 0x0 SWAP1 SLOAD SWAP1 PUSH2 0x100 EXP SWAP1 DIV PUSH1 0xFF AND PUSH2 0x9F2 JUMPI PUSH1 0x40 MLOAD PUSH32 0x8C379A000000000000000000000000000000000000000000000000000000000 DUP2 MSTORE PUSH1 0x4 ADD PUSH2 0x9E9 SWAP1 PUSH2 0x2AAF JUMP JUMPDEST PUSH1 0x40 MLOAD DUP1 SWAP2 SUB SWAP1 REVERT JUMPDEST PUSH1 0x0 PUSH1 0x7 PUSH1 0x0 DUP6 DUP2 MSTORE PUSH1 0x20 ADD SWAP1 DUP2 MSTORE PUSH1 0x20 ADD PUSH1 0x0 KECCAK256 PUSH1 0x40 MLOAD DUP1 PUSH1 0xE0 ADD PUSH1 0x40 MSTORE SWAP1 DUP2 PUSH1 0x0 DUP3 ADD DUP1 SLOAD PUSH2 0xA22 SWAP1 PUSH2 0x2946 JUMP JUMPDEST DUP1 PUSH1 0x1F ADD PUSH1 0x20 DUP1 SWAP2 DIV MUL PUSH1 0x20 ADD PUSH1 0x40 MLOAD SWAP1 DUP2 ADD PUSH1 0x40 MSTORE DUP1 SWAP3 SWAP2 SWAP1 DUP2 DUP2 MSTORE PUSH1 0x20 ADD DUP3 DUP1 SLOAD PUSH2 0xA4E SWAP1 PUSH2 0x2946 JUMP JUMPDEST DUP1 ISZERO PUSH2 0xA9B JUMPI DUP1 PUSH1 0x1F LT PUSH2 0xA70 JUMPI PUSH2 0x100 DUP1 DUP4 SLOAD DIV MUL DUP4 MSTORE SWAP2 PUSH1 0x20 ADD SWAP2 PUSH2 0xA9B JUMP JUMPDEST DUP3 ADD SWAP2 SWAP1 PUSH1 0x0 MSTORE PUSH1 0x20 PUSH1 0x0 KECCAK256 SWAP1 JUMPDEST DUP2 SLOAD DUP2 MSTORE SWAP1 PUSH1 0x1 ADD SWAP1 PUSH1 0x20 ADD DUP1 DUP4 GT PUSH2 0xA7E JUMPI DUP3 SWAP1 SUB PUSH1 0x1F AND DUP3 ADD SWAP2 JUMPDEST POP POP POP POP POP DUP2 MSTORE PUSH1 0x20 ADD PUSH1 0x1 DUP3 ADD DUP1 SLOAD PUSH2 0xAB4 SWAP1 PUSH2 0x2946 JUMP JUMPDEST DUP1 PUSH1 0x1F ADD PUSH1 0x20 DUP1 SWAP2 DIV MUL PUSH1 0x20 ADD PUSH1 0x40 MLOAD SWAP1 DUP2 ADD PUSH1 0x40 MSTORE DUP1 SWAP3 SWAP2 SWAP1 DUP2 DUP2 MSTORE PUSH1 0x20 ADD DUP3 DUP1 SLOAD PUSH2 0xAE0 SWAP1 PUSH2 0x2946 JUMP JUMPDEST DUP1 ISZERO PUSH2 0xB2D JUMPI DUP1 PUSH1 0x1F LT PUSH2 0xB02 JUMPI PUSH2 0x100 DUP1 DUP4 SLOAD DIV MUL DUP4 MSTORE SWAP2 PUSH1 0x20 ADD SWAP2 PUSH2 0xB2D JUMP JUMPDEST DUP3 ADD SWAP2 SWAP1 PUSH1 0x0 MSTORE PUSH1 0x20 PUSH1 0x0 KECCAK256 SWAP1 JUMPDEST DUP2 SLOAD DUP2 MSTORE SWAP1 PUSH1 0x1 ADD SWAP1 PUSH1 0x20 ADD DUP1 DUP4 GT PUSH2 0xB10 JUMPI DUP3 SWAP1 SUB PUSH1 0x1F AND DUP3 ADD SWAP2 JUMPDEST POP POP POP POP POP DUP2 MSTORE PUSH1 0x20 ADD PUSH1 0x2 DUP3 ADD SLOAD DUP2 MSTORE PUSH1 0x20 ADD PUSH1 0x3 DUP3 ADD PUSH1 0x0 SWAP1 SLOAD SWAP1 PUSH2 0x100 EXP SWAP1 DIV PUSH20 0xFFFFFFFFFFFFFFFFFFFFFFFFFFFFFFFFFFFFFFFF AND PUSH20 0xFFFFFFFFFFFFFFFFFFFFFFFFFFFFFFFFFFFFFFFF AND PUSH20 0xFFFFFFFFFFFFFFFFFFFFFFFFFFFFFFFFFFFFFFFF AND DUP2 MSTORE PUSH1 0x20 ADD PUSH1 0x4 DUP3 ADD SLOAD DUP2 MSTORE PUSH1 0x20 ADD PUSH1 0x5 DUP3 ADD SLOAD DUP2 MSTORE PUSH1 0x20 ADD PUSH1 0x6 DUP3 ADD PUSH1 0x0 SWAP1 SLOAD SWAP1 PUSH2 0x100 EXP SWAP1 DIV PUSH1 0xFF AND ISZERO ISZERO ISZERO ISZERO DUP2 MSTORE POP POP SWAP1 POP PUSH1 0x0 DUP2 PUSH1 0xC0 ADD SWAP1 ISZERO ISZERO SWAP1 DUP2 ISZERO ISZERO DUP2 MSTORE POP POP DUP1 PUSH1 0x7 PUSH1 0x0 DUP7 DUP2 MSTORE PUSH1 0x20 ADD SWAP1 DUP2 MSTORE PUSH1 0x20 ADD PUSH1 0x0 KECCAK256 PUSH1 0x0 DUP3 ADD MLOAD DUP2 PUSH1 0x0 ADD SWAP1 DUP1 MLOAD SWAP1 PUSH1 0x20 ADD SWAP1 PUSH2 0xC08 SWAP3 SWAP2 SWAP1 PUSH2 0x1FAF JUMP JUMPDEST POP PUSH1 0x20 DUP3 ADD MLOAD DUP2 PUSH1 0x1 ADD SWAP1 DUP1 MLOAD SWAP1 PUSH1 0x20 ADD SWAP1 PUSH2 0xC25 SWAP3 SWAP2 SWAP1 PUSH2 0x1FAF JUMP JUMPDEST POP PUSH1 0x40 DUP3 ADD MLOAD DUP2 PUSH1 0x2 ADD SSTORE PUSH1 0x60 DUP3 ADD MLOAD DUP2 PUSH1 0x3 ADD PUSH1 0x0 PUSH2 0x100 EXP DUP2 SLOAD DUP2 PUSH20 0xFFFFFFFFFFFFFFFFFFFFFFFFFFFFFFFFFFFFFFFF MUL NOT AND SWAP1 DUP4 PUSH20 0xFFFFFFFFFFFFFFFFFFFFFFFFFFFFFFFFFFFFFFFF AND MUL OR SWAP1 SSTORE POP PUSH1 0x80 DUP3 ADD MLOAD DUP2 PUSH1 0x4 ADD SSTORE PUSH1 0xA0 DUP3 ADD MLOAD DUP2 PUSH1 0x5 ADD SSTORE PUSH1 0xC0 DUP3 ADD MLOAD DUP2 PUSH1 0x6 ADD PUSH1 0x0 PUSH2 0x100 EXP DUP2 SLOAD DUP2 PUSH1 0xFF MUL NOT AND SWAP1 DUP4 ISZERO ISZERO MUL OR SWAP1 SSTORE POP SWAP1 POP POP PUSH1 0x0 PUSH1 0x40 MLOAD DUP1 PUSH1 0x60 ADD PUSH1 0x40 MSTORE DUP1 TIMESTAMP DUP2 MSTORE PUSH1 0x20 ADD CALLER PUSH20 0xFFFFFFFFFFFFFFFFFFFFFFFFFFFFFFFFFFFFFFFF AND DUP2 MSTORE PUSH1 0x20 ADD PUSH2 0xD24 PUSH1 0x40 MLOAD DUP1 PUSH1 0x40 ADD PUSH1 0x40 MSTORE DUP1 PUSH1 0x11 DUP2 MSTORE PUSH1 0x20 ADD PUSH32 0x64656C6574652061737365742C69643A20000000000000000000000000000000 DUP2 MSTORE POP PUSH2 0xD1F DUP10 PUSH2 0x1D84 JUMP JUMPDEST PUSH2 0x1BEE JUMP JUMPDEST DUP2 MSTORE POP SWAP1 POP PUSH1 0x1 PUSH1 0x0 SWAP1 SLOAD SWAP1 PUSH2 0x100 EXP SWAP1 DIV PUSH20 0xFFFFFFFFFFFFFFFFFFFFFFFFFFFFFFFFFFFFFFFF AND PUSH20 0xFFFFFFFFFFFFFFFFFFFFFFFFFFFFFFFFFFFFFFFF AND PUSH4 0xC3DBD0F5 DUP7 DUP4 PUSH1 0x40 MLOAD DUP4 PUSH4 0xFFFFFFFF AND PUSH1 0xE0 SHL DUP2 MSTORE PUSH1 0x4 ADD PUSH2 0xD86 SWAP3 SWAP2 SWAP1 PUSH2 0x2B1F JUMP JUMPDEST PUSH1 0x0 PUSH1 0x40 MLOAD DUP1 DUP4 SUB DUP2 PUSH1 0x0 DUP8 DUP1 EXTCODESIZE ISZERO DUP1 ISZERO PUSH2 0xDA0 JUMPI PUSH1 0x0 DUP1 REVERT JUMPDEST POP GAS CALL ISZERO DUP1 ISZERO PUSH2 0xDB4 JUMPI RETURNDATASIZE PUSH1 0x0 DUP1 RETURNDATACOPY RETURNDATASIZE PUSH1 0x0 REVERT JUMPDEST POP POP POP POP POP POP POP POP POP JUMP JUMPDEST PUSH32 0xDF8B4C520FFE197C5343C6F5AEC59570151EF9A492F2C624FD45DDDE6135EC42 PUSH2 0xDE9 DUP2 PUSH2 0x13CB JUMP JUMPDEST POP DUP4 PUSH1 0x8 DUP2 PUSH1 0x40 MLOAD PUSH2 0xDFB SWAP2 SWAP1 PUSH2 0x2B8B JUMP JUMPDEST SWAP1 DUP2 MSTORE PUSH1 0x20 ADD PUSH1 0x40 MLOAD DUP1 SWAP2 SUB SWAP1 KECCAK256 PUSH1 0x0 SWAP1 SLOAD SWAP1 PUSH2 0x100 EXP SWAP1 DIV PUSH1 0xFF AND ISZERO PUSH2 0xE57 JUMPI PUSH1 0x40 MLOAD PUSH32 0x8C379A000000000000000000000000000000000000000000000000000000000 DUP2 MSTORE PUSH1 0x4 ADD PUSH2 0xE4E SWAP1 PUSH2 0x2C14 JUMP JUMPDEST PUSH1 0x40 MLOAD DUP1 SWAP2 SUB SWAP1 REVERT JUMPDEST PUSH1 0x0 PUSH1 0x40 MLOAD DUP1 PUSH1 0xE0 ADD PUSH1 0x40 MSTORE DUP1 DUP8 DUP2 MSTORE PUSH1 0x20 ADD DUP7 DUP2 MSTORE PUSH1 0x20 ADD TIMESTAMP DUP2 MSTORE PUSH1 0x20 ADD CALLER PUSH20 0xFFFFFFFFFFFFFFFFFFFFFFFFFFFFFFFFFFFFFFFF AND DUP2 MSTORE PUSH1 0x20 ADD DUP6 DUP2 MSTORE PUSH1 0x20 ADD PUSH1 0x0 DUP2 MSTORE PUSH1 0x20 ADD PUSH1 0x1 ISZERO ISZERO DUP2 MSTORE POP SWAP1 POP DUP1 PUSH1 0x7 PUSH1 0x0 PUSH1 0x6 SLOAD DUP2 MSTORE PUSH1 0x20 ADD SWAP1 DUP2 MSTORE PUSH1 0x20 ADD PUSH1 0x0 KECCAK256 PUSH1 0x0 DUP3 ADD MLOAD DUP2 PUSH1 0x0 ADD SWAP1 DUP1 MLOAD SWAP1 PUSH1 0x20 ADD SWAP1 PUSH2 0xEDA SWAP3 SWAP2 SWAP1 PUSH2 0x1FAF JUMP JUMPDEST POP PUSH1 0x20 DUP3 ADD MLOAD DUP2 PUSH1 0x1 ADD SWAP1 DUP1 MLOAD SWAP1 PUSH1 0x20 ADD SWAP1 PUSH2 0xEF7 SWAP3 SWAP2 SWAP1 PUSH2 0x1FAF JUMP JUMPDEST POP PUSH1 0x40 DUP3 ADD MLOAD DUP2 PUSH1 0x2 ADD SSTORE PUSH1 0x60 DUP3 ADD MLOAD DUP2 PUSH1 0x3 ADD PUSH1 0x0 PUSH2 0x100 EXP DUP2 SLOAD DUP2 PUSH20 0xFFFFFFFFFFFFFFFFFFFFFFFFFFFFFFFFFFFFFFFF MUL NOT AND SWAP1 DUP4 PUSH20 0xFFFFFFFFFFFFFFFFFFFFFFFFFFFFFFFFFFFFFFFF AND MUL OR SWAP1 SSTORE POP PUSH1 0x80 DUP3 ADD MLOAD DUP2 PUSH1 0x4 ADD SSTORE PUSH1 0xA0 DUP3 ADD MLOAD DUP2 PUSH1 0x5 ADD SSTORE PUSH1 0xC0 DUP3 ADD MLOAD DUP2 PUSH1 0x6 ADD PUSH1 0x0 PUSH2 0x100 EXP DUP2 SLOAD DUP2 PUSH1 0xFF MUL NOT AND SWAP1 DUP4 ISZERO ISZERO MUL OR SWAP1 SSTORE POP SWAP1 POP POP PUSH1 0x0 PUSH1 0x40 MLOAD DUP1 PUSH1 0x60 ADD PUSH1 0x40 MSTORE DUP1 DUP4 PUSH1 0x40 ADD MLOAD DUP2 MSTORE PUSH1 0x20 ADD CALLER PUSH20 0xFFFFFFFFFFFFFFFFFFFFFFFFFFFFFFFFFFFFFFFF AND DUP2 MSTORE PUSH1 0x20 ADD PUSH1 0x40 MLOAD DUP1 PUSH1 0x40 ADD PUSH1 0x40 MSTORE DUP1 PUSH1 0x6 DUP2 MSTORE PUSH1 0x20 ADD PUSH32 0x6372656174650000000000000000000000000000000000000000000000000000 DUP2 MSTORE POP DUP2 MSTORE POP SWAP1 POP PUSH1 0x1 PUSH1 0x0 SWAP1 SLOAD SWAP1 PUSH2 0x100 EXP SWAP1 DIV PUSH20 0xFFFFFFFFFFFFFFFFFFFFFFFFFFFFFFFFFFFFFFFF AND PUSH20 0xFFFFFFFFFFFFFFFFFFFFFFFFFFFFFFFFFFFFFFFF AND PUSH4 0xC3DBD0F5 PUSH1 0x6 SLOAD DUP4 PUSH1 0x40 MLOAD DUP4 PUSH4 0xFFFFFFFF AND PUSH1 0xE0 SHL DUP2 MSTORE PUSH1 0x4 ADD PUSH2 0x104D SWAP3 SWAP2 SWAP1 PUSH2 0x2B1F JUMP JUMPDEST PUSH1 0x0 PUSH1 0x40 MLOAD DUP1 DUP4 SUB DUP2 PUSH1 0x0 DUP8 DUP1 EXTCODESIZE ISZERO DUP1 ISZERO PUSH2 0x1067 JUMPI PUSH1 0x0 DUP1 REVERT JUMPDEST POP GAS CALL ISZERO DUP1 ISZERO PUSH2 0x107B JUMPI RETURNDATASIZE PUSH1 0x0 DUP1 RETURNDATACOPY RETURNDATASIZE PUSH1 0x0 REVERT JUMPDEST POP POP POP POP PUSH1 0x6 PUSH1 0x0 DUP2 SLOAD PUSH2 0x108E SWAP1 PUSH2 0x2C63 JUMP JUMPDEST SWAP2 SWAP1 POP DUP2 SWAP1 SSTORE POP DUP5 CALLER PUSH20 0xFFFFFFFFFFFFFFFFFFFFFFFFFFFFFFFFFFFFFFFF AND PUSH32 0x6EA2437AFC211BD86A037C3AC972BF3AFBA803F793925CBDFBCBBB94CDE6DCFD DUP9 DUP6 PUSH1 0x40 ADD MLOAD DUP12 PUSH1 0x40 MLOAD PUSH2 0x10E4 SWAP4 SWAP3 SWAP2 SWAP1 PUSH2 0x2CAC JUMP JUMPDEST PUSH1 0x40 MLOAD DUP1 SWAP2 SUB SWAP1 LOG3 POP POP POP POP POP POP POP JUMP JUMPDEST PUSH32 0x4723EF6F53F658DB2AADEC92D099865EEBE159BEF21592286D815FE01F07EACF DUP2 JUMP JUMPDEST PUSH1 0x0 DUP1 PUSH1 0x0 DUP5 DUP2 MSTORE PUSH1 0x20 ADD SWAP1 DUP2 MSTORE PUSH1 0x20 ADD PUSH1 0x0 KECCAK256 PUSH1 0x0 ADD PUSH1 0x0 DUP4 PUSH20 0xFFFFFFFFFFFFFFFFFFFFFFFFFFFFFFFFFFFFFFFF AND PUSH20 0xFFFFFFFFFFFFFFFFFFFFFFFFFFFFFFFFFFFFFFFF AND DUP2 MSTORE PUSH1 0x20 ADD SWAP1 DUP2 MSTORE PUSH1 0x20 ADD PUSH1 0x0 KECCAK256 PUSH1 0x0 SWAP1 SLOAD SWAP1 PUSH2 0x100 EXP SWAP1 DIV PUSH1 0xFF AND SWAP1 POP SWAP3 SWAP2 POP POP JUMP JUMPDEST PUSH1 0x0 PUSH32 0xDF8B4C520FFE197C5343C6F5AEC59570151EF9A492F2C624FD45DDDE6135EC42 PUSH2 0x11AF DUP2 PUSH2 0x13CB JUMP JUMPDEST POP PUSH1 0x0 PUSH2 0x11BB DUP6 PUSH2 0x903 JUMP JUMPDEST SWAP1 POP PUSH2 0x11C7 DUP2 DUP6 PUSH2 0x1119 JUMP JUMPDEST ISZERO PUSH2 0x1272 PUSH1 0x40 MLOAD DUP1 PUSH1 0x40 ADD PUSH1 0x40 MSTORE DUP1 PUSH1 0xC DUP2 MSTORE PUSH1 0x20 ADD PUSH32 0x436F6D70616E794C6F6769630000000000000000000000000000000000000000 DUP2 MSTORE POP PUSH1 0x40 MLOAD DUP1 PUSH1 0x40 ADD PUSH1 0x40 MSTORE DUP1 PUSH1 0x9 DUP2 MSTORE PUSH1 0x20 ADD PUSH32 0x616464576F726B65720000000000000000000000000000000000000000000000 DUP2 MSTORE POP PUSH1 0x40 MLOAD DUP1 PUSH1 0x40 ADD PUSH1 0x40 MSTORE DUP1 PUSH1 0x15 DUP2 MSTORE PUSH1 0x20 ADD PUSH32 0x776F726B657220686173206265656E2061646465640000000000000000000000 DUP2 MSTORE POP PUSH2 0x82B JUMP JUMPDEST SWAP1 PUSH2 0x12B3 JUMPI PUSH1 0x40 MLOAD PUSH32 0x8C379A000000000000000000000000000000000000000000000000000000000 DUP2 MSTORE PUSH1 0x4 ADD PUSH2 0x12AA SWAP2 SWAP1 PUSH2 0x24BE JUMP JUMPDEST PUSH1 0x40 MLOAD DUP1 SWAP2 SUB SWAP1 REVERT JUMPDEST POP PUSH2 0x12BE DUP2 DUP6 PUSH2 0x72C JUMP JUMPDEST POP PUSH1 0x40 MLOAD DUP1 PUSH1 0x20 ADD PUSH1 0x40 MSTORE DUP1 DUP3 DUP2 MSTORE POP PUSH1 0x5 PUSH1 0x0 DUP7 PUSH20 0xFFFFFFFFFFFFFFFFFFFFFFFFFFFFFFFFFFFFFFFF AND PUSH20 0xFFFFFFFFFFFFFFFFFFFFFFFFFFFFFFFFFFFFFFFF AND DUP2 MSTORE PUSH1 0x20 ADD SWAP1 DUP2 MSTORE PUSH1 0x20 ADD PUSH1 0x0 KECCAK256 PUSH1 0x0 DUP3 ADD MLOAD DUP2 PUSH1 0x0 ADD SSTORE SWAP1 POP POP PUSH32 0x17A4F24EA0614811AE3CACE2D4BC04F34F4C19B8296B089FA5B90BF516A16099 DUP5 PUSH1 0x4 PUSH1 0x40 MLOAD PUSH2 0x134C SWAP3 SWAP2 SWAP1 PUSH2 0x2A0D JUMP JUMPDEST PUSH1 0x40 MLOAD DUP1 SWAP2 SUB SWAP1 LOG1 PUSH1 0x1 SWAP3 POP POP POP SWAP3 SWAP2 POP POP JUMP JUMPDEST PUSH1 0x0 DUP1 SHL DUP2 JUMP JUMPDEST PUSH1 0x0 PUSH1 0x6 SLOAD SWAP1 POP SWAP1 JUMP JUMPDEST PUSH1 0x60 PUSH2 0x13C3 PUSH2 0x13B5 DUP5 PUSH1 0x40 MLOAD DUP1 PUSH1 0x40 ADD PUSH1 0x40 MSTORE DUP1 PUSH1 0x1 DUP2 MSTORE PUSH1 0x20 ADD PUSH32 0x3A00000000000000000000000000000000000000000000000000000000000000 DUP2 MSTORE POP PUSH2 0x1BEE JUMP JUMPDEST PUSH2 0x13BE DUP5 PUSH2 0x1D84 JUMP JUMPDEST PUSH2 0x1BEE JUMP JUMPDEST SWAP1 POP SWAP3 SWAP2 POP POP JUMP JUMPDEST PUSH1 0x0 PUSH2 0x13D7 DUP3 CALLER PUSH2 0x1119 JUMP JUMPDEST PUSH2 0x1416 JUMPI PUSH1 0x40 MLOAD PUSH32 0x8C379A000000000000000000000000000000000000000000000000000000000 DUP2 MSTORE PUSH1 0x4 ADD PUSH2 0x140D SWAP1 PUSH2 0x2D3D JUMP JUMPDEST PUSH1 0x40 MLOAD DUP1 SWAP2 SUB SWAP1 REVERT JUMPDEST PUSH1 0x1 SWAP1 POP SWAP2 SWAP1 POP JUMP JUMPDEST PUSH1 0x0 DUP2 PUSH1 0x40 MLOAD PUSH1 0x20 ADD PUSH2 0x1432 SWAP2 SWAP1 PUSH2 0x2B8B JUMP JUMPDEST PUSH1 0x40 MLOAD PUSH1 0x20 DUP2 DUP4 SUB SUB DUP2 MSTORE SWAP1 PUSH1 0x40 MSTORE DUP1 MLOAD SWAP1 PUSH1 0x20 ADD KECCAK256 SWAP1 POP SWAP2 SWAP1 POP JUMP JUMPDEST PUSH1 0x0 PUSH2 0x145A DUP4 PUSH2 0x70D JUMP JUMPDEST PUSH2 0x1463 DUP2 PUSH2 0x13CB JUMP JUMPDEST POP PUSH2 0x146E DUP5 DUP5 PUSH2 0x1119 JUMP JUMPDEST PUSH2 0x147B JUMPI PUSH1 0x0 SWAP2 POP PUSH2 0x1546 JUMP JUMPDEST PUSH1 0x0 DUP1 PUSH1 0x0 DUP7 DUP2 MSTORE PUSH1 0x20 ADD SWAP1 DUP2 MSTORE PUSH1 0x20 ADD PUSH1 0x0 KECCAK256 PUSH1 0x0 ADD PUSH1 0x0 DUP6 PUSH20 0xFFFFFFFFFFFFFFFFFFFFFFFFFFFFFFFFFFFFFFFF AND PUSH20 0xFFFFFFFFFFFFFFFFFFFFFFFFFFFFFFFFFFFFFFFF AND DUP2 MSTORE PUSH1 0x20 ADD SWAP1 DUP2 MSTORE PUSH1 0x20 ADD PUSH1 0x0 KECCAK256 PUSH1 0x0 PUSH2 0x100 EXP DUP2 SLOAD DUP2 PUSH1 0xFF MUL NOT AND SWAP1 DUP4 ISZERO ISZERO MUL OR SWAP1 SSTORE POP CALLER PUSH20 0xFFFFFFFFFFFFFFFFFFFFFFFFFFFFFFFFFFFFFFFF AND DUP4 PUSH20 0xFFFFFFFFFFFFFFFFFFFFFFFFFFFFFFFFFFFFFFFF AND DUP6 PUSH32 0xF6391F5C32D9C69D2A47EA670B442974B53935D1EDC7FD64EB21E047A839171B PUSH1 0x40 MLOAD PUSH1 0x40 MLOAD DUP1 SWAP2 SUB SWAP1 LOG4 PUSH1 0x1 SWAP2 POP JUMPDEST POP SWAP3 SWAP2 POP POP JUMP JUMPDEST PUSH32 0xDF8B4C520FFE197C5343C6F5AEC59570151EF9A492F2C624FD45DDDE6135EC42 PUSH2 0x1577 DUP2 PUSH2 0x13CB JUMP JUMPDEST POP DUP3 PUSH1 0x7 PUSH1 0x0 DUP3 DUP2 MSTORE PUSH1 0x20 ADD SWAP1 DUP2 MSTORE PUSH1 0x20 ADD PUSH1 0x0 KECCAK256 PUSH1 0x6 ADD PUSH1 0x0 SWAP1 SLOAD SWAP1 PUSH2 0x100 EXP SWAP1 DIV PUSH1 0xFF AND PUSH2 0x15DC JUMPI PUSH1 0x40 MLOAD PUSH32 0x8C379A000000000000000000000000000000000000000000000000000000000 DUP2 MSTORE PUSH1 0x4 ADD PUSH2 0x15D3 SWAP1 PUSH2 0x2AAF JUMP JUMPDEST PUSH1 0x40 MLOAD DUP1 SWAP2 SUB SWAP1 REVERT JUMPDEST PUSH1 0x0 PUSH1 0x7 PUSH1 0x0 DUP7 DUP2 MSTORE PUSH1 0x20 ADD SWAP1 DUP2 MSTORE PUSH1 0x20 ADD PUSH1 0x0 KECCAK256 PUSH1 0x40 MLOAD DUP1 PUSH1 0xE0 ADD PUSH1 0x40 MSTORE SWAP1 DUP2 PUSH1 0x0 DUP3 ADD DUP1 SLOAD PUSH2 0x160C SWAP1 PUSH2 0x2946 JUMP JUMPDEST DUP1 PUSH1 0x1F ADD PUSH1 0x20 DUP1 SWAP2 DIV MUL PUSH1 0x20 ADD PUSH1 0x40 MLOAD SWAP1 DUP2 ADD PUSH1 0x40 MSTORE DUP1 SWAP3 SWAP2 SWAP1 DUP2 DUP2 MSTORE PUSH1 0x20 ADD DUP3 DUP1 SLOAD PUSH2 0x1638 SWAP1 PUSH2 0x2946 JUMP JUMPDEST DUP1 ISZERO PUSH2 0x1685 JUMPI DUP1 PUSH1 0x1F LT PUSH2 0x165A JUMPI PUSH2 0x100 DUP1 DUP4 SLOAD DIV MUL DUP4 MSTORE SWAP2 PUSH1 0x20 ADD SWAP2 PUSH2 0x1685 JUMP JUMPDEST DUP3 ADD SWAP2 SWAP1 PUSH1 0x0 MSTORE PUSH1 0x20 PUSH1 0x0 KECCAK256 SWAP1 JUMPDEST DUP2 SLOAD DUP2 MSTORE SWAP1 PUSH1 0x1 ADD SWAP1 PUSH1 0x20 ADD DUP1 DUP4 GT PUSH2 0x1668 JUMPI DUP3 SWAP1 SUB PUSH1 0x1F AND DUP3 ADD SWAP2 JUMPDEST POP POP POP POP POP DUP2 MSTORE PUSH1 0x20 ADD PUSH1 0x1 DUP3 ADD DUP1 SLOAD PUSH2 0x169E SWAP1 PUSH2 0x2946 JUMP JUMPDEST DUP1 PUSH1 0x1F ADD PUSH1 0x20 DUP1 SWAP2 DIV MUL PUSH1 0x20 ADD PUSH1 0x40 MLOAD SWAP1 DUP2 ADD PUSH1 0x40 MSTORE DUP1 SWAP3 SWAP2 SWAP1 DUP2 DUP2 MSTORE PUSH1 0x20 ADD DUP3 DUP1 SLOAD PUSH2 0x16CA SWAP1 PUSH2 0x2946 JUMP JUMPDEST DUP1 ISZERO PUSH2 0x1717 JUMPI DUP1 PUSH1 0x1F LT PUSH2 0x16EC JUMPI PUSH2 0x100 DUP1 DUP4 SLOAD DIV MUL DUP4 MSTORE SWAP2 PUSH1 0x20 ADD SWAP2 PUSH2 0x1717 JUMP JUMPDEST DUP3 ADD SWAP2 SWAP1 PUSH1 0x0 MSTORE PUSH1 0x20 PUSH1 0x0 KECCAK256 SWAP1 JUMPDEST DUP2 SLOAD DUP2 MSTORE SWAP1 PUSH1 0x1 ADD SWAP1 PUSH1 0x20 ADD DUP1 DUP4 GT PUSH2 0x16FA JUMPI DUP3 SWAP1 SUB PUSH1 0x1F AND DUP3 ADD SWAP2 JUMPDEST POP POP POP POP POP DUP2 MSTORE PUSH1 0x20 ADD PUSH1 0x2 DUP3 ADD SLOAD DUP2 MSTORE PUSH1 0x20 ADD PUSH1 0x3 DUP3 ADD PUSH1 0x0 SWAP1 SLOAD SWAP1 PUSH2 0x100 EXP SWAP1 DIV PUSH20 0xFFFFFFFFFFFFFFFFFFFFFFFFFFFFFFFFFFFFFFFF AND PUSH20 0xFFFFFFFFFFFFFFFFFFFFFFFFFFFFFFFFFFFFFFFF AND PUSH20 0xFFFFFFFFFFFFFFFFFFFFFFFFFFFFFFFFFFFFFFFF AND DUP2 MSTORE PUSH1 0x20 ADD PUSH1 0x4 DUP3 ADD SLOAD DUP2 MSTORE PUSH1 0x20 ADD PUSH1 0x5 DUP3 ADD SLOAD DUP2 MSTORE PUSH1 0x20 ADD PUSH1 0x6 DUP3 ADD PUSH1 0x0 SWAP1 SLOAD SWAP1 PUSH2 0x100 EXP SWAP1 DIV PUSH1 0xFF AND ISZERO ISZERO ISZERO ISZERO DUP2 MSTORE POP POP SWAP1 POP DUP4 DUP2 PUSH1 0x80 ADD DUP2 DUP2 MSTORE POP POP DUP1 PUSH1 0x7 PUSH1 0x0 DUP8 DUP2 MSTORE PUSH1 0x20 ADD SWAP1 DUP2 MSTORE PUSH1 0x20 ADD PUSH1 0x0 KECCAK256 PUSH1 0x0 DUP3 ADD MLOAD DUP2 PUSH1 0x0 ADD SWAP1 DUP1 MLOAD SWAP1 PUSH1 0x20 ADD SWAP1 PUSH2 0x17EB SWAP3 SWAP2 SWAP1 PUSH2 0x1FAF JUMP JUMPDEST POP PUSH1 0x20 DUP3 ADD MLOAD DUP2 PUSH1 0x1 ADD SWAP1 DUP1 MLOAD SWAP1 PUSH1 0x20 ADD SWAP1 PUSH2 0x1808 SWAP3 SWAP2 SWAP1 PUSH2 0x1FAF JUMP JUMPDEST POP PUSH1 0x40 DUP3 ADD MLOAD DUP2 PUSH1 0x2 ADD SSTORE PUSH1 0x60 DUP3 ADD MLOAD DUP2 PUSH1 0x3 ADD PUSH1 0x0 PUSH2 0x100 EXP DUP2 SLOAD DUP2 PUSH20 0xFFFFFFFFFFFFFFFFFFFFFFFFFFFFFFFFFFFFFFFF MUL NOT AND SWAP1 DUP4 PUSH20 0xFFFFFFFFFFFFFFFFFFFFFFFFFFFFFFFFFFFFFFFF AND MUL OR SWAP1 SSTORE POP PUSH1 0x80 DUP3 ADD MLOAD DUP2 PUSH1 0x4 ADD SSTORE PUSH1 0xA0 DUP3 ADD MLOAD DUP2 PUSH1 0x5 ADD SSTORE PUSH1 0xC0 DUP3 ADD MLOAD DUP2 PUSH1 0x6 ADD PUSH1 0x0 PUSH2 0x100 EXP DUP2 SLOAD DUP2 PUSH1 0xFF MUL NOT AND SWAP1 DUP4 ISZERO ISZERO MUL OR SWAP1 SSTORE POP SWAP1 POP POP PUSH1 0x0 PUSH1 0x40 MLOAD DUP1 PUSH1 0x60 ADD PUSH1 0x40 MSTORE DUP1 TIMESTAMP DUP2 MSTORE PUSH1 0x20 ADD CALLER PUSH20 0xFFFFFFFFFFFFFFFFFFFFFFFFFFFFFFFFFFFFFFFF AND DUP2 MSTORE PUSH1 0x20 ADD PUSH2 0x1907 PUSH1 0x40 MLOAD DUP1 PUSH1 0x40 ADD PUSH1 0x40 MSTORE DUP1 PUSH1 0x11 DUP2 MSTORE PUSH1 0x20 ADD PUSH32 0x7570646174652067726F7570496420746F000000000000000000000000000000 DUP2 MSTORE POP PUSH2 0x1902 DUP10 PUSH2 0x1D84 JUMP JUMPDEST PUSH2 0x1BEE JUMP JUMPDEST DUP2 MSTORE POP SWAP1 POP PUSH1 0x1 PUSH1 0x0 SWAP1 SLOAD SWAP1 PUSH2 0x100 EXP SWAP1 DIV PUSH20 0xFFFFFFFFFFFFFFFFFFFFFFFFFFFFFFFFFFFFFFFF AND PUSH20 0xFFFFFFFFFFFFFFFFFFFFFFFFFFFFFFFFFFFFFFFF AND PUSH4 0xC3DBD0F5 DUP8 DUP4 PUSH1 0x40 MLOAD DUP4 PUSH4 0xFFFFFFFF AND PUSH1 0xE0 SHL DUP2 MSTORE PUSH1 0x4 ADD PUSH2 0x1969 SWAP3 SWAP2 SWAP1 PUSH2 0x2B1F JUMP JUMPDEST PUSH1 0x0 PUSH1 0x40 MLOAD DUP1 DUP4 SUB DUP2 PUSH1 0x0 DUP8 DUP1 EXTCODESIZE ISZERO DUP1 ISZERO PUSH2 0x1983 JUMPI PUSH1 0x0 DUP1 REVERT JUMPDEST POP GAS CALL ISZERO DUP1 ISZERO PUSH2 0x1997 JUMPI RETURNDATASIZE PUSH1 0x0 DUP1 RETURNDATACOPY RETURNDATASIZE PUSH1 0x0 REVERT JUMPDEST POP POP POP POP POP POP POP POP POP POP JUMP JUMPDEST PUSH2 0x19AB PUSH2 0x2035 JUMP JUMPDEST DUP2 PUSH1 0x7 PUSH1 0x0 DUP3 DUP2 MSTORE PUSH1 0x20 ADD SWAP1 DUP2 MSTORE PUSH1 0x20 ADD PUSH1 0x0 KECCAK256 PUSH1 0x6 ADD PUSH1 0x0 SWAP1 SLOAD SWAP1 PUSH2 0x100 EXP SWAP1 DIV PUSH1 0xFF AND PUSH2 0x1A0F JUMPI PUSH1 0x40 MLOAD PUSH32 0x8C379A000000000000000000000000000000000000000000000000000000000 DUP2 MSTORE PUSH1 0x4 ADD PUSH2 0x1A06 SWAP1 PUSH2 0x2AAF JUMP JUMPDEST PUSH1 0x40 MLOAD DUP1 SWAP2 SUB SWAP1 REVERT JUMPDEST PUSH1 0x7 PUSH1 0x0 DUP5 DUP2 MSTORE PUSH1 0x20 ADD SWAP1 DUP2 MSTORE PUSH1 0x20 ADD PUSH1 0x0 KECCAK256 PUSH1 0x40 MLOAD DUP1 PUSH1 0xE0 ADD PUSH1 0x40 MSTORE SWAP1 DUP2 PUSH1 0x0 DUP3 ADD DUP1 SLOAD PUSH2 0x1A3D SWAP1 PUSH2 0x2946 JUMP JUMPDEST DUP1 PUSH1 0x1F ADD PUSH1 0x20 DUP1 SWAP2 DIV MUL PUSH1 0x20 ADD PUSH1 0x40 MLOAD SWAP1 DUP2 ADD PUSH1 0x40 MSTORE DUP1 SWAP3 SWAP2 SWAP1 DUP2 DUP2 MSTORE PUSH1 0x20 ADD DUP3 DUP1 SLOAD PUSH2 0x1A69 SWAP1 PUSH2 0x2946 JUMP JUMPDEST DUP1 ISZERO PUSH2 0x1AB6 JUMPI DUP1 PUSH1 0x1F LT PUSH2 0x1A8B JUMPI PUSH2 0x100 DUP1 DUP4 SLOAD DIV MUL DUP4 MSTORE SWAP2 PUSH1 0x20 ADD SWAP2 PUSH2 0x1AB6 JUMP JUMPDEST DUP3 ADD SWAP2 SWAP1 PUSH1 0x0 MSTORE PUSH1 0x20 PUSH1 0x0 KECCAK256 SWAP1 JUMPDEST DUP2 SLOAD DUP2 MSTORE SWAP1 PUSH1 0x1 ADD SWAP1 PUSH1 0x20 ADD DUP1 DUP4 GT PUSH2 0x1A99 JUMPI DUP3 SWAP1 SUB PUSH1 0x1F AND DUP3 ADD SWAP2 JUMPDEST POP POP POP POP POP DUP2 MSTORE PUSH1 0x20 ADD PUSH1 0x1 DUP3 ADD DUP1 SLOAD PUSH2 0x1ACF SWAP1 PUSH2 0x2946 JUMP JUMPDEST DUP1 PUSH1 0x1F ADD PUSH1 0x20 DUP1 SWAP2 DIV MUL PUSH1 0x20 ADD PUSH1 0x40 MLOAD SWAP1 DUP2 ADD PUSH1 0x40 MSTORE DUP1 SWAP3 SWAP2 SWAP1 DUP2 DUP2 MSTORE PUSH1 0x20 ADD DUP3 DUP1 SLOAD PUSH2 0x1AFB SWAP1 PUSH2 0x2946 JUMP JUMPDEST DUP1 ISZERO PUSH2 0x1B48 JUMPI DUP1 PUSH1 0x1F LT PUSH2 0x1B1D JUMPI PUSH2 0x100 DUP1 DUP4 SLOAD DIV MUL DUP4 MSTORE SWAP2 PUSH1 0x20 ADD SWAP2 PUSH2 0x1B48 JUMP JUMPDEST DUP3 ADD SWAP2 SWAP1 PUSH1 0x0 MSTORE PUSH1 0x20 PUSH1 0x0 KECCAK256 SWAP1 JUMPDEST DUP2 SLOAD DUP2 MSTORE SWAP1 PUSH1 0x1 ADD SWAP1 PUSH1 0x20 ADD DUP1 DUP4 GT PUSH2 0x1B2B JUMPI DUP3 SWAP1 SUB PUSH1 0x1F AND DUP3 ADD SWAP2 JUMPDEST POP POP POP POP POP DUP2 MSTORE PUSH1 0x20 ADD PUSH1 0x2 DUP3 ADD SLOAD DUP2 MSTORE PUSH1 0x20 ADD PUSH1 0x3 DUP3 ADD PUSH1 0x0 SWAP1 SLOAD SWAP1 PUSH2 0x100 EXP SWAP1 DIV PUSH20 0xFFFFFFFFFFFFFFFFFFFFFFFFFFFFFFFFFFFFFFFF AND PUSH20 0xFFFFFFFFFFFFFFFFFFFFFFFFFFFFFFFFFFFFFFFF AND PUSH20 0xFFFFFFFFFFFFFFFFFFFFFFFFFFFFFFFFFFFFFFFF AND DUP2 MSTORE PUSH1 0x20 ADD PUSH1 0x4 DUP3 ADD SLOAD DUP2 MSTORE PUSH1 0x20 ADD PUSH1 0x5 DUP3 ADD SLOAD DUP2 MSTORE PUSH1 0x20 ADD PUSH1 0x6 DUP3 ADD PUSH1 0x0 SWAP1 SLOAD SWAP1 PUSH2 0x100 EXP SWAP1 DIV PUSH1 0xFF AND ISZERO ISZERO ISZERO ISZERO DUP2 MSTORE POP POP SWAP2 POP POP SWAP2 SWAP1 POP JUMP JUMPDEST PUSH1 0x6 SLOAD DUP2 JUMP JUMPDEST PUSH1 0x60 PUSH1 0x0 DUP4 SWAP1 POP PUSH1 0x0 DUP4 SWAP1 POP PUSH1 0x0 DUP2 MLOAD DUP4 MLOAD PUSH2 0x1C0A SWAP2 SWAP1 PUSH2 0x2D5D JUMP JUMPDEST PUSH8 0xFFFFFFFFFFFFFFFF DUP2 GT ISZERO PUSH2 0x1C23 JUMPI PUSH2 0x1C22 PUSH2 0x2264 JUMP JUMPDEST JUMPDEST PUSH1 0x40 MLOAD SWAP1 DUP1 DUP3 MSTORE DUP1 PUSH1 0x1F ADD PUSH1 0x1F NOT AND PUSH1 0x20 ADD DUP3 ADD PUSH1 0x40 MSTORE DUP1 ISZERO PUSH2 0x1C55 JUMPI DUP2 PUSH1 0x20 ADD PUSH1 0x1 DUP3 MUL DUP1 CALLDATASIZE DUP4 CALLDATACOPY DUP1 DUP3 ADD SWAP2 POP POP SWAP1 POP JUMPDEST POP SWAP1 POP PUSH1 0x0 DUP2 SWAP1 POP PUSH1 0x0 DUP1 JUMPDEST DUP6 MLOAD DUP2 LT ISZERO PUSH2 0x1CE9 JUMPI DUP6 DUP2 DUP2 MLOAD DUP2 LT PUSH2 0x1C7D JUMPI PUSH2 0x1C7C PUSH2 0x2DB3 JUMP JUMPDEST JUMPDEST PUSH1 0x20 ADD ADD MLOAD PUSH1 0xF8 SHR PUSH1 0xF8 SHL DUP4 DUP4 DUP1 PUSH2 0x1C94 SWAP1 PUSH2 0x2C63 JUMP JUMPDEST SWAP5 POP DUP2 MLOAD DUP2 LT PUSH2 0x1CA7 JUMPI PUSH2 0x1CA6 PUSH2 0x2DB3 JUMP JUMPDEST JUMPDEST PUSH1 0x20 ADD ADD SWAP1 PUSH31 0xFFFFFFFFFFFFFFFFFFFFFFFFFFFFFFFFFFFFFFFFFFFFFFFFFFFFFFFFFFFFFF NOT AND SWAP1 DUP2 PUSH1 0x0 BYTE SWAP1 MSTORE8 POP DUP1 DUP1 PUSH2 0x1CE1 SWAP1 PUSH2 0x2C63 JUMP JUMPDEST SWAP2 POP POP PUSH2 0x1C61 JUMP JUMPDEST POP PUSH1 0x0 JUMPDEST DUP5 MLOAD DUP2 LT ISZERO PUSH2 0x1D75 JUMPI DUP5 DUP2 DUP2 MLOAD DUP2 LT PUSH2 0x1D09 JUMPI PUSH2 0x1D08 PUSH2 0x2DB3 JUMP JUMPDEST JUMPDEST PUSH1 0x20 ADD ADD MLOAD PUSH1 0xF8 SHR PUSH1 0xF8 SHL DUP4 DUP4 DUP1 PUSH2 0x1D20 SWAP1 PUSH2 0x2C63 JUMP JUMPDEST SWAP5 POP DUP2 MLOAD DUP2 LT PUSH2 0x1D33 JUMPI PUSH2 0x1D32 PUSH2 0x2DB3 JUMP JUMPDEST JUMPDEST PUSH1 0x20 ADD ADD SWAP1 PUSH31 0xFFFFFFFFFFFFFFFFFFFFFFFFFFFFFFFFFFFFFFFFFFFFFFFFFFFFFFFFFFFFFF NOT AND SWAP1 DUP2 PUSH1 0x0 BYTE SWAP1 MSTORE8 POP DUP1 DUP1 PUSH2 0x1D6D SWAP1 PUSH2 0x2C63 JUMP JUMPDEST SWAP2 POP POP PUSH2 0x1CED JUMP JUMPDEST POP DUP3 SWAP6 POP POP POP POP POP POP SWAP3 SWAP2 POP POP JUMP JUMPDEST PUSH1 0x60 PUSH1 0x0 PUSH1 0x1 PUSH2 0x1D93 DUP5 PUSH2 0x1E5C JUMP JUMPDEST ADD SWAP1 POP PUSH1 0x0 DUP2 PUSH8 0xFFFFFFFFFFFFFFFF DUP2 GT ISZERO PUSH2 0x1DB2 JUMPI PUSH2 0x1DB1 PUSH2 0x2264 JUMP JUMPDEST JUMPDEST PUSH1 0x40 MLOAD SWAP1 DUP1 DUP3 MSTORE DUP1 PUSH1 0x1F ADD PUSH1 0x1F NOT AND PUSH1 0x20 ADD DUP3 ADD PUSH1 0x40 MSTORE DUP1 ISZERO PUSH2 0x1DE4 JUMPI DUP2 PUSH1 0x20 ADD PUSH1 0x1 DUP3 MUL DUP1 CALLDATASIZE DUP4 CALLDATACOPY DUP1 DUP3 ADD SWAP2 POP POP SWAP1 POP JUMPDEST POP SWAP1 POP PUSH1 0x0 DUP3 PUSH1 0x20 ADD DUP3 ADD SWAP1 POP JUMPDEST PUSH1 0x1 ISZERO PUSH2 0x1E51 JUMPI DUP1 DUP1 PUSH1 0x1 SWAP1 SUB SWAP2 POP POP PUSH32 0x3031323334353637383961626364656600000000000000000000000000000000 PUSH1 0xA DUP7 MOD BYTE DUP2 MSTORE8 PUSH1 0xA DUP6 DUP2 PUSH2 0x1E3B JUMPI PUSH2 0x1E3A PUSH2 0x2DE2 JUMP JUMPDEST JUMPDEST DIV SWAP5 POP PUSH1 0x0 DUP6 EQ ISZERO PUSH2 0x1E4C JUMPI PUSH2 0x1E51 JUMP JUMPDEST PUSH2 0x1DF2 JUMP JUMPDEST DUP2 SWAP4 POP POP POP POP SWAP2 SWAP1 POP JUMP JUMPDEST PUSH1 0x0 DUP1 PUSH1 0x0 SWAP1 POP PUSH27 0x184F03E93FF9F4DAA797ED6E38ED64BF6A1F010000000000000000 DUP4 LT PUSH2 0x1EBA JUMPI PUSH27 0x184F03E93FF9F4DAA797ED6E38ED64BF6A1F010000000000000000 DUP4 DUP2 PUSH2 0x1EB0 JUMPI PUSH2 0x1EAF PUSH2 0x2DE2 JUMP JUMPDEST JUMPDEST DIV SWAP3 POP PUSH1 0x40 DUP2 ADD SWAP1 POP JUMPDEST PUSH14 0x4EE2D6D415B85ACEF8100000000 DUP4 LT PUSH2 0x1EF7 JUMPI PUSH14 0x4EE2D6D415B85ACEF8100000000 DUP4 DUP2 PUSH2 0x1EED JUMPI PUSH2 0x1EEC PUSH2 0x2DE2 JUMP JUMPDEST JUMPDEST DIV SWAP3 POP PUSH1 0x20 DUP2 ADD SWAP1 POP JUMPDEST PUSH7 0x2386F26FC10000 DUP4 LT PUSH2 0x1F26 JUMPI PUSH7 0x2386F26FC10000 DUP4 DUP2 PUSH2 0x1F1C JUMPI PUSH2 0x1F1B PUSH2 0x2DE2 JUMP JUMPDEST JUMPDEST DIV SWAP3 POP PUSH1 0x10 DUP2 ADD SWAP1 POP JUMPDEST PUSH4 0x5F5E100 DUP4 LT PUSH2 0x1F4F JUMPI PUSH4 0x5F5E100 DUP4 DUP2 PUSH2 0x1F45 JUMPI PUSH2 0x1F44 PUSH2 0x2DE2 JUMP JUMPDEST JUMPDEST DIV SWAP3 POP PUSH1 0x8 DUP2 ADD SWAP1 POP JUMPDEST PUSH2 0x2710 DUP4 LT PUSH2 0x1F74 JUMPI PUSH2 0x2710 DUP4 DUP2 PUSH2 0x1F6A JUMPI PUSH2 0x1F69 PUSH2 0x2DE2 JUMP JUMPDEST JUMPDEST DIV SWAP3 POP PUSH1 0x4 DUP2 ADD SWAP1 POP JUMPDEST PUSH1 0x64 DUP4 LT PUSH2 0x1F97 JUMPI PUSH1 0x64 DUP4 DUP2 PUSH2 0x1F8D JUMPI PUSH2 0x1F8C PUSH2 0x2DE2 JUMP JUMPDEST JUMPDEST DIV SWAP3 POP PUSH1 0x2 DUP2 ADD SWAP1 POP JUMPDEST PUSH1 0xA DUP4 LT PUSH2 0x1FA6 JUMPI PUSH1 0x1 DUP2 ADD SWAP1 POP JUMPDEST DUP1 SWAP2 POP POP SWAP2 SWAP1 POP JUMP JUMPDEST DUP3 DUP1 SLOAD PUSH2 0x1FBB SWAP1 PUSH2 0x2946 JUMP JUMPDEST SWAP1 PUSH1 0x0 MSTORE PUSH1 0x20 PUSH1 0x0 KECCAK256 SWAP1 PUSH1 0x1F ADD PUSH1 0x20 SWAP1 DIV DUP2 ADD SWAP3 DUP3 PUSH2 0x1FDD JUMPI PUSH1 0x0 DUP6 SSTORE PUSH2 0x2024 JUMP JUMPDEST DUP3 PUSH1 0x1F LT PUSH2 0x1FF6 JUMPI DUP1 MLOAD PUSH1 0xFF NOT AND DUP4 DUP1 ADD OR DUP6 SSTORE PUSH2 0x2024 JUMP JUMPDEST DUP3 DUP1 ADD PUSH1 0x1 ADD DUP6 SSTORE DUP3 ISZERO PUSH2 0x2024 JUMPI SWAP2 DUP3 ADD JUMPDEST DUP3 DUP2 GT ISZERO PUSH2 0x2023 JUMPI DUP3 MLOAD DUP3 SSTORE SWAP2 PUSH1 0x20 ADD SWAP2 SWAP1 PUSH1 0x1 ADD SWAP1 PUSH2 0x2008 JUMP JUMPDEST JUMPDEST POP SWAP1 POP PUSH2 0x2031 SWAP2 SWAP1 PUSH2 0x208A JUMP JUMPDEST POP SWAP1 JUMP JUMPDEST PUSH1 0x40 MLOAD DUP1 PUSH1 0xE0 ADD PUSH1 0x40 MSTORE DUP1 PUSH1 0x60 DUP2 MSTORE PUSH1 0x20 ADD PUSH1 0x60 DUP2 MSTORE PUSH1 0x20 ADD PUSH1 0x0 DUP2 MSTORE PUSH1 0x20 ADD PUSH1 0x0 PUSH20 0xFFFFFFFFFFFFFFFFFFFFFFFFFFFFFFFFFFFFFFFF AND DUP2 MSTORE PUSH1 0x20 ADD PUSH1 0x0 DUP2 MSTORE PUSH1 0x20 ADD PUSH1 0x0 DUP2 MSTORE PUSH1 0x20 ADD PUSH1 0x0 ISZERO ISZERO DUP2 MSTORE POP SWAP1 JUMP JUMPDEST JUMPDEST DUP1 DUP3 GT ISZERO PUSH2 0x20A3 JUMPI PUSH1 0x0 DUP2 PUSH1 0x0 SWAP1 SSTORE POP PUSH1 0x1 ADD PUSH2 0x208B JUMP JUMPDEST POP SWAP1 JUMP JUMPDEST PUSH1 0x0 PUSH1 0x40 MLOAD SWAP1 POP SWAP1 JUMP JUMPDEST PUSH1 0x0 DUP1 REVERT JUMPDEST PUSH1 0x0 DUP1 REVERT JUMPDEST PUSH1 0x0 PUSH20 0xFFFFFFFFFFFFFFFFFFFFFFFFFFFFFFFFFFFFFFFF DUP3 AND SWAP1 POP SWAP2 SWAP1 POP JUMP JUMPDEST PUSH1 0x0 PUSH2 0x20E6 DUP3 PUSH2 0x20BB JUMP JUMPDEST SWAP1 POP SWAP2 SWAP1 POP JUMP JUMPDEST PUSH2 0x20F6 DUP2 PUSH2 0x20DB JUMP JUMPDEST DUP2 EQ PUSH2 0x2101 JUMPI PUSH1 0x0 DUP1 REVERT JUMPDEST POP JUMP JUMPDEST PUSH1 0x0 DUP2 CALLDATALOAD SWAP1 POP PUSH2 0x2113 DUP2 PUSH2 0x20ED JUMP JUMPDEST SWAP3 SWAP2 POP POP JUMP JUMPDEST PUSH1 0x0 PUSH1 0x20 DUP3 DUP5 SUB SLT ISZERO PUSH2 0x212F JUMPI PUSH2 0x212E PUSH2 0x20B1 JUMP JUMPDEST JUMPDEST PUSH1 0x0 PUSH2 0x213D DUP5 DUP3 DUP6 ADD PUSH2 0x2104 JUMP JUMPDEST SWAP2 POP POP SWAP3 SWAP2 POP POP JUMP JUMPDEST PUSH1 0x0 DUP2 ISZERO ISZERO SWAP1 POP SWAP2 SWAP1 POP JUMP JUMPDEST PUSH2 0x215B DUP2 PUSH2 0x2146 JUMP JUMPDEST DUP3 MSTORE POP POP JUMP JUMPDEST PUSH1 0x0 PUSH1 0x20 DUP3 ADD SWAP1 POP PUSH2 0x2176 PUSH1 0x0 DUP4 ADD DUP5 PUSH2 0x2152 JUMP JUMPDEST SWAP3 SWAP2 POP POP JUMP JUMPDEST PUSH1 0x0 DUP2 SWAP1 POP SWAP2 SWAP1 POP JUMP JUMPDEST PUSH2 0x218F DUP2 PUSH2 0x217C JUMP JUMPDEST DUP2 EQ PUSH2 0x219A JUMPI PUSH1 0x0 DUP1 REVERT JUMPDEST POP JUMP JUMPDEST PUSH1 0x0 DUP2 CALLDATALOAD SWAP1 POP PUSH2 0x21AC DUP2 PUSH2 0x2186 JUMP JUMPDEST SWAP3 SWAP2 POP POP JUMP JUMPDEST PUSH1 0x0 PUSH1 0x20 DUP3 DUP5 SUB SLT ISZERO PUSH2 0x21C8 JUMPI PUSH2 0x21C7 PUSH2 0x20B1 JUMP JUMPDEST JUMPDEST PUSH1 0x0 PUSH2 0x21D6 DUP5 DUP3 DUP6 ADD PUSH2 0x219D JUMP JUMPDEST SWAP2 POP POP SWAP3 SWAP2 POP POP JUMP JUMPDEST PUSH2 0x21E8 DUP2 PUSH2 0x217C JUMP JUMPDEST DUP3 MSTORE POP POP JUMP JUMPDEST PUSH1 0x0 PUSH1 0x20 DUP3 ADD SWAP1 POP PUSH2 0x2203 PUSH1 0x0 DUP4 ADD DUP5 PUSH2 0x21DF JUMP JUMPDEST SWAP3 SWAP2 POP POP JUMP JUMPDEST PUSH1 0x0 DUP1 PUSH1 0x40 DUP4 DUP6 SUB SLT ISZERO PUSH2 0x2220 JUMPI PUSH2 0x221F PUSH2 0x20B1 JUMP JUMPDEST JUMPDEST PUSH1 0x0 PUSH2 0x222E DUP6 DUP3 DUP7 ADD PUSH2 0x219D JUMP JUMPDEST SWAP3 POP POP PUSH1 0x20 PUSH2 0x223F DUP6 DUP3 DUP7 ADD PUSH2 0x2104 JUMP JUMPDEST SWAP2 POP POP SWAP3 POP SWAP3 SWAP1 POP JUMP JUMPDEST PUSH1 0x0 DUP1 REVERT JUMPDEST PUSH1 0x0 DUP1 REVERT JUMPDEST PUSH1 0x0 PUSH1 0x1F NOT PUSH1 0x1F DUP4 ADD AND SWAP1 POP SWAP2 SWAP1 POP JUMP JUMPDEST PUSH32 0x4E487B7100000000000000000000000000000000000000000000000000000000 PUSH1 0x0 MSTORE PUSH1 0x41 PUSH1 0x4 MSTORE PUSH1 0x24 PUSH1 0x0 REVERT JUMPDEST PUSH2 0x229C DUP3 PUSH2 0x2253 JUMP JUMPDEST DUP2 ADD DUP2 DUP2 LT PUSH8 0xFFFFFFFFFFFFFFFF DUP3 GT OR ISZERO PUSH2 0x22BB JUMPI PUSH2 0x22BA PUSH2 0x2264 JUMP JUMPDEST JUMPDEST DUP1 PUSH1 0x40 MSTORE POP POP POP JUMP JUMPDEST PUSH1 0x0 PUSH2 0x22CE PUSH2 0x20A7 JUMP JUMPDEST SWAP1 POP PUSH2 0x22DA DUP3 DUP3 PUSH2 0x2293 JUMP JUMPDEST SWAP2 SWAP1 POP JUMP JUMPDEST PUSH1 0x0 PUSH8 0xFFFFFFFFFFFFFFFF DUP3 GT ISZERO PUSH2 0x22FA JUMPI PUSH2 0x22F9 PUSH2 0x2264 JUMP JUMPDEST JUMPDEST PUSH2 0x2303 DUP3 PUSH2 0x2253 JUMP JUMPDEST SWAP1 POP PUSH1 0x20 DUP2 ADD SWAP1 POP SWAP2 SWAP1 POP JUMP JUMPDEST DUP3 DUP2 DUP4 CALLDATACOPY PUSH1 0x0 DUP4 DUP4 ADD MSTORE POP POP POP JUMP JUMPDEST PUSH1 0x0 PUSH2 0x2332 PUSH2 0x232D DUP5 PUSH2 0x22DF JUMP JUMPDEST PUSH2 0x22C4 JUMP JUMPDEST SWAP1 POP DUP3 DUP2 MSTORE PUSH1 0x20 DUP2 ADD DUP5 DUP5 DUP5 ADD GT ISZERO PUSH2 0x234E JUMPI PUSH2 0x234D PUSH2 0x224E JUMP JUMPDEST JUMPDEST PUSH2 0x2359 DUP5 DUP3 DUP6 PUSH2 0x2310 JUMP JUMPDEST POP SWAP4 SWAP3 POP POP POP JUMP JUMPDEST PUSH1 0x0 DUP3 PUSH1 0x1F DUP4 ADD SLT PUSH2 0x2376 JUMPI PUSH2 0x2375 PUSH2 0x2249 JUMP JUMPDEST JUMPDEST DUP2 CALLDATALOAD PUSH2 0x2386 DUP5 DUP3 PUSH1 0x20 DUP7 ADD PUSH2 0x231F JUMP JUMPDEST SWAP2 POP POP SWAP3 SWAP2 POP POP JUMP JUMPDEST PUSH1 0x0 DUP1 PUSH1 0x0 PUSH1 0x60 DUP5 DUP7 SUB SLT ISZERO PUSH2 0x23A8 JUMPI PUSH2 0x23A7 PUSH2 0x20B1 JUMP JUMPDEST JUMPDEST PUSH1 0x0 DUP5 ADD CALLDATALOAD PUSH8 0xFFFFFFFFFFFFFFFF DUP2 GT ISZERO PUSH2 0x23C6 JUMPI PUSH2 0x23C5 PUSH2 0x20B6 JUMP JUMPDEST JUMPDEST PUSH2 0x23D2 DUP7 DUP3 DUP8 ADD PUSH2 0x2361 JUMP JUMPDEST SWAP4 POP POP PUSH1 0x20 DUP5 ADD CALLDATALOAD PUSH8 0xFFFFFFFFFFFFFFFF DUP2 GT ISZERO PUSH2 0x23F3 JUMPI PUSH2 0x23F2 PUSH2 0x20B6 JUMP JUMPDEST JUMPDEST PUSH2 0x23FF DUP7 DUP3 DUP8 ADD PUSH2 0x2361 JUMP JUMPDEST SWAP3 POP POP PUSH1 0x40 DUP5 ADD CALLDATALOAD PUSH8 0xFFFFFFFFFFFFFFFF DUP2 GT ISZERO PUSH2 0x2420 JUMPI PUSH2 0x241F PUSH2 0x20B6 JUMP JUMPDEST JUMPDEST PUSH2 0x242C DUP7 DUP3 DUP8 ADD PUSH2 0x2361 JUMP JUMPDEST SWAP2 POP POP SWAP3 POP SWAP3 POP SWAP3 JUMP JUMPDEST PUSH1 0x0 DUP2 MLOAD SWAP1 POP SWAP2 SWAP1 POP JUMP JUMPDEST PUSH1 0x0 DUP3 DUP3 MSTORE PUSH1 0x20 DUP3 ADD SWAP1 POP SWAP3 SWAP2 POP POP JUMP JUMPDEST PUSH1 0x0 JUMPDEST DUP4 DUP2 LT ISZERO PUSH2 0x2470 JUMPI DUP1 DUP3 ADD MLOAD DUP2 DUP5 ADD MSTORE PUSH1 0x20 DUP2 ADD SWAP1 POP PUSH2 0x2455 JUMP JUMPDEST DUP4 DUP2 GT ISZERO PUSH2 0x247F JUMPI PUSH1 0x0 DUP5 DUP5 ADD MSTORE JUMPDEST POP POP POP POP JUMP JUMPDEST PUSH1 0x0 PUSH2 0x2490 DUP3 PUSH2 0x2436 JUMP JUMPDEST PUSH2 0x249A DUP2 DUP6 PUSH2 0x2441 JUMP JUMPDEST SWAP4 POP PUSH2 0x24AA DUP2 DUP6 PUSH1 0x20 DUP7 ADD PUSH2 0x2452 JUMP JUMPDEST PUSH2 0x24B3 DUP2 PUSH2 0x2253 JUMP JUMPDEST DUP5 ADD SWAP2 POP POP SWAP3 SWAP2 POP POP JUMP JUMPDEST PUSH1 0x0 PUSH1 0x20 DUP3 ADD SWAP1 POP DUP2 DUP2 SUB PUSH1 0x0 DUP4 ADD MSTORE PUSH2 0x24D8 DUP2 DUP5 PUSH2 0x2485 JUMP JUMPDEST SWAP1 POP SWAP3 SWAP2 POP POP JUMP JUMPDEST PUSH1 0x0 PUSH1 0x20 DUP3 DUP5 SUB SLT ISZERO PUSH2 0x24F6 JUMPI PUSH2 0x24F5 PUSH2 0x20B1 JUMP JUMPDEST JUMPDEST PUSH1 0x0 DUP3 ADD CALLDATALOAD PUSH8 0xFFFFFFFFFFFFFFFF DUP2 GT ISZERO PUSH2 0x2514 JUMPI PUSH2 0x2513 PUSH2 0x20B6 JUMP JUMPDEST JUMPDEST PUSH2 0x2520 DUP5 DUP3 DUP6 ADD PUSH2 0x2361 JUMP JUMPDEST SWAP2 POP POP SWAP3 SWAP2 POP POP JUMP JUMPDEST PUSH2 0x2532 DUP2 PUSH2 0x20DB JUMP JUMPDEST DUP3 MSTORE POP POP JUMP JUMPDEST PUSH1 0x0 PUSH1 0x20 DUP3 ADD SWAP1 POP PUSH2 0x254D PUSH1 0x0 DUP4 ADD DUP5 PUSH2 0x2529 JUMP JUMPDEST SWAP3 SWAP2 POP POP JUMP JUMPDEST PUSH1 0x0 DUP2 SWAP1 POP SWAP2 SWAP1 POP JUMP JUMPDEST PUSH2 0x2566 DUP2 PUSH2 0x2553 JUMP JUMPDEST DUP2 EQ PUSH2 0x2571 JUMPI PUSH1 0x0 DUP1 REVERT JUMPDEST POP JUMP JUMPDEST PUSH1 0x0 DUP2 CALLDATALOAD SWAP1 POP PUSH2 0x2583 DUP2 PUSH2 0x255D JUMP JUMPDEST SWAP3 SWAP2 POP POP JUMP JUMPDEST PUSH1 0x0 PUSH1 0x20 DUP3 DUP5 SUB SLT ISZERO PUSH2 0x259F JUMPI PUSH2 0x259E PUSH2 0x20B1 JUMP JUMPDEST JUMPDEST PUSH1 0x0 PUSH2 0x25AD DUP5 DUP3 DUP6 ADD PUSH2 0x2574 JUMP JUMPDEST SWAP2 POP POP SWAP3 SWAP2 POP POP JUMP JUMPDEST PUSH1 0x0 DUP1 PUSH1 0x0 PUSH1 0x60 DUP5 DUP7 SUB SLT ISZERO PUSH2 0x25CF JUMPI PUSH2 0x25CE PUSH2 0x20B1 JUMP JUMPDEST JUMPDEST PUSH1 0x0 DUP5 ADD CALLDATALOAD PUSH8 0xFFFFFFFFFFFFFFFF DUP2 GT ISZERO PUSH2 0x25ED JUMPI PUSH2 0x25EC PUSH2 0x20B6 JUMP JUMPDEST JUMPDEST PUSH2 0x25F9 DUP7 DUP3 DUP8 ADD PUSH2 0x2361 JUMP JUMPDEST SWAP4 POP POP PUSH1 0x20 DUP5 ADD CALLDATALOAD PUSH8 0xFFFFFFFFFFFFFFFF DUP2 GT ISZERO PUSH2 0x261A JUMPI PUSH2 0x2619 PUSH2 0x20B6 JUMP JUMPDEST JUMPDEST PUSH2 0x2626 DUP7 DUP3 DUP8 ADD PUSH2 0x2361 JUMP JUMPDEST SWAP3 POP POP PUSH1 0x40 PUSH2 0x2637 DUP7 DUP3 DUP8 ADD PUSH2 0x2574 JUMP JUMPDEST SWAP2 POP POP SWAP3 POP SWAP3 POP SWAP3 JUMP JUMPDEST PUSH1 0x0 DUP1 PUSH1 0x40 DUP4 DUP6 SUB SLT ISZERO PUSH2 0x2658 JUMPI PUSH2 0x2657 PUSH2 0x20B1 JUMP JUMPDEST JUMPDEST PUSH1 0x0 DUP4 ADD CALLDATALOAD PUSH8 0xFFFFFFFFFFFFFFFF DUP2 GT ISZERO PUSH2 0x2676 JUMPI PUSH2 0x2675 PUSH2 0x20B6 JUMP JUMPDEST JUMPDEST PUSH2 0x2682 DUP6 DUP3 DUP7 ADD PUSH2 0x2361 JUMP JUMPDEST SWAP3 POP POP PUSH1 0x20 PUSH2 0x2693 DUP6 DUP3 DUP7 ADD PUSH2 0x2104 JUMP JUMPDEST SWAP2 POP POP SWAP3 POP SWAP3 SWAP1 POP JUMP JUMPDEST PUSH2 0x26A6 DUP2 PUSH2 0x2553 JUMP JUMPDEST DUP3 MSTORE POP POP JUMP JUMPDEST PUSH1 0x0 PUSH1 0x20 DUP3 ADD SWAP1 POP PUSH2 0x26C1 PUSH1 0x0 DUP4 ADD DUP5 PUSH2 0x269D JUMP JUMPDEST SWAP3 SWAP2 POP POP JUMP JUMPDEST PUSH1 0x0 DUP1 PUSH1 0x40 DUP4 DUP6 SUB SLT ISZERO PUSH2 0x26DE JUMPI PUSH2 0x26DD PUSH2 0x20B1 JUMP JUMPDEST JUMPDEST PUSH1 0x0 DUP4 ADD CALLDATALOAD PUSH8 0xFFFFFFFFFFFFFFFF DUP2 GT ISZERO PUSH2 0x26FC JUMPI PUSH2 0x26FB PUSH2 0x20B6 JUMP JUMPDEST JUMPDEST PUSH2 0x2708 DUP6 DUP3 DUP7 ADD PUSH2 0x2361 JUMP JUMPDEST SWAP3 POP POP PUSH1 0x20 PUSH2 0x2719 DUP6 DUP3 DUP7 ADD PUSH2 0x2574 JUMP JUMPDEST SWAP2 POP POP SWAP3 POP SWAP3 SWAP1 POP JUMP JUMPDEST PUSH1 0x0 DUP1 PUSH1 0x40 DUP4 DUP6 SUB SLT ISZERO PUSH2 0x273A JUMPI PUSH2 0x2739 PUSH2 0x20B1 JUMP JUMPDEST JUMPDEST PUSH1 0x0 PUSH2 0x2748 DUP6 DUP3 DUP7 ADD PUSH2 0x2574 JUMP JUMPDEST SWAP3 POP POP PUSH1 0x20 PUSH2 0x2759 DUP6 DUP3 DUP7 ADD PUSH2 0x2574 JUMP JUMPDEST SWAP2 POP POP SWAP3 POP SWAP3 SWAP1 POP JUMP JUMPDEST PUSH1 0x0 DUP3 DUP3 MSTORE PUSH1 0x20 DUP3 ADD SWAP1 POP SWAP3 SWAP2 POP POP JUMP JUMPDEST PUSH1 0x0 PUSH2 0x277F DUP3 PUSH2 0x2436 JUMP JUMPDEST PUSH2 0x2789 DUP2 DUP6 PUSH2 0x2763 JUMP JUMPDEST SWAP4 POP PUSH2 0x2799 DUP2 DUP6 PUSH1 0x20 DUP7 ADD PUSH2 0x2452 JUMP JUMPDEST PUSH2 0x27A2 DUP2 PUSH2 0x2253 JUMP JUMPDEST DUP5 ADD SWAP2 POP POP SWAP3 SWAP2 POP POP JUMP JUMPDEST PUSH2 0x27B6 DUP2 PUSH2 0x2553 JUMP JUMPDEST DUP3 MSTORE POP POP JUMP JUMPDEST PUSH2 0x27C5 DUP2 PUSH2 0x20DB JUMP JUMPDEST DUP3 MSTORE POP POP JUMP JUMPDEST PUSH2 0x27D4 DUP2 PUSH2 0x2146 JUMP JUMPDEST DUP3 MSTORE POP POP JUMP JUMPDEST PUSH1 0x0 PUSH1 0xE0 DUP4 ADD PUSH1 0x0 DUP4 ADD MLOAD DUP5 DUP3 SUB PUSH1 0x0 DUP7 ADD MSTORE PUSH2 0x27F7 DUP3 DUP3 PUSH2 0x2774 JUMP JUMPDEST SWAP2 POP POP PUSH1 0x20 DUP4 ADD MLOAD DUP5 DUP3 SUB PUSH1 0x20 DUP7 ADD MSTORE PUSH2 0x2811 DUP3 DUP3 PUSH2 0x2774 JUMP JUMPDEST SWAP2 POP POP PUSH1 0x40 DUP4 ADD MLOAD PUSH2 0x2826 PUSH1 0x40 DUP7 ADD DUP3 PUSH2 0x27AD JUMP JUMPDEST POP PUSH1 0x60 DUP4 ADD MLOAD PUSH2 0x2839 PUSH1 0x60 DUP7 ADD DUP3 PUSH2 0x27BC JUMP JUMPDEST POP PUSH1 0x80 DUP4 ADD MLOAD PUSH2 0x284C PUSH1 0x80 DUP7 ADD DUP3 PUSH2 0x27AD JUMP JUMPDEST POP PUSH1 0xA0 DUP4 ADD MLOAD PUSH2 0x285F PUSH1 0xA0 DUP7 ADD DUP3 PUSH2 0x27AD JUMP JUMPDEST POP PUSH1 0xC0 DUP4 ADD MLOAD PUSH2 0x2872 PUSH1 0xC0 DUP7 ADD DUP3 PUSH2 0x27CB JUMP JUMPDEST POP DUP1 SWAP2 POP POP SWAP3 SWAP2 POP POP JUMP JUMPDEST PUSH1 0x0 PUSH1 0x20 DUP3 ADD SWAP1 POP DUP2 DUP2 SUB PUSH1 0x0 DUP4 ADD MSTORE PUSH2 0x2897 DUP2 DUP5 PUSH2 0x27DA JUMP JUMPDEST SWAP1 POP SWAP3 SWAP2 POP POP JUMP JUMPDEST PUSH1 0x0 DUP1 PUSH1 0x40 DUP4 DUP6 SUB SLT ISZERO PUSH2 0x28B6 JUMPI PUSH2 0x28B5 PUSH2 0x20B1 JUMP JUMPDEST JUMPDEST PUSH1 0x0 DUP4 ADD CALLDATALOAD PUSH8 0xFFFFFFFFFFFFFFFF DUP2 GT ISZERO PUSH2 0x28D4 JUMPI PUSH2 0x28D3 PUSH2 0x20B6 JUMP JUMPDEST JUMPDEST PUSH2 0x28E0 DUP6 DUP3 DUP7 ADD PUSH2 0x2361 JUMP JUMPDEST SWAP3 POP POP PUSH1 0x20 DUP4 ADD CALLDATALOAD PUSH8 0xFFFFFFFFFFFFFFFF DUP2 GT ISZERO PUSH2 0x2901 JUMPI PUSH2 0x2900 PUSH2 0x20B6 JUMP JUMPDEST JUMPDEST PUSH2 0x290D DUP6 DUP3 DUP7 ADD PUSH2 0x2361 JUMP JUMPDEST SWAP2 POP POP SWAP3 POP SWAP3 SWAP1 POP JUMP JUMPDEST PUSH32 0x4E487B7100000000000000000000000000000000000000000000000000000000 PUSH1 0x0 MSTORE PUSH1 0x22 PUSH1 0x4 MSTORE PUSH1 0x24 PUSH1 0x0 REVERT JUMPDEST PUSH1 0x0 PUSH1 0x2 DUP3 DIV SWAP1 POP PUSH1 0x1 DUP3 AND DUP1 PUSH2 0x295E JUMPI PUSH1 0x7F DUP3 AND SWAP2 POP JUMPDEST PUSH1 0x20 DUP3 LT DUP2 EQ ISZERO PUSH2 0x2972 JUMPI PUSH2 0x2971 PUSH2 0x2917 JUMP JUMPDEST JUMPDEST POP SWAP2 SWAP1 POP JUMP JUMPDEST PUSH1 0x0 DUP2 SWAP1 POP DUP2 PUSH1 0x0 MSTORE PUSH1 0x20 PUSH1 0x0 KECCAK256 SWAP1 POP SWAP2 SWAP1 POP JUMP JUMPDEST PUSH1 0x0 DUP2 SLOAD PUSH2 0x299A DUP2 PUSH2 0x2946 JUMP JUMPDEST PUSH2 0x29A4 DUP2 DUP7 PUSH2 0x2441 JUMP JUMPDEST SWAP5 POP PUSH1 0x1 DUP3 AND PUSH1 0x0 DUP2 EQ PUSH2 0x29BF JUMPI PUSH1 0x1 DUP2 EQ PUSH2 0x29D1 JUMPI PUSH2 0x2A04 JUMP JUMPDEST PUSH1 0xFF NOT DUP4 AND DUP7 MSTORE PUSH1 0x20 DUP7 ADD SWAP4 POP PUSH2 0x2A04 JUMP JUMPDEST PUSH2 0x29DA DUP6 PUSH2 0x2978 JUMP JUMPDEST PUSH1 0x0 JUMPDEST DUP4 DUP2 LT ISZERO PUSH2 0x29FC JUMPI DUP2 SLOAD DUP2 DUP10 ADD MSTORE PUSH1 0x1 DUP3 ADD SWAP2 POP PUSH1 0x20 DUP2 ADD SWAP1 POP PUSH2 0x29DD JUMP JUMPDEST DUP1 DUP9 ADD SWAP6 POP POP POP JUMPDEST POP POP POP SWAP3 SWAP2 POP POP JUMP JUMPDEST PUSH1 0x0 PUSH1 0x40 DUP3 ADD SWAP1 POP PUSH2 0x2A22 PUSH1 0x0 DUP4 ADD DUP6 PUSH2 0x2529 JUMP JUMPDEST DUP2 DUP2 SUB PUSH1 0x20 DUP4 ADD MSTORE PUSH2 0x2A34 DUP2 DUP5 PUSH2 0x298D JUMP JUMPDEST SWAP1 POP SWAP4 SWAP3 POP POP POP JUMP JUMPDEST PUSH32 0x436F6D70616E794C6F6769633A3A436865636B417373657456616C69643A3A20 PUSH1 0x0 DUP3 ADD MSTORE PUSH32 0x617373657420697320696E76616C696400000000000000000000000000000000 PUSH1 0x20 DUP3 ADD MSTORE POP JUMP JUMPDEST PUSH1 0x0 PUSH2 0x2A99 PUSH1 0x30 DUP4 PUSH2 0x2441 JUMP JUMPDEST SWAP2 POP PUSH2 0x2AA4 DUP3 PUSH2 0x2A3D JUMP JUMPDEST PUSH1 0x40 DUP3 ADD SWAP1 POP SWAP2 SWAP1 POP JUMP JUMPDEST PUSH1 0x0 PUSH1 0x20 DUP3 ADD SWAP1 POP DUP2 DUP2 SUB PUSH1 0x0 DUP4 ADD MSTORE PUSH2 0x2AC8 DUP2 PUSH2 0x2A8C JUMP JUMPDEST SWAP1 POP SWAP2 SWAP1 POP JUMP JUMPDEST PUSH1 0x0 PUSH1 0x60 DUP4 ADD PUSH1 0x0 DUP4 ADD MLOAD PUSH2 0x2AE7 PUSH1 0x0 DUP7 ADD DUP3 PUSH2 0x27AD JUMP JUMPDEST POP PUSH1 0x20 DUP4 ADD MLOAD PUSH2 0x2AFA PUSH1 0x20 DUP7 ADD DUP3 PUSH2 0x27BC JUMP JUMPDEST POP PUSH1 0x40 DUP4 ADD MLOAD DUP5 DUP3 SUB PUSH1 0x40 DUP7 ADD MSTORE PUSH2 0x2B12 DUP3 DUP3 PUSH2 0x2774 JUMP JUMPDEST SWAP2 POP POP DUP1 SWAP2 POP POP SWAP3 SWAP2 POP POP JUMP JUMPDEST PUSH1 0x0 PUSH1 0x40 DUP3 ADD SWAP1 POP PUSH2 0x2B34 PUSH1 0x0 DUP4 ADD DUP6 PUSH2 0x269D JUMP JUMPDEST DUP2 DUP2 SUB PUSH1 0x20 DUP4 ADD MSTORE PUSH2 0x2B46 DUP2 DUP5 PUSH2 0x2ACF JUMP JUMPDEST SWAP1 POP SWAP4 SWAP3 POP POP POP JUMP JUMPDEST PUSH1 0x0 DUP2 SWAP1 POP SWAP3 SWAP2 POP POP JUMP JUMPDEST PUSH1 0x0 PUSH2 0x2B65 DUP3 PUSH2 0x2436 JUMP JUMPDEST PUSH2 0x2B6F DUP2 DUP6 PUSH2 0x2B4F JUMP JUMPDEST SWAP4 POP PUSH2 0x2B7F DUP2 DUP6 PUSH1 0x20 DUP7 ADD PUSH2 0x2452 JUMP JUMPDEST DUP1 DUP5 ADD SWAP2 POP POP SWAP3 SWAP2 POP POP JUMP JUMPDEST PUSH1 0x0 PUSH2 0x2B97 DUP3 DUP5 PUSH2 0x2B5A JUMP JUMPDEST SWAP2 POP DUP2 SWAP1 POP SWAP3 SWAP2 POP POP JUMP JUMPDEST PUSH32 0x436F6D70616E794C6F6769633A3A436865636B4369643A3A2063696420697320 PUSH1 0x0 DUP3 ADD MSTORE PUSH32 0x696E76616C696400000000000000000000000000000000000000000000000000 PUSH1 0x20 DUP3 ADD MSTORE POP JUMP JUMPDEST PUSH1 0x0 PUSH2 0x2BFE PUSH1 0x27 DUP4 PUSH2 0x2441 JUMP JUMPDEST SWAP2 POP PUSH2 0x2C09 DUP3 PUSH2 0x2BA2 JUMP JUMPDEST PUSH1 0x40 DUP3 ADD SWAP1 POP SWAP2 SWAP1 POP JUMP JUMPDEST PUSH1 0x0 PUSH1 0x20 DUP3 ADD SWAP1 POP DUP2 DUP2 SUB PUSH1 0x0 DUP4 ADD MSTORE PUSH2 0x2C2D DUP2 PUSH2 0x2BF1 JUMP JUMPDEST SWAP1 POP SWAP2 SWAP1 POP JUMP JUMPDEST PUSH32 0x4E487B7100000000000000000000000000000000000000000000000000000000 PUSH1 0x0 MSTORE PUSH1 0x11 PUSH1 0x4 MSTORE PUSH1 0x24 PUSH1 0x0 REVERT JUMPDEST PUSH1 0x0 PUSH2 0x2C6E DUP3 PUSH2 0x2553 JUMP JUMPDEST SWAP2 POP PUSH32 0xFFFFFFFFFFFFFFFFFFFFFFFFFFFFFFFFFFFFFFFFFFFFFFFFFFFFFFFFFFFFFFFF DUP3 EQ ISZERO PUSH2 0x2CA1 JUMPI PUSH2 0x2CA0 PUSH2 0x2C34 JUMP JUMPDEST JUMPDEST PUSH1 0x1 DUP3 ADD SWAP1 POP SWAP2 SWAP1 POP JUMP JUMPDEST PUSH1 0x0 PUSH1 0x60 DUP3 ADD SWAP1 POP DUP2 DUP2 SUB PUSH1 0x0 DUP4 ADD MSTORE PUSH2 0x2CC6 DUP2 DUP7 PUSH2 0x2485 JUMP JUMPDEST SWAP1 POP PUSH2 0x2CD5 PUSH1 0x20 DUP4 ADD DUP6 PUSH2 0x269D JUMP JUMPDEST DUP2 DUP2 SUB PUSH1 0x40 DUP4 ADD MSTORE PUSH2 0x2CE7 DUP2 DUP5 PUSH2 0x2485 JUMP JUMPDEST SWAP1 POP SWAP5 SWAP4 POP POP POP POP JUMP JUMPDEST PUSH32 0x556E417574686F72697A65644163636F756E7400000000000000000000000000 PUSH1 0x0 DUP3 ADD MSTORE POP JUMP JUMPDEST PUSH1 0x0 PUSH2 0x2D27 PUSH1 0x13 DUP4 PUSH2 0x2441 JUMP JUMPDEST SWAP2 POP PUSH2 0x2D32 DUP3 PUSH2 0x2CF1 JUMP JUMPDEST PUSH1 0x20 DUP3 ADD SWAP1 POP SWAP2 SWAP1 POP JUMP JUMPDEST PUSH1 0x0 PUSH1 0x20 DUP3 ADD SWAP1 POP DUP2 DUP2 SUB PUSH1 0x0 DUP4 ADD MSTORE PUSH2 0x2D56 DUP2 PUSH2 0x2D1A JUMP JUMPDEST SWAP1 POP SWAP2 SWAP1 POP JUMP JUMPDEST PUSH1 0x0 PUSH2 0x2D68 DUP3 PUSH2 0x2553 JUMP JUMPDEST SWAP2 POP PUSH2 0x2D73 DUP4 PUSH2 0x2553 JUMP JUMPDEST SWAP3 POP DUP3 PUSH32 0xFFFFFFFFFFFFFFFFFFFFFFFFFFFFFFFFFFFFFFFFFFFFFFFFFFFFFFFFFFFFFFFF SUB DUP3 GT ISZERO PUSH2 0x2DA8 JUMPI PUSH2 0x2DA7 PUSH2 0x2C34 JUMP JUMPDEST JUMPDEST DUP3 DUP3 ADD SWAP1 POP SWAP3 SWAP2 POP POP JUMP JUMPDEST PUSH32 0x4E487B7100000000000000000000000000000000000000000000000000000000 PUSH1 0x0 MSTORE PUSH1 0x32 PUSH1 0x4 MSTORE PUSH1 0x24 PUSH1 0x0 REVERT JUMPDEST PUSH32 0x4E487B7100000000000000000000000000000000000000000000000000000000 PUSH1 0x0 MSTORE PUSH1 0x12 PUSH1 0x4 MSTORE PUSH1 0x24 PUSH1 0x0 REVERT INVALID LOG2 PUSH5 0x6970667358 0x22 SLT KECCAK256 0x25 0x49 SGT STOP PUSH5 0x747A71DB7D 0xB7 0x24 SWAP4 0xE7 0xE5 JUMP PUSH3 0x8A775D 0x28 SLT KECCAK256 DELEGATECALL 0xA6 0xE7 0xC6 RETURNDATASIZE 0xBA BYTE 0xCE 0x4F PUSH5 0x736F6C6343 STOP ADDMOD SIGNEXTEND STOP CALLER "
		},
		"gasEstimates": {
			"creation": {
				"codeDepositCost": "2369400",
				"executionCost": "26996",
				"totalCost": "2396396"
			},
			"external": {
				"ADMIN_ROLE()": "352",
				"BE_FIRED_ROLE()": "440",
				"DEFAULT_ADMIN()": "380",
				"addAsset(string,string,uint256)": "infinite",
				"addWorker(string,address)": "infinite",
				"assetCount()": "2539",
				"checkRole(bytes32)": "3181",
				"deleteAsset(uint256)": "infinite",
				"error(string,string,string)": "infinite",
				"getAsset(uint256)": "infinite",
				"getAssetCount()": "2504",
				"getRoleAdmin(bytes32)": "infinite",
				"getTraceAddr()": "2567",
				"grantRole(bytes32,address)": "infinite",
				"hasRole(bytes32,address)": "3273",
				"removedWorker(address)": "infinite",
				"revokeRole(bytes32,address)": "infinite",
				"strConcat(string,string)": "infinite",
				"stringToBytes32(string)": "infinite",
				"toAssetIndex(string,uint256)": "infinite",
				"toRole(string)": "infinite",
				"updateGroup(uint256,uint256)": "infinite"
			}
		},
		"methodIdentifiers": {
			"ADMIN_ROLE()": "75b238fc",
			"BE_FIRED_ROLE()": "8e661179",
			"DEFAULT_ADMIN()": "9cdeba95",
			"addAsset(string,string,uint256)": "8bbbc315",
			"addWorker(string,address)": "95aec814",
			"assetCount()": "eafe7a74",
			"checkRole(bytes32)": "c5b95190",
			"deleteAsset(uint256)": "7eb79b53",
			"error(string,string,string)": "609f7070",
			"getAsset(uint256)": "eac8f5b8",
			"getAssetCount()": "a0aead4d",
			"getRoleAdmin(bytes32)": "248a9ca3",
			"getTraceAddr()": "75fe07c1",
			"grantRole(bytes32,address)": "2f2ff15d",
			"hasRole(bytes32,address)": "91d14854",
			"removedWorker(address)": "09aea302",
			"revokeRole(bytes32,address)": "d547741f",
			"strConcat(string,string)": "ff74927b",
			"stringToBytes32(string)": "cfb51928",
			"toAssetIndex(string,uint256)": "a1f7ed1a",
			"toRole(string)": "60e01594",
			"updateGroup(uint256,uint256)": "d9c3d47d"
		}
	},
	"abi": [
		{
			"inputs": [],
			"stateMutability": "nonpayable",
			"type": "constructor"
		},
		{
			"anonymous": false,
			"inputs": [
				{
					"indexed": true,
					"internalType": "address",
					"name": "creator",
					"type": "address"
				},
				{
					"indexed": true,
					"internalType": "uint256",
					"name": "groupId",
					"type": "uint256"
				},
				{
					"indexed": false,
					"internalType": "string",
					"name": "assetName",
					"type": "string"
				},
				{
					"indexed": false,
					"internalType": "uint256",
					"name": "createTime",
					"type": "uint256"
				},
				{
					"indexed": false,
					"internalType": "string",
					"name": "encodeCid",
					"type": "string"
				}
			],
			"name": "LogCreateAsset",
			"type": "event"
		},
		{
			"anonymous": false,
			"inputs": [
				{
					"indexed": false,
					"internalType": "address",
					"name": "worker_address",
					"type": "address"
				},
				{
					"indexed": false,
					"internalType": "string",
					"name": "company_name",
					"type": "string"
				}
			],
			"name": "NewWorkerAdd",
			"type": "event"
		},
		{
			"anonymous": false,
			"inputs": [
				{
					"indexed": false,
					"internalType": "address",
					"name": "worker_address",
					"type": "address"
				},
				{
					"indexed": false,
					"internalType": "string",
					"name": "company_name",
					"type": "string"
				}
			],
			"name": "NewWorkerRemoved",
			"type": "event"
		},
		{
			"anonymous": false,
			"inputs": [
				{
					"indexed": true,
					"internalType": "bytes32",
					"name": "role",
					"type": "bytes32"
				},
				{
					"indexed": true,
					"internalType": "bytes32",
					"name": "previousAdminRole",
					"type": "bytes32"
				},
				{
					"indexed": true,
					"internalType": "bytes32",
					"name": "newAdminRole",
					"type": "bytes32"
				}
			],
			"name": "RoleAdminChanged",
			"type": "event"
		},
		{
			"anonymous": false,
			"inputs": [
				{
					"indexed": true,
					"internalType": "bytes32",
					"name": "role",
					"type": "bytes32"
				},
				{
					"indexed": true,
					"internalType": "address",
					"name": "account",
					"type": "address"
				},
				{
					"indexed": true,
					"internalType": "address",
					"name": "sender",
					"type": "address"
				}
			],
			"name": "RoleGranted",
			"type": "event"
		},
		{
			"anonymous": false,
			"inputs": [
				{
					"indexed": true,
					"internalType": "bytes32",
					"name": "role",
					"type": "bytes32"
				},
				{
					"indexed": true,
					"internalType": "address",
					"name": "account",
					"type": "address"
				},
				{
					"indexed": true,
					"internalType": "address",
					"name": "sender",
					"type": "address"
				}
			],
			"name": "RoleRevoked",
			"type": "event"
		},
		{
			"inputs": [],
			"name": "ADMIN_ROLE",
			"outputs": [
				{
					"internalType": "bytes32",
					"name": "",
					"type": "bytes32"
				}
			],
			"stateMutability": "view",
			"type": "function"
		},
		{
			"inputs": [],
			"name": "BE_FIRED_ROLE",
			"outputs": [
				{
					"internalType": "bytes32",
					"name": "",
					"type": "bytes32"
				}
			],
			"stateMutability": "view",
			"type": "function"
		},
		{
			"inputs": [],
			"name": "DEFAULT_ADMIN",
			"outputs": [
				{
					"internalType": "bytes32",
					"name": "",
					"type": "bytes32"
				}
			],
			"stateMutability": "view",
			"type": "function"
		},
		{
			"inputs": [
				{
					"internalType": "string",
					"name": "_encodeCid",
					"type": "string"
				},
				{
					"internalType": "string",
					"name": "_name",
					"type": "string"
				},
				{
					"internalType": "uint256",
					"name": "_groupId",
					"type": "uint256"
				}
			],
			"name": "addAsset",
			"outputs": [],
			"stateMutability": "nonpayable",
			"type": "function"
		},
		{
			"inputs": [
				{
					"internalType": "string",
					"name": "_groupName",
					"type": "string"
				},
				{
					"internalType": "address",
					"name": "worker_address",
					"type": "address"
				}
			],
			"name": "addWorker",
			"outputs": [
				{
					"internalType": "bool",
					"name": "",
					"type": "bool"
				}
			],
			"stateMutability": "nonpayable",
			"type": "function"
		},
		{
			"inputs": [],
			"name": "assetCount",
			"outputs": [
				{
					"internalType": "uint256",
					"name": "",
					"type": "uint256"
				}
			],
			"stateMutability": "view",
			"type": "function"
		},
		{
			"inputs": [
				{
					"internalType": "bytes32",
					"name": "role",
					"type": "bytes32"
				}
			],
			"name": "checkRole",
			"outputs": [
				{
					"internalType": "bool",
					"name": "",
					"type": "bool"
				}
			],
			"stateMutability": "view",
			"type": "function"
		},
		{
			"inputs": [
				{
					"internalType": "uint256",
					"name": "id",
					"type": "uint256"
				}
			],
			"name": "deleteAsset",
			"outputs": [],
			"stateMutability": "nonpayable",
			"type": "function"
		},
		{
			"inputs": [
				{
					"internalType": "string",
					"name": "_contract",
					"type": "string"
				},
				{
					"internalType": "string",
					"name": "_function",
					"type": "string"
				},
				{
					"internalType": "string",
					"name": "_msg",
					"type": "string"
				}
			],
			"name": "error",
			"outputs": [
				{
					"internalType": "string",
					"name": "",
					"type": "string"
				}
			],
			"stateMutability": "pure",
			"type": "function"
		},
		{
			"inputs": [
				{
					"internalType": "uint256",
					"name": "id",
					"type": "uint256"
				}
			],
			"name": "getAsset",
			"outputs": [
				{
					"components": [
						{
							"internalType": "string",
							"name": "encodeCid",
							"type": "string"
						},
						{
							"internalType": "string",
							"name": "name",
							"type": "string"
						},
						{
							"internalType": "uint256",
							"name": "createdAt",
							"type": "uint256"
						},
						{
							"internalType": "address",
							"name": "creator",
							"type": "address"
						},
						{
							"internalType": "uint256",
							"name": "groupId",
							"type": "uint256"
						},
						{
							"internalType": "uint256",
							"name": "traceCount",
							"type": "uint256"
						},
						{
							"internalType": "bool",
							"name": "isValid",
							"type": "bool"
						}
					],
					"internalType": "struct DataStruct.AssetMetadata",
					"name": "",
					"type": "tuple"
				}
			],
			"stateMutability": "view",
			"type": "function"
		},
		{
			"inputs": [],
			"name": "getAssetCount",
			"outputs": [
				{
					"internalType": "uint256",
					"name": "",
					"type": "uint256"
				}
			],
			"stateMutability": "view",
			"type": "function"
		},
		{
			"inputs": [
				{
					"internalType": "bytes32",
					"name": "role",
					"type": "bytes32"
				}
			],
			"name": "getRoleAdmin",
			"outputs": [
				{
					"internalType": "bytes32",
					"name": "",
					"type": "bytes32"
				}
			],
			"stateMutability": "view",
			"type": "function"
		},
		{
			"inputs": [],
			"name": "getTraceAddr",
			"outputs": [
				{
					"internalType": "address",
					"name": "",
					"type": "address"
				}
			],
			"stateMutability": "view",
			"type": "function"
		},
		{
			"inputs": [
				{
					"internalType": "bytes32",
					"name": "role",
					"type": "bytes32"
				},
				{
					"internalType": "address",
					"name": "member",
					"type": "address"
				}
			],
			"name": "grantRole",
			"outputs": [
				{
					"internalType": "bool",
					"name": "",
					"type": "bool"
				}
			],
			"stateMutability": "nonpayable",
			"type": "function"
		},
		{
			"inputs": [
				{
					"internalType": "bytes32",
					"name": "role",
					"type": "bytes32"
				},
				{
					"internalType": "address",
					"name": "member",
					"type": "address"
				}
			],
			"name": "hasRole",
			"outputs": [
				{
					"internalType": "bool",
					"name": "",
					"type": "bool"
				}
			],
			"stateMutability": "view",
			"type": "function"
		},
		{
			"inputs": [
				{
					"internalType": "address",
					"name": "worker_address",
					"type": "address"
				}
			],
			"name": "removedWorker",
			"outputs": [
				{
					"internalType": "bool",
					"name": "",
					"type": "bool"
				}
			],
			"stateMutability": "nonpayable",
			"type": "function"
		},
		{
			"inputs": [
				{
					"internalType": "bytes32",
					"name": "role",
					"type": "bytes32"
				},
				{
					"internalType": "address",
					"name": "member",
					"type": "address"
				}
			],
			"name": "revokeRole",
			"outputs": [
				{
					"internalType": "bool",
					"name": "",
					"type": "bool"
				}
			],
			"stateMutability": "nonpayable",
			"type": "function"
		},
		{
			"inputs": [
				{
					"internalType": "string",
					"name": "_a",
					"type": "string"
				},
				{
					"internalType": "string",
					"name": "_b",
					"type": "string"
				}
			],
			"name": "strConcat",
			"outputs": [
				{
					"internalType": "string",
					"name": "",
					"type": "string"
				}
			],
			"stateMutability": "pure",
			"type": "function"
		},
		{
			"inputs": [
				{
					"internalType": "string",
					"name": "str",
					"type": "string"
				}
			],
			"name": "stringToBytes32",
			"outputs": [
				{
					"internalType": "bytes32",
					"name": "",
					"type": "bytes32"
				}
			],
			"stateMutability": "pure",
			"type": "function"
		},
		{
			"inputs": [
				{
					"internalType": "string",
					"name": "_group",
					"type": "string"
				},
				{
					"internalType": "uint256",
					"name": "id",
					"type": "uint256"
				}
			],
			"name": "toAssetIndex",
			"outputs": [
				{
					"internalType": "string",
					"name": "",
					"type": "string"
				}
			],
			"stateMutability": "pure",
			"type": "function"
		},
		{
			"inputs": [
				{
					"internalType": "string",
					"name": "str",
					"type": "string"
				}
			],
			"name": "toRole",
			"outputs": [
				{
					"internalType": "bytes32",
					"name": "",
					"type": "bytes32"
				}
			],
			"stateMutability": "pure",
			"type": "function"
		},
		{
			"inputs": [
				{
					"internalType": "uint256",
					"name": "id",
					"type": "uint256"
				},
				{
					"internalType": "uint256",
					"name": "_groupId",
					"type": "uint256"
				}
			],
			"name": "updateGroup",
			"outputs": [],
			"stateMutability": "nonpayable",
			"type": "function"
		}
	]
}