{
	"data": {
		"bytecode": {
			"linkReferences": {},
			"object": "60806040523480156200001157600080fd5b506040516200378038038062003780833981810160405281019062000037919062000743565b3360016000808060001b815260200190815260200160002060000160008373ffffffffffffffffffffffffffffffffffffffff1673ffffffffffffffffffffffffffffffffffffffff16815260200190815260200160002060006101000a81548160ff02191690831515021790555050604051620000b59062000483565b604051809103906000f080158015620000d2573d6000803e3d6000fd5b50600160006101000a81548173ffffffffffffffffffffffffffffffffffffffff021916908373ffffffffffffffffffffffffffffffffffffffff16021790555082600260006101000a81548173ffffffffffffffffffffffffffffffffffffffff021916908373ffffffffffffffffffffffffffffffffffffffff160217905550620001897fdf8b4c520ffe197c5343c6f5aec59570151ef9a492f2c624fd45ddde6135ec426000801b6200021f60201b60201c565b620001bb7fdf8b4c520ffe197c5343c6f5aec59570151ef9a492f2c624fd45ddde6135ec42846200028260201b60201c565b5080600360006101000a81548173ffffffffffffffffffffffffffffffffffffffff021916908373ffffffffffffffffffffffffffffffffffffffff16021790555081600490805190602001906200021592919062000491565b50505050620008a6565b600062000232836200039b60201b60201c565b905081600080858152602001908152602001600020600101819055508181847fbd79b86ffe0ab8e8776151514217cd7cacd52c909f66475c3af44e129f0b00ff60405160405180910390a4505050565b600062000295836200039b60201b60201c565b620002a681620003ba60201b60201c565b50620002b984846200041960201b60201c565b15620002c9576000915062000394565b600160008086815260200190815260200160002060000160008573ffffffffffffffffffffffffffffffffffffffff1673ffffffffffffffffffffffffffffffffffffffff16815260200190815260200160002060006101000a81548160ff0219169083151502179055503373ffffffffffffffffffffffffffffffffffffffff168373ffffffffffffffffffffffffffffffffffffffff16857f2f8788117e7eff1d82e926ec794901d17c78024a50270940304540a733656f0d60405160405180910390a4600191505b5092915050565b6000806000838152602001908152602001600020600101549050919050565b6000620003ce82336200041960201b60201c565b62000410576040517f08c379a000000000000000000000000000000000000000000000000000000000815260040162000407906200081f565b60405180910390fd5b60019050919050565b600080600084815260200190815260200160002060000160008373ffffffffffffffffffffffffffffffffffffffff1673ffffffffffffffffffffffffffffffffffffffff16815260200190815260200160002060009054906101000a900460ff16905092915050565b611a608062001d2083390190565b8280546200049f9062000870565b90600052602060002090601f016020900481019282620004c357600085556200050f565b82601f10620004de57805160ff19168380011785556200050f565b828001600101855582156200050f579182015b828111156200050e578251825591602001919060010190620004f1565b5b5090506200051e919062000522565b5090565b5b808211156200053d57600081600090555060010162000523565b5090565b6000604051905090565b600080fd5b600080fd5b600073ffffffffffffffffffffffffffffffffffffffff82169050919050565b6000620005828262000555565b9050919050565b620005948162000575565b8114620005a057600080fd5b50565b600081519050620005b48162000589565b92915050565b600080fd5b600080fd5b6000601f19601f8301169050919050565b7f4e487b7100000000000000000000000000000000000000000000000000000000600052604160045260246000fd5b6200060f82620005c4565b810181811067ffffffffffffffff82111715620006315762000630620005d5565b5b80604052505050565b60006200064662000541565b905062000654828262000604565b919050565b600067ffffffffffffffff821115620006775762000676620005d5565b5b6200068282620005c4565b9050602081019050919050565b60005b83811015620006af57808201518184015260208101905062000692565b83811115620006bf576000848401525b50505050565b6000620006dc620006d68462000659565b6200063a565b905082815260208101848484011115620006fb57620006fa620005bf565b5b620007088482856200068f565b509392505050565b600082601f830112620007285762000727620005ba565b5b81516200073a848260208601620006c5565b91505092915050565b6000806000606084860312156200075f576200075e6200054b565b5b60006200076f86828701620005a3565b935050602084015167ffffffffffffffff81111562000793576200079262000550565b5b620007a18682870162000710565b9250506040620007b486828701620005a3565b9150509250925092565b600082825260208201905092915050565b7f556e417574686f72697a65644163636f756e7400000000000000000000000000600082015250565b600062000807601383620007be565b91506200081482620007cf565b602082019050919050565b600060208201905081810360008301526200083a81620007f8565b9050919050565b7f4e487b7100000000000000000000000000000000000000000000000000000000600052602260045260246000fd5b600060028204905060018216806200088957607f821691505b60208210811415620008a0576200089f62000841565b5b50919050565b61146a80620008b66000396000f3fe608060405234801561001057600080fd5b50600436106100ee5760003560e01c806391d148541161008c578063c5b9519011610066578063c5b95190146102a3578063cfb51928146102d3578063d547741f14610303578063ff74927b14610333576100ef565b806391d14854146102255780639cdeba9514610255578063a1f7ed1a14610273576100ef565b8063609f7070116100c8578063609f70701461018957806360e01594146101b957806375b238fc146101e95780638e66117914610207576100ef565b8063025b22bc146100f9578063248a9ca3146101295780632f2ff15d14610159576100ef565b5b6100f7610363565b005b610113600480360381019061010e9190610d2f565b610375565b6040516101209190610d77565b60405180910390f35b610143600480360381019061013e9190610dc8565b61040f565b6040516101509190610e04565b60405180910390f35b610173600480360381019061016e9190610e1f565b61042e565b6040516101809190610d77565b60405180910390f35b6101a3600480360381019061019e9190610fa5565b61052d565b6040516101b091906110d4565b60405180910390f35b6101d360048036038101906101ce91906110f6565b610605565b6040516101e09190610e04565b60405180910390f35b6101f1610617565b6040516101fe9190610e04565b60405180910390f35b61020f61063b565b60405161021c9190610e04565b60405180910390f35b61023f600480360381019061023a9190610e1f565b61065f565b60405161024c9190610d77565b60405180910390f35b61025d6106c9565b60405161026a9190610e04565b60405180910390f35b61028d60048036038101906102889190611175565b6106d0565b60405161029a91906110d4565b60405180910390f35b6102bd60048036038101906102b89190610dc8565b61072a565b6040516102ca9190610d77565b60405180910390f35b6102ed60048036038101906102e891906110f6565b61077e565b6040516102fa9190610e04565b60405180910390f35b61031d60048036038101906103189190610e1f565b6107ae565b60405161032a9190610d77565b60405180910390f35b61034d600480360381019061034891906111d1565b6108ac565b60405161035a91906110d4565b60405180910390f35b61037361036e610a42565b610a6c565b565b60008060001b6103848161072a565b50600073ffffffffffffffffffffffffffffffffffffffff168373ffffffffffffffffffffffffffffffffffffffff1614156103c35760009150610409565b82600360006101000a81548173ffffffffffffffffffffffffffffffffffffffff021916908373ffffffffffffffffffffffffffffffffffffffff160217905550600191505b50919050565b6000806000838152602001908152602001600020600101549050919050565b60006104398361040f565b6104428161072a565b5061044d848461065f565b1561045b5760009150610526565b600160008086815260200190815260200160002060000160008573ffffffffffffffffffffffffffffffffffffffff1673ffffffffffffffffffffffffffffffffffffffff16815260200190815260200160002060006101000a81548160ff0219169083151502179055503373ffffffffffffffffffffffffffffffffffffffff168373ffffffffffffffffffffffffffffffffffffffff16857f2f8788117e7eff1d82e926ec794901d17c78024a50270940304540a733656f0d60405160405180910390a4600191505b5092915050565b60606105fc6105b86105746040518060400160405280600a81526020017f436f6e74726163743a2000000000000000000000000000000000000000000000815250876108ac565b6105b36040518060400160405280600b81526020017f2c46756e6374696f6e3a20000000000000000000000000000000000000000000815250876108ac565b6108ac565b6105f76040518060400160405280600a81526020017f2c4d6573736167653a2000000000000000000000000000000000000000000000815250856108ac565b6108ac565b90509392505050565b60006106108261077e565b9050919050565b7fdf8b4c520ffe197c5343c6f5aec59570151ef9a492f2c624fd45ddde6135ec4281565b7f4723ef6f53f658db2aadec92d099865eebe159bef21592286d815fe01f07eacf81565b600080600084815260200190815260200160002060000160008373ffffffffffffffffffffffffffffffffffffffff1673ffffffffffffffffffffffffffffffffffffffff16815260200190815260200160002060009054906101000a900460ff16905092915050565b6000801b81565b6060610722610714846040518060400160405280600181526020017f3a000000000000000000000000000000000000000000000000000000000000008152506108ac565b61071d84610a92565b6108ac565b905092915050565b6000610736823361065f565b610775576040517f08c379a000000000000000000000000000000000000000000000000000000000815260040161076c90611295565b60405180910390fd5b60019050919050565b60008160405160200161079191906112f1565b604051602081830303815290604052805190602001209050919050565b60006107b98361040f565b6107c28161072a565b506107cd848461065f565b6107da57600091506108a5565b600080600086815260200190815260200160002060000160008573ffffffffffffffffffffffffffffffffffffffff1673ffffffffffffffffffffffffffffffffffffffff16815260200190815260200160002060006101000a81548160ff0219169083151502179055503373ffffffffffffffffffffffffffffffffffffffff168373ffffffffffffffffffffffffffffffffffffffff16857ff6391f5c32d9c69d2a47ea670b442974b53935d1edc7fd64eb21e047a839171b60405160405180910390a4600191505b5092915050565b6060600083905060008390506000815183516108c89190611337565b67ffffffffffffffff8111156108e1576108e0610e7a565b5b6040519080825280601f01601f1916602001820160405280156109135781602001600182028036833780820191505090505b50905060008190506000805b85518110156109a75785818151811061093b5761093a61138d565b5b602001015160f81c60f81b838380610952906113bc565b9450815181106109655761096461138d565b5b60200101907effffffffffffffffffffffffffffffffffffffffffffffffffffffffffffff1916908160001a905350808061099f906113bc565b91505061091f565b5060005b8451811015610a33578481815181106109c7576109c661138d565b5b602001015160f81c60f81b8383806109de906113bc565b9450815181106109f1576109f061138d565b5b60200101907effffffffffffffffffffffffffffffffffffffffffffffffffffffffffffff1916908160001a9053508080610a2b906113bc565b9150506109ab565b50829550505050505092915050565b6000600360009054906101000a900473ffffffffffffffffffffffffffffffffffffffff16905090565b3660008037600080366000845af43d6000803e8060008114610a8d573d6000f35b3d6000fd5b606060006001610aa184610b6a565b01905060008167ffffffffffffffff811115610ac057610abf610e7a565b5b6040519080825280601f01601f191660200182016040528015610af25781602001600182028036833780820191505090505b509050600082602001820190505b600115610b5f578080600190039150507f3031323334353637383961626364656600000000000000000000000000000000600a86061a8153600a8581610b4957610b48611405565b5b0494506000851415610b5a57610b5f565b610b00565b819350505050919050565b600080600090507a184f03e93ff9f4daa797ed6e38ed64bf6a1f0100000000000000008310610bc8577a184f03e93ff9f4daa797ed6e38ed64bf6a1f0100000000000000008381610bbe57610bbd611405565b5b0492506040810190505b6d04ee2d6d415b85acef81000000008310610c05576d04ee2d6d415b85acef81000000008381610bfb57610bfa611405565b5b0492506020810190505b662386f26fc100008310610c3457662386f26fc100008381610c2a57610c29611405565b5b0492506010810190505b6305f5e1008310610c5d576305f5e1008381610c5357610c52611405565b5b0492506008810190505b6127108310610c82576127108381610c7857610c77611405565b5b0492506004810190505b60648310610ca55760648381610c9b57610c9a611405565b5b0492506002810190505b600a8310610cb4576001810190505b80915050919050565b6000604051905090565b600080fd5b600080fd5b600073ffffffffffffffffffffffffffffffffffffffff82169050919050565b6000610cfc82610cd1565b9050919050565b610d0c81610cf1565b8114610d1757600080fd5b50565b600081359050610d2981610d03565b92915050565b600060208284031215610d4557610d44610cc7565b5b6000610d5384828501610d1a565b91505092915050565b60008115159050919050565b610d7181610d5c565b82525050565b6000602082019050610d8c6000830184610d68565b92915050565b6000819050919050565b610da581610d92565b8114610db057600080fd5b50565b600081359050610dc281610d9c565b92915050565b600060208284031215610dde57610ddd610cc7565b5b6000610dec84828501610db3565b91505092915050565b610dfe81610d92565b82525050565b6000602082019050610e196000830184610df5565b92915050565b60008060408385031215610e3657610e35610cc7565b5b6000610e4485828601610db3565b9250506020610e5585828601610d1a565b9150509250929050565b600080fd5b600080fd5b6000601f19601f8301169050919050565b7f4e487b7100000000000000000000000000000000000000000000000000000000600052604160045260246000fd5b610eb282610e69565b810181811067ffffffffffffffff82111715610ed157610ed0610e7a565b5b80604052505050565b6000610ee4610cbd565b9050610ef08282610ea9565b919050565b600067ffffffffffffffff821115610f1057610f0f610e7a565b5b610f1982610e69565b9050602081019050919050565b82818337600083830152505050565b6000610f48610f4384610ef5565b610eda565b905082815260208101848484011115610f6457610f63610e64565b5b610f6f848285610f26565b509392505050565b600082601f830112610f8c57610f8b610e5f565b5b8135610f9c848260208601610f35565b91505092915050565b600080600060608486031215610fbe57610fbd610cc7565b5b600084013567ffffffffffffffff811115610fdc57610fdb610ccc565b5b610fe886828701610f77565b935050602084013567ffffffffffffffff81111561100957611008610ccc565b5b61101586828701610f77565b925050604084013567ffffffffffffffff81111561103657611035610ccc565b5b61104286828701610f77565b9150509250925092565b600081519050919050565b600082825260208201905092915050565b60005b8381101561108657808201518184015260208101905061106b565b83811115611095576000848401525b50505050565b60006110a68261104c565b6110b08185611057565b93506110c0818560208601611068565b6110c981610e69565b840191505092915050565b600060208201905081810360008301526110ee818461109b565b905092915050565b60006020828403121561110c5761110b610cc7565b5b600082013567ffffffffffffffff81111561112a57611129610ccc565b5b61113684828501610f77565b91505092915050565b6000819050919050565b6111528161113f565b811461115d57600080fd5b50565b60008135905061116f81611149565b92915050565b6000806040838503121561118c5761118b610cc7565b5b600083013567ffffffffffffffff8111156111aa576111a9610ccc565b5b6111b685828601610f77565b92505060206111c785828601611160565b9150509250929050565b600080604083850312156111e8576111e7610cc7565b5b600083013567ffffffffffffffff81111561120657611205610ccc565b5b61121285828601610f77565b925050602083013567ffffffffffffffff81111561123357611232610ccc565b5b61123f85828601610f77565b9150509250929050565b7f556e417574686f72697a65644163636f756e7400000000000000000000000000600082015250565b600061127f601383611057565b915061128a82611249565b602082019050919050565b600060208201905081810360008301526112ae81611272565b9050919050565b600081905092915050565b60006112cb8261104c565b6112d581856112b5565b93506112e5818560208601611068565b80840191505092915050565b60006112fd82846112c0565b915081905092915050565b7f4e487b7100000000000000000000000000000000000000000000000000000000600052601160045260246000fd5b60006113428261113f565b915061134d8361113f565b9250827fffffffffffffffffffffffffffffffffffffffffffffffffffffffffffffffff0382111561138257611381611308565b5b828201905092915050565b7f4e487b7100000000000000000000000000000000000000000000000000000000600052603260045260246000fd5b60006113c78261113f565b91507fffffffffffffffffffffffffffffffffffffffffffffffffffffffffffffffff8214156113fa576113f9611308565b5b600182019050919050565b7f4e487b7100000000000000000000000000000000000000000000000000000000600052601260045260246000fdfea26469706673582212201212fcb7681f7c1c70af5f4520082d1328839cd41f147aaa112952fcf318005964736f6c634300080b003360806040523480156200001157600080fd5b503360016000808060001b815260200190815260200160002060000160008373ffffffffffffffffffffffffffffffffffffffff1673ffffffffffffffffffffffffffffffffffffffff16815260200190815260200160002060006101000a81548160ff02191690831515021790555050620000b77fde578090ec646877a6b707d83ea8139dac8a43d4dea437aa209801b10c1b26b56000801b620000f060201b60201c565b620000e97fde578090ec646877a6b707d83ea8139dac8a43d4dea437aa209801b10c1b26b5336200015360201b60201c565b50620003d7565b600062000103836200026c60201b60201c565b905081600080858152602001908152602001600020600101819055508181847fbd79b86ffe0ab8e8776151514217cd7cacd52c909f66475c3af44e129f0b00ff60405160405180910390a4505050565b600062000166836200026c60201b60201c565b62000177816200028b60201b60201c565b506200018a8484620002ea60201b60201c565b156200019a576000915062000265565b600160008086815260200190815260200160002060000160008573ffffffffffffffffffffffffffffffffffffffff1673ffffffffffffffffffffffffffffffffffffffff16815260200190815260200160002060006101000a81548160ff0219169083151502179055503373ffffffffffffffffffffffffffffffffffffffff168373ffffffffffffffffffffffffffffffffffffffff16857f2f8788117e7eff1d82e926ec794901d17c78024a50270940304540a733656f0d60405160405180910390a4600191505b5092915050565b6000806000838152602001908152602001600020600101549050919050565b60006200029f8233620002ea60201b60201c565b620002e1576040517f08c379a0000000000000000000000000000000000000000000000000000000008152600401620002d890620003b5565b60405180910390fd5b60019050919050565b600080600084815260200190815260200160002060000160008373ffffffffffffffffffffffffffffffffffffffff1673ffffffffffffffffffffffffffffffffffffffff16815260200190815260200160002060009054906101000a900460ff16905092915050565b600082825260208201905092915050565b7f556e417574686f72697a65644163636f756e7400000000000000000000000000600082015250565b60006200039d60138362000354565b9150620003aa8262000365565b602082019050919050565b60006020820190508181036000830152620003d0816200038e565b9050919050565b61167980620003e76000396000f3fe608060405234801561001057600080fd5b50600436106100b45760003560e01c8063693ec85e11610071578063693ec85e146101a157806391d14854146101d15780639cdeba9514610201578063aa8d24c31461021f578063c5b951901461023b578063d547741f1461026b576100b4565b80630437a9a9146100b957806307d81e7b146100d5578063248a9ca3146101055780632a0acc6a146101355780632f2ff15d146101535780634e7a23ba14610183575b600080fd5b6100d360048036038101906100ce919061101e565b61029b565b005b6100ef60048036038101906100ea9190611096565b6103d5565b6040516100fc91906110ee565b60405180910390f35b61011f600480360381019061011a919061113f565b61066c565b60405161012c919061117b565b60405180910390f35b61013d61068b565b60405161014a919061117b565b60405180910390f35b61016d60048036038101906101689190611196565b610692565b60405161017a91906111e5565b60405180910390f35b61018b610791565b604051610198919061117b565b60405180910390f35b6101bb60048036038101906101b69190611096565b6107b5565b6040516101c89190611431565b60405180910390f35b6101eb60048036038101906101e69190611196565b610a1b565b6040516101f891906111e5565b60405180910390f35b610209610a85565b604051610216919061117b565b60405180910390f35b61023960048036038101906102349190611453565b610a8c565b005b6102556004803603810190610250919061113f565b610ac9565b60405161026291906111e5565b60405180910390f35b61028560048036038101906102809190611196565b610b1d565b60405161029291906111e5565b60405180910390f35b7fde578090ec646877a6b707d83ea8139dac8a43d4dea437aa209801b10c1b26b56102c581610ac9565b506001836040516102d691906114bc565b90815260200160405180910390208290806001815401808255809150506001900390600052602060002090600502016000909190919091506000820151816000016000820151816000019080519060200190610333929190610c1b565b506020820151816001015560408201518160020160006101000a81548173ffffffffffffffffffffffffffffffffffffffff021916908373ffffffffffffffffffffffffffffffffffffffff16021790555060608201518160020160146101000a81548160ff02191690831515021790555050506020820151816003015560408201518160040190805190602001906103cd929190610c1b565b505050505050565b60007fde578090ec646877a6b707d83ea8139dac8a43d4dea437aa209801b10c1b26b561040181610ac9565b50600060018460405161041491906114bc565b9081526020016040518091039020805480602002602001604051908101604052809291908181526020016000905b8282101561063157838290600052602060002090600502016040518060600160405290816000820160405180608001604052908160008201805461048590611502565b80601f01602080910402602001604051908101604052809291908181526020018280546104b190611502565b80156104fe5780601f106104d3576101008083540402835291602001916104fe565b820191906000526020600020905b8154815290600101906020018083116104e157829003601f168201915b50505050508152602001600182015481526020016002820160009054906101000a900473ffffffffffffffffffffffffffffffffffffffff1673ffffffffffffffffffffffffffffffffffffffff1673ffffffffffffffffffffffffffffffffffffffff1681526020016002820160149054906101000a900460ff1615151515815250508152602001600382015481526020016004820180546105a090611502565b80601f01602080910402602001604051908101604052809291908181526020018280546105cc90611502565b80156106195780601f106105ee57610100808354040283529160200191610619565b820191906000526020600020905b8154815290600101906020018083116105fc57829003601f168201915b50505050508152505081526020019060010190610442565b50505050905080600182516106469190611563565b8151811061065757610656611597565b5b60200260200101516020015192505050919050565b6000806000838152602001908152602001600020600101549050919050565b6000801b81565b600061069d8361066c565b6106a681610ac9565b506106b18484610a1b565b156106bf576000915061078a565b600160008086815260200190815260200160002060000160008573ffffffffffffffffffffffffffffffffffffffff1673ffffffffffffffffffffffffffffffffffffffff16815260200190815260200160002060006101000a81548160ff0219169083151502179055503373ffffffffffffffffffffffffffffffffffffffff168373ffffffffffffffffffffffffffffffffffffffff16857f2f8788117e7eff1d82e926ec794901d17c78024a50270940304540a733656f0d60405160405180910390a4600191505b5092915050565b7fde578090ec646877a6b707d83ea8139dac8a43d4dea437aa209801b10c1b26b581565b60607fde578090ec646877a6b707d83ea8139dac8a43d4dea437aa209801b10c1b26b56107e181610ac9565b506001836040516107f291906114bc565b9081526020016040518091039020805480602002602001604051908101604052809291908181526020016000905b82821015610a0f57838290600052602060002090600502016040518060600160405290816000820160405180608001604052908160008201805461086390611502565b80601f016020809104026020016040519081016040528092919081815260200182805461088f90611502565b80156108dc5780601f106108b1576101008083540402835291602001916108dc565b820191906000526020600020905b8154815290600101906020018083116108bf57829003601f168201915b50505050508152602001600182015481526020016002820160009054906101000a900473ffffffffffffffffffffffffffffffffffffffff1673ffffffffffffffffffffffffffffffffffffffff1673ffffffffffffffffffffffffffffffffffffffff1681526020016002820160149054906101000a900460ff16151515158152505081526020016003820154815260200160048201805461097e90611502565b80601f01602080910402602001604051908101604052809291908181526020018280546109aa90611502565b80156109f75780601f106109cc576101008083540402835291602001916109f7565b820191906000526020600020905b8154815290600101906020018083116109da57829003601f168201915b50505050508152505081526020019060010190610820565b50505050915050919050565b600080600084815260200190815260200160002060000160008373ffffffffffffffffffffffffffffffffffffffff1673ffffffffffffffffffffffffffffffffffffffff16815260200190815260200160002060009054906101000a900460ff16905092915050565b6000801b81565b6000801b610a9981610ac9565b50610ac47fde578090ec646877a6b707d83ea8139dac8a43d4dea437aa209801b10c1b26b583610692565b505050565b6000610ad58233610a1b565b610b14576040517f08c379a0000000000000000000000000000000000000000000000000000000008152600401610b0b90611623565b60405180910390fd5b60019050919050565b6000610b288361066c565b610b3181610ac9565b50610b3c8484610a1b565b610b495760009150610c14565b600080600086815260200190815260200160002060000160008573ffffffffffffffffffffffffffffffffffffffff1673ffffffffffffffffffffffffffffffffffffffff16815260200190815260200160002060006101000a81548160ff0219169083151502179055503373ffffffffffffffffffffffffffffffffffffffff168373ffffffffffffffffffffffffffffffffffffffff16857ff6391f5c32d9c69d2a47ea670b442974b53935d1edc7fd64eb21e047a839171b60405160405180910390a4600191505b5092915050565b828054610c2790611502565b90600052602060002090601f016020900481019282610c495760008555610c90565b82601f10610c6257805160ff1916838001178555610c90565b82800160010185558215610c90579182015b82811115610c8f578251825591602001919060010190610c74565b5b509050610c9d9190610ca1565b5090565b5b80821115610cba576000816000905550600101610ca2565b5090565b6000604051905090565b600080fd5b600080fd5b600080fd5b600080fd5b6000601f19601f8301169050919050565b7f4e487b7100000000000000000000000000000000000000000000000000000000600052604160045260246000fd5b610d2582610cdc565b810181811067ffffffffffffffff82111715610d4457610d43610ced565b5b80604052505050565b6000610d57610cbe565b9050610d638282610d1c565b919050565b600067ffffffffffffffff821115610d8357610d82610ced565b5b610d8c82610cdc565b9050602081019050919050565b82818337600083830152505050565b6000610dbb610db684610d68565b610d4d565b905082815260208101848484011115610dd757610dd6610cd7565b5b610de2848285610d99565b509392505050565b600082601f830112610dff57610dfe610cd2565b5b8135610e0f848260208601610da8565b91505092915050565b600080fd5b600080fd5b6000819050919050565b610e3581610e22565b8114610e4057600080fd5b50565b600081359050610e5281610e2c565b92915050565b600073ffffffffffffffffffffffffffffffffffffffff82169050919050565b6000610e8382610e58565b9050919050565b610e9381610e78565b8114610e9e57600080fd5b50565b600081359050610eb081610e8a565b92915050565b60008115159050919050565b610ecb81610eb6565b8114610ed657600080fd5b50565b600081359050610ee881610ec2565b92915050565b600060808284031215610f0457610f03610e18565b5b610f0e6080610d4d565b9050600082013567ffffffffffffffff811115610f2e57610f2d610e1d565b5b610f3a84828501610dea565b6000830152506020610f4e84828501610e43565b6020830152506040610f6284828501610ea1565b6040830152506060610f7684828501610ed9565b60608301525092915050565b600060608284031215610f9857610f97610e18565b5b610fa26060610d4d565b9050600082013567ffffffffffffffff811115610fc257610fc1610e1d565b5b610fce84828501610eee565b6000830152506020610fe284828501610e43565b602083015250604082013567ffffffffffffffff81111561100657611005610e1d565b5b61101284828501610dea565b60408301525092915050565b6000806040838503121561103557611034610cc8565b5b600083013567ffffffffffffffff81111561105357611052610ccd565b5b61105f85828601610dea565b925050602083013567ffffffffffffffff8111156110805761107f610ccd565b5b61108c85828601610f82565b9150509250929050565b6000602082840312156110ac576110ab610cc8565b5b600082013567ffffffffffffffff8111156110ca576110c9610ccd565b5b6110d684828501610dea565b91505092915050565b6110e881610e22565b82525050565b600060208201905061110360008301846110df565b92915050565b6000819050919050565b61111c81611109565b811461112757600080fd5b50565b60008135905061113981611113565b92915050565b60006020828403121561115557611154610cc8565b5b60006111638482850161112a565b91505092915050565b61117581611109565b82525050565b6000602082019050611190600083018461116c565b92915050565b600080604083850312156111ad576111ac610cc8565b5b60006111bb8582860161112a565b92505060206111cc85828601610ea1565b9150509250929050565b6111df81610eb6565b82525050565b60006020820190506111fa60008301846111d6565b92915050565b600081519050919050565b600082825260208201905092915050565b6000819050602082019050919050565b600081519050919050565b600082825260208201905092915050565b60005b8381101561126657808201518184015260208101905061124b565b83811115611275576000848401525b50505050565b60006112868261122c565b6112908185611237565b93506112a0818560208601611248565b6112a981610cdc565b840191505092915050565b6112bd81610e22565b82525050565b6112cc81610e78565b82525050565b6112db81610eb6565b82525050565b600060808301600083015184820360008601526112fe828261127b565b915050602083015161131360208601826112b4565b50604083015161132660408601826112c3565b50606083015161133960608601826112d2565b508091505092915050565b6000606083016000830151848203600086015261136182826112e1565b915050602083015161137660208601826112b4565b506040830151848203604086015261138e828261127b565b9150508091505092915050565b60006113a78383611344565b905092915050565b6000602082019050919050565b60006113c782611200565b6113d1818561120b565b9350836020820285016113e38561121c565b8060005b8581101561141f5784840389528151611400858261139b565b945061140b836113af565b925060208a019950506001810190506113e7565b50829750879550505050505092915050565b6000602082019050818103600083015261144b81846113bc565b905092915050565b60006020828403121561146957611468610cc8565b5b600061147784828501610ea1565b91505092915050565b600081905092915050565b60006114968261122c565b6114a08185611480565b93506114b0818560208601611248565b80840191505092915050565b60006114c8828461148b565b915081905092915050565b7f4e487b7100000000000000000000000000000000000000000000000000000000600052602260045260246000fd5b6000600282049050600182168061151a57607f821691505b6020821081141561152e5761152d6114d3565b5b50919050565b7f4e487b7100000000000000000000000000000000000000000000000000000000600052601160045260246000fd5b600061156e82610e22565b915061157983610e22565b92508282101561158c5761158b611534565b5b828203905092915050565b7f4e487b7100000000000000000000000000000000000000000000000000000000600052603260045260246000fd5b600082825260208201905092915050565b7f556e417574686f72697a65644163636f756e7400000000000000000000000000600082015250565b600061160d6013836115c6565b9150611618826115d7565b602082019050919050565b6000602082019050818103600083015261163c81611600565b905091905056fea264697066735822122049181b91c490c8d3187eca4778c3ad5f01be1e24b47a8c96afdec1212c4c147164736f6c634300080b0033",
			"opcodes": "PUSH1 0x80 PUSH1 0x40 MSTORE CALLVALUE DUP1 ISZERO PUSH3 0x11 JUMPI PUSH1 0x0 DUP1 REVERT JUMPDEST POP PUSH1 0x40 MLOAD PUSH3 0x3780 CODESIZE SUB DUP1 PUSH3 0x3780 DUP4 CODECOPY DUP2 DUP2 ADD PUSH1 0x40 MSTORE DUP2 ADD SWAP1 PUSH3 0x37 SWAP2 SWAP1 PUSH3 0x743 JUMP JUMPDEST CALLER PUSH1 0x1 PUSH1 0x0 DUP1 DUP1 PUSH1 0x0 SHL DUP2 MSTORE PUSH1 0x20 ADD SWAP1 DUP2 MSTORE PUSH1 0x20 ADD PUSH1 0x0 KECCAK256 PUSH1 0x0 ADD PUSH1 0x0 DUP4 PUSH20 0xFFFFFFFFFFFFFFFFFFFFFFFFFFFFFFFFFFFFFFFF AND PUSH20 0xFFFFFFFFFFFFFFFFFFFFFFFFFFFFFFFFFFFFFFFF AND DUP2 MSTORE PUSH1 0x20 ADD SWAP1 DUP2 MSTORE PUSH1 0x20 ADD PUSH1 0x0 KECCAK256 PUSH1 0x0 PUSH2 0x100 EXP DUP2 SLOAD DUP2 PUSH1 0xFF MUL NOT AND SWAP1 DUP4 ISZERO ISZERO MUL OR SWAP1 SSTORE POP POP PUSH1 0x40 MLOAD PUSH3 0xB5 SWAP1 PUSH3 0x483 JUMP JUMPDEST PUSH1 0x40 MLOAD DUP1 SWAP2 SUB SWAP1 PUSH1 0x0 CREATE DUP1 ISZERO DUP1 ISZERO PUSH3 0xD2 JUMPI RETURNDATASIZE PUSH1 0x0 DUP1 RETURNDATACOPY RETURNDATASIZE PUSH1 0x0 REVERT JUMPDEST POP PUSH1 0x1 PUSH1 0x0 PUSH2 0x100 EXP DUP2 SLOAD DUP2 PUSH20 0xFFFFFFFFFFFFFFFFFFFFFFFFFFFFFFFFFFFFFFFF MUL NOT AND SWAP1 DUP4 PUSH20 0xFFFFFFFFFFFFFFFFFFFFFFFFFFFFFFFFFFFFFFFF AND MUL OR SWAP1 SSTORE POP DUP3 PUSH1 0x2 PUSH1 0x0 PUSH2 0x100 EXP DUP2 SLOAD DUP2 PUSH20 0xFFFFFFFFFFFFFFFFFFFFFFFFFFFFFFFFFFFFFFFF MUL NOT AND SWAP1 DUP4 PUSH20 0xFFFFFFFFFFFFFFFFFFFFFFFFFFFFFFFFFFFFFFFF AND MUL OR SWAP1 SSTORE POP PUSH3 0x189 PUSH32 0xDF8B4C520FFE197C5343C6F5AEC59570151EF9A492F2C624FD45DDDE6135EC42 PUSH1 0x0 DUP1 SHL PUSH3 0x21F PUSH1 0x20 SHL PUSH1 0x20 SHR JUMP JUMPDEST PUSH3 0x1BB PUSH32 0xDF8B4C520FFE197C5343C6F5AEC59570151EF9A492F2C624FD45DDDE6135EC42 DUP5 PUSH3 0x282 PUSH1 0x20 SHL PUSH1 0x20 SHR JUMP JUMPDEST POP DUP1 PUSH1 0x3 PUSH1 0x0 PUSH2 0x100 EXP DUP2 SLOAD DUP2 PUSH20 0xFFFFFFFFFFFFFFFFFFFFFFFFFFFFFFFFFFFFFFFF MUL NOT AND SWAP1 DUP4 PUSH20 0xFFFFFFFFFFFFFFFFFFFFFFFFFFFFFFFFFFFFFFFF AND MUL OR SWAP1 SSTORE POP DUP2 PUSH1 0x4 SWAP1 DUP1 MLOAD SWAP1 PUSH1 0x20 ADD SWAP1 PUSH3 0x215 SWAP3 SWAP2 SWAP1 PUSH3 0x491 JUMP JUMPDEST POP POP POP POP PUSH3 0x8A6 JUMP JUMPDEST PUSH1 0x0 PUSH3 0x232 DUP4 PUSH3 0x39B PUSH1 0x20 SHL PUSH1 0x20 SHR JUMP JUMPDEST SWAP1 POP DUP2 PUSH1 0x0 DUP1 DUP6 DUP2 MSTORE PUSH1 0x20 ADD SWAP1 DUP2 MSTORE PUSH1 0x20 ADD PUSH1 0x0 KECCAK256 PUSH1 0x1 ADD DUP2 SWAP1 SSTORE POP DUP2 DUP2 DUP5 PUSH32 0xBD79B86FFE0AB8E8776151514217CD7CACD52C909F66475C3AF44E129F0B00FF PUSH1 0x40 MLOAD PUSH1 0x40 MLOAD DUP1 SWAP2 SUB SWAP1 LOG4 POP POP POP JUMP JUMPDEST PUSH1 0x0 PUSH3 0x295 DUP4 PUSH3 0x39B PUSH1 0x20 SHL PUSH1 0x20 SHR JUMP JUMPDEST PUSH3 0x2A6 DUP2 PUSH3 0x3BA PUSH1 0x20 SHL PUSH1 0x20 SHR JUMP JUMPDEST POP PUSH3 0x2B9 DUP5 DUP5 PUSH3 0x419 PUSH1 0x20 SHL PUSH1 0x20 SHR JUMP JUMPDEST ISZERO PUSH3 0x2C9 JUMPI PUSH1 0x0 SWAP2 POP PUSH3 0x394 JUMP JUMPDEST PUSH1 0x1 PUSH1 0x0 DUP1 DUP7 DUP2 MSTORE PUSH1 0x20 ADD SWAP1 DUP2 MSTORE PUSH1 0x20 ADD PUSH1 0x0 KECCAK256 PUSH1 0x0 ADD PUSH1 0x0 DUP6 PUSH20 0xFFFFFFFFFFFFFFFFFFFFFFFFFFFFFFFFFFFFFFFF AND PUSH20 0xFFFFFFFFFFFFFFFFFFFFFFFFFFFFFFFFFFFFFFFF AND DUP2 MSTORE PUSH1 0x20 ADD SWAP1 DUP2 MSTORE PUSH1 0x20 ADD PUSH1 0x0 KECCAK256 PUSH1 0x0 PUSH2 0x100 EXP DUP2 SLOAD DUP2 PUSH1 0xFF MUL NOT AND SWAP1 DUP4 ISZERO ISZERO MUL OR SWAP1 SSTORE POP CALLER PUSH20 0xFFFFFFFFFFFFFFFFFFFFFFFFFFFFFFFFFFFFFFFF AND DUP4 PUSH20 0xFFFFFFFFFFFFFFFFFFFFFFFFFFFFFFFFFFFFFFFF AND DUP6 PUSH32 0x2F8788117E7EFF1D82E926EC794901D17C78024A50270940304540A733656F0D PUSH1 0x40 MLOAD PUSH1 0x40 MLOAD DUP1 SWAP2 SUB SWAP1 LOG4 PUSH1 0x1 SWAP2 POP JUMPDEST POP SWAP3 SWAP2 POP POP JUMP JUMPDEST PUSH1 0x0 DUP1 PUSH1 0x0 DUP4 DUP2 MSTORE PUSH1 0x20 ADD SWAP1 DUP2 MSTORE PUSH1 0x20 ADD PUSH1 0x0 KECCAK256 PUSH1 0x1 ADD SLOAD SWAP1 POP SWAP2 SWAP1 POP JUMP JUMPDEST PUSH1 0x0 PUSH3 0x3CE DUP3 CALLER PUSH3 0x419 PUSH1 0x20 SHL PUSH1 0x20 SHR JUMP JUMPDEST PUSH3 0x410 JUMPI PUSH1 0x40 MLOAD PUSH32 0x8C379A000000000000000000000000000000000000000000000000000000000 DUP2 MSTORE PUSH1 0x4 ADD PUSH3 0x407 SWAP1 PUSH3 0x81F JUMP JUMPDEST PUSH1 0x40 MLOAD DUP1 SWAP2 SUB SWAP1 REVERT JUMPDEST PUSH1 0x1 SWAP1 POP SWAP2 SWAP1 POP JUMP JUMPDEST PUSH1 0x0 DUP1 PUSH1 0x0 DUP5 DUP2 MSTORE PUSH1 0x20 ADD SWAP1 DUP2 MSTORE PUSH1 0x20 ADD PUSH1 0x0 KECCAK256 PUSH1 0x0 ADD PUSH1 0x0 DUP4 PUSH20 0xFFFFFFFFFFFFFFFFFFFFFFFFFFFFFFFFFFFFFFFF AND PUSH20 0xFFFFFFFFFFFFFFFFFFFFFFFFFFFFFFFFFFFFFFFF AND DUP2 MSTORE PUSH1 0x20 ADD SWAP1 DUP2 MSTORE PUSH1 0x20 ADD PUSH1 0x0 KECCAK256 PUSH1 0x0 SWAP1 SLOAD SWAP1 PUSH2 0x100 EXP SWAP1 DIV PUSH1 0xFF AND SWAP1 POP SWAP3 SWAP2 POP POP JUMP JUMPDEST PUSH2 0x1A60 DUP1 PUSH3 0x1D20 DUP4 CODECOPY ADD SWAP1 JUMP JUMPDEST DUP3 DUP1 SLOAD PUSH3 0x49F SWAP1 PUSH3 0x870 JUMP JUMPDEST SWAP1 PUSH1 0x0 MSTORE PUSH1 0x20 PUSH1 0x0 KECCAK256 SWAP1 PUSH1 0x1F ADD PUSH1 0x20 SWAP1 DIV DUP2 ADD SWAP3 DUP3 PUSH3 0x4C3 JUMPI PUSH1 0x0 DUP6 SSTORE PUSH3 0x50F JUMP JUMPDEST DUP3 PUSH1 0x1F LT PUSH3 0x4DE JUMPI DUP1 MLOAD PUSH1 0xFF NOT AND DUP4 DUP1 ADD OR DUP6 SSTORE PUSH3 0x50F JUMP JUMPDEST DUP3 DUP1 ADD PUSH1 0x1 ADD DUP6 SSTORE DUP3 ISZERO PUSH3 0x50F JUMPI SWAP2 DUP3 ADD JUMPDEST DUP3 DUP2 GT ISZERO PUSH3 0x50E JUMPI DUP3 MLOAD DUP3 SSTORE SWAP2 PUSH1 0x20 ADD SWAP2 SWAP1 PUSH1 0x1 ADD SWAP1 PUSH3 0x4F1 JUMP JUMPDEST JUMPDEST POP SWAP1 POP PUSH3 0x51E SWAP2 SWAP1 PUSH3 0x522 JUMP JUMPDEST POP SWAP1 JUMP JUMPDEST JUMPDEST DUP1 DUP3 GT ISZERO PUSH3 0x53D JUMPI PUSH1 0x0 DUP2 PUSH1 0x0 SWAP1 SSTORE POP PUSH1 0x1 ADD PUSH3 0x523 JUMP JUMPDEST POP SWAP1 JUMP JUMPDEST PUSH1 0x0 PUSH1 0x40 MLOAD SWAP1 POP SWAP1 JUMP JUMPDEST PUSH1 0x0 DUP1 REVERT JUMPDEST PUSH1 0x0 DUP1 REVERT JUMPDEST PUSH1 0x0 PUSH20 0xFFFFFFFFFFFFFFFFFFFFFFFFFFFFFFFFFFFFFFFF DUP3 AND SWAP1 POP SWAP2 SWAP1 POP JUMP JUMPDEST PUSH1 0x0 PUSH3 0x582 DUP3 PUSH3 0x555 JUMP JUMPDEST SWAP1 POP SWAP2 SWAP1 POP JUMP JUMPDEST PUSH3 0x594 DUP2 PUSH3 0x575 JUMP JUMPDEST DUP2 EQ PUSH3 0x5A0 JUMPI PUSH1 0x0 DUP1 REVERT JUMPDEST POP JUMP JUMPDEST PUSH1 0x0 DUP2 MLOAD SWAP1 POP PUSH3 0x5B4 DUP2 PUSH3 0x589 JUMP JUMPDEST SWAP3 SWAP2 POP POP JUMP JUMPDEST PUSH1 0x0 DUP1 REVERT JUMPDEST PUSH1 0x0 DUP1 REVERT JUMPDEST PUSH1 0x0 PUSH1 0x1F NOT PUSH1 0x1F DUP4 ADD AND SWAP1 POP SWAP2 SWAP1 POP JUMP JUMPDEST PUSH32 0x4E487B7100000000000000000000000000000000000000000000000000000000 PUSH1 0x0 MSTORE PUSH1 0x41 PUSH1 0x4 MSTORE PUSH1 0x24 PUSH1 0x0 REVERT JUMPDEST PUSH3 0x60F DUP3 PUSH3 0x5C4 JUMP JUMPDEST DUP2 ADD DUP2 DUP2 LT PUSH8 0xFFFFFFFFFFFFFFFF DUP3 GT OR ISZERO PUSH3 0x631 JUMPI PUSH3 0x630 PUSH3 0x5D5 JUMP JUMPDEST JUMPDEST DUP1 PUSH1 0x40 MSTORE POP POP POP JUMP JUMPDEST PUSH1 0x0 PUSH3 0x646 PUSH3 0x541 JUMP JUMPDEST SWAP1 POP PUSH3 0x654 DUP3 DUP3 PUSH3 0x604 JUMP JUMPDEST SWAP2 SWAP1 POP JUMP JUMPDEST PUSH1 0x0 PUSH8 0xFFFFFFFFFFFFFFFF DUP3 GT ISZERO PUSH3 0x677 JUMPI PUSH3 0x676 PUSH3 0x5D5 JUMP JUMPDEST JUMPDEST PUSH3 0x682 DUP3 PUSH3 0x5C4 JUMP JUMPDEST SWAP1 POP PUSH1 0x20 DUP2 ADD SWAP1 POP SWAP2 SWAP1 POP JUMP JUMPDEST PUSH1 0x0 JUMPDEST DUP4 DUP2 LT ISZERO PUSH3 0x6AF JUMPI DUP1 DUP3 ADD MLOAD DUP2 DUP5 ADD MSTORE PUSH1 0x20 DUP2 ADD SWAP1 POP PUSH3 0x692 JUMP JUMPDEST DUP4 DUP2 GT ISZERO PUSH3 0x6BF JUMPI PUSH1 0x0 DUP5 DUP5 ADD MSTORE JUMPDEST POP POP POP POP JUMP JUMPDEST PUSH1 0x0 PUSH3 0x6DC PUSH3 0x6D6 DUP5 PUSH3 0x659 JUMP JUMPDEST PUSH3 0x63A JUMP JUMPDEST SWAP1 POP DUP3 DUP2 MSTORE PUSH1 0x20 DUP2 ADD DUP5 DUP5 DUP5 ADD GT ISZERO PUSH3 0x6FB JUMPI PUSH3 0x6FA PUSH3 0x5BF JUMP JUMPDEST JUMPDEST PUSH3 0x708 DUP5 DUP3 DUP6 PUSH3 0x68F JUMP JUMPDEST POP SWAP4 SWAP3 POP POP POP JUMP JUMPDEST PUSH1 0x0 DUP3 PUSH1 0x1F DUP4 ADD SLT PUSH3 0x728 JUMPI PUSH3 0x727 PUSH3 0x5BA JUMP JUMPDEST JUMPDEST DUP2 MLOAD PUSH3 0x73A DUP5 DUP3 PUSH1 0x20 DUP7 ADD PUSH3 0x6C5 JUMP JUMPDEST SWAP2 POP POP SWAP3 SWAP2 POP POP JUMP JUMPDEST PUSH1 0x0 DUP1 PUSH1 0x0 PUSH1 0x60 DUP5 DUP7 SUB SLT ISZERO PUSH3 0x75F JUMPI PUSH3 0x75E PUSH3 0x54B JUMP JUMPDEST JUMPDEST PUSH1 0x0 PUSH3 0x76F DUP7 DUP3 DUP8 ADD PUSH3 0x5A3 JUMP JUMPDEST SWAP4 POP POP PUSH1 0x20 DUP5 ADD MLOAD PUSH8 0xFFFFFFFFFFFFFFFF DUP2 GT ISZERO PUSH3 0x793 JUMPI PUSH3 0x792 PUSH3 0x550 JUMP JUMPDEST JUMPDEST PUSH3 0x7A1 DUP7 DUP3 DUP8 ADD PUSH3 0x710 JUMP JUMPDEST SWAP3 POP POP PUSH1 0x40 PUSH3 0x7B4 DUP7 DUP3 DUP8 ADD PUSH3 0x5A3 JUMP JUMPDEST SWAP2 POP POP SWAP3 POP SWAP3 POP SWAP3 JUMP JUMPDEST PUSH1 0x0 DUP3 DUP3 MSTORE PUSH1 0x20 DUP3 ADD SWAP1 POP SWAP3 SWAP2 POP POP JUMP JUMPDEST PUSH32 0x556E417574686F72697A65644163636F756E7400000000000000000000000000 PUSH1 0x0 DUP3 ADD MSTORE POP JUMP JUMPDEST PUSH1 0x0 PUSH3 0x807 PUSH1 0x13 DUP4 PUSH3 0x7BE JUMP JUMPDEST SWAP2 POP PUSH3 0x814 DUP3 PUSH3 0x7CF JUMP JUMPDEST PUSH1 0x20 DUP3 ADD SWAP1 POP SWAP2 SWAP1 POP JUMP JUMPDEST PUSH1 0x0 PUSH1 0x20 DUP3 ADD SWAP1 POP DUP2 DUP2 SUB PUSH1 0x0 DUP4 ADD MSTORE PUSH3 0x83A DUP2 PUSH3 0x7F8 JUMP JUMPDEST SWAP1 POP SWAP2 SWAP1 POP JUMP JUMPDEST PUSH32 0x4E487B7100000000000000000000000000000000000000000000000000000000 PUSH1 0x0 MSTORE PUSH1 0x22 PUSH1 0x4 MSTORE PUSH1 0x24 PUSH1 0x0 REVERT JUMPDEST PUSH1 0x0 PUSH1 0x2 DUP3 DIV SWAP1 POP PUSH1 0x1 DUP3 AND DUP1 PUSH3 0x889 JUMPI PUSH1 0x7F DUP3 AND SWAP2 POP JUMPDEST PUSH1 0x20 DUP3 LT DUP2 EQ ISZERO PUSH3 0x8A0 JUMPI PUSH3 0x89F PUSH3 0x841 JUMP JUMPDEST JUMPDEST POP SWAP2 SWAP1 POP JUMP JUMPDEST PUSH2 0x146A DUP1 PUSH3 0x8B6 PUSH1 0x0 CODECOPY PUSH1 0x0 RETURN INVALID PUSH1 0x80 PUSH1 0x40 MSTORE CALLVALUE DUP1 ISZERO PUSH2 0x10 JUMPI PUSH1 0x0 DUP1 REVERT JUMPDEST POP PUSH1 0x4 CALLDATASIZE LT PUSH2 0xEE JUMPI PUSH1 0x0 CALLDATALOAD PUSH1 0xE0 SHR DUP1 PUSH4 0x91D14854 GT PUSH2 0x8C JUMPI DUP1 PUSH4 0xC5B95190 GT PUSH2 0x66 JUMPI DUP1 PUSH4 0xC5B95190 EQ PUSH2 0x2A3 JUMPI DUP1 PUSH4 0xCFB51928 EQ PUSH2 0x2D3 JUMPI DUP1 PUSH4 0xD547741F EQ PUSH2 0x303 JUMPI DUP1 PUSH4 0xFF74927B EQ PUSH2 0x333 JUMPI PUSH2 0xEF JUMP JUMPDEST DUP1 PUSH4 0x91D14854 EQ PUSH2 0x225 JUMPI DUP1 PUSH4 0x9CDEBA95 EQ PUSH2 0x255 JUMPI DUP1 PUSH4 0xA1F7ED1A EQ PUSH2 0x273 JUMPI PUSH2 0xEF JUMP JUMPDEST DUP1 PUSH4 0x609F7070 GT PUSH2 0xC8 JUMPI DUP1 PUSH4 0x609F7070 EQ PUSH2 0x189 JUMPI DUP1 PUSH4 0x60E01594 EQ PUSH2 0x1B9 JUMPI DUP1 PUSH4 0x75B238FC EQ PUSH2 0x1E9 JUMPI DUP1 PUSH4 0x8E661179 EQ PUSH2 0x207 JUMPI PUSH2 0xEF JUMP JUMPDEST DUP1 PUSH4 0x25B22BC EQ PUSH2 0xF9 JUMPI DUP1 PUSH4 0x248A9CA3 EQ PUSH2 0x129 JUMPI DUP1 PUSH4 0x2F2FF15D EQ PUSH2 0x159 JUMPI PUSH2 0xEF JUMP JUMPDEST JUMPDEST PUSH2 0xF7 PUSH2 0x363 JUMP JUMPDEST STOP JUMPDEST PUSH2 0x113 PUSH1 0x4 DUP1 CALLDATASIZE SUB DUP2 ADD SWAP1 PUSH2 0x10E SWAP2 SWAP1 PUSH2 0xD2F JUMP JUMPDEST PUSH2 0x375 JUMP JUMPDEST PUSH1 0x40 MLOAD PUSH2 0x120 SWAP2 SWAP1 PUSH2 0xD77 JUMP JUMPDEST PUSH1 0x40 MLOAD DUP1 SWAP2 SUB SWAP1 RETURN JUMPDEST PUSH2 0x143 PUSH1 0x4 DUP1 CALLDATASIZE SUB DUP2 ADD SWAP1 PUSH2 0x13E SWAP2 SWAP1 PUSH2 0xDC8 JUMP JUMPDEST PUSH2 0x40F JUMP JUMPDEST PUSH1 0x40 MLOAD PUSH2 0x150 SWAP2 SWAP1 PUSH2 0xE04 JUMP JUMPDEST PUSH1 0x40 MLOAD DUP1 SWAP2 SUB SWAP1 RETURN JUMPDEST PUSH2 0x173 PUSH1 0x4 DUP1 CALLDATASIZE SUB DUP2 ADD SWAP1 PUSH2 0x16E SWAP2 SWAP1 PUSH2 0xE1F JUMP JUMPDEST PUSH2 0x42E JUMP JUMPDEST PUSH1 0x40 MLOAD PUSH2 0x180 SWAP2 SWAP1 PUSH2 0xD77 JUMP JUMPDEST PUSH1 0x40 MLOAD DUP1 SWAP2 SUB SWAP1 RETURN JUMPDEST PUSH2 0x1A3 PUSH1 0x4 DUP1 CALLDATASIZE SUB DUP2 ADD SWAP1 PUSH2 0x19E SWAP2 SWAP1 PUSH2 0xFA5 JUMP JUMPDEST PUSH2 0x52D JUMP JUMPDEST PUSH1 0x40 MLOAD PUSH2 0x1B0 SWAP2 SWAP1 PUSH2 0x10D4 JUMP JUMPDEST PUSH1 0x40 MLOAD DUP1 SWAP2 SUB SWAP1 RETURN JUMPDEST PUSH2 0x1D3 PUSH1 0x4 DUP1 CALLDATASIZE SUB DUP2 ADD SWAP1 PUSH2 0x1CE SWAP2 SWAP1 PUSH2 0x10F6 JUMP JUMPDEST PUSH2 0x605 JUMP JUMPDEST PUSH1 0x40 MLOAD PUSH2 0x1E0 SWAP2 SWAP1 PUSH2 0xE04 JUMP JUMPDEST PUSH1 0x40 MLOAD DUP1 SWAP2 SUB SWAP1 RETURN JUMPDEST PUSH2 0x1F1 PUSH2 0x617 JUMP JUMPDEST PUSH1 0x40 MLOAD PUSH2 0x1FE SWAP2 SWAP1 PUSH2 0xE04 JUMP JUMPDEST PUSH1 0x40 MLOAD DUP1 SWAP2 SUB SWAP1 RETURN JUMPDEST PUSH2 0x20F PUSH2 0x63B JUMP JUMPDEST PUSH1 0x40 MLOAD PUSH2 0x21C SWAP2 SWAP1 PUSH2 0xE04 JUMP JUMPDEST PUSH1 0x40 MLOAD DUP1 SWAP2 SUB SWAP1 RETURN JUMPDEST PUSH2 0x23F PUSH1 0x4 DUP1 CALLDATASIZE SUB DUP2 ADD SWAP1 PUSH2 0x23A SWAP2 SWAP1 PUSH2 0xE1F JUMP JUMPDEST PUSH2 0x65F JUMP JUMPDEST PUSH1 0x40 MLOAD PUSH2 0x24C SWAP2 SWAP1 PUSH2 0xD77 JUMP JUMPDEST PUSH1 0x40 MLOAD DUP1 SWAP2 SUB SWAP1 RETURN JUMPDEST PUSH2 0x25D PUSH2 0x6C9 JUMP JUMPDEST PUSH1 0x40 MLOAD PUSH2 0x26A SWAP2 SWAP1 PUSH2 0xE04 JUMP JUMPDEST PUSH1 0x40 MLOAD DUP1 SWAP2 SUB SWAP1 RETURN JUMPDEST PUSH2 0x28D PUSH1 0x4 DUP1 CALLDATASIZE SUB DUP2 ADD SWAP1 PUSH2 0x288 SWAP2 SWAP1 PUSH2 0x1175 JUMP JUMPDEST PUSH2 0x6D0 JUMP JUMPDEST PUSH1 0x40 MLOAD PUSH2 0x29A SWAP2 SWAP1 PUSH2 0x10D4 JUMP JUMPDEST PUSH1 0x40 MLOAD DUP1 SWAP2 SUB SWAP1 RETURN JUMPDEST PUSH2 0x2BD PUSH1 0x4 DUP1 CALLDATASIZE SUB DUP2 ADD SWAP1 PUSH2 0x2B8 SWAP2 SWAP1 PUSH2 0xDC8 JUMP JUMPDEST PUSH2 0x72A JUMP JUMPDEST PUSH1 0x40 MLOAD PUSH2 0x2CA SWAP2 SWAP1 PUSH2 0xD77 JUMP JUMPDEST PUSH1 0x40 MLOAD DUP1 SWAP2 SUB SWAP1 RETURN JUMPDEST PUSH2 0x2ED PUSH1 0x4 DUP1 CALLDATASIZE SUB DUP2 ADD SWAP1 PUSH2 0x2E8 SWAP2 SWAP1 PUSH2 0x10F6 JUMP JUMPDEST PUSH2 0x77E JUMP JUMPDEST PUSH1 0x40 MLOAD PUSH2 0x2FA SWAP2 SWAP1 PUSH2 0xE04 JUMP JUMPDEST PUSH1 0x40 MLOAD DUP1 SWAP2 SUB SWAP1 RETURN JUMPDEST PUSH2 0x31D PUSH1 0x4 DUP1 CALLDATASIZE SUB DUP2 ADD SWAP1 PUSH2 0x318 SWAP2 SWAP1 PUSH2 0xE1F JUMP JUMPDEST PUSH2 0x7AE JUMP JUMPDEST PUSH1 0x40 MLOAD PUSH2 0x32A SWAP2 SWAP1 PUSH2 0xD77 JUMP JUMPDEST PUSH1 0x40 MLOAD DUP1 SWAP2 SUB SWAP1 RETURN JUMPDEST PUSH2 0x34D PUSH1 0x4 DUP1 CALLDATASIZE SUB DUP2 ADD SWAP1 PUSH2 0x348 SWAP2 SWAP1 PUSH2 0x11D1 JUMP JUMPDEST PUSH2 0x8AC JUMP JUMPDEST PUSH1 0x40 MLOAD PUSH2 0x35A SWAP2 SWAP1 PUSH2 0x10D4 JUMP JUMPDEST PUSH1 0x40 MLOAD DUP1 SWAP2 SUB SWAP1 RETURN JUMPDEST PUSH2 0x373 PUSH2 0x36E PUSH2 0xA42 JUMP JUMPDEST PUSH2 0xA6C JUMP JUMPDEST JUMP JUMPDEST PUSH1 0x0 DUP1 PUSH1 0x0 SHL PUSH2 0x384 DUP2 PUSH2 0x72A JUMP JUMPDEST POP PUSH1 0x0 PUSH20 0xFFFFFFFFFFFFFFFFFFFFFFFFFFFFFFFFFFFFFFFF AND DUP4 PUSH20 0xFFFFFFFFFFFFFFFFFFFFFFFFFFFFFFFFFFFFFFFF AND EQ ISZERO PUSH2 0x3C3 JUMPI PUSH1 0x0 SWAP2 POP PUSH2 0x409 JUMP JUMPDEST DUP3 PUSH1 0x3 PUSH1 0x0 PUSH2 0x100 EXP DUP2 SLOAD DUP2 PUSH20 0xFFFFFFFFFFFFFFFFFFFFFFFFFFFFFFFFFFFFFFFF MUL NOT AND SWAP1 DUP4 PUSH20 0xFFFFFFFFFFFFFFFFFFFFFFFFFFFFFFFFFFFFFFFF AND MUL OR SWAP1 SSTORE POP PUSH1 0x1 SWAP2 POP JUMPDEST POP SWAP2 SWAP1 POP JUMP JUMPDEST PUSH1 0x0 DUP1 PUSH1 0x0 DUP4 DUP2 MSTORE PUSH1 0x20 ADD SWAP1 DUP2 MSTORE PUSH1 0x20 ADD PUSH1 0x0 KECCAK256 PUSH1 0x1 ADD SLOAD SWAP1 POP SWAP2 SWAP1 POP JUMP JUMPDEST PUSH1 0x0 PUSH2 0x439 DUP4 PUSH2 0x40F JUMP JUMPDEST PUSH2 0x442 DUP2 PUSH2 0x72A JUMP JUMPDEST POP PUSH2 0x44D DUP5 DUP5 PUSH2 0x65F JUMP JUMPDEST ISZERO PUSH2 0x45B JUMPI PUSH1 0x0 SWAP2 POP PUSH2 0x526 JUMP JUMPDEST PUSH1 0x1 PUSH1 0x0 DUP1 DUP7 DUP2 MSTORE PUSH1 0x20 ADD SWAP1 DUP2 MSTORE PUSH1 0x20 ADD PUSH1 0x0 KECCAK256 PUSH1 0x0 ADD PUSH1 0x0 DUP6 PUSH20 0xFFFFFFFFFFFFFFFFFFFFFFFFFFFFFFFFFFFFFFFF AND PUSH20 0xFFFFFFFFFFFFFFFFFFFFFFFFFFFFFFFFFFFFFFFF AND DUP2 MSTORE PUSH1 0x20 ADD SWAP1 DUP2 MSTORE PUSH1 0x20 ADD PUSH1 0x0 KECCAK256 PUSH1 0x0 PUSH2 0x100 EXP DUP2 SLOAD DUP2 PUSH1 0xFF MUL NOT AND SWAP1 DUP4 ISZERO ISZERO MUL OR SWAP1 SSTORE POP CALLER PUSH20 0xFFFFFFFFFFFFFFFFFFFFFFFFFFFFFFFFFFFFFFFF AND DUP4 PUSH20 0xFFFFFFFFFFFFFFFFFFFFFFFFFFFFFFFFFFFFFFFF AND DUP6 PUSH32 0x2F8788117E7EFF1D82E926EC794901D17C78024A50270940304540A733656F0D PUSH1 0x40 MLOAD PUSH1 0x40 MLOAD DUP1 SWAP2 SUB SWAP1 LOG4 PUSH1 0x1 SWAP2 POP JUMPDEST POP SWAP3 SWAP2 POP POP JUMP JUMPDEST PUSH1 0x60 PUSH2 0x5FC PUSH2 0x5B8 PUSH2 0x574 PUSH1 0x40 MLOAD DUP1 PUSH1 0x40 ADD PUSH1 0x40 MSTORE DUP1 PUSH1 0xA DUP2 MSTORE PUSH1 0x20 ADD PUSH32 0x436F6E74726163743A2000000000000000000000000000000000000000000000 DUP2 MSTORE POP DUP8 PUSH2 0x8AC JUMP JUMPDEST PUSH2 0x5B3 PUSH1 0x40 MLOAD DUP1 PUSH1 0x40 ADD PUSH1 0x40 MSTORE DUP1 PUSH1 0xB DUP2 MSTORE PUSH1 0x20 ADD PUSH32 0x2C46756E6374696F6E3A20000000000000000000000000000000000000000000 DUP2 MSTORE POP DUP8 PUSH2 0x8AC JUMP JUMPDEST PUSH2 0x8AC JUMP JUMPDEST PUSH2 0x5F7 PUSH1 0x40 MLOAD DUP1 PUSH1 0x40 ADD PUSH1 0x40 MSTORE DUP1 PUSH1 0xA DUP2 MSTORE PUSH1 0x20 ADD PUSH32 0x2C4D6573736167653A2000000000000000000000000000000000000000000000 DUP2 MSTORE POP DUP6 PUSH2 0x8AC JUMP JUMPDEST PUSH2 0x8AC JUMP JUMPDEST SWAP1 POP SWAP4 SWAP3 POP POP POP JUMP JUMPDEST PUSH1 0x0 PUSH2 0x610 DUP3 PUSH2 0x77E JUMP JUMPDEST SWAP1 POP SWAP2 SWAP1 POP JUMP JUMPDEST PUSH32 0xDF8B4C520FFE197C5343C6F5AEC59570151EF9A492F2C624FD45DDDE6135EC42 DUP2 JUMP JUMPDEST PUSH32 0x4723EF6F53F658DB2AADEC92D099865EEBE159BEF21592286D815FE01F07EACF DUP2 JUMP JUMPDEST PUSH1 0x0 DUP1 PUSH1 0x0 DUP5 DUP2 MSTORE PUSH1 0x20 ADD SWAP1 DUP2 MSTORE PUSH1 0x20 ADD PUSH1 0x0 KECCAK256 PUSH1 0x0 ADD PUSH1 0x0 DUP4 PUSH20 0xFFFFFFFFFFFFFFFFFFFFFFFFFFFFFFFFFFFFFFFF AND PUSH20 0xFFFFFFFFFFFFFFFFFFFFFFFFFFFFFFFFFFFFFFFF AND DUP2 MSTORE PUSH1 0x20 ADD SWAP1 DUP2 MSTORE PUSH1 0x20 ADD PUSH1 0x0 KECCAK256 PUSH1 0x0 SWAP1 SLOAD SWAP1 PUSH2 0x100 EXP SWAP1 DIV PUSH1 0xFF AND SWAP1 POP SWAP3 SWAP2 POP POP JUMP JUMPDEST PUSH1 0x0 DUP1 SHL DUP2 JUMP JUMPDEST PUSH1 0x60 PUSH2 0x722 PUSH2 0x714 DUP5 PUSH1 0x40 MLOAD DUP1 PUSH1 0x40 ADD PUSH1 0x40 MSTORE DUP1 PUSH1 0x1 DUP2 MSTORE PUSH1 0x20 ADD PUSH32 0x3A00000000000000000000000000000000000000000000000000000000000000 DUP2 MSTORE POP PUSH2 0x8AC JUMP JUMPDEST PUSH2 0x71D DUP5 PUSH2 0xA92 JUMP JUMPDEST PUSH2 0x8AC JUMP JUMPDEST SWAP1 POP SWAP3 SWAP2 POP POP JUMP JUMPDEST PUSH1 0x0 PUSH2 0x736 DUP3 CALLER PUSH2 0x65F JUMP JUMPDEST PUSH2 0x775 JUMPI PUSH1 0x40 MLOAD PUSH32 0x8C379A000000000000000000000000000000000000000000000000000000000 DUP2 MSTORE PUSH1 0x4 ADD PUSH2 0x76C SWAP1 PUSH2 0x1295 JUMP JUMPDEST PUSH1 0x40 MLOAD DUP1 SWAP2 SUB SWAP1 REVERT JUMPDEST PUSH1 0x1 SWAP1 POP SWAP2 SWAP1 POP JUMP JUMPDEST PUSH1 0x0 DUP2 PUSH1 0x40 MLOAD PUSH1 0x20 ADD PUSH2 0x791 SWAP2 SWAP1 PUSH2 0x12F1 JUMP JUMPDEST PUSH1 0x40 MLOAD PUSH1 0x20 DUP2 DUP4 SUB SUB DUP2 MSTORE SWAP1 PUSH1 0x40 MSTORE DUP1 MLOAD SWAP1 PUSH1 0x20 ADD KECCAK256 SWAP1 POP SWAP2 SWAP1 POP JUMP JUMPDEST PUSH1 0x0 PUSH2 0x7B9 DUP4 PUSH2 0x40F JUMP JUMPDEST PUSH2 0x7C2 DUP2 PUSH2 0x72A JUMP JUMPDEST POP PUSH2 0x7CD DUP5 DUP5 PUSH2 0x65F JUMP JUMPDEST PUSH2 0x7DA JUMPI PUSH1 0x0 SWAP2 POP PUSH2 0x8A5 JUMP JUMPDEST PUSH1 0x0 DUP1 PUSH1 0x0 DUP7 DUP2 MSTORE PUSH1 0x20 ADD SWAP1 DUP2 MSTORE PUSH1 0x20 ADD PUSH1 0x0 KECCAK256 PUSH1 0x0 ADD PUSH1 0x0 DUP6 PUSH20 0xFFFFFFFFFFFFFFFFFFFFFFFFFFFFFFFFFFFFFFFF AND PUSH20 0xFFFFFFFFFFFFFFFFFFFFFFFFFFFFFFFFFFFFFFFF AND DUP2 MSTORE PUSH1 0x20 ADD SWAP1 DUP2 MSTORE PUSH1 0x20 ADD PUSH1 0x0 KECCAK256 PUSH1 0x0 PUSH2 0x100 EXP DUP2 SLOAD DUP2 PUSH1 0xFF MUL NOT AND SWAP1 DUP4 ISZERO ISZERO MUL OR SWAP1 SSTORE POP CALLER PUSH20 0xFFFFFFFFFFFFFFFFFFFFFFFFFFFFFFFFFFFFFFFF AND DUP4 PUSH20 0xFFFFFFFFFFFFFFFFFFFFFFFFFFFFFFFFFFFFFFFF AND DUP6 PUSH32 0xF6391F5C32D9C69D2A47EA670B442974B53935D1EDC7FD64EB21E047A839171B PUSH1 0x40 MLOAD PUSH1 0x40 MLOAD DUP1 SWAP2 SUB SWAP1 LOG4 PUSH1 0x1 SWAP2 POP JUMPDEST POP SWAP3 SWAP2 POP POP JUMP JUMPDEST PUSH1 0x60 PUSH1 0x0 DUP4 SWAP1 POP PUSH1 0x0 DUP4 SWAP1 POP PUSH1 0x0 DUP2 MLOAD DUP4 MLOAD PUSH2 0x8C8 SWAP2 SWAP1 PUSH2 0x1337 JUMP JUMPDEST PUSH8 0xFFFFFFFFFFFFFFFF DUP2 GT ISZERO PUSH2 0x8E1 JUMPI PUSH2 0x8E0 PUSH2 0xE7A JUMP JUMPDEST JUMPDEST PUSH1 0x40 MLOAD SWAP1 DUP1 DUP3 MSTORE DUP1 PUSH1 0x1F ADD PUSH1 0x1F NOT AND PUSH1 0x20 ADD DUP3 ADD PUSH1 0x40 MSTORE DUP1 ISZERO PUSH2 0x913 JUMPI DUP2 PUSH1 0x20 ADD PUSH1 0x1 DUP3 MUL DUP1 CALLDATASIZE DUP4 CALLDATACOPY DUP1 DUP3 ADD SWAP2 POP POP SWAP1 POP JUMPDEST POP SWAP1 POP PUSH1 0x0 DUP2 SWAP1 POP PUSH1 0x0 DUP1 JUMPDEST DUP6 MLOAD DUP2 LT ISZERO PUSH2 0x9A7 JUMPI DUP6 DUP2 DUP2 MLOAD DUP2 LT PUSH2 0x93B JUMPI PUSH2 0x93A PUSH2 0x138D JUMP JUMPDEST JUMPDEST PUSH1 0x20 ADD ADD MLOAD PUSH1 0xF8 SHR PUSH1 0xF8 SHL DUP4 DUP4 DUP1 PUSH2 0x952 SWAP1 PUSH2 0x13BC JUMP JUMPDEST SWAP5 POP DUP2 MLOAD DUP2 LT PUSH2 0x965 JUMPI PUSH2 0x964 PUSH2 0x138D JUMP JUMPDEST JUMPDEST PUSH1 0x20 ADD ADD SWAP1 PUSH31 0xFFFFFFFFFFFFFFFFFFFFFFFFFFFFFFFFFFFFFFFFFFFFFFFFFFFFFFFFFFFFFF NOT AND SWAP1 DUP2 PUSH1 0x0 BYTE SWAP1 MSTORE8 POP DUP1 DUP1 PUSH2 0x99F SWAP1 PUSH2 0x13BC JUMP JUMPDEST SWAP2 POP POP PUSH2 0x91F JUMP JUMPDEST POP PUSH1 0x0 JUMPDEST DUP5 MLOAD DUP2 LT ISZERO PUSH2 0xA33 JUMPI DUP5 DUP2 DUP2 MLOAD DUP2 LT PUSH2 0x9C7 JUMPI PUSH2 0x9C6 PUSH2 0x138D JUMP JUMPDEST JUMPDEST PUSH1 0x20 ADD ADD MLOAD PUSH1 0xF8 SHR PUSH1 0xF8 SHL DUP4 DUP4 DUP1 PUSH2 0x9DE SWAP1 PUSH2 0x13BC JUMP JUMPDEST SWAP5 POP DUP2 MLOAD DUP2 LT PUSH2 0x9F1 JUMPI PUSH2 0x9F0 PUSH2 0x138D JUMP JUMPDEST JUMPDEST PUSH1 0x20 ADD ADD SWAP1 PUSH31 0xFFFFFFFFFFFFFFFFFFFFFFFFFFFFFFFFFFFFFFFFFFFFFFFFFFFFFFFFFFFFFF NOT AND SWAP1 DUP2 PUSH1 0x0 BYTE SWAP1 MSTORE8 POP DUP1 DUP1 PUSH2 0xA2B SWAP1 PUSH2 0x13BC JUMP JUMPDEST SWAP2 POP POP PUSH2 0x9AB JUMP JUMPDEST POP DUP3 SWAP6 POP POP POP POP POP POP SWAP3 SWAP2 POP POP JUMP JUMPDEST PUSH1 0x0 PUSH1 0x3 PUSH1 0x0 SWAP1 SLOAD SWAP1 PUSH2 0x100 EXP SWAP1 DIV PUSH20 0xFFFFFFFFFFFFFFFFFFFFFFFFFFFFFFFFFFFFFFFF AND SWAP1 POP SWAP1 JUMP JUMPDEST CALLDATASIZE PUSH1 0x0 DUP1 CALLDATACOPY PUSH1 0x0 DUP1 CALLDATASIZE PUSH1 0x0 DUP5 GAS DELEGATECALL RETURNDATASIZE PUSH1 0x0 DUP1 RETURNDATACOPY DUP1 PUSH1 0x0 DUP2 EQ PUSH2 0xA8D JUMPI RETURNDATASIZE PUSH1 0x0 RETURN JUMPDEST RETURNDATASIZE PUSH1 0x0 REVERT JUMPDEST PUSH1 0x60 PUSH1 0x0 PUSH1 0x1 PUSH2 0xAA1 DUP5 PUSH2 0xB6A JUMP JUMPDEST ADD SWAP1 POP PUSH1 0x0 DUP2 PUSH8 0xFFFFFFFFFFFFFFFF DUP2 GT ISZERO PUSH2 0xAC0 JUMPI PUSH2 0xABF PUSH2 0xE7A JUMP JUMPDEST JUMPDEST PUSH1 0x40 MLOAD SWAP1 DUP1 DUP3 MSTORE DUP1 PUSH1 0x1F ADD PUSH1 0x1F NOT AND PUSH1 0x20 ADD DUP3 ADD PUSH1 0x40 MSTORE DUP1 ISZERO PUSH2 0xAF2 JUMPI DUP2 PUSH1 0x20 ADD PUSH1 0x1 DUP3 MUL DUP1 CALLDATASIZE DUP4 CALLDATACOPY DUP1 DUP3 ADD SWAP2 POP POP SWAP1 POP JUMPDEST POP SWAP1 POP PUSH1 0x0 DUP3 PUSH1 0x20 ADD DUP3 ADD SWAP1 POP JUMPDEST PUSH1 0x1 ISZERO PUSH2 0xB5F JUMPI DUP1 DUP1 PUSH1 0x1 SWAP1 SUB SWAP2 POP POP PUSH32 0x3031323334353637383961626364656600000000000000000000000000000000 PUSH1 0xA DUP7 MOD BYTE DUP2 MSTORE8 PUSH1 0xA DUP6 DUP2 PUSH2 0xB49 JUMPI PUSH2 0xB48 PUSH2 0x1405 JUMP JUMPDEST JUMPDEST DIV SWAP5 POP PUSH1 0x0 DUP6 EQ ISZERO PUSH2 0xB5A JUMPI PUSH2 0xB5F JUMP JUMPDEST PUSH2 0xB00 JUMP JUMPDEST DUP2 SWAP4 POP POP POP POP SWAP2 SWAP1 POP JUMP JUMPDEST PUSH1 0x0 DUP1 PUSH1 0x0 SWAP1 POP PUSH27 0x184F03E93FF9F4DAA797ED6E38ED64BF6A1F010000000000000000 DUP4 LT PUSH2 0xBC8 JUMPI PUSH27 0x184F03E93FF9F4DAA797ED6E38ED64BF6A1F010000000000000000 DUP4 DUP2 PUSH2 0xBBE JUMPI PUSH2 0xBBD PUSH2 0x1405 JUMP JUMPDEST JUMPDEST DIV SWAP3 POP PUSH1 0x40 DUP2 ADD SWAP1 POP JUMPDEST PUSH14 0x4EE2D6D415B85ACEF8100000000 DUP4 LT PUSH2 0xC05 JUMPI PUSH14 0x4EE2D6D415B85ACEF8100000000 DUP4 DUP2 PUSH2 0xBFB JUMPI PUSH2 0xBFA PUSH2 0x1405 JUMP JUMPDEST JUMPDEST DIV SWAP3 POP PUSH1 0x20 DUP2 ADD SWAP1 POP JUMPDEST PUSH7 0x2386F26FC10000 DUP4 LT PUSH2 0xC34 JUMPI PUSH7 0x2386F26FC10000 DUP4 DUP2 PUSH2 0xC2A JUMPI PUSH2 0xC29 PUSH2 0x1405 JUMP JUMPDEST JUMPDEST DIV SWAP3 POP PUSH1 0x10 DUP2 ADD SWAP1 POP JUMPDEST PUSH4 0x5F5E100 DUP4 LT PUSH2 0xC5D JUMPI PUSH4 0x5F5E100 DUP4 DUP2 PUSH2 0xC53 JUMPI PUSH2 0xC52 PUSH2 0x1405 JUMP JUMPDEST JUMPDEST DIV SWAP3 POP PUSH1 0x8 DUP2 ADD SWAP1 POP JUMPDEST PUSH2 0x2710 DUP4 LT PUSH2 0xC82 JUMPI PUSH2 0x2710 DUP4 DUP2 PUSH2 0xC78 JUMPI PUSH2 0xC77 PUSH2 0x1405 JUMP JUMPDEST JUMPDEST DIV SWAP3 POP PUSH1 0x4 DUP2 ADD SWAP1 POP JUMPDEST PUSH1 0x64 DUP4 LT PUSH2 0xCA5 JUMPI PUSH1 0x64 DUP4 DUP2 PUSH2 0xC9B JUMPI PUSH2 0xC9A PUSH2 0x1405 JUMP JUMPDEST JUMPDEST DIV SWAP3 POP PUSH1 0x2 DUP2 ADD SWAP1 POP JUMPDEST PUSH1 0xA DUP4 LT PUSH2 0xCB4 JUMPI PUSH1 0x1 DUP2 ADD SWAP1 POP JUMPDEST DUP1 SWAP2 POP POP SWAP2 SWAP1 POP JUMP JUMPDEST PUSH1 0x0 PUSH1 0x40 MLOAD SWAP1 POP SWAP1 JUMP JUMPDEST PUSH1 0x0 DUP1 REVERT JUMPDEST PUSH1 0x0 DUP1 REVERT JUMPDEST PUSH1 0x0 PUSH20 0xFFFFFFFFFFFFFFFFFFFFFFFFFFFFFFFFFFFFFFFF DUP3 AND SWAP1 POP SWAP2 SWAP1 POP JUMP JUMPDEST PUSH1 0x0 PUSH2 0xCFC DUP3 PUSH2 0xCD1 JUMP JUMPDEST SWAP1 POP SWAP2 SWAP1 POP JUMP JUMPDEST PUSH2 0xD0C DUP2 PUSH2 0xCF1 JUMP JUMPDEST DUP2 EQ PUSH2 0xD17 JUMPI PUSH1 0x0 DUP1 REVERT JUMPDEST POP JUMP JUMPDEST PUSH1 0x0 DUP2 CALLDATALOAD SWAP1 POP PUSH2 0xD29 DUP2 PUSH2 0xD03 JUMP JUMPDEST SWAP3 SWAP2 POP POP JUMP JUMPDEST PUSH1 0x0 PUSH1 0x20 DUP3 DUP5 SUB SLT ISZERO PUSH2 0xD45 JUMPI PUSH2 0xD44 PUSH2 0xCC7 JUMP JUMPDEST JUMPDEST PUSH1 0x0 PUSH2 0xD53 DUP5 DUP3 DUP6 ADD PUSH2 0xD1A JUMP JUMPDEST SWAP2 POP POP SWAP3 SWAP2 POP POP JUMP JUMPDEST PUSH1 0x0 DUP2 ISZERO ISZERO SWAP1 POP SWAP2 SWAP1 POP JUMP JUMPDEST PUSH2 0xD71 DUP2 PUSH2 0xD5C JUMP JUMPDEST DUP3 MSTORE POP POP JUMP JUMPDEST PUSH1 0x0 PUSH1 0x20 DUP3 ADD SWAP1 POP PUSH2 0xD8C PUSH1 0x0 DUP4 ADD DUP5 PUSH2 0xD68 JUMP JUMPDEST SWAP3 SWAP2 POP POP JUMP JUMPDEST PUSH1 0x0 DUP2 SWAP1 POP SWAP2 SWAP1 POP JUMP JUMPDEST PUSH2 0xDA5 DUP2 PUSH2 0xD92 JUMP JUMPDEST DUP2 EQ PUSH2 0xDB0 JUMPI PUSH1 0x0 DUP1 REVERT JUMPDEST POP JUMP JUMPDEST PUSH1 0x0 DUP2 CALLDATALOAD SWAP1 POP PUSH2 0xDC2 DUP2 PUSH2 0xD9C JUMP JUMPDEST SWAP3 SWAP2 POP POP JUMP JUMPDEST PUSH1 0x0 PUSH1 0x20 DUP3 DUP5 SUB SLT ISZERO PUSH2 0xDDE JUMPI PUSH2 0xDDD PUSH2 0xCC7 JUMP JUMPDEST JUMPDEST PUSH1 0x0 PUSH2 0xDEC DUP5 DUP3 DUP6 ADD PUSH2 0xDB3 JUMP JUMPDEST SWAP2 POP POP SWAP3 SWAP2 POP POP JUMP JUMPDEST PUSH2 0xDFE DUP2 PUSH2 0xD92 JUMP JUMPDEST DUP3 MSTORE POP POP JUMP JUMPDEST PUSH1 0x0 PUSH1 0x20 DUP3 ADD SWAP1 POP PUSH2 0xE19 PUSH1 0x0 DUP4 ADD DUP5 PUSH2 0xDF5 JUMP JUMPDEST SWAP3 SWAP2 POP POP JUMP JUMPDEST PUSH1 0x0 DUP1 PUSH1 0x40 DUP4 DUP6 SUB SLT ISZERO PUSH2 0xE36 JUMPI PUSH2 0xE35 PUSH2 0xCC7 JUMP JUMPDEST JUMPDEST PUSH1 0x0 PUSH2 0xE44 DUP6 DUP3 DUP7 ADD PUSH2 0xDB3 JUMP JUMPDEST SWAP3 POP POP PUSH1 0x20 PUSH2 0xE55 DUP6 DUP3 DUP7 ADD PUSH2 0xD1A JUMP JUMPDEST SWAP2 POP POP SWAP3 POP SWAP3 SWAP1 POP JUMP JUMPDEST PUSH1 0x0 DUP1 REVERT JUMPDEST PUSH1 0x0 DUP1 REVERT JUMPDEST PUSH1 0x0 PUSH1 0x1F NOT PUSH1 0x1F DUP4 ADD AND SWAP1 POP SWAP2 SWAP1 POP JUMP JUMPDEST PUSH32 0x4E487B7100000000000000000000000000000000000000000000000000000000 PUSH1 0x0 MSTORE PUSH1 0x41 PUSH1 0x4 MSTORE PUSH1 0x24 PUSH1 0x0 REVERT JUMPDEST PUSH2 0xEB2 DUP3 PUSH2 0xE69 JUMP JUMPDEST DUP2 ADD DUP2 DUP2 LT PUSH8 0xFFFFFFFFFFFFFFFF DUP3 GT OR ISZERO PUSH2 0xED1 JUMPI PUSH2 0xED0 PUSH2 0xE7A JUMP JUMPDEST JUMPDEST DUP1 PUSH1 0x40 MSTORE POP POP POP JUMP JUMPDEST PUSH1 0x0 PUSH2 0xEE4 PUSH2 0xCBD JUMP JUMPDEST SWAP1 POP PUSH2 0xEF0 DUP3 DUP3 PUSH2 0xEA9 JUMP JUMPDEST SWAP2 SWAP1 POP JUMP JUMPDEST PUSH1 0x0 PUSH8 0xFFFFFFFFFFFFFFFF DUP3 GT ISZERO PUSH2 0xF10 JUMPI PUSH2 0xF0F PUSH2 0xE7A JUMP JUMPDEST JUMPDEST PUSH2 0xF19 DUP3 PUSH2 0xE69 JUMP JUMPDEST SWAP1 POP PUSH1 0x20 DUP2 ADD SWAP1 POP SWAP2 SWAP1 POP JUMP JUMPDEST DUP3 DUP2 DUP4 CALLDATACOPY PUSH1 0x0 DUP4 DUP4 ADD MSTORE POP POP POP JUMP JUMPDEST PUSH1 0x0 PUSH2 0xF48 PUSH2 0xF43 DUP5 PUSH2 0xEF5 JUMP JUMPDEST PUSH2 0xEDA JUMP JUMPDEST SWAP1 POP DUP3 DUP2 MSTORE PUSH1 0x20 DUP2 ADD DUP5 DUP5 DUP5 ADD GT ISZERO PUSH2 0xF64 JUMPI PUSH2 0xF63 PUSH2 0xE64 JUMP JUMPDEST JUMPDEST PUSH2 0xF6F DUP5 DUP3 DUP6 PUSH2 0xF26 JUMP JUMPDEST POP SWAP4 SWAP3 POP POP POP JUMP JUMPDEST PUSH1 0x0 DUP3 PUSH1 0x1F DUP4 ADD SLT PUSH2 0xF8C JUMPI PUSH2 0xF8B PUSH2 0xE5F JUMP JUMPDEST JUMPDEST DUP2 CALLDATALOAD PUSH2 0xF9C DUP5 DUP3 PUSH1 0x20 DUP7 ADD PUSH2 0xF35 JUMP JUMPDEST SWAP2 POP POP SWAP3 SWAP2 POP POP JUMP JUMPDEST PUSH1 0x0 DUP1 PUSH1 0x0 PUSH1 0x60 DUP5 DUP7 SUB SLT ISZERO PUSH2 0xFBE JUMPI PUSH2 0xFBD PUSH2 0xCC7 JUMP JUMPDEST JUMPDEST PUSH1 0x0 DUP5 ADD CALLDATALOAD PUSH8 0xFFFFFFFFFFFFFFFF DUP2 GT ISZERO PUSH2 0xFDC JUMPI PUSH2 0xFDB PUSH2 0xCCC JUMP JUMPDEST JUMPDEST PUSH2 0xFE8 DUP7 DUP3 DUP8 ADD PUSH2 0xF77 JUMP JUMPDEST SWAP4 POP POP PUSH1 0x20 DUP5 ADD CALLDATALOAD PUSH8 0xFFFFFFFFFFFFFFFF DUP2 GT ISZERO PUSH2 0x1009 JUMPI PUSH2 0x1008 PUSH2 0xCCC JUMP JUMPDEST JUMPDEST PUSH2 0x1015 DUP7 DUP3 DUP8 ADD PUSH2 0xF77 JUMP JUMPDEST SWAP3 POP POP PUSH1 0x40 DUP5 ADD CALLDATALOAD PUSH8 0xFFFFFFFFFFFFFFFF DUP2 GT ISZERO PUSH2 0x1036 JUMPI PUSH2 0x1035 PUSH2 0xCCC JUMP JUMPDEST JUMPDEST PUSH2 0x1042 DUP7 DUP3 DUP8 ADD PUSH2 0xF77 JUMP JUMPDEST SWAP2 POP POP SWAP3 POP SWAP3 POP SWAP3 JUMP JUMPDEST PUSH1 0x0 DUP2 MLOAD SWAP1 POP SWAP2 SWAP1 POP JUMP JUMPDEST PUSH1 0x0 DUP3 DUP3 MSTORE PUSH1 0x20 DUP3 ADD SWAP1 POP SWAP3 SWAP2 POP POP JUMP JUMPDEST PUSH1 0x0 JUMPDEST DUP4 DUP2 LT ISZERO PUSH2 0x1086 JUMPI DUP1 DUP3 ADD MLOAD DUP2 DUP5 ADD MSTORE PUSH1 0x20 DUP2 ADD SWAP1 POP PUSH2 0x106B JUMP JUMPDEST DUP4 DUP2 GT ISZERO PUSH2 0x1095 JUMPI PUSH1 0x0 DUP5 DUP5 ADD MSTORE JUMPDEST POP POP POP POP JUMP JUMPDEST PUSH1 0x0 PUSH2 0x10A6 DUP3 PUSH2 0x104C JUMP JUMPDEST PUSH2 0x10B0 DUP2 DUP6 PUSH2 0x1057 JUMP JUMPDEST SWAP4 POP PUSH2 0x10C0 DUP2 DUP6 PUSH1 0x20 DUP7 ADD PUSH2 0x1068 JUMP JUMPDEST PUSH2 0x10C9 DUP2 PUSH2 0xE69 JUMP JUMPDEST DUP5 ADD SWAP2 POP POP SWAP3 SWAP2 POP POP JUMP JUMPDEST PUSH1 0x0 PUSH1 0x20 DUP3 ADD SWAP1 POP DUP2 DUP2 SUB PUSH1 0x0 DUP4 ADD MSTORE PUSH2 0x10EE DUP2 DUP5 PUSH2 0x109B JUMP JUMPDEST SWAP1 POP SWAP3 SWAP2 POP POP JUMP JUMPDEST PUSH1 0x0 PUSH1 0x20 DUP3 DUP5 SUB SLT ISZERO PUSH2 0x110C JUMPI PUSH2 0x110B PUSH2 0xCC7 JUMP JUMPDEST JUMPDEST PUSH1 0x0 DUP3 ADD CALLDATALOAD PUSH8 0xFFFFFFFFFFFFFFFF DUP2 GT ISZERO PUSH2 0x112A JUMPI PUSH2 0x1129 PUSH2 0xCCC JUMP JUMPDEST JUMPDEST PUSH2 0x1136 DUP5 DUP3 DUP6 ADD PUSH2 0xF77 JUMP JUMPDEST SWAP2 POP POP SWAP3 SWAP2 POP POP JUMP JUMPDEST PUSH1 0x0 DUP2 SWAP1 POP SWAP2 SWAP1 POP JUMP JUMPDEST PUSH2 0x1152 DUP2 PUSH2 0x113F JUMP JUMPDEST DUP2 EQ PUSH2 0x115D JUMPI PUSH1 0x0 DUP1 REVERT JUMPDEST POP JUMP JUMPDEST PUSH1 0x0 DUP2 CALLDATALOAD SWAP1 POP PUSH2 0x116F DUP2 PUSH2 0x1149 JUMP JUMPDEST SWAP3 SWAP2 POP POP JUMP JUMPDEST PUSH1 0x0 DUP1 PUSH1 0x40 DUP4 DUP6 SUB SLT ISZERO PUSH2 0x118C JUMPI PUSH2 0x118B PUSH2 0xCC7 JUMP JUMPDEST JUMPDEST PUSH1 0x0 DUP4 ADD CALLDATALOAD PUSH8 0xFFFFFFFFFFFFFFFF DUP2 GT ISZERO PUSH2 0x11AA JUMPI PUSH2 0x11A9 PUSH2 0xCCC JUMP JUMPDEST JUMPDEST PUSH2 0x11B6 DUP6 DUP3 DUP7 ADD PUSH2 0xF77 JUMP JUMPDEST SWAP3 POP POP PUSH1 0x20 PUSH2 0x11C7 DUP6 DUP3 DUP7 ADD PUSH2 0x1160 JUMP JUMPDEST SWAP2 POP POP SWAP3 POP SWAP3 SWAP1 POP JUMP JUMPDEST PUSH1 0x0 DUP1 PUSH1 0x40 DUP4 DUP6 SUB SLT ISZERO PUSH2 0x11E8 JUMPI PUSH2 0x11E7 PUSH2 0xCC7 JUMP JUMPDEST JUMPDEST PUSH1 0x0 DUP4 ADD CALLDATALOAD PUSH8 0xFFFFFFFFFFFFFFFF DUP2 GT ISZERO PUSH2 0x1206 JUMPI PUSH2 0x1205 PUSH2 0xCCC JUMP JUMPDEST JUMPDEST PUSH2 0x1212 DUP6 DUP3 DUP7 ADD PUSH2 0xF77 JUMP JUMPDEST SWAP3 POP POP PUSH1 0x20 DUP4 ADD CALLDATALOAD PUSH8 0xFFFFFFFFFFFFFFFF DUP2 GT ISZERO PUSH2 0x1233 JUMPI PUSH2 0x1232 PUSH2 0xCCC JUMP JUMPDEST JUMPDEST PUSH2 0x123F DUP6 DUP3 DUP7 ADD PUSH2 0xF77 JUMP JUMPDEST SWAP2 POP POP SWAP3 POP SWAP3 SWAP1 POP JUMP JUMPDEST PUSH32 0x556E417574686F72697A65644163636F756E7400000000000000000000000000 PUSH1 0x0 DUP3 ADD MSTORE POP JUMP JUMPDEST PUSH1 0x0 PUSH2 0x127F PUSH1 0x13 DUP4 PUSH2 0x1057 JUMP JUMPDEST SWAP2 POP PUSH2 0x128A DUP3 PUSH2 0x1249 JUMP JUMPDEST PUSH1 0x20 DUP3 ADD SWAP1 POP SWAP2 SWAP1 POP JUMP JUMPDEST PUSH1 0x0 PUSH1 0x20 DUP3 ADD SWAP1 POP DUP2 DUP2 SUB PUSH1 0x0 DUP4 ADD MSTORE PUSH2 0x12AE DUP2 PUSH2 0x1272 JUMP JUMPDEST SWAP1 POP SWAP2 SWAP1 POP JUMP JUMPDEST PUSH1 0x0 DUP2 SWAP1 POP SWAP3 SWAP2 POP POP JUMP JUMPDEST PUSH1 0x0 PUSH2 0x12CB DUP3 PUSH2 0x104C JUMP JUMPDEST PUSH2 0x12D5 DUP2 DUP6 PUSH2 0x12B5 JUMP JUMPDEST SWAP4 POP PUSH2 0x12E5 DUP2 DUP6 PUSH1 0x20 DUP7 ADD PUSH2 0x1068 JUMP JUMPDEST DUP1 DUP5 ADD SWAP2 POP POP SWAP3 SWAP2 POP POP JUMP JUMPDEST PUSH1 0x0 PUSH2 0x12FD DUP3 DUP5 PUSH2 0x12C0 JUMP JUMPDEST SWAP2 POP DUP2 SWAP1 POP SWAP3 SWAP2 POP POP JUMP JUMPDEST PUSH32 0x4E487B7100000000000000000000000000000000000000000000000000000000 PUSH1 0x0 MSTORE PUSH1 0x11 PUSH1 0x4 MSTORE PUSH1 0x24 PUSH1 0x0 REVERT JUMPDEST PUSH1 0x0 PUSH2 0x1342 DUP3 PUSH2 0x113F JUMP JUMPDEST SWAP2 POP PUSH2 0x134D DUP4 PUSH2 0x113F JUMP JUMPDEST SWAP3 POP DUP3 PUSH32 0xFFFFFFFFFFFFFFFFFFFFFFFFFFFFFFFFFFFFFFFFFFFFFFFFFFFFFFFFFFFFFFFF SUB DUP3 GT ISZERO PUSH2 0x1382 JUMPI PUSH2 0x1381 PUSH2 0x1308 JUMP JUMPDEST JUMPDEST DUP3 DUP3 ADD SWAP1 POP SWAP3 SWAP2 POP POP JUMP JUMPDEST PUSH32 0x4E487B7100000000000000000000000000000000000000000000000000000000 PUSH1 0x0 MSTORE PUSH1 0x32 PUSH1 0x4 MSTORE PUSH1 0x24 PUSH1 0x0 REVERT JUMPDEST PUSH1 0x0 PUSH2 0x13C7 DUP3 PUSH2 0x113F JUMP JUMPDEST SWAP2 POP PUSH32 0xFFFFFFFFFFFFFFFFFFFFFFFFFFFFFFFFFFFFFFFFFFFFFFFFFFFFFFFFFFFFFFFF DUP3 EQ ISZERO PUSH2 0x13FA JUMPI PUSH2 0x13F9 PUSH2 0x1308 JUMP JUMPDEST JUMPDEST PUSH1 0x1 DUP3 ADD SWAP1 POP SWAP2 SWAP1 POP JUMP JUMPDEST PUSH32 0x4E487B7100000000000000000000000000000000000000000000000000000000 PUSH1 0x0 MSTORE PUSH1 0x12 PUSH1 0x4 MSTORE PUSH1 0x24 PUSH1 0x0 REVERT INVALID LOG2 PUSH5 0x6970667358 0x22 SLT KECCAK256 SLT SLT 0xFC 0xB7 PUSH9 0x1F7C1C70AF5F452008 0x2D SGT 0x28 DUP4 SWAP13 0xD4 0x1F EQ PUSH27 0xAA112952FCF318005964736F6C634300080B003360806040523480 ISZERO PUSH3 0x11 JUMPI PUSH1 0x0 DUP1 REVERT JUMPDEST POP CALLER PUSH1 0x1 PUSH1 0x0 DUP1 DUP1 PUSH1 0x0 SHL DUP2 MSTORE PUSH1 0x20 ADD SWAP1 DUP2 MSTORE PUSH1 0x20 ADD PUSH1 0x0 KECCAK256 PUSH1 0x0 ADD PUSH1 0x0 DUP4 PUSH20 0xFFFFFFFFFFFFFFFFFFFFFFFFFFFFFFFFFFFFFFFF AND PUSH20 0xFFFFFFFFFFFFFFFFFFFFFFFFFFFFFFFFFFFFFFFF AND DUP2 MSTORE PUSH1 0x20 ADD SWAP1 DUP2 MSTORE PUSH1 0x20 ADD PUSH1 0x0 KECCAK256 PUSH1 0x0 PUSH2 0x100 EXP DUP2 SLOAD DUP2 PUSH1 0xFF MUL NOT AND SWAP1 DUP4 ISZERO ISZERO MUL OR SWAP1 SSTORE POP POP PUSH3 0xB7 PUSH32 0xDE578090EC646877A6B707D83EA8139DAC8A43D4DEA437AA209801B10C1B26B5 PUSH1 0x0 DUP1 SHL PUSH3 0xF0 PUSH1 0x20 SHL PUSH1 0x20 SHR JUMP JUMPDEST PUSH3 0xE9 PUSH32 0xDE578090EC646877A6B707D83EA8139DAC8A43D4DEA437AA209801B10C1B26B5 CALLER PUSH3 0x153 PUSH1 0x20 SHL PUSH1 0x20 SHR JUMP JUMPDEST POP PUSH3 0x3D7 JUMP JUMPDEST PUSH1 0x0 PUSH3 0x103 DUP4 PUSH3 0x26C PUSH1 0x20 SHL PUSH1 0x20 SHR JUMP JUMPDEST SWAP1 POP DUP2 PUSH1 0x0 DUP1 DUP6 DUP2 MSTORE PUSH1 0x20 ADD SWAP1 DUP2 MSTORE PUSH1 0x20 ADD PUSH1 0x0 KECCAK256 PUSH1 0x1 ADD DUP2 SWAP1 SSTORE POP DUP2 DUP2 DUP5 PUSH32 0xBD79B86FFE0AB8E8776151514217CD7CACD52C909F66475C3AF44E129F0B00FF PUSH1 0x40 MLOAD PUSH1 0x40 MLOAD DUP1 SWAP2 SUB SWAP1 LOG4 POP POP POP JUMP JUMPDEST PUSH1 0x0 PUSH3 0x166 DUP4 PUSH3 0x26C PUSH1 0x20 SHL PUSH1 0x20 SHR JUMP JUMPDEST PUSH3 0x177 DUP2 PUSH3 0x28B PUSH1 0x20 SHL PUSH1 0x20 SHR JUMP JUMPDEST POP PUSH3 0x18A DUP5 DUP5 PUSH3 0x2EA PUSH1 0x20 SHL PUSH1 0x20 SHR JUMP JUMPDEST ISZERO PUSH3 0x19A JUMPI PUSH1 0x0 SWAP2 POP PUSH3 0x265 JUMP JUMPDEST PUSH1 0x1 PUSH1 0x0 DUP1 DUP7 DUP2 MSTORE PUSH1 0x20 ADD SWAP1 DUP2 MSTORE PUSH1 0x20 ADD PUSH1 0x0 KECCAK256 PUSH1 0x0 ADD PUSH1 0x0 DUP6 PUSH20 0xFFFFFFFFFFFFFFFFFFFFFFFFFFFFFFFFFFFFFFFF AND PUSH20 0xFFFFFFFFFFFFFFFFFFFFFFFFFFFFFFFFFFFFFFFF AND DUP2 MSTORE PUSH1 0x20 ADD SWAP1 DUP2 MSTORE PUSH1 0x20 ADD PUSH1 0x0 KECCAK256 PUSH1 0x0 PUSH2 0x100 EXP DUP2 SLOAD DUP2 PUSH1 0xFF MUL NOT AND SWAP1 DUP4 ISZERO ISZERO MUL OR SWAP1 SSTORE POP CALLER PUSH20 0xFFFFFFFFFFFFFFFFFFFFFFFFFFFFFFFFFFFFFFFF AND DUP4 PUSH20 0xFFFFFFFFFFFFFFFFFFFFFFFFFFFFFFFFFFFFFFFF AND DUP6 PUSH32 0x2F8788117E7EFF1D82E926EC794901D17C78024A50270940304540A733656F0D PUSH1 0x40 MLOAD PUSH1 0x40 MLOAD DUP1 SWAP2 SUB SWAP1 LOG4 PUSH1 0x1 SWAP2 POP JUMPDEST POP SWAP3 SWAP2 POP POP JUMP JUMPDEST PUSH1 0x0 DUP1 PUSH1 0x0 DUP4 DUP2 MSTORE PUSH1 0x20 ADD SWAP1 DUP2 MSTORE PUSH1 0x20 ADD PUSH1 0x0 KECCAK256 PUSH1 0x1 ADD SLOAD SWAP1 POP SWAP2 SWAP1 POP JUMP JUMPDEST PUSH1 0x0 PUSH3 0x29F DUP3 CALLER PUSH3 0x2EA PUSH1 0x20 SHL PUSH1 0x20 SHR JUMP JUMPDEST PUSH3 0x2E1 JUMPI PUSH1 0x40 MLOAD PUSH32 0x8C379A000000000000000000000000000000000000000000000000000000000 DUP2 MSTORE PUSH1 0x4 ADD PUSH3 0x2D8 SWAP1 PUSH3 0x3B5 JUMP JUMPDEST PUSH1 0x40 MLOAD DUP1 SWAP2 SUB SWAP1 REVERT JUMPDEST PUSH1 0x1 SWAP1 POP SWAP2 SWAP1 POP JUMP JUMPDEST PUSH1 0x0 DUP1 PUSH1 0x0 DUP5 DUP2 MSTORE PUSH1 0x20 ADD SWAP1 DUP2 MSTORE PUSH1 0x20 ADD PUSH1 0x0 KECCAK256 PUSH1 0x0 ADD PUSH1 0x0 DUP4 PUSH20 0xFFFFFFFFFFFFFFFFFFFFFFFFFFFFFFFFFFFFFFFF AND PUSH20 0xFFFFFFFFFFFFFFFFFFFFFFFFFFFFFFFFFFFFFFFF AND DUP2 MSTORE PUSH1 0x20 ADD SWAP1 DUP2 MSTORE PUSH1 0x20 ADD PUSH1 0x0 KECCAK256 PUSH1 0x0 SWAP1 SLOAD SWAP1 PUSH2 0x100 EXP SWAP1 DIV PUSH1 0xFF AND SWAP1 POP SWAP3 SWAP2 POP POP JUMP JUMPDEST PUSH1 0x0 DUP3 DUP3 MSTORE PUSH1 0x20 DUP3 ADD SWAP1 POP SWAP3 SWAP2 POP POP JUMP JUMPDEST PUSH32 0x556E417574686F72697A65644163636F756E7400000000000000000000000000 PUSH1 0x0 DUP3 ADD MSTORE POP JUMP JUMPDEST PUSH1 0x0 PUSH3 0x39D PUSH1 0x13 DUP4 PUSH3 0x354 JUMP JUMPDEST SWAP2 POP PUSH3 0x3AA DUP3 PUSH3 0x365 JUMP JUMPDEST PUSH1 0x20 DUP3 ADD SWAP1 POP SWAP2 SWAP1 POP JUMP JUMPDEST PUSH1 0x0 PUSH1 0x20 DUP3 ADD SWAP1 POP DUP2 DUP2 SUB PUSH1 0x0 DUP4 ADD MSTORE PUSH3 0x3D0 DUP2 PUSH3 0x38E JUMP JUMPDEST SWAP1 POP SWAP2 SWAP1 POP JUMP JUMPDEST PUSH2 0x1679 DUP1 PUSH3 0x3E7 PUSH1 0x0 CODECOPY PUSH1 0x0 RETURN INVALID PUSH1 0x80 PUSH1 0x40 MSTORE CALLVALUE DUP1 ISZERO PUSH2 0x10 JUMPI PUSH1 0x0 DUP1 REVERT JUMPDEST POP PUSH1 0x4 CALLDATASIZE LT PUSH2 0xB4 JUMPI PUSH1 0x0 CALLDATALOAD PUSH1 0xE0 SHR DUP1 PUSH4 0x693EC85E GT PUSH2 0x71 JUMPI DUP1 PUSH4 0x693EC85E EQ PUSH2 0x1A1 JUMPI DUP1 PUSH4 0x91D14854 EQ PUSH2 0x1D1 JUMPI DUP1 PUSH4 0x9CDEBA95 EQ PUSH2 0x201 JUMPI DUP1 PUSH4 0xAA8D24C3 EQ PUSH2 0x21F JUMPI DUP1 PUSH4 0xC5B95190 EQ PUSH2 0x23B JUMPI DUP1 PUSH4 0xD547741F EQ PUSH2 0x26B JUMPI PUSH2 0xB4 JUMP JUMPDEST DUP1 PUSH4 0x437A9A9 EQ PUSH2 0xB9 JUMPI DUP1 PUSH4 0x7D81E7B EQ PUSH2 0xD5 JUMPI DUP1 PUSH4 0x248A9CA3 EQ PUSH2 0x105 JUMPI DUP1 PUSH4 0x2A0ACC6A EQ PUSH2 0x135 JUMPI DUP1 PUSH4 0x2F2FF15D EQ PUSH2 0x153 JUMPI DUP1 PUSH4 0x4E7A23BA EQ PUSH2 0x183 JUMPI JUMPDEST PUSH1 0x0 DUP1 REVERT JUMPDEST PUSH2 0xD3 PUSH1 0x4 DUP1 CALLDATASIZE SUB DUP2 ADD SWAP1 PUSH2 0xCE SWAP2 SWAP1 PUSH2 0x101E JUMP JUMPDEST PUSH2 0x29B JUMP JUMPDEST STOP JUMPDEST PUSH2 0xEF PUSH1 0x4 DUP1 CALLDATASIZE SUB DUP2 ADD SWAP1 PUSH2 0xEA SWAP2 SWAP1 PUSH2 0x1096 JUMP JUMPDEST PUSH2 0x3D5 JUMP JUMPDEST PUSH1 0x40 MLOAD PUSH2 0xFC SWAP2 SWAP1 PUSH2 0x10EE JUMP JUMPDEST PUSH1 0x40 MLOAD DUP1 SWAP2 SUB SWAP1 RETURN JUMPDEST PUSH2 0x11F PUSH1 0x4 DUP1 CALLDATASIZE SUB DUP2 ADD SWAP1 PUSH2 0x11A SWAP2 SWAP1 PUSH2 0x113F JUMP JUMPDEST PUSH2 0x66C JUMP JUMPDEST PUSH1 0x40 MLOAD PUSH2 0x12C SWAP2 SWAP1 PUSH2 0x117B JUMP JUMPDEST PUSH1 0x40 MLOAD DUP1 SWAP2 SUB SWAP1 RETURN JUMPDEST PUSH2 0x13D PUSH2 0x68B JUMP JUMPDEST PUSH1 0x40 MLOAD PUSH2 0x14A SWAP2 SWAP1 PUSH2 0x117B JUMP JUMPDEST PUSH1 0x40 MLOAD DUP1 SWAP2 SUB SWAP1 RETURN JUMPDEST PUSH2 0x16D PUSH1 0x4 DUP1 CALLDATASIZE SUB DUP2 ADD SWAP1 PUSH2 0x168 SWAP2 SWAP1 PUSH2 0x1196 JUMP JUMPDEST PUSH2 0x692 JUMP JUMPDEST PUSH1 0x40 MLOAD PUSH2 0x17A SWAP2 SWAP1 PUSH2 0x11E5 JUMP JUMPDEST PUSH1 0x40 MLOAD DUP1 SWAP2 SUB SWAP1 RETURN JUMPDEST PUSH2 0x18B PUSH2 0x791 JUMP JUMPDEST PUSH1 0x40 MLOAD PUSH2 0x198 SWAP2 SWAP1 PUSH2 0x117B JUMP JUMPDEST PUSH1 0x40 MLOAD DUP1 SWAP2 SUB SWAP1 RETURN JUMPDEST PUSH2 0x1BB PUSH1 0x4 DUP1 CALLDATASIZE SUB DUP2 ADD SWAP1 PUSH2 0x1B6 SWAP2 SWAP1 PUSH2 0x1096 JUMP JUMPDEST PUSH2 0x7B5 JUMP JUMPDEST PUSH1 0x40 MLOAD PUSH2 0x1C8 SWAP2 SWAP1 PUSH2 0x1431 JUMP JUMPDEST PUSH1 0x40 MLOAD DUP1 SWAP2 SUB SWAP1 RETURN JUMPDEST PUSH2 0x1EB PUSH1 0x4 DUP1 CALLDATASIZE SUB DUP2 ADD SWAP1 PUSH2 0x1E6 SWAP2 SWAP1 PUSH2 0x1196 JUMP JUMPDEST PUSH2 0xA1B JUMP JUMPDEST PUSH1 0x40 MLOAD PUSH2 0x1F8 SWAP2 SWAP1 PUSH2 0x11E5 JUMP JUMPDEST PUSH1 0x40 MLOAD DUP1 SWAP2 SUB SWAP1 RETURN JUMPDEST PUSH2 0x209 PUSH2 0xA85 JUMP JUMPDEST PUSH1 0x40 MLOAD PUSH2 0x216 SWAP2 SWAP1 PUSH2 0x117B JUMP JUMPDEST PUSH1 0x40 MLOAD DUP1 SWAP2 SUB SWAP1 RETURN JUMPDEST PUSH2 0x239 PUSH1 0x4 DUP1 CALLDATASIZE SUB DUP2 ADD SWAP1 PUSH2 0x234 SWAP2 SWAP1 PUSH2 0x1453 JUMP JUMPDEST PUSH2 0xA8C JUMP JUMPDEST STOP JUMPDEST PUSH2 0x255 PUSH1 0x4 DUP1 CALLDATASIZE SUB DUP2 ADD SWAP1 PUSH2 0x250 SWAP2 SWAP1 PUSH2 0x113F JUMP JUMPDEST PUSH2 0xAC9 JUMP JUMPDEST PUSH1 0x40 MLOAD PUSH2 0x262 SWAP2 SWAP1 PUSH2 0x11E5 JUMP JUMPDEST PUSH1 0x40 MLOAD DUP1 SWAP2 SUB SWAP1 RETURN JUMPDEST PUSH2 0x285 PUSH1 0x4 DUP1 CALLDATASIZE SUB DUP2 ADD SWAP1 PUSH2 0x280 SWAP2 SWAP1 PUSH2 0x1196 JUMP JUMPDEST PUSH2 0xB1D JUMP JUMPDEST PUSH1 0x40 MLOAD PUSH2 0x292 SWAP2 SWAP1 PUSH2 0x11E5 JUMP JUMPDEST PUSH1 0x40 MLOAD DUP1 SWAP2 SUB SWAP1 RETURN JUMPDEST PUSH32 0xDE578090EC646877A6B707D83EA8139DAC8A43D4DEA437AA209801B10C1B26B5 PUSH2 0x2C5 DUP2 PUSH2 0xAC9 JUMP JUMPDEST POP PUSH1 0x1 DUP4 PUSH1 0x40 MLOAD PUSH2 0x2D6 SWAP2 SWAP1 PUSH2 0x14BC JUMP JUMPDEST SWAP1 DUP2 MSTORE PUSH1 0x20 ADD PUSH1 0x40 MLOAD DUP1 SWAP2 SUB SWAP1 KECCAK256 DUP3 SWAP1 DUP1 PUSH1 0x1 DUP2 SLOAD ADD DUP1 DUP3 SSTORE DUP1 SWAP2 POP POP PUSH1 0x1 SWAP1 SUB SWAP1 PUSH1 0x0 MSTORE PUSH1 0x20 PUSH1 0x0 KECCAK256 SWAP1 PUSH1 0x5 MUL ADD PUSH1 0x0 SWAP1 SWAP2 SWAP1 SWAP2 SWAP1 SWAP2 POP PUSH1 0x0 DUP3 ADD MLOAD DUP2 PUSH1 0x0 ADD PUSH1 0x0 DUP3 ADD MLOAD DUP2 PUSH1 0x0 ADD SWAP1 DUP1 MLOAD SWAP1 PUSH1 0x20 ADD SWAP1 PUSH2 0x333 SWAP3 SWAP2 SWAP1 PUSH2 0xC1B JUMP JUMPDEST POP PUSH1 0x20 DUP3 ADD MLOAD DUP2 PUSH1 0x1 ADD SSTORE PUSH1 0x40 DUP3 ADD MLOAD DUP2 PUSH1 0x2 ADD PUSH1 0x0 PUSH2 0x100 EXP DUP2 SLOAD DUP2 PUSH20 0xFFFFFFFFFFFFFFFFFFFFFFFFFFFFFFFFFFFFFFFF MUL NOT AND SWAP1 DUP4 PUSH20 0xFFFFFFFFFFFFFFFFFFFFFFFFFFFFFFFFFFFFFFFF AND MUL OR SWAP1 SSTORE POP PUSH1 0x60 DUP3 ADD MLOAD DUP2 PUSH1 0x2 ADD PUSH1 0x14 PUSH2 0x100 EXP DUP2 SLOAD DUP2 PUSH1 0xFF MUL NOT AND SWAP1 DUP4 ISZERO ISZERO MUL OR SWAP1 SSTORE POP POP POP PUSH1 0x20 DUP3 ADD MLOAD DUP2 PUSH1 0x3 ADD SSTORE PUSH1 0x40 DUP3 ADD MLOAD DUP2 PUSH1 0x4 ADD SWAP1 DUP1 MLOAD SWAP1 PUSH1 0x20 ADD SWAP1 PUSH2 0x3CD SWAP3 SWAP2 SWAP1 PUSH2 0xC1B JUMP JUMPDEST POP POP POP POP POP POP JUMP JUMPDEST PUSH1 0x0 PUSH32 0xDE578090EC646877A6B707D83EA8139DAC8A43D4DEA437AA209801B10C1B26B5 PUSH2 0x401 DUP2 PUSH2 0xAC9 JUMP JUMPDEST POP PUSH1 0x0 PUSH1 0x1 DUP5 PUSH1 0x40 MLOAD PUSH2 0x414 SWAP2 SWAP1 PUSH2 0x14BC JUMP JUMPDEST SWAP1 DUP2 MSTORE PUSH1 0x20 ADD PUSH1 0x40 MLOAD DUP1 SWAP2 SUB SWAP1 KECCAK256 DUP1 SLOAD DUP1 PUSH1 0x20 MUL PUSH1 0x20 ADD PUSH1 0x40 MLOAD SWAP1 DUP2 ADD PUSH1 0x40 MSTORE DUP1 SWAP3 SWAP2 SWAP1 DUP2 DUP2 MSTORE PUSH1 0x20 ADD PUSH1 0x0 SWAP1 JUMPDEST DUP3 DUP3 LT ISZERO PUSH2 0x631 JUMPI DUP4 DUP3 SWAP1 PUSH1 0x0 MSTORE PUSH1 0x20 PUSH1 0x0 KECCAK256 SWAP1 PUSH1 0x5 MUL ADD PUSH1 0x40 MLOAD DUP1 PUSH1 0x60 ADD PUSH1 0x40 MSTORE SWAP1 DUP2 PUSH1 0x0 DUP3 ADD PUSH1 0x40 MLOAD DUP1 PUSH1 0x80 ADD PUSH1 0x40 MSTORE SWAP1 DUP2 PUSH1 0x0 DUP3 ADD DUP1 SLOAD PUSH2 0x485 SWAP1 PUSH2 0x1502 JUMP JUMPDEST DUP1 PUSH1 0x1F ADD PUSH1 0x20 DUP1 SWAP2 DIV MUL PUSH1 0x20 ADD PUSH1 0x40 MLOAD SWAP1 DUP2 ADD PUSH1 0x40 MSTORE DUP1 SWAP3 SWAP2 SWAP1 DUP2 DUP2 MSTORE PUSH1 0x20 ADD DUP3 DUP1 SLOAD PUSH2 0x4B1 SWAP1 PUSH2 0x1502 JUMP JUMPDEST DUP1 ISZERO PUSH2 0x4FE JUMPI DUP1 PUSH1 0x1F LT PUSH2 0x4D3 JUMPI PUSH2 0x100 DUP1 DUP4 SLOAD DIV MUL DUP4 MSTORE SWAP2 PUSH1 0x20 ADD SWAP2 PUSH2 0x4FE JUMP JUMPDEST DUP3 ADD SWAP2 SWAP1 PUSH1 0x0 MSTORE PUSH1 0x20 PUSH1 0x0 KECCAK256 SWAP1 JUMPDEST DUP2 SLOAD DUP2 MSTORE SWAP1 PUSH1 0x1 ADD SWAP1 PUSH1 0x20 ADD DUP1 DUP4 GT PUSH2 0x4E1 JUMPI DUP3 SWAP1 SUB PUSH1 0x1F AND DUP3 ADD SWAP2 JUMPDEST POP POP POP POP POP DUP2 MSTORE PUSH1 0x20 ADD PUSH1 0x1 DUP3 ADD SLOAD DUP2 MSTORE PUSH1 0x20 ADD PUSH1 0x2 DUP3 ADD PUSH1 0x0 SWAP1 SLOAD SWAP1 PUSH2 0x100 EXP SWAP1 DIV PUSH20 0xFFFFFFFFFFFFFFFFFFFFFFFFFFFFFFFFFFFFFFFF AND PUSH20 0xFFFFFFFFFFFFFFFFFFFFFFFFFFFFFFFFFFFFFFFF AND PUSH20 0xFFFFFFFFFFFFFFFFFFFFFFFFFFFFFFFFFFFFFFFF AND DUP2 MSTORE PUSH1 0x20 ADD PUSH1 0x2 DUP3 ADD PUSH1 0x14 SWAP1 SLOAD SWAP1 PUSH2 0x100 EXP SWAP1 DIV PUSH1 0xFF AND ISZERO ISZERO ISZERO ISZERO DUP2 MSTORE POP POP DUP2 MSTORE PUSH1 0x20 ADD PUSH1 0x3 DUP3 ADD SLOAD DUP2 MSTORE PUSH1 0x20 ADD PUSH1 0x4 DUP3 ADD DUP1 SLOAD PUSH2 0x5A0 SWAP1 PUSH2 0x1502 JUMP JUMPDEST DUP1 PUSH1 0x1F ADD PUSH1 0x20 DUP1 SWAP2 DIV MUL PUSH1 0x20 ADD PUSH1 0x40 MLOAD SWAP1 DUP2 ADD PUSH1 0x40 MSTORE DUP1 SWAP3 SWAP2 SWAP1 DUP2 DUP2 MSTORE PUSH1 0x20 ADD DUP3 DUP1 SLOAD PUSH2 0x5CC SWAP1 PUSH2 0x1502 JUMP JUMPDEST DUP1 ISZERO PUSH2 0x619 JUMPI DUP1 PUSH1 0x1F LT PUSH2 0x5EE JUMPI PUSH2 0x100 DUP1 DUP4 SLOAD DIV MUL DUP4 MSTORE SWAP2 PUSH1 0x20 ADD SWAP2 PUSH2 0x619 JUMP JUMPDEST DUP3 ADD SWAP2 SWAP1 PUSH1 0x0 MSTORE PUSH1 0x20 PUSH1 0x0 KECCAK256 SWAP1 JUMPDEST DUP2 SLOAD DUP2 MSTORE SWAP1 PUSH1 0x1 ADD SWAP1 PUSH1 0x20 ADD DUP1 DUP4 GT PUSH2 0x5FC JUMPI DUP3 SWAP1 SUB PUSH1 0x1F AND DUP3 ADD SWAP2 JUMPDEST POP POP POP POP POP DUP2 MSTORE POP POP DUP2 MSTORE PUSH1 0x20 ADD SWAP1 PUSH1 0x1 ADD SWAP1 PUSH2 0x442 JUMP JUMPDEST POP POP POP POP SWAP1 POP DUP1 PUSH1 0x1 DUP3 MLOAD PUSH2 0x646 SWAP2 SWAP1 PUSH2 0x1563 JUMP JUMPDEST DUP2 MLOAD DUP2 LT PUSH2 0x657 JUMPI PUSH2 0x656 PUSH2 0x1597 JUMP JUMPDEST JUMPDEST PUSH1 0x20 MUL PUSH1 0x20 ADD ADD MLOAD PUSH1 0x20 ADD MLOAD SWAP3 POP POP POP SWAP2 SWAP1 POP JUMP JUMPDEST PUSH1 0x0 DUP1 PUSH1 0x0 DUP4 DUP2 MSTORE PUSH1 0x20 ADD SWAP1 DUP2 MSTORE PUSH1 0x20 ADD PUSH1 0x0 KECCAK256 PUSH1 0x1 ADD SLOAD SWAP1 POP SWAP2 SWAP1 POP JUMP JUMPDEST PUSH1 0x0 DUP1 SHL DUP2 JUMP JUMPDEST PUSH1 0x0 PUSH2 0x69D DUP4 PUSH2 0x66C JUMP JUMPDEST PUSH2 0x6A6 DUP2 PUSH2 0xAC9 JUMP JUMPDEST POP PUSH2 0x6B1 DUP5 DUP5 PUSH2 0xA1B JUMP JUMPDEST ISZERO PUSH2 0x6BF JUMPI PUSH1 0x0 SWAP2 POP PUSH2 0x78A JUMP JUMPDEST PUSH1 0x1 PUSH1 0x0 DUP1 DUP7 DUP2 MSTORE PUSH1 0x20 ADD SWAP1 DUP2 MSTORE PUSH1 0x20 ADD PUSH1 0x0 KECCAK256 PUSH1 0x0 ADD PUSH1 0x0 DUP6 PUSH20 0xFFFFFFFFFFFFFFFFFFFFFFFFFFFFFFFFFFFFFFFF AND PUSH20 0xFFFFFFFFFFFFFFFFFFFFFFFFFFFFFFFFFFFFFFFF AND DUP2 MSTORE PUSH1 0x20 ADD SWAP1 DUP2 MSTORE PUSH1 0x20 ADD PUSH1 0x0 KECCAK256 PUSH1 0x0 PUSH2 0x100 EXP DUP2 SLOAD DUP2 PUSH1 0xFF MUL NOT AND SWAP1 DUP4 ISZERO ISZERO MUL OR SWAP1 SSTORE POP CALLER PUSH20 0xFFFFFFFFFFFFFFFFFFFFFFFFFFFFFFFFFFFFFFFF AND DUP4 PUSH20 0xFFFFFFFFFFFFFFFFFFFFFFFFFFFFFFFFFFFFFFFF AND DUP6 PUSH32 0x2F8788117E7EFF1D82E926EC794901D17C78024A50270940304540A733656F0D PUSH1 0x40 MLOAD PUSH1 0x40 MLOAD DUP1 SWAP2 SUB SWAP1 LOG4 PUSH1 0x1 SWAP2 POP JUMPDEST POP SWAP3 SWAP2 POP POP JUMP JUMPDEST PUSH32 0xDE578090EC646877A6B707D83EA8139DAC8A43D4DEA437AA209801B10C1B26B5 DUP2 JUMP JUMPDEST PUSH1 0x60 PUSH32 0xDE578090EC646877A6B707D83EA8139DAC8A43D4DEA437AA209801B10C1B26B5 PUSH2 0x7E1 DUP2 PUSH2 0xAC9 JUMP JUMPDEST POP PUSH1 0x1 DUP4 PUSH1 0x40 MLOAD PUSH2 0x7F2 SWAP2 SWAP1 PUSH2 0x14BC JUMP JUMPDEST SWAP1 DUP2 MSTORE PUSH1 0x20 ADD PUSH1 0x40 MLOAD DUP1 SWAP2 SUB SWAP1 KECCAK256 DUP1 SLOAD DUP1 PUSH1 0x20 MUL PUSH1 0x20 ADD PUSH1 0x40 MLOAD SWAP1 DUP2 ADD PUSH1 0x40 MSTORE DUP1 SWAP3 SWAP2 SWAP1 DUP2 DUP2 MSTORE PUSH1 0x20 ADD PUSH1 0x0 SWAP1 JUMPDEST DUP3 DUP3 LT ISZERO PUSH2 0xA0F JUMPI DUP4 DUP3 SWAP1 PUSH1 0x0 MSTORE PUSH1 0x20 PUSH1 0x0 KECCAK256 SWAP1 PUSH1 0x5 MUL ADD PUSH1 0x40 MLOAD DUP1 PUSH1 0x60 ADD PUSH1 0x40 MSTORE SWAP1 DUP2 PUSH1 0x0 DUP3 ADD PUSH1 0x40 MLOAD DUP1 PUSH1 0x80 ADD PUSH1 0x40 MSTORE SWAP1 DUP2 PUSH1 0x0 DUP3 ADD DUP1 SLOAD PUSH2 0x863 SWAP1 PUSH2 0x1502 JUMP JUMPDEST DUP1 PUSH1 0x1F ADD PUSH1 0x20 DUP1 SWAP2 DIV MUL PUSH1 0x20 ADD PUSH1 0x40 MLOAD SWAP1 DUP2 ADD PUSH1 0x40 MSTORE DUP1 SWAP3 SWAP2 SWAP1 DUP2 DUP2 MSTORE PUSH1 0x20 ADD DUP3 DUP1 SLOAD PUSH2 0x88F SWAP1 PUSH2 0x1502 JUMP JUMPDEST DUP1 ISZERO PUSH2 0x8DC JUMPI DUP1 PUSH1 0x1F LT PUSH2 0x8B1 JUMPI PUSH2 0x100 DUP1 DUP4 SLOAD DIV MUL DUP4 MSTORE SWAP2 PUSH1 0x20 ADD SWAP2 PUSH2 0x8DC JUMP JUMPDEST DUP3 ADD SWAP2 SWAP1 PUSH1 0x0 MSTORE PUSH1 0x20 PUSH1 0x0 KECCAK256 SWAP1 JUMPDEST DUP2 SLOAD DUP2 MSTORE SWAP1 PUSH1 0x1 ADD SWAP1 PUSH1 0x20 ADD DUP1 DUP4 GT PUSH2 0x8BF JUMPI DUP3 SWAP1 SUB PUSH1 0x1F AND DUP3 ADD SWAP2 JUMPDEST POP POP POP POP POP DUP2 MSTORE PUSH1 0x20 ADD PUSH1 0x1 DUP3 ADD SLOAD DUP2 MSTORE PUSH1 0x20 ADD PUSH1 0x2 DUP3 ADD PUSH1 0x0 SWAP1 SLOAD SWAP1 PUSH2 0x100 EXP SWAP1 DIV PUSH20 0xFFFFFFFFFFFFFFFFFFFFFFFFFFFFFFFFFFFFFFFF AND PUSH20 0xFFFFFFFFFFFFFFFFFFFFFFFFFFFFFFFFFFFFFFFF AND PUSH20 0xFFFFFFFFFFFFFFFFFFFFFFFFFFFFFFFFFFFFFFFF AND DUP2 MSTORE PUSH1 0x20 ADD PUSH1 0x2 DUP3 ADD PUSH1 0x14 SWAP1 SLOAD SWAP1 PUSH2 0x100 EXP SWAP1 DIV PUSH1 0xFF AND ISZERO ISZERO ISZERO ISZERO DUP2 MSTORE POP POP DUP2 MSTORE PUSH1 0x20 ADD PUSH1 0x3 DUP3 ADD SLOAD DUP2 MSTORE PUSH1 0x20 ADD PUSH1 0x4 DUP3 ADD DUP1 SLOAD PUSH2 0x97E SWAP1 PUSH2 0x1502 JUMP JUMPDEST DUP1 PUSH1 0x1F ADD PUSH1 0x20 DUP1 SWAP2 DIV MUL PUSH1 0x20 ADD PUSH1 0x40 MLOAD SWAP1 DUP2 ADD PUSH1 0x40 MSTORE DUP1 SWAP3 SWAP2 SWAP1 DUP2 DUP2 MSTORE PUSH1 0x20 ADD DUP3 DUP1 SLOAD PUSH2 0x9AA SWAP1 PUSH2 0x1502 JUMP JUMPDEST DUP1 ISZERO PUSH2 0x9F7 JUMPI DUP1 PUSH1 0x1F LT PUSH2 0x9CC JUMPI PUSH2 0x100 DUP1 DUP4 SLOAD DIV MUL DUP4 MSTORE SWAP2 PUSH1 0x20 ADD SWAP2 PUSH2 0x9F7 JUMP JUMPDEST DUP3 ADD SWAP2 SWAP1 PUSH1 0x0 MSTORE PUSH1 0x20 PUSH1 0x0 KECCAK256 SWAP1 JUMPDEST DUP2 SLOAD DUP2 MSTORE SWAP1 PUSH1 0x1 ADD SWAP1 PUSH1 0x20 ADD DUP1 DUP4 GT PUSH2 0x9DA JUMPI DUP3 SWAP1 SUB PUSH1 0x1F AND DUP3 ADD SWAP2 JUMPDEST POP POP POP POP POP DUP2 MSTORE POP POP DUP2 MSTORE PUSH1 0x20 ADD SWAP1 PUSH1 0x1 ADD SWAP1 PUSH2 0x820 JUMP JUMPDEST POP POP POP POP SWAP2 POP POP SWAP2 SWAP1 POP JUMP JUMPDEST PUSH1 0x0 DUP1 PUSH1 0x0 DUP5 DUP2 MSTORE PUSH1 0x20 ADD SWAP1 DUP2 MSTORE PUSH1 0x20 ADD PUSH1 0x0 KECCAK256 PUSH1 0x0 ADD PUSH1 0x0 DUP4 PUSH20 0xFFFFFFFFFFFFFFFFFFFFFFFFFFFFFFFFFFFFFFFF AND PUSH20 0xFFFFFFFFFFFFFFFFFFFFFFFFFFFFFFFFFFFFFFFF AND DUP2 MSTORE PUSH1 0x20 ADD SWAP1 DUP2 MSTORE PUSH1 0x20 ADD PUSH1 0x0 KECCAK256 PUSH1 0x0 SWAP1 SLOAD SWAP1 PUSH2 0x100 EXP SWAP1 DIV PUSH1 0xFF AND SWAP1 POP SWAP3 SWAP2 POP POP JUMP JUMPDEST PUSH1 0x0 DUP1 SHL DUP2 JUMP JUMPDEST PUSH1 0x0 DUP1 SHL PUSH2 0xA99 DUP2 PUSH2 0xAC9 JUMP JUMPDEST POP PUSH2 0xAC4 PUSH32 0xDE578090EC646877A6B707D83EA8139DAC8A43D4DEA437AA209801B10C1B26B5 DUP4 PUSH2 0x692 JUMP JUMPDEST POP POP POP JUMP JUMPDEST PUSH1 0x0 PUSH2 0xAD5 DUP3 CALLER PUSH2 0xA1B JUMP JUMPDEST PUSH2 0xB14 JUMPI PUSH1 0x40 MLOAD PUSH32 0x8C379A000000000000000000000000000000000000000000000000000000000 DUP2 MSTORE PUSH1 0x4 ADD PUSH2 0xB0B SWAP1 PUSH2 0x1623 JUMP JUMPDEST PUSH1 0x40 MLOAD DUP1 SWAP2 SUB SWAP1 REVERT JUMPDEST PUSH1 0x1 SWAP1 POP SWAP2 SWAP1 POP JUMP JUMPDEST PUSH1 0x0 PUSH2 0xB28 DUP4 PUSH2 0x66C JUMP JUMPDEST PUSH2 0xB31 DUP2 PUSH2 0xAC9 JUMP JUMPDEST POP PUSH2 0xB3C DUP5 DUP5 PUSH2 0xA1B JUMP JUMPDEST PUSH2 0xB49 JUMPI PUSH1 0x0 SWAP2 POP PUSH2 0xC14 JUMP JUMPDEST PUSH1 0x0 DUP1 PUSH1 0x0 DUP7 DUP2 MSTORE PUSH1 0x20 ADD SWAP1 DUP2 MSTORE PUSH1 0x20 ADD PUSH1 0x0 KECCAK256 PUSH1 0x0 ADD PUSH1 0x0 DUP6 PUSH20 0xFFFFFFFFFFFFFFFFFFFFFFFFFFFFFFFFFFFFFFFF AND PUSH20 0xFFFFFFFFFFFFFFFFFFFFFFFFFFFFFFFFFFFFFFFF AND DUP2 MSTORE PUSH1 0x20 ADD SWAP1 DUP2 MSTORE PUSH1 0x20 ADD PUSH1 0x0 KECCAK256 PUSH1 0x0 PUSH2 0x100 EXP DUP2 SLOAD DUP2 PUSH1 0xFF MUL NOT AND SWAP1 DUP4 ISZERO ISZERO MUL OR SWAP1 SSTORE POP CALLER PUSH20 0xFFFFFFFFFFFFFFFFFFFFFFFFFFFFFFFFFFFFFFFF AND DUP4 PUSH20 0xFFFFFFFFFFFFFFFFFFFFFFFFFFFFFFFFFFFFFFFF AND DUP6 PUSH32 0xF6391F5C32D9C69D2A47EA670B442974B53935D1EDC7FD64EB21E047A839171B PUSH1 0x40 MLOAD PUSH1 0x40 MLOAD DUP1 SWAP2 SUB SWAP1 LOG4 PUSH1 0x1 SWAP2 POP JUMPDEST POP SWAP3 SWAP2 POP POP JUMP JUMPDEST DUP3 DUP1 SLOAD PUSH2 0xC27 SWAP1 PUSH2 0x1502 JUMP JUMPDEST SWAP1 PUSH1 0x0 MSTORE PUSH1 0x20 PUSH1 0x0 KECCAK256 SWAP1 PUSH1 0x1F ADD PUSH1 0x20 SWAP1 DIV DUP2 ADD SWAP3 DUP3 PUSH2 0xC49 JUMPI PUSH1 0x0 DUP6 SSTORE PUSH2 0xC90 JUMP JUMPDEST DUP3 PUSH1 0x1F LT PUSH2 0xC62 JUMPI DUP1 MLOAD PUSH1 0xFF NOT AND DUP4 DUP1 ADD OR DUP6 SSTORE PUSH2 0xC90 JUMP JUMPDEST DUP3 DUP1 ADD PUSH1 0x1 ADD DUP6 SSTORE DUP3 ISZERO PUSH2 0xC90 JUMPI SWAP2 DUP3 ADD JUMPDEST DUP3 DUP2 GT ISZERO PUSH2 0xC8F JUMPI DUP3 MLOAD DUP3 SSTORE SWAP2 PUSH1 0x20 ADD SWAP2 SWAP1 PUSH1 0x1 ADD SWAP1 PUSH2 0xC74 JUMP JUMPDEST JUMPDEST POP SWAP1 POP PUSH2 0xC9D SWAP2 SWAP1 PUSH2 0xCA1 JUMP JUMPDEST POP SWAP1 JUMP JUMPDEST JUMPDEST DUP1 DUP3 GT ISZERO PUSH2 0xCBA JUMPI PUSH1 0x0 DUP2 PUSH1 0x0 SWAP1 SSTORE POP PUSH1 0x1 ADD PUSH2 0xCA2 JUMP JUMPDEST POP SWAP1 JUMP JUMPDEST PUSH1 0x0 PUSH1 0x40 MLOAD SWAP1 POP SWAP1 JUMP JUMPDEST PUSH1 0x0 DUP1 REVERT JUMPDEST PUSH1 0x0 DUP1 REVERT JUMPDEST PUSH1 0x0 DUP1 REVERT JUMPDEST PUSH1 0x0 DUP1 REVERT JUMPDEST PUSH1 0x0 PUSH1 0x1F NOT PUSH1 0x1F DUP4 ADD AND SWAP1 POP SWAP2 SWAP1 POP JUMP JUMPDEST PUSH32 0x4E487B7100000000000000000000000000000000000000000000000000000000 PUSH1 0x0 MSTORE PUSH1 0x41 PUSH1 0x4 MSTORE PUSH1 0x24 PUSH1 0x0 REVERT JUMPDEST PUSH2 0xD25 DUP3 PUSH2 0xCDC JUMP JUMPDEST DUP2 ADD DUP2 DUP2 LT PUSH8 0xFFFFFFFFFFFFFFFF DUP3 GT OR ISZERO PUSH2 0xD44 JUMPI PUSH2 0xD43 PUSH2 0xCED JUMP JUMPDEST JUMPDEST DUP1 PUSH1 0x40 MSTORE POP POP POP JUMP JUMPDEST PUSH1 0x0 PUSH2 0xD57 PUSH2 0xCBE JUMP JUMPDEST SWAP1 POP PUSH2 0xD63 DUP3 DUP3 PUSH2 0xD1C JUMP JUMPDEST SWAP2 SWAP1 POP JUMP JUMPDEST PUSH1 0x0 PUSH8 0xFFFFFFFFFFFFFFFF DUP3 GT ISZERO PUSH2 0xD83 JUMPI PUSH2 0xD82 PUSH2 0xCED JUMP JUMPDEST JUMPDEST PUSH2 0xD8C DUP3 PUSH2 0xCDC JUMP JUMPDEST SWAP1 POP PUSH1 0x20 DUP2 ADD SWAP1 POP SWAP2 SWAP1 POP JUMP JUMPDEST DUP3 DUP2 DUP4 CALLDATACOPY PUSH1 0x0 DUP4 DUP4 ADD MSTORE POP POP POP JUMP JUMPDEST PUSH1 0x0 PUSH2 0xDBB PUSH2 0xDB6 DUP5 PUSH2 0xD68 JUMP JUMPDEST PUSH2 0xD4D JUMP JUMPDEST SWAP1 POP DUP3 DUP2 MSTORE PUSH1 0x20 DUP2 ADD DUP5 DUP5 DUP5 ADD GT ISZERO PUSH2 0xDD7 JUMPI PUSH2 0xDD6 PUSH2 0xCD7 JUMP JUMPDEST JUMPDEST PUSH2 0xDE2 DUP5 DUP3 DUP6 PUSH2 0xD99 JUMP JUMPDEST POP SWAP4 SWAP3 POP POP POP JUMP JUMPDEST PUSH1 0x0 DUP3 PUSH1 0x1F DUP4 ADD SLT PUSH2 0xDFF JUMPI PUSH2 0xDFE PUSH2 0xCD2 JUMP JUMPDEST JUMPDEST DUP2 CALLDATALOAD PUSH2 0xE0F DUP5 DUP3 PUSH1 0x20 DUP7 ADD PUSH2 0xDA8 JUMP JUMPDEST SWAP2 POP POP SWAP3 SWAP2 POP POP JUMP JUMPDEST PUSH1 0x0 DUP1 REVERT JUMPDEST PUSH1 0x0 DUP1 REVERT JUMPDEST PUSH1 0x0 DUP2 SWAP1 POP SWAP2 SWAP1 POP JUMP JUMPDEST PUSH2 0xE35 DUP2 PUSH2 0xE22 JUMP JUMPDEST DUP2 EQ PUSH2 0xE40 JUMPI PUSH1 0x0 DUP1 REVERT JUMPDEST POP JUMP JUMPDEST PUSH1 0x0 DUP2 CALLDATALOAD SWAP1 POP PUSH2 0xE52 DUP2 PUSH2 0xE2C JUMP JUMPDEST SWAP3 SWAP2 POP POP JUMP JUMPDEST PUSH1 0x0 PUSH20 0xFFFFFFFFFFFFFFFFFFFFFFFFFFFFFFFFFFFFFFFF DUP3 AND SWAP1 POP SWAP2 SWAP1 POP JUMP JUMPDEST PUSH1 0x0 PUSH2 0xE83 DUP3 PUSH2 0xE58 JUMP JUMPDEST SWAP1 POP SWAP2 SWAP1 POP JUMP JUMPDEST PUSH2 0xE93 DUP2 PUSH2 0xE78 JUMP JUMPDEST DUP2 EQ PUSH2 0xE9E JUMPI PUSH1 0x0 DUP1 REVERT JUMPDEST POP JUMP JUMPDEST PUSH1 0x0 DUP2 CALLDATALOAD SWAP1 POP PUSH2 0xEB0 DUP2 PUSH2 0xE8A JUMP JUMPDEST SWAP3 SWAP2 POP POP JUMP JUMPDEST PUSH1 0x0 DUP2 ISZERO ISZERO SWAP1 POP SWAP2 SWAP1 POP JUMP JUMPDEST PUSH2 0xECB DUP2 PUSH2 0xEB6 JUMP JUMPDEST DUP2 EQ PUSH2 0xED6 JUMPI PUSH1 0x0 DUP1 REVERT JUMPDEST POP JUMP JUMPDEST PUSH1 0x0 DUP2 CALLDATALOAD SWAP1 POP PUSH2 0xEE8 DUP2 PUSH2 0xEC2 JUMP JUMPDEST SWAP3 SWAP2 POP POP JUMP JUMPDEST PUSH1 0x0 PUSH1 0x80 DUP3 DUP5 SUB SLT ISZERO PUSH2 0xF04 JUMPI PUSH2 0xF03 PUSH2 0xE18 JUMP JUMPDEST JUMPDEST PUSH2 0xF0E PUSH1 0x80 PUSH2 0xD4D JUMP JUMPDEST SWAP1 POP PUSH1 0x0 DUP3 ADD CALLDATALOAD PUSH8 0xFFFFFFFFFFFFFFFF DUP2 GT ISZERO PUSH2 0xF2E JUMPI PUSH2 0xF2D PUSH2 0xE1D JUMP JUMPDEST JUMPDEST PUSH2 0xF3A DUP5 DUP3 DUP6 ADD PUSH2 0xDEA JUMP JUMPDEST PUSH1 0x0 DUP4 ADD MSTORE POP PUSH1 0x20 PUSH2 0xF4E DUP5 DUP3 DUP6 ADD PUSH2 0xE43 JUMP JUMPDEST PUSH1 0x20 DUP4 ADD MSTORE POP PUSH1 0x40 PUSH2 0xF62 DUP5 DUP3 DUP6 ADD PUSH2 0xEA1 JUMP JUMPDEST PUSH1 0x40 DUP4 ADD MSTORE POP PUSH1 0x60 PUSH2 0xF76 DUP5 DUP3 DUP6 ADD PUSH2 0xED9 JUMP JUMPDEST PUSH1 0x60 DUP4 ADD MSTORE POP SWAP3 SWAP2 POP POP JUMP JUMPDEST PUSH1 0x0 PUSH1 0x60 DUP3 DUP5 SUB SLT ISZERO PUSH2 0xF98 JUMPI PUSH2 0xF97 PUSH2 0xE18 JUMP JUMPDEST JUMPDEST PUSH2 0xFA2 PUSH1 0x60 PUSH2 0xD4D JUMP JUMPDEST SWAP1 POP PUSH1 0x0 DUP3 ADD CALLDATALOAD PUSH8 0xFFFFFFFFFFFFFFFF DUP2 GT ISZERO PUSH2 0xFC2 JUMPI PUSH2 0xFC1 PUSH2 0xE1D JUMP JUMPDEST JUMPDEST PUSH2 0xFCE DUP5 DUP3 DUP6 ADD PUSH2 0xEEE JUMP JUMPDEST PUSH1 0x0 DUP4 ADD MSTORE POP PUSH1 0x20 PUSH2 0xFE2 DUP5 DUP3 DUP6 ADD PUSH2 0xE43 JUMP JUMPDEST PUSH1 0x20 DUP4 ADD MSTORE POP PUSH1 0x40 DUP3 ADD CALLDATALOAD PUSH8 0xFFFFFFFFFFFFFFFF DUP2 GT ISZERO PUSH2 0x1006 JUMPI PUSH2 0x1005 PUSH2 0xE1D JUMP JUMPDEST JUMPDEST PUSH2 0x1012 DUP5 DUP3 DUP6 ADD PUSH2 0xDEA JUMP JUMPDEST PUSH1 0x40 DUP4 ADD MSTORE POP SWAP3 SWAP2 POP POP JUMP JUMPDEST PUSH1 0x0 DUP1 PUSH1 0x40 DUP4 DUP6 SUB SLT ISZERO PUSH2 0x1035 JUMPI PUSH2 0x1034 PUSH2 0xCC8 JUMP JUMPDEST JUMPDEST PUSH1 0x0 DUP4 ADD CALLDATALOAD PUSH8 0xFFFFFFFFFFFFFFFF DUP2 GT ISZERO PUSH2 0x1053 JUMPI PUSH2 0x1052 PUSH2 0xCCD JUMP JUMPDEST JUMPDEST PUSH2 0x105F DUP6 DUP3 DUP7 ADD PUSH2 0xDEA JUMP JUMPDEST SWAP3 POP POP PUSH1 0x20 DUP4 ADD CALLDATALOAD PUSH8 0xFFFFFFFFFFFFFFFF DUP2 GT ISZERO PUSH2 0x1080 JUMPI PUSH2 0x107F PUSH2 0xCCD JUMP JUMPDEST JUMPDEST PUSH2 0x108C DUP6 DUP3 DUP7 ADD PUSH2 0xF82 JUMP JUMPDEST SWAP2 POP POP SWAP3 POP SWAP3 SWAP1 POP JUMP JUMPDEST PUSH1 0x0 PUSH1 0x20 DUP3 DUP5 SUB SLT ISZERO PUSH2 0x10AC JUMPI PUSH2 0x10AB PUSH2 0xCC8 JUMP JUMPDEST JUMPDEST PUSH1 0x0 DUP3 ADD CALLDATALOAD PUSH8 0xFFFFFFFFFFFFFFFF DUP2 GT ISZERO PUSH2 0x10CA JUMPI PUSH2 0x10C9 PUSH2 0xCCD JUMP JUMPDEST JUMPDEST PUSH2 0x10D6 DUP5 DUP3 DUP6 ADD PUSH2 0xDEA JUMP JUMPDEST SWAP2 POP POP SWAP3 SWAP2 POP POP JUMP JUMPDEST PUSH2 0x10E8 DUP2 PUSH2 0xE22 JUMP JUMPDEST DUP3 MSTORE POP POP JUMP JUMPDEST PUSH1 0x0 PUSH1 0x20 DUP3 ADD SWAP1 POP PUSH2 0x1103 PUSH1 0x0 DUP4 ADD DUP5 PUSH2 0x10DF JUMP JUMPDEST SWAP3 SWAP2 POP POP JUMP JUMPDEST PUSH1 0x0 DUP2 SWAP1 POP SWAP2 SWAP1 POP JUMP JUMPDEST PUSH2 0x111C DUP2 PUSH2 0x1109 JUMP JUMPDEST DUP2 EQ PUSH2 0x1127 JUMPI PUSH1 0x0 DUP1 REVERT JUMPDEST POP JUMP JUMPDEST PUSH1 0x0 DUP2 CALLDATALOAD SWAP1 POP PUSH2 0x1139 DUP2 PUSH2 0x1113 JUMP JUMPDEST SWAP3 SWAP2 POP POP JUMP JUMPDEST PUSH1 0x0 PUSH1 0x20 DUP3 DUP5 SUB SLT ISZERO PUSH2 0x1155 JUMPI PUSH2 0x1154 PUSH2 0xCC8 JUMP JUMPDEST JUMPDEST PUSH1 0x0 PUSH2 0x1163 DUP5 DUP3 DUP6 ADD PUSH2 0x112A JUMP JUMPDEST SWAP2 POP POP SWAP3 SWAP2 POP POP JUMP JUMPDEST PUSH2 0x1175 DUP2 PUSH2 0x1109 JUMP JUMPDEST DUP3 MSTORE POP POP JUMP JUMPDEST PUSH1 0x0 PUSH1 0x20 DUP3 ADD SWAP1 POP PUSH2 0x1190 PUSH1 0x0 DUP4 ADD DUP5 PUSH2 0x116C JUMP JUMPDEST SWAP3 SWAP2 POP POP JUMP JUMPDEST PUSH1 0x0 DUP1 PUSH1 0x40 DUP4 DUP6 SUB SLT ISZERO PUSH2 0x11AD JUMPI PUSH2 0x11AC PUSH2 0xCC8 JUMP JUMPDEST JUMPDEST PUSH1 0x0 PUSH2 0x11BB DUP6 DUP3 DUP7 ADD PUSH2 0x112A JUMP JUMPDEST SWAP3 POP POP PUSH1 0x20 PUSH2 0x11CC DUP6 DUP3 DUP7 ADD PUSH2 0xEA1 JUMP JUMPDEST SWAP2 POP POP SWAP3 POP SWAP3 SWAP1 POP JUMP JUMPDEST PUSH2 0x11DF DUP2 PUSH2 0xEB6 JUMP JUMPDEST DUP3 MSTORE POP POP JUMP JUMPDEST PUSH1 0x0 PUSH1 0x20 DUP3 ADD SWAP1 POP PUSH2 0x11FA PUSH1 0x0 DUP4 ADD DUP5 PUSH2 0x11D6 JUMP JUMPDEST SWAP3 SWAP2 POP POP JUMP JUMPDEST PUSH1 0x0 DUP2 MLOAD SWAP1 POP SWAP2 SWAP1 POP JUMP JUMPDEST PUSH1 0x0 DUP3 DUP3 MSTORE PUSH1 0x20 DUP3 ADD SWAP1 POP SWAP3 SWAP2 POP POP JUMP JUMPDEST PUSH1 0x0 DUP2 SWAP1 POP PUSH1 0x20 DUP3 ADD SWAP1 POP SWAP2 SWAP1 POP JUMP JUMPDEST PUSH1 0x0 DUP2 MLOAD SWAP1 POP SWAP2 SWAP1 POP JUMP JUMPDEST PUSH1 0x0 DUP3 DUP3 MSTORE PUSH1 0x20 DUP3 ADD SWAP1 POP SWAP3 SWAP2 POP POP JUMP JUMPDEST PUSH1 0x0 JUMPDEST DUP4 DUP2 LT ISZERO PUSH2 0x1266 JUMPI DUP1 DUP3 ADD MLOAD DUP2 DUP5 ADD MSTORE PUSH1 0x20 DUP2 ADD SWAP1 POP PUSH2 0x124B JUMP JUMPDEST DUP4 DUP2 GT ISZERO PUSH2 0x1275 JUMPI PUSH1 0x0 DUP5 DUP5 ADD MSTORE JUMPDEST POP POP POP POP JUMP JUMPDEST PUSH1 0x0 PUSH2 0x1286 DUP3 PUSH2 0x122C JUMP JUMPDEST PUSH2 0x1290 DUP2 DUP6 PUSH2 0x1237 JUMP JUMPDEST SWAP4 POP PUSH2 0x12A0 DUP2 DUP6 PUSH1 0x20 DUP7 ADD PUSH2 0x1248 JUMP JUMPDEST PUSH2 0x12A9 DUP2 PUSH2 0xCDC JUMP JUMPDEST DUP5 ADD SWAP2 POP POP SWAP3 SWAP2 POP POP JUMP JUMPDEST PUSH2 0x12BD DUP2 PUSH2 0xE22 JUMP JUMPDEST DUP3 MSTORE POP POP JUMP JUMPDEST PUSH2 0x12CC DUP2 PUSH2 0xE78 JUMP JUMPDEST DUP3 MSTORE POP POP JUMP JUMPDEST PUSH2 0x12DB DUP2 PUSH2 0xEB6 JUMP JUMPDEST DUP3 MSTORE POP POP JUMP JUMPDEST PUSH1 0x0 PUSH1 0x80 DUP4 ADD PUSH1 0x0 DUP4 ADD MLOAD DUP5 DUP3 SUB PUSH1 0x0 DUP7 ADD MSTORE PUSH2 0x12FE DUP3 DUP3 PUSH2 0x127B JUMP JUMPDEST SWAP2 POP POP PUSH1 0x20 DUP4 ADD MLOAD PUSH2 0x1313 PUSH1 0x20 DUP7 ADD DUP3 PUSH2 0x12B4 JUMP JUMPDEST POP PUSH1 0x40 DUP4 ADD MLOAD PUSH2 0x1326 PUSH1 0x40 DUP7 ADD DUP3 PUSH2 0x12C3 JUMP JUMPDEST POP PUSH1 0x60 DUP4 ADD MLOAD PUSH2 0x1339 PUSH1 0x60 DUP7 ADD DUP3 PUSH2 0x12D2 JUMP JUMPDEST POP DUP1 SWAP2 POP POP SWAP3 SWAP2 POP POP JUMP JUMPDEST PUSH1 0x0 PUSH1 0x60 DUP4 ADD PUSH1 0x0 DUP4 ADD MLOAD DUP5 DUP3 SUB PUSH1 0x0 DUP7 ADD MSTORE PUSH2 0x1361 DUP3 DUP3 PUSH2 0x12E1 JUMP JUMPDEST SWAP2 POP POP PUSH1 0x20 DUP4 ADD MLOAD PUSH2 0x1376 PUSH1 0x20 DUP7 ADD DUP3 PUSH2 0x12B4 JUMP JUMPDEST POP PUSH1 0x40 DUP4 ADD MLOAD DUP5 DUP3 SUB PUSH1 0x40 DUP7 ADD MSTORE PUSH2 0x138E DUP3 DUP3 PUSH2 0x127B JUMP JUMPDEST SWAP2 POP POP DUP1 SWAP2 POP POP SWAP3 SWAP2 POP POP JUMP JUMPDEST PUSH1 0x0 PUSH2 0x13A7 DUP4 DUP4 PUSH2 0x1344 JUMP JUMPDEST SWAP1 POP SWAP3 SWAP2 POP POP JUMP JUMPDEST PUSH1 0x0 PUSH1 0x20 DUP3 ADD SWAP1 POP SWAP2 SWAP1 POP JUMP JUMPDEST PUSH1 0x0 PUSH2 0x13C7 DUP3 PUSH2 0x1200 JUMP JUMPDEST PUSH2 0x13D1 DUP2 DUP6 PUSH2 0x120B JUMP JUMPDEST SWAP4 POP DUP4 PUSH1 0x20 DUP3 MUL DUP6 ADD PUSH2 0x13E3 DUP6 PUSH2 0x121C JUMP JUMPDEST DUP1 PUSH1 0x0 JUMPDEST DUP6 DUP2 LT ISZERO PUSH2 0x141F JUMPI DUP5 DUP5 SUB DUP10 MSTORE DUP2 MLOAD PUSH2 0x1400 DUP6 DUP3 PUSH2 0x139B JUMP JUMPDEST SWAP5 POP PUSH2 0x140B DUP4 PUSH2 0x13AF JUMP JUMPDEST SWAP3 POP PUSH1 0x20 DUP11 ADD SWAP10 POP POP PUSH1 0x1 DUP2 ADD SWAP1 POP PUSH2 0x13E7 JUMP JUMPDEST POP DUP3 SWAP8 POP DUP8 SWAP6 POP POP POP POP POP POP SWAP3 SWAP2 POP POP JUMP JUMPDEST PUSH1 0x0 PUSH1 0x20 DUP3 ADD SWAP1 POP DUP2 DUP2 SUB PUSH1 0x0 DUP4 ADD MSTORE PUSH2 0x144B DUP2 DUP5 PUSH2 0x13BC JUMP JUMPDEST SWAP1 POP SWAP3 SWAP2 POP POP JUMP JUMPDEST PUSH1 0x0 PUSH1 0x20 DUP3 DUP5 SUB SLT ISZERO PUSH2 0x1469 JUMPI PUSH2 0x1468 PUSH2 0xCC8 JUMP JUMPDEST JUMPDEST PUSH1 0x0 PUSH2 0x1477 DUP5 DUP3 DUP6 ADD PUSH2 0xEA1 JUMP JUMPDEST SWAP2 POP POP SWAP3 SWAP2 POP POP JUMP JUMPDEST PUSH1 0x0 DUP2 SWAP1 POP SWAP3 SWAP2 POP POP JUMP JUMPDEST PUSH1 0x0 PUSH2 0x1496 DUP3 PUSH2 0x122C JUMP JUMPDEST PUSH2 0x14A0 DUP2 DUP6 PUSH2 0x1480 JUMP JUMPDEST SWAP4 POP PUSH2 0x14B0 DUP2 DUP6 PUSH1 0x20 DUP7 ADD PUSH2 0x1248 JUMP JUMPDEST DUP1 DUP5 ADD SWAP2 POP POP SWAP3 SWAP2 POP POP JUMP JUMPDEST PUSH1 0x0 PUSH2 0x14C8 DUP3 DUP5 PUSH2 0x148B JUMP JUMPDEST SWAP2 POP DUP2 SWAP1 POP SWAP3 SWAP2 POP POP JUMP JUMPDEST PUSH32 0x4E487B7100000000000000000000000000000000000000000000000000000000 PUSH1 0x0 MSTORE PUSH1 0x22 PUSH1 0x4 MSTORE PUSH1 0x24 PUSH1 0x0 REVERT JUMPDEST PUSH1 0x0 PUSH1 0x2 DUP3 DIV SWAP1 POP PUSH1 0x1 DUP3 AND DUP1 PUSH2 0x151A JUMPI PUSH1 0x7F DUP3 AND SWAP2 POP JUMPDEST PUSH1 0x20 DUP3 LT DUP2 EQ ISZERO PUSH2 0x152E JUMPI PUSH2 0x152D PUSH2 0x14D3 JUMP JUMPDEST JUMPDEST POP SWAP2 SWAP1 POP JUMP JUMPDEST PUSH32 0x4E487B7100000000000000000000000000000000000000000000000000000000 PUSH1 0x0 MSTORE PUSH1 0x11 PUSH1 0x4 MSTORE PUSH1 0x24 PUSH1 0x0 REVERT JUMPDEST PUSH1 0x0 PUSH2 0x156E DUP3 PUSH2 0xE22 JUMP JUMPDEST SWAP2 POP PUSH2 0x1579 DUP4 PUSH2 0xE22 JUMP JUMPDEST SWAP3 POP DUP3 DUP3 LT ISZERO PUSH2 0x158C JUMPI PUSH2 0x158B PUSH2 0x1534 JUMP JUMPDEST JUMPDEST DUP3 DUP3 SUB SWAP1 POP SWAP3 SWAP2 POP POP JUMP JUMPDEST PUSH32 0x4E487B7100000000000000000000000000000000000000000000000000000000 PUSH1 0x0 MSTORE PUSH1 0x32 PUSH1 0x4 MSTORE PUSH1 0x24 PUSH1 0x0 REVERT JUMPDEST PUSH1 0x0 DUP3 DUP3 MSTORE PUSH1 0x20 DUP3 ADD SWAP1 POP SWAP3 SWAP2 POP POP JUMP JUMPDEST PUSH32 0x556E417574686F72697A65644163636F756E7400000000000000000000000000 PUSH1 0x0 DUP3 ADD MSTORE POP JUMP JUMPDEST PUSH1 0x0 PUSH2 0x160D PUSH1 0x13 DUP4 PUSH2 0x15C6 JUMP JUMPDEST SWAP2 POP PUSH2 0x1618 DUP3 PUSH2 0x15D7 JUMP JUMPDEST PUSH1 0x20 DUP3 ADD SWAP1 POP SWAP2 SWAP1 POP JUMP JUMPDEST PUSH1 0x0 PUSH1 0x20 DUP3 ADD SWAP1 POP DUP2 DUP2 SUB PUSH1 0x0 DUP4 ADD MSTORE PUSH2 0x163C DUP2 PUSH2 0x1600 JUMP JUMPDEST SWAP1 POP SWAP2 SWAP1 POP JUMP INVALID LOG2 PUSH5 0x6970667358 0x22 SLT KECCAK256 0x49 XOR SHL SWAP2 0xC4 SWAP1 0xC8 0xD3 XOR PUSH31 0xCA4778C3AD5F01BE1E24B47A8C96AFDEC1212C4C147164736F6C634300080B STOP CALLER "
		},
		"gasEstimates": {
			"creation": {
				"codeDepositCost": "1045200",
				"executionCost": "infinite",
				"totalCost": "infinite"
			},
			"external": {
				"": "infinite",
				"ADMIN_ROLE()": "396",
				"BE_FIRED_ROLE()": "418",
				"DEFAULT_ADMIN()": "380",
				"checkRole(bytes32)": "3092",
				"error(string,string,string)": "infinite",
				"getRoleAdmin(bytes32)": "infinite",
				"grantRole(bytes32,address)": "infinite",
				"hasRole(bytes32,address)": "3163",
				"revokeRole(bytes32,address)": "infinite",
				"strConcat(string,string)": "infinite",
				"stringToBytes32(string)": "infinite",
				"toAssetIndex(string,uint256)": "infinite",
				"toRole(string)": "infinite",
				"updateImplementation(address)": "27420"
			},
			"internal": {
				"_delegate(address)": "infinite",
				"_fallback()": "infinite",
				"_implementation()": "2159"
			}
		},
		"methodIdentifiers": {
			"ADMIN_ROLE()": "75b238fc",
			"BE_FIRED_ROLE()": "8e661179",
			"DEFAULT_ADMIN()": "9cdeba95",
			"checkRole(bytes32)": "c5b95190",
			"error(string,string,string)": "609f7070",
			"getRoleAdmin(bytes32)": "248a9ca3",
			"grantRole(bytes32,address)": "2f2ff15d",
			"hasRole(bytes32,address)": "91d14854",
			"revokeRole(bytes32,address)": "d547741f",
			"strConcat(string,string)": "ff74927b",
			"stringToBytes32(string)": "cfb51928",
			"toAssetIndex(string,uint256)": "a1f7ed1a",
			"toRole(string)": "60e01594",
			"updateImplementation(address)": "025b22bc"
		}
	},
	"abi": [
		{
			"inputs": [
				{
					"internalType": "address",
					"name": "founder",
					"type": "address"
				},
				{
					"internalType": "string",
					"name": "_company_name",
					"type": "string"
				},
				{
					"internalType": "address",
					"name": "commonLogicAddress",
					"type": "address"
				}
			],
			"stateMutability": "nonpayable",
			"type": "constructor"
		},
		{
			"anonymous": false,
			"inputs": [
				{
					"indexed": false,
					"internalType": "string",
					"name": "groupName",
					"type": "string"
				},
				{
					"indexed": false,
					"internalType": "string",
					"name": "company_name",
					"type": "string"
				}
			],
			"name": "NewAssetGroupClose",
			"type": "event"
		},
		{
			"anonymous": false,
			"inputs": [
				{
					"indexed": false,
					"internalType": "string",
					"name": "groupName",
					"type": "string"
				},
				{
					"indexed": false,
					"internalType": "string",
					"name": "company_name",
					"type": "string"
				}
			],
			"name": "NewAssetGroupOpen",
			"type": "event"
		},
		{
			"anonymous": false,
			"inputs": [
				{
					"indexed": false,
					"internalType": "address",
					"name": "worker_address",
					"type": "address"
				},
				{
					"indexed": false,
					"internalType": "string",
					"name": "company_name",
					"type": "string"
				}
			],
			"name": "NewWorkerAdd",
			"type": "event"
		},
		{
			"anonymous": false,
			"inputs": [
				{
					"indexed": false,
					"internalType": "address",
					"name": "worker_address",
					"type": "address"
				},
				{
					"indexed": false,
					"internalType": "string",
					"name": "company_name",
					"type": "string"
				}
			],
			"name": "NewWorkerRemoved",
			"type": "event"
		},
		{
			"anonymous": false,
			"inputs": [
				{
					"indexed": true,
					"internalType": "bytes32",
					"name": "role",
					"type": "bytes32"
				},
				{
					"indexed": true,
					"internalType": "bytes32",
					"name": "previousAdminRole",
					"type": "bytes32"
				},
				{
					"indexed": true,
					"internalType": "bytes32",
					"name": "newAdminRole",
					"type": "bytes32"
				}
			],
			"name": "RoleAdminChanged",
			"type": "event"
		},
		{
			"anonymous": false,
			"inputs": [
				{
					"indexed": true,
					"internalType": "bytes32",
					"name": "role",
					"type": "bytes32"
				},
				{
					"indexed": true,
					"internalType": "address",
					"name": "account",
					"type": "address"
				},
				{
					"indexed": true,
					"internalType": "address",
					"name": "sender",
					"type": "address"
				}
			],
			"name": "RoleGranted",
			"type": "event"
		},
		{
			"anonymous": false,
			"inputs": [
				{
					"indexed": true,
					"internalType": "bytes32",
					"name": "role",
					"type": "bytes32"
				},
				{
					"indexed": true,
					"internalType": "address",
					"name": "account",
					"type": "address"
				},
				{
					"indexed": true,
					"internalType": "address",
					"name": "sender",
					"type": "address"
				}
			],
			"name": "RoleRevoked",
			"type": "event"
		},
		{
			"stateMutability": "nonpayable",
			"type": "fallback"
		},
		{
			"inputs": [],
			"name": "ADMIN_ROLE",
			"outputs": [
				{
					"internalType": "bytes32",
					"name": "",
					"type": "bytes32"
				}
			],
			"stateMutability": "view",
			"type": "function"
		},
		{
			"inputs": [],
			"name": "BE_FIRED_ROLE",
			"outputs": [
				{
					"internalType": "bytes32",
					"name": "",
					"type": "bytes32"
				}
			],
			"stateMutability": "view",
			"type": "function"
		},
		{
			"inputs": [],
			"name": "DEFAULT_ADMIN",
			"outputs": [
				{
					"internalType": "bytes32",
					"name": "",
					"type": "bytes32"
				}
			],
			"stateMutability": "view",
			"type": "function"
		},
		{
			"inputs": [
				{
					"internalType": "bytes32",
					"name": "role",
					"type": "bytes32"
				}
			],
			"name": "checkRole",
			"outputs": [
				{
					"internalType": "bool",
					"name": "",
					"type": "bool"
				}
			],
			"stateMutability": "view",
			"type": "function"
		},
		{
			"inputs": [
				{
					"internalType": "string",
					"name": "_contract",
					"type": "string"
				},
				{
					"internalType": "string",
					"name": "_function",
					"type": "string"
				},
				{
					"internalType": "string",
					"name": "_msg",
					"type": "string"
				}
			],
			"name": "error",
			"outputs": [
				{
					"internalType": "string",
					"name": "",
					"type": "string"
				}
			],
			"stateMutability": "pure",
			"type": "function"
		},
		{
			"inputs": [
				{
					"internalType": "bytes32",
					"name": "role",
					"type": "bytes32"
				}
			],
			"name": "getRoleAdmin",
			"outputs": [
				{
					"internalType": "bytes32",
					"name": "",
					"type": "bytes32"
				}
			],
			"stateMutability": "view",
			"type": "function"
		},
		{
			"inputs": [
				{
					"internalType": "bytes32",
					"name": "role",
					"type": "bytes32"
				},
				{
					"internalType": "address",
					"name": "member",
					"type": "address"
				}
			],
			"name": "grantRole",
			"outputs": [
				{
					"internalType": "bool",
					"name": "",
					"type": "bool"
				}
			],
			"stateMutability": "nonpayable",
			"type": "function"
		},
		{
			"inputs": [
				{
					"internalType": "bytes32",
					"name": "role",
					"type": "bytes32"
				},
				{
					"internalType": "address",
					"name": "member",
					"type": "address"
				}
			],
			"name": "hasRole",
			"outputs": [
				{
					"internalType": "bool",
					"name": "",
					"type": "bool"
				}
			],
			"stateMutability": "view",
			"type": "function"
		},
		{
			"inputs": [
				{
					"internalType": "bytes32",
					"name": "role",
					"type": "bytes32"
				},
				{
					"internalType": "address",
					"name": "member",
					"type": "address"
				}
			],
			"name": "revokeRole",
			"outputs": [
				{
					"internalType": "bool",
					"name": "",
					"type": "bool"
				}
			],
			"stateMutability": "nonpayable",
			"type": "function"
		},
		{
			"inputs": [
				{
					"internalType": "string",
					"name": "_a",
					"type": "string"
				},
				{
					"internalType": "string",
					"name": "_b",
					"type": "string"
				}
			],
			"name": "strConcat",
			"outputs": [
				{
					"internalType": "string",
					"name": "",
					"type": "string"
				}
			],
			"stateMutability": "pure",
			"type": "function"
		},
		{
			"inputs": [
				{
					"internalType": "string",
					"name": "str",
					"type": "string"
				}
			],
			"name": "stringToBytes32",
			"outputs": [
				{
					"internalType": "bytes32",
					"name": "",
					"type": "bytes32"
				}
			],
			"stateMutability": "pure",
			"type": "function"
		},
		{
			"inputs": [
				{
					"internalType": "string",
					"name": "_group",
					"type": "string"
				},
				{
					"internalType": "uint256",
					"name": "id",
					"type": "uint256"
				}
			],
			"name": "toAssetIndex",
			"outputs": [
				{
					"internalType": "string",
					"name": "",
					"type": "string"
				}
			],
			"stateMutability": "pure",
			"type": "function"
		},
		{
			"inputs": [
				{
					"internalType": "string",
					"name": "str",
					"type": "string"
				}
			],
			"name": "toRole",
			"outputs": [
				{
					"internalType": "bytes32",
					"name": "",
					"type": "bytes32"
				}
			],
			"stateMutability": "pure",
			"type": "function"
		},
		{
			"inputs": [
				{
					"internalType": "address",
					"name": "newLogicAddress",
					"type": "address"
				}
			],
			"name": "updateImplementation",
			"outputs": [
				{
					"internalType": "bool",
					"name": "",
					"type": "bool"
				}
			],
			"stateMutability": "nonpayable",
			"type": "function"
		}
	]
}