{
	"data": {
		"bytecode": {
			"linkReferences": {},
			"object": "608060405234801561001057600080fd5b50604051611e2f380380611e2f8339818101604052810190610032919061015c565b806000806101000a81548173ffffffffffffffffffffffffffffffffffffffff021916908373ffffffffffffffffffffffffffffffffffffffff1602179055503060405161007f906100ec565b6100899190610198565b604051809103906000f0801580156100a5573d6000803e3d6000fd5b50600160006101000a81548173ffffffffffffffffffffffffffffffffffffffff021916908373ffffffffffffffffffffffffffffffffffffffff160217905550506101b3565b610c80806111af83390190565b600080fd5b600073ffffffffffffffffffffffffffffffffffffffff82169050919050565b6000610129826100fe565b9050919050565b6101398161011e565b811461014457600080fd5b50565b60008151905061015681610130565b92915050565b600060208284031215610172576101716100f9565b5b600061018084828501610147565b91505092915050565b6101928161011e565b82525050565b60006020820190506101ad6000830184610189565b92915050565b610fed806101c26000396000f3fe608060405234801561001057600080fd5b506004361061002b5760003560e01c80631a2e102714610030575b600080fd5b61004a6004803603810190610045919061040e565b610060565b6040516100579190610498565b60405180910390f35b60008060009054906101000a900473ffffffffffffffffffffffffffffffffffffffff1673ffffffffffffffffffffffffffffffffffffffff166391d1485485336040518363ffffffff1660e01b81526004016100be9291906104d1565b602060405180830381865afa1580156100db573d6000803e3d6000fd5b505050506040513d601f19601f820116820180604052508101906100ff9190610526565b61013e576040517f08c379a0000000000000000000000000000000000000000000000000000000008152600401610135906105b0565b60405180910390fd5b60008260405161014d90610213565b61015791906105d0565b604051809103906000f080158015610173573d6000803e3d6000fd5b509050600160009054906101000a900473ffffffffffffffffffffffffffffffffffffffff1673ffffffffffffffffffffffffffffffffffffffff166336ff8dde8286886040518463ffffffff1660e01b81526004016101d593929190610662565b600060405180830381600087803b1580156101ef57600080fd5b505af1158015610203573d6000803e3d6000fd5b5050505060019150509392505050565b610917806106a183390190565b6000604051905090565b600080fd5b600080fd5b6000819050919050565b61024781610234565b811461025257600080fd5b50565b6000813590506102648161023e565b92915050565b600080fd5b600080fd5b6000601f19601f8301169050919050565b7f4e487b7100000000000000000000000000000000000000000000000000000000600052604160045260246000fd5b6102bd82610274565b810181811067ffffffffffffffff821117156102dc576102db610285565b5b80604052505050565b60006102ef610220565b90506102fb82826102b4565b919050565b600067ffffffffffffffff82111561031b5761031a610285565b5b61032482610274565b9050602081019050919050565b82818337600083830152505050565b600061035361034e84610300565b6102e5565b90508281526020810184848401111561036f5761036e61026f565b5b61037a848285610331565b509392505050565b600082601f8301126103975761039661026a565b5b81356103a7848260208601610340565b91505092915050565b600073ffffffffffffffffffffffffffffffffffffffff82169050919050565b60006103db826103b0565b9050919050565b6103eb816103d0565b81146103f657600080fd5b50565b600081359050610408816103e2565b92915050565b6000806000606084860312156104275761042661022a565b5b600061043586828701610255565b935050602084013567ffffffffffffffff8111156104565761045561022f565b5b61046286828701610382565b9250506040610473868287016103f9565b9150509250925092565b60008115159050919050565b6104928161047d565b82525050565b60006020820190506104ad6000830184610489565b92915050565b6104bc81610234565b82525050565b6104cb816103d0565b82525050565b60006040820190506104e660008301856104b3565b6104f360208301846104c2565b9392505050565b6105038161047d565b811461050e57600080fd5b50565b600081519050610520816104fa565b92915050565b60006020828403121561053c5761053b61022a565b5b600061054a84828501610511565b91505092915050565b600082825260208201905092915050565b7f594f5520415245204e4f542054484520444f4d41494e2041444d494e00000000600082015250565b600061059a601c83610553565b91506105a582610564565b602082019050919050565b600060208201905081810360008301526105c98161058d565b9050919050565b60006020820190506105e560008301846104c2565b92915050565b600081519050919050565b60005b838110156106145780820151818401526020810190506105f9565b83811115610623576000848401525b50505050565b6000610634826105eb565b61063e8185610553565b935061064e8185602086016105f6565b61065781610274565b840191505092915050565b600060608201905061067760008301866104c2565b81810360208301526106898185610629565b905061069860408301846104b3565b94935050505056fe608060405234801561001057600080fd5b506040516109173803806109178339818101604052810190610032919061014c565b8060016000808060001b815260200190815260200160002060000160008373ffffffffffffffffffffffffffffffffffffffff1673ffffffffffffffffffffffffffffffffffffffff16815260200190815260200160002060006101000a81548160ff0219169083151502179055505080600160006101000a81548173ffffffffffffffffffffffffffffffffffffffff021916908373ffffffffffffffffffffffffffffffffffffffff16021790555050610179565b600080fd5b600073ffffffffffffffffffffffffffffffffffffffff82169050919050565b6000610119826100ee565b9050919050565b6101298161010e565b811461013457600080fd5b50565b60008151905061014681610120565b92915050565b600060208284031215610162576101616100e9565b5b600061017084828501610137565b91505092915050565b61078f806101886000396000f3fe608060405234801561001057600080fd5b506004361061007d5760003560e01c806391d148541161005b57806391d14854146100fe5780639cdeba951461012e578063c5b951901461014c578063d547741f1461017c5761007d565b8063248a9ca3146100825780632f2ff15d146100b257806336568abe146100e2575b600080fd5b61009c60048036038101906100979190610545565b6101ac565b6040516100a99190610581565b60405180910390f35b6100cc60048036038101906100c791906105fa565b6101cb565b6040516100d99190610655565b60405180910390f35b6100fc60048036038101906100f791906105fa565b6102ca565b005b610118600480360381019061011391906105fa565b610347565b6040516101259190610655565b60405180910390f35b6101366103b1565b6040516101439190610581565b60405180910390f35b61016660048036038101906101619190610545565b6103b8565b6040516101739190610655565b60405180910390f35b610196600480360381019061019191906105fa565b61040c565b6040516101a39190610655565b60405180910390f35b6000806000838152602001908152602001600020600101549050919050565b60006101d6836101ac565b6101df816103b8565b506101ea8484610347565b156101f857600091506102c3565b600160008086815260200190815260200160002060000160008573ffffffffffffffffffffffffffffffffffffffff1673ffffffffffffffffffffffffffffffffffffffff16815260200190815260200160002060006101000a81548160ff0219169083151502179055503373ffffffffffffffffffffffffffffffffffffffff168373ffffffffffffffffffffffffffffffffffffffff16857f2f8788117e7eff1d82e926ec794901d17c78024a50270940304540a733656f0d60405160405180910390a4600191505b5092915050565b3373ffffffffffffffffffffffffffffffffffffffff168173ffffffffffffffffffffffffffffffffffffffff1614610338576040517f08c379a000000000000000000000000000000000000000000000000000000000815260040161032f906106cd565b60405180910390fd5b610342828261040c565b505050565b600080600084815260200190815260200160002060000160008373ffffffffffffffffffffffffffffffffffffffff1673ffffffffffffffffffffffffffffffffffffffff16815260200190815260200160002060009054906101000a900460ff16905092915050565b6000801b81565b60006103c48233610347565b610403576040517f08c379a00000000000000000000000000000000000000000000000000000000081526004016103fa90610739565b60405180910390fd5b60019050919050565b6000610417836101ac565b610420816103b8565b5061042b8484610347565b6104385760009150610503565b600080600086815260200190815260200160002060000160008573ffffffffffffffffffffffffffffffffffffffff1673ffffffffffffffffffffffffffffffffffffffff16815260200190815260200160002060006101000a81548160ff0219169083151502179055503373ffffffffffffffffffffffffffffffffffffffff168373ffffffffffffffffffffffffffffffffffffffff16857ff6391f5c32d9c69d2a47ea670b442974b53935d1edc7fd64eb21e047a839171b60405160405180910390a4600191505b5092915050565b600080fd5b6000819050919050565b6105228161050f565b811461052d57600080fd5b50565b60008135905061053f81610519565b92915050565b60006020828403121561055b5761055a61050a565b5b600061056984828501610530565b91505092915050565b61057b8161050f565b82525050565b60006020820190506105966000830184610572565b92915050565b600073ffffffffffffffffffffffffffffffffffffffff82169050919050565b60006105c78261059c565b9050919050565b6105d7816105bc565b81146105e257600080fd5b50565b6000813590506105f4816105ce565b92915050565b600080604083850312156106115761061061050a565b5b600061061f85828601610530565b9250506020610630858286016105e5565b9150509250929050565b60008115159050919050565b61064f8161063a565b82525050565b600060208201905061066a6000830184610646565b92915050565b600082825260208201905092915050565b7f426164436f6e6669726d6174696f6e0000000000000000000000000000000000600082015250565b60006106b7600f83610670565b91506106c282610681565b602082019050919050565b600060208201905081810360008301526106e6816106aa565b9050919050565b7f556e417574686f72697a65644163636f756e7400000000000000000000000000600082015250565b6000610723601383610670565b915061072e826106ed565b602082019050919050565b6000602082019050818103600083015261075281610716565b905091905056fea2646970667358221220cf06c95a3ce272526b7fe1f70ecde32d035b7cf317ffd93d2e4f1cb2c3723b9064736f6c634300080b0033a26469706673582212204db644d5aecf11988ac9f77e4a8e30231c659fbed304c32687b9fb433689e9a264736f6c634300080b0033608060405234801561001057600080fd5b50604051610c80380380610c808339818101604052810190610032919061010b565b8060016000808060001b815260200190815260200160002060000160008373ffffffffffffffffffffffffffffffffffffffff1673ffffffffffffffffffffffffffffffffffffffff16815260200190815260200160002060006101000a81548160ff0219169083151502179055505050610138565b600080fd5b600073ffffffffffffffffffffffffffffffffffffffff82169050919050565b60006100d8826100ad565b9050919050565b6100e8816100cd565b81146100f357600080fd5b50565b600081519050610105816100df565b92915050565b600060208284031215610121576101206100a8565b5b600061012f848285016100f6565b91505092915050565b610b39806101476000396000f3fe608060405234801561001057600080fd5b50600436106100885760003560e01c806391d148541161005b57806391d14854146101255780639cdeba9514610155578063c5b9519014610173578063d547741f146101a357610088565b8063248a9ca31461008d5780632f2ff15d146100bd57806336568abe146100ed57806336ff8dde14610109575b600080fd5b6100a760048036038101906100a2919061063d565b6101d3565b6040516100b49190610679565b60405180910390f35b6100d760048036038101906100d291906106f2565b6101f2565b6040516100e4919061074d565b60405180910390f35b610107600480360381019061010291906106f2565b6102f1565b005b610123600480360381019061011e91906108ae565b61036e565b005b61013f600480360381019061013a91906106f2565b610430565b60405161014c919061074d565b60405180910390f35b61015d61049a565b60405161016a9190610679565b60405180910390f35b61018d6004803603810190610188919061063d565b6104a1565b60405161019a919061074d565b60405180910390f35b6101bd60048036038101906101b891906106f2565b6104f5565b6040516101ca919061074d565b60405180910390f35b6000806000838152602001908152602001600020600101549050919050565b60006101fd836101d3565b610206816104a1565b506102118484610430565b1561021f57600091506102ea565b600160008086815260200190815260200160002060000160008573ffffffffffffffffffffffffffffffffffffffff1673ffffffffffffffffffffffffffffffffffffffff16815260200190815260200160002060006101000a81548160ff0219169083151502179055503373ffffffffffffffffffffffffffffffffffffffff168373ffffffffffffffffffffffffffffffffffffffff16857f2f8788117e7eff1d82e926ec794901d17c78024a50270940304540a733656f0d60405160405180910390a4600191505b5092915050565b3373ffffffffffffffffffffffffffffffffffffffff168173ffffffffffffffffffffffffffffffffffffffff161461035f576040517f08c379a00000000000000000000000000000000000000000000000000000000081526004016103569061097a565b60405180910390fd5b61036982826104f5565b505050565b61037b6000801b33610430565b6103ba576040517f08c379a00000000000000000000000000000000000000000000000000000000081526004016103b1906109e6565b60405180910390fd5b8260016000838152602001908152602001600020600001836040516103df9190610a80565b908152602001604051809103902060006101000a81548173ffffffffffffffffffffffffffffffffffffffff021916908373ffffffffffffffffffffffffffffffffffffffff160217905550505050565b600080600084815260200190815260200160002060000160008373ffffffffffffffffffffffffffffffffffffffff1673ffffffffffffffffffffffffffffffffffffffff16815260200190815260200160002060009054906101000a900460ff16905092915050565b6000801b81565b60006104ad8233610430565b6104ec576040517f08c379a00000000000000000000000000000000000000000000000000000000081526004016104e390610ae3565b60405180910390fd5b60019050919050565b6000610500836101d3565b610509816104a1565b506105148484610430565b61052157600091506105ec565b600080600086815260200190815260200160002060000160008573ffffffffffffffffffffffffffffffffffffffff1673ffffffffffffffffffffffffffffffffffffffff16815260200190815260200160002060006101000a81548160ff0219169083151502179055503373ffffffffffffffffffffffffffffffffffffffff168373ffffffffffffffffffffffffffffffffffffffff16857ff6391f5c32d9c69d2a47ea670b442974b53935d1edc7fd64eb21e047a839171b60405160405180910390a4600191505b5092915050565b6000604051905090565b600080fd5b600080fd5b6000819050919050565b61061a81610607565b811461062557600080fd5b50565b60008135905061063781610611565b92915050565b600060208284031215610653576106526105fd565b5b600061066184828501610628565b91505092915050565b61067381610607565b82525050565b600060208201905061068e600083018461066a565b92915050565b600073ffffffffffffffffffffffffffffffffffffffff82169050919050565b60006106bf82610694565b9050919050565b6106cf816106b4565b81146106da57600080fd5b50565b6000813590506106ec816106c6565b92915050565b60008060408385031215610709576107086105fd565b5b600061071785828601610628565b9250506020610728858286016106dd565b9150509250929050565b60008115159050919050565b61074781610732565b82525050565b6000602082019050610762600083018461073e565b92915050565b600080fd5b600080fd5b6000601f19601f8301169050919050565b7f4e487b7100000000000000000000000000000000000000000000000000000000600052604160045260246000fd5b6107bb82610772565b810181811067ffffffffffffffff821117156107da576107d9610783565b5b80604052505050565b60006107ed6105f3565b90506107f982826107b2565b919050565b600067ffffffffffffffff82111561081957610818610783565b5b61082282610772565b9050602081019050919050565b82818337600083830152505050565b600061085161084c846107fe565b6107e3565b90508281526020810184848401111561086d5761086c61076d565b5b61087884828561082f565b509392505050565b600082601f83011261089557610894610768565b5b81356108a584826020860161083e565b91505092915050565b6000806000606084860312156108c7576108c66105fd565b5b60006108d5868287016106dd565b935050602084013567ffffffffffffffff8111156108f6576108f5610602565b5b61090286828701610880565b925050604061091386828701610628565b9150509250925092565b600082825260208201905092915050565b7f426164436f6e6669726d6174696f6e0000000000000000000000000000000000600082015250565b6000610964600f8361091d565b915061096f8261092e565b602082019050919050565b6000602082019050818103600083015261099381610957565b9050919050565b7f594f552048415645204e4f205249474854000000000000000000000000000000600082015250565b60006109d060118361091d565b91506109db8261099a565b602082019050919050565b600060208201905081810360008301526109ff816109c3565b9050919050565b600081519050919050565b600081905092915050565b60005b83811015610a3a578082015181840152602081019050610a1f565b83811115610a49576000848401525b50505050565b6000610a5a82610a06565b610a648185610a11565b9350610a74818560208601610a1c565b80840191505092915050565b6000610a8c8284610a4f565b915081905092915050565b7f556e417574686f72697a65644163636f756e7400000000000000000000000000600082015250565b6000610acd60138361091d565b9150610ad882610a97565b602082019050919050565b60006020820190508181036000830152610afc81610ac0565b905091905056fea26469706673582212208c6a139f7437ad70c5f453681a1b6df3320e88a329d72357765532506eaf845964736f6c634300080b0033",
			"opcodes": "PUSH1 0x80 PUSH1 0x40 MSTORE CALLVALUE DUP1 ISZERO PUSH2 0x10 JUMPI PUSH1 0x0 DUP1 REVERT JUMPDEST POP PUSH1 0x40 MLOAD PUSH2 0x1E2F CODESIZE SUB DUP1 PUSH2 0x1E2F DUP4 CODECOPY DUP2 DUP2 ADD PUSH1 0x40 MSTORE DUP2 ADD SWAP1 PUSH2 0x32 SWAP2 SWAP1 PUSH2 0x15C JUMP JUMPDEST DUP1 PUSH1 0x0 DUP1 PUSH2 0x100 EXP DUP2 SLOAD DUP2 PUSH20 0xFFFFFFFFFFFFFFFFFFFFFFFFFFFFFFFFFFFFFFFF MUL NOT AND SWAP1 DUP4 PUSH20 0xFFFFFFFFFFFFFFFFFFFFFFFFFFFFFFFFFFFFFFFF AND MUL OR SWAP1 SSTORE POP ADDRESS PUSH1 0x40 MLOAD PUSH2 0x7F SWAP1 PUSH2 0xEC JUMP JUMPDEST PUSH2 0x89 SWAP2 SWAP1 PUSH2 0x198 JUMP JUMPDEST PUSH1 0x40 MLOAD DUP1 SWAP2 SUB SWAP1 PUSH1 0x0 CREATE DUP1 ISZERO DUP1 ISZERO PUSH2 0xA5 JUMPI RETURNDATASIZE PUSH1 0x0 DUP1 RETURNDATACOPY RETURNDATASIZE PUSH1 0x0 REVERT JUMPDEST POP PUSH1 0x1 PUSH1 0x0 PUSH2 0x100 EXP DUP2 SLOAD DUP2 PUSH20 0xFFFFFFFFFFFFFFFFFFFFFFFFFFFFFFFFFFFFFFFF MUL NOT AND SWAP1 DUP4 PUSH20 0xFFFFFFFFFFFFFFFFFFFFFFFFFFFFFFFFFFFFFFFF AND MUL OR SWAP1 SSTORE POP POP PUSH2 0x1B3 JUMP JUMPDEST PUSH2 0xC80 DUP1 PUSH2 0x11AF DUP4 CODECOPY ADD SWAP1 JUMP JUMPDEST PUSH1 0x0 DUP1 REVERT JUMPDEST PUSH1 0x0 PUSH20 0xFFFFFFFFFFFFFFFFFFFFFFFFFFFFFFFFFFFFFFFF DUP3 AND SWAP1 POP SWAP2 SWAP1 POP JUMP JUMPDEST PUSH1 0x0 PUSH2 0x129 DUP3 PUSH2 0xFE JUMP JUMPDEST SWAP1 POP SWAP2 SWAP1 POP JUMP JUMPDEST PUSH2 0x139 DUP2 PUSH2 0x11E JUMP JUMPDEST DUP2 EQ PUSH2 0x144 JUMPI PUSH1 0x0 DUP1 REVERT JUMPDEST POP JUMP JUMPDEST PUSH1 0x0 DUP2 MLOAD SWAP1 POP PUSH2 0x156 DUP2 PUSH2 0x130 JUMP JUMPDEST SWAP3 SWAP2 POP POP JUMP JUMPDEST PUSH1 0x0 PUSH1 0x20 DUP3 DUP5 SUB SLT ISZERO PUSH2 0x172 JUMPI PUSH2 0x171 PUSH2 0xF9 JUMP JUMPDEST JUMPDEST PUSH1 0x0 PUSH2 0x180 DUP5 DUP3 DUP6 ADD PUSH2 0x147 JUMP JUMPDEST SWAP2 POP POP SWAP3 SWAP2 POP POP JUMP JUMPDEST PUSH2 0x192 DUP2 PUSH2 0x11E JUMP JUMPDEST DUP3 MSTORE POP POP JUMP JUMPDEST PUSH1 0x0 PUSH1 0x20 DUP3 ADD SWAP1 POP PUSH2 0x1AD PUSH1 0x0 DUP4 ADD DUP5 PUSH2 0x189 JUMP JUMPDEST SWAP3 SWAP2 POP POP JUMP JUMPDEST PUSH2 0xFED DUP1 PUSH2 0x1C2 PUSH1 0x0 CODECOPY PUSH1 0x0 RETURN INVALID PUSH1 0x80 PUSH1 0x40 MSTORE CALLVALUE DUP1 ISZERO PUSH2 0x10 JUMPI PUSH1 0x0 DUP1 REVERT JUMPDEST POP PUSH1 0x4 CALLDATASIZE LT PUSH2 0x2B JUMPI PUSH1 0x0 CALLDATALOAD PUSH1 0xE0 SHR DUP1 PUSH4 0x1A2E1027 EQ PUSH2 0x30 JUMPI JUMPDEST PUSH1 0x0 DUP1 REVERT JUMPDEST PUSH2 0x4A PUSH1 0x4 DUP1 CALLDATASIZE SUB DUP2 ADD SWAP1 PUSH2 0x45 SWAP2 SWAP1 PUSH2 0x40E JUMP JUMPDEST PUSH2 0x60 JUMP JUMPDEST PUSH1 0x40 MLOAD PUSH2 0x57 SWAP2 SWAP1 PUSH2 0x498 JUMP JUMPDEST PUSH1 0x40 MLOAD DUP1 SWAP2 SUB SWAP1 RETURN JUMPDEST PUSH1 0x0 DUP1 PUSH1 0x0 SWAP1 SLOAD SWAP1 PUSH2 0x100 EXP SWAP1 DIV PUSH20 0xFFFFFFFFFFFFFFFFFFFFFFFFFFFFFFFFFFFFFFFF AND PUSH20 0xFFFFFFFFFFFFFFFFFFFFFFFFFFFFFFFFFFFFFFFF AND PUSH4 0x91D14854 DUP6 CALLER PUSH1 0x40 MLOAD DUP4 PUSH4 0xFFFFFFFF AND PUSH1 0xE0 SHL DUP2 MSTORE PUSH1 0x4 ADD PUSH2 0xBE SWAP3 SWAP2 SWAP1 PUSH2 0x4D1 JUMP JUMPDEST PUSH1 0x20 PUSH1 0x40 MLOAD DUP1 DUP4 SUB DUP2 DUP7 GAS STATICCALL ISZERO DUP1 ISZERO PUSH2 0xDB JUMPI RETURNDATASIZE PUSH1 0x0 DUP1 RETURNDATACOPY RETURNDATASIZE PUSH1 0x0 REVERT JUMPDEST POP POP POP POP PUSH1 0x40 MLOAD RETURNDATASIZE PUSH1 0x1F NOT PUSH1 0x1F DUP3 ADD AND DUP3 ADD DUP1 PUSH1 0x40 MSTORE POP DUP2 ADD SWAP1 PUSH2 0xFF SWAP2 SWAP1 PUSH2 0x526 JUMP JUMPDEST PUSH2 0x13E JUMPI PUSH1 0x40 MLOAD PUSH32 0x8C379A000000000000000000000000000000000000000000000000000000000 DUP2 MSTORE PUSH1 0x4 ADD PUSH2 0x135 SWAP1 PUSH2 0x5B0 JUMP JUMPDEST PUSH1 0x40 MLOAD DUP1 SWAP2 SUB SWAP1 REVERT JUMPDEST PUSH1 0x0 DUP3 PUSH1 0x40 MLOAD PUSH2 0x14D SWAP1 PUSH2 0x213 JUMP JUMPDEST PUSH2 0x157 SWAP2 SWAP1 PUSH2 0x5D0 JUMP JUMPDEST PUSH1 0x40 MLOAD DUP1 SWAP2 SUB SWAP1 PUSH1 0x0 CREATE DUP1 ISZERO DUP1 ISZERO PUSH2 0x173 JUMPI RETURNDATASIZE PUSH1 0x0 DUP1 RETURNDATACOPY RETURNDATASIZE PUSH1 0x0 REVERT JUMPDEST POP SWAP1 POP PUSH1 0x1 PUSH1 0x0 SWAP1 SLOAD SWAP1 PUSH2 0x100 EXP SWAP1 DIV PUSH20 0xFFFFFFFFFFFFFFFFFFFFFFFFFFFFFFFFFFFFFFFF AND PUSH20 0xFFFFFFFFFFFFFFFFFFFFFFFFFFFFFFFFFFFFFFFF AND PUSH4 0x36FF8DDE DUP3 DUP7 DUP9 PUSH1 0x40 MLOAD DUP5 PUSH4 0xFFFFFFFF AND PUSH1 0xE0 SHL DUP2 MSTORE PUSH1 0x4 ADD PUSH2 0x1D5 SWAP4 SWAP3 SWAP2 SWAP1 PUSH2 0x662 JUMP JUMPDEST PUSH1 0x0 PUSH1 0x40 MLOAD DUP1 DUP4 SUB DUP2 PUSH1 0x0 DUP8 DUP1 EXTCODESIZE ISZERO DUP1 ISZERO PUSH2 0x1EF JUMPI PUSH1 0x0 DUP1 REVERT JUMPDEST POP GAS CALL ISZERO DUP1 ISZERO PUSH2 0x203 JUMPI RETURNDATASIZE PUSH1 0x0 DUP1 RETURNDATACOPY RETURNDATASIZE PUSH1 0x0 REVERT JUMPDEST POP POP POP POP PUSH1 0x1 SWAP2 POP POP SWAP4 SWAP3 POP POP POP JUMP JUMPDEST PUSH2 0x917 DUP1 PUSH2 0x6A1 DUP4 CODECOPY ADD SWAP1 JUMP JUMPDEST PUSH1 0x0 PUSH1 0x40 MLOAD SWAP1 POP SWAP1 JUMP JUMPDEST PUSH1 0x0 DUP1 REVERT JUMPDEST PUSH1 0x0 DUP1 REVERT JUMPDEST PUSH1 0x0 DUP2 SWAP1 POP SWAP2 SWAP1 POP JUMP JUMPDEST PUSH2 0x247 DUP2 PUSH2 0x234 JUMP JUMPDEST DUP2 EQ PUSH2 0x252 JUMPI PUSH1 0x0 DUP1 REVERT JUMPDEST POP JUMP JUMPDEST PUSH1 0x0 DUP2 CALLDATALOAD SWAP1 POP PUSH2 0x264 DUP2 PUSH2 0x23E JUMP JUMPDEST SWAP3 SWAP2 POP POP JUMP JUMPDEST PUSH1 0x0 DUP1 REVERT JUMPDEST PUSH1 0x0 DUP1 REVERT JUMPDEST PUSH1 0x0 PUSH1 0x1F NOT PUSH1 0x1F DUP4 ADD AND SWAP1 POP SWAP2 SWAP1 POP JUMP JUMPDEST PUSH32 0x4E487B7100000000000000000000000000000000000000000000000000000000 PUSH1 0x0 MSTORE PUSH1 0x41 PUSH1 0x4 MSTORE PUSH1 0x24 PUSH1 0x0 REVERT JUMPDEST PUSH2 0x2BD DUP3 PUSH2 0x274 JUMP JUMPDEST DUP2 ADD DUP2 DUP2 LT PUSH8 0xFFFFFFFFFFFFFFFF DUP3 GT OR ISZERO PUSH2 0x2DC JUMPI PUSH2 0x2DB PUSH2 0x285 JUMP JUMPDEST JUMPDEST DUP1 PUSH1 0x40 MSTORE POP POP POP JUMP JUMPDEST PUSH1 0x0 PUSH2 0x2EF PUSH2 0x220 JUMP JUMPDEST SWAP1 POP PUSH2 0x2FB DUP3 DUP3 PUSH2 0x2B4 JUMP JUMPDEST SWAP2 SWAP1 POP JUMP JUMPDEST PUSH1 0x0 PUSH8 0xFFFFFFFFFFFFFFFF DUP3 GT ISZERO PUSH2 0x31B JUMPI PUSH2 0x31A PUSH2 0x285 JUMP JUMPDEST JUMPDEST PUSH2 0x324 DUP3 PUSH2 0x274 JUMP JUMPDEST SWAP1 POP PUSH1 0x20 DUP2 ADD SWAP1 POP SWAP2 SWAP1 POP JUMP JUMPDEST DUP3 DUP2 DUP4 CALLDATACOPY PUSH1 0x0 DUP4 DUP4 ADD MSTORE POP POP POP JUMP JUMPDEST PUSH1 0x0 PUSH2 0x353 PUSH2 0x34E DUP5 PUSH2 0x300 JUMP JUMPDEST PUSH2 0x2E5 JUMP JUMPDEST SWAP1 POP DUP3 DUP2 MSTORE PUSH1 0x20 DUP2 ADD DUP5 DUP5 DUP5 ADD GT ISZERO PUSH2 0x36F JUMPI PUSH2 0x36E PUSH2 0x26F JUMP JUMPDEST JUMPDEST PUSH2 0x37A DUP5 DUP3 DUP6 PUSH2 0x331 JUMP JUMPDEST POP SWAP4 SWAP3 POP POP POP JUMP JUMPDEST PUSH1 0x0 DUP3 PUSH1 0x1F DUP4 ADD SLT PUSH2 0x397 JUMPI PUSH2 0x396 PUSH2 0x26A JUMP JUMPDEST JUMPDEST DUP2 CALLDATALOAD PUSH2 0x3A7 DUP5 DUP3 PUSH1 0x20 DUP7 ADD PUSH2 0x340 JUMP JUMPDEST SWAP2 POP POP SWAP3 SWAP2 POP POP JUMP JUMPDEST PUSH1 0x0 PUSH20 0xFFFFFFFFFFFFFFFFFFFFFFFFFFFFFFFFFFFFFFFF DUP3 AND SWAP1 POP SWAP2 SWAP1 POP JUMP JUMPDEST PUSH1 0x0 PUSH2 0x3DB DUP3 PUSH2 0x3B0 JUMP JUMPDEST SWAP1 POP SWAP2 SWAP1 POP JUMP JUMPDEST PUSH2 0x3EB DUP2 PUSH2 0x3D0 JUMP JUMPDEST DUP2 EQ PUSH2 0x3F6 JUMPI PUSH1 0x0 DUP1 REVERT JUMPDEST POP JUMP JUMPDEST PUSH1 0x0 DUP2 CALLDATALOAD SWAP1 POP PUSH2 0x408 DUP2 PUSH2 0x3E2 JUMP JUMPDEST SWAP3 SWAP2 POP POP JUMP JUMPDEST PUSH1 0x0 DUP1 PUSH1 0x0 PUSH1 0x60 DUP5 DUP7 SUB SLT ISZERO PUSH2 0x427 JUMPI PUSH2 0x426 PUSH2 0x22A JUMP JUMPDEST JUMPDEST PUSH1 0x0 PUSH2 0x435 DUP7 DUP3 DUP8 ADD PUSH2 0x255 JUMP JUMPDEST SWAP4 POP POP PUSH1 0x20 DUP5 ADD CALLDATALOAD PUSH8 0xFFFFFFFFFFFFFFFF DUP2 GT ISZERO PUSH2 0x456 JUMPI PUSH2 0x455 PUSH2 0x22F JUMP JUMPDEST JUMPDEST PUSH2 0x462 DUP7 DUP3 DUP8 ADD PUSH2 0x382 JUMP JUMPDEST SWAP3 POP POP PUSH1 0x40 PUSH2 0x473 DUP7 DUP3 DUP8 ADD PUSH2 0x3F9 JUMP JUMPDEST SWAP2 POP POP SWAP3 POP SWAP3 POP SWAP3 JUMP JUMPDEST PUSH1 0x0 DUP2 ISZERO ISZERO SWAP1 POP SWAP2 SWAP1 POP JUMP JUMPDEST PUSH2 0x492 DUP2 PUSH2 0x47D JUMP JUMPDEST DUP3 MSTORE POP POP JUMP JUMPDEST PUSH1 0x0 PUSH1 0x20 DUP3 ADD SWAP1 POP PUSH2 0x4AD PUSH1 0x0 DUP4 ADD DUP5 PUSH2 0x489 JUMP JUMPDEST SWAP3 SWAP2 POP POP JUMP JUMPDEST PUSH2 0x4BC DUP2 PUSH2 0x234 JUMP JUMPDEST DUP3 MSTORE POP POP JUMP JUMPDEST PUSH2 0x4CB DUP2 PUSH2 0x3D0 JUMP JUMPDEST DUP3 MSTORE POP POP JUMP JUMPDEST PUSH1 0x0 PUSH1 0x40 DUP3 ADD SWAP1 POP PUSH2 0x4E6 PUSH1 0x0 DUP4 ADD DUP6 PUSH2 0x4B3 JUMP JUMPDEST PUSH2 0x4F3 PUSH1 0x20 DUP4 ADD DUP5 PUSH2 0x4C2 JUMP JUMPDEST SWAP4 SWAP3 POP POP POP JUMP JUMPDEST PUSH2 0x503 DUP2 PUSH2 0x47D JUMP JUMPDEST DUP2 EQ PUSH2 0x50E JUMPI PUSH1 0x0 DUP1 REVERT JUMPDEST POP JUMP JUMPDEST PUSH1 0x0 DUP2 MLOAD SWAP1 POP PUSH2 0x520 DUP2 PUSH2 0x4FA JUMP JUMPDEST SWAP3 SWAP2 POP POP JUMP JUMPDEST PUSH1 0x0 PUSH1 0x20 DUP3 DUP5 SUB SLT ISZERO PUSH2 0x53C JUMPI PUSH2 0x53B PUSH2 0x22A JUMP JUMPDEST JUMPDEST PUSH1 0x0 PUSH2 0x54A DUP5 DUP3 DUP6 ADD PUSH2 0x511 JUMP JUMPDEST SWAP2 POP POP SWAP3 SWAP2 POP POP JUMP JUMPDEST PUSH1 0x0 DUP3 DUP3 MSTORE PUSH1 0x20 DUP3 ADD SWAP1 POP SWAP3 SWAP2 POP POP JUMP JUMPDEST PUSH32 0x594F5520415245204E4F542054484520444F4D41494E2041444D494E00000000 PUSH1 0x0 DUP3 ADD MSTORE POP JUMP JUMPDEST PUSH1 0x0 PUSH2 0x59A PUSH1 0x1C DUP4 PUSH2 0x553 JUMP JUMPDEST SWAP2 POP PUSH2 0x5A5 DUP3 PUSH2 0x564 JUMP JUMPDEST PUSH1 0x20 DUP3 ADD SWAP1 POP SWAP2 SWAP1 POP JUMP JUMPDEST PUSH1 0x0 PUSH1 0x20 DUP3 ADD SWAP1 POP DUP2 DUP2 SUB PUSH1 0x0 DUP4 ADD MSTORE PUSH2 0x5C9 DUP2 PUSH2 0x58D JUMP JUMPDEST SWAP1 POP SWAP2 SWAP1 POP JUMP JUMPDEST PUSH1 0x0 PUSH1 0x20 DUP3 ADD SWAP1 POP PUSH2 0x5E5 PUSH1 0x0 DUP4 ADD DUP5 PUSH2 0x4C2 JUMP JUMPDEST SWAP3 SWAP2 POP POP JUMP JUMPDEST PUSH1 0x0 DUP2 MLOAD SWAP1 POP SWAP2 SWAP1 POP JUMP JUMPDEST PUSH1 0x0 JUMPDEST DUP4 DUP2 LT ISZERO PUSH2 0x614 JUMPI DUP1 DUP3 ADD MLOAD DUP2 DUP5 ADD MSTORE PUSH1 0x20 DUP2 ADD SWAP1 POP PUSH2 0x5F9 JUMP JUMPDEST DUP4 DUP2 GT ISZERO PUSH2 0x623 JUMPI PUSH1 0x0 DUP5 DUP5 ADD MSTORE JUMPDEST POP POP POP POP JUMP JUMPDEST PUSH1 0x0 PUSH2 0x634 DUP3 PUSH2 0x5EB JUMP JUMPDEST PUSH2 0x63E DUP2 DUP6 PUSH2 0x553 JUMP JUMPDEST SWAP4 POP PUSH2 0x64E DUP2 DUP6 PUSH1 0x20 DUP7 ADD PUSH2 0x5F6 JUMP JUMPDEST PUSH2 0x657 DUP2 PUSH2 0x274 JUMP JUMPDEST DUP5 ADD SWAP2 POP POP SWAP3 SWAP2 POP POP JUMP JUMPDEST PUSH1 0x0 PUSH1 0x60 DUP3 ADD SWAP1 POP PUSH2 0x677 PUSH1 0x0 DUP4 ADD DUP7 PUSH2 0x4C2 JUMP JUMPDEST DUP2 DUP2 SUB PUSH1 0x20 DUP4 ADD MSTORE PUSH2 0x689 DUP2 DUP6 PUSH2 0x629 JUMP JUMPDEST SWAP1 POP PUSH2 0x698 PUSH1 0x40 DUP4 ADD DUP5 PUSH2 0x4B3 JUMP JUMPDEST SWAP5 SWAP4 POP POP POP POP JUMP INVALID PUSH1 0x80 PUSH1 0x40 MSTORE CALLVALUE DUP1 ISZERO PUSH2 0x10 JUMPI PUSH1 0x0 DUP1 REVERT JUMPDEST POP PUSH1 0x40 MLOAD PUSH2 0x917 CODESIZE SUB DUP1 PUSH2 0x917 DUP4 CODECOPY DUP2 DUP2 ADD PUSH1 0x40 MSTORE DUP2 ADD SWAP1 PUSH2 0x32 SWAP2 SWAP1 PUSH2 0x14C JUMP JUMPDEST DUP1 PUSH1 0x1 PUSH1 0x0 DUP1 DUP1 PUSH1 0x0 SHL DUP2 MSTORE PUSH1 0x20 ADD SWAP1 DUP2 MSTORE PUSH1 0x20 ADD PUSH1 0x0 KECCAK256 PUSH1 0x0 ADD PUSH1 0x0 DUP4 PUSH20 0xFFFFFFFFFFFFFFFFFFFFFFFFFFFFFFFFFFFFFFFF AND PUSH20 0xFFFFFFFFFFFFFFFFFFFFFFFFFFFFFFFFFFFFFFFF AND DUP2 MSTORE PUSH1 0x20 ADD SWAP1 DUP2 MSTORE PUSH1 0x20 ADD PUSH1 0x0 KECCAK256 PUSH1 0x0 PUSH2 0x100 EXP DUP2 SLOAD DUP2 PUSH1 0xFF MUL NOT AND SWAP1 DUP4 ISZERO ISZERO MUL OR SWAP1 SSTORE POP POP DUP1 PUSH1 0x1 PUSH1 0x0 PUSH2 0x100 EXP DUP2 SLOAD DUP2 PUSH20 0xFFFFFFFFFFFFFFFFFFFFFFFFFFFFFFFFFFFFFFFF MUL NOT AND SWAP1 DUP4 PUSH20 0xFFFFFFFFFFFFFFFFFFFFFFFFFFFFFFFFFFFFFFFF AND MUL OR SWAP1 SSTORE POP POP PUSH2 0x179 JUMP JUMPDEST PUSH1 0x0 DUP1 REVERT JUMPDEST PUSH1 0x0 PUSH20 0xFFFFFFFFFFFFFFFFFFFFFFFFFFFFFFFFFFFFFFFF DUP3 AND SWAP1 POP SWAP2 SWAP1 POP JUMP JUMPDEST PUSH1 0x0 PUSH2 0x119 DUP3 PUSH2 0xEE JUMP JUMPDEST SWAP1 POP SWAP2 SWAP1 POP JUMP JUMPDEST PUSH2 0x129 DUP2 PUSH2 0x10E JUMP JUMPDEST DUP2 EQ PUSH2 0x134 JUMPI PUSH1 0x0 DUP1 REVERT JUMPDEST POP JUMP JUMPDEST PUSH1 0x0 DUP2 MLOAD SWAP1 POP PUSH2 0x146 DUP2 PUSH2 0x120 JUMP JUMPDEST SWAP3 SWAP2 POP POP JUMP JUMPDEST PUSH1 0x0 PUSH1 0x20 DUP3 DUP5 SUB SLT ISZERO PUSH2 0x162 JUMPI PUSH2 0x161 PUSH2 0xE9 JUMP JUMPDEST JUMPDEST PUSH1 0x0 PUSH2 0x170 DUP5 DUP3 DUP6 ADD PUSH2 0x137 JUMP JUMPDEST SWAP2 POP POP SWAP3 SWAP2 POP POP JUMP JUMPDEST PUSH2 0x78F DUP1 PUSH2 0x188 PUSH1 0x0 CODECOPY PUSH1 0x0 RETURN INVALID PUSH1 0x80 PUSH1 0x40 MSTORE CALLVALUE DUP1 ISZERO PUSH2 0x10 JUMPI PUSH1 0x0 DUP1 REVERT JUMPDEST POP PUSH1 0x4 CALLDATASIZE LT PUSH2 0x7D JUMPI PUSH1 0x0 CALLDATALOAD PUSH1 0xE0 SHR DUP1 PUSH4 0x91D14854 GT PUSH2 0x5B JUMPI DUP1 PUSH4 0x91D14854 EQ PUSH2 0xFE JUMPI DUP1 PUSH4 0x9CDEBA95 EQ PUSH2 0x12E JUMPI DUP1 PUSH4 0xC5B95190 EQ PUSH2 0x14C JUMPI DUP1 PUSH4 0xD547741F EQ PUSH2 0x17C JUMPI PUSH2 0x7D JUMP JUMPDEST DUP1 PUSH4 0x248A9CA3 EQ PUSH2 0x82 JUMPI DUP1 PUSH4 0x2F2FF15D EQ PUSH2 0xB2 JUMPI DUP1 PUSH4 0x36568ABE EQ PUSH2 0xE2 JUMPI JUMPDEST PUSH1 0x0 DUP1 REVERT JUMPDEST PUSH2 0x9C PUSH1 0x4 DUP1 CALLDATASIZE SUB DUP2 ADD SWAP1 PUSH2 0x97 SWAP2 SWAP1 PUSH2 0x545 JUMP JUMPDEST PUSH2 0x1AC JUMP JUMPDEST PUSH1 0x40 MLOAD PUSH2 0xA9 SWAP2 SWAP1 PUSH2 0x581 JUMP JUMPDEST PUSH1 0x40 MLOAD DUP1 SWAP2 SUB SWAP1 RETURN JUMPDEST PUSH2 0xCC PUSH1 0x4 DUP1 CALLDATASIZE SUB DUP2 ADD SWAP1 PUSH2 0xC7 SWAP2 SWAP1 PUSH2 0x5FA JUMP JUMPDEST PUSH2 0x1CB JUMP JUMPDEST PUSH1 0x40 MLOAD PUSH2 0xD9 SWAP2 SWAP1 PUSH2 0x655 JUMP JUMPDEST PUSH1 0x40 MLOAD DUP1 SWAP2 SUB SWAP1 RETURN JUMPDEST PUSH2 0xFC PUSH1 0x4 DUP1 CALLDATASIZE SUB DUP2 ADD SWAP1 PUSH2 0xF7 SWAP2 SWAP1 PUSH2 0x5FA JUMP JUMPDEST PUSH2 0x2CA JUMP JUMPDEST STOP JUMPDEST PUSH2 0x118 PUSH1 0x4 DUP1 CALLDATASIZE SUB DUP2 ADD SWAP1 PUSH2 0x113 SWAP2 SWAP1 PUSH2 0x5FA JUMP JUMPDEST PUSH2 0x347 JUMP JUMPDEST PUSH1 0x40 MLOAD PUSH2 0x125 SWAP2 SWAP1 PUSH2 0x655 JUMP JUMPDEST PUSH1 0x40 MLOAD DUP1 SWAP2 SUB SWAP1 RETURN JUMPDEST PUSH2 0x136 PUSH2 0x3B1 JUMP JUMPDEST PUSH1 0x40 MLOAD PUSH2 0x143 SWAP2 SWAP1 PUSH2 0x581 JUMP JUMPDEST PUSH1 0x40 MLOAD DUP1 SWAP2 SUB SWAP1 RETURN JUMPDEST PUSH2 0x166 PUSH1 0x4 DUP1 CALLDATASIZE SUB DUP2 ADD SWAP1 PUSH2 0x161 SWAP2 SWAP1 PUSH2 0x545 JUMP JUMPDEST PUSH2 0x3B8 JUMP JUMPDEST PUSH1 0x40 MLOAD PUSH2 0x173 SWAP2 SWAP1 PUSH2 0x655 JUMP JUMPDEST PUSH1 0x40 MLOAD DUP1 SWAP2 SUB SWAP1 RETURN JUMPDEST PUSH2 0x196 PUSH1 0x4 DUP1 CALLDATASIZE SUB DUP2 ADD SWAP1 PUSH2 0x191 SWAP2 SWAP1 PUSH2 0x5FA JUMP JUMPDEST PUSH2 0x40C JUMP JUMPDEST PUSH1 0x40 MLOAD PUSH2 0x1A3 SWAP2 SWAP1 PUSH2 0x655 JUMP JUMPDEST PUSH1 0x40 MLOAD DUP1 SWAP2 SUB SWAP1 RETURN JUMPDEST PUSH1 0x0 DUP1 PUSH1 0x0 DUP4 DUP2 MSTORE PUSH1 0x20 ADD SWAP1 DUP2 MSTORE PUSH1 0x20 ADD PUSH1 0x0 KECCAK256 PUSH1 0x1 ADD SLOAD SWAP1 POP SWAP2 SWAP1 POP JUMP JUMPDEST PUSH1 0x0 PUSH2 0x1D6 DUP4 PUSH2 0x1AC JUMP JUMPDEST PUSH2 0x1DF DUP2 PUSH2 0x3B8 JUMP JUMPDEST POP PUSH2 0x1EA DUP5 DUP5 PUSH2 0x347 JUMP JUMPDEST ISZERO PUSH2 0x1F8 JUMPI PUSH1 0x0 SWAP2 POP PUSH2 0x2C3 JUMP JUMPDEST PUSH1 0x1 PUSH1 0x0 DUP1 DUP7 DUP2 MSTORE PUSH1 0x20 ADD SWAP1 DUP2 MSTORE PUSH1 0x20 ADD PUSH1 0x0 KECCAK256 PUSH1 0x0 ADD PUSH1 0x0 DUP6 PUSH20 0xFFFFFFFFFFFFFFFFFFFFFFFFFFFFFFFFFFFFFFFF AND PUSH20 0xFFFFFFFFFFFFFFFFFFFFFFFFFFFFFFFFFFFFFFFF AND DUP2 MSTORE PUSH1 0x20 ADD SWAP1 DUP2 MSTORE PUSH1 0x20 ADD PUSH1 0x0 KECCAK256 PUSH1 0x0 PUSH2 0x100 EXP DUP2 SLOAD DUP2 PUSH1 0xFF MUL NOT AND SWAP1 DUP4 ISZERO ISZERO MUL OR SWAP1 SSTORE POP CALLER PUSH20 0xFFFFFFFFFFFFFFFFFFFFFFFFFFFFFFFFFFFFFFFF AND DUP4 PUSH20 0xFFFFFFFFFFFFFFFFFFFFFFFFFFFFFFFFFFFFFFFF AND DUP6 PUSH32 0x2F8788117E7EFF1D82E926EC794901D17C78024A50270940304540A733656F0D PUSH1 0x40 MLOAD PUSH1 0x40 MLOAD DUP1 SWAP2 SUB SWAP1 LOG4 PUSH1 0x1 SWAP2 POP JUMPDEST POP SWAP3 SWAP2 POP POP JUMP JUMPDEST CALLER PUSH20 0xFFFFFFFFFFFFFFFFFFFFFFFFFFFFFFFFFFFFFFFF AND DUP2 PUSH20 0xFFFFFFFFFFFFFFFFFFFFFFFFFFFFFFFFFFFFFFFF AND EQ PUSH2 0x338 JUMPI PUSH1 0x40 MLOAD PUSH32 0x8C379A000000000000000000000000000000000000000000000000000000000 DUP2 MSTORE PUSH1 0x4 ADD PUSH2 0x32F SWAP1 PUSH2 0x6CD JUMP JUMPDEST PUSH1 0x40 MLOAD DUP1 SWAP2 SUB SWAP1 REVERT JUMPDEST PUSH2 0x342 DUP3 DUP3 PUSH2 0x40C JUMP JUMPDEST POP POP POP JUMP JUMPDEST PUSH1 0x0 DUP1 PUSH1 0x0 DUP5 DUP2 MSTORE PUSH1 0x20 ADD SWAP1 DUP2 MSTORE PUSH1 0x20 ADD PUSH1 0x0 KECCAK256 PUSH1 0x0 ADD PUSH1 0x0 DUP4 PUSH20 0xFFFFFFFFFFFFFFFFFFFFFFFFFFFFFFFFFFFFFFFF AND PUSH20 0xFFFFFFFFFFFFFFFFFFFFFFFFFFFFFFFFFFFFFFFF AND DUP2 MSTORE PUSH1 0x20 ADD SWAP1 DUP2 MSTORE PUSH1 0x20 ADD PUSH1 0x0 KECCAK256 PUSH1 0x0 SWAP1 SLOAD SWAP1 PUSH2 0x100 EXP SWAP1 DIV PUSH1 0xFF AND SWAP1 POP SWAP3 SWAP2 POP POP JUMP JUMPDEST PUSH1 0x0 DUP1 SHL DUP2 JUMP JUMPDEST PUSH1 0x0 PUSH2 0x3C4 DUP3 CALLER PUSH2 0x347 JUMP JUMPDEST PUSH2 0x403 JUMPI PUSH1 0x40 MLOAD PUSH32 0x8C379A000000000000000000000000000000000000000000000000000000000 DUP2 MSTORE PUSH1 0x4 ADD PUSH2 0x3FA SWAP1 PUSH2 0x739 JUMP JUMPDEST PUSH1 0x40 MLOAD DUP1 SWAP2 SUB SWAP1 REVERT JUMPDEST PUSH1 0x1 SWAP1 POP SWAP2 SWAP1 POP JUMP JUMPDEST PUSH1 0x0 PUSH2 0x417 DUP4 PUSH2 0x1AC JUMP JUMPDEST PUSH2 0x420 DUP2 PUSH2 0x3B8 JUMP JUMPDEST POP PUSH2 0x42B DUP5 DUP5 PUSH2 0x347 JUMP JUMPDEST PUSH2 0x438 JUMPI PUSH1 0x0 SWAP2 POP PUSH2 0x503 JUMP JUMPDEST PUSH1 0x0 DUP1 PUSH1 0x0 DUP7 DUP2 MSTORE PUSH1 0x20 ADD SWAP1 DUP2 MSTORE PUSH1 0x20 ADD PUSH1 0x0 KECCAK256 PUSH1 0x0 ADD PUSH1 0x0 DUP6 PUSH20 0xFFFFFFFFFFFFFFFFFFFFFFFFFFFFFFFFFFFFFFFF AND PUSH20 0xFFFFFFFFFFFFFFFFFFFFFFFFFFFFFFFFFFFFFFFF AND DUP2 MSTORE PUSH1 0x20 ADD SWAP1 DUP2 MSTORE PUSH1 0x20 ADD PUSH1 0x0 KECCAK256 PUSH1 0x0 PUSH2 0x100 EXP DUP2 SLOAD DUP2 PUSH1 0xFF MUL NOT AND SWAP1 DUP4 ISZERO ISZERO MUL OR SWAP1 SSTORE POP CALLER PUSH20 0xFFFFFFFFFFFFFFFFFFFFFFFFFFFFFFFFFFFFFFFF AND DUP4 PUSH20 0xFFFFFFFFFFFFFFFFFFFFFFFFFFFFFFFFFFFFFFFF AND DUP6 PUSH32 0xF6391F5C32D9C69D2A47EA670B442974B53935D1EDC7FD64EB21E047A839171B PUSH1 0x40 MLOAD PUSH1 0x40 MLOAD DUP1 SWAP2 SUB SWAP1 LOG4 PUSH1 0x1 SWAP2 POP JUMPDEST POP SWAP3 SWAP2 POP POP JUMP JUMPDEST PUSH1 0x0 DUP1 REVERT JUMPDEST PUSH1 0x0 DUP2 SWAP1 POP SWAP2 SWAP1 POP JUMP JUMPDEST PUSH2 0x522 DUP2 PUSH2 0x50F JUMP JUMPDEST DUP2 EQ PUSH2 0x52D JUMPI PUSH1 0x0 DUP1 REVERT JUMPDEST POP JUMP JUMPDEST PUSH1 0x0 DUP2 CALLDATALOAD SWAP1 POP PUSH2 0x53F DUP2 PUSH2 0x519 JUMP JUMPDEST SWAP3 SWAP2 POP POP JUMP JUMPDEST PUSH1 0x0 PUSH1 0x20 DUP3 DUP5 SUB SLT ISZERO PUSH2 0x55B JUMPI PUSH2 0x55A PUSH2 0x50A JUMP JUMPDEST JUMPDEST PUSH1 0x0 PUSH2 0x569 DUP5 DUP3 DUP6 ADD PUSH2 0x530 JUMP JUMPDEST SWAP2 POP POP SWAP3 SWAP2 POP POP JUMP JUMPDEST PUSH2 0x57B DUP2 PUSH2 0x50F JUMP JUMPDEST DUP3 MSTORE POP POP JUMP JUMPDEST PUSH1 0x0 PUSH1 0x20 DUP3 ADD SWAP1 POP PUSH2 0x596 PUSH1 0x0 DUP4 ADD DUP5 PUSH2 0x572 JUMP JUMPDEST SWAP3 SWAP2 POP POP JUMP JUMPDEST PUSH1 0x0 PUSH20 0xFFFFFFFFFFFFFFFFFFFFFFFFFFFFFFFFFFFFFFFF DUP3 AND SWAP1 POP SWAP2 SWAP1 POP JUMP JUMPDEST PUSH1 0x0 PUSH2 0x5C7 DUP3 PUSH2 0x59C JUMP JUMPDEST SWAP1 POP SWAP2 SWAP1 POP JUMP JUMPDEST PUSH2 0x5D7 DUP2 PUSH2 0x5BC JUMP JUMPDEST DUP2 EQ PUSH2 0x5E2 JUMPI PUSH1 0x0 DUP1 REVERT JUMPDEST POP JUMP JUMPDEST PUSH1 0x0 DUP2 CALLDATALOAD SWAP1 POP PUSH2 0x5F4 DUP2 PUSH2 0x5CE JUMP JUMPDEST SWAP3 SWAP2 POP POP JUMP JUMPDEST PUSH1 0x0 DUP1 PUSH1 0x40 DUP4 DUP6 SUB SLT ISZERO PUSH2 0x611 JUMPI PUSH2 0x610 PUSH2 0x50A JUMP JUMPDEST JUMPDEST PUSH1 0x0 PUSH2 0x61F DUP6 DUP3 DUP7 ADD PUSH2 0x530 JUMP JUMPDEST SWAP3 POP POP PUSH1 0x20 PUSH2 0x630 DUP6 DUP3 DUP7 ADD PUSH2 0x5E5 JUMP JUMPDEST SWAP2 POP POP SWAP3 POP SWAP3 SWAP1 POP JUMP JUMPDEST PUSH1 0x0 DUP2 ISZERO ISZERO SWAP1 POP SWAP2 SWAP1 POP JUMP JUMPDEST PUSH2 0x64F DUP2 PUSH2 0x63A JUMP JUMPDEST DUP3 MSTORE POP POP JUMP JUMPDEST PUSH1 0x0 PUSH1 0x20 DUP3 ADD SWAP1 POP PUSH2 0x66A PUSH1 0x0 DUP4 ADD DUP5 PUSH2 0x646 JUMP JUMPDEST SWAP3 SWAP2 POP POP JUMP JUMPDEST PUSH1 0x0 DUP3 DUP3 MSTORE PUSH1 0x20 DUP3 ADD SWAP1 POP SWAP3 SWAP2 POP POP JUMP JUMPDEST PUSH32 0x426164436F6E6669726D6174696F6E0000000000000000000000000000000000 PUSH1 0x0 DUP3 ADD MSTORE POP JUMP JUMPDEST PUSH1 0x0 PUSH2 0x6B7 PUSH1 0xF DUP4 PUSH2 0x670 JUMP JUMPDEST SWAP2 POP PUSH2 0x6C2 DUP3 PUSH2 0x681 JUMP JUMPDEST PUSH1 0x20 DUP3 ADD SWAP1 POP SWAP2 SWAP1 POP JUMP JUMPDEST PUSH1 0x0 PUSH1 0x20 DUP3 ADD SWAP1 POP DUP2 DUP2 SUB PUSH1 0x0 DUP4 ADD MSTORE PUSH2 0x6E6 DUP2 PUSH2 0x6AA JUMP JUMPDEST SWAP1 POP SWAP2 SWAP1 POP JUMP JUMPDEST PUSH32 0x556E417574686F72697A65644163636F756E7400000000000000000000000000 PUSH1 0x0 DUP3 ADD MSTORE POP JUMP JUMPDEST PUSH1 0x0 PUSH2 0x723 PUSH1 0x13 DUP4 PUSH2 0x670 JUMP JUMPDEST SWAP2 POP PUSH2 0x72E DUP3 PUSH2 0x6ED JUMP JUMPDEST PUSH1 0x20 DUP3 ADD SWAP1 POP SWAP2 SWAP1 POP JUMP JUMPDEST PUSH1 0x0 PUSH1 0x20 DUP3 ADD SWAP1 POP DUP2 DUP2 SUB PUSH1 0x0 DUP4 ADD MSTORE PUSH2 0x752 DUP2 PUSH2 0x716 JUMP JUMPDEST SWAP1 POP SWAP2 SWAP1 POP JUMP INVALID LOG2 PUSH5 0x6970667358 0x22 SLT KECCAK256 0xCF MOD 0xC9 GAS EXTCODECOPY 0xE2 PUSH19 0x526B7FE1F70ECDE32D035B7CF317FFD93D2E4F SHR 0xB2 0xC3 PUSH19 0x3B9064736F6C634300080B0033A26469706673 PC 0x22 SLT KECCAK256 0x4D 0xB6 DIFFICULTY 0xD5 0xAE 0xCF GT SWAP9 DUP11 0xC9 0xF7 PUSH31 0x4A8E30231C659FBED304C32687B9FB433689E9A264736F6C634300080B0033 PUSH1 0x80 PUSH1 0x40 MSTORE CALLVALUE DUP1 ISZERO PUSH2 0x10 JUMPI PUSH1 0x0 DUP1 REVERT JUMPDEST POP PUSH1 0x40 MLOAD PUSH2 0xC80 CODESIZE SUB DUP1 PUSH2 0xC80 DUP4 CODECOPY DUP2 DUP2 ADD PUSH1 0x40 MSTORE DUP2 ADD SWAP1 PUSH2 0x32 SWAP2 SWAP1 PUSH2 0x10B JUMP JUMPDEST DUP1 PUSH1 0x1 PUSH1 0x0 DUP1 DUP1 PUSH1 0x0 SHL DUP2 MSTORE PUSH1 0x20 ADD SWAP1 DUP2 MSTORE PUSH1 0x20 ADD PUSH1 0x0 KECCAK256 PUSH1 0x0 ADD PUSH1 0x0 DUP4 PUSH20 0xFFFFFFFFFFFFFFFFFFFFFFFFFFFFFFFFFFFFFFFF AND PUSH20 0xFFFFFFFFFFFFFFFFFFFFFFFFFFFFFFFFFFFFFFFF AND DUP2 MSTORE PUSH1 0x20 ADD SWAP1 DUP2 MSTORE PUSH1 0x20 ADD PUSH1 0x0 KECCAK256 PUSH1 0x0 PUSH2 0x100 EXP DUP2 SLOAD DUP2 PUSH1 0xFF MUL NOT AND SWAP1 DUP4 ISZERO ISZERO MUL OR SWAP1 SSTORE POP POP POP PUSH2 0x138 JUMP JUMPDEST PUSH1 0x0 DUP1 REVERT JUMPDEST PUSH1 0x0 PUSH20 0xFFFFFFFFFFFFFFFFFFFFFFFFFFFFFFFFFFFFFFFF DUP3 AND SWAP1 POP SWAP2 SWAP1 POP JUMP JUMPDEST PUSH1 0x0 PUSH2 0xD8 DUP3 PUSH2 0xAD JUMP JUMPDEST SWAP1 POP SWAP2 SWAP1 POP JUMP JUMPDEST PUSH2 0xE8 DUP2 PUSH2 0xCD JUMP JUMPDEST DUP2 EQ PUSH2 0xF3 JUMPI PUSH1 0x0 DUP1 REVERT JUMPDEST POP JUMP JUMPDEST PUSH1 0x0 DUP2 MLOAD SWAP1 POP PUSH2 0x105 DUP2 PUSH2 0xDF JUMP JUMPDEST SWAP3 SWAP2 POP POP JUMP JUMPDEST PUSH1 0x0 PUSH1 0x20 DUP3 DUP5 SUB SLT ISZERO PUSH2 0x121 JUMPI PUSH2 0x120 PUSH2 0xA8 JUMP JUMPDEST JUMPDEST PUSH1 0x0 PUSH2 0x12F DUP5 DUP3 DUP6 ADD PUSH2 0xF6 JUMP JUMPDEST SWAP2 POP POP SWAP3 SWAP2 POP POP JUMP JUMPDEST PUSH2 0xB39 DUP1 PUSH2 0x147 PUSH1 0x0 CODECOPY PUSH1 0x0 RETURN INVALID PUSH1 0x80 PUSH1 0x40 MSTORE CALLVALUE DUP1 ISZERO PUSH2 0x10 JUMPI PUSH1 0x0 DUP1 REVERT JUMPDEST POP PUSH1 0x4 CALLDATASIZE LT PUSH2 0x88 JUMPI PUSH1 0x0 CALLDATALOAD PUSH1 0xE0 SHR DUP1 PUSH4 0x91D14854 GT PUSH2 0x5B JUMPI DUP1 PUSH4 0x91D14854 EQ PUSH2 0x125 JUMPI DUP1 PUSH4 0x9CDEBA95 EQ PUSH2 0x155 JUMPI DUP1 PUSH4 0xC5B95190 EQ PUSH2 0x173 JUMPI DUP1 PUSH4 0xD547741F EQ PUSH2 0x1A3 JUMPI PUSH2 0x88 JUMP JUMPDEST DUP1 PUSH4 0x248A9CA3 EQ PUSH2 0x8D JUMPI DUP1 PUSH4 0x2F2FF15D EQ PUSH2 0xBD JUMPI DUP1 PUSH4 0x36568ABE EQ PUSH2 0xED JUMPI DUP1 PUSH4 0x36FF8DDE EQ PUSH2 0x109 JUMPI JUMPDEST PUSH1 0x0 DUP1 REVERT JUMPDEST PUSH2 0xA7 PUSH1 0x4 DUP1 CALLDATASIZE SUB DUP2 ADD SWAP1 PUSH2 0xA2 SWAP2 SWAP1 PUSH2 0x63D JUMP JUMPDEST PUSH2 0x1D3 JUMP JUMPDEST PUSH1 0x40 MLOAD PUSH2 0xB4 SWAP2 SWAP1 PUSH2 0x679 JUMP JUMPDEST PUSH1 0x40 MLOAD DUP1 SWAP2 SUB SWAP1 RETURN JUMPDEST PUSH2 0xD7 PUSH1 0x4 DUP1 CALLDATASIZE SUB DUP2 ADD SWAP1 PUSH2 0xD2 SWAP2 SWAP1 PUSH2 0x6F2 JUMP JUMPDEST PUSH2 0x1F2 JUMP JUMPDEST PUSH1 0x40 MLOAD PUSH2 0xE4 SWAP2 SWAP1 PUSH2 0x74D JUMP JUMPDEST PUSH1 0x40 MLOAD DUP1 SWAP2 SUB SWAP1 RETURN JUMPDEST PUSH2 0x107 PUSH1 0x4 DUP1 CALLDATASIZE SUB DUP2 ADD SWAP1 PUSH2 0x102 SWAP2 SWAP1 PUSH2 0x6F2 JUMP JUMPDEST PUSH2 0x2F1 JUMP JUMPDEST STOP JUMPDEST PUSH2 0x123 PUSH1 0x4 DUP1 CALLDATASIZE SUB DUP2 ADD SWAP1 PUSH2 0x11E SWAP2 SWAP1 PUSH2 0x8AE JUMP JUMPDEST PUSH2 0x36E JUMP JUMPDEST STOP JUMPDEST PUSH2 0x13F PUSH1 0x4 DUP1 CALLDATASIZE SUB DUP2 ADD SWAP1 PUSH2 0x13A SWAP2 SWAP1 PUSH2 0x6F2 JUMP JUMPDEST PUSH2 0x430 JUMP JUMPDEST PUSH1 0x40 MLOAD PUSH2 0x14C SWAP2 SWAP1 PUSH2 0x74D JUMP JUMPDEST PUSH1 0x40 MLOAD DUP1 SWAP2 SUB SWAP1 RETURN JUMPDEST PUSH2 0x15D PUSH2 0x49A JUMP JUMPDEST PUSH1 0x40 MLOAD PUSH2 0x16A SWAP2 SWAP1 PUSH2 0x679 JUMP JUMPDEST PUSH1 0x40 MLOAD DUP1 SWAP2 SUB SWAP1 RETURN JUMPDEST PUSH2 0x18D PUSH1 0x4 DUP1 CALLDATASIZE SUB DUP2 ADD SWAP1 PUSH2 0x188 SWAP2 SWAP1 PUSH2 0x63D JUMP JUMPDEST PUSH2 0x4A1 JUMP JUMPDEST PUSH1 0x40 MLOAD PUSH2 0x19A SWAP2 SWAP1 PUSH2 0x74D JUMP JUMPDEST PUSH1 0x40 MLOAD DUP1 SWAP2 SUB SWAP1 RETURN JUMPDEST PUSH2 0x1BD PUSH1 0x4 DUP1 CALLDATASIZE SUB DUP2 ADD SWAP1 PUSH2 0x1B8 SWAP2 SWAP1 PUSH2 0x6F2 JUMP JUMPDEST PUSH2 0x4F5 JUMP JUMPDEST PUSH1 0x40 MLOAD PUSH2 0x1CA SWAP2 SWAP1 PUSH2 0x74D JUMP JUMPDEST PUSH1 0x40 MLOAD DUP1 SWAP2 SUB SWAP1 RETURN JUMPDEST PUSH1 0x0 DUP1 PUSH1 0x0 DUP4 DUP2 MSTORE PUSH1 0x20 ADD SWAP1 DUP2 MSTORE PUSH1 0x20 ADD PUSH1 0x0 KECCAK256 PUSH1 0x1 ADD SLOAD SWAP1 POP SWAP2 SWAP1 POP JUMP JUMPDEST PUSH1 0x0 PUSH2 0x1FD DUP4 PUSH2 0x1D3 JUMP JUMPDEST PUSH2 0x206 DUP2 PUSH2 0x4A1 JUMP JUMPDEST POP PUSH2 0x211 DUP5 DUP5 PUSH2 0x430 JUMP JUMPDEST ISZERO PUSH2 0x21F JUMPI PUSH1 0x0 SWAP2 POP PUSH2 0x2EA JUMP JUMPDEST PUSH1 0x1 PUSH1 0x0 DUP1 DUP7 DUP2 MSTORE PUSH1 0x20 ADD SWAP1 DUP2 MSTORE PUSH1 0x20 ADD PUSH1 0x0 KECCAK256 PUSH1 0x0 ADD PUSH1 0x0 DUP6 PUSH20 0xFFFFFFFFFFFFFFFFFFFFFFFFFFFFFFFFFFFFFFFF AND PUSH20 0xFFFFFFFFFFFFFFFFFFFFFFFFFFFFFFFFFFFFFFFF AND DUP2 MSTORE PUSH1 0x20 ADD SWAP1 DUP2 MSTORE PUSH1 0x20 ADD PUSH1 0x0 KECCAK256 PUSH1 0x0 PUSH2 0x100 EXP DUP2 SLOAD DUP2 PUSH1 0xFF MUL NOT AND SWAP1 DUP4 ISZERO ISZERO MUL OR SWAP1 SSTORE POP CALLER PUSH20 0xFFFFFFFFFFFFFFFFFFFFFFFFFFFFFFFFFFFFFFFF AND DUP4 PUSH20 0xFFFFFFFFFFFFFFFFFFFFFFFFFFFFFFFFFFFFFFFF AND DUP6 PUSH32 0x2F8788117E7EFF1D82E926EC794901D17C78024A50270940304540A733656F0D PUSH1 0x40 MLOAD PUSH1 0x40 MLOAD DUP1 SWAP2 SUB SWAP1 LOG4 PUSH1 0x1 SWAP2 POP JUMPDEST POP SWAP3 SWAP2 POP POP JUMP JUMPDEST CALLER PUSH20 0xFFFFFFFFFFFFFFFFFFFFFFFFFFFFFFFFFFFFFFFF AND DUP2 PUSH20 0xFFFFFFFFFFFFFFFFFFFFFFFFFFFFFFFFFFFFFFFF AND EQ PUSH2 0x35F JUMPI PUSH1 0x40 MLOAD PUSH32 0x8C379A000000000000000000000000000000000000000000000000000000000 DUP2 MSTORE PUSH1 0x4 ADD PUSH2 0x356 SWAP1 PUSH2 0x97A JUMP JUMPDEST PUSH1 0x40 MLOAD DUP1 SWAP2 SUB SWAP1 REVERT JUMPDEST PUSH2 0x369 DUP3 DUP3 PUSH2 0x4F5 JUMP JUMPDEST POP POP POP JUMP JUMPDEST PUSH2 0x37B PUSH1 0x0 DUP1 SHL CALLER PUSH2 0x430 JUMP JUMPDEST PUSH2 0x3BA JUMPI PUSH1 0x40 MLOAD PUSH32 0x8C379A000000000000000000000000000000000000000000000000000000000 DUP2 MSTORE PUSH1 0x4 ADD PUSH2 0x3B1 SWAP1 PUSH2 0x9E6 JUMP JUMPDEST PUSH1 0x40 MLOAD DUP1 SWAP2 SUB SWAP1 REVERT JUMPDEST DUP3 PUSH1 0x1 PUSH1 0x0 DUP4 DUP2 MSTORE PUSH1 0x20 ADD SWAP1 DUP2 MSTORE PUSH1 0x20 ADD PUSH1 0x0 KECCAK256 PUSH1 0x0 ADD DUP4 PUSH1 0x40 MLOAD PUSH2 0x3DF SWAP2 SWAP1 PUSH2 0xA80 JUMP JUMPDEST SWAP1 DUP2 MSTORE PUSH1 0x20 ADD PUSH1 0x40 MLOAD DUP1 SWAP2 SUB SWAP1 KECCAK256 PUSH1 0x0 PUSH2 0x100 EXP DUP2 SLOAD DUP2 PUSH20 0xFFFFFFFFFFFFFFFFFFFFFFFFFFFFFFFFFFFFFFFF MUL NOT AND SWAP1 DUP4 PUSH20 0xFFFFFFFFFFFFFFFFFFFFFFFFFFFFFFFFFFFFFFFF AND MUL OR SWAP1 SSTORE POP POP POP POP JUMP JUMPDEST PUSH1 0x0 DUP1 PUSH1 0x0 DUP5 DUP2 MSTORE PUSH1 0x20 ADD SWAP1 DUP2 MSTORE PUSH1 0x20 ADD PUSH1 0x0 KECCAK256 PUSH1 0x0 ADD PUSH1 0x0 DUP4 PUSH20 0xFFFFFFFFFFFFFFFFFFFFFFFFFFFFFFFFFFFFFFFF AND PUSH20 0xFFFFFFFFFFFFFFFFFFFFFFFFFFFFFFFFFFFFFFFF AND DUP2 MSTORE PUSH1 0x20 ADD SWAP1 DUP2 MSTORE PUSH1 0x20 ADD PUSH1 0x0 KECCAK256 PUSH1 0x0 SWAP1 SLOAD SWAP1 PUSH2 0x100 EXP SWAP1 DIV PUSH1 0xFF AND SWAP1 POP SWAP3 SWAP2 POP POP JUMP JUMPDEST PUSH1 0x0 DUP1 SHL DUP2 JUMP JUMPDEST PUSH1 0x0 PUSH2 0x4AD DUP3 CALLER PUSH2 0x430 JUMP JUMPDEST PUSH2 0x4EC JUMPI PUSH1 0x40 MLOAD PUSH32 0x8C379A000000000000000000000000000000000000000000000000000000000 DUP2 MSTORE PUSH1 0x4 ADD PUSH2 0x4E3 SWAP1 PUSH2 0xAE3 JUMP JUMPDEST PUSH1 0x40 MLOAD DUP1 SWAP2 SUB SWAP1 REVERT JUMPDEST PUSH1 0x1 SWAP1 POP SWAP2 SWAP1 POP JUMP JUMPDEST PUSH1 0x0 PUSH2 0x500 DUP4 PUSH2 0x1D3 JUMP JUMPDEST PUSH2 0x509 DUP2 PUSH2 0x4A1 JUMP JUMPDEST POP PUSH2 0x514 DUP5 DUP5 PUSH2 0x430 JUMP JUMPDEST PUSH2 0x521 JUMPI PUSH1 0x0 SWAP2 POP PUSH2 0x5EC JUMP JUMPDEST PUSH1 0x0 DUP1 PUSH1 0x0 DUP7 DUP2 MSTORE PUSH1 0x20 ADD SWAP1 DUP2 MSTORE PUSH1 0x20 ADD PUSH1 0x0 KECCAK256 PUSH1 0x0 ADD PUSH1 0x0 DUP6 PUSH20 0xFFFFFFFFFFFFFFFFFFFFFFFFFFFFFFFFFFFFFFFF AND PUSH20 0xFFFFFFFFFFFFFFFFFFFFFFFFFFFFFFFFFFFFFFFF AND DUP2 MSTORE PUSH1 0x20 ADD SWAP1 DUP2 MSTORE PUSH1 0x20 ADD PUSH1 0x0 KECCAK256 PUSH1 0x0 PUSH2 0x100 EXP DUP2 SLOAD DUP2 PUSH1 0xFF MUL NOT AND SWAP1 DUP4 ISZERO ISZERO MUL OR SWAP1 SSTORE POP CALLER PUSH20 0xFFFFFFFFFFFFFFFFFFFFFFFFFFFFFFFFFFFFFFFF AND DUP4 PUSH20 0xFFFFFFFFFFFFFFFFFFFFFFFFFFFFFFFFFFFFFFFF AND DUP6 PUSH32 0xF6391F5C32D9C69D2A47EA670B442974B53935D1EDC7FD64EB21E047A839171B PUSH1 0x40 MLOAD PUSH1 0x40 MLOAD DUP1 SWAP2 SUB SWAP1 LOG4 PUSH1 0x1 SWAP2 POP JUMPDEST POP SWAP3 SWAP2 POP POP JUMP JUMPDEST PUSH1 0x0 PUSH1 0x40 MLOAD SWAP1 POP SWAP1 JUMP JUMPDEST PUSH1 0x0 DUP1 REVERT JUMPDEST PUSH1 0x0 DUP1 REVERT JUMPDEST PUSH1 0x0 DUP2 SWAP1 POP SWAP2 SWAP1 POP JUMP JUMPDEST PUSH2 0x61A DUP2 PUSH2 0x607 JUMP JUMPDEST DUP2 EQ PUSH2 0x625 JUMPI PUSH1 0x0 DUP1 REVERT JUMPDEST POP JUMP JUMPDEST PUSH1 0x0 DUP2 CALLDATALOAD SWAP1 POP PUSH2 0x637 DUP2 PUSH2 0x611 JUMP JUMPDEST SWAP3 SWAP2 POP POP JUMP JUMPDEST PUSH1 0x0 PUSH1 0x20 DUP3 DUP5 SUB SLT ISZERO PUSH2 0x653 JUMPI PUSH2 0x652 PUSH2 0x5FD JUMP JUMPDEST JUMPDEST PUSH1 0x0 PUSH2 0x661 DUP5 DUP3 DUP6 ADD PUSH2 0x628 JUMP JUMPDEST SWAP2 POP POP SWAP3 SWAP2 POP POP JUMP JUMPDEST PUSH2 0x673 DUP2 PUSH2 0x607 JUMP JUMPDEST DUP3 MSTORE POP POP JUMP JUMPDEST PUSH1 0x0 PUSH1 0x20 DUP3 ADD SWAP1 POP PUSH2 0x68E PUSH1 0x0 DUP4 ADD DUP5 PUSH2 0x66A JUMP JUMPDEST SWAP3 SWAP2 POP POP JUMP JUMPDEST PUSH1 0x0 PUSH20 0xFFFFFFFFFFFFFFFFFFFFFFFFFFFFFFFFFFFFFFFF DUP3 AND SWAP1 POP SWAP2 SWAP1 POP JUMP JUMPDEST PUSH1 0x0 PUSH2 0x6BF DUP3 PUSH2 0x694 JUMP JUMPDEST SWAP1 POP SWAP2 SWAP1 POP JUMP JUMPDEST PUSH2 0x6CF DUP2 PUSH2 0x6B4 JUMP JUMPDEST DUP2 EQ PUSH2 0x6DA JUMPI PUSH1 0x0 DUP1 REVERT JUMPDEST POP JUMP JUMPDEST PUSH1 0x0 DUP2 CALLDATALOAD SWAP1 POP PUSH2 0x6EC DUP2 PUSH2 0x6C6 JUMP JUMPDEST SWAP3 SWAP2 POP POP JUMP JUMPDEST PUSH1 0x0 DUP1 PUSH1 0x40 DUP4 DUP6 SUB SLT ISZERO PUSH2 0x709 JUMPI PUSH2 0x708 PUSH2 0x5FD JUMP JUMPDEST JUMPDEST PUSH1 0x0 PUSH2 0x717 DUP6 DUP3 DUP7 ADD PUSH2 0x628 JUMP JUMPDEST SWAP3 POP POP PUSH1 0x20 PUSH2 0x728 DUP6 DUP3 DUP7 ADD PUSH2 0x6DD JUMP JUMPDEST SWAP2 POP POP SWAP3 POP SWAP3 SWAP1 POP JUMP JUMPDEST PUSH1 0x0 DUP2 ISZERO ISZERO SWAP1 POP SWAP2 SWAP1 POP JUMP JUMPDEST PUSH2 0x747 DUP2 PUSH2 0x732 JUMP JUMPDEST DUP3 MSTORE POP POP JUMP JUMPDEST PUSH1 0x0 PUSH1 0x20 DUP3 ADD SWAP1 POP PUSH2 0x762 PUSH1 0x0 DUP4 ADD DUP5 PUSH2 0x73E JUMP JUMPDEST SWAP3 SWAP2 POP POP JUMP JUMPDEST PUSH1 0x0 DUP1 REVERT JUMPDEST PUSH1 0x0 DUP1 REVERT JUMPDEST PUSH1 0x0 PUSH1 0x1F NOT PUSH1 0x1F DUP4 ADD AND SWAP1 POP SWAP2 SWAP1 POP JUMP JUMPDEST PUSH32 0x4E487B7100000000000000000000000000000000000000000000000000000000 PUSH1 0x0 MSTORE PUSH1 0x41 PUSH1 0x4 MSTORE PUSH1 0x24 PUSH1 0x0 REVERT JUMPDEST PUSH2 0x7BB DUP3 PUSH2 0x772 JUMP JUMPDEST DUP2 ADD DUP2 DUP2 LT PUSH8 0xFFFFFFFFFFFFFFFF DUP3 GT OR ISZERO PUSH2 0x7DA JUMPI PUSH2 0x7D9 PUSH2 0x783 JUMP JUMPDEST JUMPDEST DUP1 PUSH1 0x40 MSTORE POP POP POP JUMP JUMPDEST PUSH1 0x0 PUSH2 0x7ED PUSH2 0x5F3 JUMP JUMPDEST SWAP1 POP PUSH2 0x7F9 DUP3 DUP3 PUSH2 0x7B2 JUMP JUMPDEST SWAP2 SWAP1 POP JUMP JUMPDEST PUSH1 0x0 PUSH8 0xFFFFFFFFFFFFFFFF DUP3 GT ISZERO PUSH2 0x819 JUMPI PUSH2 0x818 PUSH2 0x783 JUMP JUMPDEST JUMPDEST PUSH2 0x822 DUP3 PUSH2 0x772 JUMP JUMPDEST SWAP1 POP PUSH1 0x20 DUP2 ADD SWAP1 POP SWAP2 SWAP1 POP JUMP JUMPDEST DUP3 DUP2 DUP4 CALLDATACOPY PUSH1 0x0 DUP4 DUP4 ADD MSTORE POP POP POP JUMP JUMPDEST PUSH1 0x0 PUSH2 0x851 PUSH2 0x84C DUP5 PUSH2 0x7FE JUMP JUMPDEST PUSH2 0x7E3 JUMP JUMPDEST SWAP1 POP DUP3 DUP2 MSTORE PUSH1 0x20 DUP2 ADD DUP5 DUP5 DUP5 ADD GT ISZERO PUSH2 0x86D JUMPI PUSH2 0x86C PUSH2 0x76D JUMP JUMPDEST JUMPDEST PUSH2 0x878 DUP5 DUP3 DUP6 PUSH2 0x82F JUMP JUMPDEST POP SWAP4 SWAP3 POP POP POP JUMP JUMPDEST PUSH1 0x0 DUP3 PUSH1 0x1F DUP4 ADD SLT PUSH2 0x895 JUMPI PUSH2 0x894 PUSH2 0x768 JUMP JUMPDEST JUMPDEST DUP2 CALLDATALOAD PUSH2 0x8A5 DUP5 DUP3 PUSH1 0x20 DUP7 ADD PUSH2 0x83E JUMP JUMPDEST SWAP2 POP POP SWAP3 SWAP2 POP POP JUMP JUMPDEST PUSH1 0x0 DUP1 PUSH1 0x0 PUSH1 0x60 DUP5 DUP7 SUB SLT ISZERO PUSH2 0x8C7 JUMPI PUSH2 0x8C6 PUSH2 0x5FD JUMP JUMPDEST JUMPDEST PUSH1 0x0 PUSH2 0x8D5 DUP7 DUP3 DUP8 ADD PUSH2 0x6DD JUMP JUMPDEST SWAP4 POP POP PUSH1 0x20 DUP5 ADD CALLDATALOAD PUSH8 0xFFFFFFFFFFFFFFFF DUP2 GT ISZERO PUSH2 0x8F6 JUMPI PUSH2 0x8F5 PUSH2 0x602 JUMP JUMPDEST JUMPDEST PUSH2 0x902 DUP7 DUP3 DUP8 ADD PUSH2 0x880 JUMP JUMPDEST SWAP3 POP POP PUSH1 0x40 PUSH2 0x913 DUP7 DUP3 DUP8 ADD PUSH2 0x628 JUMP JUMPDEST SWAP2 POP POP SWAP3 POP SWAP3 POP SWAP3 JUMP JUMPDEST PUSH1 0x0 DUP3 DUP3 MSTORE PUSH1 0x20 DUP3 ADD SWAP1 POP SWAP3 SWAP2 POP POP JUMP JUMPDEST PUSH32 0x426164436F6E6669726D6174696F6E0000000000000000000000000000000000 PUSH1 0x0 DUP3 ADD MSTORE POP JUMP JUMPDEST PUSH1 0x0 PUSH2 0x964 PUSH1 0xF DUP4 PUSH2 0x91D JUMP JUMPDEST SWAP2 POP PUSH2 0x96F DUP3 PUSH2 0x92E JUMP JUMPDEST PUSH1 0x20 DUP3 ADD SWAP1 POP SWAP2 SWAP1 POP JUMP JUMPDEST PUSH1 0x0 PUSH1 0x20 DUP3 ADD SWAP1 POP DUP2 DUP2 SUB PUSH1 0x0 DUP4 ADD MSTORE PUSH2 0x993 DUP2 PUSH2 0x957 JUMP JUMPDEST SWAP1 POP SWAP2 SWAP1 POP JUMP JUMPDEST PUSH32 0x594F552048415645204E4F205249474854000000000000000000000000000000 PUSH1 0x0 DUP3 ADD MSTORE POP JUMP JUMPDEST PUSH1 0x0 PUSH2 0x9D0 PUSH1 0x11 DUP4 PUSH2 0x91D JUMP JUMPDEST SWAP2 POP PUSH2 0x9DB DUP3 PUSH2 0x99A JUMP JUMPDEST PUSH1 0x20 DUP3 ADD SWAP1 POP SWAP2 SWAP1 POP JUMP JUMPDEST PUSH1 0x0 PUSH1 0x20 DUP3 ADD SWAP1 POP DUP2 DUP2 SUB PUSH1 0x0 DUP4 ADD MSTORE PUSH2 0x9FF DUP2 PUSH2 0x9C3 JUMP JUMPDEST SWAP1 POP SWAP2 SWAP1 POP JUMP JUMPDEST PUSH1 0x0 DUP2 MLOAD SWAP1 POP SWAP2 SWAP1 POP JUMP JUMPDEST PUSH1 0x0 DUP2 SWAP1 POP SWAP3 SWAP2 POP POP JUMP JUMPDEST PUSH1 0x0 JUMPDEST DUP4 DUP2 LT ISZERO PUSH2 0xA3A JUMPI DUP1 DUP3 ADD MLOAD DUP2 DUP5 ADD MSTORE PUSH1 0x20 DUP2 ADD SWAP1 POP PUSH2 0xA1F JUMP JUMPDEST DUP4 DUP2 GT ISZERO PUSH2 0xA49 JUMPI PUSH1 0x0 DUP5 DUP5 ADD MSTORE JUMPDEST POP POP POP POP JUMP JUMPDEST PUSH1 0x0 PUSH2 0xA5A DUP3 PUSH2 0xA06 JUMP JUMPDEST PUSH2 0xA64 DUP2 DUP6 PUSH2 0xA11 JUMP JUMPDEST SWAP4 POP PUSH2 0xA74 DUP2 DUP6 PUSH1 0x20 DUP7 ADD PUSH2 0xA1C JUMP JUMPDEST DUP1 DUP5 ADD SWAP2 POP POP SWAP3 SWAP2 POP POP JUMP JUMPDEST PUSH1 0x0 PUSH2 0xA8C DUP3 DUP5 PUSH2 0xA4F JUMP JUMPDEST SWAP2 POP DUP2 SWAP1 POP SWAP3 SWAP2 POP POP JUMP JUMPDEST PUSH32 0x556E417574686F72697A65644163636F756E7400000000000000000000000000 PUSH1 0x0 DUP3 ADD MSTORE POP JUMP JUMPDEST PUSH1 0x0 PUSH2 0xACD PUSH1 0x13 DUP4 PUSH2 0x91D JUMP JUMPDEST SWAP2 POP PUSH2 0xAD8 DUP3 PUSH2 0xA97 JUMP JUMPDEST PUSH1 0x20 DUP3 ADD SWAP1 POP SWAP2 SWAP1 POP JUMP JUMPDEST PUSH1 0x0 PUSH1 0x20 DUP3 ADD SWAP1 POP DUP2 DUP2 SUB PUSH1 0x0 DUP4 ADD MSTORE PUSH2 0xAFC DUP2 PUSH2 0xAC0 JUMP JUMPDEST SWAP1 POP SWAP2 SWAP1 POP JUMP INVALID LOG2 PUSH5 0x6970667358 0x22 SLT KECCAK256 DUP13 PUSH11 0x139F7437AD70C5F453681A SHL PUSH14 0xF3320E88A329D72357765532506E 0xAF DUP5 MSIZE PUSH5 0x736F6C6343 STOP ADDMOD SIGNEXTEND STOP CALLER "
		},
		"gasEstimates": {
			"creation": {
				"codeDepositCost": "815400",
				"executionCost": "infinite",
				"totalCost": "infinite"
			},
			"external": {
				"registerCompanyInDomain(bytes32,string,address)": "infinite"
			}
		},
		"methodIdentifiers": {
			"registerCompanyInDomain(bytes32,string,address)": "1a2e1027"
		}
	},
	"abi": [
		{
			"inputs": [
				{
					"internalType": "address",
					"name": "_accessControlAddress",
					"type": "address"
				}
			],
			"stateMutability": "nonpayable",
			"type": "constructor"
		},
		{
			"inputs": [
				{
					"internalType": "bytes32",
					"name": "domain",
					"type": "bytes32"
				},
				{
					"internalType": "string",
					"name": "companydid",
					"type": "string"
				},
				{
					"internalType": "address",
					"name": "companyAdmin",
					"type": "address"
				}
			],
			"name": "registerCompanyInDomain",
			"outputs": [
				{
					"internalType": "bool",
					"name": "",
					"type": "bool"
				}
			],
			"stateMutability": "nonpayable",
			"type": "function"
		}
	]
}